{
  "_format": "hh-sol-artifact-1",
  "contractName": "ComunionNft",
  "sourceName": "contracts/Nft.sol",
  "abi": [
    {
      "inputs": [
        {
          "internalType": "string",
          "name": "_baseURI",
          "type": "string"
        },
        {
          "internalType": "string",
          "name": "_contractMetadata",
          "type": "string"
        }
      ],
      "stateMutability": "nonpayable",
      "type": "constructor"
    },
    {
      "anonymous": false,
      "inputs": [
        {
          "indexed": true,
          "internalType": "address",
          "name": "owner",
          "type": "address"
        },
        {
          "indexed": true,
          "internalType": "address",
          "name": "approved",
          "type": "address"
        },
        {
          "indexed": true,
          "internalType": "uint256",
          "name": "tokenId",
          "type": "uint256"
        }
      ],
      "name": "Approval",
      "type": "event"
    },
    {
      "anonymous": false,
      "inputs": [
        {
          "indexed": true,
          "internalType": "address",
          "name": "owner",
          "type": "address"
        },
        {
          "indexed": true,
          "internalType": "address",
          "name": "operator",
          "type": "address"
        },
        {
          "indexed": false,
          "internalType": "bool",
          "name": "approved",
          "type": "bool"
        }
      ],
      "name": "ApprovalForAll",
      "type": "event"
    },
    {
      "anonymous": false,
      "inputs": [
        {
          "indexed": false,
          "internalType": "uint256",
          "name": "_fromTokenId",
          "type": "uint256"
        },
        {
          "indexed": false,
          "internalType": "uint256",
          "name": "_toTokenId",
          "type": "uint256"
        }
      ],
      "name": "BatchMetadataUpdate",
      "type": "event"
    },
    {
      "anonymous": false,
      "inputs": [
        {
          "indexed": false,
          "internalType": "uint256",
          "name": "_tokenId",
          "type": "uint256"
        }
      ],
      "name": "MetadataUpdate",
      "type": "event"
    },
    {
      "anonymous": false,
      "inputs": [
        {
          "indexed": true,
          "internalType": "address",
          "name": "from",
          "type": "address"
        },
        {
          "indexed": true,
          "internalType": "address",
          "name": "to",
          "type": "address"
        },
        {
          "indexed": true,
          "internalType": "uint256",
          "name": "tokenId",
          "type": "uint256"
        }
      ],
      "name": "Transfer",
      "type": "event"
    },
    {
      "inputs": [
        {
          "internalType": "address",
          "name": "",
          "type": "address"
        }
      ],
      "name": "SBTNFTAddressLists",
      "outputs": [
        {
          "internalType": "string",
          "name": "",
          "type": "string"
        }
      ],
      "stateMutability": "view",
      "type": "function"
    },
    {
      "inputs": [
        {
          "internalType": "address",
          "name": "_userAddress",
          "type": "address"
        },
        {
          "internalType": "string",
          "name": "_tokenURI",
          "type": "string"
        }
      ],
      "name": "_setSBTNFTAddressLists",
      "outputs": [],
      "stateMutability": "nonpayable",
      "type": "function"
    },
    {
      "inputs": [
        {
          "internalType": "address",
          "name": "to",
          "type": "address"
        },
        {
          "internalType": "uint256",
          "name": "tokenId",
          "type": "uint256"
        }
      ],
      "name": "approve",
      "outputs": [],
      "stateMutability": "nonpayable",
      "type": "function"
    },
    {
      "inputs": [
        {
          "internalType": "address",
          "name": "owner",
          "type": "address"
        }
      ],
      "name": "balanceOf",
      "outputs": [
        {
          "internalType": "uint256",
          "name": "",
          "type": "uint256"
        }
      ],
      "stateMutability": "view",
      "type": "function"
    },
    {
      "inputs": [],
      "name": "contractURI",
      "outputs": [
        {
          "internalType": "string",
          "name": "",
          "type": "string"
        }
      ],
      "stateMutability": "pure",
      "type": "function"
    },
    {
      "inputs": [
        {
          "internalType": "uint256",
          "name": "tokenId",
          "type": "uint256"
        }
      ],
      "name": "getApproved",
      "outputs": [
        {
          "internalType": "address",
          "name": "",
          "type": "address"
        }
      ],
      "stateMutability": "view",
      "type": "function"
    },
    {
      "inputs": [
        {
          "internalType": "address",
          "name": "_userAddress",
          "type": "address"
        }
      ],
      "name": "getSBTNFTAddressLists",
      "outputs": [
        {
          "internalType": "string",
          "name": "",
          "type": "string"
        }
      ],
      "stateMutability": "view",
      "type": "function"
    },
    {
      "inputs": [],
      "name": "getTokenIdTotal",
      "outputs": [
        {
          "internalType": "uint256",
          "name": "",
          "type": "uint256"
        }
      ],
      "stateMutability": "view",
      "type": "function"
    },
    {
      "inputs": [
        {
          "internalType": "address",
          "name": "owner",
          "type": "address"
        },
        {
          "internalType": "address",
          "name": "operator",
          "type": "address"
        }
      ],
      "name": "isApprovedForAll",
      "outputs": [
        {
          "internalType": "bool",
          "name": "",
          "type": "bool"
        }
      ],
      "stateMutability": "view",
      "type": "function"
    },
    {
      "inputs": [
        {
          "internalType": "address",
          "name": "account",
          "type": "address"
        }
      ],
      "name": "isOwner",
      "outputs": [
        {
          "internalType": "address",
          "name": "",
          "type": "address"
        }
      ],
      "stateMutability": "nonpayable",
      "type": "function"
    },
    {
      "inputs": [
        {
          "internalType": "address",
          "name": "player",
          "type": "address"
        }
      ],
      "name": "mint",
      "outputs": [
        {
          "internalType": "uint256",
          "name": "",
          "type": "uint256"
        }
      ],
      "stateMutability": "nonpayable",
      "type": "function"
    },
    {
      "inputs": [
        {
          "internalType": "address",
          "name": "account",
          "type": "address"
        },
        {
          "internalType": "uint256",
          "name": "amount",
          "type": "uint256"
        }
      ],
      "name": "mintBatch",
      "outputs": [
        {
          "internalType": "uint256[]",
          "name": "",
          "type": "uint256[]"
        }
      ],
      "stateMutability": "nonpayable",
      "type": "function"
    },
    {
      "inputs": [],
      "name": "name",
      "outputs": [
        {
          "internalType": "string",
          "name": "",
          "type": "string"
        }
      ],
      "stateMutability": "view",
      "type": "function"
    },
    {
      "inputs": [
        {
          "internalType": "uint256",
          "name": "tokenId",
          "type": "uint256"
        }
      ],
      "name": "ownerOf",
      "outputs": [
        {
          "internalType": "address",
          "name": "",
          "type": "address"
        }
      ],
      "stateMutability": "view",
      "type": "function"
    },
    {
      "inputs": [
        {
          "internalType": "address",
          "name": "from",
          "type": "address"
        },
        {
          "internalType": "address",
          "name": "to",
          "type": "address"
        },
        {
          "internalType": "uint256",
          "name": "tokenId",
          "type": "uint256"
        }
      ],
      "name": "safeTransferFrom",
      "outputs": [],
      "stateMutability": "nonpayable",
      "type": "function"
    },
    {
      "inputs": [
        {
          "internalType": "address",
          "name": "from",
          "type": "address"
        },
        {
          "internalType": "address",
          "name": "to",
          "type": "address"
        },
        {
          "internalType": "uint256",
          "name": "tokenId",
          "type": "uint256"
        },
        {
          "internalType": "bytes",
          "name": "data",
          "type": "bytes"
        }
      ],
      "name": "safeTransferFrom",
      "outputs": [],
      "stateMutability": "nonpayable",
      "type": "function"
    },
    {
      "inputs": [
        {
          "internalType": "address",
          "name": "operator",
          "type": "address"
        },
        {
          "internalType": "bool",
          "name": "approved",
          "type": "bool"
        }
      ],
      "name": "setApprovalForAll",
      "outputs": [],
      "stateMutability": "nonpayable",
      "type": "function"
    },
    {
      "inputs": [
        {
          "internalType": "uint256",
          "name": "itemId",
          "type": "uint256"
        },
        {
          "internalType": "string",
          "name": "tokenURI",
          "type": "string"
        }
      ],
      "name": "setTokenURI",
      "outputs": [
        {
          "internalType": "uint256",
          "name": "",
          "type": "uint256"
        }
      ],
      "stateMutability": "nonpayable",
      "type": "function"
    },
    {
      "inputs": [
        {
          "internalType": "address",
          "name": "_userAddress",
          "type": "address"
        },
        {
          "internalType": "bool",
          "name": "_whiteState",
          "type": "bool"
        }
      ],
      "name": "setWhiteLists",
      "outputs": [],
      "stateMutability": "nonpayable",
      "type": "function"
    },
    {
      "inputs": [
        {
          "internalType": "bytes4",
          "name": "interfaceId",
          "type": "bytes4"
        }
      ],
      "name": "supportsInterface",
      "outputs": [
        {
          "internalType": "bool",
          "name": "",
          "type": "bool"
        }
      ],
      "stateMutability": "view",
      "type": "function"
    },
    {
      "inputs": [],
      "name": "symbol",
      "outputs": [
        {
          "internalType": "string",
          "name": "",
          "type": "string"
        }
      ],
      "stateMutability": "view",
      "type": "function"
    },
    {
      "inputs": [
        {
          "internalType": "uint256",
          "name": "tokenId",
          "type": "uint256"
        }
      ],
      "name": "tokenURI",
      "outputs": [
        {
          "internalType": "string",
          "name": "",
          "type": "string"
        }
      ],
      "stateMutability": "view",
      "type": "function"
    },
    {
      "inputs": [
        {
          "internalType": "address",
          "name": "from",
          "type": "address"
        },
        {
          "internalType": "address",
          "name": "to",
          "type": "address"
        },
        {
          "internalType": "uint256",
          "name": "tokenId",
          "type": "uint256"
        }
      ],
      "name": "transferFrom",
      "outputs": [],
      "stateMutability": "nonpayable",
      "type": "function"
    },
    {
      "inputs": [
        {
          "internalType": "address",
          "name": "",
          "type": "address"
        }
      ],
      "name": "whiteLists",
      "outputs": [
        {
          "internalType": "bool",
          "name": "",
          "type": "bool"
        }
      ],
      "stateMutability": "view",
      "type": "function"
    }
  ],
  "bytecode": "0x60806040526008805460ff191660011790556103e860095534801562000023575f80fd5b5060405162001f6438038062001f648339810160408190526200004691620001a1565b6040518060400160405280600b81526020016a10dbdb5d5b9a5bdb93999d60aa1b8152506040518060400160405280600481526020016310d3919560e21b815250815f908162000097919062000293565b506001620000a6828262000293565b50600a9150620000b99050838262000293565b50600b620000c8828262000293565b5050600c80546001600160a01b03191633179055506200035b565b634e487b7160e01b5f52604160045260245ffd5b5f82601f83011262000107575f80fd5b81516001600160401b0380821115620001245762000124620000e3565b604051601f8301601f19908116603f011681019082821181831017156200014f576200014f620000e3565b816040528381526020925086838588010111156200016b575f80fd5b5f91505b838210156200018e57858201830151818301840152908201906200016f565b5f93810190920192909252949350505050565b5f8060408385031215620001b3575f80fd5b82516001600160401b0380821115620001ca575f80fd5b620001d886838701620000f7565b93506020850151915080821115620001ee575f80fd5b50620001fd85828601620000f7565b9150509250929050565b600181811c908216806200021c57607f821691505b6020821081036200023b57634e487b7160e01b5f52602260045260245ffd5b50919050565b601f8211156200028e575f81815260208120601f850160051c81016020861015620002695750805b601f850160051c820191505b818110156200028a5782815560010162000275565b5050505b505050565b81516001600160401b03811115620002af57620002af620000e3565b620002c781620002c0845462000207565b8462000241565b602080601f831160018114620002fd575f8415620002e55750858301515b5f19600386901b1c1916600185901b1785556200028a565b5f85815260208120601f198616915b828110156200032d578886015182559484019460019091019084016200030c565b50858210156200034b57878501515f19600388901b60f8161c191681555b5050505050600190811b01905550565b611bfb80620003695f395ff3fe608060405234801561000f575f80fd5b5060043610610153575f3560e01c80636352211e116100bf57806395d89b411161007957806395d89b41146102fd578063a22cb46514610305578063b88d4fde14610318578063c87b56dd1461032b578063e8a3d4851461033e578063e985e9c514610346575f80fd5b80636352211e146102965780636a627842146102a957806370a08231146102bc57806373966e09146102cf5780638563767c146102d757806392cf3140146102ea575f80fd5b8063248b71fc11610110578063248b71fc146102085780632f54bf6e1461022857806335432fa81461023b57806342842e0e1461024e57806353dc840b1461026157806356aa1f0314610283575f80fd5b806301ffc9a71461015757806306fdde031461017f578063081812fc14610194578063095ea7b3146101bf578063162094c4146101d457806323b872dd146101f5575b5f80fd5b61016a610165366004611499565b610381565b60405190151581526020015b60405180910390f35b6101876103ab565b6040516101769190611501565b6101a76101a2366004611513565b61043a565b6040516001600160a01b039091168152602001610176565b6101d26101cd366004611545565b61045f565b005b6101e76101e2366004611612565b610578565b604051908152602001610176565b6101d2610203366004611656565b6105b5565b61021b610216366004611545565b6105e6565b604051610176919061168f565b6101a76102363660046116d2565b610678565b6101876102493660046116d2565b6106ab565b6101d261025c366004611656565b610754565b61016a61026f3660046116d2565b600d6020525f908152604090205460ff1681565b6101d26102913660046116eb565b61076e565b6101a76102a4366004611513565b6107c2565b6101e76102b73660046116d2565b610821565b6101e76102ca3660046116d2565b610865565b6101e76108e9565b6101d26102e5366004611724565b6108f4565b6101876102f83660046116d2565b610915565b6101876109ac565b6101d26103133660046116eb565b6109bb565b6101d2610326366004611759565b6109ca565b610187610339366004611513565b610a02565b610187610b0c565b61016a6103543660046117d0565b6001600160a01b039182165f90815260056020908152604080832093909416825291909152205460ff1690565b5f6001600160e01b03198216632483248360e11b14806103a557506103a582610b2c565b92915050565b60605f80546103b990611801565b80601f01602080910402602001604051908101604052809291908181526020018280546103e590611801565b80156104305780601f1061040757610100808354040283529160200191610430565b820191905f5260205f20905b81548152906001019060200180831161041357829003601f168201915b5050505050905090565b5f61044482610b7b565b505f908152600460205260409020546001600160a01b031690565b5f610469826107c2565b9050806001600160a01b0316836001600160a01b0316036104db5760405162461bcd60e51b815260206004820152602160248201527f4552433732313a20617070726f76616c20746f2063757272656e74206f776e656044820152603960f91b60648201526084015b60405180910390fd5b336001600160a01b03821614806104f757506104f78133610354565b6105695760405162461bcd60e51b815260206004820152603d60248201527f4552433732313a20617070726f76652063616c6c6572206973206e6f7420746f60448201527f6b656e206f776e6572206f7220617070726f76656420666f7220616c6c00000060648201526084016104d2565b6105738383610bdc565b505050565b600c545f906001600160a01b031633146105a45760405162461bcd60e51b81526004016104d290611839565b6105ae8383610c49565b5090919050565b6105bf3382610d12565b6105db5760405162461bcd60e51b81526004016104d29061185d565b610573838383610d8e565b6060808267ffffffffffffffff8111156106025761060261156d565b60405190808252806020026020018201604052801561062b578160200160208202803683370190505b5090505f5b838110156106705761064185610821565b828281518110610653576106536118aa565b602090810291909101015280610668816118be565b915050610630565b509392505050565b600c545f906001600160a01b038381169116146106a75760405162461bcd60e51b81526004016104d290611839565b5090565b6001600160a01b0381165f908152600e602052604090208054606091906106d190611801565b80601f01602080910402602001604051908101604052809291908181526020018280546106fd90611801565b80156107485780601f1061071f57610100808354040283529160200191610748565b820191905f5260205f20905b81548152906001019060200180831161072b57829003601f168201915b50505050509050919050565b61057383838360405180602001604052805f8152506109ca565b600c546001600160a01b031633146107985760405162461bcd60e51b81526004016104d290611839565b6001600160a01b03919091165f908152600d60205260409020805460ff1916911515919091179055565b5f818152600260205260408120546001600160a01b0316806103a55760405162461bcd60e51b8152602060048201526018602482015277115490cdcc8c4e881a5b9d985b1a59081d1bdad95b88125160421b60448201526064016104d2565b5f8061082c60075490565b90506108388382610ef0565b61084a8161084583611078565b610c49565b610857836102e583611078565b6103a5600780546001019055565b5f6001600160a01b0382166108ce5760405162461bcd60e51b815260206004820152602960248201527f4552433732313a2061646472657373207a65726f206973206e6f7420612076616044820152683634b21037bbb732b960b91b60648201526084016104d2565b506001600160a01b03165f9081526003602052604090205490565b5f806103a560075490565b6001600160a01b0382165f908152600e60205260409020610573828261192f565b600e6020525f90815260409020805461092d90611801565b80601f016020809104026020016040519081016040528092919081815260200182805461095990611801565b80156109a45780601f1061097b576101008083540402835291602001916109a4565b820191905f5260205f20905b81548152906001019060200180831161098757829003601f168201915b505050505081565b6060600180546103b990611801565b6109c63383836110b0565b5050565b6109d43383610d12565b6109f05760405162461bcd60e51b81526004016104d29061185d565b6109fc8484848461117d565b50505050565b6060610a0d82610b7b565b5f8281526006602052604081208054610a2590611801565b80601f0160208091040260200160405190810160405280929190818152602001828054610a5190611801565b8015610a9c5780601f10610a7357610100808354040283529160200191610a9c565b820191905f5260205f20905b815481529060010190602001808311610a7f57829003601f168201915b505050505090505f610ab860408051602081019091525f815290565b905080515f03610ac9575092915050565b815115610afb578082604051602001610ae39291906119eb565b60405160208183030381529060405292505050919050565b610b04846111b0565b949350505050565b6060604051806080016040528060568152602001611b7060569139905090565b5f6001600160e01b031982166380ac58cd60e01b1480610b5c57506001600160e01b03198216635b5e139f60e01b145b806103a557506301ffc9a760e01b6001600160e01b03198316146103a5565b5f818152600260205260409020546001600160a01b0316610bd95760405162461bcd60e51b8152602060048201526018602482015277115490cdcc8c4e881a5b9d985b1a59081d1bdad95b88125160421b60448201526064016104d2565b50565b5f81815260046020526040902080546001600160a01b0319166001600160a01b0384169081179091558190610c10826107c2565b6001600160a01b03167f8c5be1e5ebec7d5bd14f71427d1e84f3dd0314c0f7b2291e5b200ac8c7c3b92560405160405180910390a45050565b5f828152600260205260409020546001600160a01b0316610cc35760405162461bcd60e51b815260206004820152602e60248201527f45524337323155524953746f726167653a2055524920736574206f66206e6f6e60448201526d32bc34b9ba32b73a103a37b5b2b760911b60648201526084016104d2565b5f828152600660205260409020610cda828261192f565b506040518281527ff8e1a15aba9398e019f0b49df1a4fde98ee17ae345cb5f6b5e2c27f5033e8ce79060200160405180910390a15050565b5f80610d1d836107c2565b9050806001600160a01b0316846001600160a01b03161480610d6357506001600160a01b038082165f9081526005602090815260408083209388168352929052205460ff165b80610b045750836001600160a01b0316610d7c8461043a565b6001600160a01b031614949350505050565b826001600160a01b0316610da1826107c2565b6001600160a01b031614610dc75760405162461bcd60e51b81526004016104d290611a19565b6001600160a01b038216610e295760405162461bcd60e51b8152602060048201526024808201527f4552433732313a207472616e7366657220746f20746865207a65726f206164646044820152637265737360e01b60648201526084016104d2565b826001600160a01b0316610e3c826107c2565b6001600160a01b031614610e625760405162461bcd60e51b81526004016104d290611a19565b5f81815260046020908152604080832080546001600160a01b03199081169091556001600160a01b038781168086526003855283862080545f1901905590871680865283862080546001019055868652600290945282852080549092168417909155905184937fddf252ad1be2c89b69c2b068fc378daa952ba7f163c4a11628f55a4df523b3ef91a4505050565b6001600160a01b038216610f465760405162461bcd60e51b815260206004820181905260248201527f4552433732313a206d696e7420746f20746865207a65726f206164647265737360448201526064016104d2565b5f818152600260205260409020546001600160a01b031615610faa5760405162461bcd60e51b815260206004820152601c60248201527f4552433732313a20746f6b656e20616c7265616479206d696e7465640000000060448201526064016104d2565b5f818152600260205260409020546001600160a01b03161561100e5760405162461bcd60e51b815260206004820152601c60248201527f4552433732313a20746f6b656e20616c7265616479206d696e7465640000000060448201526064016104d2565b6001600160a01b0382165f81815260036020908152604080832080546001019055848352600290915280822080546001600160a01b0319168417905551839291907fddf252ad1be2c89b69c2b068fc378daa952ba7f163c4a11628f55a4df523b3ef908290a45050565b60605f61108483611220565b90505f816040516020016110989190611a5e565b60408051601f19818403018152919052949350505050565b816001600160a01b0316836001600160a01b0316036111115760405162461bcd60e51b815260206004820152601960248201527f4552433732313a20617070726f766520746f2063616c6c65720000000000000060448201526064016104d2565b6001600160a01b038381165f81815260056020908152604080832094871680845294825291829020805460ff191686151590811790915591519182527f17307eab39ab6107e8899845ad3d59bd9653f200f220920489ca2b5937696c31910160405180910390a3505050565b611188848484610d8e565b611194848484846112b0565b6109fc5760405162461bcd60e51b81526004016104d290611ac6565b60606111bb82610b7b565b5f6111d060408051602081019091525f815290565b90505f8151116111ee5760405180602001604052805f815250611219565b806111f884611220565b6040516020016112099291906119eb565b6040516020818303038152906040525b9392505050565b60605f61122c836113ad565b60010190505f8167ffffffffffffffff81111561124b5761124b61156d565b6040519080825280601f01601f191660200182016040528015611275576020820181803683370190505b5090508181016020015b5f19016f181899199a1a9b1b9c1cb0b131b232b360811b600a86061a8153600a850494508461127f57509392505050565b5f6001600160a01b0384163b156113a257604051630a85bd0160e11b81526001600160a01b0385169063150b7a02906112f3903390899088908890600401611b18565b6020604051808303815f875af192505050801561132d575060408051601f3d908101601f1916820190925261132a91810190611b54565b60015b611388573d80801561135a576040519150601f19603f3d011682016040523d82523d5f602084013e61135f565b606091505b5080515f036113805760405162461bcd60e51b81526004016104d290611ac6565b805181602001fd5b6001600160e01b031916630a85bd0160e11b149050610b04565b506001949350505050565b5f8072184f03e93ff9f4daa797ed6e38ed64bf6a1f0160401b83106113eb5772184f03e93ff9f4daa797ed6e38ed64bf6a1f0160401b830492506040015b6d04ee2d6d415b85acef81000000008310611417576d04ee2d6d415b85acef8100000000830492506020015b662386f26fc10000831061143557662386f26fc10000830492506010015b6305f5e100831061144d576305f5e100830492506008015b612710831061146157612710830492506004015b60648310611473576064830492506002015b600a83106103a55760010192915050565b6001600160e01b031981168114610bd9575f80fd5b5f602082840312156114a9575f80fd5b813561121981611484565b5f5b838110156114ce5781810151838201526020016114b6565b50505f910152565b5f81518084526114ed8160208601602086016114b4565b601f01601f19169290920160200192915050565b602081525f61121960208301846114d6565b5f60208284031215611523575f80fd5b5035919050565b80356001600160a01b0381168114611540575f80fd5b919050565b5f8060408385031215611556575f80fd5b61155f8361152a565b946020939093013593505050565b634e487b7160e01b5f52604160045260245ffd5b5f67ffffffffffffffff8084111561159b5761159b61156d565b604051601f8501601f19908116603f011681019082821181831017156115c3576115c361156d565b816040528093508581528686860111156115db575f80fd5b858560208301375f602087830101525050509392505050565b5f82601f830112611603575f80fd5b61121983833560208501611581565b5f8060408385031215611623575f80fd5b82359150602083013567ffffffffffffffff811115611640575f80fd5b61164c858286016115f4565b9150509250929050565b5f805f60608486031215611668575f80fd5b6116718461152a565b925061167f6020850161152a565b9150604084013590509250925092565b602080825282518282018190525f9190848201906040850190845b818110156116c6578351835292840192918401916001016116aa565b50909695505050505050565b5f602082840312156116e2575f80fd5b6112198261152a565b5f80604083850312156116fc575f80fd5b6117058361152a565b915060208301358015158114611719575f80fd5b809150509250929050565b5f8060408385031215611735575f80fd5b61173e8361152a565b9150602083013567ffffffffffffffff811115611640575f80fd5b5f805f806080858703121561176c575f80fd5b6117758561152a565b93506117836020860161152a565b925060408501359150606085013567ffffffffffffffff8111156117a5575f80fd5b8501601f810187136117b5575f80fd5b6117c487823560208401611581565b91505092959194509250565b5f80604083850312156117e1575f80fd5b6117ea8361152a565b91506117f86020840161152a565b90509250929050565b600181811c9082168061181557607f821691505b60208210810361183357634e487b7160e01b5f52602260045260245ffd5b50919050565b6020808252600a90820152694e6f74206f776e65722160b01b604082015260600190565b6020808252602d908201527f4552433732313a2063616c6c6572206973206e6f7420746f6b656e206f776e6560408201526c1c881bdc88185c1c1c9bdd9959609a1b606082015260800190565b634e487b7160e01b5f52603260045260245ffd5b5f600182016118db57634e487b7160e01b5f52601160045260245ffd5b5060010190565b601f821115610573575f81815260208120601f850160051c810160208610156119085750805b601f850160051c820191505b8181101561192757828155600101611914565b505050505050565b815167ffffffffffffffff8111156119495761194961156d565b61195d816119578454611801565b846118e2565b602080601f831160018114611990575f84156119795750858301515b5f19600386901b1c1916600185901b178555611927565b5f85815260208120601f198616915b828110156119be5788860151825594840194600190910190840161199f565b50858210156119db57878501515f19600388901b60f8161c191681555b5050505050600190811b01905550565b5f83516119fc8184602088016114b4565b835190830190611a108183602088016114b4565b01949350505050565b60208082526025908201527f4552433732313a207472616e736665722066726f6d20696e636f72726563742060408201526437bbb732b960d91b606082015260800190565b607b60f81b815268113a34ba3632911d1160b91b600182015281515f90611a8c81600a8501602087016114b4565b61088b60f21b600a9390910192830152506d113a3cb832911d1139b934b7339160911b600c820152607d60f81b601a820152601b01919050565b60208082526032908201527f4552433732313a207472616e7366657220746f206e6f6e20455243373231526560408201527131b2b4bb32b91034b6b83632b6b2b73a32b960711b606082015260800190565b6001600160a01b03858116825284166020820152604081018390526080606082018190525f90611b4a908301846114d6565b9695505050505050565b5f60208284031215611b64575f80fd5b81516112198161148456fe68747470733a2f2f7261772e67697468756275736572636f6e74656e742e636f6d2f6e6578746e696b6f2f776562332d496e74656c6c6967656e742d636f6e74726163742f6d61696e2f6e6a6c2d6e66742e6a736f6ea26469706673582212207977d9d591ebb7abf320f074b4453f0e84e1f920e6ea6de41698904f6d80c26664736f6c63430008140033",
  "linkReferences": {},
  "deployedLinkReferences": {}
}