{
  "_format": "hh-sol-artifact-1",
  "contractName": "Secondary",
  "sourceName": "contracts/ownership/Secondary.sol",
  "abi": [
    {
      "inputs": [],
      "stateMutability": "nonpayable",
      "type": "constructor"
    },
    {
      "anonymous": false,
      "inputs": [
        {
          "indexed": false,
          "internalType": "address",
          "name": "recipient",
          "type": "address"
        }
      ],
      "name": "PrimaryTransferred",
      "type": "event"
    },
    {
      "inputs": [],
      "name": "primary",
      "outputs": [
        {
          "internalType": "address",
          "name": "",
          "type": "address"
        }
      ],
      "stateMutability": "view",
      "type": "function"
    },
    {
      "inputs": [
        {
          "internalType": "address",
          "name": "recipient",
          "type": "address"
        }
      ],
      "name": "transferPrimary",
      "outputs": [],
      "stateMutability": "nonpayable",
      "type": "function"
    }
  ],
  "bytecode": "0x608060405234801561000f575f80fd5b505f80546001600160a01b0319163390811790915560408051918252517f4101e71e974f68df5e9730cc223280b41654676bbb052cdcc735c3337e64d2d99181900360200190a1610206806100635f395ff3fe608060405234801561000f575f80fd5b5060043610610034575f3560e01c80632348238c14610038578063c6dbdf611461004d575b5f80fd5b61004b6100463660046101a3565b61006b565b005b5f54604080516001600160a01b039092168252519081900360200190f35b5f546001600160a01b0316336001600160a01b0316146100e75760405162461bcd60e51b815260206004820152602c60248201527f5365636f6e646172793a2063616c6c6572206973206e6f74207468652070726960448201526b1b585c9e481858d8dbdd5b9d60a21b60648201526084015b60405180910390fd5b6001600160a01b0381166101505760405162461bcd60e51b815260206004820152602a60248201527f5365636f6e646172793a206e6577207072696d61727920697320746865207a65604482015269726f206164647265737360b01b60648201526084016100de565b5f80546001600160a01b0319166001600160a01b0383169081179091556040519081527f4101e71e974f68df5e9730cc223280b41654676bbb052cdcc735c3337e64d2d99060200160405180910390a150565b5f602082840312156101b3575f80fd5b81356001600160a01b03811681146101c9575f80fd5b939250505056fea264697066735822122025f67da1966df9906a731f04f1ee49b1a31a681b2e50e562108fd9fa7400811464736f6c63430008140033",
  "linkReferences": {},
  "deployedLinkReferences": {}
}