{
  "_format": "hh-sol-artifact-1",
  "contractName": "StartupStore",
  "sourceName": "contracts/StartupStore.sol",
  "abi": [
    {
      "anonymous": false,
      "inputs": [
        {
          "indexed": false,
          "internalType": "address",
          "name": "recipient",
          "type": "address"
        }
      ],
      "name": "PrimaryTransferred",
      "type": "event"
    },
    {
      "inputs": [
        {
          "internalType": "string",
          "name": "_name",
          "type": "string"
        }
      ],
      "name": "getStartup",
      "outputs": [
        {
          "internalType": "string",
          "name": "name",
          "type": "string"
        },
        {
          "internalType": "uint256",
          "name": "chainId",
          "type": "uint256"
        },
        {
          "internalType": "address",
          "name": "founder",
          "type": "address"
        },
        {
          "internalType": "bool",
          "name": "used",
          "type": "bool"
        }
      ],
      "stateMutability": "view",
      "type": "function"
    },
    {
      "inputs": [],
      "name": "getStartups",
      "outputs": [
        {
          "internalType": "string[]",
          "name": "",
          "type": "string[]"
        }
      ],
      "stateMutability": "view",
      "type": "function"
    },
    {
      "inputs": [],
      "name": "primary",
      "outputs": [
        {
          "internalType": "address",
          "name": "",
          "type": "address"
        }
      ],
      "stateMutability": "view",
      "type": "function"
    },
    {
      "inputs": [
        {
          "internalType": "string",
          "name": "_name",
          "type": "string"
        },
        {
          "internalType": "uint256",
          "name": "_chainId",
          "type": "uint256"
        },
        {
          "internalType": "address",
          "name": "_founder",
          "type": "address"
        },
        {
          "internalType": "bool",
          "name": "_used",
          "type": "bool"
        }
      ],
      "name": "putStartup",
      "outputs": [],
      "stateMutability": "nonpayable",
      "type": "function"
    },
    {
      "inputs": [
        {
          "internalType": "address",
          "name": "recipient",
          "type": "address"
        }
      ],
      "name": "transferPrimary",
      "outputs": [],
      "stateMutability": "nonpayable",
      "type": "function"
    }
  ],
  "bytecode": "0x608060405234801561000f575f80fd5b505f80546001600160a01b0319163390811790915560408051918252517f4101e71e974f68df5e9730cc223280b41654676bbb052cdcc735c3337e64d2d99181900360200190a161090f806100635f395ff3fe608060405234801561000f575f80fd5b5060043610610055575f3560e01c806320972301146100595780632348238c146100855780636a3b67971461009a578063c6dbdf61146100af578063c8ab13da146100c9575b5f80fd5b61006c61006736600461056f565b6100dc565b60405161007c94939291906105f6565b60405180910390f35b61009861009336600461064a565b6101f2565b005b6100a26102e9565b60405161007c919061066a565b5f546040516001600160a01b03909116815260200161007c565b6100986100d73660046106ca565b6103bd565b60605f805f806002866040516100f29190610734565b90815260200160405180910390206040518060800160405290815f8201805461011a9061074f565b80601f01602080910402602001604051908101604052809291908181526020018280546101469061074f565b80156101915780601f1061016857610100808354040283529160200191610191565b820191905f5260205f20905b81548152906001019060200180831161017457829003601f168201915b505050918352505060018201546020808301919091526002909201546001600160a01b038116604080840191909152600160a01b90910460ff1615156060928301528351928401519084015193909101519199909850919650945092505050565b5f546001600160a01b0316336001600160a01b03161461022d5760405162461bcd60e51b815260040161022490610787565b60405180910390fd5b6001600160a01b0381166102965760405162461bcd60e51b815260206004820152602a60248201527f5365636f6e646172793a206e6577207072696d61727920697320746865207a65604482015269726f206164647265737360b01b6064820152608401610224565b5f80546001600160a01b0319166001600160a01b0383169081179091556040519081527f4101e71e974f68df5e9730cc223280b41654676bbb052cdcc735c3337e64d2d99060200160405180910390a150565b60606001805480602002602001604051908101604052809291908181526020015f905b828210156103b4578382905f5260205f200180546103299061074f565b80601f01602080910402602001604051908101604052809291908181526020018280546103559061074f565b80156103a05780601f10610377576101008083540402835291602001916103a0565b820191905f5260205f20905b81548152906001019060200180831161038357829003601f168201915b50505050508152602001906001019061030c565b50505050905090565b5f546001600160a01b0316336001600160a01b0316146103ef5760405162461bcd60e51b815260040161022490610787565b60408051608081018252858152602081018590526001600160a01b0384168183015282151560608201529051819060029061042b908890610734565b90815260405190819003602001902081518190610448908261081d565b5060208201516001808301919091556040830151600290920180546060909401511515600160a01b026001600160a81b03199094166001600160a01b0390931692909217929092179055805480820182555f919091527fb10e2d527612073b26eecdfd717e6a320cf44b4afac2b0732d9fcbe2b7fa0cf6016104ca868261081d565b505050505050565b634e487b7160e01b5f52604160045260245ffd5b5f82601f8301126104f5575f80fd5b813567ffffffffffffffff80821115610510576105106104d2565b604051601f8301601f19908116603f01168101908282118183101715610538576105386104d2565b81604052838152866020858801011115610550575f80fd5b836020870160208301375f602085830101528094505050505092915050565b5f6020828403121561057f575f80fd5b813567ffffffffffffffff811115610595575f80fd5b6105a1848285016104e6565b949350505050565b5f5b838110156105c35781810151838201526020016105ab565b50505f910152565b5f81518084526105e28160208601602086016105a9565b601f01601f19169290920160200192915050565b608081525f61060860808301876105cb565b6020830195909552506001600160a01b039290921660408301521515606090910152919050565b80356001600160a01b0381168114610645575f80fd5b919050565b5f6020828403121561065a575f80fd5b6106638261062f565b9392505050565b5f602080830181845280855180835260408601915060408160051b87010192508387015f5b828110156106bd57603f198886030184526106ab8583516105cb565b9450928501929085019060010161068f565b5092979650505050505050565b5f805f80608085870312156106dd575f80fd5b843567ffffffffffffffff8111156106f3575f80fd5b6106ff878288016104e6565b945050602085013592506107156040860161062f565b915060608501358015158114610729575f80fd5b939692955090935050565b5f82516107458184602087016105a9565b9190910192915050565b600181811c9082168061076357607f821691505b60208210810361078157634e487b7160e01b5f52602260045260245ffd5b50919050565b6020808252602c908201527f5365636f6e646172793a2063616c6c6572206973206e6f74207468652070726960408201526b1b585c9e481858d8dbdd5b9d60a21b606082015260800190565b601f821115610818575f81815260208120601f850160051c810160208610156107f95750805b601f850160051c820191505b818110156104ca57828155600101610805565b505050565b815167ffffffffffffffff811115610837576108376104d2565b61084b81610845845461074f565b846107d3565b602080601f83116001811461087e575f84156108675750858301515b5f19600386901b1c1916600185901b1785556104ca565b5f85815260208120601f198616915b828110156108ac5788860151825594840194600190910190840161088d565b50858210156108c957878501515f19600388901b60f8161c191681555b5050505050600190811b0190555056fea2646970667358221220c59b6ea50682980cdf38b41d9ea9e427a639cf1e8ba31a2e847950205cc30f4264736f6c63430008140033",
  "linkReferences": {},
  "deployedLinkReferences": {}
}