{
  "_format": "hh-sol-artifact-1",
  "contractName": "FactoryStore",
  "sourceName": "contracts/FactoryStore.sol",
  "abi": [
    {
      "anonymous": false,
      "inputs": [
        {
          "indexed": false,
          "internalType": "address",
          "name": "recipient",
          "type": "address"
        }
      ],
      "name": "PrimaryTransferred",
      "type": "event"
    },
    {
      "inputs": [],
      "name": "children",
      "outputs": [
        {
          "internalType": "address[]",
          "name": "",
          "type": "address[]"
        }
      ],
      "stateMutability": "view",
      "type": "function"
    },
    {
      "inputs": [
        {
          "internalType": "address",
          "name": "childAddr",
          "type": "address"
        }
      ],
      "name": "isChild",
      "outputs": [
        {
          "internalType": "bool",
          "name": "",
          "type": "bool"
        }
      ],
      "stateMutability": "view",
      "type": "function"
    },
    {
      "inputs": [],
      "name": "primary",
      "outputs": [
        {
          "internalType": "address",
          "name": "",
          "type": "address"
        }
      ],
      "stateMutability": "view",
      "type": "function"
    },
    {
      "inputs": [
        {
          "internalType": "address",
          "name": "child",
          "type": "address"
        }
      ],
      "name": "push",
      "outputs": [],
      "stateMutability": "nonpayable",
      "type": "function"
    },
    {
      "inputs": [
        {
          "internalType": "address",
          "name": "recipient",
          "type": "address"
        }
      ],
      "name": "transferPrimary",
      "outputs": [],
      "stateMutability": "nonpayable",
      "type": "function"
    }
  ],
  "bytecode": "0x608060405234801561000f575f80fd5b505f80546001600160a01b0319163390811790915560408051918252517f4101e71e974f68df5e9730cc223280b41654676bbb052cdcc735c3337e64d2d99181900360200190a1610447806100635f395ff3fe608060405234801561000f575f80fd5b5060043610610055575f3560e01c80632348238c1461005957806389b09de71461006e578063c2bc80fd14610081578063c6dbdf611461009f578063fc91a897146100b9575b5f80fd5b61006c61006736600461034c565b6100dc565b005b61006c61007c36600461034c565b6101d3565b610089610268565b6040516100969190610379565b60405180910390f35b5f546040516001600160a01b039091168152602001610096565b6100cc6100c736600461034c565b6102fb565b6040519015158152602001610096565b5f546001600160a01b0316336001600160a01b0316146101175760405162461bcd60e51b815260040161010e906103c5565b60405180910390fd5b6001600160a01b0381166101805760405162461bcd60e51b815260206004820152602a60248201527f5365636f6e646172793a206e6577207072696d61727920697320746865207a65604482015269726f206164647265737360b01b606482015260840161010e565b5f80546001600160a01b0319166001600160a01b0383169081179091556040519081527f4101e71e974f68df5e9730cc223280b41654676bbb052cdcc735c3337e64d2d99060200160405180910390a150565b5f546001600160a01b0316336001600160a01b0316146102055760405162461bcd60e51b815260040161010e906103c5565b6001805480820182557fb10e2d527612073b26eecdfd717e6a320cf44b4afac2b0732d9fcbe2b7fa0cf60180546001600160a01b039093166001600160a01b0319909316831790555f91825260026020526040909120805460ff19169091179055565b5f546060906001600160a01b0316336001600160a01b03161461029d5760405162461bcd60e51b815260040161010e906103c5565b60018054806020026020016040519081016040528092919081815260200182805480156102f157602002820191905f5260205f20905b81546001600160a01b031681526001909101906020018083116102d3575b5050505050905090565b5f80546001600160a01b0316336001600160a01b03161461032e5760405162461bcd60e51b815260040161010e906103c5565b506001600160a01b03165f9081526002602052604090205460ff1690565b5f6020828403121561035c575f80fd5b81356001600160a01b0381168114610372575f80fd5b9392505050565b602080825282518282018190525f9190848201906040850190845b818110156103b95783516001600160a01b031683529284019291840191600101610394565b50909695505050505050565b6020808252602c908201527f5365636f6e646172793a2063616c6c6572206973206e6f74207468652070726960408201526b1b585c9e481858d8dbdd5b9d60a21b60608201526080019056fea2646970667358221220dc4d66046263d48859852e9542b40ec85e22a15ff01c4657a53d2ba97d8d64f264736f6c63430008140033",
  "linkReferences": {},
  "deployedLinkReferences": {}
}