{
  "_format": "hh-sol-artifact-1",
  "contractName": "CrowdfundingFactory",
  "sourceName": "contracts/Crowdfunding.sol",
  "abi": [
    {
      "inputs": [
        {
          "internalType": "address",
          "name": "_feeToSetter",
          "type": "address"
        },
        {
          "internalType": "address",
          "name": "_feeTo",
          "type": "address"
        },
        {
          "internalType": "address",
          "name": "_transferSigner",
          "type": "address"
        }
      ],
      "stateMutability": "nonpayable",
      "type": "constructor"
    },
    {
      "inputs": [],
      "name": "TokenAddress",
      "type": "error"
    },
    {
      "inputs": [
        {
          "internalType": "string",
          "name": "_type",
          "type": "string"
        }
      ],
      "name": "TokenAllowanceInsufficient",
      "type": "error"
    },
    {
      "inputs": [
        {
          "internalType": "string",
          "name": "_type",
          "type": "string"
        }
      ],
      "name": "TokenBalanceInsufficient",
      "type": "error"
    },
    {
      "inputs": [
        {
          "internalType": "address",
          "name": "_sender",
          "type": "address"
        }
      ],
      "name": "Unauthorized",
      "type": "error"
    },
    {
      "anonymous": false,
      "inputs": [
        {
          "indexed": false,
          "internalType": "address",
          "name": "founder",
          "type": "address"
        },
        {
          "indexed": false,
          "internalType": "address",
          "name": "crowdfunding",
          "type": "address"
        },
        {
          "components": [
            {
              "internalType": "address",
              "name": "sellTokenAddress",
              "type": "address"
            },
            {
              "internalType": "address",
              "name": "buyTokenAddress",
              "type": "address"
            },
            {
              "internalType": "uint8",
              "name": "sellTokenDecimals",
              "type": "uint8"
            },
            {
              "internalType": "uint8",
              "name": "buyTokenDecimals",
              "type": "uint8"
            },
            {
              "internalType": "bool",
              "name": "buyTokenIsNative",
              "type": "bool"
            },
            {
              "internalType": "uint256",
              "name": "raiseTotal",
              "type": "uint256"
            },
            {
              "internalType": "uint256",
              "name": "buyPrice",
              "type": "uint256"
            },
            {
              "internalType": "uint16",
              "name": "swapPercent",
              "type": "uint16"
            },
            {
              "internalType": "uint16",
              "name": "sellTax",
              "type": "uint16"
            },
            {
              "internalType": "uint256",
              "name": "maxBuyAmount",
              "type": "uint256"
            },
            {
              "internalType": "uint256",
              "name": "minBuyAmount",
              "type": "uint256"
            },
            {
              "internalType": "uint16",
              "name": "maxSellPercent",
              "type": "uint16"
            },
            {
              "internalType": "address",
              "name": "teamWallet",
              "type": "address"
            },
            {
              "internalType": "uint256",
              "name": "startTime",
              "type": "uint256"
            },
            {
              "internalType": "uint256",
              "name": "endTime",
              "type": "uint256"
            },
            {
              "internalType": "address",
              "name": "router",
              "type": "address"
            },
            {
              "internalType": "uint256",
              "name": "dexInitPrice",
              "type": "uint256"
            }
          ],
          "indexed": false,
          "internalType": "struct Parameters",
          "name": "paras",
          "type": "tuple"
        }
      ],
      "name": "Created",
      "type": "event"
    },
    {
      "anonymous": false,
      "inputs": [
        {
          "indexed": true,
          "internalType": "address",
          "name": "previousOwner",
          "type": "address"
        },
        {
          "indexed": true,
          "internalType": "address",
          "name": "newOwner",
          "type": "address"
        }
      ],
      "name": "OwnershipTransferred",
      "type": "event"
    },
    {
      "inputs": [
        {
          "internalType": "address",
          "name": "_router",
          "type": "address"
        }
      ],
      "name": "addToDexRouters",
      "outputs": [],
      "stateMutability": "nonpayable",
      "type": "function"
    },
    {
      "inputs": [],
      "name": "children",
      "outputs": [
        {
          "internalType": "address[]",
          "name": "",
          "type": "address[]"
        }
      ],
      "stateMutability": "view",
      "type": "function"
    },
    {
      "inputs": [
        {
          "components": [
            {
              "internalType": "address",
              "name": "sellTokenAddress",
              "type": "address"
            },
            {
              "internalType": "address",
              "name": "buyTokenAddress",
              "type": "address"
            },
            {
              "internalType": "uint8",
              "name": "sellTokenDecimals",
              "type": "uint8"
            },
            {
              "internalType": "uint8",
              "name": "buyTokenDecimals",
              "type": "uint8"
            },
            {
              "internalType": "bool",
              "name": "buyTokenIsNative",
              "type": "bool"
            },
            {
              "internalType": "uint256",
              "name": "raiseTotal",
              "type": "uint256"
            },
            {
              "internalType": "uint256",
              "name": "buyPrice",
              "type": "uint256"
            },
            {
              "internalType": "uint16",
              "name": "swapPercent",
              "type": "uint16"
            },
            {
              "internalType": "uint16",
              "name": "sellTax",
              "type": "uint16"
            },
            {
              "internalType": "uint256",
              "name": "maxBuyAmount",
              "type": "uint256"
            },
            {
              "internalType": "uint256",
              "name": "minBuyAmount",
              "type": "uint256"
            },
            {
              "internalType": "uint16",
              "name": "maxSellPercent",
              "type": "uint16"
            },
            {
              "internalType": "address",
              "name": "teamWallet",
              "type": "address"
            },
            {
              "internalType": "uint256",
              "name": "startTime",
              "type": "uint256"
            },
            {
              "internalType": "uint256",
              "name": "endTime",
              "type": "uint256"
            },
            {
              "internalType": "address",
              "name": "router",
              "type": "address"
            },
            {
              "internalType": "uint256",
              "name": "dexInitPrice",
              "type": "uint256"
            }
          ],
          "internalType": "struct Parameters",
          "name": "paras",
          "type": "tuple"
        }
      ],
      "name": "createCrowdfundingContract",
      "outputs": [],
      "stateMutability": "nonpayable",
      "type": "function"
    },
    {
      "inputs": [],
      "name": "fee",
      "outputs": [
        {
          "internalType": "uint24",
          "name": "",
          "type": "uint24"
        }
      ],
      "stateMutability": "view",
      "type": "function"
    },
    {
      "inputs": [],
      "name": "feeTo",
      "outputs": [
        {
          "internalType": "address",
          "name": "",
          "type": "address"
        }
      ],
      "stateMutability": "view",
      "type": "function"
    },
    {
      "inputs": [],
      "name": "feeToSetter",
      "outputs": [
        {
          "internalType": "address",
          "name": "",
          "type": "address"
        }
      ],
      "stateMutability": "view",
      "type": "function"
    },
    {
      "inputs": [],
      "name": "getStore",
      "outputs": [
        {
          "internalType": "address",
          "name": "",
          "type": "address"
        }
      ],
      "stateMutability": "view",
      "type": "function"
    },
    {
      "inputs": [
        {
          "internalType": "address",
          "name": "_address",
          "type": "address"
        }
      ],
      "name": "isChild",
      "outputs": [
        {
          "internalType": "bool",
          "name": "",
          "type": "bool"
        }
      ],
      "stateMutability": "view",
      "type": "function"
    },
    {
      "inputs": [
        {
          "internalType": "address",
          "name": "_router",
          "type": "address"
        }
      ],
      "name": "isDexRouters",
      "outputs": [
        {
          "internalType": "bool",
          "name": "",
          "type": "bool"
        }
      ],
      "stateMutability": "view",
      "type": "function"
    },
    {
      "inputs": [],
      "name": "owner",
      "outputs": [
        {
          "internalType": "address",
          "name": "",
          "type": "address"
        }
      ],
      "stateMutability": "view",
      "type": "function"
    },
    {
      "inputs": [
        {
          "internalType": "address",
          "name": "_router",
          "type": "address"
        }
      ],
      "name": "removeFromDexRouters",
      "outputs": [],
      "stateMutability": "nonpayable",
      "type": "function"
    },
    {
      "inputs": [],
      "name": "renounceOwnership",
      "outputs": [],
      "stateMutability": "nonpayable",
      "type": "function"
    },
    {
      "inputs": [
        {
          "internalType": "address",
          "name": "_feeTo",
          "type": "address"
        }
      ],
      "name": "setFeeTo",
      "outputs": [],
      "stateMutability": "nonpayable",
      "type": "function"
    },
    {
      "inputs": [
        {
          "internalType": "address",
          "name": "_feeToSetter",
          "type": "address"
        }
      ],
      "name": "setFeeToSetter",
      "outputs": [],
      "stateMutability": "nonpayable",
      "type": "function"
    },
    {
      "inputs": [
        {
          "internalType": "address",
          "name": "_transferSigner",
          "type": "address"
        }
      ],
      "name": "setTransferSigner",
      "outputs": [],
      "stateMutability": "nonpayable",
      "type": "function"
    },
    {
      "inputs": [
        {
          "internalType": "address",
          "name": "newOwner",
          "type": "address"
        }
      ],
      "name": "transferOwnership",
      "outputs": [],
      "stateMutability": "nonpayable",
      "type": "function"
    },
    {
      "inputs": [
        {
          "internalType": "address",
          "name": "newFactory",
          "type": "address"
        }
      ],
      "name": "transferPrimary",
      "outputs": [],
      "stateMutability": "nonpayable",
      "type": "function"
    },
    {
      "inputs": [],
      "name": "transferSigner",
      "outputs": [
        {
          "internalType": "address",
          "name": "",
          "type": "address"
        }
      ],
      "stateMutability": "view",
      "type": "function"
    },
    {
      "inputs": [
        {
          "internalType": "address",
          "name": "newStore",
          "type": "address"
        }
      ],
      "name": "transferStore",
      "outputs": [],
      "stateMutability": "nonpayable",
      "type": "function"
    }
  ],
  "bytecode": "0x608060405234801562000010575f80fd5b5060405162006b3f38038062006b3f833981016040819052620000339162000199565b6200003e3362000112565b6040516200004c9062000161565b604051809103905ff08015801562000066573d5f803e3d5ffd5b50600180546001600160a01b0319166001600160a01b039290921691909117905560405162000095906200016f565b604051809103905ff080158015620000af573d5f803e3d5ffd5b5060028054600480546001600160a01b03199081166001600160a01b03988916179091556005805482169588169590951790945560038054909416948616949094179092559092166001600160b81b031990911617607d60a21b179055620001e0565b5f80546001600160a01b038381166001600160a01b0319831681178455604051919092169283917f8be0079c531659141344cd1fd0a4f28419497f9722a3daafe3b4186f6b6457e09190a35050565b6104aa80620061c083390190565b6104d5806200666a83390190565b80516001600160a01b038116811462000194575f80fd5b919050565b5f805f60608486031215620001ac575f80fd5b620001b7846200017d565b9250620001c7602085016200017d565b9150620001d7604085016200017d565b90509250925092565b615fd280620001ee5f395ff3fe608060405234801562000010575f80fd5b506004361062000134575f3560e01c8063a5f5775111620000b7578063e7836e1b1162000077578063e7836e1b1462000287578063f2fde38b14620002af578063f46901ed14620002c6578063f523e77514620002dd578063fc91a89714620002f4575f80fd5b8063a5f57751146200020d578063b1d00df01462000224578063c2722ecc1462000238578063c2bc80fd1462000242578063ddca3f43146200025b575f80fd5b8063269e4e171162000103578063269e4e1714620001ad5780633d4281b814620001c4578063715018a614620001db5780638da5cb5b14620001e5578063a2e74af614620001f6575f80fd5b8063017e7e5814620001385780630728bb941462000169578063094b741514620001825780632348238c1462000196575b5f80fd5b6003546200014c906001600160a01b031681565b6040516001600160a01b0390911681526020015b60405180910390f35b620001806200017a36600462000e4a565b6200030b565b005b6004546200014c906001600160a01b031681565b62000180620001a736600462000e89565b620009d7565b62000180620001be36600462000e89565b62000a41565b62000180620001d536600462000e89565b62000a7e565b6200018062000abb565b5f546001600160a01b03166200014c565b620001806200020736600462000e89565b62000ac7565b620001806200021e36600462000e89565b62000b30565b6005546200014c906001600160a01b031681565b6200014c62000b5c565b6200024c62000b77565b60405162000160919062000eae565b6002546200027290600160a01b900462ffffff1681565b60405162ffffff909116815260200162000160565b6200029e6200029836600462000e89565b62000bed565b604051901515815260200162000160565b62000180620002c036600462000e89565b62000c63565b62000180620002d736600462000e89565b62000ce2565b62000180620002ee36600462000e89565b62000d33565b6200029e6200030536600462000e89565b62000d5f565b5f6200031b602083018362000e89565b6001600160a01b03161480156200034b57505f62000340604083016020840162000e89565b6001600160a01b0316145b156200036a57604051636165d18360e11b815260040160405180910390fd5b5f8160c0013511620003b45760405162461bcd60e51b815260206004820152600e60248201526d4552523a2042555920505249434560901b60448201526064015b60405180910390fd5b5f620003c961020083016101e0840162000e89565b6001600160a01b03161462000427575f81610200013511620004275760405162461bcd60e51b815260206004820152601660248201527508aa4a47440929c92a840a0a492868a409e8c40888ab60531b6044820152606401620003ab565b6200043f6200029861020083016101e0840162000e89565b806200046657505f6200045b61020083016101e0840162000e89565b6001600160a01b0316145b620004aa5760405162461bcd60e51b815260206004820152601360248201527208aa4a4749c9ea840a6aaa0a09ea4a840888ab606b1b6044820152606401620003ab565b5f620004ba602083018362000e89565b90505f3033604051620004cd9062000e3c565b6001600160a01b03928316815291166020820152608060408201819052600c908201526b43726f776466756e64696e6760a01b60a082015260c060608201819052600390820152620312e360ec1b60e082015261010001604051809103905ff0801580156200053e573d5f803e3d5ffd5b5060405163689d133960e11b81529091506001600160a01b0382169063d13a2672906200057090869060040162001083565b5f604051808303815f87803b15801562000588575f80fd5b505af11580156200059b573d5f803e3d5ffd5b505050505f816001600160a01b031663d0e30db06040518163ffffffff1660e01b8152600401602060405180830381865afa158015620005dd573d5f803e3d5ffd5b505050506040513d601f19601f8201168201806040525081019062000603919062001094565b90505f8111620006565760405162461bcd60e51b815260206004820152601a60248201527f53656c6c20746f6b656e206465706f736974206973207a65726f0000000000006044820152606401620003ab565b6040516370a0823160e01b815233600482015281906001600160a01b038516906370a0823190602401602060405180830381865afa1580156200069b573d5f803e3d5ffd5b505050506040513d601f19601f82011682018060405250810190620006c1919062001094565b1015620006fb57604051638c2f4c6b60e01b8152600401620003ab9060208082526004908201526314d95b1b60e21b604082015260600190565b604051636eb1769f60e11b815233600482015230602482015281906001600160a01b0385169063dd62ed3e90604401602060405180830381865afa15801562000746573d5f803e3d5ffd5b505050506040513d601f19601f820116820180604052508101906200076c919062001094565b1015620007a657604051630b29193560e31b8152600401620003ab9060208082526004908201526314d95b1b60e21b604082015260600190565b826001600160a01b03166323b872dd33846001600160a01b031663f4e759ef6040518163ffffffff1660e01b8152600401602060405180830381865afa158015620007f3573d5f803e3d5ffd5b505050506040513d601f19601f82011682018060405250810190620008199190620010b9565b6040516001600160e01b031960e085901b1681526001600160a01b03928316600482015291166024820152604481018490526064016020604051808303815f875af11580156200086b573d5f803e3d5ffd5b505050506040513d601f19601f82011682018060405250810190620008919190620010d7565b620008df5760405162461bcd60e51b815260206004820152601f60248201527f53656c6c20746f6b656e207472616e7366657246726f6d206661696c757265006044820152606401620003ab565b60405163f2fde38b60e01b81523360048201526001600160a01b0383169063f2fde38b906024015f604051808303815f87803b1580156200091e575f80fd5b505af115801562000931573d5f803e3d5ffd5b50506001546040516389b09de760e01b81526001600160a01b03808716600483015286945090911691506389b09de7906024015f604051808303815f87803b1580156200097c575f80fd5b505af11580156200098f573d5f803e3d5ffd5b505050507fc1191fb07fb1a904651e55bac1a512862d3f31c90f8073cb542dd291994e7048338287604051620009c893929190620010f5565b60405180910390a15050505050565b620009e162000d92565b6001546040516308d208e360e21b81526001600160a01b03838116600483015290911690632348238c906024015b5f604051808303815f87803b15801562000a27575f80fd5b505af115801562000a3a573d5f803e3d5ffd5b5050505050565b62000a4b62000d92565b600254604051638ab1d68160e01b81526001600160a01b03838116600483015290911690638ab1d6819060240162000a0f565b62000a8862000d92565b60025460405163e43252d760e01b81526001600160a01b0383811660048301529091169063e43252d79060240162000a0f565b62000ac562000d92565b565b6004546001600160a01b03163314158062000aec57505f546001600160a01b03163314155b1562000b0e5760405163472511eb60e11b8152336004820152602401620003ab565b600480546001600160a01b0319166001600160a01b0392909216919091179055565b62000b3a62000d92565b600580546001600160a01b0319166001600160a01b0392909216919091179055565b5f62000b6762000d92565b506001546001600160a01b031690565b6001546040805163c2bc80fd60e01b815290516060926001600160a01b03169163c2bc80fd916004808301925f9291908290030181865afa15801562000bbf573d5f803e3d5ffd5b505050506040513d5f823e601f3d908101601f1916820160405262000be8919081019062001139565b905090565b600254604051633af32abf60e01b81526001600160a01b0383811660048301525f921690633af32abf906024015b602060405180830381865afa15801562000c37573d5f803e3d5ffd5b505050506040513d601f19601f8201168201806040525081019062000c5d9190620010d7565b92915050565b62000c6d62000d92565b6001600160a01b03811662000cd45760405162461bcd60e51b815260206004820152602660248201527f4f776e61626c653a206e6577206f776e657220697320746865207a65726f206160448201526564647265737360d01b6064820152608401620003ab565b62000cdf8162000ded565b50565b6004546001600160a01b0316331462000d115760405163472511eb60e11b8152336004820152602401620003ab565b600380546001600160a01b0319166001600160a01b0392909216919091179055565b62000d3d62000d92565b600180546001600160a01b0319166001600160a01b0392909216919091179055565b60015460405163fc91a89760e01b81526001600160a01b0383811660048301525f92169063fc91a8979060240162000c1b565b5f546001600160a01b0316331462000ac55760405162461bcd60e51b815260206004820181905260248201527f4f776e61626c653a2063616c6c6572206973206e6f7420746865206f776e65726044820152606401620003ab565b5f80546001600160a01b038381166001600160a01b0319831681178455604051919092169283917f8be0079c531659141344cd1fd0a4f28419497f9722a3daafe3b4186f6b6457e09190a35050565b614d95806200120883390190565b5f610220828403121562000e5c575f80fd5b50919050565b6001600160a01b038116811462000cdf575f80fd5b803562000e848162000e62565b919050565b5f6020828403121562000e9a575f80fd5b813562000ea78162000e62565b9392505050565b602080825282518282018190525f9190848201906040850190845b8181101562000ef05783516001600160a01b03168352928401929184019160010162000ec9565b50909695505050505050565b803560ff8116811462000e84575f80fd5b801515811462000cdf575f80fd5b803562000e848162000f0d565b803561ffff8116811462000e84575f80fd5b62000f578262000f4a8362000e77565b6001600160a01b03169052565b62000f656020820162000e77565b6001600160a01b0316602083015262000f816040820162000efc565b60ff16604083015262000f976060820162000efc565b60ff16606083015262000fad6080820162000f1b565b80151560808401525060a081013560a083015260c081013560c083015262000fd860e0820162000f28565b61ffff1660e083015261010062000ff182820162000f28565b61ffff1690830152610120818101359083015261014080820135908301526101606200101f81830162000f28565b61ffff16908301526101806200103782820162000e77565b6001600160a01b0316908301526101a081810135908301526101c080820135908301526101e06200106a81830162000e77565b6001600160a01b03169083015261020090810135910152565b610220810162000c5d828462000f3a565b5f60208284031215620010a5575f80fd5b5051919050565b805162000e848162000e62565b5f60208284031215620010ca575f80fd5b815162000ea78162000e62565b5f60208284031215620010e8575f80fd5b815162000ea78162000f0d565b6001600160a01b0384811682528316602082015261026081016200111d604083018462000f3a565b949350505050565b634e487b7160e01b5f52604160045260245ffd5b5f60208083850312156200114b575f80fd5b825167ffffffffffffffff8082111562001163575f80fd5b818501915085601f83011262001177575f80fd5b8151818111156200118c576200118c62001125565b8060051b604051601f19603f83011681018181108582111715620011b457620011b462001125565b604052918252848201925083810185019188831115620011d2575f80fd5b938501935b82851015620011fb57620011eb85620010ac565b84529385019392850192620011d7565b9897505050505050505056fe61016060405234801562000011575f80fd5b5060405162004d9538038062004d958339810160408190526200003491620002fc565b8181620000413362000148565b6200004e82600162000197565b610120526200005f81600262000197565b61014052815160208084019190912060e052815190820120610100524660a052620000ec60e05161010051604080517f8b73c3c69bb8fe3d512ecc4cf759cc79239f7b179b0ffacaa9a75d522b39400f60208201529081019290925260608201524660808201523060a08201525f9060c00160405160208183030381529060405280519060200120905090565b60805250503060c0819052600780546001600160a01b039687166001600160a01b03199182168117909255600880549690971695811695909517909555601a805485169091179055505060068054909116909117905562000533565b5f80546001600160a01b038381166001600160a01b0319831681178455604051919092169283917f8be0079c531659141344cd1fd0a4f28419497f9722a3daafe3b4186f6b6457e09190a35050565b5f602083511015620001b657620001ae83620001cf565b9050620001c9565b81620001c3848262000413565b5060ff90505b92915050565b5f80829050601f8151111562000205578260405163305a27a960e01b8152600401620001fc9190620004db565b60405180910390fd5b805162000212826200050f565b179392505050565b80516001600160a01b038116811462000231575f80fd5b919050565b634e487b7160e01b5f52604160045260245ffd5b5f5b83811015620002665781810151838201526020016200024c565b50505f910152565b5f82601f8301126200027e575f80fd5b81516001600160401b03808211156200029b576200029b62000236565b604051601f8301601f19908116603f01168101908282118183101715620002c657620002c662000236565b81604052838152866020858801011115620002df575f80fd5b620002f28460208301602089016200024a565b9695505050505050565b5f805f806080858703121562000310575f80fd5b6200031b856200021a565b93506200032b602086016200021a565b60408601519093506001600160401b038082111562000348575f80fd5b62000356888389016200026e565b935060608701519150808211156200036c575f80fd5b506200037b878288016200026e565b91505092959194509250565b600181811c908216806200039c57607f821691505b602082108103620003bb57634e487b7160e01b5f52602260045260245ffd5b50919050565b601f8211156200040e575f81815260208120601f850160051c81016020861015620003e95750805b601f850160051c820191505b818110156200040a57828155600101620003f5565b5050505b505050565b81516001600160401b038111156200042f576200042f62000236565b620004478162000440845462000387565b84620003c1565b602080601f8311600181146200047d575f8415620004655750858301515b5f19600386901b1c1916600185901b1785556200040a565b5f85815260208120601f198616915b82811015620004ad578886015182559484019460019091019084016200048c565b5085821015620004cb57878501515f19600388901b60f8161c191681555b5050505050600190811b01905550565b602081525f8251806020840152620004fb8160408501602087016200024a565b601f01601f19169190910160400192915050565b80516020808301519190811015620003bb575f1960209190910360031b1b16919050565b60805160a05160c05160e051610100516101205161014051614810620005855f395f61050801525f6104dd01525f612c8e01525f612c6601525f612bc101525f612beb01525f612c1501526148105ff3fe60806040526004361061011e575f3560e01c8063c216ff881161009d578063d79875eb11610062578063d79875eb146103d5578063ea8a1af0146103e8578063f2fde38b146103fc578063f4e759ef1461041b578063f523e7751461042f575f80fd5b8063c216ff881461034d578063c2722ecc1461036e578063d0e30db014610382578063d13a26721461039f578063d6febde8146103b2575f80fd5b806389035730116100e357806389035730146102175780638da5cb5b146102c4578063a7f43779146102f4578063b305862b14610308578063c19d93fb14610327575f80fd5b80632348238c1461017957806366d602ae1461019a578063715018a6146101c857806384b0196e146101dc57806388e765ff14610203575f80fd5b36610175576040805133815260208101829052600781830152667265636569766560c81b606082015290517fd00ca3f088120b3d909c3a9e01be91e94a2b001aed9c25fe751c3c7a72dc49bf9181900360800190a1005b5f80fd5b348015610184575f80fd5b50610198610193366004612f54565b61044e565b005b3480156101a5575f80fd5b506101ae6104b3565b604080519283526020830191909152015b60405180910390f35b3480156101d3575f80fd5b506101986104c6565b3480156101e7575f80fd5b506101f06104d0565b6040516101bf9796959493929190612fbc565b34801561020e575f80fd5b506101ae610557565b348015610222575f80fd5b50610267600e54600f546011546012546013546014546015546019546001600160a01b039788169897871697600160a81b90970460ff169661ffff9586169590921691565b604080516001600160a01b039a8b1681529990981660208a015260ff90961696880196909652606087019390935261ffff918216608087015260a086015260c085019190915290911660e0830152610100820152610120016101bf565b3480156102cf575f80fd5b505f546001600160a01b03165b6040516001600160a01b0390911681526020016101bf565b3480156102ff575f80fd5b50610198610562565b348015610313575f80fd5b50610198610322366004613050565b6106d1565b348015610332575f80fd5b5061033b61072b565b6040516101bf9695949392919061309b565b61036061035b366004613113565b6107f6565b6040516101bf929190613199565b348015610379575f80fd5b506102dc610c58565b34801561038d575f80fd5b50600a546040519081526020016101bf565b6101986103ad36600461323b565b610c71565b6103c56103c0366004613350565b6110a2565b60405190151581526020016101bf565b6103c56103e3366004613350565b611780565b3480156103f3575f80fd5b50610198611cf7565b348015610407575f80fd5b50610198610416366004612f54565b611d97565b348015610426575f80fd5b506102dc611e10565b34801561043a575f80fd5b50610198610449366004612f54565b611e29565b610456611e53565b6003546040516308d208e360e21b81526001600160a01b03838116600483015290911690632348238c906024015f604051808303815f87803b15801561049a575f80fd5b505af11580156104ac573d5f803e3d5ffd5b5050505050565b5f806104be33611eac565b915091509091565b6104ce611e53565b565b5f606080828080836105037f00000000000000000000000000000000000000000000000000000000000000006001612005565b61052e7f00000000000000000000000000000000000000000000000000000000000000006002612005565b604080515f80825260208201909252600f60f81b9b939a50919850469750309650945092509050565b5f806104be336120b0565b61056a611e53565b61057261217d565b61057a6121bb565b5f610583612243565b1115610607576018546001600160a01b0316156105dc576040516306b53bd360e11b81526020600482015260116024820152706f6e6c79206175746f206c697374696e6760781b60448201526064015b60405180910390fd5b5f6105e56122db565b90508061060557604051636244afcf60e11b815260040160405180910390fd5b505b601554610622906201000090046001600160a01b0316612543565b61063f5760405163a1b57be360e01b815260040160405180910390fd5b60155461065a906201000090046001600160a01b03166126c6565b6106775760405163012e4d1960e61b815260040160405180910390fd5b601b805460ff60a01b1916600360a01b17908190556040517fc5b1926826a1a3d3516971a2579cab66ddfa770959e8c2f1d832386b262e2d86916106c7913391600160a01b900460ff1690613370565b60405180910390a1565b6106d9611e53565b6106e161217d565b6106e961278b565b601781905560408051338152602081018390527f808c9d67d9bb9dd70b931d1346a5e2b1f750fc3eeb2d9770805038ab16c3028d91015b60405180910390a150565b601b54600f545f91829182918291829182916001600160a01b039091163190600160b01b900460ff166107c957600554601b546040516370a0823160e01b81526001600160a01b0391821660048201529116906370a0823190602401602060405180830381865afa1580156107a2573d5f803e3d5ffd5b505050506040513d601f19601f820116820180604052508101906107c6919061338d565b90505b601054600b54600c54601b54601954939b929a50909850929650600160a01b90920460ff16945092509050565b5f6060610801611e53565b601b54600160a81b900460ff161561082b5760405162461bcd60e51b81526004016105d3906133a4565b601b805460ff60a81b1916600160a81b17905561084661217d565b61084e6121bb565b6018546001600160a01b03166108a0576040516306b53bd360e11b81526020600482015260166024820152756e6f7420616c6c6f77206175746f206c697374696e6760501b60448201526064016105d3565b6018546001600160a01b038981169116146108f4576040516306b53bd360e11b815260206004820152601360248201527224b731b7b739b4b9ba32b73a103937baba32b960691b60448201526064016105d3565b60075460408051630b1d00df60e41b815290516001600160a01b039092169161097991839163b1d00df0916004808201926020929091908290030181865afa158015610942573d5f803e3d5ffd5b505050506040513d601f19601f8201168201806040525081019061096691906133cc565b6109728b8b8b8b6127ad565b878761280e565b156109975760405163247d106d60e11b815260040160405180910390fd5b5f6109a06122db565b9050806109c057604051636244afcf60e11b815260040160405180910390fd5b5f6109c9612243565b600f549091505f906109fe906109ea90600160a81b900460ff16600a6134db565b6019546109f890859061286b565b90612876565b60048054601b546040516370a0823160e01b81526001600160a01b039182169381019390935292935091909116906370a0823190602401602060405180830381865afa158015610a50573d5f803e3d5ffd5b505050506040513d601f19601f82011682018060405250810190610a74919061338d565b811115610ab157604051638c2f4c6b60e01b815260206004820152600a60248201526939b2b636103a37b5b2b760b11b60448201526064016105d3565b365f8b8b9150915060035f9054906101000a90046001600160a01b03166001600160a01b031663e5a4dbf88f60045f9054906101000a90046001600160a01b031660055f9054906101000a90046001600160a01b031687898888600e60010160169054906101000a900460ff166040518963ffffffff1660e01b8152600401610b41989796959493929190613511565b5f604051808303815f875af1158015610b5c573d5f803e3d5ffd5b505050506040513d5f823e601f3d908101601f19168201604052610b83919081019061356a565b909850965087610ba657604051637a4c140d60e11b815260040160405180910390fd5b601554610bc1906201000090046001600160a01b03166126c6565b610bde5760405163012e4d1960e61b815260040160405180910390fd5b601b805460ff60a01b1916600360a01b17908190556040517fab3f2147088482db1a84b21889cc70b0e5ac5a0a34b9217f12cfc1861a9c3cef91610c30913391600160a01b900460ff16908b90613628565b60405180910390a1505050505050601b805460ff60a81b191690559097909650945050505050565b5f610c61611e53565b506003546001600160a01b031690565b610c79611e53565b6003546001600160a01b031615610cc65760405162461bcd60e51b815260206004820152601160248201527053746f7265206973206e6f74207a65726f60781b60448201526064016105d3565b604051610cd290612f23565b604051809103905ff080158015610ceb573d5f803e3d5ffd5b50600380546001600160a01b03199081166001600160a01b03938416908117909255601b805482169092179091558251600e805483169184169190911790556020830151600f80546040860151606087015160808801519487166001600160a81b031990931692909217600160a01b60ff928316021761ffff60a81b1916600160a81b919092160260ff60b01b191617600160b01b9215159290920291909117905560a083015160105560c083015160115560e08301516012805461010086015161ffff93841663ffffffff19909216919091176201000091841682021790915561012085015160135561014085015160145561016085015160158054610180880151929094166001600160b01b0319909416939093179085169091021790556101a08301516016556101c08301516017556101e0830151601880549092169216919091179055610200810151601955610e43612881565b601b805460ff60a01b1916600160a01b836004811115610e6557610e65613067565b0217905550600e54600480546001600160a01b0319166001600160a01b0390921691821781556040805163313ce56760e01b8152905163313ce567928281019260209291908290030181865afa158015610ec1573d5f803e3d5ffd5b505050506040513d601f19601f82011682018060405250810190610ee59190613656565b600f805460ff92909216600160a01b0260ff60a01b1983168117909155600e546001600160a01b0391821692821692909217911603610f3757600f805461ffff60a81b1916608960a91b179055610fe1565b600f805460ff60b01b198116909155600580546001600160a01b0319166001600160a01b0390921691821790556040805163313ce56760e01b8152905163313ce567916004808201926020929091908290030181865afa158015610f9d573d5f803e3d5ffd5b505050506040513d601f19601f82011682018060405250810190610fc19190613656565b600f805460ff92909216600160a81b0260ff60a81b199092169190911790555b601054610fee905f6128a8565b6009819055600d819055600f54611045925061103f9061101990600160a81b900460ff16600a6134db565b6019546012546010546109f8926127109284926110399161ffff1661286b565b9061286b565b9061292b565b600a557fa81af9f26c34c6997396d1d61be10b4cd9843035f372979270c7049cf0325b8a61107a5f546001600160a01b031690565b60075460085460095460405161072094936001600160a01b0390811693169190600e90613671565b5f6110ab61217d565b6110b3612936565b601b54600160a81b900460ff16156110dd5760405162461bcd60e51b81526004016105d3906133a4565b601b805460ff60a81b1916600160a81b1790556110fa8383612959565b60145483101561111d57604051636226a2a560e01b815260040160405180910390fd5b61112733846129ad565b611144576040516311b5c73d60e21b815260040160405180910390fd5b60048054601b546040516370a0823160e01b81526001600160a01b039182169381019390935284929116906370a0823190602401602060405180830381865afa158015611193573d5f803e3d5ffd5b505050506040513d601f19601f820116820180604052508101906111b7919061338d565b10156111d657604051638c2f4c6b60e01b81526004016105d39061378d565b5f6111e0846129c4565b600f54909150600160b01b900460ff16156113325783341461123d5760405162461bcd60e51b81526020600482015260166024820152751b5cd9cb9d985b1d59481a5cc81b9bdd081d985b1a5960521b60448201526064016105d3565b601b546040515f916001600160a01b03169083908381818185875af1925050503d805f8114611287576040519150601f19603f3d011682016040523d82523d5f602084013e61128c565b606091505b50509050806112ae57604051633e75f72760e11b81526004016105d3906137ab565b6015546201000090046001600160a01b03166112ca34846129e5565b6040515f81818185875af1925050503d805f8114611303576040519150601f19603f3d011682016040523d82523d5f602084013e611308565b606091505b5050809150508061132c57604051633e75f72760e11b81526004016105d3906137ab565b5061158f565b600554601a54604051636eb1769f60e11b81523360048201526001600160a01b0391821660248201528692919091169063dd62ed3e90604401602060405180830381865afa158015611386573d5f803e3d5ffd5b505050506040513d601f19601f820116820180604052508101906113aa919061338d565b10156113c957604051630b29193560e31b81526004016105d3906137ab565b6005546040516370a0823160e01b815233600482015285916001600160a01b0316906370a0823190602401602060405180830381865afa15801561140f573d5f803e3d5ffd5b505050506040513d601f19601f82011682018060405250810190611433919061338d565b101561145257604051638c2f4c6b60e01b81526004016105d3906137ab565b600554601b546040516323b872dd60e01b81526001600160a01b03928316926323b872dd9261148b9233929091169086906004016137c8565b6020604051808303815f875af11580156114a7573d5f803e3d5ffd5b505050506040513d601f19601f820116820180604052508101906114cb91906137ec565b6114e857604051633e75f72760e11b81526004016105d3906137ab565b6005546015546001600160a01b03918216916323b872dd913391620100009091041661151488866129e5565b6040518463ffffffff1660e01b8152600401611532939291906137c8565b6020604051808303815f875af115801561154e573d5f803e3d5ffd5b505050506040513d601f19601f8201168201806040525081019061157291906137ec565b61158f57604051633e75f72760e11b81526004016105d3906137ab565b60035460048054604051637aa9bf6f60e11b81526001600160a01b039384169363f5537ede936115c7939091169133918991016137c8565b6020604051808303815f875af11580156115e3573d5f803e3d5ffd5b505050506040513d601f19601f8201168201806040525081019061160791906137ec565b61162457604051633e75f72760e11b81526004016105d39061378d565b600b54611631908561292b565b600b55600d5461164190846129e5565b600d55600c54611651908261292b565b600c55600354604051636aa05ee360e01b815233600482015260248101869052604481018590526001600160a01b0390911690636aa05ee3906064015f604051808303815f87803b1580156116a4575f80fd5b505af11580156116b6573d5f803e3d5ffd5b50506003546040516379da956560e01b815233600482015260248101889052604481018790526001600160a01b0390911692506379da956591506064015f604051808303815f87803b15801561170a575f80fd5b505af115801561171c573d5f803e3d5ffd5b505050507f2c5cc05b9a7b53e2478a9af1c94ec079b5be7c669be3df98ad86d28237f689e7338585600b54600d54600c54426040516117619796959493929190613807565b60405180910390a15050601b805460ff60a81b19169055506001919050565b5f61178961217d565b611791612936565b601b54600160a81b900460ff16156117bb5760405162461bcd60e51b81526004016105d3906133a4565b601b805460ff60a81b1916600160a81b1790556117d88383612959565b6117e233836129f0565b6117ff576040516311b5c73d60e21b815260040160405180910390fd5b5f61180984612a07565b905080611814612243565b101561183357604051638c2f4c6b60e01b81526004016105d3906137ab565b60048054601a54604051636eb1769f60e11b815233938101939093526001600160a01b039081166024840152859291169063dd62ed3e90604401602060405180830381865afa158015611888573d5f803e3d5ffd5b505050506040513d601f19601f820116820180604052508101906118ac919061338d565b10156118e857604051630b29193560e31b815260206004820152600a60248201526929b2b636103a37b5b2b760b11b60448201526064016105d3565b600480546040516370a0823160e01b8152339281019290925284916001600160a01b03909116906370a0823190602401602060405180830381865afa158015611933573d5f803e3d5ffd5b505050506040513d601f19601f82011682018060405250810190611957919061338d565b101561199357604051638c2f4c6b60e01b815260206004820152600a60248201526929b2b636103a37b5b2b760b11b60448201526064016105d3565b60048054601b546040516323b872dd60e01b81526001600160a01b03928316936323b872dd936119ca9333939116918991016137c8565b6020604051808303815f875af11580156119e6573d5f803e3d5ffd5b505050506040513d601f19601f82011682018060405250810190611a0a91906137ec565b611a2757604051633e75f72760e11b81526004016105d39061378d565b600f54600160b01b900460ff1615611afa57601b546001600160a01b031631811115611a6657604051630b29193560e31b81526004016105d390613842565b60035460405163a9059cbb60e01b8152336004820152602481018390526001600160a01b039091169063a9059cbb906044016020604051808303815f875af1158015611ab4573d5f803e3d5ffd5b505050506040513d601f19601f82011682018060405250810190611ad891906137ec565b611af557604051633e75f72760e11b81526004016105d390613842565b611c20565b600554601b546040516370a0823160e01b81526001600160a01b039182166004820152839291909116906370a0823190602401602060405180830381865afa158015611b48573d5f803e3d5ffd5b505050506040513d601f19601f82011682018060405250810190611b6c919061338d565b1015611b8b57604051630b29193560e31b81526004016105d390613842565b600354600554604051637aa9bf6f60e11b81526001600160a01b039283169263f5537ede92611bc392911690339086906004016137c8565b6020604051808303815f875af1158015611bdf573d5f803e3d5ffd5b505050506040513d601f19601f82011682018060405250810190611c0391906137ec565b611c2057604051633e75f72760e11b81526004016105d390613842565b600b54611c2d90856129e5565b600b55600d54611c3d908461292b565b600d55600c54611c4d90826129e5565b600c5560035460405163e32fca3f60e01b815233600482015260248101869052604481018590526001600160a01b039091169063e32fca3f906064015f604051808303815f87803b158015611ca0575f80fd5b505af1158015611cb2573d5f803e3d5ffd5b505050507fe771a8c700d0802cd276270eb0596a1aead6f28237a9e5f26e00ccf08dad7033338585600b54600d54600c54426040516117619796959493929190613807565b611cff611e53565b611d0761217d565b611d0f612a39565b601554611d2a906201000090046001600160a01b03166126c6565b611d475760405163012e4d1960e61b815260040160405180910390fd5b601b805460ff60a01b1916600160a21b17908190556040517fcd8e02743d921fb9bca767936271b8b93911716c78c1d46c2c6ee6189309d30c916106c7913391600160a01b900460ff1690613370565b611d9f611e53565b6001600160a01b038116611e045760405162461bcd60e51b815260206004820152602660248201527f4f776e61626c653a206e6577206f776e657220697320746865207a65726f206160448201526564647265737360d01b60648201526084016105d3565b611e0d81612a5b565b50565b5f611e19611e53565b50601b546001600160a01b031690565b611e31611e53565b600380546001600160a01b0319166001600160a01b0392909216919091179055565b5f546001600160a01b031633146104ce5760405162461bcd60e51b815260206004820181905260248201527f4f776e61626c653a2063616c6c6572206973206e6f7420746865206f776e657260448201526064016105d3565b600354604051631d76db5b60e31b81526001600160a01b0383811660048301525f92839283929091169063ebb6dad8906024016040805180830381865afa158015611ef9573d5f803e3d5ffd5b505050506040513d601f19601f82011682018060405250810190611f1d9190613865565b60035460405163f5a7976760e01b81526001600160a01b0388811660048301529294505f935091169063f5a79767906024016040805180830381865afa158015611f69573d5f803e3d5ffd5b505050506040513d601f19601f82011682018060405250810190611f8d9190613865565b6015549092505f9150611fd390611fcd908590611fc79061271090611fb69061ffff1684613887565b611fc0919061389e565b869061292b565b906129e5565b83612aaa565b90505f611fe2600c545f6128a8565b915050611ff85f611ff38484612aaa565b6128a8565b9550955050505050915091565b606060ff831461201f5761201883612abf565b90506120aa565b81805461202b906138bd565b80601f0160208091040260200160405190810160405280929190818152602001828054612057906138bd565b80156120a25780601f10612079576101008083540402835291602001916120a2565b820191905f5260205f20905b81548152906001019060200180831161208557829003601f168201915b505050505090505b92915050565b60035460405163f5a7976760e01b81526001600160a01b0383811660048301525f92839283929091169063f5a79767906024016040805180830381865afa1580156120fd573d5f803e3d5ffd5b505050506040513d601f19601f820116820180604052508101906121219190613865565b506013549091505f9061214c9061213890846129e5565b600b54601054612147916129e5565b612aaa565b90505f61215b5f600d546128a8565b50905061217161216b8383612aaa565b5f6128a8565b94509450505050915091565b6004601b54600160a01b900460ff16600481111561219d5761219d613067565b036104ce57604051631afb0ae560e01b815260040160405180910390fd5b6017544211806121cf5750601054600b5410155b6122055760405162461bcd60e51b81526020600482015260076024820152664552523a204e4560c81b60448201526064016105d3565b6003601b54600160a01b900460ff16600481111561222557612225613067565b036104ce57604051631a48f37b60e21b815260040160405180910390fd5b600f545f90600160b01b900460ff16156122685750601b546001600160a01b03163190565b600554601b546040516370a0823160e01b81526001600160a01b0391821660048201529116906370a0823190602401602060405180830381865afa1580156122b2573d5f803e3d5ffd5b505050506040513d601f19601f820116820180604052508101906122d6919061338d565b905090565b5f806123676127106109f860065f9054906101000a90046001600160a01b03166001600160a01b031663ddca3f436040518163ffffffff1660e01b8152600401602060405180830381865afa158015612336573d5f803e3d5ffd5b505050506040513d601f19601f8201168201806040525081019061235a91906138f5565b62ffffff16611039612243565b600f549091505f90600160b01b900460ff16156124625760035460065460408051622fcfcb60e31b815290516001600160a01b039384169363a9059cbb93169163017e7e589160048083019260209291908290030181865afa1580156123cf573d5f803e3d5ffd5b505050506040513d601f19601f820116820180604052508101906123f391906133cc565b6040516001600160e01b031960e084901b1681526001600160a01b039091166004820152602481018590526044015b6020604051808303815f875af115801561243e573d5f803e3d5ffd5b505050506040513d601f19601f8201168201806040525081019061201891906137ec565b60035460055460065460408051622fcfcb60e31b815290516001600160a01b039485169463f5537ede94811693169163017e7e589160048083019260209291908290030181865afa1580156124b9573d5f803e3d5ffd5b505050506040513d601f19601f820116820180604052508101906124dd91906133cc565b856040518463ffffffff1660e01b81526004016124fc939291906137c8565b6020604051808303815f875af1158015612518573d5f803e3d5ffd5b505050506040513d601f19601f8201168201806040525081019061253c91906137ec565b9392505050565b600f545f90600190600160b01b900460ff16156125ae57601b546001600160a01b031631156125a957600354601b5460405163a9059cbb60e01b81526001600160a01b03868116600483015291821631602482015291169063a9059cbb90604401612422565b6120aa565b600554601b546040516370a0823160e01b81526001600160a01b0391821660048201525f9291909116906370a0823190602401602060405180830381865afa1580156125fc573d5f803e3d5ffd5b505050506040513d601f19601f82011682018060405250810190612620919061338d565b11156120aa57600354600554601b546040516370a0823160e01b81526001600160a01b0391821660048201529281169263f5537ede929190911690869082906370a08231906024015b602060405180830381865afa158015612684573d5f803e3d5ffd5b505050506040513d601f19601f820116820180604052508101906126a8919061338d565b6040518463ffffffff1660e01b81526004016124fc939291906137c8565b60048054601b546040516370a0823160e01b81526001600160a01b03918216938101939093525f92600192849216906370a0823190602401602060405180830381865afa158015612719573d5f803e3d5ffd5b505050506040513d601f19601f8201168201806040525081019061273d919061338d565b11156120aa5760035460048054601b546040516370a0823160e01b81526001600160a01b03918216938101939093529283169263f5537ede92911690869082906370a0823190602401612669565b6017544211156104ce576040516265dca760e51b815260040160405180910390fd5b5f6128057f08523daf28ee17754671f39f9958942c4717267760901eea3e6ffd35005a72ea858786866040516020016127ea959493929190613917565b60405160208183030381529060405280519060200120612afc565b95945050505050565b5f846001600160a01b03166128588585858080601f0160208091040260200160405190810160405280939291908181526020018383808284375f92019190915250612b2892505050565b6001600160a01b03161495945050505050565b5f61253c8284613887565b5f61253c828461389e565b6016545f904210156128935750600190565b60175442116128a25750600290565b50600390565b5f8083156128e657600f546128df906128cc90600160a81b900460ff16600a6134db565b6109f86128d860115490565b879061286b565b925061291e565b821561291e5761291b6128f860115490565b600f546109f89061291490600160a81b900460ff16600a6134db565b869061286b565b93505b50829050815b9250929050565b5f61253c828461394f565b60165442101561278b57604051636f312cbd60e01b815260040160405180910390fd5b811580612964575080155b1561298257604051631f2a200560e01b815260040160405180910390fd5b61298c8282612b4a565b6129a95760405163640dea9d60e11b815260040160405180910390fd5b5050565b5f806129b8846120b0565b50909211159392505050565b6012545f90612710906129db9061ffff1684613887565b6120aa919061389e565b5f61253c8284613962565b5f806129fb84611eac565b90931115949350505050565b6012545f906120aa9061271090612a289062010000900461ffff1685613887565b612a32919061389e565b83906129e5565b60165442106104ce5760405163fc505be960e01b815260040160405180910390fd5b5f80546001600160a01b038381166001600160a01b0319831681178455604051919092169283917f8be0079c531659141344cd1fd0a4f28419497f9722a3daafe3b4186f6b6457e09190a35050565b5f818310612ab8578161253c565b5090919050565b60605f612acb83612b8e565b6040805160208082528183019092529192505f91906020820181803683375050509182525060208101929092525090565b5f6120aa612b08612bb5565b8360405161190160f01b8152600281019290925260228201526042902090565b5f805f612b358585612cde565b91509150612b4281612d1d565b509392505050565b5f80612b56845f6128a8565b9150505f612b645f856128a8565b50905084811480612b7457508382145b15612b84576001925050506120aa565b505f949350505050565b5f60ff8216601f8111156120aa57604051632cd44ac360e21b815260040160405180910390fd5b5f306001600160a01b037f000000000000000000000000000000000000000000000000000000000000000016148015612c0d57507f000000000000000000000000000000000000000000000000000000000000000046145b15612c3757507f000000000000000000000000000000000000000000000000000000000000000090565b6122d6604080517f8b73c3c69bb8fe3d512ecc4cf759cc79239f7b179b0ffacaa9a75d522b39400f60208201527f0000000000000000000000000000000000000000000000000000000000000000918101919091527f000000000000000000000000000000000000000000000000000000000000000060608201524660808201523060a08201525f9060c00160405160208183030381529060405280519060200120905090565b5f808251604103612d12576020830151604084015160608501515f1a612d0687828585612e66565b94509450505050612924565b505f90506002612924565b5f816004811115612d3057612d30613067565b03612d385750565b6001816004811115612d4c57612d4c613067565b03612d995760405162461bcd60e51b815260206004820152601860248201527f45434453413a20696e76616c6964207369676e6174757265000000000000000060448201526064016105d3565b6002816004811115612dad57612dad613067565b03612dfa5760405162461bcd60e51b815260206004820152601f60248201527f45434453413a20696e76616c6964207369676e6174757265206c656e6774680060448201526064016105d3565b6003816004811115612e0e57612e0e613067565b03611e0d5760405162461bcd60e51b815260206004820152602260248201527f45434453413a20696e76616c6964207369676e6174757265202773272076616c604482015261756560f01b60648201526084016105d3565b5f807f7fffffffffffffffffffffffffffffff5d576e7357a4501ddfe92f46681b20a0831115612e9b57505f90506003612f1a565b604080515f8082526020820180845289905260ff881692820192909252606081018690526080810185905260019060a0016020604051602081039080840390855afa158015612eec573d5f803e3d5ffd5b5050604051601f1901519150506001600160a01b038116612f14575f60019250925050612f1a565b91505f90505b94509492505050565b610e658061397683390190565b6001600160a01b0381168114611e0d575f80fd5b8035612f4f81612f30565b919050565b5f60208284031215612f64575f80fd5b813561253c81612f30565b5f5b83811015612f89578181015183820152602001612f71565b50505f910152565b5f8151808452612fa8816020860160208601612f6f565b601f01601f19169290920160200192915050565b60ff60f81b881681525f602060e081840152612fdb60e084018a612f91565b8381036040850152612fed818a612f91565b606085018990526001600160a01b038816608086015260a0850187905284810360c086015285518082528387019250908301905f5b8181101561303e57835183529284019291840191600101613022565b50909c9b505050505050505050505050565b5f60208284031215613060575f80fd5b5035919050565b634e487b7160e01b5f52602160045260245ffd5b6005811061309757634e487b7160e01b5f52602160045260245ffd5b9052565b5f60c0820190508782528660208301528560408301528460608301526130c4608083018561307b565b8260a0830152979650505050505050565b5f8083601f8401126130e5575f80fd5b50813567ffffffffffffffff8111156130fc575f80fd5b602083019150836020828501011115612924575f80fd5b5f805f805f8060808789031215613128575f80fd5b863561313381612f30565b955060208701359450604087013567ffffffffffffffff80821115613156575f80fd5b6131628a838b016130d5565b9096509450606089013591508082111561317a575f80fd5b5061318789828a016130d5565b979a9699509497509295939492505050565b8215158152604060208201525f6131b36040830184612f91565b949350505050565b634e487b7160e01b5f52604160045260245ffd5b604051610220810167ffffffffffffffff811182821017156131f3576131f36131bb565b60405290565b60ff81168114611e0d575f80fd5b8035612f4f816131f9565b8015158114611e0d575f80fd5b8035612f4f81613212565b803561ffff81168114612f4f575f80fd5b5f610220828403121561324c575f80fd5b6132546131cf565b61325d83612f44565b815261326b60208401612f44565b602082015261327c60408401613207565b604082015261328d60608401613207565b606082015261329e6080840161321f565b608082015260a083013560a082015260c083013560c08201526132c360e0840161322a565b60e08201526101006132d681850161322a565b90820152610120838101359082015261014080840135908201526101606132fe81850161322a565b90820152610180613310848201612f44565b908201526101a083810135908201526101c080840135908201526101e0613338818501612f44565b90820152610200928301359281019290925250919050565b5f8060408385031215613361575f80fd5b50508035926020909101359150565b6001600160a01b03831681526040810161253c602083018461307b565b5f6020828403121561339d575f80fd5b5051919050565b6020808252600e908201526d4e6f2072652d656e7472616e637960901b604082015260600190565b5f602082840312156133dc575f80fd5b815161253c81612f30565b634e487b7160e01b5f52601160045260245ffd5b600181815b8085111561343557815f190482111561341b5761341b6133e7565b8085161561342857918102915b93841c9390800290613400565b509250929050565b5f8261344b575060016120aa565b8161345757505f6120aa565b816001811461346d576002811461347757613493565b60019150506120aa565b60ff841115613488576134886133e7565b50506001821b6120aa565b5060208310610133831016604e8410600b84101617156134b6575081810a6120aa565b6134c083836133fb565b805f19048211156134d3576134d36133e7565b029392505050565b5f61253c60ff84168361343d565b81835281816020850137505f828201602090810191909152601f909101601f19169091010190565b6001600160a01b038981168252888116602083015287166040820152606081018690526080810185905260e060a082018190525f9061355390830185876134e9565b905082151560c08301529998505050505050505050565b5f806040838503121561357b575f80fd5b825161358681613212565b602084015190925067ffffffffffffffff808211156135a3575f80fd5b818501915085601f8301126135b6575f80fd5b8151818111156135c8576135c86131bb565b604051601f8201601f19908116603f011681019083821181831017156135f0576135f06131bb565b81604052828152886020848701011115613608575f80fd5b613619836020830160208801612f6f565b80955050505050509250929050565b6001600160a01b0384168152613641602082018461307b565b606060408201525f6128056060830184612f91565b5f60208284031215613666575f80fd5b815161253c816131f9565b6001600160a01b03868116825285811660208301528481166040830152606082018490528254811660808301526102a082019060018401546001600160a01b038282161660a085015260a081901c60ff1660c085015260a881901c60ff1660e08501526136e9610100850160ff8360b01c1615159052565b5060028401546101208401526003840154610140840152600484015461ffff808216610160860152601091821c811661018086015260058601546101a086015260068601546101c086015260078601549081166101e0860152901c166001600160a01b0390811661020084015260088401546102208401526009840154610240840152600a84015416610260830152600b9092015461028090910152949350505050565b60208082526004908201526314d95b1b60e21b604082015260600190565b60208082526003908201526242757960e81b604082015260600190565b6001600160a01b039384168152919092166020820152604081019190915260600190565b5f602082840312156137fc575f80fd5b815161253c81613212565b6001600160a01b03979097168752602087019590955260408601939093526060850191909152608084015260a083015260c082015260e00190565b602080825260099082015268213abc903a37b5b2b760b91b604082015260600190565b5f8060408385031215613876575f80fd5b505080516020909101519092909150565b80820281158282048414176120aa576120aa6133e7565b5f826138b857634e487b7160e01b5f52601260045260245ffd5b500490565b600181811c908216806138d157607f821691505b6020821081036138ef57634e487b7160e01b5f52602260045260245ffd5b50919050565b5f60208284031215613905575f80fd5b815162ffffff8116811461253c575f80fd5b85815284602082015260018060a01b0384166040820152608060608201525f6139446080830184866134e9565b979650505050505050565b808201808211156120aa576120aa6133e7565b818103818111156120aa576120aa6133e756fe608060405234801561000f575f80fd5b505f80546001600160a01b0319163390811790915560408051918252517f4101e71e974f68df5e9730cc223280b41654676bbb052cdcc735c3337e64d2d99181900360200190a1610e02806100635f395ff3fe6080604052600436106100a8575f3560e01c8063da3e339711610062578063da3e3397146101db578063e32fca3f146101fa578063e5a4dbf814610219578063ebb6dad814610246578063f5537ede1461027a578063f5a7976714610299575f80fd5b80632348238c146101035780636aa05ee31461012457806379da956514610143578063a2ba266b14610162578063a9059cbb14610181578063c6dbdf61146101b5575f80fd5b366100ff576040805133815260208101829052600781830152667265636569766560c81b606082015290517fd00ca3f088120b3d909c3a9e01be91e94a2b001aed9c25fe751c3c7a72dc49bf9181900360800190a1005b5f80fd5b34801561010e575f80fd5b5061012261011d366004610b30565b6102b8565b005b34801561012f575f80fd5b5061012261013e366004610b4b565b6103af565b34801561014e575f80fd5b5061012261015d366004610b4b565b610450565b34801561016d575f80fd5b5061012261017c366004610b4b565b6104ef565b34801561018c575f80fd5b506101a061019b366004610b7d565b61056c565b60405190151581526020015b60405180910390f35b3480156101c0575f80fd5b505f546040516001600160a01b0390911681526020016101ac565b3480156101e6575f80fd5b506101a06101f5366004610ba7565b6105fa565b348015610205575f80fd5b50610122610214366004610b4b565b6106a6565b348015610224575f80fd5b50610238610233366004610c02565b610722565b6040516101ac929190610cc7565b348015610251575f80fd5b50610265610260366004610b30565b6109e2565b604080519283526020830191909152016101ac565b348015610285575f80fd5b506101a0610294366004610ba7565b610a3b565b3480156102a4575f80fd5b506102656102b3366004610b30565b610aa3565b5f546001600160a01b0316336001600160a01b0316146102f35760405162461bcd60e51b81526004016102ea90610d1c565b60405180910390fd5b6001600160a01b03811661035c5760405162461bcd60e51b815260206004820152602a60248201527f5365636f6e646172793a206e6577207072696d61727920697320746865207a65604482015269726f206164647265737360b01b60648201526084016102ea565b5f80546001600160a01b0319166001600160a01b0383169081179091556040519081527f4101e71e974f68df5e9730cc223280b41654676bbb052cdcc735c3337e64d2d99060200160405180910390a150565b5f546001600160a01b0316336001600160a01b0316146103e15760405162461bcd60e51b81526004016102ea90610d1c565b6001600160a01b0383165f908152600160205260409020546104039083610afc565b6001600160a01b0384165f908152600160208190526040909120918255015461042c9082610afc565b6001600160a01b039093165f90815260016020819052604090912001929092555050565b5f546001600160a01b0316336001600160a01b0316146104825760405162461bcd60e51b81526004016102ea90610d1c565b6001600160a01b0383165f908152600260205260409020546104a49083610afc565b6001600160a01b0384165f908152600260205260409020908155600101546104cc9082610afc565b6001600160a01b039093165f908152600260205260409020600101929092555050565b5f546001600160a01b0316336001600160a01b0316146105215760405162461bcd60e51b81526004016102ea90610d1c565b6001600160a01b0383165f908152600160205260409020546105439083610b0e565b6001600160a01b0384165f908152600160208190526040909120918255015461042c9082610b0e565b5f80546001600160a01b0316336001600160a01b03161461059f5760405162461bcd60e51b81526004016102ea90610d1c565b5f836001600160a01b0316836040515f6040518083038185875af1925050503d805f81146105e8576040519150601f19603f3d011682016040523d82523d5f602084013e6105ed565b606091505b5090925050505b92915050565b5f80546001600160a01b0316336001600160a01b03161461062d5760405162461bcd60e51b81526004016102ea90610d1c565b60405163095ea7b360e01b81526001600160a01b0384811660048301526024820184905285169063095ea7b3906044015b6020604051808303815f875af115801561067a573d5f803e3d5ffd5b505050506040513d601f19601f8201168201806040525081019061069e9190610d68565b949350505050565b5f546001600160a01b0316336001600160a01b0316146106d85760405162461bcd60e51b81526004016102ea90610d1c565b6001600160a01b0383165f908152600260205260409020546106fa9083610b0e565b6001600160a01b0384165f908152600260205260409020908155600101546104cc9082610b0e565b5f80546060906001600160a01b0316336001600160a01b0316146107585760405162461bcd60e51b81526004016102ea90610d1c565b60405163095ea7b360e01b81526001600160a01b038b81166004830152602482018990525f91908b169063095ea7b3906044016020604051808303815f875af11580156107a7573d5f803e3d5ffd5b505050506040513d601f19601f820116820180604052508101906107cb9190610d68565b9050806108255760405162461bcd60e51b815260206004820152602260248201527f417070726f76652073656c6c20746f6b656e20746f20726f757465722065727260448201526137b960f11b60648201526084016102ea565b8315610890578a6001600160a01b0316878787604051610846929190610d83565b5f6040518083038185875af1925050503d805f8114610880576040519150601f19603f3d011682016040523d82523d5f602084013e610885565b606091505b5090935091506109d4565b60405163095ea7b360e01b81526001600160a01b038c81166004830152602482018990528a169063095ea7b3906044016020604051808303815f875af11580156108dc573d5f803e3d5ffd5b505050506040513d601f19601f820116820180604052508101906109009190610d68565b9050806109755760405162461bcd60e51b815260206004820152603b60248201527f416e206572726f72206f63637572726564207768696c652073656e64696e672060448201527f7468652062757920746f6b656e20746f2074686520726f75746572000000000060648201526084016102ea565b8a6001600160a01b0316868660405161098f929190610d83565b5f604051808303815f865af19150503d805f81146109c8576040519150601f19603f3d011682016040523d82523d5f602084013e6109cd565b606091505b5090935091505b509850989650505050505050565b5f805481906001600160a01b0316336001600160a01b031614610a175760405162461bcd60e51b81526004016102ea90610d1c565b50506001600160a01b03165f90815260016020819052604090912080549101549091565b5f80546001600160a01b0316336001600160a01b031614610a6e5760405162461bcd60e51b81526004016102ea90610d1c565b60405163a9059cbb60e01b81526001600160a01b0384811660048301526024820184905285169063a9059cbb9060440161065e565b5f805481906001600160a01b0316336001600160a01b031614610ad85760405162461bcd60e51b81526004016102ea90610d1c565b50506001600160a01b03165f90815260026020526040902080546001909101549091565b5f610b078284610da6565b9392505050565b5f610b078284610db9565b6001600160a01b0381168114610b2d575f80fd5b50565b5f60208284031215610b40575f80fd5b8135610b0781610b19565b5f805f60608486031215610b5d575f80fd5b8335610b6881610b19565b95602085013595506040909401359392505050565b5f8060408385031215610b8e575f80fd5b8235610b9981610b19565b946020939093013593505050565b5f805f60608486031215610bb9575f80fd5b8335610bc481610b19565b92506020840135610bd481610b19565b929592945050506040919091013590565b8015158114610b2d575f80fd5b8035610bfd81610be5565b919050565b5f805f805f805f8060e0898b031215610c19575f80fd5b8835610c2481610b19565b97506020890135610c3481610b19565b96506040890135610c4481610b19565b9550606089013594506080890135935060a089013567ffffffffffffffff80821115610c6e575f80fd5b818b0191508b601f830112610c81575f80fd5b813581811115610c8f575f80fd5b8c6020828501011115610ca0575f80fd5b602083019550809450505050610cb860c08a01610bf2565b90509295985092959890939650565b82151581525f602060408184015283518060408501525f5b81811015610cfb57858101830151858201606001528201610cdf565b505f606082860101526060601f19601f830116850101925050509392505050565b6020808252602c908201527f5365636f6e646172793a2063616c6c6572206973206e6f74207468652070726960408201526b1b585c9e481858d8dbdd5b9d60a21b606082015260800190565b5f60208284031215610d78575f80fd5b8151610b0781610be5565b818382375f9101908152919050565b634e487b7160e01b5f52601160045260245ffd5b808201808211156105f4576105f4610d92565b818103818111156105f4576105f4610d9256fea26469706673582212204ec69537109ab169ab199c827d810f1b19b8af1956adb88c48c2c322f9cd519964736f6c63430008140033a26469706673582212207322e94fc6dfee3310a979b373ef22444e619c55077ed524d7ef79ed6f56d90864736f6c63430008140033a2646970667358221220bb364df3e43728fb3b3026e82f2021e9b074248d6f1ef874890d0d9854ed633b64736f6c63430008140033608060405234801561000f575f80fd5b505f80546001600160a01b0319163390811790915560408051918252517f4101e71e974f68df5e9730cc223280b41654676bbb052cdcc735c3337e64d2d99181900360200190a1610447806100635f395ff3fe608060405234801561000f575f80fd5b5060043610610055575f3560e01c80632348238c1461005957806389b09de71461006e578063c2bc80fd14610081578063c6dbdf611461009f578063fc91a897146100b9575b5f80fd5b61006c61006736600461034c565b6100dc565b005b61006c61007c36600461034c565b6101d3565b610089610268565b6040516100969190610379565b60405180910390f35b5f546040516001600160a01b039091168152602001610096565b6100cc6100c736600461034c565b6102fb565b6040519015158152602001610096565b5f546001600160a01b0316336001600160a01b0316146101175760405162461bcd60e51b815260040161010e906103c5565b60405180910390fd5b6001600160a01b0381166101805760405162461bcd60e51b815260206004820152602a60248201527f5365636f6e646172793a206e6577207072696d61727920697320746865207a65604482015269726f206164647265737360b01b606482015260840161010e565b5f80546001600160a01b0319166001600160a01b0383169081179091556040519081527f4101e71e974f68df5e9730cc223280b41654676bbb052cdcc735c3337e64d2d99060200160405180910390a150565b5f546001600160a01b0316336001600160a01b0316146102055760405162461bcd60e51b815260040161010e906103c5565b6001805480820182557fb10e2d527612073b26eecdfd717e6a320cf44b4afac2b0732d9fcbe2b7fa0cf60180546001600160a01b039093166001600160a01b0319909316831790555f91825260026020526040909120805460ff19169091179055565b5f546060906001600160a01b0316336001600160a01b03161461029d5760405162461bcd60e51b815260040161010e906103c5565b60018054806020026020016040519081016040528092919081815260200182805480156102f157602002820191905f5260205f20905b81546001600160a01b031681526001909101906020018083116102d3575b5050505050905090565b5f80546001600160a01b0316336001600160a01b03161461032e5760405162461bcd60e51b815260040161010e906103c5565b506001600160a01b03165f9081526002602052604090205460ff1690565b5f6020828403121561035c575f80fd5b81356001600160a01b0381168114610372575f80fd5b9392505050565b602080825282518282018190525f9190848201906040850190845b818110156103b95783516001600160a01b031683529284019291840191600101610394565b50909695505050505050565b6020808252602c908201527f5365636f6e646172793a2063616c6c6572206973206e6f74207468652070726960408201526b1b585c9e481858d8dbdd5b9d60a21b60608201526080019056fea2646970667358221220dc4d66046263d48859852e9542b40ec85e22a15ff01c4657a53d2ba97d8d64f264736f6c63430008140033608060405234801561000f575f80fd5b506100193361001e565b61006d565b5f80546001600160a01b038381166001600160a01b0319831681178455604051919092169283917f8be0079c531659141344cd1fd0a4f28419497f9722a3daafe3b4186f6b6457e09190a35050565b61045b8061007a5f395ff3fe608060405234801561000f575f80fd5b5060043610610060575f3560e01c80633af32abf14610064578063715018a6146100a45780638ab1d681146100ae5780638da5cb5b146100c1578063e43252d7146100db578063f2fde38b146100ee575b5f80fd5b61008f6100723660046103f8565b6001600160a01b03165f9081526001602052604090205460ff1690565b60405190151581526020015b60405180910390f35b6100ac610101565b005b6100ac6100bc3660046103f8565b610114565b5f546040516001600160a01b03909116815260200161009b565b6100ac6100e93660046103f8565b6101d0565b6100ac6100fc3660046103f8565b6102d7565b610109610350565b6101125f6103a9565b565b61011c610350565b6001600160a01b0381165f9081526001602052604090205460ff166101885760405162461bcd60e51b815260206004820152601b60248201527f41646472657373206973206e6f742077686974656c69737465642e000000000060448201526064015b60405180910390fd5b6001600160a01b0381165f81815260016020526040808220805460ff19169055517f24a12366c02e13fe4a9e03d86a8952e85bb74a456c16e4a18b6d8295700b74bb9190a250565b6101d8610350565b6001600160a01b0381166102215760405162461bcd60e51b815260206004820152601060248201526f24b73b30b634b21030b2323932b9b99760811b604482015260640161017f565b6001600160a01b0381165f9081526001602052604090205460ff16156102895760405162461bcd60e51b815260206004820152601f60248201527f4164647265737320697320616c72656164792077686974656c69737465642e00604482015260640161017f565b6001600160a01b0381165f818152600160208190526040808320805460ff1916909217909155517fa226db3f664042183ee0281230bba26cbf7b5057e50aee7f25a175ff45ce4d7f9190a250565b6102df610350565b6001600160a01b0381166103445760405162461bcd60e51b815260206004820152602660248201527f4f776e61626c653a206e6577206f776e657220697320746865207a65726f206160448201526564647265737360d01b606482015260840161017f565b61034d816103a9565b50565b5f546001600160a01b031633146101125760405162461bcd60e51b815260206004820181905260248201527f4f776e61626c653a2063616c6c6572206973206e6f7420746865206f776e6572604482015260640161017f565b5f80546001600160a01b038381166001600160a01b0319831681178455604051919092169283917f8be0079c531659141344cd1fd0a4f28419497f9722a3daafe3b4186f6b6457e09190a35050565b5f60208284031215610408575f80fd5b81356001600160a01b038116811461041e575f80fd5b939250505056fea2646970667358221220adabcf28b53765b7cf334950aa329ce183afb92babd4850636855d06a9b3e4e964736f6c63430008140033",
  "linkReferences": {},
  "deployedLinkReferences": {}
}