{
  "_format": "hh-sol-artifact-1",
  "contractName": "BountyFactory",
  "sourceName": "contracts/Bounty.sol",
  "abi": [
    {
      "inputs": [],
      "stateMutability": "nonpayable",
      "type": "constructor"
    },
    {
      "anonymous": false,
      "inputs": [
        {
          "indexed": false,
          "internalType": "address",
          "name": "founder",
          "type": "address"
        },
        {
          "indexed": false,
          "internalType": "address",
          "name": "bounty",
          "type": "address"
        },
        {
          "components": [
            {
              "internalType": "address",
              "name": "depositToken",
              "type": "address"
            },
            {
              "internalType": "bool",
              "name": "depositTokenIsNative",
              "type": "bool"
            },
            {
              "internalType": "uint256",
              "name": "founderDepositAmount",
              "type": "uint256"
            },
            {
              "internalType": "uint256",
              "name": "applicantDepositMinAmount",
              "type": "uint256"
            },
            {
              "internalType": "uint256",
              "name": "applyDeadline",
              "type": "uint256"
            }
          ],
          "indexed": false,
          "internalType": "struct Parameters",
          "name": "paras",
          "type": "tuple"
        }
      ],
      "name": "Created",
      "type": "event"
    },
    {
      "anonymous": false,
      "inputs": [
        {
          "indexed": true,
          "internalType": "address",
          "name": "previousOwner",
          "type": "address"
        },
        {
          "indexed": true,
          "internalType": "address",
          "name": "newOwner",
          "type": "address"
        }
      ],
      "name": "OwnershipTransferred",
      "type": "event"
    },
    {
      "inputs": [],
      "name": "children",
      "outputs": [
        {
          "internalType": "address[]",
          "name": "",
          "type": "address[]"
        }
      ],
      "stateMutability": "view",
      "type": "function"
    },
    {
      "inputs": [
        {
          "internalType": "address",
          "name": "_depositToken",
          "type": "address"
        },
        {
          "internalType": "uint256",
          "name": "_founderDepositAmount",
          "type": "uint256"
        },
        {
          "internalType": "uint256",
          "name": "_applicantDepositAmount",
          "type": "uint256"
        },
        {
          "internalType": "uint256",
          "name": "_applyDeadline",
          "type": "uint256"
        }
      ],
      "name": "createBounty",
      "outputs": [],
      "stateMutability": "payable",
      "type": "function"
    },
    {
      "inputs": [],
      "name": "getStore",
      "outputs": [
        {
          "internalType": "address",
          "name": "",
          "type": "address"
        }
      ],
      "stateMutability": "view",
      "type": "function"
    },
    {
      "inputs": [
        {
          "internalType": "address",
          "name": "childAddr",
          "type": "address"
        }
      ],
      "name": "isChild",
      "outputs": [
        {
          "internalType": "bool",
          "name": "",
          "type": "bool"
        }
      ],
      "stateMutability": "view",
      "type": "function"
    },
    {
      "inputs": [],
      "name": "owner",
      "outputs": [
        {
          "internalType": "address",
          "name": "",
          "type": "address"
        }
      ],
      "stateMutability": "view",
      "type": "function"
    },
    {
      "inputs": [],
      "name": "renounceOwnership",
      "outputs": [],
      "stateMutability": "nonpayable",
      "type": "function"
    },
    {
      "inputs": [
        {
          "internalType": "address",
          "name": "newOwner",
          "type": "address"
        }
      ],
      "name": "transferOwnership",
      "outputs": [],
      "stateMutability": "nonpayable",
      "type": "function"
    },
    {
      "inputs": [
        {
          "internalType": "address",
          "name": "newFactory",
          "type": "address"
        }
      ],
      "name": "transferPrimary",
      "outputs": [],
      "stateMutability": "nonpayable",
      "type": "function"
    },
    {
      "inputs": [
        {
          "internalType": "address",
          "name": "newStore",
          "type": "address"
        }
      ],
      "name": "transferStore",
      "outputs": [],
      "stateMutability": "nonpayable",
      "type": "function"
    }
  ],
  "bytecode": "0x608060405234801561000f575f80fd5b5061001933610064565b604051610025906100b3565b604051809103905ff08015801561003e573d5f803e3d5ffd5b50600180546001600160a01b0319166001600160a01b03929092169190911790556100c0565b5f80546001600160a01b038381166001600160a01b0319831681178455604051919092169283917f8be0079c531659141344cd1fd0a4f28419497f9722a3daafe3b4186f6b6457e09190a35050565b6104aa8061465483390190565b614587806100cd5f395ff3fe608060405260043610610084575f3560e01c8063c2722ecc11610057578063c2722ecc14610105578063c2bc80fd14610119578063f2fde38b1461013a578063f523e77514610159578063fc91a89714610178575f80fd5b80632348238c14610088578063715018a6146100a957806373e28ac8146100bd5780638da5cb5b146100d0575b5f80fd5b348015610093575f80fd5b506100a76100a2366004610ad9565b6101a7565b005b3480156100b4575f80fd5b506100a761020c565b6100a76100cb366004610afb565b610216565b3480156100db575f80fd5b505f546001600160a01b03165b6040516001600160a01b0390911681526020015b60405180910390f35b348015610110575f80fd5b506100e861086f565b348015610124575f80fd5b5061012d610888565b6040516100fc9190610b33565b348015610145575f80fd5b506100a7610154366004610ad9565b6108fb565b348015610164575f80fd5b506100a7610173366004610ad9565b610974565b348015610183575f80fd5b50610197610192366004610ad9565b61099e565b60405190151581526020016100fc565b6101af610a10565b6001546040516308d208e360e21b81526001600160a01b03838116600483015290911690632348238c906024015f604051808303815f87803b1580156101f3575f80fd5b505af1158015610205573d5f803e3d5ffd5b5050505050565b610214610a10565b565b42811161026a5760405162461bcd60e51b815260206004820181905260248201527f4170706c6963616e74206375746f66662064617465206973206578706972656460448201526064015b60405180910390fd5b5f6040518060a00160405280866001600160a01b031681526020015f151581526020018581526020018481526020018381525090505f30336040516102ae90610ab8565b6001600160a01b03928316815291166020820152604001604051809103905ff0801580156102de573d5f803e3d5ffd5b50604051634d5d4ec760e01b81529091506001600160a01b03821690634d5d4ec79061030e908590600401610bb7565b5f604051808303815f87803b158015610325575f80fd5b505af1158015610337573d5f803e3d5ffd5b5050505060408201511561077e576001600160a01b0386166104ae578160400151341461039f5760405162461bcd60e51b81526020600482015260166024820152751b5cd9cb9d985b1d59481a5cc81b9bdd081d985b1a5960521b6044820152606401610261565b5f816001600160a01b031663f4e759ef6040518163ffffffff1660e01b8152600401602060405180830381865afa1580156103dc573d5f803e3d5ffd5b505050506040513d601f19601f820116820180604052508101906104009190610bd5565b6001600160a01b031683604001516040515f6040518083038185875af1925050503d805f811461044b576040519150601f19603f3d011682016040523d82523d5f602084013e610450565b606091505b50509050806104a15760405162461bcd60e51b815260206004820152601960248201527f5472616e7366657220636f6e7472616374206661696c757265000000000000006044820152606401610261565b506001602083015261077e565b6040516370a0823160e01b8152336004820152869086906001600160a01b038316906370a0823190602401602060405180830381865afa1580156104f4573d5f803e3d5ffd5b505050506040513d601f19601f820116820180604052508101906105189190610bf0565b10156105745760405162461bcd60e51b815260206004820152602560248201527f4465706f73697420746f6b656e2062616c616e636520697320696e737566666960448201526418da595b9d60da1b6064820152608401610261565b604051636eb1769f60e11b815233600482015230602482015286906001600160a01b0383169063dd62ed3e90604401602060405180830381865afa1580156105be573d5f803e3d5ffd5b505050506040513d601f19601f820116820180604052508101906105e29190610bf0565b10156106405760405162461bcd60e51b815260206004820152602760248201527f4465706f73697420746f6b656e20616c6c6f77616e636520697320696e737566604482015266199a58da595b9d60ca1b6064820152608401610261565b806001600160a01b03166323b872dd33846001600160a01b031663f4e759ef6040518163ffffffff1660e01b8152600401602060405180830381865afa15801561068c573d5f803e3d5ffd5b505050506040513d601f19601f820116820180604052508101906106b09190610bd5565b6040516001600160e01b031960e085901b1681526001600160a01b03928316600482015291166024820152604481018990526064016020604051808303815f875af1158015610701573d5f803e3d5ffd5b505050506040513d601f19601f820116820180604052508101906107259190610c07565b61077c5760405162461bcd60e51b815260206004820152602260248201527f4465706f73697420746f6b656e207472616e7366657246726f6d206661696c75604482015261726560f01b6064820152608401610261565b505b60405163f2fde38b60e01b81523360048201526001600160a01b0382169063f2fde38b906024015f604051808303815f87803b1580156107bc575f80fd5b505af11580156107ce573d5f803e3d5ffd5b50506001546040516389b09de760e01b81526001600160a01b03858116600483015290911692506389b09de791506024015f604051808303815f87803b158015610816575f80fd5b505af1158015610828573d5f803e3d5ffd5b505050507f4fefd695e1a89e661601cae0270b695129b620dd1c31f71c306157d60b86f84033828460405161085f93929190610c26565b60405180910390a1505050505050565b5f610878610a10565b506001546001600160a01b031690565b6001546040805163c2bc80fd60e01b815290516060926001600160a01b03169163c2bc80fd916004808301925f9291908290030181865afa1580156108cf573d5f803e3d5ffd5b505050506040513d5f823e601f3d908101601f191682016040526108f69190810190610c67565b905090565b610903610a10565b6001600160a01b0381166109685760405162461bcd60e51b815260206004820152602660248201527f4f776e61626c653a206e6577206f776e657220697320746865207a65726f206160448201526564647265737360d01b6064820152608401610261565b61097181610a69565b50565b61097c610a10565b600180546001600160a01b0319166001600160a01b0392909216919091179055565b60015460405163fc91a89760e01b81526001600160a01b0383811660048301525f92169063fc91a89790602401602060405180830381865afa1580156109e6573d5f803e3d5ffd5b505050506040513d601f19601f82011682018060405250810190610a0a9190610c07565b92915050565b5f546001600160a01b031633146102145760405162461bcd60e51b815260206004820181905260248201527f4f776e61626c653a2063616c6c6572206973206e6f7420746865206f776e65726044820152606401610261565b5f80546001600160a01b038381166001600160a01b0319831681178455604051919092169283917f8be0079c531659141344cd1fd0a4f28419497f9722a3daafe3b4186f6b6457e09190a35050565b61382a80610d2883390190565b6001600160a01b0381168114610971575f80fd5b5f60208284031215610ae9575f80fd5b8135610af481610ac5565b9392505050565b5f805f8060808587031215610b0e575f80fd5b8435610b1981610ac5565b966020860135965060408601359560600135945092505050565b602080825282518282018190525f9190848201906040850190845b81811015610b735783516001600160a01b031683529284019291840191600101610b4e565b50909695505050505050565b80516001600160a01b031682526020808201511515908301526040808201519083015260608082015190830152608090810151910152565b60a08101610a0a8284610b7f565b8051610bd081610ac5565b919050565b5f60208284031215610be5575f80fd5b8151610af481610ac5565b5f60208284031215610c00575f80fd5b5051919050565b5f60208284031215610c17575f80fd5b81518015158114610af4575f80fd5b6001600160a01b0384811682528316602082015260e08101610c4b6040830184610b7f565b949350505050565b634e487b7160e01b5f52604160045260245ffd5b5f6020808385031215610c78575f80fd5b825167ffffffffffffffff80821115610c8f575f80fd5b818501915085601f830112610ca2575f80fd5b815181811115610cb457610cb4610c53565b8060051b604051601f19603f83011681018181108582111715610cd957610cd9610c53565b604052918252848201925083810185019188831115610cf6575f80fd5b938501935b82851015610d1b57610d0c85610bc5565b84529385019392850192610cfb565b9897505050505050505056fe608060405234801562000010575f80fd5b506040516200382a3803806200382a8339810160408190526200003391620000eb565b6200003e3362000080565b600380546001600160a01b039384166001600160a01b031991821617909155600480549290931691811691909117909155600580549091163017905562000121565b5f80546001600160a01b038381166001600160a01b0319831681178455604051919092169283917f8be0079c531659141344cd1fd0a4f28419497f9722a3daafe3b4186f6b6457e09190a35050565b80516001600160a01b0381168114620000e6575f80fd5b919050565b5f8060408385031215620000fd575f80fd5b6200010883620000cf565b91506200011860208401620000cf565b90509250929050565b6136fb806200012f5f395ff3fe608060405260043610610126575f3560e01c806389035730116100a8578063c2722ecc1161006d578063c2722ecc14610310578063da91254c14610324578063f2fde38b1461035c578063f4e759ef1461037b578063f523e7751461038f578063f83d08ba146103ae575f80fd5b806389035730146101ef5780638da5cb5b14610254578063a69df4b514610284578063b6b55f251461028c578063c19d93fb1461029f575f80fd5b80634d5d4ec7116100ee5780634d5d4ec71461018d5780636afc8d3e146101a0578063715018a6146101bf5780637238fca8146101d357806386d1a69f146101e7575f80fd5b80631292a2821461012a5780631a28c42e1461014b5780632348238c1461015e57806343d726d61461017d5780634ba7ddb514610185575b5f80fd5b348015610135575f80fd5b50610149610144366004612738565b6103b6565b005b610149610159366004612753565b610590565b348015610169575f80fd5b50610149610178366004612738565b61075a565b6101496107bf565b61014961097c565b61014961019b3660046127bc565b610a97565b3480156101ab575f80fd5b506101496101ba366004612738565b610cb7565b3480156101ca575f80fd5b50610149610e3e565b3480156101de575f80fd5b50610149610e48565b610149610eb6565b3480156101fa575f80fd5b50610203610f40565b60405161024b919081516001600160a01b0316815260208083015115159082015260408083015190820152606080830151908201526080918201519181019190915260a00190565b60405180910390f35b34801561025f575f80fd5b505f546001600160a01b03165b6040516001600160a01b03909116815260200161024b565b610149610fc0565b61014961029a366004612753565b611049565b3480156102aa575f80fd5b506102b3611116565b6040805160ff9c8d168152602081019b909b528a01989098526060890196909652608088019490945260a0870192909252151560c086015260e085015284166101008401526101208301529091166101408201526101600161024b565b34801561031b575f80fd5b5061026c611228565b34801561032f575f80fd5b50610338611241565b6040805160ff9485168152602081019390935292169181019190915260600161024b565b348015610367575f80fd5b50610149610376366004612738565b611258565b348015610386575f80fd5b5061026c6112d1565b34801561039a575f80fd5b506101496103a9366004612738565b6112ea565b610149611314565b6103be61137d565b6103e16001604051806060016040528060228152602001613683602291396113d7565b5f6103eb8261142b565b509250505080806104055750801580156104055750600954155b6104565760405162461bcd60e51b815260206004820152601f60248201527f546f20626520617070726f766564206d7573742061206170706c6963616e740060448201526064015b60405180910390fd5b61045f82611482565b61046b825f6005611603565b600e80546202000162ff00ff199091161790556001805460405163e2f88c1f60e01b81526001600160a01b038581166004830152602482019390935291169063e2f88c1f906044015f604051808303815f87803b1580156104ca575f80fd5b505af11580156104dc573d5f803e3d5ffd5b50506001805460405163146e9cc560e31b81526001600160a01b03878116600483015260248201939093529116925063a374e62891506044015f604051808303815f87803b15801561052c575f80fd5b505af115801561053e573d5f803e3d5ffd5b5050505061054a611779565b604080513381526001600160a01b03841660208201527f3ce2da1daf10aa0a28578b70fe768ed2f390a3da82445358f9346fbc2981f6fd91015b60405180910390a15050565b61059861178b565b6105a06118f5565b6105c36001604051806060016040528060228152602001613683602291396113d7565b600e54610100900460ff161561060c5760405162461bcd60e51b815260206004820152600e60248201526d4e6f2072652d656e7472616e637960901b604482015260640161044d565b600e805461ff00191661010017905560095481101561066d5760405162461bcd60e51b815260206004820152601e60248201527f4465706f73697420616d6f756e74206c657373207468616e206c696d69740000604482015260640161044d565b61067681611952565b61068233826001611603565b600c5461068f9082611ccb565b600c55600154604051633b8e1bf560e01b81523360048201525f916001600160a01b031690633b8e1bf5906024016040805180830381865afa1580156106d7573d5f803e3d5ffd5b505050506040513d601f19601f820116820180604052508101906106fb9190612850565b50600c54604080513381526020810186905290810183905260608101919091529091507f3ec20ffa4a6f153b890e952f2ba9e704f33a57723bd66c48896fc34df27f0c379060800160405180910390a15050600e805461ff0019169055565b610762611cdf565b6001546040516308d208e360e21b81526001600160a01b03838116600483015290911690632348238c906024015f604051808303815f87803b1580156107a6575f80fd5b505af11580156107b8573d5f803e3d5ffd5b5050505050565b6107c761137d565b600c54600b546107d79190612897565b156108245760405162461bcd60e51b815260206004820152601e60248201527f4465706f7369742062616c616e6365206d6f7265207468616e207a65726f0000604482015260640161044d565b61086460036040518060400160405280601a81526020017f426f756e74792073746174757320697320636f6d706c65746564000000000000815250611d38565b6108a460046040518060400160405280601881526020017f426f756e74792073746174757320697320657870697265640000000000000000815250611d38565b6004546006546108c9916001600160a01b03908116916108c49116611d88565b611e16565b6109255760405162461bcd60e51b815260206004820152602760248201527f5472616e736665722062616c616e636520746f2074686520666f756e646572206044820152666661696c75726560c81b606482015260840161044d565b600e805462ff000019166203000017908190556040517fb0f771c4186611b76611e784eee7d7399b853aa6cae3da4a8d5755cfeeac99339161097291339162010000900460ff16906128aa565b60405180910390a1565b610984611f6e565b600e5460ff16156109a75760405162461bcd60e51b815260040161044d906128e3565b6109ca6001604051806060016040528060228152602001613683602291396113d7565b600e54610100900460ff1615610a135760405162461bcd60e51b815260206004820152600e60248201526d4e6f2072652d656e7472616e637960901b604482015260640161044d565b600e805461ff001916610100179055610a2b33611fbf565b60015460405163cb765d4d60e01b8152336004820152600360248201526001600160a01b039091169063cb765d4d906044015f604051808303815f87803b158015610a74575f80fd5b505af1158015610a86573d5f803e3d5ffd5b5050600e805461ff00191690555050565b610a9f611cdf565b6001546001600160a01b031615610aec5760405162461bcd60e51b815260206004820152601160248201527053746f7265206973206e6f74207a65726f60781b604482015260640161044d565b604051610af890612717565b604051809103905ff080158015610b11573d5f803e3d5ffd5b50600180546001600160a01b039283166001600160a01b0319918216811790925560068054909116909117905581516007805460208501511515600160a01b026001600160a81b03199091169290931691909117919091179055604081015160085560608101516009556080810151600a55610b8b612154565b600e805462ff0000191662010000836004811115610bab57610bab61283c565b0217905550600854600b55600e805460ff191690555f600d556007546001600160a01b0316610bec576007805460ff60a01b1916600160a01b179055610c1b565b6007805460ff60a01b198116909155600280546001600160a01b0319166001600160a01b039092169190911790555b7f813d49ce84071dda2c63fce419cce1843e73c55512e307c889d031b57eda73c7610c4d5f546001600160a01b031690565b600354600454604080516001600160a01b039485168152928416602084015290831690820152600754918216606082015260ff60a092831c16151560808201526008549181019190915260095460c0820152600a5460e0820152610100015b60405180910390a150565b610cbf61137d565b610ce260026040518060600160405280602181526020016136a5602191396113d7565b5f610cec8261142b565b505091505080610d3e5760405162461bcd60e51b815260206004820181905260248201527f4170706c6963616e7420737461747573206973206e6f7420617070726f766564604482015260640161044d565b60015460405163cb765d4d60e01b81526001600160a01b038481166004830152600660248301529091169063cb765d4d906044015f604051808303815f87803b158015610d89575f80fd5b505af1158015610d9b573d5f803e3d5ffd5b505060015460405163e2f88c1f60e01b81526001600160a01b0386811660048301525f6024830152909116925063e2f88c1f91506044015f604051808303815f87803b158015610de9575f80fd5b505af1158015610dfb573d5f803e3d5ffd5b5050604080513381526001600160a01b03861660208201527fb0a24d625a3d04a04108c98b7722db25e9435210d27050369082689178d4f1db9350019050610584565b610e46611cdf565b565b610e513361216c565b610e7460026040518060600160405280602181526020016136a5602191396113d7565b610e7c611779565b600d546040805133815260208101929092527fe2e42d676937b0633826eadcaf74807ca1f18c2174c6632ea6e044874385fd689101610972565b610ebe61137d565b600e5460ff1615610ee15760405162461bcd60e51b815260040161044d906128e3565b5f600c54600b54610ef29190612897565b11610f385760405162461bcd60e51b81526020600482015260166024820152754465706f73697420616d6f756e74206973207a65726f60501b604482015260640161044d565b610e46612250565b610f786040518060a001604052805f6001600160a01b031681526020015f151581526020015f81526020015f81526020015f81525090565b506040805160a0810182526007546001600160a01b0381168252600160a01b900460ff1615156020820152600854918101919091526009546060820152600a54608082015290565b610fc933612260565b600e5460ff1661100f5760405162461bcd60e51b81526020600482015260116024820152704465706f73697420697320756e6c6f636b60781b604482015260640161044d565b600e805460ff191690556040513381527f0be774851955c26a1d6a32b13b020663a069006b4a3b643ff0b809d31826057290602001610972565b61105161137d565b6110746001604051806060016040528060228152602001613683602291396113d7565b5f81116110bc5760405162461bcd60e51b81526020600482015260166024820152754465706f73697420616d6f756e74206973207a65726f60501b604482015260640161044d565b6110c581611952565b600b546110d29082611ccb565b600b8190556040805133815260208101849052908101919091527f90890809c654f11d6e72a28fa60149770a0d11ec6c92319d6ceb2bb0a4ea1a1590606001610cac565b5f805f805f805f805f805f805f8061112c611241565b9250925092505f60015f9054906101000a90046001600160a01b03166001600160a01b031663fdf5963a6040518163ffffffff1660e01b81526004015f60405180830381865afa158015611182573d5f803e3d5ffd5b505050506040513d5f823e601f3d908101601f191682016040526111a9919081019061290e565b600e5490915062010000900460ff1660048111156111c9576111c961283c565b81516006546111e0906001600160a01b0316611d88565b600b54600c54600760020154600e5f9054906101000a900460ff16600d548b8b8b9e509e509e509e509e509e509e509e509e509e509e5050505050909192939495969798999a565b5f611231611cdf565b506001546001600160a01b031690565b5f805f61124d3361237d565b925092509250909192565b611260611cdf565b6001600160a01b0381166112c55760405162461bcd60e51b815260206004820152602660248201527f4f776e61626c653a206e6577206f776e657220697320746865207a65726f206160448201526564647265737360d01b606482015260840161044d565b6112ce816123d2565b50565b5f6112da611cdf565b506006546001600160a01b031690565b6112f2611cdf565b600180546001600160a01b0319166001600160a01b0392909216919091179055565b61131d3361216c565b600e5460ff16156113405760405162461bcd60e51b815260040161044d906128e3565b600e805460ff191660011790556040513381527fc1b5f12cea7c200ad495a43bf2d4c7ba1a753343c06c339093937849de84d91390602001610972565b6004546001600160a01b03163314610e465760405162461bcd60e51b815260206004820152601960248201527f43616c6c6572206973206e6f742074686520666f756e64657200000000000000604482015260640161044d565b8160048111156113e9576113e961283c565b600e5462010000900460ff1660048111156114065761140661283c565b1481906114265760405162461bcd60e51b815260040161044d91906129bb565b505050565b5f805f805f805f61143b88612421565b9250925092508296505f95505f945086156114755760041960ff8216016114655760019550611475565b5f1960ff82160161147557600194505b8193505050509193509193565b60015460408051637efacb1d60e11b815290515f926001600160a01b03169163fdf5963a91600480830192869291908290030181865afa1580156114c8573d5f803e3d5ffd5b505050506040513d5f823e601f3d908101601f191682016040526114ef919081019061290e565b90505f5b815181101561142657826001600160a01b031682828151811061151857611518612a06565b60200260200101516001600160a01b0316146115f15761155082828151811061154357611543612a06565b6020026020010151611fbf565b60015482516001600160a01b039091169063cb765d4d9084908490811061157957611579612a06565b6020026020010151600460068111156115945761159461283c565b6040516001600160e01b031960e085901b1681526001600160a01b03909216600483015260ff1660248201526044015f604051808303815f87803b1580156115da575f80fd5b505af11580156115ec573d5f803e3d5ffd5b505050505b806115fb81612a1a565b9150506114f3565b5f61160d84612421565b50509050806116715760015460405163a2321aa160e01b81526001600160a01b0386811660048301529091169063a2321aa1906024015f604051808303815f87803b15801561165a575f80fd5b505af115801561166c573d5f803e3d5ffd5b505050505b600154604051633b8e1bf560e01b81526001600160a01b0386811660048301525f921690633b8e1bf5906024016040805180830381865afa1580156116b8573d5f803e3d5ffd5b505050506040513d601f19601f820116820180604052508101906116dc9190612850565b506001549091506001600160a01b03166320d529a6866116fc8488611ccb565b86600681111561170e5761170e61283c565b6040516001600160e01b031960e086901b1681526001600160a01b039093166004840152602483019190915260ff1660448201526064015f604051808303815f87803b15801561175c575f80fd5b505af115801561176e573d5f803e3d5ffd5b505050505050505050565b6117864262069780612897565b600d55565b6003546001600160a01b031633036117db5760405162461bcd60e51b81526020600482015260136024820152724d757374206e6f7420626520666163746f727960681b604482015260640161044d565b6004546001600160a01b0316330361182b5760405162461bcd60e51b815260206004820152601360248201527226bab9ba103737ba103132903337bab73232b960691b604482015260640161044d565b6005546001600160a01b031633036118855760405162461bcd60e51b815260206004820152601860248201527f4d757374206e6f7420626520636f6e747261637473656c660000000000000000604482015260640161044d565b5f8061189033612421565b92505091508115806118ad57508180156118ad575060ff81166003145b6118f15760405162461bcd60e51b8152602060048201526015602482015274135d5cdd081b9bdd08189948185c1c1b1a58d85b9d605a1b604482015260640161044d565b5050565b600a54421115610e465760405162461bcd60e51b815260206004820152602260248201527f54696d65207061737420746865206170706c69636174696f6e20646561646c696044820152616e6560f01b606482015260840161044d565b80156112ce57600754600160a01b900460ff1615611a52578034146119b25760405162461bcd60e51b81526020600482015260166024820152751b5cd9cb9d985b1d59481a5cc81b9bdd081d985b1a5960521b604482015260640161044d565b6006546040515f916001600160a01b03169083908381818185875af1925050503d805f81146119fc576040519150601f19603f3d011682016040523d82523d5f602084013e611a01565b606091505b50509050806118f15760405162461bcd60e51b815260206004820152601960248201527f5472616e7366657220636f6e7472616374206661696c75726500000000000000604482015260640161044d565b600254600554604051636eb1769f60e11b81523360048201526001600160a01b0391821660248201528392919091169063dd62ed3e90604401602060405180830381865afa158015611aa6573d5f803e3d5ffd5b505050506040513d601f19601f82011682018060405250810190611aca9190612a32565b1015611b2d5760405162461bcd60e51b815260206004820152602c60248201527f596f7572206465706f73697420746f6b656e20616c6c6f77616e63652069732060448201526b1a5b9cdd59999a58da595b9d60a21b606482015260840161044d565b6002546040516370a0823160e01b815233600482015282916001600160a01b0316906370a0823190602401602060405180830381865afa158015611b73573d5f803e3d5ffd5b505050506040513d601f19601f82011682018060405250810190611b979190612a32565b1015611bf85760405162461bcd60e51b815260206004820152602a60248201527f596f7572206465706f73697420746f6b656e2062616c616e636520697320696e6044820152691cdd59999a58da595b9d60b21b606482015260840161044d565b6002546006546040516323b872dd60e01b81523360048201526001600160a01b039182166024820152604481018490529116906323b872dd906064016020604051808303815f875af1158015611c50573d5f803e3d5ffd5b505050506040513d601f19601f82011682018060405250810190611c749190612a49565b6112ce5760405162461bcd60e51b815260206004820152602260248201527f4465706f73697420746f6b656e207472616e7366657246726f6d206661696c75604482015261726560f01b606482015260840161044d565b5f611cd68284612897565b90505b92915050565b5f546001600160a01b03163314610e465760405162461bcd60e51b815260206004820181905260248201527f4f776e61626c653a2063616c6c6572206973206e6f7420746865206f776e6572604482015260640161044d565b816004811115611d4a57611d4a61283c565b600e5462010000900460ff166004811115611d6757611d6761283c565b141581906114265760405162461bcd60e51b815260040161044d91906129bb565b6007545f90600160a01b900460ff1615611daa57506001600160a01b03163190565b6002546040516370a0823160e01b81526001600160a01b038481166004830152909116906370a0823190602401602060405180830381865afa158015611df2573d5f803e3d5ffd5b505050506040513d601f19601f82011682018060405250810190611cd99190612a32565b5f60018215611cd657506007545f90600160a01b900460ff1615611eaf5760015460405163a9059cbb60e01b81526001600160a01b038681166004830152602482018690529091169063a9059cbb906044016020604051808303815f875af1158015611e84573d5f803e3d5ffd5b505050506040513d601f19601f82011682018060405250810190611ea89190612a49565b9050611f30565b600154600254604051637aa9bf6f60e11b81526001600160a01b03918216600482015286821660248201526044810186905291169063f5537ede906064016020604051808303815f875af1158015611f09573d5f803e3d5ffd5b505050506040513d601f19601f82011682018060405250810190611f2d9190612a49565b90505b80611cd65760405162461bcd60e51b815260206004820152600e60248201526d526566756e64206661696c75726560901b604482015260640161044d565b5f611f783361142b565b5092505050806112ce5760405162461bcd60e51b8152602060048201526012602482015271141b19585cd948185c1c1b1e48199a5c9cdd60721b604482015260640161044d565b600154604051633b8e1bf560e01b81526001600160a01b0383811660048301525f921690633b8e1bf5906024016040805180830381865afa158015612006573d5f803e3d5ffd5b505050506040513d601f19601f8201168201806040525081019061202a9190612850565b5090506120378282611e16565b61208f5760405162461bcd60e51b815260206004820152602360248201527f526566756e64206465706f73697420746f206170706c6963616e74206661696c60448201526275726560e81b606482015260840161044d565b600c5461209c90826124c4565b600c556001546040516315a94fa960e31b81526001600160a01b0384811660048301525f60248301529091169063ad4a7d48906044015f604051808303815f87803b1580156120e9575f80fd5b505af11580156120fb573d5f803e3d5ffd5b5050600c54604080516001600160a01b0387168152602081018690525f9181019190915260608101919091527fe91d6e8b0922288cb099f612a8ebe95f158ff1fa70ade28df221224e75ccbeba92506080019050610584565b600a545f904210156121665750600190565b50600490565b600154604051630fd3705960e01b81526001600160a01b0383811660048301525f921690630fd3705990602401602060405180830381865afa1580156121b4573d5f803e3d5ffd5b505050506040513d601f19601f820116820180604052508101906121d89190612a49565b1561220357600d5415806121fa57505f600d541180156121fa5750600d544211155b15612203575060015b806118f15760405162461bcd60e51b815260206004820152601d60248201527f43616c6c6572206973206e6f7420616c6c6f77656420746f206c6f636b000000604482015260640161044d565b6122586124cf565b610e46612587565b60015460405163734b144560e11b81526001600160a01b0383811660048301525f92169063e696288a90602401602060405180830381865afa1580156122a8573d5f803e3d5ffd5b505050506040513d601f19601f820116820180604052508101906122cc9190612a49565b156122fc57600d5415806122ee57505f600d541180156122ee5750600d544211155b156122f7575060015b612330565b5f600d5411801561230e5750600d5442115b801561232757506004546001600160a01b038381169116145b15612330575060015b806118f15760405162461bcd60e51b815260206004820152601f60248201527f43616c6c6572206973206e6f7420616c6c6f77656420746f20756e6c6f636b00604482015260640161044d565b5f8080600381808061238e88612421565b92509250925082156123a357600293506123c3565b6004546001600160a01b03908116908916036123c35760019350600b5491505b92979096509194509092505050565b5f80546001600160a01b038381166001600160a01b0319831681178455604051919092169283917f8be0079c531659141344cd1fd0a4f28419497f9722a3daafe3b4186f6b6457e09190a35050565b60018054604051633b8e1bf560e01b81526001600160a01b0384811660048301525f93849384939192849283929190911690633b8e1bf5906024016040805180830381865afa158015612476573d5f803e3d5ffd5b505050506040513d601f19601f8201168201806040525081019061249a9190612850565b91509150815f1480156124ae575060ff8116155b156124b7575f92505b9196909550909350915050565b5f611cd68284612a64565b600b546004546124e8906001600160a01b031682611e16565b6125425760405162461bcd60e51b815260206004820152602560248201527f526566756e64206465706f73697420746f2074686520666f756e646572206661604482015264696c75726560d81b606482015260840161044d565b5f600b8190556040805133815260208101849052908101919091527fe48599699a32e09c4df6e7e49d630b3b349e877d551bb9c34d31d5add15abcd890606001610cac565b60015460408051637efacb1d60e11b815290515f926001600160a01b03169163fdf5963a91600480830192869291908290030181865afa1580156125cd573d5f803e3d5ffd5b505050506040513d5f823e601f3d908101601f191682016040526125f4919081019061290e565b90505f5b81518110156118f1575f82828151811061261457612614612a06565b6020026020010151905061262781611fbf565b600154604051633b8e1bf560e01b81526001600160a01b0383811660048301525f921690633b8e1bf5906024016040805180830381865afa15801561266e573d5f803e3d5ffd5b505050506040513d601f19601f820116820180604052508101906126929190612850565b9150505f1960ff8216016127025760015460405163cb765d4d60e01b81526001600160a01b038481166004830152600260248301529091169063cb765d4d906044015f604051808303815f87803b1580156126eb575f80fd5b505af11580156126fd573d5f803e3d5ffd5b505050505b5050808061270f90612a1a565b9150506125f8565b610c0b80612a7883390190565b6001600160a01b03811681146112ce575f80fd5b5f60208284031215612748575f80fd5b8135611cd681612724565b5f60208284031215612763575f80fd5b5035919050565b634e487b7160e01b5f52604160045260245ffd5b604051601f8201601f1916810167ffffffffffffffff811182821017156127a7576127a761276a565b604052919050565b80151581146112ce575f80fd5b5f60a082840312156127cc575f80fd5b60405160a0810181811067ffffffffffffffff821117156127ef576127ef61276a565b60405282356127fd81612724565b8152602083013561280d816127af565b806020830152506040830135604082015260608301356060820152608083013560808201528091505092915050565b634e487b7160e01b5f52602160045260245ffd5b5f8060408385031215612861575f80fd5b82519150602083015160ff81168114612878575f80fd5b809150509250929050565b634e487b7160e01b5f52601160045260245ffd5b80820180821115611cd957611cd9612883565b6001600160a01b038316815260408101600583106128d657634e487b7160e01b5f52602160045260245ffd5b8260208301529392505050565b60208082526011908201527011195c1bdcda5d081a5cc81b1bd8dad959607a1b604082015260600190565b5f602080838503121561291f575f80fd5b825167ffffffffffffffff80821115612936575f80fd5b818501915085601f830112612949575f80fd5b81518181111561295b5761295b61276a565b8060051b915061296c84830161277e565b8181529183018401918481019088841115612985575f80fd5b938501935b838510156129af578451925061299f83612724565b828252938501939085019061298a565b98975050505050505050565b5f6020808352835180828501525f5b818110156129e6578581018301518582016040015282016129ca565b505f604082860101526040601f19601f8301168501019250505092915050565b634e487b7160e01b5f52603260045260245ffd5b5f60018201612a2b57612a2b612883565b5060010190565b5f60208284031215612a42575f80fd5b5051919050565b5f60208284031215612a59575f80fd5b8151611cd6816127af565b81810381811115611cd957611cd961288356fe608060405234801561000f575f80fd5b505f80546001600160a01b0319163390811790915560408051918252517f4101e71e974f68df5e9730cc223280b41654676bbb052cdcc735c3337e64d2d99181900360200190a1610ba8806100635f395ff3fe6080604052600436106100dc575f3560e01c8063ad4a7d481161007c578063e2f88c1f11610057578063e2f88c1f146102a2578063e696288a146102c1578063f5537ede146102e0578063fdf5963a146102ff575f80fd5b8063ad4a7d481461023e578063c6dbdf611461025d578063cb765d4d14610283575f80fd5b80633b8e1bf5116100b75780633b8e1bf5146101ab578063a2321aa1146101e1578063a374e62814610200578063a9059cbb1461021f575f80fd5b80630fd370591461013757806320d529a61461016b5780632348238c1461018c575f80fd5b36610133576040805133815260208101829052600781830152667265636569766560c81b606082015290517fd00ca3f088120b3d909c3a9e01be91e94a2b001aed9c25fe751c3c7a72dc49bf9181900360800190a1005b5f80fd5b348015610142575f80fd5b50610156610151366004610973565b610320565b60405190151581526020015b60405180910390f35b348015610176575f80fd5b5061018a6101853660046109a5565b61037e565b005b348015610197575f80fd5b5061018a6101a6366004610973565b6103fa565b3480156101b6575f80fd5b506101ca6101c5366004610973565b6104e8565b6040805192835260ff909116602083015201610162565b3480156101ec575f80fd5b5061018a6101fb366004610973565b610559565b34801561020b575f80fd5b5061018a61021a3660046109ed565b6105db565b34801561022a575f80fd5b50610156610239366004610a24565b610637565b348015610249575f80fd5b5061018a610258366004610a24565b6106c3565b348015610268575f80fd5b505f546040516001600160a01b039091168152602001610162565b34801561028e575f80fd5b5061018a61029d366004610a4e565b610710565b3480156102ad575f80fd5b5061018a6102bc3660046109ed565b610771565b3480156102cc575f80fd5b506101566102db366004610973565b6107cd565b3480156102eb575f80fd5b506101566102fa366004610a81565b61081e565b34801561030a575f80fd5b506103136108c9565b6040516101629190610abf565b5f80546001600160a01b0316336001600160a01b03161461035c5760405162461bcd60e51b815260040161035390610b0b565b60405180910390fd5b506001600160a01b0381165f9081526003602052604090205460ff165b919050565b5f546001600160a01b0316336001600160a01b0316146103b05760405162461bcd60e51b815260040161035390610b0b565b60408051808201825292835260ff91821660208085019182526001600160a01b03959095165f908152600290955293209151825591516001909101805460ff191691909216179055565b5f546001600160a01b0316336001600160a01b03161461042c5760405162461bcd60e51b815260040161035390610b0b565b6001600160a01b0381166104955760405162461bcd60e51b815260206004820152602a60248201527f5365636f6e646172793a206e6577207072696d61727920697320746865207a65604482015269726f206164647265737360b01b6064820152608401610353565b5f80546001600160a01b0319166001600160a01b0383169081179091556040519081527f4101e71e974f68df5e9730cc223280b41654676bbb052cdcc735c3337e64d2d99060200160405180910390a150565b5f805481906001600160a01b0316336001600160a01b03161461051d5760405162461bcd60e51b815260040161035390610b0b565b50506001600160a01b03165f908152600260209081526040918290208251808401909352805480845260019091015460ff169290910182905291565b5f546001600160a01b0316336001600160a01b03161461058b5760405162461bcd60e51b815260040161035390610b0b565b6001805480820182555f919091527fb10e2d527612073b26eecdfd717e6a320cf44b4afac2b0732d9fcbe2b7fa0cf60180546001600160a01b0319166001600160a01b0392909216919091179055565b5f546001600160a01b0316336001600160a01b03161461060d5760405162461bcd60e51b815260040161035390610b0b565b6001600160a01b03919091165f908152600460205260409020805460ff1916911515919091179055565b5f80546001600160a01b0316336001600160a01b03161461066a5760405162461bcd60e51b815260040161035390610b0b565b5f836001600160a01b0316836040515f6040518083038185875af1925050503d805f81146106b3576040519150601f19603f3d011682016040523d82523d5f602084013e6106b8565b606091505b509095945050505050565b5f546001600160a01b0316336001600160a01b0316146106f55760405162461bcd60e51b815260040161035390610b0b565b6001600160a01b039091165f90815260026020526040902055565b5f546001600160a01b0316336001600160a01b0316146107425760405162461bcd60e51b815260040161035390610b0b565b6001600160a01b03919091165f908152600260205260409020600101805460ff191660ff909216919091179055565b5f546001600160a01b0316336001600160a01b0316146107a35760405162461bcd60e51b815260040161035390610b0b565b6001600160a01b03919091165f908152600360205260409020805460ff1916911515919091179055565b5f80546001600160a01b0316336001600160a01b0316146108005760405162461bcd60e51b815260040161035390610b0b565b506001600160a01b03165f9081526004602052604090205460ff1690565b5f80546001600160a01b0316336001600160a01b0316146108515760405162461bcd60e51b815260040161035390610b0b565b60405163a9059cbb60e01b81526001600160a01b0384811660048301526024820184905285169063a9059cbb906044016020604051808303815f875af115801561089d573d5f803e3d5ffd5b505050506040513d601f19601f820116820180604052508101906108c19190610b57565b949350505050565b5f546060906001600160a01b0316336001600160a01b0316146108fe5760405162461bcd60e51b815260040161035390610b0b565b600180548060200260200160405190810160405280929190818152602001828054801561095257602002820191905f5260205f20905b81546001600160a01b03168152600190910190602001808311610934575b5050505050905090565b6001600160a01b0381168114610970575f80fd5b50565b5f60208284031215610983575f80fd5b813561098e8161095c565b9392505050565b803560ff81168114610379575f80fd5b5f805f606084860312156109b7575f80fd5b83356109c28161095c565b9250602084013591506109d760408501610995565b90509250925092565b8015158114610970575f80fd5b5f80604083850312156109fe575f80fd5b8235610a098161095c565b91506020830135610a19816109e0565b809150509250929050565b5f8060408385031215610a35575f80fd5b8235610a408161095c565b946020939093013593505050565b5f8060408385031215610a5f575f80fd5b8235610a6a8161095c565b9150610a7860208401610995565b90509250929050565b5f805f60608486031215610a93575f80fd5b8335610a9e8161095c565b92506020840135610aae8161095c565b929592945050506040919091013590565b602080825282518282018190525f9190848201906040850190845b81811015610aff5783516001600160a01b031683529284019291840191600101610ada565b50909695505050505050565b6020808252602c908201527f5365636f6e646172793a2063616c6c6572206973206e6f74207468652070726960408201526b1b585c9e481858d8dbdd5b9d60a21b606082015260800190565b5f60208284031215610b67575f80fd5b815161098e816109e056fea264697066735822122092b3010c60420953589a3583f14a1e1cf0cf224347f318a3ae14590191dec7cc64736f6c63430008140033426f756e747920737461747573206e6f7420696e20726561647920746f20776f726b426f756e747920737461747573206e6f7420696e20776f726b2073746172746564a2646970667358221220bf376fda5ec792cce854518afe70e1dd0178f0d8df76246615a46a1c2492056864736f6c63430008140033a2646970667358221220ab2aa691d68fe8cca2ea20f6aed23cab77bd3547a4d6a05e339730215c2e14e764736f6c63430008140033608060405234801561000f575f80fd5b505f80546001600160a01b0319163390811790915560408051918252517f4101e71e974f68df5e9730cc223280b41654676bbb052cdcc735c3337e64d2d99181900360200190a1610447806100635f395ff3fe608060405234801561000f575f80fd5b5060043610610055575f3560e01c80632348238c1461005957806389b09de71461006e578063c2bc80fd14610081578063c6dbdf611461009f578063fc91a897146100b9575b5f80fd5b61006c61006736600461034c565b6100dc565b005b61006c61007c36600461034c565b6101d3565b610089610268565b6040516100969190610379565b60405180910390f35b5f546040516001600160a01b039091168152602001610096565b6100cc6100c736600461034c565b6102fb565b6040519015158152602001610096565b5f546001600160a01b0316336001600160a01b0316146101175760405162461bcd60e51b815260040161010e906103c5565b60405180910390fd5b6001600160a01b0381166101805760405162461bcd60e51b815260206004820152602a60248201527f5365636f6e646172793a206e6577207072696d61727920697320746865207a65604482015269726f206164647265737360b01b606482015260840161010e565b5f80546001600160a01b0319166001600160a01b0383169081179091556040519081527f4101e71e974f68df5e9730cc223280b41654676bbb052cdcc735c3337e64d2d99060200160405180910390a150565b5f546001600160a01b0316336001600160a01b0316146102055760405162461bcd60e51b815260040161010e906103c5565b6001805480820182557fb10e2d527612073b26eecdfd717e6a320cf44b4afac2b0732d9fcbe2b7fa0cf60180546001600160a01b039093166001600160a01b0319909316831790555f91825260026020526040909120805460ff19169091179055565b5f546060906001600160a01b0316336001600160a01b03161461029d5760405162461bcd60e51b815260040161010e906103c5565b60018054806020026020016040519081016040528092919081815260200182805480156102f157602002820191905f5260205f20905b81546001600160a01b031681526001909101906020018083116102d3575b5050505050905090565b5f80546001600160a01b0316336001600160a01b03161461032e5760405162461bcd60e51b815260040161010e906103c5565b506001600160a01b03165f9081526002602052604090205460ff1690565b5f6020828403121561035c575f80fd5b81356001600160a01b0381168114610372575f80fd5b9392505050565b602080825282518282018190525f9190848201906040850190845b818110156103b95783516001600160a01b031683529284019291840191600101610394565b50909695505050505050565b6020808252602c908201527f5365636f6e646172793a2063616c6c6572206973206e6f74207468652070726960408201526b1b585c9e481858d8dbdd5b9d60a21b60608201526080019056fea2646970667358221220dc4d66046263d48859852e9542b40ec85e22a15ff01c4657a53d2ba97d8d64f264736f6c63430008140033",
  "linkReferences": {},
  "deployedLinkReferences": {}
}