{
	"contracts/common/Erc20.sol": {
		"TokenERC20": {
			"abi": [
				{
					"inputs": [
						{
							"internalType": "uint256",
							"name": "initialSupply",
							"type": "uint256"
						},
						{
							"internalType": "string",
							"name": "tokenName",
							"type": "string"
						},
						{
							"internalType": "string",
							"name": "tokenSymbol",
							"type": "string"
						}
					],
					"stateMutability": "nonpayable",
					"type": "constructor"
				},
				{
					"anonymous": false,
					"inputs": [
						{
							"indexed": true,
							"internalType": "address",
							"name": "_owner",
							"type": "address"
						},
						{
							"indexed": true,
							"internalType": "address",
							"name": "_spender",
							"type": "address"
						},
						{
							"indexed": false,
							"internalType": "uint256",
							"name": "_value",
							"type": "uint256"
						}
					],
					"name": "Approval",
					"type": "event"
				},
				{
					"anonymous": false,
					"inputs": [
						{
							"indexed": true,
							"internalType": "address",
							"name": "from",
							"type": "address"
						},
						{
							"indexed": false,
							"internalType": "uint256",
							"name": "value",
							"type": "uint256"
						}
					],
					"name": "Burn",
					"type": "event"
				},
				{
					"anonymous": false,
					"inputs": [
						{
							"indexed": true,
							"internalType": "address",
							"name": "from",
							"type": "address"
						},
						{
							"indexed": true,
							"internalType": "address",
							"name": "to",
							"type": "address"
						},
						{
							"indexed": false,
							"internalType": "uint256",
							"name": "value",
							"type": "uint256"
						}
					],
					"name": "Transfer",
					"type": "event"
				},
				{
					"inputs": [
						{
							"internalType": "address",
							"name": "",
							"type": "address"
						},
						{
							"internalType": "address",
							"name": "",
							"type": "address"
						}
					],
					"name": "allowance",
					"outputs": [
						{
							"internalType": "uint256",
							"name": "",
							"type": "uint256"
						}
					],
					"stateMutability": "view",
					"type": "function"
				},
				{
					"inputs": [
						{
							"internalType": "address",
							"name": "_spender",
							"type": "address"
						},
						{
							"internalType": "uint256",
							"name": "_value",
							"type": "uint256"
						}
					],
					"name": "approve",
					"outputs": [
						{
							"internalType": "bool",
							"name": "success",
							"type": "bool"
						}
					],
					"stateMutability": "nonpayable",
					"type": "function"
				},
				{
					"inputs": [
						{
							"internalType": "address",
							"name": "_spender",
							"type": "address"
						},
						{
							"internalType": "uint256",
							"name": "_value",
							"type": "uint256"
						},
						{
							"internalType": "bytes",
							"name": "_extraData",
							"type": "bytes"
						}
					],
					"name": "approveAndCall",
					"outputs": [
						{
							"internalType": "bool",
							"name": "success",
							"type": "bool"
						}
					],
					"stateMutability": "nonpayable",
					"type": "function"
				},
				{
					"inputs": [
						{
							"internalType": "address",
							"name": "",
							"type": "address"
						}
					],
					"name": "balanceOf",
					"outputs": [
						{
							"internalType": "uint256",
							"name": "",
							"type": "uint256"
						}
					],
					"stateMutability": "view",
					"type": "function"
				},
				{
					"inputs": [
						{
							"internalType": "uint256",
							"name": "_value",
							"type": "uint256"
						}
					],
					"name": "burn",
					"outputs": [
						{
							"internalType": "bool",
							"name": "success",
							"type": "bool"
						}
					],
					"stateMutability": "nonpayable",
					"type": "function"
				},
				{
					"inputs": [
						{
							"internalType": "address",
							"name": "_from",
							"type": "address"
						},
						{
							"internalType": "uint256",
							"name": "_value",
							"type": "uint256"
						}
					],
					"name": "burnFrom",
					"outputs": [
						{
							"internalType": "bool",
							"name": "success",
							"type": "bool"
						}
					],
					"stateMutability": "nonpayable",
					"type": "function"
				},
				{
					"inputs": [],
					"name": "decimals",
					"outputs": [
						{
							"internalType": "uint8",
							"name": "",
							"type": "uint8"
						}
					],
					"stateMutability": "view",
					"type": "function"
				},
				{
					"inputs": [],
					"name": "name",
					"outputs": [
						{
							"internalType": "string",
							"name": "",
							"type": "string"
						}
					],
					"stateMutability": "view",
					"type": "function"
				},
				{
					"inputs": [],
					"name": "symbol",
					"outputs": [
						{
							"internalType": "string",
							"name": "",
							"type": "string"
						}
					],
					"stateMutability": "view",
					"type": "function"
				},
				{
					"inputs": [],
					"name": "totalSupply",
					"outputs": [
						{
							"internalType": "uint256",
							"name": "",
							"type": "uint256"
						}
					],
					"stateMutability": "view",
					"type": "function"
				},
				{
					"inputs": [
						{
							"internalType": "address",
							"name": "_to",
							"type": "address"
						},
						{
							"internalType": "uint256",
							"name": "_value",
							"type": "uint256"
						}
					],
					"name": "transfer",
					"outputs": [
						{
							"internalType": "bool",
							"name": "success",
							"type": "bool"
						}
					],
					"stateMutability": "nonpayable",
					"type": "function"
				},
				{
					"inputs": [
						{
							"internalType": "address",
							"name": "_from",
							"type": "address"
						},
						{
							"internalType": "address",
							"name": "_to",
							"type": "address"
						},
						{
							"internalType": "uint256",
							"name": "_value",
							"type": "uint256"
						}
					],
					"name": "transferFrom",
					"outputs": [
						{
							"internalType": "bool",
							"name": "success",
							"type": "bool"
						}
					],
					"stateMutability": "nonpayable",
					"type": "function"
				}
			],
			"devdoc": {
				"kind": "dev",
				"methods": {
					"approve(address,uint256)": {
						"params": {
							"_spender": "The address authorized to spend",
							"_value": "the max amount they can spend"
						}
					},
					"approveAndCall(address,uint256,bytes)": {
						"params": {
							"_extraData": "some extra information to send to the approved contract",
							"_spender": "The address authorized to spend",
							"_value": "the max amount they can spend"
						}
					},
					"burn(uint256)": {
						"params": {
							"_value": "the amount of money to burn"
						}
					},
					"burnFrom(address,uint256)": {
						"params": {
							"_from": "the address of the sender",
							"_value": "the amount of money to burn"
						}
					},
					"transfer(address,uint256)": {
						"params": {
							"_to": "The address of the recipient",
							"_value": "the amount to send"
						}
					},
					"transferFrom(address,address,uint256)": {
						"params": {
							"_from": "The address of the sender",
							"_to": "The address of the recipient",
							"_value": "the amount to send"
						}
					}
				},
				"version": 1
			},
			"evm": {
				"assembly": "    /* \"contracts/common/Erc20.sol\":214:6178  contract TokenERC20 {... */\n  mstore(0x40, 0x80)\n    /* \"contracts/common/Erc20.sol\":351:353  18 */\n  0x12\n    /* \"contracts/common/Erc20.sol\":327:353  uint8 public decimals = 18 */\n  0x02\n  exp(0x0100, 0x00)\n  dup2\n  sload\n  dup2\n  0xff\n  mul\n  not\n  and\n  swap1\n  dup4\n  0xff\n  and\n  mul\n  or\n  swap1\n  sstore\n  pop\n    /* \"contracts/common/Erc20.sol\":1209:1746  constructor(... */\n  callvalue\n  dup1\n  iszero\n  tag_1\n  jumpi\n  0x00\n  dup1\n  revert\ntag_1:\n  pop\n  mload(0x40)\n  sub(codesize, bytecodeSize)\n  dup1\n  bytecodeSize\n  dup4\n  codecopy\n  dup2\n  dup2\n  add\n  0x40\n  mstore\n  dup2\n  add\n  swap1\n  tag_2\n  swap2\n  swap1\n  tag_3\n  jump\t// in\ntag_2:\n    /* \"contracts/common/Erc20.sol\":1387:1395  decimals */\n  0x02\n  0x00\n  swap1\n  sload\n  swap1\n  0x0100\n  exp\n  swap1\n  div\n  0xff\n  and\n    /* \"contracts/common/Erc20.sol\":1379:1396  uint256(decimals) */\n  0xff\n  and\n    /* \"contracts/common/Erc20.sol\":1373:1375  10 */\n  0x0a\n    /* \"contracts/common/Erc20.sol\":1373:1396  10 ** uint256(decimals) */\n  tag_6\n  swap2\n  swap1\n  tag_7\n  jump\t// in\ntag_6:\n    /* \"contracts/common/Erc20.sol\":1357:1370  initialSupply */\n  dup4\n    /* \"contracts/common/Erc20.sol\":1357:1396  initialSupply * 10 ** uint256(decimals) */\n  tag_8\n  swap2\n  swap1\n  tag_9\n  jump\t// in\ntag_8:\n    /* \"contracts/common/Erc20.sol\":1343:1354  totalSupply */\n  0x03\n    /* \"contracts/common/Erc20.sol\":1343:1396  totalSupply = initialSupply * 10 ** uint256(decimals) */\n  dup2\n  swap1\n  sstore\n  pop\n    /* \"contracts/common/Erc20.sol\":1478:1489  totalSupply */\n  sload(0x03)\n    /* \"contracts/common/Erc20.sol\":1454:1463  balanceOf */\n  0x04\n    /* \"contracts/common/Erc20.sol\":1454:1475  balanceOf[msg.sender] */\n  0x00\n    /* \"contracts/common/Erc20.sol\":1464:1474  msg.sender */\n  caller\n    /* \"contracts/common/Erc20.sol\":1454:1475  balanceOf[msg.sender] */\n  0xffffffffffffffffffffffffffffffffffffffff\n  and\n  0xffffffffffffffffffffffffffffffffffffffff\n  and\n  dup2\n  mstore\n  0x20\n  add\n  swap1\n  dup2\n  mstore\n  0x20\n  add\n  0x00\n  keccak256\n    /* \"contracts/common/Erc20.sol\":1454:1489  balanceOf[msg.sender] = totalSupply */\n  dup2\n  swap1\n  sstore\n  pop\n    /* \"contracts/common/Erc20.sol\":1560:1569  tokenName */\n  dup2\n    /* \"contracts/common/Erc20.sol\":1553:1557  name */\n  0x00\n    /* \"contracts/common/Erc20.sol\":1553:1569  name = tokenName */\n  swap1\n  dup1\n  mload\n  swap1\n  0x20\n  add\n  swap1\n  tag_10\n  swap3\n  swap2\n  swap1\n  tag_11\n  jump\t// in\ntag_10:\n  pop\n    /* \"contracts/common/Erc20.sol\":1659:1670  tokenSymbol */\n  dup1\n    /* \"contracts/common/Erc20.sol\":1650:1656  symbol */\n  0x01\n    /* \"contracts/common/Erc20.sol\":1650:1670  symbol = tokenSymbol */\n  swap1\n  dup1\n  mload\n  swap1\n  0x20\n  add\n  swap1\n  tag_12\n  swap3\n  swap2\n  swap1\n  tag_11\n  jump\t// in\ntag_12:\n  pop\n    /* \"contracts/common/Erc20.sol\":1209:1746  constructor(... */\n  pop\n  pop\n  pop\n    /* \"contracts/common/Erc20.sol\":214:6178  contract TokenERC20 {... */\n  jump(tag_13)\ntag_11:\n  dup3\n  dup1\n  sload\n  tag_14\n  swap1\n  tag_15\n  jump\t// in\ntag_14:\n  swap1\n  0x00\n  mstore\n  keccak256(0x00, 0x20)\n  swap1\n  0x1f\n  add\n  0x20\n  swap1\n  div\n  dup2\n  add\n  swap3\n  dup3\n  tag_17\n  jumpi\n  0x00\n  dup6\n  sstore\n  jump(tag_16)\ntag_17:\n  dup3\n  0x1f\n  lt\n  tag_18\n  jumpi\n  dup1\n  mload\n  not(0xff)\n  and\n  dup4\n  dup1\n  add\n  or\n  dup6\n  sstore\n  jump(tag_16)\ntag_18:\n  dup3\n  dup1\n  add\n  0x01\n  add\n  dup6\n  sstore\n  dup3\n  iszero\n  tag_16\n  jumpi\n  swap2\n  dup3\n  add\ntag_19:\n  dup3\n  dup2\n  gt\n  iszero\n  tag_20\n  jumpi\n  dup3\n  mload\n  dup3\n  sstore\n  swap2\n  0x20\n  add\n  swap2\n  swap1\n  0x01\n  add\n  swap1\n  jump(tag_19)\ntag_20:\ntag_16:\n  pop\n  swap1\n  pop\n  tag_21\n  swap2\n  swap1\n  tag_22\n  jump\t// in\ntag_21:\n  pop\n  swap1\n  jump\t// out\ntag_22:\ntag_23:\n  dup1\n  dup3\n  gt\n  iszero\n  tag_24\n  jumpi\n  0x00\n  dup2\n  0x00\n  swap1\n  sstore\n  pop\n  0x01\n  add\n  jump(tag_23)\ntag_24:\n  pop\n  swap1\n  jump\t// out\n    /* \"#utility.yul\":7:428   */\ntag_26:\n    /* \"#utility.yul\":96:101   */\n  0x00\n    /* \"#utility.yul\":121:187   */\n  tag_28\n    /* \"#utility.yul\":137:186   */\n  tag_29\n    /* \"#utility.yul\":179:185   */\n  dup5\n    /* \"#utility.yul\":137:186   */\n  tag_30\n  jump\t// in\ntag_29:\n    /* \"#utility.yul\":121:187   */\n  tag_31\n  jump\t// in\ntag_28:\n    /* \"#utility.yul\":112:187   */\n  swap1\n  pop\n    /* \"#utility.yul\":210:216   */\n  dup3\n    /* \"#utility.yul\":203:208   */\n  dup2\n    /* \"#utility.yul\":196:217   */\n  mstore\n    /* \"#utility.yul\":248:252   */\n  0x20\n    /* \"#utility.yul\":241:246   */\n  dup2\n    /* \"#utility.yul\":237:253   */\n  add\n    /* \"#utility.yul\":286:289   */\n  dup5\n    /* \"#utility.yul\":277:283   */\n  dup5\n    /* \"#utility.yul\":272:275   */\n  dup5\n    /* \"#utility.yul\":268:284   */\n  add\n    /* \"#utility.yul\":265:290   */\n  gt\n    /* \"#utility.yul\":262:374   */\n  iszero\n  tag_32\n  jumpi\n    /* \"#utility.yul\":293:372   */\n  tag_33\n  tag_34\n  jump\t// in\ntag_33:\n    /* \"#utility.yul\":262:374   */\ntag_32:\n    /* \"#utility.yul\":383:422   */\n  tag_35\n    /* \"#utility.yul\":415:421   */\n  dup5\n    /* \"#utility.yul\":410:413   */\n  dup3\n    /* \"#utility.yul\":405:408   */\n  dup6\n    /* \"#utility.yul\":383:422   */\n  tag_36\n  jump\t// in\ntag_35:\n    /* \"#utility.yul\":102:428   */\n  pop\n    /* \"#utility.yul\":7:428   */\n  swap4\n  swap3\n  pop\n  pop\n  pop\n  jump\t// out\n    /* \"#utility.yul\":448:803   */\ntag_37:\n    /* \"#utility.yul\":515:520   */\n  0x00\n    /* \"#utility.yul\":564:567   */\n  dup3\n    /* \"#utility.yul\":557:561   */\n  0x1f\n    /* \"#utility.yul\":549:555   */\n  dup4\n    /* \"#utility.yul\":545:562   */\n  add\n    /* \"#utility.yul\":541:568   */\n  slt\n    /* \"#utility.yul\":531:653   */\n  tag_39\n  jumpi\n    /* \"#utility.yul\":572:651   */\n  tag_40\n  tag_41\n  jump\t// in\ntag_40:\n    /* \"#utility.yul\":531:653   */\ntag_39:\n    /* \"#utility.yul\":682:688   */\n  dup2\n    /* \"#utility.yul\":676:689   */\n  mload\n    /* \"#utility.yul\":707:797   */\n  tag_42\n    /* \"#utility.yul\":793:796   */\n  dup5\n    /* \"#utility.yul\":785:791   */\n  dup3\n    /* \"#utility.yul\":778:782   */\n  0x20\n    /* \"#utility.yul\":770:776   */\n  dup7\n    /* \"#utility.yul\":766:783   */\n  add\n    /* \"#utility.yul\":707:797   */\n  tag_26\n  jump\t// in\ntag_42:\n    /* \"#utility.yul\":698:797   */\n  swap2\n  pop\n    /* \"#utility.yul\":521:803   */\n  pop\n    /* \"#utility.yul\":448:803   */\n  swap3\n  swap2\n  pop\n  pop\n  jump\t// out\n    /* \"#utility.yul\":809:952   */\ntag_43:\n    /* \"#utility.yul\":866:871   */\n  0x00\n    /* \"#utility.yul\":897:903   */\n  dup2\n    /* \"#utility.yul\":891:904   */\n  mload\n    /* \"#utility.yul\":882:904   */\n  swap1\n  pop\n    /* \"#utility.yul\":913:946   */\n  tag_45\n    /* \"#utility.yul\":940:945   */\n  dup2\n    /* \"#utility.yul\":913:946   */\n  tag_46\n  jump\t// in\ntag_45:\n    /* \"#utility.yul\":809:952   */\n  swap3\n  swap2\n  pop\n  pop\n  jump\t// out\n    /* \"#utility.yul\":958:1967   */\ntag_3:\n    /* \"#utility.yul\":1066:1072   */\n  0x00\n    /* \"#utility.yul\":1074:1080   */\n  dup1\n    /* \"#utility.yul\":1082:1088   */\n  0x00\n    /* \"#utility.yul\":1131:1133   */\n  0x60\n    /* \"#utility.yul\":1119:1128   */\n  dup5\n    /* \"#utility.yul\":1110:1117   */\n  dup7\n    /* \"#utility.yul\":1106:1129   */\n  sub\n    /* \"#utility.yul\":1102:1134   */\n  slt\n    /* \"#utility.yul\":1099:1218   */\n  iszero\n  tag_48\n  jumpi\n    /* \"#utility.yul\":1137:1216   */\n  tag_49\n  tag_50\n  jump\t// in\ntag_49:\n    /* \"#utility.yul\":1099:1218   */\ntag_48:\n    /* \"#utility.yul\":1257:1258   */\n  0x00\n    /* \"#utility.yul\":1282:1346   */\n  tag_51\n    /* \"#utility.yul\":1338:1345   */\n  dup7\n    /* \"#utility.yul\":1329:1335   */\n  dup3\n    /* \"#utility.yul\":1318:1327   */\n  dup8\n    /* \"#utility.yul\":1314:1336   */\n  add\n    /* \"#utility.yul\":1282:1346   */\n  tag_43\n  jump\t// in\ntag_51:\n    /* \"#utility.yul\":1272:1346   */\n  swap4\n  pop\n    /* \"#utility.yul\":1228:1356   */\n  pop\n    /* \"#utility.yul\":1416:1418   */\n  0x20\n    /* \"#utility.yul\":1405:1414   */\n  dup5\n    /* \"#utility.yul\":1401:1419   */\n  add\n    /* \"#utility.yul\":1395:1420   */\n  mload\n    /* \"#utility.yul\":1447:1465   */\n  0xffffffffffffffff\n    /* \"#utility.yul\":1439:1445   */\n  dup2\n    /* \"#utility.yul\":1436:1466   */\n  gt\n    /* \"#utility.yul\":1433:1550   */\n  iszero\n  tag_52\n  jumpi\n    /* \"#utility.yul\":1469:1548   */\n  tag_53\n  tag_54\n  jump\t// in\ntag_53:\n    /* \"#utility.yul\":1433:1550   */\ntag_52:\n    /* \"#utility.yul\":1574:1648   */\n  tag_55\n    /* \"#utility.yul\":1640:1647   */\n  dup7\n    /* \"#utility.yul\":1631:1637   */\n  dup3\n    /* \"#utility.yul\":1620:1629   */\n  dup8\n    /* \"#utility.yul\":1616:1638   */\n  add\n    /* \"#utility.yul\":1574:1648   */\n  tag_37\n  jump\t// in\ntag_55:\n    /* \"#utility.yul\":1564:1648   */\n  swap3\n  pop\n    /* \"#utility.yul\":1366:1658   */\n  pop\n    /* \"#utility.yul\":1718:1720   */\n  0x40\n    /* \"#utility.yul\":1707:1716   */\n  dup5\n    /* \"#utility.yul\":1703:1721   */\n  add\n    /* \"#utility.yul\":1697:1722   */\n  mload\n    /* \"#utility.yul\":1749:1767   */\n  0xffffffffffffffff\n    /* \"#utility.yul\":1741:1747   */\n  dup2\n    /* \"#utility.yul\":1738:1768   */\n  gt\n    /* \"#utility.yul\":1735:1852   */\n  iszero\n  tag_56\n  jumpi\n    /* \"#utility.yul\":1771:1850   */\n  tag_57\n  tag_54\n  jump\t// in\ntag_57:\n    /* \"#utility.yul\":1735:1852   */\ntag_56:\n    /* \"#utility.yul\":1876:1950   */\n  tag_58\n    /* \"#utility.yul\":1942:1949   */\n  dup7\n    /* \"#utility.yul\":1933:1939   */\n  dup3\n    /* \"#utility.yul\":1922:1931   */\n  dup8\n    /* \"#utility.yul\":1918:1940   */\n  add\n    /* \"#utility.yul\":1876:1950   */\n  tag_37\n  jump\t// in\ntag_58:\n    /* \"#utility.yul\":1866:1950   */\n  swap2\n  pop\n    /* \"#utility.yul\":1668:1960   */\n  pop\n    /* \"#utility.yul\":958:1967   */\n  swap3\n  pop\n  swap3\n  pop\n  swap3\n  jump\t// out\n    /* \"#utility.yul\":1973:2102   */\ntag_31:\n    /* \"#utility.yul\":2007:2013   */\n  0x00\n    /* \"#utility.yul\":2034:2054   */\n  tag_60\n  tag_61\n  jump\t// in\ntag_60:\n    /* \"#utility.yul\":2024:2054   */\n  swap1\n  pop\n    /* \"#utility.yul\":2063:2096   */\n  tag_62\n    /* \"#utility.yul\":2091:2095   */\n  dup3\n    /* \"#utility.yul\":2083:2089   */\n  dup3\n    /* \"#utility.yul\":2063:2096   */\n  tag_63\n  jump\t// in\ntag_62:\n    /* \"#utility.yul\":1973:2102   */\n  swap2\n  swap1\n  pop\n  jump\t// out\n    /* \"#utility.yul\":2108:2183   */\ntag_61:\n    /* \"#utility.yul\":2141:2147   */\n  0x00\n    /* \"#utility.yul\":2174:2176   */\n  0x40\n    /* \"#utility.yul\":2168:2177   */\n  mload\n    /* \"#utility.yul\":2158:2177   */\n  swap1\n  pop\n    /* \"#utility.yul\":2108:2183   */\n  swap1\n  jump\t// out\n    /* \"#utility.yul\":2189:2497   */\ntag_30:\n    /* \"#utility.yul\":2251:2255   */\n  0x00\n    /* \"#utility.yul\":2341:2359   */\n  0xffffffffffffffff\n    /* \"#utility.yul\":2333:2339   */\n  dup3\n    /* \"#utility.yul\":2330:2360   */\n  gt\n    /* \"#utility.yul\":2327:2383   */\n  iszero\n  tag_66\n  jumpi\n    /* \"#utility.yul\":2363:2381   */\n  tag_67\n  tag_68\n  jump\t// in\ntag_67:\n    /* \"#utility.yul\":2327:2383   */\ntag_66:\n    /* \"#utility.yul\":2401:2430   */\n  tag_69\n    /* \"#utility.yul\":2423:2429   */\n  dup3\n    /* \"#utility.yul\":2401:2430   */\n  tag_70\n  jump\t// in\ntag_69:\n    /* \"#utility.yul\":2393:2430   */\n  swap1\n  pop\n    /* \"#utility.yul\":2485:2489   */\n  0x20\n    /* \"#utility.yul\":2479:2483   */\n  dup2\n    /* \"#utility.yul\":2475:2490   */\n  add\n    /* \"#utility.yul\":2467:2490   */\n  swap1\n  pop\n    /* \"#utility.yul\":2189:2497   */\n  swap2\n  swap1\n  pop\n  jump\t// out\n    /* \"#utility.yul\":2503:3351   */\ntag_71:\n    /* \"#utility.yul\":2564:2569   */\n  0x00\n    /* \"#utility.yul\":2571:2575   */\n  dup1\n    /* \"#utility.yul\":2595:2601   */\n  dup3\n    /* \"#utility.yul\":2586:2601   */\n  swap2\n  pop\n    /* \"#utility.yul\":2619:2624   */\n  dup4\n    /* \"#utility.yul\":2610:2624   */\n  swap1\n  pop\n    /* \"#utility.yul\":2633:3345   */\ntag_73:\n    /* \"#utility.yul\":2654:2655   */\n  0x01\n    /* \"#utility.yul\":2644:2652   */\n  dup6\n    /* \"#utility.yul\":2641:2656   */\n  gt\n    /* \"#utility.yul\":2633:3345   */\n  iszero\n  tag_75\n  jumpi\n    /* \"#utility.yul\":2749:2753   */\n  dup1\n    /* \"#utility.yul\":2744:2747   */\n  dup7\n    /* \"#utility.yul\":2740:2754   */\n  div\n    /* \"#utility.yul\":2734:2738   */\n  dup2\n    /* \"#utility.yul\":2731:2755   */\n  gt\n    /* \"#utility.yul\":2728:2778   */\n  iszero\n  tag_76\n  jumpi\n    /* \"#utility.yul\":2758:2776   */\n  tag_77\n  tag_78\n  jump\t// in\ntag_77:\n    /* \"#utility.yul\":2728:2778   */\ntag_76:\n    /* \"#utility.yul\":2808:2809   */\n  0x01\n    /* \"#utility.yul\":2798:2806   */\n  dup6\n    /* \"#utility.yul\":2794:2810   */\n  and\n    /* \"#utility.yul\":2791:3242   */\n  iszero\n  tag_79\n  jumpi\n    /* \"#utility.yul\":3223:3227   */\n  dup1\n    /* \"#utility.yul\":3216:3221   */\n  dup3\n    /* \"#utility.yul\":3212:3228   */\n  mul\n    /* \"#utility.yul\":3203:3228   */\n  swap2\n  pop\n    /* \"#utility.yul\":2791:3242   */\ntag_79:\n    /* \"#utility.yul\":3273:3277   */\n  dup1\n    /* \"#utility.yul\":3267:3271   */\n  dup2\n    /* \"#utility.yul\":3263:3278   */\n  mul\n    /* \"#utility.yul\":3255:3278   */\n  swap1\n  pop\n    /* \"#utility.yul\":3303:3335   */\n  tag_80\n    /* \"#utility.yul\":3326:3334   */\n  dup6\n    /* \"#utility.yul\":3303:3335   */\n  tag_81\n  jump\t// in\ntag_80:\n    /* \"#utility.yul\":3291:3335   */\n  swap5\n  pop\n    /* \"#utility.yul\":2633:3345   */\n  jump(tag_73)\ntag_75:\n    /* \"#utility.yul\":2503:3351   */\n  swap5\n  pop\n  swap5\n  swap3\n  pop\n  pop\n  pop\n  jump\t// out\n    /* \"#utility.yul\":3357:3642   */\ntag_7:\n    /* \"#utility.yul\":3417:3422   */\n  0x00\n    /* \"#utility.yul\":3441:3464   */\n  tag_83\n    /* \"#utility.yul\":3459:3463   */\n  dup3\n    /* \"#utility.yul\":3441:3464   */\n  tag_84\n  jump\t// in\ntag_83:\n    /* \"#utility.yul\":3433:3464   */\n  swap2\n  pop\n    /* \"#utility.yul\":3485:3512   */\n  tag_85\n    /* \"#utility.yul\":3503:3511   */\n  dup4\n    /* \"#utility.yul\":3485:3512   */\n  tag_84\n  jump\t// in\ntag_85:\n    /* \"#utility.yul\":3473:3512   */\n  swap3\n  pop\n    /* \"#utility.yul\":3531:3635   */\n  tag_86\n    /* \"#utility.yul\":3568:3634   */\n  0xffffffffffffffffffffffffffffffffffffffffffffffffffffffffffffffff\n    /* \"#utility.yul\":3558:3566   */\n  dup5\n    /* \"#utility.yul\":3552:3556   */\n  dup5\n    /* \"#utility.yul\":3531:3635   */\n  tag_87\n  jump\t// in\ntag_86:\n    /* \"#utility.yul\":3522:3635   */\n  swap1\n  pop\n    /* \"#utility.yul\":3357:3642   */\n  swap3\n  swap2\n  pop\n  pop\n  jump\t// out\n    /* \"#utility.yul\":3648:4721   */\ntag_87:\n    /* \"#utility.yul\":3702:3707   */\n  0x00\n    /* \"#utility.yul\":3893:3901   */\n  dup3\n    /* \"#utility.yul\":3883:3923   */\n  tag_89\n  jumpi\n    /* \"#utility.yul\":3914:3915   */\n  0x01\n    /* \"#utility.yul\":3905:3915   */\n  swap1\n  pop\n    /* \"#utility.yul\":3916:3921   */\n  jump(tag_88)\n    /* \"#utility.yul\":3883:3923   */\ntag_89:\n    /* \"#utility.yul\":3942:3946   */\n  dup2\n    /* \"#utility.yul\":3932:3968   */\n  tag_90\n  jumpi\n    /* \"#utility.yul\":3959:3960   */\n  0x00\n    /* \"#utility.yul\":3950:3960   */\n  swap1\n  pop\n    /* \"#utility.yul\":3961:3966   */\n  jump(tag_88)\n    /* \"#utility.yul\":3932:3968   */\ntag_90:\n    /* \"#utility.yul\":4028:4032   */\n  dup2\n    /* \"#utility.yul\":4076:4077   */\n  0x01\n    /* \"#utility.yul\":4071:4098   */\n  dup2\n  eq\n  tag_92\n  jumpi\n    /* \"#utility.yul\":4112:4113   */\n  0x02\n    /* \"#utility.yul\":4107:4298   */\n  dup2\n  eq\n  tag_93\n  jumpi\n    /* \"#utility.yul\":4021:4298   */\n  jump(tag_91)\n    /* \"#utility.yul\":4071:4098   */\ntag_92:\n    /* \"#utility.yul\":4089:4090   */\n  0x01\n    /* \"#utility.yul\":4080:4090   */\n  swap2\n  pop\n    /* \"#utility.yul\":4091:4096   */\n  pop\n  jump(tag_88)\n    /* \"#utility.yul\":4107:4298   */\ntag_93:\n    /* \"#utility.yul\":4152:4155   */\n  0xff\n    /* \"#utility.yul\":4142:4150   */\n  dup5\n    /* \"#utility.yul\":4139:4156   */\n  gt\n    /* \"#utility.yul\":4136:4179   */\n  iszero\n  tag_94\n  jumpi\n    /* \"#utility.yul\":4159:4177   */\n  tag_95\n  tag_78\n  jump\t// in\ntag_95:\n    /* \"#utility.yul\":4136:4179   */\ntag_94:\n    /* \"#utility.yul\":4208:4216   */\n  dup4\n    /* \"#utility.yul\":4205:4206   */\n  0x02\n    /* \"#utility.yul\":4201:4217   */\n  exp\n    /* \"#utility.yul\":4192:4217   */\n  swap2\n  pop\n    /* \"#utility.yul\":4243:4246   */\n  dup5\n    /* \"#utility.yul\":4236:4241   */\n  dup3\n    /* \"#utility.yul\":4233:4247   */\n  gt\n    /* \"#utility.yul\":4230:4270   */\n  iszero\n  tag_96\n  jumpi\n    /* \"#utility.yul\":4250:4268   */\n  tag_97\n  tag_78\n  jump\t// in\ntag_97:\n    /* \"#utility.yul\":4230:4270   */\ntag_96:\n    /* \"#utility.yul\":4283:4288   */\n  pop\n  jump(tag_88)\n    /* \"#utility.yul\":4021:4298   */\ntag_91:\n  pop\n    /* \"#utility.yul\":4407:4409   */\n  0x20\n    /* \"#utility.yul\":4397:4405   */\n  dup4\n    /* \"#utility.yul\":4394:4410   */\n  lt\n    /* \"#utility.yul\":4388:4391   */\n  0x0133\n    /* \"#utility.yul\":4382:4386   */\n  dup4\n    /* \"#utility.yul\":4379:4392   */\n  lt\n    /* \"#utility.yul\":4375:4411   */\n  and\n    /* \"#utility.yul\":4357:4359   */\n  0x4e\n    /* \"#utility.yul\":4347:4355   */\n  dup5\n    /* \"#utility.yul\":4344:4360   */\n  lt\n    /* \"#utility.yul\":4339:4341   */\n  0x0b\n    /* \"#utility.yul\":4333:4337   */\n  dup5\n    /* \"#utility.yul\":4330:4342   */\n  lt\n    /* \"#utility.yul\":4326:4361   */\n  and\n    /* \"#utility.yul\":4310:4421   */\n  or\n    /* \"#utility.yul\":4307:4553   */\n  iszero\n  tag_98\n  jumpi\n    /* \"#utility.yul\":4463:4471   */\n  dup3\n    /* \"#utility.yul\":4457:4461   */\n  dup3\n    /* \"#utility.yul\":4453:4472   */\n  exp\n    /* \"#utility.yul\":4444:4472   */\n  swap1\n  pop\n    /* \"#utility.yul\":4498:4501   */\n  dup4\n    /* \"#utility.yul\":4491:4496   */\n  dup2\n    /* \"#utility.yul\":4488:4502   */\n  gt\n    /* \"#utility.yul\":4485:4525   */\n  iszero\n  tag_99\n  jumpi\n    /* \"#utility.yul\":4505:4523   */\n  tag_100\n  tag_78\n  jump\t// in\ntag_100:\n    /* \"#utility.yul\":4485:4525   */\ntag_99:\n    /* \"#utility.yul\":4538:4543   */\n  jump(tag_88)\n    /* \"#utility.yul\":4307:4553   */\ntag_98:\n    /* \"#utility.yul\":4578:4620   */\n  tag_101\n    /* \"#utility.yul\":4616:4619   */\n  dup5\n    /* \"#utility.yul\":4606:4614   */\n  dup5\n    /* \"#utility.yul\":4600:4604   */\n  dup5\n    /* \"#utility.yul\":4597:4598   */\n  0x01\n    /* \"#utility.yul\":4578:4620   */\n  tag_71\n  jump\t// in\ntag_101:\n    /* \"#utility.yul\":4563:4620   */\n  swap3\n  pop\n  swap1\n  pop\n    /* \"#utility.yul\":4652:4656   */\n  dup2\n    /* \"#utility.yul\":4647:4650   */\n  dup5\n    /* \"#utility.yul\":4643:4657   */\n  div\n    /* \"#utility.yul\":4636:4641   */\n  dup2\n    /* \"#utility.yul\":4633:4658   */\n  gt\n    /* \"#utility.yul\":4630:4681   */\n  iszero\n  tag_102\n  jumpi\n    /* \"#utility.yul\":4661:4679   */\n  tag_103\n  tag_78\n  jump\t// in\ntag_103:\n    /* \"#utility.yul\":4630:4681   */\ntag_102:\n    /* \"#utility.yul\":4710:4714   */\n  dup2\n    /* \"#utility.yul\":4703:4708   */\n  dup2\n    /* \"#utility.yul\":4699:4715   */\n  mul\n    /* \"#utility.yul\":4690:4715   */\n  swap1\n  pop\n    /* \"#utility.yul\":3648:4721   */\ntag_88:\n  swap4\n  swap3\n  pop\n  pop\n  pop\n  jump\t// out\n    /* \"#utility.yul\":4727:5075   */\ntag_9:\n    /* \"#utility.yul\":4767:4774   */\n  0x00\n    /* \"#utility.yul\":4790:4810   */\n  tag_105\n    /* \"#utility.yul\":4808:4809   */\n  dup3\n    /* \"#utility.yul\":4790:4810   */\n  tag_84\n  jump\t// in\ntag_105:\n    /* \"#utility.yul\":4785:4810   */\n  swap2\n  pop\n    /* \"#utility.yul\":4824:4844   */\n  tag_106\n    /* \"#utility.yul\":4842:4843   */\n  dup4\n    /* \"#utility.yul\":4824:4844   */\n  tag_84\n  jump\t// in\ntag_106:\n    /* \"#utility.yul\":4819:4844   */\n  swap3\n  pop\n    /* \"#utility.yul\":5012:5013   */\n  dup2\n    /* \"#utility.yul\":4944:5010   */\n  0xffffffffffffffffffffffffffffffffffffffffffffffffffffffffffffffff\n    /* \"#utility.yul\":4940:5014   */\n  div\n    /* \"#utility.yul\":4937:4938   */\n  dup4\n    /* \"#utility.yul\":4934:5015   */\n  gt\n    /* \"#utility.yul\":4929:4930   */\n  dup3\n    /* \"#utility.yul\":4922:4931   */\n  iszero\n    /* \"#utility.yul\":4915:4932   */\n  iszero\n    /* \"#utility.yul\":4911:5016   */\n  and\n    /* \"#utility.yul\":4908:5039   */\n  iszero\n  tag_107\n  jumpi\n    /* \"#utility.yul\":5019:5037   */\n  tag_108\n  tag_78\n  jump\t// in\ntag_108:\n    /* \"#utility.yul\":4908:5039   */\ntag_107:\n    /* \"#utility.yul\":5067:5068   */\n  dup3\n    /* \"#utility.yul\":5064:5065   */\n  dup3\n    /* \"#utility.yul\":5060:5069   */\n  mul\n    /* \"#utility.yul\":5049:5069   */\n  swap1\n  pop\n    /* \"#utility.yul\":4727:5075   */\n  swap3\n  swap2\n  pop\n  pop\n  jump\t// out\n    /* \"#utility.yul\":5081:5158   */\ntag_84:\n    /* \"#utility.yul\":5118:5125   */\n  0x00\n    /* \"#utility.yul\":5147:5152   */\n  dup2\n    /* \"#utility.yul\":5136:5152   */\n  swap1\n  pop\n    /* \"#utility.yul\":5081:5158   */\n  swap2\n  swap1\n  pop\n  jump\t// out\n    /* \"#utility.yul\":5164:5471   */\ntag_36:\n    /* \"#utility.yul\":5232:5233   */\n  0x00\n    /* \"#utility.yul\":5242:5355   */\ntag_111:\n    /* \"#utility.yul\":5256:5262   */\n  dup4\n    /* \"#utility.yul\":5253:5254   */\n  dup2\n    /* \"#utility.yul\":5250:5263   */\n  lt\n    /* \"#utility.yul\":5242:5355   */\n  iszero\n  tag_113\n  jumpi\n    /* \"#utility.yul\":5341:5342   */\n  dup1\n    /* \"#utility.yul\":5336:5339   */\n  dup3\n    /* \"#utility.yul\":5332:5343   */\n  add\n    /* \"#utility.yul\":5326:5344   */\n  mload\n    /* \"#utility.yul\":5322:5323   */\n  dup2\n    /* \"#utility.yul\":5317:5320   */\n  dup5\n    /* \"#utility.yul\":5313:5324   */\n  add\n    /* \"#utility.yul\":5306:5345   */\n  mstore\n    /* \"#utility.yul\":5278:5280   */\n  0x20\n    /* \"#utility.yul\":5275:5276   */\n  dup2\n    /* \"#utility.yul\":5271:5281   */\n  add\n    /* \"#utility.yul\":5266:5281   */\n  swap1\n  pop\n    /* \"#utility.yul\":5242:5355   */\n  jump(tag_111)\ntag_113:\n    /* \"#utility.yul\":5373:5379   */\n  dup4\n    /* \"#utility.yul\":5370:5371   */\n  dup2\n    /* \"#utility.yul\":5367:5380   */\n  gt\n    /* \"#utility.yul\":5364:5465   */\n  iszero\n  tag_114\n  jumpi\n    /* \"#utility.yul\":5453:5454   */\n  0x00\n    /* \"#utility.yul\":5444:5450   */\n  dup5\n    /* \"#utility.yul\":5439:5442   */\n  dup5\n    /* \"#utility.yul\":5435:5451   */\n  add\n    /* \"#utility.yul\":5428:5455   */\n  mstore\n    /* \"#utility.yul\":5364:5465   */\ntag_114:\n    /* \"#utility.yul\":5213:5471   */\n  pop\n    /* \"#utility.yul\":5164:5471   */\n  pop\n  pop\n  pop\n  jump\t// out\n    /* \"#utility.yul\":5477:5797   */\ntag_15:\n    /* \"#utility.yul\":5521:5527   */\n  0x00\n    /* \"#utility.yul\":5558:5559   */\n  0x02\n    /* \"#utility.yul\":5552:5556   */\n  dup3\n    /* \"#utility.yul\":5548:5560   */\n  div\n    /* \"#utility.yul\":5538:5560   */\n  swap1\n  pop\n    /* \"#utility.yul\":5605:5606   */\n  0x01\n    /* \"#utility.yul\":5599:5603   */\n  dup3\n    /* \"#utility.yul\":5595:5607   */\n  and\n    /* \"#utility.yul\":5626:5644   */\n  dup1\n    /* \"#utility.yul\":5616:5697   */\n  tag_116\n  jumpi\n    /* \"#utility.yul\":5682:5686   */\n  0x7f\n    /* \"#utility.yul\":5674:5680   */\n  dup3\n    /* \"#utility.yul\":5670:5687   */\n  and\n    /* \"#utility.yul\":5660:5687   */\n  swap2\n  pop\n    /* \"#utility.yul\":5616:5697   */\ntag_116:\n    /* \"#utility.yul\":5744:5746   */\n  0x20\n    /* \"#utility.yul\":5736:5742   */\n  dup3\n    /* \"#utility.yul\":5733:5747   */\n  lt\n    /* \"#utility.yul\":5713:5731   */\n  dup2\n    /* \"#utility.yul\":5710:5748   */\n  eq\n    /* \"#utility.yul\":5707:5791   */\n  iszero\n  tag_117\n  jumpi\n    /* \"#utility.yul\":5763:5781   */\n  tag_118\n  tag_119\n  jump\t// in\ntag_118:\n    /* \"#utility.yul\":5707:5791   */\ntag_117:\n    /* \"#utility.yul\":5528:5797   */\n  pop\n    /* \"#utility.yul\":5477:5797   */\n  swap2\n  swap1\n  pop\n  jump\t// out\n    /* \"#utility.yul\":5803:6084   */\ntag_63:\n    /* \"#utility.yul\":5886:5913   */\n  tag_121\n    /* \"#utility.yul\":5908:5912   */\n  dup3\n    /* \"#utility.yul\":5886:5913   */\n  tag_70\n  jump\t// in\ntag_121:\n    /* \"#utility.yul\":5878:5884   */\n  dup2\n    /* \"#utility.yul\":5874:5914   */\n  add\n    /* \"#utility.yul\":6016:6022   */\n  dup2\n    /* \"#utility.yul\":6004:6014   */\n  dup2\n    /* \"#utility.yul\":6001:6023   */\n  lt\n    /* \"#utility.yul\":5980:5998   */\n  0xffffffffffffffff\n    /* \"#utility.yul\":5968:5978   */\n  dup3\n    /* \"#utility.yul\":5965:5999   */\n  gt\n    /* \"#utility.yul\":5962:6024   */\n  or\n    /* \"#utility.yul\":5959:6047   */\n  iszero\n  tag_122\n  jumpi\n    /* \"#utility.yul\":6027:6045   */\n  tag_123\n  tag_68\n  jump\t// in\ntag_123:\n    /* \"#utility.yul\":5959:6047   */\ntag_122:\n    /* \"#utility.yul\":6067:6077   */\n  dup1\n    /* \"#utility.yul\":6063:6065   */\n  0x40\n    /* \"#utility.yul\":6056:6078   */\n  mstore\n    /* \"#utility.yul\":5846:6084   */\n  pop\n    /* \"#utility.yul\":5803:6084   */\n  pop\n  pop\n  jump\t// out\n    /* \"#utility.yul\":6090:6270   */\ntag_78:\n    /* \"#utility.yul\":6138:6215   */\n  0x4e487b7100000000000000000000000000000000000000000000000000000000\n    /* \"#utility.yul\":6135:6136   */\n  0x00\n    /* \"#utility.yul\":6128:6216   */\n  mstore\n    /* \"#utility.yul\":6235:6239   */\n  0x11\n    /* \"#utility.yul\":6232:6233   */\n  0x04\n    /* \"#utility.yul\":6225:6240   */\n  mstore\n    /* \"#utility.yul\":6259:6263   */\n  0x24\n    /* \"#utility.yul\":6256:6257   */\n  0x00\n    /* \"#utility.yul\":6249:6264   */\n  revert\n    /* \"#utility.yul\":6276:6456   */\ntag_119:\n    /* \"#utility.yul\":6324:6401   */\n  0x4e487b7100000000000000000000000000000000000000000000000000000000\n    /* \"#utility.yul\":6321:6322   */\n  0x00\n    /* \"#utility.yul\":6314:6402   */\n  mstore\n    /* \"#utility.yul\":6421:6425   */\n  0x22\n    /* \"#utility.yul\":6418:6419   */\n  0x04\n    /* \"#utility.yul\":6411:6426   */\n  mstore\n    /* \"#utility.yul\":6445:6449   */\n  0x24\n    /* \"#utility.yul\":6442:6443   */\n  0x00\n    /* \"#utility.yul\":6435:6450   */\n  revert\n    /* \"#utility.yul\":6462:6642   */\ntag_68:\n    /* \"#utility.yul\":6510:6587   */\n  0x4e487b7100000000000000000000000000000000000000000000000000000000\n    /* \"#utility.yul\":6507:6508   */\n  0x00\n    /* \"#utility.yul\":6500:6588   */\n  mstore\n    /* \"#utility.yul\":6607:6611   */\n  0x41\n    /* \"#utility.yul\":6604:6605   */\n  0x04\n    /* \"#utility.yul\":6597:6612   */\n  mstore\n    /* \"#utility.yul\":6631:6635   */\n  0x24\n    /* \"#utility.yul\":6628:6629   */\n  0x00\n    /* \"#utility.yul\":6621:6636   */\n  revert\n    /* \"#utility.yul\":6648:6765   */\ntag_41:\n    /* \"#utility.yul\":6757:6758   */\n  0x00\n    /* \"#utility.yul\":6754:6755   */\n  dup1\n    /* \"#utility.yul\":6747:6759   */\n  revert\n    /* \"#utility.yul\":6771:6888   */\ntag_34:\n    /* \"#utility.yul\":6880:6881   */\n  0x00\n    /* \"#utility.yul\":6877:6878   */\n  dup1\n    /* \"#utility.yul\":6870:6882   */\n  revert\n    /* \"#utility.yul\":6894:7011   */\ntag_54:\n    /* \"#utility.yul\":7003:7004   */\n  0x00\n    /* \"#utility.yul\":7000:7001   */\n  dup1\n    /* \"#utility.yul\":6993:7005   */\n  revert\n    /* \"#utility.yul\":7017:7134   */\ntag_50:\n    /* \"#utility.yul\":7126:7127   */\n  0x00\n    /* \"#utility.yul\":7123:7124   */\n  dup1\n    /* \"#utility.yul\":7116:7128   */\n  revert\n    /* \"#utility.yul\":7140:7242   */\ntag_70:\n    /* \"#utility.yul\":7181:7187   */\n  0x00\n    /* \"#utility.yul\":7232:7234   */\n  0x1f\n    /* \"#utility.yul\":7228:7235   */\n  not\n    /* \"#utility.yul\":7223:7225   */\n  0x1f\n    /* \"#utility.yul\":7216:7221   */\n  dup4\n    /* \"#utility.yul\":7212:7226   */\n  add\n    /* \"#utility.yul\":7208:7236   */\n  and\n    /* \"#utility.yul\":7198:7236   */\n  swap1\n  pop\n    /* \"#utility.yul\":7140:7242   */\n  swap2\n  swap1\n  pop\n  jump\t// out\n    /* \"#utility.yul\":7248:7350   */\ntag_81:\n    /* \"#utility.yul\":7290:7298   */\n  0x00\n    /* \"#utility.yul\":7337:7342   */\n  dup2\n    /* \"#utility.yul\":7334:7335   */\n  0x01\n    /* \"#utility.yul\":7330:7343   */\n  shr\n    /* \"#utility.yul\":7309:7343   */\n  swap1\n  pop\n    /* \"#utility.yul\":7248:7350   */\n  swap2\n  swap1\n  pop\n  jump\t// out\n    /* \"#utility.yul\":7356:7478   */\ntag_46:\n    /* \"#utility.yul\":7429:7453   */\n  tag_134\n    /* \"#utility.yul\":7447:7452   */\n  dup2\n    /* \"#utility.yul\":7429:7453   */\n  tag_84\n  jump\t// in\ntag_134:\n    /* \"#utility.yul\":7422:7427   */\n  dup2\n    /* \"#utility.yul\":7419:7454   */\n  eq\n    /* \"#utility.yul\":7409:7472   */\n  tag_135\n  jumpi\n    /* \"#utility.yul\":7468:7469   */\n  0x00\n    /* \"#utility.yul\":7465:7466   */\n  dup1\n    /* \"#utility.yul\":7458:7470   */\n  revert\n    /* \"#utility.yul\":7409:7472   */\ntag_135:\n    /* \"#utility.yul\":7356:7478   */\n  pop\n  jump\t// out\n    /* \"contracts/common/Erc20.sol\":214:6178  contract TokenERC20 {... */\ntag_13:\n  dataSize(sub_0)\n  dup1\n  dataOffset(sub_0)\n  0x00\n  codecopy\n  0x00\n  return\nstop\n\nsub_0: assembly {\n        /* \"contracts/common/Erc20.sol\":214:6178  contract TokenERC20 {... */\n      mstore(0x40, 0x80)\n      callvalue\n      dup1\n      iszero\n      tag_1\n      jumpi\n      0x00\n      dup1\n      revert\n    tag_1:\n      pop\n      jumpi(tag_2, lt(calldatasize, 0x04))\n      shr(0xe0, calldataload(0x00))\n      dup1\n      0x70a08231\n      gt\n      tag_15\n      jumpi\n      dup1\n      0x70a08231\n      eq\n      tag_9\n      jumpi\n      dup1\n      0x79cc6790\n      eq\n      tag_10\n      jumpi\n      dup1\n      0x95d89b41\n      eq\n      tag_11\n      jumpi\n      dup1\n      0xa9059cbb\n      eq\n      tag_12\n      jumpi\n      dup1\n      0xcae9ca51\n      eq\n      tag_13\n      jumpi\n      dup1\n      0xdd62ed3e\n      eq\n      tag_14\n      jumpi\n      jump(tag_2)\n    tag_15:\n      dup1\n      0x06fdde03\n      eq\n      tag_3\n      jumpi\n      dup1\n      0x095ea7b3\n      eq\n      tag_4\n      jumpi\n      dup1\n      0x18160ddd\n      eq\n      tag_5\n      jumpi\n      dup1\n      0x23b872dd\n      eq\n      tag_6\n      jumpi\n      dup1\n      0x313ce567\n      eq\n      tag_7\n      jumpi\n      dup1\n      0x42966c68\n      eq\n      tag_8\n      jumpi\n    tag_2:\n      0x00\n      dup1\n      revert\n        /* \"contracts/common/Erc20.sol\":277:295  string public name */\n    tag_3:\n      tag_16\n      tag_17\n      jump\t// in\n    tag_16:\n      mload(0x40)\n      tag_18\n      swap2\n      swap1\n      tag_19\n      jump\t// in\n    tag_18:\n      mload(0x40)\n      dup1\n      swap2\n      sub\n      swap1\n      return\n        /* \"contracts/common/Erc20.sol\":3835:4051  function approve(address _spender, uint256 _value) public... */\n    tag_4:\n      tag_20\n      0x04\n      dup1\n      calldatasize\n      sub\n      dup2\n      add\n      swap1\n      tag_21\n      swap2\n      swap1\n      tag_22\n      jump\t// in\n    tag_21:\n      tag_23\n      jump\t// in\n    tag_20:\n      mload(0x40)\n      tag_24\n      swap2\n      swap1\n      tag_25\n      jump\t// in\n    tag_24:\n      mload(0x40)\n      dup1\n      swap2\n      sub\n      swap1\n      return\n        /* \"contracts/common/Erc20.sol\":431:457  uint256 public totalSupply */\n    tag_5:\n      tag_26\n      tag_27\n      jump\t// in\n    tag_26:\n      mload(0x40)\n      tag_28\n      swap2\n      swap1\n      tag_29\n      jump\t// in\n    tag_28:\n      mload(0x40)\n      dup1\n      swap2\n      sub\n      swap1\n      return\n        /* \"contracts/common/Erc20.sol\":3285:3576  function transferFrom(address _from, address _to, uint256 _value) public returns (bool success) {... */\n    tag_6:\n      tag_30\n      0x04\n      dup1\n      calldatasize\n      sub\n      dup2\n      add\n      swap1\n      tag_31\n      swap2\n      swap1\n      tag_32\n      jump\t// in\n    tag_31:\n      tag_33\n      jump\t// in\n    tag_30:\n      mload(0x40)\n      tag_34\n      swap2\n      swap1\n      tag_25\n      jump\t// in\n    tag_34:\n      mload(0x40)\n      dup1\n      swap2\n      sub\n      swap1\n      return\n        /* \"contracts/common/Erc20.sol\":327:353  uint8 public decimals = 18 */\n    tag_7:\n      tag_35\n      tag_36\n      jump\t// in\n    tag_35:\n      mload(0x40)\n      tag_37\n      swap2\n      swap1\n      tag_38\n      jump\t// in\n    tag_37:\n      mload(0x40)\n      dup1\n      swap2\n      sub\n      swap1\n      return\n        /* \"contracts/common/Erc20.sol\":4952:5320  function burn(uint256 _value) public returns (bool success) {... */\n    tag_8:\n      tag_39\n      0x04\n      dup1\n      calldatasize\n      sub\n      dup2\n      add\n      swap1\n      tag_40\n      swap2\n      swap1\n      tag_41\n      jump\t// in\n    tag_40:\n      tag_42\n      jump\t// in\n    tag_39:\n      mload(0x40)\n      tag_43\n      swap2\n      swap1\n      tag_25\n      jump\t// in\n    tag_43:\n      mload(0x40)\n      dup1\n      swap2\n      sub\n      swap1\n      return\n        /* \"contracts/common/Erc20.sol\":511:556  mapping (address => uint256) public balanceOf */\n    tag_9:\n      tag_44\n      0x04\n      dup1\n      calldatasize\n      sub\n      dup2\n      add\n      swap1\n      tag_45\n      swap2\n      swap1\n      tag_46\n      jump\t// in\n    tag_45:\n      tag_47\n      jump\t// in\n    tag_44:\n      mload(0x40)\n      tag_48\n      swap2\n      swap1\n      tag_29\n      jump\t// in\n    tag_48:\n      mload(0x40)\n      dup1\n      swap2\n      sub\n      swap1\n      return\n        /* \"contracts/common/Erc20.sol\":5573:6176  function burnFrom(address _from, uint256 _value) public returns (bool success) {... */\n    tag_10:\n      tag_49\n      0x04\n      dup1\n      calldatasize\n      sub\n      dup2\n      add\n      swap1\n      tag_50\n      swap2\n      swap1\n      tag_22\n      jump\t// in\n    tag_50:\n      tag_51\n      jump\t// in\n    tag_49:\n      mload(0x40)\n      tag_52\n      swap2\n      swap1\n      tag_25\n      jump\t// in\n    tag_52:\n      mload(0x40)\n      dup1\n      swap2\n      sub\n      swap1\n      return\n        /* \"contracts/common/Erc20.sol\":301:321  string public symbol */\n    tag_11:\n      tag_53\n      tag_54\n      jump\t// in\n    tag_53:\n      mload(0x40)\n      tag_55\n      swap2\n      swap1\n      tag_19\n      jump\t// in\n    tag_55:\n      mload(0x40)\n      dup1\n      swap2\n      sub\n      swap1\n      return\n        /* \"contracts/common/Erc20.sol\":2867:3016  function transfer(address _to, uint256 _value) public returns (bool success) {... */\n    tag_12:\n      tag_56\n      0x04\n      dup1\n      calldatasize\n      sub\n      dup2\n      add\n      swap1\n      tag_57\n      swap2\n      swap1\n      tag_22\n      jump\t// in\n    tag_57:\n      tag_58\n      jump\t// in\n    tag_56:\n      mload(0x40)\n      tag_59\n      swap2\n      swap1\n      tag_25\n      jump\t// in\n    tag_59:\n      mload(0x40)\n      dup1\n      swap2\n      sub\n      swap1\n      return\n        /* \"contracts/common/Erc20.sol\":4439:4786  function approveAndCall(address _spender, uint256 _value, bytes memory _extraData)... */\n    tag_13:\n      tag_60\n      0x04\n      dup1\n      calldatasize\n      sub\n      dup2\n      add\n      swap1\n      tag_61\n      swap2\n      swap1\n      tag_62\n      jump\t// in\n    tag_61:\n      tag_63\n      jump\t// in\n    tag_60:\n      mload(0x40)\n      tag_64\n      swap2\n      swap1\n      tag_25\n      jump\t// in\n    tag_64:\n      mload(0x40)\n      dup1\n      swap2\n      sub\n      swap1\n      return\n        /* \"contracts/common/Erc20.sol\":562:628  mapping (address => mapping (address => uint256)) public allowance */\n    tag_14:\n      tag_65\n      0x04\n      dup1\n      calldatasize\n      sub\n      dup2\n      add\n      swap1\n      tag_66\n      swap2\n      swap1\n      tag_67\n      jump\t// in\n    tag_66:\n      tag_68\n      jump\t// in\n    tag_65:\n      mload(0x40)\n      tag_69\n      swap2\n      swap1\n      tag_29\n      jump\t// in\n    tag_69:\n      mload(0x40)\n      dup1\n      swap2\n      sub\n      swap1\n      return\n        /* \"contracts/common/Erc20.sol\":277:295  string public name */\n    tag_17:\n      0x00\n      dup1\n      sload\n      tag_70\n      swap1\n      tag_71\n      jump\t// in\n    tag_70:\n      dup1\n      0x1f\n      add\n      0x20\n      dup1\n      swap2\n      div\n      mul\n      0x20\n      add\n      mload(0x40)\n      swap1\n      dup2\n      add\n      0x40\n      mstore\n      dup1\n      swap3\n      swap2\n      swap1\n      dup2\n      dup2\n      mstore\n      0x20\n      add\n      dup3\n      dup1\n      sload\n      tag_72\n      swap1\n      tag_71\n      jump\t// in\n    tag_72:\n      dup1\n      iszero\n      tag_73\n      jumpi\n      dup1\n      0x1f\n      lt\n      tag_74\n      jumpi\n      0x0100\n      dup1\n      dup4\n      sload\n      div\n      mul\n      dup4\n      mstore\n      swap2\n      0x20\n      add\n      swap2\n      jump(tag_73)\n    tag_74:\n      dup3\n      add\n      swap2\n      swap1\n      0x00\n      mstore\n      keccak256(0x00, 0x20)\n      swap1\n    tag_75:\n      dup2\n      sload\n      dup2\n      mstore\n      swap1\n      0x01\n      add\n      swap1\n      0x20\n      add\n      dup1\n      dup4\n      gt\n      tag_75\n      jumpi\n      dup3\n      swap1\n      sub\n      0x1f\n      and\n      dup3\n      add\n      swap2\n    tag_73:\n      pop\n      pop\n      pop\n      pop\n      pop\n      dup2\n      jump\t// out\n        /* \"contracts/common/Erc20.sol\":3835:4051  function approve(address _spender, uint256 _value) public... */\n    tag_23:\n        /* \"contracts/common/Erc20.sol\":3906:3918  bool success */\n      0x00\n        /* \"contracts/common/Erc20.sol\":3964:3970  _value */\n      dup2\n        /* \"contracts/common/Erc20.sol\":3930:3939  allowance */\n      0x05\n        /* \"contracts/common/Erc20.sol\":3930:3951  allowance[msg.sender] */\n      0x00\n        /* \"contracts/common/Erc20.sol\":3940:3950  msg.sender */\n      caller\n        /* \"contracts/common/Erc20.sol\":3930:3951  allowance[msg.sender] */\n      0xffffffffffffffffffffffffffffffffffffffff\n      and\n      0xffffffffffffffffffffffffffffffffffffffff\n      and\n      dup2\n      mstore\n      0x20\n      add\n      swap1\n      dup2\n      mstore\n      0x20\n      add\n      0x00\n      keccak256\n        /* \"contracts/common/Erc20.sol\":3930:3961  allowance[msg.sender][_spender] */\n      0x00\n        /* \"contracts/common/Erc20.sol\":3952:3960  _spender */\n      dup6\n        /* \"contracts/common/Erc20.sol\":3930:3961  allowance[msg.sender][_spender] */\n      0xffffffffffffffffffffffffffffffffffffffff\n      and\n      0xffffffffffffffffffffffffffffffffffffffff\n      and\n      dup2\n      mstore\n      0x20\n      add\n      swap1\n      dup2\n      mstore\n      0x20\n      add\n      0x00\n      keccak256\n        /* \"contracts/common/Erc20.sol\":3930:3970  allowance[msg.sender][_spender] = _value */\n      dup2\n      swap1\n      sstore\n      pop\n        /* \"contracts/common/Erc20.sol\":4006:4014  _spender */\n      dup3\n        /* \"contracts/common/Erc20.sol\":3985:4023  Approval(msg.sender, _spender, _value) */\n      0xffffffffffffffffffffffffffffffffffffffff\n      and\n        /* \"contracts/common/Erc20.sol\":3994:4004  msg.sender */\n      caller\n        /* \"contracts/common/Erc20.sol\":3985:4023  Approval(msg.sender, _spender, _value) */\n      0xffffffffffffffffffffffffffffffffffffffff\n      and\n      0x8c5be1e5ebec7d5bd14f71427d1e84f3dd0314c0f7b2291e5b200ac8c7c3b925\n        /* \"contracts/common/Erc20.sol\":4016:4022  _value */\n      dup5\n        /* \"contracts/common/Erc20.sol\":3985:4023  Approval(msg.sender, _spender, _value) */\n      mload(0x40)\n      tag_77\n      swap2\n      swap1\n      tag_29\n      jump\t// in\n    tag_77:\n      mload(0x40)\n      dup1\n      swap2\n      sub\n      swap1\n      log3\n        /* \"contracts/common/Erc20.sol\":4040:4044  true */\n      0x01\n        /* \"contracts/common/Erc20.sol\":4033:4044  return true */\n      swap1\n      pop\n        /* \"contracts/common/Erc20.sol\":3835:4051  function approve(address _spender, uint256 _value) public... */\n      swap3\n      swap2\n      pop\n      pop\n      jump\t// out\n        /* \"contracts/common/Erc20.sol\":431:457  uint256 public totalSupply */\n    tag_27:\n      sload(0x03)\n      dup2\n      jump\t// out\n        /* \"contracts/common/Erc20.sol\":3285:3576  function transferFrom(address _from, address _to, uint256 _value) public returns (bool success) {... */\n    tag_33:\n        /* \"contracts/common/Erc20.sol\":3367:3379  bool success */\n      0x00\n        /* \"contracts/common/Erc20.sol\":3409:3418  allowance */\n      0x05\n        /* \"contracts/common/Erc20.sol\":3409:3425  allowance[_from] */\n      0x00\n        /* \"contracts/common/Erc20.sol\":3419:3424  _from */\n      dup6\n        /* \"contracts/common/Erc20.sol\":3409:3425  allowance[_from] */\n      0xffffffffffffffffffffffffffffffffffffffff\n      and\n      0xffffffffffffffffffffffffffffffffffffffff\n      and\n      dup2\n      mstore\n      0x20\n      add\n      swap1\n      dup2\n      mstore\n      0x20\n      add\n      0x00\n      keccak256\n        /* \"contracts/common/Erc20.sol\":3409:3437  allowance[_from][msg.sender] */\n      0x00\n        /* \"contracts/common/Erc20.sol\":3426:3436  msg.sender */\n      caller\n        /* \"contracts/common/Erc20.sol\":3409:3437  allowance[_from][msg.sender] */\n      0xffffffffffffffffffffffffffffffffffffffff\n      and\n      0xffffffffffffffffffffffffffffffffffffffff\n      and\n      dup2\n      mstore\n      0x20\n      add\n      swap1\n      dup2\n      mstore\n      0x20\n      add\n      0x00\n      keccak256\n      sload\n        /* \"contracts/common/Erc20.sol\":3399:3405  _value */\n      dup3\n        /* \"contracts/common/Erc20.sol\":3399:3437  _value <= allowance[_from][msg.sender] */\n      gt\n      iszero\n        /* \"contracts/common/Erc20.sol\":3391:3438  require(_value <= allowance[_from][msg.sender]) */\n      tag_79\n      jumpi\n      0x00\n      dup1\n      revert\n    tag_79:\n        /* \"contracts/common/Erc20.sol\":3503:3509  _value */\n      dup2\n        /* \"contracts/common/Erc20.sol\":3471:3480  allowance */\n      0x05\n        /* \"contracts/common/Erc20.sol\":3471:3487  allowance[_from] */\n      0x00\n        /* \"contracts/common/Erc20.sol\":3481:3486  _from */\n      dup7\n        /* \"contracts/common/Erc20.sol\":3471:3487  allowance[_from] */\n      0xffffffffffffffffffffffffffffffffffffffff\n      and\n      0xffffffffffffffffffffffffffffffffffffffff\n      and\n      dup2\n      mstore\n      0x20\n      add\n      swap1\n      dup2\n      mstore\n      0x20\n      add\n      0x00\n      keccak256\n        /* \"contracts/common/Erc20.sol\":3471:3499  allowance[_from][msg.sender] */\n      0x00\n        /* \"contracts/common/Erc20.sol\":3488:3498  msg.sender */\n      caller\n        /* \"contracts/common/Erc20.sol\":3471:3499  allowance[_from][msg.sender] */\n      0xffffffffffffffffffffffffffffffffffffffff\n      and\n      0xffffffffffffffffffffffffffffffffffffffff\n      and\n      dup2\n      mstore\n      0x20\n      add\n      swap1\n      dup2\n      mstore\n      0x20\n      add\n      0x00\n      keccak256\n      0x00\n        /* \"contracts/common/Erc20.sol\":3471:3509  allowance[_from][msg.sender] -= _value */\n      dup3\n      dup3\n      sload\n      tag_80\n      swap2\n      swap1\n      tag_81\n      jump\t// in\n    tag_80:\n      swap3\n      pop\n      pop\n      dup2\n      swap1\n      sstore\n      pop\n        /* \"contracts/common/Erc20.sol\":3519:3548  _transfer(_from, _to, _value) */\n      tag_82\n        /* \"contracts/common/Erc20.sol\":3529:3534  _from */\n      dup5\n        /* \"contracts/common/Erc20.sol\":3536:3539  _to */\n      dup5\n        /* \"contracts/common/Erc20.sol\":3541:3547  _value */\n      dup5\n        /* \"contracts/common/Erc20.sol\":3519:3528  _transfer */\n      tag_83\n        /* \"contracts/common/Erc20.sol\":3519:3548  _transfer(_from, _to, _value) */\n      jump\t// in\n    tag_82:\n        /* \"contracts/common/Erc20.sol\":3565:3569  true */\n      0x01\n        /* \"contracts/common/Erc20.sol\":3558:3569  return true */\n      swap1\n      pop\n        /* \"contracts/common/Erc20.sol\":3285:3576  function transferFrom(address _from, address _to, uint256 _value) public returns (bool success) {... */\n      swap4\n      swap3\n      pop\n      pop\n      pop\n      jump\t// out\n        /* \"contracts/common/Erc20.sol\":327:353  uint8 public decimals = 18 */\n    tag_36:\n      0x02\n      0x00\n      swap1\n      sload\n      swap1\n      0x0100\n      exp\n      swap1\n      div\n      0xff\n      and\n      dup2\n      jump\t// out\n        /* \"contracts/common/Erc20.sol\":4952:5320  function burn(uint256 _value) public returns (bool success) {... */\n    tag_42:\n        /* \"contracts/common/Erc20.sol\":4998:5010  bool success */\n      0x00\n        /* \"contracts/common/Erc20.sol\":5055:5061  _value */\n      dup2\n        /* \"contracts/common/Erc20.sol\":5030:5039  balanceOf */\n      0x04\n        /* \"contracts/common/Erc20.sol\":5030:5051  balanceOf[msg.sender] */\n      0x00\n        /* \"contracts/common/Erc20.sol\":5040:5050  msg.sender */\n      caller\n        /* \"contracts/common/Erc20.sol\":5030:5051  balanceOf[msg.sender] */\n      0xffffffffffffffffffffffffffffffffffffffff\n      and\n      0xffffffffffffffffffffffffffffffffffffffff\n      and\n      dup2\n      mstore\n      0x20\n      add\n      swap1\n      dup2\n      mstore\n      0x20\n      add\n      0x00\n      keccak256\n      sload\n        /* \"contracts/common/Erc20.sol\":5030:5061  balanceOf[msg.sender] >= _value */\n      lt\n      iszero\n        /* \"contracts/common/Erc20.sol\":5022:5062  require(balanceOf[msg.sender] >= _value) */\n      tag_85\n      jumpi\n      0x00\n      dup1\n      revert\n    tag_85:\n        /* \"contracts/common/Erc20.sol\":5133:5139  _value */\n      dup2\n        /* \"contracts/common/Erc20.sol\":5108:5117  balanceOf */\n      0x04\n        /* \"contracts/common/Erc20.sol\":5108:5129  balanceOf[msg.sender] */\n      0x00\n        /* \"contracts/common/Erc20.sol\":5118:5128  msg.sender */\n      caller\n        /* \"contracts/common/Erc20.sol\":5108:5129  balanceOf[msg.sender] */\n      0xffffffffffffffffffffffffffffffffffffffff\n      and\n      0xffffffffffffffffffffffffffffffffffffffff\n      and\n      dup2\n      mstore\n      0x20\n      add\n      swap1\n      dup2\n      mstore\n      0x20\n      add\n      0x00\n      keccak256\n      0x00\n        /* \"contracts/common/Erc20.sol\":5108:5139  balanceOf[msg.sender] -= _value */\n      dup3\n      dup3\n      sload\n      tag_86\n      swap2\n      swap1\n      tag_81\n      jump\t// in\n    tag_86:\n      swap3\n      pop\n      pop\n      dup2\n      swap1\n      sstore\n      pop\n        /* \"contracts/common/Erc20.sol\":5203:5209  _value */\n      dup2\n        /* \"contracts/common/Erc20.sol\":5188:5199  totalSupply */\n      0x03\n      0x00\n        /* \"contracts/common/Erc20.sol\":5188:5209  totalSupply -= _value */\n      dup3\n      dup3\n      sload\n      tag_87\n      swap2\n      swap1\n      tag_81\n      jump\t// in\n    tag_87:\n      swap3\n      pop\n      pop\n      dup2\n      swap1\n      sstore\n      pop\n        /* \"contracts/common/Erc20.sol\":5273:5283  msg.sender */\n      caller\n        /* \"contracts/common/Erc20.sol\":5268:5292  Burn(msg.sender, _value) */\n      0xffffffffffffffffffffffffffffffffffffffff\n      and\n      0xcc16f5dbb4873280815c1ee09dbd06736cffcc184412cf7a71a0fdb75d397ca5\n        /* \"contracts/common/Erc20.sol\":5285:5291  _value */\n      dup4\n        /* \"contracts/common/Erc20.sol\":5268:5292  Burn(msg.sender, _value) */\n      mload(0x40)\n      tag_88\n      swap2\n      swap1\n      tag_29\n      jump\t// in\n    tag_88:\n      mload(0x40)\n      dup1\n      swap2\n      sub\n      swap1\n      log2\n        /* \"contracts/common/Erc20.sol\":5309:5313  true */\n      0x01\n        /* \"contracts/common/Erc20.sol\":5302:5313  return true */\n      swap1\n      pop\n        /* \"contracts/common/Erc20.sol\":4952:5320  function burn(uint256 _value) public returns (bool success) {... */\n      swap2\n      swap1\n      pop\n      jump\t// out\n        /* \"contracts/common/Erc20.sol\":511:556  mapping (address => uint256) public balanceOf */\n    tag_47:\n      mstore(0x20, 0x04)\n      dup1\n      0x00\n      mstore\n      keccak256(0x00, 0x40)\n      0x00\n      swap2\n      pop\n      swap1\n      pop\n      sload\n      dup2\n      jump\t// out\n        /* \"contracts/common/Erc20.sol\":5573:6176  function burnFrom(address _from, uint256 _value) public returns (bool success) {... */\n    tag_51:\n        /* \"contracts/common/Erc20.sol\":5638:5650  bool success */\n      0x00\n        /* \"contracts/common/Erc20.sol\":5690:5696  _value */\n      dup2\n        /* \"contracts/common/Erc20.sol\":5670:5679  balanceOf */\n      0x04\n        /* \"contracts/common/Erc20.sol\":5670:5686  balanceOf[_from] */\n      0x00\n        /* \"contracts/common/Erc20.sol\":5680:5685  _from */\n      dup6\n        /* \"contracts/common/Erc20.sol\":5670:5686  balanceOf[_from] */\n      0xffffffffffffffffffffffffffffffffffffffff\n      and\n      0xffffffffffffffffffffffffffffffffffffffff\n      and\n      dup2\n      mstore\n      0x20\n      add\n      swap1\n      dup2\n      mstore\n      0x20\n      add\n      0x00\n      keccak256\n      sload\n        /* \"contracts/common/Erc20.sol\":5670:5696  balanceOf[_from] >= _value */\n      lt\n      iszero\n        /* \"contracts/common/Erc20.sol\":5662:5697  require(balanceOf[_from] >= _value) */\n      tag_90\n      jumpi\n      0x00\n      dup1\n      revert\n    tag_90:\n        /* \"contracts/common/Erc20.sol\":5783:5792  allowance */\n      0x05\n        /* \"contracts/common/Erc20.sol\":5783:5799  allowance[_from] */\n      0x00\n        /* \"contracts/common/Erc20.sol\":5793:5798  _from */\n      dup5\n        /* \"contracts/common/Erc20.sol\":5783:5799  allowance[_from] */\n      0xffffffffffffffffffffffffffffffffffffffff\n      and\n      0xffffffffffffffffffffffffffffffffffffffff\n      and\n      dup2\n      mstore\n      0x20\n      add\n      swap1\n      dup2\n      mstore\n      0x20\n      add\n      0x00\n      keccak256\n        /* \"contracts/common/Erc20.sol\":5783:5811  allowance[_from][msg.sender] */\n      0x00\n        /* \"contracts/common/Erc20.sol\":5800:5810  msg.sender */\n      caller\n        /* \"contracts/common/Erc20.sol\":5783:5811  allowance[_from][msg.sender] */\n      0xffffffffffffffffffffffffffffffffffffffff\n      and\n      0xffffffffffffffffffffffffffffffffffffffff\n      and\n      dup2\n      mstore\n      0x20\n      add\n      swap1\n      dup2\n      mstore\n      0x20\n      add\n      0x00\n      keccak256\n      sload\n        /* \"contracts/common/Erc20.sol\":5773:5779  _value */\n      dup3\n        /* \"contracts/common/Erc20.sol\":5773:5811  _value <= allowance[_from][msg.sender] */\n      gt\n      iszero\n        /* \"contracts/common/Erc20.sol\":5765:5812  require(_value <= allowance[_from][msg.sender]) */\n      tag_91\n      jumpi\n      0x00\n      dup1\n      revert\n    tag_91:\n        /* \"contracts/common/Erc20.sol\":5864:5870  _value */\n      dup2\n        /* \"contracts/common/Erc20.sol\":5844:5853  balanceOf */\n      0x04\n        /* \"contracts/common/Erc20.sol\":5844:5860  balanceOf[_from] */\n      0x00\n        /* \"contracts/common/Erc20.sol\":5854:5859  _from */\n      dup6\n        /* \"contracts/common/Erc20.sol\":5844:5860  balanceOf[_from] */\n      0xffffffffffffffffffffffffffffffffffffffff\n      and\n      0xffffffffffffffffffffffffffffffffffffffff\n      and\n      dup2\n      mstore\n      0x20\n      add\n      swap1\n      dup2\n      mstore\n      0x20\n      add\n      0x00\n      keccak256\n      0x00\n        /* \"contracts/common/Erc20.sol\":5844:5870  balanceOf[_from] -= _value */\n      dup3\n      dup3\n      sload\n      tag_92\n      swap2\n      swap1\n      tag_81\n      jump\t// in\n    tag_92:\n      swap3\n      pop\n      pop\n      dup2\n      swap1\n      sstore\n      pop\n        /* \"contracts/common/Erc20.sol\":5974:5980  _value */\n      dup2\n        /* \"contracts/common/Erc20.sol\":5942:5951  allowance */\n      0x05\n        /* \"contracts/common/Erc20.sol\":5942:5958  allowance[_from] */\n      0x00\n        /* \"contracts/common/Erc20.sol\":5952:5957  _from */\n      dup6\n        /* \"contracts/common/Erc20.sol\":5942:5958  allowance[_from] */\n      0xffffffffffffffffffffffffffffffffffffffff\n      and\n      0xffffffffffffffffffffffffffffffffffffffff\n      and\n      dup2\n      mstore\n      0x20\n      add\n      swap1\n      dup2\n      mstore\n      0x20\n      add\n      0x00\n      keccak256\n        /* \"contracts/common/Erc20.sol\":5942:5970  allowance[_from][msg.sender] */\n      0x00\n        /* \"contracts/common/Erc20.sol\":5959:5969  msg.sender */\n      caller\n        /* \"contracts/common/Erc20.sol\":5942:5970  allowance[_from][msg.sender] */\n      0xffffffffffffffffffffffffffffffffffffffff\n      and\n      0xffffffffffffffffffffffffffffffffffffffff\n      and\n      dup2\n      mstore\n      0x20\n      add\n      swap1\n      dup2\n      mstore\n      0x20\n      add\n      0x00\n      keccak256\n      0x00\n        /* \"contracts/common/Erc20.sol\":5942:5980  allowance[_from][msg.sender] -= _value */\n      dup3\n      dup3\n      sload\n      tag_93\n      swap2\n      swap1\n      tag_81\n      jump\t// in\n    tag_93:\n      swap3\n      pop\n      pop\n      dup2\n      swap1\n      sstore\n      pop\n        /* \"contracts/common/Erc20.sol\":6057:6063  _value */\n      dup2\n        /* \"contracts/common/Erc20.sol\":6042:6053  totalSupply */\n      0x03\n      0x00\n        /* \"contracts/common/Erc20.sol\":6042:6063  totalSupply -= _value */\n      dup3\n      dup3\n      sload\n      tag_94\n      swap2\n      swap1\n      tag_81\n      jump\t// in\n    tag_94:\n      swap3\n      pop\n      pop\n      dup2\n      swap1\n      sstore\n      pop\n        /* \"contracts/common/Erc20.sol\":6134:6139  _from */\n      dup3\n        /* \"contracts/common/Erc20.sol\":6129:6148  Burn(_from, _value) */\n      0xffffffffffffffffffffffffffffffffffffffff\n      and\n      0xcc16f5dbb4873280815c1ee09dbd06736cffcc184412cf7a71a0fdb75d397ca5\n        /* \"contracts/common/Erc20.sol\":6141:6147  _value */\n      dup4\n        /* \"contracts/common/Erc20.sol\":6129:6148  Burn(_from, _value) */\n      mload(0x40)\n      tag_95\n      swap2\n      swap1\n      tag_29\n      jump\t// in\n    tag_95:\n      mload(0x40)\n      dup1\n      swap2\n      sub\n      swap1\n      log2\n        /* \"contracts/common/Erc20.sol\":6165:6169  true */\n      0x01\n        /* \"contracts/common/Erc20.sol\":6158:6169  return true */\n      swap1\n      pop\n        /* \"contracts/common/Erc20.sol\":5573:6176  function burnFrom(address _from, uint256 _value) public returns (bool success) {... */\n      swap3\n      swap2\n      pop\n      pop\n      jump\t// out\n        /* \"contracts/common/Erc20.sol\":301:321  string public symbol */\n    tag_54:\n      0x01\n      dup1\n      sload\n      tag_96\n      swap1\n      tag_71\n      jump\t// in\n    tag_96:\n      dup1\n      0x1f\n      add\n      0x20\n      dup1\n      swap2\n      div\n      mul\n      0x20\n      add\n      mload(0x40)\n      swap1\n      dup2\n      add\n      0x40\n      mstore\n      dup1\n      swap3\n      swap2\n      swap1\n      dup2\n      dup2\n      mstore\n      0x20\n      add\n      dup3\n      dup1\n      sload\n      tag_97\n      swap1\n      tag_71\n      jump\t// in\n    tag_97:\n      dup1\n      iszero\n      tag_98\n      jumpi\n      dup1\n      0x1f\n      lt\n      tag_99\n      jumpi\n      0x0100\n      dup1\n      dup4\n      sload\n      div\n      mul\n      dup4\n      mstore\n      swap2\n      0x20\n      add\n      swap2\n      jump(tag_98)\n    tag_99:\n      dup3\n      add\n      swap2\n      swap1\n      0x00\n      mstore\n      keccak256(0x00, 0x20)\n      swap1\n    tag_100:\n      dup2\n      sload\n      dup2\n      mstore\n      swap1\n      0x01\n      add\n      swap1\n      0x20\n      add\n      dup1\n      dup4\n      gt\n      tag_100\n      jumpi\n      dup3\n      swap1\n      sub\n      0x1f\n      and\n      dup3\n      add\n      swap2\n    tag_98:\n      pop\n      pop\n      pop\n      pop\n      pop\n      dup2\n      jump\t// out\n        /* \"contracts/common/Erc20.sol\":2867:3016  function transfer(address _to, uint256 _value) public returns (bool success) {... */\n    tag_58:\n        /* \"contracts/common/Erc20.sol\":2930:2942  bool success */\n      0x00\n        /* \"contracts/common/Erc20.sol\":2954:2988  _transfer(msg.sender, _to, _value) */\n      tag_102\n        /* \"contracts/common/Erc20.sol\":2964:2974  msg.sender */\n      caller\n        /* \"contracts/common/Erc20.sol\":2976:2979  _to */\n      dup5\n        /* \"contracts/common/Erc20.sol\":2981:2987  _value */\n      dup5\n        /* \"contracts/common/Erc20.sol\":2954:2963  _transfer */\n      tag_83\n        /* \"contracts/common/Erc20.sol\":2954:2988  _transfer(msg.sender, _to, _value) */\n      jump\t// in\n    tag_102:\n        /* \"contracts/common/Erc20.sol\":3005:3009  true */\n      0x01\n        /* \"contracts/common/Erc20.sol\":2998:3009  return true */\n      swap1\n      pop\n        /* \"contracts/common/Erc20.sol\":2867:3016  function transfer(address _to, uint256 _value) public returns (bool success) {... */\n      swap3\n      swap2\n      pop\n      pop\n      jump\t// out\n        /* \"contracts/common/Erc20.sol\":4439:4786  function approveAndCall(address _spender, uint256 _value, bytes memory _extraData)... */\n    tag_63:\n        /* \"contracts/common/Erc20.sol\":4546:4558  bool success */\n      0x00\n        /* \"contracts/common/Erc20.sol\":4570:4592  tokenRecipient spender */\n      dup1\n        /* \"contracts/common/Erc20.sol\":4610:4618  _spender */\n      dup5\n        /* \"contracts/common/Erc20.sol\":4570:4619  tokenRecipient spender = tokenRecipient(_spender) */\n      swap1\n      pop\n        /* \"contracts/common/Erc20.sol\":4633:4658  approve(_spender, _value) */\n      tag_104\n        /* \"contracts/common/Erc20.sol\":4641:4649  _spender */\n      dup6\n        /* \"contracts/common/Erc20.sol\":4651:4657  _value */\n      dup6\n        /* \"contracts/common/Erc20.sol\":4633:4640  approve */\n      tag_23\n        /* \"contracts/common/Erc20.sol\":4633:4658  approve(_spender, _value) */\n      jump\t// in\n    tag_104:\n        /* \"contracts/common/Erc20.sol\":4629:4780  if (approve(_spender, _value)) {... */\n      iszero\n      tag_105\n      jumpi\n        /* \"contracts/common/Erc20.sol\":4674:4681  spender */\n      dup1\n        /* \"contracts/common/Erc20.sol\":4674:4697  spender.receiveApproval */\n      0xffffffffffffffffffffffffffffffffffffffff\n      and\n      0x8f4ffcb1\n        /* \"contracts/common/Erc20.sol\":4698:4708  msg.sender */\n      caller\n        /* \"contracts/common/Erc20.sol\":4710:4716  _value */\n      dup7\n        /* \"contracts/common/Erc20.sol\":4726:4730  this */\n      address\n        /* \"contracts/common/Erc20.sol\":4733:4743  _extraData */\n      dup8\n        /* \"contracts/common/Erc20.sol\":4674:4744  spender.receiveApproval(msg.sender, _value, address(this), _extraData) */\n      mload(0x40)\n      dup6\n      0xffffffff\n      and\n      0xe0\n      shl\n      dup2\n      mstore\n      0x04\n      add\n      tag_106\n      swap5\n      swap4\n      swap3\n      swap2\n      swap1\n      tag_107\n      jump\t// in\n    tag_106:\n      0x00\n      mload(0x40)\n      dup1\n      dup4\n      sub\n      dup2\n      0x00\n      dup8\n      dup1\n      extcodesize\n      iszero\n      dup1\n      iszero\n      tag_108\n      jumpi\n      0x00\n      dup1\n      revert\n    tag_108:\n      pop\n      gas\n      call\n      iszero\n      dup1\n      iszero\n      tag_110\n      jumpi\n      returndatasize\n      0x00\n      dup1\n      returndatacopy\n      revert(0x00, returndatasize)\n    tag_110:\n      pop\n      pop\n      pop\n      pop\n        /* \"contracts/common/Erc20.sol\":4765:4769  true */\n      0x01\n        /* \"contracts/common/Erc20.sol\":4758:4769  return true */\n      swap2\n      pop\n      pop\n      jump(tag_103)\n        /* \"contracts/common/Erc20.sol\":4629:4780  if (approve(_spender, _value)) {... */\n    tag_105:\n        /* \"contracts/common/Erc20.sol\":4560:4786  {... */\n      pop\n        /* \"contracts/common/Erc20.sol\":4439:4786  function approveAndCall(address _spender, uint256 _value, bytes memory _extraData)... */\n    tag_103:\n      swap4\n      swap3\n      pop\n      pop\n      pop\n      jump\t// out\n        /* \"contracts/common/Erc20.sol\":562:628  mapping (address => mapping (address => uint256)) public allowance */\n    tag_68:\n      mstore(0x20, 0x05)\n      dup2\n      0x00\n      mstore\n      mstore(0x20, keccak256(0x00, 0x40))\n      dup1\n      0x00\n      mstore\n      keccak256(0x00, 0x40)\n      0x00\n      swap2\n      pop\n      swap2\n      pop\n      pop\n      sload\n      dup2\n      jump\t// out\n        /* \"contracts/common/Erc20.sol\":1830:2666  function _transfer(address _from, address _to, uint _value) internal {... */\n    tag_83:\n        /* \"contracts/common/Erc20.sol\":1995:1998  0x0 */\n      0x00\n        /* \"contracts/common/Erc20.sol\":1980:1999  _to != address(0x0) */\n      0xffffffffffffffffffffffffffffffffffffffff\n      and\n        /* \"contracts/common/Erc20.sol\":1980:1983  _to */\n      dup3\n        /* \"contracts/common/Erc20.sol\":1980:1999  _to != address(0x0) */\n      0xffffffffffffffffffffffffffffffffffffffff\n      and\n      eq\n      iszero\n        /* \"contracts/common/Erc20.sol\":1972:2000  require(_to != address(0x0)) */\n      tag_112\n      jumpi\n      0x00\n      dup1\n      revert\n    tag_112:\n        /* \"contracts/common/Erc20.sol\":2080:2086  _value */\n      dup1\n        /* \"contracts/common/Erc20.sol\":2060:2069  balanceOf */\n      0x04\n        /* \"contracts/common/Erc20.sol\":2060:2076  balanceOf[_from] */\n      0x00\n        /* \"contracts/common/Erc20.sol\":2070:2075  _from */\n      dup6\n        /* \"contracts/common/Erc20.sol\":2060:2076  balanceOf[_from] */\n      0xffffffffffffffffffffffffffffffffffffffff\n      and\n      0xffffffffffffffffffffffffffffffffffffffff\n      and\n      dup2\n      mstore\n      0x20\n      add\n      swap1\n      dup2\n      mstore\n      0x20\n      add\n      0x00\n      keccak256\n      sload\n        /* \"contracts/common/Erc20.sol\":2060:2086  balanceOf[_from] >= _value */\n      lt\n      iszero\n        /* \"contracts/common/Erc20.sol\":2052:2087  require(balanceOf[_from] >= _value) */\n      tag_113\n      jumpi\n      0x00\n      dup1\n      revert\n    tag_113:\n        /* \"contracts/common/Erc20.sol\":2163:2172  balanceOf */\n      0x04\n        /* \"contracts/common/Erc20.sol\":2163:2177  balanceOf[_to] */\n      0x00\n        /* \"contracts/common/Erc20.sol\":2173:2176  _to */\n      dup4\n        /* \"contracts/common/Erc20.sol\":2163:2177  balanceOf[_to] */\n      0xffffffffffffffffffffffffffffffffffffffff\n      and\n      0xffffffffffffffffffffffffffffffffffffffff\n      and\n      dup2\n      mstore\n      0x20\n      add\n      swap1\n      dup2\n      mstore\n      0x20\n      add\n      0x00\n      keccak256\n      sload\n        /* \"contracts/common/Erc20.sol\":2153:2159  _value */\n      dup2\n        /* \"contracts/common/Erc20.sol\":2136:2145  balanceOf */\n      0x04\n        /* \"contracts/common/Erc20.sol\":2136:2150  balanceOf[_to] */\n      0x00\n        /* \"contracts/common/Erc20.sol\":2146:2149  _to */\n      dup6\n        /* \"contracts/common/Erc20.sol\":2136:2150  balanceOf[_to] */\n      0xffffffffffffffffffffffffffffffffffffffff\n      and\n      0xffffffffffffffffffffffffffffffffffffffff\n      and\n      dup2\n      mstore\n      0x20\n      add\n      swap1\n      dup2\n      mstore\n      0x20\n      add\n      0x00\n      keccak256\n      sload\n        /* \"contracts/common/Erc20.sol\":2136:2159  balanceOf[_to] + _value */\n      tag_114\n      swap2\n      swap1\n      tag_115\n      jump\t// in\n    tag_114:\n        /* \"contracts/common/Erc20.sol\":2136:2177  balanceOf[_to] + _value >= balanceOf[_to] */\n      lt\n      iszero\n        /* \"contracts/common/Erc20.sol\":2128:2178  require(balanceOf[_to] + _value >= balanceOf[_to]) */\n      tag_116\n      jumpi\n      0x00\n      dup1\n      revert\n    tag_116:\n        /* \"contracts/common/Erc20.sol\":2240:2261  uint previousBalances */\n      0x00\n        /* \"contracts/common/Erc20.sol\":2283:2292  balanceOf */\n      0x04\n        /* \"contracts/common/Erc20.sol\":2283:2297  balanceOf[_to] */\n      0x00\n        /* \"contracts/common/Erc20.sol\":2293:2296  _to */\n      dup5\n        /* \"contracts/common/Erc20.sol\":2283:2297  balanceOf[_to] */\n      0xffffffffffffffffffffffffffffffffffffffff\n      and\n      0xffffffffffffffffffffffffffffffffffffffff\n      and\n      dup2\n      mstore\n      0x20\n      add\n      swap1\n      dup2\n      mstore\n      0x20\n      add\n      0x00\n      keccak256\n      sload\n        /* \"contracts/common/Erc20.sol\":2264:2273  balanceOf */\n      0x04\n        /* \"contracts/common/Erc20.sol\":2264:2280  balanceOf[_from] */\n      0x00\n        /* \"contracts/common/Erc20.sol\":2274:2279  _from */\n      dup7\n        /* \"contracts/common/Erc20.sol\":2264:2280  balanceOf[_from] */\n      0xffffffffffffffffffffffffffffffffffffffff\n      and\n      0xffffffffffffffffffffffffffffffffffffffff\n      and\n      dup2\n      mstore\n      0x20\n      add\n      swap1\n      dup2\n      mstore\n      0x20\n      add\n      0x00\n      keccak256\n      sload\n        /* \"contracts/common/Erc20.sol\":2264:2297  balanceOf[_from] + balanceOf[_to] */\n      tag_117\n      swap2\n      swap1\n      tag_115\n      jump\t// in\n    tag_117:\n        /* \"contracts/common/Erc20.sol\":2240:2297  uint previousBalances = balanceOf[_from] + balanceOf[_to] */\n      swap1\n      pop\n        /* \"contracts/common/Erc20.sol\":2363:2369  _value */\n      dup2\n        /* \"contracts/common/Erc20.sol\":2343:2352  balanceOf */\n      0x04\n        /* \"contracts/common/Erc20.sol\":2343:2359  balanceOf[_from] */\n      0x00\n        /* \"contracts/common/Erc20.sol\":2353:2358  _from */\n      dup7\n        /* \"contracts/common/Erc20.sol\":2343:2359  balanceOf[_from] */\n      0xffffffffffffffffffffffffffffffffffffffff\n      and\n      0xffffffffffffffffffffffffffffffffffffffff\n      and\n      dup2\n      mstore\n      0x20\n      add\n      swap1\n      dup2\n      mstore\n      0x20\n      add\n      0x00\n      keccak256\n      0x00\n        /* \"contracts/common/Erc20.sol\":2343:2369  balanceOf[_from] -= _value */\n      dup3\n      dup3\n      sload\n      tag_118\n      swap2\n      swap1\n      tag_81\n      jump\t// in\n    tag_118:\n      swap3\n      pop\n      pop\n      dup2\n      swap1\n      sstore\n      pop\n        /* \"contracts/common/Erc20.sol\":2438:2444  _value */\n      dup2\n        /* \"contracts/common/Erc20.sol\":2420:2429  balanceOf */\n      0x04\n        /* \"contracts/common/Erc20.sol\":2420:2434  balanceOf[_to] */\n      0x00\n        /* \"contracts/common/Erc20.sol\":2430:2433  _to */\n      dup6\n        /* \"contracts/common/Erc20.sol\":2420:2434  balanceOf[_to] */\n      0xffffffffffffffffffffffffffffffffffffffff\n      and\n      0xffffffffffffffffffffffffffffffffffffffff\n      and\n      dup2\n      mstore\n      0x20\n      add\n      swap1\n      dup2\n      mstore\n      0x20\n      add\n      0x00\n      keccak256\n      0x00\n        /* \"contracts/common/Erc20.sol\":2420:2444  balanceOf[_to] += _value */\n      dup3\n      dup3\n      sload\n      tag_119\n      swap2\n      swap1\n      tag_115\n      jump\t// in\n    tag_119:\n      swap3\n      pop\n      pop\n      dup2\n      swap1\n      sstore\n      pop\n        /* \"contracts/common/Erc20.sol\":2475:2478  _to */\n      dup3\n        /* \"contracts/common/Erc20.sol\":2459:2487  Transfer(_from, _to, _value) */\n      0xffffffffffffffffffffffffffffffffffffffff\n      and\n        /* \"contracts/common/Erc20.sol\":2468:2473  _from */\n      dup5\n        /* \"contracts/common/Erc20.sol\":2459:2487  Transfer(_from, _to, _value) */\n      0xffffffffffffffffffffffffffffffffffffffff\n      and\n      0xddf252ad1be2c89b69c2b068fc378daa952ba7f163c4a11628f55a4df523b3ef\n        /* \"contracts/common/Erc20.sol\":2480:2486  _value */\n      dup5\n        /* \"contracts/common/Erc20.sol\":2459:2487  Transfer(_from, _to, _value) */\n      mload(0x40)\n      tag_120\n      swap2\n      swap1\n      tag_29\n      jump\t// in\n    tag_120:\n      mload(0x40)\n      dup1\n      swap2\n      sub\n      swap1\n      log3\n        /* \"contracts/common/Erc20.sol\":2642:2658  previousBalances */\n      dup1\n        /* \"contracts/common/Erc20.sol\":2624:2633  balanceOf */\n      0x04\n        /* \"contracts/common/Erc20.sol\":2624:2638  balanceOf[_to] */\n      0x00\n        /* \"contracts/common/Erc20.sol\":2634:2637  _to */\n      dup6\n        /* \"contracts/common/Erc20.sol\":2624:2638  balanceOf[_to] */\n      0xffffffffffffffffffffffffffffffffffffffff\n      and\n      0xffffffffffffffffffffffffffffffffffffffff\n      and\n      dup2\n      mstore\n      0x20\n      add\n      swap1\n      dup2\n      mstore\n      0x20\n      add\n      0x00\n      keccak256\n      sload\n        /* \"contracts/common/Erc20.sol\":2605:2614  balanceOf */\n      0x04\n        /* \"contracts/common/Erc20.sol\":2605:2621  balanceOf[_from] */\n      0x00\n        /* \"contracts/common/Erc20.sol\":2615:2620  _from */\n      dup8\n        /* \"contracts/common/Erc20.sol\":2605:2621  balanceOf[_from] */\n      0xffffffffffffffffffffffffffffffffffffffff\n      and\n      0xffffffffffffffffffffffffffffffffffffffff\n      and\n      dup2\n      mstore\n      0x20\n      add\n      swap1\n      dup2\n      mstore\n      0x20\n      add\n      0x00\n      keccak256\n      sload\n        /* \"contracts/common/Erc20.sol\":2605:2638  balanceOf[_from] + balanceOf[_to] */\n      tag_121\n      swap2\n      swap1\n      tag_115\n      jump\t// in\n    tag_121:\n        /* \"contracts/common/Erc20.sol\":2605:2658  balanceOf[_from] + balanceOf[_to] == previousBalances */\n      eq\n        /* \"contracts/common/Erc20.sol\":2598:2659  assert(balanceOf[_from] + balanceOf[_to] == previousBalances) */\n      tag_122\n      jumpi\n      tag_123\n      tag_124\n      jump\t// in\n    tag_123:\n    tag_122:\n        /* \"contracts/common/Erc20.sol\":1899:2666  {... */\n      pop\n        /* \"contracts/common/Erc20.sol\":1830:2666  function _transfer(address _from, address _to, uint _value) internal {... */\n      pop\n      pop\n      pop\n      jump\t// out\n        /* \"#utility.yul\":7:417   */\n    tag_126:\n        /* \"#utility.yul\":84:89   */\n      0x00\n        /* \"#utility.yul\":109:174   */\n      tag_128\n        /* \"#utility.yul\":125:173   */\n      tag_129\n        /* \"#utility.yul\":166:172   */\n      dup5\n        /* \"#utility.yul\":125:173   */\n      tag_130\n      jump\t// in\n    tag_129:\n        /* \"#utility.yul\":109:174   */\n      tag_131\n      jump\t// in\n    tag_128:\n        /* \"#utility.yul\":100:174   */\n      swap1\n      pop\n        /* \"#utility.yul\":197:203   */\n      dup3\n        /* \"#utility.yul\":190:195   */\n      dup2\n        /* \"#utility.yul\":183:204   */\n      mstore\n        /* \"#utility.yul\":235:239   */\n      0x20\n        /* \"#utility.yul\":228:233   */\n      dup2\n        /* \"#utility.yul\":224:240   */\n      add\n        /* \"#utility.yul\":273:276   */\n      dup5\n        /* \"#utility.yul\":264:270   */\n      dup5\n        /* \"#utility.yul\":259:262   */\n      dup5\n        /* \"#utility.yul\":255:271   */\n      add\n        /* \"#utility.yul\":252:277   */\n      gt\n        /* \"#utility.yul\":249:361   */\n      iszero\n      tag_132\n      jumpi\n        /* \"#utility.yul\":280:359   */\n      tag_133\n      tag_134\n      jump\t// in\n    tag_133:\n        /* \"#utility.yul\":249:361   */\n    tag_132:\n        /* \"#utility.yul\":370:411   */\n      tag_135\n        /* \"#utility.yul\":404:410   */\n      dup5\n        /* \"#utility.yul\":399:402   */\n      dup3\n        /* \"#utility.yul\":394:397   */\n      dup6\n        /* \"#utility.yul\":370:411   */\n      tag_136\n      jump\t// in\n    tag_135:\n        /* \"#utility.yul\":90:417   */\n      pop\n        /* \"#utility.yul\":7:417   */\n      swap4\n      swap3\n      pop\n      pop\n      pop\n      jump\t// out\n        /* \"#utility.yul\":423:562   */\n    tag_137:\n        /* \"#utility.yul\":469:474   */\n      0x00\n        /* \"#utility.yul\":507:513   */\n      dup2\n        /* \"#utility.yul\":494:514   */\n      calldataload\n        /* \"#utility.yul\":485:514   */\n      swap1\n      pop\n        /* \"#utility.yul\":523:556   */\n      tag_139\n        /* \"#utility.yul\":550:555   */\n      dup2\n        /* \"#utility.yul\":523:556   */\n      tag_140\n      jump\t// in\n    tag_139:\n        /* \"#utility.yul\":423:562   */\n      swap3\n      swap2\n      pop\n      pop\n      jump\t// out\n        /* \"#utility.yul\":581:919   */\n    tag_141:\n        /* \"#utility.yul\":636:641   */\n      0x00\n        /* \"#utility.yul\":685:688   */\n      dup3\n        /* \"#utility.yul\":678:682   */\n      0x1f\n        /* \"#utility.yul\":670:676   */\n      dup4\n        /* \"#utility.yul\":666:683   */\n      add\n        /* \"#utility.yul\":662:689   */\n      slt\n        /* \"#utility.yul\":652:774   */\n      tag_143\n      jumpi\n        /* \"#utility.yul\":693:772   */\n      tag_144\n      tag_145\n      jump\t// in\n    tag_144:\n        /* \"#utility.yul\":652:774   */\n    tag_143:\n        /* \"#utility.yul\":810:816   */\n      dup2\n        /* \"#utility.yul\":797:817   */\n      calldataload\n        /* \"#utility.yul\":835:913   */\n      tag_146\n        /* \"#utility.yul\":909:912   */\n      dup5\n        /* \"#utility.yul\":901:907   */\n      dup3\n        /* \"#utility.yul\":894:898   */\n      0x20\n        /* \"#utility.yul\":886:892   */\n      dup7\n        /* \"#utility.yul\":882:899   */\n      add\n        /* \"#utility.yul\":835:913   */\n      tag_126\n      jump\t// in\n    tag_146:\n        /* \"#utility.yul\":826:913   */\n      swap2\n      pop\n        /* \"#utility.yul\":642:919   */\n      pop\n        /* \"#utility.yul\":581:919   */\n      swap3\n      swap2\n      pop\n      pop\n      jump\t// out\n        /* \"#utility.yul\":925:1064   */\n    tag_147:\n        /* \"#utility.yul\":971:976   */\n      0x00\n        /* \"#utility.yul\":1009:1015   */\n      dup2\n        /* \"#utility.yul\":996:1016   */\n      calldataload\n        /* \"#utility.yul\":987:1016   */\n      swap1\n      pop\n        /* \"#utility.yul\":1025:1058   */\n      tag_149\n        /* \"#utility.yul\":1052:1057   */\n      dup2\n        /* \"#utility.yul\":1025:1058   */\n      tag_150\n      jump\t// in\n    tag_149:\n        /* \"#utility.yul\":925:1064   */\n      swap3\n      swap2\n      pop\n      pop\n      jump\t// out\n        /* \"#utility.yul\":1070:1399   */\n    tag_46:\n        /* \"#utility.yul\":1129:1135   */\n      0x00\n        /* \"#utility.yul\":1178:1180   */\n      0x20\n        /* \"#utility.yul\":1166:1175   */\n      dup3\n        /* \"#utility.yul\":1157:1164   */\n      dup5\n        /* \"#utility.yul\":1153:1176   */\n      sub\n        /* \"#utility.yul\":1149:1181   */\n      slt\n        /* \"#utility.yul\":1146:1265   */\n      iszero\n      tag_152\n      jumpi\n        /* \"#utility.yul\":1184:1263   */\n      tag_153\n      tag_154\n      jump\t// in\n    tag_153:\n        /* \"#utility.yul\":1146:1265   */\n    tag_152:\n        /* \"#utility.yul\":1304:1305   */\n      0x00\n        /* \"#utility.yul\":1329:1382   */\n      tag_155\n        /* \"#utility.yul\":1374:1381   */\n      dup5\n        /* \"#utility.yul\":1365:1371   */\n      dup3\n        /* \"#utility.yul\":1354:1363   */\n      dup6\n        /* \"#utility.yul\":1350:1372   */\n      add\n        /* \"#utility.yul\":1329:1382   */\n      tag_137\n      jump\t// in\n    tag_155:\n        /* \"#utility.yul\":1319:1382   */\n      swap2\n      pop\n        /* \"#utility.yul\":1275:1392   */\n      pop\n        /* \"#utility.yul\":1070:1399   */\n      swap3\n      swap2\n      pop\n      pop\n      jump\t// out\n        /* \"#utility.yul\":1405:1879   */\n    tag_67:\n        /* \"#utility.yul\":1473:1479   */\n      0x00\n        /* \"#utility.yul\":1481:1487   */\n      dup1\n        /* \"#utility.yul\":1530:1532   */\n      0x40\n        /* \"#utility.yul\":1518:1527   */\n      dup4\n        /* \"#utility.yul\":1509:1516   */\n      dup6\n        /* \"#utility.yul\":1505:1528   */\n      sub\n        /* \"#utility.yul\":1501:1533   */\n      slt\n        /* \"#utility.yul\":1498:1617   */\n      iszero\n      tag_157\n      jumpi\n        /* \"#utility.yul\":1536:1615   */\n      tag_158\n      tag_154\n      jump\t// in\n    tag_158:\n        /* \"#utility.yul\":1498:1617   */\n    tag_157:\n        /* \"#utility.yul\":1656:1657   */\n      0x00\n        /* \"#utility.yul\":1681:1734   */\n      tag_159\n        /* \"#utility.yul\":1726:1733   */\n      dup6\n        /* \"#utility.yul\":1717:1723   */\n      dup3\n        /* \"#utility.yul\":1706:1715   */\n      dup7\n        /* \"#utility.yul\":1702:1724   */\n      add\n        /* \"#utility.yul\":1681:1734   */\n      tag_137\n      jump\t// in\n    tag_159:\n        /* \"#utility.yul\":1671:1734   */\n      swap3\n      pop\n        /* \"#utility.yul\":1627:1744   */\n      pop\n        /* \"#utility.yul\":1783:1785   */\n      0x20\n        /* \"#utility.yul\":1809:1862   */\n      tag_160\n        /* \"#utility.yul\":1854:1861   */\n      dup6\n        /* \"#utility.yul\":1845:1851   */\n      dup3\n        /* \"#utility.yul\":1834:1843   */\n      dup7\n        /* \"#utility.yul\":1830:1852   */\n      add\n        /* \"#utility.yul\":1809:1862   */\n      tag_137\n      jump\t// in\n    tag_160:\n        /* \"#utility.yul\":1799:1862   */\n      swap2\n      pop\n        /* \"#utility.yul\":1754:1872   */\n      pop\n        /* \"#utility.yul\":1405:1879   */\n      swap3\n      pop\n      swap3\n      swap1\n      pop\n      jump\t// out\n        /* \"#utility.yul\":1885:2504   */\n    tag_32:\n        /* \"#utility.yul\":1962:1968   */\n      0x00\n        /* \"#utility.yul\":1970:1976   */\n      dup1\n        /* \"#utility.yul\":1978:1984   */\n      0x00\n        /* \"#utility.yul\":2027:2029   */\n      0x60\n        /* \"#utility.yul\":2015:2024   */\n      dup5\n        /* \"#utility.yul\":2006:2013   */\n      dup7\n        /* \"#utility.yul\":2002:2025   */\n      sub\n        /* \"#utility.yul\":1998:2030   */\n      slt\n        /* \"#utility.yul\":1995:2114   */\n      iszero\n      tag_162\n      jumpi\n        /* \"#utility.yul\":2033:2112   */\n      tag_163\n      tag_154\n      jump\t// in\n    tag_163:\n        /* \"#utility.yul\":1995:2114   */\n    tag_162:\n        /* \"#utility.yul\":2153:2154   */\n      0x00\n        /* \"#utility.yul\":2178:2231   */\n      tag_164\n        /* \"#utility.yul\":2223:2230   */\n      dup7\n        /* \"#utility.yul\":2214:2220   */\n      dup3\n        /* \"#utility.yul\":2203:2212   */\n      dup8\n        /* \"#utility.yul\":2199:2221   */\n      add\n        /* \"#utility.yul\":2178:2231   */\n      tag_137\n      jump\t// in\n    tag_164:\n        /* \"#utility.yul\":2168:2231   */\n      swap4\n      pop\n        /* \"#utility.yul\":2124:2241   */\n      pop\n        /* \"#utility.yul\":2280:2282   */\n      0x20\n        /* \"#utility.yul\":2306:2359   */\n      tag_165\n        /* \"#utility.yul\":2351:2358   */\n      dup7\n        /* \"#utility.yul\":2342:2348   */\n      dup3\n        /* \"#utility.yul\":2331:2340   */\n      dup8\n        /* \"#utility.yul\":2327:2349   */\n      add\n        /* \"#utility.yul\":2306:2359   */\n      tag_137\n      jump\t// in\n    tag_165:\n        /* \"#utility.yul\":2296:2359   */\n      swap3\n      pop\n        /* \"#utility.yul\":2251:2369   */\n      pop\n        /* \"#utility.yul\":2408:2410   */\n      0x40\n        /* \"#utility.yul\":2434:2487   */\n      tag_166\n        /* \"#utility.yul\":2479:2486   */\n      dup7\n        /* \"#utility.yul\":2470:2476   */\n      dup3\n        /* \"#utility.yul\":2459:2468   */\n      dup8\n        /* \"#utility.yul\":2455:2477   */\n      add\n        /* \"#utility.yul\":2434:2487   */\n      tag_147\n      jump\t// in\n    tag_166:\n        /* \"#utility.yul\":2424:2487   */\n      swap2\n      pop\n        /* \"#utility.yul\":2379:2497   */\n      pop\n        /* \"#utility.yul\":1885:2504   */\n      swap3\n      pop\n      swap3\n      pop\n      swap3\n      jump\t// out\n        /* \"#utility.yul\":2510:2984   */\n    tag_22:\n        /* \"#utility.yul\":2578:2584   */\n      0x00\n        /* \"#utility.yul\":2586:2592   */\n      dup1\n        /* \"#utility.yul\":2635:2637   */\n      0x40\n        /* \"#utility.yul\":2623:2632   */\n      dup4\n        /* \"#utility.yul\":2614:2621   */\n      dup6\n        /* \"#utility.yul\":2610:2633   */\n      sub\n        /* \"#utility.yul\":2606:2638   */\n      slt\n        /* \"#utility.yul\":2603:2722   */\n      iszero\n      tag_168\n      jumpi\n        /* \"#utility.yul\":2641:2720   */\n      tag_169\n      tag_154\n      jump\t// in\n    tag_169:\n        /* \"#utility.yul\":2603:2722   */\n    tag_168:\n        /* \"#utility.yul\":2761:2762   */\n      0x00\n        /* \"#utility.yul\":2786:2839   */\n      tag_170\n        /* \"#utility.yul\":2831:2838   */\n      dup6\n        /* \"#utility.yul\":2822:2828   */\n      dup3\n        /* \"#utility.yul\":2811:2820   */\n      dup7\n        /* \"#utility.yul\":2807:2829   */\n      add\n        /* \"#utility.yul\":2786:2839   */\n      tag_137\n      jump\t// in\n    tag_170:\n        /* \"#utility.yul\":2776:2839   */\n      swap3\n      pop\n        /* \"#utility.yul\":2732:2849   */\n      pop\n        /* \"#utility.yul\":2888:2890   */\n      0x20\n        /* \"#utility.yul\":2914:2967   */\n      tag_171\n        /* \"#utility.yul\":2959:2966   */\n      dup6\n        /* \"#utility.yul\":2950:2956   */\n      dup3\n        /* \"#utility.yul\":2939:2948   */\n      dup7\n        /* \"#utility.yul\":2935:2957   */\n      add\n        /* \"#utility.yul\":2914:2967   */\n      tag_147\n      jump\t// in\n    tag_171:\n        /* \"#utility.yul\":2904:2967   */\n      swap2\n      pop\n        /* \"#utility.yul\":2859:2977   */\n      pop\n        /* \"#utility.yul\":2510:2984   */\n      swap3\n      pop\n      swap3\n      swap1\n      pop\n      jump\t// out\n        /* \"#utility.yul\":2990:3787   */\n    tag_62:\n        /* \"#utility.yul\":3076:3082   */\n      0x00\n        /* \"#utility.yul\":3084:3090   */\n      dup1\n        /* \"#utility.yul\":3092:3098   */\n      0x00\n        /* \"#utility.yul\":3141:3143   */\n      0x60\n        /* \"#utility.yul\":3129:3138   */\n      dup5\n        /* \"#utility.yul\":3120:3127   */\n      dup7\n        /* \"#utility.yul\":3116:3139   */\n      sub\n        /* \"#utility.yul\":3112:3144   */\n      slt\n        /* \"#utility.yul\":3109:3228   */\n      iszero\n      tag_173\n      jumpi\n        /* \"#utility.yul\":3147:3226   */\n      tag_174\n      tag_154\n      jump\t// in\n    tag_174:\n        /* \"#utility.yul\":3109:3228   */\n    tag_173:\n        /* \"#utility.yul\":3267:3268   */\n      0x00\n        /* \"#utility.yul\":3292:3345   */\n      tag_175\n        /* \"#utility.yul\":3337:3344   */\n      dup7\n        /* \"#utility.yul\":3328:3334   */\n      dup3\n        /* \"#utility.yul\":3317:3326   */\n      dup8\n        /* \"#utility.yul\":3313:3335   */\n      add\n        /* \"#utility.yul\":3292:3345   */\n      tag_137\n      jump\t// in\n    tag_175:\n        /* \"#utility.yul\":3282:3345   */\n      swap4\n      pop\n        /* \"#utility.yul\":3238:3355   */\n      pop\n        /* \"#utility.yul\":3394:3396   */\n      0x20\n        /* \"#utility.yul\":3420:3473   */\n      tag_176\n        /* \"#utility.yul\":3465:3472   */\n      dup7\n        /* \"#utility.yul\":3456:3462   */\n      dup3\n        /* \"#utility.yul\":3445:3454   */\n      dup8\n        /* \"#utility.yul\":3441:3463   */\n      add\n        /* \"#utility.yul\":3420:3473   */\n      tag_147\n      jump\t// in\n    tag_176:\n        /* \"#utility.yul\":3410:3473   */\n      swap3\n      pop\n        /* \"#utility.yul\":3365:3483   */\n      pop\n        /* \"#utility.yul\":3550:3552   */\n      0x40\n        /* \"#utility.yul\":3539:3548   */\n      dup5\n        /* \"#utility.yul\":3535:3553   */\n      add\n        /* \"#utility.yul\":3522:3554   */\n      calldataload\n        /* \"#utility.yul\":3581:3599   */\n      0xffffffffffffffff\n        /* \"#utility.yul\":3573:3579   */\n      dup2\n        /* \"#utility.yul\":3570:3600   */\n      gt\n        /* \"#utility.yul\":3567:3684   */\n      iszero\n      tag_177\n      jumpi\n        /* \"#utility.yul\":3603:3682   */\n      tag_178\n      tag_179\n      jump\t// in\n    tag_178:\n        /* \"#utility.yul\":3567:3684   */\n    tag_177:\n        /* \"#utility.yul\":3708:3770   */\n      tag_180\n        /* \"#utility.yul\":3762:3769   */\n      dup7\n        /* \"#utility.yul\":3753:3759   */\n      dup3\n        /* \"#utility.yul\":3742:3751   */\n      dup8\n        /* \"#utility.yul\":3738:3760   */\n      add\n        /* \"#utility.yul\":3708:3770   */\n      tag_141\n      jump\t// in\n    tag_180:\n        /* \"#utility.yul\":3698:3770   */\n      swap2\n      pop\n        /* \"#utility.yul\":3493:3780   */\n      pop\n        /* \"#utility.yul\":2990:3787   */\n      swap3\n      pop\n      swap3\n      pop\n      swap3\n      jump\t// out\n        /* \"#utility.yul\":3793:4122   */\n    tag_41:\n        /* \"#utility.yul\":3852:3858   */\n      0x00\n        /* \"#utility.yul\":3901:3903   */\n      0x20\n        /* \"#utility.yul\":3889:3898   */\n      dup3\n        /* \"#utility.yul\":3880:3887   */\n      dup5\n        /* \"#utility.yul\":3876:3899   */\n      sub\n        /* \"#utility.yul\":3872:3904   */\n      slt\n        /* \"#utility.yul\":3869:3988   */\n      iszero\n      tag_182\n      jumpi\n        /* \"#utility.yul\":3907:3986   */\n      tag_183\n      tag_154\n      jump\t// in\n    tag_183:\n        /* \"#utility.yul\":3869:3988   */\n    tag_182:\n        /* \"#utility.yul\":4027:4028   */\n      0x00\n        /* \"#utility.yul\":4052:4105   */\n      tag_184\n        /* \"#utility.yul\":4097:4104   */\n      dup5\n        /* \"#utility.yul\":4088:4094   */\n      dup3\n        /* \"#utility.yul\":4077:4086   */\n      dup6\n        /* \"#utility.yul\":4073:4095   */\n      add\n        /* \"#utility.yul\":4052:4105   */\n      tag_147\n      jump\t// in\n    tag_184:\n        /* \"#utility.yul\":4042:4105   */\n      swap2\n      pop\n        /* \"#utility.yul\":3998:4115   */\n      pop\n        /* \"#utility.yul\":3793:4122   */\n      swap3\n      swap2\n      pop\n      pop\n      jump\t// out\n        /* \"#utility.yul\":4128:4246   */\n    tag_185:\n        /* \"#utility.yul\":4215:4239   */\n      tag_187\n        /* \"#utility.yul\":4233:4238   */\n      dup2\n        /* \"#utility.yul\":4215:4239   */\n      tag_188\n      jump\t// in\n    tag_187:\n        /* \"#utility.yul\":4210:4213   */\n      dup3\n        /* \"#utility.yul\":4203:4240   */\n      mstore\n        /* \"#utility.yul\":4128:4246   */\n      pop\n      pop\n      jump\t// out\n        /* \"#utility.yul\":4252:4361   */\n    tag_189:\n        /* \"#utility.yul\":4333:4354   */\n      tag_191\n        /* \"#utility.yul\":4348:4353   */\n      dup2\n        /* \"#utility.yul\":4333:4354   */\n      tag_192\n      jump\t// in\n    tag_191:\n        /* \"#utility.yul\":4328:4331   */\n      dup3\n        /* \"#utility.yul\":4321:4355   */\n      mstore\n        /* \"#utility.yul\":4252:4361   */\n      pop\n      pop\n      jump\t// out\n        /* \"#utility.yul\":4367:4727   */\n    tag_193:\n        /* \"#utility.yul\":4453:4456   */\n      0x00\n        /* \"#utility.yul\":4481:4519   */\n      tag_195\n        /* \"#utility.yul\":4513:4518   */\n      dup3\n        /* \"#utility.yul\":4481:4519   */\n      tag_196\n      jump\t// in\n    tag_195:\n        /* \"#utility.yul\":4535:4605   */\n      tag_197\n        /* \"#utility.yul\":4598:4604   */\n      dup2\n        /* \"#utility.yul\":4593:4596   */\n      dup6\n        /* \"#utility.yul\":4535:4605   */\n      tag_198\n      jump\t// in\n    tag_197:\n        /* \"#utility.yul\":4528:4605   */\n      swap4\n      pop\n        /* \"#utility.yul\":4614:4666   */\n      tag_199\n        /* \"#utility.yul\":4659:4665   */\n      dup2\n        /* \"#utility.yul\":4654:4657   */\n      dup6\n        /* \"#utility.yul\":4647:4651   */\n      0x20\n        /* \"#utility.yul\":4640:4645   */\n      dup7\n        /* \"#utility.yul\":4636:4652   */\n      add\n        /* \"#utility.yul\":4614:4666   */\n      tag_200\n      jump\t// in\n    tag_199:\n        /* \"#utility.yul\":4691:4720   */\n      tag_201\n        /* \"#utility.yul\":4713:4719   */\n      dup2\n        /* \"#utility.yul\":4691:4720   */\n      tag_202\n      jump\t// in\n    tag_201:\n        /* \"#utility.yul\":4686:4689   */\n      dup5\n        /* \"#utility.yul\":4682:4721   */\n      add\n        /* \"#utility.yul\":4675:4721   */\n      swap2\n      pop\n        /* \"#utility.yul\":4457:4727   */\n      pop\n        /* \"#utility.yul\":4367:4727   */\n      swap3\n      swap2\n      pop\n      pop\n      jump\t// out\n        /* \"#utility.yul\":4733:5097   */\n    tag_203:\n        /* \"#utility.yul\":4821:4824   */\n      0x00\n        /* \"#utility.yul\":4849:4888   */\n      tag_205\n        /* \"#utility.yul\":4882:4887   */\n      dup3\n        /* \"#utility.yul\":4849:4888   */\n      tag_206\n      jump\t// in\n    tag_205:\n        /* \"#utility.yul\":4904:4975   */\n      tag_207\n        /* \"#utility.yul\":4968:4974   */\n      dup2\n        /* \"#utility.yul\":4963:4966   */\n      dup6\n        /* \"#utility.yul\":4904:4975   */\n      tag_208\n      jump\t// in\n    tag_207:\n        /* \"#utility.yul\":4897:4975   */\n      swap4\n      pop\n        /* \"#utility.yul\":4984:5036   */\n      tag_209\n        /* \"#utility.yul\":5029:5035   */\n      dup2\n        /* \"#utility.yul\":5024:5027   */\n      dup6\n        /* \"#utility.yul\":5017:5021   */\n      0x20\n        /* \"#utility.yul\":5010:5015   */\n      dup7\n        /* \"#utility.yul\":5006:5022   */\n      add\n        /* \"#utility.yul\":4984:5036   */\n      tag_200\n      jump\t// in\n    tag_209:\n        /* \"#utility.yul\":5061:5090   */\n      tag_210\n        /* \"#utility.yul\":5083:5089   */\n      dup2\n        /* \"#utility.yul\":5061:5090   */\n      tag_202\n      jump\t// in\n    tag_210:\n        /* \"#utility.yul\":5056:5059   */\n      dup5\n        /* \"#utility.yul\":5052:5091   */\n      add\n        /* \"#utility.yul\":5045:5091   */\n      swap2\n      pop\n        /* \"#utility.yul\":4825:5097   */\n      pop\n        /* \"#utility.yul\":4733:5097   */\n      swap3\n      swap2\n      pop\n      pop\n      jump\t// out\n        /* \"#utility.yul\":5103:5221   */\n    tag_211:\n        /* \"#utility.yul\":5190:5214   */\n      tag_213\n        /* \"#utility.yul\":5208:5213   */\n      dup2\n        /* \"#utility.yul\":5190:5214   */\n      tag_214\n      jump\t// in\n    tag_213:\n        /* \"#utility.yul\":5185:5188   */\n      dup3\n        /* \"#utility.yul\":5178:5215   */\n      mstore\n        /* \"#utility.yul\":5103:5221   */\n      pop\n      pop\n      jump\t// out\n        /* \"#utility.yul\":5227:5339   */\n    tag_215:\n        /* \"#utility.yul\":5310:5332   */\n      tag_217\n        /* \"#utility.yul\":5326:5331   */\n      dup2\n        /* \"#utility.yul\":5310:5332   */\n      tag_218\n      jump\t// in\n    tag_217:\n        /* \"#utility.yul\":5305:5308   */\n      dup3\n        /* \"#utility.yul\":5298:5333   */\n      mstore\n        /* \"#utility.yul\":5227:5339   */\n      pop\n      pop\n      jump\t// out\n        /* \"#utility.yul\":5345:5985   */\n    tag_107:\n        /* \"#utility.yul\":5540:5544   */\n      0x00\n        /* \"#utility.yul\":5578:5581   */\n      0x80\n        /* \"#utility.yul\":5567:5576   */\n      dup3\n        /* \"#utility.yul\":5563:5582   */\n      add\n        /* \"#utility.yul\":5555:5582   */\n      swap1\n      pop\n        /* \"#utility.yul\":5592:5663   */\n      tag_220\n        /* \"#utility.yul\":5660:5661   */\n      0x00\n        /* \"#utility.yul\":5649:5658   */\n      dup4\n        /* \"#utility.yul\":5645:5662   */\n      add\n        /* \"#utility.yul\":5636:5642   */\n      dup8\n        /* \"#utility.yul\":5592:5663   */\n      tag_185\n      jump\t// in\n    tag_220:\n        /* \"#utility.yul\":5673:5745   */\n      tag_221\n        /* \"#utility.yul\":5741:5743   */\n      0x20\n        /* \"#utility.yul\":5730:5739   */\n      dup4\n        /* \"#utility.yul\":5726:5744   */\n      add\n        /* \"#utility.yul\":5717:5723   */\n      dup7\n        /* \"#utility.yul\":5673:5745   */\n      tag_211\n      jump\t// in\n    tag_221:\n        /* \"#utility.yul\":5755:5827   */\n      tag_222\n        /* \"#utility.yul\":5823:5825   */\n      0x40\n        /* \"#utility.yul\":5812:5821   */\n      dup4\n        /* \"#utility.yul\":5808:5826   */\n      add\n        /* \"#utility.yul\":5799:5805   */\n      dup6\n        /* \"#utility.yul\":5755:5827   */\n      tag_185\n      jump\t// in\n    tag_222:\n        /* \"#utility.yul\":5874:5883   */\n      dup2\n        /* \"#utility.yul\":5868:5872   */\n      dup2\n        /* \"#utility.yul\":5864:5884   */\n      sub\n        /* \"#utility.yul\":5859:5861   */\n      0x60\n        /* \"#utility.yul\":5848:5857   */\n      dup4\n        /* \"#utility.yul\":5844:5862   */\n      add\n        /* \"#utility.yul\":5837:5885   */\n      mstore\n        /* \"#utility.yul\":5902:5978   */\n      tag_223\n        /* \"#utility.yul\":5973:5977   */\n      dup2\n        /* \"#utility.yul\":5964:5970   */\n      dup5\n        /* \"#utility.yul\":5902:5978   */\n      tag_193\n      jump\t// in\n    tag_223:\n        /* \"#utility.yul\":5894:5978   */\n      swap1\n      pop\n        /* \"#utility.yul\":5345:5985   */\n      swap6\n      swap5\n      pop\n      pop\n      pop\n      pop\n      pop\n      jump\t// out\n        /* \"#utility.yul\":5991:6201   */\n    tag_25:\n        /* \"#utility.yul\":6078:6082   */\n      0x00\n        /* \"#utility.yul\":6116:6118   */\n      0x20\n        /* \"#utility.yul\":6105:6114   */\n      dup3\n        /* \"#utility.yul\":6101:6119   */\n      add\n        /* \"#utility.yul\":6093:6119   */\n      swap1\n      pop\n        /* \"#utility.yul\":6129:6194   */\n      tag_225\n        /* \"#utility.yul\":6191:6192   */\n      0x00\n        /* \"#utility.yul\":6180:6189   */\n      dup4\n        /* \"#utility.yul\":6176:6193   */\n      add\n        /* \"#utility.yul\":6167:6173   */\n      dup5\n        /* \"#utility.yul\":6129:6194   */\n      tag_189\n      jump\t// in\n    tag_225:\n        /* \"#utility.yul\":5991:6201   */\n      swap3\n      swap2\n      pop\n      pop\n      jump\t// out\n        /* \"#utility.yul\":6207:6520   */\n    tag_19:\n        /* \"#utility.yul\":6320:6324   */\n      0x00\n        /* \"#utility.yul\":6358:6360   */\n      0x20\n        /* \"#utility.yul\":6347:6356   */\n      dup3\n        /* \"#utility.yul\":6343:6361   */\n      add\n        /* \"#utility.yul\":6335:6361   */\n      swap1\n      pop\n        /* \"#utility.yul\":6407:6416   */\n      dup2\n        /* \"#utility.yul\":6401:6405   */\n      dup2\n        /* \"#utility.yul\":6397:6417   */\n      sub\n        /* \"#utility.yul\":6393:6394   */\n      0x00\n        /* \"#utility.yul\":6382:6391   */\n      dup4\n        /* \"#utility.yul\":6378:6395   */\n      add\n        /* \"#utility.yul\":6371:6418   */\n      mstore\n        /* \"#utility.yul\":6435:6513   */\n      tag_227\n        /* \"#utility.yul\":6508:6512   */\n      dup2\n        /* \"#utility.yul\":6499:6505   */\n      dup5\n        /* \"#utility.yul\":6435:6513   */\n      tag_203\n      jump\t// in\n    tag_227:\n        /* \"#utility.yul\":6427:6513   */\n      swap1\n      pop\n        /* \"#utility.yul\":6207:6520   */\n      swap3\n      swap2\n      pop\n      pop\n      jump\t// out\n        /* \"#utility.yul\":6526:6748   */\n    tag_29:\n        /* \"#utility.yul\":6619:6623   */\n      0x00\n        /* \"#utility.yul\":6657:6659   */\n      0x20\n        /* \"#utility.yul\":6646:6655   */\n      dup3\n        /* \"#utility.yul\":6642:6660   */\n      add\n        /* \"#utility.yul\":6634:6660   */\n      swap1\n      pop\n        /* \"#utility.yul\":6670:6741   */\n      tag_229\n        /* \"#utility.yul\":6738:6739   */\n      0x00\n        /* \"#utility.yul\":6727:6736   */\n      dup4\n        /* \"#utility.yul\":6723:6740   */\n      add\n        /* \"#utility.yul\":6714:6720   */\n      dup5\n        /* \"#utility.yul\":6670:6741   */\n      tag_211\n      jump\t// in\n    tag_229:\n        /* \"#utility.yul\":6526:6748   */\n      swap3\n      swap2\n      pop\n      pop\n      jump\t// out\n        /* \"#utility.yul\":6754:6968   */\n    tag_38:\n        /* \"#utility.yul\":6843:6847   */\n      0x00\n        /* \"#utility.yul\":6881:6883   */\n      0x20\n        /* \"#utility.yul\":6870:6879   */\n      dup3\n        /* \"#utility.yul\":6866:6884   */\n      add\n        /* \"#utility.yul\":6858:6884   */\n      swap1\n      pop\n        /* \"#utility.yul\":6894:6961   */\n      tag_231\n        /* \"#utility.yul\":6958:6959   */\n      0x00\n        /* \"#utility.yul\":6947:6956   */\n      dup4\n        /* \"#utility.yul\":6943:6960   */\n      add\n        /* \"#utility.yul\":6934:6940   */\n      dup5\n        /* \"#utility.yul\":6894:6961   */\n      tag_215\n      jump\t// in\n    tag_231:\n        /* \"#utility.yul\":6754:6968   */\n      swap3\n      swap2\n      pop\n      pop\n      jump\t// out\n        /* \"#utility.yul\":6974:7103   */\n    tag_131:\n        /* \"#utility.yul\":7008:7014   */\n      0x00\n        /* \"#utility.yul\":7035:7055   */\n      tag_233\n      tag_234\n      jump\t// in\n    tag_233:\n        /* \"#utility.yul\":7025:7055   */\n      swap1\n      pop\n        /* \"#utility.yul\":7064:7097   */\n      tag_235\n        /* \"#utility.yul\":7092:7096   */\n      dup3\n        /* \"#utility.yul\":7084:7090   */\n      dup3\n        /* \"#utility.yul\":7064:7097   */\n      tag_236\n      jump\t// in\n    tag_235:\n        /* \"#utility.yul\":6974:7103   */\n      swap2\n      swap1\n      pop\n      jump\t// out\n        /* \"#utility.yul\":7109:7184   */\n    tag_234:\n        /* \"#utility.yul\":7142:7148   */\n      0x00\n        /* \"#utility.yul\":7175:7177   */\n      0x40\n        /* \"#utility.yul\":7169:7178   */\n      mload\n        /* \"#utility.yul\":7159:7178   */\n      swap1\n      pop\n        /* \"#utility.yul\":7109:7184   */\n      swap1\n      jump\t// out\n        /* \"#utility.yul\":7190:7497   */\n    tag_130:\n        /* \"#utility.yul\":7251:7255   */\n      0x00\n        /* \"#utility.yul\":7341:7359   */\n      0xffffffffffffffff\n        /* \"#utility.yul\":7333:7339   */\n      dup3\n        /* \"#utility.yul\":7330:7360   */\n      gt\n        /* \"#utility.yul\":7327:7383   */\n      iszero\n      tag_239\n      jumpi\n        /* \"#utility.yul\":7363:7381   */\n      tag_240\n      tag_241\n      jump\t// in\n    tag_240:\n        /* \"#utility.yul\":7327:7383   */\n    tag_239:\n        /* \"#utility.yul\":7401:7430   */\n      tag_242\n        /* \"#utility.yul\":7423:7429   */\n      dup3\n        /* \"#utility.yul\":7401:7430   */\n      tag_202\n      jump\t// in\n    tag_242:\n        /* \"#utility.yul\":7393:7430   */\n      swap1\n      pop\n        /* \"#utility.yul\":7485:7489   */\n      0x20\n        /* \"#utility.yul\":7479:7483   */\n      dup2\n        /* \"#utility.yul\":7475:7490   */\n      add\n        /* \"#utility.yul\":7467:7490   */\n      swap1\n      pop\n        /* \"#utility.yul\":7190:7497   */\n      swap2\n      swap1\n      pop\n      jump\t// out\n        /* \"#utility.yul\":7503:7601   */\n    tag_196:\n        /* \"#utility.yul\":7554:7560   */\n      0x00\n        /* \"#utility.yul\":7588:7593   */\n      dup2\n        /* \"#utility.yul\":7582:7594   */\n      mload\n        /* \"#utility.yul\":7572:7594   */\n      swap1\n      pop\n        /* \"#utility.yul\":7503:7601   */\n      swap2\n      swap1\n      pop\n      jump\t// out\n        /* \"#utility.yul\":7607:7706   */\n    tag_206:\n        /* \"#utility.yul\":7659:7665   */\n      0x00\n        /* \"#utility.yul\":7693:7698   */\n      dup2\n        /* \"#utility.yul\":7687:7699   */\n      mload\n        /* \"#utility.yul\":7677:7699   */\n      swap1\n      pop\n        /* \"#utility.yul\":7607:7706   */\n      swap2\n      swap1\n      pop\n      jump\t// out\n        /* \"#utility.yul\":7712:7880   */\n    tag_198:\n        /* \"#utility.yul\":7795:7806   */\n      0x00\n        /* \"#utility.yul\":7829:7835   */\n      dup3\n        /* \"#utility.yul\":7824:7827   */\n      dup3\n        /* \"#utility.yul\":7817:7836   */\n      mstore\n        /* \"#utility.yul\":7869:7873   */\n      0x20\n        /* \"#utility.yul\":7864:7867   */\n      dup3\n        /* \"#utility.yul\":7860:7874   */\n      add\n        /* \"#utility.yul\":7845:7874   */\n      swap1\n      pop\n        /* \"#utility.yul\":7712:7880   */\n      swap3\n      swap2\n      pop\n      pop\n      jump\t// out\n        /* \"#utility.yul\":7886:8055   */\n    tag_208:\n        /* \"#utility.yul\":7970:7981   */\n      0x00\n        /* \"#utility.yul\":8004:8010   */\n      dup3\n        /* \"#utility.yul\":7999:8002   */\n      dup3\n        /* \"#utility.yul\":7992:8011   */\n      mstore\n        /* \"#utility.yul\":8044:8048   */\n      0x20\n        /* \"#utility.yul\":8039:8042   */\n      dup3\n        /* \"#utility.yul\":8035:8049   */\n      add\n        /* \"#utility.yul\":8020:8049   */\n      swap1\n      pop\n        /* \"#utility.yul\":7886:8055   */\n      swap3\n      swap2\n      pop\n      pop\n      jump\t// out\n        /* \"#utility.yul\":8061:8366   */\n    tag_115:\n        /* \"#utility.yul\":8101:8104   */\n      0x00\n        /* \"#utility.yul\":8120:8140   */\n      tag_248\n        /* \"#utility.yul\":8138:8139   */\n      dup3\n        /* \"#utility.yul\":8120:8140   */\n      tag_214\n      jump\t// in\n    tag_248:\n        /* \"#utility.yul\":8115:8140   */\n      swap2\n      pop\n        /* \"#utility.yul\":8154:8174   */\n      tag_249\n        /* \"#utility.yul\":8172:8173   */\n      dup4\n        /* \"#utility.yul\":8154:8174   */\n      tag_214\n      jump\t// in\n    tag_249:\n        /* \"#utility.yul\":8149:8174   */\n      swap3\n      pop\n        /* \"#utility.yul\":8308:8309   */\n      dup3\n        /* \"#utility.yul\":8240:8306   */\n      0xffffffffffffffffffffffffffffffffffffffffffffffffffffffffffffffff\n        /* \"#utility.yul\":8236:8310   */\n      sub\n        /* \"#utility.yul\":8233:8234   */\n      dup3\n        /* \"#utility.yul\":8230:8311   */\n      gt\n        /* \"#utility.yul\":8227:8334   */\n      iszero\n      tag_250\n      jumpi\n        /* \"#utility.yul\":8314:8332   */\n      tag_251\n      tag_252\n      jump\t// in\n    tag_251:\n        /* \"#utility.yul\":8227:8334   */\n    tag_250:\n        /* \"#utility.yul\":8358:8359   */\n      dup3\n        /* \"#utility.yul\":8355:8356   */\n      dup3\n        /* \"#utility.yul\":8351:8360   */\n      add\n        /* \"#utility.yul\":8344:8360   */\n      swap1\n      pop\n        /* \"#utility.yul\":8061:8366   */\n      swap3\n      swap2\n      pop\n      pop\n      jump\t// out\n        /* \"#utility.yul\":8372:8563   */\n    tag_81:\n        /* \"#utility.yul\":8412:8416   */\n      0x00\n        /* \"#utility.yul\":8432:8452   */\n      tag_254\n        /* \"#utility.yul\":8450:8451   */\n      dup3\n        /* \"#utility.yul\":8432:8452   */\n      tag_214\n      jump\t// in\n    tag_254:\n        /* \"#utility.yul\":8427:8452   */\n      swap2\n      pop\n        /* \"#utility.yul\":8466:8486   */\n      tag_255\n        /* \"#utility.yul\":8484:8485   */\n      dup4\n        /* \"#utility.yul\":8466:8486   */\n      tag_214\n      jump\t// in\n    tag_255:\n        /* \"#utility.yul\":8461:8486   */\n      swap3\n      pop\n        /* \"#utility.yul\":8505:8506   */\n      dup3\n        /* \"#utility.yul\":8502:8503   */\n      dup3\n        /* \"#utility.yul\":8499:8507   */\n      lt\n        /* \"#utility.yul\":8496:8530   */\n      iszero\n      tag_256\n      jumpi\n        /* \"#utility.yul\":8510:8528   */\n      tag_257\n      tag_252\n      jump\t// in\n    tag_257:\n        /* \"#utility.yul\":8496:8530   */\n    tag_256:\n        /* \"#utility.yul\":8555:8556   */\n      dup3\n        /* \"#utility.yul\":8552:8553   */\n      dup3\n        /* \"#utility.yul\":8548:8557   */\n      sub\n        /* \"#utility.yul\":8540:8557   */\n      swap1\n      pop\n        /* \"#utility.yul\":8372:8563   */\n      swap3\n      swap2\n      pop\n      pop\n      jump\t// out\n        /* \"#utility.yul\":8569:8665   */\n    tag_188:\n        /* \"#utility.yul\":8606:8613   */\n      0x00\n        /* \"#utility.yul\":8635:8659   */\n      tag_259\n        /* \"#utility.yul\":8653:8658   */\n      dup3\n        /* \"#utility.yul\":8635:8659   */\n      tag_260\n      jump\t// in\n    tag_259:\n        /* \"#utility.yul\":8624:8659   */\n      swap1\n      pop\n        /* \"#utility.yul\":8569:8665   */\n      swap2\n      swap1\n      pop\n      jump\t// out\n        /* \"#utility.yul\":8671:8761   */\n    tag_192:\n        /* \"#utility.yul\":8705:8712   */\n      0x00\n        /* \"#utility.yul\":8748:8753   */\n      dup2\n        /* \"#utility.yul\":8741:8754   */\n      iszero\n        /* \"#utility.yul\":8734:8755   */\n      iszero\n        /* \"#utility.yul\":8723:8755   */\n      swap1\n      pop\n        /* \"#utility.yul\":8671:8761   */\n      swap2\n      swap1\n      pop\n      jump\t// out\n        /* \"#utility.yul\":8767:8893   */\n    tag_260:\n        /* \"#utility.yul\":8804:8811   */\n      0x00\n        /* \"#utility.yul\":8844:8886   */\n      0xffffffffffffffffffffffffffffffffffffffff\n        /* \"#utility.yul\":8837:8842   */\n      dup3\n        /* \"#utility.yul\":8833:8887   */\n      and\n        /* \"#utility.yul\":8822:8887   */\n      swap1\n      pop\n        /* \"#utility.yul\":8767:8893   */\n      swap2\n      swap1\n      pop\n      jump\t// out\n        /* \"#utility.yul\":8899:8976   */\n    tag_214:\n        /* \"#utility.yul\":8936:8943   */\n      0x00\n        /* \"#utility.yul\":8965:8970   */\n      dup2\n        /* \"#utility.yul\":8954:8970   */\n      swap1\n      pop\n        /* \"#utility.yul\":8899:8976   */\n      swap2\n      swap1\n      pop\n      jump\t// out\n        /* \"#utility.yul\":8982:9068   */\n    tag_218:\n        /* \"#utility.yul\":9017:9024   */\n      0x00\n        /* \"#utility.yul\":9057:9061   */\n      0xff\n        /* \"#utility.yul\":9050:9055   */\n      dup3\n        /* \"#utility.yul\":9046:9062   */\n      and\n        /* \"#utility.yul\":9035:9062   */\n      swap1\n      pop\n        /* \"#utility.yul\":8982:9068   */\n      swap2\n      swap1\n      pop\n      jump\t// out\n        /* \"#utility.yul\":9074:9228   */\n    tag_136:\n        /* \"#utility.yul\":9158:9164   */\n      dup3\n        /* \"#utility.yul\":9153:9156   */\n      dup2\n        /* \"#utility.yul\":9148:9151   */\n      dup4\n        /* \"#utility.yul\":9135:9165   */\n      calldatacopy\n        /* \"#utility.yul\":9220:9221   */\n      0x00\n        /* \"#utility.yul\":9211:9217   */\n      dup4\n        /* \"#utility.yul\":9206:9209   */\n      dup4\n        /* \"#utility.yul\":9202:9218   */\n      add\n        /* \"#utility.yul\":9195:9222   */\n      mstore\n        /* \"#utility.yul\":9074:9228   */\n      pop\n      pop\n      pop\n      jump\t// out\n        /* \"#utility.yul\":9234:9541   */\n    tag_200:\n        /* \"#utility.yul\":9302:9303   */\n      0x00\n        /* \"#utility.yul\":9312:9425   */\n    tag_267:\n        /* \"#utility.yul\":9326:9332   */\n      dup4\n        /* \"#utility.yul\":9323:9324   */\n      dup2\n        /* \"#utility.yul\":9320:9333   */\n      lt\n        /* \"#utility.yul\":9312:9425   */\n      iszero\n      tag_269\n      jumpi\n        /* \"#utility.yul\":9411:9412   */\n      dup1\n        /* \"#utility.yul\":9406:9409   */\n      dup3\n        /* \"#utility.yul\":9402:9413   */\n      add\n        /* \"#utility.yul\":9396:9414   */\n      mload\n        /* \"#utility.yul\":9392:9393   */\n      dup2\n        /* \"#utility.yul\":9387:9390   */\n      dup5\n        /* \"#utility.yul\":9383:9394   */\n      add\n        /* \"#utility.yul\":9376:9415   */\n      mstore\n        /* \"#utility.yul\":9348:9350   */\n      0x20\n        /* \"#utility.yul\":9345:9346   */\n      dup2\n        /* \"#utility.yul\":9341:9351   */\n      add\n        /* \"#utility.yul\":9336:9351   */\n      swap1\n      pop\n        /* \"#utility.yul\":9312:9425   */\n      jump(tag_267)\n    tag_269:\n        /* \"#utility.yul\":9443:9449   */\n      dup4\n        /* \"#utility.yul\":9440:9441   */\n      dup2\n        /* \"#utility.yul\":9437:9450   */\n      gt\n        /* \"#utility.yul\":9434:9535   */\n      iszero\n      tag_270\n      jumpi\n        /* \"#utility.yul\":9523:9524   */\n      0x00\n        /* \"#utility.yul\":9514:9520   */\n      dup5\n        /* \"#utility.yul\":9509:9512   */\n      dup5\n        /* \"#utility.yul\":9505:9521   */\n      add\n        /* \"#utility.yul\":9498:9525   */\n      mstore\n        /* \"#utility.yul\":9434:9535   */\n    tag_270:\n        /* \"#utility.yul\":9283:9541   */\n      pop\n        /* \"#utility.yul\":9234:9541   */\n      pop\n      pop\n      pop\n      jump\t// out\n        /* \"#utility.yul\":9547:9867   */\n    tag_71:\n        /* \"#utility.yul\":9591:9597   */\n      0x00\n        /* \"#utility.yul\":9628:9629   */\n      0x02\n        /* \"#utility.yul\":9622:9626   */\n      dup3\n        /* \"#utility.yul\":9618:9630   */\n      div\n        /* \"#utility.yul\":9608:9630   */\n      swap1\n      pop\n        /* \"#utility.yul\":9675:9676   */\n      0x01\n        /* \"#utility.yul\":9669:9673   */\n      dup3\n        /* \"#utility.yul\":9665:9677   */\n      and\n        /* \"#utility.yul\":9696:9714   */\n      dup1\n        /* \"#utility.yul\":9686:9767   */\n      tag_272\n      jumpi\n        /* \"#utility.yul\":9752:9756   */\n      0x7f\n        /* \"#utility.yul\":9744:9750   */\n      dup3\n        /* \"#utility.yul\":9740:9757   */\n      and\n        /* \"#utility.yul\":9730:9757   */\n      swap2\n      pop\n        /* \"#utility.yul\":9686:9767   */\n    tag_272:\n        /* \"#utility.yul\":9814:9816   */\n      0x20\n        /* \"#utility.yul\":9806:9812   */\n      dup3\n        /* \"#utility.yul\":9803:9817   */\n      lt\n        /* \"#utility.yul\":9783:9801   */\n      dup2\n        /* \"#utility.yul\":9780:9818   */\n      eq\n        /* \"#utility.yul\":9777:9861   */\n      iszero\n      tag_273\n      jumpi\n        /* \"#utility.yul\":9833:9851   */\n      tag_274\n      tag_275\n      jump\t// in\n    tag_274:\n        /* \"#utility.yul\":9777:9861   */\n    tag_273:\n        /* \"#utility.yul\":9598:9867   */\n      pop\n        /* \"#utility.yul\":9547:9867   */\n      swap2\n      swap1\n      pop\n      jump\t// out\n        /* \"#utility.yul\":9873:10154   */\n    tag_236:\n        /* \"#utility.yul\":9956:9983   */\n      tag_277\n        /* \"#utility.yul\":9978:9982   */\n      dup3\n        /* \"#utility.yul\":9956:9983   */\n      tag_202\n      jump\t// in\n    tag_277:\n        /* \"#utility.yul\":9948:9954   */\n      dup2\n        /* \"#utility.yul\":9944:9984   */\n      add\n        /* \"#utility.yul\":10086:10092   */\n      dup2\n        /* \"#utility.yul\":10074:10084   */\n      dup2\n        /* \"#utility.yul\":10071:10093   */\n      lt\n        /* \"#utility.yul\":10050:10068   */\n      0xffffffffffffffff\n        /* \"#utility.yul\":10038:10048   */\n      dup3\n        /* \"#utility.yul\":10035:10069   */\n      gt\n        /* \"#utility.yul\":10032:10094   */\n      or\n        /* \"#utility.yul\":10029:10117   */\n      iszero\n      tag_278\n      jumpi\n        /* \"#utility.yul\":10097:10115   */\n      tag_279\n      tag_241\n      jump\t// in\n    tag_279:\n        /* \"#utility.yul\":10029:10117   */\n    tag_278:\n        /* \"#utility.yul\":10137:10147   */\n      dup1\n        /* \"#utility.yul\":10133:10135   */\n      0x40\n        /* \"#utility.yul\":10126:10148   */\n      mstore\n        /* \"#utility.yul\":9916:10154   */\n      pop\n        /* \"#utility.yul\":9873:10154   */\n      pop\n      pop\n      jump\t// out\n        /* \"#utility.yul\":10160:10340   */\n    tag_124:\n        /* \"#utility.yul\":10208:10285   */\n      0x4e487b7100000000000000000000000000000000000000000000000000000000\n        /* \"#utility.yul\":10205:10206   */\n      0x00\n        /* \"#utility.yul\":10198:10286   */\n      mstore\n        /* \"#utility.yul\":10305:10309   */\n      0x01\n        /* \"#utility.yul\":10302:10303   */\n      0x04\n        /* \"#utility.yul\":10295:10310   */\n      mstore\n        /* \"#utility.yul\":10329:10333   */\n      0x24\n        /* \"#utility.yul\":10326:10327   */\n      0x00\n        /* \"#utility.yul\":10319:10334   */\n      revert\n        /* \"#utility.yul\":10346:10526   */\n    tag_252:\n        /* \"#utility.yul\":10394:10471   */\n      0x4e487b7100000000000000000000000000000000000000000000000000000000\n        /* \"#utility.yul\":10391:10392   */\n      0x00\n        /* \"#utility.yul\":10384:10472   */\n      mstore\n        /* \"#utility.yul\":10491:10495   */\n      0x11\n        /* \"#utility.yul\":10488:10489   */\n      0x04\n        /* \"#utility.yul\":10481:10496   */\n      mstore\n        /* \"#utility.yul\":10515:10519   */\n      0x24\n        /* \"#utility.yul\":10512:10513   */\n      0x00\n        /* \"#utility.yul\":10505:10520   */\n      revert\n        /* \"#utility.yul\":10532:10712   */\n    tag_275:\n        /* \"#utility.yul\":10580:10657   */\n      0x4e487b7100000000000000000000000000000000000000000000000000000000\n        /* \"#utility.yul\":10577:10578   */\n      0x00\n        /* \"#utility.yul\":10570:10658   */\n      mstore\n        /* \"#utility.yul\":10677:10681   */\n      0x22\n        /* \"#utility.yul\":10674:10675   */\n      0x04\n        /* \"#utility.yul\":10667:10682   */\n      mstore\n        /* \"#utility.yul\":10701:10705   */\n      0x24\n        /* \"#utility.yul\":10698:10699   */\n      0x00\n        /* \"#utility.yul\":10691:10706   */\n      revert\n        /* \"#utility.yul\":10718:10898   */\n    tag_241:\n        /* \"#utility.yul\":10766:10843   */\n      0x4e487b7100000000000000000000000000000000000000000000000000000000\n        /* \"#utility.yul\":10763:10764   */\n      0x00\n        /* \"#utility.yul\":10756:10844   */\n      mstore\n        /* \"#utility.yul\":10863:10867   */\n      0x41\n        /* \"#utility.yul\":10860:10861   */\n      0x04\n        /* \"#utility.yul\":10853:10868   */\n      mstore\n        /* \"#utility.yul\":10887:10891   */\n      0x24\n        /* \"#utility.yul\":10884:10885   */\n      0x00\n        /* \"#utility.yul\":10877:10892   */\n      revert\n        /* \"#utility.yul\":10904:11021   */\n    tag_145:\n        /* \"#utility.yul\":11013:11014   */\n      0x00\n        /* \"#utility.yul\":11010:11011   */\n      dup1\n        /* \"#utility.yul\":11003:11015   */\n      revert\n        /* \"#utility.yul\":11027:11144   */\n    tag_134:\n        /* \"#utility.yul\":11136:11137   */\n      0x00\n        /* \"#utility.yul\":11133:11134   */\n      dup1\n        /* \"#utility.yul\":11126:11138   */\n      revert\n        /* \"#utility.yul\":11150:11267   */\n    tag_179:\n        /* \"#utility.yul\":11259:11260   */\n      0x00\n        /* \"#utility.yul\":11256:11257   */\n      dup1\n        /* \"#utility.yul\":11249:11261   */\n      revert\n        /* \"#utility.yul\":11273:11390   */\n    tag_154:\n        /* \"#utility.yul\":11382:11383   */\n      0x00\n        /* \"#utility.yul\":11379:11380   */\n      dup1\n        /* \"#utility.yul\":11372:11384   */\n      revert\n        /* \"#utility.yul\":11396:11498   */\n    tag_202:\n        /* \"#utility.yul\":11437:11443   */\n      0x00\n        /* \"#utility.yul\":11488:11490   */\n      0x1f\n        /* \"#utility.yul\":11484:11491   */\n      not\n        /* \"#utility.yul\":11479:11481   */\n      0x1f\n        /* \"#utility.yul\":11472:11477   */\n      dup4\n        /* \"#utility.yul\":11468:11482   */\n      add\n        /* \"#utility.yul\":11464:11492   */\n      and\n        /* \"#utility.yul\":11454:11492   */\n      swap1\n      pop\n        /* \"#utility.yul\":11396:11498   */\n      swap2\n      swap1\n      pop\n      jump\t// out\n        /* \"#utility.yul\":11504:11626   */\n    tag_140:\n        /* \"#utility.yul\":11577:11601   */\n      tag_290\n        /* \"#utility.yul\":11595:11600   */\n      dup2\n        /* \"#utility.yul\":11577:11601   */\n      tag_188\n      jump\t// in\n    tag_290:\n        /* \"#utility.yul\":11570:11575   */\n      dup2\n        /* \"#utility.yul\":11567:11602   */\n      eq\n        /* \"#utility.yul\":11557:11620   */\n      tag_291\n      jumpi\n        /* \"#utility.yul\":11616:11617   */\n      0x00\n        /* \"#utility.yul\":11613:11614   */\n      dup1\n        /* \"#utility.yul\":11606:11618   */\n      revert\n        /* \"#utility.yul\":11557:11620   */\n    tag_291:\n        /* \"#utility.yul\":11504:11626   */\n      pop\n      jump\t// out\n        /* \"#utility.yul\":11632:11754   */\n    tag_150:\n        /* \"#utility.yul\":11705:11729   */\n      tag_293\n        /* \"#utility.yul\":11723:11728   */\n      dup2\n        /* \"#utility.yul\":11705:11729   */\n      tag_214\n      jump\t// in\n    tag_293:\n        /* \"#utility.yul\":11698:11703   */\n      dup2\n        /* \"#utility.yul\":11695:11730   */\n      eq\n        /* \"#utility.yul\":11685:11748   */\n      tag_294\n      jumpi\n        /* \"#utility.yul\":11744:11745   */\n      0x00\n        /* \"#utility.yul\":11741:11742   */\n      dup1\n        /* \"#utility.yul\":11734:11746   */\n      revert\n        /* \"#utility.yul\":11685:11748   */\n    tag_294:\n        /* \"#utility.yul\":11632:11754   */\n      pop\n      jump\t// out\n\n    auxdata: 0xa2646970667358221220c126d6a6a5b10705880e74f664aeba7783ec169807788d1c0450bc5499cdbc4464736f6c63430008070033\n}\n",
				"bytecode": {
					"linkReferences": {},
					"object": "60806040526012600260006101000a81548160ff021916908360ff1602179055503480156200002d57600080fd5b5060405162001b6638038062001b6683398181016040528101906200005391906200024d565b600260009054906101000a900460ff1660ff16600a620000749190620003a1565b83620000819190620004de565b600381905550600354600460003373ffffffffffffffffffffffffffffffffffffffff1673ffffffffffffffffffffffffffffffffffffffff168152602001908152602001600020819055508160009080519060200190620000e592919062000108565b508060019080519060200190620000fe92919062000108565b50505050620006c4565b82805462000116906200057f565b90600052602060002090601f0160209004810192826200013a576000855562000186565b82601f106200015557805160ff191683800117855562000186565b8280016001018555821562000186579182015b828111156200018557825182559160200191906001019062000168565b5b50905062000195919062000199565b5090565b5b80821115620001b45760008160009055506001016200019a565b5090565b6000620001cf620001c98462000310565b620002e7565b905082815260208101848484011115620001ee57620001ed6200067d565b5b620001fb84828562000549565b509392505050565b600082601f8301126200021b576200021a62000678565b5b81516200022d848260208601620001b8565b91505092915050565b6000815190506200024781620006aa565b92915050565b60008060006060848603121562000269576200026862000687565b5b6000620002798682870162000236565b935050602084015167ffffffffffffffff8111156200029d576200029c62000682565b5b620002ab8682870162000203565b925050604084015167ffffffffffffffff811115620002cf57620002ce62000682565b5b620002dd8682870162000203565b9150509250925092565b6000620002f362000306565b9050620003018282620005b5565b919050565b6000604051905090565b600067ffffffffffffffff8211156200032e576200032d62000649565b5b62000339826200068c565b9050602081019050919050565b6000808291508390505b6001851115620003985780860481111562000370576200036f620005eb565b5b6001851615620003805780820291505b808102905062000390856200069d565b945062000350565b94509492505050565b6000620003ae826200053f565b9150620003bb836200053f565b9250620003ea7fffffffffffffffffffffffffffffffffffffffffffffffffffffffffffffffff8484620003f2565b905092915050565b600082620004045760019050620004d7565b81620004145760009050620004d7565b81600181146200042d576002811462000438576200046e565b6001915050620004d7565b60ff8411156200044d576200044c620005eb565b5b8360020a915084821115620004675762000466620005eb565b5b50620004d7565b5060208310610133831016604e8410600b8410161715620004a85782820a905083811115620004a257620004a1620005eb565b5b620004d7565b620004b7848484600162000346565b92509050818404811115620004d157620004d0620005eb565b5b81810290505b9392505050565b6000620004eb826200053f565b9150620004f8836200053f565b9250817fffffffffffffffffffffffffffffffffffffffffffffffffffffffffffffffff0483118215151615620005345762000533620005eb565b5b828202905092915050565b6000819050919050565b60005b83811015620005695780820151818401526020810190506200054c565b8381111562000579576000848401525b50505050565b600060028204905060018216806200059857607f821691505b60208210811415620005af57620005ae6200061a565b5b50919050565b620005c0826200068c565b810181811067ffffffffffffffff82111715620005e257620005e162000649565b5b80604052505050565b7f4e487b7100000000000000000000000000000000000000000000000000000000600052601160045260246000fd5b7f4e487b7100000000000000000000000000000000000000000000000000000000600052602260045260246000fd5b7f4e487b7100000000000000000000000000000000000000000000000000000000600052604160045260246000fd5b600080fd5b600080fd5b600080fd5b600080fd5b6000601f19601f8301169050919050565b60008160011c9050919050565b620006b5816200053f565b8114620006c157600080fd5b50565b61149280620006d46000396000f3fe608060405234801561001057600080fd5b50600436106100b45760003560e01c806370a082311161007157806370a08231146101a357806379cc6790146101d357806395d89b4114610203578063a9059cbb14610221578063cae9ca5114610251578063dd62ed3e14610281576100b4565b806306fdde03146100b9578063095ea7b3146100d757806318160ddd1461010757806323b872dd14610125578063313ce5671461015557806342966c6814610173575b600080fd5b6100c16102b1565b6040516100ce91906110e3565b60405180910390f35b6100f160048036038101906100ec9190610ef2565b61033f565b6040516100fe91906110c8565b60405180910390f35b61010f610431565b60405161011c9190611105565b60405180910390f35b61013f600480360381019061013a9190610e9f565b610437565b60405161014c91906110c8565b60405180910390f35b61015d61056b565b60405161016a9190611120565b60405180910390f35b61018d60048036038101906101889190610fa1565b61057e565b60405161019a91906110c8565b60405180910390f35b6101bd60048036038101906101b89190610e32565b610692565b6040516101ca9190611105565b60405180910390f35b6101ed60048036038101906101e89190610ef2565b6106aa565b6040516101fa91906110c8565b60405180910390f35b61020b6108db565b60405161021891906110e3565b60405180910390f35b61023b60048036038101906102369190610ef2565b610969565b60405161024891906110c8565b60405180910390f35b61026b60048036038101906102669190610f32565b610980565b60405161027891906110c8565b60405180910390f35b61029b60048036038101906102969190610e5f565b610a19565b6040516102a89190611105565b60405180910390f35b600080546102be906112ea565b80601f01602080910402602001604051908101604052809291908181526020018280546102ea906112ea565b80156103375780601f1061030c57610100808354040283529160200191610337565b820191906000526020600020905b81548152906001019060200180831161031a57829003601f168201915b505050505081565b600081600560003373ffffffffffffffffffffffffffffffffffffffff1673ffffffffffffffffffffffffffffffffffffffff16815260200190815260200160002060008573ffffffffffffffffffffffffffffffffffffffff1673ffffffffffffffffffffffffffffffffffffffff168152602001908152602001600020819055508273ffffffffffffffffffffffffffffffffffffffff163373ffffffffffffffffffffffffffffffffffffffff167f8c5be1e5ebec7d5bd14f71427d1e84f3dd0314c0f7b2291e5b200ac8c7c3b9258460405161041f9190611105565b60405180910390a36001905092915050565b60035481565b6000600560008573ffffffffffffffffffffffffffffffffffffffff1673ffffffffffffffffffffffffffffffffffffffff16815260200190815260200160002060003373ffffffffffffffffffffffffffffffffffffffff1673ffffffffffffffffffffffffffffffffffffffff168152602001908152602001600020548211156104c257600080fd5b81600560008673ffffffffffffffffffffffffffffffffffffffff1673ffffffffffffffffffffffffffffffffffffffff16815260200190815260200160002060003373ffffffffffffffffffffffffffffffffffffffff1673ffffffffffffffffffffffffffffffffffffffff168152602001908152602001600020600082825461054e919061121f565b92505081905550610560848484610a3e565b600190509392505050565b600260009054906101000a900460ff1681565b600081600460003373ffffffffffffffffffffffffffffffffffffffff1673ffffffffffffffffffffffffffffffffffffffff1681526020019081526020016000205410156105cc57600080fd5b81600460003373ffffffffffffffffffffffffffffffffffffffff1673ffffffffffffffffffffffffffffffffffffffff168152602001908152602001600020600082825461061b919061121f565b925050819055508160036000828254610634919061121f565b925050819055503373ffffffffffffffffffffffffffffffffffffffff167fcc16f5dbb4873280815c1ee09dbd06736cffcc184412cf7a71a0fdb75d397ca5836040516106819190611105565b60405180910390a260019050919050565b60046020528060005260406000206000915090505481565b600081600460008573ffffffffffffffffffffffffffffffffffffffff1673ffffffffffffffffffffffffffffffffffffffff1681526020019081526020016000205410156106f857600080fd5b600560008473ffffffffffffffffffffffffffffffffffffffff1673ffffffffffffffffffffffffffffffffffffffff16815260200190815260200160002060003373ffffffffffffffffffffffffffffffffffffffff1673ffffffffffffffffffffffffffffffffffffffff1681526020019081526020016000205482111561078157600080fd5b81600460008573ffffffffffffffffffffffffffffffffffffffff1673ffffffffffffffffffffffffffffffffffffffff16815260200190815260200160002060008282546107d0919061121f565b9250508190555081600560008573ffffffffffffffffffffffffffffffffffffffff1673ffffffffffffffffffffffffffffffffffffffff16815260200190815260200160002060003373ffffffffffffffffffffffffffffffffffffffff1673ffffffffffffffffffffffffffffffffffffffff1681526020019081526020016000206000828254610863919061121f565b92505081905550816003600082825461087c919061121f565b925050819055508273ffffffffffffffffffffffffffffffffffffffff167fcc16f5dbb4873280815c1ee09dbd06736cffcc184412cf7a71a0fdb75d397ca5836040516108c99190611105565b60405180910390a26001905092915050565b600180546108e8906112ea565b80601f0160208091040260200160405190810160405280929190818152602001828054610914906112ea565b80156109615780601f1061093657610100808354040283529160200191610961565b820191906000526020600020905b81548152906001019060200180831161094457829003601f168201915b505050505081565b6000610976338484610a3e565b6001905092915050565b600080849050610990858561033f565b15610a10578073ffffffffffffffffffffffffffffffffffffffff16638f4ffcb1338630876040518563ffffffff1660e01b81526004016109d4949392919061107c565b600060405180830381600087803b1580156109ee57600080fd5b505af1158015610a02573d6000803e3d6000fd5b505050506001915050610a12565b505b9392505050565b6005602052816000526040600020602052806000526040600020600091509150505481565b600073ffffffffffffffffffffffffffffffffffffffff168273ffffffffffffffffffffffffffffffffffffffff161415610a7857600080fd5b80600460008573ffffffffffffffffffffffffffffffffffffffff1673ffffffffffffffffffffffffffffffffffffffff168152602001908152602001600020541015610ac457600080fd5b600460008373ffffffffffffffffffffffffffffffffffffffff1673ffffffffffffffffffffffffffffffffffffffff1681526020019081526020016000205481600460008573ffffffffffffffffffffffffffffffffffffffff1673ffffffffffffffffffffffffffffffffffffffff16815260200190815260200160002054610b4f91906111c9565b1015610b5a57600080fd5b6000600460008473ffffffffffffffffffffffffffffffffffffffff1673ffffffffffffffffffffffffffffffffffffffff16815260200190815260200160002054600460008673ffffffffffffffffffffffffffffffffffffffff1673ffffffffffffffffffffffffffffffffffffffff16815260200190815260200160002054610be691906111c9565b905081600460008673ffffffffffffffffffffffffffffffffffffffff1673ffffffffffffffffffffffffffffffffffffffff1681526020019081526020016000206000828254610c37919061121f565b9250508190555081600460008573ffffffffffffffffffffffffffffffffffffffff1673ffffffffffffffffffffffffffffffffffffffff1681526020019081526020016000206000828254610c8d91906111c9565b925050819055508273ffffffffffffffffffffffffffffffffffffffff168473ffffffffffffffffffffffffffffffffffffffff167fddf252ad1be2c89b69c2b068fc378daa952ba7f163c4a11628f55a4df523b3ef84604051610cf19190611105565b60405180910390a380600460008573ffffffffffffffffffffffffffffffffffffffff1673ffffffffffffffffffffffffffffffffffffffff16815260200190815260200160002054600460008773ffffffffffffffffffffffffffffffffffffffff1673ffffffffffffffffffffffffffffffffffffffff16815260200190815260200160002054610d8491906111c9565b14610d9257610d9161134d565b5b50505050565b6000610dab610da684611160565b61113b565b905082815260208101848484011115610dc757610dc661140e565b5b610dd28482856112a8565b509392505050565b600081359050610de98161142e565b92915050565b600082601f830112610e0457610e03611409565b5b8135610e14848260208601610d98565b91505092915050565b600081359050610e2c81611445565b92915050565b600060208284031215610e4857610e47611418565b5b6000610e5684828501610dda565b91505092915050565b60008060408385031215610e7657610e75611418565b5b6000610e8485828601610dda565b9250506020610e9585828601610dda565b9150509250929050565b600080600060608486031215610eb857610eb7611418565b5b6000610ec686828701610dda565b9350506020610ed786828701610dda565b9250506040610ee886828701610e1d565b9150509250925092565b60008060408385031215610f0957610f08611418565b5b6000610f1785828601610dda565b9250506020610f2885828601610e1d565b9150509250929050565b600080600060608486031215610f4b57610f4a611418565b5b6000610f5986828701610dda565b9350506020610f6a86828701610e1d565b925050604084013567ffffffffffffffff811115610f8b57610f8a611413565b5b610f9786828701610def565b9150509250925092565b600060208284031215610fb757610fb6611418565b5b6000610fc584828501610e1d565b91505092915050565b610fd781611253565b82525050565b610fe681611265565b82525050565b6000610ff782611191565b61100181856111a7565b93506110118185602086016112b7565b61101a8161141d565b840191505092915050565b60006110308261119c565b61103a81856111b8565b935061104a8185602086016112b7565b6110538161141d565b840191505092915050565b61106781611291565b82525050565b6110768161129b565b82525050565b60006080820190506110916000830187610fce565b61109e602083018661105e565b6110ab6040830185610fce565b81810360608301526110bd8184610fec565b905095945050505050565b60006020820190506110dd6000830184610fdd565b92915050565b600060208201905081810360008301526110fd8184611025565b905092915050565b600060208201905061111a600083018461105e565b92915050565b6000602082019050611135600083018461106d565b92915050565b6000611145611156565b9050611151828261131c565b919050565b6000604051905090565b600067ffffffffffffffff82111561117b5761117a6113da565b5b6111848261141d565b9050602081019050919050565b600081519050919050565b600081519050919050565b600082825260208201905092915050565b600082825260208201905092915050565b60006111d482611291565b91506111df83611291565b9250827fffffffffffffffffffffffffffffffffffffffffffffffffffffffffffffffff038211156112145761121361137c565b5b828201905092915050565b600061122a82611291565b915061123583611291565b9250828210156112485761124761137c565b5b828203905092915050565b600061125e82611271565b9050919050565b60008115159050919050565b600073ffffffffffffffffffffffffffffffffffffffff82169050919050565b6000819050919050565b600060ff82169050919050565b82818337600083830152505050565b60005b838110156112d55780820151818401526020810190506112ba565b838111156112e4576000848401525b50505050565b6000600282049050600182168061130257607f821691505b60208210811415611316576113156113ab565b5b50919050565b6113258261141d565b810181811067ffffffffffffffff82111715611344576113436113da565b5b80604052505050565b7f4e487b7100000000000000000000000000000000000000000000000000000000600052600160045260246000fd5b7f4e487b7100000000000000000000000000000000000000000000000000000000600052601160045260246000fd5b7f4e487b7100000000000000000000000000000000000000000000000000000000600052602260045260246000fd5b7f4e487b7100000000000000000000000000000000000000000000000000000000600052604160045260246000fd5b600080fd5b600080fd5b600080fd5b600080fd5b6000601f19601f8301169050919050565b61143781611253565b811461144257600080fd5b50565b61144e81611291565b811461145957600080fd5b5056fea2646970667358221220c126d6a6a5b10705880e74f664aeba7783ec169807788d1c0450bc5499cdbc4464736f6c63430008070033",
					"opcodes": "PUSH1 0x80 PUSH1 0x40 MSTORE PUSH1 0x12 PUSH1 0x2 PUSH1 0x0 PUSH2 0x100 EXP DUP2 SLOAD DUP2 PUSH1 0xFF MUL NOT AND SWAP1 DUP4 PUSH1 0xFF AND MUL OR SWAP1 SSTORE POP CALLVALUE DUP1 ISZERO PUSH3 0x2D JUMPI PUSH1 0x0 DUP1 REVERT JUMPDEST POP PUSH1 0x40 MLOAD PUSH3 0x1B66 CODESIZE SUB DUP1 PUSH3 0x1B66 DUP4 CODECOPY DUP2 DUP2 ADD PUSH1 0x40 MSTORE DUP2 ADD SWAP1 PUSH3 0x53 SWAP2 SWAP1 PUSH3 0x24D JUMP JUMPDEST PUSH1 0x2 PUSH1 0x0 SWAP1 SLOAD SWAP1 PUSH2 0x100 EXP SWAP1 DIV PUSH1 0xFF AND PUSH1 0xFF AND PUSH1 0xA PUSH3 0x74 SWAP2 SWAP1 PUSH3 0x3A1 JUMP JUMPDEST DUP4 PUSH3 0x81 SWAP2 SWAP1 PUSH3 0x4DE JUMP JUMPDEST PUSH1 0x3 DUP2 SWAP1 SSTORE POP PUSH1 0x3 SLOAD PUSH1 0x4 PUSH1 0x0 CALLER PUSH20 0xFFFFFFFFFFFFFFFFFFFFFFFFFFFFFFFFFFFFFFFF AND PUSH20 0xFFFFFFFFFFFFFFFFFFFFFFFFFFFFFFFFFFFFFFFF AND DUP2 MSTORE PUSH1 0x20 ADD SWAP1 DUP2 MSTORE PUSH1 0x20 ADD PUSH1 0x0 KECCAK256 DUP2 SWAP1 SSTORE POP DUP2 PUSH1 0x0 SWAP1 DUP1 MLOAD SWAP1 PUSH1 0x20 ADD SWAP1 PUSH3 0xE5 SWAP3 SWAP2 SWAP1 PUSH3 0x108 JUMP JUMPDEST POP DUP1 PUSH1 0x1 SWAP1 DUP1 MLOAD SWAP1 PUSH1 0x20 ADD SWAP1 PUSH3 0xFE SWAP3 SWAP2 SWAP1 PUSH3 0x108 JUMP JUMPDEST POP POP POP POP PUSH3 0x6C4 JUMP JUMPDEST DUP3 DUP1 SLOAD PUSH3 0x116 SWAP1 PUSH3 0x57F JUMP JUMPDEST SWAP1 PUSH1 0x0 MSTORE PUSH1 0x20 PUSH1 0x0 KECCAK256 SWAP1 PUSH1 0x1F ADD PUSH1 0x20 SWAP1 DIV DUP2 ADD SWAP3 DUP3 PUSH3 0x13A JUMPI PUSH1 0x0 DUP6 SSTORE PUSH3 0x186 JUMP JUMPDEST DUP3 PUSH1 0x1F LT PUSH3 0x155 JUMPI DUP1 MLOAD PUSH1 0xFF NOT AND DUP4 DUP1 ADD OR DUP6 SSTORE PUSH3 0x186 JUMP JUMPDEST DUP3 DUP1 ADD PUSH1 0x1 ADD DUP6 SSTORE DUP3 ISZERO PUSH3 0x186 JUMPI SWAP2 DUP3 ADD JUMPDEST DUP3 DUP2 GT ISZERO PUSH3 0x185 JUMPI DUP3 MLOAD DUP3 SSTORE SWAP2 PUSH1 0x20 ADD SWAP2 SWAP1 PUSH1 0x1 ADD SWAP1 PUSH3 0x168 JUMP JUMPDEST JUMPDEST POP SWAP1 POP PUSH3 0x195 SWAP2 SWAP1 PUSH3 0x199 JUMP JUMPDEST POP SWAP1 JUMP JUMPDEST JUMPDEST DUP1 DUP3 GT ISZERO PUSH3 0x1B4 JUMPI PUSH1 0x0 DUP2 PUSH1 0x0 SWAP1 SSTORE POP PUSH1 0x1 ADD PUSH3 0x19A JUMP JUMPDEST POP SWAP1 JUMP JUMPDEST PUSH1 0x0 PUSH3 0x1CF PUSH3 0x1C9 DUP5 PUSH3 0x310 JUMP JUMPDEST PUSH3 0x2E7 JUMP JUMPDEST SWAP1 POP DUP3 DUP2 MSTORE PUSH1 0x20 DUP2 ADD DUP5 DUP5 DUP5 ADD GT ISZERO PUSH3 0x1EE JUMPI PUSH3 0x1ED PUSH3 0x67D JUMP JUMPDEST JUMPDEST PUSH3 0x1FB DUP5 DUP3 DUP6 PUSH3 0x549 JUMP JUMPDEST POP SWAP4 SWAP3 POP POP POP JUMP JUMPDEST PUSH1 0x0 DUP3 PUSH1 0x1F DUP4 ADD SLT PUSH3 0x21B JUMPI PUSH3 0x21A PUSH3 0x678 JUMP JUMPDEST JUMPDEST DUP2 MLOAD PUSH3 0x22D DUP5 DUP3 PUSH1 0x20 DUP7 ADD PUSH3 0x1B8 JUMP JUMPDEST SWAP2 POP POP SWAP3 SWAP2 POP POP JUMP JUMPDEST PUSH1 0x0 DUP2 MLOAD SWAP1 POP PUSH3 0x247 DUP2 PUSH3 0x6AA JUMP JUMPDEST SWAP3 SWAP2 POP POP JUMP JUMPDEST PUSH1 0x0 DUP1 PUSH1 0x0 PUSH1 0x60 DUP5 DUP7 SUB SLT ISZERO PUSH3 0x269 JUMPI PUSH3 0x268 PUSH3 0x687 JUMP JUMPDEST JUMPDEST PUSH1 0x0 PUSH3 0x279 DUP7 DUP3 DUP8 ADD PUSH3 0x236 JUMP JUMPDEST SWAP4 POP POP PUSH1 0x20 DUP5 ADD MLOAD PUSH8 0xFFFFFFFFFFFFFFFF DUP2 GT ISZERO PUSH3 0x29D JUMPI PUSH3 0x29C PUSH3 0x682 JUMP JUMPDEST JUMPDEST PUSH3 0x2AB DUP7 DUP3 DUP8 ADD PUSH3 0x203 JUMP JUMPDEST SWAP3 POP POP PUSH1 0x40 DUP5 ADD MLOAD PUSH8 0xFFFFFFFFFFFFFFFF DUP2 GT ISZERO PUSH3 0x2CF JUMPI PUSH3 0x2CE PUSH3 0x682 JUMP JUMPDEST JUMPDEST PUSH3 0x2DD DUP7 DUP3 DUP8 ADD PUSH3 0x203 JUMP JUMPDEST SWAP2 POP POP SWAP3 POP SWAP3 POP SWAP3 JUMP JUMPDEST PUSH1 0x0 PUSH3 0x2F3 PUSH3 0x306 JUMP JUMPDEST SWAP1 POP PUSH3 0x301 DUP3 DUP3 PUSH3 0x5B5 JUMP JUMPDEST SWAP2 SWAP1 POP JUMP JUMPDEST PUSH1 0x0 PUSH1 0x40 MLOAD SWAP1 POP SWAP1 JUMP JUMPDEST PUSH1 0x0 PUSH8 0xFFFFFFFFFFFFFFFF DUP3 GT ISZERO PUSH3 0x32E JUMPI PUSH3 0x32D PUSH3 0x649 JUMP JUMPDEST JUMPDEST PUSH3 0x339 DUP3 PUSH3 0x68C JUMP JUMPDEST SWAP1 POP PUSH1 0x20 DUP2 ADD SWAP1 POP SWAP2 SWAP1 POP JUMP JUMPDEST PUSH1 0x0 DUP1 DUP3 SWAP2 POP DUP4 SWAP1 POP JUMPDEST PUSH1 0x1 DUP6 GT ISZERO PUSH3 0x398 JUMPI DUP1 DUP7 DIV DUP2 GT ISZERO PUSH3 0x370 JUMPI PUSH3 0x36F PUSH3 0x5EB JUMP JUMPDEST JUMPDEST PUSH1 0x1 DUP6 AND ISZERO PUSH3 0x380 JUMPI DUP1 DUP3 MUL SWAP2 POP JUMPDEST DUP1 DUP2 MUL SWAP1 POP PUSH3 0x390 DUP6 PUSH3 0x69D JUMP JUMPDEST SWAP5 POP PUSH3 0x350 JUMP JUMPDEST SWAP5 POP SWAP5 SWAP3 POP POP POP JUMP JUMPDEST PUSH1 0x0 PUSH3 0x3AE DUP3 PUSH3 0x53F JUMP JUMPDEST SWAP2 POP PUSH3 0x3BB DUP4 PUSH3 0x53F JUMP JUMPDEST SWAP3 POP PUSH3 0x3EA PUSH32 0xFFFFFFFFFFFFFFFFFFFFFFFFFFFFFFFFFFFFFFFFFFFFFFFFFFFFFFFFFFFFFFFF DUP5 DUP5 PUSH3 0x3F2 JUMP JUMPDEST SWAP1 POP SWAP3 SWAP2 POP POP JUMP JUMPDEST PUSH1 0x0 DUP3 PUSH3 0x404 JUMPI PUSH1 0x1 SWAP1 POP PUSH3 0x4D7 JUMP JUMPDEST DUP2 PUSH3 0x414 JUMPI PUSH1 0x0 SWAP1 POP PUSH3 0x4D7 JUMP JUMPDEST DUP2 PUSH1 0x1 DUP2 EQ PUSH3 0x42D JUMPI PUSH1 0x2 DUP2 EQ PUSH3 0x438 JUMPI PUSH3 0x46E JUMP JUMPDEST PUSH1 0x1 SWAP2 POP POP PUSH3 0x4D7 JUMP JUMPDEST PUSH1 0xFF DUP5 GT ISZERO PUSH3 0x44D JUMPI PUSH3 0x44C PUSH3 0x5EB JUMP JUMPDEST JUMPDEST DUP4 PUSH1 0x2 EXP SWAP2 POP DUP5 DUP3 GT ISZERO PUSH3 0x467 JUMPI PUSH3 0x466 PUSH3 0x5EB JUMP JUMPDEST JUMPDEST POP PUSH3 0x4D7 JUMP JUMPDEST POP PUSH1 0x20 DUP4 LT PUSH2 0x133 DUP4 LT AND PUSH1 0x4E DUP5 LT PUSH1 0xB DUP5 LT AND OR ISZERO PUSH3 0x4A8 JUMPI DUP3 DUP3 EXP SWAP1 POP DUP4 DUP2 GT ISZERO PUSH3 0x4A2 JUMPI PUSH3 0x4A1 PUSH3 0x5EB JUMP JUMPDEST JUMPDEST PUSH3 0x4D7 JUMP JUMPDEST PUSH3 0x4B7 DUP5 DUP5 DUP5 PUSH1 0x1 PUSH3 0x346 JUMP JUMPDEST SWAP3 POP SWAP1 POP DUP2 DUP5 DIV DUP2 GT ISZERO PUSH3 0x4D1 JUMPI PUSH3 0x4D0 PUSH3 0x5EB JUMP JUMPDEST JUMPDEST DUP2 DUP2 MUL SWAP1 POP JUMPDEST SWAP4 SWAP3 POP POP POP JUMP JUMPDEST PUSH1 0x0 PUSH3 0x4EB DUP3 PUSH3 0x53F JUMP JUMPDEST SWAP2 POP PUSH3 0x4F8 DUP4 PUSH3 0x53F JUMP JUMPDEST SWAP3 POP DUP2 PUSH32 0xFFFFFFFFFFFFFFFFFFFFFFFFFFFFFFFFFFFFFFFFFFFFFFFFFFFFFFFFFFFFFFFF DIV DUP4 GT DUP3 ISZERO ISZERO AND ISZERO PUSH3 0x534 JUMPI PUSH3 0x533 PUSH3 0x5EB JUMP JUMPDEST JUMPDEST DUP3 DUP3 MUL SWAP1 POP SWAP3 SWAP2 POP POP JUMP JUMPDEST PUSH1 0x0 DUP2 SWAP1 POP SWAP2 SWAP1 POP JUMP JUMPDEST PUSH1 0x0 JUMPDEST DUP4 DUP2 LT ISZERO PUSH3 0x569 JUMPI DUP1 DUP3 ADD MLOAD DUP2 DUP5 ADD MSTORE PUSH1 0x20 DUP2 ADD SWAP1 POP PUSH3 0x54C JUMP JUMPDEST DUP4 DUP2 GT ISZERO PUSH3 0x579 JUMPI PUSH1 0x0 DUP5 DUP5 ADD MSTORE JUMPDEST POP POP POP POP JUMP JUMPDEST PUSH1 0x0 PUSH1 0x2 DUP3 DIV SWAP1 POP PUSH1 0x1 DUP3 AND DUP1 PUSH3 0x598 JUMPI PUSH1 0x7F DUP3 AND SWAP2 POP JUMPDEST PUSH1 0x20 DUP3 LT DUP2 EQ ISZERO PUSH3 0x5AF JUMPI PUSH3 0x5AE PUSH3 0x61A JUMP JUMPDEST JUMPDEST POP SWAP2 SWAP1 POP JUMP JUMPDEST PUSH3 0x5C0 DUP3 PUSH3 0x68C JUMP JUMPDEST DUP2 ADD DUP2 DUP2 LT PUSH8 0xFFFFFFFFFFFFFFFF DUP3 GT OR ISZERO PUSH3 0x5E2 JUMPI PUSH3 0x5E1 PUSH3 0x649 JUMP JUMPDEST JUMPDEST DUP1 PUSH1 0x40 MSTORE POP POP POP JUMP JUMPDEST PUSH32 0x4E487B7100000000000000000000000000000000000000000000000000000000 PUSH1 0x0 MSTORE PUSH1 0x11 PUSH1 0x4 MSTORE PUSH1 0x24 PUSH1 0x0 REVERT JUMPDEST PUSH32 0x4E487B7100000000000000000000000000000000000000000000000000000000 PUSH1 0x0 MSTORE PUSH1 0x22 PUSH1 0x4 MSTORE PUSH1 0x24 PUSH1 0x0 REVERT JUMPDEST PUSH32 0x4E487B7100000000000000000000000000000000000000000000000000000000 PUSH1 0x0 MSTORE PUSH1 0x41 PUSH1 0x4 MSTORE PUSH1 0x24 PUSH1 0x0 REVERT JUMPDEST PUSH1 0x0 DUP1 REVERT JUMPDEST PUSH1 0x0 DUP1 REVERT JUMPDEST PUSH1 0x0 DUP1 REVERT JUMPDEST PUSH1 0x0 DUP1 REVERT JUMPDEST PUSH1 0x0 PUSH1 0x1F NOT PUSH1 0x1F DUP4 ADD AND SWAP1 POP SWAP2 SWAP1 POP JUMP JUMPDEST PUSH1 0x0 DUP2 PUSH1 0x1 SHR SWAP1 POP SWAP2 SWAP1 POP JUMP JUMPDEST PUSH3 0x6B5 DUP2 PUSH3 0x53F JUMP JUMPDEST DUP2 EQ PUSH3 0x6C1 JUMPI PUSH1 0x0 DUP1 REVERT JUMPDEST POP JUMP JUMPDEST PUSH2 0x1492 DUP1 PUSH3 0x6D4 PUSH1 0x0 CODECOPY PUSH1 0x0 RETURN INVALID PUSH1 0x80 PUSH1 0x40 MSTORE CALLVALUE DUP1 ISZERO PUSH2 0x10 JUMPI PUSH1 0x0 DUP1 REVERT JUMPDEST POP PUSH1 0x4 CALLDATASIZE LT PUSH2 0xB4 JUMPI PUSH1 0x0 CALLDATALOAD PUSH1 0xE0 SHR DUP1 PUSH4 0x70A08231 GT PUSH2 0x71 JUMPI DUP1 PUSH4 0x70A08231 EQ PUSH2 0x1A3 JUMPI DUP1 PUSH4 0x79CC6790 EQ PUSH2 0x1D3 JUMPI DUP1 PUSH4 0x95D89B41 EQ PUSH2 0x203 JUMPI DUP1 PUSH4 0xA9059CBB EQ PUSH2 0x221 JUMPI DUP1 PUSH4 0xCAE9CA51 EQ PUSH2 0x251 JUMPI DUP1 PUSH4 0xDD62ED3E EQ PUSH2 0x281 JUMPI PUSH2 0xB4 JUMP JUMPDEST DUP1 PUSH4 0x6FDDE03 EQ PUSH2 0xB9 JUMPI DUP1 PUSH4 0x95EA7B3 EQ PUSH2 0xD7 JUMPI DUP1 PUSH4 0x18160DDD EQ PUSH2 0x107 JUMPI DUP1 PUSH4 0x23B872DD EQ PUSH2 0x125 JUMPI DUP1 PUSH4 0x313CE567 EQ PUSH2 0x155 JUMPI DUP1 PUSH4 0x42966C68 EQ PUSH2 0x173 JUMPI JUMPDEST PUSH1 0x0 DUP1 REVERT JUMPDEST PUSH2 0xC1 PUSH2 0x2B1 JUMP JUMPDEST PUSH1 0x40 MLOAD PUSH2 0xCE SWAP2 SWAP1 PUSH2 0x10E3 JUMP JUMPDEST PUSH1 0x40 MLOAD DUP1 SWAP2 SUB SWAP1 RETURN JUMPDEST PUSH2 0xF1 PUSH1 0x4 DUP1 CALLDATASIZE SUB DUP2 ADD SWAP1 PUSH2 0xEC SWAP2 SWAP1 PUSH2 0xEF2 JUMP JUMPDEST PUSH2 0x33F JUMP JUMPDEST PUSH1 0x40 MLOAD PUSH2 0xFE SWAP2 SWAP1 PUSH2 0x10C8 JUMP JUMPDEST PUSH1 0x40 MLOAD DUP1 SWAP2 SUB SWAP1 RETURN JUMPDEST PUSH2 0x10F PUSH2 0x431 JUMP JUMPDEST PUSH1 0x40 MLOAD PUSH2 0x11C SWAP2 SWAP1 PUSH2 0x1105 JUMP JUMPDEST PUSH1 0x40 MLOAD DUP1 SWAP2 SUB SWAP1 RETURN JUMPDEST PUSH2 0x13F PUSH1 0x4 DUP1 CALLDATASIZE SUB DUP2 ADD SWAP1 PUSH2 0x13A SWAP2 SWAP1 PUSH2 0xE9F JUMP JUMPDEST PUSH2 0x437 JUMP JUMPDEST PUSH1 0x40 MLOAD PUSH2 0x14C SWAP2 SWAP1 PUSH2 0x10C8 JUMP JUMPDEST PUSH1 0x40 MLOAD DUP1 SWAP2 SUB SWAP1 RETURN JUMPDEST PUSH2 0x15D PUSH2 0x56B JUMP JUMPDEST PUSH1 0x40 MLOAD PUSH2 0x16A SWAP2 SWAP1 PUSH2 0x1120 JUMP JUMPDEST PUSH1 0x40 MLOAD DUP1 SWAP2 SUB SWAP1 RETURN JUMPDEST PUSH2 0x18D PUSH1 0x4 DUP1 CALLDATASIZE SUB DUP2 ADD SWAP1 PUSH2 0x188 SWAP2 SWAP1 PUSH2 0xFA1 JUMP JUMPDEST PUSH2 0x57E JUMP JUMPDEST PUSH1 0x40 MLOAD PUSH2 0x19A SWAP2 SWAP1 PUSH2 0x10C8 JUMP JUMPDEST PUSH1 0x40 MLOAD DUP1 SWAP2 SUB SWAP1 RETURN JUMPDEST PUSH2 0x1BD PUSH1 0x4 DUP1 CALLDATASIZE SUB DUP2 ADD SWAP1 PUSH2 0x1B8 SWAP2 SWAP1 PUSH2 0xE32 JUMP JUMPDEST PUSH2 0x692 JUMP JUMPDEST PUSH1 0x40 MLOAD PUSH2 0x1CA SWAP2 SWAP1 PUSH2 0x1105 JUMP JUMPDEST PUSH1 0x40 MLOAD DUP1 SWAP2 SUB SWAP1 RETURN JUMPDEST PUSH2 0x1ED PUSH1 0x4 DUP1 CALLDATASIZE SUB DUP2 ADD SWAP1 PUSH2 0x1E8 SWAP2 SWAP1 PUSH2 0xEF2 JUMP JUMPDEST PUSH2 0x6AA JUMP JUMPDEST PUSH1 0x40 MLOAD PUSH2 0x1FA SWAP2 SWAP1 PUSH2 0x10C8 JUMP JUMPDEST PUSH1 0x40 MLOAD DUP1 SWAP2 SUB SWAP1 RETURN JUMPDEST PUSH2 0x20B PUSH2 0x8DB JUMP JUMPDEST PUSH1 0x40 MLOAD PUSH2 0x218 SWAP2 SWAP1 PUSH2 0x10E3 JUMP JUMPDEST PUSH1 0x40 MLOAD DUP1 SWAP2 SUB SWAP1 RETURN JUMPDEST PUSH2 0x23B PUSH1 0x4 DUP1 CALLDATASIZE SUB DUP2 ADD SWAP1 PUSH2 0x236 SWAP2 SWAP1 PUSH2 0xEF2 JUMP JUMPDEST PUSH2 0x969 JUMP JUMPDEST PUSH1 0x40 MLOAD PUSH2 0x248 SWAP2 SWAP1 PUSH2 0x10C8 JUMP JUMPDEST PUSH1 0x40 MLOAD DUP1 SWAP2 SUB SWAP1 RETURN JUMPDEST PUSH2 0x26B PUSH1 0x4 DUP1 CALLDATASIZE SUB DUP2 ADD SWAP1 PUSH2 0x266 SWAP2 SWAP1 PUSH2 0xF32 JUMP JUMPDEST PUSH2 0x980 JUMP JUMPDEST PUSH1 0x40 MLOAD PUSH2 0x278 SWAP2 SWAP1 PUSH2 0x10C8 JUMP JUMPDEST PUSH1 0x40 MLOAD DUP1 SWAP2 SUB SWAP1 RETURN JUMPDEST PUSH2 0x29B PUSH1 0x4 DUP1 CALLDATASIZE SUB DUP2 ADD SWAP1 PUSH2 0x296 SWAP2 SWAP1 PUSH2 0xE5F JUMP JUMPDEST PUSH2 0xA19 JUMP JUMPDEST PUSH1 0x40 MLOAD PUSH2 0x2A8 SWAP2 SWAP1 PUSH2 0x1105 JUMP JUMPDEST PUSH1 0x40 MLOAD DUP1 SWAP2 SUB SWAP1 RETURN JUMPDEST PUSH1 0x0 DUP1 SLOAD PUSH2 0x2BE SWAP1 PUSH2 0x12EA JUMP JUMPDEST DUP1 PUSH1 0x1F ADD PUSH1 0x20 DUP1 SWAP2 DIV MUL PUSH1 0x20 ADD PUSH1 0x40 MLOAD SWAP1 DUP2 ADD PUSH1 0x40 MSTORE DUP1 SWAP3 SWAP2 SWAP1 DUP2 DUP2 MSTORE PUSH1 0x20 ADD DUP3 DUP1 SLOAD PUSH2 0x2EA SWAP1 PUSH2 0x12EA JUMP JUMPDEST DUP1 ISZERO PUSH2 0x337 JUMPI DUP1 PUSH1 0x1F LT PUSH2 0x30C JUMPI PUSH2 0x100 DUP1 DUP4 SLOAD DIV MUL DUP4 MSTORE SWAP2 PUSH1 0x20 ADD SWAP2 PUSH2 0x337 JUMP JUMPDEST DUP3 ADD SWAP2 SWAP1 PUSH1 0x0 MSTORE PUSH1 0x20 PUSH1 0x0 KECCAK256 SWAP1 JUMPDEST DUP2 SLOAD DUP2 MSTORE SWAP1 PUSH1 0x1 ADD SWAP1 PUSH1 0x20 ADD DUP1 DUP4 GT PUSH2 0x31A JUMPI DUP3 SWAP1 SUB PUSH1 0x1F AND DUP3 ADD SWAP2 JUMPDEST POP POP POP POP POP DUP2 JUMP JUMPDEST PUSH1 0x0 DUP2 PUSH1 0x5 PUSH1 0x0 CALLER PUSH20 0xFFFFFFFFFFFFFFFFFFFFFFFFFFFFFFFFFFFFFFFF AND PUSH20 0xFFFFFFFFFFFFFFFFFFFFFFFFFFFFFFFFFFFFFFFF AND DUP2 MSTORE PUSH1 0x20 ADD SWAP1 DUP2 MSTORE PUSH1 0x20 ADD PUSH1 0x0 KECCAK256 PUSH1 0x0 DUP6 PUSH20 0xFFFFFFFFFFFFFFFFFFFFFFFFFFFFFFFFFFFFFFFF AND PUSH20 0xFFFFFFFFFFFFFFFFFFFFFFFFFFFFFFFFFFFFFFFF AND DUP2 MSTORE PUSH1 0x20 ADD SWAP1 DUP2 MSTORE PUSH1 0x20 ADD PUSH1 0x0 KECCAK256 DUP2 SWAP1 SSTORE POP DUP3 PUSH20 0xFFFFFFFFFFFFFFFFFFFFFFFFFFFFFFFFFFFFFFFF AND CALLER PUSH20 0xFFFFFFFFFFFFFFFFFFFFFFFFFFFFFFFFFFFFFFFF AND PUSH32 0x8C5BE1E5EBEC7D5BD14F71427D1E84F3DD0314C0F7B2291E5B200AC8C7C3B925 DUP5 PUSH1 0x40 MLOAD PUSH2 0x41F SWAP2 SWAP1 PUSH2 0x1105 JUMP JUMPDEST PUSH1 0x40 MLOAD DUP1 SWAP2 SUB SWAP1 LOG3 PUSH1 0x1 SWAP1 POP SWAP3 SWAP2 POP POP JUMP JUMPDEST PUSH1 0x3 SLOAD DUP2 JUMP JUMPDEST PUSH1 0x0 PUSH1 0x5 PUSH1 0x0 DUP6 PUSH20 0xFFFFFFFFFFFFFFFFFFFFFFFFFFFFFFFFFFFFFFFF AND PUSH20 0xFFFFFFFFFFFFFFFFFFFFFFFFFFFFFFFFFFFFFFFF AND DUP2 MSTORE PUSH1 0x20 ADD SWAP1 DUP2 MSTORE PUSH1 0x20 ADD PUSH1 0x0 KECCAK256 PUSH1 0x0 CALLER PUSH20 0xFFFFFFFFFFFFFFFFFFFFFFFFFFFFFFFFFFFFFFFF AND PUSH20 0xFFFFFFFFFFFFFFFFFFFFFFFFFFFFFFFFFFFFFFFF AND DUP2 MSTORE PUSH1 0x20 ADD SWAP1 DUP2 MSTORE PUSH1 0x20 ADD PUSH1 0x0 KECCAK256 SLOAD DUP3 GT ISZERO PUSH2 0x4C2 JUMPI PUSH1 0x0 DUP1 REVERT JUMPDEST DUP2 PUSH1 0x5 PUSH1 0x0 DUP7 PUSH20 0xFFFFFFFFFFFFFFFFFFFFFFFFFFFFFFFFFFFFFFFF AND PUSH20 0xFFFFFFFFFFFFFFFFFFFFFFFFFFFFFFFFFFFFFFFF AND DUP2 MSTORE PUSH1 0x20 ADD SWAP1 DUP2 MSTORE PUSH1 0x20 ADD PUSH1 0x0 KECCAK256 PUSH1 0x0 CALLER PUSH20 0xFFFFFFFFFFFFFFFFFFFFFFFFFFFFFFFFFFFFFFFF AND PUSH20 0xFFFFFFFFFFFFFFFFFFFFFFFFFFFFFFFFFFFFFFFF AND DUP2 MSTORE PUSH1 0x20 ADD SWAP1 DUP2 MSTORE PUSH1 0x20 ADD PUSH1 0x0 KECCAK256 PUSH1 0x0 DUP3 DUP3 SLOAD PUSH2 0x54E SWAP2 SWAP1 PUSH2 0x121F JUMP JUMPDEST SWAP3 POP POP DUP2 SWAP1 SSTORE POP PUSH2 0x560 DUP5 DUP5 DUP5 PUSH2 0xA3E JUMP JUMPDEST PUSH1 0x1 SWAP1 POP SWAP4 SWAP3 POP POP POP JUMP JUMPDEST PUSH1 0x2 PUSH1 0x0 SWAP1 SLOAD SWAP1 PUSH2 0x100 EXP SWAP1 DIV PUSH1 0xFF AND DUP2 JUMP JUMPDEST PUSH1 0x0 DUP2 PUSH1 0x4 PUSH1 0x0 CALLER PUSH20 0xFFFFFFFFFFFFFFFFFFFFFFFFFFFFFFFFFFFFFFFF AND PUSH20 0xFFFFFFFFFFFFFFFFFFFFFFFFFFFFFFFFFFFFFFFF AND DUP2 MSTORE PUSH1 0x20 ADD SWAP1 DUP2 MSTORE PUSH1 0x20 ADD PUSH1 0x0 KECCAK256 SLOAD LT ISZERO PUSH2 0x5CC JUMPI PUSH1 0x0 DUP1 REVERT JUMPDEST DUP2 PUSH1 0x4 PUSH1 0x0 CALLER PUSH20 0xFFFFFFFFFFFFFFFFFFFFFFFFFFFFFFFFFFFFFFFF AND PUSH20 0xFFFFFFFFFFFFFFFFFFFFFFFFFFFFFFFFFFFFFFFF AND DUP2 MSTORE PUSH1 0x20 ADD SWAP1 DUP2 MSTORE PUSH1 0x20 ADD PUSH1 0x0 KECCAK256 PUSH1 0x0 DUP3 DUP3 SLOAD PUSH2 0x61B SWAP2 SWAP1 PUSH2 0x121F JUMP JUMPDEST SWAP3 POP POP DUP2 SWAP1 SSTORE POP DUP2 PUSH1 0x3 PUSH1 0x0 DUP3 DUP3 SLOAD PUSH2 0x634 SWAP2 SWAP1 PUSH2 0x121F JUMP JUMPDEST SWAP3 POP POP DUP2 SWAP1 SSTORE POP CALLER PUSH20 0xFFFFFFFFFFFFFFFFFFFFFFFFFFFFFFFFFFFFFFFF AND PUSH32 0xCC16F5DBB4873280815C1EE09DBD06736CFFCC184412CF7A71A0FDB75D397CA5 DUP4 PUSH1 0x40 MLOAD PUSH2 0x681 SWAP2 SWAP1 PUSH2 0x1105 JUMP JUMPDEST PUSH1 0x40 MLOAD DUP1 SWAP2 SUB SWAP1 LOG2 PUSH1 0x1 SWAP1 POP SWAP2 SWAP1 POP JUMP JUMPDEST PUSH1 0x4 PUSH1 0x20 MSTORE DUP1 PUSH1 0x0 MSTORE PUSH1 0x40 PUSH1 0x0 KECCAK256 PUSH1 0x0 SWAP2 POP SWAP1 POP SLOAD DUP2 JUMP JUMPDEST PUSH1 0x0 DUP2 PUSH1 0x4 PUSH1 0x0 DUP6 PUSH20 0xFFFFFFFFFFFFFFFFFFFFFFFFFFFFFFFFFFFFFFFF AND PUSH20 0xFFFFFFFFFFFFFFFFFFFFFFFFFFFFFFFFFFFFFFFF AND DUP2 MSTORE PUSH1 0x20 ADD SWAP1 DUP2 MSTORE PUSH1 0x20 ADD PUSH1 0x0 KECCAK256 SLOAD LT ISZERO PUSH2 0x6F8 JUMPI PUSH1 0x0 DUP1 REVERT JUMPDEST PUSH1 0x5 PUSH1 0x0 DUP5 PUSH20 0xFFFFFFFFFFFFFFFFFFFFFFFFFFFFFFFFFFFFFFFF AND PUSH20 0xFFFFFFFFFFFFFFFFFFFFFFFFFFFFFFFFFFFFFFFF AND DUP2 MSTORE PUSH1 0x20 ADD SWAP1 DUP2 MSTORE PUSH1 0x20 ADD PUSH1 0x0 KECCAK256 PUSH1 0x0 CALLER PUSH20 0xFFFFFFFFFFFFFFFFFFFFFFFFFFFFFFFFFFFFFFFF AND PUSH20 0xFFFFFFFFFFFFFFFFFFFFFFFFFFFFFFFFFFFFFFFF AND DUP2 MSTORE PUSH1 0x20 ADD SWAP1 DUP2 MSTORE PUSH1 0x20 ADD PUSH1 0x0 KECCAK256 SLOAD DUP3 GT ISZERO PUSH2 0x781 JUMPI PUSH1 0x0 DUP1 REVERT JUMPDEST DUP2 PUSH1 0x4 PUSH1 0x0 DUP6 PUSH20 0xFFFFFFFFFFFFFFFFFFFFFFFFFFFFFFFFFFFFFFFF AND PUSH20 0xFFFFFFFFFFFFFFFFFFFFFFFFFFFFFFFFFFFFFFFF AND DUP2 MSTORE PUSH1 0x20 ADD SWAP1 DUP2 MSTORE PUSH1 0x20 ADD PUSH1 0x0 KECCAK256 PUSH1 0x0 DUP3 DUP3 SLOAD PUSH2 0x7D0 SWAP2 SWAP1 PUSH2 0x121F JUMP JUMPDEST SWAP3 POP POP DUP2 SWAP1 SSTORE POP DUP2 PUSH1 0x5 PUSH1 0x0 DUP6 PUSH20 0xFFFFFFFFFFFFFFFFFFFFFFFFFFFFFFFFFFFFFFFF AND PUSH20 0xFFFFFFFFFFFFFFFFFFFFFFFFFFFFFFFFFFFFFFFF AND DUP2 MSTORE PUSH1 0x20 ADD SWAP1 DUP2 MSTORE PUSH1 0x20 ADD PUSH1 0x0 KECCAK256 PUSH1 0x0 CALLER PUSH20 0xFFFFFFFFFFFFFFFFFFFFFFFFFFFFFFFFFFFFFFFF AND PUSH20 0xFFFFFFFFFFFFFFFFFFFFFFFFFFFFFFFFFFFFFFFF AND DUP2 MSTORE PUSH1 0x20 ADD SWAP1 DUP2 MSTORE PUSH1 0x20 ADD PUSH1 0x0 KECCAK256 PUSH1 0x0 DUP3 DUP3 SLOAD PUSH2 0x863 SWAP2 SWAP1 PUSH2 0x121F JUMP JUMPDEST SWAP3 POP POP DUP2 SWAP1 SSTORE POP DUP2 PUSH1 0x3 PUSH1 0x0 DUP3 DUP3 SLOAD PUSH2 0x87C SWAP2 SWAP1 PUSH2 0x121F JUMP JUMPDEST SWAP3 POP POP DUP2 SWAP1 SSTORE POP DUP3 PUSH20 0xFFFFFFFFFFFFFFFFFFFFFFFFFFFFFFFFFFFFFFFF AND PUSH32 0xCC16F5DBB4873280815C1EE09DBD06736CFFCC184412CF7A71A0FDB75D397CA5 DUP4 PUSH1 0x40 MLOAD PUSH2 0x8C9 SWAP2 SWAP1 PUSH2 0x1105 JUMP JUMPDEST PUSH1 0x40 MLOAD DUP1 SWAP2 SUB SWAP1 LOG2 PUSH1 0x1 SWAP1 POP SWAP3 SWAP2 POP POP JUMP JUMPDEST PUSH1 0x1 DUP1 SLOAD PUSH2 0x8E8 SWAP1 PUSH2 0x12EA JUMP JUMPDEST DUP1 PUSH1 0x1F ADD PUSH1 0x20 DUP1 SWAP2 DIV MUL PUSH1 0x20 ADD PUSH1 0x40 MLOAD SWAP1 DUP2 ADD PUSH1 0x40 MSTORE DUP1 SWAP3 SWAP2 SWAP1 DUP2 DUP2 MSTORE PUSH1 0x20 ADD DUP3 DUP1 SLOAD PUSH2 0x914 SWAP1 PUSH2 0x12EA JUMP JUMPDEST DUP1 ISZERO PUSH2 0x961 JUMPI DUP1 PUSH1 0x1F LT PUSH2 0x936 JUMPI PUSH2 0x100 DUP1 DUP4 SLOAD DIV MUL DUP4 MSTORE SWAP2 PUSH1 0x20 ADD SWAP2 PUSH2 0x961 JUMP JUMPDEST DUP3 ADD SWAP2 SWAP1 PUSH1 0x0 MSTORE PUSH1 0x20 PUSH1 0x0 KECCAK256 SWAP1 JUMPDEST DUP2 SLOAD DUP2 MSTORE SWAP1 PUSH1 0x1 ADD SWAP1 PUSH1 0x20 ADD DUP1 DUP4 GT PUSH2 0x944 JUMPI DUP3 SWAP1 SUB PUSH1 0x1F AND DUP3 ADD SWAP2 JUMPDEST POP POP POP POP POP DUP2 JUMP JUMPDEST PUSH1 0x0 PUSH2 0x976 CALLER DUP5 DUP5 PUSH2 0xA3E JUMP JUMPDEST PUSH1 0x1 SWAP1 POP SWAP3 SWAP2 POP POP JUMP JUMPDEST PUSH1 0x0 DUP1 DUP5 SWAP1 POP PUSH2 0x990 DUP6 DUP6 PUSH2 0x33F JUMP JUMPDEST ISZERO PUSH2 0xA10 JUMPI DUP1 PUSH20 0xFFFFFFFFFFFFFFFFFFFFFFFFFFFFFFFFFFFFFFFF AND PUSH4 0x8F4FFCB1 CALLER DUP7 ADDRESS DUP8 PUSH1 0x40 MLOAD DUP6 PUSH4 0xFFFFFFFF AND PUSH1 0xE0 SHL DUP2 MSTORE PUSH1 0x4 ADD PUSH2 0x9D4 SWAP5 SWAP4 SWAP3 SWAP2 SWAP1 PUSH2 0x107C JUMP JUMPDEST PUSH1 0x0 PUSH1 0x40 MLOAD DUP1 DUP4 SUB DUP2 PUSH1 0x0 DUP8 DUP1 EXTCODESIZE ISZERO DUP1 ISZERO PUSH2 0x9EE JUMPI PUSH1 0x0 DUP1 REVERT JUMPDEST POP GAS CALL ISZERO DUP1 ISZERO PUSH2 0xA02 JUMPI RETURNDATASIZE PUSH1 0x0 DUP1 RETURNDATACOPY RETURNDATASIZE PUSH1 0x0 REVERT JUMPDEST POP POP POP POP PUSH1 0x1 SWAP2 POP POP PUSH2 0xA12 JUMP JUMPDEST POP JUMPDEST SWAP4 SWAP3 POP POP POP JUMP JUMPDEST PUSH1 0x5 PUSH1 0x20 MSTORE DUP2 PUSH1 0x0 MSTORE PUSH1 0x40 PUSH1 0x0 KECCAK256 PUSH1 0x20 MSTORE DUP1 PUSH1 0x0 MSTORE PUSH1 0x40 PUSH1 0x0 KECCAK256 PUSH1 0x0 SWAP2 POP SWAP2 POP POP SLOAD DUP2 JUMP JUMPDEST PUSH1 0x0 PUSH20 0xFFFFFFFFFFFFFFFFFFFFFFFFFFFFFFFFFFFFFFFF AND DUP3 PUSH20 0xFFFFFFFFFFFFFFFFFFFFFFFFFFFFFFFFFFFFFFFF AND EQ ISZERO PUSH2 0xA78 JUMPI PUSH1 0x0 DUP1 REVERT JUMPDEST DUP1 PUSH1 0x4 PUSH1 0x0 DUP6 PUSH20 0xFFFFFFFFFFFFFFFFFFFFFFFFFFFFFFFFFFFFFFFF AND PUSH20 0xFFFFFFFFFFFFFFFFFFFFFFFFFFFFFFFFFFFFFFFF AND DUP2 MSTORE PUSH1 0x20 ADD SWAP1 DUP2 MSTORE PUSH1 0x20 ADD PUSH1 0x0 KECCAK256 SLOAD LT ISZERO PUSH2 0xAC4 JUMPI PUSH1 0x0 DUP1 REVERT JUMPDEST PUSH1 0x4 PUSH1 0x0 DUP4 PUSH20 0xFFFFFFFFFFFFFFFFFFFFFFFFFFFFFFFFFFFFFFFF AND PUSH20 0xFFFFFFFFFFFFFFFFFFFFFFFFFFFFFFFFFFFFFFFF AND DUP2 MSTORE PUSH1 0x20 ADD SWAP1 DUP2 MSTORE PUSH1 0x20 ADD PUSH1 0x0 KECCAK256 SLOAD DUP2 PUSH1 0x4 PUSH1 0x0 DUP6 PUSH20 0xFFFFFFFFFFFFFFFFFFFFFFFFFFFFFFFFFFFFFFFF AND PUSH20 0xFFFFFFFFFFFFFFFFFFFFFFFFFFFFFFFFFFFFFFFF AND DUP2 MSTORE PUSH1 0x20 ADD SWAP1 DUP2 MSTORE PUSH1 0x20 ADD PUSH1 0x0 KECCAK256 SLOAD PUSH2 0xB4F SWAP2 SWAP1 PUSH2 0x11C9 JUMP JUMPDEST LT ISZERO PUSH2 0xB5A JUMPI PUSH1 0x0 DUP1 REVERT JUMPDEST PUSH1 0x0 PUSH1 0x4 PUSH1 0x0 DUP5 PUSH20 0xFFFFFFFFFFFFFFFFFFFFFFFFFFFFFFFFFFFFFFFF AND PUSH20 0xFFFFFFFFFFFFFFFFFFFFFFFFFFFFFFFFFFFFFFFF AND DUP2 MSTORE PUSH1 0x20 ADD SWAP1 DUP2 MSTORE PUSH1 0x20 ADD PUSH1 0x0 KECCAK256 SLOAD PUSH1 0x4 PUSH1 0x0 DUP7 PUSH20 0xFFFFFFFFFFFFFFFFFFFFFFFFFFFFFFFFFFFFFFFF AND PUSH20 0xFFFFFFFFFFFFFFFFFFFFFFFFFFFFFFFFFFFFFFFF AND DUP2 MSTORE PUSH1 0x20 ADD SWAP1 DUP2 MSTORE PUSH1 0x20 ADD PUSH1 0x0 KECCAK256 SLOAD PUSH2 0xBE6 SWAP2 SWAP1 PUSH2 0x11C9 JUMP JUMPDEST SWAP1 POP DUP2 PUSH1 0x4 PUSH1 0x0 DUP7 PUSH20 0xFFFFFFFFFFFFFFFFFFFFFFFFFFFFFFFFFFFFFFFF AND PUSH20 0xFFFFFFFFFFFFFFFFFFFFFFFFFFFFFFFFFFFFFFFF AND DUP2 MSTORE PUSH1 0x20 ADD SWAP1 DUP2 MSTORE PUSH1 0x20 ADD PUSH1 0x0 KECCAK256 PUSH1 0x0 DUP3 DUP3 SLOAD PUSH2 0xC37 SWAP2 SWAP1 PUSH2 0x121F JUMP JUMPDEST SWAP3 POP POP DUP2 SWAP1 SSTORE POP DUP2 PUSH1 0x4 PUSH1 0x0 DUP6 PUSH20 0xFFFFFFFFFFFFFFFFFFFFFFFFFFFFFFFFFFFFFFFF AND PUSH20 0xFFFFFFFFFFFFFFFFFFFFFFFFFFFFFFFFFFFFFFFF AND DUP2 MSTORE PUSH1 0x20 ADD SWAP1 DUP2 MSTORE PUSH1 0x20 ADD PUSH1 0x0 KECCAK256 PUSH1 0x0 DUP3 DUP3 SLOAD PUSH2 0xC8D SWAP2 SWAP1 PUSH2 0x11C9 JUMP JUMPDEST SWAP3 POP POP DUP2 SWAP1 SSTORE POP DUP3 PUSH20 0xFFFFFFFFFFFFFFFFFFFFFFFFFFFFFFFFFFFFFFFF AND DUP5 PUSH20 0xFFFFFFFFFFFFFFFFFFFFFFFFFFFFFFFFFFFFFFFF AND PUSH32 0xDDF252AD1BE2C89B69C2B068FC378DAA952BA7F163C4A11628F55A4DF523B3EF DUP5 PUSH1 0x40 MLOAD PUSH2 0xCF1 SWAP2 SWAP1 PUSH2 0x1105 JUMP JUMPDEST PUSH1 0x40 MLOAD DUP1 SWAP2 SUB SWAP1 LOG3 DUP1 PUSH1 0x4 PUSH1 0x0 DUP6 PUSH20 0xFFFFFFFFFFFFFFFFFFFFFFFFFFFFFFFFFFFFFFFF AND PUSH20 0xFFFFFFFFFFFFFFFFFFFFFFFFFFFFFFFFFFFFFFFF AND DUP2 MSTORE PUSH1 0x20 ADD SWAP1 DUP2 MSTORE PUSH1 0x20 ADD PUSH1 0x0 KECCAK256 SLOAD PUSH1 0x4 PUSH1 0x0 DUP8 PUSH20 0xFFFFFFFFFFFFFFFFFFFFFFFFFFFFFFFFFFFFFFFF AND PUSH20 0xFFFFFFFFFFFFFFFFFFFFFFFFFFFFFFFFFFFFFFFF AND DUP2 MSTORE PUSH1 0x20 ADD SWAP1 DUP2 MSTORE PUSH1 0x20 ADD PUSH1 0x0 KECCAK256 SLOAD PUSH2 0xD84 SWAP2 SWAP1 PUSH2 0x11C9 JUMP JUMPDEST EQ PUSH2 0xD92 JUMPI PUSH2 0xD91 PUSH2 0x134D JUMP JUMPDEST JUMPDEST POP POP POP POP JUMP JUMPDEST PUSH1 0x0 PUSH2 0xDAB PUSH2 0xDA6 DUP5 PUSH2 0x1160 JUMP JUMPDEST PUSH2 0x113B JUMP JUMPDEST SWAP1 POP DUP3 DUP2 MSTORE PUSH1 0x20 DUP2 ADD DUP5 DUP5 DUP5 ADD GT ISZERO PUSH2 0xDC7 JUMPI PUSH2 0xDC6 PUSH2 0x140E JUMP JUMPDEST JUMPDEST PUSH2 0xDD2 DUP5 DUP3 DUP6 PUSH2 0x12A8 JUMP JUMPDEST POP SWAP4 SWAP3 POP POP POP JUMP JUMPDEST PUSH1 0x0 DUP2 CALLDATALOAD SWAP1 POP PUSH2 0xDE9 DUP2 PUSH2 0x142E JUMP JUMPDEST SWAP3 SWAP2 POP POP JUMP JUMPDEST PUSH1 0x0 DUP3 PUSH1 0x1F DUP4 ADD SLT PUSH2 0xE04 JUMPI PUSH2 0xE03 PUSH2 0x1409 JUMP JUMPDEST JUMPDEST DUP2 CALLDATALOAD PUSH2 0xE14 DUP5 DUP3 PUSH1 0x20 DUP7 ADD PUSH2 0xD98 JUMP JUMPDEST SWAP2 POP POP SWAP3 SWAP2 POP POP JUMP JUMPDEST PUSH1 0x0 DUP2 CALLDATALOAD SWAP1 POP PUSH2 0xE2C DUP2 PUSH2 0x1445 JUMP JUMPDEST SWAP3 SWAP2 POP POP JUMP JUMPDEST PUSH1 0x0 PUSH1 0x20 DUP3 DUP5 SUB SLT ISZERO PUSH2 0xE48 JUMPI PUSH2 0xE47 PUSH2 0x1418 JUMP JUMPDEST JUMPDEST PUSH1 0x0 PUSH2 0xE56 DUP5 DUP3 DUP6 ADD PUSH2 0xDDA JUMP JUMPDEST SWAP2 POP POP SWAP3 SWAP2 POP POP JUMP JUMPDEST PUSH1 0x0 DUP1 PUSH1 0x40 DUP4 DUP6 SUB SLT ISZERO PUSH2 0xE76 JUMPI PUSH2 0xE75 PUSH2 0x1418 JUMP JUMPDEST JUMPDEST PUSH1 0x0 PUSH2 0xE84 DUP6 DUP3 DUP7 ADD PUSH2 0xDDA JUMP JUMPDEST SWAP3 POP POP PUSH1 0x20 PUSH2 0xE95 DUP6 DUP3 DUP7 ADD PUSH2 0xDDA JUMP JUMPDEST SWAP2 POP POP SWAP3 POP SWAP3 SWAP1 POP JUMP JUMPDEST PUSH1 0x0 DUP1 PUSH1 0x0 PUSH1 0x60 DUP5 DUP7 SUB SLT ISZERO PUSH2 0xEB8 JUMPI PUSH2 0xEB7 PUSH2 0x1418 JUMP JUMPDEST JUMPDEST PUSH1 0x0 PUSH2 0xEC6 DUP7 DUP3 DUP8 ADD PUSH2 0xDDA JUMP JUMPDEST SWAP4 POP POP PUSH1 0x20 PUSH2 0xED7 DUP7 DUP3 DUP8 ADD PUSH2 0xDDA JUMP JUMPDEST SWAP3 POP POP PUSH1 0x40 PUSH2 0xEE8 DUP7 DUP3 DUP8 ADD PUSH2 0xE1D JUMP JUMPDEST SWAP2 POP POP SWAP3 POP SWAP3 POP SWAP3 JUMP JUMPDEST PUSH1 0x0 DUP1 PUSH1 0x40 DUP4 DUP6 SUB SLT ISZERO PUSH2 0xF09 JUMPI PUSH2 0xF08 PUSH2 0x1418 JUMP JUMPDEST JUMPDEST PUSH1 0x0 PUSH2 0xF17 DUP6 DUP3 DUP7 ADD PUSH2 0xDDA JUMP JUMPDEST SWAP3 POP POP PUSH1 0x20 PUSH2 0xF28 DUP6 DUP3 DUP7 ADD PUSH2 0xE1D JUMP JUMPDEST SWAP2 POP POP SWAP3 POP SWAP3 SWAP1 POP JUMP JUMPDEST PUSH1 0x0 DUP1 PUSH1 0x0 PUSH1 0x60 DUP5 DUP7 SUB SLT ISZERO PUSH2 0xF4B JUMPI PUSH2 0xF4A PUSH2 0x1418 JUMP JUMPDEST JUMPDEST PUSH1 0x0 PUSH2 0xF59 DUP7 DUP3 DUP8 ADD PUSH2 0xDDA JUMP JUMPDEST SWAP4 POP POP PUSH1 0x20 PUSH2 0xF6A DUP7 DUP3 DUP8 ADD PUSH2 0xE1D JUMP JUMPDEST SWAP3 POP POP PUSH1 0x40 DUP5 ADD CALLDATALOAD PUSH8 0xFFFFFFFFFFFFFFFF DUP2 GT ISZERO PUSH2 0xF8B JUMPI PUSH2 0xF8A PUSH2 0x1413 JUMP JUMPDEST JUMPDEST PUSH2 0xF97 DUP7 DUP3 DUP8 ADD PUSH2 0xDEF JUMP JUMPDEST SWAP2 POP POP SWAP3 POP SWAP3 POP SWAP3 JUMP JUMPDEST PUSH1 0x0 PUSH1 0x20 DUP3 DUP5 SUB SLT ISZERO PUSH2 0xFB7 JUMPI PUSH2 0xFB6 PUSH2 0x1418 JUMP JUMPDEST JUMPDEST PUSH1 0x0 PUSH2 0xFC5 DUP5 DUP3 DUP6 ADD PUSH2 0xE1D JUMP JUMPDEST SWAP2 POP POP SWAP3 SWAP2 POP POP JUMP JUMPDEST PUSH2 0xFD7 DUP2 PUSH2 0x1253 JUMP JUMPDEST DUP3 MSTORE POP POP JUMP JUMPDEST PUSH2 0xFE6 DUP2 PUSH2 0x1265 JUMP JUMPDEST DUP3 MSTORE POP POP JUMP JUMPDEST PUSH1 0x0 PUSH2 0xFF7 DUP3 PUSH2 0x1191 JUMP JUMPDEST PUSH2 0x1001 DUP2 DUP6 PUSH2 0x11A7 JUMP JUMPDEST SWAP4 POP PUSH2 0x1011 DUP2 DUP6 PUSH1 0x20 DUP7 ADD PUSH2 0x12B7 JUMP JUMPDEST PUSH2 0x101A DUP2 PUSH2 0x141D JUMP JUMPDEST DUP5 ADD SWAP2 POP POP SWAP3 SWAP2 POP POP JUMP JUMPDEST PUSH1 0x0 PUSH2 0x1030 DUP3 PUSH2 0x119C JUMP JUMPDEST PUSH2 0x103A DUP2 DUP6 PUSH2 0x11B8 JUMP JUMPDEST SWAP4 POP PUSH2 0x104A DUP2 DUP6 PUSH1 0x20 DUP7 ADD PUSH2 0x12B7 JUMP JUMPDEST PUSH2 0x1053 DUP2 PUSH2 0x141D JUMP JUMPDEST DUP5 ADD SWAP2 POP POP SWAP3 SWAP2 POP POP JUMP JUMPDEST PUSH2 0x1067 DUP2 PUSH2 0x1291 JUMP JUMPDEST DUP3 MSTORE POP POP JUMP JUMPDEST PUSH2 0x1076 DUP2 PUSH2 0x129B JUMP JUMPDEST DUP3 MSTORE POP POP JUMP JUMPDEST PUSH1 0x0 PUSH1 0x80 DUP3 ADD SWAP1 POP PUSH2 0x1091 PUSH1 0x0 DUP4 ADD DUP8 PUSH2 0xFCE JUMP JUMPDEST PUSH2 0x109E PUSH1 0x20 DUP4 ADD DUP7 PUSH2 0x105E JUMP JUMPDEST PUSH2 0x10AB PUSH1 0x40 DUP4 ADD DUP6 PUSH2 0xFCE JUMP JUMPDEST DUP2 DUP2 SUB PUSH1 0x60 DUP4 ADD MSTORE PUSH2 0x10BD DUP2 DUP5 PUSH2 0xFEC JUMP JUMPDEST SWAP1 POP SWAP6 SWAP5 POP POP POP POP POP JUMP JUMPDEST PUSH1 0x0 PUSH1 0x20 DUP3 ADD SWAP1 POP PUSH2 0x10DD PUSH1 0x0 DUP4 ADD DUP5 PUSH2 0xFDD JUMP JUMPDEST SWAP3 SWAP2 POP POP JUMP JUMPDEST PUSH1 0x0 PUSH1 0x20 DUP3 ADD SWAP1 POP DUP2 DUP2 SUB PUSH1 0x0 DUP4 ADD MSTORE PUSH2 0x10FD DUP2 DUP5 PUSH2 0x1025 JUMP JUMPDEST SWAP1 POP SWAP3 SWAP2 POP POP JUMP JUMPDEST PUSH1 0x0 PUSH1 0x20 DUP3 ADD SWAP1 POP PUSH2 0x111A PUSH1 0x0 DUP4 ADD DUP5 PUSH2 0x105E JUMP JUMPDEST SWAP3 SWAP2 POP POP JUMP JUMPDEST PUSH1 0x0 PUSH1 0x20 DUP3 ADD SWAP1 POP PUSH2 0x1135 PUSH1 0x0 DUP4 ADD DUP5 PUSH2 0x106D JUMP JUMPDEST SWAP3 SWAP2 POP POP JUMP JUMPDEST PUSH1 0x0 PUSH2 0x1145 PUSH2 0x1156 JUMP JUMPDEST SWAP1 POP PUSH2 0x1151 DUP3 DUP3 PUSH2 0x131C JUMP JUMPDEST SWAP2 SWAP1 POP JUMP JUMPDEST PUSH1 0x0 PUSH1 0x40 MLOAD SWAP1 POP SWAP1 JUMP JUMPDEST PUSH1 0x0 PUSH8 0xFFFFFFFFFFFFFFFF DUP3 GT ISZERO PUSH2 0x117B JUMPI PUSH2 0x117A PUSH2 0x13DA JUMP JUMPDEST JUMPDEST PUSH2 0x1184 DUP3 PUSH2 0x141D JUMP JUMPDEST SWAP1 POP PUSH1 0x20 DUP2 ADD SWAP1 POP SWAP2 SWAP1 POP JUMP JUMPDEST PUSH1 0x0 DUP2 MLOAD SWAP1 POP SWAP2 SWAP1 POP JUMP JUMPDEST PUSH1 0x0 DUP2 MLOAD SWAP1 POP SWAP2 SWAP1 POP JUMP JUMPDEST PUSH1 0x0 DUP3 DUP3 MSTORE PUSH1 0x20 DUP3 ADD SWAP1 POP SWAP3 SWAP2 POP POP JUMP JUMPDEST PUSH1 0x0 DUP3 DUP3 MSTORE PUSH1 0x20 DUP3 ADD SWAP1 POP SWAP3 SWAP2 POP POP JUMP JUMPDEST PUSH1 0x0 PUSH2 0x11D4 DUP3 PUSH2 0x1291 JUMP JUMPDEST SWAP2 POP PUSH2 0x11DF DUP4 PUSH2 0x1291 JUMP JUMPDEST SWAP3 POP DUP3 PUSH32 0xFFFFFFFFFFFFFFFFFFFFFFFFFFFFFFFFFFFFFFFFFFFFFFFFFFFFFFFFFFFFFFFF SUB DUP3 GT ISZERO PUSH2 0x1214 JUMPI PUSH2 0x1213 PUSH2 0x137C JUMP JUMPDEST JUMPDEST DUP3 DUP3 ADD SWAP1 POP SWAP3 SWAP2 POP POP JUMP JUMPDEST PUSH1 0x0 PUSH2 0x122A DUP3 PUSH2 0x1291 JUMP JUMPDEST SWAP2 POP PUSH2 0x1235 DUP4 PUSH2 0x1291 JUMP JUMPDEST SWAP3 POP DUP3 DUP3 LT ISZERO PUSH2 0x1248 JUMPI PUSH2 0x1247 PUSH2 0x137C JUMP JUMPDEST JUMPDEST DUP3 DUP3 SUB SWAP1 POP SWAP3 SWAP2 POP POP JUMP JUMPDEST PUSH1 0x0 PUSH2 0x125E DUP3 PUSH2 0x1271 JUMP JUMPDEST SWAP1 POP SWAP2 SWAP1 POP JUMP JUMPDEST PUSH1 0x0 DUP2 ISZERO ISZERO SWAP1 POP SWAP2 SWAP1 POP JUMP JUMPDEST PUSH1 0x0 PUSH20 0xFFFFFFFFFFFFFFFFFFFFFFFFFFFFFFFFFFFFFFFF DUP3 AND SWAP1 POP SWAP2 SWAP1 POP JUMP JUMPDEST PUSH1 0x0 DUP2 SWAP1 POP SWAP2 SWAP1 POP JUMP JUMPDEST PUSH1 0x0 PUSH1 0xFF DUP3 AND SWAP1 POP SWAP2 SWAP1 POP JUMP JUMPDEST DUP3 DUP2 DUP4 CALLDATACOPY PUSH1 0x0 DUP4 DUP4 ADD MSTORE POP POP POP JUMP JUMPDEST PUSH1 0x0 JUMPDEST DUP4 DUP2 LT ISZERO PUSH2 0x12D5 JUMPI DUP1 DUP3 ADD MLOAD DUP2 DUP5 ADD MSTORE PUSH1 0x20 DUP2 ADD SWAP1 POP PUSH2 0x12BA JUMP JUMPDEST DUP4 DUP2 GT ISZERO PUSH2 0x12E4 JUMPI PUSH1 0x0 DUP5 DUP5 ADD MSTORE JUMPDEST POP POP POP POP JUMP JUMPDEST PUSH1 0x0 PUSH1 0x2 DUP3 DIV SWAP1 POP PUSH1 0x1 DUP3 AND DUP1 PUSH2 0x1302 JUMPI PUSH1 0x7F DUP3 AND SWAP2 POP JUMPDEST PUSH1 0x20 DUP3 LT DUP2 EQ ISZERO PUSH2 0x1316 JUMPI PUSH2 0x1315 PUSH2 0x13AB JUMP JUMPDEST JUMPDEST POP SWAP2 SWAP1 POP JUMP JUMPDEST PUSH2 0x1325 DUP3 PUSH2 0x141D JUMP JUMPDEST DUP2 ADD DUP2 DUP2 LT PUSH8 0xFFFFFFFFFFFFFFFF DUP3 GT OR ISZERO PUSH2 0x1344 JUMPI PUSH2 0x1343 PUSH2 0x13DA JUMP JUMPDEST JUMPDEST DUP1 PUSH1 0x40 MSTORE POP POP POP JUMP JUMPDEST PUSH32 0x4E487B7100000000000000000000000000000000000000000000000000000000 PUSH1 0x0 MSTORE PUSH1 0x1 PUSH1 0x4 MSTORE PUSH1 0x24 PUSH1 0x0 REVERT JUMPDEST PUSH32 0x4E487B7100000000000000000000000000000000000000000000000000000000 PUSH1 0x0 MSTORE PUSH1 0x11 PUSH1 0x4 MSTORE PUSH1 0x24 PUSH1 0x0 REVERT JUMPDEST PUSH32 0x4E487B7100000000000000000000000000000000000000000000000000000000 PUSH1 0x0 MSTORE PUSH1 0x22 PUSH1 0x4 MSTORE PUSH1 0x24 PUSH1 0x0 REVERT JUMPDEST PUSH32 0x4E487B7100000000000000000000000000000000000000000000000000000000 PUSH1 0x0 MSTORE PUSH1 0x41 PUSH1 0x4 MSTORE PUSH1 0x24 PUSH1 0x0 REVERT JUMPDEST PUSH1 0x0 DUP1 REVERT JUMPDEST PUSH1 0x0 DUP1 REVERT JUMPDEST PUSH1 0x0 DUP1 REVERT JUMPDEST PUSH1 0x0 DUP1 REVERT JUMPDEST PUSH1 0x0 PUSH1 0x1F NOT PUSH1 0x1F DUP4 ADD AND SWAP1 POP SWAP2 SWAP1 POP JUMP JUMPDEST PUSH2 0x1437 DUP2 PUSH2 0x1253 JUMP JUMPDEST DUP2 EQ PUSH2 0x1442 JUMPI PUSH1 0x0 DUP1 REVERT JUMPDEST POP JUMP JUMPDEST PUSH2 0x144E DUP2 PUSH2 0x1291 JUMP JUMPDEST DUP2 EQ PUSH2 0x1459 JUMPI PUSH1 0x0 DUP1 REVERT JUMPDEST POP JUMP INVALID LOG2 PUSH5 0x6970667358 0x22 SLT KECCAK256 0xC1 0x26 0xD6 0xA6 0xA5 0xB1 SMOD SDIV DUP9 0xE PUSH21 0xF664AEBA7783EC169807788D1C0450BC5499CDBC44 PUSH5 0x736F6C6343 STOP ADDMOD SMOD STOP CALLER "
				},
				"gasEstimates": {
					"creation": {
						"codeDepositCost": "1053200",
						"executionCost": "infinite",
						"totalCost": "infinite"
					},
					"external": {
						"allowance(address,address)": "infinite",
						"approve(address,uint256)": "infinite",
						"approveAndCall(address,uint256,bytes)": "infinite",
						"balanceOf(address)": "2814",
						"burn(uint256)": "infinite",
						"burnFrom(address,uint256)": "infinite",
						"decimals()": "2560",
						"name()": "infinite",
						"symbol()": "infinite",
						"totalSupply()": "2474",
						"transfer(address,uint256)": "infinite",
						"transferFrom(address,address,uint256)": "infinite"
					},
					"internal": {
						"_transfer(address,address,uint256)": "infinite"
					}
				},
				"methodIdentifiers": {
					"allowance(address,address)": "dd62ed3e",
					"approve(address,uint256)": "095ea7b3",
					"approveAndCall(address,uint256,bytes)": "cae9ca51",
					"balanceOf(address)": "70a08231",
					"burn(uint256)": "42966c68",
					"burnFrom(address,uint256)": "79cc6790",
					"decimals()": "313ce567",
					"name()": "06fdde03",
					"symbol()": "95d89b41",
					"totalSupply()": "18160ddd",
					"transfer(address,uint256)": "a9059cbb",
					"transferFrom(address,address,uint256)": "23b872dd"
				}
			},
			"storageLayout": {
				"storage": [
					{
						"astId": 15,
						"contract": "contracts/common/Erc20.sol:TokenERC20",
						"label": "name",
						"offset": 0,
						"slot": "0",
						"type": "t_string_storage"
					},
					{
						"astId": 17,
						"contract": "contracts/common/Erc20.sol:TokenERC20",
						"label": "symbol",
						"offset": 0,
						"slot": "1",
						"type": "t_string_storage"
					},
					{
						"astId": 20,
						"contract": "contracts/common/Erc20.sol:TokenERC20",
						"label": "decimals",
						"offset": 0,
						"slot": "2",
						"type": "t_uint8"
					},
					{
						"astId": 22,
						"contract": "contracts/common/Erc20.sol:TokenERC20",
						"label": "totalSupply",
						"offset": 0,
						"slot": "3",
						"type": "t_uint256"
					},
					{
						"astId": 26,
						"contract": "contracts/common/Erc20.sol:TokenERC20",
						"label": "balanceOf",
						"offset": 0,
						"slot": "4",
						"type": "t_mapping(t_address,t_uint256)"
					},
					{
						"astId": 32,
						"contract": "contracts/common/Erc20.sol:TokenERC20",
						"label": "allowance",
						"offset": 0,
						"slot": "5",
						"type": "t_mapping(t_address,t_mapping(t_address,t_uint256))"
					}
				],
				"types": {
					"t_address": {
						"encoding": "inplace",
						"label": "address",
						"numberOfBytes": "20"
					},
					"t_mapping(t_address,t_mapping(t_address,t_uint256))": {
						"encoding": "mapping",
						"key": "t_address",
						"label": "mapping(address => mapping(address => uint256))",
						"numberOfBytes": "32",
						"value": "t_mapping(t_address,t_uint256)"
					},
					"t_mapping(t_address,t_uint256)": {
						"encoding": "mapping",
						"key": "t_address",
						"label": "mapping(address => uint256)",
						"numberOfBytes": "32",
						"value": "t_uint256"
					},
					"t_string_storage": {
						"encoding": "bytes",
						"label": "string",
						"numberOfBytes": "32"
					},
					"t_uint256": {
						"encoding": "inplace",
						"label": "uint256",
						"numberOfBytes": "32"
					},
					"t_uint8": {
						"encoding": "inplace",
						"label": "uint8",
						"numberOfBytes": "1"
					}
				}
			},
			"userdoc": {
				"kind": "user",
				"methods": {
					"approve(address,uint256)": {
						"notice": "Set allowance for other address Allows `_spender` to spend no more than `_value` tokens on your behalf"
					},
					"approveAndCall(address,uint256,bytes)": {
						"notice": "Set allowance for other address and notify Allows `_spender` to spend no more than `_value` tokens on your behalf, and then ping the contract about it"
					},
					"burn(uint256)": {
						"notice": "Destroy tokens Remove `_value` tokens from the system irreversibly"
					},
					"burnFrom(address,uint256)": {
						"notice": "Destroy tokens from other account Remove `_value` tokens from the system irreversibly on behalf of `_from`."
					},
					"constructor": {
						"notice": "Constructor function Initializes contract with initial supply tokens to the creator of the contract"
					},
					"transfer(address,uint256)": {
						"notice": "Transfer tokens Send `_value` tokens to `_to` from your account"
					},
					"transferFrom(address,address,uint256)": {
						"notice": "Transfer tokens from other address Send `_value` tokens to `_to` on behalf of `_from`"
					}
				},
				"version": 1
			}
		}
	}
}