{
  "_format": "hh-sol-artifact-1",
  "contractName": "StartupV1",
  "sourceName": "contracts/Startup.sol",
  "abi": [
    {
      "inputs": [],
      "stateMutability": "nonpayable",
      "type": "constructor"
    },
    {
      "anonymous": false,
      "inputs": [
        {
          "indexed": false,
          "internalType": "address",
          "name": "founder",
          "type": "address"
        },
        {
          "components": [
            {
              "internalType": "string",
              "name": "name",
              "type": "string"
            },
            {
              "internalType": "uint256",
              "name": "chainId",
              "type": "uint256"
            },
            {
              "internalType": "bool",
              "name": "used",
              "type": "bool"
            }
          ],
          "indexed": false,
          "internalType": "struct StartupV1.Profile",
          "name": "startup",
          "type": "tuple"
        }
      ],
      "name": "Created",
      "type": "event"
    },
    {
      "anonymous": false,
      "inputs": [
        {
          "indexed": true,
          "internalType": "address",
          "name": "previousOwner",
          "type": "address"
        },
        {
          "indexed": true,
          "internalType": "address",
          "name": "newOwner",
          "type": "address"
        }
      ],
      "name": "OwnershipTransferred",
      "type": "event"
    },
    {
      "inputs": [
        {
          "components": [
            {
              "internalType": "string",
              "name": "name",
              "type": "string"
            },
            {
              "internalType": "uint256",
              "name": "chainId",
              "type": "uint256"
            },
            {
              "internalType": "bool",
              "name": "used",
              "type": "bool"
            }
          ],
          "internalType": "struct StartupV1.Profile",
          "name": "p",
          "type": "tuple"
        }
      ],
      "name": "createStartup",
      "outputs": [],
      "stateMutability": "nonpayable",
      "type": "function"
    },
    {
      "inputs": [
        {
          "internalType": "string",
          "name": "name",
          "type": "string"
        }
      ],
      "name": "getStartup",
      "outputs": [
        {
          "components": [
            {
              "internalType": "string",
              "name": "name",
              "type": "string"
            },
            {
              "internalType": "uint256",
              "name": "chainId",
              "type": "uint256"
            },
            {
              "internalType": "bool",
              "name": "used",
              "type": "bool"
            }
          ],
          "internalType": "struct StartupV1.Profile",
          "name": "",
          "type": "tuple"
        }
      ],
      "stateMutability": "view",
      "type": "function"
    },
    {
      "inputs": [],
      "name": "getStore",
      "outputs": [
        {
          "internalType": "address",
          "name": "",
          "type": "address"
        }
      ],
      "stateMutability": "view",
      "type": "function"
    },
    {
      "inputs": [],
      "name": "owner",
      "outputs": [
        {
          "internalType": "address",
          "name": "",
          "type": "address"
        }
      ],
      "stateMutability": "view",
      "type": "function"
    },
    {
      "inputs": [],
      "name": "renounceOwnership",
      "outputs": [],
      "stateMutability": "nonpayable",
      "type": "function"
    },
    {
      "inputs": [
        {
          "internalType": "address",
          "name": "newOwner",
          "type": "address"
        }
      ],
      "name": "transferOwnership",
      "outputs": [],
      "stateMutability": "nonpayable",
      "type": "function"
    },
    {
      "inputs": [
        {
          "internalType": "address",
          "name": "newPrimary",
          "type": "address"
        }
      ],
      "name": "transferPrimary",
      "outputs": [],
      "stateMutability": "nonpayable",
      "type": "function"
    },
    {
      "inputs": [
        {
          "internalType": "address",
          "name": "newStore",
          "type": "address"
        }
      ],
      "name": "transferStore",
      "outputs": [],
      "stateMutability": "nonpayable",
      "type": "function"
    }
  ],
  "bytecode": "0x608060405234801561000f575f80fd5b5061001933610064565b604051610025906100b3565b604051809103905ff08015801561003e573d5f803e3d5ffd5b50600180546001600160a01b0319166001600160a01b03929092169190911790556100c0565b5f80546001600160a01b038381166001600160a01b0319831681178455604051919092169283917f8be0079c531659141344cd1fd0a4f28419497f9722a3daafe3b4186f6b6457e09190a35050565b61097280610a0383390190565b610936806100cd5f395ff3fe608060405234801561000f575f80fd5b5060043610610085575f3560e01c80638da5cb5b116100585780638da5cb5b146100e2578063c2722ecc14610106578063f2fde38b1461010e578063f523e77514610121575f80fd5b806320972301146100895780632348238c146100b257806335703a6e146100c7578063715018a6146100da575b5f80fd5b61009c61009736600461061d565b610134565b6040516100a9919061071a565b60405180910390f35b6100c56100c0366004610747565b6101f5565b005b6100c56100d5366004610762565b61025a565b6100c5610443565b5f546001600160a01b03165b6040516001600160a01b0390911681526020016100a9565b6100ee61044d565b6100c561011c366004610747565b610466565b6100c561012f366004610747565b6104df565b6101586040518060600160405280606081526020015f81526020015f151581525090565b600154604051632097230160e01b81525f91829182916001600160a01b03169063209723019061018c908890600401610799565b5f60405180830381865afa1580156101a6573d5f803e3d5ffd5b505050506040513d5f823e601f3d908101601f191682016040526101cd91908101906107ab565b6040805160608101825294855260208501939093521515918301919091525095945050505050565b6101fd610509565b6001546040516308d208e360e21b81526001600160a01b03838116600483015290911690632348238c906024015f604051808303815f87803b158015610241575f80fd5b505af1158015610253573d5f803e3d5ffd5b5050505050565b5f6102658280610852565b9050116102b05760405162461bcd60e51b815260206004820152601460248201527313985b594818d85b881b9bdd081899481b9d5b1b60621b60448201526064015b60405180910390fd5b5f6102f76102be8380610852565b8080601f0160208091040260200160405190810160405280939291908181526020018383808284375f9201919091525061013492505050565b905080604001511561033c5760405162461bcd60e51b815260206004820152600e60248201526d4475706c6963617465206e616d6560901b60448201526064016102a7565b6040805160608101909152806103528480610852565b8080601f0160208091040260200160405190810160405280939291908181526020018383808284375f9201919091525050509082525060208481013581830152600160409283018190525483519184015184840151935163645589ed60e11b81529495506001600160a01b039091169363c8ab13da936103d993929133919060040161089c565b5f604051808303815f87803b1580156103f0575f80fd5b505af1158015610402573d5f803e3d5ffd5b505050507f4185e1bc3b938a449a979ff25265998b2865ec30afd0f10d3060a55cdfe43a2833826040516104379291906108d5565b60405180910390a15050565b61044b610509565b565b5f610456610509565b506001546001600160a01b031690565b61046e610509565b6001600160a01b0381166104d35760405162461bcd60e51b815260206004820152602660248201527f4f776e61626c653a206e6577206f776e657220697320746865207a65726f206160448201526564647265737360d01b60648201526084016102a7565b6104dc81610562565b50565b6104e7610509565b600180546001600160a01b0319166001600160a01b0392909216919091179055565b5f546001600160a01b0316331461044b5760405162461bcd60e51b815260206004820181905260248201527f4f776e61626c653a2063616c6c6572206973206e6f7420746865206f776e657260448201526064016102a7565b5f80546001600160a01b038381166001600160a01b0319831681178455604051919092169283917f8be0079c531659141344cd1fd0a4f28419497f9722a3daafe3b4186f6b6457e09190a35050565b634e487b7160e01b5f52604160045260245ffd5b604051601f8201601f1916810167ffffffffffffffff811182821017156105ee576105ee6105b1565b604052919050565b5f67ffffffffffffffff82111561060f5761060f6105b1565b50601f01601f191660200190565b5f6020828403121561062d575f80fd5b813567ffffffffffffffff811115610643575f80fd5b8201601f81018413610653575f80fd5b8035610666610661826105f6565b6105c5565b81815285602083850101111561067a575f80fd5b816020840160208301375f91810160200191909152949350505050565b5f5b838110156106b1578181015183820152602001610699565b50505f910152565b5f81518084526106d0816020860160208601610697565b601f01601f19169290920160200192915050565b5f8151606084526106f860608501826106b9565b9050602083015160208501526040830151151560408501528091505092915050565b602081525f61072c60208301846106e4565b9392505050565b6001600160a01b03811681146104dc575f80fd5b5f60208284031215610757575f80fd5b813561072c81610733565b5f60208284031215610772575f80fd5b813567ffffffffffffffff811115610788575f80fd5b82016060818503121561072c575f80fd5b602081525f61072c60208301846106b9565b5f805f80608085870312156107be575f80fd5b845167ffffffffffffffff8111156107d4575f80fd5b8501601f810187136107e4575f80fd5b80516107f2610661826105f6565b818152886020838501011115610806575f80fd5b610817826020830160208601610697565b80965050505060208501519250604085015161083281610733565b60608601519092508015158114610847575f80fd5b939692955090935050565b5f808335601e19843603018112610867575f80fd5b83018035915067ffffffffffffffff821115610881575f80fd5b602001915036819003821315610895575f80fd5b9250929050565b608081525f6108ae60808301876106b9565b6020830195909552506001600160a01b039290921660408301521515606090910152919050565b6001600160a01b03831681526040602082018190525f906108f8908301846106e4565b94935050505056fea2646970667358221220f8732f4c6909313987651832fd2531ee9433a5f3d0a9e9d2eee38253eef2ae3964736f6c63430008140033608060405234801561000f575f80fd5b505f80546001600160a01b0319163390811790915560408051918252517f4101e71e974f68df5e9730cc223280b41654676bbb052cdcc735c3337e64d2d99181900360200190a161090f806100635f395ff3fe608060405234801561000f575f80fd5b5060043610610055575f3560e01c806320972301146100595780632348238c146100855780636a3b67971461009a578063c6dbdf61146100af578063c8ab13da146100c9575b5f80fd5b61006c61006736600461056f565b6100dc565b60405161007c94939291906105f6565b60405180910390f35b61009861009336600461064a565b6101f2565b005b6100a26102e9565b60405161007c919061066a565b5f546040516001600160a01b03909116815260200161007c565b6100986100d73660046106ca565b6103bd565b60605f805f806002866040516100f29190610734565b90815260200160405180910390206040518060800160405290815f8201805461011a9061074f565b80601f01602080910402602001604051908101604052809291908181526020018280546101469061074f565b80156101915780601f1061016857610100808354040283529160200191610191565b820191905f5260205f20905b81548152906001019060200180831161017457829003601f168201915b505050918352505060018201546020808301919091526002909201546001600160a01b038116604080840191909152600160a01b90910460ff1615156060928301528351928401519084015193909101519199909850919650945092505050565b5f546001600160a01b0316336001600160a01b03161461022d5760405162461bcd60e51b815260040161022490610787565b60405180910390fd5b6001600160a01b0381166102965760405162461bcd60e51b815260206004820152602a60248201527f5365636f6e646172793a206e6577207072696d61727920697320746865207a65604482015269726f206164647265737360b01b6064820152608401610224565b5f80546001600160a01b0319166001600160a01b0383169081179091556040519081527f4101e71e974f68df5e9730cc223280b41654676bbb052cdcc735c3337e64d2d99060200160405180910390a150565b60606001805480602002602001604051908101604052809291908181526020015f905b828210156103b4578382905f5260205f200180546103299061074f565b80601f01602080910402602001604051908101604052809291908181526020018280546103559061074f565b80156103a05780601f10610377576101008083540402835291602001916103a0565b820191905f5260205f20905b81548152906001019060200180831161038357829003601f168201915b50505050508152602001906001019061030c565b50505050905090565b5f546001600160a01b0316336001600160a01b0316146103ef5760405162461bcd60e51b815260040161022490610787565b60408051608081018252858152602081018590526001600160a01b0384168183015282151560608201529051819060029061042b908890610734565b90815260405190819003602001902081518190610448908261081d565b5060208201516001808301919091556040830151600290920180546060909401511515600160a01b026001600160a81b03199094166001600160a01b0390931692909217929092179055805480820182555f919091527fb10e2d527612073b26eecdfd717e6a320cf44b4afac2b0732d9fcbe2b7fa0cf6016104ca868261081d565b505050505050565b634e487b7160e01b5f52604160045260245ffd5b5f82601f8301126104f5575f80fd5b813567ffffffffffffffff80821115610510576105106104d2565b604051601f8301601f19908116603f01168101908282118183101715610538576105386104d2565b81604052838152866020858801011115610550575f80fd5b836020870160208301375f602085830101528094505050505092915050565b5f6020828403121561057f575f80fd5b813567ffffffffffffffff811115610595575f80fd5b6105a1848285016104e6565b949350505050565b5f5b838110156105c35781810151838201526020016105ab565b50505f910152565b5f81518084526105e28160208601602086016105a9565b601f01601f19169290920160200192915050565b608081525f61060860808301876105cb565b6020830195909552506001600160a01b039290921660408301521515606090910152919050565b80356001600160a01b0381168114610645575f80fd5b919050565b5f6020828403121561065a575f80fd5b6106638261062f565b9392505050565b5f602080830181845280855180835260408601915060408160051b87010192508387015f5b828110156106bd57603f198886030184526106ab8583516105cb565b9450928501929085019060010161068f565b5092979650505050505050565b5f805f80608085870312156106dd575f80fd5b843567ffffffffffffffff8111156106f3575f80fd5b6106ff878288016104e6565b945050602085013592506107156040860161062f565b915060608501358015158114610729575f80fd5b939692955090935050565b5f82516107458184602087016105a9565b9190910192915050565b600181811c9082168061076357607f821691505b60208210810361078157634e487b7160e01b5f52602260045260245ffd5b50919050565b6020808252602c908201527f5365636f6e646172793a2063616c6c6572206973206e6f74207468652070726960408201526b1b585c9e481858d8dbdd5b9d60a21b606082015260800190565b601f821115610818575f81815260208120601f850160051c810160208610156107f95750805b601f850160051c820191505b818110156104ca57828155600101610805565b505050565b815167ffffffffffffffff811115610837576108376104d2565b61084b81610845845461074f565b846107d3565b602080601f83116001811461087e575f84156108675750858301515b5f19600386901b1c1916600185901b1785556104ca565b5f85815260208120601f198616915b828110156108ac5788860151825594840194600190910190840161088d565b50858210156108c957878501515f19600388901b60f8161c191681555b5050505050600190811b0190555056fea2646970667358221220c59b6ea50682980cdf38b41d9ea9e427a639cf1e8ba31a2e847950205cc30f4264736f6c63430008140033",
  "linkReferences": {},
  "deployedLinkReferences": {}
}