{
  "_format": "hh-sol-artifact-1",
  "contractName": "CrowdfundingStore",
  "sourceName": "contracts/CrowdfundingStore.sol",
  "abi": [
    {
      "anonymous": false,
      "inputs": [
        {
          "indexed": false,
          "internalType": "address",
          "name": "recipient",
          "type": "address"
        }
      ],
      "name": "PrimaryTransferred",
      "type": "event"
    },
    {
      "anonymous": false,
      "inputs": [
        {
          "indexed": false,
          "internalType": "address",
          "name": "sender",
          "type": "address"
        },
        {
          "indexed": false,
          "internalType": "string",
          "name": "func",
          "type": "string"
        }
      ],
      "name": "Receive",
      "type": "event"
    },
    {
      "inputs": [
        {
          "internalType": "address",
          "name": "_address",
          "type": "address"
        },
        {
          "internalType": "uint256",
          "name": "_buyAmount",
          "type": "uint256"
        },
        {
          "internalType": "uint256",
          "name": "_sellAmount",
          "type": "uint256"
        }
      ],
      "name": "addAmount",
      "outputs": [],
      "stateMutability": "nonpayable",
      "type": "function"
    },
    {
      "inputs": [
        {
          "internalType": "address",
          "name": "_address",
          "type": "address"
        },
        {
          "internalType": "uint256",
          "name": "_buyAmount",
          "type": "uint256"
        },
        {
          "internalType": "uint256",
          "name": "_sellAmount",
          "type": "uint256"
        }
      ],
      "name": "addTotal",
      "outputs": [],
      "stateMutability": "nonpayable",
      "type": "function"
    },
    {
      "inputs": [
        {
          "internalType": "contract IERC20",
          "name": "_token",
          "type": "address"
        },
        {
          "internalType": "address",
          "name": "_to",
          "type": "address"
        },
        {
          "internalType": "uint256",
          "name": "_amount",
          "type": "uint256"
        }
      ],
      "name": "approveToken",
      "outputs": [
        {
          "internalType": "bool",
          "name": "",
          "type": "bool"
        }
      ],
      "stateMutability": "nonpayable",
      "type": "function"
    },
    {
      "inputs": [
        {
          "internalType": "address",
          "name": "_address",
          "type": "address"
        }
      ],
      "name": "getAmount",
      "outputs": [
        {
          "internalType": "uint256",
          "name": "",
          "type": "uint256"
        },
        {
          "internalType": "uint256",
          "name": "",
          "type": "uint256"
        }
      ],
      "stateMutability": "view",
      "type": "function"
    },
    {
      "inputs": [
        {
          "internalType": "address",
          "name": "_address",
          "type": "address"
        }
      ],
      "name": "getTotal",
      "outputs": [
        {
          "internalType": "uint256",
          "name": "",
          "type": "uint256"
        },
        {
          "internalType": "uint256",
          "name": "",
          "type": "uint256"
        }
      ],
      "stateMutability": "view",
      "type": "function"
    },
    {
      "inputs": [],
      "name": "primary",
      "outputs": [
        {
          "internalType": "address",
          "name": "",
          "type": "address"
        }
      ],
      "stateMutability": "view",
      "type": "function"
    },
    {
      "inputs": [
        {
          "internalType": "address",
          "name": "_address",
          "type": "address"
        },
        {
          "internalType": "uint256",
          "name": "_buyAmount",
          "type": "uint256"
        },
        {
          "internalType": "uint256",
          "name": "_sellAmount",
          "type": "uint256"
        }
      ],
      "name": "subAmount",
      "outputs": [],
      "stateMutability": "nonpayable",
      "type": "function"
    },
    {
      "inputs": [
        {
          "internalType": "address",
          "name": "_address",
          "type": "address"
        },
        {
          "internalType": "uint256",
          "name": "_buyAmount",
          "type": "uint256"
        },
        {
          "internalType": "uint256",
          "name": "_sellAmount",
          "type": "uint256"
        }
      ],
      "name": "subTotal",
      "outputs": [],
      "stateMutability": "nonpayable",
      "type": "function"
    },
    {
      "inputs": [
        {
          "internalType": "address",
          "name": "_to",
          "type": "address"
        },
        {
          "internalType": "uint256",
          "name": "_amount",
          "type": "uint256"
        }
      ],
      "name": "transfer",
      "outputs": [
        {
          "internalType": "bool",
          "name": "",
          "type": "bool"
        }
      ],
      "stateMutability": "nonpayable",
      "type": "function"
    },
    {
      "inputs": [
        {
          "internalType": "address",
          "name": "recipient",
          "type": "address"
        }
      ],
      "name": "transferPrimary",
      "outputs": [],
      "stateMutability": "nonpayable",
      "type": "function"
    },
    {
      "inputs": [
        {
          "internalType": "address",
          "name": "_router",
          "type": "address"
        },
        {
          "internalType": "contract IERC20",
          "name": "_tokenA",
          "type": "address"
        },
        {
          "internalType": "contract IERC20",
          "name": "_tokenB",
          "type": "address"
        },
        {
          "internalType": "uint256",
          "name": "_amountA",
          "type": "uint256"
        },
        {
          "internalType": "uint256",
          "name": "_amountB",
          "type": "uint256"
        },
        {
          "internalType": "bytes",
          "name": "_data",
          "type": "bytes"
        },
        {
          "internalType": "bool",
          "name": "_isNative",
          "type": "bool"
        }
      ],
      "name": "transferToLiquidity",
      "outputs": [
        {
          "internalType": "bool",
          "name": "success",
          "type": "bool"
        },
        {
          "internalType": "bytes",
          "name": "result",
          "type": "bytes"
        }
      ],
      "stateMutability": "nonpayable",
      "type": "function"
    },
    {
      "inputs": [
        {
          "internalType": "contract IERC20",
          "name": "_token",
          "type": "address"
        },
        {
          "internalType": "address",
          "name": "_to",
          "type": "address"
        },
        {
          "internalType": "uint256",
          "name": "_amount",
          "type": "uint256"
        }
      ],
      "name": "transferToken",
      "outputs": [
        {
          "internalType": "bool",
          "name": "",
          "type": "bool"
        }
      ],
      "stateMutability": "nonpayable",
      "type": "function"
    },
    {
      "stateMutability": "payable",
      "type": "receive"
    }
  ],
  "bytecode": "0x608060405234801561000f575f80fd5b505f80546001600160a01b0319163390811790915560408051918252517f4101e71e974f68df5e9730cc223280b41654676bbb052cdcc735c3337e64d2d99181900360200190a1610e02806100635f395ff3fe6080604052600436106100a8575f3560e01c8063da3e339711610062578063da3e3397146101db578063e32fca3f146101fa578063e5a4dbf814610219578063ebb6dad814610246578063f5537ede1461027a578063f5a7976714610299575f80fd5b80632348238c146101035780636aa05ee31461012457806379da956514610143578063a2ba266b14610162578063a9059cbb14610181578063c6dbdf61146101b5575f80fd5b366100ff576040805133815260208101829052600781830152667265636569766560c81b606082015290517fd00ca3f088120b3d909c3a9e01be91e94a2b001aed9c25fe751c3c7a72dc49bf9181900360800190a1005b5f80fd5b34801561010e575f80fd5b5061012261011d366004610b30565b6102b8565b005b34801561012f575f80fd5b5061012261013e366004610b4b565b6103af565b34801561014e575f80fd5b5061012261015d366004610b4b565b610450565b34801561016d575f80fd5b5061012261017c366004610b4b565b6104ef565b34801561018c575f80fd5b506101a061019b366004610b7d565b61056c565b60405190151581526020015b60405180910390f35b3480156101c0575f80fd5b505f546040516001600160a01b0390911681526020016101ac565b3480156101e6575f80fd5b506101a06101f5366004610ba7565b6105fa565b348015610205575f80fd5b50610122610214366004610b4b565b6106a6565b348015610224575f80fd5b50610238610233366004610c02565b610722565b6040516101ac929190610cc7565b348015610251575f80fd5b50610265610260366004610b30565b6109e2565b604080519283526020830191909152016101ac565b348015610285575f80fd5b506101a0610294366004610ba7565b610a3b565b3480156102a4575f80fd5b506102656102b3366004610b30565b610aa3565b5f546001600160a01b0316336001600160a01b0316146102f35760405162461bcd60e51b81526004016102ea90610d1c565b60405180910390fd5b6001600160a01b03811661035c5760405162461bcd60e51b815260206004820152602a60248201527f5365636f6e646172793a206e6577207072696d61727920697320746865207a65604482015269726f206164647265737360b01b60648201526084016102ea565b5f80546001600160a01b0319166001600160a01b0383169081179091556040519081527f4101e71e974f68df5e9730cc223280b41654676bbb052cdcc735c3337e64d2d99060200160405180910390a150565b5f546001600160a01b0316336001600160a01b0316146103e15760405162461bcd60e51b81526004016102ea90610d1c565b6001600160a01b0383165f908152600160205260409020546104039083610afc565b6001600160a01b0384165f908152600160208190526040909120918255015461042c9082610afc565b6001600160a01b039093165f90815260016020819052604090912001929092555050565b5f546001600160a01b0316336001600160a01b0316146104825760405162461bcd60e51b81526004016102ea90610d1c565b6001600160a01b0383165f908152600260205260409020546104a49083610afc565b6001600160a01b0384165f908152600260205260409020908155600101546104cc9082610afc565b6001600160a01b039093165f908152600260205260409020600101929092555050565b5f546001600160a01b0316336001600160a01b0316146105215760405162461bcd60e51b81526004016102ea90610d1c565b6001600160a01b0383165f908152600160205260409020546105439083610b0e565b6001600160a01b0384165f908152600160208190526040909120918255015461042c9082610b0e565b5f80546001600160a01b0316336001600160a01b03161461059f5760405162461bcd60e51b81526004016102ea90610d1c565b5f836001600160a01b0316836040515f6040518083038185875af1925050503d805f81146105e8576040519150601f19603f3d011682016040523d82523d5f602084013e6105ed565b606091505b5090925050505b92915050565b5f80546001600160a01b0316336001600160a01b03161461062d5760405162461bcd60e51b81526004016102ea90610d1c565b60405163095ea7b360e01b81526001600160a01b0384811660048301526024820184905285169063095ea7b3906044015b6020604051808303815f875af115801561067a573d5f803e3d5ffd5b505050506040513d601f19601f8201168201806040525081019061069e9190610d68565b949350505050565b5f546001600160a01b0316336001600160a01b0316146106d85760405162461bcd60e51b81526004016102ea90610d1c565b6001600160a01b0383165f908152600260205260409020546106fa9083610b0e565b6001600160a01b0384165f908152600260205260409020908155600101546104cc9082610b0e565b5f80546060906001600160a01b0316336001600160a01b0316146107585760405162461bcd60e51b81526004016102ea90610d1c565b60405163095ea7b360e01b81526001600160a01b038b81166004830152602482018990525f91908b169063095ea7b3906044016020604051808303815f875af11580156107a7573d5f803e3d5ffd5b505050506040513d601f19601f820116820180604052508101906107cb9190610d68565b9050806108255760405162461bcd60e51b815260206004820152602260248201527f417070726f76652073656c6c20746f6b656e20746f20726f757465722065727260448201526137b960f11b60648201526084016102ea565b8315610890578a6001600160a01b0316878787604051610846929190610d83565b5f6040518083038185875af1925050503d805f8114610880576040519150601f19603f3d011682016040523d82523d5f602084013e610885565b606091505b5090935091506109d4565b60405163095ea7b360e01b81526001600160a01b038c81166004830152602482018990528a169063095ea7b3906044016020604051808303815f875af11580156108dc573d5f803e3d5ffd5b505050506040513d601f19601f820116820180604052508101906109009190610d68565b9050806109755760405162461bcd60e51b815260206004820152603b60248201527f416e206572726f72206f63637572726564207768696c652073656e64696e672060448201527f7468652062757920746f6b656e20746f2074686520726f75746572000000000060648201526084016102ea565b8a6001600160a01b0316868660405161098f929190610d83565b5f604051808303815f865af19150503d805f81146109c8576040519150601f19603f3d011682016040523d82523d5f602084013e6109cd565b606091505b5090935091505b509850989650505050505050565b5f805481906001600160a01b0316336001600160a01b031614610a175760405162461bcd60e51b81526004016102ea90610d1c565b50506001600160a01b03165f90815260016020819052604090912080549101549091565b5f80546001600160a01b0316336001600160a01b031614610a6e5760405162461bcd60e51b81526004016102ea90610d1c565b60405163a9059cbb60e01b81526001600160a01b0384811660048301526024820184905285169063a9059cbb9060440161065e565b5f805481906001600160a01b0316336001600160a01b031614610ad85760405162461bcd60e51b81526004016102ea90610d1c565b50506001600160a01b03165f90815260026020526040902080546001909101549091565b5f610b078284610da6565b9392505050565b5f610b078284610db9565b6001600160a01b0381168114610b2d575f80fd5b50565b5f60208284031215610b40575f80fd5b8135610b0781610b19565b5f805f60608486031215610b5d575f80fd5b8335610b6881610b19565b95602085013595506040909401359392505050565b5f8060408385031215610b8e575f80fd5b8235610b9981610b19565b946020939093013593505050565b5f805f60608486031215610bb9575f80fd5b8335610bc481610b19565b92506020840135610bd481610b19565b929592945050506040919091013590565b8015158114610b2d575f80fd5b8035610bfd81610be5565b919050565b5f805f805f805f8060e0898b031215610c19575f80fd5b8835610c2481610b19565b97506020890135610c3481610b19565b96506040890135610c4481610b19565b9550606089013594506080890135935060a089013567ffffffffffffffff80821115610c6e575f80fd5b818b0191508b601f830112610c81575f80fd5b813581811115610c8f575f80fd5b8c6020828501011115610ca0575f80fd5b602083019550809450505050610cb860c08a01610bf2565b90509295985092959890939650565b82151581525f602060408184015283518060408501525f5b81811015610cfb57858101830151858201606001528201610cdf565b505f606082860101526060601f19601f830116850101925050509392505050565b6020808252602c908201527f5365636f6e646172793a2063616c6c6572206973206e6f74207468652070726960408201526b1b585c9e481858d8dbdd5b9d60a21b606082015260800190565b5f60208284031215610d78575f80fd5b8151610b0781610be5565b818382375f9101908152919050565b634e487b7160e01b5f52601160045260245ffd5b808201808211156105f4576105f4610d92565b818103818111156105f4576105f4610d9256fea26469706673582212204ec69537109ab169ab199c827d810f1b19b8af1956adb88c48c2c322f9cd519964736f6c63430008140033",
  "linkReferences": {},
  "deployedLinkReferences": {}
}