{
	"contracts/Bounty.sol": {
		"Bounty": {
			"abi": [
				{
					"inputs": [],
					"stateMutability": "nonpayable",
					"type": "constructor"
				},
				{
					"anonymous": false,
					"inputs": [
						{
							"indexed": true,
							"internalType": "address",
							"name": "previousOwner",
							"type": "address"
						},
						{
							"indexed": true,
							"internalType": "address",
							"name": "newOwner",
							"type": "address"
						}
					],
					"name": "OwnershipTransferred",
					"type": "event"
				},
				{
					"anonymous": false,
					"inputs": [
						{
							"indexed": false,
							"internalType": "contract BountyAddr",
							"name": "addr",
							"type": "address"
						}
					],
					"name": "createdBounty",
					"type": "event"
				},
				{
					"stateMutability": "payable",
					"type": "fallback"
				},
				{
					"inputs": [
						{
							"internalType": "uint256",
							"name": "amount",
							"type": "uint256"
						}
					],
					"name": "createBounty",
					"outputs": [],
					"stateMutability": "payable",
					"type": "function"
				},
				{
					"inputs": [
						{
							"internalType": "string",
							"name": "id",
							"type": "string"
						},
						{
							"internalType": "address payable",
							"name": "oriSender",
							"type": "address"
						},
						{
							"internalType": "uint256",
							"name": "oriVal",
							"type": "uint256"
						},
						{
							"internalType": "uint256",
							"name": "time",
							"type": "uint256"
						}
					],
					"name": "invest",
					"outputs": [],
					"stateMutability": "nonpayable",
					"type": "function"
				},
				{
					"inputs": [
						{
							"internalType": "address payable",
							"name": "receiver",
							"type": "address"
						}
					],
					"name": "suicide0",
					"outputs": [],
					"stateMutability": "nonpayable",
					"type": "function"
				},
				{
					"inputs": [
						{
							"internalType": "address",
							"name": "newOwner",
							"type": "address"
						}
					],
					"name": "transferOwnership",
					"outputs": [],
					"stateMutability": "nonpayable",
					"type": "function"
				},
				{
					"stateMutability": "payable",
					"type": "receive"
				}
			],
			"devdoc": {
				"kind": "dev",
				"methods": {},
				"version": 1
			},
			"evm": {
				"assembly": "    /* \"contracts/Bounty.sol\":143:921  contract Bounty is Base { ... */\n  mstore(0x40, 0x80)\n    /* \"contracts/Bounty.sol\":356:398  0x8f81b9B08232F8E8981dAa87854575d7325A9439 */\n  0x8f81b9b08232f8e8981daa87854575d7325a9439\n    /* \"contracts/Bounty.sol\":326:399  address _stableAddr = address(0x8f81b9B08232F8E8981dAa87854575d7325A9439) */\n  0x03\n  exp(0x0100, 0x00)\n  dup2\n  sload\n  dup2\n  0xffffffffffffffffffffffffffffffffffffffff\n  mul\n  not\n  and\n  swap1\n  dup4\n  0xffffffffffffffffffffffffffffffffffffffff\n  and\n  mul\n  or\n  swap1\n  sstore\n  pop\n    /* \"contracts/Bounty.sol\":406:463  constructor() Base() {... */\n  callvalue\n  dup1\n  iszero\n  tag_1\n  jumpi\n  0x00\n  dup1\n  revert\ntag_1:\n  pop\n    /* \"contracts/base/Base.sol\":371:381  msg.sender */\n  caller\n    /* \"contracts/base/Base.sol\":362:368  _owner */\n  0x00\n  dup1\n    /* \"contracts/base/Base.sol\":362:381  _owner = msg.sender */\n  0x0100\n  exp\n  dup2\n  sload\n  dup2\n  0xffffffffffffffffffffffffffffffffffffffff\n  mul\n  not\n  and\n  swap1\n  dup4\n  0xffffffffffffffffffffffffffffffffffffffff\n  and\n  mul\n  or\n  swap1\n  sstore\n  pop\n    /* \"contracts/Bounty.sol\":446:456  msg.sender */\n  caller\n    /* \"contracts/Bounty.sol\":437:443  _owner */\n  0x00\n  dup1\n    /* \"contracts/Bounty.sol\":437:456  _owner = msg.sender */\n  0x0100\n  exp\n  dup2\n  sload\n  dup2\n  0xffffffffffffffffffffffffffffffffffffffff\n  mul\n  not\n  and\n  swap1\n  dup4\n  0xffffffffffffffffffffffffffffffffffffffff\n  and\n  mul\n  or\n  swap1\n  sstore\n  pop\n    /* \"contracts/Bounty.sol\":143:921  contract Bounty is Base { ... */\n  dataSize(sub_0)\n  dup1\n  dataOffset(sub_0)\n  0x00\n  codecopy\n  0x00\n  return\nstop\n\nsub_0: assembly {\n        /* \"contracts/Bounty.sol\":143:921  contract Bounty is Base { ... */\n      mstore(0x40, 0x80)\n      jumpi(tag_1, lt(calldatasize, 0x04))\n      shr(0xe0, calldataload(0x00))\n      dup1\n      0x14da447f\n      eq\n      tag_3\n      jumpi\n      dup1\n      0x3f28e9fb\n      eq\n      tag_4\n      jumpi\n      dup1\n      0x46964a0a\n      eq\n      tag_5\n      jumpi\n      dup1\n      0xf2fde38b\n      eq\n      tag_6\n      jumpi\n      jump(tag_2)\n    tag_1:\n      jumpi(tag_2, calldatasize)\n        /* \"contracts/base/Base.sol\":498:506  revert() */\n      0x00\n      dup1\n      revert\n        /* \"contracts/Bounty.sol\":143:921  contract Bounty is Base { ... */\n    tag_2:\n        /* \"contracts/base/Base.sol\":440:448  revert() */\n      0x00\n      dup1\n      revert\n        /* \"contracts/base/Base.sol\":1009:1115  function suicide0(address payable receiver)... */\n    tag_3:\n      callvalue\n      dup1\n      iszero\n      tag_11\n      jumpi\n      0x00\n      dup1\n      revert\n    tag_11:\n      pop\n      tag_12\n      0x04\n      dup1\n      calldatasize\n      sub\n      dup2\n      add\n      swap1\n      tag_13\n      swap2\n      swap1\n      tag_14\n      jump\t// in\n    tag_13:\n      tag_15\n      jump\t// in\n    tag_12:\n      stop\n        /* \"contracts/Bounty.sol\":469:784  function createBounty(uint256 amount) public payable {... */\n    tag_4:\n      tag_16\n      0x04\n      dup1\n      calldatasize\n      sub\n      dup2\n      add\n      swap1\n      tag_17\n      swap2\n      swap1\n      tag_18\n      jump\t// in\n    tag_17:\n      tag_19\n      jump\t// in\n    tag_16:\n      stop\n        /* \"contracts/Bounty.sol\":790:919  function invest(string memory id, address payable oriSender, uint256 oriVal, uint256 time) public {... */\n    tag_5:\n      callvalue\n      dup1\n      iszero\n      tag_20\n      jumpi\n      0x00\n      dup1\n      revert\n    tag_20:\n      pop\n      tag_21\n      0x04\n      dup1\n      calldatasize\n      sub\n      dup2\n      add\n      swap1\n      tag_22\n      swap2\n      swap1\n      tag_23\n      jump\t// in\n    tag_22:\n      tag_24\n      jump\t// in\n    tag_21:\n      stop\n        /* \"contracts/base/Base.sol\":614:810  function transferOwnership(address newOwner) public virtual isOwner {... */\n    tag_6:\n      callvalue\n      dup1\n      iszero\n      tag_25\n      jumpi\n      0x00\n      dup1\n      revert\n    tag_25:\n      pop\n      tag_26\n      0x04\n      dup1\n      calldatasize\n      sub\n      dup2\n      add\n      swap1\n      tag_27\n      swap2\n      swap1\n      tag_28\n      jump\t// in\n    tag_27:\n      tag_29\n      jump\t// in\n    tag_26:\n      stop\n        /* \"contracts/base/Base.sol\":1009:1115  function suicide0(address payable receiver)... */\n    tag_15:\n        /* \"contracts/base/Base.sol\":303:309  _owner */\n      0x00\n      dup1\n      sload\n      swap1\n      0x0100\n      exp\n      swap1\n      div\n      0xffffffffffffffffffffffffffffffffffffffff\n      and\n        /* \"contracts/base/Base.sol\":289:309  msg.sender == _owner */\n      0xffffffffffffffffffffffffffffffffffffffff\n      and\n        /* \"contracts/base/Base.sol\":289:299  msg.sender */\n      caller\n        /* \"contracts/base/Base.sol\":289:309  msg.sender == _owner */\n      0xffffffffffffffffffffffffffffffffffffffff\n      and\n      eq\n        /* \"contracts/base/Base.sol\":282:310  assert(msg.sender == _owner) */\n      tag_31\n      jumpi\n      tag_32\n      tag_33\n      jump\t// in\n    tag_32:\n    tag_31:\n        /* \"contracts/base/Base.sol\":1099:1107  receiver */\n      dup1\n        /* \"contracts/base/Base.sol\":1086:1108  selfdestruct(receiver) */\n      0xffffffffffffffffffffffffffffffffffffffff\n      and\n      selfdestruct\n        /* \"contracts/Bounty.sol\":469:784  function createBounty(uint256 amount) public payable {... */\n    tag_19:\n        /* \"contracts/Bounty.sol\":532:547  BountyAddr addr */\n      0x00\n        /* \"contracts/Bounty.sol\":573:577  this */\n      address\n        /* \"contracts/Bounty.sol\":550:579  new BountyAddr(address(this)) */\n      mload(0x40)\n      tag_36\n      swap1\n      tag_37\n      jump\t// in\n    tag_36:\n      tag_38\n      swap2\n      swap1\n      tag_39\n      jump\t// in\n    tag_38:\n      mload(0x40)\n      dup1\n      swap2\n      sub\n      swap1\n      0x00\n      create\n      dup1\n      iszero\n      dup1\n      iszero\n      tag_40\n      jumpi\n      returndatasize\n      0x00\n      dup1\n      returndatacopy\n      revert(0x00, returndatasize)\n    tag_40:\n      pop\n        /* \"contracts/Bounty.sol\":532:579  BountyAddr addr = new BountyAddr(address(this)) */\n      swap1\n      pop\n        /* \"contracts/Bounty.sol\":644:655  _stableAddr */\n      0x03\n      0x00\n      swap1\n      sload\n      swap1\n      0x0100\n      exp\n      swap1\n      div\n      0xffffffffffffffffffffffffffffffffffffffff\n      and\n        /* \"contracts/Bounty.sol\":637:669  IERC20(_stableAddr).transferFrom */\n      0xffffffffffffffffffffffffffffffffffffffff\n      and\n      0x23b872dd\n        /* \"contracts/Bounty.sol\":670:680  msg.sender */\n      caller\n        /* \"contracts/Bounty.sol\":682:686  addr */\n      dup4\n        /* \"contracts/Bounty.sol\":682:694  addr.getPool */\n      0xffffffffffffffffffffffffffffffffffffffff\n      and\n      0x026b1d5f\n        /* \"contracts/Bounty.sol\":682:696  addr.getPool() */\n      mload(0x40)\n      dup2\n      0xffffffff\n      and\n      0xe0\n      shl\n      dup2\n      mstore\n      0x04\n      add\n      0x20\n      mload(0x40)\n      dup1\n      dup4\n      sub\n      dup2\n      dup7\n      dup1\n      extcodesize\n      iszero\n      dup1\n      iszero\n      tag_41\n      jumpi\n      0x00\n      dup1\n      revert\n    tag_41:\n      pop\n      gas\n      staticcall\n      iszero\n      dup1\n      iszero\n      tag_43\n      jumpi\n      returndatasize\n      0x00\n      dup1\n      returndatacopy\n      revert(0x00, returndatasize)\n    tag_43:\n      pop\n      pop\n      pop\n      pop\n      mload(0x40)\n      returndatasize\n      not(0x1f)\n      0x1f\n      dup3\n      add\n      and\n      dup3\n      add\n      dup1\n      0x40\n      mstore\n      pop\n      dup2\n      add\n      swap1\n      tag_44\n      swap2\n      swap1\n      tag_45\n      jump\t// in\n    tag_44:\n        /* \"contracts/Bounty.sol\":698:704  amount */\n      dup6\n        /* \"contracts/Bounty.sol\":637:705  IERC20(_stableAddr).transferFrom(msg.sender, addr.getPool(), amount) */\n      mload(0x40)\n      dup5\n      0xffffffff\n      and\n      0xe0\n      shl\n      dup2\n      mstore\n      0x04\n      add\n      tag_46\n      swap4\n      swap3\n      swap2\n      swap1\n      tag_47\n      jump\t// in\n    tag_46:\n      0x20\n      mload(0x40)\n      dup1\n      dup4\n      sub\n      dup2\n      0x00\n      dup8\n      dup1\n      extcodesize\n      iszero\n      dup1\n      iszero\n      tag_48\n      jumpi\n      0x00\n      dup1\n      revert\n    tag_48:\n      pop\n      gas\n      call\n      iszero\n      dup1\n      iszero\n      tag_50\n      jumpi\n      returndatasize\n      0x00\n      dup1\n      returndatacopy\n      revert(0x00, returndatasize)\n    tag_50:\n      pop\n      pop\n      pop\n      pop\n      mload(0x40)\n      returndatasize\n      not(0x1f)\n      0x1f\n      dup3\n      add\n      and\n      dup3\n      add\n      dup1\n      0x40\n      mstore\n      pop\n      dup2\n      add\n      swap1\n      tag_51\n      swap2\n      swap1\n      tag_52\n      jump\t// in\n    tag_51:\n      pop\n        /* \"contracts/Bounty.sol\":715:732  bountyAddressList */\n      0x02\n        /* \"contracts/Bounty.sol\":738:742  addr */\n      dup2\n        /* \"contracts/Bounty.sol\":715:743  bountyAddressList.push(addr) */\n      swap1\n      dup1\n      0x01\n      dup2\n      sload\n      add\n      dup1\n      dup3\n      sstore\n      dup1\n      swap2\n      pop\n      pop\n      0x01\n      swap1\n      sub\n      swap1\n      0x00\n      mstore\n      keccak256(0x00, 0x20)\n      add\n      0x00\n      swap1\n      swap2\n      swap1\n      swap2\n      swap1\n      swap2\n      0x0100\n      exp\n      dup2\n      sload\n      dup2\n      0xffffffffffffffffffffffffffffffffffffffff\n      mul\n      not\n      and\n      swap1\n      dup4\n      0xffffffffffffffffffffffffffffffffffffffff\n      and\n      mul\n      or\n      swap1\n      sstore\n      pop\n        /* \"contracts/Bounty.sol\":758:777  createdBounty(addr) */\n      0x1bda7bb843640650292c2a26a73106328e0f83c1c09ea1a4176df3912ee47ff6\n        /* \"contracts/Bounty.sol\":772:776  addr */\n      dup2\n        /* \"contracts/Bounty.sol\":758:777  createdBounty(addr) */\n      mload(0x40)\n      tag_54\n      swap2\n      swap1\n      tag_55\n      jump\t// in\n    tag_54:\n      mload(0x40)\n      dup1\n      swap2\n      sub\n      swap1\n      log1\n        /* \"contracts/Bounty.sol\":522:784  {... */\n      pop\n        /* \"contracts/Bounty.sol\":469:784  function createBounty(uint256 amount) public payable {... */\n      pop\n      jump\t// out\n        /* \"contracts/Bounty.sol\":790:919  function invest(string memory id, address payable oriSender, uint256 oriVal, uint256 time) public {... */\n    tag_24:\n      pop\n      pop\n      pop\n      pop\n      jump\t// out\n        /* \"contracts/base/Base.sol\":614:810  function transferOwnership(address newOwner) public virtual isOwner {... */\n    tag_29:\n        /* \"contracts/base/Base.sol\":303:309  _owner */\n      0x00\n      dup1\n      sload\n      swap1\n      0x0100\n      exp\n      swap1\n      div\n      0xffffffffffffffffffffffffffffffffffffffff\n      and\n        /* \"contracts/base/Base.sol\":289:309  msg.sender == _owner */\n      0xffffffffffffffffffffffffffffffffffffffff\n      and\n        /* \"contracts/base/Base.sol\":289:299  msg.sender */\n      caller\n        /* \"contracts/base/Base.sol\":289:309  msg.sender == _owner */\n      0xffffffffffffffffffffffffffffffffffffffff\n      and\n      eq\n        /* \"contracts/base/Base.sol\":282:310  assert(msg.sender == _owner) */\n      tag_58\n      jumpi\n      tag_59\n      tag_33\n      jump\t// in\n    tag_59:\n    tag_58:\n        /* \"contracts/base/Base.sol\":720:721  0 */\n      0x00\n        /* \"contracts/base/Base.sol\":700:722  newOwner != address(0) */\n      0xffffffffffffffffffffffffffffffffffffffff\n      and\n        /* \"contracts/base/Base.sol\":700:708  newOwner */\n      dup2\n        /* \"contracts/base/Base.sol\":700:722  newOwner != address(0) */\n      0xffffffffffffffffffffffffffffffffffffffff\n      and\n      eq\n      iszero\n        /* \"contracts/base/Base.sol\":692:765  require(newOwner != address(0), \"Ownable: new owner is the zero address\") */\n      tag_61\n      jumpi\n      mload(0x40)\n      0x08c379a000000000000000000000000000000000000000000000000000000000\n      dup2\n      mstore\n      0x04\n      add\n      tag_62\n      swap1\n      tag_63\n      jump\t// in\n    tag_62:\n      mload(0x40)\n      dup1\n      swap2\n      sub\n      swap1\n      revert\n    tag_61:\n        /* \"contracts/base/Base.sol\":775:803  _transferOwnership(newOwner) */\n      tag_64\n        /* \"contracts/base/Base.sol\":794:802  newOwner */\n      dup2\n        /* \"contracts/base/Base.sol\":775:793  _transferOwnership */\n      tag_65\n        /* \"contracts/base/Base.sol\":775:803  _transferOwnership(newOwner) */\n      jump\t// in\n    tag_64:\n        /* \"contracts/base/Base.sol\":614:810  function transferOwnership(address newOwner) public virtual isOwner {... */\n      pop\n      jump\t// out\n        /* \"contracts/base/Base.sol\":816:1003  function _transferOwnership(address newOwner) internal virtual {... */\n    tag_65:\n        /* \"contracts/base/Base.sol\":889:905  address oldOwner */\n      0x00\n        /* \"contracts/base/Base.sol\":908:914  _owner */\n      dup1\n      0x00\n      swap1\n      sload\n      swap1\n      0x0100\n      exp\n      swap1\n      div\n      0xffffffffffffffffffffffffffffffffffffffff\n      and\n        /* \"contracts/base/Base.sol\":889:914  address oldOwner = _owner */\n      swap1\n      pop\n        /* \"contracts/base/Base.sol\":933:941  newOwner */\n      dup2\n        /* \"contracts/base/Base.sol\":924:930  _owner */\n      0x00\n      dup1\n        /* \"contracts/base/Base.sol\":924:941  _owner = newOwner */\n      0x0100\n      exp\n      dup2\n      sload\n      dup2\n      0xffffffffffffffffffffffffffffffffffffffff\n      mul\n      not\n      and\n      swap1\n      dup4\n      0xffffffffffffffffffffffffffffffffffffffff\n      and\n      mul\n      or\n      swap1\n      sstore\n      pop\n        /* \"contracts/base/Base.sol\":987:995  newOwner */\n      dup2\n        /* \"contracts/base/Base.sol\":956:996  OwnershipTransferred(oldOwner, newOwner) */\n      0xffffffffffffffffffffffffffffffffffffffff\n      and\n        /* \"contracts/base/Base.sol\":977:985  oldOwner */\n      dup2\n        /* \"contracts/base/Base.sol\":956:996  OwnershipTransferred(oldOwner, newOwner) */\n      0xffffffffffffffffffffffffffffffffffffffff\n      and\n      0x8be0079c531659141344cd1fd0a4f28419497f9722a3daafe3b4186f6b6457e0\n      mload(0x40)\n      mload(0x40)\n      dup1\n      swap2\n      sub\n      swap1\n      log3\n        /* \"contracts/base/Base.sol\":879:1003  {... */\n      pop\n        /* \"contracts/base/Base.sol\":816:1003  function _transferOwnership(address newOwner) internal virtual {... */\n      pop\n      jump\t// out\n    tag_37:\n      dataSize(sub_0)\n      dup1\n      dataOffset(sub_0)\n      dup4\n      codecopy\n      add\n      swap1\n      jump\t// out\n        /* \"#utility.yul\":7:419   */\n    tag_68:\n        /* \"#utility.yul\":85:90   */\n      0x00\n        /* \"#utility.yul\":110:176   */\n      tag_70\n        /* \"#utility.yul\":126:175   */\n      tag_71\n        /* \"#utility.yul\":168:174   */\n      dup5\n        /* \"#utility.yul\":126:175   */\n      tag_72\n      jump\t// in\n    tag_71:\n        /* \"#utility.yul\":110:176   */\n      tag_73\n      jump\t// in\n    tag_70:\n        /* \"#utility.yul\":101:176   */\n      swap1\n      pop\n        /* \"#utility.yul\":199:205   */\n      dup3\n        /* \"#utility.yul\":192:197   */\n      dup2\n        /* \"#utility.yul\":185:206   */\n      mstore\n        /* \"#utility.yul\":237:241   */\n      0x20\n        /* \"#utility.yul\":230:235   */\n      dup2\n        /* \"#utility.yul\":226:242   */\n      add\n        /* \"#utility.yul\":275:278   */\n      dup5\n        /* \"#utility.yul\":266:272   */\n      dup5\n        /* \"#utility.yul\":261:264   */\n      dup5\n        /* \"#utility.yul\":257:273   */\n      add\n        /* \"#utility.yul\":254:279   */\n      gt\n        /* \"#utility.yul\":251:363   */\n      iszero\n      tag_74\n      jumpi\n        /* \"#utility.yul\":282:361   */\n      tag_75\n      tag_76\n      jump\t// in\n    tag_75:\n        /* \"#utility.yul\":251:363   */\n    tag_74:\n        /* \"#utility.yul\":372:413   */\n      tag_77\n        /* \"#utility.yul\":406:412   */\n      dup5\n        /* \"#utility.yul\":401:404   */\n      dup3\n        /* \"#utility.yul\":396:399   */\n      dup6\n        /* \"#utility.yul\":372:413   */\n      tag_78\n      jump\t// in\n    tag_77:\n        /* \"#utility.yul\":91:419   */\n      pop\n        /* \"#utility.yul\":7:419   */\n      swap4\n      swap3\n      pop\n      pop\n      pop\n      jump\t// out\n        /* \"#utility.yul\":425:564   */\n    tag_79:\n        /* \"#utility.yul\":471:476   */\n      0x00\n        /* \"#utility.yul\":509:515   */\n      dup2\n        /* \"#utility.yul\":496:516   */\n      calldataload\n        /* \"#utility.yul\":487:516   */\n      swap1\n      pop\n        /* \"#utility.yul\":525:558   */\n      tag_81\n        /* \"#utility.yul\":552:557   */\n      dup2\n        /* \"#utility.yul\":525:558   */\n      tag_82\n      jump\t// in\n    tag_81:\n        /* \"#utility.yul\":425:564   */\n      swap3\n      swap2\n      pop\n      pop\n      jump\t// out\n        /* \"#utility.yul\":570:725   */\n    tag_83:\n        /* \"#utility.yul\":624:629   */\n      0x00\n        /* \"#utility.yul\":662:668   */\n      dup2\n        /* \"#utility.yul\":649:669   */\n      calldataload\n        /* \"#utility.yul\":640:669   */\n      swap1\n      pop\n        /* \"#utility.yul\":678:719   */\n      tag_85\n        /* \"#utility.yul\":713:718   */\n      dup2\n        /* \"#utility.yul\":678:719   */\n      tag_86\n      jump\t// in\n    tag_85:\n        /* \"#utility.yul\":570:725   */\n      swap3\n      swap2\n      pop\n      pop\n      jump\t// out\n        /* \"#utility.yul\":731:890   */\n    tag_87:\n        /* \"#utility.yul\":796:801   */\n      0x00\n        /* \"#utility.yul\":827:833   */\n      dup2\n        /* \"#utility.yul\":821:834   */\n      mload\n        /* \"#utility.yul\":812:834   */\n      swap1\n      pop\n        /* \"#utility.yul\":843:884   */\n      tag_89\n        /* \"#utility.yul\":878:883   */\n      dup2\n        /* \"#utility.yul\":843:884   */\n      tag_86\n      jump\t// in\n    tag_89:\n        /* \"#utility.yul\":731:890   */\n      swap3\n      swap2\n      pop\n      pop\n      jump\t// out\n        /* \"#utility.yul\":896:1033   */\n    tag_90:\n        /* \"#utility.yul\":950:955   */\n      0x00\n        /* \"#utility.yul\":981:987   */\n      dup2\n        /* \"#utility.yul\":975:988   */\n      mload\n        /* \"#utility.yul\":966:988   */\n      swap1\n      pop\n        /* \"#utility.yul\":997:1027   */\n      tag_92\n        /* \"#utility.yul\":1021:1026   */\n      dup2\n        /* \"#utility.yul\":997:1027   */\n      tag_93\n      jump\t// in\n    tag_92:\n        /* \"#utility.yul\":896:1033   */\n      swap3\n      swap2\n      pop\n      pop\n      jump\t// out\n        /* \"#utility.yul\":1053:1393   */\n    tag_94:\n        /* \"#utility.yul\":1109:1114   */\n      0x00\n        /* \"#utility.yul\":1158:1161   */\n      dup3\n        /* \"#utility.yul\":1151:1155   */\n      0x1f\n        /* \"#utility.yul\":1143:1149   */\n      dup4\n        /* \"#utility.yul\":1139:1156   */\n      add\n        /* \"#utility.yul\":1135:1162   */\n      slt\n        /* \"#utility.yul\":1125:1247   */\n      tag_96\n      jumpi\n        /* \"#utility.yul\":1166:1245   */\n      tag_97\n      tag_98\n      jump\t// in\n    tag_97:\n        /* \"#utility.yul\":1125:1247   */\n    tag_96:\n        /* \"#utility.yul\":1283:1289   */\n      dup2\n        /* \"#utility.yul\":1270:1290   */\n      calldataload\n        /* \"#utility.yul\":1308:1387   */\n      tag_99\n        /* \"#utility.yul\":1383:1386   */\n      dup5\n        /* \"#utility.yul\":1375:1381   */\n      dup3\n        /* \"#utility.yul\":1368:1372   */\n      0x20\n        /* \"#utility.yul\":1360:1366   */\n      dup7\n        /* \"#utility.yul\":1356:1373   */\n      add\n        /* \"#utility.yul\":1308:1387   */\n      tag_68\n      jump\t// in\n    tag_99:\n        /* \"#utility.yul\":1299:1387   */\n      swap2\n      pop\n        /* \"#utility.yul\":1115:1393   */\n      pop\n        /* \"#utility.yul\":1053:1393   */\n      swap3\n      swap2\n      pop\n      pop\n      jump\t// out\n        /* \"#utility.yul\":1399:1538   */\n    tag_100:\n        /* \"#utility.yul\":1445:1450   */\n      0x00\n        /* \"#utility.yul\":1483:1489   */\n      dup2\n        /* \"#utility.yul\":1470:1490   */\n      calldataload\n        /* \"#utility.yul\":1461:1490   */\n      swap1\n      pop\n        /* \"#utility.yul\":1499:1532   */\n      tag_102\n        /* \"#utility.yul\":1526:1531   */\n      dup2\n        /* \"#utility.yul\":1499:1532   */\n      tag_103\n      jump\t// in\n    tag_102:\n        /* \"#utility.yul\":1399:1538   */\n      swap3\n      swap2\n      pop\n      pop\n      jump\t// out\n        /* \"#utility.yul\":1544:1873   */\n    tag_28:\n        /* \"#utility.yul\":1603:1609   */\n      0x00\n        /* \"#utility.yul\":1652:1654   */\n      0x20\n        /* \"#utility.yul\":1640:1649   */\n      dup3\n        /* \"#utility.yul\":1631:1638   */\n      dup5\n        /* \"#utility.yul\":1627:1650   */\n      sub\n        /* \"#utility.yul\":1623:1655   */\n      slt\n        /* \"#utility.yul\":1620:1739   */\n      iszero\n      tag_105\n      jumpi\n        /* \"#utility.yul\":1658:1737   */\n      tag_106\n      tag_107\n      jump\t// in\n    tag_106:\n        /* \"#utility.yul\":1620:1739   */\n    tag_105:\n        /* \"#utility.yul\":1778:1779   */\n      0x00\n        /* \"#utility.yul\":1803:1856   */\n      tag_108\n        /* \"#utility.yul\":1848:1855   */\n      dup5\n        /* \"#utility.yul\":1839:1845   */\n      dup3\n        /* \"#utility.yul\":1828:1837   */\n      dup6\n        /* \"#utility.yul\":1824:1846   */\n      add\n        /* \"#utility.yul\":1803:1856   */\n      tag_79\n      jump\t// in\n    tag_108:\n        /* \"#utility.yul\":1793:1856   */\n      swap2\n      pop\n        /* \"#utility.yul\":1749:1866   */\n      pop\n        /* \"#utility.yul\":1544:1873   */\n      swap3\n      swap2\n      pop\n      pop\n      jump\t// out\n        /* \"#utility.yul\":1879:2224   */\n    tag_14:\n        /* \"#utility.yul\":1946:1952   */\n      0x00\n        /* \"#utility.yul\":1995:1997   */\n      0x20\n        /* \"#utility.yul\":1983:1992   */\n      dup3\n        /* \"#utility.yul\":1974:1981   */\n      dup5\n        /* \"#utility.yul\":1970:1993   */\n      sub\n        /* \"#utility.yul\":1966:1998   */\n      slt\n        /* \"#utility.yul\":1963:2082   */\n      iszero\n      tag_110\n      jumpi\n        /* \"#utility.yul\":2001:2080   */\n      tag_111\n      tag_107\n      jump\t// in\n    tag_111:\n        /* \"#utility.yul\":1963:2082   */\n    tag_110:\n        /* \"#utility.yul\":2121:2122   */\n      0x00\n        /* \"#utility.yul\":2146:2207   */\n      tag_112\n        /* \"#utility.yul\":2199:2206   */\n      dup5\n        /* \"#utility.yul\":2190:2196   */\n      dup3\n        /* \"#utility.yul\":2179:2188   */\n      dup6\n        /* \"#utility.yul\":2175:2197   */\n      add\n        /* \"#utility.yul\":2146:2207   */\n      tag_83\n      jump\t// in\n    tag_112:\n        /* \"#utility.yul\":2136:2207   */\n      swap2\n      pop\n        /* \"#utility.yul\":2092:2217   */\n      pop\n        /* \"#utility.yul\":1879:2224   */\n      swap3\n      swap2\n      pop\n      pop\n      jump\t// out\n        /* \"#utility.yul\":2230:2597   */\n    tag_45:\n        /* \"#utility.yul\":2308:2314   */\n      0x00\n        /* \"#utility.yul\":2357:2359   */\n      0x20\n        /* \"#utility.yul\":2345:2354   */\n      dup3\n        /* \"#utility.yul\":2336:2343   */\n      dup5\n        /* \"#utility.yul\":2332:2355   */\n      sub\n        /* \"#utility.yul\":2328:2360   */\n      slt\n        /* \"#utility.yul\":2325:2444   */\n      iszero\n      tag_114\n      jumpi\n        /* \"#utility.yul\":2363:2442   */\n      tag_115\n      tag_107\n      jump\t// in\n    tag_115:\n        /* \"#utility.yul\":2325:2444   */\n    tag_114:\n        /* \"#utility.yul\":2483:2484   */\n      0x00\n        /* \"#utility.yul\":2508:2580   */\n      tag_116\n        /* \"#utility.yul\":2572:2579   */\n      dup5\n        /* \"#utility.yul\":2563:2569   */\n      dup3\n        /* \"#utility.yul\":2552:2561   */\n      dup6\n        /* \"#utility.yul\":2548:2570   */\n      add\n        /* \"#utility.yul\":2508:2580   */\n      tag_87\n      jump\t// in\n    tag_116:\n        /* \"#utility.yul\":2498:2580   */\n      swap2\n      pop\n        /* \"#utility.yul\":2454:2590   */\n      pop\n        /* \"#utility.yul\":2230:2597   */\n      swap3\n      swap2\n      pop\n      pop\n      jump\t// out\n        /* \"#utility.yul\":2603:2948   */\n    tag_52:\n        /* \"#utility.yul\":2670:2676   */\n      0x00\n        /* \"#utility.yul\":2719:2721   */\n      0x20\n        /* \"#utility.yul\":2707:2716   */\n      dup3\n        /* \"#utility.yul\":2698:2705   */\n      dup5\n        /* \"#utility.yul\":2694:2717   */\n      sub\n        /* \"#utility.yul\":2690:2722   */\n      slt\n        /* \"#utility.yul\":2687:2806   */\n      iszero\n      tag_118\n      jumpi\n        /* \"#utility.yul\":2725:2804   */\n      tag_119\n      tag_107\n      jump\t// in\n    tag_119:\n        /* \"#utility.yul\":2687:2806   */\n    tag_118:\n        /* \"#utility.yul\":2845:2846   */\n      0x00\n        /* \"#utility.yul\":2870:2931   */\n      tag_120\n        /* \"#utility.yul\":2923:2930   */\n      dup5\n        /* \"#utility.yul\":2914:2920   */\n      dup3\n        /* \"#utility.yul\":2903:2912   */\n      dup6\n        /* \"#utility.yul\":2899:2921   */\n      add\n        /* \"#utility.yul\":2870:2931   */\n      tag_90\n      jump\t// in\n    tag_120:\n        /* \"#utility.yul\":2860:2931   */\n      swap2\n      pop\n        /* \"#utility.yul\":2816:2941   */\n      pop\n        /* \"#utility.yul\":2603:2948   */\n      swap3\n      swap2\n      pop\n      pop\n      jump\t// out\n        /* \"#utility.yul\":2954:3915   */\n    tag_23:\n        /* \"#utility.yul\":3058:3064   */\n      0x00\n        /* \"#utility.yul\":3066:3072   */\n      dup1\n        /* \"#utility.yul\":3074:3080   */\n      0x00\n        /* \"#utility.yul\":3082:3088   */\n      dup1\n        /* \"#utility.yul\":3131:3134   */\n      0x80\n        /* \"#utility.yul\":3119:3128   */\n      dup6\n        /* \"#utility.yul\":3110:3117   */\n      dup8\n        /* \"#utility.yul\":3106:3129   */\n      sub\n        /* \"#utility.yul\":3102:3135   */\n      slt\n        /* \"#utility.yul\":3099:3219   */\n      iszero\n      tag_122\n      jumpi\n        /* \"#utility.yul\":3138:3217   */\n      tag_123\n      tag_107\n      jump\t// in\n    tag_123:\n        /* \"#utility.yul\":3099:3219   */\n    tag_122:\n        /* \"#utility.yul\":3286:3287   */\n      0x00\n        /* \"#utility.yul\":3275:3284   */\n      dup6\n        /* \"#utility.yul\":3271:3288   */\n      add\n        /* \"#utility.yul\":3258:3289   */\n      calldataload\n        /* \"#utility.yul\":3316:3334   */\n      0xffffffffffffffff\n        /* \"#utility.yul\":3308:3314   */\n      dup2\n        /* \"#utility.yul\":3305:3335   */\n      gt\n        /* \"#utility.yul\":3302:3419   */\n      iszero\n      tag_124\n      jumpi\n        /* \"#utility.yul\":3338:3417   */\n      tag_125\n      tag_126\n      jump\t// in\n    tag_125:\n        /* \"#utility.yul\":3302:3419   */\n    tag_124:\n        /* \"#utility.yul\":3443:3506   */\n      tag_127\n        /* \"#utility.yul\":3498:3505   */\n      dup8\n        /* \"#utility.yul\":3489:3495   */\n      dup3\n        /* \"#utility.yul\":3478:3487   */\n      dup9\n        /* \"#utility.yul\":3474:3496   */\n      add\n        /* \"#utility.yul\":3443:3506   */\n      tag_94\n      jump\t// in\n    tag_127:\n        /* \"#utility.yul\":3433:3506   */\n      swap5\n      pop\n        /* \"#utility.yul\":3229:3516   */\n      pop\n        /* \"#utility.yul\":3555:3557   */\n      0x20\n        /* \"#utility.yul\":3581:3642   */\n      tag_128\n        /* \"#utility.yul\":3634:3641   */\n      dup8\n        /* \"#utility.yul\":3625:3631   */\n      dup3\n        /* \"#utility.yul\":3614:3623   */\n      dup9\n        /* \"#utility.yul\":3610:3632   */\n      add\n        /* \"#utility.yul\":3581:3642   */\n      tag_83\n      jump\t// in\n    tag_128:\n        /* \"#utility.yul\":3571:3642   */\n      swap4\n      pop\n        /* \"#utility.yul\":3526:3652   */\n      pop\n        /* \"#utility.yul\":3691:3693   */\n      0x40\n        /* \"#utility.yul\":3717:3770   */\n      tag_129\n        /* \"#utility.yul\":3762:3769   */\n      dup8\n        /* \"#utility.yul\":3753:3759   */\n      dup3\n        /* \"#utility.yul\":3742:3751   */\n      dup9\n        /* \"#utility.yul\":3738:3760   */\n      add\n        /* \"#utility.yul\":3717:3770   */\n      tag_100\n      jump\t// in\n    tag_129:\n        /* \"#utility.yul\":3707:3770   */\n      swap3\n      pop\n        /* \"#utility.yul\":3662:3780   */\n      pop\n        /* \"#utility.yul\":3819:3821   */\n      0x60\n        /* \"#utility.yul\":3845:3898   */\n      tag_130\n        /* \"#utility.yul\":3890:3897   */\n      dup8\n        /* \"#utility.yul\":3881:3887   */\n      dup3\n        /* \"#utility.yul\":3870:3879   */\n      dup9\n        /* \"#utility.yul\":3866:3888   */\n      add\n        /* \"#utility.yul\":3845:3898   */\n      tag_100\n      jump\t// in\n    tag_130:\n        /* \"#utility.yul\":3835:3898   */\n      swap2\n      pop\n        /* \"#utility.yul\":3790:3908   */\n      pop\n        /* \"#utility.yul\":2954:3915   */\n      swap3\n      swap6\n      swap2\n      swap5\n      pop\n      swap3\n      pop\n      jump\t// out\n        /* \"#utility.yul\":3921:4250   */\n    tag_18:\n        /* \"#utility.yul\":3980:3986   */\n      0x00\n        /* \"#utility.yul\":4029:4031   */\n      0x20\n        /* \"#utility.yul\":4017:4026   */\n      dup3\n        /* \"#utility.yul\":4008:4015   */\n      dup5\n        /* \"#utility.yul\":4004:4027   */\n      sub\n        /* \"#utility.yul\":4000:4032   */\n      slt\n        /* \"#utility.yul\":3997:4116   */\n      iszero\n      tag_132\n      jumpi\n        /* \"#utility.yul\":4035:4114   */\n      tag_133\n      tag_107\n      jump\t// in\n    tag_133:\n        /* \"#utility.yul\":3997:4116   */\n    tag_132:\n        /* \"#utility.yul\":4155:4156   */\n      0x00\n        /* \"#utility.yul\":4180:4233   */\n      tag_134\n        /* \"#utility.yul\":4225:4232   */\n      dup5\n        /* \"#utility.yul\":4216:4222   */\n      dup3\n        /* \"#utility.yul\":4205:4214   */\n      dup6\n        /* \"#utility.yul\":4201:4223   */\n      add\n        /* \"#utility.yul\":4180:4233   */\n      tag_100\n      jump\t// in\n    tag_134:\n        /* \"#utility.yul\":4170:4233   */\n      swap2\n      pop\n        /* \"#utility.yul\":4126:4243   */\n      pop\n        /* \"#utility.yul\":3921:4250   */\n      swap3\n      swap2\n      pop\n      pop\n      jump\t// out\n        /* \"#utility.yul\":4256:4403   */\n    tag_135:\n        /* \"#utility.yul\":4351:4396   */\n      tag_137\n        /* \"#utility.yul\":4390:4395   */\n      dup2\n        /* \"#utility.yul\":4351:4396   */\n      tag_138\n      jump\t// in\n    tag_137:\n        /* \"#utility.yul\":4346:4349   */\n      dup3\n        /* \"#utility.yul\":4339:4397   */\n      mstore\n        /* \"#utility.yul\":4256:4403   */\n      pop\n      pop\n      jump\t// out\n        /* \"#utility.yul\":4409:4527   */\n    tag_139:\n        /* \"#utility.yul\":4496:4520   */\n      tag_141\n        /* \"#utility.yul\":4514:4519   */\n      dup2\n        /* \"#utility.yul\":4496:4520   */\n      tag_142\n      jump\t// in\n    tag_141:\n        /* \"#utility.yul\":4491:4494   */\n      dup3\n        /* \"#utility.yul\":4484:4521   */\n      mstore\n        /* \"#utility.yul\":4409:4527   */\n      pop\n      pop\n      jump\t// out\n        /* \"#utility.yul\":4533:4716   */\n    tag_143:\n        /* \"#utility.yul\":4646:4709   */\n      tag_145\n        /* \"#utility.yul\":4703:4708   */\n      dup2\n        /* \"#utility.yul\":4646:4709   */\n      tag_146\n      jump\t// in\n    tag_145:\n        /* \"#utility.yul\":4641:4644   */\n      dup3\n        /* \"#utility.yul\":4634:4710   */\n      mstore\n        /* \"#utility.yul\":4533:4716   */\n      pop\n      pop\n      jump\t// out\n        /* \"#utility.yul\":4722:5088   */\n    tag_147:\n        /* \"#utility.yul\":4864:4867   */\n      0x00\n        /* \"#utility.yul\":4885:4952   */\n      tag_149\n        /* \"#utility.yul\":4949:4951   */\n      0x26\n        /* \"#utility.yul\":4944:4947   */\n      dup4\n        /* \"#utility.yul\":4885:4952   */\n      tag_150\n      jump\t// in\n    tag_149:\n        /* \"#utility.yul\":4878:4952   */\n      swap2\n      pop\n        /* \"#utility.yul\":4961:5054   */\n      tag_151\n        /* \"#utility.yul\":5050:5053   */\n      dup3\n        /* \"#utility.yul\":4961:5054   */\n      tag_152\n      jump\t// in\n    tag_151:\n        /* \"#utility.yul\":5079:5081   */\n      0x40\n        /* \"#utility.yul\":5074:5077   */\n      dup3\n        /* \"#utility.yul\":5070:5082   */\n      add\n        /* \"#utility.yul\":5063:5082   */\n      swap1\n      pop\n        /* \"#utility.yul\":4722:5088   */\n      swap2\n      swap1\n      pop\n      jump\t// out\n        /* \"#utility.yul\":5094:5212   */\n    tag_153:\n        /* \"#utility.yul\":5181:5205   */\n      tag_155\n        /* \"#utility.yul\":5199:5204   */\n      dup2\n        /* \"#utility.yul\":5181:5205   */\n      tag_156\n      jump\t// in\n    tag_155:\n        /* \"#utility.yul\":5176:5179   */\n      dup3\n        /* \"#utility.yul\":5169:5206   */\n      mstore\n        /* \"#utility.yul\":5094:5212   */\n      pop\n      pop\n      jump\t// out\n        /* \"#utility.yul\":5218:5440   */\n    tag_39:\n        /* \"#utility.yul\":5311:5315   */\n      0x00\n        /* \"#utility.yul\":5349:5351   */\n      0x20\n        /* \"#utility.yul\":5338:5347   */\n      dup3\n        /* \"#utility.yul\":5334:5352   */\n      add\n        /* \"#utility.yul\":5326:5352   */\n      swap1\n      pop\n        /* \"#utility.yul\":5362:5433   */\n      tag_158\n        /* \"#utility.yul\":5430:5431   */\n      0x00\n        /* \"#utility.yul\":5419:5428   */\n      dup4\n        /* \"#utility.yul\":5415:5432   */\n      add\n        /* \"#utility.yul\":5406:5412   */\n      dup5\n        /* \"#utility.yul\":5362:5433   */\n      tag_139\n      jump\t// in\n    tag_158:\n        /* \"#utility.yul\":5218:5440   */\n      swap3\n      swap2\n      pop\n      pop\n      jump\t// out\n        /* \"#utility.yul\":5446:5904   */\n    tag_47:\n        /* \"#utility.yul\":5603:5607   */\n      0x00\n        /* \"#utility.yul\":5641:5643   */\n      0x60\n        /* \"#utility.yul\":5630:5639   */\n      dup3\n        /* \"#utility.yul\":5626:5644   */\n      add\n        /* \"#utility.yul\":5618:5644   */\n      swap1\n      pop\n        /* \"#utility.yul\":5654:5725   */\n      tag_160\n        /* \"#utility.yul\":5722:5723   */\n      0x00\n        /* \"#utility.yul\":5711:5720   */\n      dup4\n        /* \"#utility.yul\":5707:5724   */\n      add\n        /* \"#utility.yul\":5698:5704   */\n      dup7\n        /* \"#utility.yul\":5654:5725   */\n      tag_139\n      jump\t// in\n    tag_160:\n        /* \"#utility.yul\":5735:5815   */\n      tag_161\n        /* \"#utility.yul\":5811:5813   */\n      0x20\n        /* \"#utility.yul\":5800:5809   */\n      dup4\n        /* \"#utility.yul\":5796:5814   */\n      add\n        /* \"#utility.yul\":5787:5793   */\n      dup6\n        /* \"#utility.yul\":5735:5815   */\n      tag_135\n      jump\t// in\n    tag_161:\n        /* \"#utility.yul\":5825:5897   */\n      tag_162\n        /* \"#utility.yul\":5893:5895   */\n      0x40\n        /* \"#utility.yul\":5882:5891   */\n      dup4\n        /* \"#utility.yul\":5878:5896   */\n      add\n        /* \"#utility.yul\":5869:5875   */\n      dup5\n        /* \"#utility.yul\":5825:5897   */\n      tag_153\n      jump\t// in\n    tag_162:\n        /* \"#utility.yul\":5446:5904   */\n      swap5\n      swap4\n      pop\n      pop\n      pop\n      pop\n      jump\t// out\n        /* \"#utility.yul\":5910:6184   */\n    tag_55:\n        /* \"#utility.yul\":6029:6033   */\n      0x00\n        /* \"#utility.yul\":6067:6069   */\n      0x20\n        /* \"#utility.yul\":6056:6065   */\n      dup3\n        /* \"#utility.yul\":6052:6070   */\n      add\n        /* \"#utility.yul\":6044:6070   */\n      swap1\n      pop\n        /* \"#utility.yul\":6080:6177   */\n      tag_164\n        /* \"#utility.yul\":6174:6175   */\n      0x00\n        /* \"#utility.yul\":6163:6172   */\n      dup4\n        /* \"#utility.yul\":6159:6176   */\n      add\n        /* \"#utility.yul\":6150:6156   */\n      dup5\n        /* \"#utility.yul\":6080:6177   */\n      tag_143\n      jump\t// in\n    tag_164:\n        /* \"#utility.yul\":5910:6184   */\n      swap3\n      swap2\n      pop\n      pop\n      jump\t// out\n        /* \"#utility.yul\":6190:6609   */\n    tag_63:\n        /* \"#utility.yul\":6356:6360   */\n      0x00\n        /* \"#utility.yul\":6394:6396   */\n      0x20\n        /* \"#utility.yul\":6383:6392   */\n      dup3\n        /* \"#utility.yul\":6379:6397   */\n      add\n        /* \"#utility.yul\":6371:6397   */\n      swap1\n      pop\n        /* \"#utility.yul\":6443:6452   */\n      dup2\n        /* \"#utility.yul\":6437:6441   */\n      dup2\n        /* \"#utility.yul\":6433:6453   */\n      sub\n        /* \"#utility.yul\":6429:6430   */\n      0x00\n        /* \"#utility.yul\":6418:6427   */\n      dup4\n        /* \"#utility.yul\":6414:6431   */\n      add\n        /* \"#utility.yul\":6407:6454   */\n      mstore\n        /* \"#utility.yul\":6471:6602   */\n      tag_166\n        /* \"#utility.yul\":6597:6601   */\n      dup2\n        /* \"#utility.yul\":6471:6602   */\n      tag_147\n      jump\t// in\n    tag_166:\n        /* \"#utility.yul\":6463:6602   */\n      swap1\n      pop\n        /* \"#utility.yul\":6190:6609   */\n      swap2\n      swap1\n      pop\n      jump\t// out\n        /* \"#utility.yul\":6615:6744   */\n    tag_73:\n        /* \"#utility.yul\":6649:6655   */\n      0x00\n        /* \"#utility.yul\":6676:6696   */\n      tag_168\n      tag_169\n      jump\t// in\n    tag_168:\n        /* \"#utility.yul\":6666:6696   */\n      swap1\n      pop\n        /* \"#utility.yul\":6705:6738   */\n      tag_170\n        /* \"#utility.yul\":6733:6737   */\n      dup3\n        /* \"#utility.yul\":6725:6731   */\n      dup3\n        /* \"#utility.yul\":6705:6738   */\n      tag_171\n      jump\t// in\n    tag_170:\n        /* \"#utility.yul\":6615:6744   */\n      swap2\n      swap1\n      pop\n      jump\t// out\n        /* \"#utility.yul\":6750:6825   */\n    tag_169:\n        /* \"#utility.yul\":6783:6789   */\n      0x00\n        /* \"#utility.yul\":6816:6818   */\n      0x40\n        /* \"#utility.yul\":6810:6819   */\n      mload\n        /* \"#utility.yul\":6800:6819   */\n      swap1\n      pop\n        /* \"#utility.yul\":6750:6825   */\n      swap1\n      jump\t// out\n        /* \"#utility.yul\":6831:7139   */\n    tag_72:\n        /* \"#utility.yul\":6893:6897   */\n      0x00\n        /* \"#utility.yul\":6983:7001   */\n      0xffffffffffffffff\n        /* \"#utility.yul\":6975:6981   */\n      dup3\n        /* \"#utility.yul\":6972:7002   */\n      gt\n        /* \"#utility.yul\":6969:7025   */\n      iszero\n      tag_174\n      jumpi\n        /* \"#utility.yul\":7005:7023   */\n      tag_175\n      tag_176\n      jump\t// in\n    tag_175:\n        /* \"#utility.yul\":6969:7025   */\n    tag_174:\n        /* \"#utility.yul\":7043:7072   */\n      tag_177\n        /* \"#utility.yul\":7065:7071   */\n      dup3\n        /* \"#utility.yul\":7043:7072   */\n      tag_178\n      jump\t// in\n    tag_177:\n        /* \"#utility.yul\":7035:7072   */\n      swap1\n      pop\n        /* \"#utility.yul\":7127:7131   */\n      0x20\n        /* \"#utility.yul\":7121:7125   */\n      dup2\n        /* \"#utility.yul\":7117:7132   */\n      add\n        /* \"#utility.yul\":7109:7132   */\n      swap1\n      pop\n        /* \"#utility.yul\":6831:7139   */\n      swap2\n      swap1\n      pop\n      jump\t// out\n        /* \"#utility.yul\":7145:7314   */\n    tag_150:\n        /* \"#utility.yul\":7229:7240   */\n      0x00\n        /* \"#utility.yul\":7263:7269   */\n      dup3\n        /* \"#utility.yul\":7258:7261   */\n      dup3\n        /* \"#utility.yul\":7251:7270   */\n      mstore\n        /* \"#utility.yul\":7303:7307   */\n      0x20\n        /* \"#utility.yul\":7298:7301   */\n      dup3\n        /* \"#utility.yul\":7294:7308   */\n      add\n        /* \"#utility.yul\":7279:7308   */\n      swap1\n      pop\n        /* \"#utility.yul\":7145:7314   */\n      swap3\n      swap2\n      pop\n      pop\n      jump\t// out\n        /* \"#utility.yul\":7320:7416   */\n    tag_142:\n        /* \"#utility.yul\":7357:7364   */\n      0x00\n        /* \"#utility.yul\":7386:7410   */\n      tag_181\n        /* \"#utility.yul\":7404:7409   */\n      dup3\n        /* \"#utility.yul\":7386:7410   */\n      tag_182\n      jump\t// in\n    tag_181:\n        /* \"#utility.yul\":7375:7410   */\n      swap1\n      pop\n        /* \"#utility.yul\":7320:7416   */\n      swap2\n      swap1\n      pop\n      jump\t// out\n        /* \"#utility.yul\":7422:7526   */\n    tag_183:\n        /* \"#utility.yul\":7467:7474   */\n      0x00\n        /* \"#utility.yul\":7496:7520   */\n      tag_185\n        /* \"#utility.yul\":7514:7519   */\n      dup3\n        /* \"#utility.yul\":7496:7520   */\n      tag_182\n      jump\t// in\n    tag_185:\n        /* \"#utility.yul\":7485:7520   */\n      swap1\n      pop\n        /* \"#utility.yul\":7422:7526   */\n      swap2\n      swap1\n      pop\n      jump\t// out\n        /* \"#utility.yul\":7532:7622   */\n    tag_186:\n        /* \"#utility.yul\":7566:7573   */\n      0x00\n        /* \"#utility.yul\":7609:7614   */\n      dup2\n        /* \"#utility.yul\":7602:7615   */\n      iszero\n        /* \"#utility.yul\":7595:7616   */\n      iszero\n        /* \"#utility.yul\":7584:7616   */\n      swap1\n      pop\n        /* \"#utility.yul\":7532:7622   */\n      swap2\n      swap1\n      pop\n      jump\t// out\n        /* \"#utility.yul\":7628:7754   */\n    tag_182:\n        /* \"#utility.yul\":7665:7672   */\n      0x00\n        /* \"#utility.yul\":7705:7747   */\n      0xffffffffffffffffffffffffffffffffffffffff\n        /* \"#utility.yul\":7698:7703   */\n      dup3\n        /* \"#utility.yul\":7694:7748   */\n      and\n        /* \"#utility.yul\":7683:7748   */\n      swap1\n      pop\n        /* \"#utility.yul\":7628:7754   */\n      swap2\n      swap1\n      pop\n      jump\t// out\n        /* \"#utility.yul\":7760:7837   */\n    tag_156:\n        /* \"#utility.yul\":7797:7804   */\n      0x00\n        /* \"#utility.yul\":7826:7831   */\n      dup2\n        /* \"#utility.yul\":7815:7831   */\n      swap1\n      pop\n        /* \"#utility.yul\":7760:7837   */\n      swap2\n      swap1\n      pop\n      jump\t// out\n        /* \"#utility.yul\":7843:7977   */\n    tag_138:\n        /* \"#utility.yul\":7901:7910   */\n      0x00\n        /* \"#utility.yul\":7934:7971   */\n      tag_191\n        /* \"#utility.yul\":7965:7970   */\n      dup3\n        /* \"#utility.yul\":7934:7971   */\n      tag_192\n      jump\t// in\n    tag_191:\n        /* \"#utility.yul\":7921:7971   */\n      swap1\n      pop\n        /* \"#utility.yul\":7843:7977   */\n      swap2\n      swap1\n      pop\n      jump\t// out\n        /* \"#utility.yul\":7983:8143   */\n    tag_146:\n        /* \"#utility.yul\":8059:8068   */\n      0x00\n        /* \"#utility.yul\":8092:8137   */\n      tag_194\n        /* \"#utility.yul\":8131:8136   */\n      dup3\n        /* \"#utility.yul\":8092:8137   */\n      tag_195\n      jump\t// in\n    tag_194:\n        /* \"#utility.yul\":8079:8137   */\n      swap1\n      pop\n        /* \"#utility.yul\":7983:8143   */\n      swap2\n      swap1\n      pop\n      jump\t// out\n        /* \"#utility.yul\":8149:8275   */\n    tag_192:\n        /* \"#utility.yul\":8199:8208   */\n      0x00\n        /* \"#utility.yul\":8232:8269   */\n      tag_197\n        /* \"#utility.yul\":8263:8268   */\n      dup3\n        /* \"#utility.yul\":8232:8269   */\n      tag_198\n      jump\t// in\n    tag_197:\n        /* \"#utility.yul\":8219:8269   */\n      swap1\n      pop\n        /* \"#utility.yul\":8149:8275   */\n      swap2\n      swap1\n      pop\n      jump\t// out\n        /* \"#utility.yul\":8281:8415   */\n    tag_195:\n        /* \"#utility.yul\":8339:8348   */\n      0x00\n        /* \"#utility.yul\":8372:8409   */\n      tag_200\n        /* \"#utility.yul\":8403:8408   */\n      dup3\n        /* \"#utility.yul\":8372:8409   */\n      tag_198\n      jump\t// in\n    tag_200:\n        /* \"#utility.yul\":8359:8409   */\n      swap1\n      pop\n        /* \"#utility.yul\":8281:8415   */\n      swap2\n      swap1\n      pop\n      jump\t// out\n        /* \"#utility.yul\":8421:8534   */\n    tag_198:\n        /* \"#utility.yul\":8471:8480   */\n      0x00\n        /* \"#utility.yul\":8504:8528   */\n      tag_202\n        /* \"#utility.yul\":8522:8527   */\n      dup3\n        /* \"#utility.yul\":8504:8528   */\n      tag_182\n      jump\t// in\n    tag_202:\n        /* \"#utility.yul\":8491:8528   */\n      swap1\n      pop\n        /* \"#utility.yul\":8421:8534   */\n      swap2\n      swap1\n      pop\n      jump\t// out\n        /* \"#utility.yul\":8540:8694   */\n    tag_78:\n        /* \"#utility.yul\":8624:8630   */\n      dup3\n        /* \"#utility.yul\":8619:8622   */\n      dup2\n        /* \"#utility.yul\":8614:8617   */\n      dup4\n        /* \"#utility.yul\":8601:8631   */\n      calldatacopy\n        /* \"#utility.yul\":8686:8687   */\n      0x00\n        /* \"#utility.yul\":8677:8683   */\n      dup4\n        /* \"#utility.yul\":8672:8675   */\n      dup4\n        /* \"#utility.yul\":8668:8684   */\n      add\n        /* \"#utility.yul\":8661:8688   */\n      mstore\n        /* \"#utility.yul\":8540:8694   */\n      pop\n      pop\n      pop\n      jump\t// out\n        /* \"#utility.yul\":8700:8981   */\n    tag_171:\n        /* \"#utility.yul\":8783:8810   */\n      tag_205\n        /* \"#utility.yul\":8805:8809   */\n      dup3\n        /* \"#utility.yul\":8783:8810   */\n      tag_178\n      jump\t// in\n    tag_205:\n        /* \"#utility.yul\":8775:8781   */\n      dup2\n        /* \"#utility.yul\":8771:8811   */\n      add\n        /* \"#utility.yul\":8913:8919   */\n      dup2\n        /* \"#utility.yul\":8901:8911   */\n      dup2\n        /* \"#utility.yul\":8898:8920   */\n      lt\n        /* \"#utility.yul\":8877:8895   */\n      0xffffffffffffffff\n        /* \"#utility.yul\":8865:8875   */\n      dup3\n        /* \"#utility.yul\":8862:8896   */\n      gt\n        /* \"#utility.yul\":8859:8921   */\n      or\n        /* \"#utility.yul\":8856:8944   */\n      iszero\n      tag_206\n      jumpi\n        /* \"#utility.yul\":8924:8942   */\n      tag_207\n      tag_176\n      jump\t// in\n    tag_207:\n        /* \"#utility.yul\":8856:8944   */\n    tag_206:\n        /* \"#utility.yul\":8964:8974   */\n      dup1\n        /* \"#utility.yul\":8960:8962   */\n      0x40\n        /* \"#utility.yul\":8953:8975   */\n      mstore\n        /* \"#utility.yul\":8743:8981   */\n      pop\n        /* \"#utility.yul\":8700:8981   */\n      pop\n      pop\n      jump\t// out\n        /* \"#utility.yul\":8987:9167   */\n    tag_33:\n        /* \"#utility.yul\":9035:9112   */\n      0x4e487b7100000000000000000000000000000000000000000000000000000000\n        /* \"#utility.yul\":9032:9033   */\n      0x00\n        /* \"#utility.yul\":9025:9113   */\n      mstore\n        /* \"#utility.yul\":9132:9136   */\n      0x01\n        /* \"#utility.yul\":9129:9130   */\n      0x04\n        /* \"#utility.yul\":9122:9137   */\n      mstore\n        /* \"#utility.yul\":9156:9160   */\n      0x24\n        /* \"#utility.yul\":9153:9154   */\n      0x00\n        /* \"#utility.yul\":9146:9161   */\n      revert\n        /* \"#utility.yul\":9173:9353   */\n    tag_176:\n        /* \"#utility.yul\":9221:9298   */\n      0x4e487b7100000000000000000000000000000000000000000000000000000000\n        /* \"#utility.yul\":9218:9219   */\n      0x00\n        /* \"#utility.yul\":9211:9299   */\n      mstore\n        /* \"#utility.yul\":9318:9322   */\n      0x41\n        /* \"#utility.yul\":9315:9316   */\n      0x04\n        /* \"#utility.yul\":9308:9323   */\n      mstore\n        /* \"#utility.yul\":9342:9346   */\n      0x24\n        /* \"#utility.yul\":9339:9340   */\n      0x00\n        /* \"#utility.yul\":9332:9347   */\n      revert\n        /* \"#utility.yul\":9359:9476   */\n    tag_98:\n        /* \"#utility.yul\":9468:9469   */\n      0x00\n        /* \"#utility.yul\":9465:9466   */\n      dup1\n        /* \"#utility.yul\":9458:9470   */\n      revert\n        /* \"#utility.yul\":9482:9599   */\n    tag_76:\n        /* \"#utility.yul\":9591:9592   */\n      0x00\n        /* \"#utility.yul\":9588:9589   */\n      dup1\n        /* \"#utility.yul\":9581:9593   */\n      revert\n        /* \"#utility.yul\":9605:9722   */\n    tag_126:\n        /* \"#utility.yul\":9714:9715   */\n      0x00\n        /* \"#utility.yul\":9711:9712   */\n      dup1\n        /* \"#utility.yul\":9704:9716   */\n      revert\n        /* \"#utility.yul\":9728:9845   */\n    tag_107:\n        /* \"#utility.yul\":9837:9838   */\n      0x00\n        /* \"#utility.yul\":9834:9835   */\n      dup1\n        /* \"#utility.yul\":9827:9839   */\n      revert\n        /* \"#utility.yul\":9851:9953   */\n    tag_178:\n        /* \"#utility.yul\":9892:9898   */\n      0x00\n        /* \"#utility.yul\":9943:9945   */\n      0x1f\n        /* \"#utility.yul\":9939:9946   */\n      not\n        /* \"#utility.yul\":9934:9936   */\n      0x1f\n        /* \"#utility.yul\":9927:9932   */\n      dup4\n        /* \"#utility.yul\":9923:9937   */\n      add\n        /* \"#utility.yul\":9919:9947   */\n      and\n        /* \"#utility.yul\":9909:9947   */\n      swap1\n      pop\n        /* \"#utility.yul\":9851:9953   */\n      swap2\n      swap1\n      pop\n      jump\t// out\n        /* \"#utility.yul\":9959:10184   */\n    tag_152:\n        /* \"#utility.yul\":10099:10133   */\n      0x4f776e61626c653a206e6577206f776e657220697320746865207a65726f2061\n        /* \"#utility.yul\":10095:10096   */\n      0x00\n        /* \"#utility.yul\":10087:10093   */\n      dup3\n        /* \"#utility.yul\":10083:10097   */\n      add\n        /* \"#utility.yul\":10076:10134   */\n      mstore\n        /* \"#utility.yul\":10168:10176   */\n      0x6464726573730000000000000000000000000000000000000000000000000000\n        /* \"#utility.yul\":10163:10165   */\n      0x20\n        /* \"#utility.yul\":10155:10161   */\n      dup3\n        /* \"#utility.yul\":10151:10166   */\n      add\n        /* \"#utility.yul\":10144:10177   */\n      mstore\n        /* \"#utility.yul\":9959:10184   */\n      pop\n      jump\t// out\n        /* \"#utility.yul\":10190:10312   */\n    tag_82:\n        /* \"#utility.yul\":10263:10287   */\n      tag_217\n        /* \"#utility.yul\":10281:10286   */\n      dup2\n        /* \"#utility.yul\":10263:10287   */\n      tag_142\n      jump\t// in\n    tag_217:\n        /* \"#utility.yul\":10256:10261   */\n      dup2\n        /* \"#utility.yul\":10253:10288   */\n      eq\n        /* \"#utility.yul\":10243:10306   */\n      tag_218\n      jumpi\n        /* \"#utility.yul\":10302:10303   */\n      0x00\n        /* \"#utility.yul\":10299:10300   */\n      dup1\n        /* \"#utility.yul\":10292:10304   */\n      revert\n        /* \"#utility.yul\":10243:10306   */\n    tag_218:\n        /* \"#utility.yul\":10190:10312   */\n      pop\n      jump\t// out\n        /* \"#utility.yul\":10318:10456   */\n    tag_86:\n        /* \"#utility.yul\":10399:10431   */\n      tag_220\n        /* \"#utility.yul\":10425:10430   */\n      dup2\n        /* \"#utility.yul\":10399:10431   */\n      tag_183\n      jump\t// in\n    tag_220:\n        /* \"#utility.yul\":10392:10397   */\n      dup2\n        /* \"#utility.yul\":10389:10432   */\n      eq\n        /* \"#utility.yul\":10379:10450   */\n      tag_221\n      jumpi\n        /* \"#utility.yul\":10446:10447   */\n      0x00\n        /* \"#utility.yul\":10443:10444   */\n      dup1\n        /* \"#utility.yul\":10436:10448   */\n      revert\n        /* \"#utility.yul\":10379:10450   */\n    tag_221:\n        /* \"#utility.yul\":10318:10456   */\n      pop\n      jump\t// out\n        /* \"#utility.yul\":10462:10578   */\n    tag_93:\n        /* \"#utility.yul\":10532:10553   */\n      tag_223\n        /* \"#utility.yul\":10547:10552   */\n      dup2\n        /* \"#utility.yul\":10532:10553   */\n      tag_186\n      jump\t// in\n    tag_223:\n        /* \"#utility.yul\":10525:10530   */\n      dup2\n        /* \"#utility.yul\":10522:10554   */\n      eq\n        /* \"#utility.yul\":10512:10572   */\n      tag_224\n      jumpi\n        /* \"#utility.yul\":10568:10569   */\n      0x00\n        /* \"#utility.yul\":10565:10566   */\n      dup1\n        /* \"#utility.yul\":10558:10570   */\n      revert\n        /* \"#utility.yul\":10512:10572   */\n    tag_224:\n        /* \"#utility.yul\":10462:10578   */\n      pop\n      jump\t// out\n        /* \"#utility.yul\":10584:10706   */\n    tag_103:\n        /* \"#utility.yul\":10657:10681   */\n      tag_226\n        /* \"#utility.yul\":10675:10680   */\n      dup2\n        /* \"#utility.yul\":10657:10681   */\n      tag_156\n      jump\t// in\n    tag_226:\n        /* \"#utility.yul\":10650:10655   */\n      dup2\n        /* \"#utility.yul\":10647:10682   */\n      eq\n        /* \"#utility.yul\":10637:10700   */\n      tag_227\n      jumpi\n        /* \"#utility.yul\":10696:10697   */\n      0x00\n        /* \"#utility.yul\":10693:10694   */\n      dup1\n        /* \"#utility.yul\":10686:10698   */\n      revert\n        /* \"#utility.yul\":10637:10700   */\n    tag_227:\n        /* \"#utility.yul\":10584:10706   */\n      pop\n      jump\t// out\n    stop\n\n    sub_0: assembly {\n            /* \"contracts/Bounty.sol\":923:2048  contract BountyAddr {... */\n          mstore(0x40, 0x80)\n            /* \"contracts/Bounty.sol\":1252:1325  constructor(address bountyBase) {... */\n          callvalue\n          dup1\n          iszero\n          tag_1\n          jumpi\n          0x00\n          dup1\n          revert\n        tag_1:\n          pop\n          mload(0x40)\n          sub(codesize, bytecodeSize)\n          dup1\n          bytecodeSize\n          dup4\n          codecopy\n          dup2\n          dup2\n          add\n          0x40\n          mstore\n          dup2\n          add\n          swap1\n          tag_2\n          swap2\n          swap1\n          tag_3\n          jump\t// in\n        tag_2:\n            /* \"contracts/Bounty.sol\":1308:1318  bountyBase */\n          dup1\n            /* \"contracts/Bounty.sol\":1294:1305  _bountyBase */\n          0x00\n          dup1\n            /* \"contracts/Bounty.sol\":1294:1318  _bountyBase = bountyBase */\n          0x0100\n          exp\n          dup2\n          sload\n          dup2\n          0xffffffffffffffffffffffffffffffffffffffff\n          mul\n          not\n          and\n          swap1\n          dup4\n          0xffffffffffffffffffffffffffffffffffffffff\n          and\n          mul\n          or\n          swap1\n          sstore\n          pop\n            /* \"contracts/Bounty.sol\":1252:1325  constructor(address bountyBase) {... */\n          pop\n            /* \"contracts/Bounty.sol\":923:2048  contract BountyAddr {... */\n          jump(tag_6)\n            /* \"#utility.yul\":7:150   */\n        tag_8:\n            /* \"#utility.yul\":64:69   */\n          0x00\n            /* \"#utility.yul\":95:101   */\n          dup2\n            /* \"#utility.yul\":89:102   */\n          mload\n            /* \"#utility.yul\":80:102   */\n          swap1\n          pop\n            /* \"#utility.yul\":111:144   */\n          tag_10\n            /* \"#utility.yul\":138:143   */\n          dup2\n            /* \"#utility.yul\":111:144   */\n          tag_11\n          jump\t// in\n        tag_10:\n            /* \"#utility.yul\":7:150   */\n          swap3\n          swap2\n          pop\n          pop\n          jump\t// out\n            /* \"#utility.yul\":156:507   */\n        tag_3:\n            /* \"#utility.yul\":226:232   */\n          0x00\n            /* \"#utility.yul\":275:277   */\n          0x20\n            /* \"#utility.yul\":263:272   */\n          dup3\n            /* \"#utility.yul\":254:261   */\n          dup5\n            /* \"#utility.yul\":250:273   */\n          sub\n            /* \"#utility.yul\":246:278   */\n          slt\n            /* \"#utility.yul\":243:362   */\n          iszero\n          tag_13\n          jumpi\n            /* \"#utility.yul\":281:360   */\n          tag_14\n          tag_15\n          jump\t// in\n        tag_14:\n            /* \"#utility.yul\":243:362   */\n        tag_13:\n            /* \"#utility.yul\":401:402   */\n          0x00\n            /* \"#utility.yul\":426:490   */\n          tag_16\n            /* \"#utility.yul\":482:489   */\n          dup5\n            /* \"#utility.yul\":473:479   */\n          dup3\n            /* \"#utility.yul\":462:471   */\n          dup6\n            /* \"#utility.yul\":458:480   */\n          add\n            /* \"#utility.yul\":426:490   */\n          tag_8\n          jump\t// in\n        tag_16:\n            /* \"#utility.yul\":416:490   */\n          swap2\n          pop\n            /* \"#utility.yul\":372:500   */\n          pop\n            /* \"#utility.yul\":156:507   */\n          swap3\n          swap2\n          pop\n          pop\n          jump\t// out\n            /* \"#utility.yul\":594:690   */\n        tag_19:\n            /* \"#utility.yul\":631:638   */\n          0x00\n            /* \"#utility.yul\":660:684   */\n          tag_21\n            /* \"#utility.yul\":678:683   */\n          dup3\n            /* \"#utility.yul\":660:684   */\n          tag_22\n          jump\t// in\n        tag_21:\n            /* \"#utility.yul\":649:684   */\n          swap1\n          pop\n            /* \"#utility.yul\":594:690   */\n          swap2\n          swap1\n          pop\n          jump\t// out\n            /* \"#utility.yul\":696:822   */\n        tag_22:\n            /* \"#utility.yul\":733:740   */\n          0x00\n            /* \"#utility.yul\":773:815   */\n          0xffffffffffffffffffffffffffffffffffffffff\n            /* \"#utility.yul\":766:771   */\n          dup3\n            /* \"#utility.yul\":762:816   */\n          and\n            /* \"#utility.yul\":751:816   */\n          swap1\n          pop\n            /* \"#utility.yul\":696:822   */\n          swap2\n          swap1\n          pop\n          jump\t// out\n            /* \"#utility.yul\":951:1068   */\n        tag_15:\n            /* \"#utility.yul\":1060:1061   */\n          0x00\n            /* \"#utility.yul\":1057:1058   */\n          dup1\n            /* \"#utility.yul\":1050:1062   */\n          revert\n            /* \"#utility.yul\":1074:1196   */\n        tag_11:\n            /* \"#utility.yul\":1147:1171   */\n          tag_28\n            /* \"#utility.yul\":1165:1170   */\n          dup2\n            /* \"#utility.yul\":1147:1171   */\n          tag_19\n          jump\t// in\n        tag_28:\n            /* \"#utility.yul\":1140:1145   */\n          dup2\n            /* \"#utility.yul\":1137:1172   */\n          eq\n            /* \"#utility.yul\":1127:1190   */\n          tag_29\n          jumpi\n            /* \"#utility.yul\":1186:1187   */\n          0x00\n            /* \"#utility.yul\":1183:1184   */\n          dup1\n            /* \"#utility.yul\":1176:1188   */\n          revert\n            /* \"#utility.yul\":1127:1190   */\n        tag_29:\n            /* \"#utility.yul\":1074:1196   */\n          pop\n          jump\t// out\n            /* \"contracts/Bounty.sol\":923:2048  contract BountyAddr {... */\n        tag_6:\n          dataSize(sub_0)\n          dup1\n          dataOffset(sub_0)\n          0x00\n          codecopy\n          0x00\n          return\n        stop\n\n        sub_0: assembly {\n                /* \"contracts/Bounty.sol\":923:2048  contract BountyAddr {... */\n              mstore(0x40, 0x80)\n              jumpi(tag_1, lt(calldatasize, 0x04))\n              shr(0xe0, calldataload(0x00))\n              dup1\n              0x026b1d5f\n              eq\n              tag_3\n              jumpi\n              dup1\n              0x13658f8a\n              eq\n              tag_4\n              jumpi\n              dup1\n              0x23b872dd\n              eq\n              tag_5\n              jumpi\n              dup1\n              0xbeabacc8\n              eq\n              tag_6\n              jumpi\n              dup1\n              0xd0e30db0\n              eq\n              tag_7\n              jumpi\n              dup1\n              0xe1f21c67\n              eq\n              tag_8\n              jumpi\n              jump(tag_2)\n            tag_1:\n              jumpi(tag_2, calldatasize)\n                /* \"contracts/Bounty.sol\":1051:1052  0 */\n              0x00\n                /* \"contracts/Bounty.sol\":1019:1053  address(_bountyBase) != address(0) */\n              0xffffffffffffffffffffffffffffffffffffffff\n              and\n                /* \"contracts/Bounty.sol\":1027:1038  _bountyBase */\n              0x00\n              dup1\n              sload\n              swap1\n              0x0100\n              exp\n              swap1\n              div\n              0xffffffffffffffffffffffffffffffffffffffff\n              and\n                /* \"contracts/Bounty.sol\":1019:1053  address(_bountyBase) != address(0) */\n              0xffffffffffffffffffffffffffffffffffffffff\n              and\n              eq\n              iszero\n                /* \"contracts/Bounty.sol\":1011:1074  require(address(_bountyBase) != address(0), 'need init bounty') */\n              tag_11\n              jumpi\n              mload(0x40)\n              0x08c379a000000000000000000000000000000000000000000000000000000000\n              dup2\n              mstore\n              0x04\n              add\n              tag_12\n              swap1\n              tag_13\n              jump\t// in\n            tag_12:\n              mload(0x40)\n              dup1\n              swap2\n              sub\n              swap1\n              revert\n            tag_11:\n                /* \"contracts/Bounty.sol\":923:2048  contract BountyAddr {... */\n              stop\n            tag_2:\n              0x00\n              dup1\n              revert\n                /* \"contracts/Bounty.sol\":1934:2046  function getPool() public view virtual returns (address payable) {... */\n            tag_3:\n              callvalue\n              dup1\n              iszero\n              tag_15\n              jumpi\n              0x00\n              dup1\n              revert\n            tag_15:\n              pop\n              tag_16\n              tag_17\n              jump\t// in\n            tag_16:\n              mload(0x40)\n              tag_18\n              swap2\n              swap1\n              tag_19\n              jump\t// in\n            tag_18:\n              mload(0x40)\n              dup1\n              swap2\n              sub\n              swap1\n              return\n                /* \"contracts/Bounty.sol\":1331:1444  function stableTransfer(address payable to, uint256 amount) external payable {... */\n            tag_4:\n              tag_20\n              0x04\n              dup1\n              calldatasize\n              sub\n              dup2\n              add\n              swap1\n              tag_21\n              swap2\n              swap1\n              tag_22\n              jump\t// in\n            tag_21:\n              tag_23\n              jump\t// in\n            tag_20:\n              stop\n                /* \"contracts/Bounty.sol\":1575:1719  function transferFrom(IERC20 token, address to, uint256 amount) external {... */\n            tag_5:\n              callvalue\n              dup1\n              iszero\n              tag_24\n              jumpi\n              0x00\n              dup1\n              revert\n            tag_24:\n              pop\n              tag_25\n              0x04\n              dup1\n              calldatasize\n              sub\n              dup2\n              add\n              swap1\n              tag_26\n              swap2\n              swap1\n              tag_27\n              jump\t// in\n            tag_26:\n              tag_28\n              jump\t// in\n            tag_25:\n              stop\n                /* \"contracts/Bounty.sol\":1725:1846  function transfer(IERC20 token, address to, uint256 amount) external {... */\n            tag_6:\n              callvalue\n              dup1\n              iszero\n              tag_29\n              jumpi\n              0x00\n              dup1\n              revert\n            tag_29:\n              pop\n              tag_30\n              0x04\n              dup1\n              calldatasize\n              sub\n              dup2\n              add\n              swap1\n              tag_31\n              swap2\n              swap1\n              tag_27\n              jump\t// in\n            tag_31:\n              tag_32\n              jump\t// in\n            tag_30:\n              stop\n                /* \"contracts/Bounty.sol\":1852:1927  function deposit() external payable {... */\n            tag_7:\n              tag_33\n              tag_34\n              jump\t// in\n            tag_33:\n              stop\n                /* \"contracts/Bounty.sol\":1450:1569  function approve(IERC20 token, address to, uint256 amount) external {... */\n            tag_8:\n              callvalue\n              dup1\n              iszero\n              tag_35\n              jumpi\n              0x00\n              dup1\n              revert\n            tag_35:\n              pop\n              tag_36\n              0x04\n              dup1\n              calldatasize\n              sub\n              dup2\n              add\n              swap1\n              tag_37\n              swap2\n              swap1\n              tag_27\n              jump\t// in\n            tag_37:\n              tag_38\n              jump\t// in\n            tag_36:\n              stop\n                /* \"contracts/Bounty.sol\":1934:2046  function getPool() public view virtual returns (address payable) {... */\n            tag_17:\n                /* \"contracts/Bounty.sol\":1982:1997  address payable */\n              0x00\n                /* \"contracts/Bounty.sol\":2033:2037  this */\n              address\n                /* \"contracts/Bounty.sol\":2010:2039  return payable(address(this)) */\n              swap1\n              pop\n                /* \"contracts/Bounty.sol\":1934:2046  function getPool() public view virtual returns (address payable) {... */\n              swap1\n              jump\t// out\n                /* \"contracts/Bounty.sol\":1331:1444  function stableTransfer(address payable to, uint256 amount) external payable {... */\n            tag_23:\n                /* \"contracts/Bounty.sol\":1418:1420  to */\n              dup2\n                /* \"contracts/Bounty.sol\":1418:1429  to.transfer */\n              0xffffffffffffffffffffffffffffffffffffffff\n              and\n                /* \"contracts/Bounty.sol\":1418:1437  to.transfer(amount) */\n              0x08fc\n                /* \"contracts/Bounty.sol\":1430:1436  amount */\n              dup3\n                /* \"contracts/Bounty.sol\":1418:1437  to.transfer(amount) */\n              swap1\n              dup2\n              iszero\n              mul\n              swap1\n              mload(0x40)\n              0x00\n              mload(0x40)\n              dup1\n              dup4\n              sub\n              dup2\n              dup6\n              dup9\n              dup9\n              call\n              swap4\n              pop\n              pop\n              pop\n              pop\n              iszero\n              dup1\n              iszero\n              tag_42\n              jumpi\n              returndatasize\n              0x00\n              dup1\n              returndatacopy\n              revert(0x00, returndatasize)\n            tag_42:\n              pop\n                /* \"contracts/Bounty.sol\":1331:1444  function stableTransfer(address payable to, uint256 amount) external payable {... */\n              pop\n              pop\n              jump\t// out\n                /* \"contracts/Bounty.sol\":1575:1719  function transferFrom(IERC20 token, address to, uint256 amount) external {... */\n            tag_28:\n                /* \"contracts/Bounty.sol\":1666:1671  token */\n              dup3\n                /* \"contracts/Bounty.sol\":1666:1684  token.transferFrom */\n              0xffffffffffffffffffffffffffffffffffffffff\n              and\n              0x23b872dd\n                /* \"contracts/Bounty.sol\":1693:1697  this */\n              address\n                /* \"contracts/Bounty.sol\":1700:1702  to */\n              dup5\n                /* \"contracts/Bounty.sol\":1704:1710  amount */\n              dup5\n                /* \"contracts/Bounty.sol\":1666:1711  token.transferFrom(address(this), to, amount) */\n              mload(0x40)\n              dup5\n              0xffffffff\n              and\n              0xe0\n              shl\n              dup2\n              mstore\n              0x04\n              add\n              tag_44\n              swap4\n              swap3\n              swap2\n              swap1\n              tag_45\n              jump\t// in\n            tag_44:\n              0x20\n              mload(0x40)\n              dup1\n              dup4\n              sub\n              dup2\n              0x00\n              dup8\n              dup1\n              extcodesize\n              iszero\n              dup1\n              iszero\n              tag_46\n              jumpi\n              0x00\n              dup1\n              revert\n            tag_46:\n              pop\n              gas\n              call\n              iszero\n              dup1\n              iszero\n              tag_48\n              jumpi\n              returndatasize\n              0x00\n              dup1\n              returndatacopy\n              revert(0x00, returndatasize)\n            tag_48:\n              pop\n              pop\n              pop\n              pop\n              mload(0x40)\n              returndatasize\n              not(0x1f)\n              0x1f\n              dup3\n              add\n              and\n              dup3\n              add\n              dup1\n              0x40\n              mstore\n              pop\n              dup2\n              add\n              swap1\n              tag_49\n              swap2\n              swap1\n              tag_50\n              jump\t// in\n            tag_49:\n                /* \"contracts/Bounty.sol\":1658:1712  require(token.transferFrom(address(this), to, amount)) */\n              tag_51\n              jumpi\n              0x00\n              dup1\n              revert\n            tag_51:\n                /* \"contracts/Bounty.sol\":1575:1719  function transferFrom(IERC20 token, address to, uint256 amount) external {... */\n              pop\n              pop\n              pop\n              jump\t// out\n                /* \"contracts/Bounty.sol\":1725:1846  function transfer(IERC20 token, address to, uint256 amount) external {... */\n            tag_32:\n                /* \"contracts/Bounty.sol\":1812:1817  token */\n              dup3\n                /* \"contracts/Bounty.sol\":1812:1826  token.transfer */\n              0xffffffffffffffffffffffffffffffffffffffff\n              and\n              0xa9059cbb\n                /* \"contracts/Bounty.sol\":1827:1829  to */\n              dup4\n                /* \"contracts/Bounty.sol\":1831:1837  amount */\n              dup4\n                /* \"contracts/Bounty.sol\":1812:1838  token.transfer(to, amount) */\n              mload(0x40)\n              dup4\n              0xffffffff\n              and\n              0xe0\n              shl\n              dup2\n              mstore\n              0x04\n              add\n              tag_53\n              swap3\n              swap2\n              swap1\n              tag_54\n              jump\t// in\n            tag_53:\n              0x20\n              mload(0x40)\n              dup1\n              dup4\n              sub\n              dup2\n              0x00\n              dup8\n              dup1\n              extcodesize\n              iszero\n              dup1\n              iszero\n              tag_55\n              jumpi\n              0x00\n              dup1\n              revert\n            tag_55:\n              pop\n              gas\n              call\n              iszero\n              dup1\n              iszero\n              tag_57\n              jumpi\n              returndatasize\n              0x00\n              dup1\n              returndatacopy\n              revert(0x00, returndatasize)\n            tag_57:\n              pop\n              pop\n              pop\n              pop\n              mload(0x40)\n              returndatasize\n              not(0x1f)\n              0x1f\n              dup3\n              add\n              and\n              dup3\n              add\n              dup1\n              0x40\n              mstore\n              pop\n              dup2\n              add\n              swap1\n              tag_58\n              swap2\n              swap1\n              tag_50\n              jump\t// in\n            tag_58:\n                /* \"contracts/Bounty.sol\":1804:1839  require(token.transfer(to, amount)) */\n              tag_59\n              jumpi\n              0x00\n              dup1\n              revert\n            tag_59:\n                /* \"contracts/Bounty.sol\":1725:1846  function transfer(IERC20 token, address to, uint256 amount) external {... */\n              pop\n              pop\n              pop\n              jump\t// out\n                /* \"contracts/Bounty.sol\":1852:1927  function deposit() external payable {... */\n            tag_34:\n              jump\t// out\n                /* \"contracts/Bounty.sol\":1450:1569  function approve(IERC20 token, address to, uint256 amount) external {... */\n            tag_38:\n                /* \"contracts/Bounty.sol\":1536:1541  token */\n              dup3\n                /* \"contracts/Bounty.sol\":1536:1549  token.approve */\n              0xffffffffffffffffffffffffffffffffffffffff\n              and\n              0x095ea7b3\n                /* \"contracts/Bounty.sol\":1550:1552  to */\n              dup4\n                /* \"contracts/Bounty.sol\":1554:1560  amount */\n              dup4\n                /* \"contracts/Bounty.sol\":1536:1561  token.approve(to, amount) */\n              mload(0x40)\n              dup4\n              0xffffffff\n              and\n              0xe0\n              shl\n              dup2\n              mstore\n              0x04\n              add\n              tag_62\n              swap3\n              swap2\n              swap1\n              tag_54\n              jump\t// in\n            tag_62:\n              0x20\n              mload(0x40)\n              dup1\n              dup4\n              sub\n              dup2\n              0x00\n              dup8\n              dup1\n              extcodesize\n              iszero\n              dup1\n              iszero\n              tag_63\n              jumpi\n              0x00\n              dup1\n              revert\n            tag_63:\n              pop\n              gas\n              call\n              iszero\n              dup1\n              iszero\n              tag_65\n              jumpi\n              returndatasize\n              0x00\n              dup1\n              returndatacopy\n              revert(0x00, returndatasize)\n            tag_65:\n              pop\n              pop\n              pop\n              pop\n              mload(0x40)\n              returndatasize\n              not(0x1f)\n              0x1f\n              dup3\n              add\n              and\n              dup3\n              add\n              dup1\n              0x40\n              mstore\n              pop\n              dup2\n              add\n              swap1\n              tag_66\n              swap2\n              swap1\n              tag_50\n              jump\t// in\n            tag_66:\n                /* \"contracts/Bounty.sol\":1528:1562  require(token.approve(to, amount)) */\n              tag_67\n              jumpi\n              0x00\n              dup1\n              revert\n            tag_67:\n                /* \"contracts/Bounty.sol\":1450:1569  function approve(IERC20 token, address to, uint256 amount) external {... */\n              pop\n              pop\n              pop\n              jump\t// out\n                /* \"#utility.yul\":7:146   */\n            tag_69:\n                /* \"#utility.yul\":53:58   */\n              0x00\n                /* \"#utility.yul\":91:97   */\n              dup2\n                /* \"#utility.yul\":78:98   */\n              calldataload\n                /* \"#utility.yul\":69:98   */\n              swap1\n              pop\n                /* \"#utility.yul\":107:140   */\n              tag_71\n                /* \"#utility.yul\":134:139   */\n              dup2\n                /* \"#utility.yul\":107:140   */\n              tag_72\n              jump\t// in\n            tag_71:\n                /* \"#utility.yul\":7:146   */\n              swap3\n              swap2\n              pop\n              pop\n              jump\t// out\n                /* \"#utility.yul\":152:307   */\n            tag_73:\n                /* \"#utility.yul\":206:211   */\n              0x00\n                /* \"#utility.yul\":244:250   */\n              dup2\n                /* \"#utility.yul\":231:251   */\n              calldataload\n                /* \"#utility.yul\":222:251   */\n              swap1\n              pop\n                /* \"#utility.yul\":260:301   */\n              tag_75\n                /* \"#utility.yul\":295:300   */\n              dup2\n                /* \"#utility.yul\":260:301   */\n              tag_76\n              jump\t// in\n            tag_75:\n                /* \"#utility.yul\":152:307   */\n              swap3\n              swap2\n              pop\n              pop\n              jump\t// out\n                /* \"#utility.yul\":313:450   */\n            tag_77:\n                /* \"#utility.yul\":367:372   */\n              0x00\n                /* \"#utility.yul\":398:404   */\n              dup2\n                /* \"#utility.yul\":392:405   */\n              mload\n                /* \"#utility.yul\":383:405   */\n              swap1\n              pop\n                /* \"#utility.yul\":414:444   */\n              tag_79\n                /* \"#utility.yul\":438:443   */\n              dup2\n                /* \"#utility.yul\":414:444   */\n              tag_80\n              jump\t// in\n            tag_79:\n                /* \"#utility.yul\":313:450   */\n              swap3\n              swap2\n              pop\n              pop\n              jump\t// out\n                /* \"#utility.yul\":456:623   */\n            tag_81:\n                /* \"#utility.yul\":516:521   */\n              0x00\n                /* \"#utility.yul\":554:560   */\n              dup2\n                /* \"#utility.yul\":541:561   */\n              calldataload\n                /* \"#utility.yul\":532:561   */\n              swap1\n              pop\n                /* \"#utility.yul\":570:617   */\n              tag_83\n                /* \"#utility.yul\":611:616   */\n              dup2\n                /* \"#utility.yul\":570:617   */\n              tag_84\n              jump\t// in\n            tag_83:\n                /* \"#utility.yul\":456:623   */\n              swap3\n              swap2\n              pop\n              pop\n              jump\t// out\n                /* \"#utility.yul\":629:768   */\n            tag_85:\n                /* \"#utility.yul\":675:680   */\n              0x00\n                /* \"#utility.yul\":713:719   */\n              dup2\n                /* \"#utility.yul\":700:720   */\n              calldataload\n                /* \"#utility.yul\":691:720   */\n              swap1\n              pop\n                /* \"#utility.yul\":729:762   */\n              tag_87\n                /* \"#utility.yul\":756:761   */\n              dup2\n                /* \"#utility.yul\":729:762   */\n              tag_88\n              jump\t// in\n            tag_87:\n                /* \"#utility.yul\":629:768   */\n              swap3\n              swap2\n              pop\n              pop\n              jump\t// out\n                /* \"#utility.yul\":774:1264   */\n            tag_22:\n                /* \"#utility.yul\":850:856   */\n              0x00\n                /* \"#utility.yul\":858:864   */\n              dup1\n                /* \"#utility.yul\":907:909   */\n              0x40\n                /* \"#utility.yul\":895:904   */\n              dup4\n                /* \"#utility.yul\":886:893   */\n              dup6\n                /* \"#utility.yul\":882:905   */\n              sub\n                /* \"#utility.yul\":878:910   */\n              slt\n                /* \"#utility.yul\":875:994   */\n              iszero\n              tag_90\n              jumpi\n                /* \"#utility.yul\":913:992   */\n              tag_91\n              tag_92\n              jump\t// in\n            tag_91:\n                /* \"#utility.yul\":875:994   */\n            tag_90:\n                /* \"#utility.yul\":1033:1034   */\n              0x00\n                /* \"#utility.yul\":1058:1119   */\n              tag_93\n                /* \"#utility.yul\":1111:1118   */\n              dup6\n                /* \"#utility.yul\":1102:1108   */\n              dup3\n                /* \"#utility.yul\":1091:1100   */\n              dup7\n                /* \"#utility.yul\":1087:1109   */\n              add\n                /* \"#utility.yul\":1058:1119   */\n              tag_73\n              jump\t// in\n            tag_93:\n                /* \"#utility.yul\":1048:1119   */\n              swap3\n              pop\n                /* \"#utility.yul\":1004:1129   */\n              pop\n                /* \"#utility.yul\":1168:1170   */\n              0x20\n                /* \"#utility.yul\":1194:1247   */\n              tag_94\n                /* \"#utility.yul\":1239:1246   */\n              dup6\n                /* \"#utility.yul\":1230:1236   */\n              dup3\n                /* \"#utility.yul\":1219:1228   */\n              dup7\n                /* \"#utility.yul\":1215:1237   */\n              add\n                /* \"#utility.yul\":1194:1247   */\n              tag_85\n              jump\t// in\n            tag_94:\n                /* \"#utility.yul\":1184:1247   */\n              swap2\n              pop\n                /* \"#utility.yul\":1139:1257   */\n              pop\n                /* \"#utility.yul\":774:1264   */\n              swap3\n              pop\n              swap3\n              swap1\n              pop\n              jump\t// out\n                /* \"#utility.yul\":1270:1615   */\n            tag_50:\n                /* \"#utility.yul\":1337:1343   */\n              0x00\n                /* \"#utility.yul\":1386:1388   */\n              0x20\n                /* \"#utility.yul\":1374:1383   */\n              dup3\n                /* \"#utility.yul\":1365:1372   */\n              dup5\n                /* \"#utility.yul\":1361:1384   */\n              sub\n                /* \"#utility.yul\":1357:1389   */\n              slt\n                /* \"#utility.yul\":1354:1473   */\n              iszero\n              tag_96\n              jumpi\n                /* \"#utility.yul\":1392:1471   */\n              tag_97\n              tag_92\n              jump\t// in\n            tag_97:\n                /* \"#utility.yul\":1354:1473   */\n            tag_96:\n                /* \"#utility.yul\":1512:1513   */\n              0x00\n                /* \"#utility.yul\":1537:1598   */\n              tag_98\n                /* \"#utility.yul\":1590:1597   */\n              dup5\n                /* \"#utility.yul\":1581:1587   */\n              dup3\n                /* \"#utility.yul\":1570:1579   */\n              dup6\n                /* \"#utility.yul\":1566:1588   */\n              add\n                /* \"#utility.yul\":1537:1598   */\n              tag_77\n              jump\t// in\n            tag_98:\n                /* \"#utility.yul\":1527:1598   */\n              swap2\n              pop\n                /* \"#utility.yul\":1483:1608   */\n              pop\n                /* \"#utility.yul\":1270:1615   */\n              swap3\n              swap2\n              pop\n              pop\n              jump\t// out\n                /* \"#utility.yul\":1621:2268   */\n            tag_27:\n                /* \"#utility.yul\":1712:1718   */\n              0x00\n                /* \"#utility.yul\":1720:1726   */\n              dup1\n                /* \"#utility.yul\":1728:1734   */\n              0x00\n                /* \"#utility.yul\":1777:1779   */\n              0x60\n                /* \"#utility.yul\":1765:1774   */\n              dup5\n                /* \"#utility.yul\":1756:1763   */\n              dup7\n                /* \"#utility.yul\":1752:1775   */\n              sub\n                /* \"#utility.yul\":1748:1780   */\n              slt\n                /* \"#utility.yul\":1745:1864   */\n              iszero\n              tag_100\n              jumpi\n                /* \"#utility.yul\":1783:1862   */\n              tag_101\n              tag_92\n              jump\t// in\n            tag_101:\n                /* \"#utility.yul\":1745:1864   */\n            tag_100:\n                /* \"#utility.yul\":1903:1904   */\n              0x00\n                /* \"#utility.yul\":1928:1995   */\n              tag_102\n                /* \"#utility.yul\":1987:1994   */\n              dup7\n                /* \"#utility.yul\":1978:1984   */\n              dup3\n                /* \"#utility.yul\":1967:1976   */\n              dup8\n                /* \"#utility.yul\":1963:1985   */\n              add\n                /* \"#utility.yul\":1928:1995   */\n              tag_81\n              jump\t// in\n            tag_102:\n                /* \"#utility.yul\":1918:1995   */\n              swap4\n              pop\n                /* \"#utility.yul\":1874:2005   */\n              pop\n                /* \"#utility.yul\":2044:2046   */\n              0x20\n                /* \"#utility.yul\":2070:2123   */\n              tag_103\n                /* \"#utility.yul\":2115:2122   */\n              dup7\n                /* \"#utility.yul\":2106:2112   */\n              dup3\n                /* \"#utility.yul\":2095:2104   */\n              dup8\n                /* \"#utility.yul\":2091:2113   */\n              add\n                /* \"#utility.yul\":2070:2123   */\n              tag_69\n              jump\t// in\n            tag_103:\n                /* \"#utility.yul\":2060:2123   */\n              swap3\n              pop\n                /* \"#utility.yul\":2015:2133   */\n              pop\n                /* \"#utility.yul\":2172:2174   */\n              0x40\n                /* \"#utility.yul\":2198:2251   */\n              tag_104\n                /* \"#utility.yul\":2243:2250   */\n              dup7\n                /* \"#utility.yul\":2234:2240   */\n              dup3\n                /* \"#utility.yul\":2223:2232   */\n              dup8\n                /* \"#utility.yul\":2219:2241   */\n              add\n                /* \"#utility.yul\":2198:2251   */\n              tag_85\n              jump\t// in\n            tag_104:\n                /* \"#utility.yul\":2188:2251   */\n              swap2\n              pop\n                /* \"#utility.yul\":2143:2261   */\n              pop\n                /* \"#utility.yul\":1621:2268   */\n              swap3\n              pop\n              swap3\n              pop\n              swap3\n              jump\t// out\n                /* \"#utility.yul\":2274:2416   */\n            tag_105:\n                /* \"#utility.yul\":2377:2409   */\n              tag_107\n                /* \"#utility.yul\":2403:2408   */\n              dup2\n                /* \"#utility.yul\":2377:2409   */\n              tag_108\n              jump\t// in\n            tag_107:\n                /* \"#utility.yul\":2372:2375   */\n              dup3\n                /* \"#utility.yul\":2365:2410   */\n              mstore\n                /* \"#utility.yul\":2274:2416   */\n              pop\n              pop\n              jump\t// out\n                /* \"#utility.yul\":2422:2540   */\n            tag_109:\n                /* \"#utility.yul\":2509:2533   */\n              tag_111\n                /* \"#utility.yul\":2527:2532   */\n              dup2\n                /* \"#utility.yul\":2509:2533   */\n              tag_112\n              jump\t// in\n            tag_111:\n                /* \"#utility.yul\":2504:2507   */\n              dup3\n                /* \"#utility.yul\":2497:2534   */\n              mstore\n                /* \"#utility.yul\":2422:2540   */\n              pop\n              pop\n              jump\t// out\n                /* \"#utility.yul\":2546:2912   */\n            tag_113:\n                /* \"#utility.yul\":2688:2691   */\n              0x00\n                /* \"#utility.yul\":2709:2776   */\n              tag_115\n                /* \"#utility.yul\":2773:2775   */\n              0x10\n                /* \"#utility.yul\":2768:2771   */\n              dup4\n                /* \"#utility.yul\":2709:2776   */\n              tag_116\n              jump\t// in\n            tag_115:\n                /* \"#utility.yul\":2702:2776   */\n              swap2\n              pop\n                /* \"#utility.yul\":2785:2878   */\n              tag_117\n                /* \"#utility.yul\":2874:2877   */\n              dup3\n                /* \"#utility.yul\":2785:2878   */\n              tag_118\n              jump\t// in\n            tag_117:\n                /* \"#utility.yul\":2903:2905   */\n              0x20\n                /* \"#utility.yul\":2898:2901   */\n              dup3\n                /* \"#utility.yul\":2894:2906   */\n              add\n                /* \"#utility.yul\":2887:2906   */\n              swap1\n              pop\n                /* \"#utility.yul\":2546:2912   */\n              swap2\n              swap1\n              pop\n              jump\t// out\n                /* \"#utility.yul\":2918:3036   */\n            tag_119:\n                /* \"#utility.yul\":3005:3029   */\n              tag_121\n                /* \"#utility.yul\":3023:3028   */\n              dup2\n                /* \"#utility.yul\":3005:3029   */\n              tag_122\n              jump\t// in\n            tag_121:\n                /* \"#utility.yul\":3000:3003   */\n              dup3\n                /* \"#utility.yul\":2993:3030   */\n              mstore\n                /* \"#utility.yul\":2918:3036   */\n              pop\n              pop\n              jump\t// out\n                /* \"#utility.yul\":3042:3296   */\n            tag_19:\n                /* \"#utility.yul\":3151:3155   */\n              0x00\n                /* \"#utility.yul\":3189:3191   */\n              0x20\n                /* \"#utility.yul\":3178:3187   */\n              dup3\n                /* \"#utility.yul\":3174:3192   */\n              add\n                /* \"#utility.yul\":3166:3192   */\n              swap1\n              pop\n                /* \"#utility.yul\":3202:3289   */\n              tag_124\n                /* \"#utility.yul\":3286:3287   */\n              0x00\n                /* \"#utility.yul\":3275:3284   */\n              dup4\n                /* \"#utility.yul\":3271:3288   */\n              add\n                /* \"#utility.yul\":3262:3268   */\n              dup5\n                /* \"#utility.yul\":3202:3289   */\n              tag_105\n              jump\t// in\n            tag_124:\n                /* \"#utility.yul\":3042:3296   */\n              swap3\n              swap2\n              pop\n              pop\n              jump\t// out\n                /* \"#utility.yul\":3302:3744   */\n            tag_45:\n                /* \"#utility.yul\":3451:3455   */\n              0x00\n                /* \"#utility.yul\":3489:3491   */\n              0x60\n                /* \"#utility.yul\":3478:3487   */\n              dup3\n                /* \"#utility.yul\":3474:3492   */\n              add\n                /* \"#utility.yul\":3466:3492   */\n              swap1\n              pop\n                /* \"#utility.yul\":3502:3573   */\n              tag_126\n                /* \"#utility.yul\":3570:3571   */\n              0x00\n                /* \"#utility.yul\":3559:3568   */\n              dup4\n                /* \"#utility.yul\":3555:3572   */\n              add\n                /* \"#utility.yul\":3546:3552   */\n              dup7\n                /* \"#utility.yul\":3502:3573   */\n              tag_109\n              jump\t// in\n            tag_126:\n                /* \"#utility.yul\":3583:3655   */\n              tag_127\n                /* \"#utility.yul\":3651:3653   */\n              0x20\n                /* \"#utility.yul\":3640:3649   */\n              dup4\n                /* \"#utility.yul\":3636:3654   */\n              add\n                /* \"#utility.yul\":3627:3633   */\n              dup6\n                /* \"#utility.yul\":3583:3655   */\n              tag_109\n              jump\t// in\n            tag_127:\n                /* \"#utility.yul\":3665:3737   */\n              tag_128\n                /* \"#utility.yul\":3733:3735   */\n              0x40\n                /* \"#utility.yul\":3722:3731   */\n              dup4\n                /* \"#utility.yul\":3718:3736   */\n              add\n                /* \"#utility.yul\":3709:3715   */\n              dup5\n                /* \"#utility.yul\":3665:3737   */\n              tag_119\n              jump\t// in\n            tag_128:\n                /* \"#utility.yul\":3302:3744   */\n              swap5\n              swap4\n              pop\n              pop\n              pop\n              pop\n              jump\t// out\n                /* \"#utility.yul\":3750:4082   */\n            tag_54:\n                /* \"#utility.yul\":3871:3875   */\n              0x00\n                /* \"#utility.yul\":3909:3911   */\n              0x40\n                /* \"#utility.yul\":3898:3907   */\n              dup3\n                /* \"#utility.yul\":3894:3912   */\n              add\n                /* \"#utility.yul\":3886:3912   */\n              swap1\n              pop\n                /* \"#utility.yul\":3922:3993   */\n              tag_130\n                /* \"#utility.yul\":3990:3991   */\n              0x00\n                /* \"#utility.yul\":3979:3988   */\n              dup4\n                /* \"#utility.yul\":3975:3992   */\n              add\n                /* \"#utility.yul\":3966:3972   */\n              dup6\n                /* \"#utility.yul\":3922:3993   */\n              tag_109\n              jump\t// in\n            tag_130:\n                /* \"#utility.yul\":4003:4075   */\n              tag_131\n                /* \"#utility.yul\":4071:4073   */\n              0x20\n                /* \"#utility.yul\":4060:4069   */\n              dup4\n                /* \"#utility.yul\":4056:4074   */\n              add\n                /* \"#utility.yul\":4047:4053   */\n              dup5\n                /* \"#utility.yul\":4003:4075   */\n              tag_119\n              jump\t// in\n            tag_131:\n                /* \"#utility.yul\":3750:4082   */\n              swap4\n              swap3\n              pop\n              pop\n              pop\n              jump\t// out\n                /* \"#utility.yul\":4088:4507   */\n            tag_13:\n                /* \"#utility.yul\":4254:4258   */\n              0x00\n                /* \"#utility.yul\":4292:4294   */\n              0x20\n                /* \"#utility.yul\":4281:4290   */\n              dup3\n                /* \"#utility.yul\":4277:4295   */\n              add\n                /* \"#utility.yul\":4269:4295   */\n              swap1\n              pop\n                /* \"#utility.yul\":4341:4350   */\n              dup2\n                /* \"#utility.yul\":4335:4339   */\n              dup2\n                /* \"#utility.yul\":4331:4351   */\n              sub\n                /* \"#utility.yul\":4327:4328   */\n              0x00\n                /* \"#utility.yul\":4316:4325   */\n              dup4\n                /* \"#utility.yul\":4312:4329   */\n              add\n                /* \"#utility.yul\":4305:4352   */\n              mstore\n                /* \"#utility.yul\":4369:4500   */\n              tag_133\n                /* \"#utility.yul\":4495:4499   */\n              dup2\n                /* \"#utility.yul\":4369:4500   */\n              tag_113\n              jump\t// in\n            tag_133:\n                /* \"#utility.yul\":4361:4500   */\n              swap1\n              pop\n                /* \"#utility.yul\":4088:4507   */\n              swap2\n              swap1\n              pop\n              jump\t// out\n                /* \"#utility.yul\":4594:4763   */\n            tag_116:\n                /* \"#utility.yul\":4678:4689   */\n              0x00\n                /* \"#utility.yul\":4712:4718   */\n              dup3\n                /* \"#utility.yul\":4707:4710   */\n              dup3\n                /* \"#utility.yul\":4700:4719   */\n              mstore\n                /* \"#utility.yul\":4752:4756   */\n              0x20\n                /* \"#utility.yul\":4747:4750   */\n              dup3\n                /* \"#utility.yul\":4743:4757   */\n              add\n                /* \"#utility.yul\":4728:4757   */\n              swap1\n              pop\n                /* \"#utility.yul\":4594:4763   */\n              swap3\n              swap2\n              pop\n              pop\n              jump\t// out\n                /* \"#utility.yul\":4769:4865   */\n            tag_112:\n                /* \"#utility.yul\":4806:4813   */\n              0x00\n                /* \"#utility.yul\":4835:4859   */\n              tag_138\n                /* \"#utility.yul\":4853:4858   */\n              dup3\n                /* \"#utility.yul\":4835:4859   */\n              tag_139\n              jump\t// in\n            tag_138:\n                /* \"#utility.yul\":4824:4859   */\n              swap1\n              pop\n                /* \"#utility.yul\":4769:4865   */\n              swap2\n              swap1\n              pop\n              jump\t// out\n                /* \"#utility.yul\":4871:4975   */\n            tag_108:\n                /* \"#utility.yul\":4916:4923   */\n              0x00\n                /* \"#utility.yul\":4945:4969   */\n              tag_141\n                /* \"#utility.yul\":4963:4968   */\n              dup3\n                /* \"#utility.yul\":4945:4969   */\n              tag_139\n              jump\t// in\n            tag_141:\n                /* \"#utility.yul\":4934:4969   */\n              swap1\n              pop\n                /* \"#utility.yul\":4871:4975   */\n              swap2\n              swap1\n              pop\n              jump\t// out\n                /* \"#utility.yul\":4981:5071   */\n            tag_142:\n                /* \"#utility.yul\":5015:5022   */\n              0x00\n                /* \"#utility.yul\":5058:5063   */\n              dup2\n                /* \"#utility.yul\":5051:5064   */\n              iszero\n                /* \"#utility.yul\":5044:5065   */\n              iszero\n                /* \"#utility.yul\":5033:5065   */\n              swap1\n              pop\n                /* \"#utility.yul\":4981:5071   */\n              swap2\n              swap1\n              pop\n              jump\t// out\n                /* \"#utility.yul\":5077:5187   */\n            tag_144:\n                /* \"#utility.yul\":5128:5135   */\n              0x00\n                /* \"#utility.yul\":5157:5181   */\n              tag_146\n                /* \"#utility.yul\":5175:5180   */\n              dup3\n                /* \"#utility.yul\":5157:5181   */\n              tag_112\n              jump\t// in\n            tag_146:\n                /* \"#utility.yul\":5146:5181   */\n              swap1\n              pop\n                /* \"#utility.yul\":5077:5187   */\n              swap2\n              swap1\n              pop\n              jump\t// out\n                /* \"#utility.yul\":5193:5319   */\n            tag_139:\n                /* \"#utility.yul\":5230:5237   */\n              0x00\n                /* \"#utility.yul\":5270:5312   */\n              0xffffffffffffffffffffffffffffffffffffffff\n                /* \"#utility.yul\":5263:5268   */\n              dup3\n                /* \"#utility.yul\":5259:5313   */\n              and\n                /* \"#utility.yul\":5248:5313   */\n              swap1\n              pop\n                /* \"#utility.yul\":5193:5319   */\n              swap2\n              swap1\n              pop\n              jump\t// out\n                /* \"#utility.yul\":5325:5402   */\n            tag_122:\n                /* \"#utility.yul\":5362:5369   */\n              0x00\n                /* \"#utility.yul\":5391:5396   */\n              dup2\n                /* \"#utility.yul\":5380:5396   */\n              swap1\n              pop\n                /* \"#utility.yul\":5325:5402   */\n              swap2\n              swap1\n              pop\n              jump\t// out\n                /* \"#utility.yul\":5531:5648   */\n            tag_92:\n                /* \"#utility.yul\":5640:5641   */\n              0x00\n                /* \"#utility.yul\":5637:5638   */\n              dup1\n                /* \"#utility.yul\":5630:5642   */\n              revert\n                /* \"#utility.yul\":5654:5820   */\n            tag_118:\n                /* \"#utility.yul\":5794:5812   */\n              0x6e65656420696e697420626f756e747900000000000000000000000000000000\n                /* \"#utility.yul\":5790:5791   */\n              0x00\n                /* \"#utility.yul\":5782:5788   */\n              dup3\n                /* \"#utility.yul\":5778:5792   */\n              add\n                /* \"#utility.yul\":5771:5813   */\n              mstore\n                /* \"#utility.yul\":5654:5820   */\n              pop\n              jump\t// out\n                /* \"#utility.yul\":5826:5948   */\n            tag_72:\n                /* \"#utility.yul\":5899:5923   */\n              tag_154\n                /* \"#utility.yul\":5917:5922   */\n              dup2\n                /* \"#utility.yul\":5899:5923   */\n              tag_112\n              jump\t// in\n            tag_154:\n                /* \"#utility.yul\":5892:5897   */\n              dup2\n                /* \"#utility.yul\":5889:5924   */\n              eq\n                /* \"#utility.yul\":5879:5942   */\n              tag_155\n              jumpi\n                /* \"#utility.yul\":5938:5939   */\n              0x00\n                /* \"#utility.yul\":5935:5936   */\n              dup1\n                /* \"#utility.yul\":5928:5940   */\n              revert\n                /* \"#utility.yul\":5879:5942   */\n            tag_155:\n                /* \"#utility.yul\":5826:5948   */\n              pop\n              jump\t// out\n                /* \"#utility.yul\":5954:6092   */\n            tag_76:\n                /* \"#utility.yul\":6035:6067   */\n              tag_157\n                /* \"#utility.yul\":6061:6066   */\n              dup2\n                /* \"#utility.yul\":6035:6067   */\n              tag_108\n              jump\t// in\n            tag_157:\n                /* \"#utility.yul\":6028:6033   */\n              dup2\n                /* \"#utility.yul\":6025:6068   */\n              eq\n                /* \"#utility.yul\":6015:6086   */\n              tag_158\n              jumpi\n                /* \"#utility.yul\":6082:6083   */\n              0x00\n                /* \"#utility.yul\":6079:6080   */\n              dup1\n                /* \"#utility.yul\":6072:6084   */\n              revert\n                /* \"#utility.yul\":6015:6086   */\n            tag_158:\n                /* \"#utility.yul\":5954:6092   */\n              pop\n              jump\t// out\n                /* \"#utility.yul\":6098:6214   */\n            tag_80:\n                /* \"#utility.yul\":6168:6189   */\n              tag_160\n                /* \"#utility.yul\":6183:6188   */\n              dup2\n                /* \"#utility.yul\":6168:6189   */\n              tag_142\n              jump\t// in\n            tag_160:\n                /* \"#utility.yul\":6161:6166   */\n              dup2\n                /* \"#utility.yul\":6158:6190   */\n              eq\n                /* \"#utility.yul\":6148:6208   */\n              tag_161\n              jumpi\n                /* \"#utility.yul\":6204:6205   */\n              0x00\n                /* \"#utility.yul\":6201:6202   */\n              dup1\n                /* \"#utility.yul\":6194:6206   */\n              revert\n                /* \"#utility.yul\":6148:6208   */\n            tag_161:\n                /* \"#utility.yul\":6098:6214   */\n              pop\n              jump\t// out\n                /* \"#utility.yul\":6220:6370   */\n            tag_84:\n                /* \"#utility.yul\":6307:6345   */\n              tag_163\n                /* \"#utility.yul\":6339:6344   */\n              dup2\n                /* \"#utility.yul\":6307:6345   */\n              tag_144\n              jump\t// in\n            tag_163:\n                /* \"#utility.yul\":6300:6305   */\n              dup2\n                /* \"#utility.yul\":6297:6346   */\n              eq\n                /* \"#utility.yul\":6287:6364   */\n              tag_164\n              jumpi\n                /* \"#utility.yul\":6360:6361   */\n              0x00\n                /* \"#utility.yul\":6357:6358   */\n              dup1\n                /* \"#utility.yul\":6350:6362   */\n              revert\n                /* \"#utility.yul\":6287:6364   */\n            tag_164:\n                /* \"#utility.yul\":6220:6370   */\n              pop\n              jump\t// out\n                /* \"#utility.yul\":6376:6498   */\n            tag_88:\n                /* \"#utility.yul\":6449:6473   */\n              tag_166\n                /* \"#utility.yul\":6467:6472   */\n              dup2\n                /* \"#utility.yul\":6449:6473   */\n              tag_122\n              jump\t// in\n            tag_166:\n                /* \"#utility.yul\":6442:6447   */\n              dup2\n                /* \"#utility.yul\":6439:6474   */\n              eq\n                /* \"#utility.yul\":6429:6492   */\n              tag_167\n              jumpi\n                /* \"#utility.yul\":6488:6489   */\n              0x00\n                /* \"#utility.yul\":6485:6486   */\n              dup1\n                /* \"#utility.yul\":6478:6490   */\n              revert\n                /* \"#utility.yul\":6429:6492   */\n            tag_167:\n                /* \"#utility.yul\":6376:6498   */\n              pop\n              jump\t// out\n\n            auxdata: 0xa2646970667358221220acad365c633011e1d24a0f4bae7995ec3defadd981fda5ac24b3923ca696ea9c64736f6c63430008070033\n        }\n    }\n\n    auxdata: 0xa2646970667358221220b7e21995e2f3c887fae5abbee0c9b39df2a217278aa9faedf55adf509afc91bf64736f6c63430008070033\n}\n",
				"bytecode": {
					"linkReferences": {},
					"object": "6080604052738f81b9b08232f8e8981daa87854575d7325a9439600360006101000a81548173ffffffffffffffffffffffffffffffffffffffff021916908373ffffffffffffffffffffffffffffffffffffffff16021790555034801561006557600080fd5b50336000806101000a81548173ffffffffffffffffffffffffffffffffffffffff021916908373ffffffffffffffffffffffffffffffffffffffff160217905550336000806101000a81548173ffffffffffffffffffffffffffffffffffffffff021916908373ffffffffffffffffffffffffffffffffffffffff160217905550611362806100f56000396000f3fe6080604052600436106100435760003560e01c806314da447f146100525780633f28e9fb1461007b57806346964a0a14610097578063f2fde38b146100c05761004d565b3661004d57600080fd5b600080fd5b34801561005e57600080fd5b5061007960048036038101906100749190610618565b6100e9565b005b61009560048036038101906100909190610722565b61015e565b005b3480156100a357600080fd5b506100be60048036038101906100b9919061069f565b610363565b005b3480156100cc57600080fd5b506100e760048036038101906100e291906105eb565b610369565b005b60008054906101000a900473ffffffffffffffffffffffffffffffffffffffff1673ffffffffffffffffffffffffffffffffffffffff163373ffffffffffffffffffffffffffffffffffffffff161461014557610144610996565b5b8073ffffffffffffffffffffffffffffffffffffffff16ff5b60003060405161016d90610505565b61017791906107ae565b604051809103906000f080158015610193573d6000803e3d6000fd5b509050600360009054906101000a900473ffffffffffffffffffffffffffffffffffffffff1673ffffffffffffffffffffffffffffffffffffffff166323b872dd338373ffffffffffffffffffffffffffffffffffffffff1663026b1d5f6040518163ffffffff1660e01b815260040160206040518083038186803b15801561021b57600080fd5b505afa15801561022f573d6000803e3d6000fd5b505050506040513d601f19601f820116820180604052508101906102539190610645565b856040518463ffffffff1660e01b8152600401610272939291906107c9565b602060405180830381600087803b15801561028c57600080fd5b505af11580156102a0573d6000803e3d6000fd5b505050506040513d601f19601f820116820180604052508101906102c49190610672565b506002819080600181540180825580915050600190039060005260206000200160009091909190916101000a81548173ffffffffffffffffffffffffffffffffffffffff021916908373ffffffffffffffffffffffffffffffffffffffff1602179055507f1bda7bb843640650292c2a26a73106328e0f83c1c09ea1a4176df3912ee47ff6816040516103579190610800565b60405180910390a15050565b50505050565b60008054906101000a900473ffffffffffffffffffffffffffffffffffffffff1673ffffffffffffffffffffffffffffffffffffffff163373ffffffffffffffffffffffffffffffffffffffff16146103c5576103c4610996565b5b600073ffffffffffffffffffffffffffffffffffffffff168173ffffffffffffffffffffffffffffffffffffffff161415610435576040517f08c379a000000000000000000000000000000000000000000000000000000000815260040161042c9061081b565b60405180910390fd5b61043e81610441565b50565b60008060009054906101000a900473ffffffffffffffffffffffffffffffffffffffff169050816000806101000a81548173ffffffffffffffffffffffffffffffffffffffff021916908373ffffffffffffffffffffffffffffffffffffffff1602179055508173ffffffffffffffffffffffffffffffffffffffff168173ffffffffffffffffffffffffffffffffffffffff167f8be0079c531659141344cd1fd0a4f28419497f9722a3daafe3b4186f6b6457e060405160405180910390a35050565b61086880610ac583390190565b600061052561052084610860565b61083b565b905082815260208101848484011115610541576105406109f9565b5b61054c848285610956565b509392505050565b60008135905061056381610a68565b92915050565b60008135905061057881610a7f565b92915050565b60008151905061058d81610a7f565b92915050565b6000815190506105a281610a96565b92915050565b600082601f8301126105bd576105bc6109f4565b5b81356105cd848260208601610512565b91505092915050565b6000813590506105e581610aad565b92915050565b60006020828403121561060157610600610a03565b5b600061060f84828501610554565b91505092915050565b60006020828403121561062e5761062d610a03565b5b600061063c84828501610569565b91505092915050565b60006020828403121561065b5761065a610a03565b5b60006106698482850161057e565b91505092915050565b60006020828403121561068857610687610a03565b5b600061069684828501610593565b91505092915050565b600080600080608085870312156106b9576106b8610a03565b5b600085013567ffffffffffffffff8111156106d7576106d66109fe565b5b6106e3878288016105a8565b94505060206106f487828801610569565b9350506040610705878288016105d6565b9250506060610716878288016105d6565b91505092959194509250565b60006020828403121561073857610737610a03565b5b6000610746848285016105d6565b91505092915050565b610758816108fc565b82525050565b610767816108a2565b82525050565b6107768161090e565b82525050565b6000610789602683610891565b915061079482610a19565b604082019050919050565b6107a8816108f2565b82525050565b60006020820190506107c3600083018461075e565b92915050565b60006060820190506107de600083018661075e565b6107eb602083018561074f565b6107f8604083018461079f565b949350505050565b6000602082019050610815600083018461076d565b92915050565b600060208201905081810360008301526108348161077c565b9050919050565b6000610845610856565b90506108518282610965565b919050565b6000604051905090565b600067ffffffffffffffff82111561087b5761087a6109c5565b5b61088482610a08565b9050602081019050919050565b600082825260208201905092915050565b60006108ad826108d2565b9050919050565b60006108bf826108d2565b9050919050565b60008115159050919050565b600073ffffffffffffffffffffffffffffffffffffffff82169050919050565b6000819050919050565b600061090782610920565b9050919050565b600061091982610932565b9050919050565b600061092b82610944565b9050919050565b600061093d82610944565b9050919050565b600061094f826108d2565b9050919050565b82818337600083830152505050565b61096e82610a08565b810181811067ffffffffffffffff8211171561098d5761098c6109c5565b5b80604052505050565b7f4e487b7100000000000000000000000000000000000000000000000000000000600052600160045260246000fd5b7f4e487b7100000000000000000000000000000000000000000000000000000000600052604160045260246000fd5b600080fd5b600080fd5b600080fd5b600080fd5b6000601f19601f8301169050919050565b7f4f776e61626c653a206e6577206f776e657220697320746865207a65726f206160008201527f6464726573730000000000000000000000000000000000000000000000000000602082015250565b610a71816108a2565b8114610a7c57600080fd5b50565b610a88816108b4565b8114610a9357600080fd5b50565b610a9f816108c6565b8114610aaa57600080fd5b50565b610ab6816108f2565b8114610ac157600080fd5b5056fe608060405234801561001057600080fd5b506040516108683803806108688339818101604052810190610032919061008d565b806000806101000a81548173ffffffffffffffffffffffffffffffffffffffff021916908373ffffffffffffffffffffffffffffffffffffffff16021790555050610108565b600081519050610087816100f1565b92915050565b6000602082840312156100a3576100a26100ec565b5b60006100b184828501610078565b91505092915050565b60006100c5826100cc565b9050919050565b600073ffffffffffffffffffffffffffffffffffffffff82169050919050565b600080fd5b6100fa816100ba565b811461010557600080fd5b50565b610751806101176000396000f3fe6080604052600436106100595760003560e01c8063026b1d5f146100f557806313658f8a1461012057806323b872dd1461013c578063beabacc814610165578063d0e30db01461018e578063e1f21c6714610198576100f0565b366100f057600073ffffffffffffffffffffffffffffffffffffffff1660008054906101000a900473ffffffffffffffffffffffffffffffffffffffff1673ffffffffffffffffffffffffffffffffffffffff1614156100ee576040517f08c379a00000000000000000000000000000000000000000000000000000000081526004016100e5906105dd565b60405180910390fd5b005b600080fd5b34801561010157600080fd5b5061010a6101c1565b6040516101179190610562565b60405180910390f35b61013a60048036038101906101359190610452565b6101c9565b005b34801561014857600080fd5b50610163600480360381019061015e91906104bf565b610214565b005b34801561017157600080fd5b5061018c600480360381019061018791906104bf565b6102b1565b005b61019661034c565b005b3480156101a457600080fd5b506101bf60048036038101906101ba91906104bf565b61034e565b005b600030905090565b8173ffffffffffffffffffffffffffffffffffffffff166108fc829081150290604051600060405180830381858888f1935050505015801561020f573d6000803e3d6000fd5b505050565b8273ffffffffffffffffffffffffffffffffffffffff166323b872dd3084846040518463ffffffff1660e01b81526004016102519392919061057d565b602060405180830381600087803b15801561026b57600080fd5b505af115801561027f573d6000803e3d6000fd5b505050506040513d601f19601f820116820180604052508101906102a39190610492565b6102ac57600080fd5b505050565b8273ffffffffffffffffffffffffffffffffffffffff1663a9059cbb83836040518363ffffffff1660e01b81526004016102ec9291906105b4565b602060405180830381600087803b15801561030657600080fd5b505af115801561031a573d6000803e3d6000fd5b505050506040513d601f19601f8201168201806040525081019061033e9190610492565b61034757600080fd5b505050565b565b8273ffffffffffffffffffffffffffffffffffffffff1663095ea7b383836040518363ffffffff1660e01b81526004016103899291906105b4565b602060405180830381600087803b1580156103a357600080fd5b505af11580156103b7573d6000803e3d6000fd5b505050506040513d601f19601f820116820180604052508101906103db9190610492565b6103e457600080fd5b505050565b6000813590506103f8816106a8565b92915050565b60008135905061040d816106bf565b92915050565b600081519050610422816106d6565b92915050565b600081359050610437816106ed565b92915050565b60008135905061044c81610704565b92915050565b600080604083850312156104695761046861067a565b5b6000610477858286016103fe565b92505060206104888582860161043d565b9150509250929050565b6000602082840312156104a8576104a761067a565b5b60006104b684828501610413565b91505092915050565b6000806000606084860312156104d8576104d761067a565b5b60006104e686828701610428565b93505060206104f7868287016103e9565b92505060406105088682870161043d565b9150509250925092565b61051b81610620565b82525050565b61052a8161060e565b82525050565b600061053d6010836105fd565b91506105488261067f565b602082019050919050565b61055c81610670565b82525050565b60006020820190506105776000830184610512565b92915050565b60006060820190506105926000830186610521565b61059f6020830185610521565b6105ac6040830184610553565b949350505050565b60006040820190506105c96000830185610521565b6105d66020830184610553565b9392505050565b600060208201905081810360008301526105f681610530565b9050919050565b600082825260208201905092915050565b600061061982610650565b9050919050565b600061062b82610650565b9050919050565b60008115159050919050565b60006106498261060e565b9050919050565b600073ffffffffffffffffffffffffffffffffffffffff82169050919050565b6000819050919050565b600080fd5b7f6e65656420696e697420626f756e747900000000000000000000000000000000600082015250565b6106b18161060e565b81146106bc57600080fd5b50565b6106c881610620565b81146106d357600080fd5b50565b6106df81610632565b81146106ea57600080fd5b50565b6106f68161063e565b811461070157600080fd5b50565b61070d81610670565b811461071857600080fd5b5056fea2646970667358221220acad365c633011e1d24a0f4bae7995ec3defadd981fda5ac24b3923ca696ea9c64736f6c63430008070033a2646970667358221220b7e21995e2f3c887fae5abbee0c9b39df2a217278aa9faedf55adf509afc91bf64736f6c63430008070033",
					"opcodes": "PUSH1 0x80 PUSH1 0x40 MSTORE PUSH20 0x8F81B9B08232F8E8981DAA87854575D7325A9439 PUSH1 0x3 PUSH1 0x0 PUSH2 0x100 EXP DUP2 SLOAD DUP2 PUSH20 0xFFFFFFFFFFFFFFFFFFFFFFFFFFFFFFFFFFFFFFFF MUL NOT AND SWAP1 DUP4 PUSH20 0xFFFFFFFFFFFFFFFFFFFFFFFFFFFFFFFFFFFFFFFF AND MUL OR SWAP1 SSTORE POP CALLVALUE DUP1 ISZERO PUSH2 0x65 JUMPI PUSH1 0x0 DUP1 REVERT JUMPDEST POP CALLER PUSH1 0x0 DUP1 PUSH2 0x100 EXP DUP2 SLOAD DUP2 PUSH20 0xFFFFFFFFFFFFFFFFFFFFFFFFFFFFFFFFFFFFFFFF MUL NOT AND SWAP1 DUP4 PUSH20 0xFFFFFFFFFFFFFFFFFFFFFFFFFFFFFFFFFFFFFFFF AND MUL OR SWAP1 SSTORE POP CALLER PUSH1 0x0 DUP1 PUSH2 0x100 EXP DUP2 SLOAD DUP2 PUSH20 0xFFFFFFFFFFFFFFFFFFFFFFFFFFFFFFFFFFFFFFFF MUL NOT AND SWAP1 DUP4 PUSH20 0xFFFFFFFFFFFFFFFFFFFFFFFFFFFFFFFFFFFFFFFF AND MUL OR SWAP1 SSTORE POP PUSH2 0x1362 DUP1 PUSH2 0xF5 PUSH1 0x0 CODECOPY PUSH1 0x0 RETURN INVALID PUSH1 0x80 PUSH1 0x40 MSTORE PUSH1 0x4 CALLDATASIZE LT PUSH2 0x43 JUMPI PUSH1 0x0 CALLDATALOAD PUSH1 0xE0 SHR DUP1 PUSH4 0x14DA447F EQ PUSH2 0x52 JUMPI DUP1 PUSH4 0x3F28E9FB EQ PUSH2 0x7B JUMPI DUP1 PUSH4 0x46964A0A EQ PUSH2 0x97 JUMPI DUP1 PUSH4 0xF2FDE38B EQ PUSH2 0xC0 JUMPI PUSH2 0x4D JUMP JUMPDEST CALLDATASIZE PUSH2 0x4D JUMPI PUSH1 0x0 DUP1 REVERT JUMPDEST PUSH1 0x0 DUP1 REVERT JUMPDEST CALLVALUE DUP1 ISZERO PUSH2 0x5E JUMPI PUSH1 0x0 DUP1 REVERT JUMPDEST POP PUSH2 0x79 PUSH1 0x4 DUP1 CALLDATASIZE SUB DUP2 ADD SWAP1 PUSH2 0x74 SWAP2 SWAP1 PUSH2 0x618 JUMP JUMPDEST PUSH2 0xE9 JUMP JUMPDEST STOP JUMPDEST PUSH2 0x95 PUSH1 0x4 DUP1 CALLDATASIZE SUB DUP2 ADD SWAP1 PUSH2 0x90 SWAP2 SWAP1 PUSH2 0x722 JUMP JUMPDEST PUSH2 0x15E JUMP JUMPDEST STOP JUMPDEST CALLVALUE DUP1 ISZERO PUSH2 0xA3 JUMPI PUSH1 0x0 DUP1 REVERT JUMPDEST POP PUSH2 0xBE PUSH1 0x4 DUP1 CALLDATASIZE SUB DUP2 ADD SWAP1 PUSH2 0xB9 SWAP2 SWAP1 PUSH2 0x69F JUMP JUMPDEST PUSH2 0x363 JUMP JUMPDEST STOP JUMPDEST CALLVALUE DUP1 ISZERO PUSH2 0xCC JUMPI PUSH1 0x0 DUP1 REVERT JUMPDEST POP PUSH2 0xE7 PUSH1 0x4 DUP1 CALLDATASIZE SUB DUP2 ADD SWAP1 PUSH2 0xE2 SWAP2 SWAP1 PUSH2 0x5EB JUMP JUMPDEST PUSH2 0x369 JUMP JUMPDEST STOP JUMPDEST PUSH1 0x0 DUP1 SLOAD SWAP1 PUSH2 0x100 EXP SWAP1 DIV PUSH20 0xFFFFFFFFFFFFFFFFFFFFFFFFFFFFFFFFFFFFFFFF AND PUSH20 0xFFFFFFFFFFFFFFFFFFFFFFFFFFFFFFFFFFFFFFFF AND CALLER PUSH20 0xFFFFFFFFFFFFFFFFFFFFFFFFFFFFFFFFFFFFFFFF AND EQ PUSH2 0x145 JUMPI PUSH2 0x144 PUSH2 0x996 JUMP JUMPDEST JUMPDEST DUP1 PUSH20 0xFFFFFFFFFFFFFFFFFFFFFFFFFFFFFFFFFFFFFFFF AND SELFDESTRUCT JUMPDEST PUSH1 0x0 ADDRESS PUSH1 0x40 MLOAD PUSH2 0x16D SWAP1 PUSH2 0x505 JUMP JUMPDEST PUSH2 0x177 SWAP2 SWAP1 PUSH2 0x7AE JUMP JUMPDEST PUSH1 0x40 MLOAD DUP1 SWAP2 SUB SWAP1 PUSH1 0x0 CREATE DUP1 ISZERO DUP1 ISZERO PUSH2 0x193 JUMPI RETURNDATASIZE PUSH1 0x0 DUP1 RETURNDATACOPY RETURNDATASIZE PUSH1 0x0 REVERT JUMPDEST POP SWAP1 POP PUSH1 0x3 PUSH1 0x0 SWAP1 SLOAD SWAP1 PUSH2 0x100 EXP SWAP1 DIV PUSH20 0xFFFFFFFFFFFFFFFFFFFFFFFFFFFFFFFFFFFFFFFF AND PUSH20 0xFFFFFFFFFFFFFFFFFFFFFFFFFFFFFFFFFFFFFFFF AND PUSH4 0x23B872DD CALLER DUP4 PUSH20 0xFFFFFFFFFFFFFFFFFFFFFFFFFFFFFFFFFFFFFFFF AND PUSH4 0x26B1D5F PUSH1 0x40 MLOAD DUP2 PUSH4 0xFFFFFFFF AND PUSH1 0xE0 SHL DUP2 MSTORE PUSH1 0x4 ADD PUSH1 0x20 PUSH1 0x40 MLOAD DUP1 DUP4 SUB DUP2 DUP7 DUP1 EXTCODESIZE ISZERO DUP1 ISZERO PUSH2 0x21B JUMPI PUSH1 0x0 DUP1 REVERT JUMPDEST POP GAS STATICCALL ISZERO DUP1 ISZERO PUSH2 0x22F JUMPI RETURNDATASIZE PUSH1 0x0 DUP1 RETURNDATACOPY RETURNDATASIZE PUSH1 0x0 REVERT JUMPDEST POP POP POP POP PUSH1 0x40 MLOAD RETURNDATASIZE PUSH1 0x1F NOT PUSH1 0x1F DUP3 ADD AND DUP3 ADD DUP1 PUSH1 0x40 MSTORE POP DUP2 ADD SWAP1 PUSH2 0x253 SWAP2 SWAP1 PUSH2 0x645 JUMP JUMPDEST DUP6 PUSH1 0x40 MLOAD DUP5 PUSH4 0xFFFFFFFF AND PUSH1 0xE0 SHL DUP2 MSTORE PUSH1 0x4 ADD PUSH2 0x272 SWAP4 SWAP3 SWAP2 SWAP1 PUSH2 0x7C9 JUMP JUMPDEST PUSH1 0x20 PUSH1 0x40 MLOAD DUP1 DUP4 SUB DUP2 PUSH1 0x0 DUP8 DUP1 EXTCODESIZE ISZERO DUP1 ISZERO PUSH2 0x28C JUMPI PUSH1 0x0 DUP1 REVERT JUMPDEST POP GAS CALL ISZERO DUP1 ISZERO PUSH2 0x2A0 JUMPI RETURNDATASIZE PUSH1 0x0 DUP1 RETURNDATACOPY RETURNDATASIZE PUSH1 0x0 REVERT JUMPDEST POP POP POP POP PUSH1 0x40 MLOAD RETURNDATASIZE PUSH1 0x1F NOT PUSH1 0x1F DUP3 ADD AND DUP3 ADD DUP1 PUSH1 0x40 MSTORE POP DUP2 ADD SWAP1 PUSH2 0x2C4 SWAP2 SWAP1 PUSH2 0x672 JUMP JUMPDEST POP PUSH1 0x2 DUP2 SWAP1 DUP1 PUSH1 0x1 DUP2 SLOAD ADD DUP1 DUP3 SSTORE DUP1 SWAP2 POP POP PUSH1 0x1 SWAP1 SUB SWAP1 PUSH1 0x0 MSTORE PUSH1 0x20 PUSH1 0x0 KECCAK256 ADD PUSH1 0x0 SWAP1 SWAP2 SWAP1 SWAP2 SWAP1 SWAP2 PUSH2 0x100 EXP DUP2 SLOAD DUP2 PUSH20 0xFFFFFFFFFFFFFFFFFFFFFFFFFFFFFFFFFFFFFFFF MUL NOT AND SWAP1 DUP4 PUSH20 0xFFFFFFFFFFFFFFFFFFFFFFFFFFFFFFFFFFFFFFFF AND MUL OR SWAP1 SSTORE POP PUSH32 0x1BDA7BB843640650292C2A26A73106328E0F83C1C09EA1A4176DF3912EE47FF6 DUP2 PUSH1 0x40 MLOAD PUSH2 0x357 SWAP2 SWAP1 PUSH2 0x800 JUMP JUMPDEST PUSH1 0x40 MLOAD DUP1 SWAP2 SUB SWAP1 LOG1 POP POP JUMP JUMPDEST POP POP POP POP JUMP JUMPDEST PUSH1 0x0 DUP1 SLOAD SWAP1 PUSH2 0x100 EXP SWAP1 DIV PUSH20 0xFFFFFFFFFFFFFFFFFFFFFFFFFFFFFFFFFFFFFFFF AND PUSH20 0xFFFFFFFFFFFFFFFFFFFFFFFFFFFFFFFFFFFFFFFF AND CALLER PUSH20 0xFFFFFFFFFFFFFFFFFFFFFFFFFFFFFFFFFFFFFFFF AND EQ PUSH2 0x3C5 JUMPI PUSH2 0x3C4 PUSH2 0x996 JUMP JUMPDEST JUMPDEST PUSH1 0x0 PUSH20 0xFFFFFFFFFFFFFFFFFFFFFFFFFFFFFFFFFFFFFFFF AND DUP2 PUSH20 0xFFFFFFFFFFFFFFFFFFFFFFFFFFFFFFFFFFFFFFFF AND EQ ISZERO PUSH2 0x435 JUMPI PUSH1 0x40 MLOAD PUSH32 0x8C379A000000000000000000000000000000000000000000000000000000000 DUP2 MSTORE PUSH1 0x4 ADD PUSH2 0x42C SWAP1 PUSH2 0x81B JUMP JUMPDEST PUSH1 0x40 MLOAD DUP1 SWAP2 SUB SWAP1 REVERT JUMPDEST PUSH2 0x43E DUP2 PUSH2 0x441 JUMP JUMPDEST POP JUMP JUMPDEST PUSH1 0x0 DUP1 PUSH1 0x0 SWAP1 SLOAD SWAP1 PUSH2 0x100 EXP SWAP1 DIV PUSH20 0xFFFFFFFFFFFFFFFFFFFFFFFFFFFFFFFFFFFFFFFF AND SWAP1 POP DUP2 PUSH1 0x0 DUP1 PUSH2 0x100 EXP DUP2 SLOAD DUP2 PUSH20 0xFFFFFFFFFFFFFFFFFFFFFFFFFFFFFFFFFFFFFFFF MUL NOT AND SWAP1 DUP4 PUSH20 0xFFFFFFFFFFFFFFFFFFFFFFFFFFFFFFFFFFFFFFFF AND MUL OR SWAP1 SSTORE POP DUP2 PUSH20 0xFFFFFFFFFFFFFFFFFFFFFFFFFFFFFFFFFFFFFFFF AND DUP2 PUSH20 0xFFFFFFFFFFFFFFFFFFFFFFFFFFFFFFFFFFFFFFFF AND PUSH32 0x8BE0079C531659141344CD1FD0A4F28419497F9722A3DAAFE3B4186F6B6457E0 PUSH1 0x40 MLOAD PUSH1 0x40 MLOAD DUP1 SWAP2 SUB SWAP1 LOG3 POP POP JUMP JUMPDEST PUSH2 0x868 DUP1 PUSH2 0xAC5 DUP4 CODECOPY ADD SWAP1 JUMP JUMPDEST PUSH1 0x0 PUSH2 0x525 PUSH2 0x520 DUP5 PUSH2 0x860 JUMP JUMPDEST PUSH2 0x83B JUMP JUMPDEST SWAP1 POP DUP3 DUP2 MSTORE PUSH1 0x20 DUP2 ADD DUP5 DUP5 DUP5 ADD GT ISZERO PUSH2 0x541 JUMPI PUSH2 0x540 PUSH2 0x9F9 JUMP JUMPDEST JUMPDEST PUSH2 0x54C DUP5 DUP3 DUP6 PUSH2 0x956 JUMP JUMPDEST POP SWAP4 SWAP3 POP POP POP JUMP JUMPDEST PUSH1 0x0 DUP2 CALLDATALOAD SWAP1 POP PUSH2 0x563 DUP2 PUSH2 0xA68 JUMP JUMPDEST SWAP3 SWAP2 POP POP JUMP JUMPDEST PUSH1 0x0 DUP2 CALLDATALOAD SWAP1 POP PUSH2 0x578 DUP2 PUSH2 0xA7F JUMP JUMPDEST SWAP3 SWAP2 POP POP JUMP JUMPDEST PUSH1 0x0 DUP2 MLOAD SWAP1 POP PUSH2 0x58D DUP2 PUSH2 0xA7F JUMP JUMPDEST SWAP3 SWAP2 POP POP JUMP JUMPDEST PUSH1 0x0 DUP2 MLOAD SWAP1 POP PUSH2 0x5A2 DUP2 PUSH2 0xA96 JUMP JUMPDEST SWAP3 SWAP2 POP POP JUMP JUMPDEST PUSH1 0x0 DUP3 PUSH1 0x1F DUP4 ADD SLT PUSH2 0x5BD JUMPI PUSH2 0x5BC PUSH2 0x9F4 JUMP JUMPDEST JUMPDEST DUP2 CALLDATALOAD PUSH2 0x5CD DUP5 DUP3 PUSH1 0x20 DUP7 ADD PUSH2 0x512 JUMP JUMPDEST SWAP2 POP POP SWAP3 SWAP2 POP POP JUMP JUMPDEST PUSH1 0x0 DUP2 CALLDATALOAD SWAP1 POP PUSH2 0x5E5 DUP2 PUSH2 0xAAD JUMP JUMPDEST SWAP3 SWAP2 POP POP JUMP JUMPDEST PUSH1 0x0 PUSH1 0x20 DUP3 DUP5 SUB SLT ISZERO PUSH2 0x601 JUMPI PUSH2 0x600 PUSH2 0xA03 JUMP JUMPDEST JUMPDEST PUSH1 0x0 PUSH2 0x60F DUP5 DUP3 DUP6 ADD PUSH2 0x554 JUMP JUMPDEST SWAP2 POP POP SWAP3 SWAP2 POP POP JUMP JUMPDEST PUSH1 0x0 PUSH1 0x20 DUP3 DUP5 SUB SLT ISZERO PUSH2 0x62E JUMPI PUSH2 0x62D PUSH2 0xA03 JUMP JUMPDEST JUMPDEST PUSH1 0x0 PUSH2 0x63C DUP5 DUP3 DUP6 ADD PUSH2 0x569 JUMP JUMPDEST SWAP2 POP POP SWAP3 SWAP2 POP POP JUMP JUMPDEST PUSH1 0x0 PUSH1 0x20 DUP3 DUP5 SUB SLT ISZERO PUSH2 0x65B JUMPI PUSH2 0x65A PUSH2 0xA03 JUMP JUMPDEST JUMPDEST PUSH1 0x0 PUSH2 0x669 DUP5 DUP3 DUP6 ADD PUSH2 0x57E JUMP JUMPDEST SWAP2 POP POP SWAP3 SWAP2 POP POP JUMP JUMPDEST PUSH1 0x0 PUSH1 0x20 DUP3 DUP5 SUB SLT ISZERO PUSH2 0x688 JUMPI PUSH2 0x687 PUSH2 0xA03 JUMP JUMPDEST JUMPDEST PUSH1 0x0 PUSH2 0x696 DUP5 DUP3 DUP6 ADD PUSH2 0x593 JUMP JUMPDEST SWAP2 POP POP SWAP3 SWAP2 POP POP JUMP JUMPDEST PUSH1 0x0 DUP1 PUSH1 0x0 DUP1 PUSH1 0x80 DUP6 DUP8 SUB SLT ISZERO PUSH2 0x6B9 JUMPI PUSH2 0x6B8 PUSH2 0xA03 JUMP JUMPDEST JUMPDEST PUSH1 0x0 DUP6 ADD CALLDATALOAD PUSH8 0xFFFFFFFFFFFFFFFF DUP2 GT ISZERO PUSH2 0x6D7 JUMPI PUSH2 0x6D6 PUSH2 0x9FE JUMP JUMPDEST JUMPDEST PUSH2 0x6E3 DUP8 DUP3 DUP9 ADD PUSH2 0x5A8 JUMP JUMPDEST SWAP5 POP POP PUSH1 0x20 PUSH2 0x6F4 DUP8 DUP3 DUP9 ADD PUSH2 0x569 JUMP JUMPDEST SWAP4 POP POP PUSH1 0x40 PUSH2 0x705 DUP8 DUP3 DUP9 ADD PUSH2 0x5D6 JUMP JUMPDEST SWAP3 POP POP PUSH1 0x60 PUSH2 0x716 DUP8 DUP3 DUP9 ADD PUSH2 0x5D6 JUMP JUMPDEST SWAP2 POP POP SWAP3 SWAP6 SWAP2 SWAP5 POP SWAP3 POP JUMP JUMPDEST PUSH1 0x0 PUSH1 0x20 DUP3 DUP5 SUB SLT ISZERO PUSH2 0x738 JUMPI PUSH2 0x737 PUSH2 0xA03 JUMP JUMPDEST JUMPDEST PUSH1 0x0 PUSH2 0x746 DUP5 DUP3 DUP6 ADD PUSH2 0x5D6 JUMP JUMPDEST SWAP2 POP POP SWAP3 SWAP2 POP POP JUMP JUMPDEST PUSH2 0x758 DUP2 PUSH2 0x8FC JUMP JUMPDEST DUP3 MSTORE POP POP JUMP JUMPDEST PUSH2 0x767 DUP2 PUSH2 0x8A2 JUMP JUMPDEST DUP3 MSTORE POP POP JUMP JUMPDEST PUSH2 0x776 DUP2 PUSH2 0x90E JUMP JUMPDEST DUP3 MSTORE POP POP JUMP JUMPDEST PUSH1 0x0 PUSH2 0x789 PUSH1 0x26 DUP4 PUSH2 0x891 JUMP JUMPDEST SWAP2 POP PUSH2 0x794 DUP3 PUSH2 0xA19 JUMP JUMPDEST PUSH1 0x40 DUP3 ADD SWAP1 POP SWAP2 SWAP1 POP JUMP JUMPDEST PUSH2 0x7A8 DUP2 PUSH2 0x8F2 JUMP JUMPDEST DUP3 MSTORE POP POP JUMP JUMPDEST PUSH1 0x0 PUSH1 0x20 DUP3 ADD SWAP1 POP PUSH2 0x7C3 PUSH1 0x0 DUP4 ADD DUP5 PUSH2 0x75E JUMP JUMPDEST SWAP3 SWAP2 POP POP JUMP JUMPDEST PUSH1 0x0 PUSH1 0x60 DUP3 ADD SWAP1 POP PUSH2 0x7DE PUSH1 0x0 DUP4 ADD DUP7 PUSH2 0x75E JUMP JUMPDEST PUSH2 0x7EB PUSH1 0x20 DUP4 ADD DUP6 PUSH2 0x74F JUMP JUMPDEST PUSH2 0x7F8 PUSH1 0x40 DUP4 ADD DUP5 PUSH2 0x79F JUMP JUMPDEST SWAP5 SWAP4 POP POP POP POP JUMP JUMPDEST PUSH1 0x0 PUSH1 0x20 DUP3 ADD SWAP1 POP PUSH2 0x815 PUSH1 0x0 DUP4 ADD DUP5 PUSH2 0x76D JUMP JUMPDEST SWAP3 SWAP2 POP POP JUMP JUMPDEST PUSH1 0x0 PUSH1 0x20 DUP3 ADD SWAP1 POP DUP2 DUP2 SUB PUSH1 0x0 DUP4 ADD MSTORE PUSH2 0x834 DUP2 PUSH2 0x77C JUMP JUMPDEST SWAP1 POP SWAP2 SWAP1 POP JUMP JUMPDEST PUSH1 0x0 PUSH2 0x845 PUSH2 0x856 JUMP JUMPDEST SWAP1 POP PUSH2 0x851 DUP3 DUP3 PUSH2 0x965 JUMP JUMPDEST SWAP2 SWAP1 POP JUMP JUMPDEST PUSH1 0x0 PUSH1 0x40 MLOAD SWAP1 POP SWAP1 JUMP JUMPDEST PUSH1 0x0 PUSH8 0xFFFFFFFFFFFFFFFF DUP3 GT ISZERO PUSH2 0x87B JUMPI PUSH2 0x87A PUSH2 0x9C5 JUMP JUMPDEST JUMPDEST PUSH2 0x884 DUP3 PUSH2 0xA08 JUMP JUMPDEST SWAP1 POP PUSH1 0x20 DUP2 ADD SWAP1 POP SWAP2 SWAP1 POP JUMP JUMPDEST PUSH1 0x0 DUP3 DUP3 MSTORE PUSH1 0x20 DUP3 ADD SWAP1 POP SWAP3 SWAP2 POP POP JUMP JUMPDEST PUSH1 0x0 PUSH2 0x8AD DUP3 PUSH2 0x8D2 JUMP JUMPDEST SWAP1 POP SWAP2 SWAP1 POP JUMP JUMPDEST PUSH1 0x0 PUSH2 0x8BF DUP3 PUSH2 0x8D2 JUMP JUMPDEST SWAP1 POP SWAP2 SWAP1 POP JUMP JUMPDEST PUSH1 0x0 DUP2 ISZERO ISZERO SWAP1 POP SWAP2 SWAP1 POP JUMP JUMPDEST PUSH1 0x0 PUSH20 0xFFFFFFFFFFFFFFFFFFFFFFFFFFFFFFFFFFFFFFFF DUP3 AND SWAP1 POP SWAP2 SWAP1 POP JUMP JUMPDEST PUSH1 0x0 DUP2 SWAP1 POP SWAP2 SWAP1 POP JUMP JUMPDEST PUSH1 0x0 PUSH2 0x907 DUP3 PUSH2 0x920 JUMP JUMPDEST SWAP1 POP SWAP2 SWAP1 POP JUMP JUMPDEST PUSH1 0x0 PUSH2 0x919 DUP3 PUSH2 0x932 JUMP JUMPDEST SWAP1 POP SWAP2 SWAP1 POP JUMP JUMPDEST PUSH1 0x0 PUSH2 0x92B DUP3 PUSH2 0x944 JUMP JUMPDEST SWAP1 POP SWAP2 SWAP1 POP JUMP JUMPDEST PUSH1 0x0 PUSH2 0x93D DUP3 PUSH2 0x944 JUMP JUMPDEST SWAP1 POP SWAP2 SWAP1 POP JUMP JUMPDEST PUSH1 0x0 PUSH2 0x94F DUP3 PUSH2 0x8D2 JUMP JUMPDEST SWAP1 POP SWAP2 SWAP1 POP JUMP JUMPDEST DUP3 DUP2 DUP4 CALLDATACOPY PUSH1 0x0 DUP4 DUP4 ADD MSTORE POP POP POP JUMP JUMPDEST PUSH2 0x96E DUP3 PUSH2 0xA08 JUMP JUMPDEST DUP2 ADD DUP2 DUP2 LT PUSH8 0xFFFFFFFFFFFFFFFF DUP3 GT OR ISZERO PUSH2 0x98D JUMPI PUSH2 0x98C PUSH2 0x9C5 JUMP JUMPDEST JUMPDEST DUP1 PUSH1 0x40 MSTORE POP POP POP JUMP JUMPDEST PUSH32 0x4E487B7100000000000000000000000000000000000000000000000000000000 PUSH1 0x0 MSTORE PUSH1 0x1 PUSH1 0x4 MSTORE PUSH1 0x24 PUSH1 0x0 REVERT JUMPDEST PUSH32 0x4E487B7100000000000000000000000000000000000000000000000000000000 PUSH1 0x0 MSTORE PUSH1 0x41 PUSH1 0x4 MSTORE PUSH1 0x24 PUSH1 0x0 REVERT JUMPDEST PUSH1 0x0 DUP1 REVERT JUMPDEST PUSH1 0x0 DUP1 REVERT JUMPDEST PUSH1 0x0 DUP1 REVERT JUMPDEST PUSH1 0x0 DUP1 REVERT JUMPDEST PUSH1 0x0 PUSH1 0x1F NOT PUSH1 0x1F DUP4 ADD AND SWAP1 POP SWAP2 SWAP1 POP JUMP JUMPDEST PUSH32 0x4F776E61626C653A206E6577206F776E657220697320746865207A65726F2061 PUSH1 0x0 DUP3 ADD MSTORE PUSH32 0x6464726573730000000000000000000000000000000000000000000000000000 PUSH1 0x20 DUP3 ADD MSTORE POP JUMP JUMPDEST PUSH2 0xA71 DUP2 PUSH2 0x8A2 JUMP JUMPDEST DUP2 EQ PUSH2 0xA7C JUMPI PUSH1 0x0 DUP1 REVERT JUMPDEST POP JUMP JUMPDEST PUSH2 0xA88 DUP2 PUSH2 0x8B4 JUMP JUMPDEST DUP2 EQ PUSH2 0xA93 JUMPI PUSH1 0x0 DUP1 REVERT JUMPDEST POP JUMP JUMPDEST PUSH2 0xA9F DUP2 PUSH2 0x8C6 JUMP JUMPDEST DUP2 EQ PUSH2 0xAAA JUMPI PUSH1 0x0 DUP1 REVERT JUMPDEST POP JUMP JUMPDEST PUSH2 0xAB6 DUP2 PUSH2 0x8F2 JUMP JUMPDEST DUP2 EQ PUSH2 0xAC1 JUMPI PUSH1 0x0 DUP1 REVERT JUMPDEST POP JUMP INVALID PUSH1 0x80 PUSH1 0x40 MSTORE CALLVALUE DUP1 ISZERO PUSH2 0x10 JUMPI PUSH1 0x0 DUP1 REVERT JUMPDEST POP PUSH1 0x40 MLOAD PUSH2 0x868 CODESIZE SUB DUP1 PUSH2 0x868 DUP4 CODECOPY DUP2 DUP2 ADD PUSH1 0x40 MSTORE DUP2 ADD SWAP1 PUSH2 0x32 SWAP2 SWAP1 PUSH2 0x8D JUMP JUMPDEST DUP1 PUSH1 0x0 DUP1 PUSH2 0x100 EXP DUP2 SLOAD DUP2 PUSH20 0xFFFFFFFFFFFFFFFFFFFFFFFFFFFFFFFFFFFFFFFF MUL NOT AND SWAP1 DUP4 PUSH20 0xFFFFFFFFFFFFFFFFFFFFFFFFFFFFFFFFFFFFFFFF AND MUL OR SWAP1 SSTORE POP POP PUSH2 0x108 JUMP JUMPDEST PUSH1 0x0 DUP2 MLOAD SWAP1 POP PUSH2 0x87 DUP2 PUSH2 0xF1 JUMP JUMPDEST SWAP3 SWAP2 POP POP JUMP JUMPDEST PUSH1 0x0 PUSH1 0x20 DUP3 DUP5 SUB SLT ISZERO PUSH2 0xA3 JUMPI PUSH2 0xA2 PUSH2 0xEC JUMP JUMPDEST JUMPDEST PUSH1 0x0 PUSH2 0xB1 DUP5 DUP3 DUP6 ADD PUSH2 0x78 JUMP JUMPDEST SWAP2 POP POP SWAP3 SWAP2 POP POP JUMP JUMPDEST PUSH1 0x0 PUSH2 0xC5 DUP3 PUSH2 0xCC JUMP JUMPDEST SWAP1 POP SWAP2 SWAP1 POP JUMP JUMPDEST PUSH1 0x0 PUSH20 0xFFFFFFFFFFFFFFFFFFFFFFFFFFFFFFFFFFFFFFFF DUP3 AND SWAP1 POP SWAP2 SWAP1 POP JUMP JUMPDEST PUSH1 0x0 DUP1 REVERT JUMPDEST PUSH2 0xFA DUP2 PUSH2 0xBA JUMP JUMPDEST DUP2 EQ PUSH2 0x105 JUMPI PUSH1 0x0 DUP1 REVERT JUMPDEST POP JUMP JUMPDEST PUSH2 0x751 DUP1 PUSH2 0x117 PUSH1 0x0 CODECOPY PUSH1 0x0 RETURN INVALID PUSH1 0x80 PUSH1 0x40 MSTORE PUSH1 0x4 CALLDATASIZE LT PUSH2 0x59 JUMPI PUSH1 0x0 CALLDATALOAD PUSH1 0xE0 SHR DUP1 PUSH4 0x26B1D5F EQ PUSH2 0xF5 JUMPI DUP1 PUSH4 0x13658F8A EQ PUSH2 0x120 JUMPI DUP1 PUSH4 0x23B872DD EQ PUSH2 0x13C JUMPI DUP1 PUSH4 0xBEABACC8 EQ PUSH2 0x165 JUMPI DUP1 PUSH4 0xD0E30DB0 EQ PUSH2 0x18E JUMPI DUP1 PUSH4 0xE1F21C67 EQ PUSH2 0x198 JUMPI PUSH2 0xF0 JUMP JUMPDEST CALLDATASIZE PUSH2 0xF0 JUMPI PUSH1 0x0 PUSH20 0xFFFFFFFFFFFFFFFFFFFFFFFFFFFFFFFFFFFFFFFF AND PUSH1 0x0 DUP1 SLOAD SWAP1 PUSH2 0x100 EXP SWAP1 DIV PUSH20 0xFFFFFFFFFFFFFFFFFFFFFFFFFFFFFFFFFFFFFFFF AND PUSH20 0xFFFFFFFFFFFFFFFFFFFFFFFFFFFFFFFFFFFFFFFF AND EQ ISZERO PUSH2 0xEE JUMPI PUSH1 0x40 MLOAD PUSH32 0x8C379A000000000000000000000000000000000000000000000000000000000 DUP2 MSTORE PUSH1 0x4 ADD PUSH2 0xE5 SWAP1 PUSH2 0x5DD JUMP JUMPDEST PUSH1 0x40 MLOAD DUP1 SWAP2 SUB SWAP1 REVERT JUMPDEST STOP JUMPDEST PUSH1 0x0 DUP1 REVERT JUMPDEST CALLVALUE DUP1 ISZERO PUSH2 0x101 JUMPI PUSH1 0x0 DUP1 REVERT JUMPDEST POP PUSH2 0x10A PUSH2 0x1C1 JUMP JUMPDEST PUSH1 0x40 MLOAD PUSH2 0x117 SWAP2 SWAP1 PUSH2 0x562 JUMP JUMPDEST PUSH1 0x40 MLOAD DUP1 SWAP2 SUB SWAP1 RETURN JUMPDEST PUSH2 0x13A PUSH1 0x4 DUP1 CALLDATASIZE SUB DUP2 ADD SWAP1 PUSH2 0x135 SWAP2 SWAP1 PUSH2 0x452 JUMP JUMPDEST PUSH2 0x1C9 JUMP JUMPDEST STOP JUMPDEST CALLVALUE DUP1 ISZERO PUSH2 0x148 JUMPI PUSH1 0x0 DUP1 REVERT JUMPDEST POP PUSH2 0x163 PUSH1 0x4 DUP1 CALLDATASIZE SUB DUP2 ADD SWAP1 PUSH2 0x15E SWAP2 SWAP1 PUSH2 0x4BF JUMP JUMPDEST PUSH2 0x214 JUMP JUMPDEST STOP JUMPDEST CALLVALUE DUP1 ISZERO PUSH2 0x171 JUMPI PUSH1 0x0 DUP1 REVERT JUMPDEST POP PUSH2 0x18C PUSH1 0x4 DUP1 CALLDATASIZE SUB DUP2 ADD SWAP1 PUSH2 0x187 SWAP2 SWAP1 PUSH2 0x4BF JUMP JUMPDEST PUSH2 0x2B1 JUMP JUMPDEST STOP JUMPDEST PUSH2 0x196 PUSH2 0x34C JUMP JUMPDEST STOP JUMPDEST CALLVALUE DUP1 ISZERO PUSH2 0x1A4 JUMPI PUSH1 0x0 DUP1 REVERT JUMPDEST POP PUSH2 0x1BF PUSH1 0x4 DUP1 CALLDATASIZE SUB DUP2 ADD SWAP1 PUSH2 0x1BA SWAP2 SWAP1 PUSH2 0x4BF JUMP JUMPDEST PUSH2 0x34E JUMP JUMPDEST STOP JUMPDEST PUSH1 0x0 ADDRESS SWAP1 POP SWAP1 JUMP JUMPDEST DUP2 PUSH20 0xFFFFFFFFFFFFFFFFFFFFFFFFFFFFFFFFFFFFFFFF AND PUSH2 0x8FC DUP3 SWAP1 DUP2 ISZERO MUL SWAP1 PUSH1 0x40 MLOAD PUSH1 0x0 PUSH1 0x40 MLOAD DUP1 DUP4 SUB DUP2 DUP6 DUP9 DUP9 CALL SWAP4 POP POP POP POP ISZERO DUP1 ISZERO PUSH2 0x20F JUMPI RETURNDATASIZE PUSH1 0x0 DUP1 RETURNDATACOPY RETURNDATASIZE PUSH1 0x0 REVERT JUMPDEST POP POP POP JUMP JUMPDEST DUP3 PUSH20 0xFFFFFFFFFFFFFFFFFFFFFFFFFFFFFFFFFFFFFFFF AND PUSH4 0x23B872DD ADDRESS DUP5 DUP5 PUSH1 0x40 MLOAD DUP5 PUSH4 0xFFFFFFFF AND PUSH1 0xE0 SHL DUP2 MSTORE PUSH1 0x4 ADD PUSH2 0x251 SWAP4 SWAP3 SWAP2 SWAP1 PUSH2 0x57D JUMP JUMPDEST PUSH1 0x20 PUSH1 0x40 MLOAD DUP1 DUP4 SUB DUP2 PUSH1 0x0 DUP8 DUP1 EXTCODESIZE ISZERO DUP1 ISZERO PUSH2 0x26B JUMPI PUSH1 0x0 DUP1 REVERT JUMPDEST POP GAS CALL ISZERO DUP1 ISZERO PUSH2 0x27F JUMPI RETURNDATASIZE PUSH1 0x0 DUP1 RETURNDATACOPY RETURNDATASIZE PUSH1 0x0 REVERT JUMPDEST POP POP POP POP PUSH1 0x40 MLOAD RETURNDATASIZE PUSH1 0x1F NOT PUSH1 0x1F DUP3 ADD AND DUP3 ADD DUP1 PUSH1 0x40 MSTORE POP DUP2 ADD SWAP1 PUSH2 0x2A3 SWAP2 SWAP1 PUSH2 0x492 JUMP JUMPDEST PUSH2 0x2AC JUMPI PUSH1 0x0 DUP1 REVERT JUMPDEST POP POP POP JUMP JUMPDEST DUP3 PUSH20 0xFFFFFFFFFFFFFFFFFFFFFFFFFFFFFFFFFFFFFFFF AND PUSH4 0xA9059CBB DUP4 DUP4 PUSH1 0x40 MLOAD DUP4 PUSH4 0xFFFFFFFF AND PUSH1 0xE0 SHL DUP2 MSTORE PUSH1 0x4 ADD PUSH2 0x2EC SWAP3 SWAP2 SWAP1 PUSH2 0x5B4 JUMP JUMPDEST PUSH1 0x20 PUSH1 0x40 MLOAD DUP1 DUP4 SUB DUP2 PUSH1 0x0 DUP8 DUP1 EXTCODESIZE ISZERO DUP1 ISZERO PUSH2 0x306 JUMPI PUSH1 0x0 DUP1 REVERT JUMPDEST POP GAS CALL ISZERO DUP1 ISZERO PUSH2 0x31A JUMPI RETURNDATASIZE PUSH1 0x0 DUP1 RETURNDATACOPY RETURNDATASIZE PUSH1 0x0 REVERT JUMPDEST POP POP POP POP PUSH1 0x40 MLOAD RETURNDATASIZE PUSH1 0x1F NOT PUSH1 0x1F DUP3 ADD AND DUP3 ADD DUP1 PUSH1 0x40 MSTORE POP DUP2 ADD SWAP1 PUSH2 0x33E SWAP2 SWAP1 PUSH2 0x492 JUMP JUMPDEST PUSH2 0x347 JUMPI PUSH1 0x0 DUP1 REVERT JUMPDEST POP POP POP JUMP JUMPDEST JUMP JUMPDEST DUP3 PUSH20 0xFFFFFFFFFFFFFFFFFFFFFFFFFFFFFFFFFFFFFFFF AND PUSH4 0x95EA7B3 DUP4 DUP4 PUSH1 0x40 MLOAD DUP4 PUSH4 0xFFFFFFFF AND PUSH1 0xE0 SHL DUP2 MSTORE PUSH1 0x4 ADD PUSH2 0x389 SWAP3 SWAP2 SWAP1 PUSH2 0x5B4 JUMP JUMPDEST PUSH1 0x20 PUSH1 0x40 MLOAD DUP1 DUP4 SUB DUP2 PUSH1 0x0 DUP8 DUP1 EXTCODESIZE ISZERO DUP1 ISZERO PUSH2 0x3A3 JUMPI PUSH1 0x0 DUP1 REVERT JUMPDEST POP GAS CALL ISZERO DUP1 ISZERO PUSH2 0x3B7 JUMPI RETURNDATASIZE PUSH1 0x0 DUP1 RETURNDATACOPY RETURNDATASIZE PUSH1 0x0 REVERT JUMPDEST POP POP POP POP PUSH1 0x40 MLOAD RETURNDATASIZE PUSH1 0x1F NOT PUSH1 0x1F DUP3 ADD AND DUP3 ADD DUP1 PUSH1 0x40 MSTORE POP DUP2 ADD SWAP1 PUSH2 0x3DB SWAP2 SWAP1 PUSH2 0x492 JUMP JUMPDEST PUSH2 0x3E4 JUMPI PUSH1 0x0 DUP1 REVERT JUMPDEST POP POP POP JUMP JUMPDEST PUSH1 0x0 DUP2 CALLDATALOAD SWAP1 POP PUSH2 0x3F8 DUP2 PUSH2 0x6A8 JUMP JUMPDEST SWAP3 SWAP2 POP POP JUMP JUMPDEST PUSH1 0x0 DUP2 CALLDATALOAD SWAP1 POP PUSH2 0x40D DUP2 PUSH2 0x6BF JUMP JUMPDEST SWAP3 SWAP2 POP POP JUMP JUMPDEST PUSH1 0x0 DUP2 MLOAD SWAP1 POP PUSH2 0x422 DUP2 PUSH2 0x6D6 JUMP JUMPDEST SWAP3 SWAP2 POP POP JUMP JUMPDEST PUSH1 0x0 DUP2 CALLDATALOAD SWAP1 POP PUSH2 0x437 DUP2 PUSH2 0x6ED JUMP JUMPDEST SWAP3 SWAP2 POP POP JUMP JUMPDEST PUSH1 0x0 DUP2 CALLDATALOAD SWAP1 POP PUSH2 0x44C DUP2 PUSH2 0x704 JUMP JUMPDEST SWAP3 SWAP2 POP POP JUMP JUMPDEST PUSH1 0x0 DUP1 PUSH1 0x40 DUP4 DUP6 SUB SLT ISZERO PUSH2 0x469 JUMPI PUSH2 0x468 PUSH2 0x67A JUMP JUMPDEST JUMPDEST PUSH1 0x0 PUSH2 0x477 DUP6 DUP3 DUP7 ADD PUSH2 0x3FE JUMP JUMPDEST SWAP3 POP POP PUSH1 0x20 PUSH2 0x488 DUP6 DUP3 DUP7 ADD PUSH2 0x43D JUMP JUMPDEST SWAP2 POP POP SWAP3 POP SWAP3 SWAP1 POP JUMP JUMPDEST PUSH1 0x0 PUSH1 0x20 DUP3 DUP5 SUB SLT ISZERO PUSH2 0x4A8 JUMPI PUSH2 0x4A7 PUSH2 0x67A JUMP JUMPDEST JUMPDEST PUSH1 0x0 PUSH2 0x4B6 DUP5 DUP3 DUP6 ADD PUSH2 0x413 JUMP JUMPDEST SWAP2 POP POP SWAP3 SWAP2 POP POP JUMP JUMPDEST PUSH1 0x0 DUP1 PUSH1 0x0 PUSH1 0x60 DUP5 DUP7 SUB SLT ISZERO PUSH2 0x4D8 JUMPI PUSH2 0x4D7 PUSH2 0x67A JUMP JUMPDEST JUMPDEST PUSH1 0x0 PUSH2 0x4E6 DUP7 DUP3 DUP8 ADD PUSH2 0x428 JUMP JUMPDEST SWAP4 POP POP PUSH1 0x20 PUSH2 0x4F7 DUP7 DUP3 DUP8 ADD PUSH2 0x3E9 JUMP JUMPDEST SWAP3 POP POP PUSH1 0x40 PUSH2 0x508 DUP7 DUP3 DUP8 ADD PUSH2 0x43D JUMP JUMPDEST SWAP2 POP POP SWAP3 POP SWAP3 POP SWAP3 JUMP JUMPDEST PUSH2 0x51B DUP2 PUSH2 0x620 JUMP JUMPDEST DUP3 MSTORE POP POP JUMP JUMPDEST PUSH2 0x52A DUP2 PUSH2 0x60E JUMP JUMPDEST DUP3 MSTORE POP POP JUMP JUMPDEST PUSH1 0x0 PUSH2 0x53D PUSH1 0x10 DUP4 PUSH2 0x5FD JUMP JUMPDEST SWAP2 POP PUSH2 0x548 DUP3 PUSH2 0x67F JUMP JUMPDEST PUSH1 0x20 DUP3 ADD SWAP1 POP SWAP2 SWAP1 POP JUMP JUMPDEST PUSH2 0x55C DUP2 PUSH2 0x670 JUMP JUMPDEST DUP3 MSTORE POP POP JUMP JUMPDEST PUSH1 0x0 PUSH1 0x20 DUP3 ADD SWAP1 POP PUSH2 0x577 PUSH1 0x0 DUP4 ADD DUP5 PUSH2 0x512 JUMP JUMPDEST SWAP3 SWAP2 POP POP JUMP JUMPDEST PUSH1 0x0 PUSH1 0x60 DUP3 ADD SWAP1 POP PUSH2 0x592 PUSH1 0x0 DUP4 ADD DUP7 PUSH2 0x521 JUMP JUMPDEST PUSH2 0x59F PUSH1 0x20 DUP4 ADD DUP6 PUSH2 0x521 JUMP JUMPDEST PUSH2 0x5AC PUSH1 0x40 DUP4 ADD DUP5 PUSH2 0x553 JUMP JUMPDEST SWAP5 SWAP4 POP POP POP POP JUMP JUMPDEST PUSH1 0x0 PUSH1 0x40 DUP3 ADD SWAP1 POP PUSH2 0x5C9 PUSH1 0x0 DUP4 ADD DUP6 PUSH2 0x521 JUMP JUMPDEST PUSH2 0x5D6 PUSH1 0x20 DUP4 ADD DUP5 PUSH2 0x553 JUMP JUMPDEST SWAP4 SWAP3 POP POP POP JUMP JUMPDEST PUSH1 0x0 PUSH1 0x20 DUP3 ADD SWAP1 POP DUP2 DUP2 SUB PUSH1 0x0 DUP4 ADD MSTORE PUSH2 0x5F6 DUP2 PUSH2 0x530 JUMP JUMPDEST SWAP1 POP SWAP2 SWAP1 POP JUMP JUMPDEST PUSH1 0x0 DUP3 DUP3 MSTORE PUSH1 0x20 DUP3 ADD SWAP1 POP SWAP3 SWAP2 POP POP JUMP JUMPDEST PUSH1 0x0 PUSH2 0x619 DUP3 PUSH2 0x650 JUMP JUMPDEST SWAP1 POP SWAP2 SWAP1 POP JUMP JUMPDEST PUSH1 0x0 PUSH2 0x62B DUP3 PUSH2 0x650 JUMP JUMPDEST SWAP1 POP SWAP2 SWAP1 POP JUMP JUMPDEST PUSH1 0x0 DUP2 ISZERO ISZERO SWAP1 POP SWAP2 SWAP1 POP JUMP JUMPDEST PUSH1 0x0 PUSH2 0x649 DUP3 PUSH2 0x60E JUMP JUMPDEST SWAP1 POP SWAP2 SWAP1 POP JUMP JUMPDEST PUSH1 0x0 PUSH20 0xFFFFFFFFFFFFFFFFFFFFFFFFFFFFFFFFFFFFFFFF DUP3 AND SWAP1 POP SWAP2 SWAP1 POP JUMP JUMPDEST PUSH1 0x0 DUP2 SWAP1 POP SWAP2 SWAP1 POP JUMP JUMPDEST PUSH1 0x0 DUP1 REVERT JUMPDEST PUSH32 0x6E65656420696E697420626F756E747900000000000000000000000000000000 PUSH1 0x0 DUP3 ADD MSTORE POP JUMP JUMPDEST PUSH2 0x6B1 DUP2 PUSH2 0x60E JUMP JUMPDEST DUP2 EQ PUSH2 0x6BC JUMPI PUSH1 0x0 DUP1 REVERT JUMPDEST POP JUMP JUMPDEST PUSH2 0x6C8 DUP2 PUSH2 0x620 JUMP JUMPDEST DUP2 EQ PUSH2 0x6D3 JUMPI PUSH1 0x0 DUP1 REVERT JUMPDEST POP JUMP JUMPDEST PUSH2 0x6DF DUP2 PUSH2 0x632 JUMP JUMPDEST DUP2 EQ PUSH2 0x6EA JUMPI PUSH1 0x0 DUP1 REVERT JUMPDEST POP JUMP JUMPDEST PUSH2 0x6F6 DUP2 PUSH2 0x63E JUMP JUMPDEST DUP2 EQ PUSH2 0x701 JUMPI PUSH1 0x0 DUP1 REVERT JUMPDEST POP JUMP JUMPDEST PUSH2 0x70D DUP2 PUSH2 0x670 JUMP JUMPDEST DUP2 EQ PUSH2 0x718 JUMPI PUSH1 0x0 DUP1 REVERT JUMPDEST POP JUMP INVALID LOG2 PUSH5 0x6970667358 0x22 SLT KECCAK256 0xAC 0xAD CALLDATASIZE 0x5C PUSH4 0x3011E1D2 0x4A 0xF 0x4B 0xAE PUSH26 0x95EC3DEFADD981FDA5AC24B3923CA696EA9C64736F6C63430008 SMOD STOP CALLER LOG2 PUSH5 0x6970667358 0x22 SLT KECCAK256 0xB7 0xE2 NOT SWAP6 0xE2 RETURN 0xC8 DUP8 STATICCALL 0xE5 0xAB 0xBE 0xE0 0xC9 0xB3 SWAP14 CALLCODE LOG2 OR 0x27 DUP11 0xA9 STATICCALL 0xED CREATE2 GAS 0xDF POP SWAP11 0xFC SWAP2 0xBF PUSH5 0x736F6C6343 STOP ADDMOD SMOD STOP CALLER "
				},
				"gasEstimates": {
					"creation": {
						"codeDepositCost": "992400",
						"executionCost": "73833",
						"totalCost": "1066233"
					},
					"external": {
						"": "157",
						"createBounty(uint256)": "infinite",
						"invest(string,address,uint256,uint256)": "infinite",
						"suicide0(address)": "30198",
						"transferOwnership(address)": "30694"
					}
				},
				"methodIdentifiers": {
					"createBounty(uint256)": "3f28e9fb",
					"invest(string,address,uint256,uint256)": "46964a0a",
					"suicide0(address)": "14da447f",
					"transferOwnership(address)": "f2fde38b"
				}
			},
			"storageLayout": {
				"storage": [
					{
						"astId": 217,
						"contract": "contracts/Bounty.sol:Bounty",
						"label": "_owner",
						"offset": 0,
						"slot": "0",
						"type": "t_address"
					},
					{
						"astId": 219,
						"contract": "contracts/Bounty.sol:Bounty",
						"label": "_coinbase",
						"offset": 0,
						"slot": "1",
						"type": "t_address_payable"
					},
					{
						"astId": 14,
						"contract": "contracts/Bounty.sol:Bounty",
						"label": "bountyAddressList",
						"offset": 0,
						"slot": "2",
						"type": "t_array(t_contract(BountyAddr)213)dyn_storage"
					},
					{
						"astId": 20,
						"contract": "contracts/Bounty.sol:Bounty",
						"label": "_stableAddr",
						"offset": 0,
						"slot": "3",
						"type": "t_address"
					}
				],
				"types": {
					"t_address": {
						"encoding": "inplace",
						"label": "address",
						"numberOfBytes": "20"
					},
					"t_address_payable": {
						"encoding": "inplace",
						"label": "address payable",
						"numberOfBytes": "20"
					},
					"t_array(t_contract(BountyAddr)213)dyn_storage": {
						"base": "t_contract(BountyAddr)213",
						"encoding": "dynamic_array",
						"label": "contract BountyAddr[]",
						"numberOfBytes": "32"
					},
					"t_contract(BountyAddr)213": {
						"encoding": "inplace",
						"label": "contract BountyAddr",
						"numberOfBytes": "20"
					}
				}
			},
			"userdoc": {
				"kind": "user",
				"methods": {},
				"version": 1
			}
		}
	}
}