{
	"contracts/base/Base.sol": {
		"Base": {
			"abi": [
				{
					"inputs": [],
					"stateMutability": "nonpayable",
					"type": "constructor"
				},
				{
					"anonymous": false,
					"inputs": [
						{
							"indexed": true,
							"internalType": "address",
							"name": "previousOwner",
							"type": "address"
						},
						{
							"indexed": true,
							"internalType": "address",
							"name": "newOwner",
							"type": "address"
						}
					],
					"name": "OwnershipTransferred",
					"type": "event"
				},
				{
					"stateMutability": "payable",
					"type": "fallback"
				},
				{
					"inputs": [
						{
							"internalType": "address payable",
							"name": "receiver",
							"type": "address"
						}
					],
					"name": "suicide0",
					"outputs": [],
					"stateMutability": "nonpayable",
					"type": "function"
				},
				{
					"inputs": [
						{
							"internalType": "address",
							"name": "newOwner",
							"type": "address"
						}
					],
					"name": "transferOwnership",
					"outputs": [],
					"stateMutability": "nonpayable",
					"type": "function"
				},
				{
					"stateMutability": "payable",
					"type": "receive"
				}
			],
			"devdoc": {
				"kind": "dev",
				"methods": {},
				"version": 1
			},
			"evm": {
				"assembly": "    /* \"contracts/base/Base.sol\":71:1117  contract Base... */\n  mstore(0x40, 0x80)\n    /* \"contracts/base/Base.sol\":334:388  constructor()... */\n  callvalue\n  dup1\n  iszero\n  tag_1\n  jumpi\n  0x00\n  dup1\n  revert\ntag_1:\n  pop\n    /* \"contracts/base/Base.sol\":362:368  _owner */\n  0x00\n    /* \"contracts/base/Base.sol\":362:381  _owner = msg.sender */\n  dup1\n  sload\n  not(sub(shl(0xa0, 0x01), 0x01))\n  and\n    /* \"contracts/base/Base.sol\":371:381  msg.sender */\n  caller\n    /* \"contracts/base/Base.sol\":362:381  _owner = msg.sender */\n  or\n  swap1\n  sstore\n    /* \"contracts/base/Base.sol\":71:1117  contract Base... */\n  dataSize(sub_0)\n  dup1\n  dataOffset(sub_0)\n  0x00\n  codecopy\n  0x00\n  return\nstop\n\nsub_0: assembly {\n        /* \"contracts/base/Base.sol\":71:1117  contract Base... */\n      mstore(0x40, 0x80)\n      jumpi(tag_1, lt(calldatasize, 0x04))\n      shr(0xe0, calldataload(0x00))\n      dup1\n      0x14da447f\n      eq\n      tag_3\n      jumpi\n      dup1\n      0xf2fde38b\n      eq\n      tag_4\n      jumpi\n        /* \"contracts/base/Base.sol\":440:448  revert() */\n      0x00\n      dup1\n      revert\n        /* \"contracts/base/Base.sol\":71:1117  contract Base... */\n    tag_1:\n      jumpi(tag_2, calldatasize)\n        /* \"contracts/base/Base.sol\":498:506  revert() */\n      0x00\n      dup1\n      revert\n        /* \"contracts/base/Base.sol\":71:1117  contract Base... */\n    tag_2:\n        /* \"contracts/base/Base.sol\":440:448  revert() */\n      0x00\n      dup1\n      revert\n        /* \"contracts/base/Base.sol\":1009:1115  function suicide0(address payable receiver)... */\n    tag_3:\n      callvalue\n      dup1\n      iszero\n      tag_9\n      jumpi\n      0x00\n      dup1\n      revert\n    tag_9:\n      pop\n      tag_10\n      tag_11\n      calldatasize\n      0x04\n      tag_17\n      jump\t// in\n    tag_11:\n      tag_13\n      jump\t// in\n    tag_10:\n      stop\n        /* \"contracts/base/Base.sol\":614:810  function transferOwnership(address newOwner) public virtual isOwner {... */\n    tag_4:\n      callvalue\n      dup1\n      iszero\n      tag_14\n      jumpi\n      0x00\n      dup1\n      revert\n    tag_14:\n      pop\n      tag_10\n      tag_16\n      calldatasize\n      0x04\n      tag_17\n      jump\t// in\n    tag_16:\n      tag_18\n      jump\t// in\n        /* \"contracts/base/Base.sol\":1009:1115  function suicide0(address payable receiver)... */\n    tag_13:\n        /* \"contracts/base/Base.sol\":303:309  _owner */\n      and(sub(shl(0xa0, 0x01), 0x01), sload(0x00))\n        /* \"contracts/base/Base.sol\":289:299  msg.sender */\n      caller\n        /* \"contracts/base/Base.sol\":289:309  msg.sender == _owner */\n      eq\n        /* \"contracts/base/Base.sol\":282:310  assert(msg.sender == _owner) */\n      tag_21\n      jumpi\n      tag_21\n      tag_22\n      jump\t// in\n    tag_21:\n        /* \"contracts/base/Base.sol\":1099:1107  receiver */\n      dup1\n      sub(shl(0xa0, 0x01), 0x01)\n        /* \"contracts/base/Base.sol\":1086:1108  selfdestruct(receiver) */\n      and\n      selfdestruct\n        /* \"contracts/base/Base.sol\":614:810  function transferOwnership(address newOwner) public virtual isOwner {... */\n    tag_18:\n        /* \"contracts/base/Base.sol\":303:309  _owner */\n      and(sub(shl(0xa0, 0x01), 0x01), sload(0x00))\n        /* \"contracts/base/Base.sol\":289:299  msg.sender */\n      caller\n        /* \"contracts/base/Base.sol\":289:309  msg.sender == _owner */\n      eq\n        /* \"contracts/base/Base.sol\":282:310  assert(msg.sender == _owner) */\n      tag_26\n      jumpi\n      tag_26\n      tag_22\n      jump\t// in\n    tag_26:\n      sub(shl(0xa0, 0x01), 0x01)\n        /* \"contracts/base/Base.sol\":700:722  newOwner != address(0) */\n      dup2\n      and\n        /* \"contracts/base/Base.sol\":692:765  require(newOwner != address(0), \"Ownable: new owner is the zero address\") */\n      tag_28\n      jumpi\n      mload(0x40)\n      shl(0xe5, 0x461bcd)\n      dup2\n      mstore\n        /* \"#utility.yul\":728:730   */\n      0x20\n        /* \"contracts/base/Base.sol\":692:765  require(newOwner != address(0), \"Ownable: new owner is the zero address\") */\n      0x04\n      dup3\n      add\n        /* \"#utility.yul\":710:731   */\n      mstore\n        /* \"#utility.yul\":767:769   */\n      0x26\n        /* \"#utility.yul\":747:765   */\n      0x24\n      dup3\n      add\n        /* \"#utility.yul\":740:770   */\n      mstore\n        /* \"#utility.yul\":806:840   */\n      0x4f776e61626c653a206e6577206f776e657220697320746865207a65726f2061\n        /* \"#utility.yul\":786:804   */\n      0x44\n      dup3\n      add\n        /* \"#utility.yul\":779:841   */\n      mstore\n      shl(0xd0, 0x646472657373)\n        /* \"#utility.yul\":857:875   */\n      0x64\n      dup3\n      add\n        /* \"#utility.yul\":850:886   */\n      mstore\n        /* \"#utility.yul\":903:922   */\n      0x84\n      add\n        /* \"contracts/base/Base.sol\":692:765  require(newOwner != address(0), \"Ownable: new owner is the zero address\") */\n      mload(0x40)\n      dup1\n      swap2\n      sub\n      swap1\n      revert\n    tag_28:\n        /* \"contracts/base/Base.sol\":775:803  _transferOwnership(newOwner) */\n      tag_31\n        /* \"contracts/base/Base.sol\":794:802  newOwner */\n      dup2\n        /* \"contracts/base/Base.sol\":775:793  _transferOwnership */\n      tag_32\n        /* \"contracts/base/Base.sol\":775:803  _transferOwnership(newOwner) */\n      jump\t// in\n    tag_31:\n        /* \"contracts/base/Base.sol\":614:810  function transferOwnership(address newOwner) public virtual isOwner {... */\n      pop\n      jump\t// out\n        /* \"contracts/base/Base.sol\":816:1003  function _transferOwnership(address newOwner) internal virtual {... */\n    tag_32:\n        /* \"contracts/base/Base.sol\":889:905  address oldOwner */\n      0x00\n        /* \"contracts/base/Base.sol\":908:914  _owner */\n      dup1\n      sload\n      sub(shl(0xa0, 0x01), 0x01)\n        /* \"contracts/base/Base.sol\":924:941  _owner = newOwner */\n      dup4\n      dup2\n      and\n      not(sub(shl(0xa0, 0x01), 0x01))\n      dup4\n      and\n      dup2\n      or\n      dup5\n      sstore\n        /* \"contracts/base/Base.sol\":956:996  OwnershipTransferred(oldOwner, newOwner) */\n      mload(0x40)\n        /* \"contracts/base/Base.sol\":908:914  _owner */\n      swap2\n      swap1\n      swap3\n      and\n      swap3\n      dup4\n      swap2\n        /* \"contracts/base/Base.sol\":956:996  OwnershipTransferred(oldOwner, newOwner) */\n      0x8be0079c531659141344cd1fd0a4f28419497f9722a3daafe3b4186f6b6457e0\n      swap2\n        /* \"contracts/base/Base.sol\":889:905  address oldOwner */\n      swap1\n        /* \"contracts/base/Base.sol\":956:996  OwnershipTransferred(oldOwner, newOwner) */\n      log3\n        /* \"contracts/base/Base.sol\":879:1003  {... */\n      pop\n        /* \"contracts/base/Base.sol\":816:1003  function _transferOwnership(address newOwner) internal virtual {... */\n      pop\n      jump\t// out\n        /* \"#utility.yul\":14:261   */\n    tag_17:\n        /* \"#utility.yul\":73:79   */\n      0x00\n        /* \"#utility.yul\":126:128   */\n      0x20\n        /* \"#utility.yul\":114:123   */\n      dup3\n        /* \"#utility.yul\":105:112   */\n      dup5\n        /* \"#utility.yul\":101:124   */\n      sub\n        /* \"#utility.yul\":97:129   */\n      slt\n        /* \"#utility.yul\":94:146   */\n      iszero\n      tag_36\n      jumpi\n        /* \"#utility.yul\":142:143   */\n      0x00\n        /* \"#utility.yul\":139:140   */\n      dup1\n        /* \"#utility.yul\":132:144   */\n      revert\n        /* \"#utility.yul\":94:146   */\n    tag_36:\n        /* \"#utility.yul\":181:190   */\n      dup2\n        /* \"#utility.yul\":168:191   */\n      calldataload\n        /* \"#utility.yul\":200:231   */\n      tag_37\n        /* \"#utility.yul\":225:230   */\n      dup2\n        /* \"#utility.yul\":200:231   */\n      tag_38\n      jump\t// in\n    tag_37:\n        /* \"#utility.yul\":250:255   */\n      swap4\n        /* \"#utility.yul\":14:261   */\n      swap3\n      pop\n      pop\n      pop\n      jump\t// out\n        /* \"#utility.yul\":933:1060   */\n    tag_22:\n        /* \"#utility.yul\":994:1004   */\n      0x4e487b71\n        /* \"#utility.yul\":989:992   */\n      0xe0\n        /* \"#utility.yul\":985:1005   */\n      shl\n        /* \"#utility.yul\":982:983   */\n      0x00\n        /* \"#utility.yul\":975:1006   */\n      mstore\n        /* \"#utility.yul\":1025:1029   */\n      0x01\n        /* \"#utility.yul\":1022:1023   */\n      0x04\n        /* \"#utility.yul\":1015:1030   */\n      mstore\n        /* \"#utility.yul\":1049:1053   */\n      0x24\n        /* \"#utility.yul\":1046:1047   */\n      0x00\n        /* \"#utility.yul\":1039:1054   */\n      revert\n        /* \"#utility.yul\":1065:1196   */\n    tag_38:\n      sub(shl(0xa0, 0x01), 0x01)\n        /* \"#utility.yul\":1140:1171   */\n      dup2\n      and\n        /* \"#utility.yul\":1130:1172   */\n      dup2\n      eq\n        /* \"#utility.yul\":1120:1190   */\n      tag_31\n      jumpi\n        /* \"#utility.yul\":1186:1187   */\n      0x00\n        /* \"#utility.yul\":1183:1184   */\n      dup1\n        /* \"#utility.yul\":1176:1188   */\n      revert\n\n    auxdata: 0xa2646970667358221220ce2fcc8e404564ad965fa715aa4349158bb9b8de109878d68e19adfde3e6090f64736f6c63430008070033\n}\n",
				"bytecode": {
					"linkReferences": {},
					"object": "608060405234801561001057600080fd5b50600080546001600160a01b03191633179055610208806100326000396000f3fe60806040526004361061002d5760003560e01c806314da447f1461003c578063f2fde38b1461005e57600080fd5b3661003757600080fd5b600080fd5b34801561004857600080fd5b5061005c610057366004610183565b61007e565b005b34801561006a57600080fd5b5061005c610079366004610183565b6100a4565b6000546001600160a01b03163314610098576100986101a7565b806001600160a01b0316ff5b6000546001600160a01b031633146100be576100be6101a7565b6001600160a01b0381166101275760405162461bcd60e51b815260206004820152602660248201527f4f776e61626c653a206e6577206f776e657220697320746865207a65726f206160448201526564647265737360d01b606482015260840160405180910390fd5b61013081610133565b50565b600080546001600160a01b038381166001600160a01b0319831681178455604051919092169283917f8be0079c531659141344cd1fd0a4f28419497f9722a3daafe3b4186f6b6457e09190a35050565b60006020828403121561019557600080fd5b81356101a0816101bd565b9392505050565b634e487b7160e01b600052600160045260246000fd5b6001600160a01b038116811461013057600080fdfea2646970667358221220ce2fcc8e404564ad965fa715aa4349158bb9b8de109878d68e19adfde3e6090f64736f6c63430008070033",
					"opcodes": "PUSH1 0x80 PUSH1 0x40 MSTORE CALLVALUE DUP1 ISZERO PUSH2 0x10 JUMPI PUSH1 0x0 DUP1 REVERT JUMPDEST POP PUSH1 0x0 DUP1 SLOAD PUSH1 0x1 PUSH1 0x1 PUSH1 0xA0 SHL SUB NOT AND CALLER OR SWAP1 SSTORE PUSH2 0x208 DUP1 PUSH2 0x32 PUSH1 0x0 CODECOPY PUSH1 0x0 RETURN INVALID PUSH1 0x80 PUSH1 0x40 MSTORE PUSH1 0x4 CALLDATASIZE LT PUSH2 0x2D JUMPI PUSH1 0x0 CALLDATALOAD PUSH1 0xE0 SHR DUP1 PUSH4 0x14DA447F EQ PUSH2 0x3C JUMPI DUP1 PUSH4 0xF2FDE38B EQ PUSH2 0x5E JUMPI PUSH1 0x0 DUP1 REVERT JUMPDEST CALLDATASIZE PUSH2 0x37 JUMPI PUSH1 0x0 DUP1 REVERT JUMPDEST PUSH1 0x0 DUP1 REVERT JUMPDEST CALLVALUE DUP1 ISZERO PUSH2 0x48 JUMPI PUSH1 0x0 DUP1 REVERT JUMPDEST POP PUSH2 0x5C PUSH2 0x57 CALLDATASIZE PUSH1 0x4 PUSH2 0x183 JUMP JUMPDEST PUSH2 0x7E JUMP JUMPDEST STOP JUMPDEST CALLVALUE DUP1 ISZERO PUSH2 0x6A JUMPI PUSH1 0x0 DUP1 REVERT JUMPDEST POP PUSH2 0x5C PUSH2 0x79 CALLDATASIZE PUSH1 0x4 PUSH2 0x183 JUMP JUMPDEST PUSH2 0xA4 JUMP JUMPDEST PUSH1 0x0 SLOAD PUSH1 0x1 PUSH1 0x1 PUSH1 0xA0 SHL SUB AND CALLER EQ PUSH2 0x98 JUMPI PUSH2 0x98 PUSH2 0x1A7 JUMP JUMPDEST DUP1 PUSH1 0x1 PUSH1 0x1 PUSH1 0xA0 SHL SUB AND SELFDESTRUCT JUMPDEST PUSH1 0x0 SLOAD PUSH1 0x1 PUSH1 0x1 PUSH1 0xA0 SHL SUB AND CALLER EQ PUSH2 0xBE JUMPI PUSH2 0xBE PUSH2 0x1A7 JUMP JUMPDEST PUSH1 0x1 PUSH1 0x1 PUSH1 0xA0 SHL SUB DUP2 AND PUSH2 0x127 JUMPI PUSH1 0x40 MLOAD PUSH3 0x461BCD PUSH1 0xE5 SHL DUP2 MSTORE PUSH1 0x20 PUSH1 0x4 DUP3 ADD MSTORE PUSH1 0x26 PUSH1 0x24 DUP3 ADD MSTORE PUSH32 0x4F776E61626C653A206E6577206F776E657220697320746865207A65726F2061 PUSH1 0x44 DUP3 ADD MSTORE PUSH6 0x646472657373 PUSH1 0xD0 SHL PUSH1 0x64 DUP3 ADD MSTORE PUSH1 0x84 ADD PUSH1 0x40 MLOAD DUP1 SWAP2 SUB SWAP1 REVERT JUMPDEST PUSH2 0x130 DUP2 PUSH2 0x133 JUMP JUMPDEST POP JUMP JUMPDEST PUSH1 0x0 DUP1 SLOAD PUSH1 0x1 PUSH1 0x1 PUSH1 0xA0 SHL SUB DUP4 DUP2 AND PUSH1 0x1 PUSH1 0x1 PUSH1 0xA0 SHL SUB NOT DUP4 AND DUP2 OR DUP5 SSTORE PUSH1 0x40 MLOAD SWAP2 SWAP1 SWAP3 AND SWAP3 DUP4 SWAP2 PUSH32 0x8BE0079C531659141344CD1FD0A4F28419497F9722A3DAAFE3B4186F6B6457E0 SWAP2 SWAP1 LOG3 POP POP JUMP JUMPDEST PUSH1 0x0 PUSH1 0x20 DUP3 DUP5 SUB SLT ISZERO PUSH2 0x195 JUMPI PUSH1 0x0 DUP1 REVERT JUMPDEST DUP2 CALLDATALOAD PUSH2 0x1A0 DUP2 PUSH2 0x1BD JUMP JUMPDEST SWAP4 SWAP3 POP POP POP JUMP JUMPDEST PUSH4 0x4E487B71 PUSH1 0xE0 SHL PUSH1 0x0 MSTORE PUSH1 0x1 PUSH1 0x4 MSTORE PUSH1 0x24 PUSH1 0x0 REVERT JUMPDEST PUSH1 0x1 PUSH1 0x1 PUSH1 0xA0 SHL SUB DUP2 AND DUP2 EQ PUSH2 0x130 JUMPI PUSH1 0x0 DUP1 REVERT INVALID LOG2 PUSH5 0x6970667358 0x22 SLT KECCAK256 0xCE 0x2F 0xCC DUP15 BLOCKHASH GASLIMIT PUSH5 0xAD965FA715 0xAA NUMBER 0x49 ISZERO DUP12 0xB9 0xB8 0xDE LT SWAP9 PUSH25 0xD68E19ADFDE3E6090F64736F6C634300080700330000000000 "
				},
				"gasEstimates": {
					"creation": {
						"codeDepositCost": "104000",
						"executionCost": "24388",
						"totalCost": "128388"
					},
					"external": {
						"": "101",
						"suicide0(address)": "30026",
						"transferOwnership(address)": "infinite"
					},
					"internal": {
						"_transferOwnership(address)": "25821",
						"setCoinBase(address payable)": "infinite"
					}
				},
				"methodIdentifiers": {
					"suicide0(address)": "14da447f",
					"transferOwnership(address)": "f2fde38b"
				}
			},
			"storageLayout": {
				"storage": [
					{
						"astId": 109,
						"contract": "contracts/base/Base.sol:Base",
						"label": "_owner",
						"offset": 0,
						"slot": "0",
						"type": "t_address"
					},
					{
						"astId": 111,
						"contract": "contracts/base/Base.sol:Base",
						"label": "_coinbase",
						"offset": 0,
						"slot": "1",
						"type": "t_address_payable"
					}
				],
				"types": {
					"t_address": {
						"encoding": "inplace",
						"label": "address",
						"numberOfBytes": "20"
					},
					"t_address_payable": {
						"encoding": "inplace",
						"label": "address payable",
						"numberOfBytes": "20"
					}
				}
			},
			"userdoc": {
				"kind": "user",
				"methods": {},
				"version": 1
			}
		}
	}
}