{
	"contracts/Startup.sol": {
		"Startup": {
			"abi": [
				{
					"inputs": [],
					"stateMutability": "nonpayable",
					"type": "constructor"
				},
				{
					"anonymous": false,
					"inputs": [
						{
							"indexed": true,
							"internalType": "address",
							"name": "previousOwner",
							"type": "address"
						},
						{
							"indexed": true,
							"internalType": "address",
							"name": "newOwner",
							"type": "address"
						}
					],
					"name": "OwnershipTransferred",
					"type": "event"
				},
				{
					"anonymous": false,
					"inputs": [
						{
							"indexed": false,
							"internalType": "string",
							"name": "name",
							"type": "string"
						},
						{
							"components": [
								{
									"internalType": "string",
									"name": "name",
									"type": "string"
								},
								{
									"internalType": "enum Startup.Mode",
									"name": "mode",
									"type": "uint8"
								},
								{
									"internalType": "string[]",
									"name": "hashtag",
									"type": "string[]"
								},
								{
									"internalType": "string",
									"name": "logo",
									"type": "string"
								},
								{
									"internalType": "string",
									"name": "mission",
									"type": "string"
								},
								{
									"internalType": "address",
									"name": "tokenContract",
									"type": "address"
								},
								{
									"components": [
										{
											"internalType": "string",
											"name": "name",
											"type": "string"
										},
										{
											"internalType": "address",
											"name": "walletAddress",
											"type": "address"
										}
									],
									"internalType": "struct Startup.wallet[]",
									"name": "wallets",
									"type": "tuple[]"
								},
								{
									"internalType": "string",
									"name": "overview",
									"type": "string"
								},
								{
									"internalType": "bool",
									"name": "isValidate",
									"type": "bool"
								}
							],
							"indexed": false,
							"internalType": "struct Startup.Profile",
							"name": "startUp",
							"type": "tuple"
						},
						{
							"indexed": false,
							"internalType": "address",
							"name": "msg",
							"type": "address"
						}
					],
					"name": "created",
					"type": "event"
				},
				{
					"stateMutability": "payable",
					"type": "fallback"
				},
				{
					"inputs": [
						{
							"components": [
								{
									"internalType": "string",
									"name": "name",
									"type": "string"
								},
								{
									"internalType": "enum Startup.Mode",
									"name": "mode",
									"type": "uint8"
								},
								{
									"internalType": "string[]",
									"name": "hashtag",
									"type": "string[]"
								},
								{
									"internalType": "string",
									"name": "logo",
									"type": "string"
								},
								{
									"internalType": "string",
									"name": "mission",
									"type": "string"
								},
								{
									"internalType": "address",
									"name": "tokenContract",
									"type": "address"
								},
								{
									"components": [
										{
											"internalType": "string",
											"name": "name",
											"type": "string"
										},
										{
											"internalType": "address",
											"name": "walletAddress",
											"type": "address"
										}
									],
									"internalType": "struct Startup.wallet[]",
									"name": "wallets",
									"type": "tuple[]"
								},
								{
									"internalType": "string",
									"name": "overview",
									"type": "string"
								},
								{
									"internalType": "bool",
									"name": "isValidate",
									"type": "bool"
								}
							],
							"internalType": "struct Startup.Profile",
							"name": "p",
							"type": "tuple"
						}
					],
					"name": "newStartup",
					"outputs": [],
					"stateMutability": "payable",
					"type": "function"
				},
				{
					"inputs": [
						{
							"internalType": "string",
							"name": "",
							"type": "string"
						}
					],
					"name": "startups",
					"outputs": [
						{
							"internalType": "string",
							"name": "name",
							"type": "string"
						},
						{
							"internalType": "enum Startup.Mode",
							"name": "mode",
							"type": "uint8"
						},
						{
							"internalType": "string",
							"name": "logo",
							"type": "string"
						},
						{
							"internalType": "string",
							"name": "mission",
							"type": "string"
						},
						{
							"internalType": "address",
							"name": "tokenContract",
							"type": "address"
						},
						{
							"internalType": "string",
							"name": "overview",
							"type": "string"
						},
						{
							"internalType": "bool",
							"name": "isValidate",
							"type": "bool"
						}
					],
					"stateMutability": "view",
					"type": "function"
				},
				{
					"inputs": [
						{
							"internalType": "address payable",
							"name": "receiver",
							"type": "address"
						}
					],
					"name": "suicide0",
					"outputs": [],
					"stateMutability": "nonpayable",
					"type": "function"
				},
				{
					"inputs": [
						{
							"internalType": "address",
							"name": "newOwner",
							"type": "address"
						}
					],
					"name": "transferOwnership",
					"outputs": [],
					"stateMutability": "nonpayable",
					"type": "function"
				},
				{
					"stateMutability": "payable",
					"type": "receive"
				}
			],
			"devdoc": {
				"kind": "dev",
				"methods": {},
				"version": 1
			},
			"evm": {
				"assembly": "    /* \"contracts/Startup.sol\":109:1809  contract Startup is Base... */\n  mstore(0x40, 0x80)\n    /* \"contracts/Startup.sol\":944:1005  constructor() Base()... */\n  callvalue\n  dup1\n  iszero\n  tag_1\n  jumpi\n  0x00\n  dup1\n  revert\ntag_1:\n  pop\n    /* \"contracts/base/Base.sol\":362:368  _owner */\n  0x00\n    /* \"contracts/base/Base.sol\":362:381  _owner = msg.sender */\n  dup1\n  sload\n  not(sub(shl(0xa0, 0x01), 0x01))\n    /* \"contracts/base/Base.sol\":371:381  msg.sender */\n  caller\n    /* \"contracts/Startup.sol\":979:998  _owner = msg.sender */\n  dup2\n  dup2\n  and\n    /* \"contracts/base/Base.sol\":362:381  _owner = msg.sender */\n  swap2\n  swap1\n  swap3\n  and\n    /* \"contracts/Startup.sol\":979:998  _owner = msg.sender */\n  or\n  or\n  swap1\n  sstore\n    /* \"contracts/Startup.sol\":109:1809  contract Startup is Base... */\n  dataSize(sub_0)\n  dup1\n  dataOffset(sub_0)\n  0x00\n  codecopy\n  0x00\n  return\nstop\n\nsub_0: assembly {\n        /* \"contracts/Startup.sol\":109:1809  contract Startup is Base... */\n      mstore(0x40, 0x80)\n      jumpi(tag_1, lt(calldatasize, 0x04))\n      shr(0xe0, calldataload(0x00))\n      dup1\n      0x14da447f\n      eq\n      tag_3\n      jumpi\n      dup1\n      0xb040aff6\n      eq\n      tag_4\n      jumpi\n      dup1\n      0xf2fde38b\n      eq\n      tag_5\n      jumpi\n      dup1\n      0xf86025c3\n      eq\n      tag_6\n      jumpi\n        /* \"contracts/base/Base.sol\":440:448  revert() */\n      0x00\n      dup1\n      revert\n        /* \"contracts/Startup.sol\":109:1809  contract Startup is Base... */\n    tag_1:\n      jumpi(tag_2, calldatasize)\n        /* \"contracts/base/Base.sol\":498:506  revert() */\n      0x00\n      dup1\n      revert\n        /* \"contracts/Startup.sol\":109:1809  contract Startup is Base... */\n    tag_2:\n        /* \"contracts/base/Base.sol\":440:448  revert() */\n      0x00\n      dup1\n      revert\n        /* \"contracts/base/Base.sol\":1009:1115  function suicide0(address payable receiver)... */\n    tag_3:\n      callvalue\n      dup1\n      iszero\n      tag_11\n      jumpi\n      0x00\n      dup1\n      revert\n    tag_11:\n      pop\n      tag_12\n      tag_13\n      calldatasize\n      0x04\n      tag_23\n      jump\t// in\n    tag_13:\n      tag_15\n      jump\t// in\n    tag_12:\n      stop\n        /* \"contracts/Startup.sol\":1269:1807  function newStartup(Profile calldata p) public payable {... */\n    tag_4:\n      tag_12\n      tag_17\n      calldatasize\n      0x04\n      tag_18\n      jump\t// in\n    tag_17:\n      tag_19\n      jump\t// in\n        /* \"contracts/base/Base.sol\":614:810  function transferOwnership(address newOwner) public virtual isOwner {... */\n    tag_5:\n      callvalue\n      dup1\n      iszero\n      tag_20\n      jumpi\n      0x00\n      dup1\n      revert\n    tag_20:\n      pop\n      tag_12\n      tag_22\n      calldatasize\n      0x04\n      tag_23\n      jump\t// in\n    tag_22:\n      tag_24\n      jump\t// in\n        /* \"contracts/Startup.sol\":895:937  mapping(string => Profile) public startups */\n    tag_6:\n      callvalue\n      dup1\n      iszero\n      tag_25\n      jumpi\n      0x00\n      dup1\n      revert\n    tag_25:\n      pop\n      tag_26\n      tag_27\n      calldatasize\n      0x04\n      tag_28\n      jump\t// in\n    tag_27:\n      tag_29\n      jump\t// in\n    tag_26:\n      mload(0x40)\n      tag_30\n      swap8\n      swap7\n      swap6\n      swap5\n      swap4\n      swap3\n      swap2\n      swap1\n      tag_31\n      jump\t// in\n    tag_30:\n      mload(0x40)\n      dup1\n      swap2\n      sub\n      swap1\n      return\n        /* \"contracts/base/Base.sol\":1009:1115  function suicide0(address payable receiver)... */\n    tag_15:\n        /* \"contracts/base/Base.sol\":303:309  _owner */\n      and(sub(shl(0xa0, 0x01), 0x01), sload(0x00))\n        /* \"contracts/base/Base.sol\":289:299  msg.sender */\n      caller\n        /* \"contracts/base/Base.sol\":289:309  msg.sender == _owner */\n      eq\n        /* \"contracts/base/Base.sol\":282:310  assert(msg.sender == _owner) */\n      tag_34\n      jumpi\n      tag_34\n      tag_35\n      jump\t// in\n    tag_34:\n        /* \"contracts/base/Base.sol\":1099:1107  receiver */\n      dup1\n      sub(shl(0xa0, 0x01), 0x01)\n        /* \"contracts/base/Base.sol\":1086:1108  selfdestruct(receiver) */\n      and\n      selfdestruct\n        /* \"contracts/Startup.sol\":1269:1807  function newStartup(Profile calldata p) public payable {... */\n    tag_19:\n        /* \"contracts/Startup.sol\":1446:1452  p.name */\n      tag_38\n        /* \"contracts/Startup.sol\":1446:1447  p */\n      dup2\n      dup1\n        /* \"contracts/Startup.sol\":1446:1452  p.name */\n      tag_39\n      jump\t// in\n    tag_38:\n        /* \"contracts/Startup.sol\":1440:1465  bytes(p.name).length != 0 */\n      iszero\n      iszero\n      swap1\n      pop\n        /* \"contracts/Startup.sol\":1432:1490  require(bytes(p.name).length != 0, \"name can not be null\") */\n      tag_40\n      jumpi\n      mload(0x40)\n      shl(0xe5, 0x461bcd)\n      dup2\n      mstore\n        /* \"#utility.yul\":9666:9668   */\n      0x20\n        /* \"contracts/Startup.sol\":1432:1490  require(bytes(p.name).length != 0, \"name can not be null\") */\n      0x04\n      dup3\n      add\n        /* \"#utility.yul\":9648:9669   */\n      mstore\n        /* \"#utility.yul\":9705:9707   */\n      0x14\n        /* \"#utility.yul\":9685:9703   */\n      0x24\n      dup3\n      add\n        /* \"#utility.yul\":9678:9708   */\n      mstore\n      shl(0x62, 0x1b985b594818d85b881b9bdd081899481b9d5b1b)\n        /* \"#utility.yul\":9724:9742   */\n      0x44\n      dup3\n      add\n        /* \"#utility.yul\":9717:9767   */\n      mstore\n        /* \"#utility.yul\":9784:9802   */\n      0x64\n      add\n        /* \"contracts/Startup.sol\":1432:1490  require(bytes(p.name).length != 0, \"name can not be null\") */\n    tag_41:\n      mload(0x40)\n      dup1\n      swap2\n      sub\n      swap1\n      revert\n    tag_40:\n        /* \"contracts/Startup.sol\":1532:1540  startups */\n      0x02\n        /* \"contracts/Startup.sol\":1541:1547  p.name */\n      tag_43\n        /* \"contracts/Startup.sol\":1541:1542  p */\n      dup3\n      dup1\n        /* \"contracts/Startup.sol\":1541:1547  p.name */\n      tag_39\n      jump\t// in\n    tag_43:\n        /* \"contracts/Startup.sol\":1532:1548  startups[p.name] */\n      mload(0x40)\n      tag_44\n      swap3\n      swap2\n      swap1\n      tag_45\n      jump\t// in\n    tag_44:\n      swap1\n      dup2\n      mstore\n      mload(0x40)\n      swap1\n      dup2\n      swap1\n      sub\n      0x20\n      add\n      swap1\n      keccak256\n        /* \"contracts/Startup.sol\":1532:1559  startups[p.name].isValidate */\n      0x08\n      add\n      sload\n      0xff\n      and\n        /* \"contracts/Startup.sol\":1531:1559  !startups[p.name].isValidate */\n      iszero\n        /* \"contracts/Startup.sol\":1523:1590  require(!startups[p.name].isValidate, \"startup name has been used\") */\n      tag_46\n      jumpi\n      mload(0x40)\n      shl(0xe5, 0x461bcd)\n      dup2\n      mstore\n        /* \"#utility.yul\":10015:10017   */\n      0x20\n        /* \"contracts/Startup.sol\":1523:1590  require(!startups[p.name].isValidate, \"startup name has been used\") */\n      0x04\n      dup3\n      add\n        /* \"#utility.yul\":9997:10018   */\n      mstore\n        /* \"#utility.yul\":10054:10056   */\n      0x1a\n        /* \"#utility.yul\":10034:10052   */\n      0x24\n      dup3\n      add\n        /* \"#utility.yul\":10027:10057   */\n      mstore\n        /* \"#utility.yul\":10093:10121   */\n      0x73746172747570206e616d6520686173206265656e2075736564000000000000\n        /* \"#utility.yul\":10073:10091   */\n      0x44\n      dup3\n      add\n        /* \"#utility.yul\":10066:10122   */\n      mstore\n        /* \"#utility.yul\":10139:10157   */\n      0x64\n      add\n        /* \"contracts/Startup.sol\":1523:1590  require(!startups[p.name].isValidate, \"startup name has been used\") */\n      tag_41\n        /* \"#utility.yul\":9813:10163   */\n      jump\n        /* \"contracts/Startup.sol\":1523:1590  require(!startups[p.name].isValidate, \"startup name has been used\") */\n    tag_46:\n        /* \"contracts/Startup.sol\":1754:1755  p */\n      dup1\n        /* \"contracts/Startup.sol\":1735:1743  startups */\n      0x02\n        /* \"contracts/Startup.sol\":1744:1750  p.name */\n      tag_49\n        /* \"contracts/Startup.sol\":1754:1755  p */\n      dup3\n      dup1\n        /* \"contracts/Startup.sol\":1744:1750  p.name */\n      tag_39\n      jump\t// in\n    tag_49:\n        /* \"contracts/Startup.sol\":1735:1751  startups[p.name] */\n      mload(0x40)\n      tag_50\n      swap3\n      swap2\n      swap1\n      tag_45\n      jump\t// in\n    tag_50:\n      swap1\n      dup2\n      mstore\n      mload(0x40)\n      swap1\n      dup2\n      swap1\n      sub\n      0x20\n      add\n      swap1\n      keccak256\n        /* \"contracts/Startup.sol\":1735:1755  startups[p.name] = p */\n      tag_51\n      dup3\n        /* \"contracts/Startup.sol\":1735:1751  startups[p.name] */\n      dup3\n        /* \"contracts/Startup.sol\":1735:1755  startups[p.name] = p */\n      tag_52\n      jump\t// in\n    tag_51:\n      pop\n        /* \"contracts/Startup.sol\":1770:1800  created(p.name, p, msg.sender) */\n      0x73f46948d120a56e9fea7152c9545282fb4a4bb4d648c110ff98352525745595\n      swap1\n      pop\n        /* \"contracts/Startup.sol\":1778:1784  p.name */\n      tag_53\n        /* \"contracts/Startup.sol\":1778:1779  p */\n      dup3\n      dup1\n        /* \"contracts/Startup.sol\":1778:1784  p.name */\n      tag_39\n      jump\t// in\n    tag_53:\n        /* \"contracts/Startup.sol\":1786:1787  p */\n      dup4\n        /* \"contracts/Startup.sol\":1789:1799  msg.sender */\n      caller\n        /* \"contracts/Startup.sol\":1770:1800  created(p.name, p, msg.sender) */\n      mload(0x40)\n      tag_54\n      swap5\n      swap4\n      swap3\n      swap2\n      swap1\n      tag_55\n      jump\t// in\n    tag_54:\n      mload(0x40)\n      dup1\n      swap2\n      sub\n      swap1\n      log1\n        /* \"contracts/Startup.sol\":1269:1807  function newStartup(Profile calldata p) public payable {... */\n      pop\n      jump\t// out\n        /* \"contracts/base/Base.sol\":614:810  function transferOwnership(address newOwner) public virtual isOwner {... */\n    tag_24:\n        /* \"contracts/base/Base.sol\":303:309  _owner */\n      and(sub(shl(0xa0, 0x01), 0x01), sload(0x00))\n        /* \"contracts/base/Base.sol\":289:299  msg.sender */\n      caller\n        /* \"contracts/base/Base.sol\":289:309  msg.sender == _owner */\n      eq\n        /* \"contracts/base/Base.sol\":282:310  assert(msg.sender == _owner) */\n      tag_58\n      jumpi\n      tag_58\n      tag_35\n      jump\t// in\n    tag_58:\n      sub(shl(0xa0, 0x01), 0x01)\n        /* \"contracts/base/Base.sol\":700:722  newOwner != address(0) */\n      dup2\n      and\n        /* \"contracts/base/Base.sol\":692:765  require(newOwner != address(0), \"Ownable: new owner is the zero address\") */\n      tag_60\n      jumpi\n      mload(0x40)\n      shl(0xe5, 0x461bcd)\n      dup2\n      mstore\n        /* \"#utility.yul\":9259:9261   */\n      0x20\n        /* \"contracts/base/Base.sol\":692:765  require(newOwner != address(0), \"Ownable: new owner is the zero address\") */\n      0x04\n      dup3\n      add\n        /* \"#utility.yul\":9241:9262   */\n      mstore\n        /* \"#utility.yul\":9298:9300   */\n      0x26\n        /* \"#utility.yul\":9278:9296   */\n      0x24\n      dup3\n      add\n        /* \"#utility.yul\":9271:9301   */\n      mstore\n        /* \"#utility.yul\":9337:9371   */\n      0x4f776e61626c653a206e6577206f776e657220697320746865207a65726f2061\n        /* \"#utility.yul\":9317:9335   */\n      0x44\n      dup3\n      add\n        /* \"#utility.yul\":9310:9372   */\n      mstore\n      shl(0xd0, 0x646472657373)\n        /* \"#utility.yul\":9388:9406   */\n      0x64\n      dup3\n      add\n        /* \"#utility.yul\":9381:9417   */\n      mstore\n        /* \"#utility.yul\":9434:9453   */\n      0x84\n      add\n        /* \"contracts/base/Base.sol\":692:765  require(newOwner != address(0), \"Ownable: new owner is the zero address\") */\n      tag_41\n        /* \"#utility.yul\":9057:9459   */\n      jump\n        /* \"contracts/base/Base.sol\":692:765  require(newOwner != address(0), \"Ownable: new owner is the zero address\") */\n    tag_60:\n        /* \"contracts/base/Base.sol\":775:803  _transferOwnership(newOwner) */\n      tag_63\n        /* \"contracts/base/Base.sol\":794:802  newOwner */\n      dup2\n        /* \"contracts/base/Base.sol\":775:793  _transferOwnership */\n      tag_64\n        /* \"contracts/base/Base.sol\":775:803  _transferOwnership(newOwner) */\n      jump\t// in\n    tag_63:\n        /* \"contracts/base/Base.sol\":614:810  function transferOwnership(address newOwner) public virtual isOwner {... */\n      pop\n      jump\t// out\n        /* \"contracts/Startup.sol\":895:937  mapping(string => Profile) public startups */\n    tag_29:\n      dup1\n      mload\n      0x20\n      dup2\n      dup4\n      add\n      dup2\n      add\n      dup1\n      mload\n      0x02\n      dup3\n      mstore\n      swap3\n      dup3\n      add\n      swap2\n      swap1\n      swap4\n      add\n      keccak256\n      swap2\n      mstore\n      dup1\n      sload\n      dup2\n      swap1\n      tag_65\n      swap1\n      tag_66\n      jump\t// in\n    tag_65:\n      dup1\n      0x1f\n      add\n      0x20\n      dup1\n      swap2\n      div\n      mul\n      0x20\n      add\n      mload(0x40)\n      swap1\n      dup2\n      add\n      0x40\n      mstore\n      dup1\n      swap3\n      swap2\n      swap1\n      dup2\n      dup2\n      mstore\n      0x20\n      add\n      dup3\n      dup1\n      sload\n      tag_67\n      swap1\n      tag_66\n      jump\t// in\n    tag_67:\n      dup1\n      iszero\n      tag_68\n      jumpi\n      dup1\n      0x1f\n      lt\n      tag_69\n      jumpi\n      0x0100\n      dup1\n      dup4\n      sload\n      div\n      mul\n      dup4\n      mstore\n      swap2\n      0x20\n      add\n      swap2\n      jump(tag_68)\n    tag_69:\n      dup3\n      add\n      swap2\n      swap1\n      0x00\n      mstore\n      keccak256(0x00, 0x20)\n      swap1\n    tag_70:\n      dup2\n      sload\n      dup2\n      mstore\n      swap1\n      0x01\n      add\n      swap1\n      0x20\n      add\n      dup1\n      dup4\n      gt\n      tag_70\n      jumpi\n      dup3\n      swap1\n      sub\n      0x1f\n      and\n      dup3\n      add\n      swap2\n    tag_68:\n      pop\n      pop\n      pop\n      0x01\n      dup5\n      add\n      sload\n      0x03\n      dup6\n      add\n      dup1\n      sload\n      swap5\n      swap6\n      0xff\n      swap1\n      swap3\n      and\n      swap5\n      swap2\n      swap4\n      pop\n      swap2\n      pop\n      tag_71\n      swap1\n      tag_66\n      jump\t// in\n    tag_71:\n      dup1\n      0x1f\n      add\n      0x20\n      dup1\n      swap2\n      div\n      mul\n      0x20\n      add\n      mload(0x40)\n      swap1\n      dup2\n      add\n      0x40\n      mstore\n      dup1\n      swap3\n      swap2\n      swap1\n      dup2\n      dup2\n      mstore\n      0x20\n      add\n      dup3\n      dup1\n      sload\n      tag_72\n      swap1\n      tag_66\n      jump\t// in\n    tag_72:\n      dup1\n      iszero\n      tag_73\n      jumpi\n      dup1\n      0x1f\n      lt\n      tag_74\n      jumpi\n      0x0100\n      dup1\n      dup4\n      sload\n      div\n      mul\n      dup4\n      mstore\n      swap2\n      0x20\n      add\n      swap2\n      jump(tag_73)\n    tag_74:\n      dup3\n      add\n      swap2\n      swap1\n      0x00\n      mstore\n      keccak256(0x00, 0x20)\n      swap1\n    tag_75:\n      dup2\n      sload\n      dup2\n      mstore\n      swap1\n      0x01\n      add\n      swap1\n      0x20\n      add\n      dup1\n      dup4\n      gt\n      tag_75\n      jumpi\n      dup3\n      swap1\n      sub\n      0x1f\n      and\n      dup3\n      add\n      swap2\n    tag_73:\n      pop\n      pop\n      pop\n      pop\n      pop\n      swap1\n      dup1\n      0x04\n      add\n      dup1\n      sload\n      tag_76\n      swap1\n      tag_66\n      jump\t// in\n    tag_76:\n      dup1\n      0x1f\n      add\n      0x20\n      dup1\n      swap2\n      div\n      mul\n      0x20\n      add\n      mload(0x40)\n      swap1\n      dup2\n      add\n      0x40\n      mstore\n      dup1\n      swap3\n      swap2\n      swap1\n      dup2\n      dup2\n      mstore\n      0x20\n      add\n      dup3\n      dup1\n      sload\n      tag_77\n      swap1\n      tag_66\n      jump\t// in\n    tag_77:\n      dup1\n      iszero\n      tag_78\n      jumpi\n      dup1\n      0x1f\n      lt\n      tag_79\n      jumpi\n      0x0100\n      dup1\n      dup4\n      sload\n      div\n      mul\n      dup4\n      mstore\n      swap2\n      0x20\n      add\n      swap2\n      jump(tag_78)\n    tag_79:\n      dup3\n      add\n      swap2\n      swap1\n      0x00\n      mstore\n      keccak256(0x00, 0x20)\n      swap1\n    tag_80:\n      dup2\n      sload\n      dup2\n      mstore\n      swap1\n      0x01\n      add\n      swap1\n      0x20\n      add\n      dup1\n      dup4\n      gt\n      tag_80\n      jumpi\n      dup3\n      swap1\n      sub\n      0x1f\n      and\n      dup3\n      add\n      swap2\n    tag_78:\n      pop\n      pop\n      pop\n      0x05\n      dup5\n      add\n      sload\n      0x07\n      dup6\n      add\n      dup1\n      sload\n      swap5\n      swap6\n      sub(shl(0xa0, 0x01), 0x01)\n      swap1\n      swap3\n      and\n      swap5\n      swap2\n      swap4\n      pop\n      swap2\n      pop\n      tag_81\n      swap1\n      tag_66\n      jump\t// in\n    tag_81:\n      dup1\n      0x1f\n      add\n      0x20\n      dup1\n      swap2\n      div\n      mul\n      0x20\n      add\n      mload(0x40)\n      swap1\n      dup2\n      add\n      0x40\n      mstore\n      dup1\n      swap3\n      swap2\n      swap1\n      dup2\n      dup2\n      mstore\n      0x20\n      add\n      dup3\n      dup1\n      sload\n      tag_82\n      swap1\n      tag_66\n      jump\t// in\n    tag_82:\n      dup1\n      iszero\n      tag_83\n      jumpi\n      dup1\n      0x1f\n      lt\n      tag_84\n      jumpi\n      0x0100\n      dup1\n      dup4\n      sload\n      div\n      mul\n      dup4\n      mstore\n      swap2\n      0x20\n      add\n      swap2\n      jump(tag_83)\n    tag_84:\n      dup3\n      add\n      swap2\n      swap1\n      0x00\n      mstore\n      keccak256(0x00, 0x20)\n      swap1\n    tag_85:\n      dup2\n      sload\n      dup2\n      mstore\n      swap1\n      0x01\n      add\n      swap1\n      0x20\n      add\n      dup1\n      dup4\n      gt\n      tag_85\n      jumpi\n      dup3\n      swap1\n      sub\n      0x1f\n      and\n      dup3\n      add\n      swap2\n    tag_83:\n      pop\n      pop\n      pop\n      0x08\n      swap1\n      swap4\n      add\n      sload\n      swap2\n      swap3\n      pop\n      pop\n      0xff\n      and\n      dup8\n      jump\t// out\n        /* \"contracts/base/Base.sol\":816:1003  function _transferOwnership(address newOwner) internal virtual {... */\n    tag_64:\n        /* \"contracts/base/Base.sol\":889:905  address oldOwner */\n      0x00\n        /* \"contracts/base/Base.sol\":908:914  _owner */\n      dup1\n      sload\n      sub(shl(0xa0, 0x01), 0x01)\n        /* \"contracts/base/Base.sol\":924:941  _owner = newOwner */\n      dup4\n      dup2\n      and\n      not(sub(shl(0xa0, 0x01), 0x01))\n      dup4\n      and\n      dup2\n      or\n      dup5\n      sstore\n        /* \"contracts/base/Base.sol\":956:996  OwnershipTransferred(oldOwner, newOwner) */\n      mload(0x40)\n        /* \"contracts/base/Base.sol\":908:914  _owner */\n      swap2\n      swap1\n      swap3\n      and\n      swap3\n      dup4\n      swap2\n        /* \"contracts/base/Base.sol\":956:996  OwnershipTransferred(oldOwner, newOwner) */\n      0x8be0079c531659141344cd1fd0a4f28419497f9722a3daafe3b4186f6b6457e0\n      swap2\n        /* \"contracts/base/Base.sol\":889:905  address oldOwner */\n      swap1\n        /* \"contracts/base/Base.sol\":956:996  OwnershipTransferred(oldOwner, newOwner) */\n      log3\n        /* \"contracts/base/Base.sol\":879:1003  {... */\n      pop\n        /* \"contracts/base/Base.sol\":816:1003  function _transferOwnership(address newOwner) internal virtual {... */\n      pop\n      jump\t// out\n        /* \"#utility.yul\":14:148   */\n    tag_88:\n        /* \"#utility.yul\":82:102   */\n      dup1\n      calldataload\n        /* \"#utility.yul\":111:142   */\n      tag_90\n        /* \"#utility.yul\":82:102   */\n      dup2\n        /* \"#utility.yul\":111:142   */\n      tag_91\n      jump\t// in\n    tag_90:\n        /* \"#utility.yul\":14:148   */\n      swap2\n      swap1\n      pop\n      jump\t// out\n        /* \"#utility.yul\":153:281   */\n    tag_92:\n        /* \"#utility.yul\":218:238   */\n      dup1\n      calldataload\n        /* \"#utility.yul\":247:275   */\n      tag_90\n        /* \"#utility.yul\":218:238   */\n      dup2\n        /* \"#utility.yul\":247:275   */\n      tag_95\n      jump\t// in\n        /* \"#utility.yul\":286:424   */\n    tag_96:\n        /* \"#utility.yul\":356:376   */\n      dup1\n      calldataload\n        /* \"#utility.yul\":385:418   */\n      tag_90\n        /* \"#utility.yul\":356:376   */\n      dup2\n        /* \"#utility.yul\":385:418   */\n      tag_99\n      jump\t// in\n        /* \"#utility.yul\":429:676   */\n    tag_23:\n        /* \"#utility.yul\":488:494   */\n      0x00\n        /* \"#utility.yul\":541:543   */\n      0x20\n        /* \"#utility.yul\":529:538   */\n      dup3\n        /* \"#utility.yul\":520:527   */\n      dup5\n        /* \"#utility.yul\":516:539   */\n      sub\n        /* \"#utility.yul\":512:544   */\n      slt\n        /* \"#utility.yul\":509:561   */\n      iszero\n      tag_101\n      jumpi\n        /* \"#utility.yul\":557:558   */\n      0x00\n        /* \"#utility.yul\":554:555   */\n      dup1\n        /* \"#utility.yul\":547:559   */\n      revert\n        /* \"#utility.yul\":509:561   */\n    tag_101:\n        /* \"#utility.yul\":596:605   */\n      dup2\n        /* \"#utility.yul\":583:606   */\n      calldataload\n        /* \"#utility.yul\":615:646   */\n      tag_102\n        /* \"#utility.yul\":640:645   */\n      dup2\n        /* \"#utility.yul\":615:646   */\n      tag_91\n      jump\t// in\n    tag_102:\n        /* \"#utility.yul\":665:670   */\n      swap4\n        /* \"#utility.yul\":429:676   */\n      swap3\n      pop\n      pop\n      pop\n      jump\t// out\n        /* \"#utility.yul\":941:1863   */\n    tag_28:\n        /* \"#utility.yul\":1010:1016   */\n      0x00\n        /* \"#utility.yul\":1063:1065   */\n      0x20\n        /* \"#utility.yul\":1051:1060   */\n      dup3\n        /* \"#utility.yul\":1042:1049   */\n      dup5\n        /* \"#utility.yul\":1038:1061   */\n      sub\n        /* \"#utility.yul\":1034:1066   */\n      slt\n        /* \"#utility.yul\":1031:1083   */\n      iszero\n      tag_107\n      jumpi\n        /* \"#utility.yul\":1079:1080   */\n      0x00\n        /* \"#utility.yul\":1076:1077   */\n      dup1\n        /* \"#utility.yul\":1069:1081   */\n      revert\n        /* \"#utility.yul\":1031:1083   */\n    tag_107:\n        /* \"#utility.yul\":1119:1128   */\n      dup2\n        /* \"#utility.yul\":1106:1129   */\n      calldataload\n        /* \"#utility.yul\":1148:1166   */\n      0xffffffffffffffff\n        /* \"#utility.yul\":1189:1191   */\n      dup1\n        /* \"#utility.yul\":1181:1187   */\n      dup3\n        /* \"#utility.yul\":1178:1192   */\n      gt\n        /* \"#utility.yul\":1175:1209   */\n      iszero\n      tag_108\n      jumpi\n        /* \"#utility.yul\":1205:1206   */\n      0x00\n        /* \"#utility.yul\":1202:1203   */\n      dup1\n        /* \"#utility.yul\":1195:1207   */\n      revert\n        /* \"#utility.yul\":1175:1209   */\n    tag_108:\n        /* \"#utility.yul\":1243:1249   */\n      dup2\n        /* \"#utility.yul\":1232:1241   */\n      dup5\n        /* \"#utility.yul\":1228:1250   */\n      add\n        /* \"#utility.yul\":1218:1250   */\n      swap2\n      pop\n        /* \"#utility.yul\":1288:1295   */\n      dup5\n        /* \"#utility.yul\":1281:1285   */\n      0x1f\n        /* \"#utility.yul\":1277:1279   */\n      dup4\n        /* \"#utility.yul\":1273:1286   */\n      add\n        /* \"#utility.yul\":1269:1296   */\n      slt\n        /* \"#utility.yul\":1259:1314   */\n      tag_109\n      jumpi\n        /* \"#utility.yul\":1310:1311   */\n      0x00\n        /* \"#utility.yul\":1307:1308   */\n      dup1\n        /* \"#utility.yul\":1300:1312   */\n      revert\n        /* \"#utility.yul\":1259:1314   */\n    tag_109:\n        /* \"#utility.yul\":1346:1348   */\n      dup2\n        /* \"#utility.yul\":1333:1349   */\n      calldataload\n        /* \"#utility.yul\":1368:1370   */\n      dup2\n        /* \"#utility.yul\":1364:1366   */\n      dup2\n        /* \"#utility.yul\":1361:1371   */\n      gt\n        /* \"#utility.yul\":1358:1394   */\n      iszero\n      tag_111\n      jumpi\n        /* \"#utility.yul\":1374:1392   */\n      tag_111\n      tag_112\n      jump\t// in\n    tag_111:\n        /* \"#utility.yul\":1449:1451   */\n      0x40\n        /* \"#utility.yul\":1443:1452   */\n      mload\n        /* \"#utility.yul\":1417:1419   */\n      0x1f\n        /* \"#utility.yul\":1503:1516   */\n      dup3\n      add\n      not(0x1f)\n        /* \"#utility.yul\":1499:1521   */\n      swap1\n      dup2\n      and\n        /* \"#utility.yul\":1523:1525   */\n      0x3f\n        /* \"#utility.yul\":1495:1526   */\n      add\n        /* \"#utility.yul\":1491:1531   */\n      and\n        /* \"#utility.yul\":1479:1532   */\n      dup2\n      add\n      swap1\n        /* \"#utility.yul\":1547:1565   */\n      dup4\n      dup3\n      gt\n        /* \"#utility.yul\":1567:1589   */\n      dup2\n      dup4\n      lt\n        /* \"#utility.yul\":1544:1590   */\n      or\n        /* \"#utility.yul\":1541:1613   */\n      iszero\n      tag_114\n      jumpi\n        /* \"#utility.yul\":1593:1611   */\n      tag_114\n      tag_112\n      jump\t// in\n    tag_114:\n        /* \"#utility.yul\":1633:1643   */\n      dup2\n        /* \"#utility.yul\":1629:1631   */\n      0x40\n        /* \"#utility.yul\":1622:1644   */\n      mstore\n        /* \"#utility.yul\":1668:1670   */\n      dup3\n        /* \"#utility.yul\":1660:1666   */\n      dup2\n        /* \"#utility.yul\":1653:1671   */\n      mstore\n        /* \"#utility.yul\":1708:1715   */\n      dup8\n        /* \"#utility.yul\":1703:1705   */\n      0x20\n        /* \"#utility.yul\":1698:1700   */\n      dup5\n        /* \"#utility.yul\":1694:1696   */\n      dup8\n        /* \"#utility.yul\":1690:1701   */\n      add\n        /* \"#utility.yul\":1686:1706   */\n      add\n        /* \"#utility.yul\":1683:1716   */\n      gt\n        /* \"#utility.yul\":1680:1733   */\n      iszero\n      tag_115\n      jumpi\n        /* \"#utility.yul\":1729:1730   */\n      0x00\n        /* \"#utility.yul\":1726:1727   */\n      dup1\n        /* \"#utility.yul\":1719:1731   */\n      revert\n        /* \"#utility.yul\":1680:1733   */\n    tag_115:\n        /* \"#utility.yul\":1785:1787   */\n      dup3\n        /* \"#utility.yul\":1780:1782   */\n      0x20\n        /* \"#utility.yul\":1776:1778   */\n      dup7\n        /* \"#utility.yul\":1772:1783   */\n      add\n        /* \"#utility.yul\":1767:1769   */\n      0x20\n        /* \"#utility.yul\":1759:1765   */\n      dup4\n        /* \"#utility.yul\":1755:1770   */\n      add\n        /* \"#utility.yul\":1742:1788   */\n      calldatacopy\n        /* \"#utility.yul\":1830:1831   */\n      0x00\n        /* \"#utility.yul\":1808:1823   */\n      swap3\n      dup2\n      add\n        /* \"#utility.yul\":1825:1827   */\n      0x20\n        /* \"#utility.yul\":1804:1828   */\n      add\n        /* \"#utility.yul\":1797:1832   */\n      swap3\n      swap1\n      swap3\n      mstore\n      pop\n        /* \"#utility.yul\":1812:1818   */\n      swap6\n        /* \"#utility.yul\":941:1863   */\n      swap5\n      pop\n      pop\n      pop\n      pop\n      pop\n      jump\t// out\n        /* \"#utility.yul\":1868:2253   */\n    tag_18:\n        /* \"#utility.yul\":1952:1958   */\n      0x00\n        /* \"#utility.yul\":2005:2007   */\n      0x20\n        /* \"#utility.yul\":1993:2002   */\n      dup3\n        /* \"#utility.yul\":1984:1991   */\n      dup5\n        /* \"#utility.yul\":1980:2003   */\n      sub\n        /* \"#utility.yul\":1976:2008   */\n      slt\n        /* \"#utility.yul\":1973:2025   */\n      iszero\n      tag_117\n      jumpi\n        /* \"#utility.yul\":2021:2022   */\n      0x00\n        /* \"#utility.yul\":2018:2019   */\n      dup1\n        /* \"#utility.yul\":2011:2023   */\n      revert\n        /* \"#utility.yul\":1973:2025   */\n    tag_117:\n        /* \"#utility.yul\":2061:2070   */\n      dup2\n        /* \"#utility.yul\":2048:2071   */\n      calldataload\n        /* \"#utility.yul\":2094:2112   */\n      0xffffffffffffffff\n        /* \"#utility.yul\":2086:2092   */\n      dup2\n        /* \"#utility.yul\":2083:2113   */\n      gt\n        /* \"#utility.yul\":2080:2130   */\n      iszero\n      tag_118\n      jumpi\n        /* \"#utility.yul\":2126:2127   */\n      0x00\n        /* \"#utility.yul\":2123:2124   */\n      dup1\n        /* \"#utility.yul\":2116:2128   */\n      revert\n        /* \"#utility.yul\":2080:2130   */\n    tag_118:\n        /* \"#utility.yul\":2149:2171   */\n      dup3\n      add\n        /* \"#utility.yul\":2205:2208   */\n      0x0120\n        /* \"#utility.yul\":2187:2203   */\n      dup2\n      dup6\n      sub\n        /* \"#utility.yul\":2183:2209   */\n      slt\n        /* \"#utility.yul\":2180:2226   */\n      iszero\n      tag_102\n      jumpi\n        /* \"#utility.yul\":2222:2223   */\n      0x00\n        /* \"#utility.yul\":2219:2220   */\n      dup1\n        /* \"#utility.yul\":2212:2224   */\n      revert\n        /* \"#utility.yul\":2367:3060   */\n    tag_122:\n        /* \"#utility.yul\":2445:2448   */\n      0x00\n        /* \"#utility.yul\":2476:2479   */\n      dup4\n        /* \"#utility.yul\":2500:2506   */\n      dup4\n        /* \"#utility.yul\":2495:2498   */\n      dup6\n        /* \"#utility.yul\":2488:2507   */\n      mstore\n        /* \"#utility.yul\":2526:2530   */\n      0x20\n        /* \"#utility.yul\":2555:2557   */\n      dup1\n        /* \"#utility.yul\":2550:2553   */\n      dup7\n        /* \"#utility.yul\":2546:2558   */\n      add\n        /* \"#utility.yul\":2539:2558   */\n      swap6\n      pop\n        /* \"#utility.yul\":2611:2613   */\n      dup1\n        /* \"#utility.yul\":2601:2607   */\n      dup6\n        /* \"#utility.yul\":2598:2599   */\n      0x05\n        /* \"#utility.yul\":2594:2608   */\n      shl\n        /* \"#utility.yul\":2587:2592   */\n      dup4\n        /* \"#utility.yul\":2583:2609   */\n      add\n        /* \"#utility.yul\":2579:2614   */\n      add\n        /* \"#utility.yul\":2637:2642   */\n      dup5\n        /* \"#utility.yul\":2660:2661   */\n      0x00\n        /* \"#utility.yul\":2670:3034   */\n    tag_124:\n        /* \"#utility.yul\":2684:2690   */\n      dup8\n        /* \"#utility.yul\":2681:2682   */\n      dup2\n        /* \"#utility.yul\":2678:2691   */\n      lt\n        /* \"#utility.yul\":2670:3034   */\n      iszero\n      tag_126\n      jumpi\n        /* \"#utility.yul\":2749:2765   */\n      dup5\n      dup4\n      sub\n      not(0x1f)\n        /* \"#utility.yul\":2745:2775   */\n      add\n        /* \"#utility.yul\":2733:2776   */\n      dup10\n      mstore\n        /* \"#utility.yul\":2825:2871   */\n      tag_127\n        /* \"#utility.yul\":2864:2870   */\n      dup3\n        /* \"#utility.yul\":2857:2862   */\n      dup9\n        /* \"#utility.yul\":2825:2871   */\n      tag_128\n      jump\t// in\n    tag_127:\n        /* \"#utility.yul\":2892:2954   */\n      tag_129\n        /* \"#utility.yul\":2949:2953   */\n      dup6\n        /* \"#utility.yul\":2934:2947   */\n      dup3\n        /* \"#utility.yul\":2919:2932   */\n      dup5\n        /* \"#utility.yul\":2892:2954   */\n      tag_130\n      jump\t// in\n    tag_129:\n        /* \"#utility.yul\":3012:3024   */\n      swap11\n      dup7\n      add\n      swap11\n        /* \"#utility.yul\":2884:2954   */\n      swap5\n      pop\n      pop\n      pop\n        /* \"#utility.yul\":2977:2992   */\n      swap1\n      dup4\n      add\n      swap1\n        /* \"#utility.yul\":2706:2707   */\n      0x01\n        /* \"#utility.yul\":2699:2708   */\n      add\n        /* \"#utility.yul\":2670:3034   */\n      jump(tag_124)\n    tag_126:\n      pop\n        /* \"#utility.yul\":3050:3054   */\n      swap1\n      swap8\n        /* \"#utility.yul\":2367:3060   */\n      swap7\n      pop\n      pop\n      pop\n      pop\n      pop\n      pop\n      pop\n      jump\t// out\n        /* \"#utility.yul\":3065:4285   */\n    tag_131:\n        /* \"#utility.yul\":3150:3153   */\n      0x00\n        /* \"#utility.yul\":3181:3184   */\n      dup4\n        /* \"#utility.yul\":3205:3211   */\n      dup4\n        /* \"#utility.yul\":3200:3203   */\n      dup6\n        /* \"#utility.yul\":3193:3212   */\n      mstore\n        /* \"#utility.yul\":3231:3235   */\n      0x20\n        /* \"#utility.yul\":3260:3262   */\n      dup1\n        /* \"#utility.yul\":3255:3258   */\n      dup7\n        /* \"#utility.yul\":3251:3263   */\n      add\n        /* \"#utility.yul\":3244:3263   */\n      swap6\n      pop\n        /* \"#utility.yul\":3316:3318   */\n      dup1\n        /* \"#utility.yul\":3306:3312   */\n      dup6\n        /* \"#utility.yul\":3303:3304   */\n      0x05\n        /* \"#utility.yul\":3299:3313   */\n      shl\n        /* \"#utility.yul\":3292:3297   */\n      dup4\n        /* \"#utility.yul\":3288:3314   */\n      add\n        /* \"#utility.yul\":3284:3319   */\n      add\n        /* \"#utility.yul\":3342:3347   */\n      dup5\n        /* \"#utility.yul\":3365:3366   */\n      0x00\n        /* \"#utility.yul\":3386:3387   */\n      dup1\n        /* \"#utility.yul\":3396:4259   */\n    tag_133:\n        /* \"#utility.yul\":3412:3418   */\n      dup9\n        /* \"#utility.yul\":3407:3410   */\n      dup2\n        /* \"#utility.yul\":3404:3419   */\n      lt\n        /* \"#utility.yul\":3396:4259   */\n      iszero\n      tag_135\n      jumpi\n        /* \"#utility.yul\":3481:3497   */\n      dup6\n      dup5\n      sub\n      not(0x1f)\n        /* \"#utility.yul\":3477:3507   */\n      add\n        /* \"#utility.yul\":3465:3508   */\n      dup11\n      mstore\n        /* \"#utility.yul\":3547:3567   */\n      dup3\n      calldataload\n        /* \"#utility.yul\":3622:3636   */\n      calldatasize\n        /* \"#utility.yul\":3618:3644   */\n      dup10\n      swap1\n      sub\n      not(0x3e)\n        /* \"#utility.yul\":3614:3654   */\n      add\n        /* \"#utility.yul\":3590:3655   */\n      dup2\n      slt\n        /* \"#utility.yul\":3580:3673   */\n      tag_136\n      jumpi\n        /* \"#utility.yul\":3669:3670   */\n      dup3\n        /* \"#utility.yul\":3666:3667   */\n      dup4\n        /* \"#utility.yul\":3659:3671   */\n      revert\n        /* \"#utility.yul\":3580:3673   */\n    tag_136:\n        /* \"#utility.yul\":3701:3731   */\n      dup9\n      add\n        /* \"#utility.yul\":3754:3758   */\n      0x40\n        /* \"#utility.yul\":3805:3854   */\n      tag_137\n        /* \"#utility.yul\":3701:3731   */\n      dup3\n      dup1\n        /* \"#utility.yul\":3805:3854   */\n      tag_128\n      jump\t// in\n    tag_137:\n        /* \"#utility.yul\":3880:3882   */\n      dup3\n        /* \"#utility.yul\":3874:3878   */\n      dup9\n        /* \"#utility.yul\":3867:3883   */\n      mstore\n        /* \"#utility.yul\":3910:3979   */\n      tag_138\n        /* \"#utility.yul\":3975:3977   */\n      dup4\n        /* \"#utility.yul\":3969:3973   */\n      dup10\n        /* \"#utility.yul\":3965:3978   */\n      add\n        /* \"#utility.yul\":3951:3963   */\n      dup3\n        /* \"#utility.yul\":3937:3949   */\n      dup5\n        /* \"#utility.yul\":3910:3979   */\n      tag_130\n      jump\t// in\n    tag_138:\n        /* \"#utility.yul\":3896:3979   */\n      swap3\n      pop\n      pop\n      pop\n        /* \"#utility.yul\":4033:4035   */\n      dup7\n        /* \"#utility.yul\":4024:4031   */\n      dup3\n        /* \"#utility.yul\":4020:4036   */\n      add\n        /* \"#utility.yul\":4007:4037   */\n      calldataload\n        /* \"#utility.yul\":3992:4037   */\n      swap2\n      pop\n        /* \"#utility.yul\":4050:4083   */\n      tag_139\n        /* \"#utility.yul\":4075:4082   */\n      dup3\n        /* \"#utility.yul\":4050:4083   */\n      tag_91\n      jump\t// in\n    tag_139:\n      sub(shl(0xa0, 0x01), 0x01)\n        /* \"#utility.yul\":4118:4151   */\n      swap2\n      swap1\n      swap2\n      and\n        /* \"#utility.yul\":4103:4116   */\n      swap5\n      dup7\n      add\n        /* \"#utility.yul\":4096:4152   */\n      swap5\n      swap1\n      swap5\n      mstore\n        /* \"#utility.yul\":4237:4249   */\n      swap9\n      dup5\n      add\n      swap9\n        /* \"#utility.yul\":4202:4217   */\n      swap2\n      dup5\n      add\n      swap2\n        /* \"#utility.yul\":4148:4149   */\n      0x01\n        /* \"#utility.yul\":3429:3440   */\n      add\n        /* \"#utility.yul\":3396:4259   */\n      jump(tag_133)\n    tag_135:\n      pop\n        /* \"#utility.yul\":4275:4279   */\n      swap2\n      swap9\n        /* \"#utility.yul\":3065:4285   */\n      swap8\n      pop\n      pop\n      pop\n      pop\n      pop\n      pop\n      pop\n      pop\n      jump\t// out\n        /* \"#utility.yul\":4386:4618   */\n    tag_142:\n        /* \"#utility.yul\":4462:4463   */\n      0x05\n        /* \"#utility.yul\":4455:4460   */\n      dup2\n        /* \"#utility.yul\":4452:4464   */\n      lt\n        /* \"#utility.yul\":4442:4585   */\n      tag_144\n      jumpi\n        /* \"#utility.yul\":4507:4517   */\n      0x4e487b71\n        /* \"#utility.yul\":4502:4505   */\n      0xe0\n        /* \"#utility.yul\":4498:4518   */\n      shl\n        /* \"#utility.yul\":4495:4496   */\n      0x00\n        /* \"#utility.yul\":4488:4519   */\n      mstore\n        /* \"#utility.yul\":4542:4546   */\n      0x21\n        /* \"#utility.yul\":4539:4540   */\n      0x04\n        /* \"#utility.yul\":4532:4547   */\n      mstore\n        /* \"#utility.yul\":4570:4574   */\n      0x24\n        /* \"#utility.yul\":4567:4568   */\n      0x00\n        /* \"#utility.yul\":4560:4575   */\n      revert\n        /* \"#utility.yul\":4442:4585   */\n    tag_144:\n        /* \"#utility.yul\":4594:4612   */\n      swap1\n      mstore\n        /* \"#utility.yul\":4386:4618   */\n      jump\t// out\n        /* \"#utility.yul\":4623:4890   */\n    tag_130:\n        /* \"#utility.yul\":4712:4718   */\n      dup2\n        /* \"#utility.yul\":4707:4710   */\n      dup4\n        /* \"#utility.yul\":4700:4719   */\n      mstore\n        /* \"#utility.yul\":4764:4770   */\n      dup2\n        /* \"#utility.yul\":4757:4762   */\n      dup2\n        /* \"#utility.yul\":4750:4754   */\n      0x20\n        /* \"#utility.yul\":4745:4748   */\n      dup6\n        /* \"#utility.yul\":4741:4755   */\n      add\n        /* \"#utility.yul\":4728:4771   */\n      calldatacopy\n      pop\n        /* \"#utility.yul\":4816:4817   */\n      0x00\n        /* \"#utility.yul\":4791:4807   */\n      dup3\n      dup3\n      add\n        /* \"#utility.yul\":4809:4813   */\n      0x20\n        /* \"#utility.yul\":4787:4814   */\n      swap1\n      dup2\n      add\n        /* \"#utility.yul\":4780:4818   */\n      swap2\n      swap1\n      swap2\n      mstore\n        /* \"#utility.yul\":4872:4874   */\n      0x1f\n        /* \"#utility.yul\":4851:4866   */\n      swap1\n      swap2\n      add\n      not(0x1f)\n        /* \"#utility.yul\":4847:4876   */\n      and\n        /* \"#utility.yul\":4838:4877   */\n      swap1\n      swap2\n      add\n        /* \"#utility.yul\":4834:4884   */\n      add\n      swap1\n        /* \"#utility.yul\":4623:4890   */\n      jump\t// out\n        /* \"#utility.yul\":4895:5367   */\n    tag_146:\n        /* \"#utility.yul\":4937:4940   */\n      0x00\n        /* \"#utility.yul\":4975:4980   */\n      dup2\n        /* \"#utility.yul\":4969:4981   */\n      mload\n        /* \"#utility.yul\":5002:5008   */\n      dup1\n        /* \"#utility.yul\":4997:5000   */\n      dup5\n        /* \"#utility.yul\":4990:5009   */\n      mstore\n        /* \"#utility.yul\":5027:5028   */\n      0x00\n        /* \"#utility.yul\":5037:5199   */\n    tag_148:\n        /* \"#utility.yul\":5051:5057   */\n      dup2\n        /* \"#utility.yul\":5048:5049   */\n      dup2\n        /* \"#utility.yul\":5045:5058   */\n      lt\n        /* \"#utility.yul\":5037:5199   */\n      iszero\n      tag_150\n      jumpi\n        /* \"#utility.yul\":5113:5117   */\n      0x20\n        /* \"#utility.yul\":5169:5182   */\n      dup2\n      dup6\n      add\n        /* \"#utility.yul\":5165:5187   */\n      dup2\n      add\n        /* \"#utility.yul\":5159:5188   */\n      mload\n        /* \"#utility.yul\":5141:5152   */\n      dup7\n      dup4\n      add\n        /* \"#utility.yul\":5137:5157   */\n      dup3\n      add\n        /* \"#utility.yul\":5130:5189   */\n      mstore\n        /* \"#utility.yul\":5066:5078   */\n      add\n        /* \"#utility.yul\":5037:5199   */\n      jump(tag_148)\n    tag_150:\n        /* \"#utility.yul\":5217:5223   */\n      dup2\n        /* \"#utility.yul\":5214:5215   */\n      dup2\n        /* \"#utility.yul\":5211:5224   */\n      gt\n        /* \"#utility.yul\":5208:5295   */\n      iszero\n      tag_151\n      jumpi\n        /* \"#utility.yul\":5283:5284   */\n      0x00\n        /* \"#utility.yul\":5276:5280   */\n      0x20\n        /* \"#utility.yul\":5267:5273   */\n      dup4\n        /* \"#utility.yul\":5262:5265   */\n      dup8\n        /* \"#utility.yul\":5258:5274   */\n      add\n        /* \"#utility.yul\":5254:5281   */\n      add\n        /* \"#utility.yul\":5247:5285   */\n      mstore\n        /* \"#utility.yul\":5208:5295   */\n    tag_151:\n      pop\n        /* \"#utility.yul\":5349:5351   */\n      0x1f\n        /* \"#utility.yul\":5328:5343   */\n      add\n      not(0x1f)\n        /* \"#utility.yul\":5324:5353   */\n      and\n        /* \"#utility.yul\":5315:5354   */\n      swap3\n      swap1\n      swap3\n      add\n        /* \"#utility.yul\":5356:5360   */\n      0x20\n        /* \"#utility.yul\":5311:5361   */\n      add\n      swap3\n        /* \"#utility.yul\":4895:5367   */\n      swap2\n      pop\n      pop\n      jump\t// out\n        /* \"#utility.yul\":5372:5645   */\n    tag_45:\n        /* \"#utility.yul\":5557:5563   */\n      dup2\n        /* \"#utility.yul\":5549:5555   */\n      dup4\n        /* \"#utility.yul\":5544:5547   */\n      dup3\n        /* \"#utility.yul\":5531:5564   */\n      calldatacopy\n        /* \"#utility.yul\":5513:5516   */\n      0x00\n        /* \"#utility.yul\":5583:5599   */\n      swap2\n      add\n        /* \"#utility.yul\":5608:5621   */\n      swap1\n      dup2\n      mstore\n        /* \"#utility.yul\":5583:5599   */\n      swap2\n        /* \"#utility.yul\":5372:5645   */\n      swap1\n      pop\n      jump\t// out\n        /* \"#utility.yul\":5650:8065   */\n    tag_55:\n        /* \"#utility.yul\":5913:5915   */\n      0x60\n        /* \"#utility.yul\":5902:5911   */\n      dup2\n        /* \"#utility.yul\":5895:5916   */\n      mstore\n        /* \"#utility.yul\":5876:5880   */\n      0x00\n        /* \"#utility.yul\":5939:6001   */\n      tag_154\n        /* \"#utility.yul\":5997:5999   */\n      0x60\n        /* \"#utility.yul\":5986:5995   */\n      dup4\n        /* \"#utility.yul\":5982:6000   */\n      add\n        /* \"#utility.yul\":5974:5980   */\n      dup7\n        /* \"#utility.yul\":5966:5972   */\n      dup9\n        /* \"#utility.yul\":5939:6001   */\n      tag_130\n      jump\t// in\n    tag_154:\n        /* \"#utility.yul\":6049:6058   */\n      dup3\n        /* \"#utility.yul\":6041:6047   */\n      dup2\n        /* \"#utility.yul\":6037:6059   */\n      sub\n        /* \"#utility.yul\":6032:6034   */\n      0x20\n        /* \"#utility.yul\":6021:6030   */\n      dup5\n        /* \"#utility.yul\":6017:6035   */\n      add\n        /* \"#utility.yul\":6010:6060   */\n      mstore\n        /* \"#utility.yul\":6079:6085   */\n      0x0120\n        /* \"#utility.yul\":6128:6175   */\n      tag_155\n        /* \"#utility.yul\":6168:6174   */\n      dup7\n        /* \"#utility.yul\":6160:6166   */\n      dup8\n        /* \"#utility.yul\":6128:6175   */\n      tag_128\n      jump\t// in\n    tag_155:\n        /* \"#utility.yul\":6199:6201   */\n      dup3\n        /* \"#utility.yul\":6191:6197   */\n      dup5\n        /* \"#utility.yul\":6184:6202   */\n      mstore\n        /* \"#utility.yul\":6225:6296   */\n      tag_156\n        /* \"#utility.yul\":6292:6294   */\n      dup4\n        /* \"#utility.yul\":6284:6290   */\n      dup6\n        /* \"#utility.yul\":6280:6295   */\n      add\n        /* \"#utility.yul\":6266:6278   */\n      dup3\n        /* \"#utility.yul\":6252:6264   */\n      dup5\n        /* \"#utility.yul\":6225:6296   */\n      tag_130\n      jump\t// in\n    tag_156:\n        /* \"#utility.yul\":6211:6296   */\n      swap3\n      pop\n      pop\n      pop\n        /* \"#utility.yul\":6318:6355   */\n      tag_157\n        /* \"#utility.yul\":6351:6353   */\n      0x20\n        /* \"#utility.yul\":6343:6349   */\n      dup8\n        /* \"#utility.yul\":6339:6354   */\n      add\n        /* \"#utility.yul\":6318:6355   */\n      tag_96\n      jump\t// in\n    tag_157:\n        /* \"#utility.yul\":6364:6408   */\n      tag_158\n        /* \"#utility.yul\":6404:6406   */\n      0x20\n        /* \"#utility.yul\":6396:6402   */\n      dup5\n        /* \"#utility.yul\":6392:6407   */\n      add\n        /* \"#utility.yul\":6385:6390   */\n      dup3\n        /* \"#utility.yul\":6364:6408   */\n      tag_142\n      jump\t// in\n    tag_158:\n      pop\n        /* \"#utility.yul\":6455:6532   */\n      tag_159\n        /* \"#utility.yul\":6526:6530   */\n      0x40\n        /* \"#utility.yul\":6518:6524   */\n      dup8\n        /* \"#utility.yul\":6514:6531   */\n      add\n        /* \"#utility.yul\":6506:6512   */\n      dup8\n        /* \"#utility.yul\":6455:6532   */\n      tag_160\n      jump\t// in\n    tag_159:\n        /* \"#utility.yul\":6579:6585   */\n      dup4\n        /* \"#utility.yul\":6571:6577   */\n      dup4\n        /* \"#utility.yul\":6567:6586   */\n      sub\n        /* \"#utility.yul\":6560:6564   */\n      0x40\n        /* \"#utility.yul\":6552:6558   */\n      dup6\n        /* \"#utility.yul\":6548:6565   */\n      add\n        /* \"#utility.yul\":6541:6587   */\n      mstore\n        /* \"#utility.yul\":6610:6695   */\n      tag_161\n        /* \"#utility.yul\":6688:6694   */\n      dup4\n        /* \"#utility.yul\":6672:6686   */\n      dup3\n        /* \"#utility.yul\":6656:6670   */\n      dup5\n        /* \"#utility.yul\":6610:6695   */\n      tag_122\n      jump\t// in\n    tag_161:\n        /* \"#utility.yul\":6596:6695   */\n      swap3\n      pop\n      pop\n      pop\n        /* \"#utility.yul\":6742:6798   */\n      tag_162\n        /* \"#utility.yul\":6794:6796   */\n      0x60\n        /* \"#utility.yul\":6786:6792   */\n      dup8\n        /* \"#utility.yul\":6782:6797   */\n      add\n        /* \"#utility.yul\":6774:6780   */\n      dup8\n        /* \"#utility.yul\":6742:6798   */\n      tag_128\n      jump\t// in\n    tag_162:\n        /* \"#utility.yul\":6843:6849   */\n      dup4\n        /* \"#utility.yul\":6835:6841   */\n      dup4\n        /* \"#utility.yul\":6831:6850   */\n      sub\n        /* \"#utility.yul\":6826:6828   */\n      0x60\n        /* \"#utility.yul\":6818:6824   */\n      dup6\n        /* \"#utility.yul\":6814:6829   */\n      add\n        /* \"#utility.yul\":6807:6851   */\n      mstore\n        /* \"#utility.yul\":6874:6940   */\n      tag_163\n        /* \"#utility.yul\":6933:6939   */\n      dup4\n        /* \"#utility.yul\":6917:6931   */\n      dup3\n        /* \"#utility.yul\":6901:6915   */\n      dup5\n        /* \"#utility.yul\":6874:6940   */\n      tag_130\n      jump\t// in\n    tag_163:\n        /* \"#utility.yul\":6860:6940   */\n      swap3\n      pop\n      pop\n      pop\n        /* \"#utility.yul\":6987:7045   */\n      tag_164\n        /* \"#utility.yul\":7039:7043   */\n      0x80\n        /* \"#utility.yul\":7031:7037   */\n      dup8\n        /* \"#utility.yul\":7027:7044   */\n      add\n        /* \"#utility.yul\":7019:7025   */\n      dup8\n        /* \"#utility.yul\":6987:7045   */\n      tag_128\n      jump\t// in\n    tag_164:\n        /* \"#utility.yul\":7092:7098   */\n      dup4\n        /* \"#utility.yul\":7084:7090   */\n      dup4\n        /* \"#utility.yul\":7080:7099   */\n      sub\n        /* \"#utility.yul\":7073:7077   */\n      0x80\n        /* \"#utility.yul\":7065:7071   */\n      dup6\n        /* \"#utility.yul\":7061:7078   */\n      add\n        /* \"#utility.yul\":7054:7100   */\n      mstore\n        /* \"#utility.yul\":7123:7189   */\n      tag_165\n        /* \"#utility.yul\":7182:7188   */\n      dup4\n        /* \"#utility.yul\":7166:7180   */\n      dup3\n        /* \"#utility.yul\":7150:7164   */\n      dup5\n        /* \"#utility.yul\":7123:7189   */\n      tag_130\n      jump\t// in\n    tag_165:\n        /* \"#utility.yul\":7109:7189   */\n      swap3\n      pop\n      pop\n      pop\n        /* \"#utility.yul\":7213:7250   */\n      tag_166\n        /* \"#utility.yul\":7244:7248   */\n      0xa0\n        /* \"#utility.yul\":7236:7242   */\n      dup8\n        /* \"#utility.yul\":7232:7249   */\n      add\n        /* \"#utility.yul\":7213:7250   */\n      tag_88\n      jump\t// in\n    tag_166:\n      sub(shl(0xa0, 0x01), 0x01)\n        /* \"#utility.yul\":2324:2355   */\n      and\n        /* \"#utility.yul\":7299:7303   */\n      0xa0\n        /* \"#utility.yul\":7287:7304   */\n      dup4\n      add\n        /* \"#utility.yul\":2312:2356   */\n      mstore\n        /* \"#utility.yul\":7352:7429   */\n      tag_168\n        /* \"#utility.yul\":7423:7427   */\n      0xc0\n        /* \"#utility.yul\":7411:7428   */\n      dup8\n      add\n        /* \"#utility.yul\":7415:7421   */\n      dup8\n        /* \"#utility.yul\":7352:7429   */\n      tag_160\n      jump\t// in\n    tag_168:\n        /* \"#utility.yul\":7476:7482   */\n      dup4\n        /* \"#utility.yul\":7468:7474   */\n      dup4\n        /* \"#utility.yul\":7464:7483   */\n      sub\n        /* \"#utility.yul\":7457:7461   */\n      0xc0\n        /* \"#utility.yul\":7449:7455   */\n      dup6\n        /* \"#utility.yul\":7445:7462   */\n      add\n        /* \"#utility.yul\":7438:7484   */\n      mstore\n        /* \"#utility.yul\":7507:7599   */\n      tag_169\n        /* \"#utility.yul\":7592:7598   */\n      dup4\n        /* \"#utility.yul\":7576:7590   */\n      dup3\n        /* \"#utility.yul\":7560:7574   */\n      dup5\n        /* \"#utility.yul\":7507:7599   */\n      tag_131\n      jump\t// in\n    tag_169:\n        /* \"#utility.yul\":7493:7599   */\n      swap3\n      pop\n      pop\n      pop\n        /* \"#utility.yul\":7646:7704   */\n      tag_170\n        /* \"#utility.yul\":7698:7702   */\n      0xe0\n        /* \"#utility.yul\":7690:7696   */\n      dup8\n        /* \"#utility.yul\":7686:7703   */\n      add\n        /* \"#utility.yul\":7678:7684   */\n      dup8\n        /* \"#utility.yul\":7646:7704   */\n      tag_128\n      jump\t// in\n    tag_170:\n        /* \"#utility.yul\":7751:7757   */\n      dup4\n        /* \"#utility.yul\":7743:7749   */\n      dup4\n        /* \"#utility.yul\":7739:7758   */\n      sub\n        /* \"#utility.yul\":7732:7736   */\n      0xe0\n        /* \"#utility.yul\":7724:7730   */\n      dup6\n        /* \"#utility.yul\":7720:7737   */\n      add\n        /* \"#utility.yul\":7713:7759   */\n      mstore\n        /* \"#utility.yul\":7782:7848   */\n      tag_171\n        /* \"#utility.yul\":7841:7847   */\n      dup4\n        /* \"#utility.yul\":7825:7839   */\n      dup3\n        /* \"#utility.yul\":7809:7823   */\n      dup5\n        /* \"#utility.yul\":7782:7848   */\n      tag_130\n      jump\t// in\n    tag_171:\n        /* \"#utility.yul\":7768:7848   */\n      swap3\n      pop\n      pop\n      pop\n        /* \"#utility.yul\":7867:7873   */\n      0x0100\n        /* \"#utility.yul\":7897:7929   */\n      tag_172\n        /* \"#utility.yul\":7925:7927   */\n      dup2\n        /* \"#utility.yul\":7917:7923   */\n      dup9\n        /* \"#utility.yul\":7913:7928   */\n      add\n        /* \"#utility.yul\":7897:7929   */\n      tag_92\n      jump\t// in\n    tag_172:\n        /* \"#utility.yul\":4360:4373   */\n      iszero\n        /* \"#utility.yul\":4353:4374   */\n      iszero\n        /* \"#utility.yul\":7963:7978   */\n      swap3\n      add\n        /* \"#utility.yul\":4341:4375   */\n      swap2\n      swap1\n      swap2\n      mstore\n      sub(shl(0xa0, 0x01), 0x01)\n        /* \"#utility.yul\":2324:2355   */\n      dup5\n      and\n        /* \"#utility.yul\":8053:8057   */\n      0x40\n        /* \"#utility.yul\":8038:8058   */\n      dup5\n      add\n        /* \"#utility.yul\":2312:2356   */\n      mstore\n        /* \"#utility.yul\":7996:8002   */\n      swap1\n      pop\n        /* \"#utility.yul\":5650:8065   */\n      swap6\n      swap5\n      pop\n      pop\n      pop\n      pop\n      pop\n      jump\t// out\n        /* \"#utility.yul\":8070:9052   */\n    tag_31:\n        /* \"#utility.yul\":8446:8449   */\n      0xe0\n        /* \"#utility.yul\":8435:8444   */\n      dup2\n        /* \"#utility.yul\":8428:8450   */\n      mstore\n        /* \"#utility.yul\":8409:8413   */\n      0x00\n        /* \"#utility.yul\":8473:8519   */\n      tag_176\n        /* \"#utility.yul\":8514:8517   */\n      0xe0\n        /* \"#utility.yul\":8503:8512   */\n      dup4\n        /* \"#utility.yul\":8499:8518   */\n      add\n        /* \"#utility.yul\":8491:8497   */\n      dup11\n        /* \"#utility.yul\":8473:8519   */\n      tag_146\n      jump\t// in\n    tag_176:\n        /* \"#utility.yul\":8528:8576   */\n      tag_177\n        /* \"#utility.yul\":8572:8574   */\n      0x20\n        /* \"#utility.yul\":8561:8570   */\n      dup5\n        /* \"#utility.yul\":8557:8575   */\n      add\n        /* \"#utility.yul\":8549:8555   */\n      dup11\n        /* \"#utility.yul\":8528:8576   */\n      tag_142\n      jump\t// in\n    tag_177:\n        /* \"#utility.yul\":8624:8633   */\n      dup3\n        /* \"#utility.yul\":8616:8622   */\n      dup2\n        /* \"#utility.yul\":8612:8634   */\n      sub\n        /* \"#utility.yul\":8607:8609   */\n      0x40\n        /* \"#utility.yul\":8596:8605   */\n      dup5\n        /* \"#utility.yul\":8592:8610   */\n      add\n        /* \"#utility.yul\":8585:8635   */\n      mstore\n        /* \"#utility.yul\":8658:8691   */\n      tag_178\n        /* \"#utility.yul\":8684:8690   */\n      dup2\n        /* \"#utility.yul\":8676:8682   */\n      dup10\n        /* \"#utility.yul\":8658:8691   */\n      tag_146\n      jump\t// in\n    tag_178:\n        /* \"#utility.yul\":8644:8691   */\n      swap1\n      pop\n        /* \"#utility.yul\":8739:8748   */\n      dup3\n        /* \"#utility.yul\":8731:8737   */\n      dup2\n        /* \"#utility.yul\":8727:8749   */\n      sub\n        /* \"#utility.yul\":8722:8724   */\n      0x60\n        /* \"#utility.yul\":8711:8720   */\n      dup5\n        /* \"#utility.yul\":8707:8725   */\n      add\n        /* \"#utility.yul\":8700:8750   */\n      mstore\n        /* \"#utility.yul\":8773:8806   */\n      tag_179\n        /* \"#utility.yul\":8799:8805   */\n      dup2\n        /* \"#utility.yul\":8791:8797   */\n      dup9\n        /* \"#utility.yul\":8773:8806   */\n      tag_146\n      jump\t// in\n    tag_179:\n      sub(shl(0xa0, 0x01), 0x01)\n        /* \"#utility.yul\":8843:8875   */\n      dup8\n      and\n        /* \"#utility.yul\":8837:8840   */\n      0x80\n        /* \"#utility.yul\":8822:8841   */\n      dup6\n      add\n        /* \"#utility.yul\":8815:8876   */\n      mstore\n        /* \"#utility.yul\":8913:8935   */\n      dup4\n      dup2\n      sub\n        /* \"#utility.yul\":8863:8866   */\n      0xa0\n        /* \"#utility.yul\":8892:8911   */\n      dup6\n      add\n        /* \"#utility.yul\":8885:8936   */\n      mstore\n        /* \"#utility.yul\":8759:8806   */\n      swap1\n      pop\n        /* \"#utility.yul\":8953:8986   */\n      tag_180\n        /* \"#utility.yul\":8759:8806   */\n      dup2\n        /* \"#utility.yul\":8971:8977   */\n      dup7\n        /* \"#utility.yul\":8953:8986   */\n      tag_146\n      jump\t// in\n    tag_180:\n        /* \"#utility.yul\":8945:8986   */\n      swap2\n      pop\n      pop\n        /* \"#utility.yul\":9037:9043   */\n      dup3\n        /* \"#utility.yul\":9030:9044   */\n      iszero\n        /* \"#utility.yul\":9023:9045   */\n      iszero\n        /* \"#utility.yul\":9017:9020   */\n      0xc0\n        /* \"#utility.yul\":9006:9015   */\n      dup4\n        /* \"#utility.yul\":9002:9021   */\n      add\n        /* \"#utility.yul\":8995:9046   */\n      mstore\n        /* \"#utility.yul\":8070:9052   */\n      swap9\n      swap8\n      pop\n      pop\n      pop\n      pop\n      pop\n      pop\n      pop\n      pop\n      jump\t// out\n        /* \"#utility.yul\":10168:10711   */\n    tag_184:\n        /* \"#utility.yul\":10259:10263   */\n      0x00\n        /* \"#utility.yul\":10265:10271   */\n      dup1\n        /* \"#utility.yul\":10325:10336   */\n      dup4\n        /* \"#utility.yul\":10312:10337   */\n      calldataload\n        /* \"#utility.yul\":10419:10421   */\n      0x1e\n        /* \"#utility.yul\":10415:10422   */\n      not\n        /* \"#utility.yul\":10404:10412   */\n      dup5\n        /* \"#utility.yul\":10388:10402   */\n      calldatasize\n        /* \"#utility.yul\":10384:10413   */\n      sub\n        /* \"#utility.yul\":10380:10423   */\n      add\n        /* \"#utility.yul\":10360:10378   */\n      dup2\n        /* \"#utility.yul\":10356:10424   */\n      slt\n        /* \"#utility.yul\":10346:10442   */\n      tag_186\n      jumpi\n        /* \"#utility.yul\":10438:10439   */\n      0x00\n        /* \"#utility.yul\":10435:10436   */\n      dup1\n        /* \"#utility.yul\":10428:10440   */\n      revert\n        /* \"#utility.yul\":10346:10442   */\n    tag_186:\n        /* \"#utility.yul\":10465:10498   */\n      dup4\n      add\n        /* \"#utility.yul\":10517:10537   */\n      dup1\n      calldataload\n      swap2\n      pop\n        /* \"#utility.yul\":10560:10578   */\n      0xffffffffffffffff\n        /* \"#utility.yul\":10549:10579   */\n      dup3\n      gt\n        /* \"#utility.yul\":10546:10596   */\n      iszero\n      tag_187\n      jumpi\n        /* \"#utility.yul\":10592:10593   */\n      0x00\n        /* \"#utility.yul\":10589:10590   */\n      dup1\n        /* \"#utility.yul\":10582:10594   */\n      revert\n        /* \"#utility.yul\":10546:10596   */\n    tag_187:\n        /* \"#utility.yul\":10625:10629   */\n      0x20\n        /* \"#utility.yul\":10613:10630   */\n      add\n      swap2\n      pop\n        /* \"#utility.yul\":10676:10677   */\n      0x05\n        /* \"#utility.yul\":10672:10686   */\n      dup2\n      swap1\n      shl\n        /* \"#utility.yul\":10656:10670   */\n      calldatasize\n        /* \"#utility.yul\":10652:10687   */\n      sub\n        /* \"#utility.yul\":10642:10688   */\n      dup3\n      sgt\n        /* \"#utility.yul\":10639:10705   */\n      iszero\n      tag_188\n      jumpi\n        /* \"#utility.yul\":10701:10702   */\n      0x00\n        /* \"#utility.yul\":10698:10699   */\n      dup1\n        /* \"#utility.yul\":10691:10703   */\n      revert\n        /* \"#utility.yul\":10639:10705   */\n    tag_188:\n        /* \"#utility.yul\":10168:10711   */\n      swap3\n      pop\n      swap3\n      swap1\n      pop\n      jump\t// out\n        /* \"#utility.yul\":10716:11238   */\n    tag_39:\n        /* \"#utility.yul\":10794:10798   */\n      0x00\n        /* \"#utility.yul\":10800:10806   */\n      dup1\n        /* \"#utility.yul\":10860:10871   */\n      dup4\n        /* \"#utility.yul\":10847:10872   */\n      calldataload\n        /* \"#utility.yul\":10954:10956   */\n      0x1e\n        /* \"#utility.yul\":10950:10957   */\n      not\n        /* \"#utility.yul\":10939:10947   */\n      dup5\n        /* \"#utility.yul\":10923:10937   */\n      calldatasize\n        /* \"#utility.yul\":10919:10948   */\n      sub\n        /* \"#utility.yul\":10915:10958   */\n      add\n        /* \"#utility.yul\":10895:10913   */\n      dup2\n        /* \"#utility.yul\":10891:10959   */\n      slt\n        /* \"#utility.yul\":10881:10977   */\n      tag_190\n      jumpi\n        /* \"#utility.yul\":10973:10974   */\n      0x00\n        /* \"#utility.yul\":10970:10971   */\n      dup1\n        /* \"#utility.yul\":10963:10975   */\n      revert\n        /* \"#utility.yul\":10881:10977   */\n    tag_190:\n        /* \"#utility.yul\":11000:11033   */\n      dup4\n      add\n        /* \"#utility.yul\":11052:11072   */\n      dup1\n      calldataload\n      swap2\n      pop\n        /* \"#utility.yul\":11095:11113   */\n      0xffffffffffffffff\n        /* \"#utility.yul\":11084:11114   */\n      dup3\n      gt\n        /* \"#utility.yul\":11081:11131   */\n      iszero\n      tag_191\n      jumpi\n        /* \"#utility.yul\":11127:11128   */\n      0x00\n        /* \"#utility.yul\":11124:11125   */\n      dup1\n        /* \"#utility.yul\":11117:11129   */\n      revert\n        /* \"#utility.yul\":11081:11131   */\n    tag_191:\n        /* \"#utility.yul\":11160:11164   */\n      0x20\n        /* \"#utility.yul\":11148:11165   */\n      add\n      swap2\n      pop\n        /* \"#utility.yul\":11191:11205   */\n      calldatasize\n        /* \"#utility.yul\":11187:11214   */\n      dup2\n      swap1\n      sub\n        /* \"#utility.yul\":11177:11215   */\n      dup3\n      sgt\n        /* \"#utility.yul\":11174:11232   */\n      iszero\n      tag_188\n      jumpi\n        /* \"#utility.yul\":11228:11229   */\n      0x00\n        /* \"#utility.yul\":11225:11226   */\n      dup1\n        /* \"#utility.yul\":11218:11230   */\n      revert\n        /* \"#utility.yul\":11243:11553   */\n    tag_193:\n        /* \"#utility.yul\":11322:11326   */\n      0x00\n        /* \"#utility.yul\":11380:11391   */\n      dup3\n        /* \"#utility.yul\":11367:11392   */\n      calldataload\n        /* \"#utility.yul\":11474:11476   */\n      0x3e\n        /* \"#utility.yul\":11470:11477   */\n      not\n        /* \"#utility.yul\":11459:11467   */\n      dup4\n        /* \"#utility.yul\":11443:11457   */\n      calldatasize\n        /* \"#utility.yul\":11439:11468   */\n      sub\n        /* \"#utility.yul\":11435:11478   */\n      add\n        /* \"#utility.yul\":11415:11433   */\n      dup2\n        /* \"#utility.yul\":11411:11479   */\n      slt\n        /* \"#utility.yul\":11401:11497   */\n      tag_195\n      jumpi\n        /* \"#utility.yul\":11493:11494   */\n      0x00\n        /* \"#utility.yul\":11490:11491   */\n      dup1\n        /* \"#utility.yul\":11483:11495   */\n      revert\n        /* \"#utility.yul\":11401:11497   */\n    tag_195:\n        /* \"#utility.yul\":11514:11547   */\n      swap2\n      swap1\n      swap2\n      add\n      swap3\n        /* \"#utility.yul\":11243:11553   */\n      swap2\n      pop\n      pop\n      jump\t// out\n        /* \"#utility.yul\":11694:12225   */\n    tag_160:\n        /* \"#utility.yul\":11772:11777   */\n      0x00\n        /* \"#utility.yul\":11779:11785   */\n      dup1\n        /* \"#utility.yul\":11839:11842   */\n      dup4\n        /* \"#utility.yul\":11826:11843   */\n      calldataload\n        /* \"#utility.yul\":11925:11927   */\n      0x1e\n        /* \"#utility.yul\":11921:11928   */\n      not\n        /* \"#utility.yul\":11910:11918   */\n      dup5\n        /* \"#utility.yul\":11894:11908   */\n      calldatasize\n        /* \"#utility.yul\":11890:11919   */\n      sub\n        /* \"#utility.yul\":11886:11929   */\n      add\n        /* \"#utility.yul\":11866:11884   */\n      dup2\n        /* \"#utility.yul\":11862:11930   */\n      slt\n        /* \"#utility.yul\":11852:11948   */\n      tag_199\n      jumpi\n        /* \"#utility.yul\":11944:11945   */\n      0x00\n        /* \"#utility.yul\":11941:11942   */\n      dup1\n        /* \"#utility.yul\":11934:11946   */\n      revert\n        /* \"#utility.yul\":11852:11948   */\n    tag_199:\n        /* \"#utility.yul\":11972:12005   */\n      dup4\n      add\n        /* \"#utility.yul\":12076:12080   */\n      0x20\n        /* \"#utility.yul\":12063:12081   */\n      dup2\n      add\n      swap3\n      pop\n        /* \"#utility.yul\":12024:12045   */\n      calldataload\n      swap1\n      pop\n        /* \"#utility.yul\":12104:12122   */\n      0xffffffffffffffff\n        /* \"#utility.yul\":12093:12123   */\n      dup2\n      gt\n        /* \"#utility.yul\":12090:12140   */\n      iszero\n      tag_200\n      jumpi\n        /* \"#utility.yul\":12136:12137   */\n      0x00\n        /* \"#utility.yul\":12133:12134   */\n      dup1\n        /* \"#utility.yul\":12126:12138   */\n      revert\n        /* \"#utility.yul\":12090:12140   */\n    tag_200:\n        /* \"#utility.yul\":12193:12199   */\n      dup1\n        /* \"#utility.yul\":12190:12191   */\n      0x05\n        /* \"#utility.yul\":12186:12200   */\n      shl\n        /* \"#utility.yul\":12170:12184   */\n      calldatasize\n        /* \"#utility.yul\":12166:12201   */\n      sub\n        /* \"#utility.yul\":12156:12164   */\n      dup4\n        /* \"#utility.yul\":12152:12202   */\n      sgt\n        /* \"#utility.yul\":12149:12219   */\n      iszero\n      tag_188\n      jumpi\n        /* \"#utility.yul\":12215:12216   */\n      0x00\n        /* \"#utility.yul\":12212:12213   */\n      dup1\n        /* \"#utility.yul\":12205:12217   */\n      revert\n        /* \"#utility.yul\":12230:12734   */\n    tag_128:\n        /* \"#utility.yul\":12289:12294   */\n      0x00\n        /* \"#utility.yul\":12296:12302   */\n      dup1\n        /* \"#utility.yul\":12356:12359   */\n      dup4\n        /* \"#utility.yul\":12343:12360   */\n      calldataload\n        /* \"#utility.yul\":12442:12444   */\n      0x1e\n        /* \"#utility.yul\":12438:12445   */\n      not\n        /* \"#utility.yul\":12427:12435   */\n      dup5\n        /* \"#utility.yul\":12411:12425   */\n      calldatasize\n        /* \"#utility.yul\":12407:12436   */\n      sub\n        /* \"#utility.yul\":12403:12446   */\n      add\n        /* \"#utility.yul\":12383:12401   */\n      dup2\n        /* \"#utility.yul\":12379:12447   */\n      slt\n        /* \"#utility.yul\":12369:12465   */\n      tag_203\n      jumpi\n        /* \"#utility.yul\":12461:12462   */\n      0x00\n        /* \"#utility.yul\":12458:12459   */\n      dup1\n        /* \"#utility.yul\":12451:12463   */\n      revert\n        /* \"#utility.yul\":12369:12465   */\n    tag_203:\n        /* \"#utility.yul\":12489:12522   */\n      dup4\n      add\n        /* \"#utility.yul\":12593:12597   */\n      0x20\n        /* \"#utility.yul\":12580:12598   */\n      dup2\n      add\n      swap3\n      pop\n        /* \"#utility.yul\":12541:12562   */\n      calldataload\n      swap1\n      pop\n        /* \"#utility.yul\":12621:12639   */\n      0xffffffffffffffff\n        /* \"#utility.yul\":12610:12640   */\n      dup2\n      gt\n        /* \"#utility.yul\":12607:12657   */\n      iszero\n      tag_204\n      jumpi\n        /* \"#utility.yul\":12653:12654   */\n      0x00\n        /* \"#utility.yul\":12650:12651   */\n      dup1\n        /* \"#utility.yul\":12643:12655   */\n      revert\n        /* \"#utility.yul\":12607:12657   */\n    tag_204:\n        /* \"#utility.yul\":12703:12709   */\n      dup1\n        /* \"#utility.yul\":12687:12701   */\n      calldatasize\n        /* \"#utility.yul\":12683:12710   */\n      sub\n        /* \"#utility.yul\":12673:12681   */\n      dup4\n        /* \"#utility.yul\":12669:12711   */\n      sgt\n        /* \"#utility.yul\":12666:12728   */\n      iszero\n      tag_188\n      jumpi\n        /* \"#utility.yul\":12724:12725   */\n      0x00\n        /* \"#utility.yul\":12721:12722   */\n      dup1\n        /* \"#utility.yul\":12714:12726   */\n      revert\n        /* \"#utility.yul\":12739:12988   */\n    tag_206:\n        /* \"#utility.yul\":12774:12781   */\n      0x00\n      sub(shl(0xff, 0x01), 0x01)\n        /* \"#utility.yul\":12806:12832   */\n      dup3\n      gt\n        /* \"#utility.yul\":12829:12830   */\n      0x01\n        /* \"#utility.yul\":12799:12833   */\n      and\n        /* \"#utility.yul\":12796:12953   */\n      iszero\n      tag_208\n      jumpi\n        /* \"#utility.yul\":12875:12885   */\n      0x4e487b71\n        /* \"#utility.yul\":12870:12873   */\n      0xe0\n        /* \"#utility.yul\":12866:12886   */\n      shl\n        /* \"#utility.yul\":12863:12864   */\n      0x00\n        /* \"#utility.yul\":12856:12887   */\n      mstore\n        /* \"#utility.yul\":12910:12914   */\n      0x11\n        /* \"#utility.yul\":12907:12908   */\n      0x04\n        /* \"#utility.yul\":12900:12915   */\n      mstore\n        /* \"#utility.yul\":12938:12942   */\n      0x24\n        /* \"#utility.yul\":12935:12936   */\n      0x00\n        /* \"#utility.yul\":12928:12943   */\n      revert\n        /* \"#utility.yul\":12796:12953   */\n    tag_208:\n      pop\n        /* \"#utility.yul\":12977:12978   */\n      0x01\n        /* \"#utility.yul\":12973:12982   */\n      shl\n      swap1\n        /* \"#utility.yul\":12739:12988   */\n      jump\t// out\n        /* \"#utility.yul\":12993:13411   */\n    tag_209:\n        /* \"#utility.yul\":13095:13097   */\n      0x1f\n        /* \"#utility.yul\":13090:13093   */\n      dup3\n        /* \"#utility.yul\":13087:13098   */\n      gt\n        /* \"#utility.yul\":13084:13405   */\n      iszero\n      tag_211\n      jumpi\n        /* \"#utility.yul\":13131:13136   */\n      dup1\n        /* \"#utility.yul\":13128:13129   */\n      0x00\n        /* \"#utility.yul\":13121:13137   */\n      mstore\n        /* \"#utility.yul\":13175:13179   */\n      0x20\n        /* \"#utility.yul\":13172:13173   */\n      0x00\n        /* \"#utility.yul\":13162:13180   */\n      keccak256\n        /* \"#utility.yul\":13245:13247   */\n      0x1f\n        /* \"#utility.yul\":13233:13243   */\n      dup5\n        /* \"#utility.yul\":13229:13248   */\n      add\n        /* \"#utility.yul\":13226:13227   */\n      0x05\n        /* \"#utility.yul\":13222:13249   */\n      shr\n        /* \"#utility.yul\":13216:13220   */\n      dup2\n        /* \"#utility.yul\":13212:13250   */\n      add\n        /* \"#utility.yul\":13281:13285   */\n      0x20\n        /* \"#utility.yul\":13269:13279   */\n      dup6\n        /* \"#utility.yul\":13266:13286   */\n      lt\n        /* \"#utility.yul\":13263:13310   */\n      iszero\n      tag_212\n      jumpi\n      pop\n        /* \"#utility.yul\":13304:13308   */\n      dup1\n        /* \"#utility.yul\":13263:13310   */\n    tag_212:\n        /* \"#utility.yul\":13323:13395   */\n      tag_213\n        /* \"#utility.yul\":13389:13391   */\n      0x1f\n        /* \"#utility.yul\":13384:13387   */\n      dup6\n        /* \"#utility.yul\":13380:13392   */\n      add\n        /* \"#utility.yul\":13377:13378   */\n      0x05\n        /* \"#utility.yul\":13373:13393   */\n      shr\n        /* \"#utility.yul\":13367:13371   */\n      dup4\n        /* \"#utility.yul\":13363:13394   */\n      add\n        /* \"#utility.yul\":13350:13361   */\n      dup3\n        /* \"#utility.yul\":13323:13395   */\n      tag_214\n      jump\t// in\n    tag_213:\n      pop\n      pop\n        /* \"#utility.yul\":13084:13405   */\n    tag_211:\n        /* \"#utility.yul\":12993:13411   */\n      pop\n      pop\n      pop\n      jump\t// out\n        /* \"#utility.yul\":13416:13562   */\n    tag_214:\n        /* \"#utility.yul\":13478:13556   */\n    tag_216:\n        /* \"#utility.yul\":13496:13499   */\n      dup2\n        /* \"#utility.yul\":13489:13494   */\n      dup2\n        /* \"#utility.yul\":13486:13500   */\n      lt\n        /* \"#utility.yul\":13478:13556   */\n      iszero\n      tag_218\n      jumpi\n        /* \"#utility.yul\":13552:13553   */\n      0x00\n        /* \"#utility.yul\":13538:13554   */\n      dup2\n      sstore\n        /* \"#utility.yul\":13523:13524   */\n      0x01\n        /* \"#utility.yul\":13512:13525   */\n      add\n        /* \"#utility.yul\":13478:13556   */\n      jump(tag_216)\n    tag_218:\n        /* \"#utility.yul\":13416:13562   */\n      pop\n      pop\n      jump\t// out\n        /* \"#utility.yul\":13567:14639   */\n    tag_219:\n      shl(0x40, 0x01)\n        /* \"#utility.yul\":13697:13700   */\n      dup4\n        /* \"#utility.yul\":13694:13723   */\n      gt\n        /* \"#utility.yul\":13691:13746   */\n      iszero\n      tag_222\n      jumpi\n        /* \"#utility.yul\":13726:13744   */\n      tag_222\n      tag_112\n      jump\t// in\n    tag_222:\n        /* \"#utility.yul\":13775:13779   */\n      dup1\n        /* \"#utility.yul\":13769:13780   */\n      sload\n        /* \"#utility.yul\":13802:13805   */\n      dup4\n        /* \"#utility.yul\":13796:13800   */\n      dup3\n        /* \"#utility.yul\":13789:13806   */\n      sstore\n        /* \"#utility.yul\":13826:13832   */\n      dup1\n        /* \"#utility.yul\":13821:13824   */\n      dup5\n        /* \"#utility.yul\":13818:13833   */\n      lt\n        /* \"#utility.yul\":13815:14143   */\n      iszero\n      tag_223\n      jumpi\n        /* \"#utility.yul\":13863:13864   */\n      0x00\n        /* \"#utility.yul\":13856:13871   */\n      dup3\n      dup2\n      mstore\n        /* \"#utility.yul\":13909:13913   */\n      0x20\n        /* \"#utility.yul\":13896:13914   */\n      swap1\n      keccak256\n        /* \"#utility.yul\":13980:13994   */\n      dup5\n      dup2\n      add\n      swap1\n        /* \"#utility.yul\":13937:13954   */\n      dup3\n      add\n        /* \"#utility.yul\":14007:14133   */\n    tag_224:\n        /* \"#utility.yul\":14025:14027   */\n      dup1\n        /* \"#utility.yul\":14018:14023   */\n      dup3\n        /* \"#utility.yul\":14015:14028   */\n      lt\n        /* \"#utility.yul\":14007:14133   */\n      iszero\n      tag_226\n      jumpi\n        /* \"#utility.yul\":14086:14119   */\n      tag_227\n        /* \"#utility.yul\":14113:14118   */\n      dup3\n        /* \"#utility.yul\":14086:14119   */\n      tag_228\n      jump\t// in\n    tag_227:\n        /* \"#utility.yul\":14051:14052   */\n      0x01\n        /* \"#utility.yul\":14044:14049   */\n      dup3\n        /* \"#utility.yul\":14040:14053   */\n      add\n        /* \"#utility.yul\":14031:14053   */\n      swap2\n      pop\n        /* \"#utility.yul\":14007:14133   */\n      jump(tag_224)\n    tag_226:\n        /* \"#utility.yul\":14011:14014   */\n      pop\n      pop\n        /* \"#utility.yul\":13815:14143   */\n    tag_223:\n      pop\n        /* \"#utility.yul\":11641:11642   */\n      0x00\n        /* \"#utility.yul\":11634:11648   */\n      dup2\n      dup2\n      mstore\n        /* \"#utility.yul\":11678:11682   */\n      0x20\n        /* \"#utility.yul\":11665:11683   */\n      dup2\n      keccak256\n        /* \"#utility.yul\":14166:14171   */\n      dup4\n      swap2\n        /* \"#utility.yul\":14272:14633   */\n    tag_230:\n        /* \"#utility.yul\":14286:14289   */\n      dup6\n        /* \"#utility.yul\":14283:14284   */\n      dup2\n        /* \"#utility.yul\":14280:14290   */\n      lt\n        /* \"#utility.yul\":14272:14633   */\n      iszero\n      tag_232\n      jumpi\n        /* \"#utility.yul\":14368:14425   */\n      tag_233\n        /* \"#utility.yul\":14418:14424   */\n      dup4\n        /* \"#utility.yul\":14411:14416   */\n      dup7\n        /* \"#utility.yul\":14368:14425   */\n      tag_39\n      jump\t// in\n    tag_233:\n        /* \"#utility.yul\":14438:14538   */\n      tag_234\n        /* \"#utility.yul\":14523:14537   */\n      dup2\n        /* \"#utility.yul\":14509:14521   */\n      dup4\n        /* \"#utility.yul\":14496:14507   */\n      dup7\n        /* \"#utility.yul\":14438:14538   */\n      tag_235\n      jump\t// in\n    tag_234:\n      pop\n      pop\n        /* \"#utility.yul\":14573:14575   */\n      0x20\n        /* \"#utility.yul\":14561:14576   */\n      swap3\n      swap1\n      swap3\n      add\n      swap2\n        /* \"#utility.yul\":14621:14622   */\n      0x01\n        /* \"#utility.yul\":14604:14623   */\n      swap2\n      dup3\n      add\n      swap2\n        /* \"#utility.yul\":14298:14307   */\n      add\n        /* \"#utility.yul\":14272:14633   */\n      jump(tag_230)\n    tag_232:\n        /* \"#utility.yul\":14276:14279   */\n      pop\n      pop\n      pop\n        /* \"#utility.yul\":13567:14639   */\n      pop\n      pop\n      pop\n      jump\t// out\n        /* \"#utility.yul\":14644:15857   */\n    tag_236:\n      shl(0x40, 0x01)\n        /* \"#utility.yul\":14788:14791   */\n      dup4\n        /* \"#utility.yul\":14785:14814   */\n      gt\n        /* \"#utility.yul\":14782:14837   */\n      iszero\n      tag_239\n      jumpi\n        /* \"#utility.yul\":14817:14835   */\n      tag_239\n      tag_112\n      jump\t// in\n    tag_239:\n        /* \"#utility.yul\":14866:14870   */\n      dup1\n        /* \"#utility.yul\":14860:14871   */\n      sload\n        /* \"#utility.yul\":14893:14896   */\n      dup4\n        /* \"#utility.yul\":14887:14891   */\n      dup3\n        /* \"#utility.yul\":14880:14897   */\n      sstore\n        /* \"#utility.yul\":14917:14923   */\n      dup1\n        /* \"#utility.yul\":14912:14915   */\n      dup5\n        /* \"#utility.yul\":14909:14924   */\n      lt\n        /* \"#utility.yul\":14906:15434   */\n      iszero\n      tag_240\n      jumpi\n        /* \"#utility.yul\":14967:14994   */\n      tag_241\n        /* \"#utility.yul\":14987:14993   */\n      dup2\n        /* \"#utility.yul\":14967:14994   */\n      tag_206\n      jump\t// in\n    tag_241:\n        /* \"#utility.yul\":15027:15051   */\n      tag_242\n        /* \"#utility.yul\":15047:15050   */\n      dup6\n        /* \"#utility.yul\":15027:15051   */\n      tag_206\n      jump\t// in\n    tag_242:\n        /* \"#utility.yul\":15074:15075   */\n      0x00\n        /* \"#utility.yul\":15088:15104   */\n      dup5\n      dup2\n      mstore\n        /* \"#utility.yul\":15143:15147   */\n      0x20\n        /* \"#utility.yul\":15129:15148   */\n      dup2\n      keccak256\n        /* \"#utility.yul\":15171:15194   */\n      swap3\n      dup4\n      add\n      swap3\n        /* \"#utility.yul\":15220:15243   */\n      swap2\n      swap1\n      swap2\n      add\n      swap1\n        /* \"#utility.yul\":15256:15424   */\n    tag_243:\n        /* \"#utility.yul\":15274:15276   */\n      dup3\n        /* \"#utility.yul\":15267:15272   */\n      dup3\n        /* \"#utility.yul\":15264:15277   */\n      lt\n        /* \"#utility.yul\":15256:15424   */\n      iszero\n      tag_245\n      jumpi\n        /* \"#utility.yul\":15335:15368   */\n      tag_246\n        /* \"#utility.yul\":15362:15367   */\n      dup3\n        /* \"#utility.yul\":15335:15368   */\n      tag_228\n      jump\t// in\n    tag_246:\n        /* \"#utility.yul\":15407:15409   */\n      dup1\n        /* \"#utility.yul\":15403:15404   */\n      0x01\n        /* \"#utility.yul\":15396:15401   */\n      dup4\n        /* \"#utility.yul\":15392:15405   */\n      add\n        /* \"#utility.yul\":15385:15410   */\n      sstore\n        /* \"#utility.yul\":15300:15301   */\n      0x02\n        /* \"#utility.yul\":15293:15298   */\n      dup3\n        /* \"#utility.yul\":15289:15302   */\n      add\n        /* \"#utility.yul\":15280:15302   */\n      swap2\n      pop\n        /* \"#utility.yul\":15256:15424   */\n      jump(tag_243)\n    tag_245:\n        /* \"#utility.yul\":15260:15263   */\n      pop\n      pop\n      pop\n        /* \"#utility.yul\":14906:15434   */\n    tag_240:\n      pop\n        /* \"#utility.yul\":11641:11642   */\n      0x00\n        /* \"#utility.yul\":11634:11648   */\n      dup2\n      dup2\n      mstore\n        /* \"#utility.yul\":11678:11682   */\n      0x20\n        /* \"#utility.yul\":11665:11683   */\n      dup2\n      keccak256\n        /* \"#utility.yul\":15457:15462   */\n      dup4\n      swap2\n        /* \"#utility.yul\":15563:15851   */\n    tag_248:\n        /* \"#utility.yul\":15577:15580   */\n      dup6\n        /* \"#utility.yul\":15574:15575   */\n      dup2\n        /* \"#utility.yul\":15571:15581   */\n      lt\n        /* \"#utility.yul\":15563:15851   */\n      iszero\n      tag_232\n      jumpi\n        /* \"#utility.yul\":15623:15756   */\n      tag_251\n        /* \"#utility.yul\":15697:15755   */\n      tag_252\n        /* \"#utility.yul\":15748:15754   */\n      dup5\n        /* \"#utility.yul\":15741:15746   */\n      dup8\n        /* \"#utility.yul\":15697:15755   */\n      tag_193\n      jump\t// in\n    tag_252:\n        /* \"#utility.yul\":15684:15695   */\n      dup4\n        /* \"#utility.yul\":15623:15756   */\n      tag_253\n      jump\t// in\n    tag_251:\n        /* \"#utility.yul\":15791:15793   */\n      0x20\n        /* \"#utility.yul\":15779:15794   */\n      swap3\n      swap1\n      swap3\n      add\n      swap2\n        /* \"#utility.yul\":15839:15840   */\n      0x02\n        /* \"#utility.yul\":15822:15841   */\n      swap2\n      swap1\n      swap2\n      add\n      swap1\n        /* \"#utility.yul\":15596:15597   */\n      0x01\n        /* \"#utility.yul\":15589:15598   */\n      add\n        /* \"#utility.yul\":15563:15851   */\n      jump(tag_248)\n        /* \"#utility.yul\":15862:17062   */\n    tag_235:\n        /* \"#utility.yul\":15970:15988   */\n      0xffffffffffffffff\n        /* \"#utility.yul\":15965:15968   */\n      dup4\n        /* \"#utility.yul\":15962:15989   */\n      gt\n        /* \"#utility.yul\":15959:16012   */\n      iszero\n      tag_256\n      jumpi\n        /* \"#utility.yul\":15992:16010   */\n      tag_256\n      tag_112\n      jump\t// in\n    tag_256:\n        /* \"#utility.yul\":16021:16115   */\n      tag_257\n        /* \"#utility.yul\":16111:16114   */\n      dup4\n        /* \"#utility.yul\":16071:16109   */\n      tag_258\n        /* \"#utility.yul\":16103:16107   */\n      dup4\n        /* \"#utility.yul\":16097:16108   */\n      sload\n        /* \"#utility.yul\":16071:16109   */\n      tag_66\n      jump\t// in\n    tag_258:\n        /* \"#utility.yul\":16065:16069   */\n      dup4\n        /* \"#utility.yul\":16021:16115   */\n      tag_209\n      jump\t// in\n    tag_257:\n        /* \"#utility.yul\":16141:16142   */\n      0x00\n        /* \"#utility.yul\":16166:16168   */\n      0x1f\n        /* \"#utility.yul\":16161:16164   */\n      dup5\n        /* \"#utility.yul\":16158:16169   */\n      gt\n        /* \"#utility.yul\":16183:16184   */\n      0x01\n        /* \"#utility.yul\":16178:16804   */\n      dup2\n      eq\n      tag_260\n      jumpi\n        /* \"#utility.yul\":16848:16849   */\n      0x00\n        /* \"#utility.yul\":16865:16868   */\n      dup6\n        /* \"#utility.yul\":16862:16955   */\n      iszero\n      tag_261\n      jumpi\n      pop\n        /* \"#utility.yul\":16921:16940   */\n      dup4\n      dup3\n      add\n        /* \"#utility.yul\":16908:16941   */\n      calldataload\n        /* \"#utility.yul\":16862:16955   */\n    tag_261:\n      not(0x00)\n        /* \"#utility.yul\":17580:17581   */\n      0x03\n        /* \"#utility.yul\":17576:17587   */\n      dup8\n      swap1\n      shl\n        /* \"#utility.yul\":17572:17596   */\n      shr\n        /* \"#utility.yul\":17568:17597   */\n      not\n        /* \"#utility.yul\":17558:17598   */\n      and\n        /* \"#utility.yul\":17604:17605   */\n      0x01\n        /* \"#utility.yul\":17600:17611   */\n      dup7\n      swap1\n      shl\n        /* \"#utility.yul\":17555:17612   */\n      or\n        /* \"#utility.yul\":16968:17046   */\n      dup4\n      sstore\n        /* \"#utility.yul\":16151:17056   */\n      jump(tag_213)\n        /* \"#utility.yul\":16178:16804   */\n    tag_260:\n        /* \"#utility.yul\":11641:11642   */\n      0x00\n        /* \"#utility.yul\":11634:11648   */\n      dup4\n      dup2\n      mstore\n        /* \"#utility.yul\":11678:11682   */\n      0x20\n        /* \"#utility.yul\":11665:11683   */\n      swap1\n      keccak256\n      not(0x1f)\n        /* \"#utility.yul\":16214:16231   */\n      dup7\n      and\n      swap1\n        /* \"#utility.yul\":16325:16334   */\n      dup4\n        /* \"#utility.yul\":16347:16576   */\n    tag_265:\n        /* \"#utility.yul\":16361:16368   */\n      dup3\n        /* \"#utility.yul\":16358:16359   */\n      dup2\n        /* \"#utility.yul\":16355:16369   */\n      lt\n        /* \"#utility.yul\":16347:16576   */\n      iszero\n      tag_267\n      jumpi\n        /* \"#utility.yul\":16450:16469   */\n      dup7\n      dup6\n      add\n        /* \"#utility.yul\":16437:16470   */\n      calldataload\n        /* \"#utility.yul\":16422:16471   */\n      dup3\n      sstore\n        /* \"#utility.yul\":16557:16561   */\n      0x20\n        /* \"#utility.yul\":16542:16562   */\n      swap5\n      dup6\n      add\n      swap5\n        /* \"#utility.yul\":16510:16511   */\n      0x01\n        /* \"#utility.yul\":16498:16512   */\n      swap1\n      swap3\n      add\n      swap2\n        /* \"#utility.yul\":16377:16389   */\n      add\n        /* \"#utility.yul\":16347:16576   */\n      jump(tag_265)\n    tag_267:\n        /* \"#utility.yul\":16351:16354   */\n      pop\n        /* \"#utility.yul\":16604:16607   */\n      dup7\n        /* \"#utility.yul\":16595:16602   */\n      dup3\n        /* \"#utility.yul\":16592:16608   */\n      lt\n        /* \"#utility.yul\":16589:16748   */\n      iszero\n      tag_268\n      jumpi\n        /* \"#utility.yul\":16728:16729   */\n      0x00\n        /* \"#utility.yul\":16724:16730   */\n      not\n        /* \"#utility.yul\":16718:16721   */\n      0xf8\n        /* \"#utility.yul\":16712:16715   */\n      dup9\n        /* \"#utility.yul\":16709:16710   */\n      0x03\n        /* \"#utility.yul\":16705:16716   */\n      shl\n        /* \"#utility.yul\":16701:16722   */\n      and\n        /* \"#utility.yul\":16697:16731   */\n      shr\n        /* \"#utility.yul\":16693:16732   */\n      not\n        /* \"#utility.yul\":16680:16689   */\n      dup5\n        /* \"#utility.yul\":16675:16678   */\n      dup8\n        /* \"#utility.yul\":16671:16690   */\n      add\n        /* \"#utility.yul\":16658:16691   */\n      calldataload\n        /* \"#utility.yul\":16654:16733   */\n      and\n        /* \"#utility.yul\":16646:16652   */\n      dup2\n        /* \"#utility.yul\":16639:16734   */\n      sstore\n        /* \"#utility.yul\":16589:16748   */\n    tag_268:\n      pop\n      pop\n        /* \"#utility.yul\":16791:16792   */\n      0x01\n        /* \"#utility.yul\":16785:16788   */\n      dup6\n        /* \"#utility.yul\":16782:16783   */\n      0x01\n        /* \"#utility.yul\":16778:16789   */\n      shl\n        /* \"#utility.yul\":16774:16793   */\n      add\n        /* \"#utility.yul\":16768:16772   */\n      dup4\n        /* \"#utility.yul\":16761:16794   */\n      sstore\n        /* \"#utility.yul\":16151:17056   */\n      pop\n      pop\n        /* \"#utility.yul\":15862:17062   */\n      pop\n      pop\n      pop\n      jump\t// out\n        /* \"#utility.yul\":17067:17447   */\n    tag_66:\n        /* \"#utility.yul\":17146:17147   */\n      0x01\n        /* \"#utility.yul\":17142:17154   */\n      dup2\n      dup2\n      shr\n      swap1\n        /* \"#utility.yul\":17189:17201   */\n      dup3\n      and\n      dup1\n        /* \"#utility.yul\":17210:17271   */\n      tag_270\n      jumpi\n        /* \"#utility.yul\":17264:17268   */\n      0x7f\n        /* \"#utility.yul\":17256:17262   */\n      dup3\n        /* \"#utility.yul\":17252:17269   */\n      and\n        /* \"#utility.yul\":17242:17269   */\n      swap2\n      pop\n        /* \"#utility.yul\":17210:17271   */\n    tag_270:\n        /* \"#utility.yul\":17317:17319   */\n      0x20\n        /* \"#utility.yul\":17309:17315   */\n      dup3\n        /* \"#utility.yul\":17306:17320   */\n      lt\n        /* \"#utility.yul\":17286:17304   */\n      dup2\n        /* \"#utility.yul\":17283:17321   */\n      eq\n        /* \"#utility.yul\":17280:17441   */\n      iszero\n      tag_271\n      jumpi\n        /* \"#utility.yul\":17363:17373   */\n      0x4e487b71\n        /* \"#utility.yul\":17358:17361   */\n      0xe0\n        /* \"#utility.yul\":17354:17374   */\n      shl\n        /* \"#utility.yul\":17351:17352   */\n      0x00\n        /* \"#utility.yul\":17344:17375   */\n      mstore\n        /* \"#utility.yul\":17398:17402   */\n      0x22\n        /* \"#utility.yul\":17395:17396   */\n      0x04\n        /* \"#utility.yul\":17388:17403   */\n      mstore\n        /* \"#utility.yul\":17426:17430   */\n      0x24\n        /* \"#utility.yul\":17423:17424   */\n      0x00\n        /* \"#utility.yul\":17416:17431   */\n      revert\n        /* \"#utility.yul\":17280:17441   */\n    tag_271:\n      pop\n        /* \"#utility.yul\":17067:17447   */\n      swap2\n      swap1\n      pop\n      jump\t// out\n        /* \"#utility.yul\":17623:17750   */\n    tag_35:\n        /* \"#utility.yul\":17684:17694   */\n      0x4e487b71\n        /* \"#utility.yul\":17679:17682   */\n      0xe0\n        /* \"#utility.yul\":17675:17695   */\n      shl\n        /* \"#utility.yul\":17672:17673   */\n      0x00\n        /* \"#utility.yul\":17665:17696   */\n      mstore\n        /* \"#utility.yul\":17715:17719   */\n      0x01\n        /* \"#utility.yul\":17712:17713   */\n      0x04\n        /* \"#utility.yul\":17705:17720   */\n      mstore\n        /* \"#utility.yul\":17739:17743   */\n      0x24\n        /* \"#utility.yul\":17736:17737   */\n      0x00\n        /* \"#utility.yul\":17729:17744   */\n      revert\n        /* \"#utility.yul\":17755:17882   */\n    tag_112:\n        /* \"#utility.yul\":17816:17826   */\n      0x4e487b71\n        /* \"#utility.yul\":17811:17814   */\n      0xe0\n        /* \"#utility.yul\":17807:17827   */\n      shl\n        /* \"#utility.yul\":17804:17805   */\n      0x00\n        /* \"#utility.yul\":17797:17828   */\n      mstore\n        /* \"#utility.yul\":17847:17851   */\n      0x41\n        /* \"#utility.yul\":17844:17845   */\n      0x04\n        /* \"#utility.yul\":17837:17852   */\n      mstore\n        /* \"#utility.yul\":17871:17875   */\n      0x24\n        /* \"#utility.yul\":17868:17869   */\n      0x00\n        /* \"#utility.yul\":17861:17876   */\n      revert\n        /* \"#utility.yul\":17887:18063   */\n    tag_275:\n        /* \"#utility.yul\":17932:17943   */\n      0x00\n        /* \"#utility.yul\":17984:17987   */\n      dup2\n        /* \"#utility.yul\":17971:17988   */\n      calldataload\n        /* \"#utility.yul\":17997:18028   */\n      tag_277\n        /* \"#utility.yul\":18022:18027   */\n      dup2\n        /* \"#utility.yul\":17997:18028   */\n      tag_91\n      jump\t// in\n    tag_277:\n        /* \"#utility.yul\":18052:18057   */\n      swap3\n        /* \"#utility.yul\":17887:18063   */\n      swap2\n      pop\n      pop\n      jump\t// out\n        /* \"#utility.yul\":18068:18238   */\n    tag_278:\n        /* \"#utility.yul\":18110:18121   */\n      0x00\n        /* \"#utility.yul\":18162:18165   */\n      dup2\n        /* \"#utility.yul\":18149:18166   */\n      calldataload\n        /* \"#utility.yul\":18175:18203   */\n      tag_277\n        /* \"#utility.yul\":18197:18202   */\n      dup2\n        /* \"#utility.yul\":18175:18203   */\n      tag_95\n      jump\t// in\n        /* \"#utility.yul\":18243:18423   */\n    tag_281:\n        /* \"#utility.yul\":18290:18301   */\n      0x00\n        /* \"#utility.yul\":18342:18345   */\n      dup2\n        /* \"#utility.yul\":18329:18346   */\n      calldataload\n        /* \"#utility.yul\":18355:18388   */\n      tag_277\n        /* \"#utility.yul\":18382:18387   */\n      dup2\n        /* \"#utility.yul\":18355:18388   */\n      tag_99\n      jump\t// in\n        /* \"#utility.yul\":18428:19058   */\n    tag_228:\n        /* \"#utility.yul\":18498:18536   */\n      tag_285\n        /* \"#utility.yul\":18530:18534   */\n      dup2\n        /* \"#utility.yul\":18524:18535   */\n      sload\n        /* \"#utility.yul\":18498:18536   */\n      tag_66\n      jump\t// in\n    tag_285:\n        /* \"#utility.yul\":18562:18568   */\n      dup1\n        /* \"#utility.yul\":18555:18569   */\n      iszero\n        /* \"#utility.yul\":18545:19052   */\n      tag_218\n      jumpi\n        /* \"#utility.yul\":18611:18613   */\n      0x1f\n        /* \"#utility.yul\":18603:18609   */\n      dup2\n        /* \"#utility.yul\":18600:18614   */\n      gt\n        /* \"#utility.yul\":18632:18633   */\n      0x01\n        /* \"#utility.yul\":18627:19002   */\n      dup2\n      eq\n      tag_288\n      jumpi\n      pop\n      pop\n        /* \"#utility.yul\":19038:19039   */\n      0x00\n        /* \"#utility.yul\":19025:19040   */\n      swap1\n      sstore\n        /* \"#utility.yul\":12993:13411   */\n      jump\t// out\n        /* \"#utility.yul\":18627:19002   */\n    tag_288:\n        /* \"#utility.yul\":18662:18663   */\n      0x00\n        /* \"#utility.yul\":18691:18695   */\n      dup4\n        /* \"#utility.yul\":18687:18689   */\n      dup2\n        /* \"#utility.yul\":18680:18696   */\n      mstore\n        /* \"#utility.yul\":18739:18743   */\n      0x20\n        /* \"#utility.yul\":18735:18737   */\n      dup2\n        /* \"#utility.yul\":18725:18744   */\n      keccak256\n        /* \"#utility.yul\":18761:18837   */\n      tag_289\n        /* \"#utility.yul\":18831:18833   */\n      0x1f\n        /* \"#utility.yul\":18823:18829   */\n      dup6\n        /* \"#utility.yul\":18819:18834   */\n      add\n        /* \"#utility.yul\":18816:18817   */\n      0x05\n        /* \"#utility.yul\":18812:18835   */\n      shr\n        /* \"#utility.yul\":18806:18810   */\n      dup3\n        /* \"#utility.yul\":18802:18836   */\n      add\n        /* \"#utility.yul\":18798:18799   */\n      0x01\n        /* \"#utility.yul\":18792:18796   */\n      dup4\n        /* \"#utility.yul\":18788:18800   */\n      add\n        /* \"#utility.yul\":18761:18837   */\n      tag_214\n      jump\t// in\n    tag_289:\n      pop\n        /* \"#utility.yul\":18854:18870   */\n      dup4\n      dup2\n      mstore\n        /* \"#utility.yul\":18915:18919   */\n      0x20\n        /* \"#utility.yul\":18901:18920   */\n      dup2\n      keccak256\n        /* \"#utility.yul\":18937:18953   */\n      dup2\n      dup6\n      sstore\n        /* \"#utility.yul\":18970:18988   */\n      sstore\n        /* \"#utility.yul\":18593:19042   */\n      pop\n        /* \"#utility.yul\":18545:19052   */\n      pop\n        /* \"#utility.yul\":18428:19058   */\n      pop\n      jump\t// out\n        /* \"#utility.yul\":19063:19258   */\n    tag_290:\n        /* \"#utility.yul\":19167:19178   */\n      dup1\n      sload\n      not(sub(shl(0xa0, 0x01), 0x01))\n        /* \"#utility.yul\":19163:19217   */\n      and\n      sub(shl(0xa0, 0x01), 0x01)\n        /* \"#utility.yul\":19219:19250   */\n      swap3\n      swap1\n      swap3\n      and\n        /* \"#utility.yul\":19160:19251   */\n      swap2\n      swap1\n      swap2\n      or\n        /* \"#utility.yul\":19147:19252   */\n      swap1\n      sstore\n        /* \"#utility.yul\":19063:19258   */\n      jump\t// out\n        /* \"#utility.yul\":19460:19798   */\n    tag_294:\n        /* \"#utility.yul\":19568:19569   */\n      0x05\n        /* \"#utility.yul\":19561:19566   */\n      dup3\n        /* \"#utility.yul\":19558:19570   */\n      lt\n        /* \"#utility.yul\":19548:19691   */\n      tag_296\n      jumpi\n        /* \"#utility.yul\":19613:19623   */\n      0x4e487b71\n        /* \"#utility.yul\":19608:19611   */\n      0xe0\n        /* \"#utility.yul\":19604:19624   */\n      shl\n        /* \"#utility.yul\":19601:19602   */\n      0x00\n        /* \"#utility.yul\":19594:19625   */\n      mstore\n        /* \"#utility.yul\":19648:19652   */\n      0x21\n        /* \"#utility.yul\":19645:19646   */\n      0x04\n        /* \"#utility.yul\":19638:19653   */\n      mstore\n        /* \"#utility.yul\":19676:19680   */\n      0x24\n        /* \"#utility.yul\":19673:19674   */\n      0x00\n        /* \"#utility.yul\":19666:19681   */\n      revert\n        /* \"#utility.yul\":19548:19691   */\n    tag_296:\n        /* \"#utility.yul\":19736:19739   */\n      0xff\n        /* \"#utility.yul\":19732:19740   */\n      not\n        /* \"#utility.yul\":19725:19729   */\n      dup2\n        /* \"#utility.yul\":19719:19730   */\n      sload\n        /* \"#utility.yul\":19715:19741   */\n      and\n        /* \"#utility.yul\":19786:19789   */\n      0xff\n        /* \"#utility.yul\":19779:19784   */\n      dup4\n        /* \"#utility.yul\":19775:19790   */\n      and\n        /* \"#utility.yul\":19766:19773   */\n      dup2\n        /* \"#utility.yul\":19763:19791   */\n      or\n        /* \"#utility.yul\":19757:19761   */\n      dup3\n        /* \"#utility.yul\":19750:19792   */\n      sstore\n      pop\n        /* \"#utility.yul\":19460:19798   */\n      pop\n      pop\n      jump\t// out\n        /* \"#utility.yul\":19803:21673   */\n    tag_52:\n        /* \"#utility.yul\":19970:20026   */\n      tag_298\n        /* \"#utility.yul\":20020:20025   */\n      dup3\n        /* \"#utility.yul\":20013:20018   */\n      dup4\n        /* \"#utility.yul\":19970:20026   */\n      tag_39\n      jump\t// in\n    tag_298:\n        /* \"#utility.yul\":20035:20126   */\n      tag_299\n        /* \"#utility.yul\":20112:20125   */\n      dup2\n        /* \"#utility.yul\":20099:20110   */\n      dup4\n        /* \"#utility.yul\":20093:20097   */\n      dup6\n        /* \"#utility.yul\":20035:20126   */\n      tag_235\n      jump\t// in\n    tag_299:\n      pop\n      pop\n        /* \"#utility.yul\":20135:20247   */\n      tag_300\n        /* \"#utility.yul\":20201:20246   */\n      tag_301\n        /* \"#utility.yul\":20242:20244   */\n      0x20\n        /* \"#utility.yul\":20235:20240   */\n      dup5\n        /* \"#utility.yul\":20231:20245   */\n      add\n        /* \"#utility.yul\":20201:20246   */\n      tag_281\n      jump\t// in\n    tag_301:\n        /* \"#utility.yul\":20197:20198   */\n      0x01\n        /* \"#utility.yul\":20191:20195   */\n      dup4\n        /* \"#utility.yul\":20187:20199   */\n      add\n        /* \"#utility.yul\":20135:20247   */\n      tag_294\n      jump\t// in\n    tag_300:\n        /* \"#utility.yul\":20292:20370   */\n      tag_302\n        /* \"#utility.yul\":20366:20368   */\n      0x40\n        /* \"#utility.yul\":20359:20364   */\n      dup4\n        /* \"#utility.yul\":20355:20369   */\n      add\n        /* \"#utility.yul\":20348:20353   */\n      dup4\n        /* \"#utility.yul\":20292:20370   */\n      tag_184\n      jump\t// in\n    tag_302:\n        /* \"#utility.yul\":20379:20505   */\n      tag_303\n        /* \"#utility.yul\":20491:20504   */\n      dup2\n        /* \"#utility.yul\":20476:20489   */\n      dup4\n        /* \"#utility.yul\":20472:20473   */\n      0x02\n        /* \"#utility.yul\":20466:20470   */\n      dup7\n        /* \"#utility.yul\":20462:20474   */\n      add\n        /* \"#utility.yul\":20379:20505   */\n      tag_219\n      jump\t// in\n    tag_303:\n      pop\n      pop\n        /* \"#utility.yul\":20550:20615   */\n      tag_304\n        /* \"#utility.yul\":20611:20613   */\n      0x60\n        /* \"#utility.yul\":20604:20609   */\n      dup4\n        /* \"#utility.yul\":20600:20614   */\n      add\n        /* \"#utility.yul\":20593:20598   */\n      dup4\n        /* \"#utility.yul\":20550:20615   */\n      tag_39\n      jump\t// in\n    tag_304:\n        /* \"#utility.yul\":20624:20725   */\n      tag_305\n        /* \"#utility.yul\":20711:20724   */\n      dup2\n        /* \"#utility.yul\":20696:20709   */\n      dup4\n        /* \"#utility.yul\":20692:20693   */\n      0x03\n        /* \"#utility.yul\":20686:20690   */\n      dup7\n        /* \"#utility.yul\":20682:20694   */\n      add\n        /* \"#utility.yul\":20624:20725   */\n      tag_235\n      jump\t// in\n    tag_305:\n      pop\n      pop\n        /* \"#utility.yul\":20770:20836   */\n      tag_306\n        /* \"#utility.yul\":20831:20834   */\n      0x80\n        /* \"#utility.yul\":20824:20829   */\n      dup4\n        /* \"#utility.yul\":20820:20835   */\n      add\n        /* \"#utility.yul\":20813:20818   */\n      dup4\n        /* \"#utility.yul\":20770:20836   */\n      tag_39\n      jump\t// in\n    tag_306:\n        /* \"#utility.yul\":20845:20946   */\n      tag_307\n        /* \"#utility.yul\":20932:20945   */\n      dup2\n        /* \"#utility.yul\":20917:20930   */\n      dup4\n        /* \"#utility.yul\":20913:20914   */\n      0x04\n        /* \"#utility.yul\":20907:20911   */\n      dup7\n        /* \"#utility.yul\":20903:20915   */\n      add\n        /* \"#utility.yul\":20845:20946   */\n      tag_235\n      jump\t// in\n    tag_307:\n      pop\n      pop\n        /* \"#utility.yul\":20955:21062   */\n      tag_308\n        /* \"#utility.yul\":21017:21061   */\n      tag_309\n        /* \"#utility.yul\":21056:21059   */\n      0xa0\n        /* \"#utility.yul\":21049:21054   */\n      dup5\n        /* \"#utility.yul\":21045:21060   */\n      add\n        /* \"#utility.yul\":21017:21061   */\n      tag_275\n      jump\t// in\n    tag_309:\n        /* \"#utility.yul\":21013:21014   */\n      0x05\n        /* \"#utility.yul\":21007:21011   */\n      dup4\n        /* \"#utility.yul\":21003:21015   */\n      add\n        /* \"#utility.yul\":20955:21062   */\n      tag_290\n      jump\t// in\n    tag_308:\n        /* \"#utility.yul\":21107:21186   */\n      tag_310\n        /* \"#utility.yul\":21181:21184   */\n      0xc0\n        /* \"#utility.yul\":21174:21179   */\n      dup4\n        /* \"#utility.yul\":21170:21185   */\n      add\n        /* \"#utility.yul\":21163:21168   */\n      dup4\n        /* \"#utility.yul\":21107:21186   */\n      tag_184\n      jump\t// in\n    tag_310:\n        /* \"#utility.yul\":21195:21335   */\n      tag_311\n        /* \"#utility.yul\":21321:21334   */\n      dup2\n        /* \"#utility.yul\":21306:21319   */\n      dup4\n        /* \"#utility.yul\":21302:21303   */\n      0x06\n        /* \"#utility.yul\":21296:21300   */\n      dup7\n        /* \"#utility.yul\":21292:21304   */\n      add\n        /* \"#utility.yul\":21195:21335   */\n      tag_236\n      jump\t// in\n    tag_311:\n      pop\n      pop\n        /* \"#utility.yul\":21382:21448   */\n      tag_312\n        /* \"#utility.yul\":21443:21446   */\n      0xe0\n        /* \"#utility.yul\":21436:21441   */\n      dup4\n        /* \"#utility.yul\":21432:21447   */\n      add\n        /* \"#utility.yul\":21425:21430   */\n      dup4\n        /* \"#utility.yul\":21382:21448   */\n      tag_39\n      jump\t// in\n    tag_312:\n        /* \"#utility.yul\":21457:21560   */\n      tag_313\n        /* \"#utility.yul\":21545:21559   */\n      dup2\n        /* \"#utility.yul\":21529:21543   */\n      dup4\n        /* \"#utility.yul\":21525:21526   */\n      0x07\n        /* \"#utility.yul\":21519:21523   */\n      dup7\n        /* \"#utility.yul\":21515:21527   */\n      add\n        /* \"#utility.yul\":21457:21560   */\n      tag_235\n      jump\t// in\n    tag_313:\n      pop\n      pop\n        /* \"#utility.yul\":21569:21667   */\n      tag_218\n        /* \"#utility.yul\":21625:21666   */\n      tag_315\n        /* \"#utility.yul\":21661:21664   */\n      0x0100\n        /* \"#utility.yul\":21654:21659   */\n      dup5\n        /* \"#utility.yul\":21650:21665   */\n      add\n        /* \"#utility.yul\":21625:21666   */\n      tag_278\n      jump\t// in\n    tag_315:\n        /* \"#utility.yul\":21621:21622   */\n      0x08\n        /* \"#utility.yul\":21615:21619   */\n      dup4\n        /* \"#utility.yul\":21611:21623   */\n      add\n        /* \"#utility.yul\":19377:19380   */\n      0xff\n        /* \"#utility.yul\":19373:19381   */\n      not\n        /* \"#utility.yul\":19366:19370   */\n      dup2\n        /* \"#utility.yul\":19360:19371   */\n      sload\n        /* \"#utility.yul\":19356:19382   */\n      and\n        /* \"#utility.yul\":19443:19446   */\n      0xff\n        /* \"#utility.yul\":19434:19439   */\n      dup4\n        /* \"#utility.yul\":19427:19440   */\n      iszero\n        /* \"#utility.yul\":19420:19441   */\n      iszero\n        /* \"#utility.yul\":19416:19447   */\n      and\n        /* \"#utility.yul\":19407:19414   */\n      dup2\n        /* \"#utility.yul\":19404:19448   */\n      or\n        /* \"#utility.yul\":19398:19402   */\n      dup3\n        /* \"#utility.yul\":19391:19449   */\n      sstore\n      pop\n        /* \"#utility.yul\":19263:19455   */\n      pop\n      pop\n      jump\n        /* \"#utility.yul\":21678:22144   */\n    tag_253:\n        /* \"#utility.yul\":21809:21865   */\n      tag_317\n        /* \"#utility.yul\":21859:21864   */\n      dup3\n        /* \"#utility.yul\":21852:21857   */\n      dup4\n        /* \"#utility.yul\":21809:21865   */\n      tag_39\n      jump\t// in\n    tag_317:\n        /* \"#utility.yul\":21874:21965   */\n      tag_318\n        /* \"#utility.yul\":21951:21964   */\n      dup2\n        /* \"#utility.yul\":21938:21949   */\n      dup4\n        /* \"#utility.yul\":21932:21936   */\n      dup6\n        /* \"#utility.yul\":21874:21965   */\n      tag_235\n      jump\t// in\n    tag_318:\n      pop\n      pop\n        /* \"#utility.yul\":22013:22015   */\n      0x20\n        /* \"#utility.yul\":22006:22011   */\n      dup3\n        /* \"#utility.yul\":22002:22016   */\n      add\n        /* \"#utility.yul\":21989:22017   */\n      calldataload\n        /* \"#utility.yul\":22026:22059   */\n      tag_319\n        /* \"#utility.yul\":22051:22058   */\n      dup2\n        /* \"#utility.yul\":22026:22059   */\n      tag_91\n      jump\t// in\n    tag_319:\n        /* \"#utility.yul\":22068:22138   */\n      tag_211\n        /* \"#utility.yul\":22130:22137   */\n      dup2\n        /* \"#utility.yul\":22126:22127   */\n      0x01\n        /* \"#utility.yul\":22120:22124   */\n      dup5\n        /* \"#utility.yul\":22116:22128   */\n      add\n        /* \"#utility.yul\":22068:22138   */\n      tag_290\n      jump\t// in\n        /* \"#utility.yul\":22149:22280   */\n    tag_91:\n      sub(shl(0xa0, 0x01), 0x01)\n        /* \"#utility.yul\":22224:22255   */\n      dup2\n      and\n        /* \"#utility.yul\":22214:22256   */\n      dup2\n      eq\n        /* \"#utility.yul\":22204:22274   */\n      tag_63\n      jumpi\n        /* \"#utility.yul\":22270:22271   */\n      0x00\n        /* \"#utility.yul\":22267:22268   */\n      dup1\n        /* \"#utility.yul\":22260:22272   */\n      revert\n        /* \"#utility.yul\":22285:22403   */\n    tag_95:\n        /* \"#utility.yul\":22371:22376   */\n      dup1\n        /* \"#utility.yul\":22364:22377   */\n      iszero\n        /* \"#utility.yul\":22357:22378   */\n      iszero\n        /* \"#utility.yul\":22350:22355   */\n      dup2\n        /* \"#utility.yul\":22347:22379   */\n      eq\n        /* \"#utility.yul\":22337:22397   */\n      tag_63\n      jumpi\n        /* \"#utility.yul\":22393:22394   */\n      0x00\n        /* \"#utility.yul\":22390:22391   */\n      dup1\n        /* \"#utility.yul\":22383:22395   */\n      revert\n        /* \"#utility.yul\":22408:22511   */\n    tag_99:\n        /* \"#utility.yul\":22485:22486   */\n      0x05\n        /* \"#utility.yul\":22478:22483   */\n      dup2\n        /* \"#utility.yul\":22475:22487   */\n      lt\n        /* \"#utility.yul\":22465:22505   */\n      tag_63\n      jumpi\n        /* \"#utility.yul\":22501:22502   */\n      0x00\n        /* \"#utility.yul\":22498:22499   */\n      dup1\n        /* \"#utility.yul\":22491:22503   */\n      revert\n\n    auxdata: 0xa2646970667358221220f14086b614158da45a1e0367310241c50ee406f871febd420fb8e64b6132a60564736f6c63430008070033\n}\n",
				"bytecode": {
					"linkReferences": {},
					"object": "608060405234801561001057600080fd5b50600080546001600160a01b031933818116919092161717905561110f806100396000396000f3fe6080604052600436106100435760003560e01c806314da447f14610052578063b040aff614610074578063f2fde38b14610087578063f86025c3146100a757600080fd5b3661004d57600080fd5b600080fd5b34801561005e57600080fd5b5061007261006d3660046105dc565b6100e3565b005b6100726100823660046106b1565b610109565b34801561009357600080fd5b506100726100a23660046105dc565b61025b565b3480156100b357600080fd5b506100c76100c2366004610600565b6102e6565b6040516100da97969594939291906109eb565b60405180910390f35b6000546001600160a01b031633146100fd576100fd610e79565b806001600160a01b0316ff5b6101138180610abc565b1515905061015f5760405162461bcd60e51b81526020600482015260146024820152731b985b594818d85b881b9bdd081899481b9d5b1b60621b60448201526064015b60405180910390fd5b600261016b8280610abc565b604051610179929190610886565b9081526040519081900360200190206008015460ff16156101dc5760405162461bcd60e51b815260206004820152601a60248201527f73746172747570206e616d6520686173206265656e20757365640000000000006044820152606401610156565b8060026101e98280610abc565b6040516101f7929190610886565b9081526040519081900360200190206102108282610f76565b507f73f46948d120a56e9fea7152c9545282fb4a4bb4d648c110ff98352525745595905061023e8280610abc565b83336040516102509493929190610896565b60405180910390a150565b6000546001600160a01b0316331461027557610275610e79565b6001600160a01b0381166102da5760405162461bcd60e51b815260206004820152602660248201527f4f776e61626c653a206e6577206f776e657220697320746865207a65726f206160448201526564647265737360d01b6064820152608401610156565b6102e381610566565b50565b805160208183018101805160028252928201919093012091528054819061030c90610e3e565b80601f016020809104026020016040519081016040528092919081815260200182805461033890610e3e565b80156103855780601f1061035a57610100808354040283529160200191610385565b820191906000526020600020905b81548152906001019060200180831161036857829003601f168201915b5050506001840154600385018054949560ff9092169491935091506103a990610e3e565b80601f01602080910402602001604051908101604052809291908181526020018280546103d590610e3e565b80156104225780601f106103f757610100808354040283529160200191610422565b820191906000526020600020905b81548152906001019060200180831161040557829003601f168201915b50505050509080600401805461043790610e3e565b80601f016020809104026020016040519081016040528092919081815260200182805461046390610e3e565b80156104b05780601f10610485576101008083540402835291602001916104b0565b820191906000526020600020905b81548152906001019060200180831161049357829003601f168201915b505050600584015460078501805494956001600160a01b039092169491935091506104da90610e3e565b80601f016020809104026020016040519081016040528092919081815260200182805461050690610e3e565b80156105535780601f1061052857610100808354040283529160200191610553565b820191906000526020600020905b81548152906001019060200180831161053657829003601f168201915b5050506008909301549192505060ff1687565b600080546001600160a01b038381166001600160a01b0319831681178455604051919092169283917f8be0079c531659141344cd1fd0a4f28419497f9722a3daafe3b4186f6b6457e09190a35050565b80356105c1816110a9565b919050565b80356105c1816110be565b80356105c1816110cc565b6000602082840312156105ee57600080fd5b81356105f9816110a9565b9392505050565b60006020828403121561061257600080fd5b813567ffffffffffffffff8082111561062a57600080fd5b818401915084601f83011261063e57600080fd5b81358181111561065057610650610e8f565b604051601f8201601f19908116603f0116810190838211818310171561067857610678610e8f565b8160405282815287602084870101111561069157600080fd5b826020860160208301376000928101602001929092525095945050505050565b6000602082840312156106c357600080fd5b813567ffffffffffffffff8111156106da57600080fd5b820161012081850312156105f957600080fd5b60008383855260208086019550808560051b8301018460005b8781101561074057848303601f190189526107218288610b6c565b61072c858284610810565b9a86019a9450505090830190600101610706565b5090979650505050505050565b60008383855260208086019550808560051b830101846000805b888110156107e057858403601f19018a52823536899003603e1901811261078c578283fd5b8801604061079a8280610b6c565b8288526107aa8389018284610810565b925050508682013591506107bd826110a9565b6001600160a01b0391909116948601949094529884019891840191600101610767565b509198975050505050505050565b6005811061080c57634e487b7160e01b600052602160045260246000fd5b9052565b81835281816020850137506000828201602090810191909152601f909101601f19169091010190565b6000815180845260005b8181101561085f57602081850181015186830182015201610843565b81811115610871576000602083870101525b50601f01601f19169290920160200192915050565b8183823760009101908152919050565b6060815260006108aa606083018688610810565b82810360208401526101206108bf8687610b6c565b8284526108cf8385018284610810565b925050506108df602087016105d1565b6108ec60208401826107ee565b506108fa6040870187610b23565b838303604085015261090d8382846106ed565b9250505061091e6060870187610b6c565b8383036060850152610931838284610810565b925050506109426080870187610b6c565b8383036080850152610955838284610810565b9250505061096560a087016105b6565b6001600160a01b031660a083015261098060c0870187610b23565b83830360c085015261099383828461074d565b925050506109a460e0870187610b6c565b83830360e08501526109b7838284610810565b925050506101006109c98188016105c6565b15159201919091526001600160a01b0384166040840152905095945050505050565b60e0815260006109fe60e083018a610839565b610a0b602084018a6107ee565b8281036040840152610a1d8189610839565b90508281036060840152610a318188610839565b6001600160a01b038716608085015283810360a08501529050610a548186610839565b91505082151560c083015298975050505050505050565b6000808335601e19843603018112610a8257600080fd5b83018035915067ffffffffffffffff821115610a9d57600080fd5b6020019150600581901b3603821315610ab557600080fd5b9250929050565b6000808335601e19843603018112610ad357600080fd5b83018035915067ffffffffffffffff821115610aee57600080fd5b602001915036819003821315610ab557600080fd5b60008235603e19833603018112610b1957600080fd5b9190910192915050565b6000808335601e19843603018112610b3a57600080fd5b830160208101925035905067ffffffffffffffff811115610b5a57600080fd5b8060051b3603831315610ab557600080fd5b6000808335601e19843603018112610b8357600080fd5b830160208101925035905067ffffffffffffffff811115610ba357600080fd5b803603831315610ab557600080fd5b60006001600160ff1b03821160011615610bdc57634e487b7160e01b600052601160045260246000fd5b5060011b90565b601f821115610c1f57806000526020600020601f840160051c81016020851015610c0a5750805b610c1c601f850160051c830182610c24565b50505b505050565b5b81811015610c395760008155600101610c25565b5050565b600160401b831115610c5157610c51610e8f565b805483825580841015610c8d576000828152602090208481019082015b80821015610c8a57610c7f82610ed2565b600182019150610c6e565b50505b5060008181526020812083915b85811015610ccc57610cac8386610abc565b610cb7818386610d7e565b50506020929092019160019182019101610c9a565b505050505050565b600160401b831115610ce857610ce8610e8f565b805483825580841015610d4057610cfe81610bb2565b610d0785610bb2565b6000848152602081209283019291909101905b82821015610d3c57610d2b82610ed2565b806001830155600282019150610d1a565b5050505b5060008181526020812083915b85811015610ccc57610d68610d628487610b03565b83611077565b6020929092019160029190910190600101610d4d565b67ffffffffffffffff831115610d9657610d96610e8f565b610daa83610da48354610e3e565b83610be3565b6000601f841160018114610dde5760008515610dc65750838201355b600019600387901b1c1916600186901b178355610c1c565b600083815260209020601f19861690835b82811015610e0f5786850135825560209485019460019092019101610def565b5086821015610e2c5760001960f88860031b161c19848701351681555b505060018560011b0183555050505050565b600181811c90821680610e5257607f821691505b60208210811415610e7357634e487b7160e01b600052602260045260246000fd5b50919050565b634e487b7160e01b600052600160045260246000fd5b634e487b7160e01b600052604160045260246000fd5b60008135610eb2816110a9565b92915050565b60008135610eb2816110be565b60008135610eb2816110cc565b610edc8154610e3e565b8015610c3957601f811160018114610ef657505060009055565b600083815260208120610f14601f850160051c820160018301610c24565b508381526020812081855555505050565b80546001600160a01b0319166001600160a01b0392909216919091179055565b60058210610f6357634e487b7160e01b600052602160045260246000fd5b60ff1981541660ff831681178255505050565b610f808283610abc565b610f8b818385610d7e565b5050610fa5610f9c60208401610ec5565b60018301610f45565b610fb26040830183610a6b565b610fc0818360028601610c3d565b5050610fcf6060830183610abc565b610fdd818360038601610d7e565b5050610fec6080830183610abc565b610ffa818360048601610d7e565b505061101461100b60a08401610ea5565b60058301610f25565b61102160c0830183610a6b565b61102f818360068601610cd4565b505061103e60e0830183610abc565b61104c818360078601610d7e565b5050610c3961105e6101008401610eb8565b6008830160ff1981541660ff8315151681178255505050565b6110818283610abc565b61108c818385610d7e565b5050602082013561109c816110a9565b610c1f8160018401610f25565b6001600160a01b03811681146102e357600080fd5b80151581146102e357600080fd5b600581106102e357600080fdfea2646970667358221220f14086b614158da45a1e0367310241c50ee406f871febd420fb8e64b6132a60564736f6c63430008070033",
					"opcodes": "PUSH1 0x80 PUSH1 0x40 MSTORE CALLVALUE DUP1 ISZERO PUSH2 0x10 JUMPI PUSH1 0x0 DUP1 REVERT JUMPDEST POP PUSH1 0x0 DUP1 SLOAD PUSH1 0x1 PUSH1 0x1 PUSH1 0xA0 SHL SUB NOT CALLER DUP2 DUP2 AND SWAP2 SWAP1 SWAP3 AND OR OR SWAP1 SSTORE PUSH2 0x110F DUP1 PUSH2 0x39 PUSH1 0x0 CODECOPY PUSH1 0x0 RETURN INVALID PUSH1 0x80 PUSH1 0x40 MSTORE PUSH1 0x4 CALLDATASIZE LT PUSH2 0x43 JUMPI PUSH1 0x0 CALLDATALOAD PUSH1 0xE0 SHR DUP1 PUSH4 0x14DA447F EQ PUSH2 0x52 JUMPI DUP1 PUSH4 0xB040AFF6 EQ PUSH2 0x74 JUMPI DUP1 PUSH4 0xF2FDE38B EQ PUSH2 0x87 JUMPI DUP1 PUSH4 0xF86025C3 EQ PUSH2 0xA7 JUMPI PUSH1 0x0 DUP1 REVERT JUMPDEST CALLDATASIZE PUSH2 0x4D JUMPI PUSH1 0x0 DUP1 REVERT JUMPDEST PUSH1 0x0 DUP1 REVERT JUMPDEST CALLVALUE DUP1 ISZERO PUSH2 0x5E JUMPI PUSH1 0x0 DUP1 REVERT JUMPDEST POP PUSH2 0x72 PUSH2 0x6D CALLDATASIZE PUSH1 0x4 PUSH2 0x5DC JUMP JUMPDEST PUSH2 0xE3 JUMP JUMPDEST STOP JUMPDEST PUSH2 0x72 PUSH2 0x82 CALLDATASIZE PUSH1 0x4 PUSH2 0x6B1 JUMP JUMPDEST PUSH2 0x109 JUMP JUMPDEST CALLVALUE DUP1 ISZERO PUSH2 0x93 JUMPI PUSH1 0x0 DUP1 REVERT JUMPDEST POP PUSH2 0x72 PUSH2 0xA2 CALLDATASIZE PUSH1 0x4 PUSH2 0x5DC JUMP JUMPDEST PUSH2 0x25B JUMP JUMPDEST CALLVALUE DUP1 ISZERO PUSH2 0xB3 JUMPI PUSH1 0x0 DUP1 REVERT JUMPDEST POP PUSH2 0xC7 PUSH2 0xC2 CALLDATASIZE PUSH1 0x4 PUSH2 0x600 JUMP JUMPDEST PUSH2 0x2E6 JUMP JUMPDEST PUSH1 0x40 MLOAD PUSH2 0xDA SWAP8 SWAP7 SWAP6 SWAP5 SWAP4 SWAP3 SWAP2 SWAP1 PUSH2 0x9EB JUMP JUMPDEST PUSH1 0x40 MLOAD DUP1 SWAP2 SUB SWAP1 RETURN JUMPDEST PUSH1 0x0 SLOAD PUSH1 0x1 PUSH1 0x1 PUSH1 0xA0 SHL SUB AND CALLER EQ PUSH2 0xFD JUMPI PUSH2 0xFD PUSH2 0xE79 JUMP JUMPDEST DUP1 PUSH1 0x1 PUSH1 0x1 PUSH1 0xA0 SHL SUB AND SELFDESTRUCT JUMPDEST PUSH2 0x113 DUP2 DUP1 PUSH2 0xABC JUMP JUMPDEST ISZERO ISZERO SWAP1 POP PUSH2 0x15F JUMPI PUSH1 0x40 MLOAD PUSH3 0x461BCD PUSH1 0xE5 SHL DUP2 MSTORE PUSH1 0x20 PUSH1 0x4 DUP3 ADD MSTORE PUSH1 0x14 PUSH1 0x24 DUP3 ADD MSTORE PUSH20 0x1B985B594818D85B881B9BDD081899481B9D5B1B PUSH1 0x62 SHL PUSH1 0x44 DUP3 ADD MSTORE PUSH1 0x64 ADD JUMPDEST PUSH1 0x40 MLOAD DUP1 SWAP2 SUB SWAP1 REVERT JUMPDEST PUSH1 0x2 PUSH2 0x16B DUP3 DUP1 PUSH2 0xABC JUMP JUMPDEST PUSH1 0x40 MLOAD PUSH2 0x179 SWAP3 SWAP2 SWAP1 PUSH2 0x886 JUMP JUMPDEST SWAP1 DUP2 MSTORE PUSH1 0x40 MLOAD SWAP1 DUP2 SWAP1 SUB PUSH1 0x20 ADD SWAP1 KECCAK256 PUSH1 0x8 ADD SLOAD PUSH1 0xFF AND ISZERO PUSH2 0x1DC JUMPI PUSH1 0x40 MLOAD PUSH3 0x461BCD PUSH1 0xE5 SHL DUP2 MSTORE PUSH1 0x20 PUSH1 0x4 DUP3 ADD MSTORE PUSH1 0x1A PUSH1 0x24 DUP3 ADD MSTORE PUSH32 0x73746172747570206E616D6520686173206265656E2075736564000000000000 PUSH1 0x44 DUP3 ADD MSTORE PUSH1 0x64 ADD PUSH2 0x156 JUMP JUMPDEST DUP1 PUSH1 0x2 PUSH2 0x1E9 DUP3 DUP1 PUSH2 0xABC JUMP JUMPDEST PUSH1 0x40 MLOAD PUSH2 0x1F7 SWAP3 SWAP2 SWAP1 PUSH2 0x886 JUMP JUMPDEST SWAP1 DUP2 MSTORE PUSH1 0x40 MLOAD SWAP1 DUP2 SWAP1 SUB PUSH1 0x20 ADD SWAP1 KECCAK256 PUSH2 0x210 DUP3 DUP3 PUSH2 0xF76 JUMP JUMPDEST POP PUSH32 0x73F46948D120A56E9FEA7152C9545282FB4A4BB4D648C110FF98352525745595 SWAP1 POP PUSH2 0x23E DUP3 DUP1 PUSH2 0xABC JUMP JUMPDEST DUP4 CALLER PUSH1 0x40 MLOAD PUSH2 0x250 SWAP5 SWAP4 SWAP3 SWAP2 SWAP1 PUSH2 0x896 JUMP JUMPDEST PUSH1 0x40 MLOAD DUP1 SWAP2 SUB SWAP1 LOG1 POP JUMP JUMPDEST PUSH1 0x0 SLOAD PUSH1 0x1 PUSH1 0x1 PUSH1 0xA0 SHL SUB AND CALLER EQ PUSH2 0x275 JUMPI PUSH2 0x275 PUSH2 0xE79 JUMP JUMPDEST PUSH1 0x1 PUSH1 0x1 PUSH1 0xA0 SHL SUB DUP2 AND PUSH2 0x2DA JUMPI PUSH1 0x40 MLOAD PUSH3 0x461BCD PUSH1 0xE5 SHL DUP2 MSTORE PUSH1 0x20 PUSH1 0x4 DUP3 ADD MSTORE PUSH1 0x26 PUSH1 0x24 DUP3 ADD MSTORE PUSH32 0x4F776E61626C653A206E6577206F776E657220697320746865207A65726F2061 PUSH1 0x44 DUP3 ADD MSTORE PUSH6 0x646472657373 PUSH1 0xD0 SHL PUSH1 0x64 DUP3 ADD MSTORE PUSH1 0x84 ADD PUSH2 0x156 JUMP JUMPDEST PUSH2 0x2E3 DUP2 PUSH2 0x566 JUMP JUMPDEST POP JUMP JUMPDEST DUP1 MLOAD PUSH1 0x20 DUP2 DUP4 ADD DUP2 ADD DUP1 MLOAD PUSH1 0x2 DUP3 MSTORE SWAP3 DUP3 ADD SWAP2 SWAP1 SWAP4 ADD KECCAK256 SWAP2 MSTORE DUP1 SLOAD DUP2 SWAP1 PUSH2 0x30C SWAP1 PUSH2 0xE3E JUMP JUMPDEST DUP1 PUSH1 0x1F ADD PUSH1 0x20 DUP1 SWAP2 DIV MUL PUSH1 0x20 ADD PUSH1 0x40 MLOAD SWAP1 DUP2 ADD PUSH1 0x40 MSTORE DUP1 SWAP3 SWAP2 SWAP1 DUP2 DUP2 MSTORE PUSH1 0x20 ADD DUP3 DUP1 SLOAD PUSH2 0x338 SWAP1 PUSH2 0xE3E JUMP JUMPDEST DUP1 ISZERO PUSH2 0x385 JUMPI DUP1 PUSH1 0x1F LT PUSH2 0x35A JUMPI PUSH2 0x100 DUP1 DUP4 SLOAD DIV MUL DUP4 MSTORE SWAP2 PUSH1 0x20 ADD SWAP2 PUSH2 0x385 JUMP JUMPDEST DUP3 ADD SWAP2 SWAP1 PUSH1 0x0 MSTORE PUSH1 0x20 PUSH1 0x0 KECCAK256 SWAP1 JUMPDEST DUP2 SLOAD DUP2 MSTORE SWAP1 PUSH1 0x1 ADD SWAP1 PUSH1 0x20 ADD DUP1 DUP4 GT PUSH2 0x368 JUMPI DUP3 SWAP1 SUB PUSH1 0x1F AND DUP3 ADD SWAP2 JUMPDEST POP POP POP PUSH1 0x1 DUP5 ADD SLOAD PUSH1 0x3 DUP6 ADD DUP1 SLOAD SWAP5 SWAP6 PUSH1 0xFF SWAP1 SWAP3 AND SWAP5 SWAP2 SWAP4 POP SWAP2 POP PUSH2 0x3A9 SWAP1 PUSH2 0xE3E JUMP JUMPDEST DUP1 PUSH1 0x1F ADD PUSH1 0x20 DUP1 SWAP2 DIV MUL PUSH1 0x20 ADD PUSH1 0x40 MLOAD SWAP1 DUP2 ADD PUSH1 0x40 MSTORE DUP1 SWAP3 SWAP2 SWAP1 DUP2 DUP2 MSTORE PUSH1 0x20 ADD DUP3 DUP1 SLOAD PUSH2 0x3D5 SWAP1 PUSH2 0xE3E JUMP JUMPDEST DUP1 ISZERO PUSH2 0x422 JUMPI DUP1 PUSH1 0x1F LT PUSH2 0x3F7 JUMPI PUSH2 0x100 DUP1 DUP4 SLOAD DIV MUL DUP4 MSTORE SWAP2 PUSH1 0x20 ADD SWAP2 PUSH2 0x422 JUMP JUMPDEST DUP3 ADD SWAP2 SWAP1 PUSH1 0x0 MSTORE PUSH1 0x20 PUSH1 0x0 KECCAK256 SWAP1 JUMPDEST DUP2 SLOAD DUP2 MSTORE SWAP1 PUSH1 0x1 ADD SWAP1 PUSH1 0x20 ADD DUP1 DUP4 GT PUSH2 0x405 JUMPI DUP3 SWAP1 SUB PUSH1 0x1F AND DUP3 ADD SWAP2 JUMPDEST POP POP POP POP POP SWAP1 DUP1 PUSH1 0x4 ADD DUP1 SLOAD PUSH2 0x437 SWAP1 PUSH2 0xE3E JUMP JUMPDEST DUP1 PUSH1 0x1F ADD PUSH1 0x20 DUP1 SWAP2 DIV MUL PUSH1 0x20 ADD PUSH1 0x40 MLOAD SWAP1 DUP2 ADD PUSH1 0x40 MSTORE DUP1 SWAP3 SWAP2 SWAP1 DUP2 DUP2 MSTORE PUSH1 0x20 ADD DUP3 DUP1 SLOAD PUSH2 0x463 SWAP1 PUSH2 0xE3E JUMP JUMPDEST DUP1 ISZERO PUSH2 0x4B0 JUMPI DUP1 PUSH1 0x1F LT PUSH2 0x485 JUMPI PUSH2 0x100 DUP1 DUP4 SLOAD DIV MUL DUP4 MSTORE SWAP2 PUSH1 0x20 ADD SWAP2 PUSH2 0x4B0 JUMP JUMPDEST DUP3 ADD SWAP2 SWAP1 PUSH1 0x0 MSTORE PUSH1 0x20 PUSH1 0x0 KECCAK256 SWAP1 JUMPDEST DUP2 SLOAD DUP2 MSTORE SWAP1 PUSH1 0x1 ADD SWAP1 PUSH1 0x20 ADD DUP1 DUP4 GT PUSH2 0x493 JUMPI DUP3 SWAP1 SUB PUSH1 0x1F AND DUP3 ADD SWAP2 JUMPDEST POP POP POP PUSH1 0x5 DUP5 ADD SLOAD PUSH1 0x7 DUP6 ADD DUP1 SLOAD SWAP5 SWAP6 PUSH1 0x1 PUSH1 0x1 PUSH1 0xA0 SHL SUB SWAP1 SWAP3 AND SWAP5 SWAP2 SWAP4 POP SWAP2 POP PUSH2 0x4DA SWAP1 PUSH2 0xE3E JUMP JUMPDEST DUP1 PUSH1 0x1F ADD PUSH1 0x20 DUP1 SWAP2 DIV MUL PUSH1 0x20 ADD PUSH1 0x40 MLOAD SWAP1 DUP2 ADD PUSH1 0x40 MSTORE DUP1 SWAP3 SWAP2 SWAP1 DUP2 DUP2 MSTORE PUSH1 0x20 ADD DUP3 DUP1 SLOAD PUSH2 0x506 SWAP1 PUSH2 0xE3E JUMP JUMPDEST DUP1 ISZERO PUSH2 0x553 JUMPI DUP1 PUSH1 0x1F LT PUSH2 0x528 JUMPI PUSH2 0x100 DUP1 DUP4 SLOAD DIV MUL DUP4 MSTORE SWAP2 PUSH1 0x20 ADD SWAP2 PUSH2 0x553 JUMP JUMPDEST DUP3 ADD SWAP2 SWAP1 PUSH1 0x0 MSTORE PUSH1 0x20 PUSH1 0x0 KECCAK256 SWAP1 JUMPDEST DUP2 SLOAD DUP2 MSTORE SWAP1 PUSH1 0x1 ADD SWAP1 PUSH1 0x20 ADD DUP1 DUP4 GT PUSH2 0x536 JUMPI DUP3 SWAP1 SUB PUSH1 0x1F AND DUP3 ADD SWAP2 JUMPDEST POP POP POP PUSH1 0x8 SWAP1 SWAP4 ADD SLOAD SWAP2 SWAP3 POP POP PUSH1 0xFF AND DUP8 JUMP JUMPDEST PUSH1 0x0 DUP1 SLOAD PUSH1 0x1 PUSH1 0x1 PUSH1 0xA0 SHL SUB DUP4 DUP2 AND PUSH1 0x1 PUSH1 0x1 PUSH1 0xA0 SHL SUB NOT DUP4 AND DUP2 OR DUP5 SSTORE PUSH1 0x40 MLOAD SWAP2 SWAP1 SWAP3 AND SWAP3 DUP4 SWAP2 PUSH32 0x8BE0079C531659141344CD1FD0A4F28419497F9722A3DAAFE3B4186F6B6457E0 SWAP2 SWAP1 LOG3 POP POP JUMP JUMPDEST DUP1 CALLDATALOAD PUSH2 0x5C1 DUP2 PUSH2 0x10A9 JUMP JUMPDEST SWAP2 SWAP1 POP JUMP JUMPDEST DUP1 CALLDATALOAD PUSH2 0x5C1 DUP2 PUSH2 0x10BE JUMP JUMPDEST DUP1 CALLDATALOAD PUSH2 0x5C1 DUP2 PUSH2 0x10CC JUMP JUMPDEST PUSH1 0x0 PUSH1 0x20 DUP3 DUP5 SUB SLT ISZERO PUSH2 0x5EE JUMPI PUSH1 0x0 DUP1 REVERT JUMPDEST DUP2 CALLDATALOAD PUSH2 0x5F9 DUP2 PUSH2 0x10A9 JUMP JUMPDEST SWAP4 SWAP3 POP POP POP JUMP JUMPDEST PUSH1 0x0 PUSH1 0x20 DUP3 DUP5 SUB SLT ISZERO PUSH2 0x612 JUMPI PUSH1 0x0 DUP1 REVERT JUMPDEST DUP2 CALLDATALOAD PUSH8 0xFFFFFFFFFFFFFFFF DUP1 DUP3 GT ISZERO PUSH2 0x62A JUMPI PUSH1 0x0 DUP1 REVERT JUMPDEST DUP2 DUP5 ADD SWAP2 POP DUP5 PUSH1 0x1F DUP4 ADD SLT PUSH2 0x63E JUMPI PUSH1 0x0 DUP1 REVERT JUMPDEST DUP2 CALLDATALOAD DUP2 DUP2 GT ISZERO PUSH2 0x650 JUMPI PUSH2 0x650 PUSH2 0xE8F JUMP JUMPDEST PUSH1 0x40 MLOAD PUSH1 0x1F DUP3 ADD PUSH1 0x1F NOT SWAP1 DUP2 AND PUSH1 0x3F ADD AND DUP2 ADD SWAP1 DUP4 DUP3 GT DUP2 DUP4 LT OR ISZERO PUSH2 0x678 JUMPI PUSH2 0x678 PUSH2 0xE8F JUMP JUMPDEST DUP2 PUSH1 0x40 MSTORE DUP3 DUP2 MSTORE DUP8 PUSH1 0x20 DUP5 DUP8 ADD ADD GT ISZERO PUSH2 0x691 JUMPI PUSH1 0x0 DUP1 REVERT JUMPDEST DUP3 PUSH1 0x20 DUP7 ADD PUSH1 0x20 DUP4 ADD CALLDATACOPY PUSH1 0x0 SWAP3 DUP2 ADD PUSH1 0x20 ADD SWAP3 SWAP1 SWAP3 MSTORE POP SWAP6 SWAP5 POP POP POP POP POP JUMP JUMPDEST PUSH1 0x0 PUSH1 0x20 DUP3 DUP5 SUB SLT ISZERO PUSH2 0x6C3 JUMPI PUSH1 0x0 DUP1 REVERT JUMPDEST DUP2 CALLDATALOAD PUSH8 0xFFFFFFFFFFFFFFFF DUP2 GT ISZERO PUSH2 0x6DA JUMPI PUSH1 0x0 DUP1 REVERT JUMPDEST DUP3 ADD PUSH2 0x120 DUP2 DUP6 SUB SLT ISZERO PUSH2 0x5F9 JUMPI PUSH1 0x0 DUP1 REVERT JUMPDEST PUSH1 0x0 DUP4 DUP4 DUP6 MSTORE PUSH1 0x20 DUP1 DUP7 ADD SWAP6 POP DUP1 DUP6 PUSH1 0x5 SHL DUP4 ADD ADD DUP5 PUSH1 0x0 JUMPDEST DUP8 DUP2 LT ISZERO PUSH2 0x740 JUMPI DUP5 DUP4 SUB PUSH1 0x1F NOT ADD DUP10 MSTORE PUSH2 0x721 DUP3 DUP9 PUSH2 0xB6C JUMP JUMPDEST PUSH2 0x72C DUP6 DUP3 DUP5 PUSH2 0x810 JUMP JUMPDEST SWAP11 DUP7 ADD SWAP11 SWAP5 POP POP POP SWAP1 DUP4 ADD SWAP1 PUSH1 0x1 ADD PUSH2 0x706 JUMP JUMPDEST POP SWAP1 SWAP8 SWAP7 POP POP POP POP POP POP POP JUMP JUMPDEST PUSH1 0x0 DUP4 DUP4 DUP6 MSTORE PUSH1 0x20 DUP1 DUP7 ADD SWAP6 POP DUP1 DUP6 PUSH1 0x5 SHL DUP4 ADD ADD DUP5 PUSH1 0x0 DUP1 JUMPDEST DUP9 DUP2 LT ISZERO PUSH2 0x7E0 JUMPI DUP6 DUP5 SUB PUSH1 0x1F NOT ADD DUP11 MSTORE DUP3 CALLDATALOAD CALLDATASIZE DUP10 SWAP1 SUB PUSH1 0x3E NOT ADD DUP2 SLT PUSH2 0x78C JUMPI DUP3 DUP4 REVERT JUMPDEST DUP9 ADD PUSH1 0x40 PUSH2 0x79A DUP3 DUP1 PUSH2 0xB6C JUMP JUMPDEST DUP3 DUP9 MSTORE PUSH2 0x7AA DUP4 DUP10 ADD DUP3 DUP5 PUSH2 0x810 JUMP JUMPDEST SWAP3 POP POP POP DUP7 DUP3 ADD CALLDATALOAD SWAP2 POP PUSH2 0x7BD DUP3 PUSH2 0x10A9 JUMP JUMPDEST PUSH1 0x1 PUSH1 0x1 PUSH1 0xA0 SHL SUB SWAP2 SWAP1 SWAP2 AND SWAP5 DUP7 ADD SWAP5 SWAP1 SWAP5 MSTORE SWAP9 DUP5 ADD SWAP9 SWAP2 DUP5 ADD SWAP2 PUSH1 0x1 ADD PUSH2 0x767 JUMP JUMPDEST POP SWAP2 SWAP9 SWAP8 POP POP POP POP POP POP POP POP JUMP JUMPDEST PUSH1 0x5 DUP2 LT PUSH2 0x80C JUMPI PUSH4 0x4E487B71 PUSH1 0xE0 SHL PUSH1 0x0 MSTORE PUSH1 0x21 PUSH1 0x4 MSTORE PUSH1 0x24 PUSH1 0x0 REVERT JUMPDEST SWAP1 MSTORE JUMP JUMPDEST DUP2 DUP4 MSTORE DUP2 DUP2 PUSH1 0x20 DUP6 ADD CALLDATACOPY POP PUSH1 0x0 DUP3 DUP3 ADD PUSH1 0x20 SWAP1 DUP2 ADD SWAP2 SWAP1 SWAP2 MSTORE PUSH1 0x1F SWAP1 SWAP2 ADD PUSH1 0x1F NOT AND SWAP1 SWAP2 ADD ADD SWAP1 JUMP JUMPDEST PUSH1 0x0 DUP2 MLOAD DUP1 DUP5 MSTORE PUSH1 0x0 JUMPDEST DUP2 DUP2 LT ISZERO PUSH2 0x85F JUMPI PUSH1 0x20 DUP2 DUP6 ADD DUP2 ADD MLOAD DUP7 DUP4 ADD DUP3 ADD MSTORE ADD PUSH2 0x843 JUMP JUMPDEST DUP2 DUP2 GT ISZERO PUSH2 0x871 JUMPI PUSH1 0x0 PUSH1 0x20 DUP4 DUP8 ADD ADD MSTORE JUMPDEST POP PUSH1 0x1F ADD PUSH1 0x1F NOT AND SWAP3 SWAP1 SWAP3 ADD PUSH1 0x20 ADD SWAP3 SWAP2 POP POP JUMP JUMPDEST DUP2 DUP4 DUP3 CALLDATACOPY PUSH1 0x0 SWAP2 ADD SWAP1 DUP2 MSTORE SWAP2 SWAP1 POP JUMP JUMPDEST PUSH1 0x60 DUP2 MSTORE PUSH1 0x0 PUSH2 0x8AA PUSH1 0x60 DUP4 ADD DUP7 DUP9 PUSH2 0x810 JUMP JUMPDEST DUP3 DUP2 SUB PUSH1 0x20 DUP5 ADD MSTORE PUSH2 0x120 PUSH2 0x8BF DUP7 DUP8 PUSH2 0xB6C JUMP JUMPDEST DUP3 DUP5 MSTORE PUSH2 0x8CF DUP4 DUP6 ADD DUP3 DUP5 PUSH2 0x810 JUMP JUMPDEST SWAP3 POP POP POP PUSH2 0x8DF PUSH1 0x20 DUP8 ADD PUSH2 0x5D1 JUMP JUMPDEST PUSH2 0x8EC PUSH1 0x20 DUP5 ADD DUP3 PUSH2 0x7EE JUMP JUMPDEST POP PUSH2 0x8FA PUSH1 0x40 DUP8 ADD DUP8 PUSH2 0xB23 JUMP JUMPDEST DUP4 DUP4 SUB PUSH1 0x40 DUP6 ADD MSTORE PUSH2 0x90D DUP4 DUP3 DUP5 PUSH2 0x6ED JUMP JUMPDEST SWAP3 POP POP POP PUSH2 0x91E PUSH1 0x60 DUP8 ADD DUP8 PUSH2 0xB6C JUMP JUMPDEST DUP4 DUP4 SUB PUSH1 0x60 DUP6 ADD MSTORE PUSH2 0x931 DUP4 DUP3 DUP5 PUSH2 0x810 JUMP JUMPDEST SWAP3 POP POP POP PUSH2 0x942 PUSH1 0x80 DUP8 ADD DUP8 PUSH2 0xB6C JUMP JUMPDEST DUP4 DUP4 SUB PUSH1 0x80 DUP6 ADD MSTORE PUSH2 0x955 DUP4 DUP3 DUP5 PUSH2 0x810 JUMP JUMPDEST SWAP3 POP POP POP PUSH2 0x965 PUSH1 0xA0 DUP8 ADD PUSH2 0x5B6 JUMP JUMPDEST PUSH1 0x1 PUSH1 0x1 PUSH1 0xA0 SHL SUB AND PUSH1 0xA0 DUP4 ADD MSTORE PUSH2 0x980 PUSH1 0xC0 DUP8 ADD DUP8 PUSH2 0xB23 JUMP JUMPDEST DUP4 DUP4 SUB PUSH1 0xC0 DUP6 ADD MSTORE PUSH2 0x993 DUP4 DUP3 DUP5 PUSH2 0x74D JUMP JUMPDEST SWAP3 POP POP POP PUSH2 0x9A4 PUSH1 0xE0 DUP8 ADD DUP8 PUSH2 0xB6C JUMP JUMPDEST DUP4 DUP4 SUB PUSH1 0xE0 DUP6 ADD MSTORE PUSH2 0x9B7 DUP4 DUP3 DUP5 PUSH2 0x810 JUMP JUMPDEST SWAP3 POP POP POP PUSH2 0x100 PUSH2 0x9C9 DUP2 DUP9 ADD PUSH2 0x5C6 JUMP JUMPDEST ISZERO ISZERO SWAP3 ADD SWAP2 SWAP1 SWAP2 MSTORE PUSH1 0x1 PUSH1 0x1 PUSH1 0xA0 SHL SUB DUP5 AND PUSH1 0x40 DUP5 ADD MSTORE SWAP1 POP SWAP6 SWAP5 POP POP POP POP POP JUMP JUMPDEST PUSH1 0xE0 DUP2 MSTORE PUSH1 0x0 PUSH2 0x9FE PUSH1 0xE0 DUP4 ADD DUP11 PUSH2 0x839 JUMP JUMPDEST PUSH2 0xA0B PUSH1 0x20 DUP5 ADD DUP11 PUSH2 0x7EE JUMP JUMPDEST DUP3 DUP2 SUB PUSH1 0x40 DUP5 ADD MSTORE PUSH2 0xA1D DUP2 DUP10 PUSH2 0x839 JUMP JUMPDEST SWAP1 POP DUP3 DUP2 SUB PUSH1 0x60 DUP5 ADD MSTORE PUSH2 0xA31 DUP2 DUP9 PUSH2 0x839 JUMP JUMPDEST PUSH1 0x1 PUSH1 0x1 PUSH1 0xA0 SHL SUB DUP8 AND PUSH1 0x80 DUP6 ADD MSTORE DUP4 DUP2 SUB PUSH1 0xA0 DUP6 ADD MSTORE SWAP1 POP PUSH2 0xA54 DUP2 DUP7 PUSH2 0x839 JUMP JUMPDEST SWAP2 POP POP DUP3 ISZERO ISZERO PUSH1 0xC0 DUP4 ADD MSTORE SWAP9 SWAP8 POP POP POP POP POP POP POP POP JUMP JUMPDEST PUSH1 0x0 DUP1 DUP4 CALLDATALOAD PUSH1 0x1E NOT DUP5 CALLDATASIZE SUB ADD DUP2 SLT PUSH2 0xA82 JUMPI PUSH1 0x0 DUP1 REVERT JUMPDEST DUP4 ADD DUP1 CALLDATALOAD SWAP2 POP PUSH8 0xFFFFFFFFFFFFFFFF DUP3 GT ISZERO PUSH2 0xA9D JUMPI PUSH1 0x0 DUP1 REVERT JUMPDEST PUSH1 0x20 ADD SWAP2 POP PUSH1 0x5 DUP2 SWAP1 SHL CALLDATASIZE SUB DUP3 SGT ISZERO PUSH2 0xAB5 JUMPI PUSH1 0x0 DUP1 REVERT JUMPDEST SWAP3 POP SWAP3 SWAP1 POP JUMP JUMPDEST PUSH1 0x0 DUP1 DUP4 CALLDATALOAD PUSH1 0x1E NOT DUP5 CALLDATASIZE SUB ADD DUP2 SLT PUSH2 0xAD3 JUMPI PUSH1 0x0 DUP1 REVERT JUMPDEST DUP4 ADD DUP1 CALLDATALOAD SWAP2 POP PUSH8 0xFFFFFFFFFFFFFFFF DUP3 GT ISZERO PUSH2 0xAEE JUMPI PUSH1 0x0 DUP1 REVERT JUMPDEST PUSH1 0x20 ADD SWAP2 POP CALLDATASIZE DUP2 SWAP1 SUB DUP3 SGT ISZERO PUSH2 0xAB5 JUMPI PUSH1 0x0 DUP1 REVERT JUMPDEST PUSH1 0x0 DUP3 CALLDATALOAD PUSH1 0x3E NOT DUP4 CALLDATASIZE SUB ADD DUP2 SLT PUSH2 0xB19 JUMPI PUSH1 0x0 DUP1 REVERT JUMPDEST SWAP2 SWAP1 SWAP2 ADD SWAP3 SWAP2 POP POP JUMP JUMPDEST PUSH1 0x0 DUP1 DUP4 CALLDATALOAD PUSH1 0x1E NOT DUP5 CALLDATASIZE SUB ADD DUP2 SLT PUSH2 0xB3A JUMPI PUSH1 0x0 DUP1 REVERT JUMPDEST DUP4 ADD PUSH1 0x20 DUP2 ADD SWAP3 POP CALLDATALOAD SWAP1 POP PUSH8 0xFFFFFFFFFFFFFFFF DUP2 GT ISZERO PUSH2 0xB5A JUMPI PUSH1 0x0 DUP1 REVERT JUMPDEST DUP1 PUSH1 0x5 SHL CALLDATASIZE SUB DUP4 SGT ISZERO PUSH2 0xAB5 JUMPI PUSH1 0x0 DUP1 REVERT JUMPDEST PUSH1 0x0 DUP1 DUP4 CALLDATALOAD PUSH1 0x1E NOT DUP5 CALLDATASIZE SUB ADD DUP2 SLT PUSH2 0xB83 JUMPI PUSH1 0x0 DUP1 REVERT JUMPDEST DUP4 ADD PUSH1 0x20 DUP2 ADD SWAP3 POP CALLDATALOAD SWAP1 POP PUSH8 0xFFFFFFFFFFFFFFFF DUP2 GT ISZERO PUSH2 0xBA3 JUMPI PUSH1 0x0 DUP1 REVERT JUMPDEST DUP1 CALLDATASIZE SUB DUP4 SGT ISZERO PUSH2 0xAB5 JUMPI PUSH1 0x0 DUP1 REVERT JUMPDEST PUSH1 0x0 PUSH1 0x1 PUSH1 0x1 PUSH1 0xFF SHL SUB DUP3 GT PUSH1 0x1 AND ISZERO PUSH2 0xBDC JUMPI PUSH4 0x4E487B71 PUSH1 0xE0 SHL PUSH1 0x0 MSTORE PUSH1 0x11 PUSH1 0x4 MSTORE PUSH1 0x24 PUSH1 0x0 REVERT JUMPDEST POP PUSH1 0x1 SHL SWAP1 JUMP JUMPDEST PUSH1 0x1F DUP3 GT ISZERO PUSH2 0xC1F JUMPI DUP1 PUSH1 0x0 MSTORE PUSH1 0x20 PUSH1 0x0 KECCAK256 PUSH1 0x1F DUP5 ADD PUSH1 0x5 SHR DUP2 ADD PUSH1 0x20 DUP6 LT ISZERO PUSH2 0xC0A JUMPI POP DUP1 JUMPDEST PUSH2 0xC1C PUSH1 0x1F DUP6 ADD PUSH1 0x5 SHR DUP4 ADD DUP3 PUSH2 0xC24 JUMP JUMPDEST POP POP JUMPDEST POP POP POP JUMP JUMPDEST JUMPDEST DUP2 DUP2 LT ISZERO PUSH2 0xC39 JUMPI PUSH1 0x0 DUP2 SSTORE PUSH1 0x1 ADD PUSH2 0xC25 JUMP JUMPDEST POP POP JUMP JUMPDEST PUSH1 0x1 PUSH1 0x40 SHL DUP4 GT ISZERO PUSH2 0xC51 JUMPI PUSH2 0xC51 PUSH2 0xE8F JUMP JUMPDEST DUP1 SLOAD DUP4 DUP3 SSTORE DUP1 DUP5 LT ISZERO PUSH2 0xC8D JUMPI PUSH1 0x0 DUP3 DUP2 MSTORE PUSH1 0x20 SWAP1 KECCAK256 DUP5 DUP2 ADD SWAP1 DUP3 ADD JUMPDEST DUP1 DUP3 LT ISZERO PUSH2 0xC8A JUMPI PUSH2 0xC7F DUP3 PUSH2 0xED2 JUMP JUMPDEST PUSH1 0x1 DUP3 ADD SWAP2 POP PUSH2 0xC6E JUMP JUMPDEST POP POP JUMPDEST POP PUSH1 0x0 DUP2 DUP2 MSTORE PUSH1 0x20 DUP2 KECCAK256 DUP4 SWAP2 JUMPDEST DUP6 DUP2 LT ISZERO PUSH2 0xCCC JUMPI PUSH2 0xCAC DUP4 DUP7 PUSH2 0xABC JUMP JUMPDEST PUSH2 0xCB7 DUP2 DUP4 DUP7 PUSH2 0xD7E JUMP JUMPDEST POP POP PUSH1 0x20 SWAP3 SWAP1 SWAP3 ADD SWAP2 PUSH1 0x1 SWAP2 DUP3 ADD SWAP2 ADD PUSH2 0xC9A JUMP JUMPDEST POP POP POP POP POP POP JUMP JUMPDEST PUSH1 0x1 PUSH1 0x40 SHL DUP4 GT ISZERO PUSH2 0xCE8 JUMPI PUSH2 0xCE8 PUSH2 0xE8F JUMP JUMPDEST DUP1 SLOAD DUP4 DUP3 SSTORE DUP1 DUP5 LT ISZERO PUSH2 0xD40 JUMPI PUSH2 0xCFE DUP2 PUSH2 0xBB2 JUMP JUMPDEST PUSH2 0xD07 DUP6 PUSH2 0xBB2 JUMP JUMPDEST PUSH1 0x0 DUP5 DUP2 MSTORE PUSH1 0x20 DUP2 KECCAK256 SWAP3 DUP4 ADD SWAP3 SWAP2 SWAP1 SWAP2 ADD SWAP1 JUMPDEST DUP3 DUP3 LT ISZERO PUSH2 0xD3C JUMPI PUSH2 0xD2B DUP3 PUSH2 0xED2 JUMP JUMPDEST DUP1 PUSH1 0x1 DUP4 ADD SSTORE PUSH1 0x2 DUP3 ADD SWAP2 POP PUSH2 0xD1A JUMP JUMPDEST POP POP POP JUMPDEST POP PUSH1 0x0 DUP2 DUP2 MSTORE PUSH1 0x20 DUP2 KECCAK256 DUP4 SWAP2 JUMPDEST DUP6 DUP2 LT ISZERO PUSH2 0xCCC JUMPI PUSH2 0xD68 PUSH2 0xD62 DUP5 DUP8 PUSH2 0xB03 JUMP JUMPDEST DUP4 PUSH2 0x1077 JUMP JUMPDEST PUSH1 0x20 SWAP3 SWAP1 SWAP3 ADD SWAP2 PUSH1 0x2 SWAP2 SWAP1 SWAP2 ADD SWAP1 PUSH1 0x1 ADD PUSH2 0xD4D JUMP JUMPDEST PUSH8 0xFFFFFFFFFFFFFFFF DUP4 GT ISZERO PUSH2 0xD96 JUMPI PUSH2 0xD96 PUSH2 0xE8F JUMP JUMPDEST PUSH2 0xDAA DUP4 PUSH2 0xDA4 DUP4 SLOAD PUSH2 0xE3E JUMP JUMPDEST DUP4 PUSH2 0xBE3 JUMP JUMPDEST PUSH1 0x0 PUSH1 0x1F DUP5 GT PUSH1 0x1 DUP2 EQ PUSH2 0xDDE JUMPI PUSH1 0x0 DUP6 ISZERO PUSH2 0xDC6 JUMPI POP DUP4 DUP3 ADD CALLDATALOAD JUMPDEST PUSH1 0x0 NOT PUSH1 0x3 DUP8 SWAP1 SHL SHR NOT AND PUSH1 0x1 DUP7 SWAP1 SHL OR DUP4 SSTORE PUSH2 0xC1C JUMP JUMPDEST PUSH1 0x0 DUP4 DUP2 MSTORE PUSH1 0x20 SWAP1 KECCAK256 PUSH1 0x1F NOT DUP7 AND SWAP1 DUP4 JUMPDEST DUP3 DUP2 LT ISZERO PUSH2 0xE0F JUMPI DUP7 DUP6 ADD CALLDATALOAD DUP3 SSTORE PUSH1 0x20 SWAP5 DUP6 ADD SWAP5 PUSH1 0x1 SWAP1 SWAP3 ADD SWAP2 ADD PUSH2 0xDEF JUMP JUMPDEST POP DUP7 DUP3 LT ISZERO PUSH2 0xE2C JUMPI PUSH1 0x0 NOT PUSH1 0xF8 DUP9 PUSH1 0x3 SHL AND SHR NOT DUP5 DUP8 ADD CALLDATALOAD AND DUP2 SSTORE JUMPDEST POP POP PUSH1 0x1 DUP6 PUSH1 0x1 SHL ADD DUP4 SSTORE POP POP POP POP POP JUMP JUMPDEST PUSH1 0x1 DUP2 DUP2 SHR SWAP1 DUP3 AND DUP1 PUSH2 0xE52 JUMPI PUSH1 0x7F DUP3 AND SWAP2 POP JUMPDEST PUSH1 0x20 DUP3 LT DUP2 EQ ISZERO PUSH2 0xE73 JUMPI PUSH4 0x4E487B71 PUSH1 0xE0 SHL PUSH1 0x0 MSTORE PUSH1 0x22 PUSH1 0x4 MSTORE PUSH1 0x24 PUSH1 0x0 REVERT JUMPDEST POP SWAP2 SWAP1 POP JUMP JUMPDEST PUSH4 0x4E487B71 PUSH1 0xE0 SHL PUSH1 0x0 MSTORE PUSH1 0x1 PUSH1 0x4 MSTORE PUSH1 0x24 PUSH1 0x0 REVERT JUMPDEST PUSH4 0x4E487B71 PUSH1 0xE0 SHL PUSH1 0x0 MSTORE PUSH1 0x41 PUSH1 0x4 MSTORE PUSH1 0x24 PUSH1 0x0 REVERT JUMPDEST PUSH1 0x0 DUP2 CALLDATALOAD PUSH2 0xEB2 DUP2 PUSH2 0x10A9 JUMP JUMPDEST SWAP3 SWAP2 POP POP JUMP JUMPDEST PUSH1 0x0 DUP2 CALLDATALOAD PUSH2 0xEB2 DUP2 PUSH2 0x10BE JUMP JUMPDEST PUSH1 0x0 DUP2 CALLDATALOAD PUSH2 0xEB2 DUP2 PUSH2 0x10CC JUMP JUMPDEST PUSH2 0xEDC DUP2 SLOAD PUSH2 0xE3E JUMP JUMPDEST DUP1 ISZERO PUSH2 0xC39 JUMPI PUSH1 0x1F DUP2 GT PUSH1 0x1 DUP2 EQ PUSH2 0xEF6 JUMPI POP POP PUSH1 0x0 SWAP1 SSTORE JUMP JUMPDEST PUSH1 0x0 DUP4 DUP2 MSTORE PUSH1 0x20 DUP2 KECCAK256 PUSH2 0xF14 PUSH1 0x1F DUP6 ADD PUSH1 0x5 SHR DUP3 ADD PUSH1 0x1 DUP4 ADD PUSH2 0xC24 JUMP JUMPDEST POP DUP4 DUP2 MSTORE PUSH1 0x20 DUP2 KECCAK256 DUP2 DUP6 SSTORE SSTORE POP POP POP JUMP JUMPDEST DUP1 SLOAD PUSH1 0x1 PUSH1 0x1 PUSH1 0xA0 SHL SUB NOT AND PUSH1 0x1 PUSH1 0x1 PUSH1 0xA0 SHL SUB SWAP3 SWAP1 SWAP3 AND SWAP2 SWAP1 SWAP2 OR SWAP1 SSTORE JUMP JUMPDEST PUSH1 0x5 DUP3 LT PUSH2 0xF63 JUMPI PUSH4 0x4E487B71 PUSH1 0xE0 SHL PUSH1 0x0 MSTORE PUSH1 0x21 PUSH1 0x4 MSTORE PUSH1 0x24 PUSH1 0x0 REVERT JUMPDEST PUSH1 0xFF NOT DUP2 SLOAD AND PUSH1 0xFF DUP4 AND DUP2 OR DUP3 SSTORE POP POP POP JUMP JUMPDEST PUSH2 0xF80 DUP3 DUP4 PUSH2 0xABC JUMP JUMPDEST PUSH2 0xF8B DUP2 DUP4 DUP6 PUSH2 0xD7E JUMP JUMPDEST POP POP PUSH2 0xFA5 PUSH2 0xF9C PUSH1 0x20 DUP5 ADD PUSH2 0xEC5 JUMP JUMPDEST PUSH1 0x1 DUP4 ADD PUSH2 0xF45 JUMP JUMPDEST PUSH2 0xFB2 PUSH1 0x40 DUP4 ADD DUP4 PUSH2 0xA6B JUMP JUMPDEST PUSH2 0xFC0 DUP2 DUP4 PUSH1 0x2 DUP7 ADD PUSH2 0xC3D JUMP JUMPDEST POP POP PUSH2 0xFCF PUSH1 0x60 DUP4 ADD DUP4 PUSH2 0xABC JUMP JUMPDEST PUSH2 0xFDD DUP2 DUP4 PUSH1 0x3 DUP7 ADD PUSH2 0xD7E JUMP JUMPDEST POP POP PUSH2 0xFEC PUSH1 0x80 DUP4 ADD DUP4 PUSH2 0xABC JUMP JUMPDEST PUSH2 0xFFA DUP2 DUP4 PUSH1 0x4 DUP7 ADD PUSH2 0xD7E JUMP JUMPDEST POP POP PUSH2 0x1014 PUSH2 0x100B PUSH1 0xA0 DUP5 ADD PUSH2 0xEA5 JUMP JUMPDEST PUSH1 0x5 DUP4 ADD PUSH2 0xF25 JUMP JUMPDEST PUSH2 0x1021 PUSH1 0xC0 DUP4 ADD DUP4 PUSH2 0xA6B JUMP JUMPDEST PUSH2 0x102F DUP2 DUP4 PUSH1 0x6 DUP7 ADD PUSH2 0xCD4 JUMP JUMPDEST POP POP PUSH2 0x103E PUSH1 0xE0 DUP4 ADD DUP4 PUSH2 0xABC JUMP JUMPDEST PUSH2 0x104C DUP2 DUP4 PUSH1 0x7 DUP7 ADD PUSH2 0xD7E JUMP JUMPDEST POP POP PUSH2 0xC39 PUSH2 0x105E PUSH2 0x100 DUP5 ADD PUSH2 0xEB8 JUMP JUMPDEST PUSH1 0x8 DUP4 ADD PUSH1 0xFF NOT DUP2 SLOAD AND PUSH1 0xFF DUP4 ISZERO ISZERO AND DUP2 OR DUP3 SSTORE POP POP POP JUMP JUMPDEST PUSH2 0x1081 DUP3 DUP4 PUSH2 0xABC JUMP JUMPDEST PUSH2 0x108C DUP2 DUP4 DUP6 PUSH2 0xD7E JUMP JUMPDEST POP POP PUSH1 0x20 DUP3 ADD CALLDATALOAD PUSH2 0x109C DUP2 PUSH2 0x10A9 JUMP JUMPDEST PUSH2 0xC1F DUP2 PUSH1 0x1 DUP5 ADD PUSH2 0xF25 JUMP JUMPDEST PUSH1 0x1 PUSH1 0x1 PUSH1 0xA0 SHL SUB DUP2 AND DUP2 EQ PUSH2 0x2E3 JUMPI PUSH1 0x0 DUP1 REVERT JUMPDEST DUP1 ISZERO ISZERO DUP2 EQ PUSH2 0x2E3 JUMPI PUSH1 0x0 DUP1 REVERT JUMPDEST PUSH1 0x5 DUP2 LT PUSH2 0x2E3 JUMPI PUSH1 0x0 DUP1 REVERT INVALID LOG2 PUSH5 0x6970667358 0x22 SLT KECCAK256 CALL BLOCKHASH DUP7 0xB6 EQ ISZERO DUP14 LOG4 GAS 0x1E SUB PUSH8 0x310241C50EE406F8 PUSH18 0xFEBD420FB8E64B6132A60564736F6C634300 ADDMOD SMOD STOP CALLER "
				},
				"gasEstimates": {
					"creation": {
						"codeDepositCost": "873400",
						"executionCost": "25165",
						"totalCost": "898565"
					},
					"external": {
						"": "145",
						"newStartup((string,uint8,string[],string,string,address,(string,address)[],string,bool))": "infinite",
						"startups(string)": "infinite",
						"suicide0(address)": "30026",
						"transferOwnership(address)": "infinite"
					}
				},
				"methodIdentifiers": {
					"newStartup((string,uint8,string[],string,string,address,(string,address)[],string,bool))": "b040aff6",
					"startups(string)": "f86025c3",
					"suicide0(address)": "14da447f",
					"transferOwnership(address)": "f2fde38b"
				}
			},
			"storageLayout": {
				"storage": [
					{
						"astId": 120,
						"contract": "contracts/Startup.sol:Startup",
						"label": "_owner",
						"offset": 0,
						"slot": "0",
						"type": "t_address"
					},
					{
						"astId": 122,
						"contract": "contracts/Startup.sol:Startup",
						"label": "_coinbase",
						"offset": 0,
						"slot": "1",
						"type": "t_address_payable"
					},
					{
						"astId": 60,
						"contract": "contracts/Startup.sol:Startup",
						"label": "startups",
						"offset": 0,
						"slot": "2",
						"type": "t_mapping(t_string_memory_ptr,t_struct(Profile)46_storage)"
					}
				],
				"types": {
					"t_address": {
						"encoding": "inplace",
						"label": "address",
						"numberOfBytes": "20"
					},
					"t_address_payable": {
						"encoding": "inplace",
						"label": "address payable",
						"numberOfBytes": "20"
					},
					"t_array(t_string_storage)dyn_storage": {
						"base": "t_string_storage",
						"encoding": "dynamic_array",
						"label": "string[]",
						"numberOfBytes": "32"
					},
					"t_array(t_struct(wallet)15_storage)dyn_storage": {
						"base": "t_struct(wallet)15_storage",
						"encoding": "dynamic_array",
						"label": "struct Startup.wallet[]",
						"numberOfBytes": "32"
					},
					"t_bool": {
						"encoding": "inplace",
						"label": "bool",
						"numberOfBytes": "1"
					},
					"t_enum(Mode)10": {
						"encoding": "inplace",
						"label": "enum Startup.Mode",
						"numberOfBytes": "1"
					},
					"t_mapping(t_string_memory_ptr,t_struct(Profile)46_storage)": {
						"encoding": "mapping",
						"key": "t_string_memory_ptr",
						"label": "mapping(string => struct Startup.Profile)",
						"numberOfBytes": "32",
						"value": "t_struct(Profile)46_storage"
					},
					"t_string_memory_ptr": {
						"encoding": "bytes",
						"label": "string",
						"numberOfBytes": "32"
					},
					"t_string_storage": {
						"encoding": "bytes",
						"label": "string",
						"numberOfBytes": "32"
					},
					"t_struct(Profile)46_storage": {
						"encoding": "inplace",
						"label": "struct Startup.Profile",
						"members": [
							{
								"astId": 18,
								"contract": "contracts/Startup.sol:Startup",
								"label": "name",
								"offset": 0,
								"slot": "0",
								"type": "t_string_storage"
							},
							{
								"astId": 22,
								"contract": "contracts/Startup.sol:Startup",
								"label": "mode",
								"offset": 0,
								"slot": "1",
								"type": "t_enum(Mode)10"
							},
							{
								"astId": 26,
								"contract": "contracts/Startup.sol:Startup",
								"label": "hashtag",
								"offset": 0,
								"slot": "2",
								"type": "t_array(t_string_storage)dyn_storage"
							},
							{
								"astId": 29,
								"contract": "contracts/Startup.sol:Startup",
								"label": "logo",
								"offset": 0,
								"slot": "3",
								"type": "t_string_storage"
							},
							{
								"astId": 32,
								"contract": "contracts/Startup.sol:Startup",
								"label": "mission",
								"offset": 0,
								"slot": "4",
								"type": "t_string_storage"
							},
							{
								"astId": 35,
								"contract": "contracts/Startup.sol:Startup",
								"label": "tokenContract",
								"offset": 0,
								"slot": "5",
								"type": "t_address"
							},
							{
								"astId": 40,
								"contract": "contracts/Startup.sol:Startup",
								"label": "wallets",
								"offset": 0,
								"slot": "6",
								"type": "t_array(t_struct(wallet)15_storage)dyn_storage"
							},
							{
								"astId": 42,
								"contract": "contracts/Startup.sol:Startup",
								"label": "overview",
								"offset": 0,
								"slot": "7",
								"type": "t_string_storage"
							},
							{
								"astId": 45,
								"contract": "contracts/Startup.sol:Startup",
								"label": "isValidate",
								"offset": 0,
								"slot": "8",
								"type": "t_bool"
							}
						],
						"numberOfBytes": "288"
					},
					"t_struct(wallet)15_storage": {
						"encoding": "inplace",
						"label": "struct Startup.wallet",
						"members": [
							{
								"astId": 12,
								"contract": "contracts/Startup.sol:Startup",
								"label": "name",
								"offset": 0,
								"slot": "0",
								"type": "t_string_storage"
							},
							{
								"astId": 14,
								"contract": "contracts/Startup.sol:Startup",
								"label": "walletAddress",
								"offset": 0,
								"slot": "1",
								"type": "t_address"
							}
						],
						"numberOfBytes": "64"
					}
				}
			},
			"userdoc": {
				"kind": "user",
				"methods": {},
				"version": 1
			}
		}
	}
}