{
	"contracts/powerful-erc20.sol": {
		"Roles": {
			"abi": [
				{
					"inputs": [],
					"stateMutability": "nonpayable",
					"type": "constructor"
				},
				{
					"anonymous": false,
					"inputs": [
						{
							"indexed": true,
							"internalType": "bytes32",
							"name": "role",
							"type": "bytes32"
						},
						{
							"indexed": true,
							"internalType": "bytes32",
							"name": "previousAdminRole",
							"type": "bytes32"
						},
						{
							"indexed": true,
							"internalType": "bytes32",
							"name": "newAdminRole",
							"type": "bytes32"
						}
					],
					"name": "RoleAdminChanged",
					"type": "event"
				},
				{
					"anonymous": false,
					"inputs": [
						{
							"indexed": true,
							"internalType": "bytes32",
							"name": "role",
							"type": "bytes32"
						},
						{
							"indexed": true,
							"internalType": "address",
							"name": "account",
							"type": "address"
						},
						{
							"indexed": true,
							"internalType": "address",
							"name": "sender",
							"type": "address"
						}
					],
					"name": "RoleGranted",
					"type": "event"
				},
				{
					"anonymous": false,
					"inputs": [
						{
							"indexed": true,
							"internalType": "bytes32",
							"name": "role",
							"type": "bytes32"
						},
						{
							"indexed": true,
							"internalType": "address",
							"name": "account",
							"type": "address"
						},
						{
							"indexed": true,
							"internalType": "address",
							"name": "sender",
							"type": "address"
						}
					],
					"name": "RoleRevoked",
					"type": "event"
				},
				{
					"inputs": [],
					"name": "DEFAULT_ADMIN_ROLE",
					"outputs": [
						{
							"internalType": "bytes32",
							"name": "",
							"type": "bytes32"
						}
					],
					"stateMutability": "view",
					"type": "function"
				},
				{
					"inputs": [],
					"name": "MINTER_ROLE",
					"outputs": [
						{
							"internalType": "bytes32",
							"name": "",
							"type": "bytes32"
						}
					],
					"stateMutability": "view",
					"type": "function"
				},
				{
					"inputs": [
						{
							"internalType": "bytes32",
							"name": "role",
							"type": "bytes32"
						}
					],
					"name": "getRoleAdmin",
					"outputs": [
						{
							"internalType": "bytes32",
							"name": "",
							"type": "bytes32"
						}
					],
					"stateMutability": "view",
					"type": "function"
				},
				{
					"inputs": [
						{
							"internalType": "bytes32",
							"name": "role",
							"type": "bytes32"
						},
						{
							"internalType": "address",
							"name": "account",
							"type": "address"
						}
					],
					"name": "grantRole",
					"outputs": [],
					"stateMutability": "nonpayable",
					"type": "function"
				},
				{
					"inputs": [
						{
							"internalType": "bytes32",
							"name": "role",
							"type": "bytes32"
						},
						{
							"internalType": "address",
							"name": "account",
							"type": "address"
						}
					],
					"name": "hasRole",
					"outputs": [
						{
							"internalType": "bool",
							"name": "",
							"type": "bool"
						}
					],
					"stateMutability": "view",
					"type": "function"
				},
				{
					"inputs": [
						{
							"internalType": "bytes32",
							"name": "role",
							"type": "bytes32"
						},
						{
							"internalType": "address",
							"name": "account",
							"type": "address"
						}
					],
					"name": "renounceRole",
					"outputs": [],
					"stateMutability": "nonpayable",
					"type": "function"
				},
				{
					"inputs": [
						{
							"internalType": "bytes32",
							"name": "role",
							"type": "bytes32"
						},
						{
							"internalType": "address",
							"name": "account",
							"type": "address"
						}
					],
					"name": "revokeRole",
					"outputs": [],
					"stateMutability": "nonpayable",
					"type": "function"
				},
				{
					"inputs": [
						{
							"internalType": "bytes4",
							"name": "interfaceId",
							"type": "bytes4"
						}
					],
					"name": "supportsInterface",
					"outputs": [
						{
							"internalType": "bool",
							"name": "",
							"type": "bool"
						}
					],
					"stateMutability": "view",
					"type": "function"
				}
			],
			"devdoc": {
				"kind": "dev",
				"methods": {
					"getRoleAdmin(bytes32)": {
						"details": "Returns the admin role that controls `role`. See {grantRole} and {revokeRole}. To change a role's admin, use {_setRoleAdmin}."
					},
					"grantRole(bytes32,address)": {
						"details": "Grants `role` to `account`. If `account` had not been already granted `role`, emits a {RoleGranted} event. Requirements: - the caller must have ``role``'s admin role."
					},
					"hasRole(bytes32,address)": {
						"details": "Returns `true` if `account` has been granted `role`."
					},
					"renounceRole(bytes32,address)": {
						"details": "Revokes `role` from the calling account. Roles are often managed via {grantRole} and {revokeRole}: this function's purpose is to provide a mechanism for accounts to lose their privileges if they are compromised (such as when a trusted device is misplaced). If the calling account had been granted `role`, emits a {RoleRevoked} event. Requirements: - the caller must be `account`."
					},
					"revokeRole(bytes32,address)": {
						"details": "Revokes `role` from `account`. If `account` had been granted `role`, emits a {RoleRevoked} event. Requirements: - the caller must have ``role``'s admin role."
					},
					"supportsInterface(bytes4)": {
						"details": "See {IERC165-supportsInterface}."
					}
				},
				"version": 1
			},
			"evm": {
				"assembly": "    /* \"contracts/powerful-erc20.sol\":59140:59546  contract Roles is AccessControl {... */\n  mstore(0x40, 0x80)\n    /* \"contracts/powerful-erc20.sol\":59242:59364  constructor() {... */\n  callvalue\n  dup1\n  iszero\n  tag_1\n  jumpi\n  0x00\n  dup1\n  revert\ntag_1:\n  pop\n    /* \"contracts/powerful-erc20.sol\":59266:59310  _setupRole(DEFAULT_ADMIN_ROLE, _msgSender()) */\n  tag_4\n    /* \"contracts/powerful-erc20.sol\":53806:53810  0x00 */\n  0x00\n    /* \"contracts/powerful-erc20.sol\":4164:4174  msg.sender */\n  caller\n    /* \"contracts/powerful-erc20.sol\":59266:59276  _setupRole */\n  tag_7\n    /* \"contracts/powerful-erc20.sol\":59266:59310  _setupRole(DEFAULT_ADMIN_ROLE, _msgSender()) */\n  jump\t// in\ntag_4:\n    /* \"contracts/powerful-erc20.sol\":59320:59357  _setupRole(MINTER_ROLE, _msgSender()) */\n  tag_8\n    /* \"contracts/powerful-erc20.sol\":59216:59235  keccak256(\"MINTER\") */\n  0xf0887ba65ee2024ea881d91b74c2450ef19e1557f03bed3ea9f16b037cbe2dc9\n    /* \"contracts/powerful-erc20.sol\":4164:4174  msg.sender */\n  caller\n    /* \"contracts/powerful-erc20.sol\":59266:59276  _setupRole */\n  tag_7\n    /* \"contracts/powerful-erc20.sol\":59266:59310  _setupRole(DEFAULT_ADMIN_ROLE, _msgSender()) */\n  jump\t// in\n    /* \"contracts/powerful-erc20.sol\":59320:59357  _setupRole(MINTER_ROLE, _msgSender()) */\ntag_8:\n    /* \"contracts/powerful-erc20.sol\":59140:59546  contract Roles is AccessControl {... */\n  jump(tag_10)\n    /* \"contracts/powerful-erc20.sol\":58131:58241  function _setupRole(bytes32 role, address account) internal virtual {... */\ntag_7:\n    /* \"contracts/powerful-erc20.sol\":58209:58234  _grantRole(role, account) */\n  tag_13\n    /* \"contracts/powerful-erc20.sol\":58220:58224  role */\n  dup3\n    /* \"contracts/powerful-erc20.sol\":58226:58233  account */\n  dup3\n    /* \"contracts/powerful-erc20.sol\":58209:58219  _grantRole */\n  tag_14\n    /* \"contracts/powerful-erc20.sol\":58209:58234  _grantRole(role, account) */\n  jump\t// in\ntag_13:\n    /* \"contracts/powerful-erc20.sol\":58131:58241  function _setupRole(bytes32 role, address account) internal virtual {... */\n  pop\n  pop\n  jump\t// out\n    /* \"contracts/powerful-erc20.sol\":58619:58843  function _grantRole(bytes32 role, address account) private {... */\ntag_14:\n    /* \"contracts/powerful-erc20.sol\":54821:54825  bool */\n  0x00\n    /* \"contracts/powerful-erc20.sol\":54848:54860  _roles[role] */\n  dup3\n  dup2\n  mstore\n  0x20\n  dup2\n  dup2\n  mstore\n  0x40\n  dup1\n  dup4\n  keccak256\n  sub(shl(0xa0, 0x01), 0x01)\n    /* \"contracts/powerful-erc20.sol\":54848:54877  _roles[role].members[account] */\n  dup6\n  and\n  dup5\n  mstore\n  swap1\n  swap2\n  mstore\n  swap1\n  keccak256\n  sload\n  0xff\n  and\n    /* \"contracts/powerful-erc20.sol\":58688:58837  if (!hasRole(role, account)) {... */\n  tag_13\n  jumpi\n    /* \"contracts/powerful-erc20.sol\":58731:58737  _roles */\n  0x00\n    /* \"contracts/powerful-erc20.sol\":58731:58743  _roles[role] */\n  dup3\n  dup2\n  mstore\n  0x20\n  dup2\n  dup2\n  mstore\n  0x40\n  dup1\n  dup4\n  keccak256\n  sub(shl(0xa0, 0x01), 0x01)\n    /* \"contracts/powerful-erc20.sol\":58731:58760  _roles[role].members[account] */\n  dup6\n  and\n  dup5\n  mstore\n  swap1\n  swap2\n  mstore\n  swap1\n  keccak256\n    /* \"contracts/powerful-erc20.sol\":58731:58767  _roles[role].members[account] = true */\n  dup1\n  sload\n  not(0xff)\n  and\n    /* \"contracts/powerful-erc20.sol\":58763:58767  true */\n  0x01\n    /* \"contracts/powerful-erc20.sol\":58731:58767  _roles[role].members[account] = true */\n  or\n  swap1\n  sstore\n    /* \"contracts/powerful-erc20.sol\":58813:58825  _msgSender() */\n  tag_19\n    /* \"contracts/powerful-erc20.sol\":4164:4174  msg.sender */\n  caller\n  swap1\n    /* \"contracts/powerful-erc20.sol\":4085:4181  function _msgSender() internal view virtual returns (address) {... */\n  jump\n    /* \"contracts/powerful-erc20.sol\":58813:58825  _msgSender() */\ntag_19:\n  sub(shl(0xa0, 0x01), 0x01)\n    /* \"contracts/powerful-erc20.sol\":58786:58826  RoleGranted(role, account, _msgSender()) */\n  and\n    /* \"contracts/powerful-erc20.sol\":58804:58811  account */\n  dup2\n  sub(shl(0xa0, 0x01), 0x01)\n    /* \"contracts/powerful-erc20.sol\":58786:58826  RoleGranted(role, account, _msgSender()) */\n  and\n    /* \"contracts/powerful-erc20.sol\":58798:58802  role */\n  dup4\n    /* \"contracts/powerful-erc20.sol\":58786:58826  RoleGranted(role, account, _msgSender()) */\n  0x2f8788117e7eff1d82e926ec794901d17c78024a50270940304540a733656f0d\n  mload(0x40)\n  mload(0x40)\n  dup1\n  swap2\n  sub\n  swap1\n  log4\n    /* \"contracts/powerful-erc20.sol\":58619:58843  function _grantRole(bytes32 role, address account) private {... */\n  pop\n  pop\n  jump\t// out\n    /* \"contracts/powerful-erc20.sol\":59140:59546  contract Roles is AccessControl {... */\ntag_10:\n  dataSize(sub_0)\n  dup1\n  dataOffset(sub_0)\n  0x00\n  codecopy\n  0x00\n  return\nstop\n\nsub_0: assembly {\n        /* \"contracts/powerful-erc20.sol\":59140:59546  contract Roles is AccessControl {... */\n      mstore(0x40, 0x80)\n      callvalue\n      dup1\n      iszero\n      tag_1\n      jumpi\n      0x00\n      dup1\n      revert\n    tag_1:\n      pop\n      jumpi(tag_2, lt(calldatasize, 0x04))\n      shr(0xe0, calldataload(0x00))\n      dup1\n      0x91d14854\n      gt\n      tag_11\n      jumpi\n      dup1\n      0x91d14854\n      eq\n      tag_7\n      jumpi\n      dup1\n      0xa217fddf\n      eq\n      tag_8\n      jumpi\n      dup1\n      0xd5391393\n      eq\n      tag_9\n      jumpi\n      dup1\n      0xd547741f\n      eq\n      tag_10\n      jumpi\n      0x00\n      dup1\n      revert\n    tag_11:\n      dup1\n      0x01ffc9a7\n      eq\n      tag_3\n      jumpi\n      dup1\n      0x248a9ca3\n      eq\n      tag_4\n      jumpi\n      dup1\n      0x2f2ff15d\n      eq\n      tag_5\n      jumpi\n      dup1\n      0x36568abe\n      eq\n      tag_6\n      jumpi\n    tag_2:\n      0x00\n      dup1\n      revert\n        /* \"contracts/powerful-erc20.sol\":54354:54624  function supportsInterface(bytes4 interfaceId)... */\n    tag_3:\n      tag_12\n      tag_13\n      calldatasize\n      0x04\n      tag_14\n      jump\t// in\n    tag_13:\n      tag_15\n      jump\t// in\n    tag_12:\n      mload(0x40)\n        /* \"#utility.yul\":1805:1819   */\n      swap1\n      iszero\n        /* \"#utility.yul\":1798:1820   */\n      iszero\n        /* \"#utility.yul\":1780:1821   */\n      dup2\n      mstore\n        /* \"#utility.yul\":1768:1770   */\n      0x20\n        /* \"#utility.yul\":1753:1771   */\n      add\n        /* \"contracts/powerful-erc20.sol\":54354:54624  function supportsInterface(bytes4 interfaceId)... */\n    tag_16:\n      mload(0x40)\n      dup1\n      swap2\n      sub\n      swap1\n      return\n        /* \"contracts/powerful-erc20.sol\":55830:55951  function getRoleAdmin(bytes32 role) public view override returns (bytes32) {... */\n    tag_4:\n      tag_18\n      tag_19\n      calldatasize\n      0x04\n      tag_20\n      jump\t// in\n    tag_19:\n        /* \"contracts/powerful-erc20.sol\":55896:55903  bytes32 */\n      0x00\n        /* \"contracts/powerful-erc20.sol\":55922:55934  _roles[role] */\n      swap1\n      dup2\n      mstore\n      0x20\n      dup2\n      swap1\n      mstore\n      0x40\n      swap1\n      keccak256\n        /* \"contracts/powerful-erc20.sol\":55922:55944  _roles[role].adminRole */\n      0x01\n      add\n      sload\n      swap1\n        /* \"contracts/powerful-erc20.sol\":55830:55951  function getRoleAdmin(bytes32 role) public view override returns (bytes32) {... */\n      jump\n    tag_18:\n      mload(0x40)\n        /* \"#utility.yul\":1978:2003   */\n      swap1\n      dup2\n      mstore\n        /* \"#utility.yul\":1966:1968   */\n      0x20\n        /* \"#utility.yul\":1951:1969   */\n      add\n        /* \"contracts/powerful-erc20.sol\":55830:55951  function getRoleAdmin(bytes32 role) public view override returns (bytes32) {... */\n      tag_16\n        /* \"#utility.yul\":1832:2009   */\n      jump\n        /* \"contracts/powerful-erc20.sol\":56201:56382  function grantRole(bytes32 role, address account)... */\n    tag_5:\n      tag_24\n      tag_25\n      calldatasize\n      0x04\n      tag_26\n      jump\t// in\n    tag_25:\n      tag_27\n      jump\t// in\n    tag_24:\n      stop\n        /* \"contracts/powerful-erc20.sol\":57290:57566  function renounceRole(bytes32 role, address account)... */\n    tag_6:\n      tag_24\n      tag_29\n      calldatasize\n      0x04\n      tag_26\n      jump\t// in\n    tag_29:\n      tag_30\n      jump\t// in\n        /* \"contracts/powerful-erc20.sol\":54711:54884  function hasRole(bytes32 role, address account)... */\n    tag_7:\n      tag_12\n      tag_32\n      calldatasize\n      0x04\n      tag_26\n      jump\t// in\n    tag_32:\n      tag_33\n      jump\t// in\n        /* \"contracts/powerful-erc20.sol\":53761:53810  bytes32 public constant DEFAULT_ADMIN_ROLE = 0x00 */\n    tag_8:\n      tag_18\n        /* \"contracts/powerful-erc20.sol\":53806:53810  0x00 */\n      0x00\n        /* \"contracts/powerful-erc20.sol\":53761:53810  bytes32 public constant DEFAULT_ADMIN_ROLE = 0x00 */\n      dup2\n      jump\n        /* \"contracts/powerful-erc20.sol\":59178:59235  bytes32 public constant MINTER_ROLE = keccak256(\"MINTER\") */\n    tag_9:\n      tag_18\n        /* \"contracts/powerful-erc20.sol\":59216:59235  keccak256(\"MINTER\") */\n      0xf0887ba65ee2024ea881d91b74c2450ef19e1557f03bed3ea9f16b037cbe2dc9\n        /* \"contracts/powerful-erc20.sol\":59178:59235  bytes32 public constant MINTER_ROLE = keccak256(\"MINTER\") */\n      dup2\n      jump\n        /* \"contracts/powerful-erc20.sol\":56616:56799  function revokeRole(bytes32 role, address account)... */\n    tag_10:\n      tag_24\n      tag_42\n      calldatasize\n      0x04\n      tag_26\n      jump\t// in\n    tag_42:\n      tag_43\n      jump\t// in\n        /* \"contracts/powerful-erc20.sol\":54354:54624  function supportsInterface(bytes4 interfaceId)... */\n    tag_15:\n        /* \"contracts/powerful-erc20.sol\":54479:54483  bool */\n      0x00\n      not(sub(shl(0xe0, 0x01), 0x01))\n        /* \"contracts/powerful-erc20.sol\":54518:54565  interfaceId == type(IAccessControl).interfaceId */\n      dup3\n      and\n      shl(0xe0, 0x7965db0b)\n      eq\n      dup1\n        /* \"contracts/powerful-erc20.sol\":54518:54617  interfaceId == type(IAccessControl).interfaceId ||... */\n      tag_46\n      jumpi\n      pop\n      shl(0xe0, 0x01ffc9a7)\n      not(sub(shl(0xe0, 0x01), 0x01))\n        /* \"contracts/powerful-erc20.sol\":28589:28629  interfaceId == type(IERC165).interfaceId */\n      dup4\n      and\n      eq\n        /* \"contracts/powerful-erc20.sol\":54581:54617  super.supportsInterface(interfaceId) */\n    tag_46:\n        /* \"contracts/powerful-erc20.sol\":54499:54617  return... */\n      swap3\n        /* \"contracts/powerful-erc20.sol\":54354:54624  function supportsInterface(bytes4 interfaceId)... */\n      swap2\n      pop\n      pop\n      jump\t// out\n        /* \"contracts/powerful-erc20.sol\":56201:56382  function grantRole(bytes32 role, address account)... */\n    tag_27:\n        /* \"contracts/powerful-erc20.sol\":55896:55903  bytes32 */\n      0x00\n        /* \"contracts/powerful-erc20.sol\":55922:55934  _roles[role] */\n      dup3\n      dup2\n      mstore\n      0x20\n      dup2\n      swap1\n      mstore\n      0x40\n      swap1\n      keccak256\n        /* \"contracts/powerful-erc20.sol\":55922:55944  _roles[role].adminRole */\n      0x01\n      add\n      sload\n        /* \"contracts/powerful-erc20.sol\":54239:54269  _checkRole(role, _msgSender()) */\n      tag_51\n        /* \"contracts/powerful-erc20.sol\":54250:54254  role */\n      dup2\n        /* \"contracts/powerful-erc20.sol\":4164:4174  msg.sender */\n      caller\n        /* \"contracts/powerful-erc20.sol\":54239:54249  _checkRole */\n      tag_54\n        /* \"contracts/powerful-erc20.sol\":54239:54269  _checkRole(role, _msgSender()) */\n      jump\t// in\n    tag_51:\n        /* \"contracts/powerful-erc20.sol\":56350:56375  _grantRole(role, account) */\n      tag_56\n        /* \"contracts/powerful-erc20.sol\":56361:56365  role */\n      dup4\n        /* \"contracts/powerful-erc20.sol\":56367:56374  account */\n      dup4\n        /* \"contracts/powerful-erc20.sol\":56350:56360  _grantRole */\n      tag_57\n        /* \"contracts/powerful-erc20.sol\":56350:56375  _grantRole(role, account) */\n      jump\t// in\n    tag_56:\n        /* \"contracts/powerful-erc20.sol\":56201:56382  function grantRole(bytes32 role, address account)... */\n      pop\n      pop\n      pop\n      jump\t// out\n        /* \"contracts/powerful-erc20.sol\":57290:57566  function renounceRole(bytes32 role, address account)... */\n    tag_30:\n      sub(shl(0xa0, 0x01), 0x01)\n        /* \"contracts/powerful-erc20.sol\":57426:57449  account == _msgSender() */\n      dup2\n      and\n        /* \"contracts/powerful-erc20.sol\":4164:4174  msg.sender */\n      caller\n        /* \"contracts/powerful-erc20.sol\":57426:57449  account == _msgSender() */\n      eq\n        /* \"contracts/powerful-erc20.sol\":57405:57522  require(... */\n      tag_60\n      jumpi\n      mload(0x40)\n      shl(0xe5, 0x461bcd)\n      dup2\n      mstore\n        /* \"#utility.yul\":2965:2967   */\n      0x20\n        /* \"contracts/powerful-erc20.sol\":57405:57522  require(... */\n      0x04\n      dup3\n      add\n        /* \"#utility.yul\":2947:2968   */\n      mstore\n        /* \"#utility.yul\":3004:3006   */\n      0x2f\n        /* \"#utility.yul\":2984:3002   */\n      0x24\n      dup3\n      add\n        /* \"#utility.yul\":2977:3007   */\n      mstore\n        /* \"#utility.yul\":3043:3077   */\n      0x416363657373436f6e74726f6c3a2063616e206f6e6c792072656e6f756e6365\n        /* \"#utility.yul\":3023:3041   */\n      0x44\n      dup3\n      add\n        /* \"#utility.yul\":3016:3078   */\n      mstore\n      shl(0x89, 0x103937b632b9903337b91039b2b633)\n        /* \"#utility.yul\":3094:3112   */\n      0x64\n      dup3\n      add\n        /* \"#utility.yul\":3087:3132   */\n      mstore\n        /* \"#utility.yul\":3149:3168   */\n      0x84\n      add\n        /* \"contracts/powerful-erc20.sol\":57405:57522  require(... */\n    tag_61:\n      mload(0x40)\n      dup1\n      swap2\n      sub\n      swap1\n      revert\n    tag_60:\n        /* \"contracts/powerful-erc20.sol\":57533:57559  _revokeRole(role, account) */\n      tag_63\n        /* \"contracts/powerful-erc20.sol\":57545:57549  role */\n      dup3\n        /* \"contracts/powerful-erc20.sol\":57551:57558  account */\n      dup3\n        /* \"contracts/powerful-erc20.sol\":57533:57544  _revokeRole */\n      tag_64\n        /* \"contracts/powerful-erc20.sol\":57533:57559  _revokeRole(role, account) */\n      jump\t// in\n    tag_63:\n        /* \"contracts/powerful-erc20.sol\":57290:57566  function renounceRole(bytes32 role, address account)... */\n      pop\n      pop\n      jump\t// out\n        /* \"contracts/powerful-erc20.sol\":54711:54884  function hasRole(bytes32 role, address account)... */\n    tag_33:\n        /* \"contracts/powerful-erc20.sol\":54821:54825  bool */\n      0x00\n        /* \"contracts/powerful-erc20.sol\":54848:54860  _roles[role] */\n      swap2\n      dup3\n      mstore\n      0x20\n      dup3\n      dup2\n      mstore\n      0x40\n      dup1\n      dup5\n      keccak256\n      sub(shl(0xa0, 0x01), 0x01)\n        /* \"contracts/powerful-erc20.sol\":54848:54877  _roles[role].members[account] */\n      swap4\n      swap1\n      swap4\n      and\n      dup5\n      mstore\n      swap2\n      swap1\n      mstore\n      swap1\n      keccak256\n      sload\n      0xff\n      and\n      swap1\n        /* \"contracts/powerful-erc20.sol\":54711:54884  function hasRole(bytes32 role, address account)... */\n      jump\t// out\n        /* \"contracts/powerful-erc20.sol\":56616:56799  function revokeRole(bytes32 role, address account)... */\n    tag_43:\n        /* \"contracts/powerful-erc20.sol\":55896:55903  bytes32 */\n      0x00\n        /* \"contracts/powerful-erc20.sol\":55922:55934  _roles[role] */\n      dup3\n      dup2\n      mstore\n      0x20\n      dup2\n      swap1\n      mstore\n      0x40\n      swap1\n      keccak256\n        /* \"contracts/powerful-erc20.sol\":55922:55944  _roles[role].adminRole */\n      0x01\n      add\n      sload\n        /* \"contracts/powerful-erc20.sol\":54239:54269  _checkRole(role, _msgSender()) */\n      tag_68\n        /* \"contracts/powerful-erc20.sol\":54250:54254  role */\n      dup2\n        /* \"contracts/powerful-erc20.sol\":4164:4174  msg.sender */\n      caller\n        /* \"contracts/powerful-erc20.sol\":54239:54249  _checkRole */\n      tag_54\n        /* \"contracts/powerful-erc20.sol\":54239:54269  _checkRole(role, _msgSender()) */\n      jump\t// in\n    tag_68:\n        /* \"contracts/powerful-erc20.sol\":56766:56792  _revokeRole(role, account) */\n      tag_56\n        /* \"contracts/powerful-erc20.sol\":56778:56782  role */\n      dup4\n        /* \"contracts/powerful-erc20.sol\":56784:56791  account */\n      dup4\n        /* \"contracts/powerful-erc20.sol\":56766:56777  _revokeRole */\n      tag_64\n        /* \"contracts/powerful-erc20.sol\":56766:56792  _revokeRole(role, account) */\n      jump\t// in\n        /* \"contracts/powerful-erc20.sol\":55165:55649  function _checkRole(bytes32 role, address account) internal view {... */\n    tag_54:\n        /* \"contracts/powerful-erc20.sol\":55245:55267  hasRole(role, account) */\n      tag_75\n        /* \"contracts/powerful-erc20.sol\":55253:55257  role */\n      dup3\n        /* \"contracts/powerful-erc20.sol\":55259:55266  account */\n      dup3\n        /* \"contracts/powerful-erc20.sol\":55245:55252  hasRole */\n      tag_33\n        /* \"contracts/powerful-erc20.sol\":55245:55267  hasRole(role, account) */\n      jump\t// in\n    tag_75:\n        /* \"contracts/powerful-erc20.sol\":55240:55643  if (!hasRole(role, account)) {... */\n      tag_63\n      jumpi\n        /* \"contracts/powerful-erc20.sol\":55428:55469  Strings.toHexString(uint160(account), 20) */\n      tag_77\n        /* \"contracts/powerful-erc20.sol\":55456:55463  account */\n      dup2\n      sub(shl(0xa0, 0x01), 0x01)\n        /* \"contracts/powerful-erc20.sol\":55428:55469  Strings.toHexString(uint160(account), 20) */\n      and\n        /* \"contracts/powerful-erc20.sol\":55466:55468  20 */\n      0x14\n        /* \"contracts/powerful-erc20.sol\":55428:55447  Strings.toHexString */\n      tag_78\n        /* \"contracts/powerful-erc20.sol\":55428:55469  Strings.toHexString(uint160(account), 20) */\n      jump\t// in\n    tag_77:\n        /* \"contracts/powerful-erc20.sol\":55540:55578  Strings.toHexString(uint256(role), 32) */\n      tag_79\n        /* \"contracts/powerful-erc20.sol\":55568:55572  role */\n      dup4\n        /* \"contracts/powerful-erc20.sol\":55575:55577  32 */\n      0x20\n        /* \"contracts/powerful-erc20.sol\":55540:55559  Strings.toHexString */\n      tag_78\n        /* \"contracts/powerful-erc20.sol\":55540:55578  Strings.toHexString(uint256(role), 32) */\n      jump\t// in\n    tag_79:\n        /* \"contracts/powerful-erc20.sol\":55335:55600  abi.encodePacked(... */\n      add(0x20, mload(0x40))\n      tag_80\n      swap3\n      swap2\n      swap1\n      tag_81\n      jump\t// in\n    tag_80:\n      0x40\n      dup1\n      mload\n      not(0x1f)\n      dup2\n      dup5\n      sub\n      add\n      dup2\n      mstore\n      swap1\n      dup3\n      swap1\n      mstore\n      shl(0xe5, 0x461bcd)\n        /* \"contracts/powerful-erc20.sol\":55283:55632  revert(... */\n      dup3\n      mstore\n      tag_61\n      swap2\n      0x04\n      add\n      tag_83\n      jump\t// in\n        /* \"contracts/powerful-erc20.sol\":58619:58843  function _grantRole(bytes32 role, address account) private {... */\n    tag_57:\n        /* \"contracts/powerful-erc20.sol\":58693:58715  hasRole(role, account) */\n      tag_85\n        /* \"contracts/powerful-erc20.sol\":58701:58705  role */\n      dup3\n        /* \"contracts/powerful-erc20.sol\":58707:58714  account */\n      dup3\n        /* \"contracts/powerful-erc20.sol\":58693:58700  hasRole */\n      tag_33\n        /* \"contracts/powerful-erc20.sol\":58693:58715  hasRole(role, account) */\n      jump\t// in\n    tag_85:\n        /* \"contracts/powerful-erc20.sol\":58688:58837  if (!hasRole(role, account)) {... */\n      tag_63\n      jumpi\n        /* \"contracts/powerful-erc20.sol\":58731:58737  _roles */\n      0x00\n        /* \"contracts/powerful-erc20.sol\":58731:58743  _roles[role] */\n      dup3\n      dup2\n      mstore\n      0x20\n      dup2\n      dup2\n      mstore\n      0x40\n      dup1\n      dup4\n      keccak256\n      sub(shl(0xa0, 0x01), 0x01)\n        /* \"contracts/powerful-erc20.sol\":58731:58760  _roles[role].members[account] */\n      dup6\n      and\n      dup5\n      mstore\n      swap1\n      swap2\n      mstore\n      swap1\n      keccak256\n        /* \"contracts/powerful-erc20.sol\":58731:58767  _roles[role].members[account] = true */\n      dup1\n      sload\n      not(0xff)\n      and\n        /* \"contracts/powerful-erc20.sol\":58763:58767  true */\n      0x01\n        /* \"contracts/powerful-erc20.sol\":58731:58767  _roles[role].members[account] = true */\n      or\n      swap1\n      sstore\n        /* \"contracts/powerful-erc20.sol\":58813:58825  _msgSender() */\n      tag_87\n        /* \"contracts/powerful-erc20.sol\":4164:4174  msg.sender */\n      caller\n      swap1\n        /* \"contracts/powerful-erc20.sol\":4085:4181  function _msgSender() internal view virtual returns (address) {... */\n      jump\n        /* \"contracts/powerful-erc20.sol\":58813:58825  _msgSender() */\n    tag_87:\n      sub(shl(0xa0, 0x01), 0x01)\n        /* \"contracts/powerful-erc20.sol\":58786:58826  RoleGranted(role, account, _msgSender()) */\n      and\n        /* \"contracts/powerful-erc20.sol\":58804:58811  account */\n      dup2\n      sub(shl(0xa0, 0x01), 0x01)\n        /* \"contracts/powerful-erc20.sol\":58786:58826  RoleGranted(role, account, _msgSender()) */\n      and\n        /* \"contracts/powerful-erc20.sol\":58798:58802  role */\n      dup4\n        /* \"contracts/powerful-erc20.sol\":58786:58826  RoleGranted(role, account, _msgSender()) */\n      0x2f8788117e7eff1d82e926ec794901d17c78024a50270940304540a733656f0d\n      mload(0x40)\n      mload(0x40)\n      dup1\n      swap2\n      sub\n      swap1\n      log4\n        /* \"contracts/powerful-erc20.sol\":58619:58843  function _grantRole(bytes32 role, address account) private {... */\n      pop\n      pop\n      jump\t// out\n        /* \"contracts/powerful-erc20.sol\":58849:59074  function _revokeRole(bytes32 role, address account) private {... */\n    tag_64:\n        /* \"contracts/powerful-erc20.sol\":58923:58945  hasRole(role, account) */\n      tag_89\n        /* \"contracts/powerful-erc20.sol\":58931:58935  role */\n      dup3\n        /* \"contracts/powerful-erc20.sol\":58937:58944  account */\n      dup3\n        /* \"contracts/powerful-erc20.sol\":58923:58930  hasRole */\n      tag_33\n        /* \"contracts/powerful-erc20.sol\":58923:58945  hasRole(role, account) */\n      jump\t// in\n    tag_89:\n        /* \"contracts/powerful-erc20.sol\":58919:59068  if (hasRole(role, account)) {... */\n      iszero\n      tag_63\n      jumpi\n        /* \"contracts/powerful-erc20.sol\":58993:58998  false */\n      0x00\n        /* \"contracts/powerful-erc20.sol\":58961:58973  _roles[role] */\n      dup3\n      dup2\n      mstore\n      0x20\n      dup2\n      dup2\n      mstore\n      0x40\n      dup1\n      dup4\n      keccak256\n      sub(shl(0xa0, 0x01), 0x01)\n        /* \"contracts/powerful-erc20.sol\":58961:58990  _roles[role].members[account] */\n      dup6\n      and\n      dup1\n      dup6\n      mstore\n      swap3\n      mstore\n      dup1\n      dup4\n      keccak256\n        /* \"contracts/powerful-erc20.sol\":58961:58998  _roles[role].members[account] = false */\n      dup1\n      sload\n      not(0xff)\n      and\n      swap1\n      sstore\n        /* \"contracts/powerful-erc20.sol\":59017:59057  RoleRevoked(role, account, _msgSender()) */\n      mload\n        /* \"contracts/powerful-erc20.sol\":4164:4174  msg.sender */\n      caller\n      swap3\n        /* \"contracts/powerful-erc20.sol\":58961:58973  _roles[role] */\n      dup6\n      swap2\n        /* \"contracts/powerful-erc20.sol\":59017:59057  RoleRevoked(role, account, _msgSender()) */\n      0xf6391f5c32d9c69d2a47ea670b442974b53935d1edc7fd64eb21e047a839171b\n      swap2\n        /* \"contracts/powerful-erc20.sol\":58993:58998  false */\n      swap1\n        /* \"contracts/powerful-erc20.sol\":59017:59057  RoleRevoked(role, account, _msgSender()) */\n      log4\n        /* \"contracts/powerful-erc20.sol\":58849:59074  function _revokeRole(bytes32 role, address account) private {... */\n      pop\n      pop\n      jump\t// out\n        /* \"contracts/powerful-erc20.sol\":51448:51917  function toHexString(uint256 value, uint256 length)... */\n    tag_78:\n        /* \"contracts/powerful-erc20.sol\":51547:51560  string memory */\n      0x60\n        /* \"contracts/powerful-erc20.sol\":51576:51595  bytes memory buffer */\n      0x00\n        /* \"contracts/powerful-erc20.sol\":51608:51618  2 * length */\n      tag_93\n        /* \"contracts/powerful-erc20.sol\":51612:51618  length */\n      dup4\n        /* \"contracts/powerful-erc20.sol\":51608:51609  2 */\n      0x02\n        /* \"contracts/powerful-erc20.sol\":51608:51618  2 * length */\n      tag_94\n      jump\t// in\n    tag_93:\n        /* \"contracts/powerful-erc20.sol\":51608:51622  2 * length + 2 */\n      tag_95\n      swap1\n        /* \"contracts/powerful-erc20.sol\":51621:51622  2 */\n      0x02\n        /* \"contracts/powerful-erc20.sol\":51608:51622  2 * length + 2 */\n      tag_96\n      jump\t// in\n    tag_95:\n        /* \"contracts/powerful-erc20.sol\":51598:51623  new bytes(2 * length + 2) */\n      0xffffffffffffffff\n      dup2\n      gt\n      iszero\n      tag_98\n      jumpi\n      tag_98\n      tag_99\n      jump\t// in\n    tag_98:\n      mload(0x40)\n      swap1\n      dup1\n      dup3\n      mstore\n      dup1\n      0x1f\n      add\n      not(0x1f)\n      and\n      0x20\n      add\n      dup3\n      add\n      0x40\n      mstore\n      dup1\n      iszero\n      tag_100\n      jumpi\n      0x20\n      dup3\n      add\n      dup2\n      dup1\n      calldatasize\n      dup4\n      calldatacopy\n      add\n      swap1\n      pop\n    tag_100:\n      pop\n        /* \"contracts/powerful-erc20.sol\":51576:51623  bytes memory buffer = new bytes(2 * length + 2) */\n      swap1\n      pop\n      shl(0xfc, 0x03)\n        /* \"contracts/powerful-erc20.sol\":51633:51639  buffer */\n      dup2\n        /* \"contracts/powerful-erc20.sol\":51640:51641  0 */\n      0x00\n        /* \"contracts/powerful-erc20.sol\":51633:51642  buffer[0] */\n      dup2\n      mload\n      dup2\n      lt\n      tag_102\n      jumpi\n      tag_102\n      tag_103\n      jump\t// in\n    tag_102:\n      0x20\n      add\n      add\n        /* \"contracts/powerful-erc20.sol\":51633:51648  buffer[0] = \"0\" */\n      swap1\n      not(sub(shl(0xf8, 0x01), 0x01))\n      and\n      swap1\n      dup2\n      0x00\n      byte\n      swap1\n      mstore8\n      pop\n      shl(0xfb, 0x0f)\n        /* \"contracts/powerful-erc20.sol\":51658:51664  buffer */\n      dup2\n        /* \"contracts/powerful-erc20.sol\":51665:51666  1 */\n      0x01\n        /* \"contracts/powerful-erc20.sol\":51658:51667  buffer[1] */\n      dup2\n      mload\n      dup2\n      lt\n      tag_105\n      jumpi\n      tag_105\n      tag_103\n      jump\t// in\n    tag_105:\n      0x20\n      add\n      add\n        /* \"contracts/powerful-erc20.sol\":51658:51673  buffer[1] = \"x\" */\n      swap1\n      not(sub(shl(0xf8, 0x01), 0x01))\n      and\n      swap1\n      dup2\n      0x00\n      byte\n      swap1\n      mstore8\n      pop\n        /* \"contracts/powerful-erc20.sol\":51688:51697  uint256 i */\n      0x00\n        /* \"contracts/powerful-erc20.sol\":51700:51710  2 * length */\n      tag_109\n        /* \"contracts/powerful-erc20.sol\":51704:51710  length */\n      dup5\n        /* \"contracts/powerful-erc20.sol\":51700:51701  2 */\n      0x02\n        /* \"contracts/powerful-erc20.sol\":51700:51710  2 * length */\n      tag_94\n      jump\t// in\n    tag_109:\n        /* \"contracts/powerful-erc20.sol\":51700:51714  2 * length + 1 */\n      tag_110\n      swap1\n        /* \"contracts/powerful-erc20.sol\":51713:51714  1 */\n      0x01\n        /* \"contracts/powerful-erc20.sol\":51700:51714  2 * length + 1 */\n      tag_96\n      jump\t// in\n    tag_110:\n        /* \"contracts/powerful-erc20.sol\":51688:51714  uint256 i = 2 * length + 1 */\n      swap1\n      pop\n        /* \"contracts/powerful-erc20.sol\":51683:51815  for (uint256 i = 2 * length + 1; i > 1; --i) {... */\n    tag_106:\n        /* \"contracts/powerful-erc20.sol\":51720:51721  1 */\n      0x01\n        /* \"contracts/powerful-erc20.sol\":51716:51717  i */\n      dup2\n        /* \"contracts/powerful-erc20.sol\":51716:51721  i > 1 */\n      gt\n        /* \"contracts/powerful-erc20.sol\":51683:51815  for (uint256 i = 2 * length + 1; i > 1; --i) {... */\n      iszero\n      tag_107\n      jumpi\n      shl(0x81, 0x181899199a1a9b1b9c1cb0b131b232b3)\n        /* \"contracts/powerful-erc20.sol\":51767:51772  value */\n      dup6\n        /* \"contracts/powerful-erc20.sol\":51775:51778  0xf */\n      0x0f\n        /* \"contracts/powerful-erc20.sol\":51767:51778  value & 0xf */\n      and\n        /* \"contracts/powerful-erc20.sol\":51754:51779  _HEX_SYMBOLS[value & 0xf] */\n      0x10\n      dup2\n      lt\n      tag_112\n      jumpi\n      tag_112\n      tag_103\n      jump\t// in\n    tag_112:\n      byte\n      0xf8\n      shl\n        /* \"contracts/powerful-erc20.sol\":51742:51748  buffer */\n      dup3\n        /* \"contracts/powerful-erc20.sol\":51749:51750  i */\n      dup3\n        /* \"contracts/powerful-erc20.sol\":51742:51751  buffer[i] */\n      dup2\n      mload\n      dup2\n      lt\n      tag_114\n      jumpi\n      tag_114\n      tag_103\n      jump\t// in\n    tag_114:\n      0x20\n      add\n      add\n        /* \"contracts/powerful-erc20.sol\":51742:51779  buffer[i] = _HEX_SYMBOLS[value & 0xf] */\n      swap1\n      not(sub(shl(0xf8, 0x01), 0x01))\n      and\n      swap1\n      dup2\n      0x00\n      byte\n      swap1\n      mstore8\n      pop\n        /* \"contracts/powerful-erc20.sol\":51803:51804  4 */\n      0x04\n        /* \"contracts/powerful-erc20.sol\":51793:51804  value >>= 4 */\n      swap5\n      swap1\n      swap5\n      shr\n      swap4\n        /* \"contracts/powerful-erc20.sol\":51723:51726  --i */\n      tag_115\n      dup2\n      tag_116\n      jump\t// in\n    tag_115:\n      swap1\n      pop\n        /* \"contracts/powerful-erc20.sol\":51683:51815  for (uint256 i = 2 * length + 1; i > 1; --i) {... */\n      jump(tag_106)\n    tag_107:\n      pop\n        /* \"contracts/powerful-erc20.sol\":51832:51842  value == 0 */\n      dup4\n      iszero\n        /* \"contracts/powerful-erc20.sol\":51824:51879  require(value == 0, \"Strings: hex length insufficient\") */\n      tag_117\n      jumpi\n      mload(0x40)\n      shl(0xe5, 0x461bcd)\n      dup2\n      mstore\n        /* \"#utility.yul\":2604:2606   */\n      0x20\n        /* \"contracts/powerful-erc20.sol\":51824:51879  require(value == 0, \"Strings: hex length insufficient\") */\n      0x04\n      dup3\n      add\n        /* \"#utility.yul\":2586:2607   */\n      dup2\n      swap1\n      mstore\n        /* \"#utility.yul\":2623:2641   */\n      0x24\n      dup3\n      add\n        /* \"#utility.yul\":2616:2646   */\n      mstore\n        /* \"#utility.yul\":2682:2716   */\n      0x537472696e67733a20686578206c656e67746820696e73756666696369656e74\n        /* \"#utility.yul\":2662:2680   */\n      0x44\n      dup3\n      add\n        /* \"#utility.yul\":2655:2717   */\n      mstore\n        /* \"#utility.yul\":2734:2752   */\n      0x64\n      add\n        /* \"contracts/powerful-erc20.sol\":51824:51879  require(value == 0, \"Strings: hex length insufficient\") */\n      tag_61\n        /* \"#utility.yul\":2402:2758   */\n      jump\n        /* \"contracts/powerful-erc20.sol\":51824:51879  require(value == 0, \"Strings: hex length insufficient\") */\n    tag_117:\n        /* \"contracts/powerful-erc20.sol\":51903:51909  buffer */\n      swap4\n        /* \"contracts/powerful-erc20.sol\":51448:51917  function toHexString(uint256 value, uint256 length)... */\n      swap3\n      pop\n      pop\n      pop\n      jump\t// out\n        /* \"#utility.yul\":14:194   */\n    tag_20:\n        /* \"#utility.yul\":73:79   */\n      0x00\n        /* \"#utility.yul\":126:128   */\n      0x20\n        /* \"#utility.yul\":114:123   */\n      dup3\n        /* \"#utility.yul\":105:112   */\n      dup5\n        /* \"#utility.yul\":101:124   */\n      sub\n        /* \"#utility.yul\":97:129   */\n      slt\n        /* \"#utility.yul\":94:146   */\n      iszero\n      tag_122\n      jumpi\n        /* \"#utility.yul\":142:143   */\n      0x00\n        /* \"#utility.yul\":139:140   */\n      dup1\n        /* \"#utility.yul\":132:144   */\n      revert\n        /* \"#utility.yul\":94:146   */\n    tag_122:\n      pop\n        /* \"#utility.yul\":165:188   */\n      calldataload\n      swap2\n        /* \"#utility.yul\":14:194   */\n      swap1\n      pop\n      jump\t// out\n        /* \"#utility.yul\":199:553   */\n    tag_26:\n        /* \"#utility.yul\":267:273   */\n      0x00\n        /* \"#utility.yul\":275:281   */\n      dup1\n        /* \"#utility.yul\":328:330   */\n      0x40\n        /* \"#utility.yul\":316:325   */\n      dup4\n        /* \"#utility.yul\":307:314   */\n      dup6\n        /* \"#utility.yul\":303:326   */\n      sub\n        /* \"#utility.yul\":299:331   */\n      slt\n        /* \"#utility.yul\":296:348   */\n      iszero\n      tag_124\n      jumpi\n        /* \"#utility.yul\":344:345   */\n      0x00\n        /* \"#utility.yul\":341:342   */\n      dup1\n        /* \"#utility.yul\":334:346   */\n      revert\n        /* \"#utility.yul\":296:348   */\n    tag_124:\n        /* \"#utility.yul\":367:390   */\n      dup3\n      calldataload\n      swap2\n      pop\n        /* \"#utility.yul\":440:442   */\n      0x20\n        /* \"#utility.yul\":425:443   */\n      dup4\n      add\n        /* \"#utility.yul\":412:444   */\n      calldataload\n      sub(shl(0xa0, 0x01), 0x01)\n        /* \"#utility.yul\":473:504   */\n      dup2\n      and\n        /* \"#utility.yul\":463:505   */\n      dup2\n      eq\n        /* \"#utility.yul\":453:523   */\n      tag_125\n      jumpi\n        /* \"#utility.yul\":519:520   */\n      0x00\n        /* \"#utility.yul\":516:517   */\n      dup1\n        /* \"#utility.yul\":509:521   */\n      revert\n        /* \"#utility.yul\":453:523   */\n    tag_125:\n        /* \"#utility.yul\":542:547   */\n      dup1\n        /* \"#utility.yul\":532:547   */\n      swap2\n      pop\n      pop\n        /* \"#utility.yul\":199:553   */\n      swap3\n      pop\n      swap3\n      swap1\n      pop\n      jump\t// out\n        /* \"#utility.yul\":558:844   */\n    tag_14:\n        /* \"#utility.yul\":616:622   */\n      0x00\n        /* \"#utility.yul\":669:671   */\n      0x20\n        /* \"#utility.yul\":657:666   */\n      dup3\n        /* \"#utility.yul\":648:655   */\n      dup5\n        /* \"#utility.yul\":644:667   */\n      sub\n        /* \"#utility.yul\":640:672   */\n      slt\n        /* \"#utility.yul\":637:689   */\n      iszero\n      tag_127\n      jumpi\n        /* \"#utility.yul\":685:686   */\n      0x00\n        /* \"#utility.yul\":682:683   */\n      dup1\n        /* \"#utility.yul\":675:687   */\n      revert\n        /* \"#utility.yul\":637:689   */\n    tag_127:\n        /* \"#utility.yul\":711:734   */\n      dup2\n      calldataload\n      not(sub(shl(0xe0, 0x01), 0x01))\n        /* \"#utility.yul\":763:795   */\n      dup2\n      and\n        /* \"#utility.yul\":753:796   */\n      dup2\n      eq\n        /* \"#utility.yul\":743:814   */\n      tag_117\n      jumpi\n        /* \"#utility.yul\":810:811   */\n      0x00\n        /* \"#utility.yul\":807:808   */\n      dup1\n        /* \"#utility.yul\":800:812   */\n      revert\n        /* \"#utility.yul\":849:1635   */\n    tag_81:\n        /* \"#utility.yul\":1260:1285   */\n      0x416363657373436f6e74726f6c3a206163636f756e7420000000000000000000\n        /* \"#utility.yul\":1255:1258   */\n      dup2\n        /* \"#utility.yul\":1248:1286   */\n      mstore\n        /* \"#utility.yul\":1230:1233   */\n      0x00\n        /* \"#utility.yul\":1315:1321   */\n      dup4\n        /* \"#utility.yul\":1309:1322   */\n      mload\n        /* \"#utility.yul\":1331:1393   */\n      tag_130\n        /* \"#utility.yul\":1386:1392   */\n      dup2\n        /* \"#utility.yul\":1381:1383   */\n      0x17\n        /* \"#utility.yul\":1376:1379   */\n      dup6\n        /* \"#utility.yul\":1372:1384   */\n      add\n        /* \"#utility.yul\":1365:1369   */\n      0x20\n        /* \"#utility.yul\":1357:1363   */\n      dup9\n        /* \"#utility.yul\":1353:1370   */\n      add\n        /* \"#utility.yul\":1331:1393   */\n      tag_131\n      jump\t// in\n    tag_130:\n      shl(0x7d, 0x01034b99036b4b9b9b4b733903937b6329)\n        /* \"#utility.yul\":1452:1454   */\n      0x17\n        /* \"#utility.yul\":1412:1428   */\n      swap2\n      dup5\n      add\n        /* \"#utility.yul\":1444:1455   */\n      swap2\n      dup3\n      add\n        /* \"#utility.yul\":1437:1477   */\n      mstore\n        /* \"#utility.yul\":1502:1515   */\n      dup4\n      mload\n        /* \"#utility.yul\":1524:1587   */\n      tag_132\n        /* \"#utility.yul\":1502:1515   */\n      dup2\n        /* \"#utility.yul\":1573:1575   */\n      0x28\n        /* \"#utility.yul\":1565:1576   */\n      dup5\n      add\n        /* \"#utility.yul\":1558:1562   */\n      0x20\n        /* \"#utility.yul\":1546:1563   */\n      dup9\n      add\n        /* \"#utility.yul\":1524:1587   */\n      tag_131\n      jump\t// in\n    tag_132:\n        /* \"#utility.yul\":1607:1624   */\n      add\n        /* \"#utility.yul\":1626:1628   */\n      0x28\n        /* \"#utility.yul\":1603:1629   */\n      add\n      swap5\n        /* \"#utility.yul\":849:1635   */\n      swap4\n      pop\n      pop\n      pop\n      pop\n      jump\t// out\n        /* \"#utility.yul\":2014:2397   */\n    tag_83:\n        /* \"#utility.yul\":2163:2165   */\n      0x20\n        /* \"#utility.yul\":2152:2161   */\n      dup2\n        /* \"#utility.yul\":2145:2166   */\n      mstore\n        /* \"#utility.yul\":2126:2130   */\n      0x00\n        /* \"#utility.yul\":2195:2201   */\n      dup3\n        /* \"#utility.yul\":2189:2202   */\n      mload\n        /* \"#utility.yul\":2238:2244   */\n      dup1\n        /* \"#utility.yul\":2233:2235   */\n      0x20\n        /* \"#utility.yul\":2222:2231   */\n      dup5\n        /* \"#utility.yul\":2218:2236   */\n      add\n        /* \"#utility.yul\":2211:2245   */\n      mstore\n        /* \"#utility.yul\":2254:2320   */\n      tag_136\n        /* \"#utility.yul\":2313:2319   */\n      dup2\n        /* \"#utility.yul\":2308:2310   */\n      0x40\n        /* \"#utility.yul\":2297:2306   */\n      dup6\n        /* \"#utility.yul\":2293:2311   */\n      add\n        /* \"#utility.yul\":2288:2290   */\n      0x20\n        /* \"#utility.yul\":2280:2286   */\n      dup8\n        /* \"#utility.yul\":2276:2291   */\n      add\n        /* \"#utility.yul\":2254:2320   */\n      tag_131\n      jump\t// in\n    tag_136:\n        /* \"#utility.yul\":2381:2383   */\n      0x1f\n        /* \"#utility.yul\":2360:2375   */\n      add\n      not(0x1f)\n        /* \"#utility.yul\":2356:2385   */\n      and\n        /* \"#utility.yul\":2341:2386   */\n      swap2\n      swap1\n      swap2\n      add\n        /* \"#utility.yul\":2388:2390   */\n      0x40\n        /* \"#utility.yul\":2337:2391   */\n      add\n      swap3\n        /* \"#utility.yul\":2014:2397   */\n      swap2\n      pop\n      pop\n      jump\t// out\n        /* \"#utility.yul\":3179:3307   */\n    tag_96:\n        /* \"#utility.yul\":3219:3222   */\n      0x00\n        /* \"#utility.yul\":3250:3251   */\n      dup3\n        /* \"#utility.yul\":3246:3252   */\n      not\n        /* \"#utility.yul\":3243:3244   */\n      dup3\n        /* \"#utility.yul\":3240:3253   */\n      gt\n        /* \"#utility.yul\":3237:3276   */\n      iszero\n      tag_141\n      jumpi\n        /* \"#utility.yul\":3256:3274   */\n      tag_141\n      tag_142\n      jump\t// in\n    tag_141:\n      pop\n        /* \"#utility.yul\":3292:3301   */\n      add\n      swap1\n        /* \"#utility.yul\":3179:3307   */\n      jump\t// out\n        /* \"#utility.yul\":3312:3480   */\n    tag_94:\n        /* \"#utility.yul\":3352:3359   */\n      0x00\n        /* \"#utility.yul\":3418:3419   */\n      dup2\n        /* \"#utility.yul\":3414:3415   */\n      0x00\n        /* \"#utility.yul\":3410:3416   */\n      not\n        /* \"#utility.yul\":3406:3420   */\n      div\n        /* \"#utility.yul\":3403:3404   */\n      dup4\n        /* \"#utility.yul\":3400:3421   */\n      gt\n        /* \"#utility.yul\":3395:3396   */\n      dup3\n        /* \"#utility.yul\":3388:3397   */\n      iszero\n        /* \"#utility.yul\":3381:3398   */\n      iszero\n        /* \"#utility.yul\":3377:3422   */\n      and\n        /* \"#utility.yul\":3374:3445   */\n      iszero\n      tag_145\n      jumpi\n        /* \"#utility.yul\":3425:3443   */\n      tag_145\n      tag_142\n      jump\t// in\n    tag_145:\n      pop\n        /* \"#utility.yul\":3465:3474   */\n      mul\n      swap1\n        /* \"#utility.yul\":3312:3480   */\n      jump\t// out\n        /* \"#utility.yul\":3485:3743   */\n    tag_131:\n        /* \"#utility.yul\":3557:3558   */\n      0x00\n        /* \"#utility.yul\":3567:3680   */\n    tag_147:\n        /* \"#utility.yul\":3581:3587   */\n      dup4\n        /* \"#utility.yul\":3578:3579   */\n      dup2\n        /* \"#utility.yul\":3575:3588   */\n      lt\n        /* \"#utility.yul\":3567:3680   */\n      iszero\n      tag_149\n      jumpi\n        /* \"#utility.yul\":3657:3668   */\n      dup2\n      dup2\n      add\n        /* \"#utility.yul\":3651:3669   */\n      mload\n        /* \"#utility.yul\":3638:3649   */\n      dup4\n      dup3\n      add\n        /* \"#utility.yul\":3631:3670   */\n      mstore\n        /* \"#utility.yul\":3603:3605   */\n      0x20\n        /* \"#utility.yul\":3596:3606   */\n      add\n        /* \"#utility.yul\":3567:3680   */\n      jump(tag_147)\n    tag_149:\n        /* \"#utility.yul\":3698:3704   */\n      dup4\n        /* \"#utility.yul\":3695:3696   */\n      dup2\n        /* \"#utility.yul\":3692:3705   */\n      gt\n        /* \"#utility.yul\":3689:3737   */\n      iszero\n      tag_150\n      jumpi\n        /* \"#utility.yul\":3733:3734   */\n      0x00\n        /* \"#utility.yul\":3724:3730   */\n      dup5\n        /* \"#utility.yul\":3719:3722   */\n      dup5\n        /* \"#utility.yul\":3715:3731   */\n      add\n        /* \"#utility.yul\":3708:3735   */\n      mstore\n        /* \"#utility.yul\":3689:3737   */\n    tag_150:\n      pop\n        /* \"#utility.yul\":3485:3743   */\n      pop\n      pop\n      pop\n      jump\t// out\n        /* \"#utility.yul\":3748:3884   */\n    tag_116:\n        /* \"#utility.yul\":3787:3790   */\n      0x00\n        /* \"#utility.yul\":3815:3820   */\n      dup2\n        /* \"#utility.yul\":3805:3844   */\n      tag_153\n      jumpi\n        /* \"#utility.yul\":3824:3842   */\n      tag_153\n      tag_142\n      jump\t// in\n    tag_153:\n      pop\n      not(0x00)\n        /* \"#utility.yul\":3860:3878   */\n      add\n      swap1\n        /* \"#utility.yul\":3748:3884   */\n      jump\t// out\n        /* \"#utility.yul\":3889:4016   */\n    tag_142:\n        /* \"#utility.yul\":3950:3960   */\n      0x4e487b71\n        /* \"#utility.yul\":3945:3948   */\n      0xe0\n        /* \"#utility.yul\":3941:3961   */\n      shl\n        /* \"#utility.yul\":3938:3939   */\n      0x00\n        /* \"#utility.yul\":3931:3962   */\n      mstore\n        /* \"#utility.yul\":3981:3985   */\n      0x11\n        /* \"#utility.yul\":3978:3979   */\n      0x04\n        /* \"#utility.yul\":3971:3986   */\n      mstore\n        /* \"#utility.yul\":4005:4009   */\n      0x24\n        /* \"#utility.yul\":4002:4003   */\n      0x00\n        /* \"#utility.yul\":3995:4010   */\n      revert\n        /* \"#utility.yul\":4021:4148   */\n    tag_103:\n        /* \"#utility.yul\":4082:4092   */\n      0x4e487b71\n        /* \"#utility.yul\":4077:4080   */\n      0xe0\n        /* \"#utility.yul\":4073:4093   */\n      shl\n        /* \"#utility.yul\":4070:4071   */\n      0x00\n        /* \"#utility.yul\":4063:4094   */\n      mstore\n        /* \"#utility.yul\":4113:4117   */\n      0x32\n        /* \"#utility.yul\":4110:4111   */\n      0x04\n        /* \"#utility.yul\":4103:4118   */\n      mstore\n        /* \"#utility.yul\":4137:4141   */\n      0x24\n        /* \"#utility.yul\":4134:4135   */\n      0x00\n        /* \"#utility.yul\":4127:4142   */\n      revert\n        /* \"#utility.yul\":4153:4280   */\n    tag_99:\n        /* \"#utility.yul\":4214:4224   */\n      0x4e487b71\n        /* \"#utility.yul\":4209:4212   */\n      0xe0\n        /* \"#utility.yul\":4205:4225   */\n      shl\n        /* \"#utility.yul\":4202:4203   */\n      0x00\n        /* \"#utility.yul\":4195:4226   */\n      mstore\n        /* \"#utility.yul\":4245:4249   */\n      0x41\n        /* \"#utility.yul\":4242:4243   */\n      0x04\n        /* \"#utility.yul\":4235:4250   */\n      mstore\n        /* \"#utility.yul\":4269:4273   */\n      0x24\n        /* \"#utility.yul\":4266:4267   */\n      0x00\n        /* \"#utility.yul\":4259:4274   */\n      revert\n\n    auxdata: 0xa26469706673582212201ec1ffa33e83fb7ac6dc085d5f751759420900738bb48d448dfe8d993262e8e664736f6c63430008070033\n}\n",
				"bytecode": {
					"linkReferences": {},
					"object": "608060405234801561001057600080fd5b5061001c60003361004b565b6100467ff0887ba65ee2024ea881d91b74c2450ef19e1557f03bed3ea9f16b037cbe2dc93361004b565b6100f7565b6100558282610059565b5050565b6000828152602081815260408083206001600160a01b038516845290915290205460ff16610055576000828152602081815260408083206001600160a01b03851684529091529020805460ff191660011790556100b33390565b6001600160a01b0316816001600160a01b0316837f2f8788117e7eff1d82e926ec794901d17c78024a50270940304540a733656f0d60405160405180910390a45050565b6107a4806101066000396000f3fe608060405234801561001057600080fd5b50600436106100885760003560e01c806391d148541161005b57806391d148541461010e578063a217fddf14610121578063d539139314610129578063d547741f1461015057600080fd5b806301ffc9a71461008d578063248a9ca3146100b55780632f2ff15d146100e657806336568abe146100fb575b600080fd5b6100a061009b3660046105dc565b610163565b60405190151581526020015b60405180910390f35b6100d86100c3366004610587565b60009081526020819052604090206001015490565b6040519081526020016100ac565b6100f96100f43660046105a0565b61019a565b005b6100f96101093660046105a0565b6101c5565b6100a061011c3660046105a0565b610248565b6100d8600081565b6100d87ff0887ba65ee2024ea881d91b74c2450ef19e1557f03bed3ea9f16b037cbe2dc981565b6100f961015e3660046105a0565b610271565b60006001600160e01b03198216637965db0b60e01b148061019457506301ffc9a760e01b6001600160e01b03198316145b92915050565b6000828152602081905260409020600101546101b68133610297565b6101c083836102fb565b505050565b6001600160a01b038116331461023a5760405162461bcd60e51b815260206004820152602f60248201527f416363657373436f6e74726f6c3a2063616e206f6e6c792072656e6f756e636560448201526e103937b632b9903337b91039b2b63360891b60648201526084015b60405180910390fd5b610244828261037f565b5050565b6000918252602082815260408084206001600160a01b0393909316845291905290205460ff1690565b60008281526020819052604090206001015461028d8133610297565b6101c0838361037f565b6102a18282610248565b610244576102b9816001600160a01b031660146103e4565b6102c48360206103e4565b6040516020016102d5929190610606565b60408051601f198184030181529082905262461bcd60e51b82526102319160040161067b565b6103058282610248565b610244576000828152602081815260408083206001600160a01b03851684529091529020805460ff1916600117905561033b3390565b6001600160a01b0316816001600160a01b0316837f2f8788117e7eff1d82e926ec794901d17c78024a50270940304540a733656f0d60405160405180910390a45050565b6103898282610248565b15610244576000828152602081815260408083206001600160a01b0385168085529252808320805460ff1916905551339285917ff6391f5c32d9c69d2a47ea670b442974b53935d1edc7fd64eb21e047a839171b9190a45050565b606060006103f38360026106c6565b6103fe9060026106ae565b67ffffffffffffffff81111561041657610416610758565b6040519080825280601f01601f191660200182016040528015610440576020820181803683370190505b509050600360fc1b8160008151811061045b5761045b610742565b60200101906001600160f81b031916908160001a905350600f60fb1b8160018151811061048a5761048a610742565b60200101906001600160f81b031916908160001a90535060006104ae8460026106c6565b6104b99060016106ae565b90505b6001811115610531576f181899199a1a9b1b9c1cb0b131b232b360811b85600f16601081106104ed576104ed610742565b1a60f81b82828151811061050357610503610742565b60200101906001600160f81b031916908160001a90535060049490941c9361052a81610715565b90506104bc565b5083156105805760405162461bcd60e51b815260206004820181905260248201527f537472696e67733a20686578206c656e67746820696e73756666696369656e746044820152606401610231565b9392505050565b60006020828403121561059957600080fd5b5035919050565b600080604083850312156105b357600080fd5b8235915060208301356001600160a01b03811681146105d157600080fd5b809150509250929050565b6000602082840312156105ee57600080fd5b81356001600160e01b03198116811461058057600080fd5b7f416363657373436f6e74726f6c3a206163636f756e742000000000000000000081526000835161063e8160178501602088016106e5565b7001034b99036b4b9b9b4b733903937b6329607d1b601791840191820152835161066f8160288401602088016106e5565b01602801949350505050565b602081526000825180602084015261069a8160408501602087016106e5565b601f01601f19169190910160400192915050565b600082198211156106c1576106c161072c565b500190565b60008160001904831182151516156106e0576106e061072c565b500290565b60005b838110156107005781810151838201526020016106e8565b8381111561070f576000848401525b50505050565b6000816107245761072461072c565b506000190190565b634e487b7160e01b600052601160045260246000fd5b634e487b7160e01b600052603260045260246000fd5b634e487b7160e01b600052604160045260246000fdfea26469706673582212201ec1ffa33e83fb7ac6dc085d5f751759420900738bb48d448dfe8d993262e8e664736f6c63430008070033",
					"opcodes": "PUSH1 0x80 PUSH1 0x40 MSTORE CALLVALUE DUP1 ISZERO PUSH2 0x10 JUMPI PUSH1 0x0 DUP1 REVERT JUMPDEST POP PUSH2 0x1C PUSH1 0x0 CALLER PUSH2 0x4B JUMP JUMPDEST PUSH2 0x46 PUSH32 0xF0887BA65EE2024EA881D91B74C2450EF19E1557F03BED3EA9F16B037CBE2DC9 CALLER PUSH2 0x4B JUMP JUMPDEST PUSH2 0xF7 JUMP JUMPDEST PUSH2 0x55 DUP3 DUP3 PUSH2 0x59 JUMP JUMPDEST POP POP JUMP JUMPDEST PUSH1 0x0 DUP3 DUP2 MSTORE PUSH1 0x20 DUP2 DUP2 MSTORE PUSH1 0x40 DUP1 DUP4 KECCAK256 PUSH1 0x1 PUSH1 0x1 PUSH1 0xA0 SHL SUB DUP6 AND DUP5 MSTORE SWAP1 SWAP2 MSTORE SWAP1 KECCAK256 SLOAD PUSH1 0xFF AND PUSH2 0x55 JUMPI PUSH1 0x0 DUP3 DUP2 MSTORE PUSH1 0x20 DUP2 DUP2 MSTORE PUSH1 0x40 DUP1 DUP4 KECCAK256 PUSH1 0x1 PUSH1 0x1 PUSH1 0xA0 SHL SUB DUP6 AND DUP5 MSTORE SWAP1 SWAP2 MSTORE SWAP1 KECCAK256 DUP1 SLOAD PUSH1 0xFF NOT AND PUSH1 0x1 OR SWAP1 SSTORE PUSH2 0xB3 CALLER SWAP1 JUMP JUMPDEST PUSH1 0x1 PUSH1 0x1 PUSH1 0xA0 SHL SUB AND DUP2 PUSH1 0x1 PUSH1 0x1 PUSH1 0xA0 SHL SUB AND DUP4 PUSH32 0x2F8788117E7EFF1D82E926EC794901D17C78024A50270940304540A733656F0D PUSH1 0x40 MLOAD PUSH1 0x40 MLOAD DUP1 SWAP2 SUB SWAP1 LOG4 POP POP JUMP JUMPDEST PUSH2 0x7A4 DUP1 PUSH2 0x106 PUSH1 0x0 CODECOPY PUSH1 0x0 RETURN INVALID PUSH1 0x80 PUSH1 0x40 MSTORE CALLVALUE DUP1 ISZERO PUSH2 0x10 JUMPI PUSH1 0x0 DUP1 REVERT JUMPDEST POP PUSH1 0x4 CALLDATASIZE LT PUSH2 0x88 JUMPI PUSH1 0x0 CALLDATALOAD PUSH1 0xE0 SHR DUP1 PUSH4 0x91D14854 GT PUSH2 0x5B JUMPI DUP1 PUSH4 0x91D14854 EQ PUSH2 0x10E JUMPI DUP1 PUSH4 0xA217FDDF EQ PUSH2 0x121 JUMPI DUP1 PUSH4 0xD5391393 EQ PUSH2 0x129 JUMPI DUP1 PUSH4 0xD547741F EQ PUSH2 0x150 JUMPI PUSH1 0x0 DUP1 REVERT JUMPDEST DUP1 PUSH4 0x1FFC9A7 EQ PUSH2 0x8D JUMPI DUP1 PUSH4 0x248A9CA3 EQ PUSH2 0xB5 JUMPI DUP1 PUSH4 0x2F2FF15D EQ PUSH2 0xE6 JUMPI DUP1 PUSH4 0x36568ABE EQ PUSH2 0xFB JUMPI JUMPDEST PUSH1 0x0 DUP1 REVERT JUMPDEST PUSH2 0xA0 PUSH2 0x9B CALLDATASIZE PUSH1 0x4 PUSH2 0x5DC JUMP JUMPDEST PUSH2 0x163 JUMP JUMPDEST PUSH1 0x40 MLOAD SWAP1 ISZERO ISZERO DUP2 MSTORE PUSH1 0x20 ADD JUMPDEST PUSH1 0x40 MLOAD DUP1 SWAP2 SUB SWAP1 RETURN JUMPDEST PUSH2 0xD8 PUSH2 0xC3 CALLDATASIZE PUSH1 0x4 PUSH2 0x587 JUMP JUMPDEST PUSH1 0x0 SWAP1 DUP2 MSTORE PUSH1 0x20 DUP2 SWAP1 MSTORE PUSH1 0x40 SWAP1 KECCAK256 PUSH1 0x1 ADD SLOAD SWAP1 JUMP JUMPDEST PUSH1 0x40 MLOAD SWAP1 DUP2 MSTORE PUSH1 0x20 ADD PUSH2 0xAC JUMP JUMPDEST PUSH2 0xF9 PUSH2 0xF4 CALLDATASIZE PUSH1 0x4 PUSH2 0x5A0 JUMP JUMPDEST PUSH2 0x19A JUMP JUMPDEST STOP JUMPDEST PUSH2 0xF9 PUSH2 0x109 CALLDATASIZE PUSH1 0x4 PUSH2 0x5A0 JUMP JUMPDEST PUSH2 0x1C5 JUMP JUMPDEST PUSH2 0xA0 PUSH2 0x11C CALLDATASIZE PUSH1 0x4 PUSH2 0x5A0 JUMP JUMPDEST PUSH2 0x248 JUMP JUMPDEST PUSH2 0xD8 PUSH1 0x0 DUP2 JUMP JUMPDEST PUSH2 0xD8 PUSH32 0xF0887BA65EE2024EA881D91B74C2450EF19E1557F03BED3EA9F16B037CBE2DC9 DUP2 JUMP JUMPDEST PUSH2 0xF9 PUSH2 0x15E CALLDATASIZE PUSH1 0x4 PUSH2 0x5A0 JUMP JUMPDEST PUSH2 0x271 JUMP JUMPDEST PUSH1 0x0 PUSH1 0x1 PUSH1 0x1 PUSH1 0xE0 SHL SUB NOT DUP3 AND PUSH4 0x7965DB0B PUSH1 0xE0 SHL EQ DUP1 PUSH2 0x194 JUMPI POP PUSH4 0x1FFC9A7 PUSH1 0xE0 SHL PUSH1 0x1 PUSH1 0x1 PUSH1 0xE0 SHL SUB NOT DUP4 AND EQ JUMPDEST SWAP3 SWAP2 POP POP JUMP JUMPDEST PUSH1 0x0 DUP3 DUP2 MSTORE PUSH1 0x20 DUP2 SWAP1 MSTORE PUSH1 0x40 SWAP1 KECCAK256 PUSH1 0x1 ADD SLOAD PUSH2 0x1B6 DUP2 CALLER PUSH2 0x297 JUMP JUMPDEST PUSH2 0x1C0 DUP4 DUP4 PUSH2 0x2FB JUMP JUMPDEST POP POP POP JUMP JUMPDEST PUSH1 0x1 PUSH1 0x1 PUSH1 0xA0 SHL SUB DUP2 AND CALLER EQ PUSH2 0x23A JUMPI PUSH1 0x40 MLOAD PUSH3 0x461BCD PUSH1 0xE5 SHL DUP2 MSTORE PUSH1 0x20 PUSH1 0x4 DUP3 ADD MSTORE PUSH1 0x2F PUSH1 0x24 DUP3 ADD MSTORE PUSH32 0x416363657373436F6E74726F6C3A2063616E206F6E6C792072656E6F756E6365 PUSH1 0x44 DUP3 ADD MSTORE PUSH15 0x103937B632B9903337B91039B2B633 PUSH1 0x89 SHL PUSH1 0x64 DUP3 ADD MSTORE PUSH1 0x84 ADD JUMPDEST PUSH1 0x40 MLOAD DUP1 SWAP2 SUB SWAP1 REVERT JUMPDEST PUSH2 0x244 DUP3 DUP3 PUSH2 0x37F JUMP JUMPDEST POP POP JUMP JUMPDEST PUSH1 0x0 SWAP2 DUP3 MSTORE PUSH1 0x20 DUP3 DUP2 MSTORE PUSH1 0x40 DUP1 DUP5 KECCAK256 PUSH1 0x1 PUSH1 0x1 PUSH1 0xA0 SHL SUB SWAP4 SWAP1 SWAP4 AND DUP5 MSTORE SWAP2 SWAP1 MSTORE SWAP1 KECCAK256 SLOAD PUSH1 0xFF AND SWAP1 JUMP JUMPDEST PUSH1 0x0 DUP3 DUP2 MSTORE PUSH1 0x20 DUP2 SWAP1 MSTORE PUSH1 0x40 SWAP1 KECCAK256 PUSH1 0x1 ADD SLOAD PUSH2 0x28D DUP2 CALLER PUSH2 0x297 JUMP JUMPDEST PUSH2 0x1C0 DUP4 DUP4 PUSH2 0x37F JUMP JUMPDEST PUSH2 0x2A1 DUP3 DUP3 PUSH2 0x248 JUMP JUMPDEST PUSH2 0x244 JUMPI PUSH2 0x2B9 DUP2 PUSH1 0x1 PUSH1 0x1 PUSH1 0xA0 SHL SUB AND PUSH1 0x14 PUSH2 0x3E4 JUMP JUMPDEST PUSH2 0x2C4 DUP4 PUSH1 0x20 PUSH2 0x3E4 JUMP JUMPDEST PUSH1 0x40 MLOAD PUSH1 0x20 ADD PUSH2 0x2D5 SWAP3 SWAP2 SWAP1 PUSH2 0x606 JUMP JUMPDEST PUSH1 0x40 DUP1 MLOAD PUSH1 0x1F NOT DUP2 DUP5 SUB ADD DUP2 MSTORE SWAP1 DUP3 SWAP1 MSTORE PUSH3 0x461BCD PUSH1 0xE5 SHL DUP3 MSTORE PUSH2 0x231 SWAP2 PUSH1 0x4 ADD PUSH2 0x67B JUMP JUMPDEST PUSH2 0x305 DUP3 DUP3 PUSH2 0x248 JUMP JUMPDEST PUSH2 0x244 JUMPI PUSH1 0x0 DUP3 DUP2 MSTORE PUSH1 0x20 DUP2 DUP2 MSTORE PUSH1 0x40 DUP1 DUP4 KECCAK256 PUSH1 0x1 PUSH1 0x1 PUSH1 0xA0 SHL SUB DUP6 AND DUP5 MSTORE SWAP1 SWAP2 MSTORE SWAP1 KECCAK256 DUP1 SLOAD PUSH1 0xFF NOT AND PUSH1 0x1 OR SWAP1 SSTORE PUSH2 0x33B CALLER SWAP1 JUMP JUMPDEST PUSH1 0x1 PUSH1 0x1 PUSH1 0xA0 SHL SUB AND DUP2 PUSH1 0x1 PUSH1 0x1 PUSH1 0xA0 SHL SUB AND DUP4 PUSH32 0x2F8788117E7EFF1D82E926EC794901D17C78024A50270940304540A733656F0D PUSH1 0x40 MLOAD PUSH1 0x40 MLOAD DUP1 SWAP2 SUB SWAP1 LOG4 POP POP JUMP JUMPDEST PUSH2 0x389 DUP3 DUP3 PUSH2 0x248 JUMP JUMPDEST ISZERO PUSH2 0x244 JUMPI PUSH1 0x0 DUP3 DUP2 MSTORE PUSH1 0x20 DUP2 DUP2 MSTORE PUSH1 0x40 DUP1 DUP4 KECCAK256 PUSH1 0x1 PUSH1 0x1 PUSH1 0xA0 SHL SUB DUP6 AND DUP1 DUP6 MSTORE SWAP3 MSTORE DUP1 DUP4 KECCAK256 DUP1 SLOAD PUSH1 0xFF NOT AND SWAP1 SSTORE MLOAD CALLER SWAP3 DUP6 SWAP2 PUSH32 0xF6391F5C32D9C69D2A47EA670B442974B53935D1EDC7FD64EB21E047A839171B SWAP2 SWAP1 LOG4 POP POP JUMP JUMPDEST PUSH1 0x60 PUSH1 0x0 PUSH2 0x3F3 DUP4 PUSH1 0x2 PUSH2 0x6C6 JUMP JUMPDEST PUSH2 0x3FE SWAP1 PUSH1 0x2 PUSH2 0x6AE JUMP JUMPDEST PUSH8 0xFFFFFFFFFFFFFFFF DUP2 GT ISZERO PUSH2 0x416 JUMPI PUSH2 0x416 PUSH2 0x758 JUMP JUMPDEST PUSH1 0x40 MLOAD SWAP1 DUP1 DUP3 MSTORE DUP1 PUSH1 0x1F ADD PUSH1 0x1F NOT AND PUSH1 0x20 ADD DUP3 ADD PUSH1 0x40 MSTORE DUP1 ISZERO PUSH2 0x440 JUMPI PUSH1 0x20 DUP3 ADD DUP2 DUP1 CALLDATASIZE DUP4 CALLDATACOPY ADD SWAP1 POP JUMPDEST POP SWAP1 POP PUSH1 0x3 PUSH1 0xFC SHL DUP2 PUSH1 0x0 DUP2 MLOAD DUP2 LT PUSH2 0x45B JUMPI PUSH2 0x45B PUSH2 0x742 JUMP JUMPDEST PUSH1 0x20 ADD ADD SWAP1 PUSH1 0x1 PUSH1 0x1 PUSH1 0xF8 SHL SUB NOT AND SWAP1 DUP2 PUSH1 0x0 BYTE SWAP1 MSTORE8 POP PUSH1 0xF PUSH1 0xFB SHL DUP2 PUSH1 0x1 DUP2 MLOAD DUP2 LT PUSH2 0x48A JUMPI PUSH2 0x48A PUSH2 0x742 JUMP JUMPDEST PUSH1 0x20 ADD ADD SWAP1 PUSH1 0x1 PUSH1 0x1 PUSH1 0xF8 SHL SUB NOT AND SWAP1 DUP2 PUSH1 0x0 BYTE SWAP1 MSTORE8 POP PUSH1 0x0 PUSH2 0x4AE DUP5 PUSH1 0x2 PUSH2 0x6C6 JUMP JUMPDEST PUSH2 0x4B9 SWAP1 PUSH1 0x1 PUSH2 0x6AE JUMP JUMPDEST SWAP1 POP JUMPDEST PUSH1 0x1 DUP2 GT ISZERO PUSH2 0x531 JUMPI PUSH16 0x181899199A1A9B1B9C1CB0B131B232B3 PUSH1 0x81 SHL DUP6 PUSH1 0xF AND PUSH1 0x10 DUP2 LT PUSH2 0x4ED JUMPI PUSH2 0x4ED PUSH2 0x742 JUMP JUMPDEST BYTE PUSH1 0xF8 SHL DUP3 DUP3 DUP2 MLOAD DUP2 LT PUSH2 0x503 JUMPI PUSH2 0x503 PUSH2 0x742 JUMP JUMPDEST PUSH1 0x20 ADD ADD SWAP1 PUSH1 0x1 PUSH1 0x1 PUSH1 0xF8 SHL SUB NOT AND SWAP1 DUP2 PUSH1 0x0 BYTE SWAP1 MSTORE8 POP PUSH1 0x4 SWAP5 SWAP1 SWAP5 SHR SWAP4 PUSH2 0x52A DUP2 PUSH2 0x715 JUMP JUMPDEST SWAP1 POP PUSH2 0x4BC JUMP JUMPDEST POP DUP4 ISZERO PUSH2 0x580 JUMPI PUSH1 0x40 MLOAD PUSH3 0x461BCD PUSH1 0xE5 SHL DUP2 MSTORE PUSH1 0x20 PUSH1 0x4 DUP3 ADD DUP2 SWAP1 MSTORE PUSH1 0x24 DUP3 ADD MSTORE PUSH32 0x537472696E67733A20686578206C656E67746820696E73756666696369656E74 PUSH1 0x44 DUP3 ADD MSTORE PUSH1 0x64 ADD PUSH2 0x231 JUMP JUMPDEST SWAP4 SWAP3 POP POP POP JUMP JUMPDEST PUSH1 0x0 PUSH1 0x20 DUP3 DUP5 SUB SLT ISZERO PUSH2 0x599 JUMPI PUSH1 0x0 DUP1 REVERT JUMPDEST POP CALLDATALOAD SWAP2 SWAP1 POP JUMP JUMPDEST PUSH1 0x0 DUP1 PUSH1 0x40 DUP4 DUP6 SUB SLT ISZERO PUSH2 0x5B3 JUMPI PUSH1 0x0 DUP1 REVERT JUMPDEST DUP3 CALLDATALOAD SWAP2 POP PUSH1 0x20 DUP4 ADD CALLDATALOAD PUSH1 0x1 PUSH1 0x1 PUSH1 0xA0 SHL SUB DUP2 AND DUP2 EQ PUSH2 0x5D1 JUMPI PUSH1 0x0 DUP1 REVERT JUMPDEST DUP1 SWAP2 POP POP SWAP3 POP SWAP3 SWAP1 POP JUMP JUMPDEST PUSH1 0x0 PUSH1 0x20 DUP3 DUP5 SUB SLT ISZERO PUSH2 0x5EE JUMPI PUSH1 0x0 DUP1 REVERT JUMPDEST DUP2 CALLDATALOAD PUSH1 0x1 PUSH1 0x1 PUSH1 0xE0 SHL SUB NOT DUP2 AND DUP2 EQ PUSH2 0x580 JUMPI PUSH1 0x0 DUP1 REVERT JUMPDEST PUSH32 0x416363657373436F6E74726F6C3A206163636F756E7420000000000000000000 DUP2 MSTORE PUSH1 0x0 DUP4 MLOAD PUSH2 0x63E DUP2 PUSH1 0x17 DUP6 ADD PUSH1 0x20 DUP9 ADD PUSH2 0x6E5 JUMP JUMPDEST PUSH17 0x1034B99036B4B9B9B4B733903937B6329 PUSH1 0x7D SHL PUSH1 0x17 SWAP2 DUP5 ADD SWAP2 DUP3 ADD MSTORE DUP4 MLOAD PUSH2 0x66F DUP2 PUSH1 0x28 DUP5 ADD PUSH1 0x20 DUP9 ADD PUSH2 0x6E5 JUMP JUMPDEST ADD PUSH1 0x28 ADD SWAP5 SWAP4 POP POP POP POP JUMP JUMPDEST PUSH1 0x20 DUP2 MSTORE PUSH1 0x0 DUP3 MLOAD DUP1 PUSH1 0x20 DUP5 ADD MSTORE PUSH2 0x69A DUP2 PUSH1 0x40 DUP6 ADD PUSH1 0x20 DUP8 ADD PUSH2 0x6E5 JUMP JUMPDEST PUSH1 0x1F ADD PUSH1 0x1F NOT AND SWAP2 SWAP1 SWAP2 ADD PUSH1 0x40 ADD SWAP3 SWAP2 POP POP JUMP JUMPDEST PUSH1 0x0 DUP3 NOT DUP3 GT ISZERO PUSH2 0x6C1 JUMPI PUSH2 0x6C1 PUSH2 0x72C JUMP JUMPDEST POP ADD SWAP1 JUMP JUMPDEST PUSH1 0x0 DUP2 PUSH1 0x0 NOT DIV DUP4 GT DUP3 ISZERO ISZERO AND ISZERO PUSH2 0x6E0 JUMPI PUSH2 0x6E0 PUSH2 0x72C JUMP JUMPDEST POP MUL SWAP1 JUMP JUMPDEST PUSH1 0x0 JUMPDEST DUP4 DUP2 LT ISZERO PUSH2 0x700 JUMPI DUP2 DUP2 ADD MLOAD DUP4 DUP3 ADD MSTORE PUSH1 0x20 ADD PUSH2 0x6E8 JUMP JUMPDEST DUP4 DUP2 GT ISZERO PUSH2 0x70F JUMPI PUSH1 0x0 DUP5 DUP5 ADD MSTORE JUMPDEST POP POP POP POP JUMP JUMPDEST PUSH1 0x0 DUP2 PUSH2 0x724 JUMPI PUSH2 0x724 PUSH2 0x72C JUMP JUMPDEST POP PUSH1 0x0 NOT ADD SWAP1 JUMP JUMPDEST PUSH4 0x4E487B71 PUSH1 0xE0 SHL PUSH1 0x0 MSTORE PUSH1 0x11 PUSH1 0x4 MSTORE PUSH1 0x24 PUSH1 0x0 REVERT JUMPDEST PUSH4 0x4E487B71 PUSH1 0xE0 SHL PUSH1 0x0 MSTORE PUSH1 0x32 PUSH1 0x4 MSTORE PUSH1 0x24 PUSH1 0x0 REVERT JUMPDEST PUSH4 0x4E487B71 PUSH1 0xE0 SHL PUSH1 0x0 MSTORE PUSH1 0x41 PUSH1 0x4 MSTORE PUSH1 0x24 PUSH1 0x0 REVERT INVALID LOG2 PUSH5 0x6970667358 0x22 SLT KECCAK256 0x1E 0xC1 SELFDESTRUCT LOG3 RETURNDATACOPY DUP4 0xFB PUSH27 0xC6DC085D5F751759420900738BB48D448DFE8D993262E8E664736F PUSH13 0x63430008070033000000000000 "
				},
				"gasEstimates": {
					"creation": {
						"codeDepositCost": "391200",
						"executionCost": "infinite",
						"totalCost": "infinite"
					},
					"external": {
						"DEFAULT_ADMIN_ROLE()": "217",
						"MINTER_ROLE()": "239",
						"getRoleAdmin(bytes32)": "2470",
						"grantRole(bytes32,address)": "infinite",
						"hasRole(bytes32,address)": "2621",
						"renounceRole(bytes32,address)": "29032",
						"revokeRole(bytes32,address)": "infinite",
						"supportsInterface(bytes4)": "427"
					}
				},
				"methodIdentifiers": {
					"DEFAULT_ADMIN_ROLE()": "a217fddf",
					"MINTER_ROLE()": "d5391393",
					"getRoleAdmin(bytes32)": "248a9ca3",
					"grantRole(bytes32,address)": "2f2ff15d",
					"hasRole(bytes32,address)": "91d14854",
					"renounceRole(bytes32,address)": "36568abe",
					"revokeRole(bytes32,address)": "d547741f",
					"supportsInterface(bytes4)": "01ffc9a7"
				}
			},
			"userdoc": {
				"kind": "user",
				"methods": {},
				"version": 1
			}
		}
	}
}