{
	"contracts/powerful-erc20.sol": {
		"PowerfulERC20": {
			"abi": [
				{
					"inputs": [
						{
							"internalType": "string",
							"name": "name_",
							"type": "string"
						},
						{
							"internalType": "string",
							"name": "symbol_",
							"type": "string"
						},
						{
							"internalType": "uint8",
							"name": "decimals_",
							"type": "uint8"
						},
						{
							"internalType": "uint256",
							"name": "cap_",
							"type": "uint256"
						},
						{
							"internalType": "uint256",
							"name": "initialBalance_",
							"type": "uint256"
						}
					],
					"stateMutability": "payable",
					"type": "constructor"
				},
				{
					"anonymous": false,
					"inputs": [
						{
							"indexed": true,
							"internalType": "address",
							"name": "owner",
							"type": "address"
						},
						{
							"indexed": true,
							"internalType": "address",
							"name": "spender",
							"type": "address"
						},
						{
							"indexed": false,
							"internalType": "uint256",
							"name": "value",
							"type": "uint256"
						}
					],
					"name": "Approval",
					"type": "event"
				},
				{
					"anonymous": false,
					"inputs": [],
					"name": "MintFinished",
					"type": "event"
				},
				{
					"anonymous": false,
					"inputs": [
						{
							"indexed": true,
							"internalType": "address",
							"name": "previousOwner",
							"type": "address"
						},
						{
							"indexed": true,
							"internalType": "address",
							"name": "newOwner",
							"type": "address"
						}
					],
					"name": "OwnershipTransferred",
					"type": "event"
				},
				{
					"anonymous": false,
					"inputs": [
						{
							"indexed": true,
							"internalType": "bytes32",
							"name": "role",
							"type": "bytes32"
						},
						{
							"indexed": true,
							"internalType": "bytes32",
							"name": "previousAdminRole",
							"type": "bytes32"
						},
						{
							"indexed": true,
							"internalType": "bytes32",
							"name": "newAdminRole",
							"type": "bytes32"
						}
					],
					"name": "RoleAdminChanged",
					"type": "event"
				},
				{
					"anonymous": false,
					"inputs": [
						{
							"indexed": true,
							"internalType": "bytes32",
							"name": "role",
							"type": "bytes32"
						},
						{
							"indexed": true,
							"internalType": "address",
							"name": "account",
							"type": "address"
						},
						{
							"indexed": true,
							"internalType": "address",
							"name": "sender",
							"type": "address"
						}
					],
					"name": "RoleGranted",
					"type": "event"
				},
				{
					"anonymous": false,
					"inputs": [
						{
							"indexed": true,
							"internalType": "bytes32",
							"name": "role",
							"type": "bytes32"
						},
						{
							"indexed": true,
							"internalType": "address",
							"name": "account",
							"type": "address"
						},
						{
							"indexed": true,
							"internalType": "address",
							"name": "sender",
							"type": "address"
						}
					],
					"name": "RoleRevoked",
					"type": "event"
				},
				{
					"anonymous": false,
					"inputs": [
						{
							"indexed": true,
							"internalType": "address",
							"name": "from",
							"type": "address"
						},
						{
							"indexed": true,
							"internalType": "address",
							"name": "to",
							"type": "address"
						},
						{
							"indexed": false,
							"internalType": "uint256",
							"name": "value",
							"type": "uint256"
						}
					],
					"name": "Transfer",
					"type": "event"
				},
				{
					"inputs": [],
					"name": "DEFAULT_ADMIN_ROLE",
					"outputs": [
						{
							"internalType": "bytes32",
							"name": "",
							"type": "bytes32"
						}
					],
					"stateMutability": "view",
					"type": "function"
				},
				{
					"inputs": [],
					"name": "MINTER_ROLE",
					"outputs": [
						{
							"internalType": "bytes32",
							"name": "",
							"type": "bytes32"
						}
					],
					"stateMutability": "view",
					"type": "function"
				},
				{
					"inputs": [
						{
							"internalType": "address",
							"name": "owner",
							"type": "address"
						},
						{
							"internalType": "address",
							"name": "spender",
							"type": "address"
						}
					],
					"name": "allowance",
					"outputs": [
						{
							"internalType": "uint256",
							"name": "",
							"type": "uint256"
						}
					],
					"stateMutability": "view",
					"type": "function"
				},
				{
					"inputs": [
						{
							"internalType": "address",
							"name": "spender",
							"type": "address"
						},
						{
							"internalType": "uint256",
							"name": "amount",
							"type": "uint256"
						}
					],
					"name": "approve",
					"outputs": [
						{
							"internalType": "bool",
							"name": "",
							"type": "bool"
						}
					],
					"stateMutability": "nonpayable",
					"type": "function"
				},
				{
					"inputs": [
						{
							"internalType": "address",
							"name": "spender",
							"type": "address"
						},
						{
							"internalType": "uint256",
							"name": "amount",
							"type": "uint256"
						}
					],
					"name": "approveAndCall",
					"outputs": [
						{
							"internalType": "bool",
							"name": "",
							"type": "bool"
						}
					],
					"stateMutability": "nonpayable",
					"type": "function"
				},
				{
					"inputs": [
						{
							"internalType": "address",
							"name": "spender",
							"type": "address"
						},
						{
							"internalType": "uint256",
							"name": "amount",
							"type": "uint256"
						},
						{
							"internalType": "bytes",
							"name": "data",
							"type": "bytes"
						}
					],
					"name": "approveAndCall",
					"outputs": [
						{
							"internalType": "bool",
							"name": "",
							"type": "bool"
						}
					],
					"stateMutability": "nonpayable",
					"type": "function"
				},
				{
					"inputs": [
						{
							"internalType": "address",
							"name": "account",
							"type": "address"
						}
					],
					"name": "balanceOf",
					"outputs": [
						{
							"internalType": "uint256",
							"name": "",
							"type": "uint256"
						}
					],
					"stateMutability": "view",
					"type": "function"
				},
				{
					"inputs": [
						{
							"internalType": "uint256",
							"name": "amount",
							"type": "uint256"
						}
					],
					"name": "burn",
					"outputs": [],
					"stateMutability": "nonpayable",
					"type": "function"
				},
				{
					"inputs": [
						{
							"internalType": "address",
							"name": "account",
							"type": "address"
						},
						{
							"internalType": "uint256",
							"name": "amount",
							"type": "uint256"
						}
					],
					"name": "burnFrom",
					"outputs": [],
					"stateMutability": "nonpayable",
					"type": "function"
				},
				{
					"inputs": [],
					"name": "cap",
					"outputs": [
						{
							"internalType": "uint256",
							"name": "",
							"type": "uint256"
						}
					],
					"stateMutability": "view",
					"type": "function"
				},
				{
					"inputs": [],
					"name": "decimals",
					"outputs": [
						{
							"internalType": "uint8",
							"name": "",
							"type": "uint8"
						}
					],
					"stateMutability": "view",
					"type": "function"
				},
				{
					"inputs": [
						{
							"internalType": "address",
							"name": "spender",
							"type": "address"
						},
						{
							"internalType": "uint256",
							"name": "subtractedValue",
							"type": "uint256"
						}
					],
					"name": "decreaseAllowance",
					"outputs": [
						{
							"internalType": "bool",
							"name": "",
							"type": "bool"
						}
					],
					"stateMutability": "nonpayable",
					"type": "function"
				},
				{
					"inputs": [],
					"name": "finishMinting",
					"outputs": [],
					"stateMutability": "nonpayable",
					"type": "function"
				},
				{
					"inputs": [
						{
							"internalType": "bytes32",
							"name": "role",
							"type": "bytes32"
						}
					],
					"name": "getRoleAdmin",
					"outputs": [
						{
							"internalType": "bytes32",
							"name": "",
							"type": "bytes32"
						}
					],
					"stateMutability": "view",
					"type": "function"
				},
				{
					"inputs": [
						{
							"internalType": "bytes32",
							"name": "role",
							"type": "bytes32"
						},
						{
							"internalType": "address",
							"name": "account",
							"type": "address"
						}
					],
					"name": "grantRole",
					"outputs": [],
					"stateMutability": "nonpayable",
					"type": "function"
				},
				{
					"inputs": [
						{
							"internalType": "bytes32",
							"name": "role",
							"type": "bytes32"
						},
						{
							"internalType": "address",
							"name": "account",
							"type": "address"
						}
					],
					"name": "hasRole",
					"outputs": [
						{
							"internalType": "bool",
							"name": "",
							"type": "bool"
						}
					],
					"stateMutability": "view",
					"type": "function"
				},
				{
					"inputs": [
						{
							"internalType": "address",
							"name": "spender",
							"type": "address"
						},
						{
							"internalType": "uint256",
							"name": "addedValue",
							"type": "uint256"
						}
					],
					"name": "increaseAllowance",
					"outputs": [
						{
							"internalType": "bool",
							"name": "",
							"type": "bool"
						}
					],
					"stateMutability": "nonpayable",
					"type": "function"
				},
				{
					"inputs": [
						{
							"internalType": "address",
							"name": "account",
							"type": "address"
						},
						{
							"internalType": "uint256",
							"name": "amount",
							"type": "uint256"
						}
					],
					"name": "mint",
					"outputs": [],
					"stateMutability": "nonpayable",
					"type": "function"
				},
				{
					"inputs": [],
					"name": "mintingFinished",
					"outputs": [
						{
							"internalType": "bool",
							"name": "",
							"type": "bool"
						}
					],
					"stateMutability": "view",
					"type": "function"
				},
				{
					"inputs": [],
					"name": "name",
					"outputs": [
						{
							"internalType": "string",
							"name": "",
							"type": "string"
						}
					],
					"stateMutability": "view",
					"type": "function"
				},
				{
					"inputs": [],
					"name": "owner",
					"outputs": [
						{
							"internalType": "address",
							"name": "",
							"type": "address"
						}
					],
					"stateMutability": "view",
					"type": "function"
				},
				{
					"inputs": [
						{
							"internalType": "address",
							"name": "tokenAddress",
							"type": "address"
						},
						{
							"internalType": "uint256",
							"name": "tokenAmount",
							"type": "uint256"
						}
					],
					"name": "recoverERC20",
					"outputs": [],
					"stateMutability": "nonpayable",
					"type": "function"
				},
				{
					"inputs": [],
					"name": "renounceOwnership",
					"outputs": [],
					"stateMutability": "nonpayable",
					"type": "function"
				},
				{
					"inputs": [
						{
							"internalType": "bytes32",
							"name": "role",
							"type": "bytes32"
						},
						{
							"internalType": "address",
							"name": "account",
							"type": "address"
						}
					],
					"name": "renounceRole",
					"outputs": [],
					"stateMutability": "nonpayable",
					"type": "function"
				},
				{
					"inputs": [
						{
							"internalType": "bytes32",
							"name": "role",
							"type": "bytes32"
						},
						{
							"internalType": "address",
							"name": "account",
							"type": "address"
						}
					],
					"name": "revokeRole",
					"outputs": [],
					"stateMutability": "nonpayable",
					"type": "function"
				},
				{
					"inputs": [
						{
							"internalType": "bytes4",
							"name": "interfaceId",
							"type": "bytes4"
						}
					],
					"name": "supportsInterface",
					"outputs": [
						{
							"internalType": "bool",
							"name": "",
							"type": "bool"
						}
					],
					"stateMutability": "view",
					"type": "function"
				},
				{
					"inputs": [],
					"name": "symbol",
					"outputs": [
						{
							"internalType": "string",
							"name": "",
							"type": "string"
						}
					],
					"stateMutability": "view",
					"type": "function"
				},
				{
					"inputs": [],
					"name": "totalSupply",
					"outputs": [
						{
							"internalType": "uint256",
							"name": "",
							"type": "uint256"
						}
					],
					"stateMutability": "view",
					"type": "function"
				},
				{
					"inputs": [
						{
							"internalType": "address",
							"name": "recipient",
							"type": "address"
						},
						{
							"internalType": "uint256",
							"name": "amount",
							"type": "uint256"
						}
					],
					"name": "transfer",
					"outputs": [
						{
							"internalType": "bool",
							"name": "",
							"type": "bool"
						}
					],
					"stateMutability": "nonpayable",
					"type": "function"
				},
				{
					"inputs": [
						{
							"internalType": "address",
							"name": "recipient",
							"type": "address"
						},
						{
							"internalType": "uint256",
							"name": "amount",
							"type": "uint256"
						}
					],
					"name": "transferAndCall",
					"outputs": [
						{
							"internalType": "bool",
							"name": "",
							"type": "bool"
						}
					],
					"stateMutability": "nonpayable",
					"type": "function"
				},
				{
					"inputs": [
						{
							"internalType": "address",
							"name": "recipient",
							"type": "address"
						},
						{
							"internalType": "uint256",
							"name": "amount",
							"type": "uint256"
						},
						{
							"internalType": "bytes",
							"name": "data",
							"type": "bytes"
						}
					],
					"name": "transferAndCall",
					"outputs": [
						{
							"internalType": "bool",
							"name": "",
							"type": "bool"
						}
					],
					"stateMutability": "nonpayable",
					"type": "function"
				},
				{
					"inputs": [
						{
							"internalType": "address",
							"name": "sender",
							"type": "address"
						},
						{
							"internalType": "address",
							"name": "recipient",
							"type": "address"
						},
						{
							"internalType": "uint256",
							"name": "amount",
							"type": "uint256"
						}
					],
					"name": "transferFrom",
					"outputs": [
						{
							"internalType": "bool",
							"name": "",
							"type": "bool"
						}
					],
					"stateMutability": "nonpayable",
					"type": "function"
				},
				{
					"inputs": [
						{
							"internalType": "address",
							"name": "sender",
							"type": "address"
						},
						{
							"internalType": "address",
							"name": "recipient",
							"type": "address"
						},
						{
							"internalType": "uint256",
							"name": "amount",
							"type": "uint256"
						},
						{
							"internalType": "bytes",
							"name": "data",
							"type": "bytes"
						}
					],
					"name": "transferFromAndCall",
					"outputs": [
						{
							"internalType": "bool",
							"name": "",
							"type": "bool"
						}
					],
					"stateMutability": "nonpayable",
					"type": "function"
				},
				{
					"inputs": [
						{
							"internalType": "address",
							"name": "sender",
							"type": "address"
						},
						{
							"internalType": "address",
							"name": "recipient",
							"type": "address"
						},
						{
							"internalType": "uint256",
							"name": "amount",
							"type": "uint256"
						}
					],
					"name": "transferFromAndCall",
					"outputs": [
						{
							"internalType": "bool",
							"name": "",
							"type": "bool"
						}
					],
					"stateMutability": "nonpayable",
					"type": "function"
				},
				{
					"inputs": [
						{
							"internalType": "address",
							"name": "newOwner",
							"type": "address"
						}
					],
					"name": "transferOwnership",
					"outputs": [],
					"stateMutability": "nonpayable",
					"type": "function"
				}
			],
			"devdoc": {
				"details": "Implementation of the PowerfulERC20",
				"kind": "dev",
				"methods": {
					"allowance(address,address)": {
						"details": "See {IERC20-allowance}."
					},
					"approve(address,uint256)": {
						"details": "See {IERC20-approve}. Requirements: - `spender` cannot be the zero address."
					},
					"approveAndCall(address,uint256)": {
						"details": "Approve spender to transfer tokens and then execute a callback on recipient.",
						"params": {
							"amount": "The amount allowed to be transferred",
							"spender": "The address allowed to transfer to"
						},
						"returns": {
							"_0": "A boolean that indicates if the operation was successful."
						}
					},
					"approveAndCall(address,uint256,bytes)": {
						"details": "Approve spender to transfer tokens and then execute a callback on recipient.",
						"params": {
							"amount": "The amount allowed to be transferred.",
							"data": "Additional data with no specified format.",
							"spender": "The address allowed to transfer to."
						},
						"returns": {
							"_0": "A boolean that indicates if the operation was successful."
						}
					},
					"balanceOf(address)": {
						"details": "See {IERC20-balanceOf}."
					},
					"burn(uint256)": {
						"details": "Destroys `amount` tokens from the caller. See {ERC20-_burn}."
					},
					"burnFrom(address,uint256)": {
						"details": "Destroys `amount` tokens from `account`, deducting from the caller's allowance. See {ERC20-_burn} and {ERC20-allowance}. Requirements: - the caller must have allowance for ``accounts``'s tokens of at least `amount`."
					},
					"cap()": {
						"details": "Returns the cap on the token's total supply."
					},
					"decreaseAllowance(address,uint256)": {
						"details": "Atomically decreases the allowance granted to `spender` by the caller. This is an alternative to {approve} that can be used as a mitigation for problems described in {IERC20-approve}. Emits an {Approval} event indicating the updated allowance. Requirements: - `spender` cannot be the zero address. - `spender` must have allowance for the caller of at least `subtractedValue`."
					},
					"finishMinting()": {
						"details": "Function to stop minting new tokens. WARNING: it allows everyone to finish minting. Access controls MUST be defined in derived contracts."
					},
					"getRoleAdmin(bytes32)": {
						"details": "Returns the admin role that controls `role`. See {grantRole} and {revokeRole}. To change a role's admin, use {_setRoleAdmin}."
					},
					"grantRole(bytes32,address)": {
						"details": "Grants `role` to `account`. If `account` had not been already granted `role`, emits a {RoleGranted} event. Requirements: - the caller must have ``role``'s admin role."
					},
					"hasRole(bytes32,address)": {
						"details": "Returns `true` if `account` has been granted `role`."
					},
					"increaseAllowance(address,uint256)": {
						"details": "Atomically increases the allowance granted to `spender` by the caller. This is an alternative to {approve} that can be used as a mitigation for problems described in {IERC20-approve}. Emits an {Approval} event indicating the updated allowance. Requirements: - `spender` cannot be the zero address."
					},
					"mint(address,uint256)": {
						"details": "Function to mint tokens. WARNING: it allows everyone to mint new tokens. Access controls MUST be defined in derived contracts.",
						"params": {
							"account": "The address that will receive the minted tokens",
							"amount": "The amount of tokens to mint"
						}
					},
					"mintingFinished()": {
						"returns": {
							"_0": "if minting is finished or not."
						}
					},
					"name()": {
						"details": "Returns the name of the token."
					},
					"owner()": {
						"details": "Returns the address of the current owner."
					},
					"recoverERC20(address,uint256)": {
						"details": "Remember that only owner can call so be careful when use on contracts generated from other contracts.",
						"params": {
							"tokenAddress": "The token contract address",
							"tokenAmount": "Number of tokens to be sent"
						}
					},
					"renounceOwnership()": {
						"details": "Leaves the contract without owner. It will not be possible to call `onlyOwner` functions anymore. Can only be called by the current owner. NOTE: Renouncing ownership will leave the contract without an owner, thereby removing any functionality that is only available to the owner."
					},
					"renounceRole(bytes32,address)": {
						"details": "Revokes `role` from the calling account. Roles are often managed via {grantRole} and {revokeRole}: this function's purpose is to provide a mechanism for accounts to lose their privileges if they are compromised (such as when a trusted device is misplaced). If the calling account had been granted `role`, emits a {RoleRevoked} event. Requirements: - the caller must be `account`."
					},
					"revokeRole(bytes32,address)": {
						"details": "Revokes `role` from `account`. If `account` had been granted `role`, emits a {RoleRevoked} event. Requirements: - the caller must have ``role``'s admin role."
					},
					"symbol()": {
						"details": "Returns the symbol of the token, usually a shorter version of the name."
					},
					"totalSupply()": {
						"details": "See {IERC20-totalSupply}."
					},
					"transfer(address,uint256)": {
						"details": "See {IERC20-transfer}. Requirements: - `recipient` cannot be the zero address. - the caller must have a balance of at least `amount`."
					},
					"transferAndCall(address,uint256)": {
						"details": "Transfer tokens to a specified address and then execute a callback on recipient.",
						"params": {
							"amount": "The amount to be transferred.",
							"recipient": "The address to transfer to."
						},
						"returns": {
							"_0": "A boolean that indicates if the operation was successful."
						}
					},
					"transferAndCall(address,uint256,bytes)": {
						"details": "Transfer tokens to a specified address and then execute a callback on recipient.",
						"params": {
							"amount": "The amount to be transferred",
							"data": "Additional data with no specified format",
							"recipient": "The address to transfer to"
						},
						"returns": {
							"_0": "A boolean that indicates if the operation was successful."
						}
					},
					"transferFrom(address,address,uint256)": {
						"details": "See {IERC20-transferFrom}. Emits an {Approval} event indicating the updated allowance. This is not required by the EIP. See the note at the beginning of {ERC20}. Requirements: - `sender` and `recipient` cannot be the zero address. - `sender` must have a balance of at least `amount`. - the caller must have allowance for ``sender``'s tokens of at least `amount`."
					},
					"transferFromAndCall(address,address,uint256)": {
						"details": "Transfer tokens from one address to another and then execute a callback on recipient.",
						"params": {
							"amount": "The amount of tokens to be transferred",
							"recipient": "The address which you want to transfer to",
							"sender": "The address which you want to send tokens from"
						},
						"returns": {
							"_0": "A boolean that indicates if the operation was successful."
						}
					},
					"transferFromAndCall(address,address,uint256,bytes)": {
						"details": "Transfer tokens from one address to another and then execute a callback on recipient.",
						"params": {
							"amount": "The amount of tokens to be transferred",
							"data": "Additional data with no specified format",
							"recipient": "The address which you want to transfer to",
							"sender": "The address which you want to send tokens from"
						},
						"returns": {
							"_0": "A boolean that indicates if the operation was successful."
						}
					},
					"transferOwnership(address)": {
						"details": "Transfers ownership of the contract to a new account (`newOwner`). Can only be called by the current owner."
					}
				},
				"title": "PowerfulERC20",
				"version": 1
			},
			"evm": {
				"assembly": "    /* \"contracts/powerful-erc20.sol\":59699:61453  contract PowerfulERC20 is... */\n  0xc0\n  0x40\n  dup2\n  swap1\n  mstore\n    /* \"contracts/powerful-erc20.sol\":45556:45593  bool private _mintingFinished = false */\n  0x05\n  dup1\n  sload\n  not(0xff)\n  and\n  swap1\n  sstore\n    /* \"contracts/powerful-erc20.sol\":59846:60344  constructor(... */\n  bytecodeSize\n  codesize\n  dup2\n  swap1\n  sub\n  swap1\n  dup2\n  swap1\n    /* \"contracts/powerful-erc20.sol\":59699:61453  contract PowerfulERC20 is... */\n  dup4\n    /* \"contracts/powerful-erc20.sol\":59846:60344  constructor(... */\n  codecopy\n  dup2\n  add\n  0x40\n  dup2\n  swap1\n  mstore\n  tag_1\n  swap2\n  tag_2\n  jump\t// in\ntag_1:\n    /* \"contracts/powerful-erc20.sol\":60071:60075  cap_ */\n  dup2\n    /* \"contracts/powerful-erc20.sol\":60048:60057  decimals_ */\n  dup4\n    /* \"contracts/powerful-erc20.sol\":60018:60023  name_ */\n  dup7\n    /* \"contracts/powerful-erc20.sol\":60025:60032  symbol_ */\n  dup7\n    /* \"contracts/powerful-erc20.sol\":6193:6198  name_ */\n  dup2\n    /* \"contracts/powerful-erc20.sol\":6185:6190  _name */\n  0x03\n    /* \"contracts/powerful-erc20.sol\":6185:6198  _name = name_ */\n  swap1\n  dup1\n  mload\n  swap1\n  0x20\n  add\n  swap1\n  tag_10\n  swap3\n  swap2\n  swap1\n  tag_11\n  jump\t// in\ntag_10:\n  pop\n    /* \"contracts/powerful-erc20.sol\":6208:6225  _symbol = symbol_ */\n  dup1\n  mload\n  tag_12\n  swap1\n    /* \"contracts/powerful-erc20.sol\":6208:6215  _symbol */\n  0x04\n  swap1\n    /* \"contracts/powerful-erc20.sol\":6208:6225  _symbol = symbol_ */\n  0x20\n  dup5\n  add\n  swap1\n  tag_11\n  jump\t// in\ntag_12:\n  pop\n  pop\n  pop\n    /* \"contracts/powerful-erc20.sol\":45118:45139  _decimals = decimals_ */\n  0xf8\n  shl\n  0xff00000000000000000000000000000000000000000000000000000000000000\n  and\n  0x80\n  mstore\n    /* \"contracts/powerful-erc20.sol\":18024:18032  cap_ > 0 */\n  dup1\n    /* \"contracts/powerful-erc20.sol\":18016:18058  require(cap_ > 0, \"ERC20Capped: cap is 0\") */\n  tag_15\n  jumpi\n  mload(0x40)\n  shl(0xe5, 0x461bcd)\n  dup2\n  mstore\n    /* \"#utility.yul\":1947:1949   */\n  0x20\n    /* \"contracts/powerful-erc20.sol\":18016:18058  require(cap_ > 0, \"ERC20Capped: cap is 0\") */\n  0x04\n  dup3\n  add\n    /* \"#utility.yul\":1929:1950   */\n  mstore\n    /* \"#utility.yul\":1986:1988   */\n  0x15\n    /* \"#utility.yul\":1966:1984   */\n  0x24\n  dup3\n  add\n    /* \"#utility.yul\":1959:1989   */\n  mstore\n    /* \"#utility.yul\":2025:2048   */\n  0x45524332304361707065643a2063617020697320300000000000000000000000\n    /* \"#utility.yul\":2005:2023   */\n  0x44\n  dup3\n  add\n    /* \"#utility.yul\":1998:2049   */\n  mstore\n    /* \"#utility.yul\":2066:2084   */\n  0x64\n  add\n    /* \"contracts/powerful-erc20.sol\":18016:18058  require(cap_ > 0, \"ERC20Capped: cap is 0\") */\ntag_16:\n  mload(0x40)\n  dup1\n  swap2\n  sub\n  swap1\n  revert\ntag_15:\n    /* \"contracts/powerful-erc20.sol\":18068:18079  _cap = cap_ */\n  0xa0\n  mstore\n    /* \"contracts/powerful-erc20.sol\":42612:42635  _setOwner(_msgSender()) */\n  tag_19\n    /* \"contracts/powerful-erc20.sol\":4164:4174  msg.sender */\n  caller\n    /* \"contracts/powerful-erc20.sol\":42612:42621  _setOwner */\n  tag_22\n    /* \"contracts/powerful-erc20.sol\":42612:42635  _setOwner(_msgSender()) */\n  jump\t// in\ntag_19:\n    /* \"contracts/powerful-erc20.sol\":59266:59310  _setupRole(DEFAULT_ADMIN_ROLE, _msgSender()) */\n  tag_24\n    /* \"contracts/powerful-erc20.sol\":53806:53810  0x00 */\n  0x00\n    /* \"contracts/powerful-erc20.sol\":4164:4174  msg.sender */\n  caller\n    /* \"contracts/powerful-erc20.sol\":59266:59276  _setupRole */\n  tag_26\n    /* \"contracts/powerful-erc20.sol\":59266:59310  _setupRole(DEFAULT_ADMIN_ROLE, _msgSender()) */\n  jump\t// in\ntag_24:\n    /* \"contracts/powerful-erc20.sol\":59320:59357  _setupRole(MINTER_ROLE, _msgSender()) */\n  tag_27\n    /* \"contracts/powerful-erc20.sol\":59216:59235  keccak256(\"MINTER\") */\n  0xf0887ba65ee2024ea881d91b74c2450ef19e1557f03bed3ea9f16b037cbe2dc9\n    /* \"contracts/powerful-erc20.sol\":4164:4174  msg.sender */\n  caller\n    /* \"contracts/powerful-erc20.sol\":59266:59276  _setupRole */\n  tag_26\n    /* \"contracts/powerful-erc20.sol\":59266:59310  _setupRole(DEFAULT_ADMIN_ROLE, _msgSender()) */\n  jump\t// in\n    /* \"contracts/powerful-erc20.sol\":59320:59357  _setupRole(MINTER_ROLE, _msgSender()) */\ntag_27:\n    /* \"contracts/powerful-erc20.sol\":60251:60255  cap_ */\n  dup2\n    /* \"contracts/powerful-erc20.sol\":60232:60247  initialBalance_ */\n  dup2\n    /* \"contracts/powerful-erc20.sol\":60232:60255  initialBalance_ <= cap_ */\n  gt\n  iszero\n    /* \"contracts/powerful-erc20.sol\":60224:60285  require(initialBalance_ <= cap_, \"ERC20Capped: cap exceeded\") */\n  tag_30\n  jumpi\n  mload(0x40)\n  shl(0xe5, 0x461bcd)\n  dup2\n  mstore\n    /* \"#utility.yul\":2297:2299   */\n  0x20\n    /* \"contracts/powerful-erc20.sol\":60224:60285  require(initialBalance_ <= cap_, \"ERC20Capped: cap exceeded\") */\n  0x04\n  dup3\n  add\n    /* \"#utility.yul\":2279:2300   */\n  mstore\n    /* \"#utility.yul\":2336:2338   */\n  0x19\n    /* \"#utility.yul\":2316:2334   */\n  0x24\n  dup3\n  add\n    /* \"#utility.yul\":2309:2339   */\n  mstore\n    /* \"#utility.yul\":2375:2402   */\n  0x45524332304361707065643a2063617020657863656564656400000000000000\n    /* \"#utility.yul\":2355:2373   */\n  0x44\n  dup3\n  add\n    /* \"#utility.yul\":2348:2403   */\n  mstore\n    /* \"#utility.yul\":2420:2438   */\n  0x64\n  add\n    /* \"contracts/powerful-erc20.sol\":60224:60285  require(initialBalance_ <= cap_, \"ERC20Capped: cap exceeded\") */\n  tag_16\n    /* \"#utility.yul\":2095:2444   */\n  jump\n    /* \"contracts/powerful-erc20.sol\":60224:60285  require(initialBalance_ <= cap_, \"ERC20Capped: cap exceeded\") */\ntag_30:\n    /* \"contracts/powerful-erc20.sol\":60295:60337  ERC20._mint(_msgSender(), initialBalance_) */\n  tag_33\n    /* \"contracts/powerful-erc20.sol\":4164:4174  msg.sender */\n  caller\n    /* \"contracts/powerful-erc20.sol\":60321:60336  initialBalance_ */\n  dup3\n    /* \"contracts/powerful-erc20.sol\":60295:60306  ERC20._mint */\n  or(tag_0_180, shl(0x20, tag_35))\n    /* \"contracts/powerful-erc20.sol\":60295:60337  ERC20._mint(_msgSender(), initialBalance_) */\n  0x20\n  shr\n  jump\t// in\ntag_33:\n    /* \"contracts/powerful-erc20.sol\":59846:60344  constructor(... */\n  pop\n  pop\n  pop\n  pop\n  pop\n    /* \"contracts/powerful-erc20.sol\":59699:61453  contract PowerfulERC20 is... */\n  jump(tag_74)\n    /* \"contracts/powerful-erc20.sol\":43820:43989  function _setOwner(address newOwner) private {... */\ntag_22:\n    /* \"contracts/powerful-erc20.sol\":43894:43900  _owner */\n  0x05\n  dup1\n  sload\n  sub(shl(0xa0, 0x01), 0x01)\n    /* \"contracts/powerful-erc20.sol\":43910:43927  _owner = newOwner */\n  dup4\n  dup2\n  and\n    /* \"contracts/powerful-erc20.sol\":43894:43900  _owner */\n  0x0100\n    /* \"contracts/powerful-erc20.sol\":43910:43927  _owner = newOwner */\n  dup2\n  dup2\n  mul\n  not(sub(shl(0xa8, 0x01), 0x0100))\n  dup6\n  and\n  or\n  swap1\n  swap5\n  sstore\n    /* \"contracts/powerful-erc20.sol\":43942:43982  OwnershipTransferred(oldOwner, newOwner) */\n  mload(0x40)\n    /* \"contracts/powerful-erc20.sol\":43894:43900  _owner */\n  swap4\n  swap1\n  swap3\n  div\n  and\n  swap2\n  dup3\n  swap1\n    /* \"contracts/powerful-erc20.sol\":43942:43982  OwnershipTransferred(oldOwner, newOwner) */\n  0x8be0079c531659141344cd1fd0a4f28419497f9722a3daafe3b4186f6b6457e0\n  swap1\n    /* \"contracts/powerful-erc20.sol\":43875:43891  address oldOwner */\n  0x00\n  swap1\n    /* \"contracts/powerful-erc20.sol\":43942:43982  OwnershipTransferred(oldOwner, newOwner) */\n  log3\n    /* \"contracts/powerful-erc20.sol\":43865:43989  {... */\n  pop\n    /* \"contracts/powerful-erc20.sol\":43820:43989  function _setOwner(address newOwner) private {... */\n  pop\n  jump\t// out\n    /* \"contracts/powerful-erc20.sol\":58131:58241  function _setupRole(bytes32 role, address account) internal virtual {... */\ntag_26:\n    /* \"contracts/powerful-erc20.sol\":58209:58234  _grantRole(role, account) */\n  tag_40\n    /* \"contracts/powerful-erc20.sol\":58220:58224  role */\n  dup3\n    /* \"contracts/powerful-erc20.sol\":58226:58233  account */\n  dup3\n    /* \"contracts/powerful-erc20.sol\":58209:58219  _grantRole */\n  tag_41\n    /* \"contracts/powerful-erc20.sol\":58209:58234  _grantRole(role, account) */\n  jump\t// in\ntag_40:\n    /* \"contracts/powerful-erc20.sol\":58131:58241  function _setupRole(bytes32 role, address account) internal virtual {... */\n  pop\n  pop\n  jump\t// out\n    /* \"contracts/powerful-erc20.sol\":12831:13220  function _mint(address account, uint256 amount) internal virtual {... */\ntag_35:\n  sub(shl(0xa0, 0x01), 0x01)\n    /* \"contracts/powerful-erc20.sol\":12914:12935  account != address(0) */\n  dup3\n  and\n    /* \"contracts/powerful-erc20.sol\":12906:12971  require(account != address(0), \"ERC20: mint to the zero address\") */\n  tag_43\n  jumpi\n  mload(0x40)\n  shl(0xe5, 0x461bcd)\n  dup2\n  mstore\n    /* \"#utility.yul\":2651:2653   */\n  0x20\n    /* \"contracts/powerful-erc20.sol\":12906:12971  require(account != address(0), \"ERC20: mint to the zero address\") */\n  0x04\n  dup3\n  add\n    /* \"#utility.yul\":2633:2654   */\n  mstore\n    /* \"#utility.yul\":2690:2692   */\n  0x1f\n    /* \"#utility.yul\":2670:2688   */\n  0x24\n  dup3\n  add\n    /* \"#utility.yul\":2663:2693   */\n  mstore\n    /* \"#utility.yul\":2729:2762   */\n  0x45524332303a206d696e7420746f20746865207a65726f206164647265737300\n    /* \"#utility.yul\":2709:2727   */\n  0x44\n  dup3\n  add\n    /* \"#utility.yul\":2702:2763   */\n  mstore\n    /* \"#utility.yul\":2780:2798   */\n  0x64\n  add\n    /* \"contracts/powerful-erc20.sol\":12906:12971  require(account != address(0), \"ERC20: mint to the zero address\") */\n  tag_16\n    /* \"#utility.yul\":2449:2804   */\n  jump\n    /* \"contracts/powerful-erc20.sol\":12906:12971  require(account != address(0), \"ERC20: mint to the zero address\") */\ntag_43:\n    /* \"contracts/powerful-erc20.sol\":13058:13064  amount */\n  dup1\n    /* \"contracts/powerful-erc20.sol\":13042:13054  _totalSupply */\n  0x02\n  0x00\n    /* \"contracts/powerful-erc20.sol\":13042:13064  _totalSupply += amount */\n  dup3\n  dup3\n  sload\n  tag_48\n  swap2\n  swap1\n  tag_49\n  jump\t// in\ntag_48:\n  swap1\n  swap2\n  sstore\n  pop\n  pop\n  sub(shl(0xa0, 0x01), 0x01)\n    /* \"contracts/powerful-erc20.sol\":13074:13092  _balances[account] */\n  dup3\n  and\n    /* \"contracts/powerful-erc20.sol\":13074:13083  _balances */\n  0x00\n    /* \"contracts/powerful-erc20.sol\":13074:13092  _balances[account] */\n  swap1\n  dup2\n  mstore\n  0x20\n  dup2\n  swap1\n  mstore\n  0x40\n  dup2\n  keccak256\n    /* \"contracts/powerful-erc20.sol\":13074:13102  _balances[account] += amount */\n  dup1\n  sload\n    /* \"contracts/powerful-erc20.sol\":13096:13102  amount */\n  dup4\n  swap3\n    /* \"contracts/powerful-erc20.sol\":13074:13083  _balances */\n  swap1\n    /* \"contracts/powerful-erc20.sol\":13074:13102  _balances[account] += amount */\n  tag_50\n  swap1\n    /* \"contracts/powerful-erc20.sol\":13096:13102  amount */\n  dup5\n  swap1\n    /* \"contracts/powerful-erc20.sol\":13074:13102  _balances[account] += amount */\n  tag_49\n  jump\t// in\ntag_50:\n  swap1\n  swap2\n  sstore\n  pop\n  pop\n    /* \"contracts/powerful-erc20.sol\":13117:13154  Transfer(address(0), account, amount) */\n  mload(0x40)\n    /* \"#utility.yul\":2955:2980   */\n  dup2\n  dup2\n  mstore\n  sub(shl(0xa0, 0x01), 0x01)\n    /* \"contracts/powerful-erc20.sol\":13117:13154  Transfer(address(0), account, amount) */\n  dup4\n  and\n  swap1\n    /* \"contracts/powerful-erc20.sol\":13134:13135  0 */\n  0x00\n  swap1\n    /* \"contracts/powerful-erc20.sol\":13117:13154  Transfer(address(0), account, amount) */\n  0xddf252ad1be2c89b69c2b068fc378daa952ba7f163c4a11628f55a4df523b3ef\n  swap1\n    /* \"#utility.yul\":2943:2945   */\n  0x20\n    /* \"#utility.yul\":2928:2946   */\n  add\n    /* \"contracts/powerful-erc20.sol\":13117:13154  Transfer(address(0), account, amount) */\n  mload(0x40)\n  dup1\n  swap2\n  sub\n  swap1\n  log3\n    /* \"contracts/powerful-erc20.sol\":58131:58241  function _setupRole(bytes32 role, address account) internal virtual {... */\n  pop\n  pop\n  jump\t// out\n    /* \"contracts/powerful-erc20.sol\":58619:58843  function _grantRole(bytes32 role, address account) private {... */\ntag_41:\n    /* \"contracts/powerful-erc20.sol\":54821:54825  bool */\n  0x00\n    /* \"contracts/powerful-erc20.sol\":54848:54860  _roles[role] */\n  dup3\n  dup2\n  mstore\n    /* \"contracts/powerful-erc20.sol\":54848:54854  _roles */\n  0x06\n    /* \"contracts/powerful-erc20.sol\":54848:54860  _roles[role] */\n  0x20\n  swap1\n  dup2\n  mstore\n  0x40\n  dup1\n  dup4\n  keccak256\n  sub(shl(0xa0, 0x01), 0x01)\n    /* \"contracts/powerful-erc20.sol\":54848:54877  _roles[role].members[account] */\n  dup6\n  and\n  dup5\n  mstore\n  swap1\n  swap2\n  mstore\n  swap1\n  keccak256\n  sload\n  0xff\n  and\n    /* \"contracts/powerful-erc20.sol\":58688:58837  if (!hasRole(role, account)) {... */\n  tag_40\n  jumpi\n    /* \"contracts/powerful-erc20.sol\":58731:58743  _roles[role] */\n  0x00\n  dup3\n  dup2\n  mstore\n    /* \"contracts/powerful-erc20.sol\":58731:58737  _roles */\n  0x06\n    /* \"contracts/powerful-erc20.sol\":58731:58743  _roles[role] */\n  0x20\n  swap1\n  dup2\n  mstore\n  0x40\n  dup1\n  dup4\n  keccak256\n  sub(shl(0xa0, 0x01), 0x01)\n    /* \"contracts/powerful-erc20.sol\":58731:58760  _roles[role].members[account] */\n  dup6\n  and\n  dup5\n  mstore\n  swap1\n  swap2\n  mstore\n  swap1\n  keccak256\n    /* \"contracts/powerful-erc20.sol\":58731:58767  _roles[role].members[account] = true */\n  dup1\n  sload\n  not(0xff)\n  and\n    /* \"contracts/powerful-erc20.sol\":58763:58767  true */\n  0x01\n    /* \"contracts/powerful-erc20.sol\":58731:58767  _roles[role].members[account] = true */\n  or\n  swap1\n  sstore\n    /* \"contracts/powerful-erc20.sol\":58813:58825  _msgSender() */\n  tag_59\n    /* \"contracts/powerful-erc20.sol\":4164:4174  msg.sender */\n  caller\n  swap1\n    /* \"contracts/powerful-erc20.sol\":4085:4181  function _msgSender() internal view virtual returns (address) {... */\n  jump\n    /* \"contracts/powerful-erc20.sol\":58813:58825  _msgSender() */\ntag_59:\n  sub(shl(0xa0, 0x01), 0x01)\n    /* \"contracts/powerful-erc20.sol\":58786:58826  RoleGranted(role, account, _msgSender()) */\n  and\n    /* \"contracts/powerful-erc20.sol\":58804:58811  account */\n  dup2\n  sub(shl(0xa0, 0x01), 0x01)\n    /* \"contracts/powerful-erc20.sol\":58786:58826  RoleGranted(role, account, _msgSender()) */\n  and\n    /* \"contracts/powerful-erc20.sol\":58798:58802  role */\n  dup4\n    /* \"contracts/powerful-erc20.sol\":58786:58826  RoleGranted(role, account, _msgSender()) */\n  0x2f8788117e7eff1d82e926ec794901d17c78024a50270940304540a733656f0d\n  mload(0x40)\n  mload(0x40)\n  dup1\n  swap2\n  sub\n  swap1\n  log4\n    /* \"contracts/powerful-erc20.sol\":58619:58843  function _grantRole(bytes32 role, address account) private {... */\n  pop\n  pop\n  jump\t// out\n    /* \"contracts/powerful-erc20.sol\":59699:61453  contract PowerfulERC20 is... */\ntag_11:\n  dup3\n  dup1\n  sload\n  tag_63\n  swap1\n  tag_64\n  jump\t// in\ntag_63:\n  swap1\n  0x00\n  mstore\n  keccak256(0x00, 0x20)\n  swap1\n  0x1f\n  add\n  0x20\n  swap1\n  div\n  dup2\n  add\n  swap3\n  dup3\n  tag_66\n  jumpi\n  0x00\n  dup6\n  sstore\n  jump(tag_69)\ntag_66:\n  dup3\n  0x1f\n  lt\n  tag_67\n  jumpi\n  dup1\n  mload\n  not(0xff)\n  and\n  dup4\n  dup1\n  add\n  or\n  dup6\n  sstore\n  jump(tag_69)\ntag_67:\n  dup3\n  dup1\n  add\n  0x01\n  add\n  dup6\n  sstore\n  dup3\n  iszero\n  tag_69\n  jumpi\n  swap2\n  dup3\n  add\ntag_68:\n  dup3\n  dup2\n  gt\n  iszero\n  tag_69\n  jumpi\n  dup3\n  mload\n  dup3\n  sstore\n  swap2\n  0x20\n  add\n  swap2\n  swap1\n  0x01\n  add\n  swap1\n  jump(tag_68)\ntag_69:\n  pop\n  tag_70\n  swap3\n  swap2\n  pop\n  tag_71\n  jump\t// in\ntag_70:\n  pop\n  swap1\n  jump\t// out\ntag_71:\ntag_72:\n  dup1\n  dup3\n  gt\n  iszero\n  tag_70\n  jumpi\n  0x00\n  dup2\n  sstore\n  0x01\n  add\n  jump(tag_72)\n    /* \"#utility.yul\":14:899   */\ntag_75:\n    /* \"#utility.yul\":68:73   */\n  0x00\n    /* \"#utility.yul\":121:124   */\n  dup3\n    /* \"#utility.yul\":114:118   */\n  0x1f\n    /* \"#utility.yul\":106:112   */\n  dup4\n    /* \"#utility.yul\":102:119   */\n  add\n    /* \"#utility.yul\":98:125   */\n  slt\n    /* \"#utility.yul\":88:143   */\n  tag_77\n  jumpi\n    /* \"#utility.yul\":139:140   */\n  0x00\n    /* \"#utility.yul\":136:137   */\n  dup1\n    /* \"#utility.yul\":129:141   */\n  revert\n    /* \"#utility.yul\":88:143   */\ntag_77:\n    /* \"#utility.yul\":162:175   */\n  dup2\n  mload\n  sub(shl(0x40, 0x01), 0x01)\n    /* \"#utility.yul\":224:234   */\n  dup1\n  dup3\n  gt\n    /* \"#utility.yul\":221:257   */\n  iszero\n  tag_79\n  jumpi\n    /* \"#utility.yul\":237:255   */\n  tag_79\n  tag_80\n  jump\t// in\ntag_79:\n    /* \"#utility.yul\":312:314   */\n  0x40\n    /* \"#utility.yul\":306:315   */\n  mload\n    /* \"#utility.yul\":280:282   */\n  0x1f\n    /* \"#utility.yul\":366:379   */\n  dup4\n  add\n  not(0x1f)\n    /* \"#utility.yul\":362:384   */\n  swap1\n  dup2\n  and\n    /* \"#utility.yul\":386:388   */\n  0x3f\n    /* \"#utility.yul\":358:389   */\n  add\n    /* \"#utility.yul\":354:394   */\n  and\n    /* \"#utility.yul\":342:395   */\n  dup2\n  add\n  swap1\n    /* \"#utility.yul\":410:428   */\n  dup3\n  dup3\n  gt\n    /* \"#utility.yul\":430:452   */\n  dup2\n  dup4\n  lt\n    /* \"#utility.yul\":407:453   */\n  or\n    /* \"#utility.yul\":404:476   */\n  iszero\n  tag_82\n  jumpi\n    /* \"#utility.yul\":456:474   */\n  tag_82\n  tag_80\n  jump\t// in\ntag_82:\n    /* \"#utility.yul\":496:506   */\n  dup2\n    /* \"#utility.yul\":492:494   */\n  0x40\n    /* \"#utility.yul\":485:507   */\n  mstore\n    /* \"#utility.yul\":531:533   */\n  dup4\n    /* \"#utility.yul\":523:529   */\n  dup2\n    /* \"#utility.yul\":516:534   */\n  mstore\n    /* \"#utility.yul\":553:557   */\n  0x20\n    /* \"#utility.yul\":543:557   */\n  swap3\n  pop\n    /* \"#utility.yul\":598:601   */\n  dup7\n    /* \"#utility.yul\":593:595   */\n  dup4\n    /* \"#utility.yul\":588:590   */\n  dup6\n    /* \"#utility.yul\":580:586   */\n  dup9\n    /* \"#utility.yul\":576:591   */\n  add\n    /* \"#utility.yul\":572:596   */\n  add\n    /* \"#utility.yul\":569:602   */\n  gt\n    /* \"#utility.yul\":566:619   */\n  iszero\n  tag_83\n  jumpi\n    /* \"#utility.yul\":615:616   */\n  0x00\n    /* \"#utility.yul\":612:613   */\n  dup1\n    /* \"#utility.yul\":605:617   */\n  revert\n    /* \"#utility.yul\":566:619   */\ntag_83:\n    /* \"#utility.yul\":637:638   */\n  0x00\n    /* \"#utility.yul\":628:638   */\n  swap2\n  pop\n    /* \"#utility.yul\":647:780   */\ntag_84:\n    /* \"#utility.yul\":661:663   */\n  dup4\n    /* \"#utility.yul\":658:659   */\n  dup3\n    /* \"#utility.yul\":655:664   */\n  lt\n    /* \"#utility.yul\":647:780   */\n  iszero\n  tag_86\n  jumpi\n    /* \"#utility.yul\":749:763   */\n  dup6\n  dup3\n  add\n    /* \"#utility.yul\":745:768   */\n  dup4\n  add\n    /* \"#utility.yul\":739:769   */\n  mload\n    /* \"#utility.yul\":718:732   */\n  dup2\n  dup4\n  add\n    /* \"#utility.yul\":714:737   */\n  dup5\n  add\n    /* \"#utility.yul\":707:770   */\n  mstore\n    /* \"#utility.yul\":672:682   */\n  swap1\n  dup3\n  add\n  swap1\n    /* \"#utility.yul\":647:780   */\n  jump(tag_84)\ntag_86:\n    /* \"#utility.yul\":798:800   */\n  dup4\n    /* \"#utility.yul\":795:796   */\n  dup3\n    /* \"#utility.yul\":792:801   */\n  gt\n    /* \"#utility.yul\":789:869   */\n  iszero\n  tag_87\n  jumpi\n    /* \"#utility.yul\":857:858   */\n  0x00\n    /* \"#utility.yul\":852:854   */\n  dup4\n    /* \"#utility.yul\":847:849   */\n  dup6\n    /* \"#utility.yul\":839:845   */\n  dup4\n    /* \"#utility.yul\":835:850   */\n  add\n    /* \"#utility.yul\":831:855   */\n  add\n    /* \"#utility.yul\":824:859   */\n  mstore\n    /* \"#utility.yul\":789:869   */\ntag_87:\n    /* \"#utility.yul\":887:893   */\n  swap7\n    /* \"#utility.yul\":14:899   */\n  swap6\n  pop\n  pop\n  pop\n  pop\n  pop\n  pop\n  jump\t// out\n    /* \"#utility.yul\":904:1740   */\ntag_2:\n    /* \"#utility.yul\":1028:1034   */\n  0x00\n    /* \"#utility.yul\":1036:1042   */\n  dup1\n    /* \"#utility.yul\":1044:1050   */\n  0x00\n    /* \"#utility.yul\":1052:1058   */\n  dup1\n    /* \"#utility.yul\":1060:1066   */\n  0x00\n    /* \"#utility.yul\":1113:1116   */\n  0xa0\n    /* \"#utility.yul\":1101:1110   */\n  dup7\n    /* \"#utility.yul\":1092:1099   */\n  dup9\n    /* \"#utility.yul\":1088:1111   */\n  sub\n    /* \"#utility.yul\":1084:1117   */\n  slt\n    /* \"#utility.yul\":1081:1134   */\n  iszero\n  tag_89\n  jumpi\n    /* \"#utility.yul\":1130:1131   */\n  0x00\n    /* \"#utility.yul\":1127:1128   */\n  dup1\n    /* \"#utility.yul\":1120:1132   */\n  revert\n    /* \"#utility.yul\":1081:1134   */\ntag_89:\n    /* \"#utility.yul\":1157:1173   */\n  dup6\n  mload\n  sub(shl(0x40, 0x01), 0x01)\n    /* \"#utility.yul\":1222:1236   */\n  dup1\n  dup3\n  gt\n    /* \"#utility.yul\":1219:1253   */\n  iszero\n  tag_90\n  jumpi\n    /* \"#utility.yul\":1249:1250   */\n  0x00\n    /* \"#utility.yul\":1246:1247   */\n  dup1\n    /* \"#utility.yul\":1239:1251   */\n  revert\n    /* \"#utility.yul\":1219:1253   */\ntag_90:\n    /* \"#utility.yul\":1272:1333   */\n  tag_91\n    /* \"#utility.yul\":1325:1332   */\n  dup10\n    /* \"#utility.yul\":1316:1322   */\n  dup4\n    /* \"#utility.yul\":1305:1314   */\n  dup11\n    /* \"#utility.yul\":1301:1323   */\n  add\n    /* \"#utility.yul\":1272:1333   */\n  tag_75\n  jump\t// in\ntag_91:\n    /* \"#utility.yul\":1262:1333   */\n  swap7\n  pop\n    /* \"#utility.yul\":1379:1381   */\n  0x20\n    /* \"#utility.yul\":1368:1377   */\n  dup9\n    /* \"#utility.yul\":1364:1382   */\n  add\n    /* \"#utility.yul\":1358:1383   */\n  mload\n    /* \"#utility.yul\":1342:1383   */\n  swap2\n  pop\n    /* \"#utility.yul\":1408:1410   */\n  dup1\n    /* \"#utility.yul\":1398:1406   */\n  dup3\n    /* \"#utility.yul\":1395:1411   */\n  gt\n    /* \"#utility.yul\":1392:1428   */\n  iszero\n  tag_92\n  jumpi\n    /* \"#utility.yul\":1424:1425   */\n  0x00\n    /* \"#utility.yul\":1421:1422   */\n  dup1\n    /* \"#utility.yul\":1414:1426   */\n  revert\n    /* \"#utility.yul\":1392:1428   */\ntag_92:\n  pop\n    /* \"#utility.yul\":1447:1510   */\n  tag_93\n    /* \"#utility.yul\":1502:1509   */\n  dup9\n    /* \"#utility.yul\":1491:1499   */\n  dup3\n    /* \"#utility.yul\":1480:1489   */\n  dup10\n    /* \"#utility.yul\":1476:1500   */\n  add\n    /* \"#utility.yul\":1447:1510   */\n  tag_75\n  jump\t// in\ntag_93:\n    /* \"#utility.yul\":1437:1510   */\n  swap5\n  pop\n  pop\n    /* \"#utility.yul\":1553:1555   */\n  0x40\n    /* \"#utility.yul\":1542:1551   */\n  dup7\n    /* \"#utility.yul\":1538:1556   */\n  add\n    /* \"#utility.yul\":1532:1557   */\n  mload\n    /* \"#utility.yul\":1597:1601   */\n  0xff\n    /* \"#utility.yul\":1590:1595   */\n  dup2\n    /* \"#utility.yul\":1586:1602   */\n  and\n    /* \"#utility.yul\":1579:1584   */\n  dup2\n    /* \"#utility.yul\":1576:1603   */\n  eq\n    /* \"#utility.yul\":1566:1621   */\n  tag_94\n  jumpi\n    /* \"#utility.yul\":1617:1618   */\n  0x00\n    /* \"#utility.yul\":1614:1615   */\n  dup1\n    /* \"#utility.yul\":1607:1619   */\n  revert\n    /* \"#utility.yul\":1566:1621   */\ntag_94:\n    /* \"#utility.yul\":1685:1687   */\n  0x60\n    /* \"#utility.yul\":1670:1688   */\n  dup8\n  add\n    /* \"#utility.yul\":1664:1689   */\n  mload\n    /* \"#utility.yul\":1729:1732   */\n  0x80\n    /* \"#utility.yul\":1714:1733   */\n  swap1\n  swap8\n  add\n    /* \"#utility.yul\":1708:1734   */\n  mload\n    /* \"#utility.yul\":904:1740   */\n  swap6\n  swap9\n  swap5\n  swap8\n  pop\n    /* \"#utility.yul\":1640:1645   */\n  swap6\n    /* \"#utility.yul\":1664:1689   */\n  swap5\n    /* \"#utility.yul\":1708:1734   */\n  swap4\n    /* \"#utility.yul\":904:1740   */\n  swap3\n  pop\n  pop\n  pop\n  jump\t// out\n    /* \"#utility.yul\":2991:3216   */\ntag_49:\n    /* \"#utility.yul\":3031:3034   */\n  0x00\n    /* \"#utility.yul\":3062:3063   */\n  dup3\n    /* \"#utility.yul\":3058:3064   */\n  not\n    /* \"#utility.yul\":3055:3056   */\n  dup3\n    /* \"#utility.yul\":3052:3065   */\n  gt\n    /* \"#utility.yul\":3049:3185   */\n  iszero\n  tag_100\n  jumpi\n    /* \"#utility.yul\":3107:3117   */\n  0x4e487b71\n    /* \"#utility.yul\":3102:3105   */\n  0xe0\n    /* \"#utility.yul\":3098:3118   */\n  shl\n    /* \"#utility.yul\":3095:3096   */\n  0x00\n    /* \"#utility.yul\":3088:3119   */\n  mstore\n    /* \"#utility.yul\":3142:3146   */\n  0x11\n    /* \"#utility.yul\":3139:3140   */\n  0x04\n    /* \"#utility.yul\":3132:3147   */\n  mstore\n    /* \"#utility.yul\":3170:3174   */\n  0x24\n    /* \"#utility.yul\":3167:3168   */\n  0x00\n    /* \"#utility.yul\":3160:3175   */\n  revert\n    /* \"#utility.yul\":3049:3185   */\ntag_100:\n  pop\n    /* \"#utility.yul\":3201:3210   */\n  add\n  swap1\n    /* \"#utility.yul\":2991:3216   */\n  jump\t// out\n    /* \"#utility.yul\":3221:3601   */\ntag_64:\n    /* \"#utility.yul\":3300:3301   */\n  0x01\n    /* \"#utility.yul\":3296:3308   */\n  dup2\n  dup2\n  shr\n  swap1\n    /* \"#utility.yul\":3343:3355   */\n  dup3\n  and\n  dup1\n    /* \"#utility.yul\":3364:3425   */\n  tag_102\n  jumpi\n    /* \"#utility.yul\":3418:3422   */\n  0x7f\n    /* \"#utility.yul\":3410:3416   */\n  dup3\n    /* \"#utility.yul\":3406:3423   */\n  and\n    /* \"#utility.yul\":3396:3423   */\n  swap2\n  pop\n    /* \"#utility.yul\":3364:3425   */\ntag_102:\n    /* \"#utility.yul\":3471:3473   */\n  0x20\n    /* \"#utility.yul\":3463:3469   */\n  dup3\n    /* \"#utility.yul\":3460:3474   */\n  lt\n    /* \"#utility.yul\":3440:3458   */\n  dup2\n    /* \"#utility.yul\":3437:3475   */\n  eq\n    /* \"#utility.yul\":3434:3595   */\n  iszero\n  tag_103\n  jumpi\n    /* \"#utility.yul\":3517:3527   */\n  0x4e487b71\n    /* \"#utility.yul\":3512:3515   */\n  0xe0\n    /* \"#utility.yul\":3508:3528   */\n  shl\n    /* \"#utility.yul\":3505:3506   */\n  0x00\n    /* \"#utility.yul\":3498:3529   */\n  mstore\n    /* \"#utility.yul\":3552:3556   */\n  0x22\n    /* \"#utility.yul\":3549:3550   */\n  0x04\n    /* \"#utility.yul\":3542:3557   */\n  mstore\n    /* \"#utility.yul\":3580:3584   */\n  0x24\n    /* \"#utility.yul\":3577:3578   */\n  0x00\n    /* \"#utility.yul\":3570:3585   */\n  revert\n    /* \"#utility.yul\":3434:3595   */\ntag_103:\n  pop\n    /* \"#utility.yul\":3221:3601   */\n  swap2\n  swap1\n  pop\n  jump\t// out\n    /* \"#utility.yul\":3606:3733   */\ntag_80:\n    /* \"#utility.yul\":3667:3677   */\n  0x4e487b71\n    /* \"#utility.yul\":3662:3665   */\n  0xe0\n    /* \"#utility.yul\":3658:3678   */\n  shl\n    /* \"#utility.yul\":3655:3656   */\n  0x00\n    /* \"#utility.yul\":3648:3679   */\n  mstore\n    /* \"#utility.yul\":3698:3702   */\n  0x41\n    /* \"#utility.yul\":3695:3696   */\n  0x04\n    /* \"#utility.yul\":3688:3703   */\n  mstore\n    /* \"#utility.yul\":3722:3726   */\n  0x24\n    /* \"#utility.yul\":3719:3720   */\n  0x00\n    /* \"#utility.yul\":3712:3727   */\n  revert\n    /* \"#utility.yul\":3606:3733   */\ntag_74:\n    /* \"contracts/powerful-erc20.sol\":59699:61453  contract PowerfulERC20 is... */\n  shr(0xf8, mload(0x80))\n  mload(0xa0)\n  codecopy(0x00, dataOffset(sub_0), dataSize(sub_0))\n  0x00\n  assignImmutable(\"0x99234e8bb0caccda3914a3f5815f9f0b8e1efd8c0710474b7e1f8f99bf3b0eb8\")\n  0x00\n  assignImmutable(\"0x2c1c33478a6196754dce655d1325d08da1fff37880548389ad7a152cea6807ff\")\n  return(0x00, dataSize(sub_0))\nstop\n\nsub_0: assembly {\n        /* \"contracts/powerful-erc20.sol\":59699:61453  contract PowerfulERC20 is... */\n      mstore(0x40, 0x80)\n      callvalue\n      dup1\n      iszero\n      tag_1\n      jumpi\n      0x00\n      dup1\n      revert\n    tag_1:\n      pop\n      jumpi(tag_2, lt(calldatasize, 0x04))\n      shr(0xe0, calldataload(0x00))\n      dup1\n      0x70a08231\n      gt\n      tag_38\n      jumpi\n      dup1\n      0xa457c2d7\n      gt\n      tag_39\n      jumpi\n      dup1\n      0xd5391393\n      gt\n      tag_40\n      jumpi\n      dup1\n      0xd5391393\n      eq\n      tag_33\n      jumpi\n      dup1\n      0xd547741f\n      eq\n      tag_34\n      jumpi\n      dup1\n      0xd8fbe994\n      eq\n      tag_35\n      jumpi\n      dup1\n      0xdd62ed3e\n      eq\n      tag_36\n      jumpi\n      dup1\n      0xf2fde38b\n      eq\n      tag_37\n      jumpi\n      0x00\n      dup1\n      revert\n    tag_40:\n      dup1\n      0xa457c2d7\n      eq\n      tag_29\n      jumpi\n      dup1\n      0xa9059cbb\n      eq\n      tag_30\n      jumpi\n      dup1\n      0xc1d34b89\n      eq\n      tag_31\n      jumpi\n      dup1\n      0xcae9ca51\n      eq\n      tag_32\n      jumpi\n      0x00\n      dup1\n      revert\n    tag_39:\n      dup1\n      0x8980f11f\n      gt\n      tag_41\n      jumpi\n      dup1\n      0x8980f11f\n      eq\n      tag_24\n      jumpi\n      dup1\n      0x8da5cb5b\n      eq\n      tag_25\n      jumpi\n      dup1\n      0x91d14854\n      eq\n      tag_26\n      jumpi\n      dup1\n      0x95d89b41\n      eq\n      tag_27\n      jumpi\n      dup1\n      0xa217fddf\n      eq\n      tag_28\n      jumpi\n      0x00\n      dup1\n      revert\n    tag_41:\n      dup1\n      0x70a08231\n      eq\n      tag_20\n      jumpi\n      dup1\n      0x715018a6\n      eq\n      tag_21\n      jumpi\n      dup1\n      0x79cc6790\n      eq\n      tag_22\n      jumpi\n      dup1\n      0x7d64bcb4\n      eq\n      tag_23\n      jumpi\n      0x00\n      dup1\n      revert\n    tag_38:\n      dup1\n      0x2f2ff15d\n      gt\n      tag_42\n      jumpi\n      dup1\n      0x36568abe\n      gt\n      tag_43\n      jumpi\n      dup1\n      0x36568abe\n      eq\n      tag_15\n      jumpi\n      dup1\n      0x39509351\n      eq\n      tag_16\n      jumpi\n      dup1\n      0x4000aea0\n      eq\n      tag_17\n      jumpi\n      dup1\n      0x40c10f19\n      eq\n      tag_18\n      jumpi\n      dup1\n      0x42966c68\n      eq\n      tag_19\n      jumpi\n      0x00\n      dup1\n      revert\n    tag_43:\n      dup1\n      0x2f2ff15d\n      eq\n      tag_11\n      jumpi\n      dup1\n      0x313ce567\n      eq\n      tag_12\n      jumpi\n      dup1\n      0x3177029f\n      eq\n      tag_13\n      jumpi\n      dup1\n      0x355274ea\n      eq\n      tag_14\n      jumpi\n      0x00\n      dup1\n      revert\n    tag_42:\n      dup1\n      0x1296ee62\n      gt\n      tag_44\n      jumpi\n      dup1\n      0x1296ee62\n      eq\n      tag_7\n      jumpi\n      dup1\n      0x18160ddd\n      eq\n      tag_8\n      jumpi\n      dup1\n      0x23b872dd\n      eq\n      tag_9\n      jumpi\n      dup1\n      0x248a9ca3\n      eq\n      tag_10\n      jumpi\n      0x00\n      dup1\n      revert\n    tag_44:\n      dup1\n      0x01ffc9a7\n      eq\n      tag_3\n      jumpi\n      dup1\n      0x05d2035b\n      eq\n      tag_4\n      jumpi\n      dup1\n      0x06fdde03\n      eq\n      tag_5\n      jumpi\n      dup1\n      0x095ea7b3\n      eq\n      tag_6\n      jumpi\n    tag_2:\n      0x00\n      dup1\n      revert\n        /* \"contracts/powerful-erc20.sol\":60527:60746  function supportsInterface(bytes4 interfaceId)... */\n    tag_3:\n      tag_45\n      tag_46\n      calldatasize\n      0x04\n      tag_47\n      jump\t// in\n    tag_46:\n      tag_48\n      jump\t// in\n    tag_45:\n      mload(0x40)\n        /* \"#utility.yul\":6975:6989   */\n      swap1\n      iszero\n        /* \"#utility.yul\":6968:6990   */\n      iszero\n        /* \"#utility.yul\":6950:6991   */\n      dup2\n      mstore\n        /* \"#utility.yul\":6938:6940   */\n      0x20\n        /* \"#utility.yul\":6923:6941   */\n      add\n        /* \"contracts/powerful-erc20.sol\":60527:60746  function supportsInterface(bytes4 interfaceId)... */\n    tag_49:\n      mload(0x40)\n      dup1\n      swap2\n      sub\n      swap1\n      return\n        /* \"contracts/powerful-erc20.sol\":45943:46039  function mintingFinished() external view returns (bool) {... */\n    tag_4:\n        /* \"contracts/powerful-erc20.sol\":46016:46032  _mintingFinished */\n      and(0xff, sload(0x05))\n        /* \"contracts/powerful-erc20.sol\":45943:46039  function mintingFinished() external view returns (bool) {... */\n      jump(tag_45)\n        /* \"contracts/powerful-erc20.sol\":6297:6395  function name() public view virtual override returns (string memory) {... */\n    tag_5:\n      tag_54\n      tag_55\n      jump\t// in\n    tag_54:\n      mload(0x40)\n      tag_49\n      swap2\n      swap1\n      tag_57\n      jump\t// in\n        /* \"contracts/powerful-erc20.sol\":8518:8720  function approve(address spender, uint256 amount)... */\n    tag_6:\n      tag_45\n      tag_59\n      calldatasize\n      0x04\n      tag_60\n      jump\t// in\n    tag_59:\n      tag_61\n      jump\t// in\n        /* \"contracts/powerful-erc20.sol\":36194:36391  function transferAndCall(address recipient, uint256 amount)... */\n    tag_7:\n      tag_45\n      tag_64\n      calldatasize\n      0x04\n      tag_60\n      jump\t// in\n    tag_64:\n      tag_65\n      jump\t// in\n        /* \"contracts/powerful-erc20.sol\":7385:7491  function totalSupply() public view virtual override returns (uint256) {... */\n    tag_8:\n        /* \"contracts/powerful-erc20.sol\":7472:7484  _totalSupply */\n      sload(0x02)\n        /* \"contracts/powerful-erc20.sol\":7385:7491  function totalSupply() public view virtual override returns (uint256) {... */\n    tag_67:\n      mload(0x40)\n        /* \"#utility.yul\":7148:7173   */\n      swap1\n      dup2\n      mstore\n        /* \"#utility.yul\":7136:7138   */\n      0x20\n        /* \"#utility.yul\":7121:7139   */\n      add\n        /* \"contracts/powerful-erc20.sol\":7385:7491  function totalSupply() public view virtual override returns (uint256) {... */\n      tag_49\n        /* \"#utility.yul\":7002:7179   */\n      jump\n        /* \"contracts/powerful-erc20.sol\":9187:9699  function transferFrom(... */\n    tag_9:\n      tag_45\n      tag_72\n      calldatasize\n      0x04\n      tag_73\n      jump\t// in\n    tag_72:\n      tag_74\n      jump\t// in\n        /* \"contracts/powerful-erc20.sol\":55830:55951  function getRoleAdmin(bytes32 role) public view override returns (bytes32) {... */\n    tag_10:\n      tag_67\n      tag_77\n      calldatasize\n      0x04\n      tag_78\n      jump\t// in\n    tag_77:\n        /* \"contracts/powerful-erc20.sol\":55896:55903  bytes32 */\n      0x00\n        /* \"contracts/powerful-erc20.sol\":55922:55934  _roles[role] */\n      swap1\n      dup2\n      mstore\n        /* \"contracts/powerful-erc20.sol\":55922:55928  _roles */\n      0x06\n        /* \"contracts/powerful-erc20.sol\":55922:55934  _roles[role] */\n      0x20\n      mstore\n      0x40\n      swap1\n      keccak256\n        /* \"contracts/powerful-erc20.sol\":55922:55944  _roles[role].adminRole */\n      0x01\n      add\n      sload\n      swap1\n        /* \"contracts/powerful-erc20.sol\":55830:55951  function getRoleAdmin(bytes32 role) public view override returns (bytes32) {... */\n      jump\n        /* \"contracts/powerful-erc20.sol\":56201:56382  function grantRole(bytes32 role, address account)... */\n    tag_11:\n      tag_82\n      tag_83\n      calldatasize\n      0x04\n      tag_84\n      jump\t// in\n    tag_83:\n      tag_85\n      jump\t// in\n    tag_82:\n      stop\n        /* \"contracts/powerful-erc20.sol\":60350:60521  function decimals()... */\n    tag_12:\n      mload(0x40)\n        /* \"#utility.yul\":15699:15703   */\n      0xff\n        /* \"contracts/powerful-erc20.sol\":45234:45243  _decimals */\n      immutable(\"0x2c1c33478a6196754dce655d1325d08da1fff37880548389ad7a152cea6807ff\")\n        /* \"#utility.yul\":15687:15704   */\n      and\n        /* \"#utility.yul\":15669:15705   */\n      dup2\n      mstore\n        /* \"#utility.yul\":15657:15659   */\n      0x20\n        /* \"#utility.yul\":15642:15660   */\n      add\n        /* \"contracts/powerful-erc20.sol\":60350:60521  function decimals()... */\n      tag_49\n        /* \"#utility.yul\":15527:15711   */\n      jump\n        /* \"contracts/powerful-erc20.sol\":38866:39057  function approveAndCall(address spender, uint256 amount)... */\n    tag_13:\n      tag_45\n      tag_91\n      calldatasize\n      0x04\n      tag_60\n      jump\t// in\n    tag_91:\n      tag_92\n      jump\t// in\n        /* \"contracts/powerful-erc20.sol\":18165:18246  function cap() public view virtual returns (uint256) {... */\n    tag_14:\n        /* \"contracts/powerful-erc20.sol\":18235:18239  _cap */\n      immutable(\"0x99234e8bb0caccda3914a3f5815f9f0b8e1efd8c0710474b7e1f8f99bf3b0eb8\")\n        /* \"contracts/powerful-erc20.sol\":18165:18246  function cap() public view virtual returns (uint256) {... */\n      jump(tag_67)\n        /* \"contracts/powerful-erc20.sol\":57290:57566  function renounceRole(bytes32 role, address account)... */\n    tag_15:\n      tag_82\n      tag_98\n      calldatasize\n      0x04\n      tag_84\n      jump\t// in\n    tag_98:\n      tag_99\n      jump\t// in\n        /* \"contracts/powerful-erc20.sol\":10094:10380  function increaseAllowance(address spender, uint256 addedValue)... */\n    tag_16:\n      tag_45\n      tag_101\n      calldatasize\n      0x04\n      tag_60\n      jump\t// in\n    tag_101:\n      tag_102\n      jump\t// in\n        /* \"contracts/powerful-erc20.sol\":36740:37108  function transferAndCall(... */\n    tag_17:\n      tag_45\n      tag_105\n      calldatasize\n      0x04\n      tag_106\n      jump\t// in\n    tag_105:\n      tag_107\n      jump\t// in\n        /* \"contracts/powerful-erc20.sol\":46341:46444  function mint(address account, uint256 amount) external canMint {... */\n    tag_18:\n      tag_82\n      tag_110\n      calldatasize\n      0x04\n      tag_60\n      jump\t// in\n    tag_110:\n      tag_111\n      jump\t// in\n        /* \"contracts/powerful-erc20.sol\":16794:16883  function burn(uint256 amount) public virtual {... */\n    tag_19:\n      tag_82\n      tag_113\n      calldatasize\n      0x04\n      tag_78\n      jump\t// in\n    tag_113:\n      tag_115\n      jump\t// in\n        /* \"contracts/powerful-erc20.sol\":7549:7718  function balanceOf(address account)... */\n    tag_20:\n      tag_67\n      tag_117\n      calldatasize\n      0x04\n      tag_118\n      jump\t// in\n    tag_117:\n      sub(shl(0xa0, 0x01), 0x01)\n        /* \"contracts/powerful-erc20.sol\":7693:7711  _balances[account] */\n      and\n        /* \"contracts/powerful-erc20.sol\":7663:7670  uint256 */\n      0x00\n        /* \"contracts/powerful-erc20.sol\":7693:7711  _balances[account] */\n      swap1\n      dup2\n      mstore\n      0x20\n      dup2\n      swap1\n      mstore\n      0x40\n      swap1\n      keccak256\n      sload\n      swap1\n        /* \"contracts/powerful-erc20.sol\":7549:7718  function balanceOf(address account)... */\n      jump\n        /* \"contracts/powerful-erc20.sol\":43350:43442  function renounceOwnership() public virtual onlyOwner {... */\n    tag_21:\n      tag_82\n      tag_122\n      jump\t// in\n        /* \"contracts/powerful-erc20.sol\":17189:17584  function burnFrom(address account, uint256 amount) public virtual {... */\n    tag_22:\n      tag_82\n      tag_124\n      calldatasize\n      0x04\n      tag_60\n      jump\t// in\n    tag_124:\n      tag_125\n      jump\t// in\n        /* \"contracts/powerful-erc20.sol\":46630:46705  function finishMinting() external canMint {... */\n    tag_23:\n      tag_82\n      tag_127\n      jump\t// in\n        /* \"contracts/powerful-erc20.sol\":44446:44632  function recoverERC20(address tokenAddress, uint256 tokenAmount)... */\n    tag_24:\n      tag_82\n      tag_129\n      calldatasize\n      0x04\n      tag_60\n      jump\t// in\n    tag_129:\n      tag_130\n      jump\t// in\n        /* \"contracts/powerful-erc20.sol\":42718:42803  function owner() public view virtual returns (address) {... */\n    tag_25:\n        /* \"contracts/powerful-erc20.sol\":42790:42796  _owner */\n      sload(0x05)\n      0x0100\n      swap1\n      div\n      sub(shl(0xa0, 0x01), 0x01)\n      and\n        /* \"contracts/powerful-erc20.sol\":42718:42803  function owner() public view virtual returns (address) {... */\n      mload(0x40)\n      sub(shl(0xa0, 0x01), 0x01)\n        /* \"#utility.yul\":5604:5636   */\n      swap1\n      swap2\n      and\n        /* \"#utility.yul\":5586:5637   */\n      dup2\n      mstore\n        /* \"#utility.yul\":5574:5576   */\n      0x20\n        /* \"#utility.yul\":5559:5577   */\n      add\n        /* \"contracts/powerful-erc20.sol\":42718:42803  function owner() public view virtual returns (address) {... */\n      tag_49\n        /* \"#utility.yul\":5440:5643   */\n      jump\n        /* \"contracts/powerful-erc20.sol\":54711:54884  function hasRole(bytes32 role, address account)... */\n    tag_26:\n      tag_45\n      tag_136\n      calldatasize\n      0x04\n      tag_84\n      jump\t// in\n    tag_136:\n      tag_137\n      jump\t// in\n        /* \"contracts/powerful-erc20.sol\":6508:6610  function symbol() public view virtual override returns (string memory) {... */\n    tag_27:\n      tag_54\n      tag_140\n      jump\t// in\n        /* \"contracts/powerful-erc20.sol\":53761:53810  bytes32 public constant DEFAULT_ADMIN_ROLE = 0x00 */\n    tag_28:\n      tag_67\n        /* \"contracts/powerful-erc20.sol\":53806:53810  0x00 */\n      0x00\n        /* \"contracts/powerful-erc20.sol\":53761:53810  bytes32 public constant DEFAULT_ADMIN_ROLE = 0x00 */\n      dup2\n      jump\n        /* \"contracts/powerful-erc20.sol\":10867:11334  function decreaseAllowance(address spender, uint256 subtractedValue)... */\n    tag_29:\n      tag_45\n      tag_146\n      calldatasize\n      0x04\n      tag_60\n      jump\t// in\n    tag_146:\n      tag_147\n      jump\t// in\n        /* \"contracts/powerful-erc20.sol\":7921:8129  function transfer(address recipient, uint256 amount)... */\n    tag_30:\n      tag_45\n      tag_150\n      calldatasize\n      0x04\n      tag_60\n      jump\t// in\n    tag_150:\n      tag_151\n      jump\t// in\n        /* \"contracts/powerful-erc20.sol\":38165:38567  function transferFromAndCall(... */\n    tag_31:\n      tag_45\n      tag_154\n      calldatasize\n      0x04\n      tag_155\n      jump\t// in\n    tag_154:\n      tag_156\n      jump\t// in\n        /* \"contracts/powerful-erc20.sol\":39419:39763  function approveAndCall(... */\n    tag_32:\n      tag_45\n      tag_159\n      calldatasize\n      0x04\n      tag_106\n      jump\t// in\n    tag_159:\n      tag_160\n      jump\t// in\n        /* \"contracts/powerful-erc20.sol\":59178:59235  bytes32 public constant MINTER_ROLE = keccak256(\"MINTER\") */\n    tag_33:\n      tag_67\n        /* \"contracts/powerful-erc20.sol\":59216:59235  keccak256(\"MINTER\") */\n      0xf0887ba65ee2024ea881d91b74c2450ef19e1557f03bed3ea9f16b037cbe2dc9\n        /* \"contracts/powerful-erc20.sol\":59178:59235  bytes32 public constant MINTER_ROLE = keccak256(\"MINTER\") */\n      dup2\n      jump\n        /* \"contracts/powerful-erc20.sol\":56616:56799  function revokeRole(bytes32 role, address account)... */\n    tag_34:\n      tag_82\n      tag_166\n      calldatasize\n      0x04\n      tag_84\n      jump\t// in\n    tag_166:\n      tag_167\n      jump\t// in\n        /* \"contracts/powerful-erc20.sol\":37495:37718  function transferFromAndCall(... */\n    tag_35:\n      tag_45\n      tag_169\n      calldatasize\n      0x04\n      tag_73\n      jump\t// in\n    tag_169:\n      tag_170\n      jump\t// in\n        /* \"contracts/powerful-erc20.sol\":8187:8380  function allowance(address owner, address spender)... */\n    tag_36:\n      tag_67\n      tag_173\n      calldatasize\n      0x04\n      tag_174\n      jump\t// in\n    tag_173:\n      sub(shl(0xa0, 0x01), 0x01)\n        /* \"contracts/powerful-erc20.sol\":8346:8364  _allowances[owner] */\n      swap2\n      dup3\n      and\n        /* \"contracts/powerful-erc20.sol\":8316:8323  uint256 */\n      0x00\n        /* \"contracts/powerful-erc20.sol\":8346:8364  _allowances[owner] */\n      swap1\n      dup2\n      mstore\n        /* \"contracts/powerful-erc20.sol\":8346:8357  _allowances */\n      0x01\n        /* \"contracts/powerful-erc20.sol\":8346:8364  _allowances[owner] */\n      0x20\n      swap1\n      dup2\n      mstore\n      0x40\n      dup1\n      dup4\n      keccak256\n        /* \"contracts/powerful-erc20.sol\":8346:8373  _allowances[owner][spender] */\n      swap4\n      swap1\n      swap5\n      and\n      dup3\n      mstore\n      swap2\n      swap1\n      swap2\n      mstore\n      keccak256\n      sload\n      swap1\n        /* \"contracts/powerful-erc20.sol\":8187:8380  function allowance(address owner, address spender)... */\n      jump\n        /* \"contracts/powerful-erc20.sol\":43591:43814  function transferOwnership(address newOwner) public virtual onlyOwner {... */\n    tag_37:\n      tag_82\n      tag_178\n      calldatasize\n      0x04\n      tag_118\n      jump\t// in\n    tag_178:\n      tag_179\n      jump\t// in\n        /* \"contracts/powerful-erc20.sol\":60527:60746  function supportsInterface(bytes4 interfaceId)... */\n    tag_48:\n        /* \"contracts/powerful-erc20.sol\":60676:60680  bool */\n      0x00\n        /* \"contracts/powerful-erc20.sol\":60703:60739  super.supportsInterface(interfaceId) */\n      tag_182\n        /* \"contracts/powerful-erc20.sol\":60727:60738  interfaceId */\n      dup3\n        /* \"contracts/powerful-erc20.sol\":60703:60726  super.supportsInterface */\n      tag_183\n        /* \"contracts/powerful-erc20.sol\":60703:60739  super.supportsInterface(interfaceId) */\n      jump\t// in\n    tag_182:\n        /* \"contracts/powerful-erc20.sol\":60696:60739  return super.supportsInterface(interfaceId) */\n      swap3\n        /* \"contracts/powerful-erc20.sol\":60527:60746  function supportsInterface(bytes4 interfaceId)... */\n      swap2\n      pop\n      pop\n      jump\t// out\n        /* \"contracts/powerful-erc20.sol\":6297:6395  function name() public view virtual override returns (string memory) {... */\n    tag_55:\n        /* \"contracts/powerful-erc20.sol\":6351:6364  string memory */\n      0x60\n        /* \"contracts/powerful-erc20.sol\":6383:6388  _name */\n      0x03\n        /* \"contracts/powerful-erc20.sol\":6376:6388  return _name */\n      dup1\n      sload\n      tag_186\n      swap1\n      tag_187\n      jump\t// in\n    tag_186:\n      dup1\n      0x1f\n      add\n      0x20\n      dup1\n      swap2\n      div\n      mul\n      0x20\n      add\n      mload(0x40)\n      swap1\n      dup2\n      add\n      0x40\n      mstore\n      dup1\n      swap3\n      swap2\n      swap1\n      dup2\n      dup2\n      mstore\n      0x20\n      add\n      dup3\n      dup1\n      sload\n      tag_188\n      swap1\n      tag_187\n      jump\t// in\n    tag_188:\n      dup1\n      iszero\n      tag_189\n      jumpi\n      dup1\n      0x1f\n      lt\n      tag_190\n      jumpi\n      0x0100\n      dup1\n      dup4\n      sload\n      div\n      mul\n      dup4\n      mstore\n      swap2\n      0x20\n      add\n      swap2\n      jump(tag_189)\n    tag_190:\n      dup3\n      add\n      swap2\n      swap1\n      0x00\n      mstore\n      keccak256(0x00, 0x20)\n      swap1\n    tag_191:\n      dup2\n      sload\n      dup2\n      mstore\n      swap1\n      0x01\n      add\n      swap1\n      0x20\n      add\n      dup1\n      dup4\n      gt\n      tag_191\n      jumpi\n      dup3\n      swap1\n      sub\n      0x1f\n      and\n      dup3\n      add\n      swap2\n    tag_189:\n      pop\n      pop\n      pop\n      pop\n      pop\n      swap1\n      pop\n        /* \"contracts/powerful-erc20.sol\":6297:6395  function name() public view virtual override returns (string memory) {... */\n      swap1\n      jump\t// out\n        /* \"contracts/powerful-erc20.sol\":8518:8720  function approve(address spender, uint256 amount)... */\n    tag_61:\n        /* \"contracts/powerful-erc20.sol\":8633:8637  bool */\n      0x00\n        /* \"contracts/powerful-erc20.sol\":8653:8692  _approve(_msgSender(), spender, amount) */\n      tag_193\n        /* \"contracts/powerful-erc20.sol\":4164:4174  msg.sender */\n      caller\n        /* \"contracts/powerful-erc20.sol\":8676:8683  spender */\n      dup5\n        /* \"contracts/powerful-erc20.sol\":8685:8691  amount */\n      dup5\n        /* \"contracts/powerful-erc20.sol\":8653:8661  _approve */\n      tag_196\n        /* \"contracts/powerful-erc20.sol\":8653:8692  _approve(_msgSender(), spender, amount) */\n      jump\t// in\n    tag_193:\n      pop\n        /* \"contracts/powerful-erc20.sol\":8709:8713  true */\n      0x01\n        /* \"contracts/powerful-erc20.sol\":8518:8720  function approve(address spender, uint256 amount)... */\n      swap3\n      swap2\n      pop\n      pop\n      jump\t// out\n        /* \"contracts/powerful-erc20.sol\":36194:36391  function transferAndCall(address recipient, uint256 amount)... */\n    tag_65:\n        /* \"contracts/powerful-erc20.sol\":36319:36323  bool */\n      0x00\n        /* \"contracts/powerful-erc20.sol\":36346:36384  transferAndCall(recipient, amount, \"\") */\n      tag_198\n        /* \"contracts/powerful-erc20.sol\":36362:36371  recipient */\n      dup4\n        /* \"contracts/powerful-erc20.sol\":36373:36379  amount */\n      dup4\n        /* \"contracts/powerful-erc20.sol\":36346:36384  transferAndCall(recipient, amount, \"\") */\n      mload(0x40)\n      dup1\n      0x20\n      add\n      0x40\n      mstore\n      dup1\n      0x00\n      dup2\n      mstore\n      pop\n        /* \"contracts/powerful-erc20.sol\":36346:36361  transferAndCall */\n      tag_107\n        /* \"contracts/powerful-erc20.sol\":36346:36384  transferAndCall(recipient, amount, \"\") */\n      jump\t// in\n    tag_198:\n        /* \"contracts/powerful-erc20.sol\":36339:36384  return transferAndCall(recipient, amount, \"\") */\n      swap4\n        /* \"contracts/powerful-erc20.sol\":36194:36391  function transferAndCall(address recipient, uint256 amount)... */\n      swap3\n      pop\n      pop\n      pop\n      jump\t// out\n        /* \"contracts/powerful-erc20.sol\":9187:9699  function transferFrom(... */\n    tag_74:\n        /* \"contracts/powerful-erc20.sol\":9323:9327  bool */\n      0x00\n        /* \"contracts/powerful-erc20.sol\":9339:9375  _transfer(sender, recipient, amount) */\n      tag_201\n        /* \"contracts/powerful-erc20.sol\":9349:9355  sender */\n      dup5\n        /* \"contracts/powerful-erc20.sol\":9357:9366  recipient */\n      dup5\n        /* \"contracts/powerful-erc20.sol\":9368:9374  amount */\n      dup5\n        /* \"contracts/powerful-erc20.sol\":9339:9348  _transfer */\n      tag_202\n        /* \"contracts/powerful-erc20.sol\":9339:9375  _transfer(sender, recipient, amount) */\n      jump\t// in\n    tag_201:\n      sub(shl(0xa0, 0x01), 0x01)\n        /* \"contracts/powerful-erc20.sol\":9413:9432  _allowances[sender] */\n      dup5\n      and\n        /* \"contracts/powerful-erc20.sol\":9386:9410  uint256 currentAllowance */\n      0x00\n        /* \"contracts/powerful-erc20.sol\":9413:9432  _allowances[sender] */\n      swap1\n      dup2\n      mstore\n        /* \"contracts/powerful-erc20.sol\":9413:9424  _allowances */\n      0x01\n        /* \"contracts/powerful-erc20.sol\":9413:9432  _allowances[sender] */\n      0x20\n      swap1\n      dup2\n      mstore\n      0x40\n      dup1\n      dup4\n      keccak256\n        /* \"contracts/powerful-erc20.sol\":4164:4174  msg.sender */\n      caller\n        /* \"contracts/powerful-erc20.sol\":9413:9446  _allowances[sender][_msgSender()] */\n      dup5\n      mstore\n      swap1\n      swap2\n      mstore\n      swap1\n      keccak256\n      sload\n        /* \"contracts/powerful-erc20.sol\":9477:9503  currentAllowance >= amount */\n      dup3\n      dup2\n      lt\n      iszero\n        /* \"contracts/powerful-erc20.sol\":9456:9569  require(... */\n      tag_204\n      jumpi\n      mload(0x40)\n      shl(0xe5, 0x461bcd)\n      dup2\n      mstore\n        /* \"#utility.yul\":11220:11222   */\n      0x20\n        /* \"contracts/powerful-erc20.sol\":9456:9569  require(... */\n      0x04\n      dup3\n      add\n        /* \"#utility.yul\":11202:11223   */\n      mstore\n        /* \"#utility.yul\":11259:11261   */\n      0x28\n        /* \"#utility.yul\":11239:11257   */\n      0x24\n      dup3\n      add\n        /* \"#utility.yul\":11232:11262   */\n      mstore\n        /* \"#utility.yul\":11298:11332   */\n      0x45524332303a207472616e7366657220616d6f756e7420657863656564732061\n        /* \"#utility.yul\":11278:11296   */\n      0x44\n      dup3\n      add\n        /* \"#utility.yul\":11271:11333   */\n      mstore\n      shl(0xc0, 0x6c6c6f77616e6365)\n        /* \"#utility.yul\":11349:11367   */\n      0x64\n      dup3\n      add\n        /* \"#utility.yul\":11342:11380   */\n      mstore\n        /* \"#utility.yul\":11397:11416   */\n      0x84\n      add\n        /* \"contracts/powerful-erc20.sol\":9456:9569  require(... */\n    tag_205:\n      mload(0x40)\n      dup1\n      swap2\n      sub\n      swap1\n      revert\n    tag_204:\n        /* \"contracts/powerful-erc20.sol\":9603:9660  _approve(sender, _msgSender(), currentAllowance - amount) */\n      tag_207\n        /* \"contracts/powerful-erc20.sol\":9612:9618  sender */\n      dup6\n        /* \"contracts/powerful-erc20.sol\":4164:4174  msg.sender */\n      caller\n        /* \"contracts/powerful-erc20.sol\":9653:9659  amount */\n      dup6\n        /* \"contracts/powerful-erc20.sol\":9634:9650  currentAllowance */\n      dup5\n        /* \"contracts/powerful-erc20.sol\":9634:9659  currentAllowance - amount */\n      sub\n        /* \"contracts/powerful-erc20.sol\":9603:9611  _approve */\n      tag_196\n        /* \"contracts/powerful-erc20.sol\":9603:9660  _approve(sender, _msgSender(), currentAllowance - amount) */\n      jump\t// in\n    tag_207:\n      pop\n        /* \"contracts/powerful-erc20.sol\":9688:9692  true */\n      0x01\n      swap5\n        /* \"contracts/powerful-erc20.sol\":9187:9699  function transferFrom(... */\n      swap4\n      pop\n      pop\n      pop\n      pop\n      jump\t// out\n        /* \"contracts/powerful-erc20.sol\":56201:56382  function grantRole(bytes32 role, address account)... */\n    tag_85:\n        /* \"contracts/powerful-erc20.sol\":55896:55903  bytes32 */\n      0x00\n        /* \"contracts/powerful-erc20.sol\":55922:55934  _roles[role] */\n      dup3\n      dup2\n      mstore\n        /* \"contracts/powerful-erc20.sol\":55922:55928  _roles */\n      0x06\n        /* \"contracts/powerful-erc20.sol\":55922:55934  _roles[role] */\n      0x20\n      mstore\n      0x40\n      swap1\n      keccak256\n        /* \"contracts/powerful-erc20.sol\":55922:55944  _roles[role].adminRole */\n      0x01\n      add\n      sload\n        /* \"contracts/powerful-erc20.sol\":54239:54269  _checkRole(role, _msgSender()) */\n      tag_212\n        /* \"contracts/powerful-erc20.sol\":54250:54254  role */\n      dup2\n        /* \"contracts/powerful-erc20.sol\":4164:4174  msg.sender */\n      caller\n        /* \"contracts/powerful-erc20.sol\":54239:54249  _checkRole */\n      tag_214\n        /* \"contracts/powerful-erc20.sol\":54239:54269  _checkRole(role, _msgSender()) */\n      jump\t// in\n    tag_212:\n        /* \"contracts/powerful-erc20.sol\":56350:56375  _grantRole(role, account) */\n      tag_216\n        /* \"contracts/powerful-erc20.sol\":56361:56365  role */\n      dup4\n        /* \"contracts/powerful-erc20.sol\":56367:56374  account */\n      dup4\n        /* \"contracts/powerful-erc20.sol\":56350:56360  _grantRole */\n      tag_217\n        /* \"contracts/powerful-erc20.sol\":56350:56375  _grantRole(role, account) */\n      jump\t// in\n    tag_216:\n        /* \"contracts/powerful-erc20.sol\":56201:56382  function grantRole(bytes32 role, address account)... */\n      pop\n      pop\n      pop\n      jump\t// out\n        /* \"contracts/powerful-erc20.sol\":38866:39057  function approveAndCall(address spender, uint256 amount)... */\n    tag_92:\n        /* \"contracts/powerful-erc20.sol\":38988:38992  bool */\n      0x00\n        /* \"contracts/powerful-erc20.sol\":39015:39050  approveAndCall(spender, amount, \"\") */\n      tag_198\n        /* \"contracts/powerful-erc20.sol\":39030:39037  spender */\n      dup4\n        /* \"contracts/powerful-erc20.sol\":39039:39045  amount */\n      dup4\n        /* \"contracts/powerful-erc20.sol\":39015:39050  approveAndCall(spender, amount, \"\") */\n      mload(0x40)\n      dup1\n      0x20\n      add\n      0x40\n      mstore\n      dup1\n      0x00\n      dup2\n      mstore\n      pop\n        /* \"contracts/powerful-erc20.sol\":39015:39029  approveAndCall */\n      tag_160\n        /* \"contracts/powerful-erc20.sol\":39015:39050  approveAndCall(spender, amount, \"\") */\n      jump\t// in\n        /* \"contracts/powerful-erc20.sol\":57290:57566  function renounceRole(bytes32 role, address account)... */\n    tag_99:\n      sub(shl(0xa0, 0x01), 0x01)\n        /* \"contracts/powerful-erc20.sol\":57426:57449  account == _msgSender() */\n      dup2\n      and\n        /* \"contracts/powerful-erc20.sol\":4164:4174  msg.sender */\n      caller\n        /* \"contracts/powerful-erc20.sol\":57426:57449  account == _msgSender() */\n      eq\n        /* \"contracts/powerful-erc20.sol\":57405:57522  require(... */\n      tag_226\n      jumpi\n      mload(0x40)\n      shl(0xe5, 0x461bcd)\n      dup2\n      mstore\n        /* \"#utility.yul\":14771:14773   */\n      0x20\n        /* \"contracts/powerful-erc20.sol\":57405:57522  require(... */\n      0x04\n      dup3\n      add\n        /* \"#utility.yul\":14753:14774   */\n      mstore\n        /* \"#utility.yul\":14810:14812   */\n      0x2f\n        /* \"#utility.yul\":14790:14808   */\n      0x24\n      dup3\n      add\n        /* \"#utility.yul\":14783:14813   */\n      mstore\n        /* \"#utility.yul\":14849:14883   */\n      0x416363657373436f6e74726f6c3a2063616e206f6e6c792072656e6f756e6365\n        /* \"#utility.yul\":14829:14847   */\n      0x44\n      dup3\n      add\n        /* \"#utility.yul\":14822:14884   */\n      mstore\n      shl(0x89, 0x103937b632b9903337b91039b2b633)\n        /* \"#utility.yul\":14900:14918   */\n      0x64\n      dup3\n      add\n        /* \"#utility.yul\":14893:14938   */\n      mstore\n        /* \"#utility.yul\":14955:14974   */\n      0x84\n      add\n        /* \"contracts/powerful-erc20.sol\":57405:57522  require(... */\n      tag_205\n        /* \"#utility.yul\":14569:14980   */\n      jump\n        /* \"contracts/powerful-erc20.sol\":57405:57522  require(... */\n    tag_226:\n        /* \"contracts/powerful-erc20.sol\":57533:57559  _revokeRole(role, account) */\n      tag_229\n        /* \"contracts/powerful-erc20.sol\":57545:57549  role */\n      dup3\n        /* \"contracts/powerful-erc20.sol\":57551:57558  account */\n      dup3\n        /* \"contracts/powerful-erc20.sol\":57533:57544  _revokeRole */\n      tag_230\n        /* \"contracts/powerful-erc20.sol\":57533:57559  _revokeRole(role, account) */\n      jump\t// in\n    tag_229:\n        /* \"contracts/powerful-erc20.sol\":57290:57566  function renounceRole(bytes32 role, address account)... */\n      pop\n      pop\n      jump\t// out\n        /* \"contracts/powerful-erc20.sol\":10094:10380  function increaseAllowance(address spender, uint256 addedValue)... */\n    tag_102:\n        /* \"contracts/powerful-erc20.sol\":4164:4174  msg.sender */\n      caller\n        /* \"contracts/powerful-erc20.sol\":10206:10210  bool */\n      0x00\n        /* \"contracts/powerful-erc20.sol\":10295:10320  _allowances[_msgSender()] */\n      dup2\n      dup2\n      mstore\n        /* \"contracts/powerful-erc20.sol\":10295:10306  _allowances */\n      0x01\n        /* \"contracts/powerful-erc20.sol\":10295:10320  _allowances[_msgSender()] */\n      0x20\n      swap1\n      dup2\n      mstore\n      0x40\n      dup1\n      dup4\n      keccak256\n      sub(shl(0xa0, 0x01), 0x01)\n        /* \"contracts/powerful-erc20.sol\":10295:10329  _allowances[_msgSender()][spender] */\n      dup8\n      and\n      dup5\n      mstore\n      swap1\n      swap2\n      mstore\n      dup2\n      keccak256\n      sload\n        /* \"contracts/powerful-erc20.sol\":10206:10210  bool */\n      swap1\n      swap2\n        /* \"contracts/powerful-erc20.sol\":10226:10352  _approve(... */\n      tag_193\n      swap2\n        /* \"contracts/powerful-erc20.sol\":10274:10281  spender */\n      dup6\n      swap1\n        /* \"contracts/powerful-erc20.sol\":10295:10342  _allowances[_msgSender()][spender] + addedValue */\n      tag_235\n      swap1\n        /* \"contracts/powerful-erc20.sol\":10332:10342  addedValue */\n      dup7\n      swap1\n        /* \"contracts/powerful-erc20.sol\":10295:10342  _allowances[_msgSender()][spender] + addedValue */\n      tag_236\n      jump\t// in\n    tag_235:\n        /* \"contracts/powerful-erc20.sol\":10226:10234  _approve */\n      tag_196\n        /* \"contracts/powerful-erc20.sol\":10226:10352  _approve(... */\n      jump\t// in\n        /* \"contracts/powerful-erc20.sol\":36740:37108  function transferAndCall(... */\n    tag_107:\n        /* \"contracts/powerful-erc20.sol\":36882:36886  bool */\n      0x00\n        /* \"contracts/powerful-erc20.sol\":36898:36925  transfer(recipient, amount) */\n      tag_238\n        /* \"contracts/powerful-erc20.sol\":36907:36916  recipient */\n      dup5\n        /* \"contracts/powerful-erc20.sol\":36918:36924  amount */\n      dup5\n        /* \"contracts/powerful-erc20.sol\":36898:36906  transfer */\n      tag_151\n        /* \"contracts/powerful-erc20.sol\":36898:36925  transfer(recipient, amount) */\n      jump\t// in\n    tag_238:\n      pop\n        /* \"contracts/powerful-erc20.sol\":36956:37016  _checkAndCallTransfer(_msgSender(), recipient, amount, data) */\n      tag_239\n        /* \"contracts/powerful-erc20.sol\":4164:4174  msg.sender */\n      caller\n        /* \"contracts/powerful-erc20.sol\":36992:37001  recipient */\n      dup6\n        /* \"contracts/powerful-erc20.sol\":37003:37009  amount */\n      dup6\n        /* \"contracts/powerful-erc20.sol\":37011:37015  data */\n      dup6\n        /* \"contracts/powerful-erc20.sol\":36956:36977  _checkAndCallTransfer */\n      tag_241\n        /* \"contracts/powerful-erc20.sol\":36956:37016  _checkAndCallTransfer(_msgSender(), recipient, amount, data) */\n      jump\t// in\n    tag_239:\n        /* \"contracts/powerful-erc20.sol\":36935:37080  require(... */\n      tag_242\n      jumpi\n      mload(0x40)\n      shl(0xe5, 0x461bcd)\n      dup2\n      mstore\n      0x04\n      add\n      tag_205\n      swap1\n      tag_244\n      jump\t// in\n    tag_242:\n      pop\n        /* \"contracts/powerful-erc20.sol\":37097:37101  true */\n      0x01\n        /* \"contracts/powerful-erc20.sol\":36740:37108  function transferAndCall(... */\n      swap4\n      swap3\n      pop\n      pop\n      pop\n      jump\t// out\n        /* \"contracts/powerful-erc20.sol\":46341:46444  function mint(address account, uint256 amount) external canMint {... */\n    tag_111:\n        /* \"contracts/powerful-erc20.sol\":45802:45818  _mintingFinished */\n      and(0xff, sload(0x05))\n        /* \"contracts/powerful-erc20.sol\":45801:45818  !_mintingFinished */\n      iszero\n        /* \"contracts/powerful-erc20.sol\":45793:45857  require(!_mintingFinished, \"ERC20Mintable: minting is finished\") */\n      tag_246\n      jumpi\n      mload(0x40)\n      shl(0xe5, 0x461bcd)\n      dup2\n      mstore\n      0x04\n      add\n      tag_205\n      swap1\n      tag_248\n      jump\t// in\n    tag_246:\n        /* \"contracts/powerful-erc20.sol\":46415:46437  _mint(account, amount) */\n      tag_229\n        /* \"contracts/powerful-erc20.sol\":46421:46428  account */\n      dup3\n        /* \"contracts/powerful-erc20.sol\":46430:46436  amount */\n      dup3\n        /* \"contracts/powerful-erc20.sol\":46415:46420  _mint */\n      tag_251\n        /* \"contracts/powerful-erc20.sol\":46415:46437  _mint(account, amount) */\n      jump\t// in\n        /* \"contracts/powerful-erc20.sol\":16794:16883  function burn(uint256 amount) public virtual {... */\n    tag_115:\n        /* \"contracts/powerful-erc20.sol\":16849:16876  _burn(_msgSender(), amount) */\n      tag_253\n        /* \"contracts/powerful-erc20.sol\":4164:4174  msg.sender */\n      caller\n        /* \"contracts/powerful-erc20.sol\":16869:16875  amount */\n      dup3\n        /* \"contracts/powerful-erc20.sol\":16849:16854  _burn */\n      tag_255\n        /* \"contracts/powerful-erc20.sol\":16849:16876  _burn(_msgSender(), amount) */\n      jump\t// in\n    tag_253:\n        /* \"contracts/powerful-erc20.sol\":16794:16883  function burn(uint256 amount) public virtual {... */\n      pop\n      jump\t// out\n        /* \"contracts/powerful-erc20.sol\":43350:43442  function renounceOwnership() public virtual onlyOwner {... */\n    tag_122:\n        /* \"contracts/powerful-erc20.sol\":42790:42796  _owner */\n      sload(0x05)\n      sub(shl(0xa0, 0x01), 0x01)\n      0x0100\n      swap1\n      swap2\n      div\n      and\n        /* \"contracts/powerful-erc20.sol\":4164:4174  msg.sender */\n      caller\n        /* \"contracts/powerful-erc20.sol\":42930:42953  owner() == _msgSender() */\n      eq\n        /* \"contracts/powerful-erc20.sol\":42922:42990  require(owner() == _msgSender(), \"Ownable: caller is not the owner\") */\n      tag_260\n      jumpi\n      mload(0x40)\n      shl(0xe5, 0x461bcd)\n      dup2\n      mstore\n      0x04\n      add\n      tag_205\n      swap1\n      tag_262\n      jump\t// in\n    tag_260:\n        /* \"contracts/powerful-erc20.sol\":43414:43435  _setOwner(address(0)) */\n      tag_264\n        /* \"contracts/powerful-erc20.sol\":43432:43433  0 */\n      0x00\n        /* \"contracts/powerful-erc20.sol\":43414:43423  _setOwner */\n      tag_265\n        /* \"contracts/powerful-erc20.sol\":43414:43435  _setOwner(address(0)) */\n      jump\t// in\n    tag_264:\n        /* \"contracts/powerful-erc20.sol\":43350:43442  function renounceOwnership() public virtual onlyOwner {... */\n      jump\t// out\n        /* \"contracts/powerful-erc20.sol\":17189:17584  function burnFrom(address account, uint256 amount) public virtual {... */\n    tag_125:\n        /* \"contracts/powerful-erc20.sol\":17265:17289  uint256 currentAllowance */\n      0x00\n        /* \"contracts/powerful-erc20.sol\":17292:17324  allowance(account, _msgSender()) */\n      tag_267\n        /* \"contracts/powerful-erc20.sol\":17302:17309  account */\n      dup4\n        /* \"contracts/powerful-erc20.sol\":4164:4174  msg.sender */\n      caller\n        /* \"contracts/powerful-erc20.sol\":8187:8380  function allowance(address owner, address spender)... */\n      tag_173\n      jump\t// in\n        /* \"contracts/powerful-erc20.sol\":17292:17324  allowance(account, _msgSender()) */\n    tag_267:\n        /* \"contracts/powerful-erc20.sol\":17265:17324  uint256 currentAllowance = allowance(account, _msgSender()) */\n      swap1\n      pop\n        /* \"contracts/powerful-erc20.sol\":17375:17381  amount */\n      dup2\n        /* \"contracts/powerful-erc20.sol\":17355:17371  currentAllowance */\n      dup2\n        /* \"contracts/powerful-erc20.sol\":17355:17381  currentAllowance >= amount */\n      lt\n      iszero\n        /* \"contracts/powerful-erc20.sol\":17334:17443  require(... */\n      tag_269\n      jumpi\n      mload(0x40)\n      shl(0xe5, 0x461bcd)\n      dup2\n      mstore\n        /* \"#utility.yul\":11990:11992   */\n      0x20\n        /* \"contracts/powerful-erc20.sol\":17334:17443  require(... */\n      0x04\n      dup3\n      add\n        /* \"#utility.yul\":11972:11993   */\n      mstore\n        /* \"#utility.yul\":12029:12031   */\n      0x24\n        /* \"#utility.yul\":12009:12027   */\n      dup1\n      dup3\n      add\n        /* \"#utility.yul\":12002:12032   */\n      mstore\n        /* \"#utility.yul\":12068:12102   */\n      0x45524332303a206275726e20616d6f756e74206578636565647320616c6c6f77\n        /* \"#utility.yul\":12048:12066   */\n      0x44\n      dup3\n      add\n        /* \"#utility.yul\":12041:12103   */\n      mstore\n      shl(0xe0, 0x616e6365)\n        /* \"#utility.yul\":12119:12137   */\n      0x64\n      dup3\n      add\n        /* \"#utility.yul\":12112:12146   */\n      mstore\n        /* \"#utility.yul\":12163:12182   */\n      0x84\n      add\n        /* \"contracts/powerful-erc20.sol\":17334:17443  require(... */\n      tag_205\n        /* \"#utility.yul\":11788:12188   */\n      jump\n        /* \"contracts/powerful-erc20.sol\":17334:17443  require(... */\n    tag_269:\n        /* \"contracts/powerful-erc20.sol\":17477:17535  _approve(account, _msgSender(), currentAllowance - amount) */\n      tag_272\n        /* \"contracts/powerful-erc20.sol\":17486:17493  account */\n      dup4\n        /* \"contracts/powerful-erc20.sol\":4164:4174  msg.sender */\n      caller\n        /* \"contracts/powerful-erc20.sol\":17528:17534  amount */\n      dup5\n        /* \"contracts/powerful-erc20.sol\":17509:17525  currentAllowance */\n      dup5\n        /* \"contracts/powerful-erc20.sol\":17509:17534  currentAllowance - amount */\n      sub\n        /* \"contracts/powerful-erc20.sol\":17477:17485  _approve */\n      tag_196\n        /* \"contracts/powerful-erc20.sol\":17477:17535  _approve(account, _msgSender(), currentAllowance - amount) */\n      jump\t// in\n    tag_272:\n        /* \"contracts/powerful-erc20.sol\":17555:17577  _burn(account, amount) */\n      tag_216\n        /* \"contracts/powerful-erc20.sol\":17561:17568  account */\n      dup4\n        /* \"contracts/powerful-erc20.sol\":17570:17576  amount */\n      dup4\n        /* \"contracts/powerful-erc20.sol\":17555:17560  _burn */\n      tag_255\n        /* \"contracts/powerful-erc20.sol\":17555:17577  _burn(account, amount) */\n      jump\t// in\n        /* \"contracts/powerful-erc20.sol\":46630:46705  function finishMinting() external canMint {... */\n    tag_127:\n        /* \"contracts/powerful-erc20.sol\":45802:45818  _mintingFinished */\n      and(0xff, sload(0x05))\n        /* \"contracts/powerful-erc20.sol\":45801:45818  !_mintingFinished */\n      iszero\n        /* \"contracts/powerful-erc20.sol\":45793:45857  require(!_mintingFinished, \"ERC20Mintable: minting is finished\") */\n      tag_276\n      jumpi\n      mload(0x40)\n      shl(0xe5, 0x461bcd)\n      dup2\n      mstore\n      0x04\n      add\n      tag_205\n      swap1\n      tag_248\n      jump\t// in\n    tag_276:\n        /* \"contracts/powerful-erc20.sol\":46682:46698  _finishMinting() */\n      tag_264\n        /* \"contracts/powerful-erc20.sol\":46682:46696  _finishMinting */\n      tag_280\n        /* \"contracts/powerful-erc20.sol\":46682:46698  _finishMinting() */\n      jump\t// in\n        /* \"contracts/powerful-erc20.sol\":44446:44632  function recoverERC20(address tokenAddress, uint256 tokenAmount)... */\n    tag_130:\n        /* \"contracts/powerful-erc20.sol\":42790:42796  _owner */\n      sload(0x05)\n      sub(shl(0xa0, 0x01), 0x01)\n      0x0100\n      swap1\n      swap2\n      div\n      and\n        /* \"contracts/powerful-erc20.sol\":4164:4174  msg.sender */\n      caller\n        /* \"contracts/powerful-erc20.sol\":42930:42953  owner() == _msgSender() */\n      eq\n        /* \"contracts/powerful-erc20.sol\":42922:42990  require(owner() == _msgSender(), \"Ownable: caller is not the owner\") */\n      tag_284\n      jumpi\n      mload(0x40)\n      shl(0xe5, 0x461bcd)\n      dup2\n      mstore\n      0x04\n      add\n      tag_205\n      swap1\n      tag_262\n      jump\t// in\n    tag_284:\n        /* \"contracts/powerful-erc20.sol\":44581:44593  tokenAddress */\n      dup2\n      sub(shl(0xa0, 0x01), 0x01)\n        /* \"contracts/powerful-erc20.sol\":44574:44603  IERC20(tokenAddress).transfer */\n      and\n      0xa9059cbb\n        /* \"contracts/powerful-erc20.sol\":44604:44611  owner() */\n      tag_287\n        /* \"contracts/powerful-erc20.sol\":42790:42796  _owner */\n      sload(0x05)\n      sub(shl(0xa0, 0x01), 0x01)\n      0x0100\n      swap1\n      swap2\n      div\n      and\n      swap1\n        /* \"contracts/powerful-erc20.sol\":42718:42803  function owner() public view virtual returns (address) {... */\n      jump\n        /* \"contracts/powerful-erc20.sol\":44604:44611  owner() */\n    tag_287:\n        /* \"contracts/powerful-erc20.sol\":44574:44625  IERC20(tokenAddress).transfer(owner(), tokenAmount) */\n      mload(0x40)\n      not(sub(shl(0xe0, 0x01), 0x01))\n      0xe0\n      dup5\n      swap1\n      shl\n      and\n      dup2\n      mstore\n      sub(shl(0xa0, 0x01), 0x01)\n        /* \"#utility.yul\":6333:6365   */\n      swap1\n      swap2\n      and\n        /* \"contracts/powerful-erc20.sol\":44574:44625  IERC20(tokenAddress).transfer(owner(), tokenAmount) */\n      0x04\n      dup3\n      add\n        /* \"#utility.yul\":6315:6366   */\n      mstore\n        /* \"#utility.yul\":6382:6400   */\n      0x24\n      dup2\n      add\n        /* \"#utility.yul\":6375:6409   */\n      dup5\n      swap1\n      mstore\n        /* \"#utility.yul\":6288:6306   */\n      0x44\n      add\n        /* \"contracts/powerful-erc20.sol\":44574:44625  IERC20(tokenAddress).transfer(owner(), tokenAmount) */\n      0x20\n      mload(0x40)\n      dup1\n      dup4\n      sub\n      dup2\n      0x00\n      dup8\n      dup1\n      extcodesize\n      iszero\n      dup1\n      iszero\n      tag_290\n      jumpi\n      0x00\n      dup1\n      revert\n    tag_290:\n      pop\n      gas\n      call\n      iszero\n      dup1\n      iszero\n      tag_292\n      jumpi\n      returndatasize\n      0x00\n      dup1\n      returndatacopy\n      revert(0x00, returndatasize)\n    tag_292:\n      pop\n      pop\n      pop\n      pop\n      mload(0x40)\n      returndatasize\n      not(0x1f)\n      0x1f\n      dup3\n      add\n      and\n      dup3\n      add\n      dup1\n      0x40\n      mstore\n      pop\n      dup2\n      add\n      swap1\n      tag_216\n      swap2\n      swap1\n      tag_294\n      jump\t// in\n        /* \"contracts/powerful-erc20.sol\":54711:54884  function hasRole(bytes32 role, address account)... */\n    tag_137:\n        /* \"contracts/powerful-erc20.sol\":54821:54825  bool */\n      0x00\n        /* \"contracts/powerful-erc20.sol\":54848:54860  _roles[role] */\n      swap2\n      dup3\n      mstore\n        /* \"contracts/powerful-erc20.sol\":54848:54854  _roles */\n      0x06\n        /* \"contracts/powerful-erc20.sol\":54848:54860  _roles[role] */\n      0x20\n      swap1\n      dup2\n      mstore\n      0x40\n      dup1\n      dup5\n      keccak256\n      sub(shl(0xa0, 0x01), 0x01)\n        /* \"contracts/powerful-erc20.sol\":54848:54877  _roles[role].members[account] */\n      swap4\n      swap1\n      swap4\n      and\n      dup5\n      mstore\n      swap2\n      swap1\n      mstore\n      swap1\n      keccak256\n      sload\n      0xff\n      and\n      swap1\n        /* \"contracts/powerful-erc20.sol\":54711:54884  function hasRole(bytes32 role, address account)... */\n      jump\t// out\n        /* \"contracts/powerful-erc20.sol\":6508:6610  function symbol() public view virtual override returns (string memory) {... */\n    tag_140:\n        /* \"contracts/powerful-erc20.sol\":6564:6577  string memory */\n      0x60\n        /* \"contracts/powerful-erc20.sol\":6596:6603  _symbol */\n      0x04\n        /* \"contracts/powerful-erc20.sol\":6589:6603  return _symbol */\n      dup1\n      sload\n      tag_186\n      swap1\n      tag_187\n      jump\t// in\n        /* \"contracts/powerful-erc20.sol\":10867:11334  function decreaseAllowance(address spender, uint256 subtractedValue)... */\n    tag_147:\n        /* \"contracts/powerful-erc20.sol\":4164:4174  msg.sender */\n      caller\n        /* \"contracts/powerful-erc20.sol\":10984:10988  bool */\n      0x00\n        /* \"contracts/powerful-erc20.sol\":11031:11056  _allowances[_msgSender()] */\n      swap1\n      dup2\n      mstore\n        /* \"contracts/powerful-erc20.sol\":11031:11042  _allowances */\n      0x01\n        /* \"contracts/powerful-erc20.sol\":11031:11056  _allowances[_msgSender()] */\n      0x20\n      swap1\n      dup2\n      mstore\n      0x40\n      dup1\n      dup4\n      keccak256\n      sub(shl(0xa0, 0x01), 0x01)\n        /* \"contracts/powerful-erc20.sol\":11031:11065  _allowances[_msgSender()][spender] */\n      dup7\n      and\n      dup5\n      mstore\n      swap1\n      swap2\n      mstore\n      dup2\n      keccak256\n      sload\n        /* \"contracts/powerful-erc20.sol\":11096:11131  currentAllowance >= subtractedValue */\n      dup3\n      dup2\n      lt\n      iszero\n        /* \"contracts/powerful-erc20.sol\":11075:11194  require(... */\n      tag_305\n      jumpi\n      mload(0x40)\n      shl(0xe5, 0x461bcd)\n      dup2\n      mstore\n        /* \"#utility.yul\":14365:14367   */\n      0x20\n        /* \"contracts/powerful-erc20.sol\":11075:11194  require(... */\n      0x04\n      dup3\n      add\n        /* \"#utility.yul\":14347:14368   */\n      mstore\n        /* \"#utility.yul\":14404:14406   */\n      0x25\n        /* \"#utility.yul\":14384:14402   */\n      0x24\n      dup3\n      add\n        /* \"#utility.yul\":14377:14407   */\n      mstore\n        /* \"#utility.yul\":14443:14477   */\n      0x45524332303a2064656372656173656420616c6c6f77616e63652062656c6f77\n        /* \"#utility.yul\":14423:14441   */\n      0x44\n      dup3\n      add\n        /* \"#utility.yul\":14416:14478   */\n      mstore\n      shl(0xd8, 0x207a65726f)\n        /* \"#utility.yul\":14494:14512   */\n      0x64\n      dup3\n      add\n        /* \"#utility.yul\":14487:14522   */\n      mstore\n        /* \"#utility.yul\":14539:14558   */\n      0x84\n      add\n        /* \"contracts/powerful-erc20.sol\":11075:11194  require(... */\n      tag_205\n        /* \"#utility.yul\":14163:14564   */\n      jump\n        /* \"contracts/powerful-erc20.sol\":11075:11194  require(... */\n    tag_305:\n        /* \"contracts/powerful-erc20.sol\":11228:11295  _approve(_msgSender(), spender, currentAllowance - subtractedValue) */\n      tag_242\n        /* \"contracts/powerful-erc20.sol\":4164:4174  msg.sender */\n      caller\n        /* \"contracts/powerful-erc20.sol\":11251:11258  spender */\n      dup6\n        /* \"contracts/powerful-erc20.sol\":11279:11294  subtractedValue */\n      dup6\n        /* \"contracts/powerful-erc20.sol\":11260:11276  currentAllowance */\n      dup5\n        /* \"contracts/powerful-erc20.sol\":11260:11294  currentAllowance - subtractedValue */\n      sub\n        /* \"contracts/powerful-erc20.sol\":11228:11236  _approve */\n      tag_196\n        /* \"contracts/powerful-erc20.sol\":11228:11295  _approve(_msgSender(), spender, currentAllowance - subtractedValue) */\n      jump\t// in\n        /* \"contracts/powerful-erc20.sol\":7921:8129  function transfer(address recipient, uint256 amount)... */\n    tag_151:\n        /* \"contracts/powerful-erc20.sol\":8039:8043  bool */\n      0x00\n        /* \"contracts/powerful-erc20.sol\":8059:8101  _transfer(_msgSender(), recipient, amount) */\n      tag_193\n        /* \"contracts/powerful-erc20.sol\":4164:4174  msg.sender */\n      caller\n        /* \"contracts/powerful-erc20.sol\":8083:8092  recipient */\n      dup5\n        /* \"contracts/powerful-erc20.sol\":8094:8100  amount */\n      dup5\n        /* \"contracts/powerful-erc20.sol\":8059:8068  _transfer */\n      tag_202\n        /* \"contracts/powerful-erc20.sol\":8059:8101  _transfer(_msgSender(), recipient, amount) */\n      jump\t// in\n        /* \"contracts/powerful-erc20.sol\":38165:38567  function transferFromAndCall(... */\n    tag_156:\n        /* \"contracts/powerful-erc20.sol\":38335:38339  bool */\n      0x00\n        /* \"contracts/powerful-erc20.sol\":38351:38390  transferFrom(sender, recipient, amount) */\n      tag_314\n        /* \"contracts/powerful-erc20.sol\":38364:38370  sender */\n      dup6\n        /* \"contracts/powerful-erc20.sol\":38372:38381  recipient */\n      dup6\n        /* \"contracts/powerful-erc20.sol\":38383:38389  amount */\n      dup6\n        /* \"contracts/powerful-erc20.sol\":38351:38363  transferFrom */\n      tag_74\n        /* \"contracts/powerful-erc20.sol\":38351:38390  transferFrom(sender, recipient, amount) */\n      jump\t// in\n    tag_314:\n      pop\n        /* \"contracts/powerful-erc20.sol\":38421:38475  _checkAndCallTransfer(sender, recipient, amount, data) */\n      tag_315\n        /* \"contracts/powerful-erc20.sol\":38443:38449  sender */\n      dup6\n        /* \"contracts/powerful-erc20.sol\":38451:38460  recipient */\n      dup6\n        /* \"contracts/powerful-erc20.sol\":38462:38468  amount */\n      dup6\n        /* \"contracts/powerful-erc20.sol\":38470:38474  data */\n      dup6\n        /* \"contracts/powerful-erc20.sol\":38421:38442  _checkAndCallTransfer */\n      tag_241\n        /* \"contracts/powerful-erc20.sol\":38421:38475  _checkAndCallTransfer(sender, recipient, amount, data) */\n      jump\t// in\n    tag_315:\n        /* \"contracts/powerful-erc20.sol\":38400:38539  require(... */\n      tag_207\n      jumpi\n      mload(0x40)\n      shl(0xe5, 0x461bcd)\n      dup2\n      mstore\n      0x04\n      add\n      tag_205\n      swap1\n      tag_244\n      jump\t// in\n        /* \"contracts/powerful-erc20.sol\":38165:38567  function transferFromAndCall(... */\n    tag_313:\n      swap5\n      swap4\n      pop\n      pop\n      pop\n      pop\n      jump\t// out\n        /* \"contracts/powerful-erc20.sol\":39419:39763  function approveAndCall(... */\n    tag_160:\n        /* \"contracts/powerful-erc20.sol\":39558:39562  bool */\n      0x00\n        /* \"contracts/powerful-erc20.sol\":39574:39598  approve(spender, amount) */\n      tag_319\n        /* \"contracts/powerful-erc20.sol\":39582:39589  spender */\n      dup5\n        /* \"contracts/powerful-erc20.sol\":39591:39597  amount */\n      dup5\n        /* \"contracts/powerful-erc20.sol\":39574:39581  approve */\n      tag_61\n        /* \"contracts/powerful-erc20.sol\":39574:39598  approve(spender, amount) */\n      jump\t// in\n    tag_319:\n      pop\n        /* \"contracts/powerful-erc20.sol\":39629:39672  _checkAndCallApprove(spender, amount, data) */\n      tag_320\n        /* \"contracts/powerful-erc20.sol\":39650:39657  spender */\n      dup5\n        /* \"contracts/powerful-erc20.sol\":39659:39665  amount */\n      dup5\n        /* \"contracts/powerful-erc20.sol\":39667:39671  data */\n      dup5\n        /* \"contracts/powerful-erc20.sol\":39629:39649  _checkAndCallApprove */\n      tag_321\n        /* \"contracts/powerful-erc20.sol\":39629:39672  _checkAndCallApprove(spender, amount, data) */\n      jump\t// in\n    tag_320:\n        /* \"contracts/powerful-erc20.sol\":39608:39735  require(... */\n      tag_242\n      jumpi\n      mload(0x40)\n      shl(0xe5, 0x461bcd)\n      dup2\n      mstore\n        /* \"#utility.yul\":9588:9590   */\n      0x20\n        /* \"contracts/powerful-erc20.sol\":39608:39735  require(... */\n      0x04\n      dup3\n      add\n        /* \"#utility.yul\":9570:9591   */\n      mstore\n        /* \"#utility.yul\":9627:9629   */\n      0x25\n        /* \"#utility.yul\":9607:9625   */\n      0x24\n      dup3\n      add\n        /* \"#utility.yul\":9600:9630   */\n      mstore\n        /* \"#utility.yul\":9666:9700   */\n      0x455243313336333a205f636865636b416e6443616c6c417070726f7665207265\n        /* \"#utility.yul\":9646:9664   */\n      0x44\n      dup3\n      add\n        /* \"#utility.yul\":9639:9701   */\n      mstore\n      shl(0xd8, 0x7665727473)\n        /* \"#utility.yul\":9717:9735   */\n      0x64\n      dup3\n      add\n        /* \"#utility.yul\":9710:9745   */\n      mstore\n        /* \"#utility.yul\":9762:9781   */\n      0x84\n      add\n        /* \"contracts/powerful-erc20.sol\":39608:39735  require(... */\n      tag_205\n        /* \"#utility.yul\":9386:9787   */\n      jump\n        /* \"contracts/powerful-erc20.sol\":56616:56799  function revokeRole(bytes32 role, address account)... */\n    tag_167:\n        /* \"contracts/powerful-erc20.sol\":55896:55903  bytes32 */\n      0x00\n        /* \"contracts/powerful-erc20.sol\":55922:55934  _roles[role] */\n      dup3\n      dup2\n      mstore\n        /* \"contracts/powerful-erc20.sol\":55922:55928  _roles */\n      0x06\n        /* \"contracts/powerful-erc20.sol\":55922:55934  _roles[role] */\n      0x20\n      mstore\n      0x40\n      swap1\n      keccak256\n        /* \"contracts/powerful-erc20.sol\":55922:55944  _roles[role].adminRole */\n      0x01\n      add\n      sload\n        /* \"contracts/powerful-erc20.sol\":54239:54269  _checkRole(role, _msgSender()) */\n      tag_327\n        /* \"contracts/powerful-erc20.sol\":54250:54254  role */\n      dup2\n        /* \"contracts/powerful-erc20.sol\":4164:4174  msg.sender */\n      caller\n        /* \"contracts/powerful-erc20.sol\":54239:54249  _checkRole */\n      tag_214\n        /* \"contracts/powerful-erc20.sol\":54239:54269  _checkRole(role, _msgSender()) */\n      jump\t// in\n    tag_327:\n        /* \"contracts/powerful-erc20.sol\":56766:56792  _revokeRole(role, account) */\n      tag_216\n        /* \"contracts/powerful-erc20.sol\":56778:56782  role */\n      dup4\n        /* \"contracts/powerful-erc20.sol\":56784:56791  account */\n      dup4\n        /* \"contracts/powerful-erc20.sol\":56766:56777  _revokeRole */\n      tag_230\n        /* \"contracts/powerful-erc20.sol\":56766:56792  _revokeRole(role, account) */\n      jump\t// in\n        /* \"contracts/powerful-erc20.sol\":37495:37718  function transferFromAndCall(... */\n    tag_170:\n        /* \"contracts/powerful-erc20.sol\":37638:37642  bool */\n      0x00\n        /* \"contracts/powerful-erc20.sol\":37661:37711  transferFromAndCall(sender, recipient, amount, \"\") */\n      tag_313\n        /* \"contracts/powerful-erc20.sol\":37681:37687  sender */\n      dup5\n        /* \"contracts/powerful-erc20.sol\":37689:37698  recipient */\n      dup5\n        /* \"contracts/powerful-erc20.sol\":37700:37706  amount */\n      dup5\n        /* \"contracts/powerful-erc20.sol\":37661:37711  transferFromAndCall(sender, recipient, amount, \"\") */\n      mload(0x40)\n      dup1\n      0x20\n      add\n      0x40\n      mstore\n      dup1\n      0x00\n      dup2\n      mstore\n      pop\n        /* \"contracts/powerful-erc20.sol\":37661:37680  transferFromAndCall */\n      tag_156\n        /* \"contracts/powerful-erc20.sol\":37661:37711  transferFromAndCall(sender, recipient, amount, \"\") */\n      jump\t// in\n        /* \"contracts/powerful-erc20.sol\":43591:43814  function transferOwnership(address newOwner) public virtual onlyOwner {... */\n    tag_179:\n        /* \"contracts/powerful-erc20.sol\":42790:42796  _owner */\n      sload(0x05)\n      sub(shl(0xa0, 0x01), 0x01)\n      0x0100\n      swap1\n      swap2\n      div\n      and\n        /* \"contracts/powerful-erc20.sol\":4164:4174  msg.sender */\n      caller\n        /* \"contracts/powerful-erc20.sol\":42930:42953  owner() == _msgSender() */\n      eq\n        /* \"contracts/powerful-erc20.sol\":42922:42990  require(owner() == _msgSender(), \"Ownable: caller is not the owner\") */\n      tag_337\n      jumpi\n      mload(0x40)\n      shl(0xe5, 0x461bcd)\n      dup2\n      mstore\n      0x04\n      add\n      tag_205\n      swap1\n      tag_262\n      jump\t// in\n    tag_337:\n      sub(shl(0xa0, 0x01), 0x01)\n        /* \"contracts/powerful-erc20.sol\":43692:43714  newOwner != address(0) */\n      dup2\n      and\n        /* \"contracts/powerful-erc20.sol\":43671:43778  require(... */\n      tag_340\n      jumpi\n      mload(0x40)\n      shl(0xe5, 0x461bcd)\n      dup2\n      mstore\n        /* \"#utility.yul\":8778:8780   */\n      0x20\n        /* \"contracts/powerful-erc20.sol\":43671:43778  require(... */\n      0x04\n      dup3\n      add\n        /* \"#utility.yul\":8760:8781   */\n      mstore\n        /* \"#utility.yul\":8817:8819   */\n      0x26\n        /* \"#utility.yul\":8797:8815   */\n      0x24\n      dup3\n      add\n        /* \"#utility.yul\":8790:8820   */\n      mstore\n        /* \"#utility.yul\":8856:8890   */\n      0x4f776e61626c653a206e6577206f776e657220697320746865207a65726f2061\n        /* \"#utility.yul\":8836:8854   */\n      0x44\n      dup3\n      add\n        /* \"#utility.yul\":8829:8891   */\n      mstore\n      shl(0xd0, 0x646472657373)\n        /* \"#utility.yul\":8907:8925   */\n      0x64\n      dup3\n      add\n        /* \"#utility.yul\":8900:8936   */\n      mstore\n        /* \"#utility.yul\":8953:8972   */\n      0x84\n      add\n        /* \"contracts/powerful-erc20.sol\":43671:43778  require(... */\n      tag_205\n        /* \"#utility.yul\":8576:8978   */\n      jump\n        /* \"contracts/powerful-erc20.sol\":43671:43778  require(... */\n    tag_340:\n        /* \"contracts/powerful-erc20.sol\":43788:43807  _setOwner(newOwner) */\n      tag_253\n        /* \"contracts/powerful-erc20.sol\":43798:43806  newOwner */\n      dup2\n        /* \"contracts/powerful-erc20.sol\":43788:43797  _setOwner */\n      tag_265\n        /* \"contracts/powerful-erc20.sol\":43788:43807  _setOwner(newOwner) */\n      jump\t// in\n        /* \"contracts/powerful-erc20.sol\":12831:13220  function _mint(address account, uint256 amount) internal virtual {... */\n    tag_180:\n      sub(shl(0xa0, 0x01), 0x01)\n        /* \"contracts/powerful-erc20.sol\":12914:12935  account != address(0) */\n      dup3\n      and\n        /* \"contracts/powerful-erc20.sol\":12906:12971  require(account != address(0), \"ERC20: mint to the zero address\") */\n      tag_345\n      jumpi\n      mload(0x40)\n      shl(0xe5, 0x461bcd)\n      dup2\n      mstore\n        /* \"#utility.yul\":15187:15189   */\n      0x20\n        /* \"contracts/powerful-erc20.sol\":12906:12971  require(account != address(0), \"ERC20: mint to the zero address\") */\n      0x04\n      dup3\n      add\n        /* \"#utility.yul\":15169:15190   */\n      mstore\n        /* \"#utility.yul\":15226:15228   */\n      0x1f\n        /* \"#utility.yul\":15206:15224   */\n      0x24\n      dup3\n      add\n        /* \"#utility.yul\":15199:15229   */\n      mstore\n        /* \"#utility.yul\":15265:15298   */\n      0x45524332303a206d696e7420746f20746865207a65726f206164647265737300\n        /* \"#utility.yul\":15245:15263   */\n      0x44\n      dup3\n      add\n        /* \"#utility.yul\":15238:15299   */\n      mstore\n        /* \"#utility.yul\":15316:15334   */\n      0x64\n      add\n        /* \"contracts/powerful-erc20.sol\":12906:12971  require(account != address(0), \"ERC20: mint to the zero address\") */\n      tag_205\n        /* \"#utility.yul\":14985:15340   */\n      jump\n        /* \"contracts/powerful-erc20.sol\":12906:12971  require(account != address(0), \"ERC20: mint to the zero address\") */\n    tag_345:\n        /* \"contracts/powerful-erc20.sol\":13058:13064  amount */\n      dup1\n        /* \"contracts/powerful-erc20.sol\":13042:13054  _totalSupply */\n      0x02\n      0x00\n        /* \"contracts/powerful-erc20.sol\":13042:13064  _totalSupply += amount */\n      dup3\n      dup3\n      sload\n      tag_350\n      swap2\n      swap1\n      tag_236\n      jump\t// in\n    tag_350:\n      swap1\n      swap2\n      sstore\n      pop\n      pop\n      sub(shl(0xa0, 0x01), 0x01)\n        /* \"contracts/powerful-erc20.sol\":13074:13092  _balances[account] */\n      dup3\n      and\n        /* \"contracts/powerful-erc20.sol\":13074:13083  _balances */\n      0x00\n        /* \"contracts/powerful-erc20.sol\":13074:13092  _balances[account] */\n      swap1\n      dup2\n      mstore\n      0x20\n      dup2\n      swap1\n      mstore\n      0x40\n      dup2\n      keccak256\n        /* \"contracts/powerful-erc20.sol\":13074:13102  _balances[account] += amount */\n      dup1\n      sload\n        /* \"contracts/powerful-erc20.sol\":13096:13102  amount */\n      dup4\n      swap3\n        /* \"contracts/powerful-erc20.sol\":13074:13083  _balances */\n      swap1\n        /* \"contracts/powerful-erc20.sol\":13074:13102  _balances[account] += amount */\n      tag_351\n      swap1\n        /* \"contracts/powerful-erc20.sol\":13096:13102  amount */\n      dup5\n      swap1\n        /* \"contracts/powerful-erc20.sol\":13074:13102  _balances[account] += amount */\n      tag_236\n      jump\t// in\n    tag_351:\n      swap1\n      swap2\n      sstore\n      pop\n      pop\n        /* \"contracts/powerful-erc20.sol\":13117:13154  Transfer(address(0), account, amount) */\n      mload(0x40)\n        /* \"#utility.yul\":7148:7173   */\n      dup2\n      dup2\n      mstore\n      sub(shl(0xa0, 0x01), 0x01)\n        /* \"contracts/powerful-erc20.sol\":13117:13154  Transfer(address(0), account, amount) */\n      dup4\n      and\n      swap1\n        /* \"contracts/powerful-erc20.sol\":13134:13135  0 */\n      0x00\n      swap1\n        /* \"contracts/powerful-erc20.sol\":13117:13154  Transfer(address(0), account, amount) */\n      0xddf252ad1be2c89b69c2b068fc378daa952ba7f163c4a11628f55a4df523b3ef\n      swap1\n        /* \"#utility.yul\":7136:7138   */\n      0x20\n        /* \"#utility.yul\":7121:7139   */\n      add\n        /* \"contracts/powerful-erc20.sol\":13117:13154  Transfer(address(0), account, amount) */\n      mload(0x40)\n      dup1\n      swap2\n      sub\n      swap1\n      log3\n        /* \"contracts/powerful-erc20.sol\":57290:57566  function renounceRole(bytes32 role, address account)... */\n      pop\n      pop\n      jump\t// out\n        /* \"contracts/powerful-erc20.sol\":54354:54624  function supportsInterface(bytes4 interfaceId)... */\n    tag_183:\n        /* \"contracts/powerful-erc20.sol\":54479:54483  bool */\n      0x00\n      not(sub(shl(0xe0, 0x01), 0x01))\n        /* \"contracts/powerful-erc20.sol\":54518:54565  interfaceId == type(IAccessControl).interfaceId */\n      dup3\n      and\n      shl(0xe0, 0x7965db0b)\n      eq\n      dup1\n        /* \"contracts/powerful-erc20.sol\":54518:54617  interfaceId == type(IAccessControl).interfaceId ||... */\n      tag_182\n      jumpi\n      pop\n        /* \"contracts/powerful-erc20.sol\":54581:54617  super.supportsInterface(interfaceId) */\n      tag_182\n        /* \"contracts/powerful-erc20.sol\":54605:54616  interfaceId */\n      dup3\n        /* \"contracts/powerful-erc20.sol\":54581:54604  super.supportsInterface */\n      tag_358\n        /* \"contracts/powerful-erc20.sol\":54581:54617  super.supportsInterface(interfaceId) */\n      jump\t// in\n        /* \"contracts/powerful-erc20.sol\":14539:14909  function _approve(... */\n    tag_196:\n      sub(shl(0xa0, 0x01), 0x01)\n        /* \"contracts/powerful-erc20.sol\":14670:14689  owner != address(0) */\n      dup4\n      and\n        /* \"contracts/powerful-erc20.sol\":14662:14730  require(owner != address(0), \"ERC20: approve from the zero address\") */\n      tag_361\n      jumpi\n      mload(0x40)\n      shl(0xe5, 0x461bcd)\n      dup2\n      mstore\n        /* \"#utility.yul\":13557:13559   */\n      0x20\n        /* \"contracts/powerful-erc20.sol\":14662:14730  require(owner != address(0), \"ERC20: approve from the zero address\") */\n      0x04\n      dup3\n      add\n        /* \"#utility.yul\":13539:13560   */\n      mstore\n        /* \"#utility.yul\":13596:13598   */\n      0x24\n        /* \"#utility.yul\":13576:13594   */\n      dup1\n      dup3\n      add\n        /* \"#utility.yul\":13569:13599   */\n      mstore\n        /* \"#utility.yul\":13635:13669   */\n      0x45524332303a20617070726f76652066726f6d20746865207a65726f20616464\n        /* \"#utility.yul\":13615:13633   */\n      0x44\n      dup3\n      add\n        /* \"#utility.yul\":13608:13670   */\n      mstore\n      shl(0xe0, 0x72657373)\n        /* \"#utility.yul\":13686:13704   */\n      0x64\n      dup3\n      add\n        /* \"#utility.yul\":13679:13713   */\n      mstore\n        /* \"#utility.yul\":13730:13749   */\n      0x84\n      add\n        /* \"contracts/powerful-erc20.sol\":14662:14730  require(owner != address(0), \"ERC20: approve from the zero address\") */\n      tag_205\n        /* \"#utility.yul\":13355:13755   */\n      jump\n        /* \"contracts/powerful-erc20.sol\":14662:14730  require(owner != address(0), \"ERC20: approve from the zero address\") */\n    tag_361:\n      sub(shl(0xa0, 0x01), 0x01)\n        /* \"contracts/powerful-erc20.sol\":14748:14769  spender != address(0) */\n      dup3\n      and\n        /* \"contracts/powerful-erc20.sol\":14740:14808  require(spender != address(0), \"ERC20: approve to the zero address\") */\n      tag_364\n      jumpi\n      mload(0x40)\n      shl(0xe5, 0x461bcd)\n      dup2\n      mstore\n        /* \"#utility.yul\":9185:9187   */\n      0x20\n        /* \"contracts/powerful-erc20.sol\":14740:14808  require(spender != address(0), \"ERC20: approve to the zero address\") */\n      0x04\n      dup3\n      add\n        /* \"#utility.yul\":9167:9188   */\n      mstore\n        /* \"#utility.yul\":9224:9226   */\n      0x22\n        /* \"#utility.yul\":9204:9222   */\n      0x24\n      dup3\n      add\n        /* \"#utility.yul\":9197:9227   */\n      mstore\n        /* \"#utility.yul\":9263:9297   */\n      0x45524332303a20617070726f766520746f20746865207a65726f206164647265\n        /* \"#utility.yul\":9243:9261   */\n      0x44\n      dup3\n      add\n        /* \"#utility.yul\":9236:9298   */\n      mstore\n      shl(0xf0, 0x7373)\n        /* \"#utility.yul\":9314:9332   */\n      0x64\n      dup3\n      add\n        /* \"#utility.yul\":9307:9339   */\n      mstore\n        /* \"#utility.yul\":9356:9375   */\n      0x84\n      add\n        /* \"contracts/powerful-erc20.sol\":14740:14808  require(spender != address(0), \"ERC20: approve to the zero address\") */\n      tag_205\n        /* \"#utility.yul\":8983:9381   */\n      jump\n        /* \"contracts/powerful-erc20.sol\":14740:14808  require(spender != address(0), \"ERC20: approve to the zero address\") */\n    tag_364:\n      sub(shl(0xa0, 0x01), 0x01)\n        /* \"contracts/powerful-erc20.sol\":14819:14837  _allowances[owner] */\n      dup4\n      dup2\n      and\n      0x00\n      dup2\n      dup2\n      mstore\n        /* \"contracts/powerful-erc20.sol\":14819:14830  _allowances */\n      0x01\n        /* \"contracts/powerful-erc20.sol\":14819:14837  _allowances[owner] */\n      0x20\n      swap1\n      dup2\n      mstore\n      0x40\n      dup1\n      dup4\n      keccak256\n        /* \"contracts/powerful-erc20.sol\":14819:14846  _allowances[owner][spender] */\n      swap5\n      dup8\n      and\n      dup1\n      dup5\n      mstore\n      swap5\n      dup3\n      mstore\n      swap2\n      dup3\n      swap1\n      keccak256\n        /* \"contracts/powerful-erc20.sol\":14819:14855  _allowances[owner][spender] = amount */\n      dup6\n      swap1\n      sstore\n        /* \"contracts/powerful-erc20.sol\":14870:14902  Approval(owner, spender, amount) */\n      swap1\n      mload\n        /* \"#utility.yul\":7148:7173   */\n      dup5\n      dup2\n      mstore\n        /* \"contracts/powerful-erc20.sol\":14870:14902  Approval(owner, spender, amount) */\n      0x8c5be1e5ebec7d5bd14f71427d1e84f3dd0314c0f7b2291e5b200ac8c7c3b925\n      swap2\n        /* \"#utility.yul\":7121:7139   */\n      add\n        /* \"contracts/powerful-erc20.sol\":14870:14902  Approval(owner, spender, amount) */\n      mload(0x40)\n      dup1\n      swap2\n      sub\n      swap1\n      log3\n        /* \"contracts/powerful-erc20.sol\":14539:14909  function _approve(... */\n      pop\n      pop\n      pop\n      jump\t// out\n        /* \"contracts/powerful-erc20.sol\":11808:12555  function _transfer(... */\n    tag_202:\n      sub(shl(0xa0, 0x01), 0x01)\n        /* \"contracts/powerful-erc20.sol\":11943:11963  sender != address(0) */\n      dup4\n      and\n        /* \"contracts/powerful-erc20.sol\":11935:12005  require(sender != address(0), \"ERC20: transfer from the zero address\") */\n      tag_369\n      jumpi\n      mload(0x40)\n      shl(0xe5, 0x461bcd)\n      dup2\n      mstore\n        /* \"#utility.yul\":12797:12799   */\n      0x20\n        /* \"contracts/powerful-erc20.sol\":11935:12005  require(sender != address(0), \"ERC20: transfer from the zero address\") */\n      0x04\n      dup3\n      add\n        /* \"#utility.yul\":12779:12800   */\n      mstore\n        /* \"#utility.yul\":12836:12838   */\n      0x25\n        /* \"#utility.yul\":12816:12834   */\n      0x24\n      dup3\n      add\n        /* \"#utility.yul\":12809:12839   */\n      mstore\n        /* \"#utility.yul\":12875:12909   */\n      0x45524332303a207472616e736665722066726f6d20746865207a65726f206164\n        /* \"#utility.yul\":12855:12873   */\n      0x44\n      dup3\n      add\n        /* \"#utility.yul\":12848:12910   */\n      mstore\n      shl(0xd8, 0x6472657373)\n        /* \"#utility.yul\":12926:12944   */\n      0x64\n      dup3\n      add\n        /* \"#utility.yul\":12919:12954   */\n      mstore\n        /* \"#utility.yul\":12971:12990   */\n      0x84\n      add\n        /* \"contracts/powerful-erc20.sol\":11935:12005  require(sender != address(0), \"ERC20: transfer from the zero address\") */\n      tag_205\n        /* \"#utility.yul\":12595:12996   */\n      jump\n        /* \"contracts/powerful-erc20.sol\":11935:12005  require(sender != address(0), \"ERC20: transfer from the zero address\") */\n    tag_369:\n      sub(shl(0xa0, 0x01), 0x01)\n        /* \"contracts/powerful-erc20.sol\":12023:12046  recipient != address(0) */\n      dup3\n      and\n        /* \"contracts/powerful-erc20.sol\":12015:12086  require(recipient != address(0), \"ERC20: transfer to the zero address\") */\n      tag_372\n      jumpi\n      mload(0x40)\n      shl(0xe5, 0x461bcd)\n      dup2\n      mstore\n        /* \"#utility.yul\":7971:7973   */\n      0x20\n        /* \"contracts/powerful-erc20.sol\":12015:12086  require(recipient != address(0), \"ERC20: transfer to the zero address\") */\n      0x04\n      dup3\n      add\n        /* \"#utility.yul\":7953:7974   */\n      mstore\n        /* \"#utility.yul\":8010:8012   */\n      0x23\n        /* \"#utility.yul\":7990:8008   */\n      0x24\n      dup3\n      add\n        /* \"#utility.yul\":7983:8013   */\n      mstore\n        /* \"#utility.yul\":8049:8083   */\n      0x45524332303a207472616e7366657220746f20746865207a65726f2061646472\n        /* \"#utility.yul\":8029:8047   */\n      0x44\n      dup3\n      add\n        /* \"#utility.yul\":8022:8084   */\n      mstore\n      shl(0xe8, 0x657373)\n        /* \"#utility.yul\":8100:8118   */\n      0x64\n      dup3\n      add\n        /* \"#utility.yul\":8093:8126   */\n      mstore\n        /* \"#utility.yul\":8143:8162   */\n      0x84\n      add\n        /* \"contracts/powerful-erc20.sol\":12015:12086  require(recipient != address(0), \"ERC20: transfer to the zero address\") */\n      tag_205\n        /* \"#utility.yul\":7769:8168   */\n      jump\n        /* \"contracts/powerful-erc20.sol\":12015:12086  require(recipient != address(0), \"ERC20: transfer to the zero address\") */\n    tag_372:\n      sub(shl(0xa0, 0x01), 0x01)\n        /* \"contracts/powerful-erc20.sol\":12179:12196  _balances[sender] */\n      dup4\n      and\n        /* \"contracts/powerful-erc20.sol\":12155:12176  uint256 senderBalance */\n      0x00\n        /* \"contracts/powerful-erc20.sol\":12179:12196  _balances[sender] */\n      swap1\n      dup2\n      mstore\n      0x20\n      dup2\n      swap1\n      mstore\n      0x40\n      swap1\n      keccak256\n      sload\n        /* \"contracts/powerful-erc20.sol\":12227:12250  senderBalance >= amount */\n      dup2\n      dup2\n      lt\n      iszero\n        /* \"contracts/powerful-erc20.sol\":12206:12314  require(... */\n      tag_376\n      jumpi\n      mload(0x40)\n      shl(0xe5, 0x461bcd)\n      dup2\n      mstore\n        /* \"#utility.yul\":9994:9996   */\n      0x20\n        /* \"contracts/powerful-erc20.sol\":12206:12314  require(... */\n      0x04\n      dup3\n      add\n        /* \"#utility.yul\":9976:9997   */\n      mstore\n        /* \"#utility.yul\":10033:10035   */\n      0x26\n        /* \"#utility.yul\":10013:10031   */\n      0x24\n      dup3\n      add\n        /* \"#utility.yul\":10006:10036   */\n      mstore\n        /* \"#utility.yul\":10072:10106   */\n      0x45524332303a207472616e7366657220616d6f756e7420657863656564732062\n        /* \"#utility.yul\":10052:10070   */\n      0x44\n      dup3\n      add\n        /* \"#utility.yul\":10045:10107   */\n      mstore\n      shl(0xd0, 0x616c616e6365)\n        /* \"#utility.yul\":10123:10141   */\n      0x64\n      dup3\n      add\n        /* \"#utility.yul\":10116:10152   */\n      mstore\n        /* \"#utility.yul\":10169:10188   */\n      0x84\n      add\n        /* \"contracts/powerful-erc20.sol\":12206:12314  require(... */\n      tag_205\n        /* \"#utility.yul\":9792:10194   */\n      jump\n        /* \"contracts/powerful-erc20.sol\":12206:12314  require(... */\n    tag_376:\n      sub(shl(0xa0, 0x01), 0x01)\n        /* \"contracts/powerful-erc20.sol\":12348:12365  _balances[sender] */\n      dup1\n      dup6\n      and\n        /* \"contracts/powerful-erc20.sol\":12348:12357  _balances */\n      0x00\n        /* \"contracts/powerful-erc20.sol\":12348:12365  _balances[sender] */\n      swap1\n      dup2\n      mstore\n      0x20\n      dup2\n      swap1\n      mstore\n      0x40\n      dup1\n      dup3\n      keccak256\n        /* \"contracts/powerful-erc20.sol\":12368:12390  senderBalance - amount */\n      dup6\n      dup6\n      sub\n        /* \"contracts/powerful-erc20.sol\":12348:12390  _balances[sender] = senderBalance - amount */\n      swap1\n      sstore\n        /* \"contracts/powerful-erc20.sol\":12410:12430  _balances[recipient] */\n      swap2\n      dup6\n      and\n      dup2\n      mstore\n      swap1\n      dup2\n      keccak256\n        /* \"contracts/powerful-erc20.sol\":12410:12440  _balances[recipient] += amount */\n      dup1\n      sload\n        /* \"contracts/powerful-erc20.sol\":12384:12390  amount */\n      dup5\n      swap3\n        /* \"contracts/powerful-erc20.sol\":12348:12357  _balances */\n      swap1\n        /* \"contracts/powerful-erc20.sol\":12410:12440  _balances[recipient] += amount */\n      tag_379\n      swap1\n        /* \"contracts/powerful-erc20.sol\":12384:12390  amount */\n      dup5\n      swap1\n        /* \"contracts/powerful-erc20.sol\":12410:12440  _balances[recipient] += amount */\n      tag_236\n      jump\t// in\n    tag_379:\n      swap3\n      pop\n      pop\n      dup2\n      swap1\n      sstore\n      pop\n        /* \"contracts/powerful-erc20.sol\":12473:12482  recipient */\n      dup3\n      sub(shl(0xa0, 0x01), 0x01)\n        /* \"contracts/powerful-erc20.sol\":12456:12491  Transfer(sender, recipient, amount) */\n      and\n        /* \"contracts/powerful-erc20.sol\":12465:12471  sender */\n      dup5\n      sub(shl(0xa0, 0x01), 0x01)\n        /* \"contracts/powerful-erc20.sol\":12456:12491  Transfer(sender, recipient, amount) */\n      and\n      0xddf252ad1be2c89b69c2b068fc378daa952ba7f163c4a11628f55a4df523b3ef\n        /* \"contracts/powerful-erc20.sol\":12484:12490  amount */\n      dup5\n        /* \"contracts/powerful-erc20.sol\":12456:12491  Transfer(sender, recipient, amount) */\n      mload(0x40)\n      tag_380\n      swap2\n        /* \"#utility.yul\":7148:7173   */\n      dup2\n      mstore\n        /* \"#utility.yul\":7136:7138   */\n      0x20\n        /* \"#utility.yul\":7121:7139   */\n      add\n      swap1\n        /* \"#utility.yul\":7002:7179   */\n      jump\n        /* \"contracts/powerful-erc20.sol\":12456:12491  Transfer(sender, recipient, amount) */\n    tag_380:\n      mload(0x40)\n      dup1\n      swap2\n      sub\n      swap1\n      log3\n        /* \"contracts/powerful-erc20.sol\":12502:12548  _afterTokenTransfer(sender, recipient, amount) */\n    tag_381:\n        /* \"contracts/powerful-erc20.sol\":11925:12555  {... */\n      pop\n        /* \"contracts/powerful-erc20.sol\":11808:12555  function _transfer(... */\n      pop\n      pop\n      pop\n      jump\t// out\n        /* \"contracts/powerful-erc20.sol\":55165:55649  function _checkRole(bytes32 role, address account) internal view {... */\n    tag_214:\n        /* \"contracts/powerful-erc20.sol\":55245:55267  hasRole(role, account) */\n      tag_383\n        /* \"contracts/powerful-erc20.sol\":55253:55257  role */\n      dup3\n        /* \"contracts/powerful-erc20.sol\":55259:55266  account */\n      dup3\n        /* \"contracts/powerful-erc20.sol\":55245:55252  hasRole */\n      tag_137\n        /* \"contracts/powerful-erc20.sol\":55245:55267  hasRole(role, account) */\n      jump\t// in\n    tag_383:\n        /* \"contracts/powerful-erc20.sol\":55240:55643  if (!hasRole(role, account)) {... */\n      tag_229\n      jumpi\n        /* \"contracts/powerful-erc20.sol\":55428:55469  Strings.toHexString(uint160(account), 20) */\n      tag_385\n        /* \"contracts/powerful-erc20.sol\":55456:55463  account */\n      dup2\n      sub(shl(0xa0, 0x01), 0x01)\n        /* \"contracts/powerful-erc20.sol\":55428:55469  Strings.toHexString(uint160(account), 20) */\n      and\n        /* \"contracts/powerful-erc20.sol\":55466:55468  20 */\n      0x14\n        /* \"contracts/powerful-erc20.sol\":55428:55447  Strings.toHexString */\n      tag_386\n        /* \"contracts/powerful-erc20.sol\":55428:55469  Strings.toHexString(uint160(account), 20) */\n      jump\t// in\n    tag_385:\n        /* \"contracts/powerful-erc20.sol\":55540:55578  Strings.toHexString(uint256(role), 32) */\n      tag_387\n        /* \"contracts/powerful-erc20.sol\":55568:55572  role */\n      dup4\n        /* \"contracts/powerful-erc20.sol\":55575:55577  32 */\n      0x20\n        /* \"contracts/powerful-erc20.sol\":55540:55559  Strings.toHexString */\n      tag_386\n        /* \"contracts/powerful-erc20.sol\":55540:55578  Strings.toHexString(uint256(role), 32) */\n      jump\t// in\n    tag_387:\n        /* \"contracts/powerful-erc20.sol\":55335:55600  abi.encodePacked(... */\n      add(0x20, mload(0x40))\n      tag_388\n      swap3\n      swap2\n      swap1\n      tag_389\n      jump\t// in\n    tag_388:\n      0x40\n      dup1\n      mload\n      not(0x1f)\n      dup2\n      dup5\n      sub\n      add\n      dup2\n      mstore\n      swap1\n      dup3\n      swap1\n      mstore\n      shl(0xe5, 0x461bcd)\n        /* \"contracts/powerful-erc20.sol\":55283:55632  revert(... */\n      dup3\n      mstore\n      tag_205\n      swap2\n      0x04\n      add\n      tag_57\n      jump\t// in\n        /* \"contracts/powerful-erc20.sol\":58619:58843  function _grantRole(bytes32 role, address account) private {... */\n    tag_217:\n        /* \"contracts/powerful-erc20.sol\":58693:58715  hasRole(role, account) */\n      tag_392\n        /* \"contracts/powerful-erc20.sol\":58701:58705  role */\n      dup3\n        /* \"contracts/powerful-erc20.sol\":58707:58714  account */\n      dup3\n        /* \"contracts/powerful-erc20.sol\":58693:58700  hasRole */\n      tag_137\n        /* \"contracts/powerful-erc20.sol\":58693:58715  hasRole(role, account) */\n      jump\t// in\n    tag_392:\n        /* \"contracts/powerful-erc20.sol\":58688:58837  if (!hasRole(role, account)) {... */\n      tag_229\n      jumpi\n        /* \"contracts/powerful-erc20.sol\":58731:58743  _roles[role] */\n      0x00\n      dup3\n      dup2\n      mstore\n        /* \"contracts/powerful-erc20.sol\":58731:58737  _roles */\n      0x06\n        /* \"contracts/powerful-erc20.sol\":58731:58743  _roles[role] */\n      0x20\n      swap1\n      dup2\n      mstore\n      0x40\n      dup1\n      dup4\n      keccak256\n      sub(shl(0xa0, 0x01), 0x01)\n        /* \"contracts/powerful-erc20.sol\":58731:58760  _roles[role].members[account] */\n      dup6\n      and\n      dup5\n      mstore\n      swap1\n      swap2\n      mstore\n      swap1\n      keccak256\n        /* \"contracts/powerful-erc20.sol\":58731:58767  _roles[role].members[account] = true */\n      dup1\n      sload\n      not(0xff)\n      and\n        /* \"contracts/powerful-erc20.sol\":58763:58767  true */\n      0x01\n        /* \"contracts/powerful-erc20.sol\":58731:58767  _roles[role].members[account] = true */\n      or\n      swap1\n      sstore\n        /* \"contracts/powerful-erc20.sol\":58813:58825  _msgSender() */\n      tag_394\n        /* \"contracts/powerful-erc20.sol\":4164:4174  msg.sender */\n      caller\n      swap1\n        /* \"contracts/powerful-erc20.sol\":4085:4181  function _msgSender() internal view virtual returns (address) {... */\n      jump\n        /* \"contracts/powerful-erc20.sol\":58813:58825  _msgSender() */\n    tag_394:\n      sub(shl(0xa0, 0x01), 0x01)\n        /* \"contracts/powerful-erc20.sol\":58786:58826  RoleGranted(role, account, _msgSender()) */\n      and\n        /* \"contracts/powerful-erc20.sol\":58804:58811  account */\n      dup2\n      sub(shl(0xa0, 0x01), 0x01)\n        /* \"contracts/powerful-erc20.sol\":58786:58826  RoleGranted(role, account, _msgSender()) */\n      and\n        /* \"contracts/powerful-erc20.sol\":58798:58802  role */\n      dup4\n        /* \"contracts/powerful-erc20.sol\":58786:58826  RoleGranted(role, account, _msgSender()) */\n      0x2f8788117e7eff1d82e926ec794901d17c78024a50270940304540a733656f0d\n      mload(0x40)\n      mload(0x40)\n      dup1\n      swap2\n      sub\n      swap1\n      log4\n        /* \"contracts/powerful-erc20.sol\":58619:58843  function _grantRole(bytes32 role, address account) private {... */\n      pop\n      pop\n      jump\t// out\n        /* \"contracts/powerful-erc20.sol\":58849:59074  function _revokeRole(bytes32 role, address account) private {... */\n    tag_230:\n        /* \"contracts/powerful-erc20.sol\":58923:58945  hasRole(role, account) */\n      tag_397\n        /* \"contracts/powerful-erc20.sol\":58931:58935  role */\n      dup3\n        /* \"contracts/powerful-erc20.sol\":58937:58944  account */\n      dup3\n        /* \"contracts/powerful-erc20.sol\":58923:58930  hasRole */\n      tag_137\n        /* \"contracts/powerful-erc20.sol\":58923:58945  hasRole(role, account) */\n      jump\t// in\n    tag_397:\n        /* \"contracts/powerful-erc20.sol\":58919:59068  if (hasRole(role, account)) {... */\n      iszero\n      tag_229\n      jumpi\n        /* \"contracts/powerful-erc20.sol\":58993:58998  false */\n      0x00\n        /* \"contracts/powerful-erc20.sol\":58961:58973  _roles[role] */\n      dup3\n      dup2\n      mstore\n        /* \"contracts/powerful-erc20.sol\":58961:58967  _roles */\n      0x06\n        /* \"contracts/powerful-erc20.sol\":58961:58973  _roles[role] */\n      0x20\n      swap1\n      dup2\n      mstore\n      0x40\n      dup1\n      dup4\n      keccak256\n      sub(shl(0xa0, 0x01), 0x01)\n        /* \"contracts/powerful-erc20.sol\":58961:58990  _roles[role].members[account] */\n      dup6\n      and\n      dup1\n      dup6\n      mstore\n      swap3\n      mstore\n      dup1\n      dup4\n      keccak256\n        /* \"contracts/powerful-erc20.sol\":58961:58998  _roles[role].members[account] = false */\n      dup1\n      sload\n      not(0xff)\n      and\n      swap1\n      sstore\n        /* \"contracts/powerful-erc20.sol\":59017:59057  RoleRevoked(role, account, _msgSender()) */\n      mload\n        /* \"contracts/powerful-erc20.sol\":4164:4174  msg.sender */\n      caller\n      swap3\n        /* \"contracts/powerful-erc20.sol\":58961:58973  _roles[role] */\n      dup6\n      swap2\n        /* \"contracts/powerful-erc20.sol\":59017:59057  RoleRevoked(role, account, _msgSender()) */\n      0xf6391f5c32d9c69d2a47ea670b442974b53935d1edc7fd64eb21e047a839171b\n      swap2\n        /* \"contracts/powerful-erc20.sol\":58993:58998  false */\n      swap1\n        /* \"contracts/powerful-erc20.sol\":59017:59057  RoleRevoked(role, account, _msgSender()) */\n      log4\n        /* \"contracts/powerful-erc20.sol\":58849:59074  function _revokeRole(bytes32 role, address account) private {... */\n      pop\n      pop\n      jump\t// out\n        /* \"contracts/powerful-erc20.sol\":40318:40833  function _checkAndCallTransfer(... */\n    tag_241:\n        /* \"contracts/powerful-erc20.sol\":40483:40487  bool */\n      0x00\n      sub(shl(0xa0, 0x01), 0x01)\n        /* \"contracts/powerful-erc20.sol\":40504:40524  recipient.isContract */\n      dup5\n      and\n        /* \"contracts/powerful-erc20.sol\":19594:19614  extcodesize(account) */\n      extcodesize\n        /* \"contracts/powerful-erc20.sol\":40499:40565  if (!recipient.isContract()) {... */\n      tag_403\n      jumpi\n      pop\n        /* \"contracts/powerful-erc20.sol\":40549:40554  false */\n      0x00\n        /* \"contracts/powerful-erc20.sol\":40542:40554  return false */\n      jump(tag_313)\n        /* \"contracts/powerful-erc20.sol\":40499:40565  if (!recipient.isContract()) {... */\n    tag_403:\n        /* \"contracts/powerful-erc20.sol\":40590:40730  IERC1363Receiver(recipient).onTransferReceived(... */\n      mload(0x40)\n      shl(0xe2, 0x2229f297)\n      dup2\n      mstore\n        /* \"contracts/powerful-erc20.sol\":40574:40587  bytes4 retval */\n      0x00\n      swap1\n      sub(shl(0xa0, 0x01), 0x01)\n        /* \"contracts/powerful-erc20.sol\":40590:40636  IERC1363Receiver(recipient).onTransferReceived */\n      dup7\n      and\n      swap1\n      0x88a7ca5c\n      swap1\n        /* \"contracts/powerful-erc20.sol\":40590:40730  IERC1363Receiver(recipient).onTransferReceived(... */\n      tag_405\n      swap1\n        /* \"contracts/powerful-erc20.sol\":4164:4174  msg.sender */\n      caller\n      swap1\n        /* \"contracts/powerful-erc20.sol\":40676:40682  sender */\n      dup11\n      swap1\n        /* \"contracts/powerful-erc20.sol\":40696:40702  amount */\n      dup10\n      swap1\n        /* \"contracts/powerful-erc20.sol\":40716:40720  data */\n      dup10\n      swap1\n        /* \"contracts/powerful-erc20.sol\":40590:40730  IERC1363Receiver(recipient).onTransferReceived(... */\n      0x04\n      add\n      tag_406\n      jump\t// in\n    tag_405:\n      0x20\n      mload(0x40)\n      dup1\n      dup4\n      sub\n      dup2\n      0x00\n      dup8\n      dup1\n      extcodesize\n      iszero\n      dup1\n      iszero\n      tag_407\n      jumpi\n      0x00\n      dup1\n      revert\n    tag_407:\n      pop\n      gas\n      call\n      iszero\n      dup1\n      iszero\n      tag_409\n      jumpi\n      returndatasize\n      0x00\n      dup1\n      returndatacopy\n      revert(0x00, returndatasize)\n    tag_409:\n      pop\n      pop\n      pop\n      pop\n      mload(0x40)\n      returndatasize\n      not(0x1f)\n      0x1f\n      dup3\n      add\n      and\n      dup3\n      add\n      dup1\n      0x40\n      mstore\n      pop\n      dup2\n      add\n      swap1\n      tag_410\n      swap2\n      swap1\n      tag_411\n      jump\t// in\n    tag_410:\n      not(sub(shl(0xe0, 0x01), 0x01))\n        /* \"contracts/powerful-erc20.sol\":40748:40825  retval ==... */\n      and\n      shl(0xe2, 0x2229f297)\n      eq\n      swap2\n      pop\n      pop\n        /* \"contracts/powerful-erc20.sol\":40318:40833  function _checkAndCallTransfer(... */\n      swap5\n      swap4\n      pop\n      pop\n      pop\n      pop\n      jump\t// out\n        /* \"contracts/powerful-erc20.sol\":61028:61198  function _mint(address account, uint256 amount)... */\n    tag_251:\n        /* \"contracts/powerful-erc20.sol\":59423:59457  hasRole(MINTER_ROLE, _msgSender()) */\n      tag_413\n        /* \"contracts/powerful-erc20.sol\":59216:59235  keccak256(\"MINTER\") */\n      0xf0887ba65ee2024ea881d91b74c2450ef19e1557f03bed3ea9f16b037cbe2dc9\n        /* \"contracts/powerful-erc20.sol\":4164:4174  msg.sender */\n      caller\n        /* \"contracts/powerful-erc20.sol\":54711:54884  function hasRole(bytes32 role, address account)... */\n      tag_137\n      jump\t// in\n        /* \"contracts/powerful-erc20.sol\":59423:59457  hasRole(MINTER_ROLE, _msgSender()) */\n    tag_413:\n        /* \"contracts/powerful-erc20.sol\":59402:59526  require(... */\n      tag_415\n      jumpi\n      mload(0x40)\n      shl(0xe5, 0x461bcd)\n      dup2\n      mstore\n        /* \"#utility.yul\":10401:10403   */\n      0x20\n        /* \"contracts/powerful-erc20.sol\":59402:59526  require(... */\n      0x04\n      dup3\n      add\n        /* \"#utility.yul\":10383:10404   */\n      mstore\n        /* \"#utility.yul\":10440:10442   */\n      0x2b\n        /* \"#utility.yul\":10420:10438   */\n      0x24\n      dup3\n      add\n        /* \"#utility.yul\":10413:10443   */\n      mstore\n        /* \"#utility.yul\":10479:10513   */\n      0x526f6c65733a2063616c6c657220646f6573206e6f7420686176652074686520\n        /* \"#utility.yul\":10459:10477   */\n      0x44\n      dup3\n      add\n        /* \"#utility.yul\":10452:10514   */\n      mstore\n      shl(0xa8, 0x4d494e54455220726f6c65)\n        /* \"#utility.yul\":10530:10548   */\n      0x64\n      dup3\n      add\n        /* \"#utility.yul\":10523:10564   */\n      mstore\n        /* \"#utility.yul\":10581:10600   */\n      0x84\n      add\n        /* \"contracts/powerful-erc20.sol\":59402:59526  require(... */\n      tag_205\n        /* \"#utility.yul\":10199:10606   */\n      jump\n        /* \"contracts/powerful-erc20.sol\":59402:59526  require(... */\n    tag_415:\n        /* \"contracts/powerful-erc20.sol\":61163:61191  super._mint(account, amount) */\n      tag_229\n        /* \"contracts/powerful-erc20.sol\":61175:61182  account */\n      dup3\n        /* \"contracts/powerful-erc20.sol\":61184:61190  amount */\n      dup3\n        /* \"contracts/powerful-erc20.sol\":61163:61174  super._mint */\n      tag_420\n        /* \"contracts/powerful-erc20.sol\":61163:61191  super._mint(account, amount) */\n      jump\t// in\n        /* \"contracts/powerful-erc20.sol\":13540:14116  function _burn(address account, uint256 amount) internal virtual {... */\n    tag_255:\n      sub(shl(0xa0, 0x01), 0x01)\n        /* \"contracts/powerful-erc20.sol\":13623:13644  account != address(0) */\n      dup3\n      and\n        /* \"contracts/powerful-erc20.sol\":13615:13682  require(account != address(0), \"ERC20: burn from the zero address\") */\n      tag_422\n      jumpi\n      mload(0x40)\n      shl(0xe5, 0x461bcd)\n      dup2\n      mstore\n        /* \"#utility.yul\":12395:12397   */\n      0x20\n        /* \"contracts/powerful-erc20.sol\":13615:13682  require(account != address(0), \"ERC20: burn from the zero address\") */\n      0x04\n      dup3\n      add\n        /* \"#utility.yul\":12377:12398   */\n      mstore\n        /* \"#utility.yul\":12434:12436   */\n      0x21\n        /* \"#utility.yul\":12414:12432   */\n      0x24\n      dup3\n      add\n        /* \"#utility.yul\":12407:12437   */\n      mstore\n        /* \"#utility.yul\":12473:12507   */\n      0x45524332303a206275726e2066726f6d20746865207a65726f20616464726573\n        /* \"#utility.yul\":12453:12471   */\n      0x44\n      dup3\n      add\n        /* \"#utility.yul\":12446:12508   */\n      mstore\n      shl(0xf8, 0x73)\n        /* \"#utility.yul\":12524:12542   */\n      0x64\n      dup3\n      add\n        /* \"#utility.yul\":12517:12548   */\n      mstore\n        /* \"#utility.yul\":12565:12584   */\n      0x84\n      add\n        /* \"contracts/powerful-erc20.sol\":13615:13682  require(account != address(0), \"ERC20: burn from the zero address\") */\n      tag_205\n        /* \"#utility.yul\":12193:12590   */\n      jump\n        /* \"contracts/powerful-erc20.sol\":13615:13682  require(account != address(0), \"ERC20: burn from the zero address\") */\n    tag_422:\n      sub(shl(0xa0, 0x01), 0x01)\n        /* \"contracts/powerful-erc20.sol\":13778:13796  _balances[account] */\n      dup3\n      and\n        /* \"contracts/powerful-erc20.sol\":13753:13775  uint256 accountBalance */\n      0x00\n        /* \"contracts/powerful-erc20.sol\":13778:13796  _balances[account] */\n      swap1\n      dup2\n      mstore\n      0x20\n      dup2\n      swap1\n      mstore\n      0x40\n      swap1\n      keccak256\n      sload\n        /* \"contracts/powerful-erc20.sol\":13814:13838  accountBalance >= amount */\n      dup2\n      dup2\n      lt\n      iszero\n        /* \"contracts/powerful-erc20.sol\":13806:13877  require(accountBalance >= amount, \"ERC20: burn amount exceeds balance\") */\n      tag_426\n      jumpi\n      mload(0x40)\n      shl(0xe5, 0x461bcd)\n      dup2\n      mstore\n        /* \"#utility.yul\":8375:8377   */\n      0x20\n        /* \"contracts/powerful-erc20.sol\":13806:13877  require(accountBalance >= amount, \"ERC20: burn amount exceeds balance\") */\n      0x04\n      dup3\n      add\n        /* \"#utility.yul\":8357:8378   */\n      mstore\n        /* \"#utility.yul\":8414:8416   */\n      0x22\n        /* \"#utility.yul\":8394:8412   */\n      0x24\n      dup3\n      add\n        /* \"#utility.yul\":8387:8417   */\n      mstore\n        /* \"#utility.yul\":8453:8487   */\n      0x45524332303a206275726e20616d6f756e7420657863656564732062616c616e\n        /* \"#utility.yul\":8433:8451   */\n      0x44\n      dup3\n      add\n        /* \"#utility.yul\":8426:8488   */\n      mstore\n      shl(0xf0, 0x6365)\n        /* \"#utility.yul\":8504:8522   */\n      0x64\n      dup3\n      add\n        /* \"#utility.yul\":8497:8529   */\n      mstore\n        /* \"#utility.yul\":8546:8565   */\n      0x84\n      add\n        /* \"contracts/powerful-erc20.sol\":13806:13877  require(accountBalance >= amount, \"ERC20: burn amount exceeds balance\") */\n      tag_205\n        /* \"#utility.yul\":8173:8571   */\n      jump\n        /* \"contracts/powerful-erc20.sol\":13806:13877  require(accountBalance >= amount, \"ERC20: burn amount exceeds balance\") */\n    tag_426:\n      sub(shl(0xa0, 0x01), 0x01)\n        /* \"contracts/powerful-erc20.sol\":13911:13929  _balances[account] */\n      dup4\n      and\n        /* \"contracts/powerful-erc20.sol\":13911:13920  _balances */\n      0x00\n        /* \"contracts/powerful-erc20.sol\":13911:13929  _balances[account] */\n      swap1\n      dup2\n      mstore\n      0x20\n      dup2\n      swap1\n      mstore\n      0x40\n      dup2\n      keccak256\n        /* \"contracts/powerful-erc20.sol\":13932:13955  accountBalance - amount */\n      dup4\n      dup4\n      sub\n        /* \"contracts/powerful-erc20.sol\":13911:13955  _balances[account] = accountBalance - amount */\n      swap1\n      sstore\n        /* \"contracts/powerful-erc20.sol\":13975:13987  _totalSupply */\n      0x02\n        /* \"contracts/powerful-erc20.sol\":13975:13997  _totalSupply -= amount */\n      dup1\n      sload\n        /* \"contracts/powerful-erc20.sol\":13949:13955  amount */\n      dup5\n      swap3\n        /* \"contracts/powerful-erc20.sol\":13911:13920  _balances */\n      swap1\n        /* \"contracts/powerful-erc20.sol\":13975:13997  _totalSupply -= amount */\n      tag_429\n      swap1\n        /* \"contracts/powerful-erc20.sol\":13949:13955  amount */\n      dup5\n      swap1\n        /* \"contracts/powerful-erc20.sol\":13975:13997  _totalSupply -= amount */\n      tag_430\n      jump\t// in\n    tag_429:\n      swap1\n      swap2\n      sstore\n      pop\n      pop\n        /* \"contracts/powerful-erc20.sol\":14013:14050  Transfer(account, address(0), amount) */\n      mload(0x40)\n        /* \"#utility.yul\":7148:7173   */\n      dup3\n      dup2\n      mstore\n        /* \"contracts/powerful-erc20.sol\":14039:14040  0 */\n      0x00\n      swap1\n      sub(shl(0xa0, 0x01), 0x01)\n        /* \"contracts/powerful-erc20.sol\":14013:14050  Transfer(account, address(0), amount) */\n      dup6\n      and\n      swap1\n      0xddf252ad1be2c89b69c2b068fc378daa952ba7f163c4a11628f55a4df523b3ef\n      swap1\n        /* \"#utility.yul\":7136:7138   */\n      0x20\n        /* \"#utility.yul\":7121:7139   */\n      add\n        /* \"contracts/powerful-erc20.sol\":14013:14050  Transfer(account, address(0), amount) */\n      mload(0x40)\n      dup1\n      swap2\n      sub\n      swap1\n      log3\n        /* \"contracts/powerful-erc20.sol\":56201:56382  function grantRole(bytes32 role, address account)... */\n      pop\n      pop\n      pop\n      jump\t// out\n        /* \"contracts/powerful-erc20.sol\":43820:43989  function _setOwner(address newOwner) private {... */\n    tag_265:\n        /* \"contracts/powerful-erc20.sol\":43894:43900  _owner */\n      0x05\n      dup1\n      sload\n      sub(shl(0xa0, 0x01), 0x01)\n        /* \"contracts/powerful-erc20.sol\":43910:43927  _owner = newOwner */\n      dup4\n      dup2\n      and\n        /* \"contracts/powerful-erc20.sol\":43894:43900  _owner */\n      0x0100\n        /* \"contracts/powerful-erc20.sol\":43910:43927  _owner = newOwner */\n      dup2\n      dup2\n      mul\n      not(sub(shl(0xa8, 0x01), 0x0100))\n      dup6\n      and\n      or\n      swap1\n      swap5\n      sstore\n        /* \"contracts/powerful-erc20.sol\":43942:43982  OwnershipTransferred(oldOwner, newOwner) */\n      mload(0x40)\n        /* \"contracts/powerful-erc20.sol\":43894:43900  _owner */\n      swap4\n      swap1\n      swap3\n      div\n      and\n      swap2\n      dup3\n      swap1\n        /* \"contracts/powerful-erc20.sol\":43942:43982  OwnershipTransferred(oldOwner, newOwner) */\n      0x8be0079c531659141344cd1fd0a4f28419497f9722a3daafe3b4186f6b6457e0\n      swap1\n        /* \"contracts/powerful-erc20.sol\":43875:43891  address oldOwner */\n      0x00\n      swap1\n        /* \"contracts/powerful-erc20.sol\":43942:43982  OwnershipTransferred(oldOwner, newOwner) */\n      log3\n        /* \"contracts/powerful-erc20.sol\":43865:43989  {... */\n      pop\n        /* \"contracts/powerful-erc20.sol\":43820:43989  function _setOwner(address newOwner) private {... */\n      pop\n      jump\t// out\n        /* \"contracts/powerful-erc20.sol\":61358:61451  function _finishMinting() internal override onlyOwner {... */\n    tag_280:\n        /* \"contracts/powerful-erc20.sol\":42790:42796  _owner */\n      sload(0x05)\n      sub(shl(0xa0, 0x01), 0x01)\n      0x0100\n      swap1\n      swap2\n      div\n      and\n        /* \"contracts/powerful-erc20.sol\":4164:4174  msg.sender */\n      caller\n        /* \"contracts/powerful-erc20.sol\":42930:42953  owner() == _msgSender() */\n      eq\n        /* \"contracts/powerful-erc20.sol\":42922:42990  require(owner() == _msgSender(), \"Ownable: caller is not the owner\") */\n      tag_437\n      jumpi\n      mload(0x40)\n      shl(0xe5, 0x461bcd)\n      dup2\n      mstore\n      0x04\n      add\n      tag_205\n      swap1\n      tag_262\n      jump\t// in\n    tag_437:\n        /* \"contracts/powerful-erc20.sol\":61422:61444  super._finishMinting() */\n      tag_264\n        /* \"contracts/powerful-erc20.sol\":61422:61442  super._finishMinting */\n      tag_441\n        /* \"contracts/powerful-erc20.sol\":61422:61444  super._finishMinting() */\n      jump\t// in\n        /* \"contracts/powerful-erc20.sol\":41283:41731  function _checkAndCallApprove(... */\n    tag_321:\n        /* \"contracts/powerful-erc20.sol\":41421:41425  bool */\n      0x00\n      sub(shl(0xa0, 0x01), 0x01)\n        /* \"contracts/powerful-erc20.sol\":41442:41460  spender.isContract */\n      dup5\n      and\n        /* \"contracts/powerful-erc20.sol\":19594:19614  extcodesize(account) */\n      extcodesize\n        /* \"contracts/powerful-erc20.sol\":41437:41501  if (!spender.isContract()) {... */\n      tag_444\n      jumpi\n      pop\n        /* \"contracts/powerful-erc20.sol\":41485:41490  false */\n      0x00\n        /* \"contracts/powerful-erc20.sol\":41478:41490  return false */\n      jump(tag_198)\n        /* \"contracts/powerful-erc20.sol\":41437:41501  if (!spender.isContract()) {... */\n    tag_444:\n        /* \"contracts/powerful-erc20.sol\":41526:41643  IERC1363Spender(spender).onApprovalReceived(... */\n      mload(0x40)\n      shl(0xe4, 0x07b04a2d)\n      dup2\n      mstore\n        /* \"contracts/powerful-erc20.sol\":41510:41523  bytes4 retval */\n      0x00\n      swap1\n      sub(shl(0xa0, 0x01), 0x01)\n        /* \"contracts/powerful-erc20.sol\":41526:41569  IERC1363Spender(spender).onApprovalReceived */\n      dup7\n      and\n      swap1\n      0x7b04a2d0\n      swap1\n        /* \"contracts/powerful-erc20.sol\":41526:41643  IERC1363Spender(spender).onApprovalReceived(... */\n      tag_446\n      swap1\n        /* \"contracts/powerful-erc20.sol\":4164:4174  msg.sender */\n      caller\n      swap1\n        /* \"contracts/powerful-erc20.sol\":41609:41615  amount */\n      dup9\n      swap1\n        /* \"contracts/powerful-erc20.sol\":41629:41633  data */\n      dup9\n      swap1\n        /* \"contracts/powerful-erc20.sol\":41526:41643  IERC1363Spender(spender).onApprovalReceived(... */\n      0x04\n      add\n      tag_447\n      jump\t// in\n    tag_446:\n      0x20\n      mload(0x40)\n      dup1\n      dup4\n      sub\n      dup2\n      0x00\n      dup8\n      dup1\n      extcodesize\n      iszero\n      dup1\n      iszero\n      tag_448\n      jumpi\n      0x00\n      dup1\n      revert\n    tag_448:\n      pop\n      gas\n      call\n      iszero\n      dup1\n      iszero\n      tag_450\n      jumpi\n      returndatasize\n      0x00\n      dup1\n      returndatacopy\n      revert(0x00, returndatasize)\n    tag_450:\n      pop\n      pop\n      pop\n      pop\n      mload(0x40)\n      returndatasize\n      not(0x1f)\n      0x1f\n      dup3\n      add\n      and\n      dup3\n      add\n      dup1\n      0x40\n      mstore\n      pop\n      dup2\n      add\n      swap1\n      tag_451\n      swap2\n      swap1\n      tag_411\n      jump\t// in\n    tag_451:\n      not(sub(shl(0xe0, 0x01), 0x01))\n        /* \"contracts/powerful-erc20.sol\":41661:41723  retval == IERC1363Spender(spender).onApprovalReceived.selector */\n      and\n      shl(0xe4, 0x07b04a2d)\n      eq\n      swap2\n      pop\n      pop\n        /* \"contracts/powerful-erc20.sol\":41283:41731  function _checkAndCallApprove(... */\n      swap4\n      swap3\n      pop\n      pop\n      pop\n      jump\t// out\n        /* \"contracts/powerful-erc20.sol\":35622:35903  function supportsInterface(bytes4 interfaceId)... */\n    tag_358:\n        /* \"contracts/powerful-erc20.sol\":35764:35768  bool */\n      0x00\n      not(sub(shl(0xe0, 0x01), 0x01))\n        /* \"contracts/powerful-erc20.sol\":35803:35844  interfaceId == type(IERC1363).interfaceId */\n      dup3\n      and\n      shl(0xe0, 0xb0202a11)\n      eq\n      dup1\n        /* \"contracts/powerful-erc20.sol\":35803:35896  interfaceId == type(IERC1363).interfaceId ||... */\n      tag_182\n      jumpi\n      pop\n      shl(0xe0, 0x01ffc9a7)\n      not(sub(shl(0xe0, 0x01), 0x01))\n        /* \"contracts/powerful-erc20.sol\":28589:28629  interfaceId == type(IERC165).interfaceId */\n      dup4\n      and\n      eq\n        /* \"contracts/powerful-erc20.sol\":35860:35896  super.supportsInterface(interfaceId) */\n      tag_182\n        /* \"contracts/powerful-erc20.sol\":28437:28636  function supportsInterface(bytes4 interfaceId)... */\n      jump\n        /* \"contracts/powerful-erc20.sol\":51448:51917  function toHexString(uint256 value, uint256 length)... */\n    tag_386:\n        /* \"contracts/powerful-erc20.sol\":51547:51560  string memory */\n      0x60\n        /* \"contracts/powerful-erc20.sol\":51576:51595  bytes memory buffer */\n      0x00\n        /* \"contracts/powerful-erc20.sol\":51608:51618  2 * length */\n      tag_459\n        /* \"contracts/powerful-erc20.sol\":51612:51618  length */\n      dup4\n        /* \"contracts/powerful-erc20.sol\":51608:51609  2 */\n      0x02\n        /* \"contracts/powerful-erc20.sol\":51608:51618  2 * length */\n      tag_460\n      jump\t// in\n    tag_459:\n        /* \"contracts/powerful-erc20.sol\":51608:51622  2 * length + 2 */\n      tag_461\n      swap1\n        /* \"contracts/powerful-erc20.sol\":51621:51622  2 */\n      0x02\n        /* \"contracts/powerful-erc20.sol\":51608:51622  2 * length + 2 */\n      tag_236\n      jump\t// in\n    tag_461:\n        /* \"contracts/powerful-erc20.sol\":51598:51623  new bytes(2 * length + 2) */\n      0xffffffffffffffff\n      dup2\n      gt\n      iszero\n      tag_463\n      jumpi\n      tag_463\n      tag_464\n      jump\t// in\n    tag_463:\n      mload(0x40)\n      swap1\n      dup1\n      dup3\n      mstore\n      dup1\n      0x1f\n      add\n      not(0x1f)\n      and\n      0x20\n      add\n      dup3\n      add\n      0x40\n      mstore\n      dup1\n      iszero\n      tag_465\n      jumpi\n      0x20\n      dup3\n      add\n      dup2\n      dup1\n      calldatasize\n      dup4\n      calldatacopy\n      add\n      swap1\n      pop\n    tag_465:\n      pop\n        /* \"contracts/powerful-erc20.sol\":51576:51623  bytes memory buffer = new bytes(2 * length + 2) */\n      swap1\n      pop\n      shl(0xfc, 0x03)\n        /* \"contracts/powerful-erc20.sol\":51633:51639  buffer */\n      dup2\n        /* \"contracts/powerful-erc20.sol\":51640:51641  0 */\n      0x00\n        /* \"contracts/powerful-erc20.sol\":51633:51642  buffer[0] */\n      dup2\n      mload\n      dup2\n      lt\n      tag_467\n      jumpi\n      tag_467\n      tag_468\n      jump\t// in\n    tag_467:\n      0x20\n      add\n      add\n        /* \"contracts/powerful-erc20.sol\":51633:51648  buffer[0] = \"0\" */\n      swap1\n      not(sub(shl(0xf8, 0x01), 0x01))\n      and\n      swap1\n      dup2\n      0x00\n      byte\n      swap1\n      mstore8\n      pop\n      shl(0xfb, 0x0f)\n        /* \"contracts/powerful-erc20.sol\":51658:51664  buffer */\n      dup2\n        /* \"contracts/powerful-erc20.sol\":51665:51666  1 */\n      0x01\n        /* \"contracts/powerful-erc20.sol\":51658:51667  buffer[1] */\n      dup2\n      mload\n      dup2\n      lt\n      tag_470\n      jumpi\n      tag_470\n      tag_468\n      jump\t// in\n    tag_470:\n      0x20\n      add\n      add\n        /* \"contracts/powerful-erc20.sol\":51658:51673  buffer[1] = \"x\" */\n      swap1\n      not(sub(shl(0xf8, 0x01), 0x01))\n      and\n      swap1\n      dup2\n      0x00\n      byte\n      swap1\n      mstore8\n      pop\n        /* \"contracts/powerful-erc20.sol\":51688:51697  uint256 i */\n      0x00\n        /* \"contracts/powerful-erc20.sol\":51700:51710  2 * length */\n      tag_474\n        /* \"contracts/powerful-erc20.sol\":51704:51710  length */\n      dup5\n        /* \"contracts/powerful-erc20.sol\":51700:51701  2 */\n      0x02\n        /* \"contracts/powerful-erc20.sol\":51700:51710  2 * length */\n      tag_460\n      jump\t// in\n    tag_474:\n        /* \"contracts/powerful-erc20.sol\":51700:51714  2 * length + 1 */\n      tag_475\n      swap1\n        /* \"contracts/powerful-erc20.sol\":51713:51714  1 */\n      0x01\n        /* \"contracts/powerful-erc20.sol\":51700:51714  2 * length + 1 */\n      tag_236\n      jump\t// in\n    tag_475:\n        /* \"contracts/powerful-erc20.sol\":51688:51714  uint256 i = 2 * length + 1 */\n      swap1\n      pop\n        /* \"contracts/powerful-erc20.sol\":51683:51815  for (uint256 i = 2 * length + 1; i > 1; --i) {... */\n    tag_471:\n        /* \"contracts/powerful-erc20.sol\":51720:51721  1 */\n      0x01\n        /* \"contracts/powerful-erc20.sol\":51716:51717  i */\n      dup2\n        /* \"contracts/powerful-erc20.sol\":51716:51721  i > 1 */\n      gt\n        /* \"contracts/powerful-erc20.sol\":51683:51815  for (uint256 i = 2 * length + 1; i > 1; --i) {... */\n      iszero\n      tag_472\n      jumpi\n      shl(0x81, 0x181899199a1a9b1b9c1cb0b131b232b3)\n        /* \"contracts/powerful-erc20.sol\":51767:51772  value */\n      dup6\n        /* \"contracts/powerful-erc20.sol\":51775:51778  0xf */\n      0x0f\n        /* \"contracts/powerful-erc20.sol\":51767:51778  value & 0xf */\n      and\n        /* \"contracts/powerful-erc20.sol\":51754:51779  _HEX_SYMBOLS[value & 0xf] */\n      0x10\n      dup2\n      lt\n      tag_477\n      jumpi\n      tag_477\n      tag_468\n      jump\t// in\n    tag_477:\n      byte\n      0xf8\n      shl\n        /* \"contracts/powerful-erc20.sol\":51742:51748  buffer */\n      dup3\n        /* \"contracts/powerful-erc20.sol\":51749:51750  i */\n      dup3\n        /* \"contracts/powerful-erc20.sol\":51742:51751  buffer[i] */\n      dup2\n      mload\n      dup2\n      lt\n      tag_479\n      jumpi\n      tag_479\n      tag_468\n      jump\t// in\n    tag_479:\n      0x20\n      add\n      add\n        /* \"contracts/powerful-erc20.sol\":51742:51779  buffer[i] = _HEX_SYMBOLS[value & 0xf] */\n      swap1\n      not(sub(shl(0xf8, 0x01), 0x01))\n      and\n      swap1\n      dup2\n      0x00\n      byte\n      swap1\n      mstore8\n      pop\n        /* \"contracts/powerful-erc20.sol\":51803:51804  4 */\n      0x04\n        /* \"contracts/powerful-erc20.sol\":51793:51804  value >>= 4 */\n      swap5\n      swap1\n      swap5\n      shr\n      swap4\n        /* \"contracts/powerful-erc20.sol\":51723:51726  --i */\n      tag_480\n      dup2\n      tag_481\n      jump\t// in\n    tag_480:\n      swap1\n      pop\n        /* \"contracts/powerful-erc20.sol\":51683:51815  for (uint256 i = 2 * length + 1; i > 1; --i) {... */\n      jump(tag_471)\n    tag_472:\n      pop\n        /* \"contracts/powerful-erc20.sol\":51832:51842  value == 0 */\n      dup4\n      iszero\n        /* \"contracts/powerful-erc20.sol\":51824:51879  require(value == 0, \"Strings: hex length insufficient\") */\n      tag_198\n      jumpi\n      mload(0x40)\n      shl(0xe5, 0x461bcd)\n      dup2\n      mstore\n        /* \"#utility.yul\":7610:7612   */\n      0x20\n        /* \"contracts/powerful-erc20.sol\":51824:51879  require(value == 0, \"Strings: hex length insufficient\") */\n      0x04\n      dup3\n      add\n        /* \"#utility.yul\":7592:7613   */\n      dup2\n      swap1\n      mstore\n        /* \"#utility.yul\":7629:7647   */\n      0x24\n      dup3\n      add\n        /* \"#utility.yul\":7622:7652   */\n      mstore\n        /* \"#utility.yul\":7688:7722   */\n      0x537472696e67733a20686578206c656e67746820696e73756666696369656e74\n        /* \"#utility.yul\":7668:7686   */\n      0x44\n      dup3\n      add\n        /* \"#utility.yul\":7661:7723   */\n      mstore\n        /* \"#utility.yul\":7740:7758   */\n      0x64\n      add\n        /* \"contracts/powerful-erc20.sol\":51824:51879  require(value == 0, \"Strings: hex length insufficient\") */\n      tag_205\n        /* \"#utility.yul\":7408:7764   */\n      jump\n        /* \"contracts/powerful-erc20.sol\":18299:18537  function _mint(address account, uint256 amount) internal virtual override {... */\n    tag_420:\n        /* \"contracts/powerful-erc20.sol\":18235:18239  _cap */\n      immutable(\"0x99234e8bb0caccda3914a3f5815f9f0b8e1efd8c0710474b7e1f8f99bf3b0eb8\")\n        /* \"contracts/powerful-erc20.sol\":18426:18432  amount */\n      dup2\n        /* \"contracts/powerful-erc20.sol\":18404:18423  ERC20.totalSupply() */\n      tag_488\n        /* \"contracts/powerful-erc20.sol\":7472:7484  _totalSupply */\n      sload(0x02)\n      swap1\n        /* \"contracts/powerful-erc20.sol\":7385:7491  function totalSupply() public view virtual override returns (uint256) {... */\n      jump\n        /* \"contracts/powerful-erc20.sol\":18404:18423  ERC20.totalSupply() */\n    tag_488:\n        /* \"contracts/powerful-erc20.sol\":18404:18432  ERC20.totalSupply() + amount */\n      tag_489\n      swap2\n      swap1\n      tag_236\n      jump\t// in\n    tag_489:\n        /* \"contracts/powerful-erc20.sol\":18404:18441  ERC20.totalSupply() + amount <= cap() */\n      gt\n      iszero\n        /* \"contracts/powerful-erc20.sol\":18383:18492  require(... */\n      tag_490\n      jumpi\n      mload(0x40)\n      shl(0xe5, 0x461bcd)\n      dup2\n      mstore\n        /* \"#utility.yul\":13203:13205   */\n      0x20\n        /* \"contracts/powerful-erc20.sol\":18383:18492  require(... */\n      0x04\n      dup3\n      add\n        /* \"#utility.yul\":13185:13206   */\n      mstore\n        /* \"#utility.yul\":13242:13244   */\n      0x19\n        /* \"#utility.yul\":13222:13240   */\n      0x24\n      dup3\n      add\n        /* \"#utility.yul\":13215:13245   */\n      mstore\n        /* \"#utility.yul\":13281:13308   */\n      0x45524332304361707065643a2063617020657863656564656400000000000000\n        /* \"#utility.yul\":13261:13279   */\n      0x44\n      dup3\n      add\n        /* \"#utility.yul\":13254:13309   */\n      mstore\n        /* \"#utility.yul\":13326:13344   */\n      0x64\n      add\n        /* \"contracts/powerful-erc20.sol\":18383:18492  require(... */\n      tag_205\n        /* \"#utility.yul\":13001:13350   */\n      jump\n        /* \"contracts/powerful-erc20.sol\":18383:18492  require(... */\n    tag_490:\n        /* \"contracts/powerful-erc20.sol\":18502:18530  super._mint(account, amount) */\n      tag_229\n        /* \"contracts/powerful-erc20.sol\":18514:18521  account */\n      dup3\n        /* \"contracts/powerful-erc20.sol\":18523:18529  amount */\n      dup3\n        /* \"contracts/powerful-erc20.sol\":18502:18513  super._mint */\n      tag_180\n        /* \"contracts/powerful-erc20.sol\":18502:18530  super._mint(account, amount) */\n      jump\t// in\n        /* \"contracts/powerful-erc20.sol\":46776:46889  function _finishMinting() internal virtual {... */\n    tag_441:\n        /* \"contracts/powerful-erc20.sol\":46829:46845  _mintingFinished */\n      0x05\n        /* \"contracts/powerful-erc20.sol\":46829:46852  _mintingFinished = true */\n      dup1\n      sload\n      not(0xff)\n      and\n        /* \"contracts/powerful-erc20.sol\":46848:46852  true */\n      0x01\n        /* \"contracts/powerful-erc20.sol\":46829:46852  _mintingFinished = true */\n      or\n      swap1\n      sstore\n        /* \"contracts/powerful-erc20.sol\":46868:46882  MintFinished() */\n      mload(0x40)\n      0xae5184fba832cb2b1f702aca6117b8d265eaf03ad33eb133f19dde0f5920fa08\n      swap1\n        /* \"contracts/powerful-erc20.sol\":46829:46845  _mintingFinished */\n      0x00\n      swap1\n        /* \"contracts/powerful-erc20.sol\":46868:46882  MintFinished() */\n      log1\n        /* \"contracts/powerful-erc20.sol\":46776:46889  function _finishMinting() internal virtual {... */\n      jump\t// out\n        /* \"#utility.yul\":14:187   */\n    tag_497:\n        /* \"#utility.yul\":82:102   */\n      dup1\n      calldataload\n      sub(shl(0xa0, 0x01), 0x01)\n        /* \"#utility.yul\":131:162   */\n      dup2\n      and\n        /* \"#utility.yul\":121:163   */\n      dup2\n      eq\n        /* \"#utility.yul\":111:181   */\n      tag_499\n      jumpi\n        /* \"#utility.yul\":177:178   */\n      0x00\n        /* \"#utility.yul\":174:175   */\n      dup1\n        /* \"#utility.yul\":167:179   */\n      revert\n        /* \"#utility.yul\":111:181   */\n    tag_499:\n        /* \"#utility.yul\":14:187   */\n      swap2\n      swap1\n      pop\n      jump\t// out\n        /* \"#utility.yul\":192:910   */\n    tag_500:\n        /* \"#utility.yul\":234:239   */\n      0x00\n        /* \"#utility.yul\":287:290   */\n      dup3\n        /* \"#utility.yul\":280:284   */\n      0x1f\n        /* \"#utility.yul\":272:278   */\n      dup4\n        /* \"#utility.yul\":268:285   */\n      add\n        /* \"#utility.yul\":264:291   */\n      slt\n        /* \"#utility.yul\":254:309   */\n      tag_502\n      jumpi\n        /* \"#utility.yul\":305:306   */\n      0x00\n        /* \"#utility.yul\":302:303   */\n      dup1\n        /* \"#utility.yul\":295:307   */\n      revert\n        /* \"#utility.yul\":254:309   */\n    tag_502:\n        /* \"#utility.yul\":341:347   */\n      dup2\n        /* \"#utility.yul\":328:348   */\n      calldataload\n        /* \"#utility.yul\":367:385   */\n      0xffffffffffffffff\n        /* \"#utility.yul\":404:406   */\n      dup1\n        /* \"#utility.yul\":400:402   */\n      dup3\n        /* \"#utility.yul\":397:407   */\n      gt\n        /* \"#utility.yul\":394:430   */\n      iszero\n      tag_504\n      jumpi\n        /* \"#utility.yul\":410:428   */\n      tag_504\n      tag_464\n      jump\t// in\n    tag_504:\n        /* \"#utility.yul\":485:487   */\n      0x40\n        /* \"#utility.yul\":479:488   */\n      mload\n        /* \"#utility.yul\":453:455   */\n      0x1f\n        /* \"#utility.yul\":539:552   */\n      dup4\n      add\n      not(0x1f)\n        /* \"#utility.yul\":535:557   */\n      swap1\n      dup2\n      and\n        /* \"#utility.yul\":559:561   */\n      0x3f\n        /* \"#utility.yul\":531:562   */\n      add\n        /* \"#utility.yul\":527:567   */\n      and\n        /* \"#utility.yul\":515:568   */\n      dup2\n      add\n      swap1\n        /* \"#utility.yul\":583:601   */\n      dup3\n      dup3\n      gt\n        /* \"#utility.yul\":603:625   */\n      dup2\n      dup4\n      lt\n        /* \"#utility.yul\":580:626   */\n      or\n        /* \"#utility.yul\":577:649   */\n      iszero\n      tag_506\n      jumpi\n        /* \"#utility.yul\":629:647   */\n      tag_506\n      tag_464\n      jump\t// in\n    tag_506:\n        /* \"#utility.yul\":669:679   */\n      dup2\n        /* \"#utility.yul\":665:667   */\n      0x40\n        /* \"#utility.yul\":658:680   */\n      mstore\n        /* \"#utility.yul\":704:706   */\n      dup4\n        /* \"#utility.yul\":696:702   */\n      dup2\n        /* \"#utility.yul\":689:707   */\n      mstore\n        /* \"#utility.yul\":750:753   */\n      dup7\n        /* \"#utility.yul\":743:747   */\n      0x20\n        /* \"#utility.yul\":738:740   */\n      dup6\n        /* \"#utility.yul\":730:736   */\n      dup9\n        /* \"#utility.yul\":726:741   */\n      add\n        /* \"#utility.yul\":722:748   */\n      add\n        /* \"#utility.yul\":719:754   */\n      gt\n        /* \"#utility.yul\":716:771   */\n      iszero\n      tag_507\n      jumpi\n        /* \"#utility.yul\":767:768   */\n      0x00\n        /* \"#utility.yul\":764:765   */\n      dup1\n        /* \"#utility.yul\":757:769   */\n      revert\n        /* \"#utility.yul\":716:771   */\n    tag_507:\n        /* \"#utility.yul\":831:833   */\n      dup4\n        /* \"#utility.yul\":824:828   */\n      0x20\n        /* \"#utility.yul\":816:822   */\n      dup8\n        /* \"#utility.yul\":812:829   */\n      add\n        /* \"#utility.yul\":805:809   */\n      0x20\n        /* \"#utility.yul\":797:803   */\n      dup4\n        /* \"#utility.yul\":793:810   */\n      add\n        /* \"#utility.yul\":780:834   */\n      calldatacopy\n        /* \"#utility.yul\":878:879   */\n      0x00\n        /* \"#utility.yul\":871:875   */\n      0x20\n        /* \"#utility.yul\":866:868   */\n      dup6\n        /* \"#utility.yul\":858:864   */\n      dup4\n        /* \"#utility.yul\":854:869   */\n      add\n        /* \"#utility.yul\":850:876   */\n      add\n        /* \"#utility.yul\":843:880   */\n      mstore\n        /* \"#utility.yul\":898:904   */\n      dup1\n        /* \"#utility.yul\":889:904   */\n      swap5\n      pop\n      pop\n      pop\n      pop\n      pop\n        /* \"#utility.yul\":192:910   */\n      swap3\n      swap2\n      pop\n      pop\n      jump\t// out\n        /* \"#utility.yul\":915:1101   */\n    tag_118:\n        /* \"#utility.yul\":974:980   */\n      0x00\n        /* \"#utility.yul\":1027:1029   */\n      0x20\n        /* \"#utility.yul\":1015:1024   */\n      dup3\n        /* \"#utility.yul\":1006:1013   */\n      dup5\n        /* \"#utility.yul\":1002:1025   */\n      sub\n        /* \"#utility.yul\":998:1030   */\n      slt\n        /* \"#utility.yul\":995:1047   */\n      iszero\n      tag_509\n      jumpi\n        /* \"#utility.yul\":1043:1044   */\n      0x00\n        /* \"#utility.yul\":1040:1041   */\n      dup1\n        /* \"#utility.yul\":1033:1045   */\n      revert\n        /* \"#utility.yul\":995:1047   */\n    tag_509:\n        /* \"#utility.yul\":1066:1095   */\n      tag_198\n        /* \"#utility.yul\":1085:1094   */\n      dup3\n        /* \"#utility.yul\":1066:1095   */\n      tag_497\n      jump\t// in\n        /* \"#utility.yul\":1106:1366   */\n    tag_174:\n        /* \"#utility.yul\":1174:1180   */\n      0x00\n        /* \"#utility.yul\":1182:1188   */\n      dup1\n        /* \"#utility.yul\":1235:1237   */\n      0x40\n        /* \"#utility.yul\":1223:1232   */\n      dup4\n        /* \"#utility.yul\":1214:1221   */\n      dup6\n        /* \"#utility.yul\":1210:1233   */\n      sub\n        /* \"#utility.yul\":1206:1238   */\n      slt\n        /* \"#utility.yul\":1203:1255   */\n      iszero\n      tag_512\n      jumpi\n        /* \"#utility.yul\":1251:1252   */\n      0x00\n        /* \"#utility.yul\":1248:1249   */\n      dup1\n        /* \"#utility.yul\":1241:1253   */\n      revert\n        /* \"#utility.yul\":1203:1255   */\n    tag_512:\n        /* \"#utility.yul\":1274:1303   */\n      tag_513\n        /* \"#utility.yul\":1293:1302   */\n      dup4\n        /* \"#utility.yul\":1274:1303   */\n      tag_497\n      jump\t// in\n    tag_513:\n        /* \"#utility.yul\":1264:1303   */\n      swap2\n      pop\n        /* \"#utility.yul\":1322:1360   */\n      tag_514\n        /* \"#utility.yul\":1356:1358   */\n      0x20\n        /* \"#utility.yul\":1345:1354   */\n      dup5\n        /* \"#utility.yul\":1341:1359   */\n      add\n        /* \"#utility.yul\":1322:1360   */\n      tag_497\n      jump\t// in\n    tag_514:\n        /* \"#utility.yul\":1312:1360   */\n      swap1\n      pop\n        /* \"#utility.yul\":1106:1366   */\n      swap3\n      pop\n      swap3\n      swap1\n      pop\n      jump\t// out\n        /* \"#utility.yul\":1371:1699   */\n    tag_73:\n        /* \"#utility.yul\":1448:1454   */\n      0x00\n        /* \"#utility.yul\":1456:1462   */\n      dup1\n        /* \"#utility.yul\":1464:1470   */\n      0x00\n        /* \"#utility.yul\":1517:1519   */\n      0x60\n        /* \"#utility.yul\":1505:1514   */\n      dup5\n        /* \"#utility.yul\":1496:1503   */\n      dup7\n        /* \"#utility.yul\":1492:1515   */\n      sub\n        /* \"#utility.yul\":1488:1520   */\n      slt\n        /* \"#utility.yul\":1485:1537   */\n      iszero\n      tag_516\n      jumpi\n        /* \"#utility.yul\":1533:1534   */\n      0x00\n        /* \"#utility.yul\":1530:1531   */\n      dup1\n        /* \"#utility.yul\":1523:1535   */\n      revert\n        /* \"#utility.yul\":1485:1537   */\n    tag_516:\n        /* \"#utility.yul\":1556:1585   */\n      tag_517\n        /* \"#utility.yul\":1575:1584   */\n      dup5\n        /* \"#utility.yul\":1556:1585   */\n      tag_497\n      jump\t// in\n    tag_517:\n        /* \"#utility.yul\":1546:1585   */\n      swap3\n      pop\n        /* \"#utility.yul\":1604:1642   */\n      tag_518\n        /* \"#utility.yul\":1638:1640   */\n      0x20\n        /* \"#utility.yul\":1627:1636   */\n      dup6\n        /* \"#utility.yul\":1623:1641   */\n      add\n        /* \"#utility.yul\":1604:1642   */\n      tag_497\n      jump\t// in\n    tag_518:\n        /* \"#utility.yul\":1594:1642   */\n      swap2\n      pop\n        /* \"#utility.yul\":1689:1691   */\n      0x40\n        /* \"#utility.yul\":1678:1687   */\n      dup5\n        /* \"#utility.yul\":1674:1692   */\n      add\n        /* \"#utility.yul\":1661:1693   */\n      calldataload\n        /* \"#utility.yul\":1651:1693   */\n      swap1\n      pop\n        /* \"#utility.yul\":1371:1699   */\n      swap3\n      pop\n      swap3\n      pop\n      swap3\n      jump\t// out\n        /* \"#utility.yul\":1704:2241   */\n    tag_155:\n        /* \"#utility.yul\":1799:1805   */\n      0x00\n        /* \"#utility.yul\":1807:1813   */\n      dup1\n        /* \"#utility.yul\":1815:1821   */\n      0x00\n        /* \"#utility.yul\":1823:1829   */\n      dup1\n        /* \"#utility.yul\":1876:1879   */\n      0x80\n        /* \"#utility.yul\":1864:1873   */\n      dup6\n        /* \"#utility.yul\":1855:1862   */\n      dup8\n        /* \"#utility.yul\":1851:1874   */\n      sub\n        /* \"#utility.yul\":1847:1880   */\n      slt\n        /* \"#utility.yul\":1844:1897   */\n      iszero\n      tag_520\n      jumpi\n        /* \"#utility.yul\":1893:1894   */\n      0x00\n        /* \"#utility.yul\":1890:1891   */\n      dup1\n        /* \"#utility.yul\":1883:1895   */\n      revert\n        /* \"#utility.yul\":1844:1897   */\n    tag_520:\n        /* \"#utility.yul\":1916:1945   */\n      tag_521\n        /* \"#utility.yul\":1935:1944   */\n      dup6\n        /* \"#utility.yul\":1916:1945   */\n      tag_497\n      jump\t// in\n    tag_521:\n        /* \"#utility.yul\":1906:1945   */\n      swap4\n      pop\n        /* \"#utility.yul\":1964:2002   */\n      tag_522\n        /* \"#utility.yul\":1998:2000   */\n      0x20\n        /* \"#utility.yul\":1987:1996   */\n      dup7\n        /* \"#utility.yul\":1983:2001   */\n      add\n        /* \"#utility.yul\":1964:2002   */\n      tag_497\n      jump\t// in\n    tag_522:\n        /* \"#utility.yul\":1954:2002   */\n      swap3\n      pop\n        /* \"#utility.yul\":2049:2051   */\n      0x40\n        /* \"#utility.yul\":2038:2047   */\n      dup6\n        /* \"#utility.yul\":2034:2052   */\n      add\n        /* \"#utility.yul\":2021:2053   */\n      calldataload\n        /* \"#utility.yul\":2011:2053   */\n      swap2\n      pop\n        /* \"#utility.yul\":2104:2106   */\n      0x60\n        /* \"#utility.yul\":2093:2102   */\n      dup6\n        /* \"#utility.yul\":2089:2107   */\n      add\n        /* \"#utility.yul\":2076:2108   */\n      calldataload\n        /* \"#utility.yul\":2131:2149   */\n      0xffffffffffffffff\n        /* \"#utility.yul\":2123:2129   */\n      dup2\n        /* \"#utility.yul\":2120:2150   */\n      gt\n        /* \"#utility.yul\":2117:2167   */\n      iszero\n      tag_523\n      jumpi\n        /* \"#utility.yul\":2163:2164   */\n      0x00\n        /* \"#utility.yul\":2160:2161   */\n      dup1\n        /* \"#utility.yul\":2153:2165   */\n      revert\n        /* \"#utility.yul\":2117:2167   */\n    tag_523:\n        /* \"#utility.yul\":2186:2235   */\n      tag_524\n        /* \"#utility.yul\":2227:2234   */\n      dup8\n        /* \"#utility.yul\":2218:2224   */\n      dup3\n        /* \"#utility.yul\":2207:2216   */\n      dup9\n        /* \"#utility.yul\":2203:2225   */\n      add\n        /* \"#utility.yul\":2186:2235   */\n      tag_500\n      jump\t// in\n    tag_524:\n        /* \"#utility.yul\":2176:2235   */\n      swap2\n      pop\n      pop\n        /* \"#utility.yul\":1704:2241   */\n      swap3\n      swap6\n      swap2\n      swap5\n      pop\n      swap3\n      pop\n      jump\t// out\n        /* \"#utility.yul\":2246:2500   */\n    tag_60:\n        /* \"#utility.yul\":2314:2320   */\n      0x00\n        /* \"#utility.yul\":2322:2328   */\n      dup1\n        /* \"#utility.yul\":2375:2377   */\n      0x40\n        /* \"#utility.yul\":2363:2372   */\n      dup4\n        /* \"#utility.yul\":2354:2361   */\n      dup6\n        /* \"#utility.yul\":2350:2373   */\n      sub\n        /* \"#utility.yul\":2346:2378   */\n      slt\n        /* \"#utility.yul\":2343:2395   */\n      iszero\n      tag_526\n      jumpi\n        /* \"#utility.yul\":2391:2392   */\n      0x00\n        /* \"#utility.yul\":2388:2389   */\n      dup1\n        /* \"#utility.yul\":2381:2393   */\n      revert\n        /* \"#utility.yul\":2343:2395   */\n    tag_526:\n        /* \"#utility.yul\":2414:2443   */\n      tag_527\n        /* \"#utility.yul\":2433:2442   */\n      dup4\n        /* \"#utility.yul\":2414:2443   */\n      tag_497\n      jump\t// in\n    tag_527:\n        /* \"#utility.yul\":2404:2443   */\n      swap5\n        /* \"#utility.yul\":2490:2492   */\n      0x20\n        /* \"#utility.yul\":2475:2493   */\n      swap4\n      swap1\n      swap4\n      add\n        /* \"#utility.yul\":2462:2494   */\n      calldataload\n      swap4\n      pop\n      pop\n      pop\n        /* \"#utility.yul\":2246:2500   */\n      jump\t// out\n        /* \"#utility.yul\":2505:2967   */\n    tag_106:\n        /* \"#utility.yul\":2591:2597   */\n      0x00\n        /* \"#utility.yul\":2599:2605   */\n      dup1\n        /* \"#utility.yul\":2607:2613   */\n      0x00\n        /* \"#utility.yul\":2660:2662   */\n      0x60\n        /* \"#utility.yul\":2648:2657   */\n      dup5\n        /* \"#utility.yul\":2639:2646   */\n      dup7\n        /* \"#utility.yul\":2635:2658   */\n      sub\n        /* \"#utility.yul\":2631:2663   */\n      slt\n        /* \"#utility.yul\":2628:2680   */\n      iszero\n      tag_529\n      jumpi\n        /* \"#utility.yul\":2676:2677   */\n      0x00\n        /* \"#utility.yul\":2673:2674   */\n      dup1\n        /* \"#utility.yul\":2666:2678   */\n      revert\n        /* \"#utility.yul\":2628:2680   */\n    tag_529:\n        /* \"#utility.yul\":2699:2728   */\n      tag_530\n        /* \"#utility.yul\":2718:2727   */\n      dup5\n        /* \"#utility.yul\":2699:2728   */\n      tag_497\n      jump\t// in\n    tag_530:\n        /* \"#utility.yul\":2689:2728   */\n      swap3\n      pop\n        /* \"#utility.yul\":2775:2777   */\n      0x20\n        /* \"#utility.yul\":2764:2773   */\n      dup5\n        /* \"#utility.yul\":2760:2778   */\n      add\n        /* \"#utility.yul\":2747:2779   */\n      calldataload\n        /* \"#utility.yul\":2737:2779   */\n      swap2\n      pop\n        /* \"#utility.yul\":2830:2832   */\n      0x40\n        /* \"#utility.yul\":2819:2828   */\n      dup5\n        /* \"#utility.yul\":2815:2833   */\n      add\n        /* \"#utility.yul\":2802:2834   */\n      calldataload\n        /* \"#utility.yul\":2857:2875   */\n      0xffffffffffffffff\n        /* \"#utility.yul\":2849:2855   */\n      dup2\n        /* \"#utility.yul\":2846:2876   */\n      gt\n        /* \"#utility.yul\":2843:2893   */\n      iszero\n      tag_531\n      jumpi\n        /* \"#utility.yul\":2889:2890   */\n      0x00\n        /* \"#utility.yul\":2886:2887   */\n      dup1\n        /* \"#utility.yul\":2879:2891   */\n      revert\n        /* \"#utility.yul\":2843:2893   */\n    tag_531:\n        /* \"#utility.yul\":2912:2961   */\n      tag_532\n        /* \"#utility.yul\":2953:2960   */\n      dup7\n        /* \"#utility.yul\":2944:2950   */\n      dup3\n        /* \"#utility.yul\":2933:2942   */\n      dup8\n        /* \"#utility.yul\":2929:2951   */\n      add\n        /* \"#utility.yul\":2912:2961   */\n      tag_500\n      jump\t// in\n    tag_532:\n        /* \"#utility.yul\":2902:2961   */\n      swap2\n      pop\n      pop\n        /* \"#utility.yul\":2505:2967   */\n      swap3\n      pop\n      swap3\n      pop\n      swap3\n      jump\t// out\n        /* \"#utility.yul\":2972:3249   */\n    tag_294:\n        /* \"#utility.yul\":3039:3045   */\n      0x00\n        /* \"#utility.yul\":3092:3094   */\n      0x20\n        /* \"#utility.yul\":3080:3089   */\n      dup3\n        /* \"#utility.yul\":3071:3078   */\n      dup5\n        /* \"#utility.yul\":3067:3090   */\n      sub\n        /* \"#utility.yul\":3063:3095   */\n      slt\n        /* \"#utility.yul\":3060:3112   */\n      iszero\n      tag_534\n      jumpi\n        /* \"#utility.yul\":3108:3109   */\n      0x00\n        /* \"#utility.yul\":3105:3106   */\n      dup1\n        /* \"#utility.yul\":3098:3110   */\n      revert\n        /* \"#utility.yul\":3060:3112   */\n    tag_534:\n        /* \"#utility.yul\":3140:3149   */\n      dup2\n        /* \"#utility.yul\":3134:3150   */\n      mload\n        /* \"#utility.yul\":3193:3198   */\n      dup1\n        /* \"#utility.yul\":3186:3199   */\n      iszero\n        /* \"#utility.yul\":3179:3200   */\n      iszero\n        /* \"#utility.yul\":3172:3177   */\n      dup2\n        /* \"#utility.yul\":3169:3201   */\n      eq\n        /* \"#utility.yul\":3159:3219   */\n      tag_198\n      jumpi\n        /* \"#utility.yul\":3215:3216   */\n      0x00\n        /* \"#utility.yul\":3212:3213   */\n      dup1\n        /* \"#utility.yul\":3205:3217   */\n      revert\n        /* \"#utility.yul\":3254:3434   */\n    tag_78:\n        /* \"#utility.yul\":3313:3319   */\n      0x00\n        /* \"#utility.yul\":3366:3368   */\n      0x20\n        /* \"#utility.yul\":3354:3363   */\n      dup3\n        /* \"#utility.yul\":3345:3352   */\n      dup5\n        /* \"#utility.yul\":3341:3364   */\n      sub\n        /* \"#utility.yul\":3337:3369   */\n      slt\n        /* \"#utility.yul\":3334:3386   */\n      iszero\n      tag_537\n      jumpi\n        /* \"#utility.yul\":3382:3383   */\n      0x00\n        /* \"#utility.yul\":3379:3380   */\n      dup1\n        /* \"#utility.yul\":3372:3384   */\n      revert\n        /* \"#utility.yul\":3334:3386   */\n    tag_537:\n      pop\n        /* \"#utility.yul\":3405:3428   */\n      calldataload\n      swap2\n        /* \"#utility.yul\":3254:3434   */\n      swap1\n      pop\n      jump\t// out\n        /* \"#utility.yul\":3439:3693   */\n    tag_84:\n        /* \"#utility.yul\":3507:3513   */\n      0x00\n        /* \"#utility.yul\":3515:3521   */\n      dup1\n        /* \"#utility.yul\":3568:3570   */\n      0x40\n        /* \"#utility.yul\":3556:3565   */\n      dup4\n        /* \"#utility.yul\":3547:3554   */\n      dup6\n        /* \"#utility.yul\":3543:3566   */\n      sub\n        /* \"#utility.yul\":3539:3571   */\n      slt\n        /* \"#utility.yul\":3536:3588   */\n      iszero\n      tag_539\n      jumpi\n        /* \"#utility.yul\":3584:3585   */\n      0x00\n        /* \"#utility.yul\":3581:3582   */\n      dup1\n        /* \"#utility.yul\":3574:3586   */\n      revert\n        /* \"#utility.yul\":3536:3588   */\n    tag_539:\n        /* \"#utility.yul\":3620:3629   */\n      dup3\n        /* \"#utility.yul\":3607:3630   */\n      calldataload\n        /* \"#utility.yul\":3597:3630   */\n      swap2\n      pop\n        /* \"#utility.yul\":3649:3687   */\n      tag_514\n        /* \"#utility.yul\":3683:3685   */\n      0x20\n        /* \"#utility.yul\":3672:3681   */\n      dup5\n        /* \"#utility.yul\":3668:3686   */\n      add\n        /* \"#utility.yul\":3649:3687   */\n      tag_497\n      jump\t// in\n        /* \"#utility.yul\":3698:3943   */\n    tag_47:\n        /* \"#utility.yul\":3756:3762   */\n      0x00\n        /* \"#utility.yul\":3809:3811   */\n      0x20\n        /* \"#utility.yul\":3797:3806   */\n      dup3\n        /* \"#utility.yul\":3788:3795   */\n      dup5\n        /* \"#utility.yul\":3784:3807   */\n      sub\n        /* \"#utility.yul\":3780:3812   */\n      slt\n        /* \"#utility.yul\":3777:3829   */\n      iszero\n      tag_542\n      jumpi\n        /* \"#utility.yul\":3825:3826   */\n      0x00\n        /* \"#utility.yul\":3822:3823   */\n      dup1\n        /* \"#utility.yul\":3815:3827   */\n      revert\n        /* \"#utility.yul\":3777:3829   */\n    tag_542:\n        /* \"#utility.yul\":3864:3873   */\n      dup2\n        /* \"#utility.yul\":3851:3874   */\n      calldataload\n        /* \"#utility.yul\":3883:3913   */\n      tag_198\n        /* \"#utility.yul\":3907:3912   */\n      dup2\n        /* \"#utility.yul\":3883:3913   */\n      tag_544\n      jump\t// in\n        /* \"#utility.yul\":3948:4197   */\n    tag_411:\n        /* \"#utility.yul\":4017:4023   */\n      0x00\n        /* \"#utility.yul\":4070:4072   */\n      0x20\n        /* \"#utility.yul\":4058:4067   */\n      dup3\n        /* \"#utility.yul\":4049:4056   */\n      dup5\n        /* \"#utility.yul\":4045:4068   */\n      sub\n        /* \"#utility.yul\":4041:4073   */\n      slt\n        /* \"#utility.yul\":4038:4090   */\n      iszero\n      tag_546\n      jumpi\n        /* \"#utility.yul\":4086:4087   */\n      0x00\n        /* \"#utility.yul\":4083:4084   */\n      dup1\n        /* \"#utility.yul\":4076:4088   */\n      revert\n        /* \"#utility.yul\":4038:4090   */\n    tag_546:\n        /* \"#utility.yul\":4118:4127   */\n      dup2\n        /* \"#utility.yul\":4112:4128   */\n      mload\n        /* \"#utility.yul\":4137:4167   */\n      tag_198\n        /* \"#utility.yul\":4161:4166   */\n      dup2\n        /* \"#utility.yul\":4137:4167   */\n      tag_544\n      jump\t// in\n        /* \"#utility.yul\":4387:4644   */\n    tag_550:\n        /* \"#utility.yul\":4428:4431   */\n      0x00\n        /* \"#utility.yul\":4466:4471   */\n      dup2\n        /* \"#utility.yul\":4460:4472   */\n      mload\n        /* \"#utility.yul\":4493:4499   */\n      dup1\n        /* \"#utility.yul\":4488:4491   */\n      dup5\n        /* \"#utility.yul\":4481:4500   */\n      mstore\n        /* \"#utility.yul\":4509:4572   */\n      tag_552\n        /* \"#utility.yul\":4565:4571   */\n      dup2\n        /* \"#utility.yul\":4558:4562   */\n      0x20\n        /* \"#utility.yul\":4553:4556   */\n      dup7\n        /* \"#utility.yul\":4549:4563   */\n      add\n        /* \"#utility.yul\":4542:4546   */\n      0x20\n        /* \"#utility.yul\":4535:4540   */\n      dup7\n        /* \"#utility.yul\":4531:4547   */\n      add\n        /* \"#utility.yul\":4509:4572   */\n      tag_553\n      jump\t// in\n    tag_552:\n        /* \"#utility.yul\":4626:4628   */\n      0x1f\n        /* \"#utility.yul\":4605:4620   */\n      add\n      not(0x1f)\n        /* \"#utility.yul\":4601:4630   */\n      and\n        /* \"#utility.yul\":4592:4631   */\n      swap3\n      swap1\n      swap3\n      add\n        /* \"#utility.yul\":4633:4637   */\n      0x20\n        /* \"#utility.yul\":4588:4638   */\n      add\n      swap3\n        /* \"#utility.yul\":4387:4644   */\n      swap2\n      pop\n      pop\n      jump\t// out\n        /* \"#utility.yul\":4649:5435   */\n    tag_389:\n        /* \"#utility.yul\":5060:5085   */\n      0x416363657373436f6e74726f6c3a206163636f756e7420000000000000000000\n        /* \"#utility.yul\":5055:5058   */\n      dup2\n        /* \"#utility.yul\":5048:5086   */\n      mstore\n        /* \"#utility.yul\":5030:5033   */\n      0x00\n        /* \"#utility.yul\":5115:5121   */\n      dup4\n        /* \"#utility.yul\":5109:5122   */\n      mload\n        /* \"#utility.yul\":5131:5193   */\n      tag_555\n        /* \"#utility.yul\":5186:5192   */\n      dup2\n        /* \"#utility.yul\":5181:5183   */\n      0x17\n        /* \"#utility.yul\":5176:5179   */\n      dup6\n        /* \"#utility.yul\":5172:5184   */\n      add\n        /* \"#utility.yul\":5165:5169   */\n      0x20\n        /* \"#utility.yul\":5157:5163   */\n      dup9\n        /* \"#utility.yul\":5153:5170   */\n      add\n        /* \"#utility.yul\":5131:5193   */\n      tag_553\n      jump\t// in\n    tag_555:\n      shl(0x7d, 0x01034b99036b4b9b9b4b733903937b6329)\n        /* \"#utility.yul\":5252:5254   */\n      0x17\n        /* \"#utility.yul\":5212:5228   */\n      swap2\n      dup5\n      add\n        /* \"#utility.yul\":5244:5255   */\n      swap2\n      dup3\n      add\n        /* \"#utility.yul\":5237:5277   */\n      mstore\n        /* \"#utility.yul\":5302:5315   */\n      dup4\n      mload\n        /* \"#utility.yul\":5324:5387   */\n      tag_556\n        /* \"#utility.yul\":5302:5315   */\n      dup2\n        /* \"#utility.yul\":5373:5375   */\n      0x28\n        /* \"#utility.yul\":5365:5376   */\n      dup5\n      add\n        /* \"#utility.yul\":5358:5362   */\n      0x20\n        /* \"#utility.yul\":5346:5363   */\n      dup9\n      add\n        /* \"#utility.yul\":5324:5387   */\n      tag_553\n      jump\t// in\n    tag_556:\n        /* \"#utility.yul\":5407:5424   */\n      add\n        /* \"#utility.yul\":5426:5428   */\n      0x28\n        /* \"#utility.yul\":5403:5429   */\n      add\n      swap5\n        /* \"#utility.yul\":4649:5435   */\n      swap4\n      pop\n      pop\n      pop\n      pop\n      jump\t// out\n        /* \"#utility.yul\":5648:6136   */\n    tag_406:\n      sub(shl(0xa0, 0x01), 0x01)\n        /* \"#utility.yul\":5917:5932   */\n      dup6\n      dup2\n      and\n        /* \"#utility.yul\":5899:5933   */\n      dup3\n      mstore\n        /* \"#utility.yul\":5969:5984   */\n      dup5\n      and\n        /* \"#utility.yul\":5964:5966   */\n      0x20\n        /* \"#utility.yul\":5949:5967   */\n      dup3\n      add\n        /* \"#utility.yul\":5942:5985   */\n      mstore\n        /* \"#utility.yul\":6016:6018   */\n      0x40\n        /* \"#utility.yul\":6001:6019   */\n      dup2\n      add\n        /* \"#utility.yul\":5994:6028   */\n      dup4\n      swap1\n      mstore\n        /* \"#utility.yul\":6064:6067   */\n      0x80\n        /* \"#utility.yul\":6059:6061   */\n      0x60\n        /* \"#utility.yul\":6044:6062   */\n      dup3\n      add\n        /* \"#utility.yul\":6037:6068   */\n      dup2\n      swap1\n      mstore\n        /* \"#utility.yul\":5842:5846   */\n      0x00\n      swap1\n        /* \"#utility.yul\":6085:6130   */\n      tag_559\n      swap1\n        /* \"#utility.yul\":6110:6129   */\n      dup4\n      add\n        /* \"#utility.yul\":6102:6108   */\n      dup5\n        /* \"#utility.yul\":6085:6130   */\n      tag_550\n      jump\t// in\n    tag_559:\n        /* \"#utility.yul\":6077:6130   */\n      swap7\n        /* \"#utility.yul\":5648:6136   */\n      swap6\n      pop\n      pop\n      pop\n      pop\n      pop\n      pop\n      jump\t// out\n        /* \"#utility.yul\":6420:6805   */\n    tag_447:\n        /* \"#utility.yul\":6652:6653   */\n      0x01\n        /* \"#utility.yul\":6648:6649   */\n      dup1\n        /* \"#utility.yul\":6643:6646   */\n      0xa0\n        /* \"#utility.yul\":6639:6650   */\n      shl\n        /* \"#utility.yul\":6635:6654   */\n      sub\n        /* \"#utility.yul\":6627:6633   */\n      dup5\n        /* \"#utility.yul\":6623:6655   */\n      and\n        /* \"#utility.yul\":6612:6621   */\n      dup2\n        /* \"#utility.yul\":6605:6656   */\n      mstore\n        /* \"#utility.yul\":6692:6698   */\n      dup3\n        /* \"#utility.yul\":6687:6689   */\n      0x20\n        /* \"#utility.yul\":6676:6685   */\n      dup3\n        /* \"#utility.yul\":6672:6690   */\n      add\n        /* \"#utility.yul\":6665:6699   */\n      mstore\n        /* \"#utility.yul\":6735:6737   */\n      0x60\n        /* \"#utility.yul\":6730:6732   */\n      0x40\n        /* \"#utility.yul\":6719:6728   */\n      dup3\n        /* \"#utility.yul\":6715:6733   */\n      add\n        /* \"#utility.yul\":6708:6738   */\n      mstore\n        /* \"#utility.yul\":6586:6590   */\n      0x00\n        /* \"#utility.yul\":6755:6799   */\n      tag_562\n        /* \"#utility.yul\":6795:6797   */\n      0x60\n        /* \"#utility.yul\":6784:6793   */\n      dup4\n        /* \"#utility.yul\":6780:6798   */\n      add\n        /* \"#utility.yul\":6772:6778   */\n      dup5\n        /* \"#utility.yul\":6755:6799   */\n      tag_550\n      jump\t// in\n    tag_562:\n        /* \"#utility.yul\":6747:6799   */\n      swap6\n        /* \"#utility.yul\":6420:6805   */\n      swap5\n      pop\n      pop\n      pop\n      pop\n      pop\n      jump\t// out\n        /* \"#utility.yul\":7184:7403   */\n    tag_57:\n        /* \"#utility.yul\":7333:7335   */\n      0x20\n        /* \"#utility.yul\":7322:7331   */\n      dup2\n        /* \"#utility.yul\":7315:7336   */\n      mstore\n        /* \"#utility.yul\":7296:7300   */\n      0x00\n        /* \"#utility.yul\":7353:7397   */\n      tag_198\n        /* \"#utility.yul\":7393:7395   */\n      0x20\n        /* \"#utility.yul\":7382:7391   */\n      dup4\n        /* \"#utility.yul\":7378:7396   */\n      add\n        /* \"#utility.yul\":7370:7376   */\n      dup5\n        /* \"#utility.yul\":7353:7397   */\n      tag_550\n      jump\t// in\n        /* \"#utility.yul\":10611:11013   */\n    tag_244:\n        /* \"#utility.yul\":10813:10815   */\n      0x20\n        /* \"#utility.yul\":10795:10816   */\n      dup1\n      dup3\n      mstore\n        /* \"#utility.yul\":10852:10854   */\n      0x26\n        /* \"#utility.yul\":10832:10850   */\n      swap1\n      dup3\n      add\n        /* \"#utility.yul\":10825:10855   */\n      mstore\n        /* \"#utility.yul\":10891:10925   */\n      0x455243313336333a205f636865636b416e6443616c6c5472616e736665722072\n        /* \"#utility.yul\":10886:10888   */\n      0x40\n        /* \"#utility.yul\":10871:10889   */\n      dup3\n      add\n        /* \"#utility.yul\":10864:10926   */\n      mstore\n      shl(0xd0, 0x657665727473)\n        /* \"#utility.yul\":10957:10959   */\n      0x60\n        /* \"#utility.yul\":10942:10960   */\n      dup3\n      add\n        /* \"#utility.yul\":10935:10971   */\n      mstore\n        /* \"#utility.yul\":11003:11006   */\n      0x80\n        /* \"#utility.yul\":10988:11007   */\n      add\n      swap1\n        /* \"#utility.yul\":10611:11013   */\n      jump\t// out\n        /* \"#utility.yul\":11427:11783   */\n    tag_262:\n        /* \"#utility.yul\":11629:11631   */\n      0x20\n        /* \"#utility.yul\":11611:11632   */\n      dup1\n      dup3\n      mstore\n        /* \"#utility.yul\":11648:11666   */\n      dup2\n      dup2\n      add\n        /* \"#utility.yul\":11641:11671   */\n      mstore\n        /* \"#utility.yul\":11707:11741   */\n      0x4f776e61626c653a2063616c6c6572206973206e6f7420746865206f776e6572\n        /* \"#utility.yul\":11702:11704   */\n      0x40\n        /* \"#utility.yul\":11687:11705   */\n      dup3\n      add\n        /* \"#utility.yul\":11680:11742   */\n      mstore\n        /* \"#utility.yul\":11774:11776   */\n      0x60\n        /* \"#utility.yul\":11759:11777   */\n      add\n      swap1\n        /* \"#utility.yul\":11427:11783   */\n      jump\t// out\n        /* \"#utility.yul\":13760:14158   */\n    tag_248:\n        /* \"#utility.yul\":13962:13964   */\n      0x20\n        /* \"#utility.yul\":13944:13965   */\n      dup1\n      dup3\n      mstore\n        /* \"#utility.yul\":14001:14003   */\n      0x22\n        /* \"#utility.yul\":13981:13999   */\n      swap1\n      dup3\n      add\n        /* \"#utility.yul\":13974:14004   */\n      mstore\n        /* \"#utility.yul\":14040:14074   */\n      0x45524332304d696e7461626c653a206d696e74696e672069732066696e697368\n        /* \"#utility.yul\":14035:14037   */\n      0x40\n        /* \"#utility.yul\":14020:14038   */\n      dup3\n      add\n        /* \"#utility.yul\":14013:14075   */\n      mstore\n      shl(0xf2, 0x1959)\n        /* \"#utility.yul\":14106:14108   */\n      0x60\n        /* \"#utility.yul\":14091:14109   */\n      dup3\n      add\n        /* \"#utility.yul\":14084:14116   */\n      mstore\n        /* \"#utility.yul\":14148:14151   */\n      0x80\n        /* \"#utility.yul\":14133:14152   */\n      add\n      swap1\n        /* \"#utility.yul\":13760:14158   */\n      jump\t// out\n        /* \"#utility.yul\":15716:15844   */\n    tag_236:\n        /* \"#utility.yul\":15756:15759   */\n      0x00\n        /* \"#utility.yul\":15787:15788   */\n      dup3\n        /* \"#utility.yul\":15783:15789   */\n      not\n        /* \"#utility.yul\":15780:15781   */\n      dup3\n        /* \"#utility.yul\":15777:15790   */\n      gt\n        /* \"#utility.yul\":15774:15813   */\n      iszero\n      tag_591\n      jumpi\n        /* \"#utility.yul\":15793:15811   */\n      tag_591\n      tag_592\n      jump\t// in\n    tag_591:\n      pop\n        /* \"#utility.yul\":15829:15838   */\n      add\n      swap1\n        /* \"#utility.yul\":15716:15844   */\n      jump\t// out\n        /* \"#utility.yul\":15849:16017   */\n    tag_460:\n        /* \"#utility.yul\":15889:15896   */\n      0x00\n        /* \"#utility.yul\":15955:15956   */\n      dup2\n        /* \"#utility.yul\":15951:15952   */\n      0x00\n        /* \"#utility.yul\":15947:15953   */\n      not\n        /* \"#utility.yul\":15943:15957   */\n      div\n        /* \"#utility.yul\":15940:15941   */\n      dup4\n        /* \"#utility.yul\":15937:15958   */\n      gt\n        /* \"#utility.yul\":15932:15933   */\n      dup3\n        /* \"#utility.yul\":15925:15934   */\n      iszero\n        /* \"#utility.yul\":15918:15935   */\n      iszero\n        /* \"#utility.yul\":15914:15959   */\n      and\n        /* \"#utility.yul\":15911:15982   */\n      iszero\n      tag_595\n      jumpi\n        /* \"#utility.yul\":15962:15980   */\n      tag_595\n      tag_592\n      jump\t// in\n    tag_595:\n      pop\n        /* \"#utility.yul\":16002:16011   */\n      mul\n      swap1\n        /* \"#utility.yul\":15849:16017   */\n      jump\t// out\n        /* \"#utility.yul\":16022:16147   */\n    tag_430:\n        /* \"#utility.yul\":16062:16066   */\n      0x00\n        /* \"#utility.yul\":16090:16091   */\n      dup3\n        /* \"#utility.yul\":16087:16088   */\n      dup3\n        /* \"#utility.yul\":16084:16092   */\n      lt\n        /* \"#utility.yul\":16081:16115   */\n      iszero\n      tag_598\n      jumpi\n        /* \"#utility.yul\":16095:16113   */\n      tag_598\n      tag_592\n      jump\t// in\n    tag_598:\n      pop\n        /* \"#utility.yul\":16132:16141   */\n      sub\n      swap1\n        /* \"#utility.yul\":16022:16147   */\n      jump\t// out\n        /* \"#utility.yul\":16152:16410   */\n    tag_553:\n        /* \"#utility.yul\":16224:16225   */\n      0x00\n        /* \"#utility.yul\":16234:16347   */\n    tag_600:\n        /* \"#utility.yul\":16248:16254   */\n      dup4\n        /* \"#utility.yul\":16245:16246   */\n      dup2\n        /* \"#utility.yul\":16242:16255   */\n      lt\n        /* \"#utility.yul\":16234:16347   */\n      iszero\n      tag_602\n      jumpi\n        /* \"#utility.yul\":16324:16335   */\n      dup2\n      dup2\n      add\n        /* \"#utility.yul\":16318:16336   */\n      mload\n        /* \"#utility.yul\":16305:16316   */\n      dup4\n      dup3\n      add\n        /* \"#utility.yul\":16298:16337   */\n      mstore\n        /* \"#utility.yul\":16270:16272   */\n      0x20\n        /* \"#utility.yul\":16263:16273   */\n      add\n        /* \"#utility.yul\":16234:16347   */\n      jump(tag_600)\n    tag_602:\n        /* \"#utility.yul\":16365:16371   */\n      dup4\n        /* \"#utility.yul\":16362:16363   */\n      dup2\n        /* \"#utility.yul\":16359:16372   */\n      gt\n        /* \"#utility.yul\":16356:16404   */\n      iszero\n      tag_381\n      jumpi\n      pop\n      pop\n        /* \"#utility.yul\":16400:16401   */\n      0x00\n        /* \"#utility.yul\":16382:16398   */\n      swap2\n      add\n        /* \"#utility.yul\":16375:16402   */\n      mstore\n        /* \"#utility.yul\":16152:16410   */\n      jump\t// out\n        /* \"#utility.yul\":16415:16551   */\n    tag_481:\n        /* \"#utility.yul\":16454:16457   */\n      0x00\n        /* \"#utility.yul\":16482:16487   */\n      dup2\n        /* \"#utility.yul\":16472:16511   */\n      tag_606\n      jumpi\n        /* \"#utility.yul\":16491:16509   */\n      tag_606\n      tag_592\n      jump\t// in\n    tag_606:\n      pop\n      not(0x00)\n        /* \"#utility.yul\":16527:16545   */\n      add\n      swap1\n        /* \"#utility.yul\":16415:16551   */\n      jump\t// out\n        /* \"#utility.yul\":16556:16936   */\n    tag_187:\n        /* \"#utility.yul\":16635:16636   */\n      0x01\n        /* \"#utility.yul\":16631:16643   */\n      dup2\n      dup2\n      shr\n      swap1\n        /* \"#utility.yul\":16678:16690   */\n      dup3\n      and\n      dup1\n        /* \"#utility.yul\":16699:16760   */\n      tag_608\n      jumpi\n        /* \"#utility.yul\":16753:16757   */\n      0x7f\n        /* \"#utility.yul\":16745:16751   */\n      dup3\n        /* \"#utility.yul\":16741:16758   */\n      and\n        /* \"#utility.yul\":16731:16758   */\n      swap2\n      pop\n        /* \"#utility.yul\":16699:16760   */\n    tag_608:\n        /* \"#utility.yul\":16806:16808   */\n      0x20\n        /* \"#utility.yul\":16798:16804   */\n      dup3\n        /* \"#utility.yul\":16795:16809   */\n      lt\n        /* \"#utility.yul\":16775:16793   */\n      dup2\n        /* \"#utility.yul\":16772:16810   */\n      eq\n        /* \"#utility.yul\":16769:16930   */\n      iszero\n      tag_609\n      jumpi\n        /* \"#utility.yul\":16852:16862   */\n      0x4e487b71\n        /* \"#utility.yul\":16847:16850   */\n      0xe0\n        /* \"#utility.yul\":16843:16863   */\n      shl\n        /* \"#utility.yul\":16840:16841   */\n      0x00\n        /* \"#utility.yul\":16833:16864   */\n      mstore\n        /* \"#utility.yul\":16887:16891   */\n      0x22\n        /* \"#utility.yul\":16884:16885   */\n      0x04\n        /* \"#utility.yul\":16877:16892   */\n      mstore\n        /* \"#utility.yul\":16915:16919   */\n      0x24\n        /* \"#utility.yul\":16912:16913   */\n      0x00\n        /* \"#utility.yul\":16905:16920   */\n      revert\n        /* \"#utility.yul\":16769:16930   */\n    tag_609:\n      pop\n        /* \"#utility.yul\":16556:16936   */\n      swap2\n      swap1\n      pop\n      jump\t// out\n        /* \"#utility.yul\":16941:17068   */\n    tag_592:\n        /* \"#utility.yul\":17002:17012   */\n      0x4e487b71\n        /* \"#utility.yul\":16997:17000   */\n      0xe0\n        /* \"#utility.yul\":16993:17013   */\n      shl\n        /* \"#utility.yul\":16990:16991   */\n      0x00\n        /* \"#utility.yul\":16983:17014   */\n      mstore\n        /* \"#utility.yul\":17033:17037   */\n      0x11\n        /* \"#utility.yul\":17030:17031   */\n      0x04\n        /* \"#utility.yul\":17023:17038   */\n      mstore\n        /* \"#utility.yul\":17057:17061   */\n      0x24\n        /* \"#utility.yul\":17054:17055   */\n      0x00\n        /* \"#utility.yul\":17047:17062   */\n      revert\n        /* \"#utility.yul\":17073:17200   */\n    tag_468:\n        /* \"#utility.yul\":17134:17144   */\n      0x4e487b71\n        /* \"#utility.yul\":17129:17132   */\n      0xe0\n        /* \"#utility.yul\":17125:17145   */\n      shl\n        /* \"#utility.yul\":17122:17123   */\n      0x00\n        /* \"#utility.yul\":17115:17146   */\n      mstore\n        /* \"#utility.yul\":17165:17169   */\n      0x32\n        /* \"#utility.yul\":17162:17163   */\n      0x04\n        /* \"#utility.yul\":17155:17170   */\n      mstore\n        /* \"#utility.yul\":17189:17193   */\n      0x24\n        /* \"#utility.yul\":17186:17187   */\n      0x00\n        /* \"#utility.yul\":17179:17194   */\n      revert\n        /* \"#utility.yul\":17205:17332   */\n    tag_464:\n        /* \"#utility.yul\":17266:17276   */\n      0x4e487b71\n        /* \"#utility.yul\":17261:17264   */\n      0xe0\n        /* \"#utility.yul\":17257:17277   */\n      shl\n        /* \"#utility.yul\":17254:17255   */\n      0x00\n        /* \"#utility.yul\":17247:17278   */\n      mstore\n        /* \"#utility.yul\":17297:17301   */\n      0x41\n        /* \"#utility.yul\":17294:17295   */\n      0x04\n        /* \"#utility.yul\":17287:17302   */\n      mstore\n        /* \"#utility.yul\":17321:17325   */\n      0x24\n        /* \"#utility.yul\":17318:17319   */\n      0x00\n        /* \"#utility.yul\":17311:17326   */\n      revert\n        /* \"#utility.yul\":17337:17468   */\n    tag_544:\n      not(sub(shl(0xe0, 0x01), 0x01))\n        /* \"#utility.yul\":17411:17443   */\n      dup2\n      and\n        /* \"#utility.yul\":17401:17444   */\n      dup2\n      eq\n        /* \"#utility.yul\":17391:17462   */\n      tag_253\n      jumpi\n        /* \"#utility.yul\":17458:17459   */\n      0x00\n        /* \"#utility.yul\":17455:17456   */\n      dup1\n        /* \"#utility.yul\":17448:17460   */\n      revert\n\n    auxdata: 0xa26469706673582212209b2fb09debf7e0aa0e22cd0cd2bb367a298a796070fb6f19d213286fdf504e6e64736f6c63430008070033\n}\n",
				"bytecode": {
					"linkReferences": {},
					"object": "60c060408190526005805460ff1916905562002447388190039081908339810160408190526200002f91620004ea565b8183868681600390805190602001906200004b9291906200038d565b508051620000619060049060208401906200038d565b50505060f81b7fff000000000000000000000000000000000000000000000000000000000000001660805280620000df5760405162461bcd60e51b815260206004820152601560248201527f45524332304361707065643a206361702069732030000000000000000000000060448201526064015b60405180910390fd5b60a052620000ed336200019a565b620000fa600033620001f4565b620001267ff0887ba65ee2024ea881d91b74c2450ef19e1557f03bed3ea9f16b037cbe2dc933620001f4565b81811115620001785760405162461bcd60e51b815260206004820152601960248201527f45524332304361707065643a20636170206578636565646564000000000000006044820152606401620000d6565b6200018f33826200020460201b62000c651760201c565b5050505050620005fa565b600580546001600160a01b03838116610100818102610100600160a81b031985161790945560405193909204169182907f8be0079c531659141344cd1fd0a4f28419497f9722a3daafe3b4186f6b6457e090600090a35050565b620002008282620002e9565b5050565b6001600160a01b0382166200025c5760405162461bcd60e51b815260206004820152601f60248201527f45524332303a206d696e7420746f20746865207a65726f2061646472657373006044820152606401620000d6565b806002600082825462000270919062000580565b90915550506001600160a01b038216600090815260208190526040812080548392906200029f90849062000580565b90915550506040518181526001600160a01b038316906000907fddf252ad1be2c89b69c2b068fc378daa952ba7f163c4a11628f55a4df523b3ef9060200160405180910390a35050565b60008281526006602090815260408083206001600160a01b038516845290915290205460ff16620002005760008281526006602090815260408083206001600160a01b03851684529091529020805460ff19166001179055620003493390565b6001600160a01b0316816001600160a01b0316837f2f8788117e7eff1d82e926ec794901d17c78024a50270940304540a733656f0d60405160405180910390a45050565b8280546200039b90620005a7565b90600052602060002090601f016020900481019282620003bf57600085556200040a565b82601f10620003da57805160ff19168380011785556200040a565b828001600101855582156200040a579182015b828111156200040a578251825591602001919060010190620003ed565b50620004189291506200041c565b5090565b5b808211156200041857600081556001016200041d565b600082601f8301126200044557600080fd5b81516001600160401b0380821115620004625762000462620005e4565b604051601f8301601f19908116603f011681019082821181831017156200048d576200048d620005e4565b81604052838152602092508683858801011115620004aa57600080fd5b600091505b83821015620004ce5785820183015181830184015290820190620004af565b83821115620004e05760008385830101525b9695505050505050565b600080600080600060a086880312156200050357600080fd5b85516001600160401b03808211156200051b57600080fd5b6200052989838a0162000433565b965060208801519150808211156200054057600080fd5b506200054f8882890162000433565b945050604086015160ff811681146200056757600080fd5b6060870151608090970151959894975095949392505050565b60008219821115620005a257634e487b7160e01b600052601160045260246000fd5b500190565b600181811c90821680620005bc57607f821691505b60208210811415620005de57634e487b7160e01b600052602260045260246000fd5b50919050565b634e487b7160e01b600052604160045260246000fd5b60805160f81c60a051611e1d6200062a60003960008181610327015261176e015260006102e80152611e1d6000f3fe608060405234801561001057600080fd5b50600436106102115760003560e01c806370a0823111610125578063a457c2d7116100ad578063d53913931161007c578063d5391393146104a1578063d547741f146104c8578063d8fbe994146104db578063dd62ed3e146104ee578063f2fde38b1461052757600080fd5b8063a457c2d714610455578063a9059cbb14610468578063c1d34b891461047b578063cae9ca511461048e57600080fd5b80638980f11f116100f45780638980f11f146103f65780638da5cb5b1461040957806391d148541461043257806395d89b4114610445578063a217fddf1461044d57600080fd5b806370a08231146103aa578063715018a6146103d357806379cc6790146103db5780637d64bcb4146103ee57600080fd5b80632f2ff15d116101a857806336568abe1161017757806336568abe1461034b578063395093511461035e5780634000aea01461037157806340c10f191461038457806342966c681461039757600080fd5b80632f2ff15d146102cc578063313ce567146102e15780633177029f14610312578063355274ea1461032557600080fd5b80631296ee62116101e45780631296ee621461027157806318160ddd1461028457806323b872dd14610296578063248a9ca3146102a957600080fd5b806301ffc9a71461021657806305d2035b1461023e57806306fdde0314610249578063095ea7b31461025e575b600080fd5b610229610224366004611aab565b61053a565b60405190151581526020015b60405180910390f35b60055460ff16610229565b61025161054b565b6040516102359190611bf3565b61022961026c3660046119cc565b6105dd565b61022961027f3660046119cc565b6105f3565b6002545b604051908152602001610235565b6102296102a4366004611928565b610616565b6102886102b7366004611a6f565b60009081526006602052604090206001015490565b6102df6102da366004611a88565b6106c5565b005b60405160ff7f0000000000000000000000000000000000000000000000000000000000000000168152602001610235565b6102296103203660046119cc565b6106f0565b7f0000000000000000000000000000000000000000000000000000000000000000610288565b6102df610359366004611a88565b61070c565b61022961036c3660046119cc565b61078a565b61022961037f3660046119f6565b6107c6565b6102df6103923660046119cc565b610805565b6102df6103a5366004611a6f565b610832565b6102886103b83660046118da565b6001600160a01b031660009081526020819052604090205490565b6102df61083f565b6102df6103e93660046119cc565b61087b565b6102df6108fc565b6102df6104043660046119cc565b610927565b60055461010090046001600160a01b03166040516001600160a01b039091168152602001610235565b610229610440366004611a88565b6109fe565b610251610a29565b610288600081565b6102296104633660046119cc565b610a38565b6102296104763660046119cc565b610ac7565b610229610489366004611964565b610ad4565b61022961049c3660046119f6565b610b12565b6102887ff0887ba65ee2024ea881d91b74c2450ef19e1557f03bed3ea9f16b037cbe2dc981565b6102df6104d6366004611a88565b610b84565b6102296104e9366004611928565b610baa565b6102886104fc3660046118f5565b6001600160a01b03918216600090815260016020908152604080832093909416825291909152205490565b6102df6105353660046118da565b610bc7565b600061054582610d44565b92915050565b60606003805461055a90611d54565b80601f016020809104026020016040519081016040528092919081815260200182805461058690611d54565b80156105d35780601f106105a8576101008083540402835291602001916105d3565b820191906000526020600020905b8154815290600101906020018083116105b657829003601f168201915b5050505050905090565b60006105ea338484610d69565b50600192915050565b600061060f8383604051806020016040528060008152506107c6565b9392505050565b6000610623848484610e8d565b6001600160a01b0384166000908152600160209081526040808320338452909152902054828110156106ad5760405162461bcd60e51b815260206004820152602860248201527f45524332303a207472616e7366657220616d6f756e74206578636565647320616044820152676c6c6f77616e636560c01b60648201526084015b60405180910390fd5b6106ba8533858403610d69565b506001949350505050565b6000828152600660205260409020600101546106e1813361105d565b6106eb83836110c1565b505050565b600061060f838360405180602001604052806000815250610b12565b6001600160a01b038116331461077c5760405162461bcd60e51b815260206004820152602f60248201527f416363657373436f6e74726f6c3a2063616e206f6e6c792072656e6f756e636560448201526e103937b632b9903337b91039b2b63360891b60648201526084016106a4565b6107868282611147565b5050565b3360008181526001602090815260408083206001600160a01b038716845290915281205490916105ea9185906107c1908690611cc3565b610d69565b60006107d28484610ac7565b506107df338585856111ae565b6107fb5760405162461bcd60e51b81526004016106a490611c06565b5060019392505050565b60055460ff16156108285760405162461bcd60e51b81526004016106a490611c81565b610786828261126c565b61083c3382611300565b50565b6005546001600160a01b0361010090910416331461086f5760405162461bcd60e51b81526004016106a490611c4c565b610879600061144e565b565b600061088783336104fc565b9050818110156108e55760405162461bcd60e51b8152602060048201526024808201527f45524332303a206275726e20616d6f756e74206578636565647320616c6c6f77604482015263616e636560e01b60648201526084016106a4565b6108f28333848403610d69565b6106eb8383611300565b60055460ff161561091f5760405162461bcd60e51b81526004016106a490611c81565b6108796114a8565b6005546001600160a01b036101009091041633146109575760405162461bcd60e51b81526004016106a490611c4c565b816001600160a01b031663a9059cbb61097e6005546001600160a01b036101009091041690565b6040516001600160e01b031960e084901b1681526001600160a01b03909116600482015260248101849052604401602060405180830381600087803b1580156109c657600080fd5b505af11580156109da573d6000803e3d6000fd5b505050506040513d601f19601f820116820180604052508101906106eb9190611a4d565b60009182526006602090815260408084206001600160a01b0393909316845291905290205460ff1690565b60606004805461055a90611d54565b3360009081526001602090815260408083206001600160a01b038616845290915281205482811015610aba5760405162461bcd60e51b815260206004820152602560248201527f45524332303a2064656372656173656420616c6c6f77616e63652062656c6f77604482015264207a65726f60d81b60648201526084016106a4565b6107fb3385858403610d69565b60006105ea338484610e8d565b6000610ae1858585610616565b50610aee858585856111ae565b6106ba5760405162461bcd60e51b81526004016106a490611c06565b949350505050565b6000610b1e84846105dd565b50610b2a8484846114e0565b6107fb5760405162461bcd60e51b815260206004820152602560248201527f455243313336333a205f636865636b416e6443616c6c417070726f7665207265604482015264766572747360d81b60648201526084016106a4565b600082815260066020526040902060010154610ba0813361105d565b6106eb8383611147565b6000610b0a84848460405180602001604052806000815250610ad4565b6005546001600160a01b03610100909104163314610bf75760405162461bcd60e51b81526004016106a490611c4c565b6001600160a01b038116610c5c5760405162461bcd60e51b815260206004820152602660248201527f4f776e61626c653a206e6577206f776e657220697320746865207a65726f206160448201526564647265737360d01b60648201526084016106a4565b61083c8161144e565b6001600160a01b038216610cbb5760405162461bcd60e51b815260206004820152601f60248201527f45524332303a206d696e7420746f20746865207a65726f20616464726573730060448201526064016106a4565b8060026000828254610ccd9190611cc3565b90915550506001600160a01b03821660009081526020819052604081208054839290610cfa908490611cc3565b90915550506040518181526001600160a01b038316906000907fddf252ad1be2c89b69c2b068fc378daa952ba7f163c4a11628f55a4df523b3ef9060200160405180910390a35050565b60006001600160e01b03198216637965db0b60e01b148061054557506105458261159b565b6001600160a01b038316610dcb5760405162461bcd60e51b8152602060048201526024808201527f45524332303a20617070726f76652066726f6d20746865207a65726f206164646044820152637265737360e01b60648201526084016106a4565b6001600160a01b038216610e2c5760405162461bcd60e51b815260206004820152602260248201527f45524332303a20617070726f766520746f20746865207a65726f206164647265604482015261737360f01b60648201526084016106a4565b6001600160a01b0383811660008181526001602090815260408083209487168084529482529182902085905590518481527f8c5be1e5ebec7d5bd14f71427d1e84f3dd0314c0f7b2291e5b200ac8c7c3b925910160405180910390a3505050565b6001600160a01b038316610ef15760405162461bcd60e51b815260206004820152602560248201527f45524332303a207472616e736665722066726f6d20746865207a65726f206164604482015264647265737360d81b60648201526084016106a4565b6001600160a01b038216610f535760405162461bcd60e51b815260206004820152602360248201527f45524332303a207472616e7366657220746f20746865207a65726f206164647260448201526265737360e81b60648201526084016106a4565b6001600160a01b03831660009081526020819052604090205481811015610fcb5760405162461bcd60e51b815260206004820152602660248201527f45524332303a207472616e7366657220616d6f756e7420657863656564732062604482015265616c616e636560d01b60648201526084016106a4565b6001600160a01b03808516600090815260208190526040808220858503905591851681529081208054849290611002908490611cc3565b92505081905550826001600160a01b0316846001600160a01b03167fddf252ad1be2c89b69c2b068fc378daa952ba7f163c4a11628f55a4df523b3ef8460405161104e91815260200190565b60405180910390a35b50505050565b61106782826109fe565b6107865761107f816001600160a01b031660146115d0565b61108a8360206115d0565b60405160200161109b929190611b11565b60408051601f198184030181529082905262461bcd60e51b82526106a491600401611bf3565b6110cb82826109fe565b6107865760008281526006602090815260408083206001600160a01b03851684529091529020805460ff191660011790556111033390565b6001600160a01b0316816001600160a01b0316837f2f8788117e7eff1d82e926ec794901d17c78024a50270940304540a733656f0d60405160405180910390a45050565b61115182826109fe565b156107865760008281526006602090815260408083206001600160a01b0385168085529252808320805460ff1916905551339285917ff6391f5c32d9c69d2a47ea670b442974b53935d1edc7fd64eb21e047a839171b9190a45050565b60006001600160a01b0384163b6111c757506000610b0a565b604051632229f29760e21b81526000906001600160a01b038616906388a7ca5c906111fc9033908a9089908990600401611b86565b602060405180830381600087803b15801561121657600080fd5b505af115801561122a573d6000803e3d6000fd5b505050506040513d601f19601f8201168201806040525081019061124e9190611ac8565b6001600160e01b031916632229f29760e21b14915050949350505050565b6112967ff0887ba65ee2024ea881d91b74c2450ef19e1557f03bed3ea9f16b037cbe2dc9336109fe565b6112f65760405162461bcd60e51b815260206004820152602b60248201527f526f6c65733a2063616c6c657220646f6573206e6f742068617665207468652060448201526a4d494e54455220726f6c6560a81b60648201526084016106a4565b610786828261176c565b6001600160a01b0382166113605760405162461bcd60e51b815260206004820152602160248201527f45524332303a206275726e2066726f6d20746865207a65726f206164647265736044820152607360f81b60648201526084016106a4565b6001600160a01b038216600090815260208190526040902054818110156113d45760405162461bcd60e51b815260206004820152602260248201527f45524332303a206275726e20616d6f756e7420657863656564732062616c616e604482015261636560f01b60648201526084016106a4565b6001600160a01b0383166000908152602081905260408120838303905560028054849290611403908490611cfa565b90915550506040518281526000906001600160a01b038516907fddf252ad1be2c89b69c2b068fc378daa952ba7f163c4a11628f55a4df523b3ef9060200160405180910390a3505050565b600580546001600160a01b03838116610100818102610100600160a81b031985161790945560405193909204169182907f8be0079c531659141344cd1fd0a4f28419497f9722a3daafe3b4186f6b6457e090600090a35050565b6005546001600160a01b036101009091041633146114d85760405162461bcd60e51b81526004016106a490611c4c565b6108796117f9565b60006001600160a01b0384163b6114f95750600061060f565b6040516307b04a2d60e41b81526000906001600160a01b03861690637b04a2d09061152c90339088908890600401611bc3565b602060405180830381600087803b15801561154657600080fd5b505af115801561155a573d6000803e3d6000fd5b505050506040513d601f19601f8201168201806040525081019061157e9190611ac8565b6001600160e01b0319166307b04a2d60e41b149150509392505050565b60006001600160e01b0319821663b0202a1160e01b148061054557506301ffc9a760e01b6001600160e01b0319831614610545565b606060006115df836002611cdb565b6115ea906002611cc3565b67ffffffffffffffff81111561160257611602611dbb565b6040519080825280601f01601f19166020018201604052801561162c576020820181803683370190505b509050600360fc1b8160008151811061164757611647611da5565b60200101906001600160f81b031916908160001a905350600f60fb1b8160018151811061167657611676611da5565b60200101906001600160f81b031916908160001a905350600061169a846002611cdb565b6116a5906001611cc3565b90505b600181111561171d576f181899199a1a9b1b9c1cb0b131b232b360811b85600f16601081106116d9576116d9611da5565b1a60f81b8282815181106116ef576116ef611da5565b60200101906001600160f81b031916908160001a90535060049490941c9361171681611d3d565b90506116a8565b50831561060f5760405162461bcd60e51b815260206004820181905260248201527f537472696e67733a20686578206c656e67746820696e73756666696369656e7460448201526064016106a4565b7f00000000000000000000000000000000000000000000000000000000000000008161179760025490565b6117a19190611cc3565b11156117ef5760405162461bcd60e51b815260206004820152601960248201527f45524332304361707065643a206361702065786365656465640000000000000060448201526064016106a4565b6107868282610c65565b6005805460ff191660011790556040517fae5184fba832cb2b1f702aca6117b8d265eaf03ad33eb133f19dde0f5920fa0890600090a1565b80356001600160a01b038116811461184857600080fd5b919050565b600082601f83011261185e57600080fd5b813567ffffffffffffffff8082111561187957611879611dbb565b604051601f8301601f19908116603f011681019082821181831017156118a1576118a1611dbb565b816040528381528660208588010111156118ba57600080fd5b836020870160208301376000602085830101528094505050505092915050565b6000602082840312156118ec57600080fd5b61060f82611831565b6000806040838503121561190857600080fd5b61191183611831565b915061191f60208401611831565b90509250929050565b60008060006060848603121561193d57600080fd5b61194684611831565b925061195460208501611831565b9150604084013590509250925092565b6000806000806080858703121561197a57600080fd5b61198385611831565b935061199160208601611831565b925060408501359150606085013567ffffffffffffffff8111156119b457600080fd5b6119c08782880161184d565b91505092959194509250565b600080604083850312156119df57600080fd5b6119e883611831565b946020939093013593505050565b600080600060608486031215611a0b57600080fd5b611a1484611831565b925060208401359150604084013567ffffffffffffffff811115611a3757600080fd5b611a438682870161184d565b9150509250925092565b600060208284031215611a5f57600080fd5b8151801515811461060f57600080fd5b600060208284031215611a8157600080fd5b5035919050565b60008060408385031215611a9b57600080fd5b8235915061191f60208401611831565b600060208284031215611abd57600080fd5b813561060f81611dd1565b600060208284031215611ada57600080fd5b815161060f81611dd1565b60008151808452611afd816020860160208601611d11565b601f01601f19169290920160200192915050565b7f416363657373436f6e74726f6c3a206163636f756e7420000000000000000000815260008351611b49816017850160208801611d11565b7001034b99036b4b9b9b4b733903937b6329607d1b6017918401918201528351611b7a816028840160208801611d11565b01602801949350505050565b6001600160a01b0385811682528416602082015260408101839052608060608201819052600090611bb990830184611ae5565b9695505050505050565b60018060a01b0384168152826020820152606060408201526000611bea6060830184611ae5565b95945050505050565b60208152600061060f6020830184611ae5565b60208082526026908201527f455243313336333a205f636865636b416e6443616c6c5472616e73666572207260408201526565766572747360d01b606082015260800190565b6020808252818101527f4f776e61626c653a2063616c6c6572206973206e6f7420746865206f776e6572604082015260600190565b60208082526022908201527f45524332304d696e7461626c653a206d696e74696e672069732066696e697368604082015261195960f21b606082015260800190565b60008219821115611cd657611cd6611d8f565b500190565b6000816000190483118215151615611cf557611cf5611d8f565b500290565b600082821015611d0c57611d0c611d8f565b500390565b60005b83811015611d2c578181015183820152602001611d14565b838111156110575750506000910152565b600081611d4c57611d4c611d8f565b506000190190565b600181811c90821680611d6857607f821691505b60208210811415611d8957634e487b7160e01b600052602260045260246000fd5b50919050565b634e487b7160e01b600052601160045260246000fd5b634e487b7160e01b600052603260045260246000fd5b634e487b7160e01b600052604160045260246000fd5b6001600160e01b03198116811461083c57600080fdfea26469706673582212209b2fb09debf7e0aa0e22cd0cd2bb367a298a796070fb6f19d213286fdf504e6e64736f6c63430008070033",
					"opcodes": "PUSH1 0xC0 PUSH1 0x40 DUP2 SWAP1 MSTORE PUSH1 0x5 DUP1 SLOAD PUSH1 0xFF NOT AND SWAP1 SSTORE PUSH3 0x2447 CODESIZE DUP2 SWAP1 SUB SWAP1 DUP2 SWAP1 DUP4 CODECOPY DUP2 ADD PUSH1 0x40 DUP2 SWAP1 MSTORE PUSH3 0x2F SWAP2 PUSH3 0x4EA JUMP JUMPDEST DUP2 DUP4 DUP7 DUP7 DUP2 PUSH1 0x3 SWAP1 DUP1 MLOAD SWAP1 PUSH1 0x20 ADD SWAP1 PUSH3 0x4B SWAP3 SWAP2 SWAP1 PUSH3 0x38D JUMP JUMPDEST POP DUP1 MLOAD PUSH3 0x61 SWAP1 PUSH1 0x4 SWAP1 PUSH1 0x20 DUP5 ADD SWAP1 PUSH3 0x38D JUMP JUMPDEST POP POP POP PUSH1 0xF8 SHL PUSH32 0xFF00000000000000000000000000000000000000000000000000000000000000 AND PUSH1 0x80 MSTORE DUP1 PUSH3 0xDF JUMPI PUSH1 0x40 MLOAD PUSH3 0x461BCD PUSH1 0xE5 SHL DUP2 MSTORE PUSH1 0x20 PUSH1 0x4 DUP3 ADD MSTORE PUSH1 0x15 PUSH1 0x24 DUP3 ADD MSTORE PUSH32 0x45524332304361707065643A2063617020697320300000000000000000000000 PUSH1 0x44 DUP3 ADD MSTORE PUSH1 0x64 ADD JUMPDEST PUSH1 0x40 MLOAD DUP1 SWAP2 SUB SWAP1 REVERT JUMPDEST PUSH1 0xA0 MSTORE PUSH3 0xED CALLER PUSH3 0x19A JUMP JUMPDEST PUSH3 0xFA PUSH1 0x0 CALLER PUSH3 0x1F4 JUMP JUMPDEST PUSH3 0x126 PUSH32 0xF0887BA65EE2024EA881D91B74C2450EF19E1557F03BED3EA9F16B037CBE2DC9 CALLER PUSH3 0x1F4 JUMP JUMPDEST DUP2 DUP2 GT ISZERO PUSH3 0x178 JUMPI PUSH1 0x40 MLOAD PUSH3 0x461BCD PUSH1 0xE5 SHL DUP2 MSTORE PUSH1 0x20 PUSH1 0x4 DUP3 ADD MSTORE PUSH1 0x19 PUSH1 0x24 DUP3 ADD MSTORE PUSH32 0x45524332304361707065643A2063617020657863656564656400000000000000 PUSH1 0x44 DUP3 ADD MSTORE PUSH1 0x64 ADD PUSH3 0xD6 JUMP JUMPDEST PUSH3 0x18F CALLER DUP3 PUSH3 0x204 PUSH1 0x20 SHL PUSH3 0xC65 OR PUSH1 0x20 SHR JUMP JUMPDEST POP POP POP POP POP PUSH3 0x5FA JUMP JUMPDEST PUSH1 0x5 DUP1 SLOAD PUSH1 0x1 PUSH1 0x1 PUSH1 0xA0 SHL SUB DUP4 DUP2 AND PUSH2 0x100 DUP2 DUP2 MUL PUSH2 0x100 PUSH1 0x1 PUSH1 0xA8 SHL SUB NOT DUP6 AND OR SWAP1 SWAP5 SSTORE PUSH1 0x40 MLOAD SWAP4 SWAP1 SWAP3 DIV AND SWAP2 DUP3 SWAP1 PUSH32 0x8BE0079C531659141344CD1FD0A4F28419497F9722A3DAAFE3B4186F6B6457E0 SWAP1 PUSH1 0x0 SWAP1 LOG3 POP POP JUMP JUMPDEST PUSH3 0x200 DUP3 DUP3 PUSH3 0x2E9 JUMP JUMPDEST POP POP JUMP JUMPDEST PUSH1 0x1 PUSH1 0x1 PUSH1 0xA0 SHL SUB DUP3 AND PUSH3 0x25C JUMPI PUSH1 0x40 MLOAD PUSH3 0x461BCD PUSH1 0xE5 SHL DUP2 MSTORE PUSH1 0x20 PUSH1 0x4 DUP3 ADD MSTORE PUSH1 0x1F PUSH1 0x24 DUP3 ADD MSTORE PUSH32 0x45524332303A206D696E7420746F20746865207A65726F206164647265737300 PUSH1 0x44 DUP3 ADD MSTORE PUSH1 0x64 ADD PUSH3 0xD6 JUMP JUMPDEST DUP1 PUSH1 0x2 PUSH1 0x0 DUP3 DUP3 SLOAD PUSH3 0x270 SWAP2 SWAP1 PUSH3 0x580 JUMP JUMPDEST SWAP1 SWAP2 SSTORE POP POP PUSH1 0x1 PUSH1 0x1 PUSH1 0xA0 SHL SUB DUP3 AND PUSH1 0x0 SWAP1 DUP2 MSTORE PUSH1 0x20 DUP2 SWAP1 MSTORE PUSH1 0x40 DUP2 KECCAK256 DUP1 SLOAD DUP4 SWAP3 SWAP1 PUSH3 0x29F SWAP1 DUP5 SWAP1 PUSH3 0x580 JUMP JUMPDEST SWAP1 SWAP2 SSTORE POP POP PUSH1 0x40 MLOAD DUP2 DUP2 MSTORE PUSH1 0x1 PUSH1 0x1 PUSH1 0xA0 SHL SUB DUP4 AND SWAP1 PUSH1 0x0 SWAP1 PUSH32 0xDDF252AD1BE2C89B69C2B068FC378DAA952BA7F163C4A11628F55A4DF523B3EF SWAP1 PUSH1 0x20 ADD PUSH1 0x40 MLOAD DUP1 SWAP2 SUB SWAP1 LOG3 POP POP JUMP JUMPDEST PUSH1 0x0 DUP3 DUP2 MSTORE PUSH1 0x6 PUSH1 0x20 SWAP1 DUP2 MSTORE PUSH1 0x40 DUP1 DUP4 KECCAK256 PUSH1 0x1 PUSH1 0x1 PUSH1 0xA0 SHL SUB DUP6 AND DUP5 MSTORE SWAP1 SWAP2 MSTORE SWAP1 KECCAK256 SLOAD PUSH1 0xFF AND PUSH3 0x200 JUMPI PUSH1 0x0 DUP3 DUP2 MSTORE PUSH1 0x6 PUSH1 0x20 SWAP1 DUP2 MSTORE PUSH1 0x40 DUP1 DUP4 KECCAK256 PUSH1 0x1 PUSH1 0x1 PUSH1 0xA0 SHL SUB DUP6 AND DUP5 MSTORE SWAP1 SWAP2 MSTORE SWAP1 KECCAK256 DUP1 SLOAD PUSH1 0xFF NOT AND PUSH1 0x1 OR SWAP1 SSTORE PUSH3 0x349 CALLER SWAP1 JUMP JUMPDEST PUSH1 0x1 PUSH1 0x1 PUSH1 0xA0 SHL SUB AND DUP2 PUSH1 0x1 PUSH1 0x1 PUSH1 0xA0 SHL SUB AND DUP4 PUSH32 0x2F8788117E7EFF1D82E926EC794901D17C78024A50270940304540A733656F0D PUSH1 0x40 MLOAD PUSH1 0x40 MLOAD DUP1 SWAP2 SUB SWAP1 LOG4 POP POP JUMP JUMPDEST DUP3 DUP1 SLOAD PUSH3 0x39B SWAP1 PUSH3 0x5A7 JUMP JUMPDEST SWAP1 PUSH1 0x0 MSTORE PUSH1 0x20 PUSH1 0x0 KECCAK256 SWAP1 PUSH1 0x1F ADD PUSH1 0x20 SWAP1 DIV DUP2 ADD SWAP3 DUP3 PUSH3 0x3BF JUMPI PUSH1 0x0 DUP6 SSTORE PUSH3 0x40A JUMP JUMPDEST DUP3 PUSH1 0x1F LT PUSH3 0x3DA JUMPI DUP1 MLOAD PUSH1 0xFF NOT AND DUP4 DUP1 ADD OR DUP6 SSTORE PUSH3 0x40A JUMP JUMPDEST DUP3 DUP1 ADD PUSH1 0x1 ADD DUP6 SSTORE DUP3 ISZERO PUSH3 0x40A JUMPI SWAP2 DUP3 ADD JUMPDEST DUP3 DUP2 GT ISZERO PUSH3 0x40A JUMPI DUP3 MLOAD DUP3 SSTORE SWAP2 PUSH1 0x20 ADD SWAP2 SWAP1 PUSH1 0x1 ADD SWAP1 PUSH3 0x3ED JUMP JUMPDEST POP PUSH3 0x418 SWAP3 SWAP2 POP PUSH3 0x41C JUMP JUMPDEST POP SWAP1 JUMP JUMPDEST JUMPDEST DUP1 DUP3 GT ISZERO PUSH3 0x418 JUMPI PUSH1 0x0 DUP2 SSTORE PUSH1 0x1 ADD PUSH3 0x41D JUMP JUMPDEST PUSH1 0x0 DUP3 PUSH1 0x1F DUP4 ADD SLT PUSH3 0x445 JUMPI PUSH1 0x0 DUP1 REVERT JUMPDEST DUP2 MLOAD PUSH1 0x1 PUSH1 0x1 PUSH1 0x40 SHL SUB DUP1 DUP3 GT ISZERO PUSH3 0x462 JUMPI PUSH3 0x462 PUSH3 0x5E4 JUMP JUMPDEST PUSH1 0x40 MLOAD PUSH1 0x1F DUP4 ADD PUSH1 0x1F NOT SWAP1 DUP2 AND PUSH1 0x3F ADD AND DUP2 ADD SWAP1 DUP3 DUP3 GT DUP2 DUP4 LT OR ISZERO PUSH3 0x48D JUMPI PUSH3 0x48D PUSH3 0x5E4 JUMP JUMPDEST DUP2 PUSH1 0x40 MSTORE DUP4 DUP2 MSTORE PUSH1 0x20 SWAP3 POP DUP7 DUP4 DUP6 DUP9 ADD ADD GT ISZERO PUSH3 0x4AA JUMPI PUSH1 0x0 DUP1 REVERT JUMPDEST PUSH1 0x0 SWAP2 POP JUMPDEST DUP4 DUP3 LT ISZERO PUSH3 0x4CE JUMPI DUP6 DUP3 ADD DUP4 ADD MLOAD DUP2 DUP4 ADD DUP5 ADD MSTORE SWAP1 DUP3 ADD SWAP1 PUSH3 0x4AF JUMP JUMPDEST DUP4 DUP3 GT ISZERO PUSH3 0x4E0 JUMPI PUSH1 0x0 DUP4 DUP6 DUP4 ADD ADD MSTORE JUMPDEST SWAP7 SWAP6 POP POP POP POP POP POP JUMP JUMPDEST PUSH1 0x0 DUP1 PUSH1 0x0 DUP1 PUSH1 0x0 PUSH1 0xA0 DUP7 DUP9 SUB SLT ISZERO PUSH3 0x503 JUMPI PUSH1 0x0 DUP1 REVERT JUMPDEST DUP6 MLOAD PUSH1 0x1 PUSH1 0x1 PUSH1 0x40 SHL SUB DUP1 DUP3 GT ISZERO PUSH3 0x51B JUMPI PUSH1 0x0 DUP1 REVERT JUMPDEST PUSH3 0x529 DUP10 DUP4 DUP11 ADD PUSH3 0x433 JUMP JUMPDEST SWAP7 POP PUSH1 0x20 DUP9 ADD MLOAD SWAP2 POP DUP1 DUP3 GT ISZERO PUSH3 0x540 JUMPI PUSH1 0x0 DUP1 REVERT JUMPDEST POP PUSH3 0x54F DUP9 DUP3 DUP10 ADD PUSH3 0x433 JUMP JUMPDEST SWAP5 POP POP PUSH1 0x40 DUP7 ADD MLOAD PUSH1 0xFF DUP2 AND DUP2 EQ PUSH3 0x567 JUMPI PUSH1 0x0 DUP1 REVERT JUMPDEST PUSH1 0x60 DUP8 ADD MLOAD PUSH1 0x80 SWAP1 SWAP8 ADD MLOAD SWAP6 SWAP9 SWAP5 SWAP8 POP SWAP6 SWAP5 SWAP4 SWAP3 POP POP POP JUMP JUMPDEST PUSH1 0x0 DUP3 NOT DUP3 GT ISZERO PUSH3 0x5A2 JUMPI PUSH4 0x4E487B71 PUSH1 0xE0 SHL PUSH1 0x0 MSTORE PUSH1 0x11 PUSH1 0x4 MSTORE PUSH1 0x24 PUSH1 0x0 REVERT JUMPDEST POP ADD SWAP1 JUMP JUMPDEST PUSH1 0x1 DUP2 DUP2 SHR SWAP1 DUP3 AND DUP1 PUSH3 0x5BC JUMPI PUSH1 0x7F DUP3 AND SWAP2 POP JUMPDEST PUSH1 0x20 DUP3 LT DUP2 EQ ISZERO PUSH3 0x5DE JUMPI PUSH4 0x4E487B71 PUSH1 0xE0 SHL PUSH1 0x0 MSTORE PUSH1 0x22 PUSH1 0x4 MSTORE PUSH1 0x24 PUSH1 0x0 REVERT JUMPDEST POP SWAP2 SWAP1 POP JUMP JUMPDEST PUSH4 0x4E487B71 PUSH1 0xE0 SHL PUSH1 0x0 MSTORE PUSH1 0x41 PUSH1 0x4 MSTORE PUSH1 0x24 PUSH1 0x0 REVERT JUMPDEST PUSH1 0x80 MLOAD PUSH1 0xF8 SHR PUSH1 0xA0 MLOAD PUSH2 0x1E1D PUSH3 0x62A PUSH1 0x0 CODECOPY PUSH1 0x0 DUP2 DUP2 PUSH2 0x327 ADD MSTORE PUSH2 0x176E ADD MSTORE PUSH1 0x0 PUSH2 0x2E8 ADD MSTORE PUSH2 0x1E1D PUSH1 0x0 RETURN INVALID PUSH1 0x80 PUSH1 0x40 MSTORE CALLVALUE DUP1 ISZERO PUSH2 0x10 JUMPI PUSH1 0x0 DUP1 REVERT JUMPDEST POP PUSH1 0x4 CALLDATASIZE LT PUSH2 0x211 JUMPI PUSH1 0x0 CALLDATALOAD PUSH1 0xE0 SHR DUP1 PUSH4 0x70A08231 GT PUSH2 0x125 JUMPI DUP1 PUSH4 0xA457C2D7 GT PUSH2 0xAD JUMPI DUP1 PUSH4 0xD5391393 GT PUSH2 0x7C JUMPI DUP1 PUSH4 0xD5391393 EQ PUSH2 0x4A1 JUMPI DUP1 PUSH4 0xD547741F EQ PUSH2 0x4C8 JUMPI DUP1 PUSH4 0xD8FBE994 EQ PUSH2 0x4DB JUMPI DUP1 PUSH4 0xDD62ED3E EQ PUSH2 0x4EE JUMPI DUP1 PUSH4 0xF2FDE38B EQ PUSH2 0x527 JUMPI PUSH1 0x0 DUP1 REVERT JUMPDEST DUP1 PUSH4 0xA457C2D7 EQ PUSH2 0x455 JUMPI DUP1 PUSH4 0xA9059CBB EQ PUSH2 0x468 JUMPI DUP1 PUSH4 0xC1D34B89 EQ PUSH2 0x47B JUMPI DUP1 PUSH4 0xCAE9CA51 EQ PUSH2 0x48E JUMPI PUSH1 0x0 DUP1 REVERT JUMPDEST DUP1 PUSH4 0x8980F11F GT PUSH2 0xF4 JUMPI DUP1 PUSH4 0x8980F11F EQ PUSH2 0x3F6 JUMPI DUP1 PUSH4 0x8DA5CB5B EQ PUSH2 0x409 JUMPI DUP1 PUSH4 0x91D14854 EQ PUSH2 0x432 JUMPI DUP1 PUSH4 0x95D89B41 EQ PUSH2 0x445 JUMPI DUP1 PUSH4 0xA217FDDF EQ PUSH2 0x44D JUMPI PUSH1 0x0 DUP1 REVERT JUMPDEST DUP1 PUSH4 0x70A08231 EQ PUSH2 0x3AA JUMPI DUP1 PUSH4 0x715018A6 EQ PUSH2 0x3D3 JUMPI DUP1 PUSH4 0x79CC6790 EQ PUSH2 0x3DB JUMPI DUP1 PUSH4 0x7D64BCB4 EQ PUSH2 0x3EE JUMPI PUSH1 0x0 DUP1 REVERT JUMPDEST DUP1 PUSH4 0x2F2FF15D GT PUSH2 0x1A8 JUMPI DUP1 PUSH4 0x36568ABE GT PUSH2 0x177 JUMPI DUP1 PUSH4 0x36568ABE EQ PUSH2 0x34B JUMPI DUP1 PUSH4 0x39509351 EQ PUSH2 0x35E JUMPI DUP1 PUSH4 0x4000AEA0 EQ PUSH2 0x371 JUMPI DUP1 PUSH4 0x40C10F19 EQ PUSH2 0x384 JUMPI DUP1 PUSH4 0x42966C68 EQ PUSH2 0x397 JUMPI PUSH1 0x0 DUP1 REVERT JUMPDEST DUP1 PUSH4 0x2F2FF15D EQ PUSH2 0x2CC JUMPI DUP1 PUSH4 0x313CE567 EQ PUSH2 0x2E1 JUMPI DUP1 PUSH4 0x3177029F EQ PUSH2 0x312 JUMPI DUP1 PUSH4 0x355274EA EQ PUSH2 0x325 JUMPI PUSH1 0x0 DUP1 REVERT JUMPDEST DUP1 PUSH4 0x1296EE62 GT PUSH2 0x1E4 JUMPI DUP1 PUSH4 0x1296EE62 EQ PUSH2 0x271 JUMPI DUP1 PUSH4 0x18160DDD EQ PUSH2 0x284 JUMPI DUP1 PUSH4 0x23B872DD EQ PUSH2 0x296 JUMPI DUP1 PUSH4 0x248A9CA3 EQ PUSH2 0x2A9 JUMPI PUSH1 0x0 DUP1 REVERT JUMPDEST DUP1 PUSH4 0x1FFC9A7 EQ PUSH2 0x216 JUMPI DUP1 PUSH4 0x5D2035B EQ PUSH2 0x23E JUMPI DUP1 PUSH4 0x6FDDE03 EQ PUSH2 0x249 JUMPI DUP1 PUSH4 0x95EA7B3 EQ PUSH2 0x25E JUMPI JUMPDEST PUSH1 0x0 DUP1 REVERT JUMPDEST PUSH2 0x229 PUSH2 0x224 CALLDATASIZE PUSH1 0x4 PUSH2 0x1AAB JUMP JUMPDEST PUSH2 0x53A JUMP JUMPDEST PUSH1 0x40 MLOAD SWAP1 ISZERO ISZERO DUP2 MSTORE PUSH1 0x20 ADD JUMPDEST PUSH1 0x40 MLOAD DUP1 SWAP2 SUB SWAP1 RETURN JUMPDEST PUSH1 0x5 SLOAD PUSH1 0xFF AND PUSH2 0x229 JUMP JUMPDEST PUSH2 0x251 PUSH2 0x54B JUMP JUMPDEST PUSH1 0x40 MLOAD PUSH2 0x235 SWAP2 SWAP1 PUSH2 0x1BF3 JUMP JUMPDEST PUSH2 0x229 PUSH2 0x26C CALLDATASIZE PUSH1 0x4 PUSH2 0x19CC JUMP JUMPDEST PUSH2 0x5DD JUMP JUMPDEST PUSH2 0x229 PUSH2 0x27F CALLDATASIZE PUSH1 0x4 PUSH2 0x19CC JUMP JUMPDEST PUSH2 0x5F3 JUMP JUMPDEST PUSH1 0x2 SLOAD JUMPDEST PUSH1 0x40 MLOAD SWAP1 DUP2 MSTORE PUSH1 0x20 ADD PUSH2 0x235 JUMP JUMPDEST PUSH2 0x229 PUSH2 0x2A4 CALLDATASIZE PUSH1 0x4 PUSH2 0x1928 JUMP JUMPDEST PUSH2 0x616 JUMP JUMPDEST PUSH2 0x288 PUSH2 0x2B7 CALLDATASIZE PUSH1 0x4 PUSH2 0x1A6F JUMP JUMPDEST PUSH1 0x0 SWAP1 DUP2 MSTORE PUSH1 0x6 PUSH1 0x20 MSTORE PUSH1 0x40 SWAP1 KECCAK256 PUSH1 0x1 ADD SLOAD SWAP1 JUMP JUMPDEST PUSH2 0x2DF PUSH2 0x2DA CALLDATASIZE PUSH1 0x4 PUSH2 0x1A88 JUMP JUMPDEST PUSH2 0x6C5 JUMP JUMPDEST STOP JUMPDEST PUSH1 0x40 MLOAD PUSH1 0xFF PUSH32 0x0 AND DUP2 MSTORE PUSH1 0x20 ADD PUSH2 0x235 JUMP JUMPDEST PUSH2 0x229 PUSH2 0x320 CALLDATASIZE PUSH1 0x4 PUSH2 0x19CC JUMP JUMPDEST PUSH2 0x6F0 JUMP JUMPDEST PUSH32 0x0 PUSH2 0x288 JUMP JUMPDEST PUSH2 0x2DF PUSH2 0x359 CALLDATASIZE PUSH1 0x4 PUSH2 0x1A88 JUMP JUMPDEST PUSH2 0x70C JUMP JUMPDEST PUSH2 0x229 PUSH2 0x36C CALLDATASIZE PUSH1 0x4 PUSH2 0x19CC JUMP JUMPDEST PUSH2 0x78A JUMP JUMPDEST PUSH2 0x229 PUSH2 0x37F CALLDATASIZE PUSH1 0x4 PUSH2 0x19F6 JUMP JUMPDEST PUSH2 0x7C6 JUMP JUMPDEST PUSH2 0x2DF PUSH2 0x392 CALLDATASIZE PUSH1 0x4 PUSH2 0x19CC JUMP JUMPDEST PUSH2 0x805 JUMP JUMPDEST PUSH2 0x2DF PUSH2 0x3A5 CALLDATASIZE PUSH1 0x4 PUSH2 0x1A6F JUMP JUMPDEST PUSH2 0x832 JUMP JUMPDEST PUSH2 0x288 PUSH2 0x3B8 CALLDATASIZE PUSH1 0x4 PUSH2 0x18DA JUMP JUMPDEST PUSH1 0x1 PUSH1 0x1 PUSH1 0xA0 SHL SUB AND PUSH1 0x0 SWAP1 DUP2 MSTORE PUSH1 0x20 DUP2 SWAP1 MSTORE PUSH1 0x40 SWAP1 KECCAK256 SLOAD SWAP1 JUMP JUMPDEST PUSH2 0x2DF PUSH2 0x83F JUMP JUMPDEST PUSH2 0x2DF PUSH2 0x3E9 CALLDATASIZE PUSH1 0x4 PUSH2 0x19CC JUMP JUMPDEST PUSH2 0x87B JUMP JUMPDEST PUSH2 0x2DF PUSH2 0x8FC JUMP JUMPDEST PUSH2 0x2DF PUSH2 0x404 CALLDATASIZE PUSH1 0x4 PUSH2 0x19CC JUMP JUMPDEST PUSH2 0x927 JUMP JUMPDEST PUSH1 0x5 SLOAD PUSH2 0x100 SWAP1 DIV PUSH1 0x1 PUSH1 0x1 PUSH1 0xA0 SHL SUB AND PUSH1 0x40 MLOAD PUSH1 0x1 PUSH1 0x1 PUSH1 0xA0 SHL SUB SWAP1 SWAP2 AND DUP2 MSTORE PUSH1 0x20 ADD PUSH2 0x235 JUMP JUMPDEST PUSH2 0x229 PUSH2 0x440 CALLDATASIZE PUSH1 0x4 PUSH2 0x1A88 JUMP JUMPDEST PUSH2 0x9FE JUMP JUMPDEST PUSH2 0x251 PUSH2 0xA29 JUMP JUMPDEST PUSH2 0x288 PUSH1 0x0 DUP2 JUMP JUMPDEST PUSH2 0x229 PUSH2 0x463 CALLDATASIZE PUSH1 0x4 PUSH2 0x19CC JUMP JUMPDEST PUSH2 0xA38 JUMP JUMPDEST PUSH2 0x229 PUSH2 0x476 CALLDATASIZE PUSH1 0x4 PUSH2 0x19CC JUMP JUMPDEST PUSH2 0xAC7 JUMP JUMPDEST PUSH2 0x229 PUSH2 0x489 CALLDATASIZE PUSH1 0x4 PUSH2 0x1964 JUMP JUMPDEST PUSH2 0xAD4 JUMP JUMPDEST PUSH2 0x229 PUSH2 0x49C CALLDATASIZE PUSH1 0x4 PUSH2 0x19F6 JUMP JUMPDEST PUSH2 0xB12 JUMP JUMPDEST PUSH2 0x288 PUSH32 0xF0887BA65EE2024EA881D91B74C2450EF19E1557F03BED3EA9F16B037CBE2DC9 DUP2 JUMP JUMPDEST PUSH2 0x2DF PUSH2 0x4D6 CALLDATASIZE PUSH1 0x4 PUSH2 0x1A88 JUMP JUMPDEST PUSH2 0xB84 JUMP JUMPDEST PUSH2 0x229 PUSH2 0x4E9 CALLDATASIZE PUSH1 0x4 PUSH2 0x1928 JUMP JUMPDEST PUSH2 0xBAA JUMP JUMPDEST PUSH2 0x288 PUSH2 0x4FC CALLDATASIZE PUSH1 0x4 PUSH2 0x18F5 JUMP JUMPDEST PUSH1 0x1 PUSH1 0x1 PUSH1 0xA0 SHL SUB SWAP2 DUP3 AND PUSH1 0x0 SWAP1 DUP2 MSTORE PUSH1 0x1 PUSH1 0x20 SWAP1 DUP2 MSTORE PUSH1 0x40 DUP1 DUP4 KECCAK256 SWAP4 SWAP1 SWAP5 AND DUP3 MSTORE SWAP2 SWAP1 SWAP2 MSTORE KECCAK256 SLOAD SWAP1 JUMP JUMPDEST PUSH2 0x2DF PUSH2 0x535 CALLDATASIZE PUSH1 0x4 PUSH2 0x18DA JUMP JUMPDEST PUSH2 0xBC7 JUMP JUMPDEST PUSH1 0x0 PUSH2 0x545 DUP3 PUSH2 0xD44 JUMP JUMPDEST SWAP3 SWAP2 POP POP JUMP JUMPDEST PUSH1 0x60 PUSH1 0x3 DUP1 SLOAD PUSH2 0x55A SWAP1 PUSH2 0x1D54 JUMP JUMPDEST DUP1 PUSH1 0x1F ADD PUSH1 0x20 DUP1 SWAP2 DIV MUL PUSH1 0x20 ADD PUSH1 0x40 MLOAD SWAP1 DUP2 ADD PUSH1 0x40 MSTORE DUP1 SWAP3 SWAP2 SWAP1 DUP2 DUP2 MSTORE PUSH1 0x20 ADD DUP3 DUP1 SLOAD PUSH2 0x586 SWAP1 PUSH2 0x1D54 JUMP JUMPDEST DUP1 ISZERO PUSH2 0x5D3 JUMPI DUP1 PUSH1 0x1F LT PUSH2 0x5A8 JUMPI PUSH2 0x100 DUP1 DUP4 SLOAD DIV MUL DUP4 MSTORE SWAP2 PUSH1 0x20 ADD SWAP2 PUSH2 0x5D3 JUMP JUMPDEST DUP3 ADD SWAP2 SWAP1 PUSH1 0x0 MSTORE PUSH1 0x20 PUSH1 0x0 KECCAK256 SWAP1 JUMPDEST DUP2 SLOAD DUP2 MSTORE SWAP1 PUSH1 0x1 ADD SWAP1 PUSH1 0x20 ADD DUP1 DUP4 GT PUSH2 0x5B6 JUMPI DUP3 SWAP1 SUB PUSH1 0x1F AND DUP3 ADD SWAP2 JUMPDEST POP POP POP POP POP SWAP1 POP SWAP1 JUMP JUMPDEST PUSH1 0x0 PUSH2 0x5EA CALLER DUP5 DUP5 PUSH2 0xD69 JUMP JUMPDEST POP PUSH1 0x1 SWAP3 SWAP2 POP POP JUMP JUMPDEST PUSH1 0x0 PUSH2 0x60F DUP4 DUP4 PUSH1 0x40 MLOAD DUP1 PUSH1 0x20 ADD PUSH1 0x40 MSTORE DUP1 PUSH1 0x0 DUP2 MSTORE POP PUSH2 0x7C6 JUMP JUMPDEST SWAP4 SWAP3 POP POP POP JUMP JUMPDEST PUSH1 0x0 PUSH2 0x623 DUP5 DUP5 DUP5 PUSH2 0xE8D JUMP JUMPDEST PUSH1 0x1 PUSH1 0x1 PUSH1 0xA0 SHL SUB DUP5 AND PUSH1 0x0 SWAP1 DUP2 MSTORE PUSH1 0x1 PUSH1 0x20 SWAP1 DUP2 MSTORE PUSH1 0x40 DUP1 DUP4 KECCAK256 CALLER DUP5 MSTORE SWAP1 SWAP2 MSTORE SWAP1 KECCAK256 SLOAD DUP3 DUP2 LT ISZERO PUSH2 0x6AD JUMPI PUSH1 0x40 MLOAD PUSH3 0x461BCD PUSH1 0xE5 SHL DUP2 MSTORE PUSH1 0x20 PUSH1 0x4 DUP3 ADD MSTORE PUSH1 0x28 PUSH1 0x24 DUP3 ADD MSTORE PUSH32 0x45524332303A207472616E7366657220616D6F756E7420657863656564732061 PUSH1 0x44 DUP3 ADD MSTORE PUSH8 0x6C6C6F77616E6365 PUSH1 0xC0 SHL PUSH1 0x64 DUP3 ADD MSTORE PUSH1 0x84 ADD JUMPDEST PUSH1 0x40 MLOAD DUP1 SWAP2 SUB SWAP1 REVERT JUMPDEST PUSH2 0x6BA DUP6 CALLER DUP6 DUP5 SUB PUSH2 0xD69 JUMP JUMPDEST POP PUSH1 0x1 SWAP5 SWAP4 POP POP POP POP JUMP JUMPDEST PUSH1 0x0 DUP3 DUP2 MSTORE PUSH1 0x6 PUSH1 0x20 MSTORE PUSH1 0x40 SWAP1 KECCAK256 PUSH1 0x1 ADD SLOAD PUSH2 0x6E1 DUP2 CALLER PUSH2 0x105D JUMP JUMPDEST PUSH2 0x6EB DUP4 DUP4 PUSH2 0x10C1 JUMP JUMPDEST POP POP POP JUMP JUMPDEST PUSH1 0x0 PUSH2 0x60F DUP4 DUP4 PUSH1 0x40 MLOAD DUP1 PUSH1 0x20 ADD PUSH1 0x40 MSTORE DUP1 PUSH1 0x0 DUP2 MSTORE POP PUSH2 0xB12 JUMP JUMPDEST PUSH1 0x1 PUSH1 0x1 PUSH1 0xA0 SHL SUB DUP2 AND CALLER EQ PUSH2 0x77C JUMPI PUSH1 0x40 MLOAD PUSH3 0x461BCD PUSH1 0xE5 SHL DUP2 MSTORE PUSH1 0x20 PUSH1 0x4 DUP3 ADD MSTORE PUSH1 0x2F PUSH1 0x24 DUP3 ADD MSTORE PUSH32 0x416363657373436F6E74726F6C3A2063616E206F6E6C792072656E6F756E6365 PUSH1 0x44 DUP3 ADD MSTORE PUSH15 0x103937B632B9903337B91039B2B633 PUSH1 0x89 SHL PUSH1 0x64 DUP3 ADD MSTORE PUSH1 0x84 ADD PUSH2 0x6A4 JUMP JUMPDEST PUSH2 0x786 DUP3 DUP3 PUSH2 0x1147 JUMP JUMPDEST POP POP JUMP JUMPDEST CALLER PUSH1 0x0 DUP2 DUP2 MSTORE PUSH1 0x1 PUSH1 0x20 SWAP1 DUP2 MSTORE PUSH1 0x40 DUP1 DUP4 KECCAK256 PUSH1 0x1 PUSH1 0x1 PUSH1 0xA0 SHL SUB DUP8 AND DUP5 MSTORE SWAP1 SWAP2 MSTORE DUP2 KECCAK256 SLOAD SWAP1 SWAP2 PUSH2 0x5EA SWAP2 DUP6 SWAP1 PUSH2 0x7C1 SWAP1 DUP7 SWAP1 PUSH2 0x1CC3 JUMP JUMPDEST PUSH2 0xD69 JUMP JUMPDEST PUSH1 0x0 PUSH2 0x7D2 DUP5 DUP5 PUSH2 0xAC7 JUMP JUMPDEST POP PUSH2 0x7DF CALLER DUP6 DUP6 DUP6 PUSH2 0x11AE JUMP JUMPDEST PUSH2 0x7FB JUMPI PUSH1 0x40 MLOAD PUSH3 0x461BCD PUSH1 0xE5 SHL DUP2 MSTORE PUSH1 0x4 ADD PUSH2 0x6A4 SWAP1 PUSH2 0x1C06 JUMP JUMPDEST POP PUSH1 0x1 SWAP4 SWAP3 POP POP POP JUMP JUMPDEST PUSH1 0x5 SLOAD PUSH1 0xFF AND ISZERO PUSH2 0x828 JUMPI PUSH1 0x40 MLOAD PUSH3 0x461BCD PUSH1 0xE5 SHL DUP2 MSTORE PUSH1 0x4 ADD PUSH2 0x6A4 SWAP1 PUSH2 0x1C81 JUMP JUMPDEST PUSH2 0x786 DUP3 DUP3 PUSH2 0x126C JUMP JUMPDEST PUSH2 0x83C CALLER DUP3 PUSH2 0x1300 JUMP JUMPDEST POP JUMP JUMPDEST PUSH1 0x5 SLOAD PUSH1 0x1 PUSH1 0x1 PUSH1 0xA0 SHL SUB PUSH2 0x100 SWAP1 SWAP2 DIV AND CALLER EQ PUSH2 0x86F JUMPI PUSH1 0x40 MLOAD PUSH3 0x461BCD PUSH1 0xE5 SHL DUP2 MSTORE PUSH1 0x4 ADD PUSH2 0x6A4 SWAP1 PUSH2 0x1C4C JUMP JUMPDEST PUSH2 0x879 PUSH1 0x0 PUSH2 0x144E JUMP JUMPDEST JUMP JUMPDEST PUSH1 0x0 PUSH2 0x887 DUP4 CALLER PUSH2 0x4FC JUMP JUMPDEST SWAP1 POP DUP2 DUP2 LT ISZERO PUSH2 0x8E5 JUMPI PUSH1 0x40 MLOAD PUSH3 0x461BCD PUSH1 0xE5 SHL DUP2 MSTORE PUSH1 0x20 PUSH1 0x4 DUP3 ADD MSTORE PUSH1 0x24 DUP1 DUP3 ADD MSTORE PUSH32 0x45524332303A206275726E20616D6F756E74206578636565647320616C6C6F77 PUSH1 0x44 DUP3 ADD MSTORE PUSH4 0x616E6365 PUSH1 0xE0 SHL PUSH1 0x64 DUP3 ADD MSTORE PUSH1 0x84 ADD PUSH2 0x6A4 JUMP JUMPDEST PUSH2 0x8F2 DUP4 CALLER DUP5 DUP5 SUB PUSH2 0xD69 JUMP JUMPDEST PUSH2 0x6EB DUP4 DUP4 PUSH2 0x1300 JUMP JUMPDEST PUSH1 0x5 SLOAD PUSH1 0xFF AND ISZERO PUSH2 0x91F JUMPI PUSH1 0x40 MLOAD PUSH3 0x461BCD PUSH1 0xE5 SHL DUP2 MSTORE PUSH1 0x4 ADD PUSH2 0x6A4 SWAP1 PUSH2 0x1C81 JUMP JUMPDEST PUSH2 0x879 PUSH2 0x14A8 JUMP JUMPDEST PUSH1 0x5 SLOAD PUSH1 0x1 PUSH1 0x1 PUSH1 0xA0 SHL SUB PUSH2 0x100 SWAP1 SWAP2 DIV AND CALLER EQ PUSH2 0x957 JUMPI PUSH1 0x40 MLOAD PUSH3 0x461BCD PUSH1 0xE5 SHL DUP2 MSTORE PUSH1 0x4 ADD PUSH2 0x6A4 SWAP1 PUSH2 0x1C4C JUMP JUMPDEST DUP2 PUSH1 0x1 PUSH1 0x1 PUSH1 0xA0 SHL SUB AND PUSH4 0xA9059CBB PUSH2 0x97E PUSH1 0x5 SLOAD PUSH1 0x1 PUSH1 0x1 PUSH1 0xA0 SHL SUB PUSH2 0x100 SWAP1 SWAP2 DIV AND SWAP1 JUMP JUMPDEST PUSH1 0x40 MLOAD PUSH1 0x1 PUSH1 0x1 PUSH1 0xE0 SHL SUB NOT PUSH1 0xE0 DUP5 SWAP1 SHL AND DUP2 MSTORE PUSH1 0x1 PUSH1 0x1 PUSH1 0xA0 SHL SUB SWAP1 SWAP2 AND PUSH1 0x4 DUP3 ADD MSTORE PUSH1 0x24 DUP2 ADD DUP5 SWAP1 MSTORE PUSH1 0x44 ADD PUSH1 0x20 PUSH1 0x40 MLOAD DUP1 DUP4 SUB DUP2 PUSH1 0x0 DUP8 DUP1 EXTCODESIZE ISZERO DUP1 ISZERO PUSH2 0x9C6 JUMPI PUSH1 0x0 DUP1 REVERT JUMPDEST POP GAS CALL ISZERO DUP1 ISZERO PUSH2 0x9DA JUMPI RETURNDATASIZE PUSH1 0x0 DUP1 RETURNDATACOPY RETURNDATASIZE PUSH1 0x0 REVERT JUMPDEST POP POP POP POP PUSH1 0x40 MLOAD RETURNDATASIZE PUSH1 0x1F NOT PUSH1 0x1F DUP3 ADD AND DUP3 ADD DUP1 PUSH1 0x40 MSTORE POP DUP2 ADD SWAP1 PUSH2 0x6EB SWAP2 SWAP1 PUSH2 0x1A4D JUMP JUMPDEST PUSH1 0x0 SWAP2 DUP3 MSTORE PUSH1 0x6 PUSH1 0x20 SWAP1 DUP2 MSTORE PUSH1 0x40 DUP1 DUP5 KECCAK256 PUSH1 0x1 PUSH1 0x1 PUSH1 0xA0 SHL SUB SWAP4 SWAP1 SWAP4 AND DUP5 MSTORE SWAP2 SWAP1 MSTORE SWAP1 KECCAK256 SLOAD PUSH1 0xFF AND SWAP1 JUMP JUMPDEST PUSH1 0x60 PUSH1 0x4 DUP1 SLOAD PUSH2 0x55A SWAP1 PUSH2 0x1D54 JUMP JUMPDEST CALLER PUSH1 0x0 SWAP1 DUP2 MSTORE PUSH1 0x1 PUSH1 0x20 SWAP1 DUP2 MSTORE PUSH1 0x40 DUP1 DUP4 KECCAK256 PUSH1 0x1 PUSH1 0x1 PUSH1 0xA0 SHL SUB DUP7 AND DUP5 MSTORE SWAP1 SWAP2 MSTORE DUP2 KECCAK256 SLOAD DUP3 DUP2 LT ISZERO PUSH2 0xABA JUMPI PUSH1 0x40 MLOAD PUSH3 0x461BCD PUSH1 0xE5 SHL DUP2 MSTORE PUSH1 0x20 PUSH1 0x4 DUP3 ADD MSTORE PUSH1 0x25 PUSH1 0x24 DUP3 ADD MSTORE PUSH32 0x45524332303A2064656372656173656420616C6C6F77616E63652062656C6F77 PUSH1 0x44 DUP3 ADD MSTORE PUSH5 0x207A65726F PUSH1 0xD8 SHL PUSH1 0x64 DUP3 ADD MSTORE PUSH1 0x84 ADD PUSH2 0x6A4 JUMP JUMPDEST PUSH2 0x7FB CALLER DUP6 DUP6 DUP5 SUB PUSH2 0xD69 JUMP JUMPDEST PUSH1 0x0 PUSH2 0x5EA CALLER DUP5 DUP5 PUSH2 0xE8D JUMP JUMPDEST PUSH1 0x0 PUSH2 0xAE1 DUP6 DUP6 DUP6 PUSH2 0x616 JUMP JUMPDEST POP PUSH2 0xAEE DUP6 DUP6 DUP6 DUP6 PUSH2 0x11AE JUMP JUMPDEST PUSH2 0x6BA JUMPI PUSH1 0x40 MLOAD PUSH3 0x461BCD PUSH1 0xE5 SHL DUP2 MSTORE PUSH1 0x4 ADD PUSH2 0x6A4 SWAP1 PUSH2 0x1C06 JUMP JUMPDEST SWAP5 SWAP4 POP POP POP POP JUMP JUMPDEST PUSH1 0x0 PUSH2 0xB1E DUP5 DUP5 PUSH2 0x5DD JUMP JUMPDEST POP PUSH2 0xB2A DUP5 DUP5 DUP5 PUSH2 0x14E0 JUMP JUMPDEST PUSH2 0x7FB JUMPI PUSH1 0x40 MLOAD PUSH3 0x461BCD PUSH1 0xE5 SHL DUP2 MSTORE PUSH1 0x20 PUSH1 0x4 DUP3 ADD MSTORE PUSH1 0x25 PUSH1 0x24 DUP3 ADD MSTORE PUSH32 0x455243313336333A205F636865636B416E6443616C6C417070726F7665207265 PUSH1 0x44 DUP3 ADD MSTORE PUSH5 0x7665727473 PUSH1 0xD8 SHL PUSH1 0x64 DUP3 ADD MSTORE PUSH1 0x84 ADD PUSH2 0x6A4 JUMP JUMPDEST PUSH1 0x0 DUP3 DUP2 MSTORE PUSH1 0x6 PUSH1 0x20 MSTORE PUSH1 0x40 SWAP1 KECCAK256 PUSH1 0x1 ADD SLOAD PUSH2 0xBA0 DUP2 CALLER PUSH2 0x105D JUMP JUMPDEST PUSH2 0x6EB DUP4 DUP4 PUSH2 0x1147 JUMP JUMPDEST PUSH1 0x0 PUSH2 0xB0A DUP5 DUP5 DUP5 PUSH1 0x40 MLOAD DUP1 PUSH1 0x20 ADD PUSH1 0x40 MSTORE DUP1 PUSH1 0x0 DUP2 MSTORE POP PUSH2 0xAD4 JUMP JUMPDEST PUSH1 0x5 SLOAD PUSH1 0x1 PUSH1 0x1 PUSH1 0xA0 SHL SUB PUSH2 0x100 SWAP1 SWAP2 DIV AND CALLER EQ PUSH2 0xBF7 JUMPI PUSH1 0x40 MLOAD PUSH3 0x461BCD PUSH1 0xE5 SHL DUP2 MSTORE PUSH1 0x4 ADD PUSH2 0x6A4 SWAP1 PUSH2 0x1C4C JUMP JUMPDEST PUSH1 0x1 PUSH1 0x1 PUSH1 0xA0 SHL SUB DUP2 AND PUSH2 0xC5C JUMPI PUSH1 0x40 MLOAD PUSH3 0x461BCD PUSH1 0xE5 SHL DUP2 MSTORE PUSH1 0x20 PUSH1 0x4 DUP3 ADD MSTORE PUSH1 0x26 PUSH1 0x24 DUP3 ADD MSTORE PUSH32 0x4F776E61626C653A206E6577206F776E657220697320746865207A65726F2061 PUSH1 0x44 DUP3 ADD MSTORE PUSH6 0x646472657373 PUSH1 0xD0 SHL PUSH1 0x64 DUP3 ADD MSTORE PUSH1 0x84 ADD PUSH2 0x6A4 JUMP JUMPDEST PUSH2 0x83C DUP2 PUSH2 0x144E JUMP JUMPDEST PUSH1 0x1 PUSH1 0x1 PUSH1 0xA0 SHL SUB DUP3 AND PUSH2 0xCBB JUMPI PUSH1 0x40 MLOAD PUSH3 0x461BCD PUSH1 0xE5 SHL DUP2 MSTORE PUSH1 0x20 PUSH1 0x4 DUP3 ADD MSTORE PUSH1 0x1F PUSH1 0x24 DUP3 ADD MSTORE PUSH32 0x45524332303A206D696E7420746F20746865207A65726F206164647265737300 PUSH1 0x44 DUP3 ADD MSTORE PUSH1 0x64 ADD PUSH2 0x6A4 JUMP JUMPDEST DUP1 PUSH1 0x2 PUSH1 0x0 DUP3 DUP3 SLOAD PUSH2 0xCCD SWAP2 SWAP1 PUSH2 0x1CC3 JUMP JUMPDEST SWAP1 SWAP2 SSTORE POP POP PUSH1 0x1 PUSH1 0x1 PUSH1 0xA0 SHL SUB DUP3 AND PUSH1 0x0 SWAP1 DUP2 MSTORE PUSH1 0x20 DUP2 SWAP1 MSTORE PUSH1 0x40 DUP2 KECCAK256 DUP1 SLOAD DUP4 SWAP3 SWAP1 PUSH2 0xCFA SWAP1 DUP5 SWAP1 PUSH2 0x1CC3 JUMP JUMPDEST SWAP1 SWAP2 SSTORE POP POP PUSH1 0x40 MLOAD DUP2 DUP2 MSTORE PUSH1 0x1 PUSH1 0x1 PUSH1 0xA0 SHL SUB DUP4 AND SWAP1 PUSH1 0x0 SWAP1 PUSH32 0xDDF252AD1BE2C89B69C2B068FC378DAA952BA7F163C4A11628F55A4DF523B3EF SWAP1 PUSH1 0x20 ADD PUSH1 0x40 MLOAD DUP1 SWAP2 SUB SWAP1 LOG3 POP POP JUMP JUMPDEST PUSH1 0x0 PUSH1 0x1 PUSH1 0x1 PUSH1 0xE0 SHL SUB NOT DUP3 AND PUSH4 0x7965DB0B PUSH1 0xE0 SHL EQ DUP1 PUSH2 0x545 JUMPI POP PUSH2 0x545 DUP3 PUSH2 0x159B JUMP JUMPDEST PUSH1 0x1 PUSH1 0x1 PUSH1 0xA0 SHL SUB DUP4 AND PUSH2 0xDCB JUMPI PUSH1 0x40 MLOAD PUSH3 0x461BCD PUSH1 0xE5 SHL DUP2 MSTORE PUSH1 0x20 PUSH1 0x4 DUP3 ADD MSTORE PUSH1 0x24 DUP1 DUP3 ADD MSTORE PUSH32 0x45524332303A20617070726F76652066726F6D20746865207A65726F20616464 PUSH1 0x44 DUP3 ADD MSTORE PUSH4 0x72657373 PUSH1 0xE0 SHL PUSH1 0x64 DUP3 ADD MSTORE PUSH1 0x84 ADD PUSH2 0x6A4 JUMP JUMPDEST PUSH1 0x1 PUSH1 0x1 PUSH1 0xA0 SHL SUB DUP3 AND PUSH2 0xE2C JUMPI PUSH1 0x40 MLOAD PUSH3 0x461BCD PUSH1 0xE5 SHL DUP2 MSTORE PUSH1 0x20 PUSH1 0x4 DUP3 ADD MSTORE PUSH1 0x22 PUSH1 0x24 DUP3 ADD MSTORE PUSH32 0x45524332303A20617070726F766520746F20746865207A65726F206164647265 PUSH1 0x44 DUP3 ADD MSTORE PUSH2 0x7373 PUSH1 0xF0 SHL PUSH1 0x64 DUP3 ADD MSTORE PUSH1 0x84 ADD PUSH2 0x6A4 JUMP JUMPDEST PUSH1 0x1 PUSH1 0x1 PUSH1 0xA0 SHL SUB DUP4 DUP2 AND PUSH1 0x0 DUP2 DUP2 MSTORE PUSH1 0x1 PUSH1 0x20 SWAP1 DUP2 MSTORE PUSH1 0x40 DUP1 DUP4 KECCAK256 SWAP5 DUP8 AND DUP1 DUP5 MSTORE SWAP5 DUP3 MSTORE SWAP2 DUP3 SWAP1 KECCAK256 DUP6 SWAP1 SSTORE SWAP1 MLOAD DUP5 DUP2 MSTORE PUSH32 0x8C5BE1E5EBEC7D5BD14F71427D1E84F3DD0314C0F7B2291E5B200AC8C7C3B925 SWAP2 ADD PUSH1 0x40 MLOAD DUP1 SWAP2 SUB SWAP1 LOG3 POP POP POP JUMP JUMPDEST PUSH1 0x1 PUSH1 0x1 PUSH1 0xA0 SHL SUB DUP4 AND PUSH2 0xEF1 JUMPI PUSH1 0x40 MLOAD PUSH3 0x461BCD PUSH1 0xE5 SHL DUP2 MSTORE PUSH1 0x20 PUSH1 0x4 DUP3 ADD MSTORE PUSH1 0x25 PUSH1 0x24 DUP3 ADD MSTORE PUSH32 0x45524332303A207472616E736665722066726F6D20746865207A65726F206164 PUSH1 0x44 DUP3 ADD MSTORE PUSH5 0x6472657373 PUSH1 0xD8 SHL PUSH1 0x64 DUP3 ADD MSTORE PUSH1 0x84 ADD PUSH2 0x6A4 JUMP JUMPDEST PUSH1 0x1 PUSH1 0x1 PUSH1 0xA0 SHL SUB DUP3 AND PUSH2 0xF53 JUMPI PUSH1 0x40 MLOAD PUSH3 0x461BCD PUSH1 0xE5 SHL DUP2 MSTORE PUSH1 0x20 PUSH1 0x4 DUP3 ADD MSTORE PUSH1 0x23 PUSH1 0x24 DUP3 ADD MSTORE PUSH32 0x45524332303A207472616E7366657220746F20746865207A65726F2061646472 PUSH1 0x44 DUP3 ADD MSTORE PUSH3 0x657373 PUSH1 0xE8 SHL PUSH1 0x64 DUP3 ADD MSTORE PUSH1 0x84 ADD PUSH2 0x6A4 JUMP JUMPDEST PUSH1 0x1 PUSH1 0x1 PUSH1 0xA0 SHL SUB DUP4 AND PUSH1 0x0 SWAP1 DUP2 MSTORE PUSH1 0x20 DUP2 SWAP1 MSTORE PUSH1 0x40 SWAP1 KECCAK256 SLOAD DUP2 DUP2 LT ISZERO PUSH2 0xFCB JUMPI PUSH1 0x40 MLOAD PUSH3 0x461BCD PUSH1 0xE5 SHL DUP2 MSTORE PUSH1 0x20 PUSH1 0x4 DUP3 ADD MSTORE PUSH1 0x26 PUSH1 0x24 DUP3 ADD MSTORE PUSH32 0x45524332303A207472616E7366657220616D6F756E7420657863656564732062 PUSH1 0x44 DUP3 ADD MSTORE PUSH6 0x616C616E6365 PUSH1 0xD0 SHL PUSH1 0x64 DUP3 ADD MSTORE PUSH1 0x84 ADD PUSH2 0x6A4 JUMP JUMPDEST PUSH1 0x1 PUSH1 0x1 PUSH1 0xA0 SHL SUB DUP1 DUP6 AND PUSH1 0x0 SWAP1 DUP2 MSTORE PUSH1 0x20 DUP2 SWAP1 MSTORE PUSH1 0x40 DUP1 DUP3 KECCAK256 DUP6 DUP6 SUB SWAP1 SSTORE SWAP2 DUP6 AND DUP2 MSTORE SWAP1 DUP2 KECCAK256 DUP1 SLOAD DUP5 SWAP3 SWAP1 PUSH2 0x1002 SWAP1 DUP5 SWAP1 PUSH2 0x1CC3 JUMP JUMPDEST SWAP3 POP POP DUP2 SWAP1 SSTORE POP DUP3 PUSH1 0x1 PUSH1 0x1 PUSH1 0xA0 SHL SUB AND DUP5 PUSH1 0x1 PUSH1 0x1 PUSH1 0xA0 SHL SUB AND PUSH32 0xDDF252AD1BE2C89B69C2B068FC378DAA952BA7F163C4A11628F55A4DF523B3EF DUP5 PUSH1 0x40 MLOAD PUSH2 0x104E SWAP2 DUP2 MSTORE PUSH1 0x20 ADD SWAP1 JUMP JUMPDEST PUSH1 0x40 MLOAD DUP1 SWAP2 SUB SWAP1 LOG3 JUMPDEST POP POP POP POP JUMP JUMPDEST PUSH2 0x1067 DUP3 DUP3 PUSH2 0x9FE JUMP JUMPDEST PUSH2 0x786 JUMPI PUSH2 0x107F DUP2 PUSH1 0x1 PUSH1 0x1 PUSH1 0xA0 SHL SUB AND PUSH1 0x14 PUSH2 0x15D0 JUMP JUMPDEST PUSH2 0x108A DUP4 PUSH1 0x20 PUSH2 0x15D0 JUMP JUMPDEST PUSH1 0x40 MLOAD PUSH1 0x20 ADD PUSH2 0x109B SWAP3 SWAP2 SWAP1 PUSH2 0x1B11 JUMP JUMPDEST PUSH1 0x40 DUP1 MLOAD PUSH1 0x1F NOT DUP2 DUP5 SUB ADD DUP2 MSTORE SWAP1 DUP3 SWAP1 MSTORE PUSH3 0x461BCD PUSH1 0xE5 SHL DUP3 MSTORE PUSH2 0x6A4 SWAP2 PUSH1 0x4 ADD PUSH2 0x1BF3 JUMP JUMPDEST PUSH2 0x10CB DUP3 DUP3 PUSH2 0x9FE JUMP JUMPDEST PUSH2 0x786 JUMPI PUSH1 0x0 DUP3 DUP2 MSTORE PUSH1 0x6 PUSH1 0x20 SWAP1 DUP2 MSTORE PUSH1 0x40 DUP1 DUP4 KECCAK256 PUSH1 0x1 PUSH1 0x1 PUSH1 0xA0 SHL SUB DUP6 AND DUP5 MSTORE SWAP1 SWAP2 MSTORE SWAP1 KECCAK256 DUP1 SLOAD PUSH1 0xFF NOT AND PUSH1 0x1 OR SWAP1 SSTORE PUSH2 0x1103 CALLER SWAP1 JUMP JUMPDEST PUSH1 0x1 PUSH1 0x1 PUSH1 0xA0 SHL SUB AND DUP2 PUSH1 0x1 PUSH1 0x1 PUSH1 0xA0 SHL SUB AND DUP4 PUSH32 0x2F8788117E7EFF1D82E926EC794901D17C78024A50270940304540A733656F0D PUSH1 0x40 MLOAD PUSH1 0x40 MLOAD DUP1 SWAP2 SUB SWAP1 LOG4 POP POP JUMP JUMPDEST PUSH2 0x1151 DUP3 DUP3 PUSH2 0x9FE JUMP JUMPDEST ISZERO PUSH2 0x786 JUMPI PUSH1 0x0 DUP3 DUP2 MSTORE PUSH1 0x6 PUSH1 0x20 SWAP1 DUP2 MSTORE PUSH1 0x40 DUP1 DUP4 KECCAK256 PUSH1 0x1 PUSH1 0x1 PUSH1 0xA0 SHL SUB DUP6 AND DUP1 DUP6 MSTORE SWAP3 MSTORE DUP1 DUP4 KECCAK256 DUP1 SLOAD PUSH1 0xFF NOT AND SWAP1 SSTORE MLOAD CALLER SWAP3 DUP6 SWAP2 PUSH32 0xF6391F5C32D9C69D2A47EA670B442974B53935D1EDC7FD64EB21E047A839171B SWAP2 SWAP1 LOG4 POP POP JUMP JUMPDEST PUSH1 0x0 PUSH1 0x1 PUSH1 0x1 PUSH1 0xA0 SHL SUB DUP5 AND EXTCODESIZE PUSH2 0x11C7 JUMPI POP PUSH1 0x0 PUSH2 0xB0A JUMP JUMPDEST PUSH1 0x40 MLOAD PUSH4 0x2229F297 PUSH1 0xE2 SHL DUP2 MSTORE PUSH1 0x0 SWAP1 PUSH1 0x1 PUSH1 0x1 PUSH1 0xA0 SHL SUB DUP7 AND SWAP1 PUSH4 0x88A7CA5C SWAP1 PUSH2 0x11FC SWAP1 CALLER SWAP1 DUP11 SWAP1 DUP10 SWAP1 DUP10 SWAP1 PUSH1 0x4 ADD PUSH2 0x1B86 JUMP JUMPDEST PUSH1 0x20 PUSH1 0x40 MLOAD DUP1 DUP4 SUB DUP2 PUSH1 0x0 DUP8 DUP1 EXTCODESIZE ISZERO DUP1 ISZERO PUSH2 0x1216 JUMPI PUSH1 0x0 DUP1 REVERT JUMPDEST POP GAS CALL ISZERO DUP1 ISZERO PUSH2 0x122A JUMPI RETURNDATASIZE PUSH1 0x0 DUP1 RETURNDATACOPY RETURNDATASIZE PUSH1 0x0 REVERT JUMPDEST POP POP POP POP PUSH1 0x40 MLOAD RETURNDATASIZE PUSH1 0x1F NOT PUSH1 0x1F DUP3 ADD AND DUP3 ADD DUP1 PUSH1 0x40 MSTORE POP DUP2 ADD SWAP1 PUSH2 0x124E SWAP2 SWAP1 PUSH2 0x1AC8 JUMP JUMPDEST PUSH1 0x1 PUSH1 0x1 PUSH1 0xE0 SHL SUB NOT AND PUSH4 0x2229F297 PUSH1 0xE2 SHL EQ SWAP2 POP POP SWAP5 SWAP4 POP POP POP POP JUMP JUMPDEST PUSH2 0x1296 PUSH32 0xF0887BA65EE2024EA881D91B74C2450EF19E1557F03BED3EA9F16B037CBE2DC9 CALLER PUSH2 0x9FE JUMP JUMPDEST PUSH2 0x12F6 JUMPI PUSH1 0x40 MLOAD PUSH3 0x461BCD PUSH1 0xE5 SHL DUP2 MSTORE PUSH1 0x20 PUSH1 0x4 DUP3 ADD MSTORE PUSH1 0x2B PUSH1 0x24 DUP3 ADD MSTORE PUSH32 0x526F6C65733A2063616C6C657220646F6573206E6F7420686176652074686520 PUSH1 0x44 DUP3 ADD MSTORE PUSH11 0x4D494E54455220726F6C65 PUSH1 0xA8 SHL PUSH1 0x64 DUP3 ADD MSTORE PUSH1 0x84 ADD PUSH2 0x6A4 JUMP JUMPDEST PUSH2 0x786 DUP3 DUP3 PUSH2 0x176C JUMP JUMPDEST PUSH1 0x1 PUSH1 0x1 PUSH1 0xA0 SHL SUB DUP3 AND PUSH2 0x1360 JUMPI PUSH1 0x40 MLOAD PUSH3 0x461BCD PUSH1 0xE5 SHL DUP2 MSTORE PUSH1 0x20 PUSH1 0x4 DUP3 ADD MSTORE PUSH1 0x21 PUSH1 0x24 DUP3 ADD MSTORE PUSH32 0x45524332303A206275726E2066726F6D20746865207A65726F20616464726573 PUSH1 0x44 DUP3 ADD MSTORE PUSH1 0x73 PUSH1 0xF8 SHL PUSH1 0x64 DUP3 ADD MSTORE PUSH1 0x84 ADD PUSH2 0x6A4 JUMP JUMPDEST PUSH1 0x1 PUSH1 0x1 PUSH1 0xA0 SHL SUB DUP3 AND PUSH1 0x0 SWAP1 DUP2 MSTORE PUSH1 0x20 DUP2 SWAP1 MSTORE PUSH1 0x40 SWAP1 KECCAK256 SLOAD DUP2 DUP2 LT ISZERO PUSH2 0x13D4 JUMPI PUSH1 0x40 MLOAD PUSH3 0x461BCD PUSH1 0xE5 SHL DUP2 MSTORE PUSH1 0x20 PUSH1 0x4 DUP3 ADD MSTORE PUSH1 0x22 PUSH1 0x24 DUP3 ADD MSTORE PUSH32 0x45524332303A206275726E20616D6F756E7420657863656564732062616C616E PUSH1 0x44 DUP3 ADD MSTORE PUSH2 0x6365 PUSH1 0xF0 SHL PUSH1 0x64 DUP3 ADD MSTORE PUSH1 0x84 ADD PUSH2 0x6A4 JUMP JUMPDEST PUSH1 0x1 PUSH1 0x1 PUSH1 0xA0 SHL SUB DUP4 AND PUSH1 0x0 SWAP1 DUP2 MSTORE PUSH1 0x20 DUP2 SWAP1 MSTORE PUSH1 0x40 DUP2 KECCAK256 DUP4 DUP4 SUB SWAP1 SSTORE PUSH1 0x2 DUP1 SLOAD DUP5 SWAP3 SWAP1 PUSH2 0x1403 SWAP1 DUP5 SWAP1 PUSH2 0x1CFA JUMP JUMPDEST SWAP1 SWAP2 SSTORE POP POP PUSH1 0x40 MLOAD DUP3 DUP2 MSTORE PUSH1 0x0 SWAP1 PUSH1 0x1 PUSH1 0x1 PUSH1 0xA0 SHL SUB DUP6 AND SWAP1 PUSH32 0xDDF252AD1BE2C89B69C2B068FC378DAA952BA7F163C4A11628F55A4DF523B3EF SWAP1 PUSH1 0x20 ADD PUSH1 0x40 MLOAD DUP1 SWAP2 SUB SWAP1 LOG3 POP POP POP JUMP JUMPDEST PUSH1 0x5 DUP1 SLOAD PUSH1 0x1 PUSH1 0x1 PUSH1 0xA0 SHL SUB DUP4 DUP2 AND PUSH2 0x100 DUP2 DUP2 MUL PUSH2 0x100 PUSH1 0x1 PUSH1 0xA8 SHL SUB NOT DUP6 AND OR SWAP1 SWAP5 SSTORE PUSH1 0x40 MLOAD SWAP4 SWAP1 SWAP3 DIV AND SWAP2 DUP3 SWAP1 PUSH32 0x8BE0079C531659141344CD1FD0A4F28419497F9722A3DAAFE3B4186F6B6457E0 SWAP1 PUSH1 0x0 SWAP1 LOG3 POP POP JUMP JUMPDEST PUSH1 0x5 SLOAD PUSH1 0x1 PUSH1 0x1 PUSH1 0xA0 SHL SUB PUSH2 0x100 SWAP1 SWAP2 DIV AND CALLER EQ PUSH2 0x14D8 JUMPI PUSH1 0x40 MLOAD PUSH3 0x461BCD PUSH1 0xE5 SHL DUP2 MSTORE PUSH1 0x4 ADD PUSH2 0x6A4 SWAP1 PUSH2 0x1C4C JUMP JUMPDEST PUSH2 0x879 PUSH2 0x17F9 JUMP JUMPDEST PUSH1 0x0 PUSH1 0x1 PUSH1 0x1 PUSH1 0xA0 SHL SUB DUP5 AND EXTCODESIZE PUSH2 0x14F9 JUMPI POP PUSH1 0x0 PUSH2 0x60F JUMP JUMPDEST PUSH1 0x40 MLOAD PUSH4 0x7B04A2D PUSH1 0xE4 SHL DUP2 MSTORE PUSH1 0x0 SWAP1 PUSH1 0x1 PUSH1 0x1 PUSH1 0xA0 SHL SUB DUP7 AND SWAP1 PUSH4 0x7B04A2D0 SWAP1 PUSH2 0x152C SWAP1 CALLER SWAP1 DUP9 SWAP1 DUP9 SWAP1 PUSH1 0x4 ADD PUSH2 0x1BC3 JUMP JUMPDEST PUSH1 0x20 PUSH1 0x40 MLOAD DUP1 DUP4 SUB DUP2 PUSH1 0x0 DUP8 DUP1 EXTCODESIZE ISZERO DUP1 ISZERO PUSH2 0x1546 JUMPI PUSH1 0x0 DUP1 REVERT JUMPDEST POP GAS CALL ISZERO DUP1 ISZERO PUSH2 0x155A JUMPI RETURNDATASIZE PUSH1 0x0 DUP1 RETURNDATACOPY RETURNDATASIZE PUSH1 0x0 REVERT JUMPDEST POP POP POP POP PUSH1 0x40 MLOAD RETURNDATASIZE PUSH1 0x1F NOT PUSH1 0x1F DUP3 ADD AND DUP3 ADD DUP1 PUSH1 0x40 MSTORE POP DUP2 ADD SWAP1 PUSH2 0x157E SWAP2 SWAP1 PUSH2 0x1AC8 JUMP JUMPDEST PUSH1 0x1 PUSH1 0x1 PUSH1 0xE0 SHL SUB NOT AND PUSH4 0x7B04A2D PUSH1 0xE4 SHL EQ SWAP2 POP POP SWAP4 SWAP3 POP POP POP JUMP JUMPDEST PUSH1 0x0 PUSH1 0x1 PUSH1 0x1 PUSH1 0xE0 SHL SUB NOT DUP3 AND PUSH4 0xB0202A11 PUSH1 0xE0 SHL EQ DUP1 PUSH2 0x545 JUMPI POP PUSH4 0x1FFC9A7 PUSH1 0xE0 SHL PUSH1 0x1 PUSH1 0x1 PUSH1 0xE0 SHL SUB NOT DUP4 AND EQ PUSH2 0x545 JUMP JUMPDEST PUSH1 0x60 PUSH1 0x0 PUSH2 0x15DF DUP4 PUSH1 0x2 PUSH2 0x1CDB JUMP JUMPDEST PUSH2 0x15EA SWAP1 PUSH1 0x2 PUSH2 0x1CC3 JUMP JUMPDEST PUSH8 0xFFFFFFFFFFFFFFFF DUP2 GT ISZERO PUSH2 0x1602 JUMPI PUSH2 0x1602 PUSH2 0x1DBB JUMP JUMPDEST PUSH1 0x40 MLOAD SWAP1 DUP1 DUP3 MSTORE DUP1 PUSH1 0x1F ADD PUSH1 0x1F NOT AND PUSH1 0x20 ADD DUP3 ADD PUSH1 0x40 MSTORE DUP1 ISZERO PUSH2 0x162C JUMPI PUSH1 0x20 DUP3 ADD DUP2 DUP1 CALLDATASIZE DUP4 CALLDATACOPY ADD SWAP1 POP JUMPDEST POP SWAP1 POP PUSH1 0x3 PUSH1 0xFC SHL DUP2 PUSH1 0x0 DUP2 MLOAD DUP2 LT PUSH2 0x1647 JUMPI PUSH2 0x1647 PUSH2 0x1DA5 JUMP JUMPDEST PUSH1 0x20 ADD ADD SWAP1 PUSH1 0x1 PUSH1 0x1 PUSH1 0xF8 SHL SUB NOT AND SWAP1 DUP2 PUSH1 0x0 BYTE SWAP1 MSTORE8 POP PUSH1 0xF PUSH1 0xFB SHL DUP2 PUSH1 0x1 DUP2 MLOAD DUP2 LT PUSH2 0x1676 JUMPI PUSH2 0x1676 PUSH2 0x1DA5 JUMP JUMPDEST PUSH1 0x20 ADD ADD SWAP1 PUSH1 0x1 PUSH1 0x1 PUSH1 0xF8 SHL SUB NOT AND SWAP1 DUP2 PUSH1 0x0 BYTE SWAP1 MSTORE8 POP PUSH1 0x0 PUSH2 0x169A DUP5 PUSH1 0x2 PUSH2 0x1CDB JUMP JUMPDEST PUSH2 0x16A5 SWAP1 PUSH1 0x1 PUSH2 0x1CC3 JUMP JUMPDEST SWAP1 POP JUMPDEST PUSH1 0x1 DUP2 GT ISZERO PUSH2 0x171D JUMPI PUSH16 0x181899199A1A9B1B9C1CB0B131B232B3 PUSH1 0x81 SHL DUP6 PUSH1 0xF AND PUSH1 0x10 DUP2 LT PUSH2 0x16D9 JUMPI PUSH2 0x16D9 PUSH2 0x1DA5 JUMP JUMPDEST BYTE PUSH1 0xF8 SHL DUP3 DUP3 DUP2 MLOAD DUP2 LT PUSH2 0x16EF JUMPI PUSH2 0x16EF PUSH2 0x1DA5 JUMP JUMPDEST PUSH1 0x20 ADD ADD SWAP1 PUSH1 0x1 PUSH1 0x1 PUSH1 0xF8 SHL SUB NOT AND SWAP1 DUP2 PUSH1 0x0 BYTE SWAP1 MSTORE8 POP PUSH1 0x4 SWAP5 SWAP1 SWAP5 SHR SWAP4 PUSH2 0x1716 DUP2 PUSH2 0x1D3D JUMP JUMPDEST SWAP1 POP PUSH2 0x16A8 JUMP JUMPDEST POP DUP4 ISZERO PUSH2 0x60F JUMPI PUSH1 0x40 MLOAD PUSH3 0x461BCD PUSH1 0xE5 SHL DUP2 MSTORE PUSH1 0x20 PUSH1 0x4 DUP3 ADD DUP2 SWAP1 MSTORE PUSH1 0x24 DUP3 ADD MSTORE PUSH32 0x537472696E67733A20686578206C656E67746820696E73756666696369656E74 PUSH1 0x44 DUP3 ADD MSTORE PUSH1 0x64 ADD PUSH2 0x6A4 JUMP JUMPDEST PUSH32 0x0 DUP2 PUSH2 0x1797 PUSH1 0x2 SLOAD SWAP1 JUMP JUMPDEST PUSH2 0x17A1 SWAP2 SWAP1 PUSH2 0x1CC3 JUMP JUMPDEST GT ISZERO PUSH2 0x17EF JUMPI PUSH1 0x40 MLOAD PUSH3 0x461BCD PUSH1 0xE5 SHL DUP2 MSTORE PUSH1 0x20 PUSH1 0x4 DUP3 ADD MSTORE PUSH1 0x19 PUSH1 0x24 DUP3 ADD MSTORE PUSH32 0x45524332304361707065643A2063617020657863656564656400000000000000 PUSH1 0x44 DUP3 ADD MSTORE PUSH1 0x64 ADD PUSH2 0x6A4 JUMP JUMPDEST PUSH2 0x786 DUP3 DUP3 PUSH2 0xC65 JUMP JUMPDEST PUSH1 0x5 DUP1 SLOAD PUSH1 0xFF NOT AND PUSH1 0x1 OR SWAP1 SSTORE PUSH1 0x40 MLOAD PUSH32 0xAE5184FBA832CB2B1F702ACA6117B8D265EAF03AD33EB133F19DDE0F5920FA08 SWAP1 PUSH1 0x0 SWAP1 LOG1 JUMP JUMPDEST DUP1 CALLDATALOAD PUSH1 0x1 PUSH1 0x1 PUSH1 0xA0 SHL SUB DUP2 AND DUP2 EQ PUSH2 0x1848 JUMPI PUSH1 0x0 DUP1 REVERT JUMPDEST SWAP2 SWAP1 POP JUMP JUMPDEST PUSH1 0x0 DUP3 PUSH1 0x1F DUP4 ADD SLT PUSH2 0x185E JUMPI PUSH1 0x0 DUP1 REVERT JUMPDEST DUP2 CALLDATALOAD PUSH8 0xFFFFFFFFFFFFFFFF DUP1 DUP3 GT ISZERO PUSH2 0x1879 JUMPI PUSH2 0x1879 PUSH2 0x1DBB JUMP JUMPDEST PUSH1 0x40 MLOAD PUSH1 0x1F DUP4 ADD PUSH1 0x1F NOT SWAP1 DUP2 AND PUSH1 0x3F ADD AND DUP2 ADD SWAP1 DUP3 DUP3 GT DUP2 DUP4 LT OR ISZERO PUSH2 0x18A1 JUMPI PUSH2 0x18A1 PUSH2 0x1DBB JUMP JUMPDEST DUP2 PUSH1 0x40 MSTORE DUP4 DUP2 MSTORE DUP7 PUSH1 0x20 DUP6 DUP9 ADD ADD GT ISZERO PUSH2 0x18BA JUMPI PUSH1 0x0 DUP1 REVERT JUMPDEST DUP4 PUSH1 0x20 DUP8 ADD PUSH1 0x20 DUP4 ADD CALLDATACOPY PUSH1 0x0 PUSH1 0x20 DUP6 DUP4 ADD ADD MSTORE DUP1 SWAP5 POP POP POP POP POP SWAP3 SWAP2 POP POP JUMP JUMPDEST PUSH1 0x0 PUSH1 0x20 DUP3 DUP5 SUB SLT ISZERO PUSH2 0x18EC JUMPI PUSH1 0x0 DUP1 REVERT JUMPDEST PUSH2 0x60F DUP3 PUSH2 0x1831 JUMP JUMPDEST PUSH1 0x0 DUP1 PUSH1 0x40 DUP4 DUP6 SUB SLT ISZERO PUSH2 0x1908 JUMPI PUSH1 0x0 DUP1 REVERT JUMPDEST PUSH2 0x1911 DUP4 PUSH2 0x1831 JUMP JUMPDEST SWAP2 POP PUSH2 0x191F PUSH1 0x20 DUP5 ADD PUSH2 0x1831 JUMP JUMPDEST SWAP1 POP SWAP3 POP SWAP3 SWAP1 POP JUMP JUMPDEST PUSH1 0x0 DUP1 PUSH1 0x0 PUSH1 0x60 DUP5 DUP7 SUB SLT ISZERO PUSH2 0x193D JUMPI PUSH1 0x0 DUP1 REVERT JUMPDEST PUSH2 0x1946 DUP5 PUSH2 0x1831 JUMP JUMPDEST SWAP3 POP PUSH2 0x1954 PUSH1 0x20 DUP6 ADD PUSH2 0x1831 JUMP JUMPDEST SWAP2 POP PUSH1 0x40 DUP5 ADD CALLDATALOAD SWAP1 POP SWAP3 POP SWAP3 POP SWAP3 JUMP JUMPDEST PUSH1 0x0 DUP1 PUSH1 0x0 DUP1 PUSH1 0x80 DUP6 DUP8 SUB SLT ISZERO PUSH2 0x197A JUMPI PUSH1 0x0 DUP1 REVERT JUMPDEST PUSH2 0x1983 DUP6 PUSH2 0x1831 JUMP JUMPDEST SWAP4 POP PUSH2 0x1991 PUSH1 0x20 DUP7 ADD PUSH2 0x1831 JUMP JUMPDEST SWAP3 POP PUSH1 0x40 DUP6 ADD CALLDATALOAD SWAP2 POP PUSH1 0x60 DUP6 ADD CALLDATALOAD PUSH8 0xFFFFFFFFFFFFFFFF DUP2 GT ISZERO PUSH2 0x19B4 JUMPI PUSH1 0x0 DUP1 REVERT JUMPDEST PUSH2 0x19C0 DUP8 DUP3 DUP9 ADD PUSH2 0x184D JUMP JUMPDEST SWAP2 POP POP SWAP3 SWAP6 SWAP2 SWAP5 POP SWAP3 POP JUMP JUMPDEST PUSH1 0x0 DUP1 PUSH1 0x40 DUP4 DUP6 SUB SLT ISZERO PUSH2 0x19DF JUMPI PUSH1 0x0 DUP1 REVERT JUMPDEST PUSH2 0x19E8 DUP4 PUSH2 0x1831 JUMP JUMPDEST SWAP5 PUSH1 0x20 SWAP4 SWAP1 SWAP4 ADD CALLDATALOAD SWAP4 POP POP POP JUMP JUMPDEST PUSH1 0x0 DUP1 PUSH1 0x0 PUSH1 0x60 DUP5 DUP7 SUB SLT ISZERO PUSH2 0x1A0B JUMPI PUSH1 0x0 DUP1 REVERT JUMPDEST PUSH2 0x1A14 DUP5 PUSH2 0x1831 JUMP JUMPDEST SWAP3 POP PUSH1 0x20 DUP5 ADD CALLDATALOAD SWAP2 POP PUSH1 0x40 DUP5 ADD CALLDATALOAD PUSH8 0xFFFFFFFFFFFFFFFF DUP2 GT ISZERO PUSH2 0x1A37 JUMPI PUSH1 0x0 DUP1 REVERT JUMPDEST PUSH2 0x1A43 DUP7 DUP3 DUP8 ADD PUSH2 0x184D JUMP JUMPDEST SWAP2 POP POP SWAP3 POP SWAP3 POP SWAP3 JUMP JUMPDEST PUSH1 0x0 PUSH1 0x20 DUP3 DUP5 SUB SLT ISZERO PUSH2 0x1A5F JUMPI PUSH1 0x0 DUP1 REVERT JUMPDEST DUP2 MLOAD DUP1 ISZERO ISZERO DUP2 EQ PUSH2 0x60F JUMPI PUSH1 0x0 DUP1 REVERT JUMPDEST PUSH1 0x0 PUSH1 0x20 DUP3 DUP5 SUB SLT ISZERO PUSH2 0x1A81 JUMPI PUSH1 0x0 DUP1 REVERT JUMPDEST POP CALLDATALOAD SWAP2 SWAP1 POP JUMP JUMPDEST PUSH1 0x0 DUP1 PUSH1 0x40 DUP4 DUP6 SUB SLT ISZERO PUSH2 0x1A9B JUMPI PUSH1 0x0 DUP1 REVERT JUMPDEST DUP3 CALLDATALOAD SWAP2 POP PUSH2 0x191F PUSH1 0x20 DUP5 ADD PUSH2 0x1831 JUMP JUMPDEST PUSH1 0x0 PUSH1 0x20 DUP3 DUP5 SUB SLT ISZERO PUSH2 0x1ABD JUMPI PUSH1 0x0 DUP1 REVERT JUMPDEST DUP2 CALLDATALOAD PUSH2 0x60F DUP2 PUSH2 0x1DD1 JUMP JUMPDEST PUSH1 0x0 PUSH1 0x20 DUP3 DUP5 SUB SLT ISZERO PUSH2 0x1ADA JUMPI PUSH1 0x0 DUP1 REVERT JUMPDEST DUP2 MLOAD PUSH2 0x60F DUP2 PUSH2 0x1DD1 JUMP JUMPDEST PUSH1 0x0 DUP2 MLOAD DUP1 DUP5 MSTORE PUSH2 0x1AFD DUP2 PUSH1 0x20 DUP7 ADD PUSH1 0x20 DUP7 ADD PUSH2 0x1D11 JUMP JUMPDEST PUSH1 0x1F ADD PUSH1 0x1F NOT AND SWAP3 SWAP1 SWAP3 ADD PUSH1 0x20 ADD SWAP3 SWAP2 POP POP JUMP JUMPDEST PUSH32 0x416363657373436F6E74726F6C3A206163636F756E7420000000000000000000 DUP2 MSTORE PUSH1 0x0 DUP4 MLOAD PUSH2 0x1B49 DUP2 PUSH1 0x17 DUP6 ADD PUSH1 0x20 DUP9 ADD PUSH2 0x1D11 JUMP JUMPDEST PUSH17 0x1034B99036B4B9B9B4B733903937B6329 PUSH1 0x7D SHL PUSH1 0x17 SWAP2 DUP5 ADD SWAP2 DUP3 ADD MSTORE DUP4 MLOAD PUSH2 0x1B7A DUP2 PUSH1 0x28 DUP5 ADD PUSH1 0x20 DUP9 ADD PUSH2 0x1D11 JUMP JUMPDEST ADD PUSH1 0x28 ADD SWAP5 SWAP4 POP POP POP POP JUMP JUMPDEST PUSH1 0x1 PUSH1 0x1 PUSH1 0xA0 SHL SUB DUP6 DUP2 AND DUP3 MSTORE DUP5 AND PUSH1 0x20 DUP3 ADD MSTORE PUSH1 0x40 DUP2 ADD DUP4 SWAP1 MSTORE PUSH1 0x80 PUSH1 0x60 DUP3 ADD DUP2 SWAP1 MSTORE PUSH1 0x0 SWAP1 PUSH2 0x1BB9 SWAP1 DUP4 ADD DUP5 PUSH2 0x1AE5 JUMP JUMPDEST SWAP7 SWAP6 POP POP POP POP POP POP JUMP JUMPDEST PUSH1 0x1 DUP1 PUSH1 0xA0 SHL SUB DUP5 AND DUP2 MSTORE DUP3 PUSH1 0x20 DUP3 ADD MSTORE PUSH1 0x60 PUSH1 0x40 DUP3 ADD MSTORE PUSH1 0x0 PUSH2 0x1BEA PUSH1 0x60 DUP4 ADD DUP5 PUSH2 0x1AE5 JUMP JUMPDEST SWAP6 SWAP5 POP POP POP POP POP JUMP JUMPDEST PUSH1 0x20 DUP2 MSTORE PUSH1 0x0 PUSH2 0x60F PUSH1 0x20 DUP4 ADD DUP5 PUSH2 0x1AE5 JUMP JUMPDEST PUSH1 0x20 DUP1 DUP3 MSTORE PUSH1 0x26 SWAP1 DUP3 ADD MSTORE PUSH32 0x455243313336333A205F636865636B416E6443616C6C5472616E736665722072 PUSH1 0x40 DUP3 ADD MSTORE PUSH6 0x657665727473 PUSH1 0xD0 SHL PUSH1 0x60 DUP3 ADD MSTORE PUSH1 0x80 ADD SWAP1 JUMP JUMPDEST PUSH1 0x20 DUP1 DUP3 MSTORE DUP2 DUP2 ADD MSTORE PUSH32 0x4F776E61626C653A2063616C6C6572206973206E6F7420746865206F776E6572 PUSH1 0x40 DUP3 ADD MSTORE PUSH1 0x60 ADD SWAP1 JUMP JUMPDEST PUSH1 0x20 DUP1 DUP3 MSTORE PUSH1 0x22 SWAP1 DUP3 ADD MSTORE PUSH32 0x45524332304D696E7461626C653A206D696E74696E672069732066696E697368 PUSH1 0x40 DUP3 ADD MSTORE PUSH2 0x1959 PUSH1 0xF2 SHL PUSH1 0x60 DUP3 ADD MSTORE PUSH1 0x80 ADD SWAP1 JUMP JUMPDEST PUSH1 0x0 DUP3 NOT DUP3 GT ISZERO PUSH2 0x1CD6 JUMPI PUSH2 0x1CD6 PUSH2 0x1D8F JUMP JUMPDEST POP ADD SWAP1 JUMP JUMPDEST PUSH1 0x0 DUP2 PUSH1 0x0 NOT DIV DUP4 GT DUP3 ISZERO ISZERO AND ISZERO PUSH2 0x1CF5 JUMPI PUSH2 0x1CF5 PUSH2 0x1D8F JUMP JUMPDEST POP MUL SWAP1 JUMP JUMPDEST PUSH1 0x0 DUP3 DUP3 LT ISZERO PUSH2 0x1D0C JUMPI PUSH2 0x1D0C PUSH2 0x1D8F JUMP JUMPDEST POP SUB SWAP1 JUMP JUMPDEST PUSH1 0x0 JUMPDEST DUP4 DUP2 LT ISZERO PUSH2 0x1D2C JUMPI DUP2 DUP2 ADD MLOAD DUP4 DUP3 ADD MSTORE PUSH1 0x20 ADD PUSH2 0x1D14 JUMP JUMPDEST DUP4 DUP2 GT ISZERO PUSH2 0x1057 JUMPI POP POP PUSH1 0x0 SWAP2 ADD MSTORE JUMP JUMPDEST PUSH1 0x0 DUP2 PUSH2 0x1D4C JUMPI PUSH2 0x1D4C PUSH2 0x1D8F JUMP JUMPDEST POP PUSH1 0x0 NOT ADD SWAP1 JUMP JUMPDEST PUSH1 0x1 DUP2 DUP2 SHR SWAP1 DUP3 AND DUP1 PUSH2 0x1D68 JUMPI PUSH1 0x7F DUP3 AND SWAP2 POP JUMPDEST PUSH1 0x20 DUP3 LT DUP2 EQ ISZERO PUSH2 0x1D89 JUMPI PUSH4 0x4E487B71 PUSH1 0xE0 SHL PUSH1 0x0 MSTORE PUSH1 0x22 PUSH1 0x4 MSTORE PUSH1 0x24 PUSH1 0x0 REVERT JUMPDEST POP SWAP2 SWAP1 POP JUMP JUMPDEST PUSH4 0x4E487B71 PUSH1 0xE0 SHL PUSH1 0x0 MSTORE PUSH1 0x11 PUSH1 0x4 MSTORE PUSH1 0x24 PUSH1 0x0 REVERT JUMPDEST PUSH4 0x4E487B71 PUSH1 0xE0 SHL PUSH1 0x0 MSTORE PUSH1 0x32 PUSH1 0x4 MSTORE PUSH1 0x24 PUSH1 0x0 REVERT JUMPDEST PUSH4 0x4E487B71 PUSH1 0xE0 SHL PUSH1 0x0 MSTORE PUSH1 0x41 PUSH1 0x4 MSTORE PUSH1 0x24 PUSH1 0x0 REVERT JUMPDEST PUSH1 0x1 PUSH1 0x1 PUSH1 0xE0 SHL SUB NOT DUP2 AND DUP2 EQ PUSH2 0x83C JUMPI PUSH1 0x0 DUP1 REVERT INVALID LOG2 PUSH5 0x6970667358 0x22 SLT KECCAK256 SWAP12 0x2F 0xB0 SWAP14 0xEB 0xF7 0xE0 0xAA 0xE 0x22 0xCD 0xC 0xD2 0xBB CALLDATASIZE PUSH27 0x298A796070FB6F19D213286FDF504E6E64736F6C63430008070033 "
				},
				"gasEstimates": {
					"creation": {
						"codeDepositCost": "1541800",
						"executionCost": "infinite",
						"totalCost": "infinite"
					},
					"external": {
						"DEFAULT_ADMIN_ROLE()": "328",
						"MINTER_ROLE()": "239",
						"allowance(address,address)": "infinite",
						"approve(address,uint256)": "24698",
						"approveAndCall(address,uint256)": "infinite",
						"approveAndCall(address,uint256,bytes)": "infinite",
						"balanceOf(address)": "2586",
						"burn(uint256)": "50982",
						"burnFrom(address,uint256)": "77584",
						"cap()": "infinite",
						"decimals()": "infinite",
						"decreaseAllowance(address,uint256)": "26922",
						"finishMinting()": "infinite",
						"getRoleAdmin(bytes32)": "2556",
						"grantRole(bytes32,address)": "infinite",
						"hasRole(bytes32,address)": "2743",
						"increaseAllowance(address,uint256)": "26990",
						"mint(address,uint256)": "infinite",
						"mintingFinished()": "2362",
						"name()": "infinite",
						"owner()": "2397",
						"recoverERC20(address,uint256)": "infinite",
						"renounceOwnership()": "28218",
						"renounceRole(bytes32,address)": "29046",
						"revokeRole(bytes32,address)": "infinite",
						"supportsInterface(bytes4)": "infinite",
						"symbol()": "infinite",
						"totalSupply()": "2349",
						"transfer(address,uint256)": "51222",
						"transferAndCall(address,uint256)": "infinite",
						"transferAndCall(address,uint256,bytes)": "infinite",
						"transferFrom(address,address,uint256)": "infinite",
						"transferFromAndCall(address,address,uint256)": "infinite",
						"transferFromAndCall(address,address,uint256,bytes)": "infinite",
						"transferOwnership(address)": "28477"
					},
					"internal": {
						"_finishMinting()": "infinite",
						"_mint(address,uint256)": "infinite"
					}
				},
				"methodIdentifiers": {
					"DEFAULT_ADMIN_ROLE()": "a217fddf",
					"MINTER_ROLE()": "d5391393",
					"allowance(address,address)": "dd62ed3e",
					"approve(address,uint256)": "095ea7b3",
					"approveAndCall(address,uint256)": "3177029f",
					"approveAndCall(address,uint256,bytes)": "cae9ca51",
					"balanceOf(address)": "70a08231",
					"burn(uint256)": "42966c68",
					"burnFrom(address,uint256)": "79cc6790",
					"cap()": "355274ea",
					"decimals()": "313ce567",
					"decreaseAllowance(address,uint256)": "a457c2d7",
					"finishMinting()": "7d64bcb4",
					"getRoleAdmin(bytes32)": "248a9ca3",
					"grantRole(bytes32,address)": "2f2ff15d",
					"hasRole(bytes32,address)": "91d14854",
					"increaseAllowance(address,uint256)": "39509351",
					"mint(address,uint256)": "40c10f19",
					"mintingFinished()": "05d2035b",
					"name()": "06fdde03",
					"owner()": "8da5cb5b",
					"recoverERC20(address,uint256)": "8980f11f",
					"renounceOwnership()": "715018a6",
					"renounceRole(bytes32,address)": "36568abe",
					"revokeRole(bytes32,address)": "d547741f",
					"supportsInterface(bytes4)": "01ffc9a7",
					"symbol()": "95d89b41",
					"totalSupply()": "18160ddd",
					"transfer(address,uint256)": "a9059cbb",
					"transferAndCall(address,uint256)": "1296ee62",
					"transferAndCall(address,uint256,bytes)": "4000aea0",
					"transferFrom(address,address,uint256)": "23b872dd",
					"transferFromAndCall(address,address,uint256)": "d8fbe994",
					"transferFromAndCall(address,address,uint256,bytes)": "c1d34b89",
					"transferOwnership(address)": "f2fde38b"
				}
			},
			"userdoc": {
				"kind": "user",
				"methods": {},
				"version": 1
			}
		}
	}
}