{
	"contracts/powerful-erc20.sol": {
		"TokenRecover": {
			"abi": [
				{
					"anonymous": false,
					"inputs": [
						{
							"indexed": true,
							"internalType": "address",
							"name": "previousOwner",
							"type": "address"
						},
						{
							"indexed": true,
							"internalType": "address",
							"name": "newOwner",
							"type": "address"
						}
					],
					"name": "OwnershipTransferred",
					"type": "event"
				},
				{
					"inputs": [],
					"name": "owner",
					"outputs": [
						{
							"internalType": "address",
							"name": "",
							"type": "address"
						}
					],
					"stateMutability": "view",
					"type": "function"
				},
				{
					"inputs": [
						{
							"internalType": "address",
							"name": "tokenAddress",
							"type": "address"
						},
						{
							"internalType": "uint256",
							"name": "tokenAmount",
							"type": "uint256"
						}
					],
					"name": "recoverERC20",
					"outputs": [],
					"stateMutability": "nonpayable",
					"type": "function"
				},
				{
					"inputs": [],
					"name": "renounceOwnership",
					"outputs": [],
					"stateMutability": "nonpayable",
					"type": "function"
				},
				{
					"inputs": [
						{
							"internalType": "address",
							"name": "newOwner",
							"type": "address"
						}
					],
					"name": "transferOwnership",
					"outputs": [],
					"stateMutability": "nonpayable",
					"type": "function"
				}
			],
			"devdoc": {
				"details": "Allows owner to recover any ERC20 sent into the contract",
				"kind": "dev",
				"methods": {
					"owner()": {
						"details": "Returns the address of the current owner."
					},
					"recoverERC20(address,uint256)": {
						"details": "Remember that only owner can call so be careful when use on contracts generated from other contracts.",
						"params": {
							"tokenAddress": "The token contract address",
							"tokenAmount": "Number of tokens to be sent"
						}
					},
					"renounceOwnership()": {
						"details": "Leaves the contract without owner. It will not be possible to call `onlyOwner` functions anymore. Can only be called by the current owner. NOTE: Renouncing ownership will leave the contract without an owner, thereby removing any functionality that is only available to the owner."
					},
					"transferOwnership(address)": {
						"details": "Transfers ownership of the contract to a new account (`newOwner`). Can only be called by the current owner."
					}
				},
				"title": "TokenRecover",
				"version": 1
			},
			"evm": {
				"assembly": "    /* \"contracts/powerful-erc20.sol\":44169:44634  contract TokenRecover is Ownable {... */\n  mstore(0x40, 0x80)\n  callvalue\n  dup1\n  iszero\n  tag_1\n  jumpi\n  0x00\n  dup1\n  revert\ntag_1:\n  pop\n    /* \"contracts/powerful-erc20.sol\":42612:42635  _setOwner(_msgSender()) */\n  tag_4\n    /* \"contracts/powerful-erc20.sol\":4164:4174  msg.sender */\n  caller\n    /* \"contracts/powerful-erc20.sol\":42612:42621  _setOwner */\n  tag_7\n    /* \"contracts/powerful-erc20.sol\":42612:42635  _setOwner(_msgSender()) */\n  jump\t// in\ntag_4:\n    /* \"contracts/powerful-erc20.sol\":44169:44634  contract TokenRecover is Ownable {... */\n  jump(tag_8)\n    /* \"contracts/powerful-erc20.sol\":43820:43989  function _setOwner(address newOwner) private {... */\ntag_7:\n    /* \"contracts/powerful-erc20.sol\":43875:43891  address oldOwner */\n  0x00\n    /* \"contracts/powerful-erc20.sol\":43894:43900  _owner */\n  dup1\n  sload\n  sub(shl(0xa0, 0x01), 0x01)\n    /* \"contracts/powerful-erc20.sol\":43910:43927  _owner = newOwner */\n  dup4\n  dup2\n  and\n  not(sub(shl(0xa0, 0x01), 0x01))\n  dup4\n  and\n  dup2\n  or\n  dup5\n  sstore\n    /* \"contracts/powerful-erc20.sol\":43942:43982  OwnershipTransferred(oldOwner, newOwner) */\n  mload(0x40)\n    /* \"contracts/powerful-erc20.sol\":43894:43900  _owner */\n  swap2\n  swap1\n  swap3\n  and\n  swap3\n  dup4\n  swap2\n    /* \"contracts/powerful-erc20.sol\":43942:43982  OwnershipTransferred(oldOwner, newOwner) */\n  0x8be0079c531659141344cd1fd0a4f28419497f9722a3daafe3b4186f6b6457e0\n  swap2\n    /* \"contracts/powerful-erc20.sol\":43875:43891  address oldOwner */\n  swap1\n    /* \"contracts/powerful-erc20.sol\":43942:43982  OwnershipTransferred(oldOwner, newOwner) */\n  log3\n    /* \"contracts/powerful-erc20.sol\":43865:43989  {... */\n  pop\n    /* \"contracts/powerful-erc20.sol\":43820:43989  function _setOwner(address newOwner) private {... */\n  pop\n  jump\t// out\n    /* \"contracts/powerful-erc20.sol\":44169:44634  contract TokenRecover is Ownable {... */\ntag_8:\n  dataSize(sub_0)\n  dup1\n  dataOffset(sub_0)\n  0x00\n  codecopy\n  0x00\n  return\nstop\n\nsub_0: assembly {\n        /* \"contracts/powerful-erc20.sol\":44169:44634  contract TokenRecover is Ownable {... */\n      mstore(0x40, 0x80)\n      callvalue\n      dup1\n      iszero\n      tag_1\n      jumpi\n      0x00\n      dup1\n      revert\n    tag_1:\n      pop\n      jumpi(tag_2, lt(calldatasize, 0x04))\n      shr(0xe0, calldataload(0x00))\n      dup1\n      0x715018a6\n      eq\n      tag_3\n      jumpi\n      dup1\n      0x8980f11f\n      eq\n      tag_4\n      jumpi\n      dup1\n      0x8da5cb5b\n      eq\n      tag_5\n      jumpi\n      dup1\n      0xf2fde38b\n      eq\n      tag_6\n      jumpi\n    tag_2:\n      0x00\n      dup1\n      revert\n        /* \"contracts/powerful-erc20.sol\":43350:43442  function renounceOwnership() public virtual onlyOwner {... */\n    tag_3:\n      tag_7\n      tag_8\n      jump\t// in\n    tag_7:\n      stop\n        /* \"contracts/powerful-erc20.sol\":44446:44632  function recoverERC20(address tokenAddress, uint256 tokenAmount)... */\n    tag_4:\n      tag_7\n      tag_10\n      calldatasize\n      0x04\n      tag_11\n      jump\t// in\n    tag_10:\n      tag_12\n      jump\t// in\n        /* \"contracts/powerful-erc20.sol\":42718:42803  function owner() public view virtual returns (address) {... */\n    tag_5:\n        /* \"contracts/powerful-erc20.sol\":42764:42771  address */\n      0x00\n        /* \"contracts/powerful-erc20.sol\":42790:42796  _owner */\n      sload\n        /* \"contracts/powerful-erc20.sol\":42718:42803  function owner() public view virtual returns (address) {... */\n      0x40\n      dup1\n      mload\n      sub(shl(0xa0, 0x01), 0x01)\n        /* \"contracts/powerful-erc20.sol\":42790:42796  _owner */\n      swap1\n      swap3\n      and\n        /* \"#utility.yul\":1070:1121   */\n      dup3\n      mstore\n        /* \"contracts/powerful-erc20.sol\":42718:42803  function owner() public view virtual returns (address) {... */\n      mload\n      swap1\n      dup2\n      swap1\n      sub\n        /* \"#utility.yul\":1058:1060   */\n      0x20\n        /* \"contracts/powerful-erc20.sol\":42718:42803  function owner() public view virtual returns (address) {... */\n      add\n      swap1\n      return\n        /* \"contracts/powerful-erc20.sol\":43591:43814  function transferOwnership(address newOwner) public virtual onlyOwner {... */\n    tag_6:\n      tag_7\n      tag_18\n      calldatasize\n      0x04\n      tag_19\n      jump\t// in\n    tag_18:\n      tag_20\n      jump\t// in\n        /* \"contracts/powerful-erc20.sol\":43350:43442  function renounceOwnership() public virtual onlyOwner {... */\n    tag_8:\n        /* \"contracts/powerful-erc20.sol\":42764:42771  address */\n      0x00\n        /* \"contracts/powerful-erc20.sol\":42790:42796  _owner */\n      sload\n      sub(shl(0xa0, 0x01), 0x01)\n      and\n        /* \"contracts/powerful-erc20.sol\":4164:4174  msg.sender */\n      caller\n        /* \"contracts/powerful-erc20.sol\":42930:42953  owner() == _msgSender() */\n      eq\n        /* \"contracts/powerful-erc20.sol\":42922:42990  require(owner() == _msgSender(), \"Ownable: caller is not the owner\") */\n      tag_25\n      jumpi\n      mload(0x40)\n      shl(0xe5, 0x461bcd)\n      dup2\n      mstore\n      0x04\n      add\n      tag_26\n      swap1\n      tag_27\n      jump\t// in\n    tag_26:\n      mload(0x40)\n      dup1\n      swap2\n      sub\n      swap1\n      revert\n    tag_25:\n        /* \"contracts/powerful-erc20.sol\":43414:43435  _setOwner(address(0)) */\n      tag_29\n        /* \"contracts/powerful-erc20.sol\":43432:43433  0 */\n      0x00\n        /* \"contracts/powerful-erc20.sol\":43414:43423  _setOwner */\n      tag_30\n        /* \"contracts/powerful-erc20.sol\":43414:43435  _setOwner(address(0)) */\n      jump\t// in\n    tag_29:\n        /* \"contracts/powerful-erc20.sol\":43350:43442  function renounceOwnership() public virtual onlyOwner {... */\n      jump\t// out\n        /* \"contracts/powerful-erc20.sol\":44446:44632  function recoverERC20(address tokenAddress, uint256 tokenAmount)... */\n    tag_12:\n        /* \"contracts/powerful-erc20.sol\":42764:42771  address */\n      0x00\n        /* \"contracts/powerful-erc20.sol\":42790:42796  _owner */\n      sload\n      sub(shl(0xa0, 0x01), 0x01)\n      and\n        /* \"contracts/powerful-erc20.sol\":4164:4174  msg.sender */\n      caller\n        /* \"contracts/powerful-erc20.sol\":42930:42953  owner() == _msgSender() */\n      eq\n        /* \"contracts/powerful-erc20.sol\":42922:42990  require(owner() == _msgSender(), \"Ownable: caller is not the owner\") */\n      tag_34\n      jumpi\n      mload(0x40)\n      shl(0xe5, 0x461bcd)\n      dup2\n      mstore\n      0x04\n      add\n      tag_26\n      swap1\n      tag_27\n      jump\t// in\n    tag_34:\n        /* \"contracts/powerful-erc20.sol\":44581:44593  tokenAddress */\n      dup2\n      sub(shl(0xa0, 0x01), 0x01)\n        /* \"contracts/powerful-erc20.sol\":44574:44603  IERC20(tokenAddress).transfer */\n      and\n      0xa9059cbb\n        /* \"contracts/powerful-erc20.sol\":44604:44611  owner() */\n      tag_37\n        /* \"contracts/powerful-erc20.sol\":42764:42771  address */\n      0x00\n        /* \"contracts/powerful-erc20.sol\":42790:42796  _owner */\n      sload\n      sub(shl(0xa0, 0x01), 0x01)\n      and\n      swap1\n        /* \"contracts/powerful-erc20.sol\":42718:42803  function owner() public view virtual returns (address) {... */\n      jump\n        /* \"contracts/powerful-erc20.sol\":44604:44611  owner() */\n    tag_37:\n        /* \"contracts/powerful-erc20.sol\":44574:44625  IERC20(tokenAddress).transfer(owner(), tokenAmount) */\n      mload(0x40)\n      not(sub(shl(0xe0, 0x01), 0x01))\n      0xe0\n      dup5\n      swap1\n      shl\n      and\n      dup2\n      mstore\n      sub(shl(0xa0, 0x01), 0x01)\n        /* \"#utility.yul\":1324:1356   */\n      swap1\n      swap2\n      and\n        /* \"contracts/powerful-erc20.sol\":44574:44625  IERC20(tokenAddress).transfer(owner(), tokenAmount) */\n      0x04\n      dup3\n      add\n        /* \"#utility.yul\":1306:1357   */\n      mstore\n        /* \"#utility.yul\":1373:1391   */\n      0x24\n      dup2\n      add\n        /* \"#utility.yul\":1366:1400   */\n      dup5\n      swap1\n      mstore\n        /* \"#utility.yul\":1279:1297   */\n      0x44\n      add\n        /* \"contracts/powerful-erc20.sol\":44574:44625  IERC20(tokenAddress).transfer(owner(), tokenAmount) */\n      0x20\n      mload(0x40)\n      dup1\n      dup4\n      sub\n      dup2\n      0x00\n      dup8\n      dup1\n      extcodesize\n      iszero\n      dup1\n      iszero\n      tag_40\n      jumpi\n      0x00\n      dup1\n      revert\n    tag_40:\n      pop\n      gas\n      call\n      iszero\n      dup1\n      iszero\n      tag_42\n      jumpi\n      returndatasize\n      0x00\n      dup1\n      returndatacopy\n      revert(0x00, returndatasize)\n    tag_42:\n      pop\n      pop\n      pop\n      pop\n      mload(0x40)\n      returndatasize\n      not(0x1f)\n      0x1f\n      dup3\n      add\n      and\n      dup3\n      add\n      dup1\n      0x40\n      mstore\n      pop\n      dup2\n      add\n      swap1\n      tag_43\n      swap2\n      swap1\n      tag_44\n      jump\t// in\n    tag_43:\n      pop\n        /* \"contracts/powerful-erc20.sol\":44446:44632  function recoverERC20(address tokenAddress, uint256 tokenAmount)... */\n      pop\n      pop\n      jump\t// out\n        /* \"contracts/powerful-erc20.sol\":43591:43814  function transferOwnership(address newOwner) public virtual onlyOwner {... */\n    tag_20:\n        /* \"contracts/powerful-erc20.sol\":42764:42771  address */\n      0x00\n        /* \"contracts/powerful-erc20.sol\":42790:42796  _owner */\n      sload\n      sub(shl(0xa0, 0x01), 0x01)\n      and\n        /* \"contracts/powerful-erc20.sol\":4164:4174  msg.sender */\n      caller\n        /* \"contracts/powerful-erc20.sol\":42930:42953  owner() == _msgSender() */\n      eq\n        /* \"contracts/powerful-erc20.sol\":42922:42990  require(owner() == _msgSender(), \"Ownable: caller is not the owner\") */\n      tag_49\n      jumpi\n      mload(0x40)\n      shl(0xe5, 0x461bcd)\n      dup2\n      mstore\n      0x04\n      add\n      tag_26\n      swap1\n      tag_27\n      jump\t// in\n    tag_49:\n      sub(shl(0xa0, 0x01), 0x01)\n        /* \"contracts/powerful-erc20.sol\":43692:43714  newOwner != address(0) */\n      dup2\n      and\n        /* \"contracts/powerful-erc20.sol\":43671:43778  require(... */\n      tag_52\n      jumpi\n      mload(0x40)\n      shl(0xe5, 0x461bcd)\n      dup2\n      mstore\n        /* \"#utility.yul\":1613:1615   */\n      0x20\n        /* \"contracts/powerful-erc20.sol\":43671:43778  require(... */\n      0x04\n      dup3\n      add\n        /* \"#utility.yul\":1595:1616   */\n      mstore\n        /* \"#utility.yul\":1652:1654   */\n      0x26\n        /* \"#utility.yul\":1632:1650   */\n      0x24\n      dup3\n      add\n        /* \"#utility.yul\":1625:1655   */\n      mstore\n        /* \"#utility.yul\":1691:1725   */\n      0x4f776e61626c653a206e6577206f776e657220697320746865207a65726f2061\n        /* \"#utility.yul\":1671:1689   */\n      0x44\n      dup3\n      add\n        /* \"#utility.yul\":1664:1726   */\n      mstore\n      shl(0xd0, 0x646472657373)\n        /* \"#utility.yul\":1742:1760   */\n      0x64\n      dup3\n      add\n        /* \"#utility.yul\":1735:1771   */\n      mstore\n        /* \"#utility.yul\":1788:1807   */\n      0x84\n      add\n        /* \"contracts/powerful-erc20.sol\":43671:43778  require(... */\n      tag_26\n        /* \"#utility.yul\":1411:1813   */\n      jump\n        /* \"contracts/powerful-erc20.sol\":43671:43778  require(... */\n    tag_52:\n        /* \"contracts/powerful-erc20.sol\":43788:43807  _setOwner(newOwner) */\n      tag_55\n        /* \"contracts/powerful-erc20.sol\":43798:43806  newOwner */\n      dup2\n        /* \"contracts/powerful-erc20.sol\":43788:43797  _setOwner */\n      tag_30\n        /* \"contracts/powerful-erc20.sol\":43788:43807  _setOwner(newOwner) */\n      jump\t// in\n    tag_55:\n        /* \"contracts/powerful-erc20.sol\":43591:43814  function transferOwnership(address newOwner) public virtual onlyOwner {... */\n      pop\n      jump\t// out\n        /* \"contracts/powerful-erc20.sol\":43820:43989  function _setOwner(address newOwner) private {... */\n    tag_30:\n        /* \"contracts/powerful-erc20.sol\":43875:43891  address oldOwner */\n      0x00\n        /* \"contracts/powerful-erc20.sol\":43894:43900  _owner */\n      dup1\n      sload\n      sub(shl(0xa0, 0x01), 0x01)\n        /* \"contracts/powerful-erc20.sol\":43910:43927  _owner = newOwner */\n      dup4\n      dup2\n      and\n      not(sub(shl(0xa0, 0x01), 0x01))\n      dup4\n      and\n      dup2\n      or\n      dup5\n      sstore\n        /* \"contracts/powerful-erc20.sol\":43942:43982  OwnershipTransferred(oldOwner, newOwner) */\n      mload(0x40)\n        /* \"contracts/powerful-erc20.sol\":43894:43900  _owner */\n      swap2\n      swap1\n      swap3\n      and\n      swap3\n      dup4\n      swap2\n        /* \"contracts/powerful-erc20.sol\":43942:43982  OwnershipTransferred(oldOwner, newOwner) */\n      0x8be0079c531659141344cd1fd0a4f28419497f9722a3daafe3b4186f6b6457e0\n      swap2\n        /* \"contracts/powerful-erc20.sol\":43875:43891  address oldOwner */\n      swap1\n        /* \"contracts/powerful-erc20.sol\":43942:43982  OwnershipTransferred(oldOwner, newOwner) */\n      log3\n        /* \"contracts/powerful-erc20.sol\":43865:43989  {... */\n      pop\n        /* \"contracts/powerful-erc20.sol\":43820:43989  function _setOwner(address newOwner) private {... */\n      pop\n      jump\t// out\n        /* \"#utility.yul\":14:187   */\n    tag_59:\n        /* \"#utility.yul\":82:102   */\n      dup1\n      calldataload\n      sub(shl(0xa0, 0x01), 0x01)\n        /* \"#utility.yul\":131:162   */\n      dup2\n      and\n        /* \"#utility.yul\":121:163   */\n      dup2\n      eq\n        /* \"#utility.yul\":111:181   */\n      tag_61\n      jumpi\n        /* \"#utility.yul\":177:178   */\n      0x00\n        /* \"#utility.yul\":174:175   */\n      dup1\n        /* \"#utility.yul\":167:179   */\n      revert\n        /* \"#utility.yul\":111:181   */\n    tag_61:\n        /* \"#utility.yul\":14:187   */\n      swap2\n      swap1\n      pop\n      jump\t// out\n        /* \"#utility.yul\":192:378   */\n    tag_19:\n        /* \"#utility.yul\":251:257   */\n      0x00\n        /* \"#utility.yul\":304:306   */\n      0x20\n        /* \"#utility.yul\":292:301   */\n      dup3\n        /* \"#utility.yul\":283:290   */\n      dup5\n        /* \"#utility.yul\":279:302   */\n      sub\n        /* \"#utility.yul\":275:307   */\n      slt\n        /* \"#utility.yul\":272:324   */\n      iszero\n      tag_63\n      jumpi\n        /* \"#utility.yul\":320:321   */\n      0x00\n        /* \"#utility.yul\":317:318   */\n      dup1\n        /* \"#utility.yul\":310:322   */\n      revert\n        /* \"#utility.yul\":272:324   */\n    tag_63:\n        /* \"#utility.yul\":343:372   */\n      tag_64\n        /* \"#utility.yul\":362:371   */\n      dup3\n        /* \"#utility.yul\":343:372   */\n      tag_59\n      jump\t// in\n    tag_64:\n        /* \"#utility.yul\":333:372   */\n      swap4\n        /* \"#utility.yul\":192:378   */\n      swap3\n      pop\n      pop\n      pop\n      jump\t// out\n        /* \"#utility.yul\":383:637   */\n    tag_11:\n        /* \"#utility.yul\":451:457   */\n      0x00\n        /* \"#utility.yul\":459:465   */\n      dup1\n        /* \"#utility.yul\":512:514   */\n      0x40\n        /* \"#utility.yul\":500:509   */\n      dup4\n        /* \"#utility.yul\":491:498   */\n      dup6\n        /* \"#utility.yul\":487:510   */\n      sub\n        /* \"#utility.yul\":483:515   */\n      slt\n        /* \"#utility.yul\":480:532   */\n      iszero\n      tag_66\n      jumpi\n        /* \"#utility.yul\":528:529   */\n      0x00\n        /* \"#utility.yul\":525:526   */\n      dup1\n        /* \"#utility.yul\":518:530   */\n      revert\n        /* \"#utility.yul\":480:532   */\n    tag_66:\n        /* \"#utility.yul\":551:580   */\n      tag_67\n        /* \"#utility.yul\":570:579   */\n      dup4\n        /* \"#utility.yul\":551:580   */\n      tag_59\n      jump\t// in\n    tag_67:\n        /* \"#utility.yul\":541:580   */\n      swap5\n        /* \"#utility.yul\":627:629   */\n      0x20\n        /* \"#utility.yul\":612:630   */\n      swap4\n      swap1\n      swap4\n      add\n        /* \"#utility.yul\":599:631   */\n      calldataload\n      swap4\n      pop\n      pop\n      pop\n        /* \"#utility.yul\":383:637   */\n      jump\t// out\n        /* \"#utility.yul\":642:919   */\n    tag_44:\n        /* \"#utility.yul\":709:715   */\n      0x00\n        /* \"#utility.yul\":762:764   */\n      0x20\n        /* \"#utility.yul\":750:759   */\n      dup3\n        /* \"#utility.yul\":741:748   */\n      dup5\n        /* \"#utility.yul\":737:760   */\n      sub\n        /* \"#utility.yul\":733:765   */\n      slt\n        /* \"#utility.yul\":730:782   */\n      iszero\n      tag_69\n      jumpi\n        /* \"#utility.yul\":778:779   */\n      0x00\n        /* \"#utility.yul\":775:776   */\n      dup1\n        /* \"#utility.yul\":768:780   */\n      revert\n        /* \"#utility.yul\":730:782   */\n    tag_69:\n        /* \"#utility.yul\":810:819   */\n      dup2\n        /* \"#utility.yul\":804:820   */\n      mload\n        /* \"#utility.yul\":863:868   */\n      dup1\n        /* \"#utility.yul\":856:869   */\n      iszero\n        /* \"#utility.yul\":849:870   */\n      iszero\n        /* \"#utility.yul\":842:847   */\n      dup2\n        /* \"#utility.yul\":839:871   */\n      eq\n        /* \"#utility.yul\":829:889   */\n      tag_64\n      jumpi\n        /* \"#utility.yul\":885:886   */\n      0x00\n        /* \"#utility.yul\":882:883   */\n      dup1\n        /* \"#utility.yul\":875:887   */\n      revert\n        /* \"#utility.yul\":1818:2174   */\n    tag_27:\n        /* \"#utility.yul\":2020:2022   */\n      0x20\n        /* \"#utility.yul\":2002:2023   */\n      dup1\n      dup3\n      mstore\n        /* \"#utility.yul\":2039:2057   */\n      dup2\n      dup2\n      add\n        /* \"#utility.yul\":2032:2062   */\n      mstore\n        /* \"#utility.yul\":2098:2132   */\n      0x4f776e61626c653a2063616c6c6572206973206e6f7420746865206f776e6572\n        /* \"#utility.yul\":2093:2095   */\n      0x40\n        /* \"#utility.yul\":2078:2096   */\n      dup3\n      add\n        /* \"#utility.yul\":2071:2133   */\n      mstore\n        /* \"#utility.yul\":2165:2167   */\n      0x60\n        /* \"#utility.yul\":2150:2168   */\n      add\n      swap1\n        /* \"#utility.yul\":1818:2174   */\n      jump\t// out\n\n    auxdata: 0xa2646970667358221220a70995d188bb52d35b656a6341eb506ecc86d0e437711e7b46120b560cb0416964736f6c63430008070033\n}\n",
				"bytecode": {
					"linkReferences": {},
					"object": "608060405234801561001057600080fd5b5061001a3361001f565b61006f565b600080546001600160a01b038381166001600160a01b0319831681178455604051919092169283917f8be0079c531659141344cd1fd0a4f28419497f9722a3daafe3b4186f6b6457e09190a35050565b61038f8061007e6000396000f3fe608060405234801561001057600080fd5b506004361061004c5760003560e01c8063715018a6146100515780638980f11f1461005b5780638da5cb5b1461006e578063f2fde38b1461008d575b600080fd5b6100596100a0565b005b6100596100693660046102d8565b6100df565b600054604080516001600160a01b039092168252519081900360200190f35b61005961009b3660046102b6565b6101af565b6000546001600160a01b031633146100d35760405162461bcd60e51b81526004016100ca90610324565b60405180910390fd5b6100dd600061024a565b565b6000546001600160a01b031633146101095760405162461bcd60e51b81526004016100ca90610324565b816001600160a01b031663a9059cbb61012a6000546001600160a01b031690565b6040516001600160e01b031960e084901b1681526001600160a01b03909116600482015260248101849052604401602060405180830381600087803b15801561017257600080fd5b505af1158015610186573d6000803e3d6000fd5b505050506040513d601f19601f820116820180604052508101906101aa9190610302565b505050565b6000546001600160a01b031633146101d95760405162461bcd60e51b81526004016100ca90610324565b6001600160a01b03811661023e5760405162461bcd60e51b815260206004820152602660248201527f4f776e61626c653a206e6577206f776e657220697320746865207a65726f206160448201526564647265737360d01b60648201526084016100ca565b6102478161024a565b50565b600080546001600160a01b038381166001600160a01b0319831681178455604051919092169283917f8be0079c531659141344cd1fd0a4f28419497f9722a3daafe3b4186f6b6457e09190a35050565b80356001600160a01b03811681146102b157600080fd5b919050565b6000602082840312156102c857600080fd5b6102d18261029a565b9392505050565b600080604083850312156102eb57600080fd5b6102f48361029a565b946020939093013593505050565b60006020828403121561031457600080fd5b815180151581146102d157600080fd5b6020808252818101527f4f776e61626c653a2063616c6c6572206973206e6f7420746865206f776e657260408201526060019056fea2646970667358221220a70995d188bb52d35b656a6341eb506ecc86d0e437711e7b46120b560cb0416964736f6c63430008070033",
					"opcodes": "PUSH1 0x80 PUSH1 0x40 MSTORE CALLVALUE DUP1 ISZERO PUSH2 0x10 JUMPI PUSH1 0x0 DUP1 REVERT JUMPDEST POP PUSH2 0x1A CALLER PUSH2 0x1F JUMP JUMPDEST PUSH2 0x6F JUMP JUMPDEST PUSH1 0x0 DUP1 SLOAD PUSH1 0x1 PUSH1 0x1 PUSH1 0xA0 SHL SUB DUP4 DUP2 AND PUSH1 0x1 PUSH1 0x1 PUSH1 0xA0 SHL SUB NOT DUP4 AND DUP2 OR DUP5 SSTORE PUSH1 0x40 MLOAD SWAP2 SWAP1 SWAP3 AND SWAP3 DUP4 SWAP2 PUSH32 0x8BE0079C531659141344CD1FD0A4F28419497F9722A3DAAFE3B4186F6B6457E0 SWAP2 SWAP1 LOG3 POP POP JUMP JUMPDEST PUSH2 0x38F DUP1 PUSH2 0x7E PUSH1 0x0 CODECOPY PUSH1 0x0 RETURN INVALID PUSH1 0x80 PUSH1 0x40 MSTORE CALLVALUE DUP1 ISZERO PUSH2 0x10 JUMPI PUSH1 0x0 DUP1 REVERT JUMPDEST POP PUSH1 0x4 CALLDATASIZE LT PUSH2 0x4C JUMPI PUSH1 0x0 CALLDATALOAD PUSH1 0xE0 SHR DUP1 PUSH4 0x715018A6 EQ PUSH2 0x51 JUMPI DUP1 PUSH4 0x8980F11F EQ PUSH2 0x5B JUMPI DUP1 PUSH4 0x8DA5CB5B EQ PUSH2 0x6E JUMPI DUP1 PUSH4 0xF2FDE38B EQ PUSH2 0x8D JUMPI JUMPDEST PUSH1 0x0 DUP1 REVERT JUMPDEST PUSH2 0x59 PUSH2 0xA0 JUMP JUMPDEST STOP JUMPDEST PUSH2 0x59 PUSH2 0x69 CALLDATASIZE PUSH1 0x4 PUSH2 0x2D8 JUMP JUMPDEST PUSH2 0xDF JUMP JUMPDEST PUSH1 0x0 SLOAD PUSH1 0x40 DUP1 MLOAD PUSH1 0x1 PUSH1 0x1 PUSH1 0xA0 SHL SUB SWAP1 SWAP3 AND DUP3 MSTORE MLOAD SWAP1 DUP2 SWAP1 SUB PUSH1 0x20 ADD SWAP1 RETURN JUMPDEST PUSH2 0x59 PUSH2 0x9B CALLDATASIZE PUSH1 0x4 PUSH2 0x2B6 JUMP JUMPDEST PUSH2 0x1AF JUMP JUMPDEST PUSH1 0x0 SLOAD PUSH1 0x1 PUSH1 0x1 PUSH1 0xA0 SHL SUB AND CALLER EQ PUSH2 0xD3 JUMPI PUSH1 0x40 MLOAD PUSH3 0x461BCD PUSH1 0xE5 SHL DUP2 MSTORE PUSH1 0x4 ADD PUSH2 0xCA SWAP1 PUSH2 0x324 JUMP JUMPDEST PUSH1 0x40 MLOAD DUP1 SWAP2 SUB SWAP1 REVERT JUMPDEST PUSH2 0xDD PUSH1 0x0 PUSH2 0x24A JUMP JUMPDEST JUMP JUMPDEST PUSH1 0x0 SLOAD PUSH1 0x1 PUSH1 0x1 PUSH1 0xA0 SHL SUB AND CALLER EQ PUSH2 0x109 JUMPI PUSH1 0x40 MLOAD PUSH3 0x461BCD PUSH1 0xE5 SHL DUP2 MSTORE PUSH1 0x4 ADD PUSH2 0xCA SWAP1 PUSH2 0x324 JUMP JUMPDEST DUP2 PUSH1 0x1 PUSH1 0x1 PUSH1 0xA0 SHL SUB AND PUSH4 0xA9059CBB PUSH2 0x12A PUSH1 0x0 SLOAD PUSH1 0x1 PUSH1 0x1 PUSH1 0xA0 SHL SUB AND SWAP1 JUMP JUMPDEST PUSH1 0x40 MLOAD PUSH1 0x1 PUSH1 0x1 PUSH1 0xE0 SHL SUB NOT PUSH1 0xE0 DUP5 SWAP1 SHL AND DUP2 MSTORE PUSH1 0x1 PUSH1 0x1 PUSH1 0xA0 SHL SUB SWAP1 SWAP2 AND PUSH1 0x4 DUP3 ADD MSTORE PUSH1 0x24 DUP2 ADD DUP5 SWAP1 MSTORE PUSH1 0x44 ADD PUSH1 0x20 PUSH1 0x40 MLOAD DUP1 DUP4 SUB DUP2 PUSH1 0x0 DUP8 DUP1 EXTCODESIZE ISZERO DUP1 ISZERO PUSH2 0x172 JUMPI PUSH1 0x0 DUP1 REVERT JUMPDEST POP GAS CALL ISZERO DUP1 ISZERO PUSH2 0x186 JUMPI RETURNDATASIZE PUSH1 0x0 DUP1 RETURNDATACOPY RETURNDATASIZE PUSH1 0x0 REVERT JUMPDEST POP POP POP POP PUSH1 0x40 MLOAD RETURNDATASIZE PUSH1 0x1F NOT PUSH1 0x1F DUP3 ADD AND DUP3 ADD DUP1 PUSH1 0x40 MSTORE POP DUP2 ADD SWAP1 PUSH2 0x1AA SWAP2 SWAP1 PUSH2 0x302 JUMP JUMPDEST POP POP POP JUMP JUMPDEST PUSH1 0x0 SLOAD PUSH1 0x1 PUSH1 0x1 PUSH1 0xA0 SHL SUB AND CALLER EQ PUSH2 0x1D9 JUMPI PUSH1 0x40 MLOAD PUSH3 0x461BCD PUSH1 0xE5 SHL DUP2 MSTORE PUSH1 0x4 ADD PUSH2 0xCA SWAP1 PUSH2 0x324 JUMP JUMPDEST PUSH1 0x1 PUSH1 0x1 PUSH1 0xA0 SHL SUB DUP2 AND PUSH2 0x23E JUMPI PUSH1 0x40 MLOAD PUSH3 0x461BCD PUSH1 0xE5 SHL DUP2 MSTORE PUSH1 0x20 PUSH1 0x4 DUP3 ADD MSTORE PUSH1 0x26 PUSH1 0x24 DUP3 ADD MSTORE PUSH32 0x4F776E61626C653A206E6577206F776E657220697320746865207A65726F2061 PUSH1 0x44 DUP3 ADD MSTORE PUSH6 0x646472657373 PUSH1 0xD0 SHL PUSH1 0x64 DUP3 ADD MSTORE PUSH1 0x84 ADD PUSH2 0xCA JUMP JUMPDEST PUSH2 0x247 DUP2 PUSH2 0x24A JUMP JUMPDEST POP JUMP JUMPDEST PUSH1 0x0 DUP1 SLOAD PUSH1 0x1 PUSH1 0x1 PUSH1 0xA0 SHL SUB DUP4 DUP2 AND PUSH1 0x1 PUSH1 0x1 PUSH1 0xA0 SHL SUB NOT DUP4 AND DUP2 OR DUP5 SSTORE PUSH1 0x40 MLOAD SWAP2 SWAP1 SWAP3 AND SWAP3 DUP4 SWAP2 PUSH32 0x8BE0079C531659141344CD1FD0A4F28419497F9722A3DAAFE3B4186F6B6457E0 SWAP2 SWAP1 LOG3 POP POP JUMP JUMPDEST DUP1 CALLDATALOAD PUSH1 0x1 PUSH1 0x1 PUSH1 0xA0 SHL SUB DUP2 AND DUP2 EQ PUSH2 0x2B1 JUMPI PUSH1 0x0 DUP1 REVERT JUMPDEST SWAP2 SWAP1 POP JUMP JUMPDEST PUSH1 0x0 PUSH1 0x20 DUP3 DUP5 SUB SLT ISZERO PUSH2 0x2C8 JUMPI PUSH1 0x0 DUP1 REVERT JUMPDEST PUSH2 0x2D1 DUP3 PUSH2 0x29A JUMP JUMPDEST SWAP4 SWAP3 POP POP POP JUMP JUMPDEST PUSH1 0x0 DUP1 PUSH1 0x40 DUP4 DUP6 SUB SLT ISZERO PUSH2 0x2EB JUMPI PUSH1 0x0 DUP1 REVERT JUMPDEST PUSH2 0x2F4 DUP4 PUSH2 0x29A JUMP JUMPDEST SWAP5 PUSH1 0x20 SWAP4 SWAP1 SWAP4 ADD CALLDATALOAD SWAP4 POP POP POP JUMP JUMPDEST PUSH1 0x0 PUSH1 0x20 DUP3 DUP5 SUB SLT ISZERO PUSH2 0x314 JUMPI PUSH1 0x0 DUP1 REVERT JUMPDEST DUP2 MLOAD DUP1 ISZERO ISZERO DUP2 EQ PUSH2 0x2D1 JUMPI PUSH1 0x0 DUP1 REVERT JUMPDEST PUSH1 0x20 DUP1 DUP3 MSTORE DUP2 DUP2 ADD MSTORE PUSH32 0x4F776E61626C653A2063616C6C6572206973206E6F7420746865206F776E6572 PUSH1 0x40 DUP3 ADD MSTORE PUSH1 0x60 ADD SWAP1 JUMP INVALID LOG2 PUSH5 0x6970667358 0x22 SLT KECCAK256 0xA7 MULMOD SWAP6 0xD1 DUP9 0xBB MSTORE 0xD3 JUMPDEST PUSH6 0x6A6341EB506E 0xCC DUP7 0xD0 0xE4 CALLDATACOPY PUSH18 0x1E7B46120B560CB0416964736F6C63430008 SMOD STOP CALLER "
				},
				"gasEstimates": {
					"creation": {
						"codeDepositCost": "182200",
						"executionCost": "26067",
						"totalCost": "208267"
					},
					"external": {
						"owner()": "2314",
						"recoverERC20(address,uint256)": "infinite",
						"renounceOwnership()": "28092",
						"transferOwnership(address)": "28353"
					}
				},
				"methodIdentifiers": {
					"owner()": "8da5cb5b",
					"recoverERC20(address,uint256)": "8980f11f",
					"renounceOwnership()": "715018a6",
					"transferOwnership(address)": "f2fde38b"
				}
			},
			"userdoc": {
				"kind": "user",
				"methods": {},
				"version": 1
			}
		}
	}
}