{
	"contracts/Bounty.sol": {
		"BountyAddr": {
			"abi": [
				{
					"inputs": [
						{
							"internalType": "string",
							"name": "bountyId",
							"type": "string"
						},
						{
							"internalType": "address",
							"name": "bountyBase",
							"type": "address"
						}
					],
					"stateMutability": "nonpayable",
					"type": "constructor"
				},
				{
					"inputs": [
						{
							"internalType": "contract IERC20",
							"name": "token",
							"type": "address"
						},
						{
							"internalType": "address",
							"name": "to",
							"type": "address"
						},
						{
							"internalType": "uint256",
							"name": "amount",
							"type": "uint256"
						}
					],
					"name": "approve",
					"outputs": [],
					"stateMutability": "nonpayable",
					"type": "function"
				},
				{
					"inputs": [],
					"name": "deposit",
					"outputs": [],
					"stateMutability": "payable",
					"type": "function"
				},
				{
					"inputs": [],
					"name": "getPool",
					"outputs": [
						{
							"internalType": "address payable",
							"name": "",
							"type": "address"
						}
					],
					"stateMutability": "view",
					"type": "function"
				},
				{
					"inputs": [],
					"name": "id",
					"outputs": [
						{
							"internalType": "string",
							"name": "",
							"type": "string"
						}
					],
					"stateMutability": "view",
					"type": "function"
				},
				{
					"inputs": [
						{
							"internalType": "address payable",
							"name": "to",
							"type": "address"
						},
						{
							"internalType": "uint256",
							"name": "amount",
							"type": "uint256"
						}
					],
					"name": "stableTransfer",
					"outputs": [],
					"stateMutability": "payable",
					"type": "function"
				},
				{
					"inputs": [
						{
							"internalType": "contract IERC20",
							"name": "token",
							"type": "address"
						},
						{
							"internalType": "address",
							"name": "to",
							"type": "address"
						},
						{
							"internalType": "uint256",
							"name": "amount",
							"type": "uint256"
						}
					],
					"name": "transfer",
					"outputs": [],
					"stateMutability": "nonpayable",
					"type": "function"
				},
				{
					"inputs": [
						{
							"internalType": "contract IERC20",
							"name": "token",
							"type": "address"
						},
						{
							"internalType": "address",
							"name": "to",
							"type": "address"
						},
						{
							"internalType": "uint256",
							"name": "amount",
							"type": "uint256"
						}
					],
					"name": "transferFrom",
					"outputs": [],
					"stateMutability": "nonpayable",
					"type": "function"
				},
				{
					"stateMutability": "payable",
					"type": "receive"
				}
			],
			"devdoc": {
				"kind": "dev",
				"methods": {},
				"version": 1
			},
			"evm": {
				"assembly": "    /* \"contracts/Bounty.sol\":731:1925  contract BountyAddr {... */\n  mstore(0x40, 0x80)\n    /* \"contracts/Bounty.sol\":1082:1202  constructor(string memory bountyId, address bountyBase) {... */\n  callvalue\n  dup1\n  iszero\n  tag_1\n  jumpi\n  0x00\n  dup1\n  revert\ntag_1:\n  pop\n  mload(0x40)\n  sub(codesize, bytecodeSize)\n  dup1\n  bytecodeSize\n  dup4\n  codecopy\n  dup2\n  dup2\n  add\n  0x40\n  mstore\n  dup2\n  add\n  swap1\n  tag_2\n  swap2\n  swap1\n  tag_3\n  jump\t// in\ntag_2:\n    /* \"contracts/Bounty.sol\":1153:1161  bountyId */\n  dup2\n    /* \"contracts/Bounty.sol\":1148:1150  id */\n  0x01\n    /* \"contracts/Bounty.sol\":1148:1161  id = bountyId */\n  swap1\n  dup1\n  mload\n  swap1\n  0x20\n  add\n  swap1\n  tag_6\n  swap3\n  swap2\n  swap1\n  tag_7\n  jump\t// in\ntag_6:\n  pop\n    /* \"contracts/Bounty.sol\":1185:1195  bountyBase */\n  dup1\n    /* \"contracts/Bounty.sol\":1171:1182  _bountyBase */\n  0x00\n  dup1\n    /* \"contracts/Bounty.sol\":1171:1195  _bountyBase = bountyBase */\n  0x0100\n  exp\n  dup2\n  sload\n  dup2\n  0xffffffffffffffffffffffffffffffffffffffff\n  mul\n  not\n  and\n  swap1\n  dup4\n  0xffffffffffffffffffffffffffffffffffffffff\n  and\n  mul\n  or\n  swap1\n  sstore\n  pop\n    /* \"contracts/Bounty.sol\":1082:1202  constructor(string memory bountyId, address bountyBase) {... */\n  pop\n  pop\n    /* \"contracts/Bounty.sol\":731:1925  contract BountyAddr {... */\n  jump(tag_8)\ntag_7:\n  dup3\n  dup1\n  sload\n  tag_9\n  swap1\n  tag_10\n  jump\t// in\ntag_9:\n  swap1\n  0x00\n  mstore\n  keccak256(0x00, 0x20)\n  swap1\n  0x1f\n  add\n  0x20\n  swap1\n  div\n  dup2\n  add\n  swap3\n  dup3\n  tag_12\n  jumpi\n  0x00\n  dup6\n  sstore\n  jump(tag_11)\ntag_12:\n  dup3\n  0x1f\n  lt\n  tag_13\n  jumpi\n  dup1\n  mload\n  not(0xff)\n  and\n  dup4\n  dup1\n  add\n  or\n  dup6\n  sstore\n  jump(tag_11)\ntag_13:\n  dup3\n  dup1\n  add\n  0x01\n  add\n  dup6\n  sstore\n  dup3\n  iszero\n  tag_11\n  jumpi\n  swap2\n  dup3\n  add\ntag_14:\n  dup3\n  dup2\n  gt\n  iszero\n  tag_15\n  jumpi\n  dup3\n  mload\n  dup3\n  sstore\n  swap2\n  0x20\n  add\n  swap2\n  swap1\n  0x01\n  add\n  swap1\n  jump(tag_14)\ntag_15:\ntag_11:\n  pop\n  swap1\n  pop\n  tag_16\n  swap2\n  swap1\n  tag_17\n  jump\t// in\ntag_16:\n  pop\n  swap1\n  jump\t// out\ntag_17:\ntag_18:\n  dup1\n  dup3\n  gt\n  iszero\n  tag_19\n  jumpi\n  0x00\n  dup2\n  0x00\n  swap1\n  sstore\n  pop\n  0x01\n  add\n  jump(tag_18)\ntag_19:\n  pop\n  swap1\n  jump\t// out\n    /* \"#utility.yul\":7:428   */\ntag_21:\n    /* \"#utility.yul\":96:101   */\n  0x00\n    /* \"#utility.yul\":121:187   */\n  tag_23\n    /* \"#utility.yul\":137:186   */\n  tag_24\n    /* \"#utility.yul\":179:185   */\n  dup5\n    /* \"#utility.yul\":137:186   */\n  tag_25\n  jump\t// in\ntag_24:\n    /* \"#utility.yul\":121:187   */\n  tag_26\n  jump\t// in\ntag_23:\n    /* \"#utility.yul\":112:187   */\n  swap1\n  pop\n    /* \"#utility.yul\":210:216   */\n  dup3\n    /* \"#utility.yul\":203:208   */\n  dup2\n    /* \"#utility.yul\":196:217   */\n  mstore\n    /* \"#utility.yul\":248:252   */\n  0x20\n    /* \"#utility.yul\":241:246   */\n  dup2\n    /* \"#utility.yul\":237:253   */\n  add\n    /* \"#utility.yul\":286:289   */\n  dup5\n    /* \"#utility.yul\":277:283   */\n  dup5\n    /* \"#utility.yul\":272:275   */\n  dup5\n    /* \"#utility.yul\":268:284   */\n  add\n    /* \"#utility.yul\":265:290   */\n  gt\n    /* \"#utility.yul\":262:374   */\n  iszero\n  tag_27\n  jumpi\n    /* \"#utility.yul\":293:372   */\n  tag_28\n  tag_29\n  jump\t// in\ntag_28:\n    /* \"#utility.yul\":262:374   */\ntag_27:\n    /* \"#utility.yul\":383:422   */\n  tag_30\n    /* \"#utility.yul\":415:421   */\n  dup5\n    /* \"#utility.yul\":410:413   */\n  dup3\n    /* \"#utility.yul\":405:408   */\n  dup6\n    /* \"#utility.yul\":383:422   */\n  tag_31\n  jump\t// in\ntag_30:\n    /* \"#utility.yul\":102:428   */\n  pop\n    /* \"#utility.yul\":7:428   */\n  swap4\n  swap3\n  pop\n  pop\n  pop\n  jump\t// out\n    /* \"#utility.yul\":434:577   */\ntag_32:\n    /* \"#utility.yul\":491:496   */\n  0x00\n    /* \"#utility.yul\":522:528   */\n  dup2\n    /* \"#utility.yul\":516:529   */\n  mload\n    /* \"#utility.yul\":507:529   */\n  swap1\n  pop\n    /* \"#utility.yul\":538:571   */\n  tag_34\n    /* \"#utility.yul\":565:570   */\n  dup2\n    /* \"#utility.yul\":538:571   */\n  tag_35\n  jump\t// in\ntag_34:\n    /* \"#utility.yul\":434:577   */\n  swap3\n  swap2\n  pop\n  pop\n  jump\t// out\n    /* \"#utility.yul\":597:952   */\ntag_36:\n    /* \"#utility.yul\":664:669   */\n  0x00\n    /* \"#utility.yul\":713:716   */\n  dup3\n    /* \"#utility.yul\":706:710   */\n  0x1f\n    /* \"#utility.yul\":698:704   */\n  dup4\n    /* \"#utility.yul\":694:711   */\n  add\n    /* \"#utility.yul\":690:717   */\n  slt\n    /* \"#utility.yul\":680:802   */\n  tag_38\n  jumpi\n    /* \"#utility.yul\":721:800   */\n  tag_39\n  tag_40\n  jump\t// in\ntag_39:\n    /* \"#utility.yul\":680:802   */\ntag_38:\n    /* \"#utility.yul\":831:837   */\n  dup2\n    /* \"#utility.yul\":825:838   */\n  mload\n    /* \"#utility.yul\":856:946   */\n  tag_41\n    /* \"#utility.yul\":942:945   */\n  dup5\n    /* \"#utility.yul\":934:940   */\n  dup3\n    /* \"#utility.yul\":927:931   */\n  0x20\n    /* \"#utility.yul\":919:925   */\n  dup7\n    /* \"#utility.yul\":915:932   */\n  add\n    /* \"#utility.yul\":856:946   */\n  tag_21\n  jump\t// in\ntag_41:\n    /* \"#utility.yul\":847:946   */\n  swap2\n  pop\n    /* \"#utility.yul\":670:952   */\n  pop\n    /* \"#utility.yul\":597:952   */\n  swap3\n  swap2\n  pop\n  pop\n  jump\t// out\n    /* \"#utility.yul\":958:1638   */\ntag_3:\n    /* \"#utility.yul\":1047:1053   */\n  0x00\n    /* \"#utility.yul\":1055:1061   */\n  dup1\n    /* \"#utility.yul\":1104:1106   */\n  0x40\n    /* \"#utility.yul\":1092:1101   */\n  dup4\n    /* \"#utility.yul\":1083:1090   */\n  dup6\n    /* \"#utility.yul\":1079:1102   */\n  sub\n    /* \"#utility.yul\":1075:1107   */\n  slt\n    /* \"#utility.yul\":1072:1191   */\n  iszero\n  tag_43\n  jumpi\n    /* \"#utility.yul\":1110:1189   */\n  tag_44\n  tag_45\n  jump\t// in\ntag_44:\n    /* \"#utility.yul\":1072:1191   */\ntag_43:\n    /* \"#utility.yul\":1251:1252   */\n  0x00\n    /* \"#utility.yul\":1240:1249   */\n  dup4\n    /* \"#utility.yul\":1236:1253   */\n  add\n    /* \"#utility.yul\":1230:1254   */\n  mload\n    /* \"#utility.yul\":1281:1299   */\n  0xffffffffffffffff\n    /* \"#utility.yul\":1273:1279   */\n  dup2\n    /* \"#utility.yul\":1270:1300   */\n  gt\n    /* \"#utility.yul\":1267:1384   */\n  iszero\n  tag_46\n  jumpi\n    /* \"#utility.yul\":1303:1382   */\n  tag_47\n  tag_48\n  jump\t// in\ntag_47:\n    /* \"#utility.yul\":1267:1384   */\ntag_46:\n    /* \"#utility.yul\":1408:1482   */\n  tag_49\n    /* \"#utility.yul\":1474:1481   */\n  dup6\n    /* \"#utility.yul\":1465:1471   */\n  dup3\n    /* \"#utility.yul\":1454:1463   */\n  dup7\n    /* \"#utility.yul\":1450:1472   */\n  add\n    /* \"#utility.yul\":1408:1482   */\n  tag_36\n  jump\t// in\ntag_49:\n    /* \"#utility.yul\":1398:1482   */\n  swap3\n  pop\n    /* \"#utility.yul\":1201:1492   */\n  pop\n    /* \"#utility.yul\":1531:1533   */\n  0x20\n    /* \"#utility.yul\":1557:1621   */\n  tag_50\n    /* \"#utility.yul\":1613:1620   */\n  dup6\n    /* \"#utility.yul\":1604:1610   */\n  dup3\n    /* \"#utility.yul\":1593:1602   */\n  dup7\n    /* \"#utility.yul\":1589:1611   */\n  add\n    /* \"#utility.yul\":1557:1621   */\n  tag_32\n  jump\t// in\ntag_50:\n    /* \"#utility.yul\":1547:1621   */\n  swap2\n  pop\n    /* \"#utility.yul\":1502:1631   */\n  pop\n    /* \"#utility.yul\":958:1638   */\n  swap3\n  pop\n  swap3\n  swap1\n  pop\n  jump\t// out\n    /* \"#utility.yul\":1644:1773   */\ntag_26:\n    /* \"#utility.yul\":1678:1684   */\n  0x00\n    /* \"#utility.yul\":1705:1725   */\n  tag_52\n  tag_53\n  jump\t// in\ntag_52:\n    /* \"#utility.yul\":1695:1725   */\n  swap1\n  pop\n    /* \"#utility.yul\":1734:1767   */\n  tag_54\n    /* \"#utility.yul\":1762:1766   */\n  dup3\n    /* \"#utility.yul\":1754:1760   */\n  dup3\n    /* \"#utility.yul\":1734:1767   */\n  tag_55\n  jump\t// in\ntag_54:\n    /* \"#utility.yul\":1644:1773   */\n  swap2\n  swap1\n  pop\n  jump\t// out\n    /* \"#utility.yul\":1779:1854   */\ntag_53:\n    /* \"#utility.yul\":1812:1818   */\n  0x00\n    /* \"#utility.yul\":1845:1847   */\n  0x40\n    /* \"#utility.yul\":1839:1848   */\n  mload\n    /* \"#utility.yul\":1829:1848   */\n  swap1\n  pop\n    /* \"#utility.yul\":1779:1854   */\n  swap1\n  jump\t// out\n    /* \"#utility.yul\":1860:2168   */\ntag_25:\n    /* \"#utility.yul\":1922:1926   */\n  0x00\n    /* \"#utility.yul\":2012:2030   */\n  0xffffffffffffffff\n    /* \"#utility.yul\":2004:2010   */\n  dup3\n    /* \"#utility.yul\":2001:2031   */\n  gt\n    /* \"#utility.yul\":1998:2054   */\n  iszero\n  tag_58\n  jumpi\n    /* \"#utility.yul\":2034:2052   */\n  tag_59\n  tag_60\n  jump\t// in\ntag_59:\n    /* \"#utility.yul\":1998:2054   */\ntag_58:\n    /* \"#utility.yul\":2072:2101   */\n  tag_61\n    /* \"#utility.yul\":2094:2100   */\n  dup3\n    /* \"#utility.yul\":2072:2101   */\n  tag_62\n  jump\t// in\ntag_61:\n    /* \"#utility.yul\":2064:2101   */\n  swap1\n  pop\n    /* \"#utility.yul\":2156:2160   */\n  0x20\n    /* \"#utility.yul\":2150:2154   */\n  dup2\n    /* \"#utility.yul\":2146:2161   */\n  add\n    /* \"#utility.yul\":2138:2161   */\n  swap1\n  pop\n    /* \"#utility.yul\":1860:2168   */\n  swap2\n  swap1\n  pop\n  jump\t// out\n    /* \"#utility.yul\":2174:2270   */\ntag_63:\n    /* \"#utility.yul\":2211:2218   */\n  0x00\n    /* \"#utility.yul\":2240:2264   */\n  tag_65\n    /* \"#utility.yul\":2258:2263   */\n  dup3\n    /* \"#utility.yul\":2240:2264   */\n  tag_66\n  jump\t// in\ntag_65:\n    /* \"#utility.yul\":2229:2264   */\n  swap1\n  pop\n    /* \"#utility.yul\":2174:2270   */\n  swap2\n  swap1\n  pop\n  jump\t// out\n    /* \"#utility.yul\":2276:2402   */\ntag_66:\n    /* \"#utility.yul\":2313:2320   */\n  0x00\n    /* \"#utility.yul\":2353:2395   */\n  0xffffffffffffffffffffffffffffffffffffffff\n    /* \"#utility.yul\":2346:2351   */\n  dup3\n    /* \"#utility.yul\":2342:2396   */\n  and\n    /* \"#utility.yul\":2331:2396   */\n  swap1\n  pop\n    /* \"#utility.yul\":2276:2402   */\n  swap2\n  swap1\n  pop\n  jump\t// out\n    /* \"#utility.yul\":2408:2715   */\ntag_31:\n    /* \"#utility.yul\":2476:2477   */\n  0x00\n    /* \"#utility.yul\":2486:2599   */\ntag_69:\n    /* \"#utility.yul\":2500:2506   */\n  dup4\n    /* \"#utility.yul\":2497:2498   */\n  dup2\n    /* \"#utility.yul\":2494:2507   */\n  lt\n    /* \"#utility.yul\":2486:2599   */\n  iszero\n  tag_71\n  jumpi\n    /* \"#utility.yul\":2585:2586   */\n  dup1\n    /* \"#utility.yul\":2580:2583   */\n  dup3\n    /* \"#utility.yul\":2576:2587   */\n  add\n    /* \"#utility.yul\":2570:2588   */\n  mload\n    /* \"#utility.yul\":2566:2567   */\n  dup2\n    /* \"#utility.yul\":2561:2564   */\n  dup5\n    /* \"#utility.yul\":2557:2568   */\n  add\n    /* \"#utility.yul\":2550:2589   */\n  mstore\n    /* \"#utility.yul\":2522:2524   */\n  0x20\n    /* \"#utility.yul\":2519:2520   */\n  dup2\n    /* \"#utility.yul\":2515:2525   */\n  add\n    /* \"#utility.yul\":2510:2525   */\n  swap1\n  pop\n    /* \"#utility.yul\":2486:2599   */\n  jump(tag_69)\ntag_71:\n    /* \"#utility.yul\":2617:2623   */\n  dup4\n    /* \"#utility.yul\":2614:2615   */\n  dup2\n    /* \"#utility.yul\":2611:2624   */\n  gt\n    /* \"#utility.yul\":2608:2709   */\n  iszero\n  tag_72\n  jumpi\n    /* \"#utility.yul\":2697:2698   */\n  0x00\n    /* \"#utility.yul\":2688:2694   */\n  dup5\n    /* \"#utility.yul\":2683:2686   */\n  dup5\n    /* \"#utility.yul\":2679:2695   */\n  add\n    /* \"#utility.yul\":2672:2699   */\n  mstore\n    /* \"#utility.yul\":2608:2709   */\ntag_72:\n    /* \"#utility.yul\":2457:2715   */\n  pop\n    /* \"#utility.yul\":2408:2715   */\n  pop\n  pop\n  pop\n  jump\t// out\n    /* \"#utility.yul\":2721:3041   */\ntag_10:\n    /* \"#utility.yul\":2765:2771   */\n  0x00\n    /* \"#utility.yul\":2802:2803   */\n  0x02\n    /* \"#utility.yul\":2796:2800   */\n  dup3\n    /* \"#utility.yul\":2792:2804   */\n  div\n    /* \"#utility.yul\":2782:2804   */\n  swap1\n  pop\n    /* \"#utility.yul\":2849:2850   */\n  0x01\n    /* \"#utility.yul\":2843:2847   */\n  dup3\n    /* \"#utility.yul\":2839:2851   */\n  and\n    /* \"#utility.yul\":2870:2888   */\n  dup1\n    /* \"#utility.yul\":2860:2941   */\n  tag_74\n  jumpi\n    /* \"#utility.yul\":2926:2930   */\n  0x7f\n    /* \"#utility.yul\":2918:2924   */\n  dup3\n    /* \"#utility.yul\":2914:2931   */\n  and\n    /* \"#utility.yul\":2904:2931   */\n  swap2\n  pop\n    /* \"#utility.yul\":2860:2941   */\ntag_74:\n    /* \"#utility.yul\":2988:2990   */\n  0x20\n    /* \"#utility.yul\":2980:2986   */\n  dup3\n    /* \"#utility.yul\":2977:2991   */\n  lt\n    /* \"#utility.yul\":2957:2975   */\n  dup2\n    /* \"#utility.yul\":2954:2992   */\n  eq\n    /* \"#utility.yul\":2951:3035   */\n  iszero\n  tag_75\n  jumpi\n    /* \"#utility.yul\":3007:3025   */\n  tag_76\n  tag_77\n  jump\t// in\ntag_76:\n    /* \"#utility.yul\":2951:3035   */\ntag_75:\n    /* \"#utility.yul\":2772:3041   */\n  pop\n    /* \"#utility.yul\":2721:3041   */\n  swap2\n  swap1\n  pop\n  jump\t// out\n    /* \"#utility.yul\":3047:3328   */\ntag_55:\n    /* \"#utility.yul\":3130:3157   */\n  tag_79\n    /* \"#utility.yul\":3152:3156   */\n  dup3\n    /* \"#utility.yul\":3130:3157   */\n  tag_62\n  jump\t// in\ntag_79:\n    /* \"#utility.yul\":3122:3128   */\n  dup2\n    /* \"#utility.yul\":3118:3158   */\n  add\n    /* \"#utility.yul\":3260:3266   */\n  dup2\n    /* \"#utility.yul\":3248:3258   */\n  dup2\n    /* \"#utility.yul\":3245:3267   */\n  lt\n    /* \"#utility.yul\":3224:3242   */\n  0xffffffffffffffff\n    /* \"#utility.yul\":3212:3222   */\n  dup3\n    /* \"#utility.yul\":3209:3243   */\n  gt\n    /* \"#utility.yul\":3206:3268   */\n  or\n    /* \"#utility.yul\":3203:3291   */\n  iszero\n  tag_80\n  jumpi\n    /* \"#utility.yul\":3271:3289   */\n  tag_81\n  tag_60\n  jump\t// in\ntag_81:\n    /* \"#utility.yul\":3203:3291   */\ntag_80:\n    /* \"#utility.yul\":3311:3321   */\n  dup1\n    /* \"#utility.yul\":3307:3309   */\n  0x40\n    /* \"#utility.yul\":3300:3322   */\n  mstore\n    /* \"#utility.yul\":3090:3328   */\n  pop\n    /* \"#utility.yul\":3047:3328   */\n  pop\n  pop\n  jump\t// out\n    /* \"#utility.yul\":3334:3514   */\ntag_77:\n    /* \"#utility.yul\":3382:3459   */\n  0x4e487b7100000000000000000000000000000000000000000000000000000000\n    /* \"#utility.yul\":3379:3380   */\n  0x00\n    /* \"#utility.yul\":3372:3460   */\n  mstore\n    /* \"#utility.yul\":3479:3483   */\n  0x22\n    /* \"#utility.yul\":3476:3477   */\n  0x04\n    /* \"#utility.yul\":3469:3484   */\n  mstore\n    /* \"#utility.yul\":3503:3507   */\n  0x24\n    /* \"#utility.yul\":3500:3501   */\n  0x00\n    /* \"#utility.yul\":3493:3508   */\n  revert\n    /* \"#utility.yul\":3520:3700   */\ntag_60:\n    /* \"#utility.yul\":3568:3645   */\n  0x4e487b7100000000000000000000000000000000000000000000000000000000\n    /* \"#utility.yul\":3565:3566   */\n  0x00\n    /* \"#utility.yul\":3558:3646   */\n  mstore\n    /* \"#utility.yul\":3665:3669   */\n  0x41\n    /* \"#utility.yul\":3662:3663   */\n  0x04\n    /* \"#utility.yul\":3655:3670   */\n  mstore\n    /* \"#utility.yul\":3689:3693   */\n  0x24\n    /* \"#utility.yul\":3686:3687   */\n  0x00\n    /* \"#utility.yul\":3679:3694   */\n  revert\n    /* \"#utility.yul\":3706:3823   */\ntag_40:\n    /* \"#utility.yul\":3815:3816   */\n  0x00\n    /* \"#utility.yul\":3812:3813   */\n  dup1\n    /* \"#utility.yul\":3805:3817   */\n  revert\n    /* \"#utility.yul\":3829:3946   */\ntag_29:\n    /* \"#utility.yul\":3938:3939   */\n  0x00\n    /* \"#utility.yul\":3935:3936   */\n  dup1\n    /* \"#utility.yul\":3928:3940   */\n  revert\n    /* \"#utility.yul\":3952:4069   */\ntag_48:\n    /* \"#utility.yul\":4061:4062   */\n  0x00\n    /* \"#utility.yul\":4058:4059   */\n  dup1\n    /* \"#utility.yul\":4051:4063   */\n  revert\n    /* \"#utility.yul\":4075:4192   */\ntag_45:\n    /* \"#utility.yul\":4184:4185   */\n  0x00\n    /* \"#utility.yul\":4181:4182   */\n  dup1\n    /* \"#utility.yul\":4174:4186   */\n  revert\n    /* \"#utility.yul\":4198:4300   */\ntag_62:\n    /* \"#utility.yul\":4239:4245   */\n  0x00\n    /* \"#utility.yul\":4290:4292   */\n  0x1f\n    /* \"#utility.yul\":4286:4293   */\n  not\n    /* \"#utility.yul\":4281:4283   */\n  0x1f\n    /* \"#utility.yul\":4274:4279   */\n  dup4\n    /* \"#utility.yul\":4270:4284   */\n  add\n    /* \"#utility.yul\":4266:4294   */\n  and\n    /* \"#utility.yul\":4256:4294   */\n  swap1\n  pop\n    /* \"#utility.yul\":4198:4300   */\n  swap2\n  swap1\n  pop\n  jump\t// out\n    /* \"#utility.yul\":4306:4428   */\ntag_35:\n    /* \"#utility.yul\":4379:4403   */\n  tag_90\n    /* \"#utility.yul\":4397:4402   */\n  dup2\n    /* \"#utility.yul\":4379:4403   */\n  tag_63\n  jump\t// in\ntag_90:\n    /* \"#utility.yul\":4372:4377   */\n  dup2\n    /* \"#utility.yul\":4369:4404   */\n  eq\n    /* \"#utility.yul\":4359:4422   */\n  tag_91\n  jumpi\n    /* \"#utility.yul\":4418:4419   */\n  0x00\n    /* \"#utility.yul\":4415:4416   */\n  dup1\n    /* \"#utility.yul\":4408:4420   */\n  revert\n    /* \"#utility.yul\":4359:4422   */\ntag_91:\n    /* \"#utility.yul\":4306:4428   */\n  pop\n  jump\t// out\n    /* \"contracts/Bounty.sol\":731:1925  contract BountyAddr {... */\ntag_8:\n  dataSize(sub_0)\n  dup1\n  dataOffset(sub_0)\n  0x00\n  codecopy\n  0x00\n  return\nstop\n\nsub_0: assembly {\n        /* \"contracts/Bounty.sol\":731:1925  contract BountyAddr {... */\n      mstore(0x40, 0x80)\n      jumpi(tag_1, lt(calldatasize, 0x04))\n      shr(0xe0, calldataload(0x00))\n      dup1\n      0xaf640d0f\n      gt\n      tag_10\n      jumpi\n      dup1\n      0xaf640d0f\n      eq\n      tag_6\n      jumpi\n      dup1\n      0xbeabacc8\n      eq\n      tag_7\n      jumpi\n      dup1\n      0xd0e30db0\n      eq\n      tag_8\n      jumpi\n      dup1\n      0xe1f21c67\n      eq\n      tag_9\n      jumpi\n      jump(tag_2)\n    tag_10:\n      dup1\n      0x026b1d5f\n      eq\n      tag_3\n      jumpi\n      dup1\n      0x13658f8a\n      eq\n      tag_4\n      jumpi\n      dup1\n      0x23b872dd\n      eq\n      tag_5\n      jumpi\n      jump(tag_2)\n    tag_1:\n      jumpi(tag_2, calldatasize)\n        /* \"contracts/Bounty.sol\":881:882  0 */\n      0x00\n        /* \"contracts/Bounty.sol\":849:883  address(_bountyBase) != address(0) */\n      0xffffffffffffffffffffffffffffffffffffffff\n      and\n        /* \"contracts/Bounty.sol\":857:868  _bountyBase */\n      0x00\n      dup1\n      sload\n      swap1\n      0x0100\n      exp\n      swap1\n      div\n      0xffffffffffffffffffffffffffffffffffffffff\n      and\n        /* \"contracts/Bounty.sol\":849:883  address(_bountyBase) != address(0) */\n      0xffffffffffffffffffffffffffffffffffffffff\n      and\n      eq\n      iszero\n        /* \"contracts/Bounty.sol\":841:904  require(address(_bountyBase) != address(0), 'need init bounty') */\n      tag_13\n      jumpi\n      mload(0x40)\n      0x08c379a000000000000000000000000000000000000000000000000000000000\n      dup2\n      mstore\n      0x04\n      add\n      tag_14\n      swap1\n      tag_15\n      jump\t// in\n    tag_14:\n      mload(0x40)\n      dup1\n      swap2\n      sub\n      swap1\n      revert\n    tag_13:\n        /* \"contracts/Bounty.sol\":731:1925  contract BountyAddr {... */\n      stop\n    tag_2:\n      0x00\n      dup1\n      revert\n        /* \"contracts/Bounty.sol\":1811:1923  function getPool() public view virtual returns (address payable) {... */\n    tag_3:\n      callvalue\n      dup1\n      iszero\n      tag_17\n      jumpi\n      0x00\n      dup1\n      revert\n    tag_17:\n      pop\n      tag_18\n      tag_19\n      jump\t// in\n    tag_18:\n      mload(0x40)\n      tag_20\n      swap2\n      swap1\n      tag_21\n      jump\t// in\n    tag_20:\n      mload(0x40)\n      dup1\n      swap2\n      sub\n      swap1\n      return\n        /* \"contracts/Bounty.sol\":1208:1321  function stableTransfer(address payable to, uint256 amount) external payable {... */\n    tag_4:\n      tag_22\n      0x04\n      dup1\n      calldatasize\n      sub\n      dup2\n      add\n      swap1\n      tag_23\n      swap2\n      swap1\n      tag_24\n      jump\t// in\n    tag_23:\n      tag_25\n      jump\t// in\n    tag_22:\n      stop\n        /* \"contracts/Bounty.sol\":1452:1596  function transferFrom(IERC20 token, address to, uint256 amount) external {... */\n    tag_5:\n      callvalue\n      dup1\n      iszero\n      tag_26\n      jumpi\n      0x00\n      dup1\n      revert\n    tag_26:\n      pop\n      tag_27\n      0x04\n      dup1\n      calldatasize\n      sub\n      dup2\n      add\n      swap1\n      tag_28\n      swap2\n      swap1\n      tag_29\n      jump\t// in\n    tag_28:\n      tag_30\n      jump\t// in\n    tag_27:\n      stop\n        /* \"contracts/Bounty.sol\":782:798  string public id */\n    tag_6:\n      callvalue\n      dup1\n      iszero\n      tag_31\n      jumpi\n      0x00\n      dup1\n      revert\n    tag_31:\n      pop\n      tag_32\n      tag_33\n      jump\t// in\n    tag_32:\n      mload(0x40)\n      tag_34\n      swap2\n      swap1\n      tag_35\n      jump\t// in\n    tag_34:\n      mload(0x40)\n      dup1\n      swap2\n      sub\n      swap1\n      return\n        /* \"contracts/Bounty.sol\":1602:1723  function transfer(IERC20 token, address to, uint256 amount) external {... */\n    tag_7:\n      callvalue\n      dup1\n      iszero\n      tag_36\n      jumpi\n      0x00\n      dup1\n      revert\n    tag_36:\n      pop\n      tag_37\n      0x04\n      dup1\n      calldatasize\n      sub\n      dup2\n      add\n      swap1\n      tag_38\n      swap2\n      swap1\n      tag_29\n      jump\t// in\n    tag_38:\n      tag_39\n      jump\t// in\n    tag_37:\n      stop\n        /* \"contracts/Bounty.sol\":1729:1804  function deposit() external payable {... */\n    tag_8:\n      tag_40\n      tag_41\n      jump\t// in\n    tag_40:\n      stop\n        /* \"contracts/Bounty.sol\":1327:1446  function approve(IERC20 token, address to, uint256 amount) external {... */\n    tag_9:\n      callvalue\n      dup1\n      iszero\n      tag_42\n      jumpi\n      0x00\n      dup1\n      revert\n    tag_42:\n      pop\n      tag_43\n      0x04\n      dup1\n      calldatasize\n      sub\n      dup2\n      add\n      swap1\n      tag_44\n      swap2\n      swap1\n      tag_29\n      jump\t// in\n    tag_44:\n      tag_45\n      jump\t// in\n    tag_43:\n      stop\n        /* \"contracts/Bounty.sol\":1811:1923  function getPool() public view virtual returns (address payable) {... */\n    tag_19:\n        /* \"contracts/Bounty.sol\":1859:1874  address payable */\n      0x00\n        /* \"contracts/Bounty.sol\":1910:1914  this */\n      address\n        /* \"contracts/Bounty.sol\":1887:1916  return payable(address(this)) */\n      swap1\n      pop\n        /* \"contracts/Bounty.sol\":1811:1923  function getPool() public view virtual returns (address payable) {... */\n      swap1\n      jump\t// out\n        /* \"contracts/Bounty.sol\":1208:1321  function stableTransfer(address payable to, uint256 amount) external payable {... */\n    tag_25:\n        /* \"contracts/Bounty.sol\":1295:1297  to */\n      dup2\n        /* \"contracts/Bounty.sol\":1295:1306  to.transfer */\n      0xffffffffffffffffffffffffffffffffffffffff\n      and\n        /* \"contracts/Bounty.sol\":1295:1314  to.transfer(amount) */\n      0x08fc\n        /* \"contracts/Bounty.sol\":1307:1313  amount */\n      dup3\n        /* \"contracts/Bounty.sol\":1295:1314  to.transfer(amount) */\n      swap1\n      dup2\n      iszero\n      mul\n      swap1\n      mload(0x40)\n      0x00\n      mload(0x40)\n      dup1\n      dup4\n      sub\n      dup2\n      dup6\n      dup9\n      dup9\n      call\n      swap4\n      pop\n      pop\n      pop\n      pop\n      iszero\n      dup1\n      iszero\n      tag_49\n      jumpi\n      returndatasize\n      0x00\n      dup1\n      returndatacopy\n      revert(0x00, returndatasize)\n    tag_49:\n      pop\n        /* \"contracts/Bounty.sol\":1208:1321  function stableTransfer(address payable to, uint256 amount) external payable {... */\n      pop\n      pop\n      jump\t// out\n        /* \"contracts/Bounty.sol\":1452:1596  function transferFrom(IERC20 token, address to, uint256 amount) external {... */\n    tag_30:\n        /* \"contracts/Bounty.sol\":1543:1548  token */\n      dup3\n        /* \"contracts/Bounty.sol\":1543:1561  token.transferFrom */\n      0xffffffffffffffffffffffffffffffffffffffff\n      and\n      0x23b872dd\n        /* \"contracts/Bounty.sol\":1570:1574  this */\n      address\n        /* \"contracts/Bounty.sol\":1577:1579  to */\n      dup5\n        /* \"contracts/Bounty.sol\":1581:1587  amount */\n      dup5\n        /* \"contracts/Bounty.sol\":1543:1588  token.transferFrom(address(this), to, amount) */\n      mload(0x40)\n      dup5\n      0xffffffff\n      and\n      0xe0\n      shl\n      dup2\n      mstore\n      0x04\n      add\n      tag_51\n      swap4\n      swap3\n      swap2\n      swap1\n      tag_52\n      jump\t// in\n    tag_51:\n      0x20\n      mload(0x40)\n      dup1\n      dup4\n      sub\n      dup2\n      0x00\n      dup8\n      dup1\n      extcodesize\n      iszero\n      dup1\n      iszero\n      tag_53\n      jumpi\n      0x00\n      dup1\n      revert\n    tag_53:\n      pop\n      gas\n      call\n      iszero\n      dup1\n      iszero\n      tag_55\n      jumpi\n      returndatasize\n      0x00\n      dup1\n      returndatacopy\n      revert(0x00, returndatasize)\n    tag_55:\n      pop\n      pop\n      pop\n      pop\n      mload(0x40)\n      returndatasize\n      not(0x1f)\n      0x1f\n      dup3\n      add\n      and\n      dup3\n      add\n      dup1\n      0x40\n      mstore\n      pop\n      dup2\n      add\n      swap1\n      tag_56\n      swap2\n      swap1\n      tag_57\n      jump\t// in\n    tag_56:\n        /* \"contracts/Bounty.sol\":1535:1589  require(token.transferFrom(address(this), to, amount)) */\n      tag_58\n      jumpi\n      0x00\n      dup1\n      revert\n    tag_58:\n        /* \"contracts/Bounty.sol\":1452:1596  function transferFrom(IERC20 token, address to, uint256 amount) external {... */\n      pop\n      pop\n      pop\n      jump\t// out\n        /* \"contracts/Bounty.sol\":782:798  string public id */\n    tag_33:\n      0x01\n      dup1\n      sload\n      tag_59\n      swap1\n      tag_60\n      jump\t// in\n    tag_59:\n      dup1\n      0x1f\n      add\n      0x20\n      dup1\n      swap2\n      div\n      mul\n      0x20\n      add\n      mload(0x40)\n      swap1\n      dup2\n      add\n      0x40\n      mstore\n      dup1\n      swap3\n      swap2\n      swap1\n      dup2\n      dup2\n      mstore\n      0x20\n      add\n      dup3\n      dup1\n      sload\n      tag_61\n      swap1\n      tag_60\n      jump\t// in\n    tag_61:\n      dup1\n      iszero\n      tag_62\n      jumpi\n      dup1\n      0x1f\n      lt\n      tag_63\n      jumpi\n      0x0100\n      dup1\n      dup4\n      sload\n      div\n      mul\n      dup4\n      mstore\n      swap2\n      0x20\n      add\n      swap2\n      jump(tag_62)\n    tag_63:\n      dup3\n      add\n      swap2\n      swap1\n      0x00\n      mstore\n      keccak256(0x00, 0x20)\n      swap1\n    tag_64:\n      dup2\n      sload\n      dup2\n      mstore\n      swap1\n      0x01\n      add\n      swap1\n      0x20\n      add\n      dup1\n      dup4\n      gt\n      tag_64\n      jumpi\n      dup3\n      swap1\n      sub\n      0x1f\n      and\n      dup3\n      add\n      swap2\n    tag_62:\n      pop\n      pop\n      pop\n      pop\n      pop\n      dup2\n      jump\t// out\n        /* \"contracts/Bounty.sol\":1602:1723  function transfer(IERC20 token, address to, uint256 amount) external {... */\n    tag_39:\n        /* \"contracts/Bounty.sol\":1689:1694  token */\n      dup3\n        /* \"contracts/Bounty.sol\":1689:1703  token.transfer */\n      0xffffffffffffffffffffffffffffffffffffffff\n      and\n      0xa9059cbb\n        /* \"contracts/Bounty.sol\":1704:1706  to */\n      dup4\n        /* \"contracts/Bounty.sol\":1708:1714  amount */\n      dup4\n        /* \"contracts/Bounty.sol\":1689:1715  token.transfer(to, amount) */\n      mload(0x40)\n      dup4\n      0xffffffff\n      and\n      0xe0\n      shl\n      dup2\n      mstore\n      0x04\n      add\n      tag_66\n      swap3\n      swap2\n      swap1\n      tag_67\n      jump\t// in\n    tag_66:\n      0x20\n      mload(0x40)\n      dup1\n      dup4\n      sub\n      dup2\n      0x00\n      dup8\n      dup1\n      extcodesize\n      iszero\n      dup1\n      iszero\n      tag_68\n      jumpi\n      0x00\n      dup1\n      revert\n    tag_68:\n      pop\n      gas\n      call\n      iszero\n      dup1\n      iszero\n      tag_70\n      jumpi\n      returndatasize\n      0x00\n      dup1\n      returndatacopy\n      revert(0x00, returndatasize)\n    tag_70:\n      pop\n      pop\n      pop\n      pop\n      mload(0x40)\n      returndatasize\n      not(0x1f)\n      0x1f\n      dup3\n      add\n      and\n      dup3\n      add\n      dup1\n      0x40\n      mstore\n      pop\n      dup2\n      add\n      swap1\n      tag_71\n      swap2\n      swap1\n      tag_57\n      jump\t// in\n    tag_71:\n        /* \"contracts/Bounty.sol\":1681:1716  require(token.transfer(to, amount)) */\n      tag_72\n      jumpi\n      0x00\n      dup1\n      revert\n    tag_72:\n        /* \"contracts/Bounty.sol\":1602:1723  function transfer(IERC20 token, address to, uint256 amount) external {... */\n      pop\n      pop\n      pop\n      jump\t// out\n        /* \"contracts/Bounty.sol\":1729:1804  function deposit() external payable {... */\n    tag_41:\n      jump\t// out\n        /* \"contracts/Bounty.sol\":1327:1446  function approve(IERC20 token, address to, uint256 amount) external {... */\n    tag_45:\n        /* \"contracts/Bounty.sol\":1413:1418  token */\n      dup3\n        /* \"contracts/Bounty.sol\":1413:1426  token.approve */\n      0xffffffffffffffffffffffffffffffffffffffff\n      and\n      0x095ea7b3\n        /* \"contracts/Bounty.sol\":1427:1429  to */\n      dup4\n        /* \"contracts/Bounty.sol\":1431:1437  amount */\n      dup4\n        /* \"contracts/Bounty.sol\":1413:1438  token.approve(to, amount) */\n      mload(0x40)\n      dup4\n      0xffffffff\n      and\n      0xe0\n      shl\n      dup2\n      mstore\n      0x04\n      add\n      tag_75\n      swap3\n      swap2\n      swap1\n      tag_67\n      jump\t// in\n    tag_75:\n      0x20\n      mload(0x40)\n      dup1\n      dup4\n      sub\n      dup2\n      0x00\n      dup8\n      dup1\n      extcodesize\n      iszero\n      dup1\n      iszero\n      tag_76\n      jumpi\n      0x00\n      dup1\n      revert\n    tag_76:\n      pop\n      gas\n      call\n      iszero\n      dup1\n      iszero\n      tag_78\n      jumpi\n      returndatasize\n      0x00\n      dup1\n      returndatacopy\n      revert(0x00, returndatasize)\n    tag_78:\n      pop\n      pop\n      pop\n      pop\n      mload(0x40)\n      returndatasize\n      not(0x1f)\n      0x1f\n      dup3\n      add\n      and\n      dup3\n      add\n      dup1\n      0x40\n      mstore\n      pop\n      dup2\n      add\n      swap1\n      tag_79\n      swap2\n      swap1\n      tag_57\n      jump\t// in\n    tag_79:\n        /* \"contracts/Bounty.sol\":1405:1439  require(token.approve(to, amount)) */\n      tag_80\n      jumpi\n      0x00\n      dup1\n      revert\n    tag_80:\n        /* \"contracts/Bounty.sol\":1327:1446  function approve(IERC20 token, address to, uint256 amount) external {... */\n      pop\n      pop\n      pop\n      jump\t// out\n        /* \"#utility.yul\":7:146   */\n    tag_82:\n        /* \"#utility.yul\":53:58   */\n      0x00\n        /* \"#utility.yul\":91:97   */\n      dup2\n        /* \"#utility.yul\":78:98   */\n      calldataload\n        /* \"#utility.yul\":69:98   */\n      swap1\n      pop\n        /* \"#utility.yul\":107:140   */\n      tag_84\n        /* \"#utility.yul\":134:139   */\n      dup2\n        /* \"#utility.yul\":107:140   */\n      tag_85\n      jump\t// in\n    tag_84:\n        /* \"#utility.yul\":7:146   */\n      swap3\n      swap2\n      pop\n      pop\n      jump\t// out\n        /* \"#utility.yul\":152:307   */\n    tag_86:\n        /* \"#utility.yul\":206:211   */\n      0x00\n        /* \"#utility.yul\":244:250   */\n      dup2\n        /* \"#utility.yul\":231:251   */\n      calldataload\n        /* \"#utility.yul\":222:251   */\n      swap1\n      pop\n        /* \"#utility.yul\":260:301   */\n      tag_88\n        /* \"#utility.yul\":295:300   */\n      dup2\n        /* \"#utility.yul\":260:301   */\n      tag_89\n      jump\t// in\n    tag_88:\n        /* \"#utility.yul\":152:307   */\n      swap3\n      swap2\n      pop\n      pop\n      jump\t// out\n        /* \"#utility.yul\":313:450   */\n    tag_90:\n        /* \"#utility.yul\":367:372   */\n      0x00\n        /* \"#utility.yul\":398:404   */\n      dup2\n        /* \"#utility.yul\":392:405   */\n      mload\n        /* \"#utility.yul\":383:405   */\n      swap1\n      pop\n        /* \"#utility.yul\":414:444   */\n      tag_92\n        /* \"#utility.yul\":438:443   */\n      dup2\n        /* \"#utility.yul\":414:444   */\n      tag_93\n      jump\t// in\n    tag_92:\n        /* \"#utility.yul\":313:450   */\n      swap3\n      swap2\n      pop\n      pop\n      jump\t// out\n        /* \"#utility.yul\":456:623   */\n    tag_94:\n        /* \"#utility.yul\":516:521   */\n      0x00\n        /* \"#utility.yul\":554:560   */\n      dup2\n        /* \"#utility.yul\":541:561   */\n      calldataload\n        /* \"#utility.yul\":532:561   */\n      swap1\n      pop\n        /* \"#utility.yul\":570:617   */\n      tag_96\n        /* \"#utility.yul\":611:616   */\n      dup2\n        /* \"#utility.yul\":570:617   */\n      tag_97\n      jump\t// in\n    tag_96:\n        /* \"#utility.yul\":456:623   */\n      swap3\n      swap2\n      pop\n      pop\n      jump\t// out\n        /* \"#utility.yul\":629:768   */\n    tag_98:\n        /* \"#utility.yul\":675:680   */\n      0x00\n        /* \"#utility.yul\":713:719   */\n      dup2\n        /* \"#utility.yul\":700:720   */\n      calldataload\n        /* \"#utility.yul\":691:720   */\n      swap1\n      pop\n        /* \"#utility.yul\":729:762   */\n      tag_100\n        /* \"#utility.yul\":756:761   */\n      dup2\n        /* \"#utility.yul\":729:762   */\n      tag_101\n      jump\t// in\n    tag_100:\n        /* \"#utility.yul\":629:768   */\n      swap3\n      swap2\n      pop\n      pop\n      jump\t// out\n        /* \"#utility.yul\":774:1264   */\n    tag_24:\n        /* \"#utility.yul\":850:856   */\n      0x00\n        /* \"#utility.yul\":858:864   */\n      dup1\n        /* \"#utility.yul\":907:909   */\n      0x40\n        /* \"#utility.yul\":895:904   */\n      dup4\n        /* \"#utility.yul\":886:893   */\n      dup6\n        /* \"#utility.yul\":882:905   */\n      sub\n        /* \"#utility.yul\":878:910   */\n      slt\n        /* \"#utility.yul\":875:994   */\n      iszero\n      tag_103\n      jumpi\n        /* \"#utility.yul\":913:992   */\n      tag_104\n      tag_105\n      jump\t// in\n    tag_104:\n        /* \"#utility.yul\":875:994   */\n    tag_103:\n        /* \"#utility.yul\":1033:1034   */\n      0x00\n        /* \"#utility.yul\":1058:1119   */\n      tag_106\n        /* \"#utility.yul\":1111:1118   */\n      dup6\n        /* \"#utility.yul\":1102:1108   */\n      dup3\n        /* \"#utility.yul\":1091:1100   */\n      dup7\n        /* \"#utility.yul\":1087:1109   */\n      add\n        /* \"#utility.yul\":1058:1119   */\n      tag_86\n      jump\t// in\n    tag_106:\n        /* \"#utility.yul\":1048:1119   */\n      swap3\n      pop\n        /* \"#utility.yul\":1004:1129   */\n      pop\n        /* \"#utility.yul\":1168:1170   */\n      0x20\n        /* \"#utility.yul\":1194:1247   */\n      tag_107\n        /* \"#utility.yul\":1239:1246   */\n      dup6\n        /* \"#utility.yul\":1230:1236   */\n      dup3\n        /* \"#utility.yul\":1219:1228   */\n      dup7\n        /* \"#utility.yul\":1215:1237   */\n      add\n        /* \"#utility.yul\":1194:1247   */\n      tag_98\n      jump\t// in\n    tag_107:\n        /* \"#utility.yul\":1184:1247   */\n      swap2\n      pop\n        /* \"#utility.yul\":1139:1257   */\n      pop\n        /* \"#utility.yul\":774:1264   */\n      swap3\n      pop\n      swap3\n      swap1\n      pop\n      jump\t// out\n        /* \"#utility.yul\":1270:1615   */\n    tag_57:\n        /* \"#utility.yul\":1337:1343   */\n      0x00\n        /* \"#utility.yul\":1386:1388   */\n      0x20\n        /* \"#utility.yul\":1374:1383   */\n      dup3\n        /* \"#utility.yul\":1365:1372   */\n      dup5\n        /* \"#utility.yul\":1361:1384   */\n      sub\n        /* \"#utility.yul\":1357:1389   */\n      slt\n        /* \"#utility.yul\":1354:1473   */\n      iszero\n      tag_109\n      jumpi\n        /* \"#utility.yul\":1392:1471   */\n      tag_110\n      tag_105\n      jump\t// in\n    tag_110:\n        /* \"#utility.yul\":1354:1473   */\n    tag_109:\n        /* \"#utility.yul\":1512:1513   */\n      0x00\n        /* \"#utility.yul\":1537:1598   */\n      tag_111\n        /* \"#utility.yul\":1590:1597   */\n      dup5\n        /* \"#utility.yul\":1581:1587   */\n      dup3\n        /* \"#utility.yul\":1570:1579   */\n      dup6\n        /* \"#utility.yul\":1566:1588   */\n      add\n        /* \"#utility.yul\":1537:1598   */\n      tag_90\n      jump\t// in\n    tag_111:\n        /* \"#utility.yul\":1527:1598   */\n      swap2\n      pop\n        /* \"#utility.yul\":1483:1608   */\n      pop\n        /* \"#utility.yul\":1270:1615   */\n      swap3\n      swap2\n      pop\n      pop\n      jump\t// out\n        /* \"#utility.yul\":1621:2268   */\n    tag_29:\n        /* \"#utility.yul\":1712:1718   */\n      0x00\n        /* \"#utility.yul\":1720:1726   */\n      dup1\n        /* \"#utility.yul\":1728:1734   */\n      0x00\n        /* \"#utility.yul\":1777:1779   */\n      0x60\n        /* \"#utility.yul\":1765:1774   */\n      dup5\n        /* \"#utility.yul\":1756:1763   */\n      dup7\n        /* \"#utility.yul\":1752:1775   */\n      sub\n        /* \"#utility.yul\":1748:1780   */\n      slt\n        /* \"#utility.yul\":1745:1864   */\n      iszero\n      tag_113\n      jumpi\n        /* \"#utility.yul\":1783:1862   */\n      tag_114\n      tag_105\n      jump\t// in\n    tag_114:\n        /* \"#utility.yul\":1745:1864   */\n    tag_113:\n        /* \"#utility.yul\":1903:1904   */\n      0x00\n        /* \"#utility.yul\":1928:1995   */\n      tag_115\n        /* \"#utility.yul\":1987:1994   */\n      dup7\n        /* \"#utility.yul\":1978:1984   */\n      dup3\n        /* \"#utility.yul\":1967:1976   */\n      dup8\n        /* \"#utility.yul\":1963:1985   */\n      add\n        /* \"#utility.yul\":1928:1995   */\n      tag_94\n      jump\t// in\n    tag_115:\n        /* \"#utility.yul\":1918:1995   */\n      swap4\n      pop\n        /* \"#utility.yul\":1874:2005   */\n      pop\n        /* \"#utility.yul\":2044:2046   */\n      0x20\n        /* \"#utility.yul\":2070:2123   */\n      tag_116\n        /* \"#utility.yul\":2115:2122   */\n      dup7\n        /* \"#utility.yul\":2106:2112   */\n      dup3\n        /* \"#utility.yul\":2095:2104   */\n      dup8\n        /* \"#utility.yul\":2091:2113   */\n      add\n        /* \"#utility.yul\":2070:2123   */\n      tag_82\n      jump\t// in\n    tag_116:\n        /* \"#utility.yul\":2060:2123   */\n      swap3\n      pop\n        /* \"#utility.yul\":2015:2133   */\n      pop\n        /* \"#utility.yul\":2172:2174   */\n      0x40\n        /* \"#utility.yul\":2198:2251   */\n      tag_117\n        /* \"#utility.yul\":2243:2250   */\n      dup7\n        /* \"#utility.yul\":2234:2240   */\n      dup3\n        /* \"#utility.yul\":2223:2232   */\n      dup8\n        /* \"#utility.yul\":2219:2241   */\n      add\n        /* \"#utility.yul\":2198:2251   */\n      tag_98\n      jump\t// in\n    tag_117:\n        /* \"#utility.yul\":2188:2251   */\n      swap2\n      pop\n        /* \"#utility.yul\":2143:2261   */\n      pop\n        /* \"#utility.yul\":1621:2268   */\n      swap3\n      pop\n      swap3\n      pop\n      swap3\n      jump\t// out\n        /* \"#utility.yul\":2274:2416   */\n    tag_118:\n        /* \"#utility.yul\":2377:2409   */\n      tag_120\n        /* \"#utility.yul\":2403:2408   */\n      dup2\n        /* \"#utility.yul\":2377:2409   */\n      tag_121\n      jump\t// in\n    tag_120:\n        /* \"#utility.yul\":2372:2375   */\n      dup3\n        /* \"#utility.yul\":2365:2410   */\n      mstore\n        /* \"#utility.yul\":2274:2416   */\n      pop\n      pop\n      jump\t// out\n        /* \"#utility.yul\":2422:2540   */\n    tag_122:\n        /* \"#utility.yul\":2509:2533   */\n      tag_124\n        /* \"#utility.yul\":2527:2532   */\n      dup2\n        /* \"#utility.yul\":2509:2533   */\n      tag_125\n      jump\t// in\n    tag_124:\n        /* \"#utility.yul\":2504:2507   */\n      dup3\n        /* \"#utility.yul\":2497:2534   */\n      mstore\n        /* \"#utility.yul\":2422:2540   */\n      pop\n      pop\n      jump\t// out\n        /* \"#utility.yul\":2546:2910   */\n    tag_126:\n        /* \"#utility.yul\":2634:2637   */\n      0x00\n        /* \"#utility.yul\":2662:2701   */\n      tag_128\n        /* \"#utility.yul\":2695:2700   */\n      dup3\n        /* \"#utility.yul\":2662:2701   */\n      tag_129\n      jump\t// in\n    tag_128:\n        /* \"#utility.yul\":2717:2788   */\n      tag_130\n        /* \"#utility.yul\":2781:2787   */\n      dup2\n        /* \"#utility.yul\":2776:2779   */\n      dup6\n        /* \"#utility.yul\":2717:2788   */\n      tag_131\n      jump\t// in\n    tag_130:\n        /* \"#utility.yul\":2710:2788   */\n      swap4\n      pop\n        /* \"#utility.yul\":2797:2849   */\n      tag_132\n        /* \"#utility.yul\":2842:2848   */\n      dup2\n        /* \"#utility.yul\":2837:2840   */\n      dup6\n        /* \"#utility.yul\":2830:2834   */\n      0x20\n        /* \"#utility.yul\":2823:2828   */\n      dup7\n        /* \"#utility.yul\":2819:2835   */\n      add\n        /* \"#utility.yul\":2797:2849   */\n      tag_133\n      jump\t// in\n    tag_132:\n        /* \"#utility.yul\":2874:2903   */\n      tag_134\n        /* \"#utility.yul\":2896:2902   */\n      dup2\n        /* \"#utility.yul\":2874:2903   */\n      tag_135\n      jump\t// in\n    tag_134:\n        /* \"#utility.yul\":2869:2872   */\n      dup5\n        /* \"#utility.yul\":2865:2904   */\n      add\n        /* \"#utility.yul\":2858:2904   */\n      swap2\n      pop\n        /* \"#utility.yul\":2638:2910   */\n      pop\n        /* \"#utility.yul\":2546:2910   */\n      swap3\n      swap2\n      pop\n      pop\n      jump\t// out\n        /* \"#utility.yul\":2916:3282   */\n    tag_136:\n        /* \"#utility.yul\":3058:3061   */\n      0x00\n        /* \"#utility.yul\":3079:3146   */\n      tag_138\n        /* \"#utility.yul\":3143:3145   */\n      0x10\n        /* \"#utility.yul\":3138:3141   */\n      dup4\n        /* \"#utility.yul\":3079:3146   */\n      tag_131\n      jump\t// in\n    tag_138:\n        /* \"#utility.yul\":3072:3146   */\n      swap2\n      pop\n        /* \"#utility.yul\":3155:3248   */\n      tag_139\n        /* \"#utility.yul\":3244:3247   */\n      dup3\n        /* \"#utility.yul\":3155:3248   */\n      tag_140\n      jump\t// in\n    tag_139:\n        /* \"#utility.yul\":3273:3275   */\n      0x20\n        /* \"#utility.yul\":3268:3271   */\n      dup3\n        /* \"#utility.yul\":3264:3276   */\n      add\n        /* \"#utility.yul\":3257:3276   */\n      swap1\n      pop\n        /* \"#utility.yul\":2916:3282   */\n      swap2\n      swap1\n      pop\n      jump\t// out\n        /* \"#utility.yul\":3288:3406   */\n    tag_141:\n        /* \"#utility.yul\":3375:3399   */\n      tag_143\n        /* \"#utility.yul\":3393:3398   */\n      dup2\n        /* \"#utility.yul\":3375:3399   */\n      tag_144\n      jump\t// in\n    tag_143:\n        /* \"#utility.yul\":3370:3373   */\n      dup3\n        /* \"#utility.yul\":3363:3400   */\n      mstore\n        /* \"#utility.yul\":3288:3406   */\n      pop\n      pop\n      jump\t// out\n        /* \"#utility.yul\":3412:3666   */\n    tag_21:\n        /* \"#utility.yul\":3521:3525   */\n      0x00\n        /* \"#utility.yul\":3559:3561   */\n      0x20\n        /* \"#utility.yul\":3548:3557   */\n      dup3\n        /* \"#utility.yul\":3544:3562   */\n      add\n        /* \"#utility.yul\":3536:3562   */\n      swap1\n      pop\n        /* \"#utility.yul\":3572:3659   */\n      tag_146\n        /* \"#utility.yul\":3656:3657   */\n      0x00\n        /* \"#utility.yul\":3645:3654   */\n      dup4\n        /* \"#utility.yul\":3641:3658   */\n      add\n        /* \"#utility.yul\":3632:3638   */\n      dup5\n        /* \"#utility.yul\":3572:3659   */\n      tag_118\n      jump\t// in\n    tag_146:\n        /* \"#utility.yul\":3412:3666   */\n      swap3\n      swap2\n      pop\n      pop\n      jump\t// out\n        /* \"#utility.yul\":3672:4114   */\n    tag_52:\n        /* \"#utility.yul\":3821:3825   */\n      0x00\n        /* \"#utility.yul\":3859:3861   */\n      0x60\n        /* \"#utility.yul\":3848:3857   */\n      dup3\n        /* \"#utility.yul\":3844:3862   */\n      add\n        /* \"#utility.yul\":3836:3862   */\n      swap1\n      pop\n        /* \"#utility.yul\":3872:3943   */\n      tag_148\n        /* \"#utility.yul\":3940:3941   */\n      0x00\n        /* \"#utility.yul\":3929:3938   */\n      dup4\n        /* \"#utility.yul\":3925:3942   */\n      add\n        /* \"#utility.yul\":3916:3922   */\n      dup7\n        /* \"#utility.yul\":3872:3943   */\n      tag_122\n      jump\t// in\n    tag_148:\n        /* \"#utility.yul\":3953:4025   */\n      tag_149\n        /* \"#utility.yul\":4021:4023   */\n      0x20\n        /* \"#utility.yul\":4010:4019   */\n      dup4\n        /* \"#utility.yul\":4006:4024   */\n      add\n        /* \"#utility.yul\":3997:4003   */\n      dup6\n        /* \"#utility.yul\":3953:4025   */\n      tag_122\n      jump\t// in\n    tag_149:\n        /* \"#utility.yul\":4035:4107   */\n      tag_150\n        /* \"#utility.yul\":4103:4105   */\n      0x40\n        /* \"#utility.yul\":4092:4101   */\n      dup4\n        /* \"#utility.yul\":4088:4106   */\n      add\n        /* \"#utility.yul\":4079:4085   */\n      dup5\n        /* \"#utility.yul\":4035:4107   */\n      tag_141\n      jump\t// in\n    tag_150:\n        /* \"#utility.yul\":3672:4114   */\n      swap5\n      swap4\n      pop\n      pop\n      pop\n      pop\n      jump\t// out\n        /* \"#utility.yul\":4120:4452   */\n    tag_67:\n        /* \"#utility.yul\":4241:4245   */\n      0x00\n        /* \"#utility.yul\":4279:4281   */\n      0x40\n        /* \"#utility.yul\":4268:4277   */\n      dup3\n        /* \"#utility.yul\":4264:4282   */\n      add\n        /* \"#utility.yul\":4256:4282   */\n      swap1\n      pop\n        /* \"#utility.yul\":4292:4363   */\n      tag_152\n        /* \"#utility.yul\":4360:4361   */\n      0x00\n        /* \"#utility.yul\":4349:4358   */\n      dup4\n        /* \"#utility.yul\":4345:4362   */\n      add\n        /* \"#utility.yul\":4336:4342   */\n      dup6\n        /* \"#utility.yul\":4292:4363   */\n      tag_122\n      jump\t// in\n    tag_152:\n        /* \"#utility.yul\":4373:4445   */\n      tag_153\n        /* \"#utility.yul\":4441:4443   */\n      0x20\n        /* \"#utility.yul\":4430:4439   */\n      dup4\n        /* \"#utility.yul\":4426:4444   */\n      add\n        /* \"#utility.yul\":4417:4423   */\n      dup5\n        /* \"#utility.yul\":4373:4445   */\n      tag_141\n      jump\t// in\n    tag_153:\n        /* \"#utility.yul\":4120:4452   */\n      swap4\n      swap3\n      pop\n      pop\n      pop\n      jump\t// out\n        /* \"#utility.yul\":4458:4771   */\n    tag_35:\n        /* \"#utility.yul\":4571:4575   */\n      0x00\n        /* \"#utility.yul\":4609:4611   */\n      0x20\n        /* \"#utility.yul\":4598:4607   */\n      dup3\n        /* \"#utility.yul\":4594:4612   */\n      add\n        /* \"#utility.yul\":4586:4612   */\n      swap1\n      pop\n        /* \"#utility.yul\":4658:4667   */\n      dup2\n        /* \"#utility.yul\":4652:4656   */\n      dup2\n        /* \"#utility.yul\":4648:4668   */\n      sub\n        /* \"#utility.yul\":4644:4645   */\n      0x00\n        /* \"#utility.yul\":4633:4642   */\n      dup4\n        /* \"#utility.yul\":4629:4646   */\n      add\n        /* \"#utility.yul\":4622:4669   */\n      mstore\n        /* \"#utility.yul\":4686:4764   */\n      tag_155\n        /* \"#utility.yul\":4759:4763   */\n      dup2\n        /* \"#utility.yul\":4750:4756   */\n      dup5\n        /* \"#utility.yul\":4686:4764   */\n      tag_126\n      jump\t// in\n    tag_155:\n        /* \"#utility.yul\":4678:4764   */\n      swap1\n      pop\n        /* \"#utility.yul\":4458:4771   */\n      swap3\n      swap2\n      pop\n      pop\n      jump\t// out\n        /* \"#utility.yul\":4777:5196   */\n    tag_15:\n        /* \"#utility.yul\":4943:4947   */\n      0x00\n        /* \"#utility.yul\":4981:4983   */\n      0x20\n        /* \"#utility.yul\":4970:4979   */\n      dup3\n        /* \"#utility.yul\":4966:4984   */\n      add\n        /* \"#utility.yul\":4958:4984   */\n      swap1\n      pop\n        /* \"#utility.yul\":5030:5039   */\n      dup2\n        /* \"#utility.yul\":5024:5028   */\n      dup2\n        /* \"#utility.yul\":5020:5040   */\n      sub\n        /* \"#utility.yul\":5016:5017   */\n      0x00\n        /* \"#utility.yul\":5005:5014   */\n      dup4\n        /* \"#utility.yul\":5001:5018   */\n      add\n        /* \"#utility.yul\":4994:5041   */\n      mstore\n        /* \"#utility.yul\":5058:5189   */\n      tag_157\n        /* \"#utility.yul\":5184:5188   */\n      dup2\n        /* \"#utility.yul\":5058:5189   */\n      tag_136\n      jump\t// in\n    tag_157:\n        /* \"#utility.yul\":5050:5189   */\n      swap1\n      pop\n        /* \"#utility.yul\":4777:5196   */\n      swap2\n      swap1\n      pop\n      jump\t// out\n        /* \"#utility.yul\":5283:5382   */\n    tag_129:\n        /* \"#utility.yul\":5335:5341   */\n      0x00\n        /* \"#utility.yul\":5369:5374   */\n      dup2\n        /* \"#utility.yul\":5363:5375   */\n      mload\n        /* \"#utility.yul\":5353:5375   */\n      swap1\n      pop\n        /* \"#utility.yul\":5283:5382   */\n      swap2\n      swap1\n      pop\n      jump\t// out\n        /* \"#utility.yul\":5388:5557   */\n    tag_131:\n        /* \"#utility.yul\":5472:5483   */\n      0x00\n        /* \"#utility.yul\":5506:5512   */\n      dup3\n        /* \"#utility.yul\":5501:5504   */\n      dup3\n        /* \"#utility.yul\":5494:5513   */\n      mstore\n        /* \"#utility.yul\":5546:5550   */\n      0x20\n        /* \"#utility.yul\":5541:5544   */\n      dup3\n        /* \"#utility.yul\":5537:5551   */\n      add\n        /* \"#utility.yul\":5522:5551   */\n      swap1\n      pop\n        /* \"#utility.yul\":5388:5557   */\n      swap3\n      swap2\n      pop\n      pop\n      jump\t// out\n        /* \"#utility.yul\":5563:5659   */\n    tag_125:\n        /* \"#utility.yul\":5600:5607   */\n      0x00\n        /* \"#utility.yul\":5629:5653   */\n      tag_163\n        /* \"#utility.yul\":5647:5652   */\n      dup3\n        /* \"#utility.yul\":5629:5653   */\n      tag_164\n      jump\t// in\n    tag_163:\n        /* \"#utility.yul\":5618:5653   */\n      swap1\n      pop\n        /* \"#utility.yul\":5563:5659   */\n      swap2\n      swap1\n      pop\n      jump\t// out\n        /* \"#utility.yul\":5665:5769   */\n    tag_121:\n        /* \"#utility.yul\":5710:5717   */\n      0x00\n        /* \"#utility.yul\":5739:5763   */\n      tag_166\n        /* \"#utility.yul\":5757:5762   */\n      dup3\n        /* \"#utility.yul\":5739:5763   */\n      tag_164\n      jump\t// in\n    tag_166:\n        /* \"#utility.yul\":5728:5763   */\n      swap1\n      pop\n        /* \"#utility.yul\":5665:5769   */\n      swap2\n      swap1\n      pop\n      jump\t// out\n        /* \"#utility.yul\":5775:5865   */\n    tag_167:\n        /* \"#utility.yul\":5809:5816   */\n      0x00\n        /* \"#utility.yul\":5852:5857   */\n      dup2\n        /* \"#utility.yul\":5845:5858   */\n      iszero\n        /* \"#utility.yul\":5838:5859   */\n      iszero\n        /* \"#utility.yul\":5827:5859   */\n      swap1\n      pop\n        /* \"#utility.yul\":5775:5865   */\n      swap2\n      swap1\n      pop\n      jump\t// out\n        /* \"#utility.yul\":5871:5981   */\n    tag_169:\n        /* \"#utility.yul\":5922:5929   */\n      0x00\n        /* \"#utility.yul\":5951:5975   */\n      tag_171\n        /* \"#utility.yul\":5969:5974   */\n      dup3\n        /* \"#utility.yul\":5951:5975   */\n      tag_125\n      jump\t// in\n    tag_171:\n        /* \"#utility.yul\":5940:5975   */\n      swap1\n      pop\n        /* \"#utility.yul\":5871:5981   */\n      swap2\n      swap1\n      pop\n      jump\t// out\n        /* \"#utility.yul\":5987:6113   */\n    tag_164:\n        /* \"#utility.yul\":6024:6031   */\n      0x00\n        /* \"#utility.yul\":6064:6106   */\n      0xffffffffffffffffffffffffffffffffffffffff\n        /* \"#utility.yul\":6057:6062   */\n      dup3\n        /* \"#utility.yul\":6053:6107   */\n      and\n        /* \"#utility.yul\":6042:6107   */\n      swap1\n      pop\n        /* \"#utility.yul\":5987:6113   */\n      swap2\n      swap1\n      pop\n      jump\t// out\n        /* \"#utility.yul\":6119:6196   */\n    tag_144:\n        /* \"#utility.yul\":6156:6163   */\n      0x00\n        /* \"#utility.yul\":6185:6190   */\n      dup2\n        /* \"#utility.yul\":6174:6190   */\n      swap1\n      pop\n        /* \"#utility.yul\":6119:6196   */\n      swap2\n      swap1\n      pop\n      jump\t// out\n        /* \"#utility.yul\":6202:6509   */\n    tag_133:\n        /* \"#utility.yul\":6270:6271   */\n      0x00\n        /* \"#utility.yul\":6280:6393   */\n    tag_175:\n        /* \"#utility.yul\":6294:6300   */\n      dup4\n        /* \"#utility.yul\":6291:6292   */\n      dup2\n        /* \"#utility.yul\":6288:6301   */\n      lt\n        /* \"#utility.yul\":6280:6393   */\n      iszero\n      tag_177\n      jumpi\n        /* \"#utility.yul\":6379:6380   */\n      dup1\n        /* \"#utility.yul\":6374:6377   */\n      dup3\n        /* \"#utility.yul\":6370:6381   */\n      add\n        /* \"#utility.yul\":6364:6382   */\n      mload\n        /* \"#utility.yul\":6360:6361   */\n      dup2\n        /* \"#utility.yul\":6355:6358   */\n      dup5\n        /* \"#utility.yul\":6351:6362   */\n      add\n        /* \"#utility.yul\":6344:6383   */\n      mstore\n        /* \"#utility.yul\":6316:6318   */\n      0x20\n        /* \"#utility.yul\":6313:6314   */\n      dup2\n        /* \"#utility.yul\":6309:6319   */\n      add\n        /* \"#utility.yul\":6304:6319   */\n      swap1\n      pop\n        /* \"#utility.yul\":6280:6393   */\n      jump(tag_175)\n    tag_177:\n        /* \"#utility.yul\":6411:6417   */\n      dup4\n        /* \"#utility.yul\":6408:6409   */\n      dup2\n        /* \"#utility.yul\":6405:6418   */\n      gt\n        /* \"#utility.yul\":6402:6503   */\n      iszero\n      tag_178\n      jumpi\n        /* \"#utility.yul\":6491:6492   */\n      0x00\n        /* \"#utility.yul\":6482:6488   */\n      dup5\n        /* \"#utility.yul\":6477:6480   */\n      dup5\n        /* \"#utility.yul\":6473:6489   */\n      add\n        /* \"#utility.yul\":6466:6493   */\n      mstore\n        /* \"#utility.yul\":6402:6503   */\n    tag_178:\n        /* \"#utility.yul\":6251:6509   */\n      pop\n        /* \"#utility.yul\":6202:6509   */\n      pop\n      pop\n      pop\n      jump\t// out\n        /* \"#utility.yul\":6515:6835   */\n    tag_60:\n        /* \"#utility.yul\":6559:6565   */\n      0x00\n        /* \"#utility.yul\":6596:6597   */\n      0x02\n        /* \"#utility.yul\":6590:6594   */\n      dup3\n        /* \"#utility.yul\":6586:6598   */\n      div\n        /* \"#utility.yul\":6576:6598   */\n      swap1\n      pop\n        /* \"#utility.yul\":6643:6644   */\n      0x01\n        /* \"#utility.yul\":6637:6641   */\n      dup3\n        /* \"#utility.yul\":6633:6645   */\n      and\n        /* \"#utility.yul\":6664:6682   */\n      dup1\n        /* \"#utility.yul\":6654:6735   */\n      tag_180\n      jumpi\n        /* \"#utility.yul\":6720:6724   */\n      0x7f\n        /* \"#utility.yul\":6712:6718   */\n      dup3\n        /* \"#utility.yul\":6708:6725   */\n      and\n        /* \"#utility.yul\":6698:6725   */\n      swap2\n      pop\n        /* \"#utility.yul\":6654:6735   */\n    tag_180:\n        /* \"#utility.yul\":6782:6784   */\n      0x20\n        /* \"#utility.yul\":6774:6780   */\n      dup3\n        /* \"#utility.yul\":6771:6785   */\n      lt\n        /* \"#utility.yul\":6751:6769   */\n      dup2\n        /* \"#utility.yul\":6748:6786   */\n      eq\n        /* \"#utility.yul\":6745:6829   */\n      iszero\n      tag_181\n      jumpi\n        /* \"#utility.yul\":6801:6819   */\n      tag_182\n      tag_183\n      jump\t// in\n    tag_182:\n        /* \"#utility.yul\":6745:6829   */\n    tag_181:\n        /* \"#utility.yul\":6566:6835   */\n      pop\n        /* \"#utility.yul\":6515:6835   */\n      swap2\n      swap1\n      pop\n      jump\t// out\n        /* \"#utility.yul\":6841:7021   */\n    tag_183:\n        /* \"#utility.yul\":6889:6966   */\n      0x4e487b7100000000000000000000000000000000000000000000000000000000\n        /* \"#utility.yul\":6886:6887   */\n      0x00\n        /* \"#utility.yul\":6879:6967   */\n      mstore\n        /* \"#utility.yul\":6986:6990   */\n      0x22\n        /* \"#utility.yul\":6983:6984   */\n      0x04\n        /* \"#utility.yul\":6976:6991   */\n      mstore\n        /* \"#utility.yul\":7010:7014   */\n      0x24\n        /* \"#utility.yul\":7007:7008   */\n      0x00\n        /* \"#utility.yul\":7000:7015   */\n      revert\n        /* \"#utility.yul\":7150:7267   */\n    tag_105:\n        /* \"#utility.yul\":7259:7260   */\n      0x00\n        /* \"#utility.yul\":7256:7257   */\n      dup1\n        /* \"#utility.yul\":7249:7261   */\n      revert\n        /* \"#utility.yul\":7273:7375   */\n    tag_135:\n        /* \"#utility.yul\":7314:7320   */\n      0x00\n        /* \"#utility.yul\":7365:7367   */\n      0x1f\n        /* \"#utility.yul\":7361:7368   */\n      not\n        /* \"#utility.yul\":7356:7358   */\n      0x1f\n        /* \"#utility.yul\":7349:7354   */\n      dup4\n        /* \"#utility.yul\":7345:7359   */\n      add\n        /* \"#utility.yul\":7341:7369   */\n      and\n        /* \"#utility.yul\":7331:7369   */\n      swap1\n      pop\n        /* \"#utility.yul\":7273:7375   */\n      swap2\n      swap1\n      pop\n      jump\t// out\n        /* \"#utility.yul\":7381:7547   */\n    tag_140:\n        /* \"#utility.yul\":7521:7539   */\n      0x6e65656420696e697420626f756e747900000000000000000000000000000000\n        /* \"#utility.yul\":7517:7518   */\n      0x00\n        /* \"#utility.yul\":7509:7515   */\n      dup3\n        /* \"#utility.yul\":7505:7519   */\n      add\n        /* \"#utility.yul\":7498:7540   */\n      mstore\n        /* \"#utility.yul\":7381:7547   */\n      pop\n      jump\t// out\n        /* \"#utility.yul\":7553:7675   */\n    tag_85:\n        /* \"#utility.yul\":7626:7650   */\n      tag_191\n        /* \"#utility.yul\":7644:7649   */\n      dup2\n        /* \"#utility.yul\":7626:7650   */\n      tag_125\n      jump\t// in\n    tag_191:\n        /* \"#utility.yul\":7619:7624   */\n      dup2\n        /* \"#utility.yul\":7616:7651   */\n      eq\n        /* \"#utility.yul\":7606:7669   */\n      tag_192\n      jumpi\n        /* \"#utility.yul\":7665:7666   */\n      0x00\n        /* \"#utility.yul\":7662:7663   */\n      dup1\n        /* \"#utility.yul\":7655:7667   */\n      revert\n        /* \"#utility.yul\":7606:7669   */\n    tag_192:\n        /* \"#utility.yul\":7553:7675   */\n      pop\n      jump\t// out\n        /* \"#utility.yul\":7681:7819   */\n    tag_89:\n        /* \"#utility.yul\":7762:7794   */\n      tag_194\n        /* \"#utility.yul\":7788:7793   */\n      dup2\n        /* \"#utility.yul\":7762:7794   */\n      tag_121\n      jump\t// in\n    tag_194:\n        /* \"#utility.yul\":7755:7760   */\n      dup2\n        /* \"#utility.yul\":7752:7795   */\n      eq\n        /* \"#utility.yul\":7742:7813   */\n      tag_195\n      jumpi\n        /* \"#utility.yul\":7809:7810   */\n      0x00\n        /* \"#utility.yul\":7806:7807   */\n      dup1\n        /* \"#utility.yul\":7799:7811   */\n      revert\n        /* \"#utility.yul\":7742:7813   */\n    tag_195:\n        /* \"#utility.yul\":7681:7819   */\n      pop\n      jump\t// out\n        /* \"#utility.yul\":7825:7941   */\n    tag_93:\n        /* \"#utility.yul\":7895:7916   */\n      tag_197\n        /* \"#utility.yul\":7910:7915   */\n      dup2\n        /* \"#utility.yul\":7895:7916   */\n      tag_167\n      jump\t// in\n    tag_197:\n        /* \"#utility.yul\":7888:7893   */\n      dup2\n        /* \"#utility.yul\":7885:7917   */\n      eq\n        /* \"#utility.yul\":7875:7935   */\n      tag_198\n      jumpi\n        /* \"#utility.yul\":7931:7932   */\n      0x00\n        /* \"#utility.yul\":7928:7929   */\n      dup1\n        /* \"#utility.yul\":7921:7933   */\n      revert\n        /* \"#utility.yul\":7875:7935   */\n    tag_198:\n        /* \"#utility.yul\":7825:7941   */\n      pop\n      jump\t// out\n        /* \"#utility.yul\":7947:8097   */\n    tag_97:\n        /* \"#utility.yul\":8034:8072   */\n      tag_200\n        /* \"#utility.yul\":8066:8071   */\n      dup2\n        /* \"#utility.yul\":8034:8072   */\n      tag_169\n      jump\t// in\n    tag_200:\n        /* \"#utility.yul\":8027:8032   */\n      dup2\n        /* \"#utility.yul\":8024:8073   */\n      eq\n        /* \"#utility.yul\":8014:8091   */\n      tag_201\n      jumpi\n        /* \"#utility.yul\":8087:8088   */\n      0x00\n        /* \"#utility.yul\":8084:8085   */\n      dup1\n        /* \"#utility.yul\":8077:8089   */\n      revert\n        /* \"#utility.yul\":8014:8091   */\n    tag_201:\n        /* \"#utility.yul\":7947:8097   */\n      pop\n      jump\t// out\n        /* \"#utility.yul\":8103:8225   */\n    tag_101:\n        /* \"#utility.yul\":8176:8200   */\n      tag_203\n        /* \"#utility.yul\":8194:8199   */\n      dup2\n        /* \"#utility.yul\":8176:8200   */\n      tag_144\n      jump\t// in\n    tag_203:\n        /* \"#utility.yul\":8169:8174   */\n      dup2\n        /* \"#utility.yul\":8166:8201   */\n      eq\n        /* \"#utility.yul\":8156:8219   */\n      tag_204\n      jumpi\n        /* \"#utility.yul\":8215:8216   */\n      0x00\n        /* \"#utility.yul\":8212:8213   */\n      dup1\n        /* \"#utility.yul\":8205:8217   */\n      revert\n        /* \"#utility.yul\":8156:8219   */\n    tag_204:\n        /* \"#utility.yul\":8103:8225   */\n      pop\n      jump\t// out\n\n    auxdata: 0xa26469706673582212205eacbc67ae1f0f9277cde574d5274c145cd4f6cb9fc4bde61069576cefe0683f64736f6c63430008070033\n}\n",
				"bytecode": {
					"linkReferences": {},
					"object": "60806040523480156200001157600080fd5b5060405162000d5538038062000d558339818101604052810190620000379190620001dd565b81600190805190602001906200004f92919062000098565b50806000806101000a81548173ffffffffffffffffffffffffffffffffffffffff021916908373ffffffffffffffffffffffffffffffffffffffff160217905550505062000415565b828054620000a6906200030c565b90600052602060002090601f016020900481019282620000ca576000855562000116565b82601f10620000e557805160ff191683800117855562000116565b8280016001018555821562000116579182015b8281111562000115578251825591602001919060010190620000f8565b5b50905062000125919062000129565b5090565b5b80821115620001445760008160009055506001016200012a565b5090565b60006200015f62000159846200026c565b62000243565b9050828152602081018484840111156200017e576200017d620003db565b5b6200018b848285620002d6565b509392505050565b600081519050620001a481620003fb565b92915050565b600082601f830112620001c257620001c1620003d6565b5b8151620001d484826020860162000148565b91505092915050565b60008060408385031215620001f757620001f6620003e5565b5b600083015167ffffffffffffffff811115620002185762000217620003e0565b5b6200022685828601620001aa565b9250506020620002398582860162000193565b9150509250929050565b60006200024f62000262565b90506200025d828262000342565b919050565b6000604051905090565b600067ffffffffffffffff8211156200028a5762000289620003a7565b5b6200029582620003ea565b9050602081019050919050565b6000620002af82620002b6565b9050919050565b600073ffffffffffffffffffffffffffffffffffffffff82169050919050565b60005b83811015620002f6578082015181840152602081019050620002d9565b8381111562000306576000848401525b50505050565b600060028204905060018216806200032557607f821691505b602082108114156200033c576200033b62000378565b5b50919050565b6200034d82620003ea565b810181811067ffffffffffffffff821117156200036f576200036e620003a7565b5b80604052505050565b7f4e487b7100000000000000000000000000000000000000000000000000000000600052602260045260246000fd5b7f4e487b7100000000000000000000000000000000000000000000000000000000600052604160045260246000fd5b600080fd5b600080fd5b600080fd5b600080fd5b6000601f19601f8301169050919050565b6200040681620002a2565b81146200041257600080fd5b50565b61093080620004256000396000f3fe6080604052600436106100745760003560e01c8063af640d0f1161004e578063af640d0f14610180578063beabacc8146101ab578063d0e30db0146101d4578063e1f21c67146101de5761010b565b8063026b1d5f1461011057806313658f8a1461013b57806323b872dd146101575761010b565b3661010b57600073ffffffffffffffffffffffffffffffffffffffff1660008054906101000a900473ffffffffffffffffffffffffffffffffffffffff1673ffffffffffffffffffffffffffffffffffffffff161415610109576040517f08c379a00000000000000000000000000000000000000000000000000000000081526004016101009061070c565b60405180910390fd5b005b600080fd5b34801561011c57600080fd5b50610125610207565b604051610132919061066f565b60405180910390f35b61015560048036038101906101509190610526565b61020f565b005b34801561016357600080fd5b5061017e60048036038101906101799190610593565b61025a565b005b34801561018c57600080fd5b506101956102f7565b6040516101a291906106ea565b60405180910390f35b3480156101b757600080fd5b506101d260048036038101906101cd9190610593565b610385565b005b6101dc610420565b005b3480156101ea57600080fd5b5061020560048036038101906102009190610593565b610422565b005b600030905090565b8173ffffffffffffffffffffffffffffffffffffffff166108fc829081150290604051600060405180830381858888f19350505050158015610255573d6000803e3d6000fd5b505050565b8273ffffffffffffffffffffffffffffffffffffffff166323b872dd3084846040518463ffffffff1660e01b81526004016102979392919061068a565b602060405180830381600087803b1580156102b157600080fd5b505af11580156102c5573d6000803e3d6000fd5b505050506040513d601f19601f820116820180604052508101906102e99190610566565b6102f257600080fd5b505050565b60018054610304906107e7565b80601f0160208091040260200160405190810160405280929190818152602001828054610330906107e7565b801561037d5780601f106103525761010080835404028352916020019161037d565b820191906000526020600020905b81548152906001019060200180831161036057829003601f168201915b505050505081565b8273ffffffffffffffffffffffffffffffffffffffff1663a9059cbb83836040518363ffffffff1660e01b81526004016103c09291906106c1565b602060405180830381600087803b1580156103da57600080fd5b505af11580156103ee573d6000803e3d6000fd5b505050506040513d601f19601f820116820180604052508101906104129190610566565b61041b57600080fd5b505050565b565b8273ffffffffffffffffffffffffffffffffffffffff1663095ea7b383836040518363ffffffff1660e01b815260040161045d9291906106c1565b602060405180830381600087803b15801561047757600080fd5b505af115801561048b573d6000803e3d6000fd5b505050506040513d601f19601f820116820180604052508101906104af9190610566565b6104b857600080fd5b505050565b6000813590506104cc81610887565b92915050565b6000813590506104e18161089e565b92915050565b6000815190506104f6816108b5565b92915050565b60008135905061050b816108cc565b92915050565b600081359050610520816108e3565b92915050565b6000806040838503121561053d5761053c610848565b5b600061054b858286016104d2565b925050602061055c85828601610511565b9150509250929050565b60006020828403121561057c5761057b610848565b5b600061058a848285016104e7565b91505092915050565b6000806000606084860312156105ac576105ab610848565b5b60006105ba868287016104fc565b93505060206105cb868287016104bd565b92505060406105dc86828701610511565b9150509250925092565b6105ef8161075a565b82525050565b6105fe81610748565b82525050565b600061060f8261072c565b6106198185610737565b93506106298185602086016107b4565b6106328161084d565b840191505092915050565b600061064a601083610737565b91506106558261085e565b602082019050919050565b610669816107aa565b82525050565b600060208201905061068460008301846105e6565b92915050565b600060608201905061069f60008301866105f5565b6106ac60208301856105f5565b6106b96040830184610660565b949350505050565b60006040820190506106d660008301856105f5565b6106e36020830184610660565b9392505050565b600060208201905081810360008301526107048184610604565b905092915050565b600060208201905081810360008301526107258161063d565b9050919050565b600081519050919050565b600082825260208201905092915050565b60006107538261078a565b9050919050565b60006107658261078a565b9050919050565b60008115159050919050565b600061078382610748565b9050919050565b600073ffffffffffffffffffffffffffffffffffffffff82169050919050565b6000819050919050565b60005b838110156107d25780820151818401526020810190506107b7565b838111156107e1576000848401525b50505050565b600060028204905060018216806107ff57607f821691505b6020821081141561081357610812610819565b5b50919050565b7f4e487b7100000000000000000000000000000000000000000000000000000000600052602260045260246000fd5b600080fd5b6000601f19601f8301169050919050565b7f6e65656420696e697420626f756e747900000000000000000000000000000000600082015250565b61089081610748565b811461089b57600080fd5b50565b6108a78161075a565b81146108b257600080fd5b50565b6108be8161076c565b81146108c957600080fd5b50565b6108d581610778565b81146108e057600080fd5b50565b6108ec816107aa565b81146108f757600080fd5b5056fea26469706673582212205eacbc67ae1f0f9277cde574d5274c145cd4f6cb9fc4bde61069576cefe0683f64736f6c63430008070033",
					"opcodes": "PUSH1 0x80 PUSH1 0x40 MSTORE CALLVALUE DUP1 ISZERO PUSH3 0x11 JUMPI PUSH1 0x0 DUP1 REVERT JUMPDEST POP PUSH1 0x40 MLOAD PUSH3 0xD55 CODESIZE SUB DUP1 PUSH3 0xD55 DUP4 CODECOPY DUP2 DUP2 ADD PUSH1 0x40 MSTORE DUP2 ADD SWAP1 PUSH3 0x37 SWAP2 SWAP1 PUSH3 0x1DD JUMP JUMPDEST DUP2 PUSH1 0x1 SWAP1 DUP1 MLOAD SWAP1 PUSH1 0x20 ADD SWAP1 PUSH3 0x4F SWAP3 SWAP2 SWAP1 PUSH3 0x98 JUMP JUMPDEST POP DUP1 PUSH1 0x0 DUP1 PUSH2 0x100 EXP DUP2 SLOAD DUP2 PUSH20 0xFFFFFFFFFFFFFFFFFFFFFFFFFFFFFFFFFFFFFFFF MUL NOT AND SWAP1 DUP4 PUSH20 0xFFFFFFFFFFFFFFFFFFFFFFFFFFFFFFFFFFFFFFFF AND MUL OR SWAP1 SSTORE POP POP POP PUSH3 0x415 JUMP JUMPDEST DUP3 DUP1 SLOAD PUSH3 0xA6 SWAP1 PUSH3 0x30C JUMP JUMPDEST SWAP1 PUSH1 0x0 MSTORE PUSH1 0x20 PUSH1 0x0 KECCAK256 SWAP1 PUSH1 0x1F ADD PUSH1 0x20 SWAP1 DIV DUP2 ADD SWAP3 DUP3 PUSH3 0xCA JUMPI PUSH1 0x0 DUP6 SSTORE PUSH3 0x116 JUMP JUMPDEST DUP3 PUSH1 0x1F LT PUSH3 0xE5 JUMPI DUP1 MLOAD PUSH1 0xFF NOT AND DUP4 DUP1 ADD OR DUP6 SSTORE PUSH3 0x116 JUMP JUMPDEST DUP3 DUP1 ADD PUSH1 0x1 ADD DUP6 SSTORE DUP3 ISZERO PUSH3 0x116 JUMPI SWAP2 DUP3 ADD JUMPDEST DUP3 DUP2 GT ISZERO PUSH3 0x115 JUMPI DUP3 MLOAD DUP3 SSTORE SWAP2 PUSH1 0x20 ADD SWAP2 SWAP1 PUSH1 0x1 ADD SWAP1 PUSH3 0xF8 JUMP JUMPDEST JUMPDEST POP SWAP1 POP PUSH3 0x125 SWAP2 SWAP1 PUSH3 0x129 JUMP JUMPDEST POP SWAP1 JUMP JUMPDEST JUMPDEST DUP1 DUP3 GT ISZERO PUSH3 0x144 JUMPI PUSH1 0x0 DUP2 PUSH1 0x0 SWAP1 SSTORE POP PUSH1 0x1 ADD PUSH3 0x12A JUMP JUMPDEST POP SWAP1 JUMP JUMPDEST PUSH1 0x0 PUSH3 0x15F PUSH3 0x159 DUP5 PUSH3 0x26C JUMP JUMPDEST PUSH3 0x243 JUMP JUMPDEST SWAP1 POP DUP3 DUP2 MSTORE PUSH1 0x20 DUP2 ADD DUP5 DUP5 DUP5 ADD GT ISZERO PUSH3 0x17E JUMPI PUSH3 0x17D PUSH3 0x3DB JUMP JUMPDEST JUMPDEST PUSH3 0x18B DUP5 DUP3 DUP6 PUSH3 0x2D6 JUMP JUMPDEST POP SWAP4 SWAP3 POP POP POP JUMP JUMPDEST PUSH1 0x0 DUP2 MLOAD SWAP1 POP PUSH3 0x1A4 DUP2 PUSH3 0x3FB JUMP JUMPDEST SWAP3 SWAP2 POP POP JUMP JUMPDEST PUSH1 0x0 DUP3 PUSH1 0x1F DUP4 ADD SLT PUSH3 0x1C2 JUMPI PUSH3 0x1C1 PUSH3 0x3D6 JUMP JUMPDEST JUMPDEST DUP2 MLOAD PUSH3 0x1D4 DUP5 DUP3 PUSH1 0x20 DUP7 ADD PUSH3 0x148 JUMP JUMPDEST SWAP2 POP POP SWAP3 SWAP2 POP POP JUMP JUMPDEST PUSH1 0x0 DUP1 PUSH1 0x40 DUP4 DUP6 SUB SLT ISZERO PUSH3 0x1F7 JUMPI PUSH3 0x1F6 PUSH3 0x3E5 JUMP JUMPDEST JUMPDEST PUSH1 0x0 DUP4 ADD MLOAD PUSH8 0xFFFFFFFFFFFFFFFF DUP2 GT ISZERO PUSH3 0x218 JUMPI PUSH3 0x217 PUSH3 0x3E0 JUMP JUMPDEST JUMPDEST PUSH3 0x226 DUP6 DUP3 DUP7 ADD PUSH3 0x1AA JUMP JUMPDEST SWAP3 POP POP PUSH1 0x20 PUSH3 0x239 DUP6 DUP3 DUP7 ADD PUSH3 0x193 JUMP JUMPDEST SWAP2 POP POP SWAP3 POP SWAP3 SWAP1 POP JUMP JUMPDEST PUSH1 0x0 PUSH3 0x24F PUSH3 0x262 JUMP JUMPDEST SWAP1 POP PUSH3 0x25D DUP3 DUP3 PUSH3 0x342 JUMP JUMPDEST SWAP2 SWAP1 POP JUMP JUMPDEST PUSH1 0x0 PUSH1 0x40 MLOAD SWAP1 POP SWAP1 JUMP JUMPDEST PUSH1 0x0 PUSH8 0xFFFFFFFFFFFFFFFF DUP3 GT ISZERO PUSH3 0x28A JUMPI PUSH3 0x289 PUSH3 0x3A7 JUMP JUMPDEST JUMPDEST PUSH3 0x295 DUP3 PUSH3 0x3EA JUMP JUMPDEST SWAP1 POP PUSH1 0x20 DUP2 ADD SWAP1 POP SWAP2 SWAP1 POP JUMP JUMPDEST PUSH1 0x0 PUSH3 0x2AF DUP3 PUSH3 0x2B6 JUMP JUMPDEST SWAP1 POP SWAP2 SWAP1 POP JUMP JUMPDEST PUSH1 0x0 PUSH20 0xFFFFFFFFFFFFFFFFFFFFFFFFFFFFFFFFFFFFFFFF DUP3 AND SWAP1 POP SWAP2 SWAP1 POP JUMP JUMPDEST PUSH1 0x0 JUMPDEST DUP4 DUP2 LT ISZERO PUSH3 0x2F6 JUMPI DUP1 DUP3 ADD MLOAD DUP2 DUP5 ADD MSTORE PUSH1 0x20 DUP2 ADD SWAP1 POP PUSH3 0x2D9 JUMP JUMPDEST DUP4 DUP2 GT ISZERO PUSH3 0x306 JUMPI PUSH1 0x0 DUP5 DUP5 ADD MSTORE JUMPDEST POP POP POP POP JUMP JUMPDEST PUSH1 0x0 PUSH1 0x2 DUP3 DIV SWAP1 POP PUSH1 0x1 DUP3 AND DUP1 PUSH3 0x325 JUMPI PUSH1 0x7F DUP3 AND SWAP2 POP JUMPDEST PUSH1 0x20 DUP3 LT DUP2 EQ ISZERO PUSH3 0x33C JUMPI PUSH3 0x33B PUSH3 0x378 JUMP JUMPDEST JUMPDEST POP SWAP2 SWAP1 POP JUMP JUMPDEST PUSH3 0x34D DUP3 PUSH3 0x3EA JUMP JUMPDEST DUP2 ADD DUP2 DUP2 LT PUSH8 0xFFFFFFFFFFFFFFFF DUP3 GT OR ISZERO PUSH3 0x36F JUMPI PUSH3 0x36E PUSH3 0x3A7 JUMP JUMPDEST JUMPDEST DUP1 PUSH1 0x40 MSTORE POP POP POP JUMP JUMPDEST PUSH32 0x4E487B7100000000000000000000000000000000000000000000000000000000 PUSH1 0x0 MSTORE PUSH1 0x22 PUSH1 0x4 MSTORE PUSH1 0x24 PUSH1 0x0 REVERT JUMPDEST PUSH32 0x4E487B7100000000000000000000000000000000000000000000000000000000 PUSH1 0x0 MSTORE PUSH1 0x41 PUSH1 0x4 MSTORE PUSH1 0x24 PUSH1 0x0 REVERT JUMPDEST PUSH1 0x0 DUP1 REVERT JUMPDEST PUSH1 0x0 DUP1 REVERT JUMPDEST PUSH1 0x0 DUP1 REVERT JUMPDEST PUSH1 0x0 DUP1 REVERT JUMPDEST PUSH1 0x0 PUSH1 0x1F NOT PUSH1 0x1F DUP4 ADD AND SWAP1 POP SWAP2 SWAP1 POP JUMP JUMPDEST PUSH3 0x406 DUP2 PUSH3 0x2A2 JUMP JUMPDEST DUP2 EQ PUSH3 0x412 JUMPI PUSH1 0x0 DUP1 REVERT JUMPDEST POP JUMP JUMPDEST PUSH2 0x930 DUP1 PUSH3 0x425 PUSH1 0x0 CODECOPY PUSH1 0x0 RETURN INVALID PUSH1 0x80 PUSH1 0x40 MSTORE PUSH1 0x4 CALLDATASIZE LT PUSH2 0x74 JUMPI PUSH1 0x0 CALLDATALOAD PUSH1 0xE0 SHR DUP1 PUSH4 0xAF640D0F GT PUSH2 0x4E JUMPI DUP1 PUSH4 0xAF640D0F EQ PUSH2 0x180 JUMPI DUP1 PUSH4 0xBEABACC8 EQ PUSH2 0x1AB JUMPI DUP1 PUSH4 0xD0E30DB0 EQ PUSH2 0x1D4 JUMPI DUP1 PUSH4 0xE1F21C67 EQ PUSH2 0x1DE JUMPI PUSH2 0x10B JUMP JUMPDEST DUP1 PUSH4 0x26B1D5F EQ PUSH2 0x110 JUMPI DUP1 PUSH4 0x13658F8A EQ PUSH2 0x13B JUMPI DUP1 PUSH4 0x23B872DD EQ PUSH2 0x157 JUMPI PUSH2 0x10B JUMP JUMPDEST CALLDATASIZE PUSH2 0x10B JUMPI PUSH1 0x0 PUSH20 0xFFFFFFFFFFFFFFFFFFFFFFFFFFFFFFFFFFFFFFFF AND PUSH1 0x0 DUP1 SLOAD SWAP1 PUSH2 0x100 EXP SWAP1 DIV PUSH20 0xFFFFFFFFFFFFFFFFFFFFFFFFFFFFFFFFFFFFFFFF AND PUSH20 0xFFFFFFFFFFFFFFFFFFFFFFFFFFFFFFFFFFFFFFFF AND EQ ISZERO PUSH2 0x109 JUMPI PUSH1 0x40 MLOAD PUSH32 0x8C379A000000000000000000000000000000000000000000000000000000000 DUP2 MSTORE PUSH1 0x4 ADD PUSH2 0x100 SWAP1 PUSH2 0x70C JUMP JUMPDEST PUSH1 0x40 MLOAD DUP1 SWAP2 SUB SWAP1 REVERT JUMPDEST STOP JUMPDEST PUSH1 0x0 DUP1 REVERT JUMPDEST CALLVALUE DUP1 ISZERO PUSH2 0x11C JUMPI PUSH1 0x0 DUP1 REVERT JUMPDEST POP PUSH2 0x125 PUSH2 0x207 JUMP JUMPDEST PUSH1 0x40 MLOAD PUSH2 0x132 SWAP2 SWAP1 PUSH2 0x66F JUMP JUMPDEST PUSH1 0x40 MLOAD DUP1 SWAP2 SUB SWAP1 RETURN JUMPDEST PUSH2 0x155 PUSH1 0x4 DUP1 CALLDATASIZE SUB DUP2 ADD SWAP1 PUSH2 0x150 SWAP2 SWAP1 PUSH2 0x526 JUMP JUMPDEST PUSH2 0x20F JUMP JUMPDEST STOP JUMPDEST CALLVALUE DUP1 ISZERO PUSH2 0x163 JUMPI PUSH1 0x0 DUP1 REVERT JUMPDEST POP PUSH2 0x17E PUSH1 0x4 DUP1 CALLDATASIZE SUB DUP2 ADD SWAP1 PUSH2 0x179 SWAP2 SWAP1 PUSH2 0x593 JUMP JUMPDEST PUSH2 0x25A JUMP JUMPDEST STOP JUMPDEST CALLVALUE DUP1 ISZERO PUSH2 0x18C JUMPI PUSH1 0x0 DUP1 REVERT JUMPDEST POP PUSH2 0x195 PUSH2 0x2F7 JUMP JUMPDEST PUSH1 0x40 MLOAD PUSH2 0x1A2 SWAP2 SWAP1 PUSH2 0x6EA JUMP JUMPDEST PUSH1 0x40 MLOAD DUP1 SWAP2 SUB SWAP1 RETURN JUMPDEST CALLVALUE DUP1 ISZERO PUSH2 0x1B7 JUMPI PUSH1 0x0 DUP1 REVERT JUMPDEST POP PUSH2 0x1D2 PUSH1 0x4 DUP1 CALLDATASIZE SUB DUP2 ADD SWAP1 PUSH2 0x1CD SWAP2 SWAP1 PUSH2 0x593 JUMP JUMPDEST PUSH2 0x385 JUMP JUMPDEST STOP JUMPDEST PUSH2 0x1DC PUSH2 0x420 JUMP JUMPDEST STOP JUMPDEST CALLVALUE DUP1 ISZERO PUSH2 0x1EA JUMPI PUSH1 0x0 DUP1 REVERT JUMPDEST POP PUSH2 0x205 PUSH1 0x4 DUP1 CALLDATASIZE SUB DUP2 ADD SWAP1 PUSH2 0x200 SWAP2 SWAP1 PUSH2 0x593 JUMP JUMPDEST PUSH2 0x422 JUMP JUMPDEST STOP JUMPDEST PUSH1 0x0 ADDRESS SWAP1 POP SWAP1 JUMP JUMPDEST DUP2 PUSH20 0xFFFFFFFFFFFFFFFFFFFFFFFFFFFFFFFFFFFFFFFF AND PUSH2 0x8FC DUP3 SWAP1 DUP2 ISZERO MUL SWAP1 PUSH1 0x40 MLOAD PUSH1 0x0 PUSH1 0x40 MLOAD DUP1 DUP4 SUB DUP2 DUP6 DUP9 DUP9 CALL SWAP4 POP POP POP POP ISZERO DUP1 ISZERO PUSH2 0x255 JUMPI RETURNDATASIZE PUSH1 0x0 DUP1 RETURNDATACOPY RETURNDATASIZE PUSH1 0x0 REVERT JUMPDEST POP POP POP JUMP JUMPDEST DUP3 PUSH20 0xFFFFFFFFFFFFFFFFFFFFFFFFFFFFFFFFFFFFFFFF AND PUSH4 0x23B872DD ADDRESS DUP5 DUP5 PUSH1 0x40 MLOAD DUP5 PUSH4 0xFFFFFFFF AND PUSH1 0xE0 SHL DUP2 MSTORE PUSH1 0x4 ADD PUSH2 0x297 SWAP4 SWAP3 SWAP2 SWAP1 PUSH2 0x68A JUMP JUMPDEST PUSH1 0x20 PUSH1 0x40 MLOAD DUP1 DUP4 SUB DUP2 PUSH1 0x0 DUP8 DUP1 EXTCODESIZE ISZERO DUP1 ISZERO PUSH2 0x2B1 JUMPI PUSH1 0x0 DUP1 REVERT JUMPDEST POP GAS CALL ISZERO DUP1 ISZERO PUSH2 0x2C5 JUMPI RETURNDATASIZE PUSH1 0x0 DUP1 RETURNDATACOPY RETURNDATASIZE PUSH1 0x0 REVERT JUMPDEST POP POP POP POP PUSH1 0x40 MLOAD RETURNDATASIZE PUSH1 0x1F NOT PUSH1 0x1F DUP3 ADD AND DUP3 ADD DUP1 PUSH1 0x40 MSTORE POP DUP2 ADD SWAP1 PUSH2 0x2E9 SWAP2 SWAP1 PUSH2 0x566 JUMP JUMPDEST PUSH2 0x2F2 JUMPI PUSH1 0x0 DUP1 REVERT JUMPDEST POP POP POP JUMP JUMPDEST PUSH1 0x1 DUP1 SLOAD PUSH2 0x304 SWAP1 PUSH2 0x7E7 JUMP JUMPDEST DUP1 PUSH1 0x1F ADD PUSH1 0x20 DUP1 SWAP2 DIV MUL PUSH1 0x20 ADD PUSH1 0x40 MLOAD SWAP1 DUP2 ADD PUSH1 0x40 MSTORE DUP1 SWAP3 SWAP2 SWAP1 DUP2 DUP2 MSTORE PUSH1 0x20 ADD DUP3 DUP1 SLOAD PUSH2 0x330 SWAP1 PUSH2 0x7E7 JUMP JUMPDEST DUP1 ISZERO PUSH2 0x37D JUMPI DUP1 PUSH1 0x1F LT PUSH2 0x352 JUMPI PUSH2 0x100 DUP1 DUP4 SLOAD DIV MUL DUP4 MSTORE SWAP2 PUSH1 0x20 ADD SWAP2 PUSH2 0x37D JUMP JUMPDEST DUP3 ADD SWAP2 SWAP1 PUSH1 0x0 MSTORE PUSH1 0x20 PUSH1 0x0 KECCAK256 SWAP1 JUMPDEST DUP2 SLOAD DUP2 MSTORE SWAP1 PUSH1 0x1 ADD SWAP1 PUSH1 0x20 ADD DUP1 DUP4 GT PUSH2 0x360 JUMPI DUP3 SWAP1 SUB PUSH1 0x1F AND DUP3 ADD SWAP2 JUMPDEST POP POP POP POP POP DUP2 JUMP JUMPDEST DUP3 PUSH20 0xFFFFFFFFFFFFFFFFFFFFFFFFFFFFFFFFFFFFFFFF AND PUSH4 0xA9059CBB DUP4 DUP4 PUSH1 0x40 MLOAD DUP4 PUSH4 0xFFFFFFFF AND PUSH1 0xE0 SHL DUP2 MSTORE PUSH1 0x4 ADD PUSH2 0x3C0 SWAP3 SWAP2 SWAP1 PUSH2 0x6C1 JUMP JUMPDEST PUSH1 0x20 PUSH1 0x40 MLOAD DUP1 DUP4 SUB DUP2 PUSH1 0x0 DUP8 DUP1 EXTCODESIZE ISZERO DUP1 ISZERO PUSH2 0x3DA JUMPI PUSH1 0x0 DUP1 REVERT JUMPDEST POP GAS CALL ISZERO DUP1 ISZERO PUSH2 0x3EE JUMPI RETURNDATASIZE PUSH1 0x0 DUP1 RETURNDATACOPY RETURNDATASIZE PUSH1 0x0 REVERT JUMPDEST POP POP POP POP PUSH1 0x40 MLOAD RETURNDATASIZE PUSH1 0x1F NOT PUSH1 0x1F DUP3 ADD AND DUP3 ADD DUP1 PUSH1 0x40 MSTORE POP DUP2 ADD SWAP1 PUSH2 0x412 SWAP2 SWAP1 PUSH2 0x566 JUMP JUMPDEST PUSH2 0x41B JUMPI PUSH1 0x0 DUP1 REVERT JUMPDEST POP POP POP JUMP JUMPDEST JUMP JUMPDEST DUP3 PUSH20 0xFFFFFFFFFFFFFFFFFFFFFFFFFFFFFFFFFFFFFFFF AND PUSH4 0x95EA7B3 DUP4 DUP4 PUSH1 0x40 MLOAD DUP4 PUSH4 0xFFFFFFFF AND PUSH1 0xE0 SHL DUP2 MSTORE PUSH1 0x4 ADD PUSH2 0x45D SWAP3 SWAP2 SWAP1 PUSH2 0x6C1 JUMP JUMPDEST PUSH1 0x20 PUSH1 0x40 MLOAD DUP1 DUP4 SUB DUP2 PUSH1 0x0 DUP8 DUP1 EXTCODESIZE ISZERO DUP1 ISZERO PUSH2 0x477 JUMPI PUSH1 0x0 DUP1 REVERT JUMPDEST POP GAS CALL ISZERO DUP1 ISZERO PUSH2 0x48B JUMPI RETURNDATASIZE PUSH1 0x0 DUP1 RETURNDATACOPY RETURNDATASIZE PUSH1 0x0 REVERT JUMPDEST POP POP POP POP PUSH1 0x40 MLOAD RETURNDATASIZE PUSH1 0x1F NOT PUSH1 0x1F DUP3 ADD AND DUP3 ADD DUP1 PUSH1 0x40 MSTORE POP DUP2 ADD SWAP1 PUSH2 0x4AF SWAP2 SWAP1 PUSH2 0x566 JUMP JUMPDEST PUSH2 0x4B8 JUMPI PUSH1 0x0 DUP1 REVERT JUMPDEST POP POP POP JUMP JUMPDEST PUSH1 0x0 DUP2 CALLDATALOAD SWAP1 POP PUSH2 0x4CC DUP2 PUSH2 0x887 JUMP JUMPDEST SWAP3 SWAP2 POP POP JUMP JUMPDEST PUSH1 0x0 DUP2 CALLDATALOAD SWAP1 POP PUSH2 0x4E1 DUP2 PUSH2 0x89E JUMP JUMPDEST SWAP3 SWAP2 POP POP JUMP JUMPDEST PUSH1 0x0 DUP2 MLOAD SWAP1 POP PUSH2 0x4F6 DUP2 PUSH2 0x8B5 JUMP JUMPDEST SWAP3 SWAP2 POP POP JUMP JUMPDEST PUSH1 0x0 DUP2 CALLDATALOAD SWAP1 POP PUSH2 0x50B DUP2 PUSH2 0x8CC JUMP JUMPDEST SWAP3 SWAP2 POP POP JUMP JUMPDEST PUSH1 0x0 DUP2 CALLDATALOAD SWAP1 POP PUSH2 0x520 DUP2 PUSH2 0x8E3 JUMP JUMPDEST SWAP3 SWAP2 POP POP JUMP JUMPDEST PUSH1 0x0 DUP1 PUSH1 0x40 DUP4 DUP6 SUB SLT ISZERO PUSH2 0x53D JUMPI PUSH2 0x53C PUSH2 0x848 JUMP JUMPDEST JUMPDEST PUSH1 0x0 PUSH2 0x54B DUP6 DUP3 DUP7 ADD PUSH2 0x4D2 JUMP JUMPDEST SWAP3 POP POP PUSH1 0x20 PUSH2 0x55C DUP6 DUP3 DUP7 ADD PUSH2 0x511 JUMP JUMPDEST SWAP2 POP POP SWAP3 POP SWAP3 SWAP1 POP JUMP JUMPDEST PUSH1 0x0 PUSH1 0x20 DUP3 DUP5 SUB SLT ISZERO PUSH2 0x57C JUMPI PUSH2 0x57B PUSH2 0x848 JUMP JUMPDEST JUMPDEST PUSH1 0x0 PUSH2 0x58A DUP5 DUP3 DUP6 ADD PUSH2 0x4E7 JUMP JUMPDEST SWAP2 POP POP SWAP3 SWAP2 POP POP JUMP JUMPDEST PUSH1 0x0 DUP1 PUSH1 0x0 PUSH1 0x60 DUP5 DUP7 SUB SLT ISZERO PUSH2 0x5AC JUMPI PUSH2 0x5AB PUSH2 0x848 JUMP JUMPDEST JUMPDEST PUSH1 0x0 PUSH2 0x5BA DUP7 DUP3 DUP8 ADD PUSH2 0x4FC JUMP JUMPDEST SWAP4 POP POP PUSH1 0x20 PUSH2 0x5CB DUP7 DUP3 DUP8 ADD PUSH2 0x4BD JUMP JUMPDEST SWAP3 POP POP PUSH1 0x40 PUSH2 0x5DC DUP7 DUP3 DUP8 ADD PUSH2 0x511 JUMP JUMPDEST SWAP2 POP POP SWAP3 POP SWAP3 POP SWAP3 JUMP JUMPDEST PUSH2 0x5EF DUP2 PUSH2 0x75A JUMP JUMPDEST DUP3 MSTORE POP POP JUMP JUMPDEST PUSH2 0x5FE DUP2 PUSH2 0x748 JUMP JUMPDEST DUP3 MSTORE POP POP JUMP JUMPDEST PUSH1 0x0 PUSH2 0x60F DUP3 PUSH2 0x72C JUMP JUMPDEST PUSH2 0x619 DUP2 DUP6 PUSH2 0x737 JUMP JUMPDEST SWAP4 POP PUSH2 0x629 DUP2 DUP6 PUSH1 0x20 DUP7 ADD PUSH2 0x7B4 JUMP JUMPDEST PUSH2 0x632 DUP2 PUSH2 0x84D JUMP JUMPDEST DUP5 ADD SWAP2 POP POP SWAP3 SWAP2 POP POP JUMP JUMPDEST PUSH1 0x0 PUSH2 0x64A PUSH1 0x10 DUP4 PUSH2 0x737 JUMP JUMPDEST SWAP2 POP PUSH2 0x655 DUP3 PUSH2 0x85E JUMP JUMPDEST PUSH1 0x20 DUP3 ADD SWAP1 POP SWAP2 SWAP1 POP JUMP JUMPDEST PUSH2 0x669 DUP2 PUSH2 0x7AA JUMP JUMPDEST DUP3 MSTORE POP POP JUMP JUMPDEST PUSH1 0x0 PUSH1 0x20 DUP3 ADD SWAP1 POP PUSH2 0x684 PUSH1 0x0 DUP4 ADD DUP5 PUSH2 0x5E6 JUMP JUMPDEST SWAP3 SWAP2 POP POP JUMP JUMPDEST PUSH1 0x0 PUSH1 0x60 DUP3 ADD SWAP1 POP PUSH2 0x69F PUSH1 0x0 DUP4 ADD DUP7 PUSH2 0x5F5 JUMP JUMPDEST PUSH2 0x6AC PUSH1 0x20 DUP4 ADD DUP6 PUSH2 0x5F5 JUMP JUMPDEST PUSH2 0x6B9 PUSH1 0x40 DUP4 ADD DUP5 PUSH2 0x660 JUMP JUMPDEST SWAP5 SWAP4 POP POP POP POP JUMP JUMPDEST PUSH1 0x0 PUSH1 0x40 DUP3 ADD SWAP1 POP PUSH2 0x6D6 PUSH1 0x0 DUP4 ADD DUP6 PUSH2 0x5F5 JUMP JUMPDEST PUSH2 0x6E3 PUSH1 0x20 DUP4 ADD DUP5 PUSH2 0x660 JUMP JUMPDEST SWAP4 SWAP3 POP POP POP JUMP JUMPDEST PUSH1 0x0 PUSH1 0x20 DUP3 ADD SWAP1 POP DUP2 DUP2 SUB PUSH1 0x0 DUP4 ADD MSTORE PUSH2 0x704 DUP2 DUP5 PUSH2 0x604 JUMP JUMPDEST SWAP1 POP SWAP3 SWAP2 POP POP JUMP JUMPDEST PUSH1 0x0 PUSH1 0x20 DUP3 ADD SWAP1 POP DUP2 DUP2 SUB PUSH1 0x0 DUP4 ADD MSTORE PUSH2 0x725 DUP2 PUSH2 0x63D JUMP JUMPDEST SWAP1 POP SWAP2 SWAP1 POP JUMP JUMPDEST PUSH1 0x0 DUP2 MLOAD SWAP1 POP SWAP2 SWAP1 POP JUMP JUMPDEST PUSH1 0x0 DUP3 DUP3 MSTORE PUSH1 0x20 DUP3 ADD SWAP1 POP SWAP3 SWAP2 POP POP JUMP JUMPDEST PUSH1 0x0 PUSH2 0x753 DUP3 PUSH2 0x78A JUMP JUMPDEST SWAP1 POP SWAP2 SWAP1 POP JUMP JUMPDEST PUSH1 0x0 PUSH2 0x765 DUP3 PUSH2 0x78A JUMP JUMPDEST SWAP1 POP SWAP2 SWAP1 POP JUMP JUMPDEST PUSH1 0x0 DUP2 ISZERO ISZERO SWAP1 POP SWAP2 SWAP1 POP JUMP JUMPDEST PUSH1 0x0 PUSH2 0x783 DUP3 PUSH2 0x748 JUMP JUMPDEST SWAP1 POP SWAP2 SWAP1 POP JUMP JUMPDEST PUSH1 0x0 PUSH20 0xFFFFFFFFFFFFFFFFFFFFFFFFFFFFFFFFFFFFFFFF DUP3 AND SWAP1 POP SWAP2 SWAP1 POP JUMP JUMPDEST PUSH1 0x0 DUP2 SWAP1 POP SWAP2 SWAP1 POP JUMP JUMPDEST PUSH1 0x0 JUMPDEST DUP4 DUP2 LT ISZERO PUSH2 0x7D2 JUMPI DUP1 DUP3 ADD MLOAD DUP2 DUP5 ADD MSTORE PUSH1 0x20 DUP2 ADD SWAP1 POP PUSH2 0x7B7 JUMP JUMPDEST DUP4 DUP2 GT ISZERO PUSH2 0x7E1 JUMPI PUSH1 0x0 DUP5 DUP5 ADD MSTORE JUMPDEST POP POP POP POP JUMP JUMPDEST PUSH1 0x0 PUSH1 0x2 DUP3 DIV SWAP1 POP PUSH1 0x1 DUP3 AND DUP1 PUSH2 0x7FF JUMPI PUSH1 0x7F DUP3 AND SWAP2 POP JUMPDEST PUSH1 0x20 DUP3 LT DUP2 EQ ISZERO PUSH2 0x813 JUMPI PUSH2 0x812 PUSH2 0x819 JUMP JUMPDEST JUMPDEST POP SWAP2 SWAP1 POP JUMP JUMPDEST PUSH32 0x4E487B7100000000000000000000000000000000000000000000000000000000 PUSH1 0x0 MSTORE PUSH1 0x22 PUSH1 0x4 MSTORE PUSH1 0x24 PUSH1 0x0 REVERT JUMPDEST PUSH1 0x0 DUP1 REVERT JUMPDEST PUSH1 0x0 PUSH1 0x1F NOT PUSH1 0x1F DUP4 ADD AND SWAP1 POP SWAP2 SWAP1 POP JUMP JUMPDEST PUSH32 0x6E65656420696E697420626F756E747900000000000000000000000000000000 PUSH1 0x0 DUP3 ADD MSTORE POP JUMP JUMPDEST PUSH2 0x890 DUP2 PUSH2 0x748 JUMP JUMPDEST DUP2 EQ PUSH2 0x89B JUMPI PUSH1 0x0 DUP1 REVERT JUMPDEST POP JUMP JUMPDEST PUSH2 0x8A7 DUP2 PUSH2 0x75A JUMP JUMPDEST DUP2 EQ PUSH2 0x8B2 JUMPI PUSH1 0x0 DUP1 REVERT JUMPDEST POP JUMP JUMPDEST PUSH2 0x8BE DUP2 PUSH2 0x76C JUMP JUMPDEST DUP2 EQ PUSH2 0x8C9 JUMPI PUSH1 0x0 DUP1 REVERT JUMPDEST POP JUMP JUMPDEST PUSH2 0x8D5 DUP2 PUSH2 0x778 JUMP JUMPDEST DUP2 EQ PUSH2 0x8E0 JUMPI PUSH1 0x0 DUP1 REVERT JUMPDEST POP JUMP JUMPDEST PUSH2 0x8EC DUP2 PUSH2 0x7AA JUMP JUMPDEST DUP2 EQ PUSH2 0x8F7 JUMPI PUSH1 0x0 DUP1 REVERT JUMPDEST POP JUMP INVALID LOG2 PUSH5 0x6970667358 0x22 SLT KECCAK256 0x5E 0xAC 0xBC PUSH8 0xAE1F0F9277CDE574 0xD5 0x27 0x4C EQ 0x5C 0xD4 0xF6 0xCB SWAP16 0xC4 0xBD 0xE6 LT PUSH10 0x576CEFE0683F64736F6C PUSH4 0x43000807 STOP CALLER "
				},
				"gasEstimates": {
					"creation": {
						"codeDepositCost": "470400",
						"executionCost": "infinite",
						"totalCost": "infinite"
					},
					"external": {
						"approve(address,address,uint256)": "infinite",
						"deposit()": "164",
						"getPool()": "386",
						"id()": "infinite",
						"stableTransfer(address,uint256)": "infinite",
						"transfer(address,address,uint256)": "infinite",
						"transferFrom(address,address,uint256)": "infinite"
					}
				},
				"methodIdentifiers": {
					"approve(address,address,uint256)": "e1f21c67",
					"deposit()": "d0e30db0",
					"getPool()": "026b1d5f",
					"id()": "af640d0f",
					"stableTransfer(address,uint256)": "13658f8a",
					"transfer(address,address,uint256)": "beabacc8",
					"transferFrom(address,address,uint256)": "23b872dd"
				}
			},
			"storageLayout": {
				"storage": [
					{
						"astId": 78,
						"contract": "contracts/Bounty.sol:BountyAddr",
						"label": "_bountyBase",
						"offset": 0,
						"slot": "0",
						"type": "t_address"
					},
					{
						"astId": 80,
						"contract": "contracts/Bounty.sol:BountyAddr",
						"label": "id",
						"offset": 0,
						"slot": "1",
						"type": "t_string_storage"
					}
				],
				"types": {
					"t_address": {
						"encoding": "inplace",
						"label": "address",
						"numberOfBytes": "20"
					},
					"t_string_storage": {
						"encoding": "bytes",
						"label": "string",
						"numberOfBytes": "32"
					}
				}
			},
			"userdoc": {
				"kind": "user",
				"methods": {},
				"version": 1
			}
		}
	}
}