{
	"contracts/Bounty.sol": {
		"Bounty": {
			"abi": [
				{
					"inputs": [],
					"stateMutability": "nonpayable",
					"type": "constructor"
				},
				{
					"anonymous": false,
					"inputs": [
						{
							"indexed": true,
							"internalType": "address",
							"name": "previousOwner",
							"type": "address"
						},
						{
							"indexed": true,
							"internalType": "address",
							"name": "newOwner",
							"type": "address"
						}
					],
					"name": "OwnershipTransferred",
					"type": "event"
				},
				{
					"anonymous": false,
					"inputs": [
						{
							"indexed": false,
							"internalType": "contract BountyAddr",
							"name": "addr",
							"type": "address"
						}
					],
					"name": "createdBounty",
					"type": "event"
				},
				{
					"stateMutability": "payable",
					"type": "fallback"
				},
				{
					"inputs": [],
					"name": "createBounty",
					"outputs": [],
					"stateMutability": "payable",
					"type": "function"
				},
				{
					"inputs": [
						{
							"internalType": "string",
							"name": "id",
							"type": "string"
						},
						{
							"internalType": "address payable",
							"name": "oriSender",
							"type": "address"
						},
						{
							"internalType": "uint256",
							"name": "oriVal",
							"type": "uint256"
						},
						{
							"internalType": "uint256",
							"name": "time",
							"type": "uint256"
						}
					],
					"name": "invest",
					"outputs": [],
					"stateMutability": "nonpayable",
					"type": "function"
				},
				{
					"inputs": [
						{
							"internalType": "address payable",
							"name": "receiver",
							"type": "address"
						}
					],
					"name": "suicide0",
					"outputs": [],
					"stateMutability": "nonpayable",
					"type": "function"
				},
				{
					"inputs": [
						{
							"internalType": "address",
							"name": "newOwner",
							"type": "address"
						}
					],
					"name": "transferOwnership",
					"outputs": [],
					"stateMutability": "nonpayable",
					"type": "function"
				},
				{
					"stateMutability": "payable",
					"type": "receive"
				}
			],
			"devdoc": {
				"kind": "dev",
				"methods": {},
				"version": 1
			},
			"evm": {
				"assembly": "    /* \"contracts/Bounty.sol\":143:825  contract Bounty is Base { ... */\n  mstore(0x40, 0x80)\n    /* \"contracts/Bounty.sol\":356:398  0x8f81b9B08232F8E8981dAa87854575d7325A9439 */\n  0x8f81b9b08232f8e8981daa87854575d7325a9439\n    /* \"contracts/Bounty.sol\":326:399  address _stableAddr = address(0x8f81b9B08232F8E8981dAa87854575d7325A9439) */\n  0x03\n  exp(0x0100, 0x00)\n  dup2\n  sload\n  dup2\n  0xffffffffffffffffffffffffffffffffffffffff\n  mul\n  not\n  and\n  swap1\n  dup4\n  0xffffffffffffffffffffffffffffffffffffffff\n  and\n  mul\n  or\n  swap1\n  sstore\n  pop\n    /* \"contracts/Bounty.sol\":406:463  constructor() Base() {... */\n  callvalue\n  dup1\n  iszero\n  tag_1\n  jumpi\n  0x00\n  dup1\n  revert\ntag_1:\n  pop\n    /* \"contracts/base/Base.sol\":371:381  msg.sender */\n  caller\n    /* \"contracts/base/Base.sol\":362:368  _owner */\n  0x00\n  dup1\n    /* \"contracts/base/Base.sol\":362:381  _owner = msg.sender */\n  0x0100\n  exp\n  dup2\n  sload\n  dup2\n  0xffffffffffffffffffffffffffffffffffffffff\n  mul\n  not\n  and\n  swap1\n  dup4\n  0xffffffffffffffffffffffffffffffffffffffff\n  and\n  mul\n  or\n  swap1\n  sstore\n  pop\n    /* \"contracts/Bounty.sol\":446:456  msg.sender */\n  caller\n    /* \"contracts/Bounty.sol\":437:443  _owner */\n  0x00\n  dup1\n    /* \"contracts/Bounty.sol\":437:456  _owner = msg.sender */\n  0x0100\n  exp\n  dup2\n  sload\n  dup2\n  0xffffffffffffffffffffffffffffffffffffffff\n  mul\n  not\n  and\n  swap1\n  dup4\n  0xffffffffffffffffffffffffffffffffffffffff\n  and\n  mul\n  or\n  swap1\n  sstore\n  pop\n    /* \"contracts/Bounty.sol\":143:825  contract Bounty is Base { ... */\n  dataSize(sub_0)\n  dup1\n  dataOffset(sub_0)\n  0x00\n  codecopy\n  0x00\n  return\nstop\n\nsub_0: assembly {\n        /* \"contracts/Bounty.sol\":143:825  contract Bounty is Base { ... */\n      mstore(0x40, 0x80)\n      jumpi(tag_1, lt(calldatasize, 0x04))\n      shr(0xe0, calldataload(0x00))\n      dup1\n      0x14da447f\n      eq\n      tag_3\n      jumpi\n      dup1\n      0x2bef7c7f\n      eq\n      tag_4\n      jumpi\n      dup1\n      0x46964a0a\n      eq\n      tag_5\n      jumpi\n      dup1\n      0xf2fde38b\n      eq\n      tag_6\n      jumpi\n      jump(tag_2)\n    tag_1:\n      jumpi(tag_2, calldatasize)\n        /* \"contracts/base/Base.sol\":498:506  revert() */\n      0x00\n      dup1\n      revert\n        /* \"contracts/Bounty.sol\":143:825  contract Bounty is Base { ... */\n    tag_2:\n        /* \"contracts/base/Base.sol\":440:448  revert() */\n      0x00\n      dup1\n      revert\n        /* \"contracts/base/Base.sol\":1009:1115  function suicide0(address payable receiver)... */\n    tag_3:\n      callvalue\n      dup1\n      iszero\n      tag_11\n      jumpi\n      0x00\n      dup1\n      revert\n    tag_11:\n      pop\n      tag_12\n      0x04\n      dup1\n      calldatasize\n      sub\n      dup2\n      add\n      swap1\n      tag_13\n      swap2\n      swap1\n      tag_14\n      jump\t// in\n    tag_13:\n      tag_15\n      jump\t// in\n    tag_12:\n      stop\n        /* \"contracts/Bounty.sol\":469:688  function createBounty() public payable {... */\n    tag_4:\n      tag_16\n      tag_17\n      jump\t// in\n    tag_16:\n      stop\n        /* \"contracts/Bounty.sol\":694:823  function invest(string memory id, address payable oriSender, uint256 oriVal, uint256 time) public {... */\n    tag_5:\n      callvalue\n      dup1\n      iszero\n      tag_18\n      jumpi\n      0x00\n      dup1\n      revert\n    tag_18:\n      pop\n      tag_19\n      0x04\n      dup1\n      calldatasize\n      sub\n      dup2\n      add\n      swap1\n      tag_20\n      swap2\n      swap1\n      tag_21\n      jump\t// in\n    tag_20:\n      tag_22\n      jump\t// in\n    tag_19:\n      stop\n        /* \"contracts/base/Base.sol\":614:810  function transferOwnership(address newOwner) public virtual isOwner {... */\n    tag_6:\n      callvalue\n      dup1\n      iszero\n      tag_23\n      jumpi\n      0x00\n      dup1\n      revert\n    tag_23:\n      pop\n      tag_24\n      0x04\n      dup1\n      calldatasize\n      sub\n      dup2\n      add\n      swap1\n      tag_25\n      swap2\n      swap1\n      tag_26\n      jump\t// in\n    tag_25:\n      tag_27\n      jump\t// in\n    tag_24:\n      stop\n        /* \"contracts/base/Base.sol\":1009:1115  function suicide0(address payable receiver)... */\n    tag_15:\n        /* \"contracts/base/Base.sol\":303:309  _owner */\n      0x00\n      dup1\n      sload\n      swap1\n      0x0100\n      exp\n      swap1\n      div\n      0xffffffffffffffffffffffffffffffffffffffff\n      and\n        /* \"contracts/base/Base.sol\":289:309  msg.sender == _owner */\n      0xffffffffffffffffffffffffffffffffffffffff\n      and\n        /* \"contracts/base/Base.sol\":289:299  msg.sender */\n      caller\n        /* \"contracts/base/Base.sol\":289:309  msg.sender == _owner */\n      0xffffffffffffffffffffffffffffffffffffffff\n      and\n      eq\n        /* \"contracts/base/Base.sol\":282:310  assert(msg.sender == _owner) */\n      tag_29\n      jumpi\n      tag_30\n      tag_31\n      jump\t// in\n    tag_30:\n    tag_29:\n        /* \"contracts/base/Base.sol\":1099:1107  receiver */\n      dup1\n        /* \"contracts/base/Base.sol\":1086:1108  selfdestruct(receiver) */\n      0xffffffffffffffffffffffffffffffffffffffff\n      and\n      selfdestruct\n        /* \"contracts/Bounty.sol\":469:688  function createBounty() public payable {... */\n    tag_17:\n        /* \"contracts/Bounty.sol\":518:533  BountyAddr addr */\n      0x00\n        /* \"contracts/Bounty.sol\":559:563  this */\n      address\n        /* \"contracts/Bounty.sol\":536:565  new BountyAddr(address(this)) */\n      mload(0x40)\n      tag_34\n      swap1\n      tag_35\n      jump\t// in\n    tag_34:\n      tag_36\n      swap2\n      swap1\n      tag_37\n      jump\t// in\n    tag_36:\n      mload(0x40)\n      dup1\n      swap2\n      sub\n      swap1\n      0x00\n      create\n      dup1\n      iszero\n      dup1\n      iszero\n      tag_38\n      jumpi\n      returndatasize\n      0x00\n      dup1\n      returndatacopy\n      revert(0x00, returndatasize)\n    tag_38:\n      pop\n        /* \"contracts/Bounty.sol\":518:565  BountyAddr addr = new BountyAddr(address(this)) */\n      swap1\n      pop\n        /* \"contracts/Bounty.sol\":575:579  addr */\n      dup1\n        /* \"contracts/Bounty.sol\":575:587  addr.getPool */\n      0xffffffffffffffffffffffffffffffffffffffff\n      and\n      0x026b1d5f\n        /* \"contracts/Bounty.sol\":575:589  addr.getPool() */\n      mload(0x40)\n      dup2\n      0xffffffff\n      and\n      0xe0\n      shl\n      dup2\n      mstore\n      0x04\n      add\n      0x20\n      mload(0x40)\n      dup1\n      dup4\n      sub\n      dup2\n      dup7\n      dup1\n      extcodesize\n      iszero\n      dup1\n      iszero\n      tag_39\n      jumpi\n      0x00\n      dup1\n      revert\n    tag_39:\n      pop\n      gas\n      staticcall\n      iszero\n      dup1\n      iszero\n      tag_41\n      jumpi\n      returndatasize\n      0x00\n      dup1\n      returndatacopy\n      revert(0x00, returndatasize)\n    tag_41:\n      pop\n      pop\n      pop\n      pop\n      mload(0x40)\n      returndatasize\n      not(0x1f)\n      0x1f\n      dup3\n      add\n      and\n      dup3\n      add\n      dup1\n      0x40\n      mstore\n      pop\n      dup2\n      add\n      swap1\n      tag_42\n      swap2\n      swap1\n      tag_43\n      jump\t// in\n    tag_42:\n        /* \"contracts/Bounty.sol\":575:598  addr.getPool().transfer */\n      0xffffffffffffffffffffffffffffffffffffffff\n      and\n        /* \"contracts/Bounty.sol\":575:609  addr.getPool().transfer(msg.value) */\n      0x08fc\n        /* \"contracts/Bounty.sol\":599:608  msg.value */\n      callvalue\n        /* \"contracts/Bounty.sol\":575:609  addr.getPool().transfer(msg.value) */\n      swap1\n      dup2\n      iszero\n      mul\n      swap1\n      mload(0x40)\n      0x00\n      mload(0x40)\n      dup1\n      dup4\n      sub\n      dup2\n      dup6\n      dup9\n      dup9\n      call\n      swap4\n      pop\n      pop\n      pop\n      pop\n      iszero\n      dup1\n      iszero\n      tag_45\n      jumpi\n      returndatasize\n      0x00\n      dup1\n      returndatacopy\n      revert(0x00, returndatasize)\n    tag_45:\n      pop\n        /* \"contracts/Bounty.sol\":619:636  bountyAddressList */\n      0x02\n        /* \"contracts/Bounty.sol\":642:646  addr */\n      dup2\n        /* \"contracts/Bounty.sol\":619:647  bountyAddressList.push(addr) */\n      swap1\n      dup1\n      0x01\n      dup2\n      sload\n      add\n      dup1\n      dup3\n      sstore\n      dup1\n      swap2\n      pop\n      pop\n      0x01\n      swap1\n      sub\n      swap1\n      0x00\n      mstore\n      keccak256(0x00, 0x20)\n      add\n      0x00\n      swap1\n      swap2\n      swap1\n      swap2\n      swap1\n      swap2\n      0x0100\n      exp\n      dup2\n      sload\n      dup2\n      0xffffffffffffffffffffffffffffffffffffffff\n      mul\n      not\n      and\n      swap1\n      dup4\n      0xffffffffffffffffffffffffffffffffffffffff\n      and\n      mul\n      or\n      swap1\n      sstore\n      pop\n        /* \"contracts/Bounty.sol\":662:681  createdBounty(addr) */\n      0x1bda7bb843640650292c2a26a73106328e0f83c1c09ea1a4176df3912ee47ff6\n        /* \"contracts/Bounty.sol\":676:680  addr */\n      dup2\n        /* \"contracts/Bounty.sol\":662:681  createdBounty(addr) */\n      mload(0x40)\n      tag_47\n      swap2\n      swap1\n      tag_48\n      jump\t// in\n    tag_47:\n      mload(0x40)\n      dup1\n      swap2\n      sub\n      swap1\n      log1\n        /* \"contracts/Bounty.sol\":508:688  {... */\n      pop\n        /* \"contracts/Bounty.sol\":469:688  function createBounty() public payable {... */\n      jump\t// out\n        /* \"contracts/Bounty.sol\":694:823  function invest(string memory id, address payable oriSender, uint256 oriVal, uint256 time) public {... */\n    tag_22:\n      pop\n      pop\n      pop\n      pop\n      jump\t// out\n        /* \"contracts/base/Base.sol\":614:810  function transferOwnership(address newOwner) public virtual isOwner {... */\n    tag_27:\n        /* \"contracts/base/Base.sol\":303:309  _owner */\n      0x00\n      dup1\n      sload\n      swap1\n      0x0100\n      exp\n      swap1\n      div\n      0xffffffffffffffffffffffffffffffffffffffff\n      and\n        /* \"contracts/base/Base.sol\":289:309  msg.sender == _owner */\n      0xffffffffffffffffffffffffffffffffffffffff\n      and\n        /* \"contracts/base/Base.sol\":289:299  msg.sender */\n      caller\n        /* \"contracts/base/Base.sol\":289:309  msg.sender == _owner */\n      0xffffffffffffffffffffffffffffffffffffffff\n      and\n      eq\n        /* \"contracts/base/Base.sol\":282:310  assert(msg.sender == _owner) */\n      tag_51\n      jumpi\n      tag_52\n      tag_31\n      jump\t// in\n    tag_52:\n    tag_51:\n        /* \"contracts/base/Base.sol\":720:721  0 */\n      0x00\n        /* \"contracts/base/Base.sol\":700:722  newOwner != address(0) */\n      0xffffffffffffffffffffffffffffffffffffffff\n      and\n        /* \"contracts/base/Base.sol\":700:708  newOwner */\n      dup2\n        /* \"contracts/base/Base.sol\":700:722  newOwner != address(0) */\n      0xffffffffffffffffffffffffffffffffffffffff\n      and\n      eq\n      iszero\n        /* \"contracts/base/Base.sol\":692:765  require(newOwner != address(0), \"Ownable: new owner is the zero address\") */\n      tag_54\n      jumpi\n      mload(0x40)\n      0x08c379a000000000000000000000000000000000000000000000000000000000\n      dup2\n      mstore\n      0x04\n      add\n      tag_55\n      swap1\n      tag_56\n      jump\t// in\n    tag_55:\n      mload(0x40)\n      dup1\n      swap2\n      sub\n      swap1\n      revert\n    tag_54:\n        /* \"contracts/base/Base.sol\":775:803  _transferOwnership(newOwner) */\n      tag_57\n        /* \"contracts/base/Base.sol\":794:802  newOwner */\n      dup2\n        /* \"contracts/base/Base.sol\":775:793  _transferOwnership */\n      tag_58\n        /* \"contracts/base/Base.sol\":775:803  _transferOwnership(newOwner) */\n      jump\t// in\n    tag_57:\n        /* \"contracts/base/Base.sol\":614:810  function transferOwnership(address newOwner) public virtual isOwner {... */\n      pop\n      jump\t// out\n        /* \"contracts/base/Base.sol\":816:1003  function _transferOwnership(address newOwner) internal virtual {... */\n    tag_58:\n        /* \"contracts/base/Base.sol\":889:905  address oldOwner */\n      0x00\n        /* \"contracts/base/Base.sol\":908:914  _owner */\n      dup1\n      0x00\n      swap1\n      sload\n      swap1\n      0x0100\n      exp\n      swap1\n      div\n      0xffffffffffffffffffffffffffffffffffffffff\n      and\n        /* \"contracts/base/Base.sol\":889:914  address oldOwner = _owner */\n      swap1\n      pop\n        /* \"contracts/base/Base.sol\":933:941  newOwner */\n      dup2\n        /* \"contracts/base/Base.sol\":924:930  _owner */\n      0x00\n      dup1\n        /* \"contracts/base/Base.sol\":924:941  _owner = newOwner */\n      0x0100\n      exp\n      dup2\n      sload\n      dup2\n      0xffffffffffffffffffffffffffffffffffffffff\n      mul\n      not\n      and\n      swap1\n      dup4\n      0xffffffffffffffffffffffffffffffffffffffff\n      and\n      mul\n      or\n      swap1\n      sstore\n      pop\n        /* \"contracts/base/Base.sol\":987:995  newOwner */\n      dup2\n        /* \"contracts/base/Base.sol\":956:996  OwnershipTransferred(oldOwner, newOwner) */\n      0xffffffffffffffffffffffffffffffffffffffff\n      and\n        /* \"contracts/base/Base.sol\":977:985  oldOwner */\n      dup2\n        /* \"contracts/base/Base.sol\":956:996  OwnershipTransferred(oldOwner, newOwner) */\n      0xffffffffffffffffffffffffffffffffffffffff\n      and\n      0x8be0079c531659141344cd1fd0a4f28419497f9722a3daafe3b4186f6b6457e0\n      mload(0x40)\n      mload(0x40)\n      dup1\n      swap2\n      sub\n      swap1\n      log3\n        /* \"contracts/base/Base.sol\":879:1003  {... */\n      pop\n        /* \"contracts/base/Base.sol\":816:1003  function _transferOwnership(address newOwner) internal virtual {... */\n      pop\n      jump\t// out\n    tag_35:\n      dataSize(sub_0)\n      dup1\n      dataOffset(sub_0)\n      dup4\n      codecopy\n      add\n      swap1\n      jump\t// out\n        /* \"#utility.yul\":7:419   */\n    tag_61:\n        /* \"#utility.yul\":85:90   */\n      0x00\n        /* \"#utility.yul\":110:176   */\n      tag_63\n        /* \"#utility.yul\":126:175   */\n      tag_64\n        /* \"#utility.yul\":168:174   */\n      dup5\n        /* \"#utility.yul\":126:175   */\n      tag_65\n      jump\t// in\n    tag_64:\n        /* \"#utility.yul\":110:176   */\n      tag_66\n      jump\t// in\n    tag_63:\n        /* \"#utility.yul\":101:176   */\n      swap1\n      pop\n        /* \"#utility.yul\":199:205   */\n      dup3\n        /* \"#utility.yul\":192:197   */\n      dup2\n        /* \"#utility.yul\":185:206   */\n      mstore\n        /* \"#utility.yul\":237:241   */\n      0x20\n        /* \"#utility.yul\":230:235   */\n      dup2\n        /* \"#utility.yul\":226:242   */\n      add\n        /* \"#utility.yul\":275:278   */\n      dup5\n        /* \"#utility.yul\":266:272   */\n      dup5\n        /* \"#utility.yul\":261:264   */\n      dup5\n        /* \"#utility.yul\":257:273   */\n      add\n        /* \"#utility.yul\":254:279   */\n      gt\n        /* \"#utility.yul\":251:363   */\n      iszero\n      tag_67\n      jumpi\n        /* \"#utility.yul\":282:361   */\n      tag_68\n      tag_69\n      jump\t// in\n    tag_68:\n        /* \"#utility.yul\":251:363   */\n    tag_67:\n        /* \"#utility.yul\":372:413   */\n      tag_70\n        /* \"#utility.yul\":406:412   */\n      dup5\n        /* \"#utility.yul\":401:404   */\n      dup3\n        /* \"#utility.yul\":396:399   */\n      dup6\n        /* \"#utility.yul\":372:413   */\n      tag_71\n      jump\t// in\n    tag_70:\n        /* \"#utility.yul\":91:419   */\n      pop\n        /* \"#utility.yul\":7:419   */\n      swap4\n      swap3\n      pop\n      pop\n      pop\n      jump\t// out\n        /* \"#utility.yul\":425:564   */\n    tag_72:\n        /* \"#utility.yul\":471:476   */\n      0x00\n        /* \"#utility.yul\":509:515   */\n      dup2\n        /* \"#utility.yul\":496:516   */\n      calldataload\n        /* \"#utility.yul\":487:516   */\n      swap1\n      pop\n        /* \"#utility.yul\":525:558   */\n      tag_74\n        /* \"#utility.yul\":552:557   */\n      dup2\n        /* \"#utility.yul\":525:558   */\n      tag_75\n      jump\t// in\n    tag_74:\n        /* \"#utility.yul\":425:564   */\n      swap3\n      swap2\n      pop\n      pop\n      jump\t// out\n        /* \"#utility.yul\":570:725   */\n    tag_76:\n        /* \"#utility.yul\":624:629   */\n      0x00\n        /* \"#utility.yul\":662:668   */\n      dup2\n        /* \"#utility.yul\":649:669   */\n      calldataload\n        /* \"#utility.yul\":640:669   */\n      swap1\n      pop\n        /* \"#utility.yul\":678:719   */\n      tag_78\n        /* \"#utility.yul\":713:718   */\n      dup2\n        /* \"#utility.yul\":678:719   */\n      tag_79\n      jump\t// in\n    tag_78:\n        /* \"#utility.yul\":570:725   */\n      swap3\n      swap2\n      pop\n      pop\n      jump\t// out\n        /* \"#utility.yul\":731:890   */\n    tag_80:\n        /* \"#utility.yul\":796:801   */\n      0x00\n        /* \"#utility.yul\":827:833   */\n      dup2\n        /* \"#utility.yul\":821:834   */\n      mload\n        /* \"#utility.yul\":812:834   */\n      swap1\n      pop\n        /* \"#utility.yul\":843:884   */\n      tag_82\n        /* \"#utility.yul\":878:883   */\n      dup2\n        /* \"#utility.yul\":843:884   */\n      tag_79\n      jump\t// in\n    tag_82:\n        /* \"#utility.yul\":731:890   */\n      swap3\n      swap2\n      pop\n      pop\n      jump\t// out\n        /* \"#utility.yul\":910:1250   */\n    tag_83:\n        /* \"#utility.yul\":966:971   */\n      0x00\n        /* \"#utility.yul\":1015:1018   */\n      dup3\n        /* \"#utility.yul\":1008:1012   */\n      0x1f\n        /* \"#utility.yul\":1000:1006   */\n      dup4\n        /* \"#utility.yul\":996:1013   */\n      add\n        /* \"#utility.yul\":992:1019   */\n      slt\n        /* \"#utility.yul\":982:1104   */\n      tag_85\n      jumpi\n        /* \"#utility.yul\":1023:1102   */\n      tag_86\n      tag_87\n      jump\t// in\n    tag_86:\n        /* \"#utility.yul\":982:1104   */\n    tag_85:\n        /* \"#utility.yul\":1140:1146   */\n      dup2\n        /* \"#utility.yul\":1127:1147   */\n      calldataload\n        /* \"#utility.yul\":1165:1244   */\n      tag_88\n        /* \"#utility.yul\":1240:1243   */\n      dup5\n        /* \"#utility.yul\":1232:1238   */\n      dup3\n        /* \"#utility.yul\":1225:1229   */\n      0x20\n        /* \"#utility.yul\":1217:1223   */\n      dup7\n        /* \"#utility.yul\":1213:1230   */\n      add\n        /* \"#utility.yul\":1165:1244   */\n      tag_61\n      jump\t// in\n    tag_88:\n        /* \"#utility.yul\":1156:1244   */\n      swap2\n      pop\n        /* \"#utility.yul\":972:1250   */\n      pop\n        /* \"#utility.yul\":910:1250   */\n      swap3\n      swap2\n      pop\n      pop\n      jump\t// out\n        /* \"#utility.yul\":1256:1395   */\n    tag_89:\n        /* \"#utility.yul\":1302:1307   */\n      0x00\n        /* \"#utility.yul\":1340:1346   */\n      dup2\n        /* \"#utility.yul\":1327:1347   */\n      calldataload\n        /* \"#utility.yul\":1318:1347   */\n      swap1\n      pop\n        /* \"#utility.yul\":1356:1389   */\n      tag_91\n        /* \"#utility.yul\":1383:1388   */\n      dup2\n        /* \"#utility.yul\":1356:1389   */\n      tag_92\n      jump\t// in\n    tag_91:\n        /* \"#utility.yul\":1256:1395   */\n      swap3\n      swap2\n      pop\n      pop\n      jump\t// out\n        /* \"#utility.yul\":1401:1730   */\n    tag_26:\n        /* \"#utility.yul\":1460:1466   */\n      0x00\n        /* \"#utility.yul\":1509:1511   */\n      0x20\n        /* \"#utility.yul\":1497:1506   */\n      dup3\n        /* \"#utility.yul\":1488:1495   */\n      dup5\n        /* \"#utility.yul\":1484:1507   */\n      sub\n        /* \"#utility.yul\":1480:1512   */\n      slt\n        /* \"#utility.yul\":1477:1596   */\n      iszero\n      tag_94\n      jumpi\n        /* \"#utility.yul\":1515:1594   */\n      tag_95\n      tag_96\n      jump\t// in\n    tag_95:\n        /* \"#utility.yul\":1477:1596   */\n    tag_94:\n        /* \"#utility.yul\":1635:1636   */\n      0x00\n        /* \"#utility.yul\":1660:1713   */\n      tag_97\n        /* \"#utility.yul\":1705:1712   */\n      dup5\n        /* \"#utility.yul\":1696:1702   */\n      dup3\n        /* \"#utility.yul\":1685:1694   */\n      dup6\n        /* \"#utility.yul\":1681:1703   */\n      add\n        /* \"#utility.yul\":1660:1713   */\n      tag_72\n      jump\t// in\n    tag_97:\n        /* \"#utility.yul\":1650:1713   */\n      swap2\n      pop\n        /* \"#utility.yul\":1606:1723   */\n      pop\n        /* \"#utility.yul\":1401:1730   */\n      swap3\n      swap2\n      pop\n      pop\n      jump\t// out\n        /* \"#utility.yul\":1736:2081   */\n    tag_14:\n        /* \"#utility.yul\":1803:1809   */\n      0x00\n        /* \"#utility.yul\":1852:1854   */\n      0x20\n        /* \"#utility.yul\":1840:1849   */\n      dup3\n        /* \"#utility.yul\":1831:1838   */\n      dup5\n        /* \"#utility.yul\":1827:1850   */\n      sub\n        /* \"#utility.yul\":1823:1855   */\n      slt\n        /* \"#utility.yul\":1820:1939   */\n      iszero\n      tag_99\n      jumpi\n        /* \"#utility.yul\":1858:1937   */\n      tag_100\n      tag_96\n      jump\t// in\n    tag_100:\n        /* \"#utility.yul\":1820:1939   */\n    tag_99:\n        /* \"#utility.yul\":1978:1979   */\n      0x00\n        /* \"#utility.yul\":2003:2064   */\n      tag_101\n        /* \"#utility.yul\":2056:2063   */\n      dup5\n        /* \"#utility.yul\":2047:2053   */\n      dup3\n        /* \"#utility.yul\":2036:2045   */\n      dup6\n        /* \"#utility.yul\":2032:2054   */\n      add\n        /* \"#utility.yul\":2003:2064   */\n      tag_76\n      jump\t// in\n    tag_101:\n        /* \"#utility.yul\":1993:2064   */\n      swap2\n      pop\n        /* \"#utility.yul\":1949:2074   */\n      pop\n        /* \"#utility.yul\":1736:2081   */\n      swap3\n      swap2\n      pop\n      pop\n      jump\t// out\n        /* \"#utility.yul\":2087:2454   */\n    tag_43:\n        /* \"#utility.yul\":2165:2171   */\n      0x00\n        /* \"#utility.yul\":2214:2216   */\n      0x20\n        /* \"#utility.yul\":2202:2211   */\n      dup3\n        /* \"#utility.yul\":2193:2200   */\n      dup5\n        /* \"#utility.yul\":2189:2212   */\n      sub\n        /* \"#utility.yul\":2185:2217   */\n      slt\n        /* \"#utility.yul\":2182:2301   */\n      iszero\n      tag_103\n      jumpi\n        /* \"#utility.yul\":2220:2299   */\n      tag_104\n      tag_96\n      jump\t// in\n    tag_104:\n        /* \"#utility.yul\":2182:2301   */\n    tag_103:\n        /* \"#utility.yul\":2340:2341   */\n      0x00\n        /* \"#utility.yul\":2365:2437   */\n      tag_105\n        /* \"#utility.yul\":2429:2436   */\n      dup5\n        /* \"#utility.yul\":2420:2426   */\n      dup3\n        /* \"#utility.yul\":2409:2418   */\n      dup6\n        /* \"#utility.yul\":2405:2427   */\n      add\n        /* \"#utility.yul\":2365:2437   */\n      tag_80\n      jump\t// in\n    tag_105:\n        /* \"#utility.yul\":2355:2437   */\n      swap2\n      pop\n        /* \"#utility.yul\":2311:2447   */\n      pop\n        /* \"#utility.yul\":2087:2454   */\n      swap3\n      swap2\n      pop\n      pop\n      jump\t// out\n        /* \"#utility.yul\":2460:3421   */\n    tag_21:\n        /* \"#utility.yul\":2564:2570   */\n      0x00\n        /* \"#utility.yul\":2572:2578   */\n      dup1\n        /* \"#utility.yul\":2580:2586   */\n      0x00\n        /* \"#utility.yul\":2588:2594   */\n      dup1\n        /* \"#utility.yul\":2637:2640   */\n      0x80\n        /* \"#utility.yul\":2625:2634   */\n      dup6\n        /* \"#utility.yul\":2616:2623   */\n      dup8\n        /* \"#utility.yul\":2612:2635   */\n      sub\n        /* \"#utility.yul\":2608:2641   */\n      slt\n        /* \"#utility.yul\":2605:2725   */\n      iszero\n      tag_107\n      jumpi\n        /* \"#utility.yul\":2644:2723   */\n      tag_108\n      tag_96\n      jump\t// in\n    tag_108:\n        /* \"#utility.yul\":2605:2725   */\n    tag_107:\n        /* \"#utility.yul\":2792:2793   */\n      0x00\n        /* \"#utility.yul\":2781:2790   */\n      dup6\n        /* \"#utility.yul\":2777:2794   */\n      add\n        /* \"#utility.yul\":2764:2795   */\n      calldataload\n        /* \"#utility.yul\":2822:2840   */\n      0xffffffffffffffff\n        /* \"#utility.yul\":2814:2820   */\n      dup2\n        /* \"#utility.yul\":2811:2841   */\n      gt\n        /* \"#utility.yul\":2808:2925   */\n      iszero\n      tag_109\n      jumpi\n        /* \"#utility.yul\":2844:2923   */\n      tag_110\n      tag_111\n      jump\t// in\n    tag_110:\n        /* \"#utility.yul\":2808:2925   */\n    tag_109:\n        /* \"#utility.yul\":2949:3012   */\n      tag_112\n        /* \"#utility.yul\":3004:3011   */\n      dup8\n        /* \"#utility.yul\":2995:3001   */\n      dup3\n        /* \"#utility.yul\":2984:2993   */\n      dup9\n        /* \"#utility.yul\":2980:3002   */\n      add\n        /* \"#utility.yul\":2949:3012   */\n      tag_83\n      jump\t// in\n    tag_112:\n        /* \"#utility.yul\":2939:3012   */\n      swap5\n      pop\n        /* \"#utility.yul\":2735:3022   */\n      pop\n        /* \"#utility.yul\":3061:3063   */\n      0x20\n        /* \"#utility.yul\":3087:3148   */\n      tag_113\n        /* \"#utility.yul\":3140:3147   */\n      dup8\n        /* \"#utility.yul\":3131:3137   */\n      dup3\n        /* \"#utility.yul\":3120:3129   */\n      dup9\n        /* \"#utility.yul\":3116:3138   */\n      add\n        /* \"#utility.yul\":3087:3148   */\n      tag_76\n      jump\t// in\n    tag_113:\n        /* \"#utility.yul\":3077:3148   */\n      swap4\n      pop\n        /* \"#utility.yul\":3032:3158   */\n      pop\n        /* \"#utility.yul\":3197:3199   */\n      0x40\n        /* \"#utility.yul\":3223:3276   */\n      tag_114\n        /* \"#utility.yul\":3268:3275   */\n      dup8\n        /* \"#utility.yul\":3259:3265   */\n      dup3\n        /* \"#utility.yul\":3248:3257   */\n      dup9\n        /* \"#utility.yul\":3244:3266   */\n      add\n        /* \"#utility.yul\":3223:3276   */\n      tag_89\n      jump\t// in\n    tag_114:\n        /* \"#utility.yul\":3213:3276   */\n      swap3\n      pop\n        /* \"#utility.yul\":3168:3286   */\n      pop\n        /* \"#utility.yul\":3325:3327   */\n      0x60\n        /* \"#utility.yul\":3351:3404   */\n      tag_115\n        /* \"#utility.yul\":3396:3403   */\n      dup8\n        /* \"#utility.yul\":3387:3393   */\n      dup3\n        /* \"#utility.yul\":3376:3385   */\n      dup9\n        /* \"#utility.yul\":3372:3394   */\n      add\n        /* \"#utility.yul\":3351:3404   */\n      tag_89\n      jump\t// in\n    tag_115:\n        /* \"#utility.yul\":3341:3404   */\n      swap2\n      pop\n        /* \"#utility.yul\":3296:3414   */\n      pop\n        /* \"#utility.yul\":2460:3421   */\n      swap3\n      swap6\n      swap2\n      swap5\n      pop\n      swap3\n      pop\n      jump\t// out\n        /* \"#utility.yul\":3427:3545   */\n    tag_116:\n        /* \"#utility.yul\":3514:3538   */\n      tag_118\n        /* \"#utility.yul\":3532:3537   */\n      dup2\n        /* \"#utility.yul\":3514:3538   */\n      tag_119\n      jump\t// in\n    tag_118:\n        /* \"#utility.yul\":3509:3512   */\n      dup3\n        /* \"#utility.yul\":3502:3539   */\n      mstore\n        /* \"#utility.yul\":3427:3545   */\n      pop\n      pop\n      jump\t// out\n        /* \"#utility.yul\":3551:3734   */\n    tag_120:\n        /* \"#utility.yul\":3664:3727   */\n      tag_122\n        /* \"#utility.yul\":3721:3726   */\n      dup2\n        /* \"#utility.yul\":3664:3727   */\n      tag_123\n      jump\t// in\n    tag_122:\n        /* \"#utility.yul\":3659:3662   */\n      dup3\n        /* \"#utility.yul\":3652:3728   */\n      mstore\n        /* \"#utility.yul\":3551:3734   */\n      pop\n      pop\n      jump\t// out\n        /* \"#utility.yul\":3740:4106   */\n    tag_124:\n        /* \"#utility.yul\":3882:3885   */\n      0x00\n        /* \"#utility.yul\":3903:3970   */\n      tag_126\n        /* \"#utility.yul\":3967:3969   */\n      0x26\n        /* \"#utility.yul\":3962:3965   */\n      dup4\n        /* \"#utility.yul\":3903:3970   */\n      tag_127\n      jump\t// in\n    tag_126:\n        /* \"#utility.yul\":3896:3970   */\n      swap2\n      pop\n        /* \"#utility.yul\":3979:4072   */\n      tag_128\n        /* \"#utility.yul\":4068:4071   */\n      dup3\n        /* \"#utility.yul\":3979:4072   */\n      tag_129\n      jump\t// in\n    tag_128:\n        /* \"#utility.yul\":4097:4099   */\n      0x40\n        /* \"#utility.yul\":4092:4095   */\n      dup3\n        /* \"#utility.yul\":4088:4100   */\n      add\n        /* \"#utility.yul\":4081:4100   */\n      swap1\n      pop\n        /* \"#utility.yul\":3740:4106   */\n      swap2\n      swap1\n      pop\n      jump\t// out\n        /* \"#utility.yul\":4112:4334   */\n    tag_37:\n        /* \"#utility.yul\":4205:4209   */\n      0x00\n        /* \"#utility.yul\":4243:4245   */\n      0x20\n        /* \"#utility.yul\":4232:4241   */\n      dup3\n        /* \"#utility.yul\":4228:4246   */\n      add\n        /* \"#utility.yul\":4220:4246   */\n      swap1\n      pop\n        /* \"#utility.yul\":4256:4327   */\n      tag_131\n        /* \"#utility.yul\":4324:4325   */\n      0x00\n        /* \"#utility.yul\":4313:4322   */\n      dup4\n        /* \"#utility.yul\":4309:4326   */\n      add\n        /* \"#utility.yul\":4300:4306   */\n      dup5\n        /* \"#utility.yul\":4256:4327   */\n      tag_116\n      jump\t// in\n    tag_131:\n        /* \"#utility.yul\":4112:4334   */\n      swap3\n      swap2\n      pop\n      pop\n      jump\t// out\n        /* \"#utility.yul\":4340:4614   */\n    tag_48:\n        /* \"#utility.yul\":4459:4463   */\n      0x00\n        /* \"#utility.yul\":4497:4499   */\n      0x20\n        /* \"#utility.yul\":4486:4495   */\n      dup3\n        /* \"#utility.yul\":4482:4500   */\n      add\n        /* \"#utility.yul\":4474:4500   */\n      swap1\n      pop\n        /* \"#utility.yul\":4510:4607   */\n      tag_133\n        /* \"#utility.yul\":4604:4605   */\n      0x00\n        /* \"#utility.yul\":4593:4602   */\n      dup4\n        /* \"#utility.yul\":4589:4606   */\n      add\n        /* \"#utility.yul\":4580:4586   */\n      dup5\n        /* \"#utility.yul\":4510:4607   */\n      tag_120\n      jump\t// in\n    tag_133:\n        /* \"#utility.yul\":4340:4614   */\n      swap3\n      swap2\n      pop\n      pop\n      jump\t// out\n        /* \"#utility.yul\":4620:5039   */\n    tag_56:\n        /* \"#utility.yul\":4786:4790   */\n      0x00\n        /* \"#utility.yul\":4824:4826   */\n      0x20\n        /* \"#utility.yul\":4813:4822   */\n      dup3\n        /* \"#utility.yul\":4809:4827   */\n      add\n        /* \"#utility.yul\":4801:4827   */\n      swap1\n      pop\n        /* \"#utility.yul\":4873:4882   */\n      dup2\n        /* \"#utility.yul\":4867:4871   */\n      dup2\n        /* \"#utility.yul\":4863:4883   */\n      sub\n        /* \"#utility.yul\":4859:4860   */\n      0x00\n        /* \"#utility.yul\":4848:4857   */\n      dup4\n        /* \"#utility.yul\":4844:4861   */\n      add\n        /* \"#utility.yul\":4837:4884   */\n      mstore\n        /* \"#utility.yul\":4901:5032   */\n      tag_135\n        /* \"#utility.yul\":5027:5031   */\n      dup2\n        /* \"#utility.yul\":4901:5032   */\n      tag_124\n      jump\t// in\n    tag_135:\n        /* \"#utility.yul\":4893:5032   */\n      swap1\n      pop\n        /* \"#utility.yul\":4620:5039   */\n      swap2\n      swap1\n      pop\n      jump\t// out\n        /* \"#utility.yul\":5045:5174   */\n    tag_66:\n        /* \"#utility.yul\":5079:5085   */\n      0x00\n        /* \"#utility.yul\":5106:5126   */\n      tag_137\n      tag_138\n      jump\t// in\n    tag_137:\n        /* \"#utility.yul\":5096:5126   */\n      swap1\n      pop\n        /* \"#utility.yul\":5135:5168   */\n      tag_139\n        /* \"#utility.yul\":5163:5167   */\n      dup3\n        /* \"#utility.yul\":5155:5161   */\n      dup3\n        /* \"#utility.yul\":5135:5168   */\n      tag_140\n      jump\t// in\n    tag_139:\n        /* \"#utility.yul\":5045:5174   */\n      swap2\n      swap1\n      pop\n      jump\t// out\n        /* \"#utility.yul\":5180:5255   */\n    tag_138:\n        /* \"#utility.yul\":5213:5219   */\n      0x00\n        /* \"#utility.yul\":5246:5248   */\n      0x40\n        /* \"#utility.yul\":5240:5249   */\n      mload\n        /* \"#utility.yul\":5230:5249   */\n      swap1\n      pop\n        /* \"#utility.yul\":5180:5255   */\n      swap1\n      jump\t// out\n        /* \"#utility.yul\":5261:5569   */\n    tag_65:\n        /* \"#utility.yul\":5323:5327   */\n      0x00\n        /* \"#utility.yul\":5413:5431   */\n      0xffffffffffffffff\n        /* \"#utility.yul\":5405:5411   */\n      dup3\n        /* \"#utility.yul\":5402:5432   */\n      gt\n        /* \"#utility.yul\":5399:5455   */\n      iszero\n      tag_143\n      jumpi\n        /* \"#utility.yul\":5435:5453   */\n      tag_144\n      tag_145\n      jump\t// in\n    tag_144:\n        /* \"#utility.yul\":5399:5455   */\n    tag_143:\n        /* \"#utility.yul\":5473:5502   */\n      tag_146\n        /* \"#utility.yul\":5495:5501   */\n      dup3\n        /* \"#utility.yul\":5473:5502   */\n      tag_147\n      jump\t// in\n    tag_146:\n        /* \"#utility.yul\":5465:5502   */\n      swap1\n      pop\n        /* \"#utility.yul\":5557:5561   */\n      0x20\n        /* \"#utility.yul\":5551:5555   */\n      dup2\n        /* \"#utility.yul\":5547:5562   */\n      add\n        /* \"#utility.yul\":5539:5562   */\n      swap1\n      pop\n        /* \"#utility.yul\":5261:5569   */\n      swap2\n      swap1\n      pop\n      jump\t// out\n        /* \"#utility.yul\":5575:5744   */\n    tag_127:\n        /* \"#utility.yul\":5659:5670   */\n      0x00\n        /* \"#utility.yul\":5693:5699   */\n      dup3\n        /* \"#utility.yul\":5688:5691   */\n      dup3\n        /* \"#utility.yul\":5681:5700   */\n      mstore\n        /* \"#utility.yul\":5733:5737   */\n      0x20\n        /* \"#utility.yul\":5728:5731   */\n      dup3\n        /* \"#utility.yul\":5724:5738   */\n      add\n        /* \"#utility.yul\":5709:5738   */\n      swap1\n      pop\n        /* \"#utility.yul\":5575:5744   */\n      swap3\n      swap2\n      pop\n      pop\n      jump\t// out\n        /* \"#utility.yul\":5750:5846   */\n    tag_119:\n        /* \"#utility.yul\":5787:5794   */\n      0x00\n        /* \"#utility.yul\":5816:5840   */\n      tag_150\n        /* \"#utility.yul\":5834:5839   */\n      dup3\n        /* \"#utility.yul\":5816:5840   */\n      tag_151\n      jump\t// in\n    tag_150:\n        /* \"#utility.yul\":5805:5840   */\n      swap1\n      pop\n        /* \"#utility.yul\":5750:5846   */\n      swap2\n      swap1\n      pop\n      jump\t// out\n        /* \"#utility.yul\":5852:5956   */\n    tag_152:\n        /* \"#utility.yul\":5897:5904   */\n      0x00\n        /* \"#utility.yul\":5926:5950   */\n      tag_154\n        /* \"#utility.yul\":5944:5949   */\n      dup3\n        /* \"#utility.yul\":5926:5950   */\n      tag_151\n      jump\t// in\n    tag_154:\n        /* \"#utility.yul\":5915:5950   */\n      swap1\n      pop\n        /* \"#utility.yul\":5852:5956   */\n      swap2\n      swap1\n      pop\n      jump\t// out\n        /* \"#utility.yul\":5962:6088   */\n    tag_151:\n        /* \"#utility.yul\":5999:6006   */\n      0x00\n        /* \"#utility.yul\":6039:6081   */\n      0xffffffffffffffffffffffffffffffffffffffff\n        /* \"#utility.yul\":6032:6037   */\n      dup3\n        /* \"#utility.yul\":6028:6082   */\n      and\n        /* \"#utility.yul\":6017:6082   */\n      swap1\n      pop\n        /* \"#utility.yul\":5962:6088   */\n      swap2\n      swap1\n      pop\n      jump\t// out\n        /* \"#utility.yul\":6094:6171   */\n    tag_156:\n        /* \"#utility.yul\":6131:6138   */\n      0x00\n        /* \"#utility.yul\":6160:6165   */\n      dup2\n        /* \"#utility.yul\":6149:6165   */\n      swap1\n      pop\n        /* \"#utility.yul\":6094:6171   */\n      swap2\n      swap1\n      pop\n      jump\t// out\n        /* \"#utility.yul\":6177:6337   */\n    tag_123:\n        /* \"#utility.yul\":6253:6262   */\n      0x00\n        /* \"#utility.yul\":6286:6331   */\n      tag_159\n        /* \"#utility.yul\":6325:6330   */\n      dup3\n        /* \"#utility.yul\":6286:6331   */\n      tag_160\n      jump\t// in\n    tag_159:\n        /* \"#utility.yul\":6273:6331   */\n      swap1\n      pop\n        /* \"#utility.yul\":6177:6337   */\n      swap2\n      swap1\n      pop\n      jump\t// out\n        /* \"#utility.yul\":6343:6477   */\n    tag_160:\n        /* \"#utility.yul\":6401:6410   */\n      0x00\n        /* \"#utility.yul\":6434:6471   */\n      tag_162\n        /* \"#utility.yul\":6465:6470   */\n      dup3\n        /* \"#utility.yul\":6434:6471   */\n      tag_163\n      jump\t// in\n    tag_162:\n        /* \"#utility.yul\":6421:6471   */\n      swap1\n      pop\n        /* \"#utility.yul\":6343:6477   */\n      swap2\n      swap1\n      pop\n      jump\t// out\n        /* \"#utility.yul\":6483:6596   */\n    tag_163:\n        /* \"#utility.yul\":6533:6542   */\n      0x00\n        /* \"#utility.yul\":6566:6590   */\n      tag_165\n        /* \"#utility.yul\":6584:6589   */\n      dup3\n        /* \"#utility.yul\":6566:6590   */\n      tag_151\n      jump\t// in\n    tag_165:\n        /* \"#utility.yul\":6553:6590   */\n      swap1\n      pop\n        /* \"#utility.yul\":6483:6596   */\n      swap2\n      swap1\n      pop\n      jump\t// out\n        /* \"#utility.yul\":6602:6756   */\n    tag_71:\n        /* \"#utility.yul\":6686:6692   */\n      dup3\n        /* \"#utility.yul\":6681:6684   */\n      dup2\n        /* \"#utility.yul\":6676:6679   */\n      dup4\n        /* \"#utility.yul\":6663:6693   */\n      calldatacopy\n        /* \"#utility.yul\":6748:6749   */\n      0x00\n        /* \"#utility.yul\":6739:6745   */\n      dup4\n        /* \"#utility.yul\":6734:6737   */\n      dup4\n        /* \"#utility.yul\":6730:6746   */\n      add\n        /* \"#utility.yul\":6723:6750   */\n      mstore\n        /* \"#utility.yul\":6602:6756   */\n      pop\n      pop\n      pop\n      jump\t// out\n        /* \"#utility.yul\":6762:7043   */\n    tag_140:\n        /* \"#utility.yul\":6845:6872   */\n      tag_168\n        /* \"#utility.yul\":6867:6871   */\n      dup3\n        /* \"#utility.yul\":6845:6872   */\n      tag_147\n      jump\t// in\n    tag_168:\n        /* \"#utility.yul\":6837:6843   */\n      dup2\n        /* \"#utility.yul\":6833:6873   */\n      add\n        /* \"#utility.yul\":6975:6981   */\n      dup2\n        /* \"#utility.yul\":6963:6973   */\n      dup2\n        /* \"#utility.yul\":6960:6982   */\n      lt\n        /* \"#utility.yul\":6939:6957   */\n      0xffffffffffffffff\n        /* \"#utility.yul\":6927:6937   */\n      dup3\n        /* \"#utility.yul\":6924:6958   */\n      gt\n        /* \"#utility.yul\":6921:6983   */\n      or\n        /* \"#utility.yul\":6918:7006   */\n      iszero\n      tag_169\n      jumpi\n        /* \"#utility.yul\":6986:7004   */\n      tag_170\n      tag_145\n      jump\t// in\n    tag_170:\n        /* \"#utility.yul\":6918:7006   */\n    tag_169:\n        /* \"#utility.yul\":7026:7036   */\n      dup1\n        /* \"#utility.yul\":7022:7024   */\n      0x40\n        /* \"#utility.yul\":7015:7037   */\n      mstore\n        /* \"#utility.yul\":6805:7043   */\n      pop\n        /* \"#utility.yul\":6762:7043   */\n      pop\n      pop\n      jump\t// out\n        /* \"#utility.yul\":7049:7229   */\n    tag_31:\n        /* \"#utility.yul\":7097:7174   */\n      0x4e487b7100000000000000000000000000000000000000000000000000000000\n        /* \"#utility.yul\":7094:7095   */\n      0x00\n        /* \"#utility.yul\":7087:7175   */\n      mstore\n        /* \"#utility.yul\":7194:7198   */\n      0x01\n        /* \"#utility.yul\":7191:7192   */\n      0x04\n        /* \"#utility.yul\":7184:7199   */\n      mstore\n        /* \"#utility.yul\":7218:7222   */\n      0x24\n        /* \"#utility.yul\":7215:7216   */\n      0x00\n        /* \"#utility.yul\":7208:7223   */\n      revert\n        /* \"#utility.yul\":7235:7415   */\n    tag_145:\n        /* \"#utility.yul\":7283:7360   */\n      0x4e487b7100000000000000000000000000000000000000000000000000000000\n        /* \"#utility.yul\":7280:7281   */\n      0x00\n        /* \"#utility.yul\":7273:7361   */\n      mstore\n        /* \"#utility.yul\":7380:7384   */\n      0x41\n        /* \"#utility.yul\":7377:7378   */\n      0x04\n        /* \"#utility.yul\":7370:7385   */\n      mstore\n        /* \"#utility.yul\":7404:7408   */\n      0x24\n        /* \"#utility.yul\":7401:7402   */\n      0x00\n        /* \"#utility.yul\":7394:7409   */\n      revert\n        /* \"#utility.yul\":7421:7538   */\n    tag_87:\n        /* \"#utility.yul\":7530:7531   */\n      0x00\n        /* \"#utility.yul\":7527:7528   */\n      dup1\n        /* \"#utility.yul\":7520:7532   */\n      revert\n        /* \"#utility.yul\":7544:7661   */\n    tag_69:\n        /* \"#utility.yul\":7653:7654   */\n      0x00\n        /* \"#utility.yul\":7650:7651   */\n      dup1\n        /* \"#utility.yul\":7643:7655   */\n      revert\n        /* \"#utility.yul\":7667:7784   */\n    tag_111:\n        /* \"#utility.yul\":7776:7777   */\n      0x00\n        /* \"#utility.yul\":7773:7774   */\n      dup1\n        /* \"#utility.yul\":7766:7778   */\n      revert\n        /* \"#utility.yul\":7790:7907   */\n    tag_96:\n        /* \"#utility.yul\":7899:7900   */\n      0x00\n        /* \"#utility.yul\":7896:7897   */\n      dup1\n        /* \"#utility.yul\":7889:7901   */\n      revert\n        /* \"#utility.yul\":7913:8015   */\n    tag_147:\n        /* \"#utility.yul\":7954:7960   */\n      0x00\n        /* \"#utility.yul\":8005:8007   */\n      0x1f\n        /* \"#utility.yul\":8001:8008   */\n      not\n        /* \"#utility.yul\":7996:7998   */\n      0x1f\n        /* \"#utility.yul\":7989:7994   */\n      dup4\n        /* \"#utility.yul\":7985:7999   */\n      add\n        /* \"#utility.yul\":7981:8009   */\n      and\n        /* \"#utility.yul\":7971:8009   */\n      swap1\n      pop\n        /* \"#utility.yul\":7913:8015   */\n      swap2\n      swap1\n      pop\n      jump\t// out\n        /* \"#utility.yul\":8021:8246   */\n    tag_129:\n        /* \"#utility.yul\":8161:8195   */\n      0x4f776e61626c653a206e6577206f776e657220697320746865207a65726f2061\n        /* \"#utility.yul\":8157:8158   */\n      0x00\n        /* \"#utility.yul\":8149:8155   */\n      dup3\n        /* \"#utility.yul\":8145:8159   */\n      add\n        /* \"#utility.yul\":8138:8196   */\n      mstore\n        /* \"#utility.yul\":8230:8238   */\n      0x6464726573730000000000000000000000000000000000000000000000000000\n        /* \"#utility.yul\":8225:8227   */\n      0x20\n        /* \"#utility.yul\":8217:8223   */\n      dup3\n        /* \"#utility.yul\":8213:8228   */\n      add\n        /* \"#utility.yul\":8206:8239   */\n      mstore\n        /* \"#utility.yul\":8021:8246   */\n      pop\n      jump\t// out\n        /* \"#utility.yul\":8252:8374   */\n    tag_75:\n        /* \"#utility.yul\":8325:8349   */\n      tag_180\n        /* \"#utility.yul\":8343:8348   */\n      dup2\n        /* \"#utility.yul\":8325:8349   */\n      tag_119\n      jump\t// in\n    tag_180:\n        /* \"#utility.yul\":8318:8323   */\n      dup2\n        /* \"#utility.yul\":8315:8350   */\n      eq\n        /* \"#utility.yul\":8305:8368   */\n      tag_181\n      jumpi\n        /* \"#utility.yul\":8364:8365   */\n      0x00\n        /* \"#utility.yul\":8361:8362   */\n      dup1\n        /* \"#utility.yul\":8354:8366   */\n      revert\n        /* \"#utility.yul\":8305:8368   */\n    tag_181:\n        /* \"#utility.yul\":8252:8374   */\n      pop\n      jump\t// out\n        /* \"#utility.yul\":8380:8518   */\n    tag_79:\n        /* \"#utility.yul\":8461:8493   */\n      tag_183\n        /* \"#utility.yul\":8487:8492   */\n      dup2\n        /* \"#utility.yul\":8461:8493   */\n      tag_152\n      jump\t// in\n    tag_183:\n        /* \"#utility.yul\":8454:8459   */\n      dup2\n        /* \"#utility.yul\":8451:8494   */\n      eq\n        /* \"#utility.yul\":8441:8512   */\n      tag_184\n      jumpi\n        /* \"#utility.yul\":8508:8509   */\n      0x00\n        /* \"#utility.yul\":8505:8506   */\n      dup1\n        /* \"#utility.yul\":8498:8510   */\n      revert\n        /* \"#utility.yul\":8441:8512   */\n    tag_184:\n        /* \"#utility.yul\":8380:8518   */\n      pop\n      jump\t// out\n        /* \"#utility.yul\":8524:8646   */\n    tag_92:\n        /* \"#utility.yul\":8597:8621   */\n      tag_186\n        /* \"#utility.yul\":8615:8620   */\n      dup2\n        /* \"#utility.yul\":8597:8621   */\n      tag_156\n      jump\t// in\n    tag_186:\n        /* \"#utility.yul\":8590:8595   */\n      dup2\n        /* \"#utility.yul\":8587:8622   */\n      eq\n        /* \"#utility.yul\":8577:8640   */\n      tag_187\n      jumpi\n        /* \"#utility.yul\":8636:8637   */\n      0x00\n        /* \"#utility.yul\":8633:8634   */\n      dup1\n        /* \"#utility.yul\":8626:8638   */\n      revert\n        /* \"#utility.yul\":8577:8640   */\n    tag_187:\n        /* \"#utility.yul\":8524:8646   */\n      pop\n      jump\t// out\n    stop\n\n    sub_0: assembly {\n            /* \"contracts/Bounty.sol\":827:1952  contract BountyAddr {... */\n          mstore(0x40, 0x80)\n            /* \"contracts/Bounty.sol\":1156:1229  constructor(address bountyBase) {... */\n          callvalue\n          dup1\n          iszero\n          tag_1\n          jumpi\n          0x00\n          dup1\n          revert\n        tag_1:\n          pop\n          mload(0x40)\n          sub(codesize, bytecodeSize)\n          dup1\n          bytecodeSize\n          dup4\n          codecopy\n          dup2\n          dup2\n          add\n          0x40\n          mstore\n          dup2\n          add\n          swap1\n          tag_2\n          swap2\n          swap1\n          tag_3\n          jump\t// in\n        tag_2:\n            /* \"contracts/Bounty.sol\":1212:1222  bountyBase */\n          dup1\n            /* \"contracts/Bounty.sol\":1198:1209  _bountyBase */\n          0x00\n          dup1\n            /* \"contracts/Bounty.sol\":1198:1222  _bountyBase = bountyBase */\n          0x0100\n          exp\n          dup2\n          sload\n          dup2\n          0xffffffffffffffffffffffffffffffffffffffff\n          mul\n          not\n          and\n          swap1\n          dup4\n          0xffffffffffffffffffffffffffffffffffffffff\n          and\n          mul\n          or\n          swap1\n          sstore\n          pop\n            /* \"contracts/Bounty.sol\":1156:1229  constructor(address bountyBase) {... */\n          pop\n            /* \"contracts/Bounty.sol\":827:1952  contract BountyAddr {... */\n          jump(tag_6)\n            /* \"#utility.yul\":7:150   */\n        tag_8:\n            /* \"#utility.yul\":64:69   */\n          0x00\n            /* \"#utility.yul\":95:101   */\n          dup2\n            /* \"#utility.yul\":89:102   */\n          mload\n            /* \"#utility.yul\":80:102   */\n          swap1\n          pop\n            /* \"#utility.yul\":111:144   */\n          tag_10\n            /* \"#utility.yul\":138:143   */\n          dup2\n            /* \"#utility.yul\":111:144   */\n          tag_11\n          jump\t// in\n        tag_10:\n            /* \"#utility.yul\":7:150   */\n          swap3\n          swap2\n          pop\n          pop\n          jump\t// out\n            /* \"#utility.yul\":156:507   */\n        tag_3:\n            /* \"#utility.yul\":226:232   */\n          0x00\n            /* \"#utility.yul\":275:277   */\n          0x20\n            /* \"#utility.yul\":263:272   */\n          dup3\n            /* \"#utility.yul\":254:261   */\n          dup5\n            /* \"#utility.yul\":250:273   */\n          sub\n            /* \"#utility.yul\":246:278   */\n          slt\n            /* \"#utility.yul\":243:362   */\n          iszero\n          tag_13\n          jumpi\n            /* \"#utility.yul\":281:360   */\n          tag_14\n          tag_15\n          jump\t// in\n        tag_14:\n            /* \"#utility.yul\":243:362   */\n        tag_13:\n            /* \"#utility.yul\":401:402   */\n          0x00\n            /* \"#utility.yul\":426:490   */\n          tag_16\n            /* \"#utility.yul\":482:489   */\n          dup5\n            /* \"#utility.yul\":473:479   */\n          dup3\n            /* \"#utility.yul\":462:471   */\n          dup6\n            /* \"#utility.yul\":458:480   */\n          add\n            /* \"#utility.yul\":426:490   */\n          tag_8\n          jump\t// in\n        tag_16:\n            /* \"#utility.yul\":416:490   */\n          swap2\n          pop\n            /* \"#utility.yul\":372:500   */\n          pop\n            /* \"#utility.yul\":156:507   */\n          swap3\n          swap2\n          pop\n          pop\n          jump\t// out\n            /* \"#utility.yul\":594:690   */\n        tag_19:\n            /* \"#utility.yul\":631:638   */\n          0x00\n            /* \"#utility.yul\":660:684   */\n          tag_21\n            /* \"#utility.yul\":678:683   */\n          dup3\n            /* \"#utility.yul\":660:684   */\n          tag_22\n          jump\t// in\n        tag_21:\n            /* \"#utility.yul\":649:684   */\n          swap1\n          pop\n            /* \"#utility.yul\":594:690   */\n          swap2\n          swap1\n          pop\n          jump\t// out\n            /* \"#utility.yul\":696:822   */\n        tag_22:\n            /* \"#utility.yul\":733:740   */\n          0x00\n            /* \"#utility.yul\":773:815   */\n          0xffffffffffffffffffffffffffffffffffffffff\n            /* \"#utility.yul\":766:771   */\n          dup3\n            /* \"#utility.yul\":762:816   */\n          and\n            /* \"#utility.yul\":751:816   */\n          swap1\n          pop\n            /* \"#utility.yul\":696:822   */\n          swap2\n          swap1\n          pop\n          jump\t// out\n            /* \"#utility.yul\":951:1068   */\n        tag_15:\n            /* \"#utility.yul\":1060:1061   */\n          0x00\n            /* \"#utility.yul\":1057:1058   */\n          dup1\n            /* \"#utility.yul\":1050:1062   */\n          revert\n            /* \"#utility.yul\":1074:1196   */\n        tag_11:\n            /* \"#utility.yul\":1147:1171   */\n          tag_28\n            /* \"#utility.yul\":1165:1170   */\n          dup2\n            /* \"#utility.yul\":1147:1171   */\n          tag_19\n          jump\t// in\n        tag_28:\n            /* \"#utility.yul\":1140:1145   */\n          dup2\n            /* \"#utility.yul\":1137:1172   */\n          eq\n            /* \"#utility.yul\":1127:1190   */\n          tag_29\n          jumpi\n            /* \"#utility.yul\":1186:1187   */\n          0x00\n            /* \"#utility.yul\":1183:1184   */\n          dup1\n            /* \"#utility.yul\":1176:1188   */\n          revert\n            /* \"#utility.yul\":1127:1190   */\n        tag_29:\n            /* \"#utility.yul\":1074:1196   */\n          pop\n          jump\t// out\n            /* \"contracts/Bounty.sol\":827:1952  contract BountyAddr {... */\n        tag_6:\n          dataSize(sub_0)\n          dup1\n          dataOffset(sub_0)\n          0x00\n          codecopy\n          0x00\n          return\n        stop\n\n        sub_0: assembly {\n                /* \"contracts/Bounty.sol\":827:1952  contract BountyAddr {... */\n              mstore(0x40, 0x80)\n              jumpi(tag_1, lt(calldatasize, 0x04))\n              shr(0xe0, calldataload(0x00))\n              dup1\n              0x026b1d5f\n              eq\n              tag_3\n              jumpi\n              dup1\n              0x13658f8a\n              eq\n              tag_4\n              jumpi\n              dup1\n              0x23b872dd\n              eq\n              tag_5\n              jumpi\n              dup1\n              0xbeabacc8\n              eq\n              tag_6\n              jumpi\n              dup1\n              0xd0e30db0\n              eq\n              tag_7\n              jumpi\n              dup1\n              0xe1f21c67\n              eq\n              tag_8\n              jumpi\n              jump(tag_2)\n            tag_1:\n              jumpi(tag_2, calldatasize)\n                /* \"contracts/Bounty.sol\":955:956  0 */\n              0x00\n                /* \"contracts/Bounty.sol\":923:957  address(_bountyBase) != address(0) */\n              0xffffffffffffffffffffffffffffffffffffffff\n              and\n                /* \"contracts/Bounty.sol\":931:942  _bountyBase */\n              0x00\n              dup1\n              sload\n              swap1\n              0x0100\n              exp\n              swap1\n              div\n              0xffffffffffffffffffffffffffffffffffffffff\n              and\n                /* \"contracts/Bounty.sol\":923:957  address(_bountyBase) != address(0) */\n              0xffffffffffffffffffffffffffffffffffffffff\n              and\n              eq\n              iszero\n                /* \"contracts/Bounty.sol\":915:978  require(address(_bountyBase) != address(0), 'need init bounty') */\n              tag_11\n              jumpi\n              mload(0x40)\n              0x08c379a000000000000000000000000000000000000000000000000000000000\n              dup2\n              mstore\n              0x04\n              add\n              tag_12\n              swap1\n              tag_13\n              jump\t// in\n            tag_12:\n              mload(0x40)\n              dup1\n              swap2\n              sub\n              swap1\n              revert\n            tag_11:\n                /* \"contracts/Bounty.sol\":827:1952  contract BountyAddr {... */\n              stop\n            tag_2:\n              0x00\n              dup1\n              revert\n                /* \"contracts/Bounty.sol\":1838:1950  function getPool() public view virtual returns (address payable) {... */\n            tag_3:\n              callvalue\n              dup1\n              iszero\n              tag_15\n              jumpi\n              0x00\n              dup1\n              revert\n            tag_15:\n              pop\n              tag_16\n              tag_17\n              jump\t// in\n            tag_16:\n              mload(0x40)\n              tag_18\n              swap2\n              swap1\n              tag_19\n              jump\t// in\n            tag_18:\n              mload(0x40)\n              dup1\n              swap2\n              sub\n              swap1\n              return\n                /* \"contracts/Bounty.sol\":1235:1348  function stableTransfer(address payable to, uint256 amount) external payable {... */\n            tag_4:\n              tag_20\n              0x04\n              dup1\n              calldatasize\n              sub\n              dup2\n              add\n              swap1\n              tag_21\n              swap2\n              swap1\n              tag_22\n              jump\t// in\n            tag_21:\n              tag_23\n              jump\t// in\n            tag_20:\n              stop\n                /* \"contracts/Bounty.sol\":1479:1623  function transferFrom(IERC20 token, address to, uint256 amount) external {... */\n            tag_5:\n              callvalue\n              dup1\n              iszero\n              tag_24\n              jumpi\n              0x00\n              dup1\n              revert\n            tag_24:\n              pop\n              tag_25\n              0x04\n              dup1\n              calldatasize\n              sub\n              dup2\n              add\n              swap1\n              tag_26\n              swap2\n              swap1\n              tag_27\n              jump\t// in\n            tag_26:\n              tag_28\n              jump\t// in\n            tag_25:\n              stop\n                /* \"contracts/Bounty.sol\":1629:1750  function transfer(IERC20 token, address to, uint256 amount) external {... */\n            tag_6:\n              callvalue\n              dup1\n              iszero\n              tag_29\n              jumpi\n              0x00\n              dup1\n              revert\n            tag_29:\n              pop\n              tag_30\n              0x04\n              dup1\n              calldatasize\n              sub\n              dup2\n              add\n              swap1\n              tag_31\n              swap2\n              swap1\n              tag_27\n              jump\t// in\n            tag_31:\n              tag_32\n              jump\t// in\n            tag_30:\n              stop\n                /* \"contracts/Bounty.sol\":1756:1831  function deposit() external payable {... */\n            tag_7:\n              tag_33\n              tag_34\n              jump\t// in\n            tag_33:\n              stop\n                /* \"contracts/Bounty.sol\":1354:1473  function approve(IERC20 token, address to, uint256 amount) external {... */\n            tag_8:\n              callvalue\n              dup1\n              iszero\n              tag_35\n              jumpi\n              0x00\n              dup1\n              revert\n            tag_35:\n              pop\n              tag_36\n              0x04\n              dup1\n              calldatasize\n              sub\n              dup2\n              add\n              swap1\n              tag_37\n              swap2\n              swap1\n              tag_27\n              jump\t// in\n            tag_37:\n              tag_38\n              jump\t// in\n            tag_36:\n              stop\n                /* \"contracts/Bounty.sol\":1838:1950  function getPool() public view virtual returns (address payable) {... */\n            tag_17:\n                /* \"contracts/Bounty.sol\":1886:1901  address payable */\n              0x00\n                /* \"contracts/Bounty.sol\":1937:1941  this */\n              address\n                /* \"contracts/Bounty.sol\":1914:1943  return payable(address(this)) */\n              swap1\n              pop\n                /* \"contracts/Bounty.sol\":1838:1950  function getPool() public view virtual returns (address payable) {... */\n              swap1\n              jump\t// out\n                /* \"contracts/Bounty.sol\":1235:1348  function stableTransfer(address payable to, uint256 amount) external payable {... */\n            tag_23:\n                /* \"contracts/Bounty.sol\":1322:1324  to */\n              dup2\n                /* \"contracts/Bounty.sol\":1322:1333  to.transfer */\n              0xffffffffffffffffffffffffffffffffffffffff\n              and\n                /* \"contracts/Bounty.sol\":1322:1341  to.transfer(amount) */\n              0x08fc\n                /* \"contracts/Bounty.sol\":1334:1340  amount */\n              dup3\n                /* \"contracts/Bounty.sol\":1322:1341  to.transfer(amount) */\n              swap1\n              dup2\n              iszero\n              mul\n              swap1\n              mload(0x40)\n              0x00\n              mload(0x40)\n              dup1\n              dup4\n              sub\n              dup2\n              dup6\n              dup9\n              dup9\n              call\n              swap4\n              pop\n              pop\n              pop\n              pop\n              iszero\n              dup1\n              iszero\n              tag_42\n              jumpi\n              returndatasize\n              0x00\n              dup1\n              returndatacopy\n              revert(0x00, returndatasize)\n            tag_42:\n              pop\n                /* \"contracts/Bounty.sol\":1235:1348  function stableTransfer(address payable to, uint256 amount) external payable {... */\n              pop\n              pop\n              jump\t// out\n                /* \"contracts/Bounty.sol\":1479:1623  function transferFrom(IERC20 token, address to, uint256 amount) external {... */\n            tag_28:\n                /* \"contracts/Bounty.sol\":1570:1575  token */\n              dup3\n                /* \"contracts/Bounty.sol\":1570:1588  token.transferFrom */\n              0xffffffffffffffffffffffffffffffffffffffff\n              and\n              0x23b872dd\n                /* \"contracts/Bounty.sol\":1597:1601  this */\n              address\n                /* \"contracts/Bounty.sol\":1604:1606  to */\n              dup5\n                /* \"contracts/Bounty.sol\":1608:1614  amount */\n              dup5\n                /* \"contracts/Bounty.sol\":1570:1615  token.transferFrom(address(this), to, amount) */\n              mload(0x40)\n              dup5\n              0xffffffff\n              and\n              0xe0\n              shl\n              dup2\n              mstore\n              0x04\n              add\n              tag_44\n              swap4\n              swap3\n              swap2\n              swap1\n              tag_45\n              jump\t// in\n            tag_44:\n              0x20\n              mload(0x40)\n              dup1\n              dup4\n              sub\n              dup2\n              0x00\n              dup8\n              dup1\n              extcodesize\n              iszero\n              dup1\n              iszero\n              tag_46\n              jumpi\n              0x00\n              dup1\n              revert\n            tag_46:\n              pop\n              gas\n              call\n              iszero\n              dup1\n              iszero\n              tag_48\n              jumpi\n              returndatasize\n              0x00\n              dup1\n              returndatacopy\n              revert(0x00, returndatasize)\n            tag_48:\n              pop\n              pop\n              pop\n              pop\n              mload(0x40)\n              returndatasize\n              not(0x1f)\n              0x1f\n              dup3\n              add\n              and\n              dup3\n              add\n              dup1\n              0x40\n              mstore\n              pop\n              dup2\n              add\n              swap1\n              tag_49\n              swap2\n              swap1\n              tag_50\n              jump\t// in\n            tag_49:\n                /* \"contracts/Bounty.sol\":1562:1616  require(token.transferFrom(address(this), to, amount)) */\n              tag_51\n              jumpi\n              0x00\n              dup1\n              revert\n            tag_51:\n                /* \"contracts/Bounty.sol\":1479:1623  function transferFrom(IERC20 token, address to, uint256 amount) external {... */\n              pop\n              pop\n              pop\n              jump\t// out\n                /* \"contracts/Bounty.sol\":1629:1750  function transfer(IERC20 token, address to, uint256 amount) external {... */\n            tag_32:\n                /* \"contracts/Bounty.sol\":1716:1721  token */\n              dup3\n                /* \"contracts/Bounty.sol\":1716:1730  token.transfer */\n              0xffffffffffffffffffffffffffffffffffffffff\n              and\n              0xa9059cbb\n                /* \"contracts/Bounty.sol\":1731:1733  to */\n              dup4\n                /* \"contracts/Bounty.sol\":1735:1741  amount */\n              dup4\n                /* \"contracts/Bounty.sol\":1716:1742  token.transfer(to, amount) */\n              mload(0x40)\n              dup4\n              0xffffffff\n              and\n              0xe0\n              shl\n              dup2\n              mstore\n              0x04\n              add\n              tag_53\n              swap3\n              swap2\n              swap1\n              tag_54\n              jump\t// in\n            tag_53:\n              0x20\n              mload(0x40)\n              dup1\n              dup4\n              sub\n              dup2\n              0x00\n              dup8\n              dup1\n              extcodesize\n              iszero\n              dup1\n              iszero\n              tag_55\n              jumpi\n              0x00\n              dup1\n              revert\n            tag_55:\n              pop\n              gas\n              call\n              iszero\n              dup1\n              iszero\n              tag_57\n              jumpi\n              returndatasize\n              0x00\n              dup1\n              returndatacopy\n              revert(0x00, returndatasize)\n            tag_57:\n              pop\n              pop\n              pop\n              pop\n              mload(0x40)\n              returndatasize\n              not(0x1f)\n              0x1f\n              dup3\n              add\n              and\n              dup3\n              add\n              dup1\n              0x40\n              mstore\n              pop\n              dup2\n              add\n              swap1\n              tag_58\n              swap2\n              swap1\n              tag_50\n              jump\t// in\n            tag_58:\n                /* \"contracts/Bounty.sol\":1708:1743  require(token.transfer(to, amount)) */\n              tag_59\n              jumpi\n              0x00\n              dup1\n              revert\n            tag_59:\n                /* \"contracts/Bounty.sol\":1629:1750  function transfer(IERC20 token, address to, uint256 amount) external {... */\n              pop\n              pop\n              pop\n              jump\t// out\n                /* \"contracts/Bounty.sol\":1756:1831  function deposit() external payable {... */\n            tag_34:\n              jump\t// out\n                /* \"contracts/Bounty.sol\":1354:1473  function approve(IERC20 token, address to, uint256 amount) external {... */\n            tag_38:\n                /* \"contracts/Bounty.sol\":1440:1445  token */\n              dup3\n                /* \"contracts/Bounty.sol\":1440:1453  token.approve */\n              0xffffffffffffffffffffffffffffffffffffffff\n              and\n              0x095ea7b3\n                /* \"contracts/Bounty.sol\":1454:1456  to */\n              dup4\n                /* \"contracts/Bounty.sol\":1458:1464  amount */\n              dup4\n                /* \"contracts/Bounty.sol\":1440:1465  token.approve(to, amount) */\n              mload(0x40)\n              dup4\n              0xffffffff\n              and\n              0xe0\n              shl\n              dup2\n              mstore\n              0x04\n              add\n              tag_62\n              swap3\n              swap2\n              swap1\n              tag_54\n              jump\t// in\n            tag_62:\n              0x20\n              mload(0x40)\n              dup1\n              dup4\n              sub\n              dup2\n              0x00\n              dup8\n              dup1\n              extcodesize\n              iszero\n              dup1\n              iszero\n              tag_63\n              jumpi\n              0x00\n              dup1\n              revert\n            tag_63:\n              pop\n              gas\n              call\n              iszero\n              dup1\n              iszero\n              tag_65\n              jumpi\n              returndatasize\n              0x00\n              dup1\n              returndatacopy\n              revert(0x00, returndatasize)\n            tag_65:\n              pop\n              pop\n              pop\n              pop\n              mload(0x40)\n              returndatasize\n              not(0x1f)\n              0x1f\n              dup3\n              add\n              and\n              dup3\n              add\n              dup1\n              0x40\n              mstore\n              pop\n              dup2\n              add\n              swap1\n              tag_66\n              swap2\n              swap1\n              tag_50\n              jump\t// in\n            tag_66:\n                /* \"contracts/Bounty.sol\":1432:1466  require(token.approve(to, amount)) */\n              tag_67\n              jumpi\n              0x00\n              dup1\n              revert\n            tag_67:\n                /* \"contracts/Bounty.sol\":1354:1473  function approve(IERC20 token, address to, uint256 amount) external {... */\n              pop\n              pop\n              pop\n              jump\t// out\n                /* \"#utility.yul\":7:146   */\n            tag_69:\n                /* \"#utility.yul\":53:58   */\n              0x00\n                /* \"#utility.yul\":91:97   */\n              dup2\n                /* \"#utility.yul\":78:98   */\n              calldataload\n                /* \"#utility.yul\":69:98   */\n              swap1\n              pop\n                /* \"#utility.yul\":107:140   */\n              tag_71\n                /* \"#utility.yul\":134:139   */\n              dup2\n                /* \"#utility.yul\":107:140   */\n              tag_72\n              jump\t// in\n            tag_71:\n                /* \"#utility.yul\":7:146   */\n              swap3\n              swap2\n              pop\n              pop\n              jump\t// out\n                /* \"#utility.yul\":152:307   */\n            tag_73:\n                /* \"#utility.yul\":206:211   */\n              0x00\n                /* \"#utility.yul\":244:250   */\n              dup2\n                /* \"#utility.yul\":231:251   */\n              calldataload\n                /* \"#utility.yul\":222:251   */\n              swap1\n              pop\n                /* \"#utility.yul\":260:301   */\n              tag_75\n                /* \"#utility.yul\":295:300   */\n              dup2\n                /* \"#utility.yul\":260:301   */\n              tag_76\n              jump\t// in\n            tag_75:\n                /* \"#utility.yul\":152:307   */\n              swap3\n              swap2\n              pop\n              pop\n              jump\t// out\n                /* \"#utility.yul\":313:450   */\n            tag_77:\n                /* \"#utility.yul\":367:372   */\n              0x00\n                /* \"#utility.yul\":398:404   */\n              dup2\n                /* \"#utility.yul\":392:405   */\n              mload\n                /* \"#utility.yul\":383:405   */\n              swap1\n              pop\n                /* \"#utility.yul\":414:444   */\n              tag_79\n                /* \"#utility.yul\":438:443   */\n              dup2\n                /* \"#utility.yul\":414:444   */\n              tag_80\n              jump\t// in\n            tag_79:\n                /* \"#utility.yul\":313:450   */\n              swap3\n              swap2\n              pop\n              pop\n              jump\t// out\n                /* \"#utility.yul\":456:623   */\n            tag_81:\n                /* \"#utility.yul\":516:521   */\n              0x00\n                /* \"#utility.yul\":554:560   */\n              dup2\n                /* \"#utility.yul\":541:561   */\n              calldataload\n                /* \"#utility.yul\":532:561   */\n              swap1\n              pop\n                /* \"#utility.yul\":570:617   */\n              tag_83\n                /* \"#utility.yul\":611:616   */\n              dup2\n                /* \"#utility.yul\":570:617   */\n              tag_84\n              jump\t// in\n            tag_83:\n                /* \"#utility.yul\":456:623   */\n              swap3\n              swap2\n              pop\n              pop\n              jump\t// out\n                /* \"#utility.yul\":629:768   */\n            tag_85:\n                /* \"#utility.yul\":675:680   */\n              0x00\n                /* \"#utility.yul\":713:719   */\n              dup2\n                /* \"#utility.yul\":700:720   */\n              calldataload\n                /* \"#utility.yul\":691:720   */\n              swap1\n              pop\n                /* \"#utility.yul\":729:762   */\n              tag_87\n                /* \"#utility.yul\":756:761   */\n              dup2\n                /* \"#utility.yul\":729:762   */\n              tag_88\n              jump\t// in\n            tag_87:\n                /* \"#utility.yul\":629:768   */\n              swap3\n              swap2\n              pop\n              pop\n              jump\t// out\n                /* \"#utility.yul\":774:1264   */\n            tag_22:\n                /* \"#utility.yul\":850:856   */\n              0x00\n                /* \"#utility.yul\":858:864   */\n              dup1\n                /* \"#utility.yul\":907:909   */\n              0x40\n                /* \"#utility.yul\":895:904   */\n              dup4\n                /* \"#utility.yul\":886:893   */\n              dup6\n                /* \"#utility.yul\":882:905   */\n              sub\n                /* \"#utility.yul\":878:910   */\n              slt\n                /* \"#utility.yul\":875:994   */\n              iszero\n              tag_90\n              jumpi\n                /* \"#utility.yul\":913:992   */\n              tag_91\n              tag_92\n              jump\t// in\n            tag_91:\n                /* \"#utility.yul\":875:994   */\n            tag_90:\n                /* \"#utility.yul\":1033:1034   */\n              0x00\n                /* \"#utility.yul\":1058:1119   */\n              tag_93\n                /* \"#utility.yul\":1111:1118   */\n              dup6\n                /* \"#utility.yul\":1102:1108   */\n              dup3\n                /* \"#utility.yul\":1091:1100   */\n              dup7\n                /* \"#utility.yul\":1087:1109   */\n              add\n                /* \"#utility.yul\":1058:1119   */\n              tag_73\n              jump\t// in\n            tag_93:\n                /* \"#utility.yul\":1048:1119   */\n              swap3\n              pop\n                /* \"#utility.yul\":1004:1129   */\n              pop\n                /* \"#utility.yul\":1168:1170   */\n              0x20\n                /* \"#utility.yul\":1194:1247   */\n              tag_94\n                /* \"#utility.yul\":1239:1246   */\n              dup6\n                /* \"#utility.yul\":1230:1236   */\n              dup3\n                /* \"#utility.yul\":1219:1228   */\n              dup7\n                /* \"#utility.yul\":1215:1237   */\n              add\n                /* \"#utility.yul\":1194:1247   */\n              tag_85\n              jump\t// in\n            tag_94:\n                /* \"#utility.yul\":1184:1247   */\n              swap2\n              pop\n                /* \"#utility.yul\":1139:1257   */\n              pop\n                /* \"#utility.yul\":774:1264   */\n              swap3\n              pop\n              swap3\n              swap1\n              pop\n              jump\t// out\n                /* \"#utility.yul\":1270:1615   */\n            tag_50:\n                /* \"#utility.yul\":1337:1343   */\n              0x00\n                /* \"#utility.yul\":1386:1388   */\n              0x20\n                /* \"#utility.yul\":1374:1383   */\n              dup3\n                /* \"#utility.yul\":1365:1372   */\n              dup5\n                /* \"#utility.yul\":1361:1384   */\n              sub\n                /* \"#utility.yul\":1357:1389   */\n              slt\n                /* \"#utility.yul\":1354:1473   */\n              iszero\n              tag_96\n              jumpi\n                /* \"#utility.yul\":1392:1471   */\n              tag_97\n              tag_92\n              jump\t// in\n            tag_97:\n                /* \"#utility.yul\":1354:1473   */\n            tag_96:\n                /* \"#utility.yul\":1512:1513   */\n              0x00\n                /* \"#utility.yul\":1537:1598   */\n              tag_98\n                /* \"#utility.yul\":1590:1597   */\n              dup5\n                /* \"#utility.yul\":1581:1587   */\n              dup3\n                /* \"#utility.yul\":1570:1579   */\n              dup6\n                /* \"#utility.yul\":1566:1588   */\n              add\n                /* \"#utility.yul\":1537:1598   */\n              tag_77\n              jump\t// in\n            tag_98:\n                /* \"#utility.yul\":1527:1598   */\n              swap2\n              pop\n                /* \"#utility.yul\":1483:1608   */\n              pop\n                /* \"#utility.yul\":1270:1615   */\n              swap3\n              swap2\n              pop\n              pop\n              jump\t// out\n                /* \"#utility.yul\":1621:2268   */\n            tag_27:\n                /* \"#utility.yul\":1712:1718   */\n              0x00\n                /* \"#utility.yul\":1720:1726   */\n              dup1\n                /* \"#utility.yul\":1728:1734   */\n              0x00\n                /* \"#utility.yul\":1777:1779   */\n              0x60\n                /* \"#utility.yul\":1765:1774   */\n              dup5\n                /* \"#utility.yul\":1756:1763   */\n              dup7\n                /* \"#utility.yul\":1752:1775   */\n              sub\n                /* \"#utility.yul\":1748:1780   */\n              slt\n                /* \"#utility.yul\":1745:1864   */\n              iszero\n              tag_100\n              jumpi\n                /* \"#utility.yul\":1783:1862   */\n              tag_101\n              tag_92\n              jump\t// in\n            tag_101:\n                /* \"#utility.yul\":1745:1864   */\n            tag_100:\n                /* \"#utility.yul\":1903:1904   */\n              0x00\n                /* \"#utility.yul\":1928:1995   */\n              tag_102\n                /* \"#utility.yul\":1987:1994   */\n              dup7\n                /* \"#utility.yul\":1978:1984   */\n              dup3\n                /* \"#utility.yul\":1967:1976   */\n              dup8\n                /* \"#utility.yul\":1963:1985   */\n              add\n                /* \"#utility.yul\":1928:1995   */\n              tag_81\n              jump\t// in\n            tag_102:\n                /* \"#utility.yul\":1918:1995   */\n              swap4\n              pop\n                /* \"#utility.yul\":1874:2005   */\n              pop\n                /* \"#utility.yul\":2044:2046   */\n              0x20\n                /* \"#utility.yul\":2070:2123   */\n              tag_103\n                /* \"#utility.yul\":2115:2122   */\n              dup7\n                /* \"#utility.yul\":2106:2112   */\n              dup3\n                /* \"#utility.yul\":2095:2104   */\n              dup8\n                /* \"#utility.yul\":2091:2113   */\n              add\n                /* \"#utility.yul\":2070:2123   */\n              tag_69\n              jump\t// in\n            tag_103:\n                /* \"#utility.yul\":2060:2123   */\n              swap3\n              pop\n                /* \"#utility.yul\":2015:2133   */\n              pop\n                /* \"#utility.yul\":2172:2174   */\n              0x40\n                /* \"#utility.yul\":2198:2251   */\n              tag_104\n                /* \"#utility.yul\":2243:2250   */\n              dup7\n                /* \"#utility.yul\":2234:2240   */\n              dup3\n                /* \"#utility.yul\":2223:2232   */\n              dup8\n                /* \"#utility.yul\":2219:2241   */\n              add\n                /* \"#utility.yul\":2198:2251   */\n              tag_85\n              jump\t// in\n            tag_104:\n                /* \"#utility.yul\":2188:2251   */\n              swap2\n              pop\n                /* \"#utility.yul\":2143:2261   */\n              pop\n                /* \"#utility.yul\":1621:2268   */\n              swap3\n              pop\n              swap3\n              pop\n              swap3\n              jump\t// out\n                /* \"#utility.yul\":2274:2416   */\n            tag_105:\n                /* \"#utility.yul\":2377:2409   */\n              tag_107\n                /* \"#utility.yul\":2403:2408   */\n              dup2\n                /* \"#utility.yul\":2377:2409   */\n              tag_108\n              jump\t// in\n            tag_107:\n                /* \"#utility.yul\":2372:2375   */\n              dup3\n                /* \"#utility.yul\":2365:2410   */\n              mstore\n                /* \"#utility.yul\":2274:2416   */\n              pop\n              pop\n              jump\t// out\n                /* \"#utility.yul\":2422:2540   */\n            tag_109:\n                /* \"#utility.yul\":2509:2533   */\n              tag_111\n                /* \"#utility.yul\":2527:2532   */\n              dup2\n                /* \"#utility.yul\":2509:2533   */\n              tag_112\n              jump\t// in\n            tag_111:\n                /* \"#utility.yul\":2504:2507   */\n              dup3\n                /* \"#utility.yul\":2497:2534   */\n              mstore\n                /* \"#utility.yul\":2422:2540   */\n              pop\n              pop\n              jump\t// out\n                /* \"#utility.yul\":2546:2912   */\n            tag_113:\n                /* \"#utility.yul\":2688:2691   */\n              0x00\n                /* \"#utility.yul\":2709:2776   */\n              tag_115\n                /* \"#utility.yul\":2773:2775   */\n              0x10\n                /* \"#utility.yul\":2768:2771   */\n              dup4\n                /* \"#utility.yul\":2709:2776   */\n              tag_116\n              jump\t// in\n            tag_115:\n                /* \"#utility.yul\":2702:2776   */\n              swap2\n              pop\n                /* \"#utility.yul\":2785:2878   */\n              tag_117\n                /* \"#utility.yul\":2874:2877   */\n              dup3\n                /* \"#utility.yul\":2785:2878   */\n              tag_118\n              jump\t// in\n            tag_117:\n                /* \"#utility.yul\":2903:2905   */\n              0x20\n                /* \"#utility.yul\":2898:2901   */\n              dup3\n                /* \"#utility.yul\":2894:2906   */\n              add\n                /* \"#utility.yul\":2887:2906   */\n              swap1\n              pop\n                /* \"#utility.yul\":2546:2912   */\n              swap2\n              swap1\n              pop\n              jump\t// out\n                /* \"#utility.yul\":2918:3036   */\n            tag_119:\n                /* \"#utility.yul\":3005:3029   */\n              tag_121\n                /* \"#utility.yul\":3023:3028   */\n              dup2\n                /* \"#utility.yul\":3005:3029   */\n              tag_122\n              jump\t// in\n            tag_121:\n                /* \"#utility.yul\":3000:3003   */\n              dup3\n                /* \"#utility.yul\":2993:3030   */\n              mstore\n                /* \"#utility.yul\":2918:3036   */\n              pop\n              pop\n              jump\t// out\n                /* \"#utility.yul\":3042:3296   */\n            tag_19:\n                /* \"#utility.yul\":3151:3155   */\n              0x00\n                /* \"#utility.yul\":3189:3191   */\n              0x20\n                /* \"#utility.yul\":3178:3187   */\n              dup3\n                /* \"#utility.yul\":3174:3192   */\n              add\n                /* \"#utility.yul\":3166:3192   */\n              swap1\n              pop\n                /* \"#utility.yul\":3202:3289   */\n              tag_124\n                /* \"#utility.yul\":3286:3287   */\n              0x00\n                /* \"#utility.yul\":3275:3284   */\n              dup4\n                /* \"#utility.yul\":3271:3288   */\n              add\n                /* \"#utility.yul\":3262:3268   */\n              dup5\n                /* \"#utility.yul\":3202:3289   */\n              tag_105\n              jump\t// in\n            tag_124:\n                /* \"#utility.yul\":3042:3296   */\n              swap3\n              swap2\n              pop\n              pop\n              jump\t// out\n                /* \"#utility.yul\":3302:3744   */\n            tag_45:\n                /* \"#utility.yul\":3451:3455   */\n              0x00\n                /* \"#utility.yul\":3489:3491   */\n              0x60\n                /* \"#utility.yul\":3478:3487   */\n              dup3\n                /* \"#utility.yul\":3474:3492   */\n              add\n                /* \"#utility.yul\":3466:3492   */\n              swap1\n              pop\n                /* \"#utility.yul\":3502:3573   */\n              tag_126\n                /* \"#utility.yul\":3570:3571   */\n              0x00\n                /* \"#utility.yul\":3559:3568   */\n              dup4\n                /* \"#utility.yul\":3555:3572   */\n              add\n                /* \"#utility.yul\":3546:3552   */\n              dup7\n                /* \"#utility.yul\":3502:3573   */\n              tag_109\n              jump\t// in\n            tag_126:\n                /* \"#utility.yul\":3583:3655   */\n              tag_127\n                /* \"#utility.yul\":3651:3653   */\n              0x20\n                /* \"#utility.yul\":3640:3649   */\n              dup4\n                /* \"#utility.yul\":3636:3654   */\n              add\n                /* \"#utility.yul\":3627:3633   */\n              dup6\n                /* \"#utility.yul\":3583:3655   */\n              tag_109\n              jump\t// in\n            tag_127:\n                /* \"#utility.yul\":3665:3737   */\n              tag_128\n                /* \"#utility.yul\":3733:3735   */\n              0x40\n                /* \"#utility.yul\":3722:3731   */\n              dup4\n                /* \"#utility.yul\":3718:3736   */\n              add\n                /* \"#utility.yul\":3709:3715   */\n              dup5\n                /* \"#utility.yul\":3665:3737   */\n              tag_119\n              jump\t// in\n            tag_128:\n                /* \"#utility.yul\":3302:3744   */\n              swap5\n              swap4\n              pop\n              pop\n              pop\n              pop\n              jump\t// out\n                /* \"#utility.yul\":3750:4082   */\n            tag_54:\n                /* \"#utility.yul\":3871:3875   */\n              0x00\n                /* \"#utility.yul\":3909:3911   */\n              0x40\n                /* \"#utility.yul\":3898:3907   */\n              dup3\n                /* \"#utility.yul\":3894:3912   */\n              add\n                /* \"#utility.yul\":3886:3912   */\n              swap1\n              pop\n                /* \"#utility.yul\":3922:3993   */\n              tag_130\n                /* \"#utility.yul\":3990:3991   */\n              0x00\n                /* \"#utility.yul\":3979:3988   */\n              dup4\n                /* \"#utility.yul\":3975:3992   */\n              add\n                /* \"#utility.yul\":3966:3972   */\n              dup6\n                /* \"#utility.yul\":3922:3993   */\n              tag_109\n              jump\t// in\n            tag_130:\n                /* \"#utility.yul\":4003:4075   */\n              tag_131\n                /* \"#utility.yul\":4071:4073   */\n              0x20\n                /* \"#utility.yul\":4060:4069   */\n              dup4\n                /* \"#utility.yul\":4056:4074   */\n              add\n                /* \"#utility.yul\":4047:4053   */\n              dup5\n                /* \"#utility.yul\":4003:4075   */\n              tag_119\n              jump\t// in\n            tag_131:\n                /* \"#utility.yul\":3750:4082   */\n              swap4\n              swap3\n              pop\n              pop\n              pop\n              jump\t// out\n                /* \"#utility.yul\":4088:4507   */\n            tag_13:\n                /* \"#utility.yul\":4254:4258   */\n              0x00\n                /* \"#utility.yul\":4292:4294   */\n              0x20\n                /* \"#utility.yul\":4281:4290   */\n              dup3\n                /* \"#utility.yul\":4277:4295   */\n              add\n                /* \"#utility.yul\":4269:4295   */\n              swap1\n              pop\n                /* \"#utility.yul\":4341:4350   */\n              dup2\n                /* \"#utility.yul\":4335:4339   */\n              dup2\n                /* \"#utility.yul\":4331:4351   */\n              sub\n                /* \"#utility.yul\":4327:4328   */\n              0x00\n                /* \"#utility.yul\":4316:4325   */\n              dup4\n                /* \"#utility.yul\":4312:4329   */\n              add\n                /* \"#utility.yul\":4305:4352   */\n              mstore\n                /* \"#utility.yul\":4369:4500   */\n              tag_133\n                /* \"#utility.yul\":4495:4499   */\n              dup2\n                /* \"#utility.yul\":4369:4500   */\n              tag_113\n              jump\t// in\n            tag_133:\n                /* \"#utility.yul\":4361:4500   */\n              swap1\n              pop\n                /* \"#utility.yul\":4088:4507   */\n              swap2\n              swap1\n              pop\n              jump\t// out\n                /* \"#utility.yul\":4594:4763   */\n            tag_116:\n                /* \"#utility.yul\":4678:4689   */\n              0x00\n                /* \"#utility.yul\":4712:4718   */\n              dup3\n                /* \"#utility.yul\":4707:4710   */\n              dup3\n                /* \"#utility.yul\":4700:4719   */\n              mstore\n                /* \"#utility.yul\":4752:4756   */\n              0x20\n                /* \"#utility.yul\":4747:4750   */\n              dup3\n                /* \"#utility.yul\":4743:4757   */\n              add\n                /* \"#utility.yul\":4728:4757   */\n              swap1\n              pop\n                /* \"#utility.yul\":4594:4763   */\n              swap3\n              swap2\n              pop\n              pop\n              jump\t// out\n                /* \"#utility.yul\":4769:4865   */\n            tag_112:\n                /* \"#utility.yul\":4806:4813   */\n              0x00\n                /* \"#utility.yul\":4835:4859   */\n              tag_138\n                /* \"#utility.yul\":4853:4858   */\n              dup3\n                /* \"#utility.yul\":4835:4859   */\n              tag_139\n              jump\t// in\n            tag_138:\n                /* \"#utility.yul\":4824:4859   */\n              swap1\n              pop\n                /* \"#utility.yul\":4769:4865   */\n              swap2\n              swap1\n              pop\n              jump\t// out\n                /* \"#utility.yul\":4871:4975   */\n            tag_108:\n                /* \"#utility.yul\":4916:4923   */\n              0x00\n                /* \"#utility.yul\":4945:4969   */\n              tag_141\n                /* \"#utility.yul\":4963:4968   */\n              dup3\n                /* \"#utility.yul\":4945:4969   */\n              tag_139\n              jump\t// in\n            tag_141:\n                /* \"#utility.yul\":4934:4969   */\n              swap1\n              pop\n                /* \"#utility.yul\":4871:4975   */\n              swap2\n              swap1\n              pop\n              jump\t// out\n                /* \"#utility.yul\":4981:5071   */\n            tag_142:\n                /* \"#utility.yul\":5015:5022   */\n              0x00\n                /* \"#utility.yul\":5058:5063   */\n              dup2\n                /* \"#utility.yul\":5051:5064   */\n              iszero\n                /* \"#utility.yul\":5044:5065   */\n              iszero\n                /* \"#utility.yul\":5033:5065   */\n              swap1\n              pop\n                /* \"#utility.yul\":4981:5071   */\n              swap2\n              swap1\n              pop\n              jump\t// out\n                /* \"#utility.yul\":5077:5187   */\n            tag_144:\n                /* \"#utility.yul\":5128:5135   */\n              0x00\n                /* \"#utility.yul\":5157:5181   */\n              tag_146\n                /* \"#utility.yul\":5175:5180   */\n              dup3\n                /* \"#utility.yul\":5157:5181   */\n              tag_112\n              jump\t// in\n            tag_146:\n                /* \"#utility.yul\":5146:5181   */\n              swap1\n              pop\n                /* \"#utility.yul\":5077:5187   */\n              swap2\n              swap1\n              pop\n              jump\t// out\n                /* \"#utility.yul\":5193:5319   */\n            tag_139:\n                /* \"#utility.yul\":5230:5237   */\n              0x00\n                /* \"#utility.yul\":5270:5312   */\n              0xffffffffffffffffffffffffffffffffffffffff\n                /* \"#utility.yul\":5263:5268   */\n              dup3\n                /* \"#utility.yul\":5259:5313   */\n              and\n                /* \"#utility.yul\":5248:5313   */\n              swap1\n              pop\n                /* \"#utility.yul\":5193:5319   */\n              swap2\n              swap1\n              pop\n              jump\t// out\n                /* \"#utility.yul\":5325:5402   */\n            tag_122:\n                /* \"#utility.yul\":5362:5369   */\n              0x00\n                /* \"#utility.yul\":5391:5396   */\n              dup2\n                /* \"#utility.yul\":5380:5396   */\n              swap1\n              pop\n                /* \"#utility.yul\":5325:5402   */\n              swap2\n              swap1\n              pop\n              jump\t// out\n                /* \"#utility.yul\":5531:5648   */\n            tag_92:\n                /* \"#utility.yul\":5640:5641   */\n              0x00\n                /* \"#utility.yul\":5637:5638   */\n              dup1\n                /* \"#utility.yul\":5630:5642   */\n              revert\n                /* \"#utility.yul\":5654:5820   */\n            tag_118:\n                /* \"#utility.yul\":5794:5812   */\n              0x6e65656420696e697420626f756e747900000000000000000000000000000000\n                /* \"#utility.yul\":5790:5791   */\n              0x00\n                /* \"#utility.yul\":5782:5788   */\n              dup3\n                /* \"#utility.yul\":5778:5792   */\n              add\n                /* \"#utility.yul\":5771:5813   */\n              mstore\n                /* \"#utility.yul\":5654:5820   */\n              pop\n              jump\t// out\n                /* \"#utility.yul\":5826:5948   */\n            tag_72:\n                /* \"#utility.yul\":5899:5923   */\n              tag_154\n                /* \"#utility.yul\":5917:5922   */\n              dup2\n                /* \"#utility.yul\":5899:5923   */\n              tag_112\n              jump\t// in\n            tag_154:\n                /* \"#utility.yul\":5892:5897   */\n              dup2\n                /* \"#utility.yul\":5889:5924   */\n              eq\n                /* \"#utility.yul\":5879:5942   */\n              tag_155\n              jumpi\n                /* \"#utility.yul\":5938:5939   */\n              0x00\n                /* \"#utility.yul\":5935:5936   */\n              dup1\n                /* \"#utility.yul\":5928:5940   */\n              revert\n                /* \"#utility.yul\":5879:5942   */\n            tag_155:\n                /* \"#utility.yul\":5826:5948   */\n              pop\n              jump\t// out\n                /* \"#utility.yul\":5954:6092   */\n            tag_76:\n                /* \"#utility.yul\":6035:6067   */\n              tag_157\n                /* \"#utility.yul\":6061:6066   */\n              dup2\n                /* \"#utility.yul\":6035:6067   */\n              tag_108\n              jump\t// in\n            tag_157:\n                /* \"#utility.yul\":6028:6033   */\n              dup2\n                /* \"#utility.yul\":6025:6068   */\n              eq\n                /* \"#utility.yul\":6015:6086   */\n              tag_158\n              jumpi\n                /* \"#utility.yul\":6082:6083   */\n              0x00\n                /* \"#utility.yul\":6079:6080   */\n              dup1\n                /* \"#utility.yul\":6072:6084   */\n              revert\n                /* \"#utility.yul\":6015:6086   */\n            tag_158:\n                /* \"#utility.yul\":5954:6092   */\n              pop\n              jump\t// out\n                /* \"#utility.yul\":6098:6214   */\n            tag_80:\n                /* \"#utility.yul\":6168:6189   */\n              tag_160\n                /* \"#utility.yul\":6183:6188   */\n              dup2\n                /* \"#utility.yul\":6168:6189   */\n              tag_142\n              jump\t// in\n            tag_160:\n                /* \"#utility.yul\":6161:6166   */\n              dup2\n                /* \"#utility.yul\":6158:6190   */\n              eq\n                /* \"#utility.yul\":6148:6208   */\n              tag_161\n              jumpi\n                /* \"#utility.yul\":6204:6205   */\n              0x00\n                /* \"#utility.yul\":6201:6202   */\n              dup1\n                /* \"#utility.yul\":6194:6206   */\n              revert\n                /* \"#utility.yul\":6148:6208   */\n            tag_161:\n                /* \"#utility.yul\":6098:6214   */\n              pop\n              jump\t// out\n                /* \"#utility.yul\":6220:6370   */\n            tag_84:\n                /* \"#utility.yul\":6307:6345   */\n              tag_163\n                /* \"#utility.yul\":6339:6344   */\n              dup2\n                /* \"#utility.yul\":6307:6345   */\n              tag_144\n              jump\t// in\n            tag_163:\n                /* \"#utility.yul\":6300:6305   */\n              dup2\n                /* \"#utility.yul\":6297:6346   */\n              eq\n                /* \"#utility.yul\":6287:6364   */\n              tag_164\n              jumpi\n                /* \"#utility.yul\":6360:6361   */\n              0x00\n                /* \"#utility.yul\":6357:6358   */\n              dup1\n                /* \"#utility.yul\":6350:6362   */\n              revert\n                /* \"#utility.yul\":6287:6364   */\n            tag_164:\n                /* \"#utility.yul\":6220:6370   */\n              pop\n              jump\t// out\n                /* \"#utility.yul\":6376:6498   */\n            tag_88:\n                /* \"#utility.yul\":6449:6473   */\n              tag_166\n                /* \"#utility.yul\":6467:6472   */\n              dup2\n                /* \"#utility.yul\":6449:6473   */\n              tag_122\n              jump\t// in\n            tag_166:\n                /* \"#utility.yul\":6442:6447   */\n              dup2\n                /* \"#utility.yul\":6439:6474   */\n              eq\n                /* \"#utility.yul\":6429:6492   */\n              tag_167\n              jumpi\n                /* \"#utility.yul\":6488:6489   */\n              0x00\n                /* \"#utility.yul\":6485:6486   */\n              dup1\n                /* \"#utility.yul\":6478:6490   */\n              revert\n                /* \"#utility.yul\":6429:6492   */\n            tag_167:\n                /* \"#utility.yul\":6376:6498   */\n              pop\n              jump\t// out\n\n            auxdata: 0xa2646970667358221220b12b200d9059fc31f7a9085ddec18de1db871e127fa6541015f839292d49fa4e64736f6c63430008070033\n        }\n    }\n\n    auxdata: 0xa2646970667358221220bb0e07d8ade11e981cd622f7f76f0c9e686c5ceef7c4fcc741cfd19146061c1d64736f6c63430008070033\n}\n",
				"bytecode": {
					"linkReferences": {},
					"object": "6080604052738f81b9b08232f8e8981daa87854575d7325a9439600360006101000a81548173ffffffffffffffffffffffffffffffffffffffff021916908373ffffffffffffffffffffffffffffffffffffffff16021790555034801561006557600080fd5b50336000806101000a81548173ffffffffffffffffffffffffffffffffffffffff021916908373ffffffffffffffffffffffffffffffffffffffff160217905550336000806101000a81548173ffffffffffffffffffffffffffffffffffffffff021916908373ffffffffffffffffffffffffffffffffffffffff1602179055506111d9806100f56000396000f3fe6080604052600436106100435760003560e01c806314da447f146100525780632bef7c7f1461007b57806346964a0a14610085578063f2fde38b146100ae5761004d565b3661004d57600080fd5b600080fd5b34801561005e57600080fd5b5061007960048036038101906100749190610585565b6100d7565b005b61008361014c565b005b34801561009157600080fd5b506100ac60048036038101906100a791906105df565b6102e5565b005b3480156100ba57600080fd5b506100d560048036038101906100d09190610558565b6102eb565b005b60008054906101000a900473ffffffffffffffffffffffffffffffffffffffff1673ffffffffffffffffffffffffffffffffffffffff163373ffffffffffffffffffffffffffffffffffffffff161461013357610132610824565b5b8073ffffffffffffffffffffffffffffffffffffffff16ff5b60003060405161015b90610487565b61016591906106a3565b604051809103906000f080158015610181573d6000803e3d6000fd5b5090508073ffffffffffffffffffffffffffffffffffffffff1663026b1d5f6040518163ffffffff1660e01b815260040160206040518083038186803b1580156101ca57600080fd5b505afa1580156101de573d6000803e3d6000fd5b505050506040513d601f19601f8201168201806040525081019061020291906105b2565b73ffffffffffffffffffffffffffffffffffffffff166108fc349081150290604051600060405180830381858888f19350505050158015610247573d6000803e3d6000fd5b506002819080600181540180825580915050600190039060005260206000200160009091909190916101000a81548173ffffffffffffffffffffffffffffffffffffffff021916908373ffffffffffffffffffffffffffffffffffffffff1602179055507f1bda7bb843640650292c2a26a73106328e0f83c1c09ea1a4176df3912ee47ff6816040516102da91906106be565b60405180910390a150565b50505050565b60008054906101000a900473ffffffffffffffffffffffffffffffffffffffff1673ffffffffffffffffffffffffffffffffffffffff163373ffffffffffffffffffffffffffffffffffffffff161461034757610346610824565b5b600073ffffffffffffffffffffffffffffffffffffffff168173ffffffffffffffffffffffffffffffffffffffff1614156103b7576040517f08c379a00000000000000000000000000000000000000000000000000000000081526004016103ae906106d9565b60405180910390fd5b6103c0816103c3565b50565b60008060009054906101000a900473ffffffffffffffffffffffffffffffffffffffff169050816000806101000a81548173ffffffffffffffffffffffffffffffffffffffff021916908373ffffffffffffffffffffffffffffffffffffffff1602179055508173ffffffffffffffffffffffffffffffffffffffff168173ffffffffffffffffffffffffffffffffffffffff167f8be0079c531659141344cd1fd0a4f28419497f9722a3daafe3b4186f6b6457e060405160405180910390a35050565b6108688061093c83390190565b60006104a76104a28461071e565b6106f9565b9050828152602081018484840111156104c3576104c2610887565b5b6104ce8482856107e4565b509392505050565b6000813590506104e5816108f6565b92915050565b6000813590506104fa8161090d565b92915050565b60008151905061050f8161090d565b92915050565b600082601f83011261052a57610529610882565b5b813561053a848260208601610494565b91505092915050565b60008135905061055281610924565b92915050565b60006020828403121561056e5761056d610891565b5b600061057c848285016104d6565b91505092915050565b60006020828403121561059b5761059a610891565b5b60006105a9848285016104eb565b91505092915050565b6000602082840312156105c8576105c7610891565b5b60006105d684828501610500565b91505092915050565b600080600080608085870312156105f9576105f8610891565b5b600085013567ffffffffffffffff8111156106175761061661088c565b5b61062387828801610515565b9450506020610634878288016104eb565b935050604061064587828801610543565b925050606061065687828801610543565b91505092959194509250565b61066b81610760565b82525050565b61067a816107ae565b82525050565b600061068d60268361074f565b9150610698826108a7565b604082019050919050565b60006020820190506106b86000830184610662565b92915050565b60006020820190506106d36000830184610671565b92915050565b600060208201905081810360008301526106f281610680565b9050919050565b6000610703610714565b905061070f82826107f3565b919050565b6000604051905090565b600067ffffffffffffffff82111561073957610738610853565b5b61074282610896565b9050602081019050919050565b600082825260208201905092915050565b600061076b82610784565b9050919050565b600061077d82610784565b9050919050565b600073ffffffffffffffffffffffffffffffffffffffff82169050919050565b6000819050919050565b60006107b9826107c0565b9050919050565b60006107cb826107d2565b9050919050565b60006107dd82610784565b9050919050565b82818337600083830152505050565b6107fc82610896565b810181811067ffffffffffffffff8211171561081b5761081a610853565b5b80604052505050565b7f4e487b7100000000000000000000000000000000000000000000000000000000600052600160045260246000fd5b7f4e487b7100000000000000000000000000000000000000000000000000000000600052604160045260246000fd5b600080fd5b600080fd5b600080fd5b600080fd5b6000601f19601f8301169050919050565b7f4f776e61626c653a206e6577206f776e657220697320746865207a65726f206160008201527f6464726573730000000000000000000000000000000000000000000000000000602082015250565b6108ff81610760565b811461090a57600080fd5b50565b61091681610772565b811461092157600080fd5b50565b61092d816107a4565b811461093857600080fd5b5056fe608060405234801561001057600080fd5b506040516108683803806108688339818101604052810190610032919061008d565b806000806101000a81548173ffffffffffffffffffffffffffffffffffffffff021916908373ffffffffffffffffffffffffffffffffffffffff16021790555050610108565b600081519050610087816100f1565b92915050565b6000602082840312156100a3576100a26100ec565b5b60006100b184828501610078565b91505092915050565b60006100c5826100cc565b9050919050565b600073ffffffffffffffffffffffffffffffffffffffff82169050919050565b600080fd5b6100fa816100ba565b811461010557600080fd5b50565b610751806101176000396000f3fe6080604052600436106100595760003560e01c8063026b1d5f146100f557806313658f8a1461012057806323b872dd1461013c578063beabacc814610165578063d0e30db01461018e578063e1f21c6714610198576100f0565b366100f057600073ffffffffffffffffffffffffffffffffffffffff1660008054906101000a900473ffffffffffffffffffffffffffffffffffffffff1673ffffffffffffffffffffffffffffffffffffffff1614156100ee576040517f08c379a00000000000000000000000000000000000000000000000000000000081526004016100e5906105dd565b60405180910390fd5b005b600080fd5b34801561010157600080fd5b5061010a6101c1565b6040516101179190610562565b60405180910390f35b61013a60048036038101906101359190610452565b6101c9565b005b34801561014857600080fd5b50610163600480360381019061015e91906104bf565b610214565b005b34801561017157600080fd5b5061018c600480360381019061018791906104bf565b6102b1565b005b61019661034c565b005b3480156101a457600080fd5b506101bf60048036038101906101ba91906104bf565b61034e565b005b600030905090565b8173ffffffffffffffffffffffffffffffffffffffff166108fc829081150290604051600060405180830381858888f1935050505015801561020f573d6000803e3d6000fd5b505050565b8273ffffffffffffffffffffffffffffffffffffffff166323b872dd3084846040518463ffffffff1660e01b81526004016102519392919061057d565b602060405180830381600087803b15801561026b57600080fd5b505af115801561027f573d6000803e3d6000fd5b505050506040513d601f19601f820116820180604052508101906102a39190610492565b6102ac57600080fd5b505050565b8273ffffffffffffffffffffffffffffffffffffffff1663a9059cbb83836040518363ffffffff1660e01b81526004016102ec9291906105b4565b602060405180830381600087803b15801561030657600080fd5b505af115801561031a573d6000803e3d6000fd5b505050506040513d601f19601f8201168201806040525081019061033e9190610492565b61034757600080fd5b505050565b565b8273ffffffffffffffffffffffffffffffffffffffff1663095ea7b383836040518363ffffffff1660e01b81526004016103899291906105b4565b602060405180830381600087803b1580156103a357600080fd5b505af11580156103b7573d6000803e3d6000fd5b505050506040513d601f19601f820116820180604052508101906103db9190610492565b6103e457600080fd5b505050565b6000813590506103f8816106a8565b92915050565b60008135905061040d816106bf565b92915050565b600081519050610422816106d6565b92915050565b600081359050610437816106ed565b92915050565b60008135905061044c81610704565b92915050565b600080604083850312156104695761046861067a565b5b6000610477858286016103fe565b92505060206104888582860161043d565b9150509250929050565b6000602082840312156104a8576104a761067a565b5b60006104b684828501610413565b91505092915050565b6000806000606084860312156104d8576104d761067a565b5b60006104e686828701610428565b93505060206104f7868287016103e9565b92505060406105088682870161043d565b9150509250925092565b61051b81610620565b82525050565b61052a8161060e565b82525050565b600061053d6010836105fd565b91506105488261067f565b602082019050919050565b61055c81610670565b82525050565b60006020820190506105776000830184610512565b92915050565b60006060820190506105926000830186610521565b61059f6020830185610521565b6105ac6040830184610553565b949350505050565b60006040820190506105c96000830185610521565b6105d66020830184610553565b9392505050565b600060208201905081810360008301526105f681610530565b9050919050565b600082825260208201905092915050565b600061061982610650565b9050919050565b600061062b82610650565b9050919050565b60008115159050919050565b60006106498261060e565b9050919050565b600073ffffffffffffffffffffffffffffffffffffffff82169050919050565b6000819050919050565b600080fd5b7f6e65656420696e697420626f756e747900000000000000000000000000000000600082015250565b6106b18161060e565b81146106bc57600080fd5b50565b6106c881610620565b81146106d357600080fd5b50565b6106df81610632565b81146106ea57600080fd5b50565b6106f68161063e565b811461070157600080fd5b50565b61070d81610670565b811461071857600080fd5b5056fea2646970667358221220b12b200d9059fc31f7a9085ddec18de1db871e127fa6541015f839292d49fa4e64736f6c63430008070033a2646970667358221220bb0e07d8ade11e981cd622f7f76f0c9e686c5ceef7c4fcc741cfd19146061c1d64736f6c63430008070033",
					"opcodes": "PUSH1 0x80 PUSH1 0x40 MSTORE PUSH20 0x8F81B9B08232F8E8981DAA87854575D7325A9439 PUSH1 0x3 PUSH1 0x0 PUSH2 0x100 EXP DUP2 SLOAD DUP2 PUSH20 0xFFFFFFFFFFFFFFFFFFFFFFFFFFFFFFFFFFFFFFFF MUL NOT AND SWAP1 DUP4 PUSH20 0xFFFFFFFFFFFFFFFFFFFFFFFFFFFFFFFFFFFFFFFF AND MUL OR SWAP1 SSTORE POP CALLVALUE DUP1 ISZERO PUSH2 0x65 JUMPI PUSH1 0x0 DUP1 REVERT JUMPDEST POP CALLER PUSH1 0x0 DUP1 PUSH2 0x100 EXP DUP2 SLOAD DUP2 PUSH20 0xFFFFFFFFFFFFFFFFFFFFFFFFFFFFFFFFFFFFFFFF MUL NOT AND SWAP1 DUP4 PUSH20 0xFFFFFFFFFFFFFFFFFFFFFFFFFFFFFFFFFFFFFFFF AND MUL OR SWAP1 SSTORE POP CALLER PUSH1 0x0 DUP1 PUSH2 0x100 EXP DUP2 SLOAD DUP2 PUSH20 0xFFFFFFFFFFFFFFFFFFFFFFFFFFFFFFFFFFFFFFFF MUL NOT AND SWAP1 DUP4 PUSH20 0xFFFFFFFFFFFFFFFFFFFFFFFFFFFFFFFFFFFFFFFF AND MUL OR SWAP1 SSTORE POP PUSH2 0x11D9 DUP1 PUSH2 0xF5 PUSH1 0x0 CODECOPY PUSH1 0x0 RETURN INVALID PUSH1 0x80 PUSH1 0x40 MSTORE PUSH1 0x4 CALLDATASIZE LT PUSH2 0x43 JUMPI PUSH1 0x0 CALLDATALOAD PUSH1 0xE0 SHR DUP1 PUSH4 0x14DA447F EQ PUSH2 0x52 JUMPI DUP1 PUSH4 0x2BEF7C7F EQ PUSH2 0x7B JUMPI DUP1 PUSH4 0x46964A0A EQ PUSH2 0x85 JUMPI DUP1 PUSH4 0xF2FDE38B EQ PUSH2 0xAE JUMPI PUSH2 0x4D JUMP JUMPDEST CALLDATASIZE PUSH2 0x4D JUMPI PUSH1 0x0 DUP1 REVERT JUMPDEST PUSH1 0x0 DUP1 REVERT JUMPDEST CALLVALUE DUP1 ISZERO PUSH2 0x5E JUMPI PUSH1 0x0 DUP1 REVERT JUMPDEST POP PUSH2 0x79 PUSH1 0x4 DUP1 CALLDATASIZE SUB DUP2 ADD SWAP1 PUSH2 0x74 SWAP2 SWAP1 PUSH2 0x585 JUMP JUMPDEST PUSH2 0xD7 JUMP JUMPDEST STOP JUMPDEST PUSH2 0x83 PUSH2 0x14C JUMP JUMPDEST STOP JUMPDEST CALLVALUE DUP1 ISZERO PUSH2 0x91 JUMPI PUSH1 0x0 DUP1 REVERT JUMPDEST POP PUSH2 0xAC PUSH1 0x4 DUP1 CALLDATASIZE SUB DUP2 ADD SWAP1 PUSH2 0xA7 SWAP2 SWAP1 PUSH2 0x5DF JUMP JUMPDEST PUSH2 0x2E5 JUMP JUMPDEST STOP JUMPDEST CALLVALUE DUP1 ISZERO PUSH2 0xBA JUMPI PUSH1 0x0 DUP1 REVERT JUMPDEST POP PUSH2 0xD5 PUSH1 0x4 DUP1 CALLDATASIZE SUB DUP2 ADD SWAP1 PUSH2 0xD0 SWAP2 SWAP1 PUSH2 0x558 JUMP JUMPDEST PUSH2 0x2EB JUMP JUMPDEST STOP JUMPDEST PUSH1 0x0 DUP1 SLOAD SWAP1 PUSH2 0x100 EXP SWAP1 DIV PUSH20 0xFFFFFFFFFFFFFFFFFFFFFFFFFFFFFFFFFFFFFFFF AND PUSH20 0xFFFFFFFFFFFFFFFFFFFFFFFFFFFFFFFFFFFFFFFF AND CALLER PUSH20 0xFFFFFFFFFFFFFFFFFFFFFFFFFFFFFFFFFFFFFFFF AND EQ PUSH2 0x133 JUMPI PUSH2 0x132 PUSH2 0x824 JUMP JUMPDEST JUMPDEST DUP1 PUSH20 0xFFFFFFFFFFFFFFFFFFFFFFFFFFFFFFFFFFFFFFFF AND SELFDESTRUCT JUMPDEST PUSH1 0x0 ADDRESS PUSH1 0x40 MLOAD PUSH2 0x15B SWAP1 PUSH2 0x487 JUMP JUMPDEST PUSH2 0x165 SWAP2 SWAP1 PUSH2 0x6A3 JUMP JUMPDEST PUSH1 0x40 MLOAD DUP1 SWAP2 SUB SWAP1 PUSH1 0x0 CREATE DUP1 ISZERO DUP1 ISZERO PUSH2 0x181 JUMPI RETURNDATASIZE PUSH1 0x0 DUP1 RETURNDATACOPY RETURNDATASIZE PUSH1 0x0 REVERT JUMPDEST POP SWAP1 POP DUP1 PUSH20 0xFFFFFFFFFFFFFFFFFFFFFFFFFFFFFFFFFFFFFFFF AND PUSH4 0x26B1D5F PUSH1 0x40 MLOAD DUP2 PUSH4 0xFFFFFFFF AND PUSH1 0xE0 SHL DUP2 MSTORE PUSH1 0x4 ADD PUSH1 0x20 PUSH1 0x40 MLOAD DUP1 DUP4 SUB DUP2 DUP7 DUP1 EXTCODESIZE ISZERO DUP1 ISZERO PUSH2 0x1CA JUMPI PUSH1 0x0 DUP1 REVERT JUMPDEST POP GAS STATICCALL ISZERO DUP1 ISZERO PUSH2 0x1DE JUMPI RETURNDATASIZE PUSH1 0x0 DUP1 RETURNDATACOPY RETURNDATASIZE PUSH1 0x0 REVERT JUMPDEST POP POP POP POP PUSH1 0x40 MLOAD RETURNDATASIZE PUSH1 0x1F NOT PUSH1 0x1F DUP3 ADD AND DUP3 ADD DUP1 PUSH1 0x40 MSTORE POP DUP2 ADD SWAP1 PUSH2 0x202 SWAP2 SWAP1 PUSH2 0x5B2 JUMP JUMPDEST PUSH20 0xFFFFFFFFFFFFFFFFFFFFFFFFFFFFFFFFFFFFFFFF AND PUSH2 0x8FC CALLVALUE SWAP1 DUP2 ISZERO MUL SWAP1 PUSH1 0x40 MLOAD PUSH1 0x0 PUSH1 0x40 MLOAD DUP1 DUP4 SUB DUP2 DUP6 DUP9 DUP9 CALL SWAP4 POP POP POP POP ISZERO DUP1 ISZERO PUSH2 0x247 JUMPI RETURNDATASIZE PUSH1 0x0 DUP1 RETURNDATACOPY RETURNDATASIZE PUSH1 0x0 REVERT JUMPDEST POP PUSH1 0x2 DUP2 SWAP1 DUP1 PUSH1 0x1 DUP2 SLOAD ADD DUP1 DUP3 SSTORE DUP1 SWAP2 POP POP PUSH1 0x1 SWAP1 SUB SWAP1 PUSH1 0x0 MSTORE PUSH1 0x20 PUSH1 0x0 KECCAK256 ADD PUSH1 0x0 SWAP1 SWAP2 SWAP1 SWAP2 SWAP1 SWAP2 PUSH2 0x100 EXP DUP2 SLOAD DUP2 PUSH20 0xFFFFFFFFFFFFFFFFFFFFFFFFFFFFFFFFFFFFFFFF MUL NOT AND SWAP1 DUP4 PUSH20 0xFFFFFFFFFFFFFFFFFFFFFFFFFFFFFFFFFFFFFFFF AND MUL OR SWAP1 SSTORE POP PUSH32 0x1BDA7BB843640650292C2A26A73106328E0F83C1C09EA1A4176DF3912EE47FF6 DUP2 PUSH1 0x40 MLOAD PUSH2 0x2DA SWAP2 SWAP1 PUSH2 0x6BE JUMP JUMPDEST PUSH1 0x40 MLOAD DUP1 SWAP2 SUB SWAP1 LOG1 POP JUMP JUMPDEST POP POP POP POP JUMP JUMPDEST PUSH1 0x0 DUP1 SLOAD SWAP1 PUSH2 0x100 EXP SWAP1 DIV PUSH20 0xFFFFFFFFFFFFFFFFFFFFFFFFFFFFFFFFFFFFFFFF AND PUSH20 0xFFFFFFFFFFFFFFFFFFFFFFFFFFFFFFFFFFFFFFFF AND CALLER PUSH20 0xFFFFFFFFFFFFFFFFFFFFFFFFFFFFFFFFFFFFFFFF AND EQ PUSH2 0x347 JUMPI PUSH2 0x346 PUSH2 0x824 JUMP JUMPDEST JUMPDEST PUSH1 0x0 PUSH20 0xFFFFFFFFFFFFFFFFFFFFFFFFFFFFFFFFFFFFFFFF AND DUP2 PUSH20 0xFFFFFFFFFFFFFFFFFFFFFFFFFFFFFFFFFFFFFFFF AND EQ ISZERO PUSH2 0x3B7 JUMPI PUSH1 0x40 MLOAD PUSH32 0x8C379A000000000000000000000000000000000000000000000000000000000 DUP2 MSTORE PUSH1 0x4 ADD PUSH2 0x3AE SWAP1 PUSH2 0x6D9 JUMP JUMPDEST PUSH1 0x40 MLOAD DUP1 SWAP2 SUB SWAP1 REVERT JUMPDEST PUSH2 0x3C0 DUP2 PUSH2 0x3C3 JUMP JUMPDEST POP JUMP JUMPDEST PUSH1 0x0 DUP1 PUSH1 0x0 SWAP1 SLOAD SWAP1 PUSH2 0x100 EXP SWAP1 DIV PUSH20 0xFFFFFFFFFFFFFFFFFFFFFFFFFFFFFFFFFFFFFFFF AND SWAP1 POP DUP2 PUSH1 0x0 DUP1 PUSH2 0x100 EXP DUP2 SLOAD DUP2 PUSH20 0xFFFFFFFFFFFFFFFFFFFFFFFFFFFFFFFFFFFFFFFF MUL NOT AND SWAP1 DUP4 PUSH20 0xFFFFFFFFFFFFFFFFFFFFFFFFFFFFFFFFFFFFFFFF AND MUL OR SWAP1 SSTORE POP DUP2 PUSH20 0xFFFFFFFFFFFFFFFFFFFFFFFFFFFFFFFFFFFFFFFF AND DUP2 PUSH20 0xFFFFFFFFFFFFFFFFFFFFFFFFFFFFFFFFFFFFFFFF AND PUSH32 0x8BE0079C531659141344CD1FD0A4F28419497F9722A3DAAFE3B4186F6B6457E0 PUSH1 0x40 MLOAD PUSH1 0x40 MLOAD DUP1 SWAP2 SUB SWAP1 LOG3 POP POP JUMP JUMPDEST PUSH2 0x868 DUP1 PUSH2 0x93C DUP4 CODECOPY ADD SWAP1 JUMP JUMPDEST PUSH1 0x0 PUSH2 0x4A7 PUSH2 0x4A2 DUP5 PUSH2 0x71E JUMP JUMPDEST PUSH2 0x6F9 JUMP JUMPDEST SWAP1 POP DUP3 DUP2 MSTORE PUSH1 0x20 DUP2 ADD DUP5 DUP5 DUP5 ADD GT ISZERO PUSH2 0x4C3 JUMPI PUSH2 0x4C2 PUSH2 0x887 JUMP JUMPDEST JUMPDEST PUSH2 0x4CE DUP5 DUP3 DUP6 PUSH2 0x7E4 JUMP JUMPDEST POP SWAP4 SWAP3 POP POP POP JUMP JUMPDEST PUSH1 0x0 DUP2 CALLDATALOAD SWAP1 POP PUSH2 0x4E5 DUP2 PUSH2 0x8F6 JUMP JUMPDEST SWAP3 SWAP2 POP POP JUMP JUMPDEST PUSH1 0x0 DUP2 CALLDATALOAD SWAP1 POP PUSH2 0x4FA DUP2 PUSH2 0x90D JUMP JUMPDEST SWAP3 SWAP2 POP POP JUMP JUMPDEST PUSH1 0x0 DUP2 MLOAD SWAP1 POP PUSH2 0x50F DUP2 PUSH2 0x90D JUMP JUMPDEST SWAP3 SWAP2 POP POP JUMP JUMPDEST PUSH1 0x0 DUP3 PUSH1 0x1F DUP4 ADD SLT PUSH2 0x52A JUMPI PUSH2 0x529 PUSH2 0x882 JUMP JUMPDEST JUMPDEST DUP2 CALLDATALOAD PUSH2 0x53A DUP5 DUP3 PUSH1 0x20 DUP7 ADD PUSH2 0x494 JUMP JUMPDEST SWAP2 POP POP SWAP3 SWAP2 POP POP JUMP JUMPDEST PUSH1 0x0 DUP2 CALLDATALOAD SWAP1 POP PUSH2 0x552 DUP2 PUSH2 0x924 JUMP JUMPDEST SWAP3 SWAP2 POP POP JUMP JUMPDEST PUSH1 0x0 PUSH1 0x20 DUP3 DUP5 SUB SLT ISZERO PUSH2 0x56E JUMPI PUSH2 0x56D PUSH2 0x891 JUMP JUMPDEST JUMPDEST PUSH1 0x0 PUSH2 0x57C DUP5 DUP3 DUP6 ADD PUSH2 0x4D6 JUMP JUMPDEST SWAP2 POP POP SWAP3 SWAP2 POP POP JUMP JUMPDEST PUSH1 0x0 PUSH1 0x20 DUP3 DUP5 SUB SLT ISZERO PUSH2 0x59B JUMPI PUSH2 0x59A PUSH2 0x891 JUMP JUMPDEST JUMPDEST PUSH1 0x0 PUSH2 0x5A9 DUP5 DUP3 DUP6 ADD PUSH2 0x4EB JUMP JUMPDEST SWAP2 POP POP SWAP3 SWAP2 POP POP JUMP JUMPDEST PUSH1 0x0 PUSH1 0x20 DUP3 DUP5 SUB SLT ISZERO PUSH2 0x5C8 JUMPI PUSH2 0x5C7 PUSH2 0x891 JUMP JUMPDEST JUMPDEST PUSH1 0x0 PUSH2 0x5D6 DUP5 DUP3 DUP6 ADD PUSH2 0x500 JUMP JUMPDEST SWAP2 POP POP SWAP3 SWAP2 POP POP JUMP JUMPDEST PUSH1 0x0 DUP1 PUSH1 0x0 DUP1 PUSH1 0x80 DUP6 DUP8 SUB SLT ISZERO PUSH2 0x5F9 JUMPI PUSH2 0x5F8 PUSH2 0x891 JUMP JUMPDEST JUMPDEST PUSH1 0x0 DUP6 ADD CALLDATALOAD PUSH8 0xFFFFFFFFFFFFFFFF DUP2 GT ISZERO PUSH2 0x617 JUMPI PUSH2 0x616 PUSH2 0x88C JUMP JUMPDEST JUMPDEST PUSH2 0x623 DUP8 DUP3 DUP9 ADD PUSH2 0x515 JUMP JUMPDEST SWAP5 POP POP PUSH1 0x20 PUSH2 0x634 DUP8 DUP3 DUP9 ADD PUSH2 0x4EB JUMP JUMPDEST SWAP4 POP POP PUSH1 0x40 PUSH2 0x645 DUP8 DUP3 DUP9 ADD PUSH2 0x543 JUMP JUMPDEST SWAP3 POP POP PUSH1 0x60 PUSH2 0x656 DUP8 DUP3 DUP9 ADD PUSH2 0x543 JUMP JUMPDEST SWAP2 POP POP SWAP3 SWAP6 SWAP2 SWAP5 POP SWAP3 POP JUMP JUMPDEST PUSH2 0x66B DUP2 PUSH2 0x760 JUMP JUMPDEST DUP3 MSTORE POP POP JUMP JUMPDEST PUSH2 0x67A DUP2 PUSH2 0x7AE JUMP JUMPDEST DUP3 MSTORE POP POP JUMP JUMPDEST PUSH1 0x0 PUSH2 0x68D PUSH1 0x26 DUP4 PUSH2 0x74F JUMP JUMPDEST SWAP2 POP PUSH2 0x698 DUP3 PUSH2 0x8A7 JUMP JUMPDEST PUSH1 0x40 DUP3 ADD SWAP1 POP SWAP2 SWAP1 POP JUMP JUMPDEST PUSH1 0x0 PUSH1 0x20 DUP3 ADD SWAP1 POP PUSH2 0x6B8 PUSH1 0x0 DUP4 ADD DUP5 PUSH2 0x662 JUMP JUMPDEST SWAP3 SWAP2 POP POP JUMP JUMPDEST PUSH1 0x0 PUSH1 0x20 DUP3 ADD SWAP1 POP PUSH2 0x6D3 PUSH1 0x0 DUP4 ADD DUP5 PUSH2 0x671 JUMP JUMPDEST SWAP3 SWAP2 POP POP JUMP JUMPDEST PUSH1 0x0 PUSH1 0x20 DUP3 ADD SWAP1 POP DUP2 DUP2 SUB PUSH1 0x0 DUP4 ADD MSTORE PUSH2 0x6F2 DUP2 PUSH2 0x680 JUMP JUMPDEST SWAP1 POP SWAP2 SWAP1 POP JUMP JUMPDEST PUSH1 0x0 PUSH2 0x703 PUSH2 0x714 JUMP JUMPDEST SWAP1 POP PUSH2 0x70F DUP3 DUP3 PUSH2 0x7F3 JUMP JUMPDEST SWAP2 SWAP1 POP JUMP JUMPDEST PUSH1 0x0 PUSH1 0x40 MLOAD SWAP1 POP SWAP1 JUMP JUMPDEST PUSH1 0x0 PUSH8 0xFFFFFFFFFFFFFFFF DUP3 GT ISZERO PUSH2 0x739 JUMPI PUSH2 0x738 PUSH2 0x853 JUMP JUMPDEST JUMPDEST PUSH2 0x742 DUP3 PUSH2 0x896 JUMP JUMPDEST SWAP1 POP PUSH1 0x20 DUP2 ADD SWAP1 POP SWAP2 SWAP1 POP JUMP JUMPDEST PUSH1 0x0 DUP3 DUP3 MSTORE PUSH1 0x20 DUP3 ADD SWAP1 POP SWAP3 SWAP2 POP POP JUMP JUMPDEST PUSH1 0x0 PUSH2 0x76B DUP3 PUSH2 0x784 JUMP JUMPDEST SWAP1 POP SWAP2 SWAP1 POP JUMP JUMPDEST PUSH1 0x0 PUSH2 0x77D DUP3 PUSH2 0x784 JUMP JUMPDEST SWAP1 POP SWAP2 SWAP1 POP JUMP JUMPDEST PUSH1 0x0 PUSH20 0xFFFFFFFFFFFFFFFFFFFFFFFFFFFFFFFFFFFFFFFF DUP3 AND SWAP1 POP SWAP2 SWAP1 POP JUMP JUMPDEST PUSH1 0x0 DUP2 SWAP1 POP SWAP2 SWAP1 POP JUMP JUMPDEST PUSH1 0x0 PUSH2 0x7B9 DUP3 PUSH2 0x7C0 JUMP JUMPDEST SWAP1 POP SWAP2 SWAP1 POP JUMP JUMPDEST PUSH1 0x0 PUSH2 0x7CB DUP3 PUSH2 0x7D2 JUMP JUMPDEST SWAP1 POP SWAP2 SWAP1 POP JUMP JUMPDEST PUSH1 0x0 PUSH2 0x7DD DUP3 PUSH2 0x784 JUMP JUMPDEST SWAP1 POP SWAP2 SWAP1 POP JUMP JUMPDEST DUP3 DUP2 DUP4 CALLDATACOPY PUSH1 0x0 DUP4 DUP4 ADD MSTORE POP POP POP JUMP JUMPDEST PUSH2 0x7FC DUP3 PUSH2 0x896 JUMP JUMPDEST DUP2 ADD DUP2 DUP2 LT PUSH8 0xFFFFFFFFFFFFFFFF DUP3 GT OR ISZERO PUSH2 0x81B JUMPI PUSH2 0x81A PUSH2 0x853 JUMP JUMPDEST JUMPDEST DUP1 PUSH1 0x40 MSTORE POP POP POP JUMP JUMPDEST PUSH32 0x4E487B7100000000000000000000000000000000000000000000000000000000 PUSH1 0x0 MSTORE PUSH1 0x1 PUSH1 0x4 MSTORE PUSH1 0x24 PUSH1 0x0 REVERT JUMPDEST PUSH32 0x4E487B7100000000000000000000000000000000000000000000000000000000 PUSH1 0x0 MSTORE PUSH1 0x41 PUSH1 0x4 MSTORE PUSH1 0x24 PUSH1 0x0 REVERT JUMPDEST PUSH1 0x0 DUP1 REVERT JUMPDEST PUSH1 0x0 DUP1 REVERT JUMPDEST PUSH1 0x0 DUP1 REVERT JUMPDEST PUSH1 0x0 DUP1 REVERT JUMPDEST PUSH1 0x0 PUSH1 0x1F NOT PUSH1 0x1F DUP4 ADD AND SWAP1 POP SWAP2 SWAP1 POP JUMP JUMPDEST PUSH32 0x4F776E61626C653A206E6577206F776E657220697320746865207A65726F2061 PUSH1 0x0 DUP3 ADD MSTORE PUSH32 0x6464726573730000000000000000000000000000000000000000000000000000 PUSH1 0x20 DUP3 ADD MSTORE POP JUMP JUMPDEST PUSH2 0x8FF DUP2 PUSH2 0x760 JUMP JUMPDEST DUP2 EQ PUSH2 0x90A JUMPI PUSH1 0x0 DUP1 REVERT JUMPDEST POP JUMP JUMPDEST PUSH2 0x916 DUP2 PUSH2 0x772 JUMP JUMPDEST DUP2 EQ PUSH2 0x921 JUMPI PUSH1 0x0 DUP1 REVERT JUMPDEST POP JUMP JUMPDEST PUSH2 0x92D DUP2 PUSH2 0x7A4 JUMP JUMPDEST DUP2 EQ PUSH2 0x938 JUMPI PUSH1 0x0 DUP1 REVERT JUMPDEST POP JUMP INVALID PUSH1 0x80 PUSH1 0x40 MSTORE CALLVALUE DUP1 ISZERO PUSH2 0x10 JUMPI PUSH1 0x0 DUP1 REVERT JUMPDEST POP PUSH1 0x40 MLOAD PUSH2 0x868 CODESIZE SUB DUP1 PUSH2 0x868 DUP4 CODECOPY DUP2 DUP2 ADD PUSH1 0x40 MSTORE DUP2 ADD SWAP1 PUSH2 0x32 SWAP2 SWAP1 PUSH2 0x8D JUMP JUMPDEST DUP1 PUSH1 0x0 DUP1 PUSH2 0x100 EXP DUP2 SLOAD DUP2 PUSH20 0xFFFFFFFFFFFFFFFFFFFFFFFFFFFFFFFFFFFFFFFF MUL NOT AND SWAP1 DUP4 PUSH20 0xFFFFFFFFFFFFFFFFFFFFFFFFFFFFFFFFFFFFFFFF AND MUL OR SWAP1 SSTORE POP POP PUSH2 0x108 JUMP JUMPDEST PUSH1 0x0 DUP2 MLOAD SWAP1 POP PUSH2 0x87 DUP2 PUSH2 0xF1 JUMP JUMPDEST SWAP3 SWAP2 POP POP JUMP JUMPDEST PUSH1 0x0 PUSH1 0x20 DUP3 DUP5 SUB SLT ISZERO PUSH2 0xA3 JUMPI PUSH2 0xA2 PUSH2 0xEC JUMP JUMPDEST JUMPDEST PUSH1 0x0 PUSH2 0xB1 DUP5 DUP3 DUP6 ADD PUSH2 0x78 JUMP JUMPDEST SWAP2 POP POP SWAP3 SWAP2 POP POP JUMP JUMPDEST PUSH1 0x0 PUSH2 0xC5 DUP3 PUSH2 0xCC JUMP JUMPDEST SWAP1 POP SWAP2 SWAP1 POP JUMP JUMPDEST PUSH1 0x0 PUSH20 0xFFFFFFFFFFFFFFFFFFFFFFFFFFFFFFFFFFFFFFFF DUP3 AND SWAP1 POP SWAP2 SWAP1 POP JUMP JUMPDEST PUSH1 0x0 DUP1 REVERT JUMPDEST PUSH2 0xFA DUP2 PUSH2 0xBA JUMP JUMPDEST DUP2 EQ PUSH2 0x105 JUMPI PUSH1 0x0 DUP1 REVERT JUMPDEST POP JUMP JUMPDEST PUSH2 0x751 DUP1 PUSH2 0x117 PUSH1 0x0 CODECOPY PUSH1 0x0 RETURN INVALID PUSH1 0x80 PUSH1 0x40 MSTORE PUSH1 0x4 CALLDATASIZE LT PUSH2 0x59 JUMPI PUSH1 0x0 CALLDATALOAD PUSH1 0xE0 SHR DUP1 PUSH4 0x26B1D5F EQ PUSH2 0xF5 JUMPI DUP1 PUSH4 0x13658F8A EQ PUSH2 0x120 JUMPI DUP1 PUSH4 0x23B872DD EQ PUSH2 0x13C JUMPI DUP1 PUSH4 0xBEABACC8 EQ PUSH2 0x165 JUMPI DUP1 PUSH4 0xD0E30DB0 EQ PUSH2 0x18E JUMPI DUP1 PUSH4 0xE1F21C67 EQ PUSH2 0x198 JUMPI PUSH2 0xF0 JUMP JUMPDEST CALLDATASIZE PUSH2 0xF0 JUMPI PUSH1 0x0 PUSH20 0xFFFFFFFFFFFFFFFFFFFFFFFFFFFFFFFFFFFFFFFF AND PUSH1 0x0 DUP1 SLOAD SWAP1 PUSH2 0x100 EXP SWAP1 DIV PUSH20 0xFFFFFFFFFFFFFFFFFFFFFFFFFFFFFFFFFFFFFFFF AND PUSH20 0xFFFFFFFFFFFFFFFFFFFFFFFFFFFFFFFFFFFFFFFF AND EQ ISZERO PUSH2 0xEE JUMPI PUSH1 0x40 MLOAD PUSH32 0x8C379A000000000000000000000000000000000000000000000000000000000 DUP2 MSTORE PUSH1 0x4 ADD PUSH2 0xE5 SWAP1 PUSH2 0x5DD JUMP JUMPDEST PUSH1 0x40 MLOAD DUP1 SWAP2 SUB SWAP1 REVERT JUMPDEST STOP JUMPDEST PUSH1 0x0 DUP1 REVERT JUMPDEST CALLVALUE DUP1 ISZERO PUSH2 0x101 JUMPI PUSH1 0x0 DUP1 REVERT JUMPDEST POP PUSH2 0x10A PUSH2 0x1C1 JUMP JUMPDEST PUSH1 0x40 MLOAD PUSH2 0x117 SWAP2 SWAP1 PUSH2 0x562 JUMP JUMPDEST PUSH1 0x40 MLOAD DUP1 SWAP2 SUB SWAP1 RETURN JUMPDEST PUSH2 0x13A PUSH1 0x4 DUP1 CALLDATASIZE SUB DUP2 ADD SWAP1 PUSH2 0x135 SWAP2 SWAP1 PUSH2 0x452 JUMP JUMPDEST PUSH2 0x1C9 JUMP JUMPDEST STOP JUMPDEST CALLVALUE DUP1 ISZERO PUSH2 0x148 JUMPI PUSH1 0x0 DUP1 REVERT JUMPDEST POP PUSH2 0x163 PUSH1 0x4 DUP1 CALLDATASIZE SUB DUP2 ADD SWAP1 PUSH2 0x15E SWAP2 SWAP1 PUSH2 0x4BF JUMP JUMPDEST PUSH2 0x214 JUMP JUMPDEST STOP JUMPDEST CALLVALUE DUP1 ISZERO PUSH2 0x171 JUMPI PUSH1 0x0 DUP1 REVERT JUMPDEST POP PUSH2 0x18C PUSH1 0x4 DUP1 CALLDATASIZE SUB DUP2 ADD SWAP1 PUSH2 0x187 SWAP2 SWAP1 PUSH2 0x4BF JUMP JUMPDEST PUSH2 0x2B1 JUMP JUMPDEST STOP JUMPDEST PUSH2 0x196 PUSH2 0x34C JUMP JUMPDEST STOP JUMPDEST CALLVALUE DUP1 ISZERO PUSH2 0x1A4 JUMPI PUSH1 0x0 DUP1 REVERT JUMPDEST POP PUSH2 0x1BF PUSH1 0x4 DUP1 CALLDATASIZE SUB DUP2 ADD SWAP1 PUSH2 0x1BA SWAP2 SWAP1 PUSH2 0x4BF JUMP JUMPDEST PUSH2 0x34E JUMP JUMPDEST STOP JUMPDEST PUSH1 0x0 ADDRESS SWAP1 POP SWAP1 JUMP JUMPDEST DUP2 PUSH20 0xFFFFFFFFFFFFFFFFFFFFFFFFFFFFFFFFFFFFFFFF AND PUSH2 0x8FC DUP3 SWAP1 DUP2 ISZERO MUL SWAP1 PUSH1 0x40 MLOAD PUSH1 0x0 PUSH1 0x40 MLOAD DUP1 DUP4 SUB DUP2 DUP6 DUP9 DUP9 CALL SWAP4 POP POP POP POP ISZERO DUP1 ISZERO PUSH2 0x20F JUMPI RETURNDATASIZE PUSH1 0x0 DUP1 RETURNDATACOPY RETURNDATASIZE PUSH1 0x0 REVERT JUMPDEST POP POP POP JUMP JUMPDEST DUP3 PUSH20 0xFFFFFFFFFFFFFFFFFFFFFFFFFFFFFFFFFFFFFFFF AND PUSH4 0x23B872DD ADDRESS DUP5 DUP5 PUSH1 0x40 MLOAD DUP5 PUSH4 0xFFFFFFFF AND PUSH1 0xE0 SHL DUP2 MSTORE PUSH1 0x4 ADD PUSH2 0x251 SWAP4 SWAP3 SWAP2 SWAP1 PUSH2 0x57D JUMP JUMPDEST PUSH1 0x20 PUSH1 0x40 MLOAD DUP1 DUP4 SUB DUP2 PUSH1 0x0 DUP8 DUP1 EXTCODESIZE ISZERO DUP1 ISZERO PUSH2 0x26B JUMPI PUSH1 0x0 DUP1 REVERT JUMPDEST POP GAS CALL ISZERO DUP1 ISZERO PUSH2 0x27F JUMPI RETURNDATASIZE PUSH1 0x0 DUP1 RETURNDATACOPY RETURNDATASIZE PUSH1 0x0 REVERT JUMPDEST POP POP POP POP PUSH1 0x40 MLOAD RETURNDATASIZE PUSH1 0x1F NOT PUSH1 0x1F DUP3 ADD AND DUP3 ADD DUP1 PUSH1 0x40 MSTORE POP DUP2 ADD SWAP1 PUSH2 0x2A3 SWAP2 SWAP1 PUSH2 0x492 JUMP JUMPDEST PUSH2 0x2AC JUMPI PUSH1 0x0 DUP1 REVERT JUMPDEST POP POP POP JUMP JUMPDEST DUP3 PUSH20 0xFFFFFFFFFFFFFFFFFFFFFFFFFFFFFFFFFFFFFFFF AND PUSH4 0xA9059CBB DUP4 DUP4 PUSH1 0x40 MLOAD DUP4 PUSH4 0xFFFFFFFF AND PUSH1 0xE0 SHL DUP2 MSTORE PUSH1 0x4 ADD PUSH2 0x2EC SWAP3 SWAP2 SWAP1 PUSH2 0x5B4 JUMP JUMPDEST PUSH1 0x20 PUSH1 0x40 MLOAD DUP1 DUP4 SUB DUP2 PUSH1 0x0 DUP8 DUP1 EXTCODESIZE ISZERO DUP1 ISZERO PUSH2 0x306 JUMPI PUSH1 0x0 DUP1 REVERT JUMPDEST POP GAS CALL ISZERO DUP1 ISZERO PUSH2 0x31A JUMPI RETURNDATASIZE PUSH1 0x0 DUP1 RETURNDATACOPY RETURNDATASIZE PUSH1 0x0 REVERT JUMPDEST POP POP POP POP PUSH1 0x40 MLOAD RETURNDATASIZE PUSH1 0x1F NOT PUSH1 0x1F DUP3 ADD AND DUP3 ADD DUP1 PUSH1 0x40 MSTORE POP DUP2 ADD SWAP1 PUSH2 0x33E SWAP2 SWAP1 PUSH2 0x492 JUMP JUMPDEST PUSH2 0x347 JUMPI PUSH1 0x0 DUP1 REVERT JUMPDEST POP POP POP JUMP JUMPDEST JUMP JUMPDEST DUP3 PUSH20 0xFFFFFFFFFFFFFFFFFFFFFFFFFFFFFFFFFFFFFFFF AND PUSH4 0x95EA7B3 DUP4 DUP4 PUSH1 0x40 MLOAD DUP4 PUSH4 0xFFFFFFFF AND PUSH1 0xE0 SHL DUP2 MSTORE PUSH1 0x4 ADD PUSH2 0x389 SWAP3 SWAP2 SWAP1 PUSH2 0x5B4 JUMP JUMPDEST PUSH1 0x20 PUSH1 0x40 MLOAD DUP1 DUP4 SUB DUP2 PUSH1 0x0 DUP8 DUP1 EXTCODESIZE ISZERO DUP1 ISZERO PUSH2 0x3A3 JUMPI PUSH1 0x0 DUP1 REVERT JUMPDEST POP GAS CALL ISZERO DUP1 ISZERO PUSH2 0x3B7 JUMPI RETURNDATASIZE PUSH1 0x0 DUP1 RETURNDATACOPY RETURNDATASIZE PUSH1 0x0 REVERT JUMPDEST POP POP POP POP PUSH1 0x40 MLOAD RETURNDATASIZE PUSH1 0x1F NOT PUSH1 0x1F DUP3 ADD AND DUP3 ADD DUP1 PUSH1 0x40 MSTORE POP DUP2 ADD SWAP1 PUSH2 0x3DB SWAP2 SWAP1 PUSH2 0x492 JUMP JUMPDEST PUSH2 0x3E4 JUMPI PUSH1 0x0 DUP1 REVERT JUMPDEST POP POP POP JUMP JUMPDEST PUSH1 0x0 DUP2 CALLDATALOAD SWAP1 POP PUSH2 0x3F8 DUP2 PUSH2 0x6A8 JUMP JUMPDEST SWAP3 SWAP2 POP POP JUMP JUMPDEST PUSH1 0x0 DUP2 CALLDATALOAD SWAP1 POP PUSH2 0x40D DUP2 PUSH2 0x6BF JUMP JUMPDEST SWAP3 SWAP2 POP POP JUMP JUMPDEST PUSH1 0x0 DUP2 MLOAD SWAP1 POP PUSH2 0x422 DUP2 PUSH2 0x6D6 JUMP JUMPDEST SWAP3 SWAP2 POP POP JUMP JUMPDEST PUSH1 0x0 DUP2 CALLDATALOAD SWAP1 POP PUSH2 0x437 DUP2 PUSH2 0x6ED JUMP JUMPDEST SWAP3 SWAP2 POP POP JUMP JUMPDEST PUSH1 0x0 DUP2 CALLDATALOAD SWAP1 POP PUSH2 0x44C DUP2 PUSH2 0x704 JUMP JUMPDEST SWAP3 SWAP2 POP POP JUMP JUMPDEST PUSH1 0x0 DUP1 PUSH1 0x40 DUP4 DUP6 SUB SLT ISZERO PUSH2 0x469 JUMPI PUSH2 0x468 PUSH2 0x67A JUMP JUMPDEST JUMPDEST PUSH1 0x0 PUSH2 0x477 DUP6 DUP3 DUP7 ADD PUSH2 0x3FE JUMP JUMPDEST SWAP3 POP POP PUSH1 0x20 PUSH2 0x488 DUP6 DUP3 DUP7 ADD PUSH2 0x43D JUMP JUMPDEST SWAP2 POP POP SWAP3 POP SWAP3 SWAP1 POP JUMP JUMPDEST PUSH1 0x0 PUSH1 0x20 DUP3 DUP5 SUB SLT ISZERO PUSH2 0x4A8 JUMPI PUSH2 0x4A7 PUSH2 0x67A JUMP JUMPDEST JUMPDEST PUSH1 0x0 PUSH2 0x4B6 DUP5 DUP3 DUP6 ADD PUSH2 0x413 JUMP JUMPDEST SWAP2 POP POP SWAP3 SWAP2 POP POP JUMP JUMPDEST PUSH1 0x0 DUP1 PUSH1 0x0 PUSH1 0x60 DUP5 DUP7 SUB SLT ISZERO PUSH2 0x4D8 JUMPI PUSH2 0x4D7 PUSH2 0x67A JUMP JUMPDEST JUMPDEST PUSH1 0x0 PUSH2 0x4E6 DUP7 DUP3 DUP8 ADD PUSH2 0x428 JUMP JUMPDEST SWAP4 POP POP PUSH1 0x20 PUSH2 0x4F7 DUP7 DUP3 DUP8 ADD PUSH2 0x3E9 JUMP JUMPDEST SWAP3 POP POP PUSH1 0x40 PUSH2 0x508 DUP7 DUP3 DUP8 ADD PUSH2 0x43D JUMP JUMPDEST SWAP2 POP POP SWAP3 POP SWAP3 POP SWAP3 JUMP JUMPDEST PUSH2 0x51B DUP2 PUSH2 0x620 JUMP JUMPDEST DUP3 MSTORE POP POP JUMP JUMPDEST PUSH2 0x52A DUP2 PUSH2 0x60E JUMP JUMPDEST DUP3 MSTORE POP POP JUMP JUMPDEST PUSH1 0x0 PUSH2 0x53D PUSH1 0x10 DUP4 PUSH2 0x5FD JUMP JUMPDEST SWAP2 POP PUSH2 0x548 DUP3 PUSH2 0x67F JUMP JUMPDEST PUSH1 0x20 DUP3 ADD SWAP1 POP SWAP2 SWAP1 POP JUMP JUMPDEST PUSH2 0x55C DUP2 PUSH2 0x670 JUMP JUMPDEST DUP3 MSTORE POP POP JUMP JUMPDEST PUSH1 0x0 PUSH1 0x20 DUP3 ADD SWAP1 POP PUSH2 0x577 PUSH1 0x0 DUP4 ADD DUP5 PUSH2 0x512 JUMP JUMPDEST SWAP3 SWAP2 POP POP JUMP JUMPDEST PUSH1 0x0 PUSH1 0x60 DUP3 ADD SWAP1 POP PUSH2 0x592 PUSH1 0x0 DUP4 ADD DUP7 PUSH2 0x521 JUMP JUMPDEST PUSH2 0x59F PUSH1 0x20 DUP4 ADD DUP6 PUSH2 0x521 JUMP JUMPDEST PUSH2 0x5AC PUSH1 0x40 DUP4 ADD DUP5 PUSH2 0x553 JUMP JUMPDEST SWAP5 SWAP4 POP POP POP POP JUMP JUMPDEST PUSH1 0x0 PUSH1 0x40 DUP3 ADD SWAP1 POP PUSH2 0x5C9 PUSH1 0x0 DUP4 ADD DUP6 PUSH2 0x521 JUMP JUMPDEST PUSH2 0x5D6 PUSH1 0x20 DUP4 ADD DUP5 PUSH2 0x553 JUMP JUMPDEST SWAP4 SWAP3 POP POP POP JUMP JUMPDEST PUSH1 0x0 PUSH1 0x20 DUP3 ADD SWAP1 POP DUP2 DUP2 SUB PUSH1 0x0 DUP4 ADD MSTORE PUSH2 0x5F6 DUP2 PUSH2 0x530 JUMP JUMPDEST SWAP1 POP SWAP2 SWAP1 POP JUMP JUMPDEST PUSH1 0x0 DUP3 DUP3 MSTORE PUSH1 0x20 DUP3 ADD SWAP1 POP SWAP3 SWAP2 POP POP JUMP JUMPDEST PUSH1 0x0 PUSH2 0x619 DUP3 PUSH2 0x650 JUMP JUMPDEST SWAP1 POP SWAP2 SWAP1 POP JUMP JUMPDEST PUSH1 0x0 PUSH2 0x62B DUP3 PUSH2 0x650 JUMP JUMPDEST SWAP1 POP SWAP2 SWAP1 POP JUMP JUMPDEST PUSH1 0x0 DUP2 ISZERO ISZERO SWAP1 POP SWAP2 SWAP1 POP JUMP JUMPDEST PUSH1 0x0 PUSH2 0x649 DUP3 PUSH2 0x60E JUMP JUMPDEST SWAP1 POP SWAP2 SWAP1 POP JUMP JUMPDEST PUSH1 0x0 PUSH20 0xFFFFFFFFFFFFFFFFFFFFFFFFFFFFFFFFFFFFFFFF DUP3 AND SWAP1 POP SWAP2 SWAP1 POP JUMP JUMPDEST PUSH1 0x0 DUP2 SWAP1 POP SWAP2 SWAP1 POP JUMP JUMPDEST PUSH1 0x0 DUP1 REVERT JUMPDEST PUSH32 0x6E65656420696E697420626F756E747900000000000000000000000000000000 PUSH1 0x0 DUP3 ADD MSTORE POP JUMP JUMPDEST PUSH2 0x6B1 DUP2 PUSH2 0x60E JUMP JUMPDEST DUP2 EQ PUSH2 0x6BC JUMPI PUSH1 0x0 DUP1 REVERT JUMPDEST POP JUMP JUMPDEST PUSH2 0x6C8 DUP2 PUSH2 0x620 JUMP JUMPDEST DUP2 EQ PUSH2 0x6D3 JUMPI PUSH1 0x0 DUP1 REVERT JUMPDEST POP JUMP JUMPDEST PUSH2 0x6DF DUP2 PUSH2 0x632 JUMP JUMPDEST DUP2 EQ PUSH2 0x6EA JUMPI PUSH1 0x0 DUP1 REVERT JUMPDEST POP JUMP JUMPDEST PUSH2 0x6F6 DUP2 PUSH2 0x63E JUMP JUMPDEST DUP2 EQ PUSH2 0x701 JUMPI PUSH1 0x0 DUP1 REVERT JUMPDEST POP JUMP JUMPDEST PUSH2 0x70D DUP2 PUSH2 0x670 JUMP JUMPDEST DUP2 EQ PUSH2 0x718 JUMPI PUSH1 0x0 DUP1 REVERT JUMPDEST POP JUMP INVALID LOG2 PUSH5 0x6970667358 0x22 SLT KECCAK256 0xB1 0x2B KECCAK256 0xD SWAP1 MSIZE 0xFC BALANCE 0xF7 0xA9 ADDMOD 0x5D 0xDE 0xC1 DUP14 0xE1 0xDB DUP8 0x1E SLT PUSH32 0xA6541015F839292D49FA4E64736F6C63430008070033A2646970667358221220 0xBB 0xE SMOD 0xD8 0xAD 0xE1 0x1E SWAP9 SHR 0xD6 0x22 0xF7 0xF7 PUSH16 0xC9E686C5CEEF7C4FCC741CFD1914606 SHR SAR PUSH5 0x736F6C6343 STOP ADDMOD SMOD STOP CALLER "
				},
				"gasEstimates": {
					"creation": {
						"codeDepositCost": "913800",
						"executionCost": "73747",
						"totalCost": "987547"
					},
					"external": {
						"": "157",
						"createBounty()": "infinite",
						"invest(string,address,uint256,uint256)": "infinite",
						"suicide0(address)": "30198",
						"transferOwnership(address)": "30694"
					}
				},
				"methodIdentifiers": {
					"createBounty()": "2bef7c7f",
					"invest(string,address,uint256,uint256)": "46964a0a",
					"suicide0(address)": "14da447f",
					"transferOwnership(address)": "f2fde38b"
				}
			},
			"storageLayout": {
				"storage": [
					{
						"astId": 212,
						"contract": "contracts/Bounty.sol:Bounty",
						"label": "_owner",
						"offset": 0,
						"slot": "0",
						"type": "t_address"
					},
					{
						"astId": 214,
						"contract": "contracts/Bounty.sol:Bounty",
						"label": "_coinbase",
						"offset": 0,
						"slot": "1",
						"type": "t_address_payable"
					},
					{
						"astId": 14,
						"contract": "contracts/Bounty.sol:Bounty",
						"label": "bountyAddressList",
						"offset": 0,
						"slot": "2",
						"type": "t_array(t_contract(BountyAddr)208)dyn_storage"
					},
					{
						"astId": 20,
						"contract": "contracts/Bounty.sol:Bounty",
						"label": "_stableAddr",
						"offset": 0,
						"slot": "3",
						"type": "t_address"
					}
				],
				"types": {
					"t_address": {
						"encoding": "inplace",
						"label": "address",
						"numberOfBytes": "20"
					},
					"t_address_payable": {
						"encoding": "inplace",
						"label": "address payable",
						"numberOfBytes": "20"
					},
					"t_array(t_contract(BountyAddr)208)dyn_storage": {
						"base": "t_contract(BountyAddr)208",
						"encoding": "dynamic_array",
						"label": "contract BountyAddr[]",
						"numberOfBytes": "32"
					},
					"t_contract(BountyAddr)208": {
						"encoding": "inplace",
						"label": "contract BountyAddr",
						"numberOfBytes": "20"
					}
				}
			},
			"userdoc": {
				"kind": "user",
				"methods": {},
				"version": 1
			}
		}
	}
}