{
	"contracts/Bounty.sol": {
		"Bounty": {
			"abi": [
				{
					"inputs": [],
					"stateMutability": "nonpayable",
					"type": "constructor"
				},
				{
					"anonymous": false,
					"inputs": [
						{
							"indexed": true,
							"internalType": "address",
							"name": "previousOwner",
							"type": "address"
						},
						{
							"indexed": true,
							"internalType": "address",
							"name": "newOwner",
							"type": "address"
						}
					],
					"name": "OwnershipTransferred",
					"type": "event"
				},
				{
					"anonymous": false,
					"inputs": [
						{
							"indexed": false,
							"internalType": "string",
							"name": "discoId",
							"type": "string"
						}
					],
					"name": "createdBounty",
					"type": "event"
				},
				{
					"stateMutability": "payable",
					"type": "fallback"
				},
				{
					"inputs": [
						{
							"internalType": "string",
							"name": "",
							"type": "string"
						}
					],
					"name": "bountyAddress",
					"outputs": [
						{
							"internalType": "contract BountyAddr",
							"name": "",
							"type": "address"
						}
					],
					"stateMutability": "view",
					"type": "function"
				},
				{
					"inputs": [
						{
							"internalType": "address",
							"name": "stableAddr",
							"type": "address"
						},
						{
							"internalType": "string",
							"name": "bountyId",
							"type": "string"
						}
					],
					"name": "createBounty",
					"outputs": [],
					"stateMutability": "payable",
					"type": "function"
				},
				{
					"inputs": [
						{
							"internalType": "string",
							"name": "id",
							"type": "string"
						},
						{
							"internalType": "address payable",
							"name": "oriSender",
							"type": "address"
						},
						{
							"internalType": "uint256",
							"name": "oriVal",
							"type": "uint256"
						},
						{
							"internalType": "uint256",
							"name": "time",
							"type": "uint256"
						}
					],
					"name": "invest",
					"outputs": [],
					"stateMutability": "nonpayable",
					"type": "function"
				},
				{
					"inputs": [
						{
							"internalType": "address payable",
							"name": "receiver",
							"type": "address"
						}
					],
					"name": "suicide0",
					"outputs": [],
					"stateMutability": "nonpayable",
					"type": "function"
				},
				{
					"inputs": [
						{
							"internalType": "address",
							"name": "newOwner",
							"type": "address"
						}
					],
					"name": "transferOwnership",
					"outputs": [],
					"stateMutability": "nonpayable",
					"type": "function"
				},
				{
					"stateMutability": "payable",
					"type": "receive"
				}
			],
			"devdoc": {
				"kind": "dev",
				"methods": {},
				"version": 1
			},
			"evm": {
				"assembly": "    /* \"contracts/Bounty.sol\":143:749  contract Bounty is Base { ... */\n  mstore(0x40, 0x80)\n    /* \"contracts/Bounty.sol\":272:329  constructor() Base() {... */\n  callvalue\n  dup1\n  iszero\n  tag_1\n  jumpi\n  0x00\n  dup1\n  revert\ntag_1:\n  pop\n    /* \"contracts/base/Base.sol\":371:381  msg.sender */\n  caller\n    /* \"contracts/base/Base.sol\":362:368  _owner */\n  0x00\n  dup1\n    /* \"contracts/base/Base.sol\":362:381  _owner = msg.sender */\n  0x0100\n  exp\n  dup2\n  sload\n  dup2\n  0xffffffffffffffffffffffffffffffffffffffff\n  mul\n  not\n  and\n  swap1\n  dup4\n  0xffffffffffffffffffffffffffffffffffffffff\n  and\n  mul\n  or\n  swap1\n  sstore\n  pop\n    /* \"contracts/Bounty.sol\":312:322  msg.sender */\n  caller\n    /* \"contracts/Bounty.sol\":303:309  _owner */\n  0x00\n  dup1\n    /* \"contracts/Bounty.sol\":303:322  _owner = msg.sender */\n  0x0100\n  exp\n  dup2\n  sload\n  dup2\n  0xffffffffffffffffffffffffffffffffffffffff\n  mul\n  not\n  and\n  swap1\n  dup4\n  0xffffffffffffffffffffffffffffffffffffffff\n  and\n  mul\n  or\n  swap1\n  sstore\n  pop\n    /* \"contracts/Bounty.sol\":143:749  contract Bounty is Base { ... */\n  dataSize(sub_0)\n  dup1\n  dataOffset(sub_0)\n  0x00\n  codecopy\n  0x00\n  return\nstop\n\nsub_0: assembly {\n        /* \"contracts/Bounty.sol\":143:749  contract Bounty is Base { ... */\n      mstore(0x40, 0x80)\n      jumpi(tag_1, lt(calldatasize, 0x04))\n      shr(0xe0, calldataload(0x00))\n      dup1\n      0x0c3b11a7\n      eq\n      tag_3\n      jumpi\n      dup1\n      0x14da447f\n      eq\n      tag_4\n      jumpi\n      dup1\n      0x46964a0a\n      eq\n      tag_5\n      jumpi\n      dup1\n      0x859e0547\n      eq\n      tag_6\n      jumpi\n      dup1\n      0xf2fde38b\n      eq\n      tag_7\n      jumpi\n      jump(tag_2)\n    tag_1:\n      jumpi(tag_2, calldatasize)\n        /* \"contracts/base/Base.sol\":498:506  revert() */\n      0x00\n      dup1\n      revert\n        /* \"contracts/Bounty.sol\":143:749  contract Bounty is Base { ... */\n    tag_2:\n        /* \"contracts/base/Base.sol\":440:448  revert() */\n      0x00\n      dup1\n      revert\n        /* \"contracts/Bounty.sol\":215:265  mapping(string => BountyAddr) public bountyAddress */\n    tag_3:\n      callvalue\n      dup1\n      iszero\n      tag_12\n      jumpi\n      0x00\n      dup1\n      revert\n    tag_12:\n      pop\n      tag_13\n      0x04\n      dup1\n      calldatasize\n      sub\n      dup2\n      add\n      swap1\n      tag_14\n      swap2\n      swap1\n      tag_15\n      jump\t// in\n    tag_14:\n      tag_16\n      jump\t// in\n    tag_13:\n      mload(0x40)\n      tag_17\n      swap2\n      swap1\n      tag_18\n      jump\t// in\n    tag_17:\n      mload(0x40)\n      dup1\n      swap2\n      sub\n      swap1\n      return\n        /* \"contracts/base/Base.sol\":1009:1115  function suicide0(address payable receiver)... */\n    tag_4:\n      callvalue\n      dup1\n      iszero\n      tag_19\n      jumpi\n      0x00\n      dup1\n      revert\n    tag_19:\n      pop\n      tag_20\n      0x04\n      dup1\n      calldatasize\n      sub\n      dup2\n      add\n      swap1\n      tag_21\n      swap2\n      swap1\n      tag_22\n      jump\t// in\n    tag_21:\n      tag_23\n      jump\t// in\n    tag_20:\n      stop\n        /* \"contracts/Bounty.sol\":618:747  function invest(string memory id, address payable oriSender, uint256 oriVal, uint256 time) public {... */\n    tag_5:\n      callvalue\n      dup1\n      iszero\n      tag_24\n      jumpi\n      0x00\n      dup1\n      revert\n    tag_24:\n      pop\n      tag_25\n      0x04\n      dup1\n      calldatasize\n      sub\n      dup2\n      add\n      swap1\n      tag_26\n      swap2\n      swap1\n      tag_27\n      jump\t// in\n    tag_26:\n      tag_28\n      jump\t// in\n    tag_25:\n      stop\n        /* \"contracts/Bounty.sol\":335:612  function createBounty(address stableAddr, string memory bountyId) public payable {... */\n    tag_6:\n      tag_29\n      0x04\n      dup1\n      calldatasize\n      sub\n      dup2\n      add\n      swap1\n      tag_30\n      swap2\n      swap1\n      tag_31\n      jump\t// in\n    tag_30:\n      tag_32\n      jump\t// in\n    tag_29:\n      stop\n        /* \"contracts/base/Base.sol\":614:810  function transferOwnership(address newOwner) public virtual isOwner {... */\n    tag_7:\n      callvalue\n      dup1\n      iszero\n      tag_33\n      jumpi\n      0x00\n      dup1\n      revert\n    tag_33:\n      pop\n      tag_34\n      0x04\n      dup1\n      calldatasize\n      sub\n      dup2\n      add\n      swap1\n      tag_35\n      swap2\n      swap1\n      tag_36\n      jump\t// in\n    tag_35:\n      tag_37\n      jump\t// in\n    tag_34:\n      stop\n        /* \"contracts/Bounty.sol\":215:265  mapping(string => BountyAddr) public bountyAddress */\n    tag_16:\n      0x02\n      dup2\n      dup1\n      mload\n      0x20\n      dup2\n      add\n      dup3\n      add\n      dup1\n      mload\n      dup5\n      dup3\n      mstore\n      0x20\n      dup4\n      add\n      0x20\n      dup6\n      add\n      keccak256\n      dup2\n      dup4\n      mstore\n      dup1\n      swap6\n      pop\n      pop\n      pop\n      pop\n      pop\n      pop\n      0x00\n      swap2\n      pop\n      sload\n      swap1\n      0x0100\n      exp\n      swap1\n      div\n      0xffffffffffffffffffffffffffffffffffffffff\n      and\n      dup2\n      jump\t// out\n        /* \"contracts/base/Base.sol\":1009:1115  function suicide0(address payable receiver)... */\n    tag_23:\n        /* \"contracts/base/Base.sol\":303:309  _owner */\n      0x00\n      dup1\n      sload\n      swap1\n      0x0100\n      exp\n      swap1\n      div\n      0xffffffffffffffffffffffffffffffffffffffff\n      and\n        /* \"contracts/base/Base.sol\":289:309  msg.sender == _owner */\n      0xffffffffffffffffffffffffffffffffffffffff\n      and\n        /* \"contracts/base/Base.sol\":289:299  msg.sender */\n      caller\n        /* \"contracts/base/Base.sol\":289:309  msg.sender == _owner */\n      0xffffffffffffffffffffffffffffffffffffffff\n      and\n      eq\n        /* \"contracts/base/Base.sol\":282:310  assert(msg.sender == _owner) */\n      tag_39\n      jumpi\n      tag_40\n      tag_41\n      jump\t// in\n    tag_40:\n    tag_39:\n        /* \"contracts/base/Base.sol\":1099:1107  receiver */\n      dup1\n        /* \"contracts/base/Base.sol\":1086:1108  selfdestruct(receiver) */\n      0xffffffffffffffffffffffffffffffffffffffff\n      and\n      selfdestruct\n        /* \"contracts/Bounty.sol\":618:747  function invest(string memory id, address payable oriSender, uint256 oriVal, uint256 time) public {... */\n    tag_28:\n      pop\n      pop\n      pop\n      pop\n      jump\t// out\n        /* \"contracts/Bounty.sol\":335:612  function createBounty(address stableAddr, string memory bountyId) public payable {... */\n    tag_32:\n        /* \"contracts/Bounty.sol\":426:441  BountyAddr addr */\n      0x00\n        /* \"contracts/Bounty.sol\":459:467  bountyId */\n      dup2\n        /* \"contracts/Bounty.sol\":477:481  this */\n      address\n        /* \"contracts/Bounty.sol\":444:483  new BountyAddr(bountyId, address(this)) */\n      mload(0x40)\n      tag_45\n      swap1\n      tag_46\n      jump\t// in\n    tag_45:\n      tag_47\n      swap3\n      swap2\n      swap1\n      tag_48\n      jump\t// in\n    tag_47:\n      mload(0x40)\n      dup1\n      swap2\n      sub\n      swap1\n      0x00\n      create\n      dup1\n      iszero\n      dup1\n      iszero\n      tag_49\n      jumpi\n      returndatasize\n      0x00\n      dup1\n      returndatacopy\n      revert(0x00, returndatasize)\n    tag_49:\n      pop\n        /* \"contracts/Bounty.sol\":426:483  BountyAddr addr = new BountyAddr(bountyId, address(this)) */\n      swap1\n      pop\n        /* \"contracts/Bounty.sol\":493:497  addr */\n      dup1\n        /* \"contracts/Bounty.sol\":493:505  addr.getPool */\n      0xffffffffffffffffffffffffffffffffffffffff\n      and\n      0x026b1d5f\n        /* \"contracts/Bounty.sol\":493:507  addr.getPool() */\n      mload(0x40)\n      dup2\n      0xffffffff\n      and\n      0xe0\n      shl\n      dup2\n      mstore\n      0x04\n      add\n      0x20\n      mload(0x40)\n      dup1\n      dup4\n      sub\n      dup2\n      dup7\n      dup1\n      extcodesize\n      iszero\n      dup1\n      iszero\n      tag_50\n      jumpi\n      0x00\n      dup1\n      revert\n    tag_50:\n      pop\n      gas\n      staticcall\n      iszero\n      dup1\n      iszero\n      tag_52\n      jumpi\n      returndatasize\n      0x00\n      dup1\n      returndatacopy\n      revert(0x00, returndatasize)\n    tag_52:\n      pop\n      pop\n      pop\n      pop\n      mload(0x40)\n      returndatasize\n      not(0x1f)\n      0x1f\n      dup3\n      add\n      and\n      dup3\n      add\n      dup1\n      0x40\n      mstore\n      pop\n      dup2\n      add\n      swap1\n      tag_53\n      swap2\n      swap1\n      tag_54\n      jump\t// in\n    tag_53:\n        /* \"contracts/Bounty.sol\":493:516  addr.getPool().transfer */\n      0xffffffffffffffffffffffffffffffffffffffff\n      and\n        /* \"contracts/Bounty.sol\":493:527  addr.getPool().transfer(msg.value) */\n      0x08fc\n        /* \"contracts/Bounty.sol\":517:526  msg.value */\n      callvalue\n        /* \"contracts/Bounty.sol\":493:527  addr.getPool().transfer(msg.value) */\n      swap1\n      dup2\n      iszero\n      mul\n      swap1\n      mload(0x40)\n      0x00\n      mload(0x40)\n      dup1\n      dup4\n      sub\n      dup2\n      dup6\n      dup9\n      dup9\n      call\n      swap4\n      pop\n      pop\n      pop\n      pop\n      iszero\n      dup1\n      iszero\n      tag_56\n      jumpi\n      returndatasize\n      0x00\n      dup1\n      returndatacopy\n      revert(0x00, returndatasize)\n    tag_56:\n      pop\n        /* \"contracts/Bounty.sol\":563:567  addr */\n      dup1\n        /* \"contracts/Bounty.sol\":537:550  bountyAddress */\n      0x02\n        /* \"contracts/Bounty.sol\":551:559  bountyId */\n      dup4\n        /* \"contracts/Bounty.sol\":537:560  bountyAddress[bountyId] */\n      mload(0x40)\n      tag_57\n      swap2\n      swap1\n      tag_58\n      jump\t// in\n    tag_57:\n      swap1\n      dup2\n      mstore\n      0x20\n      add\n      mload(0x40)\n      dup1\n      swap2\n      sub\n      swap1\n      keccak256\n      0x00\n        /* \"contracts/Bounty.sol\":537:567  bountyAddress[bountyId] = addr */\n      0x0100\n      exp\n      dup2\n      sload\n      dup2\n      0xffffffffffffffffffffffffffffffffffffffff\n      mul\n      not\n      and\n      swap1\n      dup4\n      0xffffffffffffffffffffffffffffffffffffffff\n      and\n      mul\n      or\n      swap1\n      sstore\n      pop\n        /* \"contracts/Bounty.sol\":582:605  createdBounty(bountyId) */\n      0x10da9753e8e5347b65100331705a66228cad7e14bb54dd9244a7ae532f1c01f9\n        /* \"contracts/Bounty.sol\":596:604  bountyId */\n      dup3\n        /* \"contracts/Bounty.sol\":582:605  createdBounty(bountyId) */\n      mload(0x40)\n      tag_59\n      swap2\n      swap1\n      tag_60\n      jump\t// in\n    tag_59:\n      mload(0x40)\n      dup1\n      swap2\n      sub\n      swap1\n      log1\n        /* \"contracts/Bounty.sol\":416:612  {... */\n      pop\n        /* \"contracts/Bounty.sol\":335:612  function createBounty(address stableAddr, string memory bountyId) public payable {... */\n      pop\n      pop\n      jump\t// out\n        /* \"contracts/base/Base.sol\":614:810  function transferOwnership(address newOwner) public virtual isOwner {... */\n    tag_37:\n        /* \"contracts/base/Base.sol\":303:309  _owner */\n      0x00\n      dup1\n      sload\n      swap1\n      0x0100\n      exp\n      swap1\n      div\n      0xffffffffffffffffffffffffffffffffffffffff\n      and\n        /* \"contracts/base/Base.sol\":289:309  msg.sender == _owner */\n      0xffffffffffffffffffffffffffffffffffffffff\n      and\n        /* \"contracts/base/Base.sol\":289:299  msg.sender */\n      caller\n        /* \"contracts/base/Base.sol\":289:309  msg.sender == _owner */\n      0xffffffffffffffffffffffffffffffffffffffff\n      and\n      eq\n        /* \"contracts/base/Base.sol\":282:310  assert(msg.sender == _owner) */\n      tag_62\n      jumpi\n      tag_63\n      tag_41\n      jump\t// in\n    tag_63:\n    tag_62:\n        /* \"contracts/base/Base.sol\":720:721  0 */\n      0x00\n        /* \"contracts/base/Base.sol\":700:722  newOwner != address(0) */\n      0xffffffffffffffffffffffffffffffffffffffff\n      and\n        /* \"contracts/base/Base.sol\":700:708  newOwner */\n      dup2\n        /* \"contracts/base/Base.sol\":700:722  newOwner != address(0) */\n      0xffffffffffffffffffffffffffffffffffffffff\n      and\n      eq\n      iszero\n        /* \"contracts/base/Base.sol\":692:765  require(newOwner != address(0), \"Ownable: new owner is the zero address\") */\n      tag_65\n      jumpi\n      mload(0x40)\n      0x08c379a000000000000000000000000000000000000000000000000000000000\n      dup2\n      mstore\n      0x04\n      add\n      tag_66\n      swap1\n      tag_67\n      jump\t// in\n    tag_66:\n      mload(0x40)\n      dup1\n      swap2\n      sub\n      swap1\n      revert\n    tag_65:\n        /* \"contracts/base/Base.sol\":775:803  _transferOwnership(newOwner) */\n      tag_68\n        /* \"contracts/base/Base.sol\":794:802  newOwner */\n      dup2\n        /* \"contracts/base/Base.sol\":775:793  _transferOwnership */\n      tag_69\n        /* \"contracts/base/Base.sol\":775:803  _transferOwnership(newOwner) */\n      jump\t// in\n    tag_68:\n        /* \"contracts/base/Base.sol\":614:810  function transferOwnership(address newOwner) public virtual isOwner {... */\n      pop\n      jump\t// out\n        /* \"contracts/base/Base.sol\":816:1003  function _transferOwnership(address newOwner) internal virtual {... */\n    tag_69:\n        /* \"contracts/base/Base.sol\":889:905  address oldOwner */\n      0x00\n        /* \"contracts/base/Base.sol\":908:914  _owner */\n      dup1\n      0x00\n      swap1\n      sload\n      swap1\n      0x0100\n      exp\n      swap1\n      div\n      0xffffffffffffffffffffffffffffffffffffffff\n      and\n        /* \"contracts/base/Base.sol\":889:914  address oldOwner = _owner */\n      swap1\n      pop\n        /* \"contracts/base/Base.sol\":933:941  newOwner */\n      dup2\n        /* \"contracts/base/Base.sol\":924:930  _owner */\n      0x00\n      dup1\n        /* \"contracts/base/Base.sol\":924:941  _owner = newOwner */\n      0x0100\n      exp\n      dup2\n      sload\n      dup2\n      0xffffffffffffffffffffffffffffffffffffffff\n      mul\n      not\n      and\n      swap1\n      dup4\n      0xffffffffffffffffffffffffffffffffffffffff\n      and\n      mul\n      or\n      swap1\n      sstore\n      pop\n        /* \"contracts/base/Base.sol\":987:995  newOwner */\n      dup2\n        /* \"contracts/base/Base.sol\":956:996  OwnershipTransferred(oldOwner, newOwner) */\n      0xffffffffffffffffffffffffffffffffffffffff\n      and\n        /* \"contracts/base/Base.sol\":977:985  oldOwner */\n      dup2\n        /* \"contracts/base/Base.sol\":956:996  OwnershipTransferred(oldOwner, newOwner) */\n      0xffffffffffffffffffffffffffffffffffffffff\n      and\n      0x8be0079c531659141344cd1fd0a4f28419497f9722a3daafe3b4186f6b6457e0\n      mload(0x40)\n      mload(0x40)\n      dup1\n      swap2\n      sub\n      swap1\n      log3\n        /* \"contracts/base/Base.sol\":879:1003  {... */\n      pop\n        /* \"contracts/base/Base.sol\":816:1003  function _transferOwnership(address newOwner) internal virtual {... */\n      pop\n      jump\t// out\n    tag_46:\n      dataSize(sub_0)\n      dup1\n      dataOffset(sub_0)\n      dup4\n      codecopy\n      add\n      swap1\n      jump\t// out\n        /* \"#utility.yul\":7:419   */\n    tag_72:\n        /* \"#utility.yul\":85:90   */\n      0x00\n        /* \"#utility.yul\":110:176   */\n      tag_74\n        /* \"#utility.yul\":126:175   */\n      tag_75\n        /* \"#utility.yul\":168:174   */\n      dup5\n        /* \"#utility.yul\":126:175   */\n      tag_76\n      jump\t// in\n    tag_75:\n        /* \"#utility.yul\":110:176   */\n      tag_77\n      jump\t// in\n    tag_74:\n        /* \"#utility.yul\":101:176   */\n      swap1\n      pop\n        /* \"#utility.yul\":199:205   */\n      dup3\n        /* \"#utility.yul\":192:197   */\n      dup2\n        /* \"#utility.yul\":185:206   */\n      mstore\n        /* \"#utility.yul\":237:241   */\n      0x20\n        /* \"#utility.yul\":230:235   */\n      dup2\n        /* \"#utility.yul\":226:242   */\n      add\n        /* \"#utility.yul\":275:278   */\n      dup5\n        /* \"#utility.yul\":266:272   */\n      dup5\n        /* \"#utility.yul\":261:264   */\n      dup5\n        /* \"#utility.yul\":257:273   */\n      add\n        /* \"#utility.yul\":254:279   */\n      gt\n        /* \"#utility.yul\":251:363   */\n      iszero\n      tag_78\n      jumpi\n        /* \"#utility.yul\":282:361   */\n      tag_79\n      tag_80\n      jump\t// in\n    tag_79:\n        /* \"#utility.yul\":251:363   */\n    tag_78:\n        /* \"#utility.yul\":372:413   */\n      tag_81\n        /* \"#utility.yul\":406:412   */\n      dup5\n        /* \"#utility.yul\":401:404   */\n      dup3\n        /* \"#utility.yul\":396:399   */\n      dup6\n        /* \"#utility.yul\":372:413   */\n      tag_82\n      jump\t// in\n    tag_81:\n        /* \"#utility.yul\":91:419   */\n      pop\n        /* \"#utility.yul\":7:419   */\n      swap4\n      swap3\n      pop\n      pop\n      pop\n      jump\t// out\n        /* \"#utility.yul\":425:564   */\n    tag_83:\n        /* \"#utility.yul\":471:476   */\n      0x00\n        /* \"#utility.yul\":509:515   */\n      dup2\n        /* \"#utility.yul\":496:516   */\n      calldataload\n        /* \"#utility.yul\":487:516   */\n      swap1\n      pop\n        /* \"#utility.yul\":525:558   */\n      tag_85\n        /* \"#utility.yul\":552:557   */\n      dup2\n        /* \"#utility.yul\":525:558   */\n      tag_86\n      jump\t// in\n    tag_85:\n        /* \"#utility.yul\":425:564   */\n      swap3\n      swap2\n      pop\n      pop\n      jump\t// out\n        /* \"#utility.yul\":570:725   */\n    tag_87:\n        /* \"#utility.yul\":624:629   */\n      0x00\n        /* \"#utility.yul\":662:668   */\n      dup2\n        /* \"#utility.yul\":649:669   */\n      calldataload\n        /* \"#utility.yul\":640:669   */\n      swap1\n      pop\n        /* \"#utility.yul\":678:719   */\n      tag_89\n        /* \"#utility.yul\":713:718   */\n      dup2\n        /* \"#utility.yul\":678:719   */\n      tag_90\n      jump\t// in\n    tag_89:\n        /* \"#utility.yul\":570:725   */\n      swap3\n      swap2\n      pop\n      pop\n      jump\t// out\n        /* \"#utility.yul\":731:890   */\n    tag_91:\n        /* \"#utility.yul\":796:801   */\n      0x00\n        /* \"#utility.yul\":827:833   */\n      dup2\n        /* \"#utility.yul\":821:834   */\n      mload\n        /* \"#utility.yul\":812:834   */\n      swap1\n      pop\n        /* \"#utility.yul\":843:884   */\n      tag_93\n        /* \"#utility.yul\":878:883   */\n      dup2\n        /* \"#utility.yul\":843:884   */\n      tag_90\n      jump\t// in\n    tag_93:\n        /* \"#utility.yul\":731:890   */\n      swap3\n      swap2\n      pop\n      pop\n      jump\t// out\n        /* \"#utility.yul\":910:1250   */\n    tag_94:\n        /* \"#utility.yul\":966:971   */\n      0x00\n        /* \"#utility.yul\":1015:1018   */\n      dup3\n        /* \"#utility.yul\":1008:1012   */\n      0x1f\n        /* \"#utility.yul\":1000:1006   */\n      dup4\n        /* \"#utility.yul\":996:1013   */\n      add\n        /* \"#utility.yul\":992:1019   */\n      slt\n        /* \"#utility.yul\":982:1104   */\n      tag_96\n      jumpi\n        /* \"#utility.yul\":1023:1102   */\n      tag_97\n      tag_98\n      jump\t// in\n    tag_97:\n        /* \"#utility.yul\":982:1104   */\n    tag_96:\n        /* \"#utility.yul\":1140:1146   */\n      dup2\n        /* \"#utility.yul\":1127:1147   */\n      calldataload\n        /* \"#utility.yul\":1165:1244   */\n      tag_99\n        /* \"#utility.yul\":1240:1243   */\n      dup5\n        /* \"#utility.yul\":1232:1238   */\n      dup3\n        /* \"#utility.yul\":1225:1229   */\n      0x20\n        /* \"#utility.yul\":1217:1223   */\n      dup7\n        /* \"#utility.yul\":1213:1230   */\n      add\n        /* \"#utility.yul\":1165:1244   */\n      tag_72\n      jump\t// in\n    tag_99:\n        /* \"#utility.yul\":1156:1244   */\n      swap2\n      pop\n        /* \"#utility.yul\":972:1250   */\n      pop\n        /* \"#utility.yul\":910:1250   */\n      swap3\n      swap2\n      pop\n      pop\n      jump\t// out\n        /* \"#utility.yul\":1256:1395   */\n    tag_100:\n        /* \"#utility.yul\":1302:1307   */\n      0x00\n        /* \"#utility.yul\":1340:1346   */\n      dup2\n        /* \"#utility.yul\":1327:1347   */\n      calldataload\n        /* \"#utility.yul\":1318:1347   */\n      swap1\n      pop\n        /* \"#utility.yul\":1356:1389   */\n      tag_102\n        /* \"#utility.yul\":1383:1388   */\n      dup2\n        /* \"#utility.yul\":1356:1389   */\n      tag_103\n      jump\t// in\n    tag_102:\n        /* \"#utility.yul\":1256:1395   */\n      swap3\n      swap2\n      pop\n      pop\n      jump\t// out\n        /* \"#utility.yul\":1401:1730   */\n    tag_36:\n        /* \"#utility.yul\":1460:1466   */\n      0x00\n        /* \"#utility.yul\":1509:1511   */\n      0x20\n        /* \"#utility.yul\":1497:1506   */\n      dup3\n        /* \"#utility.yul\":1488:1495   */\n      dup5\n        /* \"#utility.yul\":1484:1507   */\n      sub\n        /* \"#utility.yul\":1480:1512   */\n      slt\n        /* \"#utility.yul\":1477:1596   */\n      iszero\n      tag_105\n      jumpi\n        /* \"#utility.yul\":1515:1594   */\n      tag_106\n      tag_107\n      jump\t// in\n    tag_106:\n        /* \"#utility.yul\":1477:1596   */\n    tag_105:\n        /* \"#utility.yul\":1635:1636   */\n      0x00\n        /* \"#utility.yul\":1660:1713   */\n      tag_108\n        /* \"#utility.yul\":1705:1712   */\n      dup5\n        /* \"#utility.yul\":1696:1702   */\n      dup3\n        /* \"#utility.yul\":1685:1694   */\n      dup6\n        /* \"#utility.yul\":1681:1703   */\n      add\n        /* \"#utility.yul\":1660:1713   */\n      tag_83\n      jump\t// in\n    tag_108:\n        /* \"#utility.yul\":1650:1713   */\n      swap2\n      pop\n        /* \"#utility.yul\":1606:1723   */\n      pop\n        /* \"#utility.yul\":1401:1730   */\n      swap3\n      swap2\n      pop\n      pop\n      jump\t// out\n        /* \"#utility.yul\":1736:2081   */\n    tag_22:\n        /* \"#utility.yul\":1803:1809   */\n      0x00\n        /* \"#utility.yul\":1852:1854   */\n      0x20\n        /* \"#utility.yul\":1840:1849   */\n      dup3\n        /* \"#utility.yul\":1831:1838   */\n      dup5\n        /* \"#utility.yul\":1827:1850   */\n      sub\n        /* \"#utility.yul\":1823:1855   */\n      slt\n        /* \"#utility.yul\":1820:1939   */\n      iszero\n      tag_110\n      jumpi\n        /* \"#utility.yul\":1858:1937   */\n      tag_111\n      tag_107\n      jump\t// in\n    tag_111:\n        /* \"#utility.yul\":1820:1939   */\n    tag_110:\n        /* \"#utility.yul\":1978:1979   */\n      0x00\n        /* \"#utility.yul\":2003:2064   */\n      tag_112\n        /* \"#utility.yul\":2056:2063   */\n      dup5\n        /* \"#utility.yul\":2047:2053   */\n      dup3\n        /* \"#utility.yul\":2036:2045   */\n      dup6\n        /* \"#utility.yul\":2032:2054   */\n      add\n        /* \"#utility.yul\":2003:2064   */\n      tag_87\n      jump\t// in\n    tag_112:\n        /* \"#utility.yul\":1993:2064   */\n      swap2\n      pop\n        /* \"#utility.yul\":1949:2074   */\n      pop\n        /* \"#utility.yul\":1736:2081   */\n      swap3\n      swap2\n      pop\n      pop\n      jump\t// out\n        /* \"#utility.yul\":2087:2454   */\n    tag_54:\n        /* \"#utility.yul\":2165:2171   */\n      0x00\n        /* \"#utility.yul\":2214:2216   */\n      0x20\n        /* \"#utility.yul\":2202:2211   */\n      dup3\n        /* \"#utility.yul\":2193:2200   */\n      dup5\n        /* \"#utility.yul\":2189:2212   */\n      sub\n        /* \"#utility.yul\":2185:2217   */\n      slt\n        /* \"#utility.yul\":2182:2301   */\n      iszero\n      tag_114\n      jumpi\n        /* \"#utility.yul\":2220:2299   */\n      tag_115\n      tag_107\n      jump\t// in\n    tag_115:\n        /* \"#utility.yul\":2182:2301   */\n    tag_114:\n        /* \"#utility.yul\":2340:2341   */\n      0x00\n        /* \"#utility.yul\":2365:2437   */\n      tag_116\n        /* \"#utility.yul\":2429:2436   */\n      dup5\n        /* \"#utility.yul\":2420:2426   */\n      dup3\n        /* \"#utility.yul\":2409:2418   */\n      dup6\n        /* \"#utility.yul\":2405:2427   */\n      add\n        /* \"#utility.yul\":2365:2437   */\n      tag_91\n      jump\t// in\n    tag_116:\n        /* \"#utility.yul\":2355:2437   */\n      swap2\n      pop\n        /* \"#utility.yul\":2311:2447   */\n      pop\n        /* \"#utility.yul\":2087:2454   */\n      swap3\n      swap2\n      pop\n      pop\n      jump\t// out\n        /* \"#utility.yul\":2460:3114   */\n    tag_31:\n        /* \"#utility.yul\":2538:2544   */\n      0x00\n        /* \"#utility.yul\":2546:2552   */\n      dup1\n        /* \"#utility.yul\":2595:2597   */\n      0x40\n        /* \"#utility.yul\":2583:2592   */\n      dup4\n        /* \"#utility.yul\":2574:2581   */\n      dup6\n        /* \"#utility.yul\":2570:2593   */\n      sub\n        /* \"#utility.yul\":2566:2598   */\n      slt\n        /* \"#utility.yul\":2563:2682   */\n      iszero\n      tag_118\n      jumpi\n        /* \"#utility.yul\":2601:2680   */\n      tag_119\n      tag_107\n      jump\t// in\n    tag_119:\n        /* \"#utility.yul\":2563:2682   */\n    tag_118:\n        /* \"#utility.yul\":2721:2722   */\n      0x00\n        /* \"#utility.yul\":2746:2799   */\n      tag_120\n        /* \"#utility.yul\":2791:2798   */\n      dup6\n        /* \"#utility.yul\":2782:2788   */\n      dup3\n        /* \"#utility.yul\":2771:2780   */\n      dup7\n        /* \"#utility.yul\":2767:2789   */\n      add\n        /* \"#utility.yul\":2746:2799   */\n      tag_83\n      jump\t// in\n    tag_120:\n        /* \"#utility.yul\":2736:2799   */\n      swap3\n      pop\n        /* \"#utility.yul\":2692:2809   */\n      pop\n        /* \"#utility.yul\":2876:2878   */\n      0x20\n        /* \"#utility.yul\":2865:2874   */\n      dup4\n        /* \"#utility.yul\":2861:2879   */\n      add\n        /* \"#utility.yul\":2848:2880   */\n      calldataload\n        /* \"#utility.yul\":2907:2925   */\n      0xffffffffffffffff\n        /* \"#utility.yul\":2899:2905   */\n      dup2\n        /* \"#utility.yul\":2896:2926   */\n      gt\n        /* \"#utility.yul\":2893:3010   */\n      iszero\n      tag_121\n      jumpi\n        /* \"#utility.yul\":2929:3008   */\n      tag_122\n      tag_123\n      jump\t// in\n    tag_122:\n        /* \"#utility.yul\":2893:3010   */\n    tag_121:\n        /* \"#utility.yul\":3034:3097   */\n      tag_124\n        /* \"#utility.yul\":3089:3096   */\n      dup6\n        /* \"#utility.yul\":3080:3086   */\n      dup3\n        /* \"#utility.yul\":3069:3078   */\n      dup7\n        /* \"#utility.yul\":3065:3087   */\n      add\n        /* \"#utility.yul\":3034:3097   */\n      tag_94\n      jump\t// in\n    tag_124:\n        /* \"#utility.yul\":3024:3097   */\n      swap2\n      pop\n        /* \"#utility.yul\":2819:3107   */\n      pop\n        /* \"#utility.yul\":2460:3114   */\n      swap3\n      pop\n      swap3\n      swap1\n      pop\n      jump\t// out\n        /* \"#utility.yul\":3120:3629   */\n    tag_15:\n        /* \"#utility.yul\":3189:3195   */\n      0x00\n        /* \"#utility.yul\":3238:3240   */\n      0x20\n        /* \"#utility.yul\":3226:3235   */\n      dup3\n        /* \"#utility.yul\":3217:3224   */\n      dup5\n        /* \"#utility.yul\":3213:3236   */\n      sub\n        /* \"#utility.yul\":3209:3241   */\n      slt\n        /* \"#utility.yul\":3206:3325   */\n      iszero\n      tag_126\n      jumpi\n        /* \"#utility.yul\":3244:3323   */\n      tag_127\n      tag_107\n      jump\t// in\n    tag_127:\n        /* \"#utility.yul\":3206:3325   */\n    tag_126:\n        /* \"#utility.yul\":3392:3393   */\n      0x00\n        /* \"#utility.yul\":3381:3390   */\n      dup3\n        /* \"#utility.yul\":3377:3394   */\n      add\n        /* \"#utility.yul\":3364:3395   */\n      calldataload\n        /* \"#utility.yul\":3422:3440   */\n      0xffffffffffffffff\n        /* \"#utility.yul\":3414:3420   */\n      dup2\n        /* \"#utility.yul\":3411:3441   */\n      gt\n        /* \"#utility.yul\":3408:3525   */\n      iszero\n      tag_128\n      jumpi\n        /* \"#utility.yul\":3444:3523   */\n      tag_129\n      tag_123\n      jump\t// in\n    tag_129:\n        /* \"#utility.yul\":3408:3525   */\n    tag_128:\n        /* \"#utility.yul\":3549:3612   */\n      tag_130\n        /* \"#utility.yul\":3604:3611   */\n      dup5\n        /* \"#utility.yul\":3595:3601   */\n      dup3\n        /* \"#utility.yul\":3584:3593   */\n      dup6\n        /* \"#utility.yul\":3580:3602   */\n      add\n        /* \"#utility.yul\":3549:3612   */\n      tag_94\n      jump\t// in\n    tag_130:\n        /* \"#utility.yul\":3539:3612   */\n      swap2\n      pop\n        /* \"#utility.yul\":3335:3622   */\n      pop\n        /* \"#utility.yul\":3120:3629   */\n      swap3\n      swap2\n      pop\n      pop\n      jump\t// out\n        /* \"#utility.yul\":3635:4596   */\n    tag_27:\n        /* \"#utility.yul\":3739:3745   */\n      0x00\n        /* \"#utility.yul\":3747:3753   */\n      dup1\n        /* \"#utility.yul\":3755:3761   */\n      0x00\n        /* \"#utility.yul\":3763:3769   */\n      dup1\n        /* \"#utility.yul\":3812:3815   */\n      0x80\n        /* \"#utility.yul\":3800:3809   */\n      dup6\n        /* \"#utility.yul\":3791:3798   */\n      dup8\n        /* \"#utility.yul\":3787:3810   */\n      sub\n        /* \"#utility.yul\":3783:3816   */\n      slt\n        /* \"#utility.yul\":3780:3900   */\n      iszero\n      tag_132\n      jumpi\n        /* \"#utility.yul\":3819:3898   */\n      tag_133\n      tag_107\n      jump\t// in\n    tag_133:\n        /* \"#utility.yul\":3780:3900   */\n    tag_132:\n        /* \"#utility.yul\":3967:3968   */\n      0x00\n        /* \"#utility.yul\":3956:3965   */\n      dup6\n        /* \"#utility.yul\":3952:3969   */\n      add\n        /* \"#utility.yul\":3939:3970   */\n      calldataload\n        /* \"#utility.yul\":3997:4015   */\n      0xffffffffffffffff\n        /* \"#utility.yul\":3989:3995   */\n      dup2\n        /* \"#utility.yul\":3986:4016   */\n      gt\n        /* \"#utility.yul\":3983:4100   */\n      iszero\n      tag_134\n      jumpi\n        /* \"#utility.yul\":4019:4098   */\n      tag_135\n      tag_123\n      jump\t// in\n    tag_135:\n        /* \"#utility.yul\":3983:4100   */\n    tag_134:\n        /* \"#utility.yul\":4124:4187   */\n      tag_136\n        /* \"#utility.yul\":4179:4186   */\n      dup8\n        /* \"#utility.yul\":4170:4176   */\n      dup3\n        /* \"#utility.yul\":4159:4168   */\n      dup9\n        /* \"#utility.yul\":4155:4177   */\n      add\n        /* \"#utility.yul\":4124:4187   */\n      tag_94\n      jump\t// in\n    tag_136:\n        /* \"#utility.yul\":4114:4187   */\n      swap5\n      pop\n        /* \"#utility.yul\":3910:4197   */\n      pop\n        /* \"#utility.yul\":4236:4238   */\n      0x20\n        /* \"#utility.yul\":4262:4323   */\n      tag_137\n        /* \"#utility.yul\":4315:4322   */\n      dup8\n        /* \"#utility.yul\":4306:4312   */\n      dup3\n        /* \"#utility.yul\":4295:4304   */\n      dup9\n        /* \"#utility.yul\":4291:4313   */\n      add\n        /* \"#utility.yul\":4262:4323   */\n      tag_87\n      jump\t// in\n    tag_137:\n        /* \"#utility.yul\":4252:4323   */\n      swap4\n      pop\n        /* \"#utility.yul\":4207:4333   */\n      pop\n        /* \"#utility.yul\":4372:4374   */\n      0x40\n        /* \"#utility.yul\":4398:4451   */\n      tag_138\n        /* \"#utility.yul\":4443:4450   */\n      dup8\n        /* \"#utility.yul\":4434:4440   */\n      dup3\n        /* \"#utility.yul\":4423:4432   */\n      dup9\n        /* \"#utility.yul\":4419:4441   */\n      add\n        /* \"#utility.yul\":4398:4451   */\n      tag_100\n      jump\t// in\n    tag_138:\n        /* \"#utility.yul\":4388:4451   */\n      swap3\n      pop\n        /* \"#utility.yul\":4343:4461   */\n      pop\n        /* \"#utility.yul\":4500:4502   */\n      0x60\n        /* \"#utility.yul\":4526:4579   */\n      tag_139\n        /* \"#utility.yul\":4571:4578   */\n      dup8\n        /* \"#utility.yul\":4562:4568   */\n      dup3\n        /* \"#utility.yul\":4551:4560   */\n      dup9\n        /* \"#utility.yul\":4547:4569   */\n      add\n        /* \"#utility.yul\":4526:4579   */\n      tag_100\n      jump\t// in\n    tag_139:\n        /* \"#utility.yul\":4516:4579   */\n      swap2\n      pop\n        /* \"#utility.yul\":4471:4589   */\n      pop\n        /* \"#utility.yul\":3635:4596   */\n      swap3\n      swap6\n      swap2\n      swap5\n      pop\n      swap3\n      pop\n      jump\t// out\n        /* \"#utility.yul\":4602:4720   */\n    tag_140:\n        /* \"#utility.yul\":4689:4713   */\n      tag_142\n        /* \"#utility.yul\":4707:4712   */\n      dup2\n        /* \"#utility.yul\":4689:4713   */\n      tag_143\n      jump\t// in\n    tag_142:\n        /* \"#utility.yul\":4684:4687   */\n      dup3\n        /* \"#utility.yul\":4677:4714   */\n      mstore\n        /* \"#utility.yul\":4602:4720   */\n      pop\n      pop\n      jump\t// out\n        /* \"#utility.yul\":4726:4909   */\n    tag_144:\n        /* \"#utility.yul\":4839:4902   */\n      tag_146\n        /* \"#utility.yul\":4896:4901   */\n      dup2\n        /* \"#utility.yul\":4839:4902   */\n      tag_147\n      jump\t// in\n    tag_146:\n        /* \"#utility.yul\":4834:4837   */\n      dup3\n        /* \"#utility.yul\":4827:4903   */\n      mstore\n        /* \"#utility.yul\":4726:4909   */\n      pop\n      pop\n      jump\t// out\n        /* \"#utility.yul\":4915:5279   */\n    tag_148:\n        /* \"#utility.yul\":5003:5006   */\n      0x00\n        /* \"#utility.yul\":5031:5070   */\n      tag_150\n        /* \"#utility.yul\":5064:5069   */\n      dup3\n        /* \"#utility.yul\":5031:5070   */\n      tag_151\n      jump\t// in\n    tag_150:\n        /* \"#utility.yul\":5086:5157   */\n      tag_152\n        /* \"#utility.yul\":5150:5156   */\n      dup2\n        /* \"#utility.yul\":5145:5148   */\n      dup6\n        /* \"#utility.yul\":5086:5157   */\n      tag_153\n      jump\t// in\n    tag_152:\n        /* \"#utility.yul\":5079:5157   */\n      swap4\n      pop\n        /* \"#utility.yul\":5166:5218   */\n      tag_154\n        /* \"#utility.yul\":5211:5217   */\n      dup2\n        /* \"#utility.yul\":5206:5209   */\n      dup6\n        /* \"#utility.yul\":5199:5203   */\n      0x20\n        /* \"#utility.yul\":5192:5197   */\n      dup7\n        /* \"#utility.yul\":5188:5204   */\n      add\n        /* \"#utility.yul\":5166:5218   */\n      tag_155\n      jump\t// in\n    tag_154:\n        /* \"#utility.yul\":5243:5272   */\n      tag_156\n        /* \"#utility.yul\":5265:5271   */\n      dup2\n        /* \"#utility.yul\":5243:5272   */\n      tag_157\n      jump\t// in\n    tag_156:\n        /* \"#utility.yul\":5238:5241   */\n      dup5\n        /* \"#utility.yul\":5234:5273   */\n      add\n        /* \"#utility.yul\":5227:5273   */\n      swap2\n      pop\n        /* \"#utility.yul\":5007:5279   */\n      pop\n        /* \"#utility.yul\":4915:5279   */\n      swap3\n      swap2\n      pop\n      pop\n      jump\t// out\n        /* \"#utility.yul\":5285:5662   */\n    tag_158:\n        /* \"#utility.yul\":5391:5394   */\n      0x00\n        /* \"#utility.yul\":5419:5458   */\n      tag_160\n        /* \"#utility.yul\":5452:5457   */\n      dup3\n        /* \"#utility.yul\":5419:5458   */\n      tag_151\n      jump\t// in\n    tag_160:\n        /* \"#utility.yul\":5474:5563   */\n      tag_161\n        /* \"#utility.yul\":5556:5562   */\n      dup2\n        /* \"#utility.yul\":5551:5554   */\n      dup6\n        /* \"#utility.yul\":5474:5563   */\n      tag_162\n      jump\t// in\n    tag_161:\n        /* \"#utility.yul\":5467:5563   */\n      swap4\n      pop\n        /* \"#utility.yul\":5572:5624   */\n      tag_163\n        /* \"#utility.yul\":5617:5623   */\n      dup2\n        /* \"#utility.yul\":5612:5615   */\n      dup6\n        /* \"#utility.yul\":5605:5609   */\n      0x20\n        /* \"#utility.yul\":5598:5603   */\n      dup7\n        /* \"#utility.yul\":5594:5610   */\n      add\n        /* \"#utility.yul\":5572:5624   */\n      tag_155\n      jump\t// in\n    tag_163:\n        /* \"#utility.yul\":5649:5655   */\n      dup1\n        /* \"#utility.yul\":5644:5647   */\n      dup5\n        /* \"#utility.yul\":5640:5656   */\n      add\n        /* \"#utility.yul\":5633:5656   */\n      swap2\n      pop\n        /* \"#utility.yul\":5395:5662   */\n      pop\n        /* \"#utility.yul\":5285:5662   */\n      swap3\n      swap2\n      pop\n      pop\n      jump\t// out\n        /* \"#utility.yul\":5668:6034   */\n    tag_164:\n        /* \"#utility.yul\":5810:5813   */\n      0x00\n        /* \"#utility.yul\":5831:5898   */\n      tag_166\n        /* \"#utility.yul\":5895:5897   */\n      0x26\n        /* \"#utility.yul\":5890:5893   */\n      dup4\n        /* \"#utility.yul\":5831:5898   */\n      tag_153\n      jump\t// in\n    tag_166:\n        /* \"#utility.yul\":5824:5898   */\n      swap2\n      pop\n        /* \"#utility.yul\":5907:6000   */\n      tag_167\n        /* \"#utility.yul\":5996:5999   */\n      dup3\n        /* \"#utility.yul\":5907:6000   */\n      tag_168\n      jump\t// in\n    tag_167:\n        /* \"#utility.yul\":6025:6027   */\n      0x40\n        /* \"#utility.yul\":6020:6023   */\n      dup3\n        /* \"#utility.yul\":6016:6028   */\n      add\n        /* \"#utility.yul\":6009:6028   */\n      swap1\n      pop\n        /* \"#utility.yul\":5668:6034   */\n      swap2\n      swap1\n      pop\n      jump\t// out\n        /* \"#utility.yul\":6040:6315   */\n    tag_58:\n        /* \"#utility.yul\":6172:6175   */\n      0x00\n        /* \"#utility.yul\":6194:6289   */\n      tag_170\n        /* \"#utility.yul\":6285:6288   */\n      dup3\n        /* \"#utility.yul\":6276:6282   */\n      dup5\n        /* \"#utility.yul\":6194:6289   */\n      tag_158\n      jump\t// in\n    tag_170:\n        /* \"#utility.yul\":6187:6289   */\n      swap2\n      pop\n        /* \"#utility.yul\":6306:6309   */\n      dup2\n        /* \"#utility.yul\":6299:6309   */\n      swap1\n      pop\n        /* \"#utility.yul\":6040:6315   */\n      swap3\n      swap2\n      pop\n      pop\n      jump\t// out\n        /* \"#utility.yul\":6321:6595   */\n    tag_18:\n        /* \"#utility.yul\":6440:6444   */\n      0x00\n        /* \"#utility.yul\":6478:6480   */\n      0x20\n        /* \"#utility.yul\":6467:6476   */\n      dup3\n        /* \"#utility.yul\":6463:6481   */\n      add\n        /* \"#utility.yul\":6455:6481   */\n      swap1\n      pop\n        /* \"#utility.yul\":6491:6588   */\n      tag_172\n        /* \"#utility.yul\":6585:6586   */\n      0x00\n        /* \"#utility.yul\":6574:6583   */\n      dup4\n        /* \"#utility.yul\":6570:6587   */\n      add\n        /* \"#utility.yul\":6561:6567   */\n      dup5\n        /* \"#utility.yul\":6491:6588   */\n      tag_144\n      jump\t// in\n    tag_172:\n        /* \"#utility.yul\":6321:6595   */\n      swap3\n      swap2\n      pop\n      pop\n      jump\t// out\n        /* \"#utility.yul\":6601:6914   */\n    tag_60:\n        /* \"#utility.yul\":6714:6718   */\n      0x00\n        /* \"#utility.yul\":6752:6754   */\n      0x20\n        /* \"#utility.yul\":6741:6750   */\n      dup3\n        /* \"#utility.yul\":6737:6755   */\n      add\n        /* \"#utility.yul\":6729:6755   */\n      swap1\n      pop\n        /* \"#utility.yul\":6801:6810   */\n      dup2\n        /* \"#utility.yul\":6795:6799   */\n      dup2\n        /* \"#utility.yul\":6791:6811   */\n      sub\n        /* \"#utility.yul\":6787:6788   */\n      0x00\n        /* \"#utility.yul\":6776:6785   */\n      dup4\n        /* \"#utility.yul\":6772:6789   */\n      add\n        /* \"#utility.yul\":6765:6812   */\n      mstore\n        /* \"#utility.yul\":6829:6907   */\n      tag_174\n        /* \"#utility.yul\":6902:6906   */\n      dup2\n        /* \"#utility.yul\":6893:6899   */\n      dup5\n        /* \"#utility.yul\":6829:6907   */\n      tag_148\n      jump\t// in\n    tag_174:\n        /* \"#utility.yul\":6821:6907   */\n      swap1\n      pop\n        /* \"#utility.yul\":6601:6914   */\n      swap3\n      swap2\n      pop\n      pop\n      jump\t// out\n        /* \"#utility.yul\":6920:7343   */\n    tag_48:\n        /* \"#utility.yul\":7061:7065   */\n      0x00\n        /* \"#utility.yul\":7099:7101   */\n      0x40\n        /* \"#utility.yul\":7088:7097   */\n      dup3\n        /* \"#utility.yul\":7084:7102   */\n      add\n        /* \"#utility.yul\":7076:7102   */\n      swap1\n      pop\n        /* \"#utility.yul\":7148:7157   */\n      dup2\n        /* \"#utility.yul\":7142:7146   */\n      dup2\n        /* \"#utility.yul\":7138:7158   */\n      sub\n        /* \"#utility.yul\":7134:7135   */\n      0x00\n        /* \"#utility.yul\":7123:7132   */\n      dup4\n        /* \"#utility.yul\":7119:7136   */\n      add\n        /* \"#utility.yul\":7112:7159   */\n      mstore\n        /* \"#utility.yul\":7176:7254   */\n      tag_176\n        /* \"#utility.yul\":7249:7253   */\n      dup2\n        /* \"#utility.yul\":7240:7246   */\n      dup6\n        /* \"#utility.yul\":7176:7254   */\n      tag_148\n      jump\t// in\n    tag_176:\n        /* \"#utility.yul\":7168:7254   */\n      swap1\n      pop\n        /* \"#utility.yul\":7264:7336   */\n      tag_177\n        /* \"#utility.yul\":7332:7334   */\n      0x20\n        /* \"#utility.yul\":7321:7330   */\n      dup4\n        /* \"#utility.yul\":7317:7335   */\n      add\n        /* \"#utility.yul\":7308:7314   */\n      dup5\n        /* \"#utility.yul\":7264:7336   */\n      tag_140\n      jump\t// in\n    tag_177:\n        /* \"#utility.yul\":6920:7343   */\n      swap4\n      swap3\n      pop\n      pop\n      pop\n      jump\t// out\n        /* \"#utility.yul\":7349:7768   */\n    tag_67:\n        /* \"#utility.yul\":7515:7519   */\n      0x00\n        /* \"#utility.yul\":7553:7555   */\n      0x20\n        /* \"#utility.yul\":7542:7551   */\n      dup3\n        /* \"#utility.yul\":7538:7556   */\n      add\n        /* \"#utility.yul\":7530:7556   */\n      swap1\n      pop\n        /* \"#utility.yul\":7602:7611   */\n      dup2\n        /* \"#utility.yul\":7596:7600   */\n      dup2\n        /* \"#utility.yul\":7592:7612   */\n      sub\n        /* \"#utility.yul\":7588:7589   */\n      0x00\n        /* \"#utility.yul\":7577:7586   */\n      dup4\n        /* \"#utility.yul\":7573:7590   */\n      add\n        /* \"#utility.yul\":7566:7613   */\n      mstore\n        /* \"#utility.yul\":7630:7761   */\n      tag_179\n        /* \"#utility.yul\":7756:7760   */\n      dup2\n        /* \"#utility.yul\":7630:7761   */\n      tag_164\n      jump\t// in\n    tag_179:\n        /* \"#utility.yul\":7622:7761   */\n      swap1\n      pop\n        /* \"#utility.yul\":7349:7768   */\n      swap2\n      swap1\n      pop\n      jump\t// out\n        /* \"#utility.yul\":7774:7903   */\n    tag_77:\n        /* \"#utility.yul\":7808:7814   */\n      0x00\n        /* \"#utility.yul\":7835:7855   */\n      tag_181\n      tag_182\n      jump\t// in\n    tag_181:\n        /* \"#utility.yul\":7825:7855   */\n      swap1\n      pop\n        /* \"#utility.yul\":7864:7897   */\n      tag_183\n        /* \"#utility.yul\":7892:7896   */\n      dup3\n        /* \"#utility.yul\":7884:7890   */\n      dup3\n        /* \"#utility.yul\":7864:7897   */\n      tag_184\n      jump\t// in\n    tag_183:\n        /* \"#utility.yul\":7774:7903   */\n      swap2\n      swap1\n      pop\n      jump\t// out\n        /* \"#utility.yul\":7909:7984   */\n    tag_182:\n        /* \"#utility.yul\":7942:7948   */\n      0x00\n        /* \"#utility.yul\":7975:7977   */\n      0x40\n        /* \"#utility.yul\":7969:7978   */\n      mload\n        /* \"#utility.yul\":7959:7978   */\n      swap1\n      pop\n        /* \"#utility.yul\":7909:7984   */\n      swap1\n      jump\t// out\n        /* \"#utility.yul\":7990:8298   */\n    tag_76:\n        /* \"#utility.yul\":8052:8056   */\n      0x00\n        /* \"#utility.yul\":8142:8160   */\n      0xffffffffffffffff\n        /* \"#utility.yul\":8134:8140   */\n      dup3\n        /* \"#utility.yul\":8131:8161   */\n      gt\n        /* \"#utility.yul\":8128:8184   */\n      iszero\n      tag_187\n      jumpi\n        /* \"#utility.yul\":8164:8182   */\n      tag_188\n      tag_189\n      jump\t// in\n    tag_188:\n        /* \"#utility.yul\":8128:8184   */\n    tag_187:\n        /* \"#utility.yul\":8202:8231   */\n      tag_190\n        /* \"#utility.yul\":8224:8230   */\n      dup3\n        /* \"#utility.yul\":8202:8231   */\n      tag_157\n      jump\t// in\n    tag_190:\n        /* \"#utility.yul\":8194:8231   */\n      swap1\n      pop\n        /* \"#utility.yul\":8286:8290   */\n      0x20\n        /* \"#utility.yul\":8280:8284   */\n      dup2\n        /* \"#utility.yul\":8276:8291   */\n      add\n        /* \"#utility.yul\":8268:8291   */\n      swap1\n      pop\n        /* \"#utility.yul\":7990:8298   */\n      swap2\n      swap1\n      pop\n      jump\t// out\n        /* \"#utility.yul\":8304:8403   */\n    tag_151:\n        /* \"#utility.yul\":8356:8362   */\n      0x00\n        /* \"#utility.yul\":8390:8395   */\n      dup2\n        /* \"#utility.yul\":8384:8396   */\n      mload\n        /* \"#utility.yul\":8374:8396   */\n      swap1\n      pop\n        /* \"#utility.yul\":8304:8403   */\n      swap2\n      swap1\n      pop\n      jump\t// out\n        /* \"#utility.yul\":8409:8578   */\n    tag_153:\n        /* \"#utility.yul\":8493:8504   */\n      0x00\n        /* \"#utility.yul\":8527:8533   */\n      dup3\n        /* \"#utility.yul\":8522:8525   */\n      dup3\n        /* \"#utility.yul\":8515:8534   */\n      mstore\n        /* \"#utility.yul\":8567:8571   */\n      0x20\n        /* \"#utility.yul\":8562:8565   */\n      dup3\n        /* \"#utility.yul\":8558:8572   */\n      add\n        /* \"#utility.yul\":8543:8572   */\n      swap1\n      pop\n        /* \"#utility.yul\":8409:8578   */\n      swap3\n      swap2\n      pop\n      pop\n      jump\t// out\n        /* \"#utility.yul\":8584:8732   */\n    tag_162:\n        /* \"#utility.yul\":8686:8697   */\n      0x00\n        /* \"#utility.yul\":8723:8726   */\n      dup2\n        /* \"#utility.yul\":8708:8726   */\n      swap1\n      pop\n        /* \"#utility.yul\":8584:8732   */\n      swap3\n      swap2\n      pop\n      pop\n      jump\t// out\n        /* \"#utility.yul\":8738:8834   */\n    tag_143:\n        /* \"#utility.yul\":8775:8782   */\n      0x00\n        /* \"#utility.yul\":8804:8828   */\n      tag_195\n        /* \"#utility.yul\":8822:8827   */\n      dup3\n        /* \"#utility.yul\":8804:8828   */\n      tag_196\n      jump\t// in\n    tag_195:\n        /* \"#utility.yul\":8793:8828   */\n      swap1\n      pop\n        /* \"#utility.yul\":8738:8834   */\n      swap2\n      swap1\n      pop\n      jump\t// out\n        /* \"#utility.yul\":8840:8944   */\n    tag_197:\n        /* \"#utility.yul\":8885:8892   */\n      0x00\n        /* \"#utility.yul\":8914:8938   */\n      tag_199\n        /* \"#utility.yul\":8932:8937   */\n      dup3\n        /* \"#utility.yul\":8914:8938   */\n      tag_196\n      jump\t// in\n    tag_199:\n        /* \"#utility.yul\":8903:8938   */\n      swap1\n      pop\n        /* \"#utility.yul\":8840:8944   */\n      swap2\n      swap1\n      pop\n      jump\t// out\n        /* \"#utility.yul\":8950:9076   */\n    tag_196:\n        /* \"#utility.yul\":8987:8994   */\n      0x00\n        /* \"#utility.yul\":9027:9069   */\n      0xffffffffffffffffffffffffffffffffffffffff\n        /* \"#utility.yul\":9020:9025   */\n      dup3\n        /* \"#utility.yul\":9016:9070   */\n      and\n        /* \"#utility.yul\":9005:9070   */\n      swap1\n      pop\n        /* \"#utility.yul\":8950:9076   */\n      swap2\n      swap1\n      pop\n      jump\t// out\n        /* \"#utility.yul\":9082:9159   */\n    tag_201:\n        /* \"#utility.yul\":9119:9126   */\n      0x00\n        /* \"#utility.yul\":9148:9153   */\n      dup2\n        /* \"#utility.yul\":9137:9153   */\n      swap1\n      pop\n        /* \"#utility.yul\":9082:9159   */\n      swap2\n      swap1\n      pop\n      jump\t// out\n        /* \"#utility.yul\":9165:9325   */\n    tag_147:\n        /* \"#utility.yul\":9241:9250   */\n      0x00\n        /* \"#utility.yul\":9274:9319   */\n      tag_204\n        /* \"#utility.yul\":9313:9318   */\n      dup3\n        /* \"#utility.yul\":9274:9319   */\n      tag_205\n      jump\t// in\n    tag_204:\n        /* \"#utility.yul\":9261:9319   */\n      swap1\n      pop\n        /* \"#utility.yul\":9165:9325   */\n      swap2\n      swap1\n      pop\n      jump\t// out\n        /* \"#utility.yul\":9331:9465   */\n    tag_205:\n        /* \"#utility.yul\":9389:9398   */\n      0x00\n        /* \"#utility.yul\":9422:9459   */\n      tag_207\n        /* \"#utility.yul\":9453:9458   */\n      dup3\n        /* \"#utility.yul\":9422:9459   */\n      tag_208\n      jump\t// in\n    tag_207:\n        /* \"#utility.yul\":9409:9459   */\n      swap1\n      pop\n        /* \"#utility.yul\":9331:9465   */\n      swap2\n      swap1\n      pop\n      jump\t// out\n        /* \"#utility.yul\":9471:9584   */\n    tag_208:\n        /* \"#utility.yul\":9521:9530   */\n      0x00\n        /* \"#utility.yul\":9554:9578   */\n      tag_210\n        /* \"#utility.yul\":9572:9577   */\n      dup3\n        /* \"#utility.yul\":9554:9578   */\n      tag_196\n      jump\t// in\n    tag_210:\n        /* \"#utility.yul\":9541:9578   */\n      swap1\n      pop\n        /* \"#utility.yul\":9471:9584   */\n      swap2\n      swap1\n      pop\n      jump\t// out\n        /* \"#utility.yul\":9590:9744   */\n    tag_82:\n        /* \"#utility.yul\":9674:9680   */\n      dup3\n        /* \"#utility.yul\":9669:9672   */\n      dup2\n        /* \"#utility.yul\":9664:9667   */\n      dup4\n        /* \"#utility.yul\":9651:9681   */\n      calldatacopy\n        /* \"#utility.yul\":9736:9737   */\n      0x00\n        /* \"#utility.yul\":9727:9733   */\n      dup4\n        /* \"#utility.yul\":9722:9725   */\n      dup4\n        /* \"#utility.yul\":9718:9734   */\n      add\n        /* \"#utility.yul\":9711:9738   */\n      mstore\n        /* \"#utility.yul\":9590:9744   */\n      pop\n      pop\n      pop\n      jump\t// out\n        /* \"#utility.yul\":9750:10057   */\n    tag_155:\n        /* \"#utility.yul\":9818:9819   */\n      0x00\n        /* \"#utility.yul\":9828:9941   */\n    tag_213:\n        /* \"#utility.yul\":9842:9848   */\n      dup4\n        /* \"#utility.yul\":9839:9840   */\n      dup2\n        /* \"#utility.yul\":9836:9849   */\n      lt\n        /* \"#utility.yul\":9828:9941   */\n      iszero\n      tag_215\n      jumpi\n        /* \"#utility.yul\":9927:9928   */\n      dup1\n        /* \"#utility.yul\":9922:9925   */\n      dup3\n        /* \"#utility.yul\":9918:9929   */\n      add\n        /* \"#utility.yul\":9912:9930   */\n      mload\n        /* \"#utility.yul\":9908:9909   */\n      dup2\n        /* \"#utility.yul\":9903:9906   */\n      dup5\n        /* \"#utility.yul\":9899:9910   */\n      add\n        /* \"#utility.yul\":9892:9931   */\n      mstore\n        /* \"#utility.yul\":9864:9866   */\n      0x20\n        /* \"#utility.yul\":9861:9862   */\n      dup2\n        /* \"#utility.yul\":9857:9867   */\n      add\n        /* \"#utility.yul\":9852:9867   */\n      swap1\n      pop\n        /* \"#utility.yul\":9828:9941   */\n      jump(tag_213)\n    tag_215:\n        /* \"#utility.yul\":9959:9965   */\n      dup4\n        /* \"#utility.yul\":9956:9957   */\n      dup2\n        /* \"#utility.yul\":9953:9966   */\n      gt\n        /* \"#utility.yul\":9950:10051   */\n      iszero\n      tag_216\n      jumpi\n        /* \"#utility.yul\":10039:10040   */\n      0x00\n        /* \"#utility.yul\":10030:10036   */\n      dup5\n        /* \"#utility.yul\":10025:10028   */\n      dup5\n        /* \"#utility.yul\":10021:10037   */\n      add\n        /* \"#utility.yul\":10014:10041   */\n      mstore\n        /* \"#utility.yul\":9950:10051   */\n    tag_216:\n        /* \"#utility.yul\":9799:10057   */\n      pop\n        /* \"#utility.yul\":9750:10057   */\n      pop\n      pop\n      pop\n      jump\t// out\n        /* \"#utility.yul\":10063:10344   */\n    tag_184:\n        /* \"#utility.yul\":10146:10173   */\n      tag_218\n        /* \"#utility.yul\":10168:10172   */\n      dup3\n        /* \"#utility.yul\":10146:10173   */\n      tag_157\n      jump\t// in\n    tag_218:\n        /* \"#utility.yul\":10138:10144   */\n      dup2\n        /* \"#utility.yul\":10134:10174   */\n      add\n        /* \"#utility.yul\":10276:10282   */\n      dup2\n        /* \"#utility.yul\":10264:10274   */\n      dup2\n        /* \"#utility.yul\":10261:10283   */\n      lt\n        /* \"#utility.yul\":10240:10258   */\n      0xffffffffffffffff\n        /* \"#utility.yul\":10228:10238   */\n      dup3\n        /* \"#utility.yul\":10225:10259   */\n      gt\n        /* \"#utility.yul\":10222:10284   */\n      or\n        /* \"#utility.yul\":10219:10307   */\n      iszero\n      tag_219\n      jumpi\n        /* \"#utility.yul\":10287:10305   */\n      tag_220\n      tag_189\n      jump\t// in\n    tag_220:\n        /* \"#utility.yul\":10219:10307   */\n    tag_219:\n        /* \"#utility.yul\":10327:10337   */\n      dup1\n        /* \"#utility.yul\":10323:10325   */\n      0x40\n        /* \"#utility.yul\":10316:10338   */\n      mstore\n        /* \"#utility.yul\":10106:10344   */\n      pop\n        /* \"#utility.yul\":10063:10344   */\n      pop\n      pop\n      jump\t// out\n        /* \"#utility.yul\":10350:10530   */\n    tag_41:\n        /* \"#utility.yul\":10398:10475   */\n      0x4e487b7100000000000000000000000000000000000000000000000000000000\n        /* \"#utility.yul\":10395:10396   */\n      0x00\n        /* \"#utility.yul\":10388:10476   */\n      mstore\n        /* \"#utility.yul\":10495:10499   */\n      0x01\n        /* \"#utility.yul\":10492:10493   */\n      0x04\n        /* \"#utility.yul\":10485:10500   */\n      mstore\n        /* \"#utility.yul\":10519:10523   */\n      0x24\n        /* \"#utility.yul\":10516:10517   */\n      0x00\n        /* \"#utility.yul\":10509:10524   */\n      revert\n        /* \"#utility.yul\":10536:10716   */\n    tag_189:\n        /* \"#utility.yul\":10584:10661   */\n      0x4e487b7100000000000000000000000000000000000000000000000000000000\n        /* \"#utility.yul\":10581:10582   */\n      0x00\n        /* \"#utility.yul\":10574:10662   */\n      mstore\n        /* \"#utility.yul\":10681:10685   */\n      0x41\n        /* \"#utility.yul\":10678:10679   */\n      0x04\n        /* \"#utility.yul\":10671:10686   */\n      mstore\n        /* \"#utility.yul\":10705:10709   */\n      0x24\n        /* \"#utility.yul\":10702:10703   */\n      0x00\n        /* \"#utility.yul\":10695:10710   */\n      revert\n        /* \"#utility.yul\":10722:10839   */\n    tag_98:\n        /* \"#utility.yul\":10831:10832   */\n      0x00\n        /* \"#utility.yul\":10828:10829   */\n      dup1\n        /* \"#utility.yul\":10821:10833   */\n      revert\n        /* \"#utility.yul\":10845:10962   */\n    tag_80:\n        /* \"#utility.yul\":10954:10955   */\n      0x00\n        /* \"#utility.yul\":10951:10952   */\n      dup1\n        /* \"#utility.yul\":10944:10956   */\n      revert\n        /* \"#utility.yul\":10968:11085   */\n    tag_123:\n        /* \"#utility.yul\":11077:11078   */\n      0x00\n        /* \"#utility.yul\":11074:11075   */\n      dup1\n        /* \"#utility.yul\":11067:11079   */\n      revert\n        /* \"#utility.yul\":11091:11208   */\n    tag_107:\n        /* \"#utility.yul\":11200:11201   */\n      0x00\n        /* \"#utility.yul\":11197:11198   */\n      dup1\n        /* \"#utility.yul\":11190:11202   */\n      revert\n        /* \"#utility.yul\":11214:11316   */\n    tag_157:\n        /* \"#utility.yul\":11255:11261   */\n      0x00\n        /* \"#utility.yul\":11306:11308   */\n      0x1f\n        /* \"#utility.yul\":11302:11309   */\n      not\n        /* \"#utility.yul\":11297:11299   */\n      0x1f\n        /* \"#utility.yul\":11290:11295   */\n      dup4\n        /* \"#utility.yul\":11286:11300   */\n      add\n        /* \"#utility.yul\":11282:11310   */\n      and\n        /* \"#utility.yul\":11272:11310   */\n      swap1\n      pop\n        /* \"#utility.yul\":11214:11316   */\n      swap2\n      swap1\n      pop\n      jump\t// out\n        /* \"#utility.yul\":11322:11547   */\n    tag_168:\n        /* \"#utility.yul\":11462:11496   */\n      0x4f776e61626c653a206e6577206f776e657220697320746865207a65726f2061\n        /* \"#utility.yul\":11458:11459   */\n      0x00\n        /* \"#utility.yul\":11450:11456   */\n      dup3\n        /* \"#utility.yul\":11446:11460   */\n      add\n        /* \"#utility.yul\":11439:11497   */\n      mstore\n        /* \"#utility.yul\":11531:11539   */\n      0x6464726573730000000000000000000000000000000000000000000000000000\n        /* \"#utility.yul\":11526:11528   */\n      0x20\n        /* \"#utility.yul\":11518:11524   */\n      dup3\n        /* \"#utility.yul\":11514:11529   */\n      add\n        /* \"#utility.yul\":11507:11540   */\n      mstore\n        /* \"#utility.yul\":11322:11547   */\n      pop\n      jump\t// out\n        /* \"#utility.yul\":11553:11675   */\n    tag_86:\n        /* \"#utility.yul\":11626:11650   */\n      tag_230\n        /* \"#utility.yul\":11644:11649   */\n      dup2\n        /* \"#utility.yul\":11626:11650   */\n      tag_143\n      jump\t// in\n    tag_230:\n        /* \"#utility.yul\":11619:11624   */\n      dup2\n        /* \"#utility.yul\":11616:11651   */\n      eq\n        /* \"#utility.yul\":11606:11669   */\n      tag_231\n      jumpi\n        /* \"#utility.yul\":11665:11666   */\n      0x00\n        /* \"#utility.yul\":11662:11663   */\n      dup1\n        /* \"#utility.yul\":11655:11667   */\n      revert\n        /* \"#utility.yul\":11606:11669   */\n    tag_231:\n        /* \"#utility.yul\":11553:11675   */\n      pop\n      jump\t// out\n        /* \"#utility.yul\":11681:11819   */\n    tag_90:\n        /* \"#utility.yul\":11762:11794   */\n      tag_233\n        /* \"#utility.yul\":11788:11793   */\n      dup2\n        /* \"#utility.yul\":11762:11794   */\n      tag_197\n      jump\t// in\n    tag_233:\n        /* \"#utility.yul\":11755:11760   */\n      dup2\n        /* \"#utility.yul\":11752:11795   */\n      eq\n        /* \"#utility.yul\":11742:11813   */\n      tag_234\n      jumpi\n        /* \"#utility.yul\":11809:11810   */\n      0x00\n        /* \"#utility.yul\":11806:11807   */\n      dup1\n        /* \"#utility.yul\":11799:11811   */\n      revert\n        /* \"#utility.yul\":11742:11813   */\n    tag_234:\n        /* \"#utility.yul\":11681:11819   */\n      pop\n      jump\t// out\n        /* \"#utility.yul\":11825:11947   */\n    tag_103:\n        /* \"#utility.yul\":11898:11922   */\n      tag_236\n        /* \"#utility.yul\":11916:11921   */\n      dup2\n        /* \"#utility.yul\":11898:11922   */\n      tag_201\n      jump\t// in\n    tag_236:\n        /* \"#utility.yul\":11891:11896   */\n      dup2\n        /* \"#utility.yul\":11888:11923   */\n      eq\n        /* \"#utility.yul\":11878:11941   */\n      tag_237\n      jumpi\n        /* \"#utility.yul\":11937:11938   */\n      0x00\n        /* \"#utility.yul\":11934:11935   */\n      dup1\n        /* \"#utility.yul\":11927:11939   */\n      revert\n        /* \"#utility.yul\":11878:11941   */\n    tag_237:\n        /* \"#utility.yul\":11825:11947   */\n      pop\n      jump\t// out\n    stop\n\n    sub_0: assembly {\n            /* \"contracts/Bounty.sol\":751:1949  contract BountyAddr {... */\n          mstore(0x40, 0x80)\n            /* \"contracts/Bounty.sol\":1102:1222  constructor(string memory bountyId, address bountyBase) {... */\n          callvalue\n          dup1\n          iszero\n          tag_1\n          jumpi\n          0x00\n          dup1\n          revert\n        tag_1:\n          pop\n          mload(0x40)\n          sub(codesize, bytecodeSize)\n          dup1\n          bytecodeSize\n          dup4\n          codecopy\n          dup2\n          dup2\n          add\n          0x40\n          mstore\n          dup2\n          add\n          swap1\n          tag_2\n          swap2\n          swap1\n          tag_3\n          jump\t// in\n        tag_2:\n            /* \"contracts/Bounty.sol\":1173:1181  bountyId */\n          dup2\n            /* \"contracts/Bounty.sol\":1168:1170  id */\n          0x01\n            /* \"contracts/Bounty.sol\":1168:1181  id = bountyId */\n          swap1\n          dup1\n          mload\n          swap1\n          0x20\n          add\n          swap1\n          tag_6\n          swap3\n          swap2\n          swap1\n          tag_7\n          jump\t// in\n        tag_6:\n          pop\n            /* \"contracts/Bounty.sol\":1205:1215  bountyBase */\n          dup1\n            /* \"contracts/Bounty.sol\":1191:1202  _bountyBase */\n          0x00\n          dup1\n            /* \"contracts/Bounty.sol\":1191:1215  _bountyBase = bountyBase */\n          0x0100\n          exp\n          dup2\n          sload\n          dup2\n          0xffffffffffffffffffffffffffffffffffffffff\n          mul\n          not\n          and\n          swap1\n          dup4\n          0xffffffffffffffffffffffffffffffffffffffff\n          and\n          mul\n          or\n          swap1\n          sstore\n          pop\n            /* \"contracts/Bounty.sol\":1102:1222  constructor(string memory bountyId, address bountyBase) {... */\n          pop\n          pop\n            /* \"contracts/Bounty.sol\":751:1949  contract BountyAddr {... */\n          jump(tag_8)\n        tag_7:\n          dup3\n          dup1\n          sload\n          tag_9\n          swap1\n          tag_10\n          jump\t// in\n        tag_9:\n          swap1\n          0x00\n          mstore\n          keccak256(0x00, 0x20)\n          swap1\n          0x1f\n          add\n          0x20\n          swap1\n          div\n          dup2\n          add\n          swap3\n          dup3\n          tag_12\n          jumpi\n          0x00\n          dup6\n          sstore\n          jump(tag_11)\n        tag_12:\n          dup3\n          0x1f\n          lt\n          tag_13\n          jumpi\n          dup1\n          mload\n          not(0xff)\n          and\n          dup4\n          dup1\n          add\n          or\n          dup6\n          sstore\n          jump(tag_11)\n        tag_13:\n          dup3\n          dup1\n          add\n          0x01\n          add\n          dup6\n          sstore\n          dup3\n          iszero\n          tag_11\n          jumpi\n          swap2\n          dup3\n          add\n        tag_14:\n          dup3\n          dup2\n          gt\n          iszero\n          tag_15\n          jumpi\n          dup3\n          mload\n          dup3\n          sstore\n          swap2\n          0x20\n          add\n          swap2\n          swap1\n          0x01\n          add\n          swap1\n          jump(tag_14)\n        tag_15:\n        tag_11:\n          pop\n          swap1\n          pop\n          tag_16\n          swap2\n          swap1\n          tag_17\n          jump\t// in\n        tag_16:\n          pop\n          swap1\n          jump\t// out\n        tag_17:\n        tag_18:\n          dup1\n          dup3\n          gt\n          iszero\n          tag_19\n          jumpi\n          0x00\n          dup2\n          0x00\n          swap1\n          sstore\n          pop\n          0x01\n          add\n          jump(tag_18)\n        tag_19:\n          pop\n          swap1\n          jump\t// out\n            /* \"#utility.yul\":7:428   */\n        tag_21:\n            /* \"#utility.yul\":96:101   */\n          0x00\n            /* \"#utility.yul\":121:187   */\n          tag_23\n            /* \"#utility.yul\":137:186   */\n          tag_24\n            /* \"#utility.yul\":179:185   */\n          dup5\n            /* \"#utility.yul\":137:186   */\n          tag_25\n          jump\t// in\n        tag_24:\n            /* \"#utility.yul\":121:187   */\n          tag_26\n          jump\t// in\n        tag_23:\n            /* \"#utility.yul\":112:187   */\n          swap1\n          pop\n            /* \"#utility.yul\":210:216   */\n          dup3\n            /* \"#utility.yul\":203:208   */\n          dup2\n            /* \"#utility.yul\":196:217   */\n          mstore\n            /* \"#utility.yul\":248:252   */\n          0x20\n            /* \"#utility.yul\":241:246   */\n          dup2\n            /* \"#utility.yul\":237:253   */\n          add\n            /* \"#utility.yul\":286:289   */\n          dup5\n            /* \"#utility.yul\":277:283   */\n          dup5\n            /* \"#utility.yul\":272:275   */\n          dup5\n            /* \"#utility.yul\":268:284   */\n          add\n            /* \"#utility.yul\":265:290   */\n          gt\n            /* \"#utility.yul\":262:374   */\n          iszero\n          tag_27\n          jumpi\n            /* \"#utility.yul\":293:372   */\n          tag_28\n          tag_29\n          jump\t// in\n        tag_28:\n            /* \"#utility.yul\":262:374   */\n        tag_27:\n            /* \"#utility.yul\":383:422   */\n          tag_30\n            /* \"#utility.yul\":415:421   */\n          dup5\n            /* \"#utility.yul\":410:413   */\n          dup3\n            /* \"#utility.yul\":405:408   */\n          dup6\n            /* \"#utility.yul\":383:422   */\n          tag_31\n          jump\t// in\n        tag_30:\n            /* \"#utility.yul\":102:428   */\n          pop\n            /* \"#utility.yul\":7:428   */\n          swap4\n          swap3\n          pop\n          pop\n          pop\n          jump\t// out\n            /* \"#utility.yul\":434:577   */\n        tag_32:\n            /* \"#utility.yul\":491:496   */\n          0x00\n            /* \"#utility.yul\":522:528   */\n          dup2\n            /* \"#utility.yul\":516:529   */\n          mload\n            /* \"#utility.yul\":507:529   */\n          swap1\n          pop\n            /* \"#utility.yul\":538:571   */\n          tag_34\n            /* \"#utility.yul\":565:570   */\n          dup2\n            /* \"#utility.yul\":538:571   */\n          tag_35\n          jump\t// in\n        tag_34:\n            /* \"#utility.yul\":434:577   */\n          swap3\n          swap2\n          pop\n          pop\n          jump\t// out\n            /* \"#utility.yul\":597:952   */\n        tag_36:\n            /* \"#utility.yul\":664:669   */\n          0x00\n            /* \"#utility.yul\":713:716   */\n          dup3\n            /* \"#utility.yul\":706:710   */\n          0x1f\n            /* \"#utility.yul\":698:704   */\n          dup4\n            /* \"#utility.yul\":694:711   */\n          add\n            /* \"#utility.yul\":690:717   */\n          slt\n            /* \"#utility.yul\":680:802   */\n          tag_38\n          jumpi\n            /* \"#utility.yul\":721:800   */\n          tag_39\n          tag_40\n          jump\t// in\n        tag_39:\n            /* \"#utility.yul\":680:802   */\n        tag_38:\n            /* \"#utility.yul\":831:837   */\n          dup2\n            /* \"#utility.yul\":825:838   */\n          mload\n            /* \"#utility.yul\":856:946   */\n          tag_41\n            /* \"#utility.yul\":942:945   */\n          dup5\n            /* \"#utility.yul\":934:940   */\n          dup3\n            /* \"#utility.yul\":927:931   */\n          0x20\n            /* \"#utility.yul\":919:925   */\n          dup7\n            /* \"#utility.yul\":915:932   */\n          add\n            /* \"#utility.yul\":856:946   */\n          tag_21\n          jump\t// in\n        tag_41:\n            /* \"#utility.yul\":847:946   */\n          swap2\n          pop\n            /* \"#utility.yul\":670:952   */\n          pop\n            /* \"#utility.yul\":597:952   */\n          swap3\n          swap2\n          pop\n          pop\n          jump\t// out\n            /* \"#utility.yul\":958:1638   */\n        tag_3:\n            /* \"#utility.yul\":1047:1053   */\n          0x00\n            /* \"#utility.yul\":1055:1061   */\n          dup1\n            /* \"#utility.yul\":1104:1106   */\n          0x40\n            /* \"#utility.yul\":1092:1101   */\n          dup4\n            /* \"#utility.yul\":1083:1090   */\n          dup6\n            /* \"#utility.yul\":1079:1102   */\n          sub\n            /* \"#utility.yul\":1075:1107   */\n          slt\n            /* \"#utility.yul\":1072:1191   */\n          iszero\n          tag_43\n          jumpi\n            /* \"#utility.yul\":1110:1189   */\n          tag_44\n          tag_45\n          jump\t// in\n        tag_44:\n            /* \"#utility.yul\":1072:1191   */\n        tag_43:\n            /* \"#utility.yul\":1251:1252   */\n          0x00\n            /* \"#utility.yul\":1240:1249   */\n          dup4\n            /* \"#utility.yul\":1236:1253   */\n          add\n            /* \"#utility.yul\":1230:1254   */\n          mload\n            /* \"#utility.yul\":1281:1299   */\n          0xffffffffffffffff\n            /* \"#utility.yul\":1273:1279   */\n          dup2\n            /* \"#utility.yul\":1270:1300   */\n          gt\n            /* \"#utility.yul\":1267:1384   */\n          iszero\n          tag_46\n          jumpi\n            /* \"#utility.yul\":1303:1382   */\n          tag_47\n          tag_48\n          jump\t// in\n        tag_47:\n            /* \"#utility.yul\":1267:1384   */\n        tag_46:\n            /* \"#utility.yul\":1408:1482   */\n          tag_49\n            /* \"#utility.yul\":1474:1481   */\n          dup6\n            /* \"#utility.yul\":1465:1471   */\n          dup3\n            /* \"#utility.yul\":1454:1463   */\n          dup7\n            /* \"#utility.yul\":1450:1472   */\n          add\n            /* \"#utility.yul\":1408:1482   */\n          tag_36\n          jump\t// in\n        tag_49:\n            /* \"#utility.yul\":1398:1482   */\n          swap3\n          pop\n            /* \"#utility.yul\":1201:1492   */\n          pop\n            /* \"#utility.yul\":1531:1533   */\n          0x20\n            /* \"#utility.yul\":1557:1621   */\n          tag_50\n            /* \"#utility.yul\":1613:1620   */\n          dup6\n            /* \"#utility.yul\":1604:1610   */\n          dup3\n            /* \"#utility.yul\":1593:1602   */\n          dup7\n            /* \"#utility.yul\":1589:1611   */\n          add\n            /* \"#utility.yul\":1557:1621   */\n          tag_32\n          jump\t// in\n        tag_50:\n            /* \"#utility.yul\":1547:1621   */\n          swap2\n          pop\n            /* \"#utility.yul\":1502:1631   */\n          pop\n            /* \"#utility.yul\":958:1638   */\n          swap3\n          pop\n          swap3\n          swap1\n          pop\n          jump\t// out\n            /* \"#utility.yul\":1644:1773   */\n        tag_26:\n            /* \"#utility.yul\":1678:1684   */\n          0x00\n            /* \"#utility.yul\":1705:1725   */\n          tag_52\n          tag_53\n          jump\t// in\n        tag_52:\n            /* \"#utility.yul\":1695:1725   */\n          swap1\n          pop\n            /* \"#utility.yul\":1734:1767   */\n          tag_54\n            /* \"#utility.yul\":1762:1766   */\n          dup3\n            /* \"#utility.yul\":1754:1760   */\n          dup3\n            /* \"#utility.yul\":1734:1767   */\n          tag_55\n          jump\t// in\n        tag_54:\n            /* \"#utility.yul\":1644:1773   */\n          swap2\n          swap1\n          pop\n          jump\t// out\n            /* \"#utility.yul\":1779:1854   */\n        tag_53:\n            /* \"#utility.yul\":1812:1818   */\n          0x00\n            /* \"#utility.yul\":1845:1847   */\n          0x40\n            /* \"#utility.yul\":1839:1848   */\n          mload\n            /* \"#utility.yul\":1829:1848   */\n          swap1\n          pop\n            /* \"#utility.yul\":1779:1854   */\n          swap1\n          jump\t// out\n            /* \"#utility.yul\":1860:2168   */\n        tag_25:\n            /* \"#utility.yul\":1922:1926   */\n          0x00\n            /* \"#utility.yul\":2012:2030   */\n          0xffffffffffffffff\n            /* \"#utility.yul\":2004:2010   */\n          dup3\n            /* \"#utility.yul\":2001:2031   */\n          gt\n            /* \"#utility.yul\":1998:2054   */\n          iszero\n          tag_58\n          jumpi\n            /* \"#utility.yul\":2034:2052   */\n          tag_59\n          tag_60\n          jump\t// in\n        tag_59:\n            /* \"#utility.yul\":1998:2054   */\n        tag_58:\n            /* \"#utility.yul\":2072:2101   */\n          tag_61\n            /* \"#utility.yul\":2094:2100   */\n          dup3\n            /* \"#utility.yul\":2072:2101   */\n          tag_62\n          jump\t// in\n        tag_61:\n            /* \"#utility.yul\":2064:2101   */\n          swap1\n          pop\n            /* \"#utility.yul\":2156:2160   */\n          0x20\n            /* \"#utility.yul\":2150:2154   */\n          dup2\n            /* \"#utility.yul\":2146:2161   */\n          add\n            /* \"#utility.yul\":2138:2161   */\n          swap1\n          pop\n            /* \"#utility.yul\":1860:2168   */\n          swap2\n          swap1\n          pop\n          jump\t// out\n            /* \"#utility.yul\":2174:2270   */\n        tag_63:\n            /* \"#utility.yul\":2211:2218   */\n          0x00\n            /* \"#utility.yul\":2240:2264   */\n          tag_65\n            /* \"#utility.yul\":2258:2263   */\n          dup3\n            /* \"#utility.yul\":2240:2264   */\n          tag_66\n          jump\t// in\n        tag_65:\n            /* \"#utility.yul\":2229:2264   */\n          swap1\n          pop\n            /* \"#utility.yul\":2174:2270   */\n          swap2\n          swap1\n          pop\n          jump\t// out\n            /* \"#utility.yul\":2276:2402   */\n        tag_66:\n            /* \"#utility.yul\":2313:2320   */\n          0x00\n            /* \"#utility.yul\":2353:2395   */\n          0xffffffffffffffffffffffffffffffffffffffff\n            /* \"#utility.yul\":2346:2351   */\n          dup3\n            /* \"#utility.yul\":2342:2396   */\n          and\n            /* \"#utility.yul\":2331:2396   */\n          swap1\n          pop\n            /* \"#utility.yul\":2276:2402   */\n          swap2\n          swap1\n          pop\n          jump\t// out\n            /* \"#utility.yul\":2408:2715   */\n        tag_31:\n            /* \"#utility.yul\":2476:2477   */\n          0x00\n            /* \"#utility.yul\":2486:2599   */\n        tag_69:\n            /* \"#utility.yul\":2500:2506   */\n          dup4\n            /* \"#utility.yul\":2497:2498   */\n          dup2\n            /* \"#utility.yul\":2494:2507   */\n          lt\n            /* \"#utility.yul\":2486:2599   */\n          iszero\n          tag_71\n          jumpi\n            /* \"#utility.yul\":2585:2586   */\n          dup1\n            /* \"#utility.yul\":2580:2583   */\n          dup3\n            /* \"#utility.yul\":2576:2587   */\n          add\n            /* \"#utility.yul\":2570:2588   */\n          mload\n            /* \"#utility.yul\":2566:2567   */\n          dup2\n            /* \"#utility.yul\":2561:2564   */\n          dup5\n            /* \"#utility.yul\":2557:2568   */\n          add\n            /* \"#utility.yul\":2550:2589   */\n          mstore\n            /* \"#utility.yul\":2522:2524   */\n          0x20\n            /* \"#utility.yul\":2519:2520   */\n          dup2\n            /* \"#utility.yul\":2515:2525   */\n          add\n            /* \"#utility.yul\":2510:2525   */\n          swap1\n          pop\n            /* \"#utility.yul\":2486:2599   */\n          jump(tag_69)\n        tag_71:\n            /* \"#utility.yul\":2617:2623   */\n          dup4\n            /* \"#utility.yul\":2614:2615   */\n          dup2\n            /* \"#utility.yul\":2611:2624   */\n          gt\n            /* \"#utility.yul\":2608:2709   */\n          iszero\n          tag_72\n          jumpi\n            /* \"#utility.yul\":2697:2698   */\n          0x00\n            /* \"#utility.yul\":2688:2694   */\n          dup5\n            /* \"#utility.yul\":2683:2686   */\n          dup5\n            /* \"#utility.yul\":2679:2695   */\n          add\n            /* \"#utility.yul\":2672:2699   */\n          mstore\n            /* \"#utility.yul\":2608:2709   */\n        tag_72:\n            /* \"#utility.yul\":2457:2715   */\n          pop\n            /* \"#utility.yul\":2408:2715   */\n          pop\n          pop\n          pop\n          jump\t// out\n            /* \"#utility.yul\":2721:3041   */\n        tag_10:\n            /* \"#utility.yul\":2765:2771   */\n          0x00\n            /* \"#utility.yul\":2802:2803   */\n          0x02\n            /* \"#utility.yul\":2796:2800   */\n          dup3\n            /* \"#utility.yul\":2792:2804   */\n          div\n            /* \"#utility.yul\":2782:2804   */\n          swap1\n          pop\n            /* \"#utility.yul\":2849:2850   */\n          0x01\n            /* \"#utility.yul\":2843:2847   */\n          dup3\n            /* \"#utility.yul\":2839:2851   */\n          and\n            /* \"#utility.yul\":2870:2888   */\n          dup1\n            /* \"#utility.yul\":2860:2941   */\n          tag_74\n          jumpi\n            /* \"#utility.yul\":2926:2930   */\n          0x7f\n            /* \"#utility.yul\":2918:2924   */\n          dup3\n            /* \"#utility.yul\":2914:2931   */\n          and\n            /* \"#utility.yul\":2904:2931   */\n          swap2\n          pop\n            /* \"#utility.yul\":2860:2941   */\n        tag_74:\n            /* \"#utility.yul\":2988:2990   */\n          0x20\n            /* \"#utility.yul\":2980:2986   */\n          dup3\n            /* \"#utility.yul\":2977:2991   */\n          lt\n            /* \"#utility.yul\":2957:2975   */\n          dup2\n            /* \"#utility.yul\":2954:2992   */\n          eq\n            /* \"#utility.yul\":2951:3035   */\n          iszero\n          tag_75\n          jumpi\n            /* \"#utility.yul\":3007:3025   */\n          tag_76\n          tag_77\n          jump\t// in\n        tag_76:\n            /* \"#utility.yul\":2951:3035   */\n        tag_75:\n            /* \"#utility.yul\":2772:3041   */\n          pop\n            /* \"#utility.yul\":2721:3041   */\n          swap2\n          swap1\n          pop\n          jump\t// out\n            /* \"#utility.yul\":3047:3328   */\n        tag_55:\n            /* \"#utility.yul\":3130:3157   */\n          tag_79\n            /* \"#utility.yul\":3152:3156   */\n          dup3\n            /* \"#utility.yul\":3130:3157   */\n          tag_62\n          jump\t// in\n        tag_79:\n            /* \"#utility.yul\":3122:3128   */\n          dup2\n            /* \"#utility.yul\":3118:3158   */\n          add\n            /* \"#utility.yul\":3260:3266   */\n          dup2\n            /* \"#utility.yul\":3248:3258   */\n          dup2\n            /* \"#utility.yul\":3245:3267   */\n          lt\n            /* \"#utility.yul\":3224:3242   */\n          0xffffffffffffffff\n            /* \"#utility.yul\":3212:3222   */\n          dup3\n            /* \"#utility.yul\":3209:3243   */\n          gt\n            /* \"#utility.yul\":3206:3268   */\n          or\n            /* \"#utility.yul\":3203:3291   */\n          iszero\n          tag_80\n          jumpi\n            /* \"#utility.yul\":3271:3289   */\n          tag_81\n          tag_60\n          jump\t// in\n        tag_81:\n            /* \"#utility.yul\":3203:3291   */\n        tag_80:\n            /* \"#utility.yul\":3311:3321   */\n          dup1\n            /* \"#utility.yul\":3307:3309   */\n          0x40\n            /* \"#utility.yul\":3300:3322   */\n          mstore\n            /* \"#utility.yul\":3090:3328   */\n          pop\n            /* \"#utility.yul\":3047:3328   */\n          pop\n          pop\n          jump\t// out\n            /* \"#utility.yul\":3334:3514   */\n        tag_77:\n            /* \"#utility.yul\":3382:3459   */\n          0x4e487b7100000000000000000000000000000000000000000000000000000000\n            /* \"#utility.yul\":3379:3380   */\n          0x00\n            /* \"#utility.yul\":3372:3460   */\n          mstore\n            /* \"#utility.yul\":3479:3483   */\n          0x22\n            /* \"#utility.yul\":3476:3477   */\n          0x04\n            /* \"#utility.yul\":3469:3484   */\n          mstore\n            /* \"#utility.yul\":3503:3507   */\n          0x24\n            /* \"#utility.yul\":3500:3501   */\n          0x00\n            /* \"#utility.yul\":3493:3508   */\n          revert\n            /* \"#utility.yul\":3520:3700   */\n        tag_60:\n            /* \"#utility.yul\":3568:3645   */\n          0x4e487b7100000000000000000000000000000000000000000000000000000000\n            /* \"#utility.yul\":3565:3566   */\n          0x00\n            /* \"#utility.yul\":3558:3646   */\n          mstore\n            /* \"#utility.yul\":3665:3669   */\n          0x41\n            /* \"#utility.yul\":3662:3663   */\n          0x04\n            /* \"#utility.yul\":3655:3670   */\n          mstore\n            /* \"#utility.yul\":3689:3693   */\n          0x24\n            /* \"#utility.yul\":3686:3687   */\n          0x00\n            /* \"#utility.yul\":3679:3694   */\n          revert\n            /* \"#utility.yul\":3706:3823   */\n        tag_40:\n            /* \"#utility.yul\":3815:3816   */\n          0x00\n            /* \"#utility.yul\":3812:3813   */\n          dup1\n            /* \"#utility.yul\":3805:3817   */\n          revert\n            /* \"#utility.yul\":3829:3946   */\n        tag_29:\n            /* \"#utility.yul\":3938:3939   */\n          0x00\n            /* \"#utility.yul\":3935:3936   */\n          dup1\n            /* \"#utility.yul\":3928:3940   */\n          revert\n            /* \"#utility.yul\":3952:4069   */\n        tag_48:\n            /* \"#utility.yul\":4061:4062   */\n          0x00\n            /* \"#utility.yul\":4058:4059   */\n          dup1\n            /* \"#utility.yul\":4051:4063   */\n          revert\n            /* \"#utility.yul\":4075:4192   */\n        tag_45:\n            /* \"#utility.yul\":4184:4185   */\n          0x00\n            /* \"#utility.yul\":4181:4182   */\n          dup1\n            /* \"#utility.yul\":4174:4186   */\n          revert\n            /* \"#utility.yul\":4198:4300   */\n        tag_62:\n            /* \"#utility.yul\":4239:4245   */\n          0x00\n            /* \"#utility.yul\":4290:4292   */\n          0x1f\n            /* \"#utility.yul\":4286:4293   */\n          not\n            /* \"#utility.yul\":4281:4283   */\n          0x1f\n            /* \"#utility.yul\":4274:4279   */\n          dup4\n            /* \"#utility.yul\":4270:4284   */\n          add\n            /* \"#utility.yul\":4266:4294   */\n          and\n            /* \"#utility.yul\":4256:4294   */\n          swap1\n          pop\n            /* \"#utility.yul\":4198:4300   */\n          swap2\n          swap1\n          pop\n          jump\t// out\n            /* \"#utility.yul\":4306:4428   */\n        tag_35:\n            /* \"#utility.yul\":4379:4403   */\n          tag_90\n            /* \"#utility.yul\":4397:4402   */\n          dup2\n            /* \"#utility.yul\":4379:4403   */\n          tag_63\n          jump\t// in\n        tag_90:\n            /* \"#utility.yul\":4372:4377   */\n          dup2\n            /* \"#utility.yul\":4369:4404   */\n          eq\n            /* \"#utility.yul\":4359:4422   */\n          tag_91\n          jumpi\n            /* \"#utility.yul\":4418:4419   */\n          0x00\n            /* \"#utility.yul\":4415:4416   */\n          dup1\n            /* \"#utility.yul\":4408:4420   */\n          revert\n            /* \"#utility.yul\":4359:4422   */\n        tag_91:\n            /* \"#utility.yul\":4306:4428   */\n          pop\n          jump\t// out\n            /* \"contracts/Bounty.sol\":751:1949  contract BountyAddr {... */\n        tag_8:\n          dataSize(sub_0)\n          dup1\n          dataOffset(sub_0)\n          0x00\n          codecopy\n          0x00\n          return\n        stop\n\n        sub_0: assembly {\n                /* \"contracts/Bounty.sol\":751:1949  contract BountyAddr {... */\n              mstore(0x40, 0x80)\n              jumpi(tag_1, lt(calldatasize, 0x04))\n              shr(0xe0, calldataload(0x00))\n              dup1\n              0xaf640d0f\n              gt\n              tag_10\n              jumpi\n              dup1\n              0xaf640d0f\n              eq\n              tag_6\n              jumpi\n              dup1\n              0xbeabacc8\n              eq\n              tag_7\n              jumpi\n              dup1\n              0xd0e30db0\n              eq\n              tag_8\n              jumpi\n              dup1\n              0xe1f21c67\n              eq\n              tag_9\n              jumpi\n              jump(tag_2)\n            tag_10:\n              dup1\n              0x026b1d5f\n              eq\n              tag_3\n              jumpi\n              dup1\n              0x13658f8a\n              eq\n              tag_4\n              jumpi\n              dup1\n              0x23b872dd\n              eq\n              tag_5\n              jumpi\n              jump(tag_2)\n            tag_1:\n              jumpi(tag_2, calldatasize)\n                /* \"contracts/Bounty.sol\":901:902  0 */\n              0x00\n                /* \"contracts/Bounty.sol\":869:903  address(_bountyBase) != address(0) */\n              0xffffffffffffffffffffffffffffffffffffffff\n              and\n                /* \"contracts/Bounty.sol\":877:888  _bountyBase */\n              0x00\n              dup1\n              sload\n              swap1\n              0x0100\n              exp\n              swap1\n              div\n              0xffffffffffffffffffffffffffffffffffffffff\n              and\n                /* \"contracts/Bounty.sol\":869:903  address(_bountyBase) != address(0) */\n              0xffffffffffffffffffffffffffffffffffffffff\n              and\n              eq\n              iszero\n                /* \"contracts/Bounty.sol\":861:924  require(address(_bountyBase) != address(0), 'need init bounty') */\n              tag_13\n              jumpi\n              mload(0x40)\n              0x08c379a000000000000000000000000000000000000000000000000000000000\n              dup2\n              mstore\n              0x04\n              add\n              tag_14\n              swap1\n              tag_15\n              jump\t// in\n            tag_14:\n              mload(0x40)\n              dup1\n              swap2\n              sub\n              swap1\n              revert\n            tag_13:\n                /* \"contracts/Bounty.sol\":751:1949  contract BountyAddr {... */\n              stop\n            tag_2:\n              0x00\n              dup1\n              revert\n                /* \"contracts/Bounty.sol\":1830:1946  function getPool() public view returns (address payable) {... */\n            tag_3:\n              callvalue\n              dup1\n              iszero\n              tag_17\n              jumpi\n              0x00\n              dup1\n              revert\n            tag_17:\n              pop\n              tag_18\n              tag_19\n              jump\t// in\n            tag_18:\n              mload(0x40)\n              tag_20\n              swap2\n              swap1\n              tag_21\n              jump\t// in\n            tag_20:\n              mload(0x40)\n              dup1\n              swap2\n              sub\n              swap1\n              return\n                /* \"contracts/Bounty.sol\":1228:1341  function stableTransfer(address payable to, uint256 amount) external payable {... */\n            tag_4:\n              tag_22\n              0x04\n              dup1\n              calldatasize\n              sub\n              dup2\n              add\n              swap1\n              tag_23\n              swap2\n              swap1\n              tag_24\n              jump\t// in\n            tag_23:\n              tag_25\n              jump\t// in\n            tag_22:\n              stop\n                /* \"contracts/Bounty.sol\":1472:1616  function transferFrom(IERC20 token, address to, uint256 amount) external {... */\n            tag_5:\n              callvalue\n              dup1\n              iszero\n              tag_26\n              jumpi\n              0x00\n              dup1\n              revert\n            tag_26:\n              pop\n              tag_27\n              0x04\n              dup1\n              calldatasize\n              sub\n              dup2\n              add\n              swap1\n              tag_28\n              swap2\n              swap1\n              tag_29\n              jump\t// in\n            tag_28:\n              tag_30\n              jump\t// in\n            tag_27:\n              stop\n                /* \"contracts/Bounty.sol\":802:818  string public id */\n            tag_6:\n              callvalue\n              dup1\n              iszero\n              tag_31\n              jumpi\n              0x00\n              dup1\n              revert\n            tag_31:\n              pop\n              tag_32\n              tag_33\n              jump\t// in\n            tag_32:\n              mload(0x40)\n              tag_34\n              swap2\n              swap1\n              tag_35\n              jump\t// in\n            tag_34:\n              mload(0x40)\n              dup1\n              swap2\n              sub\n              swap1\n              return\n                /* \"contracts/Bounty.sol\":1622:1743  function transfer(IERC20 token, address to, uint256 amount) external {... */\n            tag_7:\n              callvalue\n              dup1\n              iszero\n              tag_36\n              jumpi\n              0x00\n              dup1\n              revert\n            tag_36:\n              pop\n              tag_37\n              0x04\n              dup1\n              calldatasize\n              sub\n              dup2\n              add\n              swap1\n              tag_38\n              swap2\n              swap1\n              tag_29\n              jump\t// in\n            tag_38:\n              tag_39\n              jump\t// in\n            tag_37:\n              stop\n                /* \"contracts/Bounty.sol\":1749:1824  function deposit() external payable {... */\n            tag_8:\n              tag_40\n              tag_41\n              jump\t// in\n            tag_40:\n              stop\n                /* \"contracts/Bounty.sol\":1347:1466  function approve(IERC20 token, address to, uint256 amount) external {... */\n            tag_9:\n              callvalue\n              dup1\n              iszero\n              tag_42\n              jumpi\n              0x00\n              dup1\n              revert\n            tag_42:\n              pop\n              tag_43\n              0x04\n              dup1\n              calldatasize\n              sub\n              dup2\n              add\n              swap1\n              tag_44\n              swap2\n              swap1\n              tag_29\n              jump\t// in\n            tag_44:\n              tag_45\n              jump\t// in\n            tag_43:\n              stop\n                /* \"contracts/Bounty.sol\":1830:1946  function getPool() public view returns (address payable) {... */\n            tag_19:\n                /* \"contracts/Bounty.sol\":1870:1885  address payable */\n              0x00\n                /* \"contracts/Bounty.sol\":1830:1946  function getPool() public view returns (address payable) {... */\n              swap1\n              jump\t// out\n                /* \"contracts/Bounty.sol\":1228:1341  function stableTransfer(address payable to, uint256 amount) external payable {... */\n            tag_25:\n                /* \"contracts/Bounty.sol\":1315:1317  to */\n              dup2\n                /* \"contracts/Bounty.sol\":1315:1326  to.transfer */\n              0xffffffffffffffffffffffffffffffffffffffff\n              and\n                /* \"contracts/Bounty.sol\":1315:1334  to.transfer(amount) */\n              0x08fc\n                /* \"contracts/Bounty.sol\":1327:1333  amount */\n              dup3\n                /* \"contracts/Bounty.sol\":1315:1334  to.transfer(amount) */\n              swap1\n              dup2\n              iszero\n              mul\n              swap1\n              mload(0x40)\n              0x00\n              mload(0x40)\n              dup1\n              dup4\n              sub\n              dup2\n              dup6\n              dup9\n              dup9\n              call\n              swap4\n              pop\n              pop\n              pop\n              pop\n              iszero\n              dup1\n              iszero\n              tag_49\n              jumpi\n              returndatasize\n              0x00\n              dup1\n              returndatacopy\n              revert(0x00, returndatasize)\n            tag_49:\n              pop\n                /* \"contracts/Bounty.sol\":1228:1341  function stableTransfer(address payable to, uint256 amount) external payable {... */\n              pop\n              pop\n              jump\t// out\n                /* \"contracts/Bounty.sol\":1472:1616  function transferFrom(IERC20 token, address to, uint256 amount) external {... */\n            tag_30:\n                /* \"contracts/Bounty.sol\":1563:1568  token */\n              dup3\n                /* \"contracts/Bounty.sol\":1563:1581  token.transferFrom */\n              0xffffffffffffffffffffffffffffffffffffffff\n              and\n              0x23b872dd\n                /* \"contracts/Bounty.sol\":1590:1594  this */\n              address\n                /* \"contracts/Bounty.sol\":1597:1599  to */\n              dup5\n                /* \"contracts/Bounty.sol\":1601:1607  amount */\n              dup5\n                /* \"contracts/Bounty.sol\":1563:1608  token.transferFrom(address(this), to, amount) */\n              mload(0x40)\n              dup5\n              0xffffffff\n              and\n              0xe0\n              shl\n              dup2\n              mstore\n              0x04\n              add\n              tag_51\n              swap4\n              swap3\n              swap2\n              swap1\n              tag_52\n              jump\t// in\n            tag_51:\n              0x20\n              mload(0x40)\n              dup1\n              dup4\n              sub\n              dup2\n              0x00\n              dup8\n              dup1\n              extcodesize\n              iszero\n              dup1\n              iszero\n              tag_53\n              jumpi\n              0x00\n              dup1\n              revert\n            tag_53:\n              pop\n              gas\n              call\n              iszero\n              dup1\n              iszero\n              tag_55\n              jumpi\n              returndatasize\n              0x00\n              dup1\n              returndatacopy\n              revert(0x00, returndatasize)\n            tag_55:\n              pop\n              pop\n              pop\n              pop\n              mload(0x40)\n              returndatasize\n              not(0x1f)\n              0x1f\n              dup3\n              add\n              and\n              dup3\n              add\n              dup1\n              0x40\n              mstore\n              pop\n              dup2\n              add\n              swap1\n              tag_56\n              swap2\n              swap1\n              tag_57\n              jump\t// in\n            tag_56:\n                /* \"contracts/Bounty.sol\":1555:1609  require(token.transferFrom(address(this), to, amount)) */\n              tag_58\n              jumpi\n              0x00\n              dup1\n              revert\n            tag_58:\n                /* \"contracts/Bounty.sol\":1472:1616  function transferFrom(IERC20 token, address to, uint256 amount) external {... */\n              pop\n              pop\n              pop\n              jump\t// out\n                /* \"contracts/Bounty.sol\":802:818  string public id */\n            tag_33:\n              0x01\n              dup1\n              sload\n              tag_59\n              swap1\n              tag_60\n              jump\t// in\n            tag_59:\n              dup1\n              0x1f\n              add\n              0x20\n              dup1\n              swap2\n              div\n              mul\n              0x20\n              add\n              mload(0x40)\n              swap1\n              dup2\n              add\n              0x40\n              mstore\n              dup1\n              swap3\n              swap2\n              swap1\n              dup2\n              dup2\n              mstore\n              0x20\n              add\n              dup3\n              dup1\n              sload\n              tag_61\n              swap1\n              tag_60\n              jump\t// in\n            tag_61:\n              dup1\n              iszero\n              tag_62\n              jumpi\n              dup1\n              0x1f\n              lt\n              tag_63\n              jumpi\n              0x0100\n              dup1\n              dup4\n              sload\n              div\n              mul\n              dup4\n              mstore\n              swap2\n              0x20\n              add\n              swap2\n              jump(tag_62)\n            tag_63:\n              dup3\n              add\n              swap2\n              swap1\n              0x00\n              mstore\n              keccak256(0x00, 0x20)\n              swap1\n            tag_64:\n              dup2\n              sload\n              dup2\n              mstore\n              swap1\n              0x01\n              add\n              swap1\n              0x20\n              add\n              dup1\n              dup4\n              gt\n              tag_64\n              jumpi\n              dup3\n              swap1\n              sub\n              0x1f\n              and\n              dup3\n              add\n              swap2\n            tag_62:\n              pop\n              pop\n              pop\n              pop\n              pop\n              dup2\n              jump\t// out\n                /* \"contracts/Bounty.sol\":1622:1743  function transfer(IERC20 token, address to, uint256 amount) external {... */\n            tag_39:\n                /* \"contracts/Bounty.sol\":1709:1714  token */\n              dup3\n                /* \"contracts/Bounty.sol\":1709:1723  token.transfer */\n              0xffffffffffffffffffffffffffffffffffffffff\n              and\n              0xa9059cbb\n                /* \"contracts/Bounty.sol\":1724:1726  to */\n              dup4\n                /* \"contracts/Bounty.sol\":1728:1734  amount */\n              dup4\n                /* \"contracts/Bounty.sol\":1709:1735  token.transfer(to, amount) */\n              mload(0x40)\n              dup4\n              0xffffffff\n              and\n              0xe0\n              shl\n              dup2\n              mstore\n              0x04\n              add\n              tag_66\n              swap3\n              swap2\n              swap1\n              tag_67\n              jump\t// in\n            tag_66:\n              0x20\n              mload(0x40)\n              dup1\n              dup4\n              sub\n              dup2\n              0x00\n              dup8\n              dup1\n              extcodesize\n              iszero\n              dup1\n              iszero\n              tag_68\n              jumpi\n              0x00\n              dup1\n              revert\n            tag_68:\n              pop\n              gas\n              call\n              iszero\n              dup1\n              iszero\n              tag_70\n              jumpi\n              returndatasize\n              0x00\n              dup1\n              returndatacopy\n              revert(0x00, returndatasize)\n            tag_70:\n              pop\n              pop\n              pop\n              pop\n              mload(0x40)\n              returndatasize\n              not(0x1f)\n              0x1f\n              dup3\n              add\n              and\n              dup3\n              add\n              dup1\n              0x40\n              mstore\n              pop\n              dup2\n              add\n              swap1\n              tag_71\n              swap2\n              swap1\n              tag_57\n              jump\t// in\n            tag_71:\n                /* \"contracts/Bounty.sol\":1701:1736  require(token.transfer(to, amount)) */\n              tag_72\n              jumpi\n              0x00\n              dup1\n              revert\n            tag_72:\n                /* \"contracts/Bounty.sol\":1622:1743  function transfer(IERC20 token, address to, uint256 amount) external {... */\n              pop\n              pop\n              pop\n              jump\t// out\n                /* \"contracts/Bounty.sol\":1749:1824  function deposit() external payable {... */\n            tag_41:\n              jump\t// out\n                /* \"contracts/Bounty.sol\":1347:1466  function approve(IERC20 token, address to, uint256 amount) external {... */\n            tag_45:\n                /* \"contracts/Bounty.sol\":1433:1438  token */\n              dup3\n                /* \"contracts/Bounty.sol\":1433:1446  token.approve */\n              0xffffffffffffffffffffffffffffffffffffffff\n              and\n              0x095ea7b3\n                /* \"contracts/Bounty.sol\":1447:1449  to */\n              dup4\n                /* \"contracts/Bounty.sol\":1451:1457  amount */\n              dup4\n                /* \"contracts/Bounty.sol\":1433:1458  token.approve(to, amount) */\n              mload(0x40)\n              dup4\n              0xffffffff\n              and\n              0xe0\n              shl\n              dup2\n              mstore\n              0x04\n              add\n              tag_75\n              swap3\n              swap2\n              swap1\n              tag_67\n              jump\t// in\n            tag_75:\n              0x20\n              mload(0x40)\n              dup1\n              dup4\n              sub\n              dup2\n              0x00\n              dup8\n              dup1\n              extcodesize\n              iszero\n              dup1\n              iszero\n              tag_76\n              jumpi\n              0x00\n              dup1\n              revert\n            tag_76:\n              pop\n              gas\n              call\n              iszero\n              dup1\n              iszero\n              tag_78\n              jumpi\n              returndatasize\n              0x00\n              dup1\n              returndatacopy\n              revert(0x00, returndatasize)\n            tag_78:\n              pop\n              pop\n              pop\n              pop\n              mload(0x40)\n              returndatasize\n              not(0x1f)\n              0x1f\n              dup3\n              add\n              and\n              dup3\n              add\n              dup1\n              0x40\n              mstore\n              pop\n              dup2\n              add\n              swap1\n              tag_79\n              swap2\n              swap1\n              tag_57\n              jump\t// in\n            tag_79:\n                /* \"contracts/Bounty.sol\":1425:1459  require(token.approve(to, amount)) */\n              tag_80\n              jumpi\n              0x00\n              dup1\n              revert\n            tag_80:\n                /* \"contracts/Bounty.sol\":1347:1466  function approve(IERC20 token, address to, uint256 amount) external {... */\n              pop\n              pop\n              pop\n              jump\t// out\n                /* \"#utility.yul\":7:146   */\n            tag_82:\n                /* \"#utility.yul\":53:58   */\n              0x00\n                /* \"#utility.yul\":91:97   */\n              dup2\n                /* \"#utility.yul\":78:98   */\n              calldataload\n                /* \"#utility.yul\":69:98   */\n              swap1\n              pop\n                /* \"#utility.yul\":107:140   */\n              tag_84\n                /* \"#utility.yul\":134:139   */\n              dup2\n                /* \"#utility.yul\":107:140   */\n              tag_85\n              jump\t// in\n            tag_84:\n                /* \"#utility.yul\":7:146   */\n              swap3\n              swap2\n              pop\n              pop\n              jump\t// out\n                /* \"#utility.yul\":152:307   */\n            tag_86:\n                /* \"#utility.yul\":206:211   */\n              0x00\n                /* \"#utility.yul\":244:250   */\n              dup2\n                /* \"#utility.yul\":231:251   */\n              calldataload\n                /* \"#utility.yul\":222:251   */\n              swap1\n              pop\n                /* \"#utility.yul\":260:301   */\n              tag_88\n                /* \"#utility.yul\":295:300   */\n              dup2\n                /* \"#utility.yul\":260:301   */\n              tag_89\n              jump\t// in\n            tag_88:\n                /* \"#utility.yul\":152:307   */\n              swap3\n              swap2\n              pop\n              pop\n              jump\t// out\n                /* \"#utility.yul\":313:450   */\n            tag_90:\n                /* \"#utility.yul\":367:372   */\n              0x00\n                /* \"#utility.yul\":398:404   */\n              dup2\n                /* \"#utility.yul\":392:405   */\n              mload\n                /* \"#utility.yul\":383:405   */\n              swap1\n              pop\n                /* \"#utility.yul\":414:444   */\n              tag_92\n                /* \"#utility.yul\":438:443   */\n              dup2\n                /* \"#utility.yul\":414:444   */\n              tag_93\n              jump\t// in\n            tag_92:\n                /* \"#utility.yul\":313:450   */\n              swap3\n              swap2\n              pop\n              pop\n              jump\t// out\n                /* \"#utility.yul\":456:623   */\n            tag_94:\n                /* \"#utility.yul\":516:521   */\n              0x00\n                /* \"#utility.yul\":554:560   */\n              dup2\n                /* \"#utility.yul\":541:561   */\n              calldataload\n                /* \"#utility.yul\":532:561   */\n              swap1\n              pop\n                /* \"#utility.yul\":570:617   */\n              tag_96\n                /* \"#utility.yul\":611:616   */\n              dup2\n                /* \"#utility.yul\":570:617   */\n              tag_97\n              jump\t// in\n            tag_96:\n                /* \"#utility.yul\":456:623   */\n              swap3\n              swap2\n              pop\n              pop\n              jump\t// out\n                /* \"#utility.yul\":629:768   */\n            tag_98:\n                /* \"#utility.yul\":675:680   */\n              0x00\n                /* \"#utility.yul\":713:719   */\n              dup2\n                /* \"#utility.yul\":700:720   */\n              calldataload\n                /* \"#utility.yul\":691:720   */\n              swap1\n              pop\n                /* \"#utility.yul\":729:762   */\n              tag_100\n                /* \"#utility.yul\":756:761   */\n              dup2\n                /* \"#utility.yul\":729:762   */\n              tag_101\n              jump\t// in\n            tag_100:\n                /* \"#utility.yul\":629:768   */\n              swap3\n              swap2\n              pop\n              pop\n              jump\t// out\n                /* \"#utility.yul\":774:1264   */\n            tag_24:\n                /* \"#utility.yul\":850:856   */\n              0x00\n                /* \"#utility.yul\":858:864   */\n              dup1\n                /* \"#utility.yul\":907:909   */\n              0x40\n                /* \"#utility.yul\":895:904   */\n              dup4\n                /* \"#utility.yul\":886:893   */\n              dup6\n                /* \"#utility.yul\":882:905   */\n              sub\n                /* \"#utility.yul\":878:910   */\n              slt\n                /* \"#utility.yul\":875:994   */\n              iszero\n              tag_103\n              jumpi\n                /* \"#utility.yul\":913:992   */\n              tag_104\n              tag_105\n              jump\t// in\n            tag_104:\n                /* \"#utility.yul\":875:994   */\n            tag_103:\n                /* \"#utility.yul\":1033:1034   */\n              0x00\n                /* \"#utility.yul\":1058:1119   */\n              tag_106\n                /* \"#utility.yul\":1111:1118   */\n              dup6\n                /* \"#utility.yul\":1102:1108   */\n              dup3\n                /* \"#utility.yul\":1091:1100   */\n              dup7\n                /* \"#utility.yul\":1087:1109   */\n              add\n                /* \"#utility.yul\":1058:1119   */\n              tag_86\n              jump\t// in\n            tag_106:\n                /* \"#utility.yul\":1048:1119   */\n              swap3\n              pop\n                /* \"#utility.yul\":1004:1129   */\n              pop\n                /* \"#utility.yul\":1168:1170   */\n              0x20\n                /* \"#utility.yul\":1194:1247   */\n              tag_107\n                /* \"#utility.yul\":1239:1246   */\n              dup6\n                /* \"#utility.yul\":1230:1236   */\n              dup3\n                /* \"#utility.yul\":1219:1228   */\n              dup7\n                /* \"#utility.yul\":1215:1237   */\n              add\n                /* \"#utility.yul\":1194:1247   */\n              tag_98\n              jump\t// in\n            tag_107:\n                /* \"#utility.yul\":1184:1247   */\n              swap2\n              pop\n                /* \"#utility.yul\":1139:1257   */\n              pop\n                /* \"#utility.yul\":774:1264   */\n              swap3\n              pop\n              swap3\n              swap1\n              pop\n              jump\t// out\n                /* \"#utility.yul\":1270:1615   */\n            tag_57:\n                /* \"#utility.yul\":1337:1343   */\n              0x00\n                /* \"#utility.yul\":1386:1388   */\n              0x20\n                /* \"#utility.yul\":1374:1383   */\n              dup3\n                /* \"#utility.yul\":1365:1372   */\n              dup5\n                /* \"#utility.yul\":1361:1384   */\n              sub\n                /* \"#utility.yul\":1357:1389   */\n              slt\n                /* \"#utility.yul\":1354:1473   */\n              iszero\n              tag_109\n              jumpi\n                /* \"#utility.yul\":1392:1471   */\n              tag_110\n              tag_105\n              jump\t// in\n            tag_110:\n                /* \"#utility.yul\":1354:1473   */\n            tag_109:\n                /* \"#utility.yul\":1512:1513   */\n              0x00\n                /* \"#utility.yul\":1537:1598   */\n              tag_111\n                /* \"#utility.yul\":1590:1597   */\n              dup5\n                /* \"#utility.yul\":1581:1587   */\n              dup3\n                /* \"#utility.yul\":1570:1579   */\n              dup6\n                /* \"#utility.yul\":1566:1588   */\n              add\n                /* \"#utility.yul\":1537:1598   */\n              tag_90\n              jump\t// in\n            tag_111:\n                /* \"#utility.yul\":1527:1598   */\n              swap2\n              pop\n                /* \"#utility.yul\":1483:1608   */\n              pop\n                /* \"#utility.yul\":1270:1615   */\n              swap3\n              swap2\n              pop\n              pop\n              jump\t// out\n                /* \"#utility.yul\":1621:2268   */\n            tag_29:\n                /* \"#utility.yul\":1712:1718   */\n              0x00\n                /* \"#utility.yul\":1720:1726   */\n              dup1\n                /* \"#utility.yul\":1728:1734   */\n              0x00\n                /* \"#utility.yul\":1777:1779   */\n              0x60\n                /* \"#utility.yul\":1765:1774   */\n              dup5\n                /* \"#utility.yul\":1756:1763   */\n              dup7\n                /* \"#utility.yul\":1752:1775   */\n              sub\n                /* \"#utility.yul\":1748:1780   */\n              slt\n                /* \"#utility.yul\":1745:1864   */\n              iszero\n              tag_113\n              jumpi\n                /* \"#utility.yul\":1783:1862   */\n              tag_114\n              tag_105\n              jump\t// in\n            tag_114:\n                /* \"#utility.yul\":1745:1864   */\n            tag_113:\n                /* \"#utility.yul\":1903:1904   */\n              0x00\n                /* \"#utility.yul\":1928:1995   */\n              tag_115\n                /* \"#utility.yul\":1987:1994   */\n              dup7\n                /* \"#utility.yul\":1978:1984   */\n              dup3\n                /* \"#utility.yul\":1967:1976   */\n              dup8\n                /* \"#utility.yul\":1963:1985   */\n              add\n                /* \"#utility.yul\":1928:1995   */\n              tag_94\n              jump\t// in\n            tag_115:\n                /* \"#utility.yul\":1918:1995   */\n              swap4\n              pop\n                /* \"#utility.yul\":1874:2005   */\n              pop\n                /* \"#utility.yul\":2044:2046   */\n              0x20\n                /* \"#utility.yul\":2070:2123   */\n              tag_116\n                /* \"#utility.yul\":2115:2122   */\n              dup7\n                /* \"#utility.yul\":2106:2112   */\n              dup3\n                /* \"#utility.yul\":2095:2104   */\n              dup8\n                /* \"#utility.yul\":2091:2113   */\n              add\n                /* \"#utility.yul\":2070:2123   */\n              tag_82\n              jump\t// in\n            tag_116:\n                /* \"#utility.yul\":2060:2123   */\n              swap3\n              pop\n                /* \"#utility.yul\":2015:2133   */\n              pop\n                /* \"#utility.yul\":2172:2174   */\n              0x40\n                /* \"#utility.yul\":2198:2251   */\n              tag_117\n                /* \"#utility.yul\":2243:2250   */\n              dup7\n                /* \"#utility.yul\":2234:2240   */\n              dup3\n                /* \"#utility.yul\":2223:2232   */\n              dup8\n                /* \"#utility.yul\":2219:2241   */\n              add\n                /* \"#utility.yul\":2198:2251   */\n              tag_98\n              jump\t// in\n            tag_117:\n                /* \"#utility.yul\":2188:2251   */\n              swap2\n              pop\n                /* \"#utility.yul\":2143:2261   */\n              pop\n                /* \"#utility.yul\":1621:2268   */\n              swap3\n              pop\n              swap3\n              pop\n              swap3\n              jump\t// out\n                /* \"#utility.yul\":2274:2416   */\n            tag_118:\n                /* \"#utility.yul\":2377:2409   */\n              tag_120\n                /* \"#utility.yul\":2403:2408   */\n              dup2\n                /* \"#utility.yul\":2377:2409   */\n              tag_121\n              jump\t// in\n            tag_120:\n                /* \"#utility.yul\":2372:2375   */\n              dup3\n                /* \"#utility.yul\":2365:2410   */\n              mstore\n                /* \"#utility.yul\":2274:2416   */\n              pop\n              pop\n              jump\t// out\n                /* \"#utility.yul\":2422:2540   */\n            tag_122:\n                /* \"#utility.yul\":2509:2533   */\n              tag_124\n                /* \"#utility.yul\":2527:2532   */\n              dup2\n                /* \"#utility.yul\":2509:2533   */\n              tag_125\n              jump\t// in\n            tag_124:\n                /* \"#utility.yul\":2504:2507   */\n              dup3\n                /* \"#utility.yul\":2497:2534   */\n              mstore\n                /* \"#utility.yul\":2422:2540   */\n              pop\n              pop\n              jump\t// out\n                /* \"#utility.yul\":2546:2910   */\n            tag_126:\n                /* \"#utility.yul\":2634:2637   */\n              0x00\n                /* \"#utility.yul\":2662:2701   */\n              tag_128\n                /* \"#utility.yul\":2695:2700   */\n              dup3\n                /* \"#utility.yul\":2662:2701   */\n              tag_129\n              jump\t// in\n            tag_128:\n                /* \"#utility.yul\":2717:2788   */\n              tag_130\n                /* \"#utility.yul\":2781:2787   */\n              dup2\n                /* \"#utility.yul\":2776:2779   */\n              dup6\n                /* \"#utility.yul\":2717:2788   */\n              tag_131\n              jump\t// in\n            tag_130:\n                /* \"#utility.yul\":2710:2788   */\n              swap4\n              pop\n                /* \"#utility.yul\":2797:2849   */\n              tag_132\n                /* \"#utility.yul\":2842:2848   */\n              dup2\n                /* \"#utility.yul\":2837:2840   */\n              dup6\n                /* \"#utility.yul\":2830:2834   */\n              0x20\n                /* \"#utility.yul\":2823:2828   */\n              dup7\n                /* \"#utility.yul\":2819:2835   */\n              add\n                /* \"#utility.yul\":2797:2849   */\n              tag_133\n              jump\t// in\n            tag_132:\n                /* \"#utility.yul\":2874:2903   */\n              tag_134\n                /* \"#utility.yul\":2896:2902   */\n              dup2\n                /* \"#utility.yul\":2874:2903   */\n              tag_135\n              jump\t// in\n            tag_134:\n                /* \"#utility.yul\":2869:2872   */\n              dup5\n                /* \"#utility.yul\":2865:2904   */\n              add\n                /* \"#utility.yul\":2858:2904   */\n              swap2\n              pop\n                /* \"#utility.yul\":2638:2910   */\n              pop\n                /* \"#utility.yul\":2546:2910   */\n              swap3\n              swap2\n              pop\n              pop\n              jump\t// out\n                /* \"#utility.yul\":2916:3282   */\n            tag_136:\n                /* \"#utility.yul\":3058:3061   */\n              0x00\n                /* \"#utility.yul\":3079:3146   */\n              tag_138\n                /* \"#utility.yul\":3143:3145   */\n              0x10\n                /* \"#utility.yul\":3138:3141   */\n              dup4\n                /* \"#utility.yul\":3079:3146   */\n              tag_131\n              jump\t// in\n            tag_138:\n                /* \"#utility.yul\":3072:3146   */\n              swap2\n              pop\n                /* \"#utility.yul\":3155:3248   */\n              tag_139\n                /* \"#utility.yul\":3244:3247   */\n              dup3\n                /* \"#utility.yul\":3155:3248   */\n              tag_140\n              jump\t// in\n            tag_139:\n                /* \"#utility.yul\":3273:3275   */\n              0x20\n                /* \"#utility.yul\":3268:3271   */\n              dup3\n                /* \"#utility.yul\":3264:3276   */\n              add\n                /* \"#utility.yul\":3257:3276   */\n              swap1\n              pop\n                /* \"#utility.yul\":2916:3282   */\n              swap2\n              swap1\n              pop\n              jump\t// out\n                /* \"#utility.yul\":3288:3406   */\n            tag_141:\n                /* \"#utility.yul\":3375:3399   */\n              tag_143\n                /* \"#utility.yul\":3393:3398   */\n              dup2\n                /* \"#utility.yul\":3375:3399   */\n              tag_144\n              jump\t// in\n            tag_143:\n                /* \"#utility.yul\":3370:3373   */\n              dup3\n                /* \"#utility.yul\":3363:3400   */\n              mstore\n                /* \"#utility.yul\":3288:3406   */\n              pop\n              pop\n              jump\t// out\n                /* \"#utility.yul\":3412:3666   */\n            tag_21:\n                /* \"#utility.yul\":3521:3525   */\n              0x00\n                /* \"#utility.yul\":3559:3561   */\n              0x20\n                /* \"#utility.yul\":3548:3557   */\n              dup3\n                /* \"#utility.yul\":3544:3562   */\n              add\n                /* \"#utility.yul\":3536:3562   */\n              swap1\n              pop\n                /* \"#utility.yul\":3572:3659   */\n              tag_146\n                /* \"#utility.yul\":3656:3657   */\n              0x00\n                /* \"#utility.yul\":3645:3654   */\n              dup4\n                /* \"#utility.yul\":3641:3658   */\n              add\n                /* \"#utility.yul\":3632:3638   */\n              dup5\n                /* \"#utility.yul\":3572:3659   */\n              tag_118\n              jump\t// in\n            tag_146:\n                /* \"#utility.yul\":3412:3666   */\n              swap3\n              swap2\n              pop\n              pop\n              jump\t// out\n                /* \"#utility.yul\":3672:4114   */\n            tag_52:\n                /* \"#utility.yul\":3821:3825   */\n              0x00\n                /* \"#utility.yul\":3859:3861   */\n              0x60\n                /* \"#utility.yul\":3848:3857   */\n              dup3\n                /* \"#utility.yul\":3844:3862   */\n              add\n                /* \"#utility.yul\":3836:3862   */\n              swap1\n              pop\n                /* \"#utility.yul\":3872:3943   */\n              tag_148\n                /* \"#utility.yul\":3940:3941   */\n              0x00\n                /* \"#utility.yul\":3929:3938   */\n              dup4\n                /* \"#utility.yul\":3925:3942   */\n              add\n                /* \"#utility.yul\":3916:3922   */\n              dup7\n                /* \"#utility.yul\":3872:3943   */\n              tag_122\n              jump\t// in\n            tag_148:\n                /* \"#utility.yul\":3953:4025   */\n              tag_149\n                /* \"#utility.yul\":4021:4023   */\n              0x20\n                /* \"#utility.yul\":4010:4019   */\n              dup4\n                /* \"#utility.yul\":4006:4024   */\n              add\n                /* \"#utility.yul\":3997:4003   */\n              dup6\n                /* \"#utility.yul\":3953:4025   */\n              tag_122\n              jump\t// in\n            tag_149:\n                /* \"#utility.yul\":4035:4107   */\n              tag_150\n                /* \"#utility.yul\":4103:4105   */\n              0x40\n                /* \"#utility.yul\":4092:4101   */\n              dup4\n                /* \"#utility.yul\":4088:4106   */\n              add\n                /* \"#utility.yul\":4079:4085   */\n              dup5\n                /* \"#utility.yul\":4035:4107   */\n              tag_141\n              jump\t// in\n            tag_150:\n                /* \"#utility.yul\":3672:4114   */\n              swap5\n              swap4\n              pop\n              pop\n              pop\n              pop\n              jump\t// out\n                /* \"#utility.yul\":4120:4452   */\n            tag_67:\n                /* \"#utility.yul\":4241:4245   */\n              0x00\n                /* \"#utility.yul\":4279:4281   */\n              0x40\n                /* \"#utility.yul\":4268:4277   */\n              dup3\n                /* \"#utility.yul\":4264:4282   */\n              add\n                /* \"#utility.yul\":4256:4282   */\n              swap1\n              pop\n                /* \"#utility.yul\":4292:4363   */\n              tag_152\n                /* \"#utility.yul\":4360:4361   */\n              0x00\n                /* \"#utility.yul\":4349:4358   */\n              dup4\n                /* \"#utility.yul\":4345:4362   */\n              add\n                /* \"#utility.yul\":4336:4342   */\n              dup6\n                /* \"#utility.yul\":4292:4363   */\n              tag_122\n              jump\t// in\n            tag_152:\n                /* \"#utility.yul\":4373:4445   */\n              tag_153\n                /* \"#utility.yul\":4441:4443   */\n              0x20\n                /* \"#utility.yul\":4430:4439   */\n              dup4\n                /* \"#utility.yul\":4426:4444   */\n              add\n                /* \"#utility.yul\":4417:4423   */\n              dup5\n                /* \"#utility.yul\":4373:4445   */\n              tag_141\n              jump\t// in\n            tag_153:\n                /* \"#utility.yul\":4120:4452   */\n              swap4\n              swap3\n              pop\n              pop\n              pop\n              jump\t// out\n                /* \"#utility.yul\":4458:4771   */\n            tag_35:\n                /* \"#utility.yul\":4571:4575   */\n              0x00\n                /* \"#utility.yul\":4609:4611   */\n              0x20\n                /* \"#utility.yul\":4598:4607   */\n              dup3\n                /* \"#utility.yul\":4594:4612   */\n              add\n                /* \"#utility.yul\":4586:4612   */\n              swap1\n              pop\n                /* \"#utility.yul\":4658:4667   */\n              dup2\n                /* \"#utility.yul\":4652:4656   */\n              dup2\n                /* \"#utility.yul\":4648:4668   */\n              sub\n                /* \"#utility.yul\":4644:4645   */\n              0x00\n                /* \"#utility.yul\":4633:4642   */\n              dup4\n                /* \"#utility.yul\":4629:4646   */\n              add\n                /* \"#utility.yul\":4622:4669   */\n              mstore\n                /* \"#utility.yul\":4686:4764   */\n              tag_155\n                /* \"#utility.yul\":4759:4763   */\n              dup2\n                /* \"#utility.yul\":4750:4756   */\n              dup5\n                /* \"#utility.yul\":4686:4764   */\n              tag_126\n              jump\t// in\n            tag_155:\n                /* \"#utility.yul\":4678:4764   */\n              swap1\n              pop\n                /* \"#utility.yul\":4458:4771   */\n              swap3\n              swap2\n              pop\n              pop\n              jump\t// out\n                /* \"#utility.yul\":4777:5196   */\n            tag_15:\n                /* \"#utility.yul\":4943:4947   */\n              0x00\n                /* \"#utility.yul\":4981:4983   */\n              0x20\n                /* \"#utility.yul\":4970:4979   */\n              dup3\n                /* \"#utility.yul\":4966:4984   */\n              add\n                /* \"#utility.yul\":4958:4984   */\n              swap1\n              pop\n                /* \"#utility.yul\":5030:5039   */\n              dup2\n                /* \"#utility.yul\":5024:5028   */\n              dup2\n                /* \"#utility.yul\":5020:5040   */\n              sub\n                /* \"#utility.yul\":5016:5017   */\n              0x00\n                /* \"#utility.yul\":5005:5014   */\n              dup4\n                /* \"#utility.yul\":5001:5018   */\n              add\n                /* \"#utility.yul\":4994:5041   */\n              mstore\n                /* \"#utility.yul\":5058:5189   */\n              tag_157\n                /* \"#utility.yul\":5184:5188   */\n              dup2\n                /* \"#utility.yul\":5058:5189   */\n              tag_136\n              jump\t// in\n            tag_157:\n                /* \"#utility.yul\":5050:5189   */\n              swap1\n              pop\n                /* \"#utility.yul\":4777:5196   */\n              swap2\n              swap1\n              pop\n              jump\t// out\n                /* \"#utility.yul\":5283:5382   */\n            tag_129:\n                /* \"#utility.yul\":5335:5341   */\n              0x00\n                /* \"#utility.yul\":5369:5374   */\n              dup2\n                /* \"#utility.yul\":5363:5375   */\n              mload\n                /* \"#utility.yul\":5353:5375   */\n              swap1\n              pop\n                /* \"#utility.yul\":5283:5382   */\n              swap2\n              swap1\n              pop\n              jump\t// out\n                /* \"#utility.yul\":5388:5557   */\n            tag_131:\n                /* \"#utility.yul\":5472:5483   */\n              0x00\n                /* \"#utility.yul\":5506:5512   */\n              dup3\n                /* \"#utility.yul\":5501:5504   */\n              dup3\n                /* \"#utility.yul\":5494:5513   */\n              mstore\n                /* \"#utility.yul\":5546:5550   */\n              0x20\n                /* \"#utility.yul\":5541:5544   */\n              dup3\n                /* \"#utility.yul\":5537:5551   */\n              add\n                /* \"#utility.yul\":5522:5551   */\n              swap1\n              pop\n                /* \"#utility.yul\":5388:5557   */\n              swap3\n              swap2\n              pop\n              pop\n              jump\t// out\n                /* \"#utility.yul\":5563:5659   */\n            tag_125:\n                /* \"#utility.yul\":5600:5607   */\n              0x00\n                /* \"#utility.yul\":5629:5653   */\n              tag_163\n                /* \"#utility.yul\":5647:5652   */\n              dup3\n                /* \"#utility.yul\":5629:5653   */\n              tag_164\n              jump\t// in\n            tag_163:\n                /* \"#utility.yul\":5618:5653   */\n              swap1\n              pop\n                /* \"#utility.yul\":5563:5659   */\n              swap2\n              swap1\n              pop\n              jump\t// out\n                /* \"#utility.yul\":5665:5769   */\n            tag_121:\n                /* \"#utility.yul\":5710:5717   */\n              0x00\n                /* \"#utility.yul\":5739:5763   */\n              tag_166\n                /* \"#utility.yul\":5757:5762   */\n              dup3\n                /* \"#utility.yul\":5739:5763   */\n              tag_164\n              jump\t// in\n            tag_166:\n                /* \"#utility.yul\":5728:5763   */\n              swap1\n              pop\n                /* \"#utility.yul\":5665:5769   */\n              swap2\n              swap1\n              pop\n              jump\t// out\n                /* \"#utility.yul\":5775:5865   */\n            tag_167:\n                /* \"#utility.yul\":5809:5816   */\n              0x00\n                /* \"#utility.yul\":5852:5857   */\n              dup2\n                /* \"#utility.yul\":5845:5858   */\n              iszero\n                /* \"#utility.yul\":5838:5859   */\n              iszero\n                /* \"#utility.yul\":5827:5859   */\n              swap1\n              pop\n                /* \"#utility.yul\":5775:5865   */\n              swap2\n              swap1\n              pop\n              jump\t// out\n                /* \"#utility.yul\":5871:5981   */\n            tag_169:\n                /* \"#utility.yul\":5922:5929   */\n              0x00\n                /* \"#utility.yul\":5951:5975   */\n              tag_171\n                /* \"#utility.yul\":5969:5974   */\n              dup3\n                /* \"#utility.yul\":5951:5975   */\n              tag_125\n              jump\t// in\n            tag_171:\n                /* \"#utility.yul\":5940:5975   */\n              swap1\n              pop\n                /* \"#utility.yul\":5871:5981   */\n              swap2\n              swap1\n              pop\n              jump\t// out\n                /* \"#utility.yul\":5987:6113   */\n            tag_164:\n                /* \"#utility.yul\":6024:6031   */\n              0x00\n                /* \"#utility.yul\":6064:6106   */\n              0xffffffffffffffffffffffffffffffffffffffff\n                /* \"#utility.yul\":6057:6062   */\n              dup3\n                /* \"#utility.yul\":6053:6107   */\n              and\n                /* \"#utility.yul\":6042:6107   */\n              swap1\n              pop\n                /* \"#utility.yul\":5987:6113   */\n              swap2\n              swap1\n              pop\n              jump\t// out\n                /* \"#utility.yul\":6119:6196   */\n            tag_144:\n                /* \"#utility.yul\":6156:6163   */\n              0x00\n                /* \"#utility.yul\":6185:6190   */\n              dup2\n                /* \"#utility.yul\":6174:6190   */\n              swap1\n              pop\n                /* \"#utility.yul\":6119:6196   */\n              swap2\n              swap1\n              pop\n              jump\t// out\n                /* \"#utility.yul\":6202:6509   */\n            tag_133:\n                /* \"#utility.yul\":6270:6271   */\n              0x00\n                /* \"#utility.yul\":6280:6393   */\n            tag_175:\n                /* \"#utility.yul\":6294:6300   */\n              dup4\n                /* \"#utility.yul\":6291:6292   */\n              dup2\n                /* \"#utility.yul\":6288:6301   */\n              lt\n                /* \"#utility.yul\":6280:6393   */\n              iszero\n              tag_177\n              jumpi\n                /* \"#utility.yul\":6379:6380   */\n              dup1\n                /* \"#utility.yul\":6374:6377   */\n              dup3\n                /* \"#utility.yul\":6370:6381   */\n              add\n                /* \"#utility.yul\":6364:6382   */\n              mload\n                /* \"#utility.yul\":6360:6361   */\n              dup2\n                /* \"#utility.yul\":6355:6358   */\n              dup5\n                /* \"#utility.yul\":6351:6362   */\n              add\n                /* \"#utility.yul\":6344:6383   */\n              mstore\n                /* \"#utility.yul\":6316:6318   */\n              0x20\n                /* \"#utility.yul\":6313:6314   */\n              dup2\n                /* \"#utility.yul\":6309:6319   */\n              add\n                /* \"#utility.yul\":6304:6319   */\n              swap1\n              pop\n                /* \"#utility.yul\":6280:6393   */\n              jump(tag_175)\n            tag_177:\n                /* \"#utility.yul\":6411:6417   */\n              dup4\n                /* \"#utility.yul\":6408:6409   */\n              dup2\n                /* \"#utility.yul\":6405:6418   */\n              gt\n                /* \"#utility.yul\":6402:6503   */\n              iszero\n              tag_178\n              jumpi\n                /* \"#utility.yul\":6491:6492   */\n              0x00\n                /* \"#utility.yul\":6482:6488   */\n              dup5\n                /* \"#utility.yul\":6477:6480   */\n              dup5\n                /* \"#utility.yul\":6473:6489   */\n              add\n                /* \"#utility.yul\":6466:6493   */\n              mstore\n                /* \"#utility.yul\":6402:6503   */\n            tag_178:\n                /* \"#utility.yul\":6251:6509   */\n              pop\n                /* \"#utility.yul\":6202:6509   */\n              pop\n              pop\n              pop\n              jump\t// out\n                /* \"#utility.yul\":6515:6835   */\n            tag_60:\n                /* \"#utility.yul\":6559:6565   */\n              0x00\n                /* \"#utility.yul\":6596:6597   */\n              0x02\n                /* \"#utility.yul\":6590:6594   */\n              dup3\n                /* \"#utility.yul\":6586:6598   */\n              div\n                /* \"#utility.yul\":6576:6598   */\n              swap1\n              pop\n                /* \"#utility.yul\":6643:6644   */\n              0x01\n                /* \"#utility.yul\":6637:6641   */\n              dup3\n                /* \"#utility.yul\":6633:6645   */\n              and\n                /* \"#utility.yul\":6664:6682   */\n              dup1\n                /* \"#utility.yul\":6654:6735   */\n              tag_180\n              jumpi\n                /* \"#utility.yul\":6720:6724   */\n              0x7f\n                /* \"#utility.yul\":6712:6718   */\n              dup3\n                /* \"#utility.yul\":6708:6725   */\n              and\n                /* \"#utility.yul\":6698:6725   */\n              swap2\n              pop\n                /* \"#utility.yul\":6654:6735   */\n            tag_180:\n                /* \"#utility.yul\":6782:6784   */\n              0x20\n                /* \"#utility.yul\":6774:6780   */\n              dup3\n                /* \"#utility.yul\":6771:6785   */\n              lt\n                /* \"#utility.yul\":6751:6769   */\n              dup2\n                /* \"#utility.yul\":6748:6786   */\n              eq\n                /* \"#utility.yul\":6745:6829   */\n              iszero\n              tag_181\n              jumpi\n                /* \"#utility.yul\":6801:6819   */\n              tag_182\n              tag_183\n              jump\t// in\n            tag_182:\n                /* \"#utility.yul\":6745:6829   */\n            tag_181:\n                /* \"#utility.yul\":6566:6835   */\n              pop\n                /* \"#utility.yul\":6515:6835   */\n              swap2\n              swap1\n              pop\n              jump\t// out\n                /* \"#utility.yul\":6841:7021   */\n            tag_183:\n                /* \"#utility.yul\":6889:6966   */\n              0x4e487b7100000000000000000000000000000000000000000000000000000000\n                /* \"#utility.yul\":6886:6887   */\n              0x00\n                /* \"#utility.yul\":6879:6967   */\n              mstore\n                /* \"#utility.yul\":6986:6990   */\n              0x22\n                /* \"#utility.yul\":6983:6984   */\n              0x04\n                /* \"#utility.yul\":6976:6991   */\n              mstore\n                /* \"#utility.yul\":7010:7014   */\n              0x24\n                /* \"#utility.yul\":7007:7008   */\n              0x00\n                /* \"#utility.yul\":7000:7015   */\n              revert\n                /* \"#utility.yul\":7150:7267   */\n            tag_105:\n                /* \"#utility.yul\":7259:7260   */\n              0x00\n                /* \"#utility.yul\":7256:7257   */\n              dup1\n                /* \"#utility.yul\":7249:7261   */\n              revert\n                /* \"#utility.yul\":7273:7375   */\n            tag_135:\n                /* \"#utility.yul\":7314:7320   */\n              0x00\n                /* \"#utility.yul\":7365:7367   */\n              0x1f\n                /* \"#utility.yul\":7361:7368   */\n              not\n                /* \"#utility.yul\":7356:7358   */\n              0x1f\n                /* \"#utility.yul\":7349:7354   */\n              dup4\n                /* \"#utility.yul\":7345:7359   */\n              add\n                /* \"#utility.yul\":7341:7369   */\n              and\n                /* \"#utility.yul\":7331:7369   */\n              swap1\n              pop\n                /* \"#utility.yul\":7273:7375   */\n              swap2\n              swap1\n              pop\n              jump\t// out\n                /* \"#utility.yul\":7381:7547   */\n            tag_140:\n                /* \"#utility.yul\":7521:7539   */\n              0x6e65656420696e697420626f756e747900000000000000000000000000000000\n                /* \"#utility.yul\":7517:7518   */\n              0x00\n                /* \"#utility.yul\":7509:7515   */\n              dup3\n                /* \"#utility.yul\":7505:7519   */\n              add\n                /* \"#utility.yul\":7498:7540   */\n              mstore\n                /* \"#utility.yul\":7381:7547   */\n              pop\n              jump\t// out\n                /* \"#utility.yul\":7553:7675   */\n            tag_85:\n                /* \"#utility.yul\":7626:7650   */\n              tag_191\n                /* \"#utility.yul\":7644:7649   */\n              dup2\n                /* \"#utility.yul\":7626:7650   */\n              tag_125\n              jump\t// in\n            tag_191:\n                /* \"#utility.yul\":7619:7624   */\n              dup2\n                /* \"#utility.yul\":7616:7651   */\n              eq\n                /* \"#utility.yul\":7606:7669   */\n              tag_192\n              jumpi\n                /* \"#utility.yul\":7665:7666   */\n              0x00\n                /* \"#utility.yul\":7662:7663   */\n              dup1\n                /* \"#utility.yul\":7655:7667   */\n              revert\n                /* \"#utility.yul\":7606:7669   */\n            tag_192:\n                /* \"#utility.yul\":7553:7675   */\n              pop\n              jump\t// out\n                /* \"#utility.yul\":7681:7819   */\n            tag_89:\n                /* \"#utility.yul\":7762:7794   */\n              tag_194\n                /* \"#utility.yul\":7788:7793   */\n              dup2\n                /* \"#utility.yul\":7762:7794   */\n              tag_121\n              jump\t// in\n            tag_194:\n                /* \"#utility.yul\":7755:7760   */\n              dup2\n                /* \"#utility.yul\":7752:7795   */\n              eq\n                /* \"#utility.yul\":7742:7813   */\n              tag_195\n              jumpi\n                /* \"#utility.yul\":7809:7810   */\n              0x00\n                /* \"#utility.yul\":7806:7807   */\n              dup1\n                /* \"#utility.yul\":7799:7811   */\n              revert\n                /* \"#utility.yul\":7742:7813   */\n            tag_195:\n                /* \"#utility.yul\":7681:7819   */\n              pop\n              jump\t// out\n                /* \"#utility.yul\":7825:7941   */\n            tag_93:\n                /* \"#utility.yul\":7895:7916   */\n              tag_197\n                /* \"#utility.yul\":7910:7915   */\n              dup2\n                /* \"#utility.yul\":7895:7916   */\n              tag_167\n              jump\t// in\n            tag_197:\n                /* \"#utility.yul\":7888:7893   */\n              dup2\n                /* \"#utility.yul\":7885:7917   */\n              eq\n                /* \"#utility.yul\":7875:7935   */\n              tag_198\n              jumpi\n                /* \"#utility.yul\":7931:7932   */\n              0x00\n                /* \"#utility.yul\":7928:7929   */\n              dup1\n                /* \"#utility.yul\":7921:7933   */\n              revert\n                /* \"#utility.yul\":7875:7935   */\n            tag_198:\n                /* \"#utility.yul\":7825:7941   */\n              pop\n              jump\t// out\n                /* \"#utility.yul\":7947:8097   */\n            tag_97:\n                /* \"#utility.yul\":8034:8072   */\n              tag_200\n                /* \"#utility.yul\":8066:8071   */\n              dup2\n                /* \"#utility.yul\":8034:8072   */\n              tag_169\n              jump\t// in\n            tag_200:\n                /* \"#utility.yul\":8027:8032   */\n              dup2\n                /* \"#utility.yul\":8024:8073   */\n              eq\n                /* \"#utility.yul\":8014:8091   */\n              tag_201\n              jumpi\n                /* \"#utility.yul\":8087:8088   */\n              0x00\n                /* \"#utility.yul\":8084:8085   */\n              dup1\n                /* \"#utility.yul\":8077:8089   */\n              revert\n                /* \"#utility.yul\":8014:8091   */\n            tag_201:\n                /* \"#utility.yul\":7947:8097   */\n              pop\n              jump\t// out\n                /* \"#utility.yul\":8103:8225   */\n            tag_101:\n                /* \"#utility.yul\":8176:8200   */\n              tag_203\n                /* \"#utility.yul\":8194:8199   */\n              dup2\n                /* \"#utility.yul\":8176:8200   */\n              tag_144\n              jump\t// in\n            tag_203:\n                /* \"#utility.yul\":8169:8174   */\n              dup2\n                /* \"#utility.yul\":8166:8201   */\n              eq\n                /* \"#utility.yul\":8156:8219   */\n              tag_204\n              jumpi\n                /* \"#utility.yul\":8215:8216   */\n              0x00\n                /* \"#utility.yul\":8212:8213   */\n              dup1\n                /* \"#utility.yul\":8205:8217   */\n              revert\n                /* \"#utility.yul\":8156:8219   */\n            tag_204:\n                /* \"#utility.yul\":8103:8225   */\n              pop\n              jump\t// out\n\n            auxdata: 0xa2646970667358221220e31a687a2dbca07dcdc9fe824f469baf2e3ec7f8bd471ce6e303d70c5cbc0ee164736f6c63430008070033\n        }\n    }\n\n    auxdata: 0xa26469706673582212201c6a3c0354ccdd59f04e0648f4e0ac15e296d7dd8b517cd4b7d45123c45f337464736f6c63430008070033\n}\n",
				"bytecode": {
					"linkReferences": {},
					"object": "608060405234801561001057600080fd5b50336000806101000a81548173ffffffffffffffffffffffffffffffffffffffff021916908373ffffffffffffffffffffffffffffffffffffffff160217905550336000806101000a81548173ffffffffffffffffffffffffffffffffffffffff021916908373ffffffffffffffffffffffffffffffffffffffff1602179055506119d1806100a06000396000f3fe608060405260043610620000555760003560e01c80630c3b11a7146200006557806314da447f14620000a957806346964a0a14620000d7578063859e05471462000105578063f2fde38b14620001255762000060565b366200006057600080fd5b600080fd5b3480156200007257600080fd5b506200009160048036038101906200008b919062000747565b62000153565b604051620000a0919062000903565b60405180910390f35b348015620000b657600080fd5b50620000d56004803603810190620000cf91906200067d565b6200019c565b005b348015620000e457600080fd5b50620001036004803603810190620000fd919062000798565b62000214565b005b6200012360048036038101906200011d9190620006e1565b6200021a565b005b3480156200013257600080fd5b506200015160048036038101906200014b91906200064b565b620003bf565b005b6002818051602081018201805184825260208301602085012081835280955050505050506000915054906101000a900473ffffffffffffffffffffffffffffffffffffffff1681565b60008054906101000a900473ffffffffffffffffffffffffffffffffffffffff1673ffffffffffffffffffffffffffffffffffffffff163373ffffffffffffffffffffffffffffffffffffffff1614620001fb57620001fa62000b29565b5b8073ffffffffffffffffffffffffffffffffffffffff16ff5b50505050565b600081306040516200022c9062000563565b6200023992919062000944565b604051809103906000f08015801562000256573d6000803e3d6000fd5b5090508073ffffffffffffffffffffffffffffffffffffffff1663026b1d5f6040518163ffffffff1660e01b815260040160206040518083038186803b158015620002a057600080fd5b505afa158015620002b5573d6000803e3d6000fd5b505050506040513d601f19601f82011682018060405250810190620002db9190620006af565b73ffffffffffffffffffffffffffffffffffffffff166108fc349081150290604051600060405180830381858888f1935050505015801562000321573d6000803e3d6000fd5b5080600283604051620003359190620008ea565b908152602001604051809103902060006101000a81548173ffffffffffffffffffffffffffffffffffffffff021916908373ffffffffffffffffffffffffffffffffffffffff1602179055507f10da9753e8e5347b65100331705a66228cad7e14bb54dd9244a7ae532f1c01f982604051620003b2919062000920565b60405180910390a1505050565b60008054906101000a900473ffffffffffffffffffffffffffffffffffffffff1673ffffffffffffffffffffffffffffffffffffffff163373ffffffffffffffffffffffffffffffffffffffff16146200041e576200041d62000b29565b5b600073ffffffffffffffffffffffffffffffffffffffff168173ffffffffffffffffffffffffffffffffffffffff16141562000491576040517f08c379a0000000000000000000000000000000000000000000000000000000008152600401620004889062000978565b60405180910390fd5b6200049c816200049f565b50565b60008060009054906101000a900473ffffffffffffffffffffffffffffffffffffffff169050816000806101000a81548173ffffffffffffffffffffffffffffffffffffffff021916908373ffffffffffffffffffffffffffffffffffffffff1602179055508173ffffffffffffffffffffffffffffffffffffffff168173ffffffffffffffffffffffffffffffffffffffff167f8be0079c531659141344cd1fd0a4f28419497f9722a3daafe3b4186f6b6457e060405160405180910390a35050565b610d528062000c4a83390190565b6000620005886200058284620009c3565b6200099a565b905082815260208101848484011115620005a757620005a662000b8c565b5b620005b484828562000aae565b509392505050565b600081359050620005cd8162000bfb565b92915050565b600081359050620005e48162000c15565b92915050565b600081519050620005fb8162000c15565b92915050565b600082601f83011262000619576200061862000b87565b5b81356200062b84826020860162000571565b91505092915050565b600081359050620006458162000c2f565b92915050565b60006020828403121562000664576200066362000b96565b5b60006200067484828501620005bc565b91505092915050565b60006020828403121562000696576200069562000b96565b5b6000620006a684828501620005d3565b91505092915050565b600060208284031215620006c857620006c762000b96565b5b6000620006d884828501620005ea565b91505092915050565b60008060408385031215620006fb57620006fa62000b96565b5b60006200070b85828601620005bc565b925050602083013567ffffffffffffffff8111156200072f576200072e62000b91565b5b6200073d8582860162000601565b9150509250929050565b60006020828403121562000760576200075f62000b96565b5b600082013567ffffffffffffffff81111562000781576200078062000b91565b5b6200078f8482850162000601565b91505092915050565b60008060008060808587031215620007b557620007b462000b96565b5b600085013567ffffffffffffffff811115620007d657620007d562000b91565b5b620007e48782880162000601565b9450506020620007f787828801620005d3565b93505060406200080a8782880162000634565b92505060606200081d8782880162000634565b91505092959194509250565b620008348162000a20565b82525050565b620008458162000a72565b82525050565b60006200085882620009f9565b62000864818562000a04565b93506200087681856020860162000abd565b620008818162000b9b565b840191505092915050565b60006200089982620009f9565b620008a5818562000a15565b9350620008b781856020860162000abd565b80840191505092915050565b6000620008d260268362000a04565b9150620008df8262000bac565b604082019050919050565b6000620008f882846200088c565b915081905092915050565b60006020820190506200091a60008301846200083a565b92915050565b600060208201905081810360008301526200093c81846200084b565b905092915050565b600060408201905081810360008301526200096081856200084b565b905062000971602083018462000829565b9392505050565b600060208201905081810360008301526200099381620008c3565b9050919050565b6000620009a6620009b9565b9050620009b4828262000af3565b919050565b6000604051905090565b600067ffffffffffffffff821115620009e157620009e062000b58565b5b620009ec8262000b9b565b9050602081019050919050565b600081519050919050565b600082825260208201905092915050565b600081905092915050565b600062000a2d8262000a48565b9050919050565b600062000a418262000a48565b9050919050565b600073ffffffffffffffffffffffffffffffffffffffff82169050919050565b6000819050919050565b600062000a7f8262000a86565b9050919050565b600062000a938262000a9a565b9050919050565b600062000aa78262000a48565b9050919050565b82818337600083830152505050565b60005b8381101562000add57808201518184015260208101905062000ac0565b8381111562000aed576000848401525b50505050565b62000afe8262000b9b565b810181811067ffffffffffffffff8211171562000b205762000b1f62000b58565b5b80604052505050565b7f4e487b7100000000000000000000000000000000000000000000000000000000600052600160045260246000fd5b7f4e487b7100000000000000000000000000000000000000000000000000000000600052604160045260246000fd5b600080fd5b600080fd5b600080fd5b600080fd5b6000601f19601f8301169050919050565b7f4f776e61626c653a206e6577206f776e657220697320746865207a65726f206160008201527f6464726573730000000000000000000000000000000000000000000000000000602082015250565b62000c068162000a20565b811462000c1257600080fd5b50565b62000c208162000a34565b811462000c2c57600080fd5b50565b62000c3a8162000a68565b811462000c4657600080fd5b5056fe60806040523480156200001157600080fd5b5060405162000d5238038062000d528339818101604052810190620000379190620001dd565b81600190805190602001906200004f92919062000098565b50806000806101000a81548173ffffffffffffffffffffffffffffffffffffffff021916908373ffffffffffffffffffffffffffffffffffffffff160217905550505062000415565b828054620000a6906200030c565b90600052602060002090601f016020900481019282620000ca576000855562000116565b82601f10620000e557805160ff191683800117855562000116565b8280016001018555821562000116579182015b8281111562000115578251825591602001919060010190620000f8565b5b50905062000125919062000129565b5090565b5b80821115620001445760008160009055506001016200012a565b5090565b60006200015f62000159846200026c565b62000243565b9050828152602081018484840111156200017e576200017d620003db565b5b6200018b848285620002d6565b509392505050565b600081519050620001a481620003fb565b92915050565b600082601f830112620001c257620001c1620003d6565b5b8151620001d484826020860162000148565b91505092915050565b60008060408385031215620001f757620001f6620003e5565b5b600083015167ffffffffffffffff811115620002185762000217620003e0565b5b6200022685828601620001aa565b9250506020620002398582860162000193565b9150509250929050565b60006200024f62000262565b90506200025d828262000342565b919050565b6000604051905090565b600067ffffffffffffffff8211156200028a5762000289620003a7565b5b6200029582620003ea565b9050602081019050919050565b6000620002af82620002b6565b9050919050565b600073ffffffffffffffffffffffffffffffffffffffff82169050919050565b60005b83811015620002f6578082015181840152602081019050620002d9565b8381111562000306576000848401525b50505050565b600060028204905060018216806200032557607f821691505b602082108114156200033c576200033b62000378565b5b50919050565b6200034d82620003ea565b810181811067ffffffffffffffff821117156200036f576200036e620003a7565b5b80604052505050565b7f4e487b7100000000000000000000000000000000000000000000000000000000600052602260045260246000fd5b7f4e487b7100000000000000000000000000000000000000000000000000000000600052604160045260246000fd5b600080fd5b600080fd5b600080fd5b600080fd5b6000601f19601f8301169050919050565b6200040681620002a2565b81146200041257600080fd5b50565b61092d80620004256000396000f3fe6080604052600436106100745760003560e01c8063af640d0f1161004e578063af640d0f14610180578063beabacc8146101ab578063d0e30db0146101d4578063e1f21c67146101de5761010b565b8063026b1d5f1461011057806313658f8a1461013b57806323b872dd146101575761010b565b3661010b57600073ffffffffffffffffffffffffffffffffffffffff1660008054906101000a900473ffffffffffffffffffffffffffffffffffffffff1673ffffffffffffffffffffffffffffffffffffffff161415610109576040517f08c379a000000000000000000000000000000000000000000000000000000000815260040161010090610709565b60405180910390fd5b005b600080fd5b34801561011c57600080fd5b50610125610207565b604051610132919061066c565b60405180910390f35b61015560048036038101906101509190610523565b61020c565b005b34801561016357600080fd5b5061017e60048036038101906101799190610590565b610257565b005b34801561018c57600080fd5b506101956102f4565b6040516101a291906106e7565b60405180910390f35b3480156101b757600080fd5b506101d260048036038101906101cd9190610590565b610382565b005b6101dc61041d565b005b3480156101ea57600080fd5b5061020560048036038101906102009190610590565b61041f565b005b600090565b8173ffffffffffffffffffffffffffffffffffffffff166108fc829081150290604051600060405180830381858888f19350505050158015610252573d6000803e3d6000fd5b505050565b8273ffffffffffffffffffffffffffffffffffffffff166323b872dd3084846040518463ffffffff1660e01b815260040161029493929190610687565b602060405180830381600087803b1580156102ae57600080fd5b505af11580156102c2573d6000803e3d6000fd5b505050506040513d601f19601f820116820180604052508101906102e69190610563565b6102ef57600080fd5b505050565b60018054610301906107e4565b80601f016020809104026020016040519081016040528092919081815260200182805461032d906107e4565b801561037a5780601f1061034f5761010080835404028352916020019161037a565b820191906000526020600020905b81548152906001019060200180831161035d57829003601f168201915b505050505081565b8273ffffffffffffffffffffffffffffffffffffffff1663a9059cbb83836040518363ffffffff1660e01b81526004016103bd9291906106be565b602060405180830381600087803b1580156103d757600080fd5b505af11580156103eb573d6000803e3d6000fd5b505050506040513d601f19601f8201168201806040525081019061040f9190610563565b61041857600080fd5b505050565b565b8273ffffffffffffffffffffffffffffffffffffffff1663095ea7b383836040518363ffffffff1660e01b815260040161045a9291906106be565b602060405180830381600087803b15801561047457600080fd5b505af1158015610488573d6000803e3d6000fd5b505050506040513d601f19601f820116820180604052508101906104ac9190610563565b6104b557600080fd5b505050565b6000813590506104c981610884565b92915050565b6000813590506104de8161089b565b92915050565b6000815190506104f3816108b2565b92915050565b600081359050610508816108c9565b92915050565b60008135905061051d816108e0565b92915050565b6000806040838503121561053a57610539610845565b5b6000610548858286016104cf565b92505060206105598582860161050e565b9150509250929050565b60006020828403121561057957610578610845565b5b6000610587848285016104e4565b91505092915050565b6000806000606084860312156105a9576105a8610845565b5b60006105b7868287016104f9565b93505060206105c8868287016104ba565b92505060406105d98682870161050e565b9150509250925092565b6105ec81610757565b82525050565b6105fb81610745565b82525050565b600061060c82610729565b6106168185610734565b93506106268185602086016107b1565b61062f8161084a565b840191505092915050565b6000610647601083610734565b91506106528261085b565b602082019050919050565b610666816107a7565b82525050565b600060208201905061068160008301846105e3565b92915050565b600060608201905061069c60008301866105f2565b6106a960208301856105f2565b6106b6604083018461065d565b949350505050565b60006040820190506106d360008301856105f2565b6106e0602083018461065d565b9392505050565b600060208201905081810360008301526107018184610601565b905092915050565b600060208201905081810360008301526107228161063a565b9050919050565b600081519050919050565b600082825260208201905092915050565b600061075082610787565b9050919050565b600061076282610787565b9050919050565b60008115159050919050565b600061078082610745565b9050919050565b600073ffffffffffffffffffffffffffffffffffffffff82169050919050565b6000819050919050565b60005b838110156107cf5780820151818401526020810190506107b4565b838111156107de576000848401525b50505050565b600060028204905060018216806107fc57607f821691505b602082108114156108105761080f610816565b5b50919050565b7f4e487b7100000000000000000000000000000000000000000000000000000000600052602260045260246000fd5b600080fd5b6000601f19601f8301169050919050565b7f6e65656420696e697420626f756e747900000000000000000000000000000000600082015250565b61088d81610745565b811461089857600080fd5b50565b6108a481610757565b81146108af57600080fd5b50565b6108bb81610769565b81146108c657600080fd5b50565b6108d281610775565b81146108dd57600080fd5b50565b6108e9816107a7565b81146108f457600080fd5b5056fea2646970667358221220e31a687a2dbca07dcdc9fe824f469baf2e3ec7f8bd471ce6e303d70c5cbc0ee164736f6c63430008070033a26469706673582212201c6a3c0354ccdd59f04e0648f4e0ac15e296d7dd8b517cd4b7d45123c45f337464736f6c63430008070033",
					"opcodes": "PUSH1 0x80 PUSH1 0x40 MSTORE CALLVALUE DUP1 ISZERO PUSH2 0x10 JUMPI PUSH1 0x0 DUP1 REVERT JUMPDEST POP CALLER PUSH1 0x0 DUP1 PUSH2 0x100 EXP DUP2 SLOAD DUP2 PUSH20 0xFFFFFFFFFFFFFFFFFFFFFFFFFFFFFFFFFFFFFFFF MUL NOT AND SWAP1 DUP4 PUSH20 0xFFFFFFFFFFFFFFFFFFFFFFFFFFFFFFFFFFFFFFFF AND MUL OR SWAP1 SSTORE POP CALLER PUSH1 0x0 DUP1 PUSH2 0x100 EXP DUP2 SLOAD DUP2 PUSH20 0xFFFFFFFFFFFFFFFFFFFFFFFFFFFFFFFFFFFFFFFF MUL NOT AND SWAP1 DUP4 PUSH20 0xFFFFFFFFFFFFFFFFFFFFFFFFFFFFFFFFFFFFFFFF AND MUL OR SWAP1 SSTORE POP PUSH2 0x19D1 DUP1 PUSH2 0xA0 PUSH1 0x0 CODECOPY PUSH1 0x0 RETURN INVALID PUSH1 0x80 PUSH1 0x40 MSTORE PUSH1 0x4 CALLDATASIZE LT PUSH3 0x55 JUMPI PUSH1 0x0 CALLDATALOAD PUSH1 0xE0 SHR DUP1 PUSH4 0xC3B11A7 EQ PUSH3 0x65 JUMPI DUP1 PUSH4 0x14DA447F EQ PUSH3 0xA9 JUMPI DUP1 PUSH4 0x46964A0A EQ PUSH3 0xD7 JUMPI DUP1 PUSH4 0x859E0547 EQ PUSH3 0x105 JUMPI DUP1 PUSH4 0xF2FDE38B EQ PUSH3 0x125 JUMPI PUSH3 0x60 JUMP JUMPDEST CALLDATASIZE PUSH3 0x60 JUMPI PUSH1 0x0 DUP1 REVERT JUMPDEST PUSH1 0x0 DUP1 REVERT JUMPDEST CALLVALUE DUP1 ISZERO PUSH3 0x72 JUMPI PUSH1 0x0 DUP1 REVERT JUMPDEST POP PUSH3 0x91 PUSH1 0x4 DUP1 CALLDATASIZE SUB DUP2 ADD SWAP1 PUSH3 0x8B SWAP2 SWAP1 PUSH3 0x747 JUMP JUMPDEST PUSH3 0x153 JUMP JUMPDEST PUSH1 0x40 MLOAD PUSH3 0xA0 SWAP2 SWAP1 PUSH3 0x903 JUMP JUMPDEST PUSH1 0x40 MLOAD DUP1 SWAP2 SUB SWAP1 RETURN JUMPDEST CALLVALUE DUP1 ISZERO PUSH3 0xB6 JUMPI PUSH1 0x0 DUP1 REVERT JUMPDEST POP PUSH3 0xD5 PUSH1 0x4 DUP1 CALLDATASIZE SUB DUP2 ADD SWAP1 PUSH3 0xCF SWAP2 SWAP1 PUSH3 0x67D JUMP JUMPDEST PUSH3 0x19C JUMP JUMPDEST STOP JUMPDEST CALLVALUE DUP1 ISZERO PUSH3 0xE4 JUMPI PUSH1 0x0 DUP1 REVERT JUMPDEST POP PUSH3 0x103 PUSH1 0x4 DUP1 CALLDATASIZE SUB DUP2 ADD SWAP1 PUSH3 0xFD SWAP2 SWAP1 PUSH3 0x798 JUMP JUMPDEST PUSH3 0x214 JUMP JUMPDEST STOP JUMPDEST PUSH3 0x123 PUSH1 0x4 DUP1 CALLDATASIZE SUB DUP2 ADD SWAP1 PUSH3 0x11D SWAP2 SWAP1 PUSH3 0x6E1 JUMP JUMPDEST PUSH3 0x21A JUMP JUMPDEST STOP JUMPDEST CALLVALUE DUP1 ISZERO PUSH3 0x132 JUMPI PUSH1 0x0 DUP1 REVERT JUMPDEST POP PUSH3 0x151 PUSH1 0x4 DUP1 CALLDATASIZE SUB DUP2 ADD SWAP1 PUSH3 0x14B SWAP2 SWAP1 PUSH3 0x64B JUMP JUMPDEST PUSH3 0x3BF JUMP JUMPDEST STOP JUMPDEST PUSH1 0x2 DUP2 DUP1 MLOAD PUSH1 0x20 DUP2 ADD DUP3 ADD DUP1 MLOAD DUP5 DUP3 MSTORE PUSH1 0x20 DUP4 ADD PUSH1 0x20 DUP6 ADD KECCAK256 DUP2 DUP4 MSTORE DUP1 SWAP6 POP POP POP POP POP POP PUSH1 0x0 SWAP2 POP SLOAD SWAP1 PUSH2 0x100 EXP SWAP1 DIV PUSH20 0xFFFFFFFFFFFFFFFFFFFFFFFFFFFFFFFFFFFFFFFF AND DUP2 JUMP JUMPDEST PUSH1 0x0 DUP1 SLOAD SWAP1 PUSH2 0x100 EXP SWAP1 DIV PUSH20 0xFFFFFFFFFFFFFFFFFFFFFFFFFFFFFFFFFFFFFFFF AND PUSH20 0xFFFFFFFFFFFFFFFFFFFFFFFFFFFFFFFFFFFFFFFF AND CALLER PUSH20 0xFFFFFFFFFFFFFFFFFFFFFFFFFFFFFFFFFFFFFFFF AND EQ PUSH3 0x1FB JUMPI PUSH3 0x1FA PUSH3 0xB29 JUMP JUMPDEST JUMPDEST DUP1 PUSH20 0xFFFFFFFFFFFFFFFFFFFFFFFFFFFFFFFFFFFFFFFF AND SELFDESTRUCT JUMPDEST POP POP POP POP JUMP JUMPDEST PUSH1 0x0 DUP2 ADDRESS PUSH1 0x40 MLOAD PUSH3 0x22C SWAP1 PUSH3 0x563 JUMP JUMPDEST PUSH3 0x239 SWAP3 SWAP2 SWAP1 PUSH3 0x944 JUMP JUMPDEST PUSH1 0x40 MLOAD DUP1 SWAP2 SUB SWAP1 PUSH1 0x0 CREATE DUP1 ISZERO DUP1 ISZERO PUSH3 0x256 JUMPI RETURNDATASIZE PUSH1 0x0 DUP1 RETURNDATACOPY RETURNDATASIZE PUSH1 0x0 REVERT JUMPDEST POP SWAP1 POP DUP1 PUSH20 0xFFFFFFFFFFFFFFFFFFFFFFFFFFFFFFFFFFFFFFFF AND PUSH4 0x26B1D5F PUSH1 0x40 MLOAD DUP2 PUSH4 0xFFFFFFFF AND PUSH1 0xE0 SHL DUP2 MSTORE PUSH1 0x4 ADD PUSH1 0x20 PUSH1 0x40 MLOAD DUP1 DUP4 SUB DUP2 DUP7 DUP1 EXTCODESIZE ISZERO DUP1 ISZERO PUSH3 0x2A0 JUMPI PUSH1 0x0 DUP1 REVERT JUMPDEST POP GAS STATICCALL ISZERO DUP1 ISZERO PUSH3 0x2B5 JUMPI RETURNDATASIZE PUSH1 0x0 DUP1 RETURNDATACOPY RETURNDATASIZE PUSH1 0x0 REVERT JUMPDEST POP POP POP POP PUSH1 0x40 MLOAD RETURNDATASIZE PUSH1 0x1F NOT PUSH1 0x1F DUP3 ADD AND DUP3 ADD DUP1 PUSH1 0x40 MSTORE POP DUP2 ADD SWAP1 PUSH3 0x2DB SWAP2 SWAP1 PUSH3 0x6AF JUMP JUMPDEST PUSH20 0xFFFFFFFFFFFFFFFFFFFFFFFFFFFFFFFFFFFFFFFF AND PUSH2 0x8FC CALLVALUE SWAP1 DUP2 ISZERO MUL SWAP1 PUSH1 0x40 MLOAD PUSH1 0x0 PUSH1 0x40 MLOAD DUP1 DUP4 SUB DUP2 DUP6 DUP9 DUP9 CALL SWAP4 POP POP POP POP ISZERO DUP1 ISZERO PUSH3 0x321 JUMPI RETURNDATASIZE PUSH1 0x0 DUP1 RETURNDATACOPY RETURNDATASIZE PUSH1 0x0 REVERT JUMPDEST POP DUP1 PUSH1 0x2 DUP4 PUSH1 0x40 MLOAD PUSH3 0x335 SWAP2 SWAP1 PUSH3 0x8EA JUMP JUMPDEST SWAP1 DUP2 MSTORE PUSH1 0x20 ADD PUSH1 0x40 MLOAD DUP1 SWAP2 SUB SWAP1 KECCAK256 PUSH1 0x0 PUSH2 0x100 EXP DUP2 SLOAD DUP2 PUSH20 0xFFFFFFFFFFFFFFFFFFFFFFFFFFFFFFFFFFFFFFFF MUL NOT AND SWAP1 DUP4 PUSH20 0xFFFFFFFFFFFFFFFFFFFFFFFFFFFFFFFFFFFFFFFF AND MUL OR SWAP1 SSTORE POP PUSH32 0x10DA9753E8E5347B65100331705A66228CAD7E14BB54DD9244A7AE532F1C01F9 DUP3 PUSH1 0x40 MLOAD PUSH3 0x3B2 SWAP2 SWAP1 PUSH3 0x920 JUMP JUMPDEST PUSH1 0x40 MLOAD DUP1 SWAP2 SUB SWAP1 LOG1 POP POP POP JUMP JUMPDEST PUSH1 0x0 DUP1 SLOAD SWAP1 PUSH2 0x100 EXP SWAP1 DIV PUSH20 0xFFFFFFFFFFFFFFFFFFFFFFFFFFFFFFFFFFFFFFFF AND PUSH20 0xFFFFFFFFFFFFFFFFFFFFFFFFFFFFFFFFFFFFFFFF AND CALLER PUSH20 0xFFFFFFFFFFFFFFFFFFFFFFFFFFFFFFFFFFFFFFFF AND EQ PUSH3 0x41E JUMPI PUSH3 0x41D PUSH3 0xB29 JUMP JUMPDEST JUMPDEST PUSH1 0x0 PUSH20 0xFFFFFFFFFFFFFFFFFFFFFFFFFFFFFFFFFFFFFFFF AND DUP2 PUSH20 0xFFFFFFFFFFFFFFFFFFFFFFFFFFFFFFFFFFFFFFFF AND EQ ISZERO PUSH3 0x491 JUMPI PUSH1 0x40 MLOAD PUSH32 0x8C379A000000000000000000000000000000000000000000000000000000000 DUP2 MSTORE PUSH1 0x4 ADD PUSH3 0x488 SWAP1 PUSH3 0x978 JUMP JUMPDEST PUSH1 0x40 MLOAD DUP1 SWAP2 SUB SWAP1 REVERT JUMPDEST PUSH3 0x49C DUP2 PUSH3 0x49F JUMP JUMPDEST POP JUMP JUMPDEST PUSH1 0x0 DUP1 PUSH1 0x0 SWAP1 SLOAD SWAP1 PUSH2 0x100 EXP SWAP1 DIV PUSH20 0xFFFFFFFFFFFFFFFFFFFFFFFFFFFFFFFFFFFFFFFF AND SWAP1 POP DUP2 PUSH1 0x0 DUP1 PUSH2 0x100 EXP DUP2 SLOAD DUP2 PUSH20 0xFFFFFFFFFFFFFFFFFFFFFFFFFFFFFFFFFFFFFFFF MUL NOT AND SWAP1 DUP4 PUSH20 0xFFFFFFFFFFFFFFFFFFFFFFFFFFFFFFFFFFFFFFFF AND MUL OR SWAP1 SSTORE POP DUP2 PUSH20 0xFFFFFFFFFFFFFFFFFFFFFFFFFFFFFFFFFFFFFFFF AND DUP2 PUSH20 0xFFFFFFFFFFFFFFFFFFFFFFFFFFFFFFFFFFFFFFFF AND PUSH32 0x8BE0079C531659141344CD1FD0A4F28419497F9722A3DAAFE3B4186F6B6457E0 PUSH1 0x40 MLOAD PUSH1 0x40 MLOAD DUP1 SWAP2 SUB SWAP1 LOG3 POP POP JUMP JUMPDEST PUSH2 0xD52 DUP1 PUSH3 0xC4A DUP4 CODECOPY ADD SWAP1 JUMP JUMPDEST PUSH1 0x0 PUSH3 0x588 PUSH3 0x582 DUP5 PUSH3 0x9C3 JUMP JUMPDEST PUSH3 0x99A JUMP JUMPDEST SWAP1 POP DUP3 DUP2 MSTORE PUSH1 0x20 DUP2 ADD DUP5 DUP5 DUP5 ADD GT ISZERO PUSH3 0x5A7 JUMPI PUSH3 0x5A6 PUSH3 0xB8C JUMP JUMPDEST JUMPDEST PUSH3 0x5B4 DUP5 DUP3 DUP6 PUSH3 0xAAE JUMP JUMPDEST POP SWAP4 SWAP3 POP POP POP JUMP JUMPDEST PUSH1 0x0 DUP2 CALLDATALOAD SWAP1 POP PUSH3 0x5CD DUP2 PUSH3 0xBFB JUMP JUMPDEST SWAP3 SWAP2 POP POP JUMP JUMPDEST PUSH1 0x0 DUP2 CALLDATALOAD SWAP1 POP PUSH3 0x5E4 DUP2 PUSH3 0xC15 JUMP JUMPDEST SWAP3 SWAP2 POP POP JUMP JUMPDEST PUSH1 0x0 DUP2 MLOAD SWAP1 POP PUSH3 0x5FB DUP2 PUSH3 0xC15 JUMP JUMPDEST SWAP3 SWAP2 POP POP JUMP JUMPDEST PUSH1 0x0 DUP3 PUSH1 0x1F DUP4 ADD SLT PUSH3 0x619 JUMPI PUSH3 0x618 PUSH3 0xB87 JUMP JUMPDEST JUMPDEST DUP2 CALLDATALOAD PUSH3 0x62B DUP5 DUP3 PUSH1 0x20 DUP7 ADD PUSH3 0x571 JUMP JUMPDEST SWAP2 POP POP SWAP3 SWAP2 POP POP JUMP JUMPDEST PUSH1 0x0 DUP2 CALLDATALOAD SWAP1 POP PUSH3 0x645 DUP2 PUSH3 0xC2F JUMP JUMPDEST SWAP3 SWAP2 POP POP JUMP JUMPDEST PUSH1 0x0 PUSH1 0x20 DUP3 DUP5 SUB SLT ISZERO PUSH3 0x664 JUMPI PUSH3 0x663 PUSH3 0xB96 JUMP JUMPDEST JUMPDEST PUSH1 0x0 PUSH3 0x674 DUP5 DUP3 DUP6 ADD PUSH3 0x5BC JUMP JUMPDEST SWAP2 POP POP SWAP3 SWAP2 POP POP JUMP JUMPDEST PUSH1 0x0 PUSH1 0x20 DUP3 DUP5 SUB SLT ISZERO PUSH3 0x696 JUMPI PUSH3 0x695 PUSH3 0xB96 JUMP JUMPDEST JUMPDEST PUSH1 0x0 PUSH3 0x6A6 DUP5 DUP3 DUP6 ADD PUSH3 0x5D3 JUMP JUMPDEST SWAP2 POP POP SWAP3 SWAP2 POP POP JUMP JUMPDEST PUSH1 0x0 PUSH1 0x20 DUP3 DUP5 SUB SLT ISZERO PUSH3 0x6C8 JUMPI PUSH3 0x6C7 PUSH3 0xB96 JUMP JUMPDEST JUMPDEST PUSH1 0x0 PUSH3 0x6D8 DUP5 DUP3 DUP6 ADD PUSH3 0x5EA JUMP JUMPDEST SWAP2 POP POP SWAP3 SWAP2 POP POP JUMP JUMPDEST PUSH1 0x0 DUP1 PUSH1 0x40 DUP4 DUP6 SUB SLT ISZERO PUSH3 0x6FB JUMPI PUSH3 0x6FA PUSH3 0xB96 JUMP JUMPDEST JUMPDEST PUSH1 0x0 PUSH3 0x70B DUP6 DUP3 DUP7 ADD PUSH3 0x5BC JUMP JUMPDEST SWAP3 POP POP PUSH1 0x20 DUP4 ADD CALLDATALOAD PUSH8 0xFFFFFFFFFFFFFFFF DUP2 GT ISZERO PUSH3 0x72F JUMPI PUSH3 0x72E PUSH3 0xB91 JUMP JUMPDEST JUMPDEST PUSH3 0x73D DUP6 DUP3 DUP7 ADD PUSH3 0x601 JUMP JUMPDEST SWAP2 POP POP SWAP3 POP SWAP3 SWAP1 POP JUMP JUMPDEST PUSH1 0x0 PUSH1 0x20 DUP3 DUP5 SUB SLT ISZERO PUSH3 0x760 JUMPI PUSH3 0x75F PUSH3 0xB96 JUMP JUMPDEST JUMPDEST PUSH1 0x0 DUP3 ADD CALLDATALOAD PUSH8 0xFFFFFFFFFFFFFFFF DUP2 GT ISZERO PUSH3 0x781 JUMPI PUSH3 0x780 PUSH3 0xB91 JUMP JUMPDEST JUMPDEST PUSH3 0x78F DUP5 DUP3 DUP6 ADD PUSH3 0x601 JUMP JUMPDEST SWAP2 POP POP SWAP3 SWAP2 POP POP JUMP JUMPDEST PUSH1 0x0 DUP1 PUSH1 0x0 DUP1 PUSH1 0x80 DUP6 DUP8 SUB SLT ISZERO PUSH3 0x7B5 JUMPI PUSH3 0x7B4 PUSH3 0xB96 JUMP JUMPDEST JUMPDEST PUSH1 0x0 DUP6 ADD CALLDATALOAD PUSH8 0xFFFFFFFFFFFFFFFF DUP2 GT ISZERO PUSH3 0x7D6 JUMPI PUSH3 0x7D5 PUSH3 0xB91 JUMP JUMPDEST JUMPDEST PUSH3 0x7E4 DUP8 DUP3 DUP9 ADD PUSH3 0x601 JUMP JUMPDEST SWAP5 POP POP PUSH1 0x20 PUSH3 0x7F7 DUP8 DUP3 DUP9 ADD PUSH3 0x5D3 JUMP JUMPDEST SWAP4 POP POP PUSH1 0x40 PUSH3 0x80A DUP8 DUP3 DUP9 ADD PUSH3 0x634 JUMP JUMPDEST SWAP3 POP POP PUSH1 0x60 PUSH3 0x81D DUP8 DUP3 DUP9 ADD PUSH3 0x634 JUMP JUMPDEST SWAP2 POP POP SWAP3 SWAP6 SWAP2 SWAP5 POP SWAP3 POP JUMP JUMPDEST PUSH3 0x834 DUP2 PUSH3 0xA20 JUMP JUMPDEST DUP3 MSTORE POP POP JUMP JUMPDEST PUSH3 0x845 DUP2 PUSH3 0xA72 JUMP JUMPDEST DUP3 MSTORE POP POP JUMP JUMPDEST PUSH1 0x0 PUSH3 0x858 DUP3 PUSH3 0x9F9 JUMP JUMPDEST PUSH3 0x864 DUP2 DUP6 PUSH3 0xA04 JUMP JUMPDEST SWAP4 POP PUSH3 0x876 DUP2 DUP6 PUSH1 0x20 DUP7 ADD PUSH3 0xABD JUMP JUMPDEST PUSH3 0x881 DUP2 PUSH3 0xB9B JUMP JUMPDEST DUP5 ADD SWAP2 POP POP SWAP3 SWAP2 POP POP JUMP JUMPDEST PUSH1 0x0 PUSH3 0x899 DUP3 PUSH3 0x9F9 JUMP JUMPDEST PUSH3 0x8A5 DUP2 DUP6 PUSH3 0xA15 JUMP JUMPDEST SWAP4 POP PUSH3 0x8B7 DUP2 DUP6 PUSH1 0x20 DUP7 ADD PUSH3 0xABD JUMP JUMPDEST DUP1 DUP5 ADD SWAP2 POP POP SWAP3 SWAP2 POP POP JUMP JUMPDEST PUSH1 0x0 PUSH3 0x8D2 PUSH1 0x26 DUP4 PUSH3 0xA04 JUMP JUMPDEST SWAP2 POP PUSH3 0x8DF DUP3 PUSH3 0xBAC JUMP JUMPDEST PUSH1 0x40 DUP3 ADD SWAP1 POP SWAP2 SWAP1 POP JUMP JUMPDEST PUSH1 0x0 PUSH3 0x8F8 DUP3 DUP5 PUSH3 0x88C JUMP JUMPDEST SWAP2 POP DUP2 SWAP1 POP SWAP3 SWAP2 POP POP JUMP JUMPDEST PUSH1 0x0 PUSH1 0x20 DUP3 ADD SWAP1 POP PUSH3 0x91A PUSH1 0x0 DUP4 ADD DUP5 PUSH3 0x83A JUMP JUMPDEST SWAP3 SWAP2 POP POP JUMP JUMPDEST PUSH1 0x0 PUSH1 0x20 DUP3 ADD SWAP1 POP DUP2 DUP2 SUB PUSH1 0x0 DUP4 ADD MSTORE PUSH3 0x93C DUP2 DUP5 PUSH3 0x84B JUMP JUMPDEST SWAP1 POP SWAP3 SWAP2 POP POP JUMP JUMPDEST PUSH1 0x0 PUSH1 0x40 DUP3 ADD SWAP1 POP DUP2 DUP2 SUB PUSH1 0x0 DUP4 ADD MSTORE PUSH3 0x960 DUP2 DUP6 PUSH3 0x84B JUMP JUMPDEST SWAP1 POP PUSH3 0x971 PUSH1 0x20 DUP4 ADD DUP5 PUSH3 0x829 JUMP JUMPDEST SWAP4 SWAP3 POP POP POP JUMP JUMPDEST PUSH1 0x0 PUSH1 0x20 DUP3 ADD SWAP1 POP DUP2 DUP2 SUB PUSH1 0x0 DUP4 ADD MSTORE PUSH3 0x993 DUP2 PUSH3 0x8C3 JUMP JUMPDEST SWAP1 POP SWAP2 SWAP1 POP JUMP JUMPDEST PUSH1 0x0 PUSH3 0x9A6 PUSH3 0x9B9 JUMP JUMPDEST SWAP1 POP PUSH3 0x9B4 DUP3 DUP3 PUSH3 0xAF3 JUMP JUMPDEST SWAP2 SWAP1 POP JUMP JUMPDEST PUSH1 0x0 PUSH1 0x40 MLOAD SWAP1 POP SWAP1 JUMP JUMPDEST PUSH1 0x0 PUSH8 0xFFFFFFFFFFFFFFFF DUP3 GT ISZERO PUSH3 0x9E1 JUMPI PUSH3 0x9E0 PUSH3 0xB58 JUMP JUMPDEST JUMPDEST PUSH3 0x9EC DUP3 PUSH3 0xB9B JUMP JUMPDEST SWAP1 POP PUSH1 0x20 DUP2 ADD SWAP1 POP SWAP2 SWAP1 POP JUMP JUMPDEST PUSH1 0x0 DUP2 MLOAD SWAP1 POP SWAP2 SWAP1 POP JUMP JUMPDEST PUSH1 0x0 DUP3 DUP3 MSTORE PUSH1 0x20 DUP3 ADD SWAP1 POP SWAP3 SWAP2 POP POP JUMP JUMPDEST PUSH1 0x0 DUP2 SWAP1 POP SWAP3 SWAP2 POP POP JUMP JUMPDEST PUSH1 0x0 PUSH3 0xA2D DUP3 PUSH3 0xA48 JUMP JUMPDEST SWAP1 POP SWAP2 SWAP1 POP JUMP JUMPDEST PUSH1 0x0 PUSH3 0xA41 DUP3 PUSH3 0xA48 JUMP JUMPDEST SWAP1 POP SWAP2 SWAP1 POP JUMP JUMPDEST PUSH1 0x0 PUSH20 0xFFFFFFFFFFFFFFFFFFFFFFFFFFFFFFFFFFFFFFFF DUP3 AND SWAP1 POP SWAP2 SWAP1 POP JUMP JUMPDEST PUSH1 0x0 DUP2 SWAP1 POP SWAP2 SWAP1 POP JUMP JUMPDEST PUSH1 0x0 PUSH3 0xA7F DUP3 PUSH3 0xA86 JUMP JUMPDEST SWAP1 POP SWAP2 SWAP1 POP JUMP JUMPDEST PUSH1 0x0 PUSH3 0xA93 DUP3 PUSH3 0xA9A JUMP JUMPDEST SWAP1 POP SWAP2 SWAP1 POP JUMP JUMPDEST PUSH1 0x0 PUSH3 0xAA7 DUP3 PUSH3 0xA48 JUMP JUMPDEST SWAP1 POP SWAP2 SWAP1 POP JUMP JUMPDEST DUP3 DUP2 DUP4 CALLDATACOPY PUSH1 0x0 DUP4 DUP4 ADD MSTORE POP POP POP JUMP JUMPDEST PUSH1 0x0 JUMPDEST DUP4 DUP2 LT ISZERO PUSH3 0xADD JUMPI DUP1 DUP3 ADD MLOAD DUP2 DUP5 ADD MSTORE PUSH1 0x20 DUP2 ADD SWAP1 POP PUSH3 0xAC0 JUMP JUMPDEST DUP4 DUP2 GT ISZERO PUSH3 0xAED JUMPI PUSH1 0x0 DUP5 DUP5 ADD MSTORE JUMPDEST POP POP POP POP JUMP JUMPDEST PUSH3 0xAFE DUP3 PUSH3 0xB9B JUMP JUMPDEST DUP2 ADD DUP2 DUP2 LT PUSH8 0xFFFFFFFFFFFFFFFF DUP3 GT OR ISZERO PUSH3 0xB20 JUMPI PUSH3 0xB1F PUSH3 0xB58 JUMP JUMPDEST JUMPDEST DUP1 PUSH1 0x40 MSTORE POP POP POP JUMP JUMPDEST PUSH32 0x4E487B7100000000000000000000000000000000000000000000000000000000 PUSH1 0x0 MSTORE PUSH1 0x1 PUSH1 0x4 MSTORE PUSH1 0x24 PUSH1 0x0 REVERT JUMPDEST PUSH32 0x4E487B7100000000000000000000000000000000000000000000000000000000 PUSH1 0x0 MSTORE PUSH1 0x41 PUSH1 0x4 MSTORE PUSH1 0x24 PUSH1 0x0 REVERT JUMPDEST PUSH1 0x0 DUP1 REVERT JUMPDEST PUSH1 0x0 DUP1 REVERT JUMPDEST PUSH1 0x0 DUP1 REVERT JUMPDEST PUSH1 0x0 DUP1 REVERT JUMPDEST PUSH1 0x0 PUSH1 0x1F NOT PUSH1 0x1F DUP4 ADD AND SWAP1 POP SWAP2 SWAP1 POP JUMP JUMPDEST PUSH32 0x4F776E61626C653A206E6577206F776E657220697320746865207A65726F2061 PUSH1 0x0 DUP3 ADD MSTORE PUSH32 0x6464726573730000000000000000000000000000000000000000000000000000 PUSH1 0x20 DUP3 ADD MSTORE POP JUMP JUMPDEST PUSH3 0xC06 DUP2 PUSH3 0xA20 JUMP JUMPDEST DUP2 EQ PUSH3 0xC12 JUMPI PUSH1 0x0 DUP1 REVERT JUMPDEST POP JUMP JUMPDEST PUSH3 0xC20 DUP2 PUSH3 0xA34 JUMP JUMPDEST DUP2 EQ PUSH3 0xC2C JUMPI PUSH1 0x0 DUP1 REVERT JUMPDEST POP JUMP JUMPDEST PUSH3 0xC3A DUP2 PUSH3 0xA68 JUMP JUMPDEST DUP2 EQ PUSH3 0xC46 JUMPI PUSH1 0x0 DUP1 REVERT JUMPDEST POP JUMP INVALID PUSH1 0x80 PUSH1 0x40 MSTORE CALLVALUE DUP1 ISZERO PUSH3 0x11 JUMPI PUSH1 0x0 DUP1 REVERT JUMPDEST POP PUSH1 0x40 MLOAD PUSH3 0xD52 CODESIZE SUB DUP1 PUSH3 0xD52 DUP4 CODECOPY DUP2 DUP2 ADD PUSH1 0x40 MSTORE DUP2 ADD SWAP1 PUSH3 0x37 SWAP2 SWAP1 PUSH3 0x1DD JUMP JUMPDEST DUP2 PUSH1 0x1 SWAP1 DUP1 MLOAD SWAP1 PUSH1 0x20 ADD SWAP1 PUSH3 0x4F SWAP3 SWAP2 SWAP1 PUSH3 0x98 JUMP JUMPDEST POP DUP1 PUSH1 0x0 DUP1 PUSH2 0x100 EXP DUP2 SLOAD DUP2 PUSH20 0xFFFFFFFFFFFFFFFFFFFFFFFFFFFFFFFFFFFFFFFF MUL NOT AND SWAP1 DUP4 PUSH20 0xFFFFFFFFFFFFFFFFFFFFFFFFFFFFFFFFFFFFFFFF AND MUL OR SWAP1 SSTORE POP POP POP PUSH3 0x415 JUMP JUMPDEST DUP3 DUP1 SLOAD PUSH3 0xA6 SWAP1 PUSH3 0x30C JUMP JUMPDEST SWAP1 PUSH1 0x0 MSTORE PUSH1 0x20 PUSH1 0x0 KECCAK256 SWAP1 PUSH1 0x1F ADD PUSH1 0x20 SWAP1 DIV DUP2 ADD SWAP3 DUP3 PUSH3 0xCA JUMPI PUSH1 0x0 DUP6 SSTORE PUSH3 0x116 JUMP JUMPDEST DUP3 PUSH1 0x1F LT PUSH3 0xE5 JUMPI DUP1 MLOAD PUSH1 0xFF NOT AND DUP4 DUP1 ADD OR DUP6 SSTORE PUSH3 0x116 JUMP JUMPDEST DUP3 DUP1 ADD PUSH1 0x1 ADD DUP6 SSTORE DUP3 ISZERO PUSH3 0x116 JUMPI SWAP2 DUP3 ADD JUMPDEST DUP3 DUP2 GT ISZERO PUSH3 0x115 JUMPI DUP3 MLOAD DUP3 SSTORE SWAP2 PUSH1 0x20 ADD SWAP2 SWAP1 PUSH1 0x1 ADD SWAP1 PUSH3 0xF8 JUMP JUMPDEST JUMPDEST POP SWAP1 POP PUSH3 0x125 SWAP2 SWAP1 PUSH3 0x129 JUMP JUMPDEST POP SWAP1 JUMP JUMPDEST JUMPDEST DUP1 DUP3 GT ISZERO PUSH3 0x144 JUMPI PUSH1 0x0 DUP2 PUSH1 0x0 SWAP1 SSTORE POP PUSH1 0x1 ADD PUSH3 0x12A JUMP JUMPDEST POP SWAP1 JUMP JUMPDEST PUSH1 0x0 PUSH3 0x15F PUSH3 0x159 DUP5 PUSH3 0x26C JUMP JUMPDEST PUSH3 0x243 JUMP JUMPDEST SWAP1 POP DUP3 DUP2 MSTORE PUSH1 0x20 DUP2 ADD DUP5 DUP5 DUP5 ADD GT ISZERO PUSH3 0x17E JUMPI PUSH3 0x17D PUSH3 0x3DB JUMP JUMPDEST JUMPDEST PUSH3 0x18B DUP5 DUP3 DUP6 PUSH3 0x2D6 JUMP JUMPDEST POP SWAP4 SWAP3 POP POP POP JUMP JUMPDEST PUSH1 0x0 DUP2 MLOAD SWAP1 POP PUSH3 0x1A4 DUP2 PUSH3 0x3FB JUMP JUMPDEST SWAP3 SWAP2 POP POP JUMP JUMPDEST PUSH1 0x0 DUP3 PUSH1 0x1F DUP4 ADD SLT PUSH3 0x1C2 JUMPI PUSH3 0x1C1 PUSH3 0x3D6 JUMP JUMPDEST JUMPDEST DUP2 MLOAD PUSH3 0x1D4 DUP5 DUP3 PUSH1 0x20 DUP7 ADD PUSH3 0x148 JUMP JUMPDEST SWAP2 POP POP SWAP3 SWAP2 POP POP JUMP JUMPDEST PUSH1 0x0 DUP1 PUSH1 0x40 DUP4 DUP6 SUB SLT ISZERO PUSH3 0x1F7 JUMPI PUSH3 0x1F6 PUSH3 0x3E5 JUMP JUMPDEST JUMPDEST PUSH1 0x0 DUP4 ADD MLOAD PUSH8 0xFFFFFFFFFFFFFFFF DUP2 GT ISZERO PUSH3 0x218 JUMPI PUSH3 0x217 PUSH3 0x3E0 JUMP JUMPDEST JUMPDEST PUSH3 0x226 DUP6 DUP3 DUP7 ADD PUSH3 0x1AA JUMP JUMPDEST SWAP3 POP POP PUSH1 0x20 PUSH3 0x239 DUP6 DUP3 DUP7 ADD PUSH3 0x193 JUMP JUMPDEST SWAP2 POP POP SWAP3 POP SWAP3 SWAP1 POP JUMP JUMPDEST PUSH1 0x0 PUSH3 0x24F PUSH3 0x262 JUMP JUMPDEST SWAP1 POP PUSH3 0x25D DUP3 DUP3 PUSH3 0x342 JUMP JUMPDEST SWAP2 SWAP1 POP JUMP JUMPDEST PUSH1 0x0 PUSH1 0x40 MLOAD SWAP1 POP SWAP1 JUMP JUMPDEST PUSH1 0x0 PUSH8 0xFFFFFFFFFFFFFFFF DUP3 GT ISZERO PUSH3 0x28A JUMPI PUSH3 0x289 PUSH3 0x3A7 JUMP JUMPDEST JUMPDEST PUSH3 0x295 DUP3 PUSH3 0x3EA JUMP JUMPDEST SWAP1 POP PUSH1 0x20 DUP2 ADD SWAP1 POP SWAP2 SWAP1 POP JUMP JUMPDEST PUSH1 0x0 PUSH3 0x2AF DUP3 PUSH3 0x2B6 JUMP JUMPDEST SWAP1 POP SWAP2 SWAP1 POP JUMP JUMPDEST PUSH1 0x0 PUSH20 0xFFFFFFFFFFFFFFFFFFFFFFFFFFFFFFFFFFFFFFFF DUP3 AND SWAP1 POP SWAP2 SWAP1 POP JUMP JUMPDEST PUSH1 0x0 JUMPDEST DUP4 DUP2 LT ISZERO PUSH3 0x2F6 JUMPI DUP1 DUP3 ADD MLOAD DUP2 DUP5 ADD MSTORE PUSH1 0x20 DUP2 ADD SWAP1 POP PUSH3 0x2D9 JUMP JUMPDEST DUP4 DUP2 GT ISZERO PUSH3 0x306 JUMPI PUSH1 0x0 DUP5 DUP5 ADD MSTORE JUMPDEST POP POP POP POP JUMP JUMPDEST PUSH1 0x0 PUSH1 0x2 DUP3 DIV SWAP1 POP PUSH1 0x1 DUP3 AND DUP1 PUSH3 0x325 JUMPI PUSH1 0x7F DUP3 AND SWAP2 POP JUMPDEST PUSH1 0x20 DUP3 LT DUP2 EQ ISZERO PUSH3 0x33C JUMPI PUSH3 0x33B PUSH3 0x378 JUMP JUMPDEST JUMPDEST POP SWAP2 SWAP1 POP JUMP JUMPDEST PUSH3 0x34D DUP3 PUSH3 0x3EA JUMP JUMPDEST DUP2 ADD DUP2 DUP2 LT PUSH8 0xFFFFFFFFFFFFFFFF DUP3 GT OR ISZERO PUSH3 0x36F JUMPI PUSH3 0x36E PUSH3 0x3A7 JUMP JUMPDEST JUMPDEST DUP1 PUSH1 0x40 MSTORE POP POP POP JUMP JUMPDEST PUSH32 0x4E487B7100000000000000000000000000000000000000000000000000000000 PUSH1 0x0 MSTORE PUSH1 0x22 PUSH1 0x4 MSTORE PUSH1 0x24 PUSH1 0x0 REVERT JUMPDEST PUSH32 0x4E487B7100000000000000000000000000000000000000000000000000000000 PUSH1 0x0 MSTORE PUSH1 0x41 PUSH1 0x4 MSTORE PUSH1 0x24 PUSH1 0x0 REVERT JUMPDEST PUSH1 0x0 DUP1 REVERT JUMPDEST PUSH1 0x0 DUP1 REVERT JUMPDEST PUSH1 0x0 DUP1 REVERT JUMPDEST PUSH1 0x0 DUP1 REVERT JUMPDEST PUSH1 0x0 PUSH1 0x1F NOT PUSH1 0x1F DUP4 ADD AND SWAP1 POP SWAP2 SWAP1 POP JUMP JUMPDEST PUSH3 0x406 DUP2 PUSH3 0x2A2 JUMP JUMPDEST DUP2 EQ PUSH3 0x412 JUMPI PUSH1 0x0 DUP1 REVERT JUMPDEST POP JUMP JUMPDEST PUSH2 0x92D DUP1 PUSH3 0x425 PUSH1 0x0 CODECOPY PUSH1 0x0 RETURN INVALID PUSH1 0x80 PUSH1 0x40 MSTORE PUSH1 0x4 CALLDATASIZE LT PUSH2 0x74 JUMPI PUSH1 0x0 CALLDATALOAD PUSH1 0xE0 SHR DUP1 PUSH4 0xAF640D0F GT PUSH2 0x4E JUMPI DUP1 PUSH4 0xAF640D0F EQ PUSH2 0x180 JUMPI DUP1 PUSH4 0xBEABACC8 EQ PUSH2 0x1AB JUMPI DUP1 PUSH4 0xD0E30DB0 EQ PUSH2 0x1D4 JUMPI DUP1 PUSH4 0xE1F21C67 EQ PUSH2 0x1DE JUMPI PUSH2 0x10B JUMP JUMPDEST DUP1 PUSH4 0x26B1D5F EQ PUSH2 0x110 JUMPI DUP1 PUSH4 0x13658F8A EQ PUSH2 0x13B JUMPI DUP1 PUSH4 0x23B872DD EQ PUSH2 0x157 JUMPI PUSH2 0x10B JUMP JUMPDEST CALLDATASIZE PUSH2 0x10B JUMPI PUSH1 0x0 PUSH20 0xFFFFFFFFFFFFFFFFFFFFFFFFFFFFFFFFFFFFFFFF AND PUSH1 0x0 DUP1 SLOAD SWAP1 PUSH2 0x100 EXP SWAP1 DIV PUSH20 0xFFFFFFFFFFFFFFFFFFFFFFFFFFFFFFFFFFFFFFFF AND PUSH20 0xFFFFFFFFFFFFFFFFFFFFFFFFFFFFFFFFFFFFFFFF AND EQ ISZERO PUSH2 0x109 JUMPI PUSH1 0x40 MLOAD PUSH32 0x8C379A000000000000000000000000000000000000000000000000000000000 DUP2 MSTORE PUSH1 0x4 ADD PUSH2 0x100 SWAP1 PUSH2 0x709 JUMP JUMPDEST PUSH1 0x40 MLOAD DUP1 SWAP2 SUB SWAP1 REVERT JUMPDEST STOP JUMPDEST PUSH1 0x0 DUP1 REVERT JUMPDEST CALLVALUE DUP1 ISZERO PUSH2 0x11C JUMPI PUSH1 0x0 DUP1 REVERT JUMPDEST POP PUSH2 0x125 PUSH2 0x207 JUMP JUMPDEST PUSH1 0x40 MLOAD PUSH2 0x132 SWAP2 SWAP1 PUSH2 0x66C JUMP JUMPDEST PUSH1 0x40 MLOAD DUP1 SWAP2 SUB SWAP1 RETURN JUMPDEST PUSH2 0x155 PUSH1 0x4 DUP1 CALLDATASIZE SUB DUP2 ADD SWAP1 PUSH2 0x150 SWAP2 SWAP1 PUSH2 0x523 JUMP JUMPDEST PUSH2 0x20C JUMP JUMPDEST STOP JUMPDEST CALLVALUE DUP1 ISZERO PUSH2 0x163 JUMPI PUSH1 0x0 DUP1 REVERT JUMPDEST POP PUSH2 0x17E PUSH1 0x4 DUP1 CALLDATASIZE SUB DUP2 ADD SWAP1 PUSH2 0x179 SWAP2 SWAP1 PUSH2 0x590 JUMP JUMPDEST PUSH2 0x257 JUMP JUMPDEST STOP JUMPDEST CALLVALUE DUP1 ISZERO PUSH2 0x18C JUMPI PUSH1 0x0 DUP1 REVERT JUMPDEST POP PUSH2 0x195 PUSH2 0x2F4 JUMP JUMPDEST PUSH1 0x40 MLOAD PUSH2 0x1A2 SWAP2 SWAP1 PUSH2 0x6E7 JUMP JUMPDEST PUSH1 0x40 MLOAD DUP1 SWAP2 SUB SWAP1 RETURN JUMPDEST CALLVALUE DUP1 ISZERO PUSH2 0x1B7 JUMPI PUSH1 0x0 DUP1 REVERT JUMPDEST POP PUSH2 0x1D2 PUSH1 0x4 DUP1 CALLDATASIZE SUB DUP2 ADD SWAP1 PUSH2 0x1CD SWAP2 SWAP1 PUSH2 0x590 JUMP JUMPDEST PUSH2 0x382 JUMP JUMPDEST STOP JUMPDEST PUSH2 0x1DC PUSH2 0x41D JUMP JUMPDEST STOP JUMPDEST CALLVALUE DUP1 ISZERO PUSH2 0x1EA JUMPI PUSH1 0x0 DUP1 REVERT JUMPDEST POP PUSH2 0x205 PUSH1 0x4 DUP1 CALLDATASIZE SUB DUP2 ADD SWAP1 PUSH2 0x200 SWAP2 SWAP1 PUSH2 0x590 JUMP JUMPDEST PUSH2 0x41F JUMP JUMPDEST STOP JUMPDEST PUSH1 0x0 SWAP1 JUMP JUMPDEST DUP2 PUSH20 0xFFFFFFFFFFFFFFFFFFFFFFFFFFFFFFFFFFFFFFFF AND PUSH2 0x8FC DUP3 SWAP1 DUP2 ISZERO MUL SWAP1 PUSH1 0x40 MLOAD PUSH1 0x0 PUSH1 0x40 MLOAD DUP1 DUP4 SUB DUP2 DUP6 DUP9 DUP9 CALL SWAP4 POP POP POP POP ISZERO DUP1 ISZERO PUSH2 0x252 JUMPI RETURNDATASIZE PUSH1 0x0 DUP1 RETURNDATACOPY RETURNDATASIZE PUSH1 0x0 REVERT JUMPDEST POP POP POP JUMP JUMPDEST DUP3 PUSH20 0xFFFFFFFFFFFFFFFFFFFFFFFFFFFFFFFFFFFFFFFF AND PUSH4 0x23B872DD ADDRESS DUP5 DUP5 PUSH1 0x40 MLOAD DUP5 PUSH4 0xFFFFFFFF AND PUSH1 0xE0 SHL DUP2 MSTORE PUSH1 0x4 ADD PUSH2 0x294 SWAP4 SWAP3 SWAP2 SWAP1 PUSH2 0x687 JUMP JUMPDEST PUSH1 0x20 PUSH1 0x40 MLOAD DUP1 DUP4 SUB DUP2 PUSH1 0x0 DUP8 DUP1 EXTCODESIZE ISZERO DUP1 ISZERO PUSH2 0x2AE JUMPI PUSH1 0x0 DUP1 REVERT JUMPDEST POP GAS CALL ISZERO DUP1 ISZERO PUSH2 0x2C2 JUMPI RETURNDATASIZE PUSH1 0x0 DUP1 RETURNDATACOPY RETURNDATASIZE PUSH1 0x0 REVERT JUMPDEST POP POP POP POP PUSH1 0x40 MLOAD RETURNDATASIZE PUSH1 0x1F NOT PUSH1 0x1F DUP3 ADD AND DUP3 ADD DUP1 PUSH1 0x40 MSTORE POP DUP2 ADD SWAP1 PUSH2 0x2E6 SWAP2 SWAP1 PUSH2 0x563 JUMP JUMPDEST PUSH2 0x2EF JUMPI PUSH1 0x0 DUP1 REVERT JUMPDEST POP POP POP JUMP JUMPDEST PUSH1 0x1 DUP1 SLOAD PUSH2 0x301 SWAP1 PUSH2 0x7E4 JUMP JUMPDEST DUP1 PUSH1 0x1F ADD PUSH1 0x20 DUP1 SWAP2 DIV MUL PUSH1 0x20 ADD PUSH1 0x40 MLOAD SWAP1 DUP2 ADD PUSH1 0x40 MSTORE DUP1 SWAP3 SWAP2 SWAP1 DUP2 DUP2 MSTORE PUSH1 0x20 ADD DUP3 DUP1 SLOAD PUSH2 0x32D SWAP1 PUSH2 0x7E4 JUMP JUMPDEST DUP1 ISZERO PUSH2 0x37A JUMPI DUP1 PUSH1 0x1F LT PUSH2 0x34F JUMPI PUSH2 0x100 DUP1 DUP4 SLOAD DIV MUL DUP4 MSTORE SWAP2 PUSH1 0x20 ADD SWAP2 PUSH2 0x37A JUMP JUMPDEST DUP3 ADD SWAP2 SWAP1 PUSH1 0x0 MSTORE PUSH1 0x20 PUSH1 0x0 KECCAK256 SWAP1 JUMPDEST DUP2 SLOAD DUP2 MSTORE SWAP1 PUSH1 0x1 ADD SWAP1 PUSH1 0x20 ADD DUP1 DUP4 GT PUSH2 0x35D JUMPI DUP3 SWAP1 SUB PUSH1 0x1F AND DUP3 ADD SWAP2 JUMPDEST POP POP POP POP POP DUP2 JUMP JUMPDEST DUP3 PUSH20 0xFFFFFFFFFFFFFFFFFFFFFFFFFFFFFFFFFFFFFFFF AND PUSH4 0xA9059CBB DUP4 DUP4 PUSH1 0x40 MLOAD DUP4 PUSH4 0xFFFFFFFF AND PUSH1 0xE0 SHL DUP2 MSTORE PUSH1 0x4 ADD PUSH2 0x3BD SWAP3 SWAP2 SWAP1 PUSH2 0x6BE JUMP JUMPDEST PUSH1 0x20 PUSH1 0x40 MLOAD DUP1 DUP4 SUB DUP2 PUSH1 0x0 DUP8 DUP1 EXTCODESIZE ISZERO DUP1 ISZERO PUSH2 0x3D7 JUMPI PUSH1 0x0 DUP1 REVERT JUMPDEST POP GAS CALL ISZERO DUP1 ISZERO PUSH2 0x3EB JUMPI RETURNDATASIZE PUSH1 0x0 DUP1 RETURNDATACOPY RETURNDATASIZE PUSH1 0x0 REVERT JUMPDEST POP POP POP POP PUSH1 0x40 MLOAD RETURNDATASIZE PUSH1 0x1F NOT PUSH1 0x1F DUP3 ADD AND DUP3 ADD DUP1 PUSH1 0x40 MSTORE POP DUP2 ADD SWAP1 PUSH2 0x40F SWAP2 SWAP1 PUSH2 0x563 JUMP JUMPDEST PUSH2 0x418 JUMPI PUSH1 0x0 DUP1 REVERT JUMPDEST POP POP POP JUMP JUMPDEST JUMP JUMPDEST DUP3 PUSH20 0xFFFFFFFFFFFFFFFFFFFFFFFFFFFFFFFFFFFFFFFF AND PUSH4 0x95EA7B3 DUP4 DUP4 PUSH1 0x40 MLOAD DUP4 PUSH4 0xFFFFFFFF AND PUSH1 0xE0 SHL DUP2 MSTORE PUSH1 0x4 ADD PUSH2 0x45A SWAP3 SWAP2 SWAP1 PUSH2 0x6BE JUMP JUMPDEST PUSH1 0x20 PUSH1 0x40 MLOAD DUP1 DUP4 SUB DUP2 PUSH1 0x0 DUP8 DUP1 EXTCODESIZE ISZERO DUP1 ISZERO PUSH2 0x474 JUMPI PUSH1 0x0 DUP1 REVERT JUMPDEST POP GAS CALL ISZERO DUP1 ISZERO PUSH2 0x488 JUMPI RETURNDATASIZE PUSH1 0x0 DUP1 RETURNDATACOPY RETURNDATASIZE PUSH1 0x0 REVERT JUMPDEST POP POP POP POP PUSH1 0x40 MLOAD RETURNDATASIZE PUSH1 0x1F NOT PUSH1 0x1F DUP3 ADD AND DUP3 ADD DUP1 PUSH1 0x40 MSTORE POP DUP2 ADD SWAP1 PUSH2 0x4AC SWAP2 SWAP1 PUSH2 0x563 JUMP JUMPDEST PUSH2 0x4B5 JUMPI PUSH1 0x0 DUP1 REVERT JUMPDEST POP POP POP JUMP JUMPDEST PUSH1 0x0 DUP2 CALLDATALOAD SWAP1 POP PUSH2 0x4C9 DUP2 PUSH2 0x884 JUMP JUMPDEST SWAP3 SWAP2 POP POP JUMP JUMPDEST PUSH1 0x0 DUP2 CALLDATALOAD SWAP1 POP PUSH2 0x4DE DUP2 PUSH2 0x89B JUMP JUMPDEST SWAP3 SWAP2 POP POP JUMP JUMPDEST PUSH1 0x0 DUP2 MLOAD SWAP1 POP PUSH2 0x4F3 DUP2 PUSH2 0x8B2 JUMP JUMPDEST SWAP3 SWAP2 POP POP JUMP JUMPDEST PUSH1 0x0 DUP2 CALLDATALOAD SWAP1 POP PUSH2 0x508 DUP2 PUSH2 0x8C9 JUMP JUMPDEST SWAP3 SWAP2 POP POP JUMP JUMPDEST PUSH1 0x0 DUP2 CALLDATALOAD SWAP1 POP PUSH2 0x51D DUP2 PUSH2 0x8E0 JUMP JUMPDEST SWAP3 SWAP2 POP POP JUMP JUMPDEST PUSH1 0x0 DUP1 PUSH1 0x40 DUP4 DUP6 SUB SLT ISZERO PUSH2 0x53A JUMPI PUSH2 0x539 PUSH2 0x845 JUMP JUMPDEST JUMPDEST PUSH1 0x0 PUSH2 0x548 DUP6 DUP3 DUP7 ADD PUSH2 0x4CF JUMP JUMPDEST SWAP3 POP POP PUSH1 0x20 PUSH2 0x559 DUP6 DUP3 DUP7 ADD PUSH2 0x50E JUMP JUMPDEST SWAP2 POP POP SWAP3 POP SWAP3 SWAP1 POP JUMP JUMPDEST PUSH1 0x0 PUSH1 0x20 DUP3 DUP5 SUB SLT ISZERO PUSH2 0x579 JUMPI PUSH2 0x578 PUSH2 0x845 JUMP JUMPDEST JUMPDEST PUSH1 0x0 PUSH2 0x587 DUP5 DUP3 DUP6 ADD PUSH2 0x4E4 JUMP JUMPDEST SWAP2 POP POP SWAP3 SWAP2 POP POP JUMP JUMPDEST PUSH1 0x0 DUP1 PUSH1 0x0 PUSH1 0x60 DUP5 DUP7 SUB SLT ISZERO PUSH2 0x5A9 JUMPI PUSH2 0x5A8 PUSH2 0x845 JUMP JUMPDEST JUMPDEST PUSH1 0x0 PUSH2 0x5B7 DUP7 DUP3 DUP8 ADD PUSH2 0x4F9 JUMP JUMPDEST SWAP4 POP POP PUSH1 0x20 PUSH2 0x5C8 DUP7 DUP3 DUP8 ADD PUSH2 0x4BA JUMP JUMPDEST SWAP3 POP POP PUSH1 0x40 PUSH2 0x5D9 DUP7 DUP3 DUP8 ADD PUSH2 0x50E JUMP JUMPDEST SWAP2 POP POP SWAP3 POP SWAP3 POP SWAP3 JUMP JUMPDEST PUSH2 0x5EC DUP2 PUSH2 0x757 JUMP JUMPDEST DUP3 MSTORE POP POP JUMP JUMPDEST PUSH2 0x5FB DUP2 PUSH2 0x745 JUMP JUMPDEST DUP3 MSTORE POP POP JUMP JUMPDEST PUSH1 0x0 PUSH2 0x60C DUP3 PUSH2 0x729 JUMP JUMPDEST PUSH2 0x616 DUP2 DUP6 PUSH2 0x734 JUMP JUMPDEST SWAP4 POP PUSH2 0x626 DUP2 DUP6 PUSH1 0x20 DUP7 ADD PUSH2 0x7B1 JUMP JUMPDEST PUSH2 0x62F DUP2 PUSH2 0x84A JUMP JUMPDEST DUP5 ADD SWAP2 POP POP SWAP3 SWAP2 POP POP JUMP JUMPDEST PUSH1 0x0 PUSH2 0x647 PUSH1 0x10 DUP4 PUSH2 0x734 JUMP JUMPDEST SWAP2 POP PUSH2 0x652 DUP3 PUSH2 0x85B JUMP JUMPDEST PUSH1 0x20 DUP3 ADD SWAP1 POP SWAP2 SWAP1 POP JUMP JUMPDEST PUSH2 0x666 DUP2 PUSH2 0x7A7 JUMP JUMPDEST DUP3 MSTORE POP POP JUMP JUMPDEST PUSH1 0x0 PUSH1 0x20 DUP3 ADD SWAP1 POP PUSH2 0x681 PUSH1 0x0 DUP4 ADD DUP5 PUSH2 0x5E3 JUMP JUMPDEST SWAP3 SWAP2 POP POP JUMP JUMPDEST PUSH1 0x0 PUSH1 0x60 DUP3 ADD SWAP1 POP PUSH2 0x69C PUSH1 0x0 DUP4 ADD DUP7 PUSH2 0x5F2 JUMP JUMPDEST PUSH2 0x6A9 PUSH1 0x20 DUP4 ADD DUP6 PUSH2 0x5F2 JUMP JUMPDEST PUSH2 0x6B6 PUSH1 0x40 DUP4 ADD DUP5 PUSH2 0x65D JUMP JUMPDEST SWAP5 SWAP4 POP POP POP POP JUMP JUMPDEST PUSH1 0x0 PUSH1 0x40 DUP3 ADD SWAP1 POP PUSH2 0x6D3 PUSH1 0x0 DUP4 ADD DUP6 PUSH2 0x5F2 JUMP JUMPDEST PUSH2 0x6E0 PUSH1 0x20 DUP4 ADD DUP5 PUSH2 0x65D JUMP JUMPDEST SWAP4 SWAP3 POP POP POP JUMP JUMPDEST PUSH1 0x0 PUSH1 0x20 DUP3 ADD SWAP1 POP DUP2 DUP2 SUB PUSH1 0x0 DUP4 ADD MSTORE PUSH2 0x701 DUP2 DUP5 PUSH2 0x601 JUMP JUMPDEST SWAP1 POP SWAP3 SWAP2 POP POP JUMP JUMPDEST PUSH1 0x0 PUSH1 0x20 DUP3 ADD SWAP1 POP DUP2 DUP2 SUB PUSH1 0x0 DUP4 ADD MSTORE PUSH2 0x722 DUP2 PUSH2 0x63A JUMP JUMPDEST SWAP1 POP SWAP2 SWAP1 POP JUMP JUMPDEST PUSH1 0x0 DUP2 MLOAD SWAP1 POP SWAP2 SWAP1 POP JUMP JUMPDEST PUSH1 0x0 DUP3 DUP3 MSTORE PUSH1 0x20 DUP3 ADD SWAP1 POP SWAP3 SWAP2 POP POP JUMP JUMPDEST PUSH1 0x0 PUSH2 0x750 DUP3 PUSH2 0x787 JUMP JUMPDEST SWAP1 POP SWAP2 SWAP1 POP JUMP JUMPDEST PUSH1 0x0 PUSH2 0x762 DUP3 PUSH2 0x787 JUMP JUMPDEST SWAP1 POP SWAP2 SWAP1 POP JUMP JUMPDEST PUSH1 0x0 DUP2 ISZERO ISZERO SWAP1 POP SWAP2 SWAP1 POP JUMP JUMPDEST PUSH1 0x0 PUSH2 0x780 DUP3 PUSH2 0x745 JUMP JUMPDEST SWAP1 POP SWAP2 SWAP1 POP JUMP JUMPDEST PUSH1 0x0 PUSH20 0xFFFFFFFFFFFFFFFFFFFFFFFFFFFFFFFFFFFFFFFF DUP3 AND SWAP1 POP SWAP2 SWAP1 POP JUMP JUMPDEST PUSH1 0x0 DUP2 SWAP1 POP SWAP2 SWAP1 POP JUMP JUMPDEST PUSH1 0x0 JUMPDEST DUP4 DUP2 LT ISZERO PUSH2 0x7CF JUMPI DUP1 DUP3 ADD MLOAD DUP2 DUP5 ADD MSTORE PUSH1 0x20 DUP2 ADD SWAP1 POP PUSH2 0x7B4 JUMP JUMPDEST DUP4 DUP2 GT ISZERO PUSH2 0x7DE JUMPI PUSH1 0x0 DUP5 DUP5 ADD MSTORE JUMPDEST POP POP POP POP JUMP JUMPDEST PUSH1 0x0 PUSH1 0x2 DUP3 DIV SWAP1 POP PUSH1 0x1 DUP3 AND DUP1 PUSH2 0x7FC JUMPI PUSH1 0x7F DUP3 AND SWAP2 POP JUMPDEST PUSH1 0x20 DUP3 LT DUP2 EQ ISZERO PUSH2 0x810 JUMPI PUSH2 0x80F PUSH2 0x816 JUMP JUMPDEST JUMPDEST POP SWAP2 SWAP1 POP JUMP JUMPDEST PUSH32 0x4E487B7100000000000000000000000000000000000000000000000000000000 PUSH1 0x0 MSTORE PUSH1 0x22 PUSH1 0x4 MSTORE PUSH1 0x24 PUSH1 0x0 REVERT JUMPDEST PUSH1 0x0 DUP1 REVERT JUMPDEST PUSH1 0x0 PUSH1 0x1F NOT PUSH1 0x1F DUP4 ADD AND SWAP1 POP SWAP2 SWAP1 POP JUMP JUMPDEST PUSH32 0x6E65656420696E697420626F756E747900000000000000000000000000000000 PUSH1 0x0 DUP3 ADD MSTORE POP JUMP JUMPDEST PUSH2 0x88D DUP2 PUSH2 0x745 JUMP JUMPDEST DUP2 EQ PUSH2 0x898 JUMPI PUSH1 0x0 DUP1 REVERT JUMPDEST POP JUMP JUMPDEST PUSH2 0x8A4 DUP2 PUSH2 0x757 JUMP JUMPDEST DUP2 EQ PUSH2 0x8AF JUMPI PUSH1 0x0 DUP1 REVERT JUMPDEST POP JUMP JUMPDEST PUSH2 0x8BB DUP2 PUSH2 0x769 JUMP JUMPDEST DUP2 EQ PUSH2 0x8C6 JUMPI PUSH1 0x0 DUP1 REVERT JUMPDEST POP JUMP JUMPDEST PUSH2 0x8D2 DUP2 PUSH2 0x775 JUMP JUMPDEST DUP2 EQ PUSH2 0x8DD JUMPI PUSH1 0x0 DUP1 REVERT JUMPDEST POP JUMP JUMPDEST PUSH2 0x8E9 DUP2 PUSH2 0x7A7 JUMP JUMPDEST DUP2 EQ PUSH2 0x8F4 JUMPI PUSH1 0x0 DUP1 REVERT JUMPDEST POP JUMP INVALID LOG2 PUSH5 0x6970667358 0x22 SLT KECCAK256 0xE3 BYTE PUSH9 0x7A2DBCA07DCDC9FE82 0x4F CHAINID SWAP12 0xAF 0x2E RETURNDATACOPY 0xC7 0xF8 0xBD SELFBALANCE SHR 0xE6 0xE3 SUB 0xD7 0xC 0x5C 0xBC 0xE 0xE1 PUSH5 0x736F6C6343 STOP ADDMOD SMOD STOP CALLER LOG2 PUSH5 0x6970667358 0x22 SLT KECCAK256 SHR PUSH11 0x3C0354CCDD59F04E0648F4 0xE0 0xAC ISZERO 0xE2 SWAP7 0xD7 0xDD DUP12 MLOAD PUSH29 0xD4B7D45123C45F337464736F6C63430008070033000000000000000000 "
				},
				"gasEstimates": {
					"creation": {
						"codeDepositCost": "1321800",
						"executionCost": "49908",
						"totalCost": "1371708"
					},
					"external": {
						"": "179",
						"bountyAddress(string)": "infinite",
						"createBounty(address,string)": "infinite",
						"invest(string,address,uint256,uint256)": "infinite",
						"suicide0(address)": "30220",
						"transferOwnership(address)": "30716"
					}
				},
				"methodIdentifiers": {
					"bountyAddress(string)": "0c3b11a7",
					"createBounty(address,string)": "859e0547",
					"invest(string,address,uint256,uint256)": "46964a0a",
					"suicide0(address)": "14da447f",
					"transferOwnership(address)": "f2fde38b"
				}
			},
			"storageLayout": {
				"storage": [
					{
						"astId": 211,
						"contract": "contracts/Bounty.sol:Bounty",
						"label": "_owner",
						"offset": 0,
						"slot": "0",
						"type": "t_address"
					},
					{
						"astId": 213,
						"contract": "contracts/Bounty.sol:Bounty",
						"label": "_coinbase",
						"offset": 0,
						"slot": "1",
						"type": "t_address_payable"
					},
					{
						"astId": 14,
						"contract": "contracts/Bounty.sol:Bounty",
						"label": "bountyAddress",
						"offset": 0,
						"slot": "2",
						"type": "t_mapping(t_string_memory_ptr,t_contract(BountyAddr)207)"
					}
				],
				"types": {
					"t_address": {
						"encoding": "inplace",
						"label": "address",
						"numberOfBytes": "20"
					},
					"t_address_payable": {
						"encoding": "inplace",
						"label": "address payable",
						"numberOfBytes": "20"
					},
					"t_contract(BountyAddr)207": {
						"encoding": "inplace",
						"label": "contract BountyAddr",
						"numberOfBytes": "20"
					},
					"t_mapping(t_string_memory_ptr,t_contract(BountyAddr)207)": {
						"encoding": "mapping",
						"key": "t_string_memory_ptr",
						"label": "mapping(string => contract BountyAddr)",
						"numberOfBytes": "32",
						"value": "t_contract(BountyAddr)207"
					},
					"t_string_memory_ptr": {
						"encoding": "bytes",
						"label": "string",
						"numberOfBytes": "32"
					}
				}
			},
			"userdoc": {
				"kind": "user",
				"methods": {},
				"version": 1
			}
		}
	}
}