{
	"contracts/base/Base.sol": {
		"Base": {
			"abi": [
				{
					"inputs": [],
					"stateMutability": "nonpayable",
					"type": "constructor"
				},
				{
					"anonymous": false,
					"inputs": [
						{
							"indexed": true,
							"internalType": "address",
							"name": "previousOwner",
							"type": "address"
						},
						{
							"indexed": true,
							"internalType": "address",
							"name": "newOwner",
							"type": "address"
						}
					],
					"name": "OwnershipTransferred",
					"type": "event"
				},
				{
					"stateMutability": "payable",
					"type": "fallback"
				},
				{
					"inputs": [
						{
							"internalType": "address payable",
							"name": "receiver",
							"type": "address"
						}
					],
					"name": "suicide0",
					"outputs": [],
					"stateMutability": "nonpayable",
					"type": "function"
				},
				{
					"inputs": [
						{
							"internalType": "address",
							"name": "newOwner",
							"type": "address"
						}
					],
					"name": "transferOwnership",
					"outputs": [],
					"stateMutability": "nonpayable",
					"type": "function"
				},
				{
					"stateMutability": "payable",
					"type": "receive"
				}
			],
			"devdoc": {
				"kind": "dev",
				"methods": {},
				"version": 1
			},
			"evm": {
				"assembly": "    /* \"contracts/base/Base.sol\":71:1117  contract Base... */\n  mstore(0x40, 0x80)\n    /* \"contracts/base/Base.sol\":334:388  constructor()... */\n  callvalue\n  dup1\n  iszero\n  tag_1\n  jumpi\n  0x00\n  dup1\n  revert\ntag_1:\n  pop\n    /* \"contracts/base/Base.sol\":371:381  msg.sender */\n  caller\n    /* \"contracts/base/Base.sol\":362:368  _owner */\n  0x00\n  dup1\n    /* \"contracts/base/Base.sol\":362:381  _owner = msg.sender */\n  0x0100\n  exp\n  dup2\n  sload\n  dup2\n  0xffffffffffffffffffffffffffffffffffffffff\n  mul\n  not\n  and\n  swap1\n  dup4\n  0xffffffffffffffffffffffffffffffffffffffff\n  and\n  mul\n  or\n  swap1\n  sstore\n  pop\n    /* \"contracts/base/Base.sol\":71:1117  contract Base... */\n  dataSize(sub_0)\n  dup1\n  dataOffset(sub_0)\n  0x00\n  codecopy\n  0x00\n  return\nstop\n\nsub_0: assembly {\n        /* \"contracts/base/Base.sol\":71:1117  contract Base... */\n      mstore(0x40, 0x80)\n      jumpi(tag_1, lt(calldatasize, 0x04))\n      shr(0xe0, calldataload(0x00))\n      dup1\n      0x14da447f\n      eq\n      tag_3\n      jumpi\n      dup1\n      0xf2fde38b\n      eq\n      tag_4\n      jumpi\n      jump(tag_2)\n    tag_1:\n      jumpi(tag_2, calldatasize)\n        /* \"contracts/base/Base.sol\":498:506  revert() */\n      0x00\n      dup1\n      revert\n        /* \"contracts/base/Base.sol\":71:1117  contract Base... */\n    tag_2:\n        /* \"contracts/base/Base.sol\":440:448  revert() */\n      0x00\n      dup1\n      revert\n        /* \"contracts/base/Base.sol\":1009:1115  function suicide0(address payable receiver)... */\n    tag_3:\n      callvalue\n      dup1\n      iszero\n      tag_9\n      jumpi\n      0x00\n      dup1\n      revert\n    tag_9:\n      pop\n      tag_10\n      0x04\n      dup1\n      calldatasize\n      sub\n      dup2\n      add\n      swap1\n      tag_11\n      swap2\n      swap1\n      tag_12\n      jump\t// in\n    tag_11:\n      tag_13\n      jump\t// in\n    tag_10:\n      stop\n        /* \"contracts/base/Base.sol\":614:810  function transferOwnership(address newOwner) public virtual isOwner {... */\n    tag_4:\n      callvalue\n      dup1\n      iszero\n      tag_14\n      jumpi\n      0x00\n      dup1\n      revert\n    tag_14:\n      pop\n      tag_15\n      0x04\n      dup1\n      calldatasize\n      sub\n      dup2\n      add\n      swap1\n      tag_16\n      swap2\n      swap1\n      tag_17\n      jump\t// in\n    tag_16:\n      tag_18\n      jump\t// in\n    tag_15:\n      stop\n        /* \"contracts/base/Base.sol\":1009:1115  function suicide0(address payable receiver)... */\n    tag_13:\n        /* \"contracts/base/Base.sol\":303:309  _owner */\n      0x00\n      dup1\n      sload\n      swap1\n      0x0100\n      exp\n      swap1\n      div\n      0xffffffffffffffffffffffffffffffffffffffff\n      and\n        /* \"contracts/base/Base.sol\":289:309  msg.sender == _owner */\n      0xffffffffffffffffffffffffffffffffffffffff\n      and\n        /* \"contracts/base/Base.sol\":289:299  msg.sender */\n      caller\n        /* \"contracts/base/Base.sol\":289:309  msg.sender == _owner */\n      0xffffffffffffffffffffffffffffffffffffffff\n      and\n      eq\n        /* \"contracts/base/Base.sol\":282:310  assert(msg.sender == _owner) */\n      tag_20\n      jumpi\n      tag_21\n      tag_22\n      jump\t// in\n    tag_21:\n    tag_20:\n        /* \"contracts/base/Base.sol\":1099:1107  receiver */\n      dup1\n        /* \"contracts/base/Base.sol\":1086:1108  selfdestruct(receiver) */\n      0xffffffffffffffffffffffffffffffffffffffff\n      and\n      selfdestruct\n        /* \"contracts/base/Base.sol\":614:810  function transferOwnership(address newOwner) public virtual isOwner {... */\n    tag_18:\n        /* \"contracts/base/Base.sol\":303:309  _owner */\n      0x00\n      dup1\n      sload\n      swap1\n      0x0100\n      exp\n      swap1\n      div\n      0xffffffffffffffffffffffffffffffffffffffff\n      and\n        /* \"contracts/base/Base.sol\":289:309  msg.sender == _owner */\n      0xffffffffffffffffffffffffffffffffffffffff\n      and\n        /* \"contracts/base/Base.sol\":289:299  msg.sender */\n      caller\n        /* \"contracts/base/Base.sol\":289:309  msg.sender == _owner */\n      0xffffffffffffffffffffffffffffffffffffffff\n      and\n      eq\n        /* \"contracts/base/Base.sol\":282:310  assert(msg.sender == _owner) */\n      tag_25\n      jumpi\n      tag_26\n      tag_22\n      jump\t// in\n    tag_26:\n    tag_25:\n        /* \"contracts/base/Base.sol\":720:721  0 */\n      0x00\n        /* \"contracts/base/Base.sol\":700:722  newOwner != address(0) */\n      0xffffffffffffffffffffffffffffffffffffffff\n      and\n        /* \"contracts/base/Base.sol\":700:708  newOwner */\n      dup2\n        /* \"contracts/base/Base.sol\":700:722  newOwner != address(0) */\n      0xffffffffffffffffffffffffffffffffffffffff\n      and\n      eq\n      iszero\n        /* \"contracts/base/Base.sol\":692:765  require(newOwner != address(0), \"Ownable: new owner is the zero address\") */\n      tag_28\n      jumpi\n      mload(0x40)\n      0x08c379a000000000000000000000000000000000000000000000000000000000\n      dup2\n      mstore\n      0x04\n      add\n      tag_29\n      swap1\n      tag_30\n      jump\t// in\n    tag_29:\n      mload(0x40)\n      dup1\n      swap2\n      sub\n      swap1\n      revert\n    tag_28:\n        /* \"contracts/base/Base.sol\":775:803  _transferOwnership(newOwner) */\n      tag_31\n        /* \"contracts/base/Base.sol\":794:802  newOwner */\n      dup2\n        /* \"contracts/base/Base.sol\":775:793  _transferOwnership */\n      tag_32\n        /* \"contracts/base/Base.sol\":775:803  _transferOwnership(newOwner) */\n      jump\t// in\n    tag_31:\n        /* \"contracts/base/Base.sol\":614:810  function transferOwnership(address newOwner) public virtual isOwner {... */\n      pop\n      jump\t// out\n        /* \"contracts/base/Base.sol\":816:1003  function _transferOwnership(address newOwner) internal virtual {... */\n    tag_32:\n        /* \"contracts/base/Base.sol\":889:905  address oldOwner */\n      0x00\n        /* \"contracts/base/Base.sol\":908:914  _owner */\n      dup1\n      0x00\n      swap1\n      sload\n      swap1\n      0x0100\n      exp\n      swap1\n      div\n      0xffffffffffffffffffffffffffffffffffffffff\n      and\n        /* \"contracts/base/Base.sol\":889:914  address oldOwner = _owner */\n      swap1\n      pop\n        /* \"contracts/base/Base.sol\":933:941  newOwner */\n      dup2\n        /* \"contracts/base/Base.sol\":924:930  _owner */\n      0x00\n      dup1\n        /* \"contracts/base/Base.sol\":924:941  _owner = newOwner */\n      0x0100\n      exp\n      dup2\n      sload\n      dup2\n      0xffffffffffffffffffffffffffffffffffffffff\n      mul\n      not\n      and\n      swap1\n      dup4\n      0xffffffffffffffffffffffffffffffffffffffff\n      and\n      mul\n      or\n      swap1\n      sstore\n      pop\n        /* \"contracts/base/Base.sol\":987:995  newOwner */\n      dup2\n        /* \"contracts/base/Base.sol\":956:996  OwnershipTransferred(oldOwner, newOwner) */\n      0xffffffffffffffffffffffffffffffffffffffff\n      and\n        /* \"contracts/base/Base.sol\":977:985  oldOwner */\n      dup2\n        /* \"contracts/base/Base.sol\":956:996  OwnershipTransferred(oldOwner, newOwner) */\n      0xffffffffffffffffffffffffffffffffffffffff\n      and\n      0x8be0079c531659141344cd1fd0a4f28419497f9722a3daafe3b4186f6b6457e0\n      mload(0x40)\n      mload(0x40)\n      dup1\n      swap2\n      sub\n      swap1\n      log3\n        /* \"contracts/base/Base.sol\":879:1003  {... */\n      pop\n        /* \"contracts/base/Base.sol\":816:1003  function _transferOwnership(address newOwner) internal virtual {... */\n      pop\n      jump\t// out\n        /* \"#utility.yul\":7:146   */\n    tag_35:\n        /* \"#utility.yul\":53:58   */\n      0x00\n        /* \"#utility.yul\":91:97   */\n      dup2\n        /* \"#utility.yul\":78:98   */\n      calldataload\n        /* \"#utility.yul\":69:98   */\n      swap1\n      pop\n        /* \"#utility.yul\":107:140   */\n      tag_37\n        /* \"#utility.yul\":134:139   */\n      dup2\n        /* \"#utility.yul\":107:140   */\n      tag_38\n      jump\t// in\n    tag_37:\n        /* \"#utility.yul\":7:146   */\n      swap3\n      swap2\n      pop\n      pop\n      jump\t// out\n        /* \"#utility.yul\":152:307   */\n    tag_39:\n        /* \"#utility.yul\":206:211   */\n      0x00\n        /* \"#utility.yul\":244:250   */\n      dup2\n        /* \"#utility.yul\":231:251   */\n      calldataload\n        /* \"#utility.yul\":222:251   */\n      swap1\n      pop\n        /* \"#utility.yul\":260:301   */\n      tag_41\n        /* \"#utility.yul\":295:300   */\n      dup2\n        /* \"#utility.yul\":260:301   */\n      tag_42\n      jump\t// in\n    tag_41:\n        /* \"#utility.yul\":152:307   */\n      swap3\n      swap2\n      pop\n      pop\n      jump\t// out\n        /* \"#utility.yul\":313:642   */\n    tag_17:\n        /* \"#utility.yul\":372:378   */\n      0x00\n        /* \"#utility.yul\":421:423   */\n      0x20\n        /* \"#utility.yul\":409:418   */\n      dup3\n        /* \"#utility.yul\":400:407   */\n      dup5\n        /* \"#utility.yul\":396:419   */\n      sub\n        /* \"#utility.yul\":392:424   */\n      slt\n        /* \"#utility.yul\":389:508   */\n      iszero\n      tag_44\n      jumpi\n        /* \"#utility.yul\":427:506   */\n      tag_45\n      tag_46\n      jump\t// in\n    tag_45:\n        /* \"#utility.yul\":389:508   */\n    tag_44:\n        /* \"#utility.yul\":547:548   */\n      0x00\n        /* \"#utility.yul\":572:625   */\n      tag_47\n        /* \"#utility.yul\":617:624   */\n      dup5\n        /* \"#utility.yul\":608:614   */\n      dup3\n        /* \"#utility.yul\":597:606   */\n      dup6\n        /* \"#utility.yul\":593:615   */\n      add\n        /* \"#utility.yul\":572:625   */\n      tag_35\n      jump\t// in\n    tag_47:\n        /* \"#utility.yul\":562:625   */\n      swap2\n      pop\n        /* \"#utility.yul\":518:635   */\n      pop\n        /* \"#utility.yul\":313:642   */\n      swap3\n      swap2\n      pop\n      pop\n      jump\t// out\n        /* \"#utility.yul\":648:993   */\n    tag_12:\n        /* \"#utility.yul\":715:721   */\n      0x00\n        /* \"#utility.yul\":764:766   */\n      0x20\n        /* \"#utility.yul\":752:761   */\n      dup3\n        /* \"#utility.yul\":743:750   */\n      dup5\n        /* \"#utility.yul\":739:762   */\n      sub\n        /* \"#utility.yul\":735:767   */\n      slt\n        /* \"#utility.yul\":732:851   */\n      iszero\n      tag_49\n      jumpi\n        /* \"#utility.yul\":770:849   */\n      tag_50\n      tag_46\n      jump\t// in\n    tag_50:\n        /* \"#utility.yul\":732:851   */\n    tag_49:\n        /* \"#utility.yul\":890:891   */\n      0x00\n        /* \"#utility.yul\":915:976   */\n      tag_51\n        /* \"#utility.yul\":968:975   */\n      dup5\n        /* \"#utility.yul\":959:965   */\n      dup3\n        /* \"#utility.yul\":948:957   */\n      dup6\n        /* \"#utility.yul\":944:966   */\n      add\n        /* \"#utility.yul\":915:976   */\n      tag_39\n      jump\t// in\n    tag_51:\n        /* \"#utility.yul\":905:976   */\n      swap2\n      pop\n        /* \"#utility.yul\":861:986   */\n      pop\n        /* \"#utility.yul\":648:993   */\n      swap3\n      swap2\n      pop\n      pop\n      jump\t// out\n        /* \"#utility.yul\":999:1365   */\n    tag_52:\n        /* \"#utility.yul\":1141:1144   */\n      0x00\n        /* \"#utility.yul\":1162:1229   */\n      tag_54\n        /* \"#utility.yul\":1226:1228   */\n      0x26\n        /* \"#utility.yul\":1221:1224   */\n      dup4\n        /* \"#utility.yul\":1162:1229   */\n      tag_55\n      jump\t// in\n    tag_54:\n        /* \"#utility.yul\":1155:1229   */\n      swap2\n      pop\n        /* \"#utility.yul\":1238:1331   */\n      tag_56\n        /* \"#utility.yul\":1327:1330   */\n      dup3\n        /* \"#utility.yul\":1238:1331   */\n      tag_57\n      jump\t// in\n    tag_56:\n        /* \"#utility.yul\":1356:1358   */\n      0x40\n        /* \"#utility.yul\":1351:1354   */\n      dup3\n        /* \"#utility.yul\":1347:1359   */\n      add\n        /* \"#utility.yul\":1340:1359   */\n      swap1\n      pop\n        /* \"#utility.yul\":999:1365   */\n      swap2\n      swap1\n      pop\n      jump\t// out\n        /* \"#utility.yul\":1371:1790   */\n    tag_30:\n        /* \"#utility.yul\":1537:1541   */\n      0x00\n        /* \"#utility.yul\":1575:1577   */\n      0x20\n        /* \"#utility.yul\":1564:1573   */\n      dup3\n        /* \"#utility.yul\":1560:1578   */\n      add\n        /* \"#utility.yul\":1552:1578   */\n      swap1\n      pop\n        /* \"#utility.yul\":1624:1633   */\n      dup2\n        /* \"#utility.yul\":1618:1622   */\n      dup2\n        /* \"#utility.yul\":1614:1634   */\n      sub\n        /* \"#utility.yul\":1610:1611   */\n      0x00\n        /* \"#utility.yul\":1599:1608   */\n      dup4\n        /* \"#utility.yul\":1595:1612   */\n      add\n        /* \"#utility.yul\":1588:1635   */\n      mstore\n        /* \"#utility.yul\":1652:1783   */\n      tag_59\n        /* \"#utility.yul\":1778:1782   */\n      dup2\n        /* \"#utility.yul\":1652:1783   */\n      tag_52\n      jump\t// in\n    tag_59:\n        /* \"#utility.yul\":1644:1783   */\n      swap1\n      pop\n        /* \"#utility.yul\":1371:1790   */\n      swap2\n      swap1\n      pop\n      jump\t// out\n        /* \"#utility.yul\":1877:2046   */\n    tag_55:\n        /* \"#utility.yul\":1961:1972   */\n      0x00\n        /* \"#utility.yul\":1995:2001   */\n      dup3\n        /* \"#utility.yul\":1990:1993   */\n      dup3\n        /* \"#utility.yul\":1983:2002   */\n      mstore\n        /* \"#utility.yul\":2035:2039   */\n      0x20\n        /* \"#utility.yul\":2030:2033   */\n      dup3\n        /* \"#utility.yul\":2026:2040   */\n      add\n        /* \"#utility.yul\":2011:2040   */\n      swap1\n      pop\n        /* \"#utility.yul\":1877:2046   */\n      swap3\n      swap2\n      pop\n      pop\n      jump\t// out\n        /* \"#utility.yul\":2052:2148   */\n    tag_63:\n        /* \"#utility.yul\":2089:2096   */\n      0x00\n        /* \"#utility.yul\":2118:2142   */\n      tag_65\n        /* \"#utility.yul\":2136:2141   */\n      dup3\n        /* \"#utility.yul\":2118:2142   */\n      tag_66\n      jump\t// in\n    tag_65:\n        /* \"#utility.yul\":2107:2142   */\n      swap1\n      pop\n        /* \"#utility.yul\":2052:2148   */\n      swap2\n      swap1\n      pop\n      jump\t// out\n        /* \"#utility.yul\":2154:2258   */\n    tag_67:\n        /* \"#utility.yul\":2199:2206   */\n      0x00\n        /* \"#utility.yul\":2228:2252   */\n      tag_69\n        /* \"#utility.yul\":2246:2251   */\n      dup3\n        /* \"#utility.yul\":2228:2252   */\n      tag_66\n      jump\t// in\n    tag_69:\n        /* \"#utility.yul\":2217:2252   */\n      swap1\n      pop\n        /* \"#utility.yul\":2154:2258   */\n      swap2\n      swap1\n      pop\n      jump\t// out\n        /* \"#utility.yul\":2264:2390   */\n    tag_66:\n        /* \"#utility.yul\":2301:2308   */\n      0x00\n        /* \"#utility.yul\":2341:2383   */\n      0xffffffffffffffffffffffffffffffffffffffff\n        /* \"#utility.yul\":2334:2339   */\n      dup3\n        /* \"#utility.yul\":2330:2384   */\n      and\n        /* \"#utility.yul\":2319:2384   */\n      swap1\n      pop\n        /* \"#utility.yul\":2264:2390   */\n      swap2\n      swap1\n      pop\n      jump\t// out\n        /* \"#utility.yul\":2396:2576   */\n    tag_22:\n        /* \"#utility.yul\":2444:2521   */\n      0x4e487b7100000000000000000000000000000000000000000000000000000000\n        /* \"#utility.yul\":2441:2442   */\n      0x00\n        /* \"#utility.yul\":2434:2522   */\n      mstore\n        /* \"#utility.yul\":2541:2545   */\n      0x01\n        /* \"#utility.yul\":2538:2539   */\n      0x04\n        /* \"#utility.yul\":2531:2546   */\n      mstore\n        /* \"#utility.yul\":2565:2569   */\n      0x24\n        /* \"#utility.yul\":2562:2563   */\n      0x00\n        /* \"#utility.yul\":2555:2570   */\n      revert\n        /* \"#utility.yul\":2705:2822   */\n    tag_46:\n        /* \"#utility.yul\":2814:2815   */\n      0x00\n        /* \"#utility.yul\":2811:2812   */\n      dup1\n        /* \"#utility.yul\":2804:2816   */\n      revert\n        /* \"#utility.yul\":2828:3053   */\n    tag_57:\n        /* \"#utility.yul\":2968:3002   */\n      0x4f776e61626c653a206e6577206f776e657220697320746865207a65726f2061\n        /* \"#utility.yul\":2964:2965   */\n      0x00\n        /* \"#utility.yul\":2956:2962   */\n      dup3\n        /* \"#utility.yul\":2952:2966   */\n      add\n        /* \"#utility.yul\":2945:3003   */\n      mstore\n        /* \"#utility.yul\":3037:3045   */\n      0x6464726573730000000000000000000000000000000000000000000000000000\n        /* \"#utility.yul\":3032:3034   */\n      0x20\n        /* \"#utility.yul\":3024:3030   */\n      dup3\n        /* \"#utility.yul\":3020:3035   */\n      add\n        /* \"#utility.yul\":3013:3046   */\n      mstore\n        /* \"#utility.yul\":2828:3053   */\n      pop\n      jump\t// out\n        /* \"#utility.yul\":3059:3181   */\n    tag_38:\n        /* \"#utility.yul\":3132:3156   */\n      tag_77\n        /* \"#utility.yul\":3150:3155   */\n      dup2\n        /* \"#utility.yul\":3132:3156   */\n      tag_63\n      jump\t// in\n    tag_77:\n        /* \"#utility.yul\":3125:3130   */\n      dup2\n        /* \"#utility.yul\":3122:3157   */\n      eq\n        /* \"#utility.yul\":3112:3175   */\n      tag_78\n      jumpi\n        /* \"#utility.yul\":3171:3172   */\n      0x00\n        /* \"#utility.yul\":3168:3169   */\n      dup1\n        /* \"#utility.yul\":3161:3173   */\n      revert\n        /* \"#utility.yul\":3112:3175   */\n    tag_78:\n        /* \"#utility.yul\":3059:3181   */\n      pop\n      jump\t// out\n        /* \"#utility.yul\":3187:3325   */\n    tag_42:\n        /* \"#utility.yul\":3268:3300   */\n      tag_80\n        /* \"#utility.yul\":3294:3299   */\n      dup2\n        /* \"#utility.yul\":3268:3300   */\n      tag_67\n      jump\t// in\n    tag_80:\n        /* \"#utility.yul\":3261:3266   */\n      dup2\n        /* \"#utility.yul\":3258:3301   */\n      eq\n        /* \"#utility.yul\":3248:3319   */\n      tag_81\n      jumpi\n        /* \"#utility.yul\":3315:3316   */\n      0x00\n        /* \"#utility.yul\":3312:3313   */\n      dup1\n        /* \"#utility.yul\":3305:3317   */\n      revert\n        /* \"#utility.yul\":3248:3319   */\n    tag_81:\n        /* \"#utility.yul\":3187:3325   */\n      pop\n      jump\t// out\n\n    auxdata: 0xa26469706673582212204c1e1bef3d3c0812539a72931ff0bf4b9fceddcd54b3a25777f749e376bd93ed64736f6c63430008070033\n}\n",
				"bytecode": {
					"linkReferences": {},
					"object": "608060405234801561001057600080fd5b50336000806101000a81548173ffffffffffffffffffffffffffffffffffffffff021916908373ffffffffffffffffffffffffffffffffffffffff1602179055506104a2806100606000396000f3fe60806040526004361061002d5760003560e01c806314da447f1461003c578063f2fde38b1461006557610037565b3661003757600080fd5b600080fd5b34801561004857600080fd5b50610063600480360381019061005e91906102f6565b61008e565b005b34801561007157600080fd5b5061008c600480360381019061008791906102c9565b610103565b005b60008054906101000a900473ffffffffffffffffffffffffffffffffffffffff1673ffffffffffffffffffffffffffffffffffffffff163373ffffffffffffffffffffffffffffffffffffffff16146100ea576100e96103bb565b5b8073ffffffffffffffffffffffffffffffffffffffff16ff5b60008054906101000a900473ffffffffffffffffffffffffffffffffffffffff1673ffffffffffffffffffffffffffffffffffffffff163373ffffffffffffffffffffffffffffffffffffffff161461015f5761015e6103bb565b5b600073ffffffffffffffffffffffffffffffffffffffff168173ffffffffffffffffffffffffffffffffffffffff1614156101cf576040517f08c379a00000000000000000000000000000000000000000000000000000000081526004016101c690610346565b60405180910390fd5b6101d8816101db565b50565b60008060009054906101000a900473ffffffffffffffffffffffffffffffffffffffff169050816000806101000a81548173ffffffffffffffffffffffffffffffffffffffff021916908373ffffffffffffffffffffffffffffffffffffffff1602179055508173ffffffffffffffffffffffffffffffffffffffff168173ffffffffffffffffffffffffffffffffffffffff167f8be0079c531659141344cd1fd0a4f28419497f9722a3daafe3b4186f6b6457e060405160405180910390a35050565b6000813590506102ae8161043e565b92915050565b6000813590506102c381610455565b92915050565b6000602082840312156102df576102de6103ea565b5b60006102ed8482850161029f565b91505092915050565b60006020828403121561030c5761030b6103ea565b5b600061031a848285016102b4565b91505092915050565b6000610330602683610366565b915061033b826103ef565b604082019050919050565b6000602082019050818103600083015261035f81610323565b9050919050565b600082825260208201905092915050565b60006103828261039b565b9050919050565b60006103948261039b565b9050919050565b600073ffffffffffffffffffffffffffffffffffffffff82169050919050565b7f4e487b7100000000000000000000000000000000000000000000000000000000600052600160045260246000fd5b600080fd5b7f4f776e61626c653a206e6577206f776e657220697320746865207a65726f206160008201527f6464726573730000000000000000000000000000000000000000000000000000602082015250565b61044781610377565b811461045257600080fd5b50565b61045e81610389565b811461046957600080fd5b5056fea26469706673582212204c1e1bef3d3c0812539a72931ff0bf4b9fceddcd54b3a25777f749e376bd93ed64736f6c63430008070033",
					"opcodes": "PUSH1 0x80 PUSH1 0x40 MSTORE CALLVALUE DUP1 ISZERO PUSH2 0x10 JUMPI PUSH1 0x0 DUP1 REVERT JUMPDEST POP CALLER PUSH1 0x0 DUP1 PUSH2 0x100 EXP DUP2 SLOAD DUP2 PUSH20 0xFFFFFFFFFFFFFFFFFFFFFFFFFFFFFFFFFFFFFFFF MUL NOT AND SWAP1 DUP4 PUSH20 0xFFFFFFFFFFFFFFFFFFFFFFFFFFFFFFFFFFFFFFFF AND MUL OR SWAP1 SSTORE POP PUSH2 0x4A2 DUP1 PUSH2 0x60 PUSH1 0x0 CODECOPY PUSH1 0x0 RETURN INVALID PUSH1 0x80 PUSH1 0x40 MSTORE PUSH1 0x4 CALLDATASIZE LT PUSH2 0x2D JUMPI PUSH1 0x0 CALLDATALOAD PUSH1 0xE0 SHR DUP1 PUSH4 0x14DA447F EQ PUSH2 0x3C JUMPI DUP1 PUSH4 0xF2FDE38B EQ PUSH2 0x65 JUMPI PUSH2 0x37 JUMP JUMPDEST CALLDATASIZE PUSH2 0x37 JUMPI PUSH1 0x0 DUP1 REVERT JUMPDEST PUSH1 0x0 DUP1 REVERT JUMPDEST CALLVALUE DUP1 ISZERO PUSH2 0x48 JUMPI PUSH1 0x0 DUP1 REVERT JUMPDEST POP PUSH2 0x63 PUSH1 0x4 DUP1 CALLDATASIZE SUB DUP2 ADD SWAP1 PUSH2 0x5E SWAP2 SWAP1 PUSH2 0x2F6 JUMP JUMPDEST PUSH2 0x8E JUMP JUMPDEST STOP JUMPDEST CALLVALUE DUP1 ISZERO PUSH2 0x71 JUMPI PUSH1 0x0 DUP1 REVERT JUMPDEST POP PUSH2 0x8C PUSH1 0x4 DUP1 CALLDATASIZE SUB DUP2 ADD SWAP1 PUSH2 0x87 SWAP2 SWAP1 PUSH2 0x2C9 JUMP JUMPDEST PUSH2 0x103 JUMP JUMPDEST STOP JUMPDEST PUSH1 0x0 DUP1 SLOAD SWAP1 PUSH2 0x100 EXP SWAP1 DIV PUSH20 0xFFFFFFFFFFFFFFFFFFFFFFFFFFFFFFFFFFFFFFFF AND PUSH20 0xFFFFFFFFFFFFFFFFFFFFFFFFFFFFFFFFFFFFFFFF AND CALLER PUSH20 0xFFFFFFFFFFFFFFFFFFFFFFFFFFFFFFFFFFFFFFFF AND EQ PUSH2 0xEA JUMPI PUSH2 0xE9 PUSH2 0x3BB JUMP JUMPDEST JUMPDEST DUP1 PUSH20 0xFFFFFFFFFFFFFFFFFFFFFFFFFFFFFFFFFFFFFFFF AND SELFDESTRUCT JUMPDEST PUSH1 0x0 DUP1 SLOAD SWAP1 PUSH2 0x100 EXP SWAP1 DIV PUSH20 0xFFFFFFFFFFFFFFFFFFFFFFFFFFFFFFFFFFFFFFFF AND PUSH20 0xFFFFFFFFFFFFFFFFFFFFFFFFFFFFFFFFFFFFFFFF AND CALLER PUSH20 0xFFFFFFFFFFFFFFFFFFFFFFFFFFFFFFFFFFFFFFFF AND EQ PUSH2 0x15F JUMPI PUSH2 0x15E PUSH2 0x3BB JUMP JUMPDEST JUMPDEST PUSH1 0x0 PUSH20 0xFFFFFFFFFFFFFFFFFFFFFFFFFFFFFFFFFFFFFFFF AND DUP2 PUSH20 0xFFFFFFFFFFFFFFFFFFFFFFFFFFFFFFFFFFFFFFFF AND EQ ISZERO PUSH2 0x1CF JUMPI PUSH1 0x40 MLOAD PUSH32 0x8C379A000000000000000000000000000000000000000000000000000000000 DUP2 MSTORE PUSH1 0x4 ADD PUSH2 0x1C6 SWAP1 PUSH2 0x346 JUMP JUMPDEST PUSH1 0x40 MLOAD DUP1 SWAP2 SUB SWAP1 REVERT JUMPDEST PUSH2 0x1D8 DUP2 PUSH2 0x1DB JUMP JUMPDEST POP JUMP JUMPDEST PUSH1 0x0 DUP1 PUSH1 0x0 SWAP1 SLOAD SWAP1 PUSH2 0x100 EXP SWAP1 DIV PUSH20 0xFFFFFFFFFFFFFFFFFFFFFFFFFFFFFFFFFFFFFFFF AND SWAP1 POP DUP2 PUSH1 0x0 DUP1 PUSH2 0x100 EXP DUP2 SLOAD DUP2 PUSH20 0xFFFFFFFFFFFFFFFFFFFFFFFFFFFFFFFFFFFFFFFF MUL NOT AND SWAP1 DUP4 PUSH20 0xFFFFFFFFFFFFFFFFFFFFFFFFFFFFFFFFFFFFFFFF AND MUL OR SWAP1 SSTORE POP DUP2 PUSH20 0xFFFFFFFFFFFFFFFFFFFFFFFFFFFFFFFFFFFFFFFF AND DUP2 PUSH20 0xFFFFFFFFFFFFFFFFFFFFFFFFFFFFFFFFFFFFFFFF AND PUSH32 0x8BE0079C531659141344CD1FD0A4F28419497F9722A3DAAFE3B4186F6B6457E0 PUSH1 0x40 MLOAD PUSH1 0x40 MLOAD DUP1 SWAP2 SUB SWAP1 LOG3 POP POP JUMP JUMPDEST PUSH1 0x0 DUP2 CALLDATALOAD SWAP1 POP PUSH2 0x2AE DUP2 PUSH2 0x43E JUMP JUMPDEST SWAP3 SWAP2 POP POP JUMP JUMPDEST PUSH1 0x0 DUP2 CALLDATALOAD SWAP1 POP PUSH2 0x2C3 DUP2 PUSH2 0x455 JUMP JUMPDEST SWAP3 SWAP2 POP POP JUMP JUMPDEST PUSH1 0x0 PUSH1 0x20 DUP3 DUP5 SUB SLT ISZERO PUSH2 0x2DF JUMPI PUSH2 0x2DE PUSH2 0x3EA JUMP JUMPDEST JUMPDEST PUSH1 0x0 PUSH2 0x2ED DUP5 DUP3 DUP6 ADD PUSH2 0x29F JUMP JUMPDEST SWAP2 POP POP SWAP3 SWAP2 POP POP JUMP JUMPDEST PUSH1 0x0 PUSH1 0x20 DUP3 DUP5 SUB SLT ISZERO PUSH2 0x30C JUMPI PUSH2 0x30B PUSH2 0x3EA JUMP JUMPDEST JUMPDEST PUSH1 0x0 PUSH2 0x31A DUP5 DUP3 DUP6 ADD PUSH2 0x2B4 JUMP JUMPDEST SWAP2 POP POP SWAP3 SWAP2 POP POP JUMP JUMPDEST PUSH1 0x0 PUSH2 0x330 PUSH1 0x26 DUP4 PUSH2 0x366 JUMP JUMPDEST SWAP2 POP PUSH2 0x33B DUP3 PUSH2 0x3EF JUMP JUMPDEST PUSH1 0x40 DUP3 ADD SWAP1 POP SWAP2 SWAP1 POP JUMP JUMPDEST PUSH1 0x0 PUSH1 0x20 DUP3 ADD SWAP1 POP DUP2 DUP2 SUB PUSH1 0x0 DUP4 ADD MSTORE PUSH2 0x35F DUP2 PUSH2 0x323 JUMP JUMPDEST SWAP1 POP SWAP2 SWAP1 POP JUMP JUMPDEST PUSH1 0x0 DUP3 DUP3 MSTORE PUSH1 0x20 DUP3 ADD SWAP1 POP SWAP3 SWAP2 POP POP JUMP JUMPDEST PUSH1 0x0 PUSH2 0x382 DUP3 PUSH2 0x39B JUMP JUMPDEST SWAP1 POP SWAP2 SWAP1 POP JUMP JUMPDEST PUSH1 0x0 PUSH2 0x394 DUP3 PUSH2 0x39B JUMP JUMPDEST SWAP1 POP SWAP2 SWAP1 POP JUMP JUMPDEST PUSH1 0x0 PUSH20 0xFFFFFFFFFFFFFFFFFFFFFFFFFFFFFFFFFFFFFFFF DUP3 AND SWAP1 POP SWAP2 SWAP1 POP JUMP JUMPDEST PUSH32 0x4E487B7100000000000000000000000000000000000000000000000000000000 PUSH1 0x0 MSTORE PUSH1 0x1 PUSH1 0x4 MSTORE PUSH1 0x24 PUSH1 0x0 REVERT JUMPDEST PUSH1 0x0 DUP1 REVERT JUMPDEST PUSH32 0x4F776E61626C653A206E6577206F776E657220697320746865207A65726F2061 PUSH1 0x0 DUP3 ADD MSTORE PUSH32 0x6464726573730000000000000000000000000000000000000000000000000000 PUSH1 0x20 DUP3 ADD MSTORE POP JUMP JUMPDEST PUSH2 0x447 DUP2 PUSH2 0x377 JUMP JUMPDEST DUP2 EQ PUSH2 0x452 JUMPI PUSH1 0x0 DUP1 REVERT JUMPDEST POP JUMP JUMPDEST PUSH2 0x45E DUP2 PUSH2 0x389 JUMP JUMPDEST DUP2 EQ PUSH2 0x469 JUMPI PUSH1 0x0 DUP1 REVERT JUMPDEST POP JUMP INVALID LOG2 PUSH5 0x6970667358 0x22 SLT KECCAK256 0x4C 0x1E SHL 0xEF RETURNDATASIZE EXTCODECOPY ADDMOD SLT MSTORE8 SWAP11 PUSH19 0x931FF0BF4B9FCEDDCD54B3A25777F749E376BD SWAP4 0xED PUSH5 0x736F6C6343 STOP ADDMOD SMOD STOP CALLER "
				},
				"gasEstimates": {
					"creation": {
						"codeDepositCost": "237200",
						"executionCost": "24547",
						"totalCost": "261747"
					},
					"external": {
						"": "113",
						"suicide0(address)": "30198",
						"transferOwnership(address)": "30650"
					},
					"internal": {
						"_transferOwnership(address)": "27981",
						"setCoinBase(address payable)": "infinite"
					}
				},
				"methodIdentifiers": {
					"suicide0(address)": "14da447f",
					"transferOwnership(address)": "f2fde38b"
				}
			},
			"storageLayout": {
				"storage": [
					{
						"astId": 207,
						"contract": "contracts/base/Base.sol:Base",
						"label": "_owner",
						"offset": 0,
						"slot": "0",
						"type": "t_address"
					},
					{
						"astId": 209,
						"contract": "contracts/base/Base.sol:Base",
						"label": "_coinbase",
						"offset": 0,
						"slot": "1",
						"type": "t_address_payable"
					}
				],
				"types": {
					"t_address": {
						"encoding": "inplace",
						"label": "address",
						"numberOfBytes": "20"
					},
					"t_address_payable": {
						"encoding": "inplace",
						"label": "address payable",
						"numberOfBytes": "20"
					}
				}
			},
			"userdoc": {
				"kind": "user",
				"methods": {},
				"version": 1
			}
		}
	}
}