{
	"contracts/Bounty.sol": {
		"Bounty": {
			"abi": [
				{
					"inputs": [],
					"stateMutability": "nonpayable",
					"type": "constructor"
				},
				{
					"anonymous": false,
					"inputs": [
						{
							"indexed": true,
							"internalType": "address",
							"name": "previousOwner",
							"type": "address"
						},
						{
							"indexed": true,
							"internalType": "address",
							"name": "newOwner",
							"type": "address"
						}
					],
					"name": "OwnershipTransferred",
					"type": "event"
				},
				{
					"anonymous": false,
					"inputs": [
						{
							"indexed": false,
							"internalType": "string",
							"name": "discoId",
							"type": "string"
						}
					],
					"name": "createdBounty",
					"type": "event"
				},
				{
					"stateMutability": "payable",
					"type": "fallback"
				},
				{
					"inputs": [
						{
							"internalType": "string",
							"name": "",
							"type": "string"
						}
					],
					"name": "bountyAddress",
					"outputs": [
						{
							"internalType": "contract BountyAddr",
							"name": "",
							"type": "address"
						}
					],
					"stateMutability": "view",
					"type": "function"
				},
				{
					"inputs": [
						{
							"internalType": "address",
							"name": "stableAddr",
							"type": "address"
						},
						{
							"internalType": "string",
							"name": "bountyId",
							"type": "string"
						}
					],
					"name": "createBounty",
					"outputs": [],
					"stateMutability": "payable",
					"type": "function"
				},
				{
					"inputs": [
						{
							"internalType": "address payable",
							"name": "receiver",
							"type": "address"
						}
					],
					"name": "suicide0",
					"outputs": [],
					"stateMutability": "nonpayable",
					"type": "function"
				},
				{
					"inputs": [
						{
							"internalType": "address",
							"name": "newOwner",
							"type": "address"
						}
					],
					"name": "transferOwnership",
					"outputs": [],
					"stateMutability": "nonpayable",
					"type": "function"
				},
				{
					"stateMutability": "payable",
					"type": "receive"
				}
			],
			"devdoc": {
				"kind": "dev",
				"methods": {},
				"version": 1
			},
			"evm": {
				"assembly": "    /* \"contracts/Bounty.sol\":143:616  contract Bounty is Base { ... */\n  mstore(0x40, 0x80)\n    /* \"contracts/Bounty.sol\":272:329  constructor() Base() {... */\n  callvalue\n  dup1\n  iszero\n  tag_1\n  jumpi\n  0x00\n  dup1\n  revert\ntag_1:\n  pop\n    /* \"contracts/base/Base.sol\":371:381  msg.sender */\n  caller\n    /* \"contracts/base/Base.sol\":362:368  _owner */\n  0x00\n  dup1\n    /* \"contracts/base/Base.sol\":362:381  _owner = msg.sender */\n  0x0100\n  exp\n  dup2\n  sload\n  dup2\n  0xffffffffffffffffffffffffffffffffffffffff\n  mul\n  not\n  and\n  swap1\n  dup4\n  0xffffffffffffffffffffffffffffffffffffffff\n  and\n  mul\n  or\n  swap1\n  sstore\n  pop\n    /* \"contracts/Bounty.sol\":312:322  msg.sender */\n  caller\n    /* \"contracts/Bounty.sol\":303:309  _owner */\n  0x00\n  dup1\n    /* \"contracts/Bounty.sol\":303:322  _owner = msg.sender */\n  0x0100\n  exp\n  dup2\n  sload\n  dup2\n  0xffffffffffffffffffffffffffffffffffffffff\n  mul\n  not\n  and\n  swap1\n  dup4\n  0xffffffffffffffffffffffffffffffffffffffff\n  and\n  mul\n  or\n  swap1\n  sstore\n  pop\n    /* \"contracts/Bounty.sol\":143:616  contract Bounty is Base { ... */\n  dataSize(sub_0)\n  dup1\n  dataOffset(sub_0)\n  0x00\n  codecopy\n  0x00\n  return\nstop\n\nsub_0: assembly {\n        /* \"contracts/Bounty.sol\":143:616  contract Bounty is Base { ... */\n      mstore(0x40, 0x80)\n      jumpi(tag_1, lt(calldatasize, 0x04))\n      shr(0xe0, calldataload(0x00))\n      dup1\n      0x0c3b11a7\n      eq\n      tag_3\n      jumpi\n      dup1\n      0x14da447f\n      eq\n      tag_4\n      jumpi\n      dup1\n      0x859e0547\n      eq\n      tag_5\n      jumpi\n      dup1\n      0xf2fde38b\n      eq\n      tag_6\n      jumpi\n      jump(tag_2)\n    tag_1:\n      jumpi(tag_2, calldatasize)\n        /* \"contracts/base/Base.sol\":498:506  revert() */\n      0x00\n      dup1\n      revert\n        /* \"contracts/Bounty.sol\":143:616  contract Bounty is Base { ... */\n    tag_2:\n        /* \"contracts/base/Base.sol\":440:448  revert() */\n      0x00\n      dup1\n      revert\n        /* \"contracts/Bounty.sol\":215:265  mapping(string => BountyAddr) public bountyAddress */\n    tag_3:\n      callvalue\n      dup1\n      iszero\n      tag_11\n      jumpi\n      0x00\n      dup1\n      revert\n    tag_11:\n      pop\n      tag_12\n      0x04\n      dup1\n      calldatasize\n      sub\n      dup2\n      add\n      swap1\n      tag_13\n      swap2\n      swap1\n      tag_14\n      jump\t// in\n    tag_13:\n      tag_15\n      jump\t// in\n    tag_12:\n      mload(0x40)\n      tag_16\n      swap2\n      swap1\n      tag_17\n      jump\t// in\n    tag_16:\n      mload(0x40)\n      dup1\n      swap2\n      sub\n      swap1\n      return\n        /* \"contracts/base/Base.sol\":1009:1115  function suicide0(address payable receiver)... */\n    tag_4:\n      callvalue\n      dup1\n      iszero\n      tag_18\n      jumpi\n      0x00\n      dup1\n      revert\n    tag_18:\n      pop\n      tag_19\n      0x04\n      dup1\n      calldatasize\n      sub\n      dup2\n      add\n      swap1\n      tag_20\n      swap2\n      swap1\n      tag_21\n      jump\t// in\n    tag_20:\n      tag_22\n      jump\t// in\n    tag_19:\n      stop\n        /* \"contracts/Bounty.sol\":335:612  function createBounty(address stableAddr, string memory bountyId) public payable {... */\n    tag_5:\n      tag_23\n      0x04\n      dup1\n      calldatasize\n      sub\n      dup2\n      add\n      swap1\n      tag_24\n      swap2\n      swap1\n      tag_25\n      jump\t// in\n    tag_24:\n      tag_26\n      jump\t// in\n    tag_23:\n      stop\n        /* \"contracts/base/Base.sol\":614:810  function transferOwnership(address newOwner) public virtual isOwner {... */\n    tag_6:\n      callvalue\n      dup1\n      iszero\n      tag_27\n      jumpi\n      0x00\n      dup1\n      revert\n    tag_27:\n      pop\n      tag_28\n      0x04\n      dup1\n      calldatasize\n      sub\n      dup2\n      add\n      swap1\n      tag_29\n      swap2\n      swap1\n      tag_30\n      jump\t// in\n    tag_29:\n      tag_31\n      jump\t// in\n    tag_28:\n      stop\n        /* \"contracts/Bounty.sol\":215:265  mapping(string => BountyAddr) public bountyAddress */\n    tag_15:\n      0x02\n      dup2\n      dup1\n      mload\n      0x20\n      dup2\n      add\n      dup3\n      add\n      dup1\n      mload\n      dup5\n      dup3\n      mstore\n      0x20\n      dup4\n      add\n      0x20\n      dup6\n      add\n      keccak256\n      dup2\n      dup4\n      mstore\n      dup1\n      swap6\n      pop\n      pop\n      pop\n      pop\n      pop\n      pop\n      0x00\n      swap2\n      pop\n      sload\n      swap1\n      0x0100\n      exp\n      swap1\n      div\n      0xffffffffffffffffffffffffffffffffffffffff\n      and\n      dup2\n      jump\t// out\n        /* \"contracts/base/Base.sol\":1009:1115  function suicide0(address payable receiver)... */\n    tag_22:\n        /* \"contracts/base/Base.sol\":303:309  _owner */\n      0x00\n      dup1\n      sload\n      swap1\n      0x0100\n      exp\n      swap1\n      div\n      0xffffffffffffffffffffffffffffffffffffffff\n      and\n        /* \"contracts/base/Base.sol\":289:309  msg.sender == _owner */\n      0xffffffffffffffffffffffffffffffffffffffff\n      and\n        /* \"contracts/base/Base.sol\":289:299  msg.sender */\n      caller\n        /* \"contracts/base/Base.sol\":289:309  msg.sender == _owner */\n      0xffffffffffffffffffffffffffffffffffffffff\n      and\n      eq\n        /* \"contracts/base/Base.sol\":282:310  assert(msg.sender == _owner) */\n      tag_33\n      jumpi\n      tag_34\n      tag_35\n      jump\t// in\n    tag_34:\n    tag_33:\n        /* \"contracts/base/Base.sol\":1099:1107  receiver */\n      dup1\n        /* \"contracts/base/Base.sol\":1086:1108  selfdestruct(receiver) */\n      0xffffffffffffffffffffffffffffffffffffffff\n      and\n      selfdestruct\n        /* \"contracts/Bounty.sol\":335:612  function createBounty(address stableAddr, string memory bountyId) public payable {... */\n    tag_26:\n        /* \"contracts/Bounty.sol\":426:441  BountyAddr addr */\n      0x00\n        /* \"contracts/Bounty.sol\":459:467  bountyId */\n      dup2\n        /* \"contracts/Bounty.sol\":477:481  this */\n      address\n        /* \"contracts/Bounty.sol\":444:483  new BountyAddr(bountyId, address(this)) */\n      mload(0x40)\n      tag_38\n      swap1\n      tag_39\n      jump\t// in\n    tag_38:\n      tag_40\n      swap3\n      swap2\n      swap1\n      tag_41\n      jump\t// in\n    tag_40:\n      mload(0x40)\n      dup1\n      swap2\n      sub\n      swap1\n      0x00\n      create\n      dup1\n      iszero\n      dup1\n      iszero\n      tag_42\n      jumpi\n      returndatasize\n      0x00\n      dup1\n      returndatacopy\n      revert(0x00, returndatasize)\n    tag_42:\n      pop\n        /* \"contracts/Bounty.sol\":426:483  BountyAddr addr = new BountyAddr(bountyId, address(this)) */\n      swap1\n      pop\n        /* \"contracts/Bounty.sol\":493:497  addr */\n      dup1\n        /* \"contracts/Bounty.sol\":493:505  addr.getPool */\n      0xffffffffffffffffffffffffffffffffffffffff\n      and\n      0x026b1d5f\n        /* \"contracts/Bounty.sol\":493:507  addr.getPool() */\n      mload(0x40)\n      dup2\n      0xffffffff\n      and\n      0xe0\n      shl\n      dup2\n      mstore\n      0x04\n      add\n      0x20\n      mload(0x40)\n      dup1\n      dup4\n      sub\n      dup2\n      dup7\n      dup1\n      extcodesize\n      iszero\n      dup1\n      iszero\n      tag_43\n      jumpi\n      0x00\n      dup1\n      revert\n    tag_43:\n      pop\n      gas\n      staticcall\n      iszero\n      dup1\n      iszero\n      tag_45\n      jumpi\n      returndatasize\n      0x00\n      dup1\n      returndatacopy\n      revert(0x00, returndatasize)\n    tag_45:\n      pop\n      pop\n      pop\n      pop\n      mload(0x40)\n      returndatasize\n      not(0x1f)\n      0x1f\n      dup3\n      add\n      and\n      dup3\n      add\n      dup1\n      0x40\n      mstore\n      pop\n      dup2\n      add\n      swap1\n      tag_46\n      swap2\n      swap1\n      tag_47\n      jump\t// in\n    tag_46:\n        /* \"contracts/Bounty.sol\":493:516  addr.getPool().transfer */\n      0xffffffffffffffffffffffffffffffffffffffff\n      and\n        /* \"contracts/Bounty.sol\":493:527  addr.getPool().transfer(msg.value) */\n      0x08fc\n        /* \"contracts/Bounty.sol\":517:526  msg.value */\n      callvalue\n        /* \"contracts/Bounty.sol\":493:527  addr.getPool().transfer(msg.value) */\n      swap1\n      dup2\n      iszero\n      mul\n      swap1\n      mload(0x40)\n      0x00\n      mload(0x40)\n      dup1\n      dup4\n      sub\n      dup2\n      dup6\n      dup9\n      dup9\n      call\n      swap4\n      pop\n      pop\n      pop\n      pop\n      iszero\n      dup1\n      iszero\n      tag_49\n      jumpi\n      returndatasize\n      0x00\n      dup1\n      returndatacopy\n      revert(0x00, returndatasize)\n    tag_49:\n      pop\n        /* \"contracts/Bounty.sol\":563:567  addr */\n      dup1\n        /* \"contracts/Bounty.sol\":537:550  bountyAddress */\n      0x02\n        /* \"contracts/Bounty.sol\":551:559  bountyId */\n      dup4\n        /* \"contracts/Bounty.sol\":537:560  bountyAddress[bountyId] */\n      mload(0x40)\n      tag_50\n      swap2\n      swap1\n      tag_51\n      jump\t// in\n    tag_50:\n      swap1\n      dup2\n      mstore\n      0x20\n      add\n      mload(0x40)\n      dup1\n      swap2\n      sub\n      swap1\n      keccak256\n      0x00\n        /* \"contracts/Bounty.sol\":537:567  bountyAddress[bountyId] = addr */\n      0x0100\n      exp\n      dup2\n      sload\n      dup2\n      0xffffffffffffffffffffffffffffffffffffffff\n      mul\n      not\n      and\n      swap1\n      dup4\n      0xffffffffffffffffffffffffffffffffffffffff\n      and\n      mul\n      or\n      swap1\n      sstore\n      pop\n        /* \"contracts/Bounty.sol\":582:605  createdBounty(bountyId) */\n      0x10da9753e8e5347b65100331705a66228cad7e14bb54dd9244a7ae532f1c01f9\n        /* \"contracts/Bounty.sol\":596:604  bountyId */\n      dup3\n        /* \"contracts/Bounty.sol\":582:605  createdBounty(bountyId) */\n      mload(0x40)\n      tag_52\n      swap2\n      swap1\n      tag_53\n      jump\t// in\n    tag_52:\n      mload(0x40)\n      dup1\n      swap2\n      sub\n      swap1\n      log1\n        /* \"contracts/Bounty.sol\":416:612  {... */\n      pop\n        /* \"contracts/Bounty.sol\":335:612  function createBounty(address stableAddr, string memory bountyId) public payable {... */\n      pop\n      pop\n      jump\t// out\n        /* \"contracts/base/Base.sol\":614:810  function transferOwnership(address newOwner) public virtual isOwner {... */\n    tag_31:\n        /* \"contracts/base/Base.sol\":303:309  _owner */\n      0x00\n      dup1\n      sload\n      swap1\n      0x0100\n      exp\n      swap1\n      div\n      0xffffffffffffffffffffffffffffffffffffffff\n      and\n        /* \"contracts/base/Base.sol\":289:309  msg.sender == _owner */\n      0xffffffffffffffffffffffffffffffffffffffff\n      and\n        /* \"contracts/base/Base.sol\":289:299  msg.sender */\n      caller\n        /* \"contracts/base/Base.sol\":289:309  msg.sender == _owner */\n      0xffffffffffffffffffffffffffffffffffffffff\n      and\n      eq\n        /* \"contracts/base/Base.sol\":282:310  assert(msg.sender == _owner) */\n      tag_55\n      jumpi\n      tag_56\n      tag_35\n      jump\t// in\n    tag_56:\n    tag_55:\n        /* \"contracts/base/Base.sol\":720:721  0 */\n      0x00\n        /* \"contracts/base/Base.sol\":700:722  newOwner != address(0) */\n      0xffffffffffffffffffffffffffffffffffffffff\n      and\n        /* \"contracts/base/Base.sol\":700:708  newOwner */\n      dup2\n        /* \"contracts/base/Base.sol\":700:722  newOwner != address(0) */\n      0xffffffffffffffffffffffffffffffffffffffff\n      and\n      eq\n      iszero\n        /* \"contracts/base/Base.sol\":692:765  require(newOwner != address(0), \"Ownable: new owner is the zero address\") */\n      tag_58\n      jumpi\n      mload(0x40)\n      0x08c379a000000000000000000000000000000000000000000000000000000000\n      dup2\n      mstore\n      0x04\n      add\n      tag_59\n      swap1\n      tag_60\n      jump\t// in\n    tag_59:\n      mload(0x40)\n      dup1\n      swap2\n      sub\n      swap1\n      revert\n    tag_58:\n        /* \"contracts/base/Base.sol\":775:803  _transferOwnership(newOwner) */\n      tag_61\n        /* \"contracts/base/Base.sol\":794:802  newOwner */\n      dup2\n        /* \"contracts/base/Base.sol\":775:793  _transferOwnership */\n      tag_62\n        /* \"contracts/base/Base.sol\":775:803  _transferOwnership(newOwner) */\n      jump\t// in\n    tag_61:\n        /* \"contracts/base/Base.sol\":614:810  function transferOwnership(address newOwner) public virtual isOwner {... */\n      pop\n      jump\t// out\n        /* \"contracts/base/Base.sol\":816:1003  function _transferOwnership(address newOwner) internal virtual {... */\n    tag_62:\n        /* \"contracts/base/Base.sol\":889:905  address oldOwner */\n      0x00\n        /* \"contracts/base/Base.sol\":908:914  _owner */\n      dup1\n      0x00\n      swap1\n      sload\n      swap1\n      0x0100\n      exp\n      swap1\n      div\n      0xffffffffffffffffffffffffffffffffffffffff\n      and\n        /* \"contracts/base/Base.sol\":889:914  address oldOwner = _owner */\n      swap1\n      pop\n        /* \"contracts/base/Base.sol\":933:941  newOwner */\n      dup2\n        /* \"contracts/base/Base.sol\":924:930  _owner */\n      0x00\n      dup1\n        /* \"contracts/base/Base.sol\":924:941  _owner = newOwner */\n      0x0100\n      exp\n      dup2\n      sload\n      dup2\n      0xffffffffffffffffffffffffffffffffffffffff\n      mul\n      not\n      and\n      swap1\n      dup4\n      0xffffffffffffffffffffffffffffffffffffffff\n      and\n      mul\n      or\n      swap1\n      sstore\n      pop\n        /* \"contracts/base/Base.sol\":987:995  newOwner */\n      dup2\n        /* \"contracts/base/Base.sol\":956:996  OwnershipTransferred(oldOwner, newOwner) */\n      0xffffffffffffffffffffffffffffffffffffffff\n      and\n        /* \"contracts/base/Base.sol\":977:985  oldOwner */\n      dup2\n        /* \"contracts/base/Base.sol\":956:996  OwnershipTransferred(oldOwner, newOwner) */\n      0xffffffffffffffffffffffffffffffffffffffff\n      and\n      0x8be0079c531659141344cd1fd0a4f28419497f9722a3daafe3b4186f6b6457e0\n      mload(0x40)\n      mload(0x40)\n      dup1\n      swap2\n      sub\n      swap1\n      log3\n        /* \"contracts/base/Base.sol\":879:1003  {... */\n      pop\n        /* \"contracts/base/Base.sol\":816:1003  function _transferOwnership(address newOwner) internal virtual {... */\n      pop\n      jump\t// out\n    tag_39:\n      dataSize(sub_0)\n      dup1\n      dataOffset(sub_0)\n      dup4\n      codecopy\n      add\n      swap1\n      jump\t// out\n        /* \"#utility.yul\":7:419   */\n    tag_65:\n        /* \"#utility.yul\":85:90   */\n      0x00\n        /* \"#utility.yul\":110:176   */\n      tag_67\n        /* \"#utility.yul\":126:175   */\n      tag_68\n        /* \"#utility.yul\":168:174   */\n      dup5\n        /* \"#utility.yul\":126:175   */\n      tag_69\n      jump\t// in\n    tag_68:\n        /* \"#utility.yul\":110:176   */\n      tag_70\n      jump\t// in\n    tag_67:\n        /* \"#utility.yul\":101:176   */\n      swap1\n      pop\n        /* \"#utility.yul\":199:205   */\n      dup3\n        /* \"#utility.yul\":192:197   */\n      dup2\n        /* \"#utility.yul\":185:206   */\n      mstore\n        /* \"#utility.yul\":237:241   */\n      0x20\n        /* \"#utility.yul\":230:235   */\n      dup2\n        /* \"#utility.yul\":226:242   */\n      add\n        /* \"#utility.yul\":275:278   */\n      dup5\n        /* \"#utility.yul\":266:272   */\n      dup5\n        /* \"#utility.yul\":261:264   */\n      dup5\n        /* \"#utility.yul\":257:273   */\n      add\n        /* \"#utility.yul\":254:279   */\n      gt\n        /* \"#utility.yul\":251:363   */\n      iszero\n      tag_71\n      jumpi\n        /* \"#utility.yul\":282:361   */\n      tag_72\n      tag_73\n      jump\t// in\n    tag_72:\n        /* \"#utility.yul\":251:363   */\n    tag_71:\n        /* \"#utility.yul\":372:413   */\n      tag_74\n        /* \"#utility.yul\":406:412   */\n      dup5\n        /* \"#utility.yul\":401:404   */\n      dup3\n        /* \"#utility.yul\":396:399   */\n      dup6\n        /* \"#utility.yul\":372:413   */\n      tag_75\n      jump\t// in\n    tag_74:\n        /* \"#utility.yul\":91:419   */\n      pop\n        /* \"#utility.yul\":7:419   */\n      swap4\n      swap3\n      pop\n      pop\n      pop\n      jump\t// out\n        /* \"#utility.yul\":425:564   */\n    tag_76:\n        /* \"#utility.yul\":471:476   */\n      0x00\n        /* \"#utility.yul\":509:515   */\n      dup2\n        /* \"#utility.yul\":496:516   */\n      calldataload\n        /* \"#utility.yul\":487:516   */\n      swap1\n      pop\n        /* \"#utility.yul\":525:558   */\n      tag_78\n        /* \"#utility.yul\":552:557   */\n      dup2\n        /* \"#utility.yul\":525:558   */\n      tag_79\n      jump\t// in\n    tag_78:\n        /* \"#utility.yul\":425:564   */\n      swap3\n      swap2\n      pop\n      pop\n      jump\t// out\n        /* \"#utility.yul\":570:725   */\n    tag_80:\n        /* \"#utility.yul\":624:629   */\n      0x00\n        /* \"#utility.yul\":662:668   */\n      dup2\n        /* \"#utility.yul\":649:669   */\n      calldataload\n        /* \"#utility.yul\":640:669   */\n      swap1\n      pop\n        /* \"#utility.yul\":678:719   */\n      tag_82\n        /* \"#utility.yul\":713:718   */\n      dup2\n        /* \"#utility.yul\":678:719   */\n      tag_83\n      jump\t// in\n    tag_82:\n        /* \"#utility.yul\":570:725   */\n      swap3\n      swap2\n      pop\n      pop\n      jump\t// out\n        /* \"#utility.yul\":731:890   */\n    tag_84:\n        /* \"#utility.yul\":796:801   */\n      0x00\n        /* \"#utility.yul\":827:833   */\n      dup2\n        /* \"#utility.yul\":821:834   */\n      mload\n        /* \"#utility.yul\":812:834   */\n      swap1\n      pop\n        /* \"#utility.yul\":843:884   */\n      tag_86\n        /* \"#utility.yul\":878:883   */\n      dup2\n        /* \"#utility.yul\":843:884   */\n      tag_83\n      jump\t// in\n    tag_86:\n        /* \"#utility.yul\":731:890   */\n      swap3\n      swap2\n      pop\n      pop\n      jump\t// out\n        /* \"#utility.yul\":910:1250   */\n    tag_87:\n        /* \"#utility.yul\":966:971   */\n      0x00\n        /* \"#utility.yul\":1015:1018   */\n      dup3\n        /* \"#utility.yul\":1008:1012   */\n      0x1f\n        /* \"#utility.yul\":1000:1006   */\n      dup4\n        /* \"#utility.yul\":996:1013   */\n      add\n        /* \"#utility.yul\":992:1019   */\n      slt\n        /* \"#utility.yul\":982:1104   */\n      tag_89\n      jumpi\n        /* \"#utility.yul\":1023:1102   */\n      tag_90\n      tag_91\n      jump\t// in\n    tag_90:\n        /* \"#utility.yul\":982:1104   */\n    tag_89:\n        /* \"#utility.yul\":1140:1146   */\n      dup2\n        /* \"#utility.yul\":1127:1147   */\n      calldataload\n        /* \"#utility.yul\":1165:1244   */\n      tag_92\n        /* \"#utility.yul\":1240:1243   */\n      dup5\n        /* \"#utility.yul\":1232:1238   */\n      dup3\n        /* \"#utility.yul\":1225:1229   */\n      0x20\n        /* \"#utility.yul\":1217:1223   */\n      dup7\n        /* \"#utility.yul\":1213:1230   */\n      add\n        /* \"#utility.yul\":1165:1244   */\n      tag_65\n      jump\t// in\n    tag_92:\n        /* \"#utility.yul\":1156:1244   */\n      swap2\n      pop\n        /* \"#utility.yul\":972:1250   */\n      pop\n        /* \"#utility.yul\":910:1250   */\n      swap3\n      swap2\n      pop\n      pop\n      jump\t// out\n        /* \"#utility.yul\":1256:1585   */\n    tag_30:\n        /* \"#utility.yul\":1315:1321   */\n      0x00\n        /* \"#utility.yul\":1364:1366   */\n      0x20\n        /* \"#utility.yul\":1352:1361   */\n      dup3\n        /* \"#utility.yul\":1343:1350   */\n      dup5\n        /* \"#utility.yul\":1339:1362   */\n      sub\n        /* \"#utility.yul\":1335:1367   */\n      slt\n        /* \"#utility.yul\":1332:1451   */\n      iszero\n      tag_94\n      jumpi\n        /* \"#utility.yul\":1370:1449   */\n      tag_95\n      tag_96\n      jump\t// in\n    tag_95:\n        /* \"#utility.yul\":1332:1451   */\n    tag_94:\n        /* \"#utility.yul\":1490:1491   */\n      0x00\n        /* \"#utility.yul\":1515:1568   */\n      tag_97\n        /* \"#utility.yul\":1560:1567   */\n      dup5\n        /* \"#utility.yul\":1551:1557   */\n      dup3\n        /* \"#utility.yul\":1540:1549   */\n      dup6\n        /* \"#utility.yul\":1536:1558   */\n      add\n        /* \"#utility.yul\":1515:1568   */\n      tag_76\n      jump\t// in\n    tag_97:\n        /* \"#utility.yul\":1505:1568   */\n      swap2\n      pop\n        /* \"#utility.yul\":1461:1578   */\n      pop\n        /* \"#utility.yul\":1256:1585   */\n      swap3\n      swap2\n      pop\n      pop\n      jump\t// out\n        /* \"#utility.yul\":1591:1936   */\n    tag_21:\n        /* \"#utility.yul\":1658:1664   */\n      0x00\n        /* \"#utility.yul\":1707:1709   */\n      0x20\n        /* \"#utility.yul\":1695:1704   */\n      dup3\n        /* \"#utility.yul\":1686:1693   */\n      dup5\n        /* \"#utility.yul\":1682:1705   */\n      sub\n        /* \"#utility.yul\":1678:1710   */\n      slt\n        /* \"#utility.yul\":1675:1794   */\n      iszero\n      tag_99\n      jumpi\n        /* \"#utility.yul\":1713:1792   */\n      tag_100\n      tag_96\n      jump\t// in\n    tag_100:\n        /* \"#utility.yul\":1675:1794   */\n    tag_99:\n        /* \"#utility.yul\":1833:1834   */\n      0x00\n        /* \"#utility.yul\":1858:1919   */\n      tag_101\n        /* \"#utility.yul\":1911:1918   */\n      dup5\n        /* \"#utility.yul\":1902:1908   */\n      dup3\n        /* \"#utility.yul\":1891:1900   */\n      dup6\n        /* \"#utility.yul\":1887:1909   */\n      add\n        /* \"#utility.yul\":1858:1919   */\n      tag_80\n      jump\t// in\n    tag_101:\n        /* \"#utility.yul\":1848:1919   */\n      swap2\n      pop\n        /* \"#utility.yul\":1804:1929   */\n      pop\n        /* \"#utility.yul\":1591:1936   */\n      swap3\n      swap2\n      pop\n      pop\n      jump\t// out\n        /* \"#utility.yul\":1942:2309   */\n    tag_47:\n        /* \"#utility.yul\":2020:2026   */\n      0x00\n        /* \"#utility.yul\":2069:2071   */\n      0x20\n        /* \"#utility.yul\":2057:2066   */\n      dup3\n        /* \"#utility.yul\":2048:2055   */\n      dup5\n        /* \"#utility.yul\":2044:2067   */\n      sub\n        /* \"#utility.yul\":2040:2072   */\n      slt\n        /* \"#utility.yul\":2037:2156   */\n      iszero\n      tag_103\n      jumpi\n        /* \"#utility.yul\":2075:2154   */\n      tag_104\n      tag_96\n      jump\t// in\n    tag_104:\n        /* \"#utility.yul\":2037:2156   */\n    tag_103:\n        /* \"#utility.yul\":2195:2196   */\n      0x00\n        /* \"#utility.yul\":2220:2292   */\n      tag_105\n        /* \"#utility.yul\":2284:2291   */\n      dup5\n        /* \"#utility.yul\":2275:2281   */\n      dup3\n        /* \"#utility.yul\":2264:2273   */\n      dup6\n        /* \"#utility.yul\":2260:2282   */\n      add\n        /* \"#utility.yul\":2220:2292   */\n      tag_84\n      jump\t// in\n    tag_105:\n        /* \"#utility.yul\":2210:2292   */\n      swap2\n      pop\n        /* \"#utility.yul\":2166:2302   */\n      pop\n        /* \"#utility.yul\":1942:2309   */\n      swap3\n      swap2\n      pop\n      pop\n      jump\t// out\n        /* \"#utility.yul\":2315:2969   */\n    tag_25:\n        /* \"#utility.yul\":2393:2399   */\n      0x00\n        /* \"#utility.yul\":2401:2407   */\n      dup1\n        /* \"#utility.yul\":2450:2452   */\n      0x40\n        /* \"#utility.yul\":2438:2447   */\n      dup4\n        /* \"#utility.yul\":2429:2436   */\n      dup6\n        /* \"#utility.yul\":2425:2448   */\n      sub\n        /* \"#utility.yul\":2421:2453   */\n      slt\n        /* \"#utility.yul\":2418:2537   */\n      iszero\n      tag_107\n      jumpi\n        /* \"#utility.yul\":2456:2535   */\n      tag_108\n      tag_96\n      jump\t// in\n    tag_108:\n        /* \"#utility.yul\":2418:2537   */\n    tag_107:\n        /* \"#utility.yul\":2576:2577   */\n      0x00\n        /* \"#utility.yul\":2601:2654   */\n      tag_109\n        /* \"#utility.yul\":2646:2653   */\n      dup6\n        /* \"#utility.yul\":2637:2643   */\n      dup3\n        /* \"#utility.yul\":2626:2635   */\n      dup7\n        /* \"#utility.yul\":2622:2644   */\n      add\n        /* \"#utility.yul\":2601:2654   */\n      tag_76\n      jump\t// in\n    tag_109:\n        /* \"#utility.yul\":2591:2654   */\n      swap3\n      pop\n        /* \"#utility.yul\":2547:2664   */\n      pop\n        /* \"#utility.yul\":2731:2733   */\n      0x20\n        /* \"#utility.yul\":2720:2729   */\n      dup4\n        /* \"#utility.yul\":2716:2734   */\n      add\n        /* \"#utility.yul\":2703:2735   */\n      calldataload\n        /* \"#utility.yul\":2762:2780   */\n      0xffffffffffffffff\n        /* \"#utility.yul\":2754:2760   */\n      dup2\n        /* \"#utility.yul\":2751:2781   */\n      gt\n        /* \"#utility.yul\":2748:2865   */\n      iszero\n      tag_110\n      jumpi\n        /* \"#utility.yul\":2784:2863   */\n      tag_111\n      tag_112\n      jump\t// in\n    tag_111:\n        /* \"#utility.yul\":2748:2865   */\n    tag_110:\n        /* \"#utility.yul\":2889:2952   */\n      tag_113\n        /* \"#utility.yul\":2944:2951   */\n      dup6\n        /* \"#utility.yul\":2935:2941   */\n      dup3\n        /* \"#utility.yul\":2924:2933   */\n      dup7\n        /* \"#utility.yul\":2920:2942   */\n      add\n        /* \"#utility.yul\":2889:2952   */\n      tag_87\n      jump\t// in\n    tag_113:\n        /* \"#utility.yul\":2879:2952   */\n      swap2\n      pop\n        /* \"#utility.yul\":2674:2962   */\n      pop\n        /* \"#utility.yul\":2315:2969   */\n      swap3\n      pop\n      swap3\n      swap1\n      pop\n      jump\t// out\n        /* \"#utility.yul\":2975:3484   */\n    tag_14:\n        /* \"#utility.yul\":3044:3050   */\n      0x00\n        /* \"#utility.yul\":3093:3095   */\n      0x20\n        /* \"#utility.yul\":3081:3090   */\n      dup3\n        /* \"#utility.yul\":3072:3079   */\n      dup5\n        /* \"#utility.yul\":3068:3091   */\n      sub\n        /* \"#utility.yul\":3064:3096   */\n      slt\n        /* \"#utility.yul\":3061:3180   */\n      iszero\n      tag_115\n      jumpi\n        /* \"#utility.yul\":3099:3178   */\n      tag_116\n      tag_96\n      jump\t// in\n    tag_116:\n        /* \"#utility.yul\":3061:3180   */\n    tag_115:\n        /* \"#utility.yul\":3247:3248   */\n      0x00\n        /* \"#utility.yul\":3236:3245   */\n      dup3\n        /* \"#utility.yul\":3232:3249   */\n      add\n        /* \"#utility.yul\":3219:3250   */\n      calldataload\n        /* \"#utility.yul\":3277:3295   */\n      0xffffffffffffffff\n        /* \"#utility.yul\":3269:3275   */\n      dup2\n        /* \"#utility.yul\":3266:3296   */\n      gt\n        /* \"#utility.yul\":3263:3380   */\n      iszero\n      tag_117\n      jumpi\n        /* \"#utility.yul\":3299:3378   */\n      tag_118\n      tag_112\n      jump\t// in\n    tag_118:\n        /* \"#utility.yul\":3263:3380   */\n    tag_117:\n        /* \"#utility.yul\":3404:3467   */\n      tag_119\n        /* \"#utility.yul\":3459:3466   */\n      dup5\n        /* \"#utility.yul\":3450:3456   */\n      dup3\n        /* \"#utility.yul\":3439:3448   */\n      dup6\n        /* \"#utility.yul\":3435:3457   */\n      add\n        /* \"#utility.yul\":3404:3467   */\n      tag_87\n      jump\t// in\n    tag_119:\n        /* \"#utility.yul\":3394:3467   */\n      swap2\n      pop\n        /* \"#utility.yul\":3190:3477   */\n      pop\n        /* \"#utility.yul\":2975:3484   */\n      swap3\n      swap2\n      pop\n      pop\n      jump\t// out\n        /* \"#utility.yul\":3490:3608   */\n    tag_120:\n        /* \"#utility.yul\":3577:3601   */\n      tag_122\n        /* \"#utility.yul\":3595:3600   */\n      dup2\n        /* \"#utility.yul\":3577:3601   */\n      tag_123\n      jump\t// in\n    tag_122:\n        /* \"#utility.yul\":3572:3575   */\n      dup3\n        /* \"#utility.yul\":3565:3602   */\n      mstore\n        /* \"#utility.yul\":3490:3608   */\n      pop\n      pop\n      jump\t// out\n        /* \"#utility.yul\":3614:3797   */\n    tag_124:\n        /* \"#utility.yul\":3727:3790   */\n      tag_126\n        /* \"#utility.yul\":3784:3789   */\n      dup2\n        /* \"#utility.yul\":3727:3790   */\n      tag_127\n      jump\t// in\n    tag_126:\n        /* \"#utility.yul\":3722:3725   */\n      dup3\n        /* \"#utility.yul\":3715:3791   */\n      mstore\n        /* \"#utility.yul\":3614:3797   */\n      pop\n      pop\n      jump\t// out\n        /* \"#utility.yul\":3803:4167   */\n    tag_128:\n        /* \"#utility.yul\":3891:3894   */\n      0x00\n        /* \"#utility.yul\":3919:3958   */\n      tag_130\n        /* \"#utility.yul\":3952:3957   */\n      dup3\n        /* \"#utility.yul\":3919:3958   */\n      tag_131\n      jump\t// in\n    tag_130:\n        /* \"#utility.yul\":3974:4045   */\n      tag_132\n        /* \"#utility.yul\":4038:4044   */\n      dup2\n        /* \"#utility.yul\":4033:4036   */\n      dup6\n        /* \"#utility.yul\":3974:4045   */\n      tag_133\n      jump\t// in\n    tag_132:\n        /* \"#utility.yul\":3967:4045   */\n      swap4\n      pop\n        /* \"#utility.yul\":4054:4106   */\n      tag_134\n        /* \"#utility.yul\":4099:4105   */\n      dup2\n        /* \"#utility.yul\":4094:4097   */\n      dup6\n        /* \"#utility.yul\":4087:4091   */\n      0x20\n        /* \"#utility.yul\":4080:4085   */\n      dup7\n        /* \"#utility.yul\":4076:4092   */\n      add\n        /* \"#utility.yul\":4054:4106   */\n      tag_135\n      jump\t// in\n    tag_134:\n        /* \"#utility.yul\":4131:4160   */\n      tag_136\n        /* \"#utility.yul\":4153:4159   */\n      dup2\n        /* \"#utility.yul\":4131:4160   */\n      tag_137\n      jump\t// in\n    tag_136:\n        /* \"#utility.yul\":4126:4129   */\n      dup5\n        /* \"#utility.yul\":4122:4161   */\n      add\n        /* \"#utility.yul\":4115:4161   */\n      swap2\n      pop\n        /* \"#utility.yul\":3895:4167   */\n      pop\n        /* \"#utility.yul\":3803:4167   */\n      swap3\n      swap2\n      pop\n      pop\n      jump\t// out\n        /* \"#utility.yul\":4173:4550   */\n    tag_138:\n        /* \"#utility.yul\":4279:4282   */\n      0x00\n        /* \"#utility.yul\":4307:4346   */\n      tag_140\n        /* \"#utility.yul\":4340:4345   */\n      dup3\n        /* \"#utility.yul\":4307:4346   */\n      tag_131\n      jump\t// in\n    tag_140:\n        /* \"#utility.yul\":4362:4451   */\n      tag_141\n        /* \"#utility.yul\":4444:4450   */\n      dup2\n        /* \"#utility.yul\":4439:4442   */\n      dup6\n        /* \"#utility.yul\":4362:4451   */\n      tag_142\n      jump\t// in\n    tag_141:\n        /* \"#utility.yul\":4355:4451   */\n      swap4\n      pop\n        /* \"#utility.yul\":4460:4512   */\n      tag_143\n        /* \"#utility.yul\":4505:4511   */\n      dup2\n        /* \"#utility.yul\":4500:4503   */\n      dup6\n        /* \"#utility.yul\":4493:4497   */\n      0x20\n        /* \"#utility.yul\":4486:4491   */\n      dup7\n        /* \"#utility.yul\":4482:4498   */\n      add\n        /* \"#utility.yul\":4460:4512   */\n      tag_135\n      jump\t// in\n    tag_143:\n        /* \"#utility.yul\":4537:4543   */\n      dup1\n        /* \"#utility.yul\":4532:4535   */\n      dup5\n        /* \"#utility.yul\":4528:4544   */\n      add\n        /* \"#utility.yul\":4521:4544   */\n      swap2\n      pop\n        /* \"#utility.yul\":4283:4550   */\n      pop\n        /* \"#utility.yul\":4173:4550   */\n      swap3\n      swap2\n      pop\n      pop\n      jump\t// out\n        /* \"#utility.yul\":4556:4922   */\n    tag_144:\n        /* \"#utility.yul\":4698:4701   */\n      0x00\n        /* \"#utility.yul\":4719:4786   */\n      tag_146\n        /* \"#utility.yul\":4783:4785   */\n      0x26\n        /* \"#utility.yul\":4778:4781   */\n      dup4\n        /* \"#utility.yul\":4719:4786   */\n      tag_133\n      jump\t// in\n    tag_146:\n        /* \"#utility.yul\":4712:4786   */\n      swap2\n      pop\n        /* \"#utility.yul\":4795:4888   */\n      tag_147\n        /* \"#utility.yul\":4884:4887   */\n      dup3\n        /* \"#utility.yul\":4795:4888   */\n      tag_148\n      jump\t// in\n    tag_147:\n        /* \"#utility.yul\":4913:4915   */\n      0x40\n        /* \"#utility.yul\":4908:4911   */\n      dup3\n        /* \"#utility.yul\":4904:4916   */\n      add\n        /* \"#utility.yul\":4897:4916   */\n      swap1\n      pop\n        /* \"#utility.yul\":4556:4922   */\n      swap2\n      swap1\n      pop\n      jump\t// out\n        /* \"#utility.yul\":4928:5203   */\n    tag_51:\n        /* \"#utility.yul\":5060:5063   */\n      0x00\n        /* \"#utility.yul\":5082:5177   */\n      tag_150\n        /* \"#utility.yul\":5173:5176   */\n      dup3\n        /* \"#utility.yul\":5164:5170   */\n      dup5\n        /* \"#utility.yul\":5082:5177   */\n      tag_138\n      jump\t// in\n    tag_150:\n        /* \"#utility.yul\":5075:5177   */\n      swap2\n      pop\n        /* \"#utility.yul\":5194:5197   */\n      dup2\n        /* \"#utility.yul\":5187:5197   */\n      swap1\n      pop\n        /* \"#utility.yul\":4928:5203   */\n      swap3\n      swap2\n      pop\n      pop\n      jump\t// out\n        /* \"#utility.yul\":5209:5483   */\n    tag_17:\n        /* \"#utility.yul\":5328:5332   */\n      0x00\n        /* \"#utility.yul\":5366:5368   */\n      0x20\n        /* \"#utility.yul\":5355:5364   */\n      dup3\n        /* \"#utility.yul\":5351:5369   */\n      add\n        /* \"#utility.yul\":5343:5369   */\n      swap1\n      pop\n        /* \"#utility.yul\":5379:5476   */\n      tag_152\n        /* \"#utility.yul\":5473:5474   */\n      0x00\n        /* \"#utility.yul\":5462:5471   */\n      dup4\n        /* \"#utility.yul\":5458:5475   */\n      add\n        /* \"#utility.yul\":5449:5455   */\n      dup5\n        /* \"#utility.yul\":5379:5476   */\n      tag_124\n      jump\t// in\n    tag_152:\n        /* \"#utility.yul\":5209:5483   */\n      swap3\n      swap2\n      pop\n      pop\n      jump\t// out\n        /* \"#utility.yul\":5489:5802   */\n    tag_53:\n        /* \"#utility.yul\":5602:5606   */\n      0x00\n        /* \"#utility.yul\":5640:5642   */\n      0x20\n        /* \"#utility.yul\":5629:5638   */\n      dup3\n        /* \"#utility.yul\":5625:5643   */\n      add\n        /* \"#utility.yul\":5617:5643   */\n      swap1\n      pop\n        /* \"#utility.yul\":5689:5698   */\n      dup2\n        /* \"#utility.yul\":5683:5687   */\n      dup2\n        /* \"#utility.yul\":5679:5699   */\n      sub\n        /* \"#utility.yul\":5675:5676   */\n      0x00\n        /* \"#utility.yul\":5664:5673   */\n      dup4\n        /* \"#utility.yul\":5660:5677   */\n      add\n        /* \"#utility.yul\":5653:5700   */\n      mstore\n        /* \"#utility.yul\":5717:5795   */\n      tag_154\n        /* \"#utility.yul\":5790:5794   */\n      dup2\n        /* \"#utility.yul\":5781:5787   */\n      dup5\n        /* \"#utility.yul\":5717:5795   */\n      tag_128\n      jump\t// in\n    tag_154:\n        /* \"#utility.yul\":5709:5795   */\n      swap1\n      pop\n        /* \"#utility.yul\":5489:5802   */\n      swap3\n      swap2\n      pop\n      pop\n      jump\t// out\n        /* \"#utility.yul\":5808:6231   */\n    tag_41:\n        /* \"#utility.yul\":5949:5953   */\n      0x00\n        /* \"#utility.yul\":5987:5989   */\n      0x40\n        /* \"#utility.yul\":5976:5985   */\n      dup3\n        /* \"#utility.yul\":5972:5990   */\n      add\n        /* \"#utility.yul\":5964:5990   */\n      swap1\n      pop\n        /* \"#utility.yul\":6036:6045   */\n      dup2\n        /* \"#utility.yul\":6030:6034   */\n      dup2\n        /* \"#utility.yul\":6026:6046   */\n      sub\n        /* \"#utility.yul\":6022:6023   */\n      0x00\n        /* \"#utility.yul\":6011:6020   */\n      dup4\n        /* \"#utility.yul\":6007:6024   */\n      add\n        /* \"#utility.yul\":6000:6047   */\n      mstore\n        /* \"#utility.yul\":6064:6142   */\n      tag_156\n        /* \"#utility.yul\":6137:6141   */\n      dup2\n        /* \"#utility.yul\":6128:6134   */\n      dup6\n        /* \"#utility.yul\":6064:6142   */\n      tag_128\n      jump\t// in\n    tag_156:\n        /* \"#utility.yul\":6056:6142   */\n      swap1\n      pop\n        /* \"#utility.yul\":6152:6224   */\n      tag_157\n        /* \"#utility.yul\":6220:6222   */\n      0x20\n        /* \"#utility.yul\":6209:6218   */\n      dup4\n        /* \"#utility.yul\":6205:6223   */\n      add\n        /* \"#utility.yul\":6196:6202   */\n      dup5\n        /* \"#utility.yul\":6152:6224   */\n      tag_120\n      jump\t// in\n    tag_157:\n        /* \"#utility.yul\":5808:6231   */\n      swap4\n      swap3\n      pop\n      pop\n      pop\n      jump\t// out\n        /* \"#utility.yul\":6237:6656   */\n    tag_60:\n        /* \"#utility.yul\":6403:6407   */\n      0x00\n        /* \"#utility.yul\":6441:6443   */\n      0x20\n        /* \"#utility.yul\":6430:6439   */\n      dup3\n        /* \"#utility.yul\":6426:6444   */\n      add\n        /* \"#utility.yul\":6418:6444   */\n      swap1\n      pop\n        /* \"#utility.yul\":6490:6499   */\n      dup2\n        /* \"#utility.yul\":6484:6488   */\n      dup2\n        /* \"#utility.yul\":6480:6500   */\n      sub\n        /* \"#utility.yul\":6476:6477   */\n      0x00\n        /* \"#utility.yul\":6465:6474   */\n      dup4\n        /* \"#utility.yul\":6461:6478   */\n      add\n        /* \"#utility.yul\":6454:6501   */\n      mstore\n        /* \"#utility.yul\":6518:6649   */\n      tag_159\n        /* \"#utility.yul\":6644:6648   */\n      dup2\n        /* \"#utility.yul\":6518:6649   */\n      tag_144\n      jump\t// in\n    tag_159:\n        /* \"#utility.yul\":6510:6649   */\n      swap1\n      pop\n        /* \"#utility.yul\":6237:6656   */\n      swap2\n      swap1\n      pop\n      jump\t// out\n        /* \"#utility.yul\":6662:6791   */\n    tag_70:\n        /* \"#utility.yul\":6696:6702   */\n      0x00\n        /* \"#utility.yul\":6723:6743   */\n      tag_161\n      tag_162\n      jump\t// in\n    tag_161:\n        /* \"#utility.yul\":6713:6743   */\n      swap1\n      pop\n        /* \"#utility.yul\":6752:6785   */\n      tag_163\n        /* \"#utility.yul\":6780:6784   */\n      dup3\n        /* \"#utility.yul\":6772:6778   */\n      dup3\n        /* \"#utility.yul\":6752:6785   */\n      tag_164\n      jump\t// in\n    tag_163:\n        /* \"#utility.yul\":6662:6791   */\n      swap2\n      swap1\n      pop\n      jump\t// out\n        /* \"#utility.yul\":6797:6872   */\n    tag_162:\n        /* \"#utility.yul\":6830:6836   */\n      0x00\n        /* \"#utility.yul\":6863:6865   */\n      0x40\n        /* \"#utility.yul\":6857:6866   */\n      mload\n        /* \"#utility.yul\":6847:6866   */\n      swap1\n      pop\n        /* \"#utility.yul\":6797:6872   */\n      swap1\n      jump\t// out\n        /* \"#utility.yul\":6878:7186   */\n    tag_69:\n        /* \"#utility.yul\":6940:6944   */\n      0x00\n        /* \"#utility.yul\":7030:7048   */\n      0xffffffffffffffff\n        /* \"#utility.yul\":7022:7028   */\n      dup3\n        /* \"#utility.yul\":7019:7049   */\n      gt\n        /* \"#utility.yul\":7016:7072   */\n      iszero\n      tag_167\n      jumpi\n        /* \"#utility.yul\":7052:7070   */\n      tag_168\n      tag_169\n      jump\t// in\n    tag_168:\n        /* \"#utility.yul\":7016:7072   */\n    tag_167:\n        /* \"#utility.yul\":7090:7119   */\n      tag_170\n        /* \"#utility.yul\":7112:7118   */\n      dup3\n        /* \"#utility.yul\":7090:7119   */\n      tag_137\n      jump\t// in\n    tag_170:\n        /* \"#utility.yul\":7082:7119   */\n      swap1\n      pop\n        /* \"#utility.yul\":7174:7178   */\n      0x20\n        /* \"#utility.yul\":7168:7172   */\n      dup2\n        /* \"#utility.yul\":7164:7179   */\n      add\n        /* \"#utility.yul\":7156:7179   */\n      swap1\n      pop\n        /* \"#utility.yul\":6878:7186   */\n      swap2\n      swap1\n      pop\n      jump\t// out\n        /* \"#utility.yul\":7192:7291   */\n    tag_131:\n        /* \"#utility.yul\":7244:7250   */\n      0x00\n        /* \"#utility.yul\":7278:7283   */\n      dup2\n        /* \"#utility.yul\":7272:7284   */\n      mload\n        /* \"#utility.yul\":7262:7284   */\n      swap1\n      pop\n        /* \"#utility.yul\":7192:7291   */\n      swap2\n      swap1\n      pop\n      jump\t// out\n        /* \"#utility.yul\":7297:7466   */\n    tag_133:\n        /* \"#utility.yul\":7381:7392   */\n      0x00\n        /* \"#utility.yul\":7415:7421   */\n      dup3\n        /* \"#utility.yul\":7410:7413   */\n      dup3\n        /* \"#utility.yul\":7403:7422   */\n      mstore\n        /* \"#utility.yul\":7455:7459   */\n      0x20\n        /* \"#utility.yul\":7450:7453   */\n      dup3\n        /* \"#utility.yul\":7446:7460   */\n      add\n        /* \"#utility.yul\":7431:7460   */\n      swap1\n      pop\n        /* \"#utility.yul\":7297:7466   */\n      swap3\n      swap2\n      pop\n      pop\n      jump\t// out\n        /* \"#utility.yul\":7472:7620   */\n    tag_142:\n        /* \"#utility.yul\":7574:7585   */\n      0x00\n        /* \"#utility.yul\":7611:7614   */\n      dup2\n        /* \"#utility.yul\":7596:7614   */\n      swap1\n      pop\n        /* \"#utility.yul\":7472:7620   */\n      swap3\n      swap2\n      pop\n      pop\n      jump\t// out\n        /* \"#utility.yul\":7626:7722   */\n    tag_123:\n        /* \"#utility.yul\":7663:7670   */\n      0x00\n        /* \"#utility.yul\":7692:7716   */\n      tag_175\n        /* \"#utility.yul\":7710:7715   */\n      dup3\n        /* \"#utility.yul\":7692:7716   */\n      tag_176\n      jump\t// in\n    tag_175:\n        /* \"#utility.yul\":7681:7716   */\n      swap1\n      pop\n        /* \"#utility.yul\":7626:7722   */\n      swap2\n      swap1\n      pop\n      jump\t// out\n        /* \"#utility.yul\":7728:7832   */\n    tag_177:\n        /* \"#utility.yul\":7773:7780   */\n      0x00\n        /* \"#utility.yul\":7802:7826   */\n      tag_179\n        /* \"#utility.yul\":7820:7825   */\n      dup3\n        /* \"#utility.yul\":7802:7826   */\n      tag_176\n      jump\t// in\n    tag_179:\n        /* \"#utility.yul\":7791:7826   */\n      swap1\n      pop\n        /* \"#utility.yul\":7728:7832   */\n      swap2\n      swap1\n      pop\n      jump\t// out\n        /* \"#utility.yul\":7838:7964   */\n    tag_176:\n        /* \"#utility.yul\":7875:7882   */\n      0x00\n        /* \"#utility.yul\":7915:7957   */\n      0xffffffffffffffffffffffffffffffffffffffff\n        /* \"#utility.yul\":7908:7913   */\n      dup3\n        /* \"#utility.yul\":7904:7958   */\n      and\n        /* \"#utility.yul\":7893:7958   */\n      swap1\n      pop\n        /* \"#utility.yul\":7838:7964   */\n      swap2\n      swap1\n      pop\n      jump\t// out\n        /* \"#utility.yul\":7970:8130   */\n    tag_127:\n        /* \"#utility.yul\":8046:8055   */\n      0x00\n        /* \"#utility.yul\":8079:8124   */\n      tag_182\n        /* \"#utility.yul\":8118:8123   */\n      dup3\n        /* \"#utility.yul\":8079:8124   */\n      tag_183\n      jump\t// in\n    tag_182:\n        /* \"#utility.yul\":8066:8124   */\n      swap1\n      pop\n        /* \"#utility.yul\":7970:8130   */\n      swap2\n      swap1\n      pop\n      jump\t// out\n        /* \"#utility.yul\":8136:8270   */\n    tag_183:\n        /* \"#utility.yul\":8194:8203   */\n      0x00\n        /* \"#utility.yul\":8227:8264   */\n      tag_185\n        /* \"#utility.yul\":8258:8263   */\n      dup3\n        /* \"#utility.yul\":8227:8264   */\n      tag_186\n      jump\t// in\n    tag_185:\n        /* \"#utility.yul\":8214:8264   */\n      swap1\n      pop\n        /* \"#utility.yul\":8136:8270   */\n      swap2\n      swap1\n      pop\n      jump\t// out\n        /* \"#utility.yul\":8276:8389   */\n    tag_186:\n        /* \"#utility.yul\":8326:8335   */\n      0x00\n        /* \"#utility.yul\":8359:8383   */\n      tag_188\n        /* \"#utility.yul\":8377:8382   */\n      dup3\n        /* \"#utility.yul\":8359:8383   */\n      tag_176\n      jump\t// in\n    tag_188:\n        /* \"#utility.yul\":8346:8383   */\n      swap1\n      pop\n        /* \"#utility.yul\":8276:8389   */\n      swap2\n      swap1\n      pop\n      jump\t// out\n        /* \"#utility.yul\":8395:8549   */\n    tag_75:\n        /* \"#utility.yul\":8479:8485   */\n      dup3\n        /* \"#utility.yul\":8474:8477   */\n      dup2\n        /* \"#utility.yul\":8469:8472   */\n      dup4\n        /* \"#utility.yul\":8456:8486   */\n      calldatacopy\n        /* \"#utility.yul\":8541:8542   */\n      0x00\n        /* \"#utility.yul\":8532:8538   */\n      dup4\n        /* \"#utility.yul\":8527:8530   */\n      dup4\n        /* \"#utility.yul\":8523:8539   */\n      add\n        /* \"#utility.yul\":8516:8543   */\n      mstore\n        /* \"#utility.yul\":8395:8549   */\n      pop\n      pop\n      pop\n      jump\t// out\n        /* \"#utility.yul\":8555:8862   */\n    tag_135:\n        /* \"#utility.yul\":8623:8624   */\n      0x00\n        /* \"#utility.yul\":8633:8746   */\n    tag_191:\n        /* \"#utility.yul\":8647:8653   */\n      dup4\n        /* \"#utility.yul\":8644:8645   */\n      dup2\n        /* \"#utility.yul\":8641:8654   */\n      lt\n        /* \"#utility.yul\":8633:8746   */\n      iszero\n      tag_193\n      jumpi\n        /* \"#utility.yul\":8732:8733   */\n      dup1\n        /* \"#utility.yul\":8727:8730   */\n      dup3\n        /* \"#utility.yul\":8723:8734   */\n      add\n        /* \"#utility.yul\":8717:8735   */\n      mload\n        /* \"#utility.yul\":8713:8714   */\n      dup2\n        /* \"#utility.yul\":8708:8711   */\n      dup5\n        /* \"#utility.yul\":8704:8715   */\n      add\n        /* \"#utility.yul\":8697:8736   */\n      mstore\n        /* \"#utility.yul\":8669:8671   */\n      0x20\n        /* \"#utility.yul\":8666:8667   */\n      dup2\n        /* \"#utility.yul\":8662:8672   */\n      add\n        /* \"#utility.yul\":8657:8672   */\n      swap1\n      pop\n        /* \"#utility.yul\":8633:8746   */\n      jump(tag_191)\n    tag_193:\n        /* \"#utility.yul\":8764:8770   */\n      dup4\n        /* \"#utility.yul\":8761:8762   */\n      dup2\n        /* \"#utility.yul\":8758:8771   */\n      gt\n        /* \"#utility.yul\":8755:8856   */\n      iszero\n      tag_194\n      jumpi\n        /* \"#utility.yul\":8844:8845   */\n      0x00\n        /* \"#utility.yul\":8835:8841   */\n      dup5\n        /* \"#utility.yul\":8830:8833   */\n      dup5\n        /* \"#utility.yul\":8826:8842   */\n      add\n        /* \"#utility.yul\":8819:8846   */\n      mstore\n        /* \"#utility.yul\":8755:8856   */\n    tag_194:\n        /* \"#utility.yul\":8604:8862   */\n      pop\n        /* \"#utility.yul\":8555:8862   */\n      pop\n      pop\n      pop\n      jump\t// out\n        /* \"#utility.yul\":8868:9149   */\n    tag_164:\n        /* \"#utility.yul\":8951:8978   */\n      tag_196\n        /* \"#utility.yul\":8973:8977   */\n      dup3\n        /* \"#utility.yul\":8951:8978   */\n      tag_137\n      jump\t// in\n    tag_196:\n        /* \"#utility.yul\":8943:8949   */\n      dup2\n        /* \"#utility.yul\":8939:8979   */\n      add\n        /* \"#utility.yul\":9081:9087   */\n      dup2\n        /* \"#utility.yul\":9069:9079   */\n      dup2\n        /* \"#utility.yul\":9066:9088   */\n      lt\n        /* \"#utility.yul\":9045:9063   */\n      0xffffffffffffffff\n        /* \"#utility.yul\":9033:9043   */\n      dup3\n        /* \"#utility.yul\":9030:9064   */\n      gt\n        /* \"#utility.yul\":9027:9089   */\n      or\n        /* \"#utility.yul\":9024:9112   */\n      iszero\n      tag_197\n      jumpi\n        /* \"#utility.yul\":9092:9110   */\n      tag_198\n      tag_169\n      jump\t// in\n    tag_198:\n        /* \"#utility.yul\":9024:9112   */\n    tag_197:\n        /* \"#utility.yul\":9132:9142   */\n      dup1\n        /* \"#utility.yul\":9128:9130   */\n      0x40\n        /* \"#utility.yul\":9121:9143   */\n      mstore\n        /* \"#utility.yul\":8911:9149   */\n      pop\n        /* \"#utility.yul\":8868:9149   */\n      pop\n      pop\n      jump\t// out\n        /* \"#utility.yul\":9155:9335   */\n    tag_35:\n        /* \"#utility.yul\":9203:9280   */\n      0x4e487b7100000000000000000000000000000000000000000000000000000000\n        /* \"#utility.yul\":9200:9201   */\n      0x00\n        /* \"#utility.yul\":9193:9281   */\n      mstore\n        /* \"#utility.yul\":9300:9304   */\n      0x01\n        /* \"#utility.yul\":9297:9298   */\n      0x04\n        /* \"#utility.yul\":9290:9305   */\n      mstore\n        /* \"#utility.yul\":9324:9328   */\n      0x24\n        /* \"#utility.yul\":9321:9322   */\n      0x00\n        /* \"#utility.yul\":9314:9329   */\n      revert\n        /* \"#utility.yul\":9341:9521   */\n    tag_169:\n        /* \"#utility.yul\":9389:9466   */\n      0x4e487b7100000000000000000000000000000000000000000000000000000000\n        /* \"#utility.yul\":9386:9387   */\n      0x00\n        /* \"#utility.yul\":9379:9467   */\n      mstore\n        /* \"#utility.yul\":9486:9490   */\n      0x41\n        /* \"#utility.yul\":9483:9484   */\n      0x04\n        /* \"#utility.yul\":9476:9491   */\n      mstore\n        /* \"#utility.yul\":9510:9514   */\n      0x24\n        /* \"#utility.yul\":9507:9508   */\n      0x00\n        /* \"#utility.yul\":9500:9515   */\n      revert\n        /* \"#utility.yul\":9527:9644   */\n    tag_91:\n        /* \"#utility.yul\":9636:9637   */\n      0x00\n        /* \"#utility.yul\":9633:9634   */\n      dup1\n        /* \"#utility.yul\":9626:9638   */\n      revert\n        /* \"#utility.yul\":9650:9767   */\n    tag_73:\n        /* \"#utility.yul\":9759:9760   */\n      0x00\n        /* \"#utility.yul\":9756:9757   */\n      dup1\n        /* \"#utility.yul\":9749:9761   */\n      revert\n        /* \"#utility.yul\":9773:9890   */\n    tag_112:\n        /* \"#utility.yul\":9882:9883   */\n      0x00\n        /* \"#utility.yul\":9879:9880   */\n      dup1\n        /* \"#utility.yul\":9872:9884   */\n      revert\n        /* \"#utility.yul\":9896:10013   */\n    tag_96:\n        /* \"#utility.yul\":10005:10006   */\n      0x00\n        /* \"#utility.yul\":10002:10003   */\n      dup1\n        /* \"#utility.yul\":9995:10007   */\n      revert\n        /* \"#utility.yul\":10019:10121   */\n    tag_137:\n        /* \"#utility.yul\":10060:10066   */\n      0x00\n        /* \"#utility.yul\":10111:10113   */\n      0x1f\n        /* \"#utility.yul\":10107:10114   */\n      not\n        /* \"#utility.yul\":10102:10104   */\n      0x1f\n        /* \"#utility.yul\":10095:10100   */\n      dup4\n        /* \"#utility.yul\":10091:10105   */\n      add\n        /* \"#utility.yul\":10087:10115   */\n      and\n        /* \"#utility.yul\":10077:10115   */\n      swap1\n      pop\n        /* \"#utility.yul\":10019:10121   */\n      swap2\n      swap1\n      pop\n      jump\t// out\n        /* \"#utility.yul\":10127:10352   */\n    tag_148:\n        /* \"#utility.yul\":10267:10301   */\n      0x4f776e61626c653a206e6577206f776e657220697320746865207a65726f2061\n        /* \"#utility.yul\":10263:10264   */\n      0x00\n        /* \"#utility.yul\":10255:10261   */\n      dup3\n        /* \"#utility.yul\":10251:10265   */\n      add\n        /* \"#utility.yul\":10244:10302   */\n      mstore\n        /* \"#utility.yul\":10336:10344   */\n      0x6464726573730000000000000000000000000000000000000000000000000000\n        /* \"#utility.yul\":10331:10333   */\n      0x20\n        /* \"#utility.yul\":10323:10329   */\n      dup3\n        /* \"#utility.yul\":10319:10334   */\n      add\n        /* \"#utility.yul\":10312:10345   */\n      mstore\n        /* \"#utility.yul\":10127:10352   */\n      pop\n      jump\t// out\n        /* \"#utility.yul\":10358:10480   */\n    tag_79:\n        /* \"#utility.yul\":10431:10455   */\n      tag_208\n        /* \"#utility.yul\":10449:10454   */\n      dup2\n        /* \"#utility.yul\":10431:10455   */\n      tag_123\n      jump\t// in\n    tag_208:\n        /* \"#utility.yul\":10424:10429   */\n      dup2\n        /* \"#utility.yul\":10421:10456   */\n      eq\n        /* \"#utility.yul\":10411:10474   */\n      tag_209\n      jumpi\n        /* \"#utility.yul\":10470:10471   */\n      0x00\n        /* \"#utility.yul\":10467:10468   */\n      dup1\n        /* \"#utility.yul\":10460:10472   */\n      revert\n        /* \"#utility.yul\":10411:10474   */\n    tag_209:\n        /* \"#utility.yul\":10358:10480   */\n      pop\n      jump\t// out\n        /* \"#utility.yul\":10486:10624   */\n    tag_83:\n        /* \"#utility.yul\":10567:10599   */\n      tag_211\n        /* \"#utility.yul\":10593:10598   */\n      dup2\n        /* \"#utility.yul\":10567:10599   */\n      tag_177\n      jump\t// in\n    tag_211:\n        /* \"#utility.yul\":10560:10565   */\n      dup2\n        /* \"#utility.yul\":10557:10600   */\n      eq\n        /* \"#utility.yul\":10547:10618   */\n      tag_212\n      jumpi\n        /* \"#utility.yul\":10614:10615   */\n      0x00\n        /* \"#utility.yul\":10611:10612   */\n      dup1\n        /* \"#utility.yul\":10604:10616   */\n      revert\n        /* \"#utility.yul\":10547:10618   */\n    tag_212:\n        /* \"#utility.yul\":10486:10624   */\n      pop\n      jump\t// out\n    stop\n\n    sub_0: assembly {\n            /* \"contracts/Bounty.sol\":618:1812  contract BountyAddr {... */\n          mstore(0x40, 0x80)\n            /* \"contracts/Bounty.sol\":969:1089  constructor(string memory bountyId, address bountyBase) {... */\n          callvalue\n          dup1\n          iszero\n          tag_1\n          jumpi\n          0x00\n          dup1\n          revert\n        tag_1:\n          pop\n          mload(0x40)\n          sub(codesize, bytecodeSize)\n          dup1\n          bytecodeSize\n          dup4\n          codecopy\n          dup2\n          dup2\n          add\n          0x40\n          mstore\n          dup2\n          add\n          swap1\n          tag_2\n          swap2\n          swap1\n          tag_3\n          jump\t// in\n        tag_2:\n            /* \"contracts/Bounty.sol\":1040:1048  bountyId */\n          dup2\n            /* \"contracts/Bounty.sol\":1035:1037  id */\n          0x01\n            /* \"contracts/Bounty.sol\":1035:1048  id = bountyId */\n          swap1\n          dup1\n          mload\n          swap1\n          0x20\n          add\n          swap1\n          tag_6\n          swap3\n          swap2\n          swap1\n          tag_7\n          jump\t// in\n        tag_6:\n          pop\n            /* \"contracts/Bounty.sol\":1072:1082  bountyBase */\n          dup1\n            /* \"contracts/Bounty.sol\":1058:1069  _bountyBase */\n          0x00\n          dup1\n            /* \"contracts/Bounty.sol\":1058:1082  _bountyBase = bountyBase */\n          0x0100\n          exp\n          dup2\n          sload\n          dup2\n          0xffffffffffffffffffffffffffffffffffffffff\n          mul\n          not\n          and\n          swap1\n          dup4\n          0xffffffffffffffffffffffffffffffffffffffff\n          and\n          mul\n          or\n          swap1\n          sstore\n          pop\n            /* \"contracts/Bounty.sol\":969:1089  constructor(string memory bountyId, address bountyBase) {... */\n          pop\n          pop\n            /* \"contracts/Bounty.sol\":618:1812  contract BountyAddr {... */\n          jump(tag_8)\n        tag_7:\n          dup3\n          dup1\n          sload\n          tag_9\n          swap1\n          tag_10\n          jump\t// in\n        tag_9:\n          swap1\n          0x00\n          mstore\n          keccak256(0x00, 0x20)\n          swap1\n          0x1f\n          add\n          0x20\n          swap1\n          div\n          dup2\n          add\n          swap3\n          dup3\n          tag_12\n          jumpi\n          0x00\n          dup6\n          sstore\n          jump(tag_11)\n        tag_12:\n          dup3\n          0x1f\n          lt\n          tag_13\n          jumpi\n          dup1\n          mload\n          not(0xff)\n          and\n          dup4\n          dup1\n          add\n          or\n          dup6\n          sstore\n          jump(tag_11)\n        tag_13:\n          dup3\n          dup1\n          add\n          0x01\n          add\n          dup6\n          sstore\n          dup3\n          iszero\n          tag_11\n          jumpi\n          swap2\n          dup3\n          add\n        tag_14:\n          dup3\n          dup2\n          gt\n          iszero\n          tag_15\n          jumpi\n          dup3\n          mload\n          dup3\n          sstore\n          swap2\n          0x20\n          add\n          swap2\n          swap1\n          0x01\n          add\n          swap1\n          jump(tag_14)\n        tag_15:\n        tag_11:\n          pop\n          swap1\n          pop\n          tag_16\n          swap2\n          swap1\n          tag_17\n          jump\t// in\n        tag_16:\n          pop\n          swap1\n          jump\t// out\n        tag_17:\n        tag_18:\n          dup1\n          dup3\n          gt\n          iszero\n          tag_19\n          jumpi\n          0x00\n          dup2\n          0x00\n          swap1\n          sstore\n          pop\n          0x01\n          add\n          jump(tag_18)\n        tag_19:\n          pop\n          swap1\n          jump\t// out\n            /* \"#utility.yul\":7:428   */\n        tag_21:\n            /* \"#utility.yul\":96:101   */\n          0x00\n            /* \"#utility.yul\":121:187   */\n          tag_23\n            /* \"#utility.yul\":137:186   */\n          tag_24\n            /* \"#utility.yul\":179:185   */\n          dup5\n            /* \"#utility.yul\":137:186   */\n          tag_25\n          jump\t// in\n        tag_24:\n            /* \"#utility.yul\":121:187   */\n          tag_26\n          jump\t// in\n        tag_23:\n            /* \"#utility.yul\":112:187   */\n          swap1\n          pop\n            /* \"#utility.yul\":210:216   */\n          dup3\n            /* \"#utility.yul\":203:208   */\n          dup2\n            /* \"#utility.yul\":196:217   */\n          mstore\n            /* \"#utility.yul\":248:252   */\n          0x20\n            /* \"#utility.yul\":241:246   */\n          dup2\n            /* \"#utility.yul\":237:253   */\n          add\n            /* \"#utility.yul\":286:289   */\n          dup5\n            /* \"#utility.yul\":277:283   */\n          dup5\n            /* \"#utility.yul\":272:275   */\n          dup5\n            /* \"#utility.yul\":268:284   */\n          add\n            /* \"#utility.yul\":265:290   */\n          gt\n            /* \"#utility.yul\":262:374   */\n          iszero\n          tag_27\n          jumpi\n            /* \"#utility.yul\":293:372   */\n          tag_28\n          tag_29\n          jump\t// in\n        tag_28:\n            /* \"#utility.yul\":262:374   */\n        tag_27:\n            /* \"#utility.yul\":383:422   */\n          tag_30\n            /* \"#utility.yul\":415:421   */\n          dup5\n            /* \"#utility.yul\":410:413   */\n          dup3\n            /* \"#utility.yul\":405:408   */\n          dup6\n            /* \"#utility.yul\":383:422   */\n          tag_31\n          jump\t// in\n        tag_30:\n            /* \"#utility.yul\":102:428   */\n          pop\n            /* \"#utility.yul\":7:428   */\n          swap4\n          swap3\n          pop\n          pop\n          pop\n          jump\t// out\n            /* \"#utility.yul\":434:577   */\n        tag_32:\n            /* \"#utility.yul\":491:496   */\n          0x00\n            /* \"#utility.yul\":522:528   */\n          dup2\n            /* \"#utility.yul\":516:529   */\n          mload\n            /* \"#utility.yul\":507:529   */\n          swap1\n          pop\n            /* \"#utility.yul\":538:571   */\n          tag_34\n            /* \"#utility.yul\":565:570   */\n          dup2\n            /* \"#utility.yul\":538:571   */\n          tag_35\n          jump\t// in\n        tag_34:\n            /* \"#utility.yul\":434:577   */\n          swap3\n          swap2\n          pop\n          pop\n          jump\t// out\n            /* \"#utility.yul\":597:952   */\n        tag_36:\n            /* \"#utility.yul\":664:669   */\n          0x00\n            /* \"#utility.yul\":713:716   */\n          dup3\n            /* \"#utility.yul\":706:710   */\n          0x1f\n            /* \"#utility.yul\":698:704   */\n          dup4\n            /* \"#utility.yul\":694:711   */\n          add\n            /* \"#utility.yul\":690:717   */\n          slt\n            /* \"#utility.yul\":680:802   */\n          tag_38\n          jumpi\n            /* \"#utility.yul\":721:800   */\n          tag_39\n          tag_40\n          jump\t// in\n        tag_39:\n            /* \"#utility.yul\":680:802   */\n        tag_38:\n            /* \"#utility.yul\":831:837   */\n          dup2\n            /* \"#utility.yul\":825:838   */\n          mload\n            /* \"#utility.yul\":856:946   */\n          tag_41\n            /* \"#utility.yul\":942:945   */\n          dup5\n            /* \"#utility.yul\":934:940   */\n          dup3\n            /* \"#utility.yul\":927:931   */\n          0x20\n            /* \"#utility.yul\":919:925   */\n          dup7\n            /* \"#utility.yul\":915:932   */\n          add\n            /* \"#utility.yul\":856:946   */\n          tag_21\n          jump\t// in\n        tag_41:\n            /* \"#utility.yul\":847:946   */\n          swap2\n          pop\n            /* \"#utility.yul\":670:952   */\n          pop\n            /* \"#utility.yul\":597:952   */\n          swap3\n          swap2\n          pop\n          pop\n          jump\t// out\n            /* \"#utility.yul\":958:1638   */\n        tag_3:\n            /* \"#utility.yul\":1047:1053   */\n          0x00\n            /* \"#utility.yul\":1055:1061   */\n          dup1\n            /* \"#utility.yul\":1104:1106   */\n          0x40\n            /* \"#utility.yul\":1092:1101   */\n          dup4\n            /* \"#utility.yul\":1083:1090   */\n          dup6\n            /* \"#utility.yul\":1079:1102   */\n          sub\n            /* \"#utility.yul\":1075:1107   */\n          slt\n            /* \"#utility.yul\":1072:1191   */\n          iszero\n          tag_43\n          jumpi\n            /* \"#utility.yul\":1110:1189   */\n          tag_44\n          tag_45\n          jump\t// in\n        tag_44:\n            /* \"#utility.yul\":1072:1191   */\n        tag_43:\n            /* \"#utility.yul\":1251:1252   */\n          0x00\n            /* \"#utility.yul\":1240:1249   */\n          dup4\n            /* \"#utility.yul\":1236:1253   */\n          add\n            /* \"#utility.yul\":1230:1254   */\n          mload\n            /* \"#utility.yul\":1281:1299   */\n          0xffffffffffffffff\n            /* \"#utility.yul\":1273:1279   */\n          dup2\n            /* \"#utility.yul\":1270:1300   */\n          gt\n            /* \"#utility.yul\":1267:1384   */\n          iszero\n          tag_46\n          jumpi\n            /* \"#utility.yul\":1303:1382   */\n          tag_47\n          tag_48\n          jump\t// in\n        tag_47:\n            /* \"#utility.yul\":1267:1384   */\n        tag_46:\n            /* \"#utility.yul\":1408:1482   */\n          tag_49\n            /* \"#utility.yul\":1474:1481   */\n          dup6\n            /* \"#utility.yul\":1465:1471   */\n          dup3\n            /* \"#utility.yul\":1454:1463   */\n          dup7\n            /* \"#utility.yul\":1450:1472   */\n          add\n            /* \"#utility.yul\":1408:1482   */\n          tag_36\n          jump\t// in\n        tag_49:\n            /* \"#utility.yul\":1398:1482   */\n          swap3\n          pop\n            /* \"#utility.yul\":1201:1492   */\n          pop\n            /* \"#utility.yul\":1531:1533   */\n          0x20\n            /* \"#utility.yul\":1557:1621   */\n          tag_50\n            /* \"#utility.yul\":1613:1620   */\n          dup6\n            /* \"#utility.yul\":1604:1610   */\n          dup3\n            /* \"#utility.yul\":1593:1602   */\n          dup7\n            /* \"#utility.yul\":1589:1611   */\n          add\n            /* \"#utility.yul\":1557:1621   */\n          tag_32\n          jump\t// in\n        tag_50:\n            /* \"#utility.yul\":1547:1621   */\n          swap2\n          pop\n            /* \"#utility.yul\":1502:1631   */\n          pop\n            /* \"#utility.yul\":958:1638   */\n          swap3\n          pop\n          swap3\n          swap1\n          pop\n          jump\t// out\n            /* \"#utility.yul\":1644:1773   */\n        tag_26:\n            /* \"#utility.yul\":1678:1684   */\n          0x00\n            /* \"#utility.yul\":1705:1725   */\n          tag_52\n          tag_53\n          jump\t// in\n        tag_52:\n            /* \"#utility.yul\":1695:1725   */\n          swap1\n          pop\n            /* \"#utility.yul\":1734:1767   */\n          tag_54\n            /* \"#utility.yul\":1762:1766   */\n          dup3\n            /* \"#utility.yul\":1754:1760   */\n          dup3\n            /* \"#utility.yul\":1734:1767   */\n          tag_55\n          jump\t// in\n        tag_54:\n            /* \"#utility.yul\":1644:1773   */\n          swap2\n          swap1\n          pop\n          jump\t// out\n            /* \"#utility.yul\":1779:1854   */\n        tag_53:\n            /* \"#utility.yul\":1812:1818   */\n          0x00\n            /* \"#utility.yul\":1845:1847   */\n          0x40\n            /* \"#utility.yul\":1839:1848   */\n          mload\n            /* \"#utility.yul\":1829:1848   */\n          swap1\n          pop\n            /* \"#utility.yul\":1779:1854   */\n          swap1\n          jump\t// out\n            /* \"#utility.yul\":1860:2168   */\n        tag_25:\n            /* \"#utility.yul\":1922:1926   */\n          0x00\n            /* \"#utility.yul\":2012:2030   */\n          0xffffffffffffffff\n            /* \"#utility.yul\":2004:2010   */\n          dup3\n            /* \"#utility.yul\":2001:2031   */\n          gt\n            /* \"#utility.yul\":1998:2054   */\n          iszero\n          tag_58\n          jumpi\n            /* \"#utility.yul\":2034:2052   */\n          tag_59\n          tag_60\n          jump\t// in\n        tag_59:\n            /* \"#utility.yul\":1998:2054   */\n        tag_58:\n            /* \"#utility.yul\":2072:2101   */\n          tag_61\n            /* \"#utility.yul\":2094:2100   */\n          dup3\n            /* \"#utility.yul\":2072:2101   */\n          tag_62\n          jump\t// in\n        tag_61:\n            /* \"#utility.yul\":2064:2101   */\n          swap1\n          pop\n            /* \"#utility.yul\":2156:2160   */\n          0x20\n            /* \"#utility.yul\":2150:2154   */\n          dup2\n            /* \"#utility.yul\":2146:2161   */\n          add\n            /* \"#utility.yul\":2138:2161   */\n          swap1\n          pop\n            /* \"#utility.yul\":1860:2168   */\n          swap2\n          swap1\n          pop\n          jump\t// out\n            /* \"#utility.yul\":2174:2270   */\n        tag_63:\n            /* \"#utility.yul\":2211:2218   */\n          0x00\n            /* \"#utility.yul\":2240:2264   */\n          tag_65\n            /* \"#utility.yul\":2258:2263   */\n          dup3\n            /* \"#utility.yul\":2240:2264   */\n          tag_66\n          jump\t// in\n        tag_65:\n            /* \"#utility.yul\":2229:2264   */\n          swap1\n          pop\n            /* \"#utility.yul\":2174:2270   */\n          swap2\n          swap1\n          pop\n          jump\t// out\n            /* \"#utility.yul\":2276:2402   */\n        tag_66:\n            /* \"#utility.yul\":2313:2320   */\n          0x00\n            /* \"#utility.yul\":2353:2395   */\n          0xffffffffffffffffffffffffffffffffffffffff\n            /* \"#utility.yul\":2346:2351   */\n          dup3\n            /* \"#utility.yul\":2342:2396   */\n          and\n            /* \"#utility.yul\":2331:2396   */\n          swap1\n          pop\n            /* \"#utility.yul\":2276:2402   */\n          swap2\n          swap1\n          pop\n          jump\t// out\n            /* \"#utility.yul\":2408:2715   */\n        tag_31:\n            /* \"#utility.yul\":2476:2477   */\n          0x00\n            /* \"#utility.yul\":2486:2599   */\n        tag_69:\n            /* \"#utility.yul\":2500:2506   */\n          dup4\n            /* \"#utility.yul\":2497:2498   */\n          dup2\n            /* \"#utility.yul\":2494:2507   */\n          lt\n            /* \"#utility.yul\":2486:2599   */\n          iszero\n          tag_71\n          jumpi\n            /* \"#utility.yul\":2585:2586   */\n          dup1\n            /* \"#utility.yul\":2580:2583   */\n          dup3\n            /* \"#utility.yul\":2576:2587   */\n          add\n            /* \"#utility.yul\":2570:2588   */\n          mload\n            /* \"#utility.yul\":2566:2567   */\n          dup2\n            /* \"#utility.yul\":2561:2564   */\n          dup5\n            /* \"#utility.yul\":2557:2568   */\n          add\n            /* \"#utility.yul\":2550:2589   */\n          mstore\n            /* \"#utility.yul\":2522:2524   */\n          0x20\n            /* \"#utility.yul\":2519:2520   */\n          dup2\n            /* \"#utility.yul\":2515:2525   */\n          add\n            /* \"#utility.yul\":2510:2525   */\n          swap1\n          pop\n            /* \"#utility.yul\":2486:2599   */\n          jump(tag_69)\n        tag_71:\n            /* \"#utility.yul\":2617:2623   */\n          dup4\n            /* \"#utility.yul\":2614:2615   */\n          dup2\n            /* \"#utility.yul\":2611:2624   */\n          gt\n            /* \"#utility.yul\":2608:2709   */\n          iszero\n          tag_72\n          jumpi\n            /* \"#utility.yul\":2697:2698   */\n          0x00\n            /* \"#utility.yul\":2688:2694   */\n          dup5\n            /* \"#utility.yul\":2683:2686   */\n          dup5\n            /* \"#utility.yul\":2679:2695   */\n          add\n            /* \"#utility.yul\":2672:2699   */\n          mstore\n            /* \"#utility.yul\":2608:2709   */\n        tag_72:\n            /* \"#utility.yul\":2457:2715   */\n          pop\n            /* \"#utility.yul\":2408:2715   */\n          pop\n          pop\n          pop\n          jump\t// out\n            /* \"#utility.yul\":2721:3041   */\n        tag_10:\n            /* \"#utility.yul\":2765:2771   */\n          0x00\n            /* \"#utility.yul\":2802:2803   */\n          0x02\n            /* \"#utility.yul\":2796:2800   */\n          dup3\n            /* \"#utility.yul\":2792:2804   */\n          div\n            /* \"#utility.yul\":2782:2804   */\n          swap1\n          pop\n            /* \"#utility.yul\":2849:2850   */\n          0x01\n            /* \"#utility.yul\":2843:2847   */\n          dup3\n            /* \"#utility.yul\":2839:2851   */\n          and\n            /* \"#utility.yul\":2870:2888   */\n          dup1\n            /* \"#utility.yul\":2860:2941   */\n          tag_74\n          jumpi\n            /* \"#utility.yul\":2926:2930   */\n          0x7f\n            /* \"#utility.yul\":2918:2924   */\n          dup3\n            /* \"#utility.yul\":2914:2931   */\n          and\n            /* \"#utility.yul\":2904:2931   */\n          swap2\n          pop\n            /* \"#utility.yul\":2860:2941   */\n        tag_74:\n            /* \"#utility.yul\":2988:2990   */\n          0x20\n            /* \"#utility.yul\":2980:2986   */\n          dup3\n            /* \"#utility.yul\":2977:2991   */\n          lt\n            /* \"#utility.yul\":2957:2975   */\n          dup2\n            /* \"#utility.yul\":2954:2992   */\n          eq\n            /* \"#utility.yul\":2951:3035   */\n          iszero\n          tag_75\n          jumpi\n            /* \"#utility.yul\":3007:3025   */\n          tag_76\n          tag_77\n          jump\t// in\n        tag_76:\n            /* \"#utility.yul\":2951:3035   */\n        tag_75:\n            /* \"#utility.yul\":2772:3041   */\n          pop\n            /* \"#utility.yul\":2721:3041   */\n          swap2\n          swap1\n          pop\n          jump\t// out\n            /* \"#utility.yul\":3047:3328   */\n        tag_55:\n            /* \"#utility.yul\":3130:3157   */\n          tag_79\n            /* \"#utility.yul\":3152:3156   */\n          dup3\n            /* \"#utility.yul\":3130:3157   */\n          tag_62\n          jump\t// in\n        tag_79:\n            /* \"#utility.yul\":3122:3128   */\n          dup2\n            /* \"#utility.yul\":3118:3158   */\n          add\n            /* \"#utility.yul\":3260:3266   */\n          dup2\n            /* \"#utility.yul\":3248:3258   */\n          dup2\n            /* \"#utility.yul\":3245:3267   */\n          lt\n            /* \"#utility.yul\":3224:3242   */\n          0xffffffffffffffff\n            /* \"#utility.yul\":3212:3222   */\n          dup3\n            /* \"#utility.yul\":3209:3243   */\n          gt\n            /* \"#utility.yul\":3206:3268   */\n          or\n            /* \"#utility.yul\":3203:3291   */\n          iszero\n          tag_80\n          jumpi\n            /* \"#utility.yul\":3271:3289   */\n          tag_81\n          tag_60\n          jump\t// in\n        tag_81:\n            /* \"#utility.yul\":3203:3291   */\n        tag_80:\n            /* \"#utility.yul\":3311:3321   */\n          dup1\n            /* \"#utility.yul\":3307:3309   */\n          0x40\n            /* \"#utility.yul\":3300:3322   */\n          mstore\n            /* \"#utility.yul\":3090:3328   */\n          pop\n            /* \"#utility.yul\":3047:3328   */\n          pop\n          pop\n          jump\t// out\n            /* \"#utility.yul\":3334:3514   */\n        tag_77:\n            /* \"#utility.yul\":3382:3459   */\n          0x4e487b7100000000000000000000000000000000000000000000000000000000\n            /* \"#utility.yul\":3379:3380   */\n          0x00\n            /* \"#utility.yul\":3372:3460   */\n          mstore\n            /* \"#utility.yul\":3479:3483   */\n          0x22\n            /* \"#utility.yul\":3476:3477   */\n          0x04\n            /* \"#utility.yul\":3469:3484   */\n          mstore\n            /* \"#utility.yul\":3503:3507   */\n          0x24\n            /* \"#utility.yul\":3500:3501   */\n          0x00\n            /* \"#utility.yul\":3493:3508   */\n          revert\n            /* \"#utility.yul\":3520:3700   */\n        tag_60:\n            /* \"#utility.yul\":3568:3645   */\n          0x4e487b7100000000000000000000000000000000000000000000000000000000\n            /* \"#utility.yul\":3565:3566   */\n          0x00\n            /* \"#utility.yul\":3558:3646   */\n          mstore\n            /* \"#utility.yul\":3665:3669   */\n          0x41\n            /* \"#utility.yul\":3662:3663   */\n          0x04\n            /* \"#utility.yul\":3655:3670   */\n          mstore\n            /* \"#utility.yul\":3689:3693   */\n          0x24\n            /* \"#utility.yul\":3686:3687   */\n          0x00\n            /* \"#utility.yul\":3679:3694   */\n          revert\n            /* \"#utility.yul\":3706:3823   */\n        tag_40:\n            /* \"#utility.yul\":3815:3816   */\n          0x00\n            /* \"#utility.yul\":3812:3813   */\n          dup1\n            /* \"#utility.yul\":3805:3817   */\n          revert\n            /* \"#utility.yul\":3829:3946   */\n        tag_29:\n            /* \"#utility.yul\":3938:3939   */\n          0x00\n            /* \"#utility.yul\":3935:3936   */\n          dup1\n            /* \"#utility.yul\":3928:3940   */\n          revert\n            /* \"#utility.yul\":3952:4069   */\n        tag_48:\n            /* \"#utility.yul\":4061:4062   */\n          0x00\n            /* \"#utility.yul\":4058:4059   */\n          dup1\n            /* \"#utility.yul\":4051:4063   */\n          revert\n            /* \"#utility.yul\":4075:4192   */\n        tag_45:\n            /* \"#utility.yul\":4184:4185   */\n          0x00\n            /* \"#utility.yul\":4181:4182   */\n          dup1\n            /* \"#utility.yul\":4174:4186   */\n          revert\n            /* \"#utility.yul\":4198:4300   */\n        tag_62:\n            /* \"#utility.yul\":4239:4245   */\n          0x00\n            /* \"#utility.yul\":4290:4292   */\n          0x1f\n            /* \"#utility.yul\":4286:4293   */\n          not\n            /* \"#utility.yul\":4281:4283   */\n          0x1f\n            /* \"#utility.yul\":4274:4279   */\n          dup4\n            /* \"#utility.yul\":4270:4284   */\n          add\n            /* \"#utility.yul\":4266:4294   */\n          and\n            /* \"#utility.yul\":4256:4294   */\n          swap1\n          pop\n            /* \"#utility.yul\":4198:4300   */\n          swap2\n          swap1\n          pop\n          jump\t// out\n            /* \"#utility.yul\":4306:4428   */\n        tag_35:\n            /* \"#utility.yul\":4379:4403   */\n          tag_90\n            /* \"#utility.yul\":4397:4402   */\n          dup2\n            /* \"#utility.yul\":4379:4403   */\n          tag_63\n          jump\t// in\n        tag_90:\n            /* \"#utility.yul\":4372:4377   */\n          dup2\n            /* \"#utility.yul\":4369:4404   */\n          eq\n            /* \"#utility.yul\":4359:4422   */\n          tag_91\n          jumpi\n            /* \"#utility.yul\":4418:4419   */\n          0x00\n            /* \"#utility.yul\":4415:4416   */\n          dup1\n            /* \"#utility.yul\":4408:4420   */\n          revert\n            /* \"#utility.yul\":4359:4422   */\n        tag_91:\n            /* \"#utility.yul\":4306:4428   */\n          pop\n          jump\t// out\n            /* \"contracts/Bounty.sol\":618:1812  contract BountyAddr {... */\n        tag_8:\n          dataSize(sub_0)\n          dup1\n          dataOffset(sub_0)\n          0x00\n          codecopy\n          0x00\n          return\n        stop\n\n        sub_0: assembly {\n                /* \"contracts/Bounty.sol\":618:1812  contract BountyAddr {... */\n              mstore(0x40, 0x80)\n              jumpi(tag_1, lt(calldatasize, 0x04))\n              shr(0xe0, calldataload(0x00))\n              dup1\n              0xaf640d0f\n              gt\n              tag_10\n              jumpi\n              dup1\n              0xaf640d0f\n              eq\n              tag_6\n              jumpi\n              dup1\n              0xbeabacc8\n              eq\n              tag_7\n              jumpi\n              dup1\n              0xd0e30db0\n              eq\n              tag_8\n              jumpi\n              dup1\n              0xe1f21c67\n              eq\n              tag_9\n              jumpi\n              jump(tag_2)\n            tag_10:\n              dup1\n              0x026b1d5f\n              eq\n              tag_3\n              jumpi\n              dup1\n              0x13658f8a\n              eq\n              tag_4\n              jumpi\n              dup1\n              0x23b872dd\n              eq\n              tag_5\n              jumpi\n              jump(tag_2)\n            tag_1:\n              jumpi(tag_2, calldatasize)\n                /* \"contracts/Bounty.sol\":768:769  0 */\n              0x00\n                /* \"contracts/Bounty.sol\":736:770  address(_bountyBase) != address(0) */\n              0xffffffffffffffffffffffffffffffffffffffff\n              and\n                /* \"contracts/Bounty.sol\":744:755  _bountyBase */\n              0x00\n              dup1\n              sload\n              swap1\n              0x0100\n              exp\n              swap1\n              div\n              0xffffffffffffffffffffffffffffffffffffffff\n              and\n                /* \"contracts/Bounty.sol\":736:770  address(_bountyBase) != address(0) */\n              0xffffffffffffffffffffffffffffffffffffffff\n              and\n              eq\n              iszero\n                /* \"contracts/Bounty.sol\":728:791  require(address(_bountyBase) != address(0), 'need init bounty') */\n              tag_13\n              jumpi\n              mload(0x40)\n              0x08c379a000000000000000000000000000000000000000000000000000000000\n              dup2\n              mstore\n              0x04\n              add\n              tag_14\n              swap1\n              tag_15\n              jump\t// in\n            tag_14:\n              mload(0x40)\n              dup1\n              swap2\n              sub\n              swap1\n              revert\n            tag_13:\n                /* \"contracts/Bounty.sol\":618:1812  contract BountyAddr {... */\n              stop\n            tag_2:\n              0x00\n              dup1\n              revert\n                /* \"contracts/Bounty.sol\":1698:1810  function getPool() public view virtual returns (address payable) {... */\n            tag_3:\n              callvalue\n              dup1\n              iszero\n              tag_17\n              jumpi\n              0x00\n              dup1\n              revert\n            tag_17:\n              pop\n              tag_18\n              tag_19\n              jump\t// in\n            tag_18:\n              mload(0x40)\n              tag_20\n              swap2\n              swap1\n              tag_21\n              jump\t// in\n            tag_20:\n              mload(0x40)\n              dup1\n              swap2\n              sub\n              swap1\n              return\n                /* \"contracts/Bounty.sol\":1095:1208  function stableTransfer(address payable to, uint256 amount) external payable {... */\n            tag_4:\n              tag_22\n              0x04\n              dup1\n              calldatasize\n              sub\n              dup2\n              add\n              swap1\n              tag_23\n              swap2\n              swap1\n              tag_24\n              jump\t// in\n            tag_23:\n              tag_25\n              jump\t// in\n            tag_22:\n              stop\n                /* \"contracts/Bounty.sol\":1339:1483  function transferFrom(IERC20 token, address to, uint256 amount) external {... */\n            tag_5:\n              callvalue\n              dup1\n              iszero\n              tag_26\n              jumpi\n              0x00\n              dup1\n              revert\n            tag_26:\n              pop\n              tag_27\n              0x04\n              dup1\n              calldatasize\n              sub\n              dup2\n              add\n              swap1\n              tag_28\n              swap2\n              swap1\n              tag_29\n              jump\t// in\n            tag_28:\n              tag_30\n              jump\t// in\n            tag_27:\n              stop\n                /* \"contracts/Bounty.sol\":669:685  string public id */\n            tag_6:\n              callvalue\n              dup1\n              iszero\n              tag_31\n              jumpi\n              0x00\n              dup1\n              revert\n            tag_31:\n              pop\n              tag_32\n              tag_33\n              jump\t// in\n            tag_32:\n              mload(0x40)\n              tag_34\n              swap2\n              swap1\n              tag_35\n              jump\t// in\n            tag_34:\n              mload(0x40)\n              dup1\n              swap2\n              sub\n              swap1\n              return\n                /* \"contracts/Bounty.sol\":1489:1610  function transfer(IERC20 token, address to, uint256 amount) external {... */\n            tag_7:\n              callvalue\n              dup1\n              iszero\n              tag_36\n              jumpi\n              0x00\n              dup1\n              revert\n            tag_36:\n              pop\n              tag_37\n              0x04\n              dup1\n              calldatasize\n              sub\n              dup2\n              add\n              swap1\n              tag_38\n              swap2\n              swap1\n              tag_29\n              jump\t// in\n            tag_38:\n              tag_39\n              jump\t// in\n            tag_37:\n              stop\n                /* \"contracts/Bounty.sol\":1616:1691  function deposit() external payable {... */\n            tag_8:\n              tag_40\n              tag_41\n              jump\t// in\n            tag_40:\n              stop\n                /* \"contracts/Bounty.sol\":1214:1333  function approve(IERC20 token, address to, uint256 amount) external {... */\n            tag_9:\n              callvalue\n              dup1\n              iszero\n              tag_42\n              jumpi\n              0x00\n              dup1\n              revert\n            tag_42:\n              pop\n              tag_43\n              0x04\n              dup1\n              calldatasize\n              sub\n              dup2\n              add\n              swap1\n              tag_44\n              swap2\n              swap1\n              tag_29\n              jump\t// in\n            tag_44:\n              tag_45\n              jump\t// in\n            tag_43:\n              stop\n                /* \"contracts/Bounty.sol\":1698:1810  function getPool() public view virtual returns (address payable) {... */\n            tag_19:\n                /* \"contracts/Bounty.sol\":1746:1761  address payable */\n              0x00\n                /* \"contracts/Bounty.sol\":1797:1801  this */\n              address\n                /* \"contracts/Bounty.sol\":1774:1803  return payable(address(this)) */\n              swap1\n              pop\n                /* \"contracts/Bounty.sol\":1698:1810  function getPool() public view virtual returns (address payable) {... */\n              swap1\n              jump\t// out\n                /* \"contracts/Bounty.sol\":1095:1208  function stableTransfer(address payable to, uint256 amount) external payable {... */\n            tag_25:\n                /* \"contracts/Bounty.sol\":1182:1184  to */\n              dup2\n                /* \"contracts/Bounty.sol\":1182:1193  to.transfer */\n              0xffffffffffffffffffffffffffffffffffffffff\n              and\n                /* \"contracts/Bounty.sol\":1182:1201  to.transfer(amount) */\n              0x08fc\n                /* \"contracts/Bounty.sol\":1194:1200  amount */\n              dup3\n                /* \"contracts/Bounty.sol\":1182:1201  to.transfer(amount) */\n              swap1\n              dup2\n              iszero\n              mul\n              swap1\n              mload(0x40)\n              0x00\n              mload(0x40)\n              dup1\n              dup4\n              sub\n              dup2\n              dup6\n              dup9\n              dup9\n              call\n              swap4\n              pop\n              pop\n              pop\n              pop\n              iszero\n              dup1\n              iszero\n              tag_49\n              jumpi\n              returndatasize\n              0x00\n              dup1\n              returndatacopy\n              revert(0x00, returndatasize)\n            tag_49:\n              pop\n                /* \"contracts/Bounty.sol\":1095:1208  function stableTransfer(address payable to, uint256 amount) external payable {... */\n              pop\n              pop\n              jump\t// out\n                /* \"contracts/Bounty.sol\":1339:1483  function transferFrom(IERC20 token, address to, uint256 amount) external {... */\n            tag_30:\n                /* \"contracts/Bounty.sol\":1430:1435  token */\n              dup3\n                /* \"contracts/Bounty.sol\":1430:1448  token.transferFrom */\n              0xffffffffffffffffffffffffffffffffffffffff\n              and\n              0x23b872dd\n                /* \"contracts/Bounty.sol\":1457:1461  this */\n              address\n                /* \"contracts/Bounty.sol\":1464:1466  to */\n              dup5\n                /* \"contracts/Bounty.sol\":1468:1474  amount */\n              dup5\n                /* \"contracts/Bounty.sol\":1430:1475  token.transferFrom(address(this), to, amount) */\n              mload(0x40)\n              dup5\n              0xffffffff\n              and\n              0xe0\n              shl\n              dup2\n              mstore\n              0x04\n              add\n              tag_51\n              swap4\n              swap3\n              swap2\n              swap1\n              tag_52\n              jump\t// in\n            tag_51:\n              0x20\n              mload(0x40)\n              dup1\n              dup4\n              sub\n              dup2\n              0x00\n              dup8\n              dup1\n              extcodesize\n              iszero\n              dup1\n              iszero\n              tag_53\n              jumpi\n              0x00\n              dup1\n              revert\n            tag_53:\n              pop\n              gas\n              call\n              iszero\n              dup1\n              iszero\n              tag_55\n              jumpi\n              returndatasize\n              0x00\n              dup1\n              returndatacopy\n              revert(0x00, returndatasize)\n            tag_55:\n              pop\n              pop\n              pop\n              pop\n              mload(0x40)\n              returndatasize\n              not(0x1f)\n              0x1f\n              dup3\n              add\n              and\n              dup3\n              add\n              dup1\n              0x40\n              mstore\n              pop\n              dup2\n              add\n              swap1\n              tag_56\n              swap2\n              swap1\n              tag_57\n              jump\t// in\n            tag_56:\n                /* \"contracts/Bounty.sol\":1422:1476  require(token.transferFrom(address(this), to, amount)) */\n              tag_58\n              jumpi\n              0x00\n              dup1\n              revert\n            tag_58:\n                /* \"contracts/Bounty.sol\":1339:1483  function transferFrom(IERC20 token, address to, uint256 amount) external {... */\n              pop\n              pop\n              pop\n              jump\t// out\n                /* \"contracts/Bounty.sol\":669:685  string public id */\n            tag_33:\n              0x01\n              dup1\n              sload\n              tag_59\n              swap1\n              tag_60\n              jump\t// in\n            tag_59:\n              dup1\n              0x1f\n              add\n              0x20\n              dup1\n              swap2\n              div\n              mul\n              0x20\n              add\n              mload(0x40)\n              swap1\n              dup2\n              add\n              0x40\n              mstore\n              dup1\n              swap3\n              swap2\n              swap1\n              dup2\n              dup2\n              mstore\n              0x20\n              add\n              dup3\n              dup1\n              sload\n              tag_61\n              swap1\n              tag_60\n              jump\t// in\n            tag_61:\n              dup1\n              iszero\n              tag_62\n              jumpi\n              dup1\n              0x1f\n              lt\n              tag_63\n              jumpi\n              0x0100\n              dup1\n              dup4\n              sload\n              div\n              mul\n              dup4\n              mstore\n              swap2\n              0x20\n              add\n              swap2\n              jump(tag_62)\n            tag_63:\n              dup3\n              add\n              swap2\n              swap1\n              0x00\n              mstore\n              keccak256(0x00, 0x20)\n              swap1\n            tag_64:\n              dup2\n              sload\n              dup2\n              mstore\n              swap1\n              0x01\n              add\n              swap1\n              0x20\n              add\n              dup1\n              dup4\n              gt\n              tag_64\n              jumpi\n              dup3\n              swap1\n              sub\n              0x1f\n              and\n              dup3\n              add\n              swap2\n            tag_62:\n              pop\n              pop\n              pop\n              pop\n              pop\n              dup2\n              jump\t// out\n                /* \"contracts/Bounty.sol\":1489:1610  function transfer(IERC20 token, address to, uint256 amount) external {... */\n            tag_39:\n                /* \"contracts/Bounty.sol\":1576:1581  token */\n              dup3\n                /* \"contracts/Bounty.sol\":1576:1590  token.transfer */\n              0xffffffffffffffffffffffffffffffffffffffff\n              and\n              0xa9059cbb\n                /* \"contracts/Bounty.sol\":1591:1593  to */\n              dup4\n                /* \"contracts/Bounty.sol\":1595:1601  amount */\n              dup4\n                /* \"contracts/Bounty.sol\":1576:1602  token.transfer(to, amount) */\n              mload(0x40)\n              dup4\n              0xffffffff\n              and\n              0xe0\n              shl\n              dup2\n              mstore\n              0x04\n              add\n              tag_66\n              swap3\n              swap2\n              swap1\n              tag_67\n              jump\t// in\n            tag_66:\n              0x20\n              mload(0x40)\n              dup1\n              dup4\n              sub\n              dup2\n              0x00\n              dup8\n              dup1\n              extcodesize\n              iszero\n              dup1\n              iszero\n              tag_68\n              jumpi\n              0x00\n              dup1\n              revert\n            tag_68:\n              pop\n              gas\n              call\n              iszero\n              dup1\n              iszero\n              tag_70\n              jumpi\n              returndatasize\n              0x00\n              dup1\n              returndatacopy\n              revert(0x00, returndatasize)\n            tag_70:\n              pop\n              pop\n              pop\n              pop\n              mload(0x40)\n              returndatasize\n              not(0x1f)\n              0x1f\n              dup3\n              add\n              and\n              dup3\n              add\n              dup1\n              0x40\n              mstore\n              pop\n              dup2\n              add\n              swap1\n              tag_71\n              swap2\n              swap1\n              tag_57\n              jump\t// in\n            tag_71:\n                /* \"contracts/Bounty.sol\":1568:1603  require(token.transfer(to, amount)) */\n              tag_72\n              jumpi\n              0x00\n              dup1\n              revert\n            tag_72:\n                /* \"contracts/Bounty.sol\":1489:1610  function transfer(IERC20 token, address to, uint256 amount) external {... */\n              pop\n              pop\n              pop\n              jump\t// out\n                /* \"contracts/Bounty.sol\":1616:1691  function deposit() external payable {... */\n            tag_41:\n              jump\t// out\n                /* \"contracts/Bounty.sol\":1214:1333  function approve(IERC20 token, address to, uint256 amount) external {... */\n            tag_45:\n                /* \"contracts/Bounty.sol\":1300:1305  token */\n              dup3\n                /* \"contracts/Bounty.sol\":1300:1313  token.approve */\n              0xffffffffffffffffffffffffffffffffffffffff\n              and\n              0x095ea7b3\n                /* \"contracts/Bounty.sol\":1314:1316  to */\n              dup4\n                /* \"contracts/Bounty.sol\":1318:1324  amount */\n              dup4\n                /* \"contracts/Bounty.sol\":1300:1325  token.approve(to, amount) */\n              mload(0x40)\n              dup4\n              0xffffffff\n              and\n              0xe0\n              shl\n              dup2\n              mstore\n              0x04\n              add\n              tag_75\n              swap3\n              swap2\n              swap1\n              tag_67\n              jump\t// in\n            tag_75:\n              0x20\n              mload(0x40)\n              dup1\n              dup4\n              sub\n              dup2\n              0x00\n              dup8\n              dup1\n              extcodesize\n              iszero\n              dup1\n              iszero\n              tag_76\n              jumpi\n              0x00\n              dup1\n              revert\n            tag_76:\n              pop\n              gas\n              call\n              iszero\n              dup1\n              iszero\n              tag_78\n              jumpi\n              returndatasize\n              0x00\n              dup1\n              returndatacopy\n              revert(0x00, returndatasize)\n            tag_78:\n              pop\n              pop\n              pop\n              pop\n              mload(0x40)\n              returndatasize\n              not(0x1f)\n              0x1f\n              dup3\n              add\n              and\n              dup3\n              add\n              dup1\n              0x40\n              mstore\n              pop\n              dup2\n              add\n              swap1\n              tag_79\n              swap2\n              swap1\n              tag_57\n              jump\t// in\n            tag_79:\n                /* \"contracts/Bounty.sol\":1292:1326  require(token.approve(to, amount)) */\n              tag_80\n              jumpi\n              0x00\n              dup1\n              revert\n            tag_80:\n                /* \"contracts/Bounty.sol\":1214:1333  function approve(IERC20 token, address to, uint256 amount) external {... */\n              pop\n              pop\n              pop\n              jump\t// out\n                /* \"#utility.yul\":7:146   */\n            tag_82:\n                /* \"#utility.yul\":53:58   */\n              0x00\n                /* \"#utility.yul\":91:97   */\n              dup2\n                /* \"#utility.yul\":78:98   */\n              calldataload\n                /* \"#utility.yul\":69:98   */\n              swap1\n              pop\n                /* \"#utility.yul\":107:140   */\n              tag_84\n                /* \"#utility.yul\":134:139   */\n              dup2\n                /* \"#utility.yul\":107:140   */\n              tag_85\n              jump\t// in\n            tag_84:\n                /* \"#utility.yul\":7:146   */\n              swap3\n              swap2\n              pop\n              pop\n              jump\t// out\n                /* \"#utility.yul\":152:307   */\n            tag_86:\n                /* \"#utility.yul\":206:211   */\n              0x00\n                /* \"#utility.yul\":244:250   */\n              dup2\n                /* \"#utility.yul\":231:251   */\n              calldataload\n                /* \"#utility.yul\":222:251   */\n              swap1\n              pop\n                /* \"#utility.yul\":260:301   */\n              tag_88\n                /* \"#utility.yul\":295:300   */\n              dup2\n                /* \"#utility.yul\":260:301   */\n              tag_89\n              jump\t// in\n            tag_88:\n                /* \"#utility.yul\":152:307   */\n              swap3\n              swap2\n              pop\n              pop\n              jump\t// out\n                /* \"#utility.yul\":313:450   */\n            tag_90:\n                /* \"#utility.yul\":367:372   */\n              0x00\n                /* \"#utility.yul\":398:404   */\n              dup2\n                /* \"#utility.yul\":392:405   */\n              mload\n                /* \"#utility.yul\":383:405   */\n              swap1\n              pop\n                /* \"#utility.yul\":414:444   */\n              tag_92\n                /* \"#utility.yul\":438:443   */\n              dup2\n                /* \"#utility.yul\":414:444   */\n              tag_93\n              jump\t// in\n            tag_92:\n                /* \"#utility.yul\":313:450   */\n              swap3\n              swap2\n              pop\n              pop\n              jump\t// out\n                /* \"#utility.yul\":456:623   */\n            tag_94:\n                /* \"#utility.yul\":516:521   */\n              0x00\n                /* \"#utility.yul\":554:560   */\n              dup2\n                /* \"#utility.yul\":541:561   */\n              calldataload\n                /* \"#utility.yul\":532:561   */\n              swap1\n              pop\n                /* \"#utility.yul\":570:617   */\n              tag_96\n                /* \"#utility.yul\":611:616   */\n              dup2\n                /* \"#utility.yul\":570:617   */\n              tag_97\n              jump\t// in\n            tag_96:\n                /* \"#utility.yul\":456:623   */\n              swap3\n              swap2\n              pop\n              pop\n              jump\t// out\n                /* \"#utility.yul\":629:768   */\n            tag_98:\n                /* \"#utility.yul\":675:680   */\n              0x00\n                /* \"#utility.yul\":713:719   */\n              dup2\n                /* \"#utility.yul\":700:720   */\n              calldataload\n                /* \"#utility.yul\":691:720   */\n              swap1\n              pop\n                /* \"#utility.yul\":729:762   */\n              tag_100\n                /* \"#utility.yul\":756:761   */\n              dup2\n                /* \"#utility.yul\":729:762   */\n              tag_101\n              jump\t// in\n            tag_100:\n                /* \"#utility.yul\":629:768   */\n              swap3\n              swap2\n              pop\n              pop\n              jump\t// out\n                /* \"#utility.yul\":774:1264   */\n            tag_24:\n                /* \"#utility.yul\":850:856   */\n              0x00\n                /* \"#utility.yul\":858:864   */\n              dup1\n                /* \"#utility.yul\":907:909   */\n              0x40\n                /* \"#utility.yul\":895:904   */\n              dup4\n                /* \"#utility.yul\":886:893   */\n              dup6\n                /* \"#utility.yul\":882:905   */\n              sub\n                /* \"#utility.yul\":878:910   */\n              slt\n                /* \"#utility.yul\":875:994   */\n              iszero\n              tag_103\n              jumpi\n                /* \"#utility.yul\":913:992   */\n              tag_104\n              tag_105\n              jump\t// in\n            tag_104:\n                /* \"#utility.yul\":875:994   */\n            tag_103:\n                /* \"#utility.yul\":1033:1034   */\n              0x00\n                /* \"#utility.yul\":1058:1119   */\n              tag_106\n                /* \"#utility.yul\":1111:1118   */\n              dup6\n                /* \"#utility.yul\":1102:1108   */\n              dup3\n                /* \"#utility.yul\":1091:1100   */\n              dup7\n                /* \"#utility.yul\":1087:1109   */\n              add\n                /* \"#utility.yul\":1058:1119   */\n              tag_86\n              jump\t// in\n            tag_106:\n                /* \"#utility.yul\":1048:1119   */\n              swap3\n              pop\n                /* \"#utility.yul\":1004:1129   */\n              pop\n                /* \"#utility.yul\":1168:1170   */\n              0x20\n                /* \"#utility.yul\":1194:1247   */\n              tag_107\n                /* \"#utility.yul\":1239:1246   */\n              dup6\n                /* \"#utility.yul\":1230:1236   */\n              dup3\n                /* \"#utility.yul\":1219:1228   */\n              dup7\n                /* \"#utility.yul\":1215:1237   */\n              add\n                /* \"#utility.yul\":1194:1247   */\n              tag_98\n              jump\t// in\n            tag_107:\n                /* \"#utility.yul\":1184:1247   */\n              swap2\n              pop\n                /* \"#utility.yul\":1139:1257   */\n              pop\n                /* \"#utility.yul\":774:1264   */\n              swap3\n              pop\n              swap3\n              swap1\n              pop\n              jump\t// out\n                /* \"#utility.yul\":1270:1615   */\n            tag_57:\n                /* \"#utility.yul\":1337:1343   */\n              0x00\n                /* \"#utility.yul\":1386:1388   */\n              0x20\n                /* \"#utility.yul\":1374:1383   */\n              dup3\n                /* \"#utility.yul\":1365:1372   */\n              dup5\n                /* \"#utility.yul\":1361:1384   */\n              sub\n                /* \"#utility.yul\":1357:1389   */\n              slt\n                /* \"#utility.yul\":1354:1473   */\n              iszero\n              tag_109\n              jumpi\n                /* \"#utility.yul\":1392:1471   */\n              tag_110\n              tag_105\n              jump\t// in\n            tag_110:\n                /* \"#utility.yul\":1354:1473   */\n            tag_109:\n                /* \"#utility.yul\":1512:1513   */\n              0x00\n                /* \"#utility.yul\":1537:1598   */\n              tag_111\n                /* \"#utility.yul\":1590:1597   */\n              dup5\n                /* \"#utility.yul\":1581:1587   */\n              dup3\n                /* \"#utility.yul\":1570:1579   */\n              dup6\n                /* \"#utility.yul\":1566:1588   */\n              add\n                /* \"#utility.yul\":1537:1598   */\n              tag_90\n              jump\t// in\n            tag_111:\n                /* \"#utility.yul\":1527:1598   */\n              swap2\n              pop\n                /* \"#utility.yul\":1483:1608   */\n              pop\n                /* \"#utility.yul\":1270:1615   */\n              swap3\n              swap2\n              pop\n              pop\n              jump\t// out\n                /* \"#utility.yul\":1621:2268   */\n            tag_29:\n                /* \"#utility.yul\":1712:1718   */\n              0x00\n                /* \"#utility.yul\":1720:1726   */\n              dup1\n                /* \"#utility.yul\":1728:1734   */\n              0x00\n                /* \"#utility.yul\":1777:1779   */\n              0x60\n                /* \"#utility.yul\":1765:1774   */\n              dup5\n                /* \"#utility.yul\":1756:1763   */\n              dup7\n                /* \"#utility.yul\":1752:1775   */\n              sub\n                /* \"#utility.yul\":1748:1780   */\n              slt\n                /* \"#utility.yul\":1745:1864   */\n              iszero\n              tag_113\n              jumpi\n                /* \"#utility.yul\":1783:1862   */\n              tag_114\n              tag_105\n              jump\t// in\n            tag_114:\n                /* \"#utility.yul\":1745:1864   */\n            tag_113:\n                /* \"#utility.yul\":1903:1904   */\n              0x00\n                /* \"#utility.yul\":1928:1995   */\n              tag_115\n                /* \"#utility.yul\":1987:1994   */\n              dup7\n                /* \"#utility.yul\":1978:1984   */\n              dup3\n                /* \"#utility.yul\":1967:1976   */\n              dup8\n                /* \"#utility.yul\":1963:1985   */\n              add\n                /* \"#utility.yul\":1928:1995   */\n              tag_94\n              jump\t// in\n            tag_115:\n                /* \"#utility.yul\":1918:1995   */\n              swap4\n              pop\n                /* \"#utility.yul\":1874:2005   */\n              pop\n                /* \"#utility.yul\":2044:2046   */\n              0x20\n                /* \"#utility.yul\":2070:2123   */\n              tag_116\n                /* \"#utility.yul\":2115:2122   */\n              dup7\n                /* \"#utility.yul\":2106:2112   */\n              dup3\n                /* \"#utility.yul\":2095:2104   */\n              dup8\n                /* \"#utility.yul\":2091:2113   */\n              add\n                /* \"#utility.yul\":2070:2123   */\n              tag_82\n              jump\t// in\n            tag_116:\n                /* \"#utility.yul\":2060:2123   */\n              swap3\n              pop\n                /* \"#utility.yul\":2015:2133   */\n              pop\n                /* \"#utility.yul\":2172:2174   */\n              0x40\n                /* \"#utility.yul\":2198:2251   */\n              tag_117\n                /* \"#utility.yul\":2243:2250   */\n              dup7\n                /* \"#utility.yul\":2234:2240   */\n              dup3\n                /* \"#utility.yul\":2223:2232   */\n              dup8\n                /* \"#utility.yul\":2219:2241   */\n              add\n                /* \"#utility.yul\":2198:2251   */\n              tag_98\n              jump\t// in\n            tag_117:\n                /* \"#utility.yul\":2188:2251   */\n              swap2\n              pop\n                /* \"#utility.yul\":2143:2261   */\n              pop\n                /* \"#utility.yul\":1621:2268   */\n              swap3\n              pop\n              swap3\n              pop\n              swap3\n              jump\t// out\n                /* \"#utility.yul\":2274:2416   */\n            tag_118:\n                /* \"#utility.yul\":2377:2409   */\n              tag_120\n                /* \"#utility.yul\":2403:2408   */\n              dup2\n                /* \"#utility.yul\":2377:2409   */\n              tag_121\n              jump\t// in\n            tag_120:\n                /* \"#utility.yul\":2372:2375   */\n              dup3\n                /* \"#utility.yul\":2365:2410   */\n              mstore\n                /* \"#utility.yul\":2274:2416   */\n              pop\n              pop\n              jump\t// out\n                /* \"#utility.yul\":2422:2540   */\n            tag_122:\n                /* \"#utility.yul\":2509:2533   */\n              tag_124\n                /* \"#utility.yul\":2527:2532   */\n              dup2\n                /* \"#utility.yul\":2509:2533   */\n              tag_125\n              jump\t// in\n            tag_124:\n                /* \"#utility.yul\":2504:2507   */\n              dup3\n                /* \"#utility.yul\":2497:2534   */\n              mstore\n                /* \"#utility.yul\":2422:2540   */\n              pop\n              pop\n              jump\t// out\n                /* \"#utility.yul\":2546:2910   */\n            tag_126:\n                /* \"#utility.yul\":2634:2637   */\n              0x00\n                /* \"#utility.yul\":2662:2701   */\n              tag_128\n                /* \"#utility.yul\":2695:2700   */\n              dup3\n                /* \"#utility.yul\":2662:2701   */\n              tag_129\n              jump\t// in\n            tag_128:\n                /* \"#utility.yul\":2717:2788   */\n              tag_130\n                /* \"#utility.yul\":2781:2787   */\n              dup2\n                /* \"#utility.yul\":2776:2779   */\n              dup6\n                /* \"#utility.yul\":2717:2788   */\n              tag_131\n              jump\t// in\n            tag_130:\n                /* \"#utility.yul\":2710:2788   */\n              swap4\n              pop\n                /* \"#utility.yul\":2797:2849   */\n              tag_132\n                /* \"#utility.yul\":2842:2848   */\n              dup2\n                /* \"#utility.yul\":2837:2840   */\n              dup6\n                /* \"#utility.yul\":2830:2834   */\n              0x20\n                /* \"#utility.yul\":2823:2828   */\n              dup7\n                /* \"#utility.yul\":2819:2835   */\n              add\n                /* \"#utility.yul\":2797:2849   */\n              tag_133\n              jump\t// in\n            tag_132:\n                /* \"#utility.yul\":2874:2903   */\n              tag_134\n                /* \"#utility.yul\":2896:2902   */\n              dup2\n                /* \"#utility.yul\":2874:2903   */\n              tag_135\n              jump\t// in\n            tag_134:\n                /* \"#utility.yul\":2869:2872   */\n              dup5\n                /* \"#utility.yul\":2865:2904   */\n              add\n                /* \"#utility.yul\":2858:2904   */\n              swap2\n              pop\n                /* \"#utility.yul\":2638:2910   */\n              pop\n                /* \"#utility.yul\":2546:2910   */\n              swap3\n              swap2\n              pop\n              pop\n              jump\t// out\n                /* \"#utility.yul\":2916:3282   */\n            tag_136:\n                /* \"#utility.yul\":3058:3061   */\n              0x00\n                /* \"#utility.yul\":3079:3146   */\n              tag_138\n                /* \"#utility.yul\":3143:3145   */\n              0x10\n                /* \"#utility.yul\":3138:3141   */\n              dup4\n                /* \"#utility.yul\":3079:3146   */\n              tag_131\n              jump\t// in\n            tag_138:\n                /* \"#utility.yul\":3072:3146   */\n              swap2\n              pop\n                /* \"#utility.yul\":3155:3248   */\n              tag_139\n                /* \"#utility.yul\":3244:3247   */\n              dup3\n                /* \"#utility.yul\":3155:3248   */\n              tag_140\n              jump\t// in\n            tag_139:\n                /* \"#utility.yul\":3273:3275   */\n              0x20\n                /* \"#utility.yul\":3268:3271   */\n              dup3\n                /* \"#utility.yul\":3264:3276   */\n              add\n                /* \"#utility.yul\":3257:3276   */\n              swap1\n              pop\n                /* \"#utility.yul\":2916:3282   */\n              swap2\n              swap1\n              pop\n              jump\t// out\n                /* \"#utility.yul\":3288:3406   */\n            tag_141:\n                /* \"#utility.yul\":3375:3399   */\n              tag_143\n                /* \"#utility.yul\":3393:3398   */\n              dup2\n                /* \"#utility.yul\":3375:3399   */\n              tag_144\n              jump\t// in\n            tag_143:\n                /* \"#utility.yul\":3370:3373   */\n              dup3\n                /* \"#utility.yul\":3363:3400   */\n              mstore\n                /* \"#utility.yul\":3288:3406   */\n              pop\n              pop\n              jump\t// out\n                /* \"#utility.yul\":3412:3666   */\n            tag_21:\n                /* \"#utility.yul\":3521:3525   */\n              0x00\n                /* \"#utility.yul\":3559:3561   */\n              0x20\n                /* \"#utility.yul\":3548:3557   */\n              dup3\n                /* \"#utility.yul\":3544:3562   */\n              add\n                /* \"#utility.yul\":3536:3562   */\n              swap1\n              pop\n                /* \"#utility.yul\":3572:3659   */\n              tag_146\n                /* \"#utility.yul\":3656:3657   */\n              0x00\n                /* \"#utility.yul\":3645:3654   */\n              dup4\n                /* \"#utility.yul\":3641:3658   */\n              add\n                /* \"#utility.yul\":3632:3638   */\n              dup5\n                /* \"#utility.yul\":3572:3659   */\n              tag_118\n              jump\t// in\n            tag_146:\n                /* \"#utility.yul\":3412:3666   */\n              swap3\n              swap2\n              pop\n              pop\n              jump\t// out\n                /* \"#utility.yul\":3672:4114   */\n            tag_52:\n                /* \"#utility.yul\":3821:3825   */\n              0x00\n                /* \"#utility.yul\":3859:3861   */\n              0x60\n                /* \"#utility.yul\":3848:3857   */\n              dup3\n                /* \"#utility.yul\":3844:3862   */\n              add\n                /* \"#utility.yul\":3836:3862   */\n              swap1\n              pop\n                /* \"#utility.yul\":3872:3943   */\n              tag_148\n                /* \"#utility.yul\":3940:3941   */\n              0x00\n                /* \"#utility.yul\":3929:3938   */\n              dup4\n                /* \"#utility.yul\":3925:3942   */\n              add\n                /* \"#utility.yul\":3916:3922   */\n              dup7\n                /* \"#utility.yul\":3872:3943   */\n              tag_122\n              jump\t// in\n            tag_148:\n                /* \"#utility.yul\":3953:4025   */\n              tag_149\n                /* \"#utility.yul\":4021:4023   */\n              0x20\n                /* \"#utility.yul\":4010:4019   */\n              dup4\n                /* \"#utility.yul\":4006:4024   */\n              add\n                /* \"#utility.yul\":3997:4003   */\n              dup6\n                /* \"#utility.yul\":3953:4025   */\n              tag_122\n              jump\t// in\n            tag_149:\n                /* \"#utility.yul\":4035:4107   */\n              tag_150\n                /* \"#utility.yul\":4103:4105   */\n              0x40\n                /* \"#utility.yul\":4092:4101   */\n              dup4\n                /* \"#utility.yul\":4088:4106   */\n              add\n                /* \"#utility.yul\":4079:4085   */\n              dup5\n                /* \"#utility.yul\":4035:4107   */\n              tag_141\n              jump\t// in\n            tag_150:\n                /* \"#utility.yul\":3672:4114   */\n              swap5\n              swap4\n              pop\n              pop\n              pop\n              pop\n              jump\t// out\n                /* \"#utility.yul\":4120:4452   */\n            tag_67:\n                /* \"#utility.yul\":4241:4245   */\n              0x00\n                /* \"#utility.yul\":4279:4281   */\n              0x40\n                /* \"#utility.yul\":4268:4277   */\n              dup3\n                /* \"#utility.yul\":4264:4282   */\n              add\n                /* \"#utility.yul\":4256:4282   */\n              swap1\n              pop\n                /* \"#utility.yul\":4292:4363   */\n              tag_152\n                /* \"#utility.yul\":4360:4361   */\n              0x00\n                /* \"#utility.yul\":4349:4358   */\n              dup4\n                /* \"#utility.yul\":4345:4362   */\n              add\n                /* \"#utility.yul\":4336:4342   */\n              dup6\n                /* \"#utility.yul\":4292:4363   */\n              tag_122\n              jump\t// in\n            tag_152:\n                /* \"#utility.yul\":4373:4445   */\n              tag_153\n                /* \"#utility.yul\":4441:4443   */\n              0x20\n                /* \"#utility.yul\":4430:4439   */\n              dup4\n                /* \"#utility.yul\":4426:4444   */\n              add\n                /* \"#utility.yul\":4417:4423   */\n              dup5\n                /* \"#utility.yul\":4373:4445   */\n              tag_141\n              jump\t// in\n            tag_153:\n                /* \"#utility.yul\":4120:4452   */\n              swap4\n              swap3\n              pop\n              pop\n              pop\n              jump\t// out\n                /* \"#utility.yul\":4458:4771   */\n            tag_35:\n                /* \"#utility.yul\":4571:4575   */\n              0x00\n                /* \"#utility.yul\":4609:4611   */\n              0x20\n                /* \"#utility.yul\":4598:4607   */\n              dup3\n                /* \"#utility.yul\":4594:4612   */\n              add\n                /* \"#utility.yul\":4586:4612   */\n              swap1\n              pop\n                /* \"#utility.yul\":4658:4667   */\n              dup2\n                /* \"#utility.yul\":4652:4656   */\n              dup2\n                /* \"#utility.yul\":4648:4668   */\n              sub\n                /* \"#utility.yul\":4644:4645   */\n              0x00\n                /* \"#utility.yul\":4633:4642   */\n              dup4\n                /* \"#utility.yul\":4629:4646   */\n              add\n                /* \"#utility.yul\":4622:4669   */\n              mstore\n                /* \"#utility.yul\":4686:4764   */\n              tag_155\n                /* \"#utility.yul\":4759:4763   */\n              dup2\n                /* \"#utility.yul\":4750:4756   */\n              dup5\n                /* \"#utility.yul\":4686:4764   */\n              tag_126\n              jump\t// in\n            tag_155:\n                /* \"#utility.yul\":4678:4764   */\n              swap1\n              pop\n                /* \"#utility.yul\":4458:4771   */\n              swap3\n              swap2\n              pop\n              pop\n              jump\t// out\n                /* \"#utility.yul\":4777:5196   */\n            tag_15:\n                /* \"#utility.yul\":4943:4947   */\n              0x00\n                /* \"#utility.yul\":4981:4983   */\n              0x20\n                /* \"#utility.yul\":4970:4979   */\n              dup3\n                /* \"#utility.yul\":4966:4984   */\n              add\n                /* \"#utility.yul\":4958:4984   */\n              swap1\n              pop\n                /* \"#utility.yul\":5030:5039   */\n              dup2\n                /* \"#utility.yul\":5024:5028   */\n              dup2\n                /* \"#utility.yul\":5020:5040   */\n              sub\n                /* \"#utility.yul\":5016:5017   */\n              0x00\n                /* \"#utility.yul\":5005:5014   */\n              dup4\n                /* \"#utility.yul\":5001:5018   */\n              add\n                /* \"#utility.yul\":4994:5041   */\n              mstore\n                /* \"#utility.yul\":5058:5189   */\n              tag_157\n                /* \"#utility.yul\":5184:5188   */\n              dup2\n                /* \"#utility.yul\":5058:5189   */\n              tag_136\n              jump\t// in\n            tag_157:\n                /* \"#utility.yul\":5050:5189   */\n              swap1\n              pop\n                /* \"#utility.yul\":4777:5196   */\n              swap2\n              swap1\n              pop\n              jump\t// out\n                /* \"#utility.yul\":5283:5382   */\n            tag_129:\n                /* \"#utility.yul\":5335:5341   */\n              0x00\n                /* \"#utility.yul\":5369:5374   */\n              dup2\n                /* \"#utility.yul\":5363:5375   */\n              mload\n                /* \"#utility.yul\":5353:5375   */\n              swap1\n              pop\n                /* \"#utility.yul\":5283:5382   */\n              swap2\n              swap1\n              pop\n              jump\t// out\n                /* \"#utility.yul\":5388:5557   */\n            tag_131:\n                /* \"#utility.yul\":5472:5483   */\n              0x00\n                /* \"#utility.yul\":5506:5512   */\n              dup3\n                /* \"#utility.yul\":5501:5504   */\n              dup3\n                /* \"#utility.yul\":5494:5513   */\n              mstore\n                /* \"#utility.yul\":5546:5550   */\n              0x20\n                /* \"#utility.yul\":5541:5544   */\n              dup3\n                /* \"#utility.yul\":5537:5551   */\n              add\n                /* \"#utility.yul\":5522:5551   */\n              swap1\n              pop\n                /* \"#utility.yul\":5388:5557   */\n              swap3\n              swap2\n              pop\n              pop\n              jump\t// out\n                /* \"#utility.yul\":5563:5659   */\n            tag_125:\n                /* \"#utility.yul\":5600:5607   */\n              0x00\n                /* \"#utility.yul\":5629:5653   */\n              tag_163\n                /* \"#utility.yul\":5647:5652   */\n              dup3\n                /* \"#utility.yul\":5629:5653   */\n              tag_164\n              jump\t// in\n            tag_163:\n                /* \"#utility.yul\":5618:5653   */\n              swap1\n              pop\n                /* \"#utility.yul\":5563:5659   */\n              swap2\n              swap1\n              pop\n              jump\t// out\n                /* \"#utility.yul\":5665:5769   */\n            tag_121:\n                /* \"#utility.yul\":5710:5717   */\n              0x00\n                /* \"#utility.yul\":5739:5763   */\n              tag_166\n                /* \"#utility.yul\":5757:5762   */\n              dup3\n                /* \"#utility.yul\":5739:5763   */\n              tag_164\n              jump\t// in\n            tag_166:\n                /* \"#utility.yul\":5728:5763   */\n              swap1\n              pop\n                /* \"#utility.yul\":5665:5769   */\n              swap2\n              swap1\n              pop\n              jump\t// out\n                /* \"#utility.yul\":5775:5865   */\n            tag_167:\n                /* \"#utility.yul\":5809:5816   */\n              0x00\n                /* \"#utility.yul\":5852:5857   */\n              dup2\n                /* \"#utility.yul\":5845:5858   */\n              iszero\n                /* \"#utility.yul\":5838:5859   */\n              iszero\n                /* \"#utility.yul\":5827:5859   */\n              swap1\n              pop\n                /* \"#utility.yul\":5775:5865   */\n              swap2\n              swap1\n              pop\n              jump\t// out\n                /* \"#utility.yul\":5871:5981   */\n            tag_169:\n                /* \"#utility.yul\":5922:5929   */\n              0x00\n                /* \"#utility.yul\":5951:5975   */\n              tag_171\n                /* \"#utility.yul\":5969:5974   */\n              dup3\n                /* \"#utility.yul\":5951:5975   */\n              tag_125\n              jump\t// in\n            tag_171:\n                /* \"#utility.yul\":5940:5975   */\n              swap1\n              pop\n                /* \"#utility.yul\":5871:5981   */\n              swap2\n              swap1\n              pop\n              jump\t// out\n                /* \"#utility.yul\":5987:6113   */\n            tag_164:\n                /* \"#utility.yul\":6024:6031   */\n              0x00\n                /* \"#utility.yul\":6064:6106   */\n              0xffffffffffffffffffffffffffffffffffffffff\n                /* \"#utility.yul\":6057:6062   */\n              dup3\n                /* \"#utility.yul\":6053:6107   */\n              and\n                /* \"#utility.yul\":6042:6107   */\n              swap1\n              pop\n                /* \"#utility.yul\":5987:6113   */\n              swap2\n              swap1\n              pop\n              jump\t// out\n                /* \"#utility.yul\":6119:6196   */\n            tag_144:\n                /* \"#utility.yul\":6156:6163   */\n              0x00\n                /* \"#utility.yul\":6185:6190   */\n              dup2\n                /* \"#utility.yul\":6174:6190   */\n              swap1\n              pop\n                /* \"#utility.yul\":6119:6196   */\n              swap2\n              swap1\n              pop\n              jump\t// out\n                /* \"#utility.yul\":6202:6509   */\n            tag_133:\n                /* \"#utility.yul\":6270:6271   */\n              0x00\n                /* \"#utility.yul\":6280:6393   */\n            tag_175:\n                /* \"#utility.yul\":6294:6300   */\n              dup4\n                /* \"#utility.yul\":6291:6292   */\n              dup2\n                /* \"#utility.yul\":6288:6301   */\n              lt\n                /* \"#utility.yul\":6280:6393   */\n              iszero\n              tag_177\n              jumpi\n                /* \"#utility.yul\":6379:6380   */\n              dup1\n                /* \"#utility.yul\":6374:6377   */\n              dup3\n                /* \"#utility.yul\":6370:6381   */\n              add\n                /* \"#utility.yul\":6364:6382   */\n              mload\n                /* \"#utility.yul\":6360:6361   */\n              dup2\n                /* \"#utility.yul\":6355:6358   */\n              dup5\n                /* \"#utility.yul\":6351:6362   */\n              add\n                /* \"#utility.yul\":6344:6383   */\n              mstore\n                /* \"#utility.yul\":6316:6318   */\n              0x20\n                /* \"#utility.yul\":6313:6314   */\n              dup2\n                /* \"#utility.yul\":6309:6319   */\n              add\n                /* \"#utility.yul\":6304:6319   */\n              swap1\n              pop\n                /* \"#utility.yul\":6280:6393   */\n              jump(tag_175)\n            tag_177:\n                /* \"#utility.yul\":6411:6417   */\n              dup4\n                /* \"#utility.yul\":6408:6409   */\n              dup2\n                /* \"#utility.yul\":6405:6418   */\n              gt\n                /* \"#utility.yul\":6402:6503   */\n              iszero\n              tag_178\n              jumpi\n                /* \"#utility.yul\":6491:6492   */\n              0x00\n                /* \"#utility.yul\":6482:6488   */\n              dup5\n                /* \"#utility.yul\":6477:6480   */\n              dup5\n                /* \"#utility.yul\":6473:6489   */\n              add\n                /* \"#utility.yul\":6466:6493   */\n              mstore\n                /* \"#utility.yul\":6402:6503   */\n            tag_178:\n                /* \"#utility.yul\":6251:6509   */\n              pop\n                /* \"#utility.yul\":6202:6509   */\n              pop\n              pop\n              pop\n              jump\t// out\n                /* \"#utility.yul\":6515:6835   */\n            tag_60:\n                /* \"#utility.yul\":6559:6565   */\n              0x00\n                /* \"#utility.yul\":6596:6597   */\n              0x02\n                /* \"#utility.yul\":6590:6594   */\n              dup3\n                /* \"#utility.yul\":6586:6598   */\n              div\n                /* \"#utility.yul\":6576:6598   */\n              swap1\n              pop\n                /* \"#utility.yul\":6643:6644   */\n              0x01\n                /* \"#utility.yul\":6637:6641   */\n              dup3\n                /* \"#utility.yul\":6633:6645   */\n              and\n                /* \"#utility.yul\":6664:6682   */\n              dup1\n                /* \"#utility.yul\":6654:6735   */\n              tag_180\n              jumpi\n                /* \"#utility.yul\":6720:6724   */\n              0x7f\n                /* \"#utility.yul\":6712:6718   */\n              dup3\n                /* \"#utility.yul\":6708:6725   */\n              and\n                /* \"#utility.yul\":6698:6725   */\n              swap2\n              pop\n                /* \"#utility.yul\":6654:6735   */\n            tag_180:\n                /* \"#utility.yul\":6782:6784   */\n              0x20\n                /* \"#utility.yul\":6774:6780   */\n              dup3\n                /* \"#utility.yul\":6771:6785   */\n              lt\n                /* \"#utility.yul\":6751:6769   */\n              dup2\n                /* \"#utility.yul\":6748:6786   */\n              eq\n                /* \"#utility.yul\":6745:6829   */\n              iszero\n              tag_181\n              jumpi\n                /* \"#utility.yul\":6801:6819   */\n              tag_182\n              tag_183\n              jump\t// in\n            tag_182:\n                /* \"#utility.yul\":6745:6829   */\n            tag_181:\n                /* \"#utility.yul\":6566:6835   */\n              pop\n                /* \"#utility.yul\":6515:6835   */\n              swap2\n              swap1\n              pop\n              jump\t// out\n                /* \"#utility.yul\":6841:7021   */\n            tag_183:\n                /* \"#utility.yul\":6889:6966   */\n              0x4e487b7100000000000000000000000000000000000000000000000000000000\n                /* \"#utility.yul\":6886:6887   */\n              0x00\n                /* \"#utility.yul\":6879:6967   */\n              mstore\n                /* \"#utility.yul\":6986:6990   */\n              0x22\n                /* \"#utility.yul\":6983:6984   */\n              0x04\n                /* \"#utility.yul\":6976:6991   */\n              mstore\n                /* \"#utility.yul\":7010:7014   */\n              0x24\n                /* \"#utility.yul\":7007:7008   */\n              0x00\n                /* \"#utility.yul\":7000:7015   */\n              revert\n                /* \"#utility.yul\":7150:7267   */\n            tag_105:\n                /* \"#utility.yul\":7259:7260   */\n              0x00\n                /* \"#utility.yul\":7256:7257   */\n              dup1\n                /* \"#utility.yul\":7249:7261   */\n              revert\n                /* \"#utility.yul\":7273:7375   */\n            tag_135:\n                /* \"#utility.yul\":7314:7320   */\n              0x00\n                /* \"#utility.yul\":7365:7367   */\n              0x1f\n                /* \"#utility.yul\":7361:7368   */\n              not\n                /* \"#utility.yul\":7356:7358   */\n              0x1f\n                /* \"#utility.yul\":7349:7354   */\n              dup4\n                /* \"#utility.yul\":7345:7359   */\n              add\n                /* \"#utility.yul\":7341:7369   */\n              and\n                /* \"#utility.yul\":7331:7369   */\n              swap1\n              pop\n                /* \"#utility.yul\":7273:7375   */\n              swap2\n              swap1\n              pop\n              jump\t// out\n                /* \"#utility.yul\":7381:7547   */\n            tag_140:\n                /* \"#utility.yul\":7521:7539   */\n              0x6e65656420696e697420626f756e747900000000000000000000000000000000\n                /* \"#utility.yul\":7517:7518   */\n              0x00\n                /* \"#utility.yul\":7509:7515   */\n              dup3\n                /* \"#utility.yul\":7505:7519   */\n              add\n                /* \"#utility.yul\":7498:7540   */\n              mstore\n                /* \"#utility.yul\":7381:7547   */\n              pop\n              jump\t// out\n                /* \"#utility.yul\":7553:7675   */\n            tag_85:\n                /* \"#utility.yul\":7626:7650   */\n              tag_191\n                /* \"#utility.yul\":7644:7649   */\n              dup2\n                /* \"#utility.yul\":7626:7650   */\n              tag_125\n              jump\t// in\n            tag_191:\n                /* \"#utility.yul\":7619:7624   */\n              dup2\n                /* \"#utility.yul\":7616:7651   */\n              eq\n                /* \"#utility.yul\":7606:7669   */\n              tag_192\n              jumpi\n                /* \"#utility.yul\":7665:7666   */\n              0x00\n                /* \"#utility.yul\":7662:7663   */\n              dup1\n                /* \"#utility.yul\":7655:7667   */\n              revert\n                /* \"#utility.yul\":7606:7669   */\n            tag_192:\n                /* \"#utility.yul\":7553:7675   */\n              pop\n              jump\t// out\n                /* \"#utility.yul\":7681:7819   */\n            tag_89:\n                /* \"#utility.yul\":7762:7794   */\n              tag_194\n                /* \"#utility.yul\":7788:7793   */\n              dup2\n                /* \"#utility.yul\":7762:7794   */\n              tag_121\n              jump\t// in\n            tag_194:\n                /* \"#utility.yul\":7755:7760   */\n              dup2\n                /* \"#utility.yul\":7752:7795   */\n              eq\n                /* \"#utility.yul\":7742:7813   */\n              tag_195\n              jumpi\n                /* \"#utility.yul\":7809:7810   */\n              0x00\n                /* \"#utility.yul\":7806:7807   */\n              dup1\n                /* \"#utility.yul\":7799:7811   */\n              revert\n                /* \"#utility.yul\":7742:7813   */\n            tag_195:\n                /* \"#utility.yul\":7681:7819   */\n              pop\n              jump\t// out\n                /* \"#utility.yul\":7825:7941   */\n            tag_93:\n                /* \"#utility.yul\":7895:7916   */\n              tag_197\n                /* \"#utility.yul\":7910:7915   */\n              dup2\n                /* \"#utility.yul\":7895:7916   */\n              tag_167\n              jump\t// in\n            tag_197:\n                /* \"#utility.yul\":7888:7893   */\n              dup2\n                /* \"#utility.yul\":7885:7917   */\n              eq\n                /* \"#utility.yul\":7875:7935   */\n              tag_198\n              jumpi\n                /* \"#utility.yul\":7931:7932   */\n              0x00\n                /* \"#utility.yul\":7928:7929   */\n              dup1\n                /* \"#utility.yul\":7921:7933   */\n              revert\n                /* \"#utility.yul\":7875:7935   */\n            tag_198:\n                /* \"#utility.yul\":7825:7941   */\n              pop\n              jump\t// out\n                /* \"#utility.yul\":7947:8097   */\n            tag_97:\n                /* \"#utility.yul\":8034:8072   */\n              tag_200\n                /* \"#utility.yul\":8066:8071   */\n              dup2\n                /* \"#utility.yul\":8034:8072   */\n              tag_169\n              jump\t// in\n            tag_200:\n                /* \"#utility.yul\":8027:8032   */\n              dup2\n                /* \"#utility.yul\":8024:8073   */\n              eq\n                /* \"#utility.yul\":8014:8091   */\n              tag_201\n              jumpi\n                /* \"#utility.yul\":8087:8088   */\n              0x00\n                /* \"#utility.yul\":8084:8085   */\n              dup1\n                /* \"#utility.yul\":8077:8089   */\n              revert\n                /* \"#utility.yul\":8014:8091   */\n            tag_201:\n                /* \"#utility.yul\":7947:8097   */\n              pop\n              jump\t// out\n                /* \"#utility.yul\":8103:8225   */\n            tag_101:\n                /* \"#utility.yul\":8176:8200   */\n              tag_203\n                /* \"#utility.yul\":8194:8199   */\n              dup2\n                /* \"#utility.yul\":8176:8200   */\n              tag_144\n              jump\t// in\n            tag_203:\n                /* \"#utility.yul\":8169:8174   */\n              dup2\n                /* \"#utility.yul\":8166:8201   */\n              eq\n                /* \"#utility.yul\":8156:8219   */\n              tag_204\n              jumpi\n                /* \"#utility.yul\":8215:8216   */\n              0x00\n                /* \"#utility.yul\":8212:8213   */\n              dup1\n                /* \"#utility.yul\":8205:8217   */\n              revert\n                /* \"#utility.yul\":8156:8219   */\n            tag_204:\n                /* \"#utility.yul\":8103:8225   */\n              pop\n              jump\t// out\n\n            auxdata: 0xa26469706673582212200c7962ca2f739cd222d8accbda8f6f5dcd1f4c244a3b5f5986031983deb7eddb64736f6c63430008070033\n        }\n    }\n\n    auxdata: 0xa2646970667358221220d04a35e7eaff93b638777571852c3c8f679578352b4440b1c71f93390193500c64736f6c63430008070033\n}\n",
				"bytecode": {
					"linkReferences": {},
					"object": "608060405234801561001057600080fd5b50336000806101000a81548173ffffffffffffffffffffffffffffffffffffffff021916908373ffffffffffffffffffffffffffffffffffffffff160217905550336000806101000a81548173ffffffffffffffffffffffffffffffffffffffff021916908373ffffffffffffffffffffffffffffffffffffffff1602179055506118c8806100a06000396000f3fe608060405260043610620000495760003560e01c80630c3b11a7146200005957806314da447f146200009d578063859e054714620000cb578063f2fde38b14620000eb5762000054565b366200005457600080fd5b600080fd5b3480156200006657600080fd5b506200008560048036038101906200007f9190620006f0565b62000119565b6040516200009491906200081b565b60405180910390f35b348015620000aa57600080fd5b50620000c96004803603810190620000c3919062000626565b62000162565b005b620000e96004803603810190620000e391906200068a565b620001da565b005b348015620000f857600080fd5b50620001176004803603810190620001119190620005f4565b6200037f565b005b6002818051602081018201805184825260208301602085012081835280955050505050506000915054906101000a900473ffffffffffffffffffffffffffffffffffffffff1681565b60008054906101000a900473ffffffffffffffffffffffffffffffffffffffff1673ffffffffffffffffffffffffffffffffffffffff163373ffffffffffffffffffffffffffffffffffffffff1614620001c157620001c062000a37565b5b8073ffffffffffffffffffffffffffffffffffffffff16ff5b60008130604051620001ec9062000523565b620001f99291906200085c565b604051809103906000f08015801562000216573d6000803e3d6000fd5b5090508073ffffffffffffffffffffffffffffffffffffffff1663026b1d5f6040518163ffffffff1660e01b815260040160206040518083038186803b1580156200026057600080fd5b505afa15801562000275573d6000803e3d6000fd5b505050506040513d601f19601f820116820180604052508101906200029b919062000658565b73ffffffffffffffffffffffffffffffffffffffff166108fc349081150290604051600060405180830381858888f19350505050158015620002e1573d6000803e3d6000fd5b5080600283604051620002f5919062000802565b908152602001604051809103902060006101000a81548173ffffffffffffffffffffffffffffffffffffffff021916908373ffffffffffffffffffffffffffffffffffffffff1602179055507f10da9753e8e5347b65100331705a66228cad7e14bb54dd9244a7ae532f1c01f98260405162000372919062000838565b60405180910390a1505050565b60008054906101000a900473ffffffffffffffffffffffffffffffffffffffff1673ffffffffffffffffffffffffffffffffffffffff163373ffffffffffffffffffffffffffffffffffffffff1614620003de57620003dd62000a37565b5b600073ffffffffffffffffffffffffffffffffffffffff168173ffffffffffffffffffffffffffffffffffffffff16141562000451576040517f08c379a0000000000000000000000000000000000000000000000000000000008152600401620004489062000890565b60405180910390fd5b6200045c816200045f565b50565b60008060009054906101000a900473ffffffffffffffffffffffffffffffffffffffff169050816000806101000a81548173ffffffffffffffffffffffffffffffffffffffff021916908373ffffffffffffffffffffffffffffffffffffffff1602179055508173ffffffffffffffffffffffffffffffffffffffff168173ffffffffffffffffffffffffffffffffffffffff167f8be0079c531659141344cd1fd0a4f28419497f9722a3daafe3b4186f6b6457e060405160405180910390a35050565b610d558062000b3e83390190565b6000620005486200054284620008db565b620008b2565b90508281526020810184848401111562000567576200056662000a9a565b5b62000574848285620009bc565b509392505050565b6000813590506200058d8162000b09565b92915050565b600081359050620005a48162000b23565b92915050565b600081519050620005bb8162000b23565b92915050565b600082601f830112620005d957620005d862000a95565b5b8135620005eb84826020860162000531565b91505092915050565b6000602082840312156200060d576200060c62000aa4565b5b60006200061d848285016200057c565b91505092915050565b6000602082840312156200063f576200063e62000aa4565b5b60006200064f8482850162000593565b91505092915050565b60006020828403121562000671576200067062000aa4565b5b60006200068184828501620005aa565b91505092915050565b60008060408385031215620006a457620006a362000aa4565b5b6000620006b4858286016200057c565b925050602083013567ffffffffffffffff811115620006d857620006d762000a9f565b5b620006e685828601620005c1565b9150509250929050565b60006020828403121562000709576200070862000aa4565b5b600082013567ffffffffffffffff8111156200072a576200072962000a9f565b5b6200073884828501620005c1565b91505092915050565b6200074c8162000938565b82525050565b6200075d8162000980565b82525050565b6000620007708262000911565b6200077c81856200091c565b93506200078e818560208601620009cb565b620007998162000aa9565b840191505092915050565b6000620007b18262000911565b620007bd81856200092d565b9350620007cf818560208601620009cb565b80840191505092915050565b6000620007ea6026836200091c565b9150620007f78262000aba565b604082019050919050565b6000620008108284620007a4565b915081905092915050565b600060208201905062000832600083018462000752565b92915050565b6000602082019050818103600083015262000854818462000763565b905092915050565b6000604082019050818103600083015262000878818562000763565b905062000889602083018462000741565b9392505050565b60006020820190508181036000830152620008ab81620007db565b9050919050565b6000620008be620008d1565b9050620008cc828262000a01565b919050565b6000604051905090565b600067ffffffffffffffff821115620008f957620008f862000a66565b5b620009048262000aa9565b9050602081019050919050565b600081519050919050565b600082825260208201905092915050565b600081905092915050565b6000620009458262000960565b9050919050565b6000620009598262000960565b9050919050565b600073ffffffffffffffffffffffffffffffffffffffff82169050919050565b60006200098d8262000994565b9050919050565b6000620009a182620009a8565b9050919050565b6000620009b58262000960565b9050919050565b82818337600083830152505050565b60005b83811015620009eb578082015181840152602081019050620009ce565b83811115620009fb576000848401525b50505050565b62000a0c8262000aa9565b810181811067ffffffffffffffff8211171562000a2e5762000a2d62000a66565b5b80604052505050565b7f4e487b7100000000000000000000000000000000000000000000000000000000600052600160045260246000fd5b7f4e487b7100000000000000000000000000000000000000000000000000000000600052604160045260246000fd5b600080fd5b600080fd5b600080fd5b600080fd5b6000601f19601f8301169050919050565b7f4f776e61626c653a206e6577206f776e657220697320746865207a65726f206160008201527f6464726573730000000000000000000000000000000000000000000000000000602082015250565b62000b148162000938565b811462000b2057600080fd5b50565b62000b2e816200094c565b811462000b3a57600080fd5b5056fe60806040523480156200001157600080fd5b5060405162000d5538038062000d558339818101604052810190620000379190620001dd565b81600190805190602001906200004f92919062000098565b50806000806101000a81548173ffffffffffffffffffffffffffffffffffffffff021916908373ffffffffffffffffffffffffffffffffffffffff160217905550505062000415565b828054620000a6906200030c565b90600052602060002090601f016020900481019282620000ca576000855562000116565b82601f10620000e557805160ff191683800117855562000116565b8280016001018555821562000116579182015b8281111562000115578251825591602001919060010190620000f8565b5b50905062000125919062000129565b5090565b5b80821115620001445760008160009055506001016200012a565b5090565b60006200015f62000159846200026c565b62000243565b9050828152602081018484840111156200017e576200017d620003db565b5b6200018b848285620002d6565b509392505050565b600081519050620001a481620003fb565b92915050565b600082601f830112620001c257620001c1620003d6565b5b8151620001d484826020860162000148565b91505092915050565b60008060408385031215620001f757620001f6620003e5565b5b600083015167ffffffffffffffff811115620002185762000217620003e0565b5b6200022685828601620001aa565b9250506020620002398582860162000193565b9150509250929050565b60006200024f62000262565b90506200025d828262000342565b919050565b6000604051905090565b600067ffffffffffffffff8211156200028a5762000289620003a7565b5b6200029582620003ea565b9050602081019050919050565b6000620002af82620002b6565b9050919050565b600073ffffffffffffffffffffffffffffffffffffffff82169050919050565b60005b83811015620002f6578082015181840152602081019050620002d9565b8381111562000306576000848401525b50505050565b600060028204905060018216806200032557607f821691505b602082108114156200033c576200033b62000378565b5b50919050565b6200034d82620003ea565b810181811067ffffffffffffffff821117156200036f576200036e620003a7565b5b80604052505050565b7f4e487b7100000000000000000000000000000000000000000000000000000000600052602260045260246000fd5b7f4e487b7100000000000000000000000000000000000000000000000000000000600052604160045260246000fd5b600080fd5b600080fd5b600080fd5b600080fd5b6000601f19601f8301169050919050565b6200040681620002a2565b81146200041257600080fd5b50565b61093080620004256000396000f3fe6080604052600436106100745760003560e01c8063af640d0f1161004e578063af640d0f14610180578063beabacc8146101ab578063d0e30db0146101d4578063e1f21c67146101de5761010b565b8063026b1d5f1461011057806313658f8a1461013b57806323b872dd146101575761010b565b3661010b57600073ffffffffffffffffffffffffffffffffffffffff1660008054906101000a900473ffffffffffffffffffffffffffffffffffffffff1673ffffffffffffffffffffffffffffffffffffffff161415610109576040517f08c379a00000000000000000000000000000000000000000000000000000000081526004016101009061070c565b60405180910390fd5b005b600080fd5b34801561011c57600080fd5b50610125610207565b604051610132919061066f565b60405180910390f35b61015560048036038101906101509190610526565b61020f565b005b34801561016357600080fd5b5061017e60048036038101906101799190610593565b61025a565b005b34801561018c57600080fd5b506101956102f7565b6040516101a291906106ea565b60405180910390f35b3480156101b757600080fd5b506101d260048036038101906101cd9190610593565b610385565b005b6101dc610420565b005b3480156101ea57600080fd5b5061020560048036038101906102009190610593565b610422565b005b600030905090565b8173ffffffffffffffffffffffffffffffffffffffff166108fc829081150290604051600060405180830381858888f19350505050158015610255573d6000803e3d6000fd5b505050565b8273ffffffffffffffffffffffffffffffffffffffff166323b872dd3084846040518463ffffffff1660e01b81526004016102979392919061068a565b602060405180830381600087803b1580156102b157600080fd5b505af11580156102c5573d6000803e3d6000fd5b505050506040513d601f19601f820116820180604052508101906102e99190610566565b6102f257600080fd5b505050565b60018054610304906107e7565b80601f0160208091040260200160405190810160405280929190818152602001828054610330906107e7565b801561037d5780601f106103525761010080835404028352916020019161037d565b820191906000526020600020905b81548152906001019060200180831161036057829003601f168201915b505050505081565b8273ffffffffffffffffffffffffffffffffffffffff1663a9059cbb83836040518363ffffffff1660e01b81526004016103c09291906106c1565b602060405180830381600087803b1580156103da57600080fd5b505af11580156103ee573d6000803e3d6000fd5b505050506040513d601f19601f820116820180604052508101906104129190610566565b61041b57600080fd5b505050565b565b8273ffffffffffffffffffffffffffffffffffffffff1663095ea7b383836040518363ffffffff1660e01b815260040161045d9291906106c1565b602060405180830381600087803b15801561047757600080fd5b505af115801561048b573d6000803e3d6000fd5b505050506040513d601f19601f820116820180604052508101906104af9190610566565b6104b857600080fd5b505050565b6000813590506104cc81610887565b92915050565b6000813590506104e18161089e565b92915050565b6000815190506104f6816108b5565b92915050565b60008135905061050b816108cc565b92915050565b600081359050610520816108e3565b92915050565b6000806040838503121561053d5761053c610848565b5b600061054b858286016104d2565b925050602061055c85828601610511565b9150509250929050565b60006020828403121561057c5761057b610848565b5b600061058a848285016104e7565b91505092915050565b6000806000606084860312156105ac576105ab610848565b5b60006105ba868287016104fc565b93505060206105cb868287016104bd565b92505060406105dc86828701610511565b9150509250925092565b6105ef8161075a565b82525050565b6105fe81610748565b82525050565b600061060f8261072c565b6106198185610737565b93506106298185602086016107b4565b6106328161084d565b840191505092915050565b600061064a601083610737565b91506106558261085e565b602082019050919050565b610669816107aa565b82525050565b600060208201905061068460008301846105e6565b92915050565b600060608201905061069f60008301866105f5565b6106ac60208301856105f5565b6106b96040830184610660565b949350505050565b60006040820190506106d660008301856105f5565b6106e36020830184610660565b9392505050565b600060208201905081810360008301526107048184610604565b905092915050565b600060208201905081810360008301526107258161063d565b9050919050565b600081519050919050565b600082825260208201905092915050565b60006107538261078a565b9050919050565b60006107658261078a565b9050919050565b60008115159050919050565b600061078382610748565b9050919050565b600073ffffffffffffffffffffffffffffffffffffffff82169050919050565b6000819050919050565b60005b838110156107d25780820151818401526020810190506107b7565b838111156107e1576000848401525b50505050565b600060028204905060018216806107ff57607f821691505b6020821081141561081357610812610819565b5b50919050565b7f4e487b7100000000000000000000000000000000000000000000000000000000600052602260045260246000fd5b600080fd5b6000601f19601f8301169050919050565b7f6e65656420696e697420626f756e747900000000000000000000000000000000600082015250565b61089081610748565b811461089b57600080fd5b50565b6108a78161075a565b81146108b257600080fd5b50565b6108be8161076c565b81146108c957600080fd5b50565b6108d581610778565b81146108e057600080fd5b50565b6108ec816107aa565b81146108f757600080fd5b5056fea26469706673582212200c7962ca2f739cd222d8accbda8f6f5dcd1f4c244a3b5f5986031983deb7eddb64736f6c63430008070033a2646970667358221220d04a35e7eaff93b638777571852c3c8f679578352b4440b1c71f93390193500c64736f6c63430008070033",
					"opcodes": "PUSH1 0x80 PUSH1 0x40 MSTORE CALLVALUE DUP1 ISZERO PUSH2 0x10 JUMPI PUSH1 0x0 DUP1 REVERT JUMPDEST POP CALLER PUSH1 0x0 DUP1 PUSH2 0x100 EXP DUP2 SLOAD DUP2 PUSH20 0xFFFFFFFFFFFFFFFFFFFFFFFFFFFFFFFFFFFFFFFF MUL NOT AND SWAP1 DUP4 PUSH20 0xFFFFFFFFFFFFFFFFFFFFFFFFFFFFFFFFFFFFFFFF AND MUL OR SWAP1 SSTORE POP CALLER PUSH1 0x0 DUP1 PUSH2 0x100 EXP DUP2 SLOAD DUP2 PUSH20 0xFFFFFFFFFFFFFFFFFFFFFFFFFFFFFFFFFFFFFFFF MUL NOT AND SWAP1 DUP4 PUSH20 0xFFFFFFFFFFFFFFFFFFFFFFFFFFFFFFFFFFFFFFFF AND MUL OR SWAP1 SSTORE POP PUSH2 0x18C8 DUP1 PUSH2 0xA0 PUSH1 0x0 CODECOPY PUSH1 0x0 RETURN INVALID PUSH1 0x80 PUSH1 0x40 MSTORE PUSH1 0x4 CALLDATASIZE LT PUSH3 0x49 JUMPI PUSH1 0x0 CALLDATALOAD PUSH1 0xE0 SHR DUP1 PUSH4 0xC3B11A7 EQ PUSH3 0x59 JUMPI DUP1 PUSH4 0x14DA447F EQ PUSH3 0x9D JUMPI DUP1 PUSH4 0x859E0547 EQ PUSH3 0xCB JUMPI DUP1 PUSH4 0xF2FDE38B EQ PUSH3 0xEB JUMPI PUSH3 0x54 JUMP JUMPDEST CALLDATASIZE PUSH3 0x54 JUMPI PUSH1 0x0 DUP1 REVERT JUMPDEST PUSH1 0x0 DUP1 REVERT JUMPDEST CALLVALUE DUP1 ISZERO PUSH3 0x66 JUMPI PUSH1 0x0 DUP1 REVERT JUMPDEST POP PUSH3 0x85 PUSH1 0x4 DUP1 CALLDATASIZE SUB DUP2 ADD SWAP1 PUSH3 0x7F SWAP2 SWAP1 PUSH3 0x6F0 JUMP JUMPDEST PUSH3 0x119 JUMP JUMPDEST PUSH1 0x40 MLOAD PUSH3 0x94 SWAP2 SWAP1 PUSH3 0x81B JUMP JUMPDEST PUSH1 0x40 MLOAD DUP1 SWAP2 SUB SWAP1 RETURN JUMPDEST CALLVALUE DUP1 ISZERO PUSH3 0xAA JUMPI PUSH1 0x0 DUP1 REVERT JUMPDEST POP PUSH3 0xC9 PUSH1 0x4 DUP1 CALLDATASIZE SUB DUP2 ADD SWAP1 PUSH3 0xC3 SWAP2 SWAP1 PUSH3 0x626 JUMP JUMPDEST PUSH3 0x162 JUMP JUMPDEST STOP JUMPDEST PUSH3 0xE9 PUSH1 0x4 DUP1 CALLDATASIZE SUB DUP2 ADD SWAP1 PUSH3 0xE3 SWAP2 SWAP1 PUSH3 0x68A JUMP JUMPDEST PUSH3 0x1DA JUMP JUMPDEST STOP JUMPDEST CALLVALUE DUP1 ISZERO PUSH3 0xF8 JUMPI PUSH1 0x0 DUP1 REVERT JUMPDEST POP PUSH3 0x117 PUSH1 0x4 DUP1 CALLDATASIZE SUB DUP2 ADD SWAP1 PUSH3 0x111 SWAP2 SWAP1 PUSH3 0x5F4 JUMP JUMPDEST PUSH3 0x37F JUMP JUMPDEST STOP JUMPDEST PUSH1 0x2 DUP2 DUP1 MLOAD PUSH1 0x20 DUP2 ADD DUP3 ADD DUP1 MLOAD DUP5 DUP3 MSTORE PUSH1 0x20 DUP4 ADD PUSH1 0x20 DUP6 ADD KECCAK256 DUP2 DUP4 MSTORE DUP1 SWAP6 POP POP POP POP POP POP PUSH1 0x0 SWAP2 POP SLOAD SWAP1 PUSH2 0x100 EXP SWAP1 DIV PUSH20 0xFFFFFFFFFFFFFFFFFFFFFFFFFFFFFFFFFFFFFFFF AND DUP2 JUMP JUMPDEST PUSH1 0x0 DUP1 SLOAD SWAP1 PUSH2 0x100 EXP SWAP1 DIV PUSH20 0xFFFFFFFFFFFFFFFFFFFFFFFFFFFFFFFFFFFFFFFF AND PUSH20 0xFFFFFFFFFFFFFFFFFFFFFFFFFFFFFFFFFFFFFFFF AND CALLER PUSH20 0xFFFFFFFFFFFFFFFFFFFFFFFFFFFFFFFFFFFFFFFF AND EQ PUSH3 0x1C1 JUMPI PUSH3 0x1C0 PUSH3 0xA37 JUMP JUMPDEST JUMPDEST DUP1 PUSH20 0xFFFFFFFFFFFFFFFFFFFFFFFFFFFFFFFFFFFFFFFF AND SELFDESTRUCT JUMPDEST PUSH1 0x0 DUP2 ADDRESS PUSH1 0x40 MLOAD PUSH3 0x1EC SWAP1 PUSH3 0x523 JUMP JUMPDEST PUSH3 0x1F9 SWAP3 SWAP2 SWAP1 PUSH3 0x85C JUMP JUMPDEST PUSH1 0x40 MLOAD DUP1 SWAP2 SUB SWAP1 PUSH1 0x0 CREATE DUP1 ISZERO DUP1 ISZERO PUSH3 0x216 JUMPI RETURNDATASIZE PUSH1 0x0 DUP1 RETURNDATACOPY RETURNDATASIZE PUSH1 0x0 REVERT JUMPDEST POP SWAP1 POP DUP1 PUSH20 0xFFFFFFFFFFFFFFFFFFFFFFFFFFFFFFFFFFFFFFFF AND PUSH4 0x26B1D5F PUSH1 0x40 MLOAD DUP2 PUSH4 0xFFFFFFFF AND PUSH1 0xE0 SHL DUP2 MSTORE PUSH1 0x4 ADD PUSH1 0x20 PUSH1 0x40 MLOAD DUP1 DUP4 SUB DUP2 DUP7 DUP1 EXTCODESIZE ISZERO DUP1 ISZERO PUSH3 0x260 JUMPI PUSH1 0x0 DUP1 REVERT JUMPDEST POP GAS STATICCALL ISZERO DUP1 ISZERO PUSH3 0x275 JUMPI RETURNDATASIZE PUSH1 0x0 DUP1 RETURNDATACOPY RETURNDATASIZE PUSH1 0x0 REVERT JUMPDEST POP POP POP POP PUSH1 0x40 MLOAD RETURNDATASIZE PUSH1 0x1F NOT PUSH1 0x1F DUP3 ADD AND DUP3 ADD DUP1 PUSH1 0x40 MSTORE POP DUP2 ADD SWAP1 PUSH3 0x29B SWAP2 SWAP1 PUSH3 0x658 JUMP JUMPDEST PUSH20 0xFFFFFFFFFFFFFFFFFFFFFFFFFFFFFFFFFFFFFFFF AND PUSH2 0x8FC CALLVALUE SWAP1 DUP2 ISZERO MUL SWAP1 PUSH1 0x40 MLOAD PUSH1 0x0 PUSH1 0x40 MLOAD DUP1 DUP4 SUB DUP2 DUP6 DUP9 DUP9 CALL SWAP4 POP POP POP POP ISZERO DUP1 ISZERO PUSH3 0x2E1 JUMPI RETURNDATASIZE PUSH1 0x0 DUP1 RETURNDATACOPY RETURNDATASIZE PUSH1 0x0 REVERT JUMPDEST POP DUP1 PUSH1 0x2 DUP4 PUSH1 0x40 MLOAD PUSH3 0x2F5 SWAP2 SWAP1 PUSH3 0x802 JUMP JUMPDEST SWAP1 DUP2 MSTORE PUSH1 0x20 ADD PUSH1 0x40 MLOAD DUP1 SWAP2 SUB SWAP1 KECCAK256 PUSH1 0x0 PUSH2 0x100 EXP DUP2 SLOAD DUP2 PUSH20 0xFFFFFFFFFFFFFFFFFFFFFFFFFFFFFFFFFFFFFFFF MUL NOT AND SWAP1 DUP4 PUSH20 0xFFFFFFFFFFFFFFFFFFFFFFFFFFFFFFFFFFFFFFFF AND MUL OR SWAP1 SSTORE POP PUSH32 0x10DA9753E8E5347B65100331705A66228CAD7E14BB54DD9244A7AE532F1C01F9 DUP3 PUSH1 0x40 MLOAD PUSH3 0x372 SWAP2 SWAP1 PUSH3 0x838 JUMP JUMPDEST PUSH1 0x40 MLOAD DUP1 SWAP2 SUB SWAP1 LOG1 POP POP POP JUMP JUMPDEST PUSH1 0x0 DUP1 SLOAD SWAP1 PUSH2 0x100 EXP SWAP1 DIV PUSH20 0xFFFFFFFFFFFFFFFFFFFFFFFFFFFFFFFFFFFFFFFF AND PUSH20 0xFFFFFFFFFFFFFFFFFFFFFFFFFFFFFFFFFFFFFFFF AND CALLER PUSH20 0xFFFFFFFFFFFFFFFFFFFFFFFFFFFFFFFFFFFFFFFF AND EQ PUSH3 0x3DE JUMPI PUSH3 0x3DD PUSH3 0xA37 JUMP JUMPDEST JUMPDEST PUSH1 0x0 PUSH20 0xFFFFFFFFFFFFFFFFFFFFFFFFFFFFFFFFFFFFFFFF AND DUP2 PUSH20 0xFFFFFFFFFFFFFFFFFFFFFFFFFFFFFFFFFFFFFFFF AND EQ ISZERO PUSH3 0x451 JUMPI PUSH1 0x40 MLOAD PUSH32 0x8C379A000000000000000000000000000000000000000000000000000000000 DUP2 MSTORE PUSH1 0x4 ADD PUSH3 0x448 SWAP1 PUSH3 0x890 JUMP JUMPDEST PUSH1 0x40 MLOAD DUP1 SWAP2 SUB SWAP1 REVERT JUMPDEST PUSH3 0x45C DUP2 PUSH3 0x45F JUMP JUMPDEST POP JUMP JUMPDEST PUSH1 0x0 DUP1 PUSH1 0x0 SWAP1 SLOAD SWAP1 PUSH2 0x100 EXP SWAP1 DIV PUSH20 0xFFFFFFFFFFFFFFFFFFFFFFFFFFFFFFFFFFFFFFFF AND SWAP1 POP DUP2 PUSH1 0x0 DUP1 PUSH2 0x100 EXP DUP2 SLOAD DUP2 PUSH20 0xFFFFFFFFFFFFFFFFFFFFFFFFFFFFFFFFFFFFFFFF MUL NOT AND SWAP1 DUP4 PUSH20 0xFFFFFFFFFFFFFFFFFFFFFFFFFFFFFFFFFFFFFFFF AND MUL OR SWAP1 SSTORE POP DUP2 PUSH20 0xFFFFFFFFFFFFFFFFFFFFFFFFFFFFFFFFFFFFFFFF AND DUP2 PUSH20 0xFFFFFFFFFFFFFFFFFFFFFFFFFFFFFFFFFFFFFFFF AND PUSH32 0x8BE0079C531659141344CD1FD0A4F28419497F9722A3DAAFE3B4186F6B6457E0 PUSH1 0x40 MLOAD PUSH1 0x40 MLOAD DUP1 SWAP2 SUB SWAP1 LOG3 POP POP JUMP JUMPDEST PUSH2 0xD55 DUP1 PUSH3 0xB3E DUP4 CODECOPY ADD SWAP1 JUMP JUMPDEST PUSH1 0x0 PUSH3 0x548 PUSH3 0x542 DUP5 PUSH3 0x8DB JUMP JUMPDEST PUSH3 0x8B2 JUMP JUMPDEST SWAP1 POP DUP3 DUP2 MSTORE PUSH1 0x20 DUP2 ADD DUP5 DUP5 DUP5 ADD GT ISZERO PUSH3 0x567 JUMPI PUSH3 0x566 PUSH3 0xA9A JUMP JUMPDEST JUMPDEST PUSH3 0x574 DUP5 DUP3 DUP6 PUSH3 0x9BC JUMP JUMPDEST POP SWAP4 SWAP3 POP POP POP JUMP JUMPDEST PUSH1 0x0 DUP2 CALLDATALOAD SWAP1 POP PUSH3 0x58D DUP2 PUSH3 0xB09 JUMP JUMPDEST SWAP3 SWAP2 POP POP JUMP JUMPDEST PUSH1 0x0 DUP2 CALLDATALOAD SWAP1 POP PUSH3 0x5A4 DUP2 PUSH3 0xB23 JUMP JUMPDEST SWAP3 SWAP2 POP POP JUMP JUMPDEST PUSH1 0x0 DUP2 MLOAD SWAP1 POP PUSH3 0x5BB DUP2 PUSH3 0xB23 JUMP JUMPDEST SWAP3 SWAP2 POP POP JUMP JUMPDEST PUSH1 0x0 DUP3 PUSH1 0x1F DUP4 ADD SLT PUSH3 0x5D9 JUMPI PUSH3 0x5D8 PUSH3 0xA95 JUMP JUMPDEST JUMPDEST DUP2 CALLDATALOAD PUSH3 0x5EB DUP5 DUP3 PUSH1 0x20 DUP7 ADD PUSH3 0x531 JUMP JUMPDEST SWAP2 POP POP SWAP3 SWAP2 POP POP JUMP JUMPDEST PUSH1 0x0 PUSH1 0x20 DUP3 DUP5 SUB SLT ISZERO PUSH3 0x60D JUMPI PUSH3 0x60C PUSH3 0xAA4 JUMP JUMPDEST JUMPDEST PUSH1 0x0 PUSH3 0x61D DUP5 DUP3 DUP6 ADD PUSH3 0x57C JUMP JUMPDEST SWAP2 POP POP SWAP3 SWAP2 POP POP JUMP JUMPDEST PUSH1 0x0 PUSH1 0x20 DUP3 DUP5 SUB SLT ISZERO PUSH3 0x63F JUMPI PUSH3 0x63E PUSH3 0xAA4 JUMP JUMPDEST JUMPDEST PUSH1 0x0 PUSH3 0x64F DUP5 DUP3 DUP6 ADD PUSH3 0x593 JUMP JUMPDEST SWAP2 POP POP SWAP3 SWAP2 POP POP JUMP JUMPDEST PUSH1 0x0 PUSH1 0x20 DUP3 DUP5 SUB SLT ISZERO PUSH3 0x671 JUMPI PUSH3 0x670 PUSH3 0xAA4 JUMP JUMPDEST JUMPDEST PUSH1 0x0 PUSH3 0x681 DUP5 DUP3 DUP6 ADD PUSH3 0x5AA JUMP JUMPDEST SWAP2 POP POP SWAP3 SWAP2 POP POP JUMP JUMPDEST PUSH1 0x0 DUP1 PUSH1 0x40 DUP4 DUP6 SUB SLT ISZERO PUSH3 0x6A4 JUMPI PUSH3 0x6A3 PUSH3 0xAA4 JUMP JUMPDEST JUMPDEST PUSH1 0x0 PUSH3 0x6B4 DUP6 DUP3 DUP7 ADD PUSH3 0x57C JUMP JUMPDEST SWAP3 POP POP PUSH1 0x20 DUP4 ADD CALLDATALOAD PUSH8 0xFFFFFFFFFFFFFFFF DUP2 GT ISZERO PUSH3 0x6D8 JUMPI PUSH3 0x6D7 PUSH3 0xA9F JUMP JUMPDEST JUMPDEST PUSH3 0x6E6 DUP6 DUP3 DUP7 ADD PUSH3 0x5C1 JUMP JUMPDEST SWAP2 POP POP SWAP3 POP SWAP3 SWAP1 POP JUMP JUMPDEST PUSH1 0x0 PUSH1 0x20 DUP3 DUP5 SUB SLT ISZERO PUSH3 0x709 JUMPI PUSH3 0x708 PUSH3 0xAA4 JUMP JUMPDEST JUMPDEST PUSH1 0x0 DUP3 ADD CALLDATALOAD PUSH8 0xFFFFFFFFFFFFFFFF DUP2 GT ISZERO PUSH3 0x72A JUMPI PUSH3 0x729 PUSH3 0xA9F JUMP JUMPDEST JUMPDEST PUSH3 0x738 DUP5 DUP3 DUP6 ADD PUSH3 0x5C1 JUMP JUMPDEST SWAP2 POP POP SWAP3 SWAP2 POP POP JUMP JUMPDEST PUSH3 0x74C DUP2 PUSH3 0x938 JUMP JUMPDEST DUP3 MSTORE POP POP JUMP JUMPDEST PUSH3 0x75D DUP2 PUSH3 0x980 JUMP JUMPDEST DUP3 MSTORE POP POP JUMP JUMPDEST PUSH1 0x0 PUSH3 0x770 DUP3 PUSH3 0x911 JUMP JUMPDEST PUSH3 0x77C DUP2 DUP6 PUSH3 0x91C JUMP JUMPDEST SWAP4 POP PUSH3 0x78E DUP2 DUP6 PUSH1 0x20 DUP7 ADD PUSH3 0x9CB JUMP JUMPDEST PUSH3 0x799 DUP2 PUSH3 0xAA9 JUMP JUMPDEST DUP5 ADD SWAP2 POP POP SWAP3 SWAP2 POP POP JUMP JUMPDEST PUSH1 0x0 PUSH3 0x7B1 DUP3 PUSH3 0x911 JUMP JUMPDEST PUSH3 0x7BD DUP2 DUP6 PUSH3 0x92D JUMP JUMPDEST SWAP4 POP PUSH3 0x7CF DUP2 DUP6 PUSH1 0x20 DUP7 ADD PUSH3 0x9CB JUMP JUMPDEST DUP1 DUP5 ADD SWAP2 POP POP SWAP3 SWAP2 POP POP JUMP JUMPDEST PUSH1 0x0 PUSH3 0x7EA PUSH1 0x26 DUP4 PUSH3 0x91C JUMP JUMPDEST SWAP2 POP PUSH3 0x7F7 DUP3 PUSH3 0xABA JUMP JUMPDEST PUSH1 0x40 DUP3 ADD SWAP1 POP SWAP2 SWAP1 POP JUMP JUMPDEST PUSH1 0x0 PUSH3 0x810 DUP3 DUP5 PUSH3 0x7A4 JUMP JUMPDEST SWAP2 POP DUP2 SWAP1 POP SWAP3 SWAP2 POP POP JUMP JUMPDEST PUSH1 0x0 PUSH1 0x20 DUP3 ADD SWAP1 POP PUSH3 0x832 PUSH1 0x0 DUP4 ADD DUP5 PUSH3 0x752 JUMP JUMPDEST SWAP3 SWAP2 POP POP JUMP JUMPDEST PUSH1 0x0 PUSH1 0x20 DUP3 ADD SWAP1 POP DUP2 DUP2 SUB PUSH1 0x0 DUP4 ADD MSTORE PUSH3 0x854 DUP2 DUP5 PUSH3 0x763 JUMP JUMPDEST SWAP1 POP SWAP3 SWAP2 POP POP JUMP JUMPDEST PUSH1 0x0 PUSH1 0x40 DUP3 ADD SWAP1 POP DUP2 DUP2 SUB PUSH1 0x0 DUP4 ADD MSTORE PUSH3 0x878 DUP2 DUP6 PUSH3 0x763 JUMP JUMPDEST SWAP1 POP PUSH3 0x889 PUSH1 0x20 DUP4 ADD DUP5 PUSH3 0x741 JUMP JUMPDEST SWAP4 SWAP3 POP POP POP JUMP JUMPDEST PUSH1 0x0 PUSH1 0x20 DUP3 ADD SWAP1 POP DUP2 DUP2 SUB PUSH1 0x0 DUP4 ADD MSTORE PUSH3 0x8AB DUP2 PUSH3 0x7DB JUMP JUMPDEST SWAP1 POP SWAP2 SWAP1 POP JUMP JUMPDEST PUSH1 0x0 PUSH3 0x8BE PUSH3 0x8D1 JUMP JUMPDEST SWAP1 POP PUSH3 0x8CC DUP3 DUP3 PUSH3 0xA01 JUMP JUMPDEST SWAP2 SWAP1 POP JUMP JUMPDEST PUSH1 0x0 PUSH1 0x40 MLOAD SWAP1 POP SWAP1 JUMP JUMPDEST PUSH1 0x0 PUSH8 0xFFFFFFFFFFFFFFFF DUP3 GT ISZERO PUSH3 0x8F9 JUMPI PUSH3 0x8F8 PUSH3 0xA66 JUMP JUMPDEST JUMPDEST PUSH3 0x904 DUP3 PUSH3 0xAA9 JUMP JUMPDEST SWAP1 POP PUSH1 0x20 DUP2 ADD SWAP1 POP SWAP2 SWAP1 POP JUMP JUMPDEST PUSH1 0x0 DUP2 MLOAD SWAP1 POP SWAP2 SWAP1 POP JUMP JUMPDEST PUSH1 0x0 DUP3 DUP3 MSTORE PUSH1 0x20 DUP3 ADD SWAP1 POP SWAP3 SWAP2 POP POP JUMP JUMPDEST PUSH1 0x0 DUP2 SWAP1 POP SWAP3 SWAP2 POP POP JUMP JUMPDEST PUSH1 0x0 PUSH3 0x945 DUP3 PUSH3 0x960 JUMP JUMPDEST SWAP1 POP SWAP2 SWAP1 POP JUMP JUMPDEST PUSH1 0x0 PUSH3 0x959 DUP3 PUSH3 0x960 JUMP JUMPDEST SWAP1 POP SWAP2 SWAP1 POP JUMP JUMPDEST PUSH1 0x0 PUSH20 0xFFFFFFFFFFFFFFFFFFFFFFFFFFFFFFFFFFFFFFFF DUP3 AND SWAP1 POP SWAP2 SWAP1 POP JUMP JUMPDEST PUSH1 0x0 PUSH3 0x98D DUP3 PUSH3 0x994 JUMP JUMPDEST SWAP1 POP SWAP2 SWAP1 POP JUMP JUMPDEST PUSH1 0x0 PUSH3 0x9A1 DUP3 PUSH3 0x9A8 JUMP JUMPDEST SWAP1 POP SWAP2 SWAP1 POP JUMP JUMPDEST PUSH1 0x0 PUSH3 0x9B5 DUP3 PUSH3 0x960 JUMP JUMPDEST SWAP1 POP SWAP2 SWAP1 POP JUMP JUMPDEST DUP3 DUP2 DUP4 CALLDATACOPY PUSH1 0x0 DUP4 DUP4 ADD MSTORE POP POP POP JUMP JUMPDEST PUSH1 0x0 JUMPDEST DUP4 DUP2 LT ISZERO PUSH3 0x9EB JUMPI DUP1 DUP3 ADD MLOAD DUP2 DUP5 ADD MSTORE PUSH1 0x20 DUP2 ADD SWAP1 POP PUSH3 0x9CE JUMP JUMPDEST DUP4 DUP2 GT ISZERO PUSH3 0x9FB JUMPI PUSH1 0x0 DUP5 DUP5 ADD MSTORE JUMPDEST POP POP POP POP JUMP JUMPDEST PUSH3 0xA0C DUP3 PUSH3 0xAA9 JUMP JUMPDEST DUP2 ADD DUP2 DUP2 LT PUSH8 0xFFFFFFFFFFFFFFFF DUP3 GT OR ISZERO PUSH3 0xA2E JUMPI PUSH3 0xA2D PUSH3 0xA66 JUMP JUMPDEST JUMPDEST DUP1 PUSH1 0x40 MSTORE POP POP POP JUMP JUMPDEST PUSH32 0x4E487B7100000000000000000000000000000000000000000000000000000000 PUSH1 0x0 MSTORE PUSH1 0x1 PUSH1 0x4 MSTORE PUSH1 0x24 PUSH1 0x0 REVERT JUMPDEST PUSH32 0x4E487B7100000000000000000000000000000000000000000000000000000000 PUSH1 0x0 MSTORE PUSH1 0x41 PUSH1 0x4 MSTORE PUSH1 0x24 PUSH1 0x0 REVERT JUMPDEST PUSH1 0x0 DUP1 REVERT JUMPDEST PUSH1 0x0 DUP1 REVERT JUMPDEST PUSH1 0x0 DUP1 REVERT JUMPDEST PUSH1 0x0 DUP1 REVERT JUMPDEST PUSH1 0x0 PUSH1 0x1F NOT PUSH1 0x1F DUP4 ADD AND SWAP1 POP SWAP2 SWAP1 POP JUMP JUMPDEST PUSH32 0x4F776E61626C653A206E6577206F776E657220697320746865207A65726F2061 PUSH1 0x0 DUP3 ADD MSTORE PUSH32 0x6464726573730000000000000000000000000000000000000000000000000000 PUSH1 0x20 DUP3 ADD MSTORE POP JUMP JUMPDEST PUSH3 0xB14 DUP2 PUSH3 0x938 JUMP JUMPDEST DUP2 EQ PUSH3 0xB20 JUMPI PUSH1 0x0 DUP1 REVERT JUMPDEST POP JUMP JUMPDEST PUSH3 0xB2E DUP2 PUSH3 0x94C JUMP JUMPDEST DUP2 EQ PUSH3 0xB3A JUMPI PUSH1 0x0 DUP1 REVERT JUMPDEST POP JUMP INVALID PUSH1 0x80 PUSH1 0x40 MSTORE CALLVALUE DUP1 ISZERO PUSH3 0x11 JUMPI PUSH1 0x0 DUP1 REVERT JUMPDEST POP PUSH1 0x40 MLOAD PUSH3 0xD55 CODESIZE SUB DUP1 PUSH3 0xD55 DUP4 CODECOPY DUP2 DUP2 ADD PUSH1 0x40 MSTORE DUP2 ADD SWAP1 PUSH3 0x37 SWAP2 SWAP1 PUSH3 0x1DD JUMP JUMPDEST DUP2 PUSH1 0x1 SWAP1 DUP1 MLOAD SWAP1 PUSH1 0x20 ADD SWAP1 PUSH3 0x4F SWAP3 SWAP2 SWAP1 PUSH3 0x98 JUMP JUMPDEST POP DUP1 PUSH1 0x0 DUP1 PUSH2 0x100 EXP DUP2 SLOAD DUP2 PUSH20 0xFFFFFFFFFFFFFFFFFFFFFFFFFFFFFFFFFFFFFFFF MUL NOT AND SWAP1 DUP4 PUSH20 0xFFFFFFFFFFFFFFFFFFFFFFFFFFFFFFFFFFFFFFFF AND MUL OR SWAP1 SSTORE POP POP POP PUSH3 0x415 JUMP JUMPDEST DUP3 DUP1 SLOAD PUSH3 0xA6 SWAP1 PUSH3 0x30C JUMP JUMPDEST SWAP1 PUSH1 0x0 MSTORE PUSH1 0x20 PUSH1 0x0 KECCAK256 SWAP1 PUSH1 0x1F ADD PUSH1 0x20 SWAP1 DIV DUP2 ADD SWAP3 DUP3 PUSH3 0xCA JUMPI PUSH1 0x0 DUP6 SSTORE PUSH3 0x116 JUMP JUMPDEST DUP3 PUSH1 0x1F LT PUSH3 0xE5 JUMPI DUP1 MLOAD PUSH1 0xFF NOT AND DUP4 DUP1 ADD OR DUP6 SSTORE PUSH3 0x116 JUMP JUMPDEST DUP3 DUP1 ADD PUSH1 0x1 ADD DUP6 SSTORE DUP3 ISZERO PUSH3 0x116 JUMPI SWAP2 DUP3 ADD JUMPDEST DUP3 DUP2 GT ISZERO PUSH3 0x115 JUMPI DUP3 MLOAD DUP3 SSTORE SWAP2 PUSH1 0x20 ADD SWAP2 SWAP1 PUSH1 0x1 ADD SWAP1 PUSH3 0xF8 JUMP JUMPDEST JUMPDEST POP SWAP1 POP PUSH3 0x125 SWAP2 SWAP1 PUSH3 0x129 JUMP JUMPDEST POP SWAP1 JUMP JUMPDEST JUMPDEST DUP1 DUP3 GT ISZERO PUSH3 0x144 JUMPI PUSH1 0x0 DUP2 PUSH1 0x0 SWAP1 SSTORE POP PUSH1 0x1 ADD PUSH3 0x12A JUMP JUMPDEST POP SWAP1 JUMP JUMPDEST PUSH1 0x0 PUSH3 0x15F PUSH3 0x159 DUP5 PUSH3 0x26C JUMP JUMPDEST PUSH3 0x243 JUMP JUMPDEST SWAP1 POP DUP3 DUP2 MSTORE PUSH1 0x20 DUP2 ADD DUP5 DUP5 DUP5 ADD GT ISZERO PUSH3 0x17E JUMPI PUSH3 0x17D PUSH3 0x3DB JUMP JUMPDEST JUMPDEST PUSH3 0x18B DUP5 DUP3 DUP6 PUSH3 0x2D6 JUMP JUMPDEST POP SWAP4 SWAP3 POP POP POP JUMP JUMPDEST PUSH1 0x0 DUP2 MLOAD SWAP1 POP PUSH3 0x1A4 DUP2 PUSH3 0x3FB JUMP JUMPDEST SWAP3 SWAP2 POP POP JUMP JUMPDEST PUSH1 0x0 DUP3 PUSH1 0x1F DUP4 ADD SLT PUSH3 0x1C2 JUMPI PUSH3 0x1C1 PUSH3 0x3D6 JUMP JUMPDEST JUMPDEST DUP2 MLOAD PUSH3 0x1D4 DUP5 DUP3 PUSH1 0x20 DUP7 ADD PUSH3 0x148 JUMP JUMPDEST SWAP2 POP POP SWAP3 SWAP2 POP POP JUMP JUMPDEST PUSH1 0x0 DUP1 PUSH1 0x40 DUP4 DUP6 SUB SLT ISZERO PUSH3 0x1F7 JUMPI PUSH3 0x1F6 PUSH3 0x3E5 JUMP JUMPDEST JUMPDEST PUSH1 0x0 DUP4 ADD MLOAD PUSH8 0xFFFFFFFFFFFFFFFF DUP2 GT ISZERO PUSH3 0x218 JUMPI PUSH3 0x217 PUSH3 0x3E0 JUMP JUMPDEST JUMPDEST PUSH3 0x226 DUP6 DUP3 DUP7 ADD PUSH3 0x1AA JUMP JUMPDEST SWAP3 POP POP PUSH1 0x20 PUSH3 0x239 DUP6 DUP3 DUP7 ADD PUSH3 0x193 JUMP JUMPDEST SWAP2 POP POP SWAP3 POP SWAP3 SWAP1 POP JUMP JUMPDEST PUSH1 0x0 PUSH3 0x24F PUSH3 0x262 JUMP JUMPDEST SWAP1 POP PUSH3 0x25D DUP3 DUP3 PUSH3 0x342 JUMP JUMPDEST SWAP2 SWAP1 POP JUMP JUMPDEST PUSH1 0x0 PUSH1 0x40 MLOAD SWAP1 POP SWAP1 JUMP JUMPDEST PUSH1 0x0 PUSH8 0xFFFFFFFFFFFFFFFF DUP3 GT ISZERO PUSH3 0x28A JUMPI PUSH3 0x289 PUSH3 0x3A7 JUMP JUMPDEST JUMPDEST PUSH3 0x295 DUP3 PUSH3 0x3EA JUMP JUMPDEST SWAP1 POP PUSH1 0x20 DUP2 ADD SWAP1 POP SWAP2 SWAP1 POP JUMP JUMPDEST PUSH1 0x0 PUSH3 0x2AF DUP3 PUSH3 0x2B6 JUMP JUMPDEST SWAP1 POP SWAP2 SWAP1 POP JUMP JUMPDEST PUSH1 0x0 PUSH20 0xFFFFFFFFFFFFFFFFFFFFFFFFFFFFFFFFFFFFFFFF DUP3 AND SWAP1 POP SWAP2 SWAP1 POP JUMP JUMPDEST PUSH1 0x0 JUMPDEST DUP4 DUP2 LT ISZERO PUSH3 0x2F6 JUMPI DUP1 DUP3 ADD MLOAD DUP2 DUP5 ADD MSTORE PUSH1 0x20 DUP2 ADD SWAP1 POP PUSH3 0x2D9 JUMP JUMPDEST DUP4 DUP2 GT ISZERO PUSH3 0x306 JUMPI PUSH1 0x0 DUP5 DUP5 ADD MSTORE JUMPDEST POP POP POP POP JUMP JUMPDEST PUSH1 0x0 PUSH1 0x2 DUP3 DIV SWAP1 POP PUSH1 0x1 DUP3 AND DUP1 PUSH3 0x325 JUMPI PUSH1 0x7F DUP3 AND SWAP2 POP JUMPDEST PUSH1 0x20 DUP3 LT DUP2 EQ ISZERO PUSH3 0x33C JUMPI PUSH3 0x33B PUSH3 0x378 JUMP JUMPDEST JUMPDEST POP SWAP2 SWAP1 POP JUMP JUMPDEST PUSH3 0x34D DUP3 PUSH3 0x3EA JUMP JUMPDEST DUP2 ADD DUP2 DUP2 LT PUSH8 0xFFFFFFFFFFFFFFFF DUP3 GT OR ISZERO PUSH3 0x36F JUMPI PUSH3 0x36E PUSH3 0x3A7 JUMP JUMPDEST JUMPDEST DUP1 PUSH1 0x40 MSTORE POP POP POP JUMP JUMPDEST PUSH32 0x4E487B7100000000000000000000000000000000000000000000000000000000 PUSH1 0x0 MSTORE PUSH1 0x22 PUSH1 0x4 MSTORE PUSH1 0x24 PUSH1 0x0 REVERT JUMPDEST PUSH32 0x4E487B7100000000000000000000000000000000000000000000000000000000 PUSH1 0x0 MSTORE PUSH1 0x41 PUSH1 0x4 MSTORE PUSH1 0x24 PUSH1 0x0 REVERT JUMPDEST PUSH1 0x0 DUP1 REVERT JUMPDEST PUSH1 0x0 DUP1 REVERT JUMPDEST PUSH1 0x0 DUP1 REVERT JUMPDEST PUSH1 0x0 DUP1 REVERT JUMPDEST PUSH1 0x0 PUSH1 0x1F NOT PUSH1 0x1F DUP4 ADD AND SWAP1 POP SWAP2 SWAP1 POP JUMP JUMPDEST PUSH3 0x406 DUP2 PUSH3 0x2A2 JUMP JUMPDEST DUP2 EQ PUSH3 0x412 JUMPI PUSH1 0x0 DUP1 REVERT JUMPDEST POP JUMP JUMPDEST PUSH2 0x930 DUP1 PUSH3 0x425 PUSH1 0x0 CODECOPY PUSH1 0x0 RETURN INVALID PUSH1 0x80 PUSH1 0x40 MSTORE PUSH1 0x4 CALLDATASIZE LT PUSH2 0x74 JUMPI PUSH1 0x0 CALLDATALOAD PUSH1 0xE0 SHR DUP1 PUSH4 0xAF640D0F GT PUSH2 0x4E JUMPI DUP1 PUSH4 0xAF640D0F EQ PUSH2 0x180 JUMPI DUP1 PUSH4 0xBEABACC8 EQ PUSH2 0x1AB JUMPI DUP1 PUSH4 0xD0E30DB0 EQ PUSH2 0x1D4 JUMPI DUP1 PUSH4 0xE1F21C67 EQ PUSH2 0x1DE JUMPI PUSH2 0x10B JUMP JUMPDEST DUP1 PUSH4 0x26B1D5F EQ PUSH2 0x110 JUMPI DUP1 PUSH4 0x13658F8A EQ PUSH2 0x13B JUMPI DUP1 PUSH4 0x23B872DD EQ PUSH2 0x157 JUMPI PUSH2 0x10B JUMP JUMPDEST CALLDATASIZE PUSH2 0x10B JUMPI PUSH1 0x0 PUSH20 0xFFFFFFFFFFFFFFFFFFFFFFFFFFFFFFFFFFFFFFFF AND PUSH1 0x0 DUP1 SLOAD SWAP1 PUSH2 0x100 EXP SWAP1 DIV PUSH20 0xFFFFFFFFFFFFFFFFFFFFFFFFFFFFFFFFFFFFFFFF AND PUSH20 0xFFFFFFFFFFFFFFFFFFFFFFFFFFFFFFFFFFFFFFFF AND EQ ISZERO PUSH2 0x109 JUMPI PUSH1 0x40 MLOAD PUSH32 0x8C379A000000000000000000000000000000000000000000000000000000000 DUP2 MSTORE PUSH1 0x4 ADD PUSH2 0x100 SWAP1 PUSH2 0x70C JUMP JUMPDEST PUSH1 0x40 MLOAD DUP1 SWAP2 SUB SWAP1 REVERT JUMPDEST STOP JUMPDEST PUSH1 0x0 DUP1 REVERT JUMPDEST CALLVALUE DUP1 ISZERO PUSH2 0x11C JUMPI PUSH1 0x0 DUP1 REVERT JUMPDEST POP PUSH2 0x125 PUSH2 0x207 JUMP JUMPDEST PUSH1 0x40 MLOAD PUSH2 0x132 SWAP2 SWAP1 PUSH2 0x66F JUMP JUMPDEST PUSH1 0x40 MLOAD DUP1 SWAP2 SUB SWAP1 RETURN JUMPDEST PUSH2 0x155 PUSH1 0x4 DUP1 CALLDATASIZE SUB DUP2 ADD SWAP1 PUSH2 0x150 SWAP2 SWAP1 PUSH2 0x526 JUMP JUMPDEST PUSH2 0x20F JUMP JUMPDEST STOP JUMPDEST CALLVALUE DUP1 ISZERO PUSH2 0x163 JUMPI PUSH1 0x0 DUP1 REVERT JUMPDEST POP PUSH2 0x17E PUSH1 0x4 DUP1 CALLDATASIZE SUB DUP2 ADD SWAP1 PUSH2 0x179 SWAP2 SWAP1 PUSH2 0x593 JUMP JUMPDEST PUSH2 0x25A JUMP JUMPDEST STOP JUMPDEST CALLVALUE DUP1 ISZERO PUSH2 0x18C JUMPI PUSH1 0x0 DUP1 REVERT JUMPDEST POP PUSH2 0x195 PUSH2 0x2F7 JUMP JUMPDEST PUSH1 0x40 MLOAD PUSH2 0x1A2 SWAP2 SWAP1 PUSH2 0x6EA JUMP JUMPDEST PUSH1 0x40 MLOAD DUP1 SWAP2 SUB SWAP1 RETURN JUMPDEST CALLVALUE DUP1 ISZERO PUSH2 0x1B7 JUMPI PUSH1 0x0 DUP1 REVERT JUMPDEST POP PUSH2 0x1D2 PUSH1 0x4 DUP1 CALLDATASIZE SUB DUP2 ADD SWAP1 PUSH2 0x1CD SWAP2 SWAP1 PUSH2 0x593 JUMP JUMPDEST PUSH2 0x385 JUMP JUMPDEST STOP JUMPDEST PUSH2 0x1DC PUSH2 0x420 JUMP JUMPDEST STOP JUMPDEST CALLVALUE DUP1 ISZERO PUSH2 0x1EA JUMPI PUSH1 0x0 DUP1 REVERT JUMPDEST POP PUSH2 0x205 PUSH1 0x4 DUP1 CALLDATASIZE SUB DUP2 ADD SWAP1 PUSH2 0x200 SWAP2 SWAP1 PUSH2 0x593 JUMP JUMPDEST PUSH2 0x422 JUMP JUMPDEST STOP JUMPDEST PUSH1 0x0 ADDRESS SWAP1 POP SWAP1 JUMP JUMPDEST DUP2 PUSH20 0xFFFFFFFFFFFFFFFFFFFFFFFFFFFFFFFFFFFFFFFF AND PUSH2 0x8FC DUP3 SWAP1 DUP2 ISZERO MUL SWAP1 PUSH1 0x40 MLOAD PUSH1 0x0 PUSH1 0x40 MLOAD DUP1 DUP4 SUB DUP2 DUP6 DUP9 DUP9 CALL SWAP4 POP POP POP POP ISZERO DUP1 ISZERO PUSH2 0x255 JUMPI RETURNDATASIZE PUSH1 0x0 DUP1 RETURNDATACOPY RETURNDATASIZE PUSH1 0x0 REVERT JUMPDEST POP POP POP JUMP JUMPDEST DUP3 PUSH20 0xFFFFFFFFFFFFFFFFFFFFFFFFFFFFFFFFFFFFFFFF AND PUSH4 0x23B872DD ADDRESS DUP5 DUP5 PUSH1 0x40 MLOAD DUP5 PUSH4 0xFFFFFFFF AND PUSH1 0xE0 SHL DUP2 MSTORE PUSH1 0x4 ADD PUSH2 0x297 SWAP4 SWAP3 SWAP2 SWAP1 PUSH2 0x68A JUMP JUMPDEST PUSH1 0x20 PUSH1 0x40 MLOAD DUP1 DUP4 SUB DUP2 PUSH1 0x0 DUP8 DUP1 EXTCODESIZE ISZERO DUP1 ISZERO PUSH2 0x2B1 JUMPI PUSH1 0x0 DUP1 REVERT JUMPDEST POP GAS CALL ISZERO DUP1 ISZERO PUSH2 0x2C5 JUMPI RETURNDATASIZE PUSH1 0x0 DUP1 RETURNDATACOPY RETURNDATASIZE PUSH1 0x0 REVERT JUMPDEST POP POP POP POP PUSH1 0x40 MLOAD RETURNDATASIZE PUSH1 0x1F NOT PUSH1 0x1F DUP3 ADD AND DUP3 ADD DUP1 PUSH1 0x40 MSTORE POP DUP2 ADD SWAP1 PUSH2 0x2E9 SWAP2 SWAP1 PUSH2 0x566 JUMP JUMPDEST PUSH2 0x2F2 JUMPI PUSH1 0x0 DUP1 REVERT JUMPDEST POP POP POP JUMP JUMPDEST PUSH1 0x1 DUP1 SLOAD PUSH2 0x304 SWAP1 PUSH2 0x7E7 JUMP JUMPDEST DUP1 PUSH1 0x1F ADD PUSH1 0x20 DUP1 SWAP2 DIV MUL PUSH1 0x20 ADD PUSH1 0x40 MLOAD SWAP1 DUP2 ADD PUSH1 0x40 MSTORE DUP1 SWAP3 SWAP2 SWAP1 DUP2 DUP2 MSTORE PUSH1 0x20 ADD DUP3 DUP1 SLOAD PUSH2 0x330 SWAP1 PUSH2 0x7E7 JUMP JUMPDEST DUP1 ISZERO PUSH2 0x37D JUMPI DUP1 PUSH1 0x1F LT PUSH2 0x352 JUMPI PUSH2 0x100 DUP1 DUP4 SLOAD DIV MUL DUP4 MSTORE SWAP2 PUSH1 0x20 ADD SWAP2 PUSH2 0x37D JUMP JUMPDEST DUP3 ADD SWAP2 SWAP1 PUSH1 0x0 MSTORE PUSH1 0x20 PUSH1 0x0 KECCAK256 SWAP1 JUMPDEST DUP2 SLOAD DUP2 MSTORE SWAP1 PUSH1 0x1 ADD SWAP1 PUSH1 0x20 ADD DUP1 DUP4 GT PUSH2 0x360 JUMPI DUP3 SWAP1 SUB PUSH1 0x1F AND DUP3 ADD SWAP2 JUMPDEST POP POP POP POP POP DUP2 JUMP JUMPDEST DUP3 PUSH20 0xFFFFFFFFFFFFFFFFFFFFFFFFFFFFFFFFFFFFFFFF AND PUSH4 0xA9059CBB DUP4 DUP4 PUSH1 0x40 MLOAD DUP4 PUSH4 0xFFFFFFFF AND PUSH1 0xE0 SHL DUP2 MSTORE PUSH1 0x4 ADD PUSH2 0x3C0 SWAP3 SWAP2 SWAP1 PUSH2 0x6C1 JUMP JUMPDEST PUSH1 0x20 PUSH1 0x40 MLOAD DUP1 DUP4 SUB DUP2 PUSH1 0x0 DUP8 DUP1 EXTCODESIZE ISZERO DUP1 ISZERO PUSH2 0x3DA JUMPI PUSH1 0x0 DUP1 REVERT JUMPDEST POP GAS CALL ISZERO DUP1 ISZERO PUSH2 0x3EE JUMPI RETURNDATASIZE PUSH1 0x0 DUP1 RETURNDATACOPY RETURNDATASIZE PUSH1 0x0 REVERT JUMPDEST POP POP POP POP PUSH1 0x40 MLOAD RETURNDATASIZE PUSH1 0x1F NOT PUSH1 0x1F DUP3 ADD AND DUP3 ADD DUP1 PUSH1 0x40 MSTORE POP DUP2 ADD SWAP1 PUSH2 0x412 SWAP2 SWAP1 PUSH2 0x566 JUMP JUMPDEST PUSH2 0x41B JUMPI PUSH1 0x0 DUP1 REVERT JUMPDEST POP POP POP JUMP JUMPDEST JUMP JUMPDEST DUP3 PUSH20 0xFFFFFFFFFFFFFFFFFFFFFFFFFFFFFFFFFFFFFFFF AND PUSH4 0x95EA7B3 DUP4 DUP4 PUSH1 0x40 MLOAD DUP4 PUSH4 0xFFFFFFFF AND PUSH1 0xE0 SHL DUP2 MSTORE PUSH1 0x4 ADD PUSH2 0x45D SWAP3 SWAP2 SWAP1 PUSH2 0x6C1 JUMP JUMPDEST PUSH1 0x20 PUSH1 0x40 MLOAD DUP1 DUP4 SUB DUP2 PUSH1 0x0 DUP8 DUP1 EXTCODESIZE ISZERO DUP1 ISZERO PUSH2 0x477 JUMPI PUSH1 0x0 DUP1 REVERT JUMPDEST POP GAS CALL ISZERO DUP1 ISZERO PUSH2 0x48B JUMPI RETURNDATASIZE PUSH1 0x0 DUP1 RETURNDATACOPY RETURNDATASIZE PUSH1 0x0 REVERT JUMPDEST POP POP POP POP PUSH1 0x40 MLOAD RETURNDATASIZE PUSH1 0x1F NOT PUSH1 0x1F DUP3 ADD AND DUP3 ADD DUP1 PUSH1 0x40 MSTORE POP DUP2 ADD SWAP1 PUSH2 0x4AF SWAP2 SWAP1 PUSH2 0x566 JUMP JUMPDEST PUSH2 0x4B8 JUMPI PUSH1 0x0 DUP1 REVERT JUMPDEST POP POP POP JUMP JUMPDEST PUSH1 0x0 DUP2 CALLDATALOAD SWAP1 POP PUSH2 0x4CC DUP2 PUSH2 0x887 JUMP JUMPDEST SWAP3 SWAP2 POP POP JUMP JUMPDEST PUSH1 0x0 DUP2 CALLDATALOAD SWAP1 POP PUSH2 0x4E1 DUP2 PUSH2 0x89E JUMP JUMPDEST SWAP3 SWAP2 POP POP JUMP JUMPDEST PUSH1 0x0 DUP2 MLOAD SWAP1 POP PUSH2 0x4F6 DUP2 PUSH2 0x8B5 JUMP JUMPDEST SWAP3 SWAP2 POP POP JUMP JUMPDEST PUSH1 0x0 DUP2 CALLDATALOAD SWAP1 POP PUSH2 0x50B DUP2 PUSH2 0x8CC JUMP JUMPDEST SWAP3 SWAP2 POP POP JUMP JUMPDEST PUSH1 0x0 DUP2 CALLDATALOAD SWAP1 POP PUSH2 0x520 DUP2 PUSH2 0x8E3 JUMP JUMPDEST SWAP3 SWAP2 POP POP JUMP JUMPDEST PUSH1 0x0 DUP1 PUSH1 0x40 DUP4 DUP6 SUB SLT ISZERO PUSH2 0x53D JUMPI PUSH2 0x53C PUSH2 0x848 JUMP JUMPDEST JUMPDEST PUSH1 0x0 PUSH2 0x54B DUP6 DUP3 DUP7 ADD PUSH2 0x4D2 JUMP JUMPDEST SWAP3 POP POP PUSH1 0x20 PUSH2 0x55C DUP6 DUP3 DUP7 ADD PUSH2 0x511 JUMP JUMPDEST SWAP2 POP POP SWAP3 POP SWAP3 SWAP1 POP JUMP JUMPDEST PUSH1 0x0 PUSH1 0x20 DUP3 DUP5 SUB SLT ISZERO PUSH2 0x57C JUMPI PUSH2 0x57B PUSH2 0x848 JUMP JUMPDEST JUMPDEST PUSH1 0x0 PUSH2 0x58A DUP5 DUP3 DUP6 ADD PUSH2 0x4E7 JUMP JUMPDEST SWAP2 POP POP SWAP3 SWAP2 POP POP JUMP JUMPDEST PUSH1 0x0 DUP1 PUSH1 0x0 PUSH1 0x60 DUP5 DUP7 SUB SLT ISZERO PUSH2 0x5AC JUMPI PUSH2 0x5AB PUSH2 0x848 JUMP JUMPDEST JUMPDEST PUSH1 0x0 PUSH2 0x5BA DUP7 DUP3 DUP8 ADD PUSH2 0x4FC JUMP JUMPDEST SWAP4 POP POP PUSH1 0x20 PUSH2 0x5CB DUP7 DUP3 DUP8 ADD PUSH2 0x4BD JUMP JUMPDEST SWAP3 POP POP PUSH1 0x40 PUSH2 0x5DC DUP7 DUP3 DUP8 ADD PUSH2 0x511 JUMP JUMPDEST SWAP2 POP POP SWAP3 POP SWAP3 POP SWAP3 JUMP JUMPDEST PUSH2 0x5EF DUP2 PUSH2 0x75A JUMP JUMPDEST DUP3 MSTORE POP POP JUMP JUMPDEST PUSH2 0x5FE DUP2 PUSH2 0x748 JUMP JUMPDEST DUP3 MSTORE POP POP JUMP JUMPDEST PUSH1 0x0 PUSH2 0x60F DUP3 PUSH2 0x72C JUMP JUMPDEST PUSH2 0x619 DUP2 DUP6 PUSH2 0x737 JUMP JUMPDEST SWAP4 POP PUSH2 0x629 DUP2 DUP6 PUSH1 0x20 DUP7 ADD PUSH2 0x7B4 JUMP JUMPDEST PUSH2 0x632 DUP2 PUSH2 0x84D JUMP JUMPDEST DUP5 ADD SWAP2 POP POP SWAP3 SWAP2 POP POP JUMP JUMPDEST PUSH1 0x0 PUSH2 0x64A PUSH1 0x10 DUP4 PUSH2 0x737 JUMP JUMPDEST SWAP2 POP PUSH2 0x655 DUP3 PUSH2 0x85E JUMP JUMPDEST PUSH1 0x20 DUP3 ADD SWAP1 POP SWAP2 SWAP1 POP JUMP JUMPDEST PUSH2 0x669 DUP2 PUSH2 0x7AA JUMP JUMPDEST DUP3 MSTORE POP POP JUMP JUMPDEST PUSH1 0x0 PUSH1 0x20 DUP3 ADD SWAP1 POP PUSH2 0x684 PUSH1 0x0 DUP4 ADD DUP5 PUSH2 0x5E6 JUMP JUMPDEST SWAP3 SWAP2 POP POP JUMP JUMPDEST PUSH1 0x0 PUSH1 0x60 DUP3 ADD SWAP1 POP PUSH2 0x69F PUSH1 0x0 DUP4 ADD DUP7 PUSH2 0x5F5 JUMP JUMPDEST PUSH2 0x6AC PUSH1 0x20 DUP4 ADD DUP6 PUSH2 0x5F5 JUMP JUMPDEST PUSH2 0x6B9 PUSH1 0x40 DUP4 ADD DUP5 PUSH2 0x660 JUMP JUMPDEST SWAP5 SWAP4 POP POP POP POP JUMP JUMPDEST PUSH1 0x0 PUSH1 0x40 DUP3 ADD SWAP1 POP PUSH2 0x6D6 PUSH1 0x0 DUP4 ADD DUP6 PUSH2 0x5F5 JUMP JUMPDEST PUSH2 0x6E3 PUSH1 0x20 DUP4 ADD DUP5 PUSH2 0x660 JUMP JUMPDEST SWAP4 SWAP3 POP POP POP JUMP JUMPDEST PUSH1 0x0 PUSH1 0x20 DUP3 ADD SWAP1 POP DUP2 DUP2 SUB PUSH1 0x0 DUP4 ADD MSTORE PUSH2 0x704 DUP2 DUP5 PUSH2 0x604 JUMP JUMPDEST SWAP1 POP SWAP3 SWAP2 POP POP JUMP JUMPDEST PUSH1 0x0 PUSH1 0x20 DUP3 ADD SWAP1 POP DUP2 DUP2 SUB PUSH1 0x0 DUP4 ADD MSTORE PUSH2 0x725 DUP2 PUSH2 0x63D JUMP JUMPDEST SWAP1 POP SWAP2 SWAP1 POP JUMP JUMPDEST PUSH1 0x0 DUP2 MLOAD SWAP1 POP SWAP2 SWAP1 POP JUMP JUMPDEST PUSH1 0x0 DUP3 DUP3 MSTORE PUSH1 0x20 DUP3 ADD SWAP1 POP SWAP3 SWAP2 POP POP JUMP JUMPDEST PUSH1 0x0 PUSH2 0x753 DUP3 PUSH2 0x78A JUMP JUMPDEST SWAP1 POP SWAP2 SWAP1 POP JUMP JUMPDEST PUSH1 0x0 PUSH2 0x765 DUP3 PUSH2 0x78A JUMP JUMPDEST SWAP1 POP SWAP2 SWAP1 POP JUMP JUMPDEST PUSH1 0x0 DUP2 ISZERO ISZERO SWAP1 POP SWAP2 SWAP1 POP JUMP JUMPDEST PUSH1 0x0 PUSH2 0x783 DUP3 PUSH2 0x748 JUMP JUMPDEST SWAP1 POP SWAP2 SWAP1 POP JUMP JUMPDEST PUSH1 0x0 PUSH20 0xFFFFFFFFFFFFFFFFFFFFFFFFFFFFFFFFFFFFFFFF DUP3 AND SWAP1 POP SWAP2 SWAP1 POP JUMP JUMPDEST PUSH1 0x0 DUP2 SWAP1 POP SWAP2 SWAP1 POP JUMP JUMPDEST PUSH1 0x0 JUMPDEST DUP4 DUP2 LT ISZERO PUSH2 0x7D2 JUMPI DUP1 DUP3 ADD MLOAD DUP2 DUP5 ADD MSTORE PUSH1 0x20 DUP2 ADD SWAP1 POP PUSH2 0x7B7 JUMP JUMPDEST DUP4 DUP2 GT ISZERO PUSH2 0x7E1 JUMPI PUSH1 0x0 DUP5 DUP5 ADD MSTORE JUMPDEST POP POP POP POP JUMP JUMPDEST PUSH1 0x0 PUSH1 0x2 DUP3 DIV SWAP1 POP PUSH1 0x1 DUP3 AND DUP1 PUSH2 0x7FF JUMPI PUSH1 0x7F DUP3 AND SWAP2 POP JUMPDEST PUSH1 0x20 DUP3 LT DUP2 EQ ISZERO PUSH2 0x813 JUMPI PUSH2 0x812 PUSH2 0x819 JUMP JUMPDEST JUMPDEST POP SWAP2 SWAP1 POP JUMP JUMPDEST PUSH32 0x4E487B7100000000000000000000000000000000000000000000000000000000 PUSH1 0x0 MSTORE PUSH1 0x22 PUSH1 0x4 MSTORE PUSH1 0x24 PUSH1 0x0 REVERT JUMPDEST PUSH1 0x0 DUP1 REVERT JUMPDEST PUSH1 0x0 PUSH1 0x1F NOT PUSH1 0x1F DUP4 ADD AND SWAP1 POP SWAP2 SWAP1 POP JUMP JUMPDEST PUSH32 0x6E65656420696E697420626F756E747900000000000000000000000000000000 PUSH1 0x0 DUP3 ADD MSTORE POP JUMP JUMPDEST PUSH2 0x890 DUP2 PUSH2 0x748 JUMP JUMPDEST DUP2 EQ PUSH2 0x89B JUMPI PUSH1 0x0 DUP1 REVERT JUMPDEST POP JUMP JUMPDEST PUSH2 0x8A7 DUP2 PUSH2 0x75A JUMP JUMPDEST DUP2 EQ PUSH2 0x8B2 JUMPI PUSH1 0x0 DUP1 REVERT JUMPDEST POP JUMP JUMPDEST PUSH2 0x8BE DUP2 PUSH2 0x76C JUMP JUMPDEST DUP2 EQ PUSH2 0x8C9 JUMPI PUSH1 0x0 DUP1 REVERT JUMPDEST POP JUMP JUMPDEST PUSH2 0x8D5 DUP2 PUSH2 0x778 JUMP JUMPDEST DUP2 EQ PUSH2 0x8E0 JUMPI PUSH1 0x0 DUP1 REVERT JUMPDEST POP JUMP JUMPDEST PUSH2 0x8EC DUP2 PUSH2 0x7AA JUMP JUMPDEST DUP2 EQ PUSH2 0x8F7 JUMPI PUSH1 0x0 DUP1 REVERT JUMPDEST POP JUMP INVALID LOG2 PUSH5 0x6970667358 0x22 SLT KECCAK256 0xC PUSH26 0x62CA2F739CD222D8ACCBDA8F6F5DCD1F4C244A3B5F5986031983 0xDE 0xB7 0xED 0xDB PUSH5 0x736F6C6343 STOP ADDMOD SMOD STOP CALLER LOG2 PUSH5 0x6970667358 0x22 SLT KECCAK256 0xD0 0x4A CALLDATALOAD 0xE7 0xEA SELFDESTRUCT SWAP4 0xB6 CODESIZE PUSH24 0x7571852C3C8F679578352B4440B1C71F93390193500C6473 PUSH16 0x6C634300080700330000000000000000 "
				},
				"gasEstimates": {
					"creation": {
						"codeDepositCost": "1268800",
						"executionCost": "49854",
						"totalCost": "1318654"
					},
					"external": {
						"": "157",
						"bountyAddress(string)": "infinite",
						"createBounty(address,string)": "infinite",
						"suicide0(address)": "30220",
						"transferOwnership(address)": "30694"
					}
				},
				"methodIdentifiers": {
					"bountyAddress(string)": "0c3b11a7",
					"createBounty(address,string)": "859e0547",
					"suicide0(address)": "14da447f",
					"transferOwnership(address)": "f2fde38b"
				}
			},
			"storageLayout": {
				"storage": [
					{
						"astId": 207,
						"contract": "contracts/Bounty.sol:Bounty",
						"label": "_owner",
						"offset": 0,
						"slot": "0",
						"type": "t_address"
					},
					{
						"astId": 209,
						"contract": "contracts/Bounty.sol:Bounty",
						"label": "_coinbase",
						"offset": 0,
						"slot": "1",
						"type": "t_address_payable"
					},
					{
						"astId": 14,
						"contract": "contracts/Bounty.sol:Bounty",
						"label": "bountyAddress",
						"offset": 0,
						"slot": "2",
						"type": "t_mapping(t_string_memory_ptr,t_contract(BountyAddr)203)"
					}
				],
				"types": {
					"t_address": {
						"encoding": "inplace",
						"label": "address",
						"numberOfBytes": "20"
					},
					"t_address_payable": {
						"encoding": "inplace",
						"label": "address payable",
						"numberOfBytes": "20"
					},
					"t_contract(BountyAddr)203": {
						"encoding": "inplace",
						"label": "contract BountyAddr",
						"numberOfBytes": "20"
					},
					"t_mapping(t_string_memory_ptr,t_contract(BountyAddr)203)": {
						"encoding": "mapping",
						"key": "t_string_memory_ptr",
						"label": "mapping(string => contract BountyAddr)",
						"numberOfBytes": "32",
						"value": "t_contract(BountyAddr)203"
					},
					"t_string_memory_ptr": {
						"encoding": "bytes",
						"label": "string",
						"numberOfBytes": "32"
					}
				}
			},
			"userdoc": {
				"kind": "user",
				"methods": {},
				"version": 1
			}
		}
	}
}