{
	"contracts/Bounty.sol": {
		"Bounty": {
			"abi": [
				{
					"inputs": [],
					"stateMutability": "nonpayable",
					"type": "constructor"
				},
				{
					"anonymous": false,
					"inputs": [
						{
							"indexed": true,
							"internalType": "address",
							"name": "previousOwner",
							"type": "address"
						},
						{
							"indexed": true,
							"internalType": "address",
							"name": "newOwner",
							"type": "address"
						}
					],
					"name": "OwnershipTransferred",
					"type": "event"
				},
				{
					"anonymous": false,
					"inputs": [
						{
							"indexed": false,
							"internalType": "contract BountyAddr",
							"name": "addr",
							"type": "address"
						}
					],
					"name": "createdBounty",
					"type": "event"
				},
				{
					"stateMutability": "payable",
					"type": "fallback"
				},
				{
					"inputs": [],
					"name": "createBounty",
					"outputs": [],
					"stateMutability": "payable",
					"type": "function"
				},
				{
					"inputs": [
						{
							"internalType": "string",
							"name": "id",
							"type": "string"
						},
						{
							"internalType": "address payable",
							"name": "oriSender",
							"type": "address"
						},
						{
							"internalType": "uint256",
							"name": "oriVal",
							"type": "uint256"
						},
						{
							"internalType": "uint256",
							"name": "time",
							"type": "uint256"
						}
					],
					"name": "invest",
					"outputs": [],
					"stateMutability": "nonpayable",
					"type": "function"
				},
				{
					"inputs": [
						{
							"internalType": "address payable",
							"name": "receiver",
							"type": "address"
						}
					],
					"name": "suicide0",
					"outputs": [],
					"stateMutability": "nonpayable",
					"type": "function"
				},
				{
					"inputs": [
						{
							"internalType": "address",
							"name": "newOwner",
							"type": "address"
						}
					],
					"name": "transferOwnership",
					"outputs": [],
					"stateMutability": "nonpayable",
					"type": "function"
				},
				{
					"stateMutability": "payable",
					"type": "receive"
				}
			],
			"devdoc": {
				"kind": "dev",
				"methods": {},
				"version": 1
			},
			"evm": {
				"assembly": "    /* \"contracts/Bounty.sol\":143:910  contract Bounty is Base { ... */\n  mstore(0x40, 0x80)\n    /* \"contracts/Bounty.sol\":356:398  0x8f81b9B08232F8E8981dAa87854575d7325A9439 */\n  0x8f81b9b08232f8e8981daa87854575d7325a9439\n    /* \"contracts/Bounty.sol\":326:399  address _stableAddr = address(0x8f81b9B08232F8E8981dAa87854575d7325A9439) */\n  0x03\n  exp(0x0100, 0x00)\n  dup2\n  sload\n  dup2\n  0xffffffffffffffffffffffffffffffffffffffff\n  mul\n  not\n  and\n  swap1\n  dup4\n  0xffffffffffffffffffffffffffffffffffffffff\n  and\n  mul\n  or\n  swap1\n  sstore\n  pop\n    /* \"contracts/Bounty.sol\":406:463  constructor() Base() {... */\n  callvalue\n  dup1\n  iszero\n  tag_1\n  jumpi\n  0x00\n  dup1\n  revert\ntag_1:\n  pop\n    /* \"contracts/base/Base.sol\":371:381  msg.sender */\n  caller\n    /* \"contracts/base/Base.sol\":362:368  _owner */\n  0x00\n  dup1\n    /* \"contracts/base/Base.sol\":362:381  _owner = msg.sender */\n  0x0100\n  exp\n  dup2\n  sload\n  dup2\n  0xffffffffffffffffffffffffffffffffffffffff\n  mul\n  not\n  and\n  swap1\n  dup4\n  0xffffffffffffffffffffffffffffffffffffffff\n  and\n  mul\n  or\n  swap1\n  sstore\n  pop\n    /* \"contracts/Bounty.sol\":446:456  msg.sender */\n  caller\n    /* \"contracts/Bounty.sol\":437:443  _owner */\n  0x00\n  dup1\n    /* \"contracts/Bounty.sol\":437:456  _owner = msg.sender */\n  0x0100\n  exp\n  dup2\n  sload\n  dup2\n  0xffffffffffffffffffffffffffffffffffffffff\n  mul\n  not\n  and\n  swap1\n  dup4\n  0xffffffffffffffffffffffffffffffffffffffff\n  and\n  mul\n  or\n  swap1\n  sstore\n  pop\n    /* \"contracts/Bounty.sol\":143:910  contract Bounty is Base { ... */\n  dataSize(sub_0)\n  dup1\n  dataOffset(sub_0)\n  0x00\n  codecopy\n  0x00\n  return\nstop\n\nsub_0: assembly {\n        /* \"contracts/Bounty.sol\":143:910  contract Bounty is Base { ... */\n      mstore(0x40, 0x80)\n      jumpi(tag_1, lt(calldatasize, 0x04))\n      shr(0xe0, calldataload(0x00))\n      dup1\n      0x14da447f\n      eq\n      tag_3\n      jumpi\n      dup1\n      0x2bef7c7f\n      eq\n      tag_4\n      jumpi\n      dup1\n      0x46964a0a\n      eq\n      tag_5\n      jumpi\n      dup1\n      0xf2fde38b\n      eq\n      tag_6\n      jumpi\n      jump(tag_2)\n    tag_1:\n      jumpi(tag_2, calldatasize)\n        /* \"contracts/base/Base.sol\":498:506  revert() */\n      0x00\n      dup1\n      revert\n        /* \"contracts/Bounty.sol\":143:910  contract Bounty is Base { ... */\n    tag_2:\n        /* \"contracts/base/Base.sol\":440:448  revert() */\n      0x00\n      dup1\n      revert\n        /* \"contracts/base/Base.sol\":1009:1115  function suicide0(address payable receiver)... */\n    tag_3:\n      callvalue\n      dup1\n      iszero\n      tag_11\n      jumpi\n      0x00\n      dup1\n      revert\n    tag_11:\n      pop\n      tag_12\n      0x04\n      dup1\n      calldatasize\n      sub\n      dup2\n      add\n      swap1\n      tag_13\n      swap2\n      swap1\n      tag_14\n      jump\t// in\n    tag_13:\n      tag_15\n      jump\t// in\n    tag_12:\n      stop\n        /* \"contracts/Bounty.sol\":469:773  function createBounty() public payable {... */\n    tag_4:\n      tag_16\n      tag_17\n      jump\t// in\n    tag_16:\n      stop\n        /* \"contracts/Bounty.sol\":779:908  function invest(string memory id, address payable oriSender, uint256 oriVal, uint256 time) public {... */\n    tag_5:\n      callvalue\n      dup1\n      iszero\n      tag_18\n      jumpi\n      0x00\n      dup1\n      revert\n    tag_18:\n      pop\n      tag_19\n      0x04\n      dup1\n      calldatasize\n      sub\n      dup2\n      add\n      swap1\n      tag_20\n      swap2\n      swap1\n      tag_21\n      jump\t// in\n    tag_20:\n      tag_22\n      jump\t// in\n    tag_19:\n      stop\n        /* \"contracts/base/Base.sol\":614:810  function transferOwnership(address newOwner) public virtual isOwner {... */\n    tag_6:\n      callvalue\n      dup1\n      iszero\n      tag_23\n      jumpi\n      0x00\n      dup1\n      revert\n    tag_23:\n      pop\n      tag_24\n      0x04\n      dup1\n      calldatasize\n      sub\n      dup2\n      add\n      swap1\n      tag_25\n      swap2\n      swap1\n      tag_26\n      jump\t// in\n    tag_25:\n      tag_27\n      jump\t// in\n    tag_24:\n      stop\n        /* \"contracts/base/Base.sol\":1009:1115  function suicide0(address payable receiver)... */\n    tag_15:\n        /* \"contracts/base/Base.sol\":303:309  _owner */\n      0x00\n      dup1\n      sload\n      swap1\n      0x0100\n      exp\n      swap1\n      div\n      0xffffffffffffffffffffffffffffffffffffffff\n      and\n        /* \"contracts/base/Base.sol\":289:309  msg.sender == _owner */\n      0xffffffffffffffffffffffffffffffffffffffff\n      and\n        /* \"contracts/base/Base.sol\":289:299  msg.sender */\n      caller\n        /* \"contracts/base/Base.sol\":289:309  msg.sender == _owner */\n      0xffffffffffffffffffffffffffffffffffffffff\n      and\n      eq\n        /* \"contracts/base/Base.sol\":282:310  assert(msg.sender == _owner) */\n      tag_29\n      jumpi\n      tag_30\n      tag_31\n      jump\t// in\n    tag_30:\n    tag_29:\n        /* \"contracts/base/Base.sol\":1099:1107  receiver */\n      dup1\n        /* \"contracts/base/Base.sol\":1086:1108  selfdestruct(receiver) */\n      0xffffffffffffffffffffffffffffffffffffffff\n      and\n      selfdestruct\n        /* \"contracts/Bounty.sol\":469:773  function createBounty() public payable {... */\n    tag_17:\n        /* \"contracts/Bounty.sol\":518:533  BountyAddr addr */\n      0x00\n        /* \"contracts/Bounty.sol\":559:563  this */\n      address\n        /* \"contracts/Bounty.sol\":536:565  new BountyAddr(address(this)) */\n      mload(0x40)\n      tag_34\n      swap1\n      tag_35\n      jump\t// in\n    tag_34:\n      tag_36\n      swap2\n      swap1\n      tag_37\n      jump\t// in\n    tag_36:\n      mload(0x40)\n      dup1\n      swap2\n      sub\n      swap1\n      0x00\n      create\n      dup1\n      iszero\n      dup1\n      iszero\n      tag_38\n      jumpi\n      returndatasize\n      0x00\n      dup1\n      returndatacopy\n      revert(0x00, returndatasize)\n    tag_38:\n      pop\n        /* \"contracts/Bounty.sol\":518:565  BountyAddr addr = new BountyAddr(address(this)) */\n      swap1\n      pop\n        /* \"contracts/Bounty.sol\":630:641  _stableAddr */\n      0x03\n      0x00\n      swap1\n      sload\n      swap1\n      0x0100\n      exp\n      swap1\n      div\n      0xffffffffffffffffffffffffffffffffffffffff\n      and\n        /* \"contracts/Bounty.sol\":623:655  IERC20(_stableAddr).transferFrom */\n      0xffffffffffffffffffffffffffffffffffffffff\n      and\n      0x23b872dd\n        /* \"contracts/Bounty.sol\":656:666  msg.sender */\n      caller\n        /* \"contracts/Bounty.sol\":668:672  addr */\n      dup4\n        /* \"contracts/Bounty.sol\":668:680  addr.getPool */\n      0xffffffffffffffffffffffffffffffffffffffff\n      and\n      0x026b1d5f\n        /* \"contracts/Bounty.sol\":668:682  addr.getPool() */\n      mload(0x40)\n      dup2\n      0xffffffff\n      and\n      0xe0\n      shl\n      dup2\n      mstore\n      0x04\n      add\n      0x20\n      mload(0x40)\n      dup1\n      dup4\n      sub\n      dup2\n      dup7\n      dup1\n      extcodesize\n      iszero\n      dup1\n      iszero\n      tag_39\n      jumpi\n      0x00\n      dup1\n      revert\n    tag_39:\n      pop\n      gas\n      staticcall\n      iszero\n      dup1\n      iszero\n      tag_41\n      jumpi\n      returndatasize\n      0x00\n      dup1\n      returndatacopy\n      revert(0x00, returndatasize)\n    tag_41:\n      pop\n      pop\n      pop\n      pop\n      mload(0x40)\n      returndatasize\n      not(0x1f)\n      0x1f\n      dup3\n      add\n      and\n      dup3\n      add\n      dup1\n      0x40\n      mstore\n      pop\n      dup2\n      add\n      swap1\n      tag_42\n      swap2\n      swap1\n      tag_43\n      jump\t// in\n    tag_42:\n        /* \"contracts/Bounty.sol\":684:693  msg.value */\n      callvalue\n        /* \"contracts/Bounty.sol\":623:694  IERC20(_stableAddr).transferFrom(msg.sender, addr.getPool(), msg.value) */\n      mload(0x40)\n      dup5\n      0xffffffff\n      and\n      0xe0\n      shl\n      dup2\n      mstore\n      0x04\n      add\n      tag_44\n      swap4\n      swap3\n      swap2\n      swap1\n      tag_45\n      jump\t// in\n    tag_44:\n      0x20\n      mload(0x40)\n      dup1\n      dup4\n      sub\n      dup2\n      0x00\n      dup8\n      dup1\n      extcodesize\n      iszero\n      dup1\n      iszero\n      tag_46\n      jumpi\n      0x00\n      dup1\n      revert\n    tag_46:\n      pop\n      gas\n      call\n      iszero\n      dup1\n      iszero\n      tag_48\n      jumpi\n      returndatasize\n      0x00\n      dup1\n      returndatacopy\n      revert(0x00, returndatasize)\n    tag_48:\n      pop\n      pop\n      pop\n      pop\n      mload(0x40)\n      returndatasize\n      not(0x1f)\n      0x1f\n      dup3\n      add\n      and\n      dup3\n      add\n      dup1\n      0x40\n      mstore\n      pop\n      dup2\n      add\n      swap1\n      tag_49\n      swap2\n      swap1\n      tag_50\n      jump\t// in\n    tag_49:\n      pop\n        /* \"contracts/Bounty.sol\":704:721  bountyAddressList */\n      0x02\n        /* \"contracts/Bounty.sol\":727:731  addr */\n      dup2\n        /* \"contracts/Bounty.sol\":704:732  bountyAddressList.push(addr) */\n      swap1\n      dup1\n      0x01\n      dup2\n      sload\n      add\n      dup1\n      dup3\n      sstore\n      dup1\n      swap2\n      pop\n      pop\n      0x01\n      swap1\n      sub\n      swap1\n      0x00\n      mstore\n      keccak256(0x00, 0x20)\n      add\n      0x00\n      swap1\n      swap2\n      swap1\n      swap2\n      swap1\n      swap2\n      0x0100\n      exp\n      dup2\n      sload\n      dup2\n      0xffffffffffffffffffffffffffffffffffffffff\n      mul\n      not\n      and\n      swap1\n      dup4\n      0xffffffffffffffffffffffffffffffffffffffff\n      and\n      mul\n      or\n      swap1\n      sstore\n      pop\n        /* \"contracts/Bounty.sol\":747:766  createdBounty(addr) */\n      0x1bda7bb843640650292c2a26a73106328e0f83c1c09ea1a4176df3912ee47ff6\n        /* \"contracts/Bounty.sol\":761:765  addr */\n      dup2\n        /* \"contracts/Bounty.sol\":747:766  createdBounty(addr) */\n      mload(0x40)\n      tag_52\n      swap2\n      swap1\n      tag_53\n      jump\t// in\n    tag_52:\n      mload(0x40)\n      dup1\n      swap2\n      sub\n      swap1\n      log1\n        /* \"contracts/Bounty.sol\":508:773  {... */\n      pop\n        /* \"contracts/Bounty.sol\":469:773  function createBounty() public payable {... */\n      jump\t// out\n        /* \"contracts/Bounty.sol\":779:908  function invest(string memory id, address payable oriSender, uint256 oriVal, uint256 time) public {... */\n    tag_22:\n      pop\n      pop\n      pop\n      pop\n      jump\t// out\n        /* \"contracts/base/Base.sol\":614:810  function transferOwnership(address newOwner) public virtual isOwner {... */\n    tag_27:\n        /* \"contracts/base/Base.sol\":303:309  _owner */\n      0x00\n      dup1\n      sload\n      swap1\n      0x0100\n      exp\n      swap1\n      div\n      0xffffffffffffffffffffffffffffffffffffffff\n      and\n        /* \"contracts/base/Base.sol\":289:309  msg.sender == _owner */\n      0xffffffffffffffffffffffffffffffffffffffff\n      and\n        /* \"contracts/base/Base.sol\":289:299  msg.sender */\n      caller\n        /* \"contracts/base/Base.sol\":289:309  msg.sender == _owner */\n      0xffffffffffffffffffffffffffffffffffffffff\n      and\n      eq\n        /* \"contracts/base/Base.sol\":282:310  assert(msg.sender == _owner) */\n      tag_56\n      jumpi\n      tag_57\n      tag_31\n      jump\t// in\n    tag_57:\n    tag_56:\n        /* \"contracts/base/Base.sol\":720:721  0 */\n      0x00\n        /* \"contracts/base/Base.sol\":700:722  newOwner != address(0) */\n      0xffffffffffffffffffffffffffffffffffffffff\n      and\n        /* \"contracts/base/Base.sol\":700:708  newOwner */\n      dup2\n        /* \"contracts/base/Base.sol\":700:722  newOwner != address(0) */\n      0xffffffffffffffffffffffffffffffffffffffff\n      and\n      eq\n      iszero\n        /* \"contracts/base/Base.sol\":692:765  require(newOwner != address(0), \"Ownable: new owner is the zero address\") */\n      tag_59\n      jumpi\n      mload(0x40)\n      0x08c379a000000000000000000000000000000000000000000000000000000000\n      dup2\n      mstore\n      0x04\n      add\n      tag_60\n      swap1\n      tag_61\n      jump\t// in\n    tag_60:\n      mload(0x40)\n      dup1\n      swap2\n      sub\n      swap1\n      revert\n    tag_59:\n        /* \"contracts/base/Base.sol\":775:803  _transferOwnership(newOwner) */\n      tag_62\n        /* \"contracts/base/Base.sol\":794:802  newOwner */\n      dup2\n        /* \"contracts/base/Base.sol\":775:793  _transferOwnership */\n      tag_63\n        /* \"contracts/base/Base.sol\":775:803  _transferOwnership(newOwner) */\n      jump\t// in\n    tag_62:\n        /* \"contracts/base/Base.sol\":614:810  function transferOwnership(address newOwner) public virtual isOwner {... */\n      pop\n      jump\t// out\n        /* \"contracts/base/Base.sol\":816:1003  function _transferOwnership(address newOwner) internal virtual {... */\n    tag_63:\n        /* \"contracts/base/Base.sol\":889:905  address oldOwner */\n      0x00\n        /* \"contracts/base/Base.sol\":908:914  _owner */\n      dup1\n      0x00\n      swap1\n      sload\n      swap1\n      0x0100\n      exp\n      swap1\n      div\n      0xffffffffffffffffffffffffffffffffffffffff\n      and\n        /* \"contracts/base/Base.sol\":889:914  address oldOwner = _owner */\n      swap1\n      pop\n        /* \"contracts/base/Base.sol\":933:941  newOwner */\n      dup2\n        /* \"contracts/base/Base.sol\":924:930  _owner */\n      0x00\n      dup1\n        /* \"contracts/base/Base.sol\":924:941  _owner = newOwner */\n      0x0100\n      exp\n      dup2\n      sload\n      dup2\n      0xffffffffffffffffffffffffffffffffffffffff\n      mul\n      not\n      and\n      swap1\n      dup4\n      0xffffffffffffffffffffffffffffffffffffffff\n      and\n      mul\n      or\n      swap1\n      sstore\n      pop\n        /* \"contracts/base/Base.sol\":987:995  newOwner */\n      dup2\n        /* \"contracts/base/Base.sol\":956:996  OwnershipTransferred(oldOwner, newOwner) */\n      0xffffffffffffffffffffffffffffffffffffffff\n      and\n        /* \"contracts/base/Base.sol\":977:985  oldOwner */\n      dup2\n        /* \"contracts/base/Base.sol\":956:996  OwnershipTransferred(oldOwner, newOwner) */\n      0xffffffffffffffffffffffffffffffffffffffff\n      and\n      0x8be0079c531659141344cd1fd0a4f28419497f9722a3daafe3b4186f6b6457e0\n      mload(0x40)\n      mload(0x40)\n      dup1\n      swap2\n      sub\n      swap1\n      log3\n        /* \"contracts/base/Base.sol\":879:1003  {... */\n      pop\n        /* \"contracts/base/Base.sol\":816:1003  function _transferOwnership(address newOwner) internal virtual {... */\n      pop\n      jump\t// out\n    tag_35:\n      dataSize(sub_0)\n      dup1\n      dataOffset(sub_0)\n      dup4\n      codecopy\n      add\n      swap1\n      jump\t// out\n        /* \"#utility.yul\":7:419   */\n    tag_66:\n        /* \"#utility.yul\":85:90   */\n      0x00\n        /* \"#utility.yul\":110:176   */\n      tag_68\n        /* \"#utility.yul\":126:175   */\n      tag_69\n        /* \"#utility.yul\":168:174   */\n      dup5\n        /* \"#utility.yul\":126:175   */\n      tag_70\n      jump\t// in\n    tag_69:\n        /* \"#utility.yul\":110:176   */\n      tag_71\n      jump\t// in\n    tag_68:\n        /* \"#utility.yul\":101:176   */\n      swap1\n      pop\n        /* \"#utility.yul\":199:205   */\n      dup3\n        /* \"#utility.yul\":192:197   */\n      dup2\n        /* \"#utility.yul\":185:206   */\n      mstore\n        /* \"#utility.yul\":237:241   */\n      0x20\n        /* \"#utility.yul\":230:235   */\n      dup2\n        /* \"#utility.yul\":226:242   */\n      add\n        /* \"#utility.yul\":275:278   */\n      dup5\n        /* \"#utility.yul\":266:272   */\n      dup5\n        /* \"#utility.yul\":261:264   */\n      dup5\n        /* \"#utility.yul\":257:273   */\n      add\n        /* \"#utility.yul\":254:279   */\n      gt\n        /* \"#utility.yul\":251:363   */\n      iszero\n      tag_72\n      jumpi\n        /* \"#utility.yul\":282:361   */\n      tag_73\n      tag_74\n      jump\t// in\n    tag_73:\n        /* \"#utility.yul\":251:363   */\n    tag_72:\n        /* \"#utility.yul\":372:413   */\n      tag_75\n        /* \"#utility.yul\":406:412   */\n      dup5\n        /* \"#utility.yul\":401:404   */\n      dup3\n        /* \"#utility.yul\":396:399   */\n      dup6\n        /* \"#utility.yul\":372:413   */\n      tag_76\n      jump\t// in\n    tag_75:\n        /* \"#utility.yul\":91:419   */\n      pop\n        /* \"#utility.yul\":7:419   */\n      swap4\n      swap3\n      pop\n      pop\n      pop\n      jump\t// out\n        /* \"#utility.yul\":425:564   */\n    tag_77:\n        /* \"#utility.yul\":471:476   */\n      0x00\n        /* \"#utility.yul\":509:515   */\n      dup2\n        /* \"#utility.yul\":496:516   */\n      calldataload\n        /* \"#utility.yul\":487:516   */\n      swap1\n      pop\n        /* \"#utility.yul\":525:558   */\n      tag_79\n        /* \"#utility.yul\":552:557   */\n      dup2\n        /* \"#utility.yul\":525:558   */\n      tag_80\n      jump\t// in\n    tag_79:\n        /* \"#utility.yul\":425:564   */\n      swap3\n      swap2\n      pop\n      pop\n      jump\t// out\n        /* \"#utility.yul\":570:725   */\n    tag_81:\n        /* \"#utility.yul\":624:629   */\n      0x00\n        /* \"#utility.yul\":662:668   */\n      dup2\n        /* \"#utility.yul\":649:669   */\n      calldataload\n        /* \"#utility.yul\":640:669   */\n      swap1\n      pop\n        /* \"#utility.yul\":678:719   */\n      tag_83\n        /* \"#utility.yul\":713:718   */\n      dup2\n        /* \"#utility.yul\":678:719   */\n      tag_84\n      jump\t// in\n    tag_83:\n        /* \"#utility.yul\":570:725   */\n      swap3\n      swap2\n      pop\n      pop\n      jump\t// out\n        /* \"#utility.yul\":731:890   */\n    tag_85:\n        /* \"#utility.yul\":796:801   */\n      0x00\n        /* \"#utility.yul\":827:833   */\n      dup2\n        /* \"#utility.yul\":821:834   */\n      mload\n        /* \"#utility.yul\":812:834   */\n      swap1\n      pop\n        /* \"#utility.yul\":843:884   */\n      tag_87\n        /* \"#utility.yul\":878:883   */\n      dup2\n        /* \"#utility.yul\":843:884   */\n      tag_84\n      jump\t// in\n    tag_87:\n        /* \"#utility.yul\":731:890   */\n      swap3\n      swap2\n      pop\n      pop\n      jump\t// out\n        /* \"#utility.yul\":896:1033   */\n    tag_88:\n        /* \"#utility.yul\":950:955   */\n      0x00\n        /* \"#utility.yul\":981:987   */\n      dup2\n        /* \"#utility.yul\":975:988   */\n      mload\n        /* \"#utility.yul\":966:988   */\n      swap1\n      pop\n        /* \"#utility.yul\":997:1027   */\n      tag_90\n        /* \"#utility.yul\":1021:1026   */\n      dup2\n        /* \"#utility.yul\":997:1027   */\n      tag_91\n      jump\t// in\n    tag_90:\n        /* \"#utility.yul\":896:1033   */\n      swap3\n      swap2\n      pop\n      pop\n      jump\t// out\n        /* \"#utility.yul\":1053:1393   */\n    tag_92:\n        /* \"#utility.yul\":1109:1114   */\n      0x00\n        /* \"#utility.yul\":1158:1161   */\n      dup3\n        /* \"#utility.yul\":1151:1155   */\n      0x1f\n        /* \"#utility.yul\":1143:1149   */\n      dup4\n        /* \"#utility.yul\":1139:1156   */\n      add\n        /* \"#utility.yul\":1135:1162   */\n      slt\n        /* \"#utility.yul\":1125:1247   */\n      tag_94\n      jumpi\n        /* \"#utility.yul\":1166:1245   */\n      tag_95\n      tag_96\n      jump\t// in\n    tag_95:\n        /* \"#utility.yul\":1125:1247   */\n    tag_94:\n        /* \"#utility.yul\":1283:1289   */\n      dup2\n        /* \"#utility.yul\":1270:1290   */\n      calldataload\n        /* \"#utility.yul\":1308:1387   */\n      tag_97\n        /* \"#utility.yul\":1383:1386   */\n      dup5\n        /* \"#utility.yul\":1375:1381   */\n      dup3\n        /* \"#utility.yul\":1368:1372   */\n      0x20\n        /* \"#utility.yul\":1360:1366   */\n      dup7\n        /* \"#utility.yul\":1356:1373   */\n      add\n        /* \"#utility.yul\":1308:1387   */\n      tag_66\n      jump\t// in\n    tag_97:\n        /* \"#utility.yul\":1299:1387   */\n      swap2\n      pop\n        /* \"#utility.yul\":1115:1393   */\n      pop\n        /* \"#utility.yul\":1053:1393   */\n      swap3\n      swap2\n      pop\n      pop\n      jump\t// out\n        /* \"#utility.yul\":1399:1538   */\n    tag_98:\n        /* \"#utility.yul\":1445:1450   */\n      0x00\n        /* \"#utility.yul\":1483:1489   */\n      dup2\n        /* \"#utility.yul\":1470:1490   */\n      calldataload\n        /* \"#utility.yul\":1461:1490   */\n      swap1\n      pop\n        /* \"#utility.yul\":1499:1532   */\n      tag_100\n        /* \"#utility.yul\":1526:1531   */\n      dup2\n        /* \"#utility.yul\":1499:1532   */\n      tag_101\n      jump\t// in\n    tag_100:\n        /* \"#utility.yul\":1399:1538   */\n      swap3\n      swap2\n      pop\n      pop\n      jump\t// out\n        /* \"#utility.yul\":1544:1873   */\n    tag_26:\n        /* \"#utility.yul\":1603:1609   */\n      0x00\n        /* \"#utility.yul\":1652:1654   */\n      0x20\n        /* \"#utility.yul\":1640:1649   */\n      dup3\n        /* \"#utility.yul\":1631:1638   */\n      dup5\n        /* \"#utility.yul\":1627:1650   */\n      sub\n        /* \"#utility.yul\":1623:1655   */\n      slt\n        /* \"#utility.yul\":1620:1739   */\n      iszero\n      tag_103\n      jumpi\n        /* \"#utility.yul\":1658:1737   */\n      tag_104\n      tag_105\n      jump\t// in\n    tag_104:\n        /* \"#utility.yul\":1620:1739   */\n    tag_103:\n        /* \"#utility.yul\":1778:1779   */\n      0x00\n        /* \"#utility.yul\":1803:1856   */\n      tag_106\n        /* \"#utility.yul\":1848:1855   */\n      dup5\n        /* \"#utility.yul\":1839:1845   */\n      dup3\n        /* \"#utility.yul\":1828:1837   */\n      dup6\n        /* \"#utility.yul\":1824:1846   */\n      add\n        /* \"#utility.yul\":1803:1856   */\n      tag_77\n      jump\t// in\n    tag_106:\n        /* \"#utility.yul\":1793:1856   */\n      swap2\n      pop\n        /* \"#utility.yul\":1749:1866   */\n      pop\n        /* \"#utility.yul\":1544:1873   */\n      swap3\n      swap2\n      pop\n      pop\n      jump\t// out\n        /* \"#utility.yul\":1879:2224   */\n    tag_14:\n        /* \"#utility.yul\":1946:1952   */\n      0x00\n        /* \"#utility.yul\":1995:1997   */\n      0x20\n        /* \"#utility.yul\":1983:1992   */\n      dup3\n        /* \"#utility.yul\":1974:1981   */\n      dup5\n        /* \"#utility.yul\":1970:1993   */\n      sub\n        /* \"#utility.yul\":1966:1998   */\n      slt\n        /* \"#utility.yul\":1963:2082   */\n      iszero\n      tag_108\n      jumpi\n        /* \"#utility.yul\":2001:2080   */\n      tag_109\n      tag_105\n      jump\t// in\n    tag_109:\n        /* \"#utility.yul\":1963:2082   */\n    tag_108:\n        /* \"#utility.yul\":2121:2122   */\n      0x00\n        /* \"#utility.yul\":2146:2207   */\n      tag_110\n        /* \"#utility.yul\":2199:2206   */\n      dup5\n        /* \"#utility.yul\":2190:2196   */\n      dup3\n        /* \"#utility.yul\":2179:2188   */\n      dup6\n        /* \"#utility.yul\":2175:2197   */\n      add\n        /* \"#utility.yul\":2146:2207   */\n      tag_81\n      jump\t// in\n    tag_110:\n        /* \"#utility.yul\":2136:2207   */\n      swap2\n      pop\n        /* \"#utility.yul\":2092:2217   */\n      pop\n        /* \"#utility.yul\":1879:2224   */\n      swap3\n      swap2\n      pop\n      pop\n      jump\t// out\n        /* \"#utility.yul\":2230:2597   */\n    tag_43:\n        /* \"#utility.yul\":2308:2314   */\n      0x00\n        /* \"#utility.yul\":2357:2359   */\n      0x20\n        /* \"#utility.yul\":2345:2354   */\n      dup3\n        /* \"#utility.yul\":2336:2343   */\n      dup5\n        /* \"#utility.yul\":2332:2355   */\n      sub\n        /* \"#utility.yul\":2328:2360   */\n      slt\n        /* \"#utility.yul\":2325:2444   */\n      iszero\n      tag_112\n      jumpi\n        /* \"#utility.yul\":2363:2442   */\n      tag_113\n      tag_105\n      jump\t// in\n    tag_113:\n        /* \"#utility.yul\":2325:2444   */\n    tag_112:\n        /* \"#utility.yul\":2483:2484   */\n      0x00\n        /* \"#utility.yul\":2508:2580   */\n      tag_114\n        /* \"#utility.yul\":2572:2579   */\n      dup5\n        /* \"#utility.yul\":2563:2569   */\n      dup3\n        /* \"#utility.yul\":2552:2561   */\n      dup6\n        /* \"#utility.yul\":2548:2570   */\n      add\n        /* \"#utility.yul\":2508:2580   */\n      tag_85\n      jump\t// in\n    tag_114:\n        /* \"#utility.yul\":2498:2580   */\n      swap2\n      pop\n        /* \"#utility.yul\":2454:2590   */\n      pop\n        /* \"#utility.yul\":2230:2597   */\n      swap3\n      swap2\n      pop\n      pop\n      jump\t// out\n        /* \"#utility.yul\":2603:2948   */\n    tag_50:\n        /* \"#utility.yul\":2670:2676   */\n      0x00\n        /* \"#utility.yul\":2719:2721   */\n      0x20\n        /* \"#utility.yul\":2707:2716   */\n      dup3\n        /* \"#utility.yul\":2698:2705   */\n      dup5\n        /* \"#utility.yul\":2694:2717   */\n      sub\n        /* \"#utility.yul\":2690:2722   */\n      slt\n        /* \"#utility.yul\":2687:2806   */\n      iszero\n      tag_116\n      jumpi\n        /* \"#utility.yul\":2725:2804   */\n      tag_117\n      tag_105\n      jump\t// in\n    tag_117:\n        /* \"#utility.yul\":2687:2806   */\n    tag_116:\n        /* \"#utility.yul\":2845:2846   */\n      0x00\n        /* \"#utility.yul\":2870:2931   */\n      tag_118\n        /* \"#utility.yul\":2923:2930   */\n      dup5\n        /* \"#utility.yul\":2914:2920   */\n      dup3\n        /* \"#utility.yul\":2903:2912   */\n      dup6\n        /* \"#utility.yul\":2899:2921   */\n      add\n        /* \"#utility.yul\":2870:2931   */\n      tag_88\n      jump\t// in\n    tag_118:\n        /* \"#utility.yul\":2860:2931   */\n      swap2\n      pop\n        /* \"#utility.yul\":2816:2941   */\n      pop\n        /* \"#utility.yul\":2603:2948   */\n      swap3\n      swap2\n      pop\n      pop\n      jump\t// out\n        /* \"#utility.yul\":2954:3915   */\n    tag_21:\n        /* \"#utility.yul\":3058:3064   */\n      0x00\n        /* \"#utility.yul\":3066:3072   */\n      dup1\n        /* \"#utility.yul\":3074:3080   */\n      0x00\n        /* \"#utility.yul\":3082:3088   */\n      dup1\n        /* \"#utility.yul\":3131:3134   */\n      0x80\n        /* \"#utility.yul\":3119:3128   */\n      dup6\n        /* \"#utility.yul\":3110:3117   */\n      dup8\n        /* \"#utility.yul\":3106:3129   */\n      sub\n        /* \"#utility.yul\":3102:3135   */\n      slt\n        /* \"#utility.yul\":3099:3219   */\n      iszero\n      tag_120\n      jumpi\n        /* \"#utility.yul\":3138:3217   */\n      tag_121\n      tag_105\n      jump\t// in\n    tag_121:\n        /* \"#utility.yul\":3099:3219   */\n    tag_120:\n        /* \"#utility.yul\":3286:3287   */\n      0x00\n        /* \"#utility.yul\":3275:3284   */\n      dup6\n        /* \"#utility.yul\":3271:3288   */\n      add\n        /* \"#utility.yul\":3258:3289   */\n      calldataload\n        /* \"#utility.yul\":3316:3334   */\n      0xffffffffffffffff\n        /* \"#utility.yul\":3308:3314   */\n      dup2\n        /* \"#utility.yul\":3305:3335   */\n      gt\n        /* \"#utility.yul\":3302:3419   */\n      iszero\n      tag_122\n      jumpi\n        /* \"#utility.yul\":3338:3417   */\n      tag_123\n      tag_124\n      jump\t// in\n    tag_123:\n        /* \"#utility.yul\":3302:3419   */\n    tag_122:\n        /* \"#utility.yul\":3443:3506   */\n      tag_125\n        /* \"#utility.yul\":3498:3505   */\n      dup8\n        /* \"#utility.yul\":3489:3495   */\n      dup3\n        /* \"#utility.yul\":3478:3487   */\n      dup9\n        /* \"#utility.yul\":3474:3496   */\n      add\n        /* \"#utility.yul\":3443:3506   */\n      tag_92\n      jump\t// in\n    tag_125:\n        /* \"#utility.yul\":3433:3506   */\n      swap5\n      pop\n        /* \"#utility.yul\":3229:3516   */\n      pop\n        /* \"#utility.yul\":3555:3557   */\n      0x20\n        /* \"#utility.yul\":3581:3642   */\n      tag_126\n        /* \"#utility.yul\":3634:3641   */\n      dup8\n        /* \"#utility.yul\":3625:3631   */\n      dup3\n        /* \"#utility.yul\":3614:3623   */\n      dup9\n        /* \"#utility.yul\":3610:3632   */\n      add\n        /* \"#utility.yul\":3581:3642   */\n      tag_81\n      jump\t// in\n    tag_126:\n        /* \"#utility.yul\":3571:3642   */\n      swap4\n      pop\n        /* \"#utility.yul\":3526:3652   */\n      pop\n        /* \"#utility.yul\":3691:3693   */\n      0x40\n        /* \"#utility.yul\":3717:3770   */\n      tag_127\n        /* \"#utility.yul\":3762:3769   */\n      dup8\n        /* \"#utility.yul\":3753:3759   */\n      dup3\n        /* \"#utility.yul\":3742:3751   */\n      dup9\n        /* \"#utility.yul\":3738:3760   */\n      add\n        /* \"#utility.yul\":3717:3770   */\n      tag_98\n      jump\t// in\n    tag_127:\n        /* \"#utility.yul\":3707:3770   */\n      swap3\n      pop\n        /* \"#utility.yul\":3662:3780   */\n      pop\n        /* \"#utility.yul\":3819:3821   */\n      0x60\n        /* \"#utility.yul\":3845:3898   */\n      tag_128\n        /* \"#utility.yul\":3890:3897   */\n      dup8\n        /* \"#utility.yul\":3881:3887   */\n      dup3\n        /* \"#utility.yul\":3870:3879   */\n      dup9\n        /* \"#utility.yul\":3866:3888   */\n      add\n        /* \"#utility.yul\":3845:3898   */\n      tag_98\n      jump\t// in\n    tag_128:\n        /* \"#utility.yul\":3835:3898   */\n      swap2\n      pop\n        /* \"#utility.yul\":3790:3908   */\n      pop\n        /* \"#utility.yul\":2954:3915   */\n      swap3\n      swap6\n      swap2\n      swap5\n      pop\n      swap3\n      pop\n      jump\t// out\n        /* \"#utility.yul\":3921:4068   */\n    tag_129:\n        /* \"#utility.yul\":4016:4061   */\n      tag_131\n        /* \"#utility.yul\":4055:4060   */\n      dup2\n        /* \"#utility.yul\":4016:4061   */\n      tag_132\n      jump\t// in\n    tag_131:\n        /* \"#utility.yul\":4011:4014   */\n      dup3\n        /* \"#utility.yul\":4004:4062   */\n      mstore\n        /* \"#utility.yul\":3921:4068   */\n      pop\n      pop\n      jump\t// out\n        /* \"#utility.yul\":4074:4192   */\n    tag_133:\n        /* \"#utility.yul\":4161:4185   */\n      tag_135\n        /* \"#utility.yul\":4179:4184   */\n      dup2\n        /* \"#utility.yul\":4161:4185   */\n      tag_136\n      jump\t// in\n    tag_135:\n        /* \"#utility.yul\":4156:4159   */\n      dup3\n        /* \"#utility.yul\":4149:4186   */\n      mstore\n        /* \"#utility.yul\":4074:4192   */\n      pop\n      pop\n      jump\t// out\n        /* \"#utility.yul\":4198:4381   */\n    tag_137:\n        /* \"#utility.yul\":4311:4374   */\n      tag_139\n        /* \"#utility.yul\":4368:4373   */\n      dup2\n        /* \"#utility.yul\":4311:4374   */\n      tag_140\n      jump\t// in\n    tag_139:\n        /* \"#utility.yul\":4306:4309   */\n      dup3\n        /* \"#utility.yul\":4299:4375   */\n      mstore\n        /* \"#utility.yul\":4198:4381   */\n      pop\n      pop\n      jump\t// out\n        /* \"#utility.yul\":4387:4753   */\n    tag_141:\n        /* \"#utility.yul\":4529:4532   */\n      0x00\n        /* \"#utility.yul\":4550:4617   */\n      tag_143\n        /* \"#utility.yul\":4614:4616   */\n      0x26\n        /* \"#utility.yul\":4609:4612   */\n      dup4\n        /* \"#utility.yul\":4550:4617   */\n      tag_144\n      jump\t// in\n    tag_143:\n        /* \"#utility.yul\":4543:4617   */\n      swap2\n      pop\n        /* \"#utility.yul\":4626:4719   */\n      tag_145\n        /* \"#utility.yul\":4715:4718   */\n      dup3\n        /* \"#utility.yul\":4626:4719   */\n      tag_146\n      jump\t// in\n    tag_145:\n        /* \"#utility.yul\":4744:4746   */\n      0x40\n        /* \"#utility.yul\":4739:4742   */\n      dup3\n        /* \"#utility.yul\":4735:4747   */\n      add\n        /* \"#utility.yul\":4728:4747   */\n      swap1\n      pop\n        /* \"#utility.yul\":4387:4753   */\n      swap2\n      swap1\n      pop\n      jump\t// out\n        /* \"#utility.yul\":4759:4877   */\n    tag_147:\n        /* \"#utility.yul\":4846:4870   */\n      tag_149\n        /* \"#utility.yul\":4864:4869   */\n      dup2\n        /* \"#utility.yul\":4846:4870   */\n      tag_150\n      jump\t// in\n    tag_149:\n        /* \"#utility.yul\":4841:4844   */\n      dup3\n        /* \"#utility.yul\":4834:4871   */\n      mstore\n        /* \"#utility.yul\":4759:4877   */\n      pop\n      pop\n      jump\t// out\n        /* \"#utility.yul\":4883:5105   */\n    tag_37:\n        /* \"#utility.yul\":4976:4980   */\n      0x00\n        /* \"#utility.yul\":5014:5016   */\n      0x20\n        /* \"#utility.yul\":5003:5012   */\n      dup3\n        /* \"#utility.yul\":4999:5017   */\n      add\n        /* \"#utility.yul\":4991:5017   */\n      swap1\n      pop\n        /* \"#utility.yul\":5027:5098   */\n      tag_152\n        /* \"#utility.yul\":5095:5096   */\n      0x00\n        /* \"#utility.yul\":5084:5093   */\n      dup4\n        /* \"#utility.yul\":5080:5097   */\n      add\n        /* \"#utility.yul\":5071:5077   */\n      dup5\n        /* \"#utility.yul\":5027:5098   */\n      tag_133\n      jump\t// in\n    tag_152:\n        /* \"#utility.yul\":4883:5105   */\n      swap3\n      swap2\n      pop\n      pop\n      jump\t// out\n        /* \"#utility.yul\":5111:5569   */\n    tag_45:\n        /* \"#utility.yul\":5268:5272   */\n      0x00\n        /* \"#utility.yul\":5306:5308   */\n      0x60\n        /* \"#utility.yul\":5295:5304   */\n      dup3\n        /* \"#utility.yul\":5291:5309   */\n      add\n        /* \"#utility.yul\":5283:5309   */\n      swap1\n      pop\n        /* \"#utility.yul\":5319:5390   */\n      tag_154\n        /* \"#utility.yul\":5387:5388   */\n      0x00\n        /* \"#utility.yul\":5376:5385   */\n      dup4\n        /* \"#utility.yul\":5372:5389   */\n      add\n        /* \"#utility.yul\":5363:5369   */\n      dup7\n        /* \"#utility.yul\":5319:5390   */\n      tag_133\n      jump\t// in\n    tag_154:\n        /* \"#utility.yul\":5400:5480   */\n      tag_155\n        /* \"#utility.yul\":5476:5478   */\n      0x20\n        /* \"#utility.yul\":5465:5474   */\n      dup4\n        /* \"#utility.yul\":5461:5479   */\n      add\n        /* \"#utility.yul\":5452:5458   */\n      dup6\n        /* \"#utility.yul\":5400:5480   */\n      tag_129\n      jump\t// in\n    tag_155:\n        /* \"#utility.yul\":5490:5562   */\n      tag_156\n        /* \"#utility.yul\":5558:5560   */\n      0x40\n        /* \"#utility.yul\":5547:5556   */\n      dup4\n        /* \"#utility.yul\":5543:5561   */\n      add\n        /* \"#utility.yul\":5534:5540   */\n      dup5\n        /* \"#utility.yul\":5490:5562   */\n      tag_147\n      jump\t// in\n    tag_156:\n        /* \"#utility.yul\":5111:5569   */\n      swap5\n      swap4\n      pop\n      pop\n      pop\n      pop\n      jump\t// out\n        /* \"#utility.yul\":5575:5849   */\n    tag_53:\n        /* \"#utility.yul\":5694:5698   */\n      0x00\n        /* \"#utility.yul\":5732:5734   */\n      0x20\n        /* \"#utility.yul\":5721:5730   */\n      dup3\n        /* \"#utility.yul\":5717:5735   */\n      add\n        /* \"#utility.yul\":5709:5735   */\n      swap1\n      pop\n        /* \"#utility.yul\":5745:5842   */\n      tag_158\n        /* \"#utility.yul\":5839:5840   */\n      0x00\n        /* \"#utility.yul\":5828:5837   */\n      dup4\n        /* \"#utility.yul\":5824:5841   */\n      add\n        /* \"#utility.yul\":5815:5821   */\n      dup5\n        /* \"#utility.yul\":5745:5842   */\n      tag_137\n      jump\t// in\n    tag_158:\n        /* \"#utility.yul\":5575:5849   */\n      swap3\n      swap2\n      pop\n      pop\n      jump\t// out\n        /* \"#utility.yul\":5855:6274   */\n    tag_61:\n        /* \"#utility.yul\":6021:6025   */\n      0x00\n        /* \"#utility.yul\":6059:6061   */\n      0x20\n        /* \"#utility.yul\":6048:6057   */\n      dup3\n        /* \"#utility.yul\":6044:6062   */\n      add\n        /* \"#utility.yul\":6036:6062   */\n      swap1\n      pop\n        /* \"#utility.yul\":6108:6117   */\n      dup2\n        /* \"#utility.yul\":6102:6106   */\n      dup2\n        /* \"#utility.yul\":6098:6118   */\n      sub\n        /* \"#utility.yul\":6094:6095   */\n      0x00\n        /* \"#utility.yul\":6083:6092   */\n      dup4\n        /* \"#utility.yul\":6079:6096   */\n      add\n        /* \"#utility.yul\":6072:6119   */\n      mstore\n        /* \"#utility.yul\":6136:6267   */\n      tag_160\n        /* \"#utility.yul\":6262:6266   */\n      dup2\n        /* \"#utility.yul\":6136:6267   */\n      tag_141\n      jump\t// in\n    tag_160:\n        /* \"#utility.yul\":6128:6267   */\n      swap1\n      pop\n        /* \"#utility.yul\":5855:6274   */\n      swap2\n      swap1\n      pop\n      jump\t// out\n        /* \"#utility.yul\":6280:6409   */\n    tag_71:\n        /* \"#utility.yul\":6314:6320   */\n      0x00\n        /* \"#utility.yul\":6341:6361   */\n      tag_162\n      tag_163\n      jump\t// in\n    tag_162:\n        /* \"#utility.yul\":6331:6361   */\n      swap1\n      pop\n        /* \"#utility.yul\":6370:6403   */\n      tag_164\n        /* \"#utility.yul\":6398:6402   */\n      dup3\n        /* \"#utility.yul\":6390:6396   */\n      dup3\n        /* \"#utility.yul\":6370:6403   */\n      tag_165\n      jump\t// in\n    tag_164:\n        /* \"#utility.yul\":6280:6409   */\n      swap2\n      swap1\n      pop\n      jump\t// out\n        /* \"#utility.yul\":6415:6490   */\n    tag_163:\n        /* \"#utility.yul\":6448:6454   */\n      0x00\n        /* \"#utility.yul\":6481:6483   */\n      0x40\n        /* \"#utility.yul\":6475:6484   */\n      mload\n        /* \"#utility.yul\":6465:6484   */\n      swap1\n      pop\n        /* \"#utility.yul\":6415:6490   */\n      swap1\n      jump\t// out\n        /* \"#utility.yul\":6496:6804   */\n    tag_70:\n        /* \"#utility.yul\":6558:6562   */\n      0x00\n        /* \"#utility.yul\":6648:6666   */\n      0xffffffffffffffff\n        /* \"#utility.yul\":6640:6646   */\n      dup3\n        /* \"#utility.yul\":6637:6667   */\n      gt\n        /* \"#utility.yul\":6634:6690   */\n      iszero\n      tag_168\n      jumpi\n        /* \"#utility.yul\":6670:6688   */\n      tag_169\n      tag_170\n      jump\t// in\n    tag_169:\n        /* \"#utility.yul\":6634:6690   */\n    tag_168:\n        /* \"#utility.yul\":6708:6737   */\n      tag_171\n        /* \"#utility.yul\":6730:6736   */\n      dup3\n        /* \"#utility.yul\":6708:6737   */\n      tag_172\n      jump\t// in\n    tag_171:\n        /* \"#utility.yul\":6700:6737   */\n      swap1\n      pop\n        /* \"#utility.yul\":6792:6796   */\n      0x20\n        /* \"#utility.yul\":6786:6790   */\n      dup2\n        /* \"#utility.yul\":6782:6797   */\n      add\n        /* \"#utility.yul\":6774:6797   */\n      swap1\n      pop\n        /* \"#utility.yul\":6496:6804   */\n      swap2\n      swap1\n      pop\n      jump\t// out\n        /* \"#utility.yul\":6810:6979   */\n    tag_144:\n        /* \"#utility.yul\":6894:6905   */\n      0x00\n        /* \"#utility.yul\":6928:6934   */\n      dup3\n        /* \"#utility.yul\":6923:6926   */\n      dup3\n        /* \"#utility.yul\":6916:6935   */\n      mstore\n        /* \"#utility.yul\":6968:6972   */\n      0x20\n        /* \"#utility.yul\":6963:6966   */\n      dup3\n        /* \"#utility.yul\":6959:6973   */\n      add\n        /* \"#utility.yul\":6944:6973   */\n      swap1\n      pop\n        /* \"#utility.yul\":6810:6979   */\n      swap3\n      swap2\n      pop\n      pop\n      jump\t// out\n        /* \"#utility.yul\":6985:7081   */\n    tag_136:\n        /* \"#utility.yul\":7022:7029   */\n      0x00\n        /* \"#utility.yul\":7051:7075   */\n      tag_175\n        /* \"#utility.yul\":7069:7074   */\n      dup3\n        /* \"#utility.yul\":7051:7075   */\n      tag_176\n      jump\t// in\n    tag_175:\n        /* \"#utility.yul\":7040:7075   */\n      swap1\n      pop\n        /* \"#utility.yul\":6985:7081   */\n      swap2\n      swap1\n      pop\n      jump\t// out\n        /* \"#utility.yul\":7087:7191   */\n    tag_177:\n        /* \"#utility.yul\":7132:7139   */\n      0x00\n        /* \"#utility.yul\":7161:7185   */\n      tag_179\n        /* \"#utility.yul\":7179:7184   */\n      dup3\n        /* \"#utility.yul\":7161:7185   */\n      tag_176\n      jump\t// in\n    tag_179:\n        /* \"#utility.yul\":7150:7185   */\n      swap1\n      pop\n        /* \"#utility.yul\":7087:7191   */\n      swap2\n      swap1\n      pop\n      jump\t// out\n        /* \"#utility.yul\":7197:7287   */\n    tag_180:\n        /* \"#utility.yul\":7231:7238   */\n      0x00\n        /* \"#utility.yul\":7274:7279   */\n      dup2\n        /* \"#utility.yul\":7267:7280   */\n      iszero\n        /* \"#utility.yul\":7260:7281   */\n      iszero\n        /* \"#utility.yul\":7249:7281   */\n      swap1\n      pop\n        /* \"#utility.yul\":7197:7287   */\n      swap2\n      swap1\n      pop\n      jump\t// out\n        /* \"#utility.yul\":7293:7419   */\n    tag_176:\n        /* \"#utility.yul\":7330:7337   */\n      0x00\n        /* \"#utility.yul\":7370:7412   */\n      0xffffffffffffffffffffffffffffffffffffffff\n        /* \"#utility.yul\":7363:7368   */\n      dup3\n        /* \"#utility.yul\":7359:7413   */\n      and\n        /* \"#utility.yul\":7348:7413   */\n      swap1\n      pop\n        /* \"#utility.yul\":7293:7419   */\n      swap2\n      swap1\n      pop\n      jump\t// out\n        /* \"#utility.yul\":7425:7502   */\n    tag_150:\n        /* \"#utility.yul\":7462:7469   */\n      0x00\n        /* \"#utility.yul\":7491:7496   */\n      dup2\n        /* \"#utility.yul\":7480:7496   */\n      swap1\n      pop\n        /* \"#utility.yul\":7425:7502   */\n      swap2\n      swap1\n      pop\n      jump\t// out\n        /* \"#utility.yul\":7508:7642   */\n    tag_132:\n        /* \"#utility.yul\":7566:7575   */\n      0x00\n        /* \"#utility.yul\":7599:7636   */\n      tag_185\n        /* \"#utility.yul\":7630:7635   */\n      dup3\n        /* \"#utility.yul\":7599:7636   */\n      tag_186\n      jump\t// in\n    tag_185:\n        /* \"#utility.yul\":7586:7636   */\n      swap1\n      pop\n        /* \"#utility.yul\":7508:7642   */\n      swap2\n      swap1\n      pop\n      jump\t// out\n        /* \"#utility.yul\":7648:7808   */\n    tag_140:\n        /* \"#utility.yul\":7724:7733   */\n      0x00\n        /* \"#utility.yul\":7757:7802   */\n      tag_188\n        /* \"#utility.yul\":7796:7801   */\n      dup3\n        /* \"#utility.yul\":7757:7802   */\n      tag_189\n      jump\t// in\n    tag_188:\n        /* \"#utility.yul\":7744:7802   */\n      swap1\n      pop\n        /* \"#utility.yul\":7648:7808   */\n      swap2\n      swap1\n      pop\n      jump\t// out\n        /* \"#utility.yul\":7814:7940   */\n    tag_186:\n        /* \"#utility.yul\":7864:7873   */\n      0x00\n        /* \"#utility.yul\":7897:7934   */\n      tag_191\n        /* \"#utility.yul\":7928:7933   */\n      dup3\n        /* \"#utility.yul\":7897:7934   */\n      tag_192\n      jump\t// in\n    tag_191:\n        /* \"#utility.yul\":7884:7934   */\n      swap1\n      pop\n        /* \"#utility.yul\":7814:7940   */\n      swap2\n      swap1\n      pop\n      jump\t// out\n        /* \"#utility.yul\":7946:8080   */\n    tag_189:\n        /* \"#utility.yul\":8004:8013   */\n      0x00\n        /* \"#utility.yul\":8037:8074   */\n      tag_194\n        /* \"#utility.yul\":8068:8073   */\n      dup3\n        /* \"#utility.yul\":8037:8074   */\n      tag_192\n      jump\t// in\n    tag_194:\n        /* \"#utility.yul\":8024:8074   */\n      swap1\n      pop\n        /* \"#utility.yul\":7946:8080   */\n      swap2\n      swap1\n      pop\n      jump\t// out\n        /* \"#utility.yul\":8086:8199   */\n    tag_192:\n        /* \"#utility.yul\":8136:8145   */\n      0x00\n        /* \"#utility.yul\":8169:8193   */\n      tag_196\n        /* \"#utility.yul\":8187:8192   */\n      dup3\n        /* \"#utility.yul\":8169:8193   */\n      tag_176\n      jump\t// in\n    tag_196:\n        /* \"#utility.yul\":8156:8193   */\n      swap1\n      pop\n        /* \"#utility.yul\":8086:8199   */\n      swap2\n      swap1\n      pop\n      jump\t// out\n        /* \"#utility.yul\":8205:8359   */\n    tag_76:\n        /* \"#utility.yul\":8289:8295   */\n      dup3\n        /* \"#utility.yul\":8284:8287   */\n      dup2\n        /* \"#utility.yul\":8279:8282   */\n      dup4\n        /* \"#utility.yul\":8266:8296   */\n      calldatacopy\n        /* \"#utility.yul\":8351:8352   */\n      0x00\n        /* \"#utility.yul\":8342:8348   */\n      dup4\n        /* \"#utility.yul\":8337:8340   */\n      dup4\n        /* \"#utility.yul\":8333:8349   */\n      add\n        /* \"#utility.yul\":8326:8353   */\n      mstore\n        /* \"#utility.yul\":8205:8359   */\n      pop\n      pop\n      pop\n      jump\t// out\n        /* \"#utility.yul\":8365:8646   */\n    tag_165:\n        /* \"#utility.yul\":8448:8475   */\n      tag_199\n        /* \"#utility.yul\":8470:8474   */\n      dup3\n        /* \"#utility.yul\":8448:8475   */\n      tag_172\n      jump\t// in\n    tag_199:\n        /* \"#utility.yul\":8440:8446   */\n      dup2\n        /* \"#utility.yul\":8436:8476   */\n      add\n        /* \"#utility.yul\":8578:8584   */\n      dup2\n        /* \"#utility.yul\":8566:8576   */\n      dup2\n        /* \"#utility.yul\":8563:8585   */\n      lt\n        /* \"#utility.yul\":8542:8560   */\n      0xffffffffffffffff\n        /* \"#utility.yul\":8530:8540   */\n      dup3\n        /* \"#utility.yul\":8527:8561   */\n      gt\n        /* \"#utility.yul\":8524:8586   */\n      or\n        /* \"#utility.yul\":8521:8609   */\n      iszero\n      tag_200\n      jumpi\n        /* \"#utility.yul\":8589:8607   */\n      tag_201\n      tag_170\n      jump\t// in\n    tag_201:\n        /* \"#utility.yul\":8521:8609   */\n    tag_200:\n        /* \"#utility.yul\":8629:8639   */\n      dup1\n        /* \"#utility.yul\":8625:8627   */\n      0x40\n        /* \"#utility.yul\":8618:8640   */\n      mstore\n        /* \"#utility.yul\":8408:8646   */\n      pop\n        /* \"#utility.yul\":8365:8646   */\n      pop\n      pop\n      jump\t// out\n        /* \"#utility.yul\":8652:8832   */\n    tag_31:\n        /* \"#utility.yul\":8700:8777   */\n      0x4e487b7100000000000000000000000000000000000000000000000000000000\n        /* \"#utility.yul\":8697:8698   */\n      0x00\n        /* \"#utility.yul\":8690:8778   */\n      mstore\n        /* \"#utility.yul\":8797:8801   */\n      0x01\n        /* \"#utility.yul\":8794:8795   */\n      0x04\n        /* \"#utility.yul\":8787:8802   */\n      mstore\n        /* \"#utility.yul\":8821:8825   */\n      0x24\n        /* \"#utility.yul\":8818:8819   */\n      0x00\n        /* \"#utility.yul\":8811:8826   */\n      revert\n        /* \"#utility.yul\":8838:9018   */\n    tag_170:\n        /* \"#utility.yul\":8886:8963   */\n      0x4e487b7100000000000000000000000000000000000000000000000000000000\n        /* \"#utility.yul\":8883:8884   */\n      0x00\n        /* \"#utility.yul\":8876:8964   */\n      mstore\n        /* \"#utility.yul\":8983:8987   */\n      0x41\n        /* \"#utility.yul\":8980:8981   */\n      0x04\n        /* \"#utility.yul\":8973:8988   */\n      mstore\n        /* \"#utility.yul\":9007:9011   */\n      0x24\n        /* \"#utility.yul\":9004:9005   */\n      0x00\n        /* \"#utility.yul\":8997:9012   */\n      revert\n        /* \"#utility.yul\":9024:9141   */\n    tag_96:\n        /* \"#utility.yul\":9133:9134   */\n      0x00\n        /* \"#utility.yul\":9130:9131   */\n      dup1\n        /* \"#utility.yul\":9123:9135   */\n      revert\n        /* \"#utility.yul\":9147:9264   */\n    tag_74:\n        /* \"#utility.yul\":9256:9257   */\n      0x00\n        /* \"#utility.yul\":9253:9254   */\n      dup1\n        /* \"#utility.yul\":9246:9258   */\n      revert\n        /* \"#utility.yul\":9270:9387   */\n    tag_124:\n        /* \"#utility.yul\":9379:9380   */\n      0x00\n        /* \"#utility.yul\":9376:9377   */\n      dup1\n        /* \"#utility.yul\":9369:9381   */\n      revert\n        /* \"#utility.yul\":9393:9510   */\n    tag_105:\n        /* \"#utility.yul\":9502:9503   */\n      0x00\n        /* \"#utility.yul\":9499:9500   */\n      dup1\n        /* \"#utility.yul\":9492:9504   */\n      revert\n        /* \"#utility.yul\":9516:9618   */\n    tag_172:\n        /* \"#utility.yul\":9557:9563   */\n      0x00\n        /* \"#utility.yul\":9608:9610   */\n      0x1f\n        /* \"#utility.yul\":9604:9611   */\n      not\n        /* \"#utility.yul\":9599:9601   */\n      0x1f\n        /* \"#utility.yul\":9592:9597   */\n      dup4\n        /* \"#utility.yul\":9588:9602   */\n      add\n        /* \"#utility.yul\":9584:9612   */\n      and\n        /* \"#utility.yul\":9574:9612   */\n      swap1\n      pop\n        /* \"#utility.yul\":9516:9618   */\n      swap2\n      swap1\n      pop\n      jump\t// out\n        /* \"#utility.yul\":9624:9849   */\n    tag_146:\n        /* \"#utility.yul\":9764:9798   */\n      0x4f776e61626c653a206e6577206f776e657220697320746865207a65726f2061\n        /* \"#utility.yul\":9760:9761   */\n      0x00\n        /* \"#utility.yul\":9752:9758   */\n      dup3\n        /* \"#utility.yul\":9748:9762   */\n      add\n        /* \"#utility.yul\":9741:9799   */\n      mstore\n        /* \"#utility.yul\":9833:9841   */\n      0x6464726573730000000000000000000000000000000000000000000000000000\n        /* \"#utility.yul\":9828:9830   */\n      0x20\n        /* \"#utility.yul\":9820:9826   */\n      dup3\n        /* \"#utility.yul\":9816:9831   */\n      add\n        /* \"#utility.yul\":9809:9842   */\n      mstore\n        /* \"#utility.yul\":9624:9849   */\n      pop\n      jump\t// out\n        /* \"#utility.yul\":9855:9977   */\n    tag_80:\n        /* \"#utility.yul\":9928:9952   */\n      tag_211\n        /* \"#utility.yul\":9946:9951   */\n      dup2\n        /* \"#utility.yul\":9928:9952   */\n      tag_136\n      jump\t// in\n    tag_211:\n        /* \"#utility.yul\":9921:9926   */\n      dup2\n        /* \"#utility.yul\":9918:9953   */\n      eq\n        /* \"#utility.yul\":9908:9971   */\n      tag_212\n      jumpi\n        /* \"#utility.yul\":9967:9968   */\n      0x00\n        /* \"#utility.yul\":9964:9965   */\n      dup1\n        /* \"#utility.yul\":9957:9969   */\n      revert\n        /* \"#utility.yul\":9908:9971   */\n    tag_212:\n        /* \"#utility.yul\":9855:9977   */\n      pop\n      jump\t// out\n        /* \"#utility.yul\":9983:10121   */\n    tag_84:\n        /* \"#utility.yul\":10064:10096   */\n      tag_214\n        /* \"#utility.yul\":10090:10095   */\n      dup2\n        /* \"#utility.yul\":10064:10096   */\n      tag_177\n      jump\t// in\n    tag_214:\n        /* \"#utility.yul\":10057:10062   */\n      dup2\n        /* \"#utility.yul\":10054:10097   */\n      eq\n        /* \"#utility.yul\":10044:10115   */\n      tag_215\n      jumpi\n        /* \"#utility.yul\":10111:10112   */\n      0x00\n        /* \"#utility.yul\":10108:10109   */\n      dup1\n        /* \"#utility.yul\":10101:10113   */\n      revert\n        /* \"#utility.yul\":10044:10115   */\n    tag_215:\n        /* \"#utility.yul\":9983:10121   */\n      pop\n      jump\t// out\n        /* \"#utility.yul\":10127:10243   */\n    tag_91:\n        /* \"#utility.yul\":10197:10218   */\n      tag_217\n        /* \"#utility.yul\":10212:10217   */\n      dup2\n        /* \"#utility.yul\":10197:10218   */\n      tag_180\n      jump\t// in\n    tag_217:\n        /* \"#utility.yul\":10190:10195   */\n      dup2\n        /* \"#utility.yul\":10187:10219   */\n      eq\n        /* \"#utility.yul\":10177:10237   */\n      tag_218\n      jumpi\n        /* \"#utility.yul\":10233:10234   */\n      0x00\n        /* \"#utility.yul\":10230:10231   */\n      dup1\n        /* \"#utility.yul\":10223:10235   */\n      revert\n        /* \"#utility.yul\":10177:10237   */\n    tag_218:\n        /* \"#utility.yul\":10127:10243   */\n      pop\n      jump\t// out\n        /* \"#utility.yul\":10249:10371   */\n    tag_101:\n        /* \"#utility.yul\":10322:10346   */\n      tag_220\n        /* \"#utility.yul\":10340:10345   */\n      dup2\n        /* \"#utility.yul\":10322:10346   */\n      tag_150\n      jump\t// in\n    tag_220:\n        /* \"#utility.yul\":10315:10320   */\n      dup2\n        /* \"#utility.yul\":10312:10347   */\n      eq\n        /* \"#utility.yul\":10302:10365   */\n      tag_221\n      jumpi\n        /* \"#utility.yul\":10361:10362   */\n      0x00\n        /* \"#utility.yul\":10358:10359   */\n      dup1\n        /* \"#utility.yul\":10351:10363   */\n      revert\n        /* \"#utility.yul\":10302:10365   */\n    tag_221:\n        /* \"#utility.yul\":10249:10371   */\n      pop\n      jump\t// out\n    stop\n\n    sub_0: assembly {\n            /* \"contracts/Bounty.sol\":912:2037  contract BountyAddr {... */\n          mstore(0x40, 0x80)\n            /* \"contracts/Bounty.sol\":1241:1314  constructor(address bountyBase) {... */\n          callvalue\n          dup1\n          iszero\n          tag_1\n          jumpi\n          0x00\n          dup1\n          revert\n        tag_1:\n          pop\n          mload(0x40)\n          sub(codesize, bytecodeSize)\n          dup1\n          bytecodeSize\n          dup4\n          codecopy\n          dup2\n          dup2\n          add\n          0x40\n          mstore\n          dup2\n          add\n          swap1\n          tag_2\n          swap2\n          swap1\n          tag_3\n          jump\t// in\n        tag_2:\n            /* \"contracts/Bounty.sol\":1297:1307  bountyBase */\n          dup1\n            /* \"contracts/Bounty.sol\":1283:1294  _bountyBase */\n          0x00\n          dup1\n            /* \"contracts/Bounty.sol\":1283:1307  _bountyBase = bountyBase */\n          0x0100\n          exp\n          dup2\n          sload\n          dup2\n          0xffffffffffffffffffffffffffffffffffffffff\n          mul\n          not\n          and\n          swap1\n          dup4\n          0xffffffffffffffffffffffffffffffffffffffff\n          and\n          mul\n          or\n          swap1\n          sstore\n          pop\n            /* \"contracts/Bounty.sol\":1241:1314  constructor(address bountyBase) {... */\n          pop\n            /* \"contracts/Bounty.sol\":912:2037  contract BountyAddr {... */\n          jump(tag_6)\n            /* \"#utility.yul\":7:150   */\n        tag_8:\n            /* \"#utility.yul\":64:69   */\n          0x00\n            /* \"#utility.yul\":95:101   */\n          dup2\n            /* \"#utility.yul\":89:102   */\n          mload\n            /* \"#utility.yul\":80:102   */\n          swap1\n          pop\n            /* \"#utility.yul\":111:144   */\n          tag_10\n            /* \"#utility.yul\":138:143   */\n          dup2\n            /* \"#utility.yul\":111:144   */\n          tag_11\n          jump\t// in\n        tag_10:\n            /* \"#utility.yul\":7:150   */\n          swap3\n          swap2\n          pop\n          pop\n          jump\t// out\n            /* \"#utility.yul\":156:507   */\n        tag_3:\n            /* \"#utility.yul\":226:232   */\n          0x00\n            /* \"#utility.yul\":275:277   */\n          0x20\n            /* \"#utility.yul\":263:272   */\n          dup3\n            /* \"#utility.yul\":254:261   */\n          dup5\n            /* \"#utility.yul\":250:273   */\n          sub\n            /* \"#utility.yul\":246:278   */\n          slt\n            /* \"#utility.yul\":243:362   */\n          iszero\n          tag_13\n          jumpi\n            /* \"#utility.yul\":281:360   */\n          tag_14\n          tag_15\n          jump\t// in\n        tag_14:\n            /* \"#utility.yul\":243:362   */\n        tag_13:\n            /* \"#utility.yul\":401:402   */\n          0x00\n            /* \"#utility.yul\":426:490   */\n          tag_16\n            /* \"#utility.yul\":482:489   */\n          dup5\n            /* \"#utility.yul\":473:479   */\n          dup3\n            /* \"#utility.yul\":462:471   */\n          dup6\n            /* \"#utility.yul\":458:480   */\n          add\n            /* \"#utility.yul\":426:490   */\n          tag_8\n          jump\t// in\n        tag_16:\n            /* \"#utility.yul\":416:490   */\n          swap2\n          pop\n            /* \"#utility.yul\":372:500   */\n          pop\n            /* \"#utility.yul\":156:507   */\n          swap3\n          swap2\n          pop\n          pop\n          jump\t// out\n            /* \"#utility.yul\":594:690   */\n        tag_19:\n            /* \"#utility.yul\":631:638   */\n          0x00\n            /* \"#utility.yul\":660:684   */\n          tag_21\n            /* \"#utility.yul\":678:683   */\n          dup3\n            /* \"#utility.yul\":660:684   */\n          tag_22\n          jump\t// in\n        tag_21:\n            /* \"#utility.yul\":649:684   */\n          swap1\n          pop\n            /* \"#utility.yul\":594:690   */\n          swap2\n          swap1\n          pop\n          jump\t// out\n            /* \"#utility.yul\":696:822   */\n        tag_22:\n            /* \"#utility.yul\":733:740   */\n          0x00\n            /* \"#utility.yul\":773:815   */\n          0xffffffffffffffffffffffffffffffffffffffff\n            /* \"#utility.yul\":766:771   */\n          dup3\n            /* \"#utility.yul\":762:816   */\n          and\n            /* \"#utility.yul\":751:816   */\n          swap1\n          pop\n            /* \"#utility.yul\":696:822   */\n          swap2\n          swap1\n          pop\n          jump\t// out\n            /* \"#utility.yul\":951:1068   */\n        tag_15:\n            /* \"#utility.yul\":1060:1061   */\n          0x00\n            /* \"#utility.yul\":1057:1058   */\n          dup1\n            /* \"#utility.yul\":1050:1062   */\n          revert\n            /* \"#utility.yul\":1074:1196   */\n        tag_11:\n            /* \"#utility.yul\":1147:1171   */\n          tag_28\n            /* \"#utility.yul\":1165:1170   */\n          dup2\n            /* \"#utility.yul\":1147:1171   */\n          tag_19\n          jump\t// in\n        tag_28:\n            /* \"#utility.yul\":1140:1145   */\n          dup2\n            /* \"#utility.yul\":1137:1172   */\n          eq\n            /* \"#utility.yul\":1127:1190   */\n          tag_29\n          jumpi\n            /* \"#utility.yul\":1186:1187   */\n          0x00\n            /* \"#utility.yul\":1183:1184   */\n          dup1\n            /* \"#utility.yul\":1176:1188   */\n          revert\n            /* \"#utility.yul\":1127:1190   */\n        tag_29:\n            /* \"#utility.yul\":1074:1196   */\n          pop\n          jump\t// out\n            /* \"contracts/Bounty.sol\":912:2037  contract BountyAddr {... */\n        tag_6:\n          dataSize(sub_0)\n          dup1\n          dataOffset(sub_0)\n          0x00\n          codecopy\n          0x00\n          return\n        stop\n\n        sub_0: assembly {\n                /* \"contracts/Bounty.sol\":912:2037  contract BountyAddr {... */\n              mstore(0x40, 0x80)\n              jumpi(tag_1, lt(calldatasize, 0x04))\n              shr(0xe0, calldataload(0x00))\n              dup1\n              0x026b1d5f\n              eq\n              tag_3\n              jumpi\n              dup1\n              0x13658f8a\n              eq\n              tag_4\n              jumpi\n              dup1\n              0x23b872dd\n              eq\n              tag_5\n              jumpi\n              dup1\n              0xbeabacc8\n              eq\n              tag_6\n              jumpi\n              dup1\n              0xd0e30db0\n              eq\n              tag_7\n              jumpi\n              dup1\n              0xe1f21c67\n              eq\n              tag_8\n              jumpi\n              jump(tag_2)\n            tag_1:\n              jumpi(tag_2, calldatasize)\n                /* \"contracts/Bounty.sol\":1040:1041  0 */\n              0x00\n                /* \"contracts/Bounty.sol\":1008:1042  address(_bountyBase) != address(0) */\n              0xffffffffffffffffffffffffffffffffffffffff\n              and\n                /* \"contracts/Bounty.sol\":1016:1027  _bountyBase */\n              0x00\n              dup1\n              sload\n              swap1\n              0x0100\n              exp\n              swap1\n              div\n              0xffffffffffffffffffffffffffffffffffffffff\n              and\n                /* \"contracts/Bounty.sol\":1008:1042  address(_bountyBase) != address(0) */\n              0xffffffffffffffffffffffffffffffffffffffff\n              and\n              eq\n              iszero\n                /* \"contracts/Bounty.sol\":1000:1063  require(address(_bountyBase) != address(0), 'need init bounty') */\n              tag_11\n              jumpi\n              mload(0x40)\n              0x08c379a000000000000000000000000000000000000000000000000000000000\n              dup2\n              mstore\n              0x04\n              add\n              tag_12\n              swap1\n              tag_13\n              jump\t// in\n            tag_12:\n              mload(0x40)\n              dup1\n              swap2\n              sub\n              swap1\n              revert\n            tag_11:\n                /* \"contracts/Bounty.sol\":912:2037  contract BountyAddr {... */\n              stop\n            tag_2:\n              0x00\n              dup1\n              revert\n                /* \"contracts/Bounty.sol\":1923:2035  function getPool() public view virtual returns (address payable) {... */\n            tag_3:\n              callvalue\n              dup1\n              iszero\n              tag_15\n              jumpi\n              0x00\n              dup1\n              revert\n            tag_15:\n              pop\n              tag_16\n              tag_17\n              jump\t// in\n            tag_16:\n              mload(0x40)\n              tag_18\n              swap2\n              swap1\n              tag_19\n              jump\t// in\n            tag_18:\n              mload(0x40)\n              dup1\n              swap2\n              sub\n              swap1\n              return\n                /* \"contracts/Bounty.sol\":1320:1433  function stableTransfer(address payable to, uint256 amount) external payable {... */\n            tag_4:\n              tag_20\n              0x04\n              dup1\n              calldatasize\n              sub\n              dup2\n              add\n              swap1\n              tag_21\n              swap2\n              swap1\n              tag_22\n              jump\t// in\n            tag_21:\n              tag_23\n              jump\t// in\n            tag_20:\n              stop\n                /* \"contracts/Bounty.sol\":1564:1708  function transferFrom(IERC20 token, address to, uint256 amount) external {... */\n            tag_5:\n              callvalue\n              dup1\n              iszero\n              tag_24\n              jumpi\n              0x00\n              dup1\n              revert\n            tag_24:\n              pop\n              tag_25\n              0x04\n              dup1\n              calldatasize\n              sub\n              dup2\n              add\n              swap1\n              tag_26\n              swap2\n              swap1\n              tag_27\n              jump\t// in\n            tag_26:\n              tag_28\n              jump\t// in\n            tag_25:\n              stop\n                /* \"contracts/Bounty.sol\":1714:1835  function transfer(IERC20 token, address to, uint256 amount) external {... */\n            tag_6:\n              callvalue\n              dup1\n              iszero\n              tag_29\n              jumpi\n              0x00\n              dup1\n              revert\n            tag_29:\n              pop\n              tag_30\n              0x04\n              dup1\n              calldatasize\n              sub\n              dup2\n              add\n              swap1\n              tag_31\n              swap2\n              swap1\n              tag_27\n              jump\t// in\n            tag_31:\n              tag_32\n              jump\t// in\n            tag_30:\n              stop\n                /* \"contracts/Bounty.sol\":1841:1916  function deposit() external payable {... */\n            tag_7:\n              tag_33\n              tag_34\n              jump\t// in\n            tag_33:\n              stop\n                /* \"contracts/Bounty.sol\":1439:1558  function approve(IERC20 token, address to, uint256 amount) external {... */\n            tag_8:\n              callvalue\n              dup1\n              iszero\n              tag_35\n              jumpi\n              0x00\n              dup1\n              revert\n            tag_35:\n              pop\n              tag_36\n              0x04\n              dup1\n              calldatasize\n              sub\n              dup2\n              add\n              swap1\n              tag_37\n              swap2\n              swap1\n              tag_27\n              jump\t// in\n            tag_37:\n              tag_38\n              jump\t// in\n            tag_36:\n              stop\n                /* \"contracts/Bounty.sol\":1923:2035  function getPool() public view virtual returns (address payable) {... */\n            tag_17:\n                /* \"contracts/Bounty.sol\":1971:1986  address payable */\n              0x00\n                /* \"contracts/Bounty.sol\":2022:2026  this */\n              address\n                /* \"contracts/Bounty.sol\":1999:2028  return payable(address(this)) */\n              swap1\n              pop\n                /* \"contracts/Bounty.sol\":1923:2035  function getPool() public view virtual returns (address payable) {... */\n              swap1\n              jump\t// out\n                /* \"contracts/Bounty.sol\":1320:1433  function stableTransfer(address payable to, uint256 amount) external payable {... */\n            tag_23:\n                /* \"contracts/Bounty.sol\":1407:1409  to */\n              dup2\n                /* \"contracts/Bounty.sol\":1407:1418  to.transfer */\n              0xffffffffffffffffffffffffffffffffffffffff\n              and\n                /* \"contracts/Bounty.sol\":1407:1426  to.transfer(amount) */\n              0x08fc\n                /* \"contracts/Bounty.sol\":1419:1425  amount */\n              dup3\n                /* \"contracts/Bounty.sol\":1407:1426  to.transfer(amount) */\n              swap1\n              dup2\n              iszero\n              mul\n              swap1\n              mload(0x40)\n              0x00\n              mload(0x40)\n              dup1\n              dup4\n              sub\n              dup2\n              dup6\n              dup9\n              dup9\n              call\n              swap4\n              pop\n              pop\n              pop\n              pop\n              iszero\n              dup1\n              iszero\n              tag_42\n              jumpi\n              returndatasize\n              0x00\n              dup1\n              returndatacopy\n              revert(0x00, returndatasize)\n            tag_42:\n              pop\n                /* \"contracts/Bounty.sol\":1320:1433  function stableTransfer(address payable to, uint256 amount) external payable {... */\n              pop\n              pop\n              jump\t// out\n                /* \"contracts/Bounty.sol\":1564:1708  function transferFrom(IERC20 token, address to, uint256 amount) external {... */\n            tag_28:\n                /* \"contracts/Bounty.sol\":1655:1660  token */\n              dup3\n                /* \"contracts/Bounty.sol\":1655:1673  token.transferFrom */\n              0xffffffffffffffffffffffffffffffffffffffff\n              and\n              0x23b872dd\n                /* \"contracts/Bounty.sol\":1682:1686  this */\n              address\n                /* \"contracts/Bounty.sol\":1689:1691  to */\n              dup5\n                /* \"contracts/Bounty.sol\":1693:1699  amount */\n              dup5\n                /* \"contracts/Bounty.sol\":1655:1700  token.transferFrom(address(this), to, amount) */\n              mload(0x40)\n              dup5\n              0xffffffff\n              and\n              0xe0\n              shl\n              dup2\n              mstore\n              0x04\n              add\n              tag_44\n              swap4\n              swap3\n              swap2\n              swap1\n              tag_45\n              jump\t// in\n            tag_44:\n              0x20\n              mload(0x40)\n              dup1\n              dup4\n              sub\n              dup2\n              0x00\n              dup8\n              dup1\n              extcodesize\n              iszero\n              dup1\n              iszero\n              tag_46\n              jumpi\n              0x00\n              dup1\n              revert\n            tag_46:\n              pop\n              gas\n              call\n              iszero\n              dup1\n              iszero\n              tag_48\n              jumpi\n              returndatasize\n              0x00\n              dup1\n              returndatacopy\n              revert(0x00, returndatasize)\n            tag_48:\n              pop\n              pop\n              pop\n              pop\n              mload(0x40)\n              returndatasize\n              not(0x1f)\n              0x1f\n              dup3\n              add\n              and\n              dup3\n              add\n              dup1\n              0x40\n              mstore\n              pop\n              dup2\n              add\n              swap1\n              tag_49\n              swap2\n              swap1\n              tag_50\n              jump\t// in\n            tag_49:\n                /* \"contracts/Bounty.sol\":1647:1701  require(token.transferFrom(address(this), to, amount)) */\n              tag_51\n              jumpi\n              0x00\n              dup1\n              revert\n            tag_51:\n                /* \"contracts/Bounty.sol\":1564:1708  function transferFrom(IERC20 token, address to, uint256 amount) external {... */\n              pop\n              pop\n              pop\n              jump\t// out\n                /* \"contracts/Bounty.sol\":1714:1835  function transfer(IERC20 token, address to, uint256 amount) external {... */\n            tag_32:\n                /* \"contracts/Bounty.sol\":1801:1806  token */\n              dup3\n                /* \"contracts/Bounty.sol\":1801:1815  token.transfer */\n              0xffffffffffffffffffffffffffffffffffffffff\n              and\n              0xa9059cbb\n                /* \"contracts/Bounty.sol\":1816:1818  to */\n              dup4\n                /* \"contracts/Bounty.sol\":1820:1826  amount */\n              dup4\n                /* \"contracts/Bounty.sol\":1801:1827  token.transfer(to, amount) */\n              mload(0x40)\n              dup4\n              0xffffffff\n              and\n              0xe0\n              shl\n              dup2\n              mstore\n              0x04\n              add\n              tag_53\n              swap3\n              swap2\n              swap1\n              tag_54\n              jump\t// in\n            tag_53:\n              0x20\n              mload(0x40)\n              dup1\n              dup4\n              sub\n              dup2\n              0x00\n              dup8\n              dup1\n              extcodesize\n              iszero\n              dup1\n              iszero\n              tag_55\n              jumpi\n              0x00\n              dup1\n              revert\n            tag_55:\n              pop\n              gas\n              call\n              iszero\n              dup1\n              iszero\n              tag_57\n              jumpi\n              returndatasize\n              0x00\n              dup1\n              returndatacopy\n              revert(0x00, returndatasize)\n            tag_57:\n              pop\n              pop\n              pop\n              pop\n              mload(0x40)\n              returndatasize\n              not(0x1f)\n              0x1f\n              dup3\n              add\n              and\n              dup3\n              add\n              dup1\n              0x40\n              mstore\n              pop\n              dup2\n              add\n              swap1\n              tag_58\n              swap2\n              swap1\n              tag_50\n              jump\t// in\n            tag_58:\n                /* \"contracts/Bounty.sol\":1793:1828  require(token.transfer(to, amount)) */\n              tag_59\n              jumpi\n              0x00\n              dup1\n              revert\n            tag_59:\n                /* \"contracts/Bounty.sol\":1714:1835  function transfer(IERC20 token, address to, uint256 amount) external {... */\n              pop\n              pop\n              pop\n              jump\t// out\n                /* \"contracts/Bounty.sol\":1841:1916  function deposit() external payable {... */\n            tag_34:\n              jump\t// out\n                /* \"contracts/Bounty.sol\":1439:1558  function approve(IERC20 token, address to, uint256 amount) external {... */\n            tag_38:\n                /* \"contracts/Bounty.sol\":1525:1530  token */\n              dup3\n                /* \"contracts/Bounty.sol\":1525:1538  token.approve */\n              0xffffffffffffffffffffffffffffffffffffffff\n              and\n              0x095ea7b3\n                /* \"contracts/Bounty.sol\":1539:1541  to */\n              dup4\n                /* \"contracts/Bounty.sol\":1543:1549  amount */\n              dup4\n                /* \"contracts/Bounty.sol\":1525:1550  token.approve(to, amount) */\n              mload(0x40)\n              dup4\n              0xffffffff\n              and\n              0xe0\n              shl\n              dup2\n              mstore\n              0x04\n              add\n              tag_62\n              swap3\n              swap2\n              swap1\n              tag_54\n              jump\t// in\n            tag_62:\n              0x20\n              mload(0x40)\n              dup1\n              dup4\n              sub\n              dup2\n              0x00\n              dup8\n              dup1\n              extcodesize\n              iszero\n              dup1\n              iszero\n              tag_63\n              jumpi\n              0x00\n              dup1\n              revert\n            tag_63:\n              pop\n              gas\n              call\n              iszero\n              dup1\n              iszero\n              tag_65\n              jumpi\n              returndatasize\n              0x00\n              dup1\n              returndatacopy\n              revert(0x00, returndatasize)\n            tag_65:\n              pop\n              pop\n              pop\n              pop\n              mload(0x40)\n              returndatasize\n              not(0x1f)\n              0x1f\n              dup3\n              add\n              and\n              dup3\n              add\n              dup1\n              0x40\n              mstore\n              pop\n              dup2\n              add\n              swap1\n              tag_66\n              swap2\n              swap1\n              tag_50\n              jump\t// in\n            tag_66:\n                /* \"contracts/Bounty.sol\":1517:1551  require(token.approve(to, amount)) */\n              tag_67\n              jumpi\n              0x00\n              dup1\n              revert\n            tag_67:\n                /* \"contracts/Bounty.sol\":1439:1558  function approve(IERC20 token, address to, uint256 amount) external {... */\n              pop\n              pop\n              pop\n              jump\t// out\n                /* \"#utility.yul\":7:146   */\n            tag_69:\n                /* \"#utility.yul\":53:58   */\n              0x00\n                /* \"#utility.yul\":91:97   */\n              dup2\n                /* \"#utility.yul\":78:98   */\n              calldataload\n                /* \"#utility.yul\":69:98   */\n              swap1\n              pop\n                /* \"#utility.yul\":107:140   */\n              tag_71\n                /* \"#utility.yul\":134:139   */\n              dup2\n                /* \"#utility.yul\":107:140   */\n              tag_72\n              jump\t// in\n            tag_71:\n                /* \"#utility.yul\":7:146   */\n              swap3\n              swap2\n              pop\n              pop\n              jump\t// out\n                /* \"#utility.yul\":152:307   */\n            tag_73:\n                /* \"#utility.yul\":206:211   */\n              0x00\n                /* \"#utility.yul\":244:250   */\n              dup2\n                /* \"#utility.yul\":231:251   */\n              calldataload\n                /* \"#utility.yul\":222:251   */\n              swap1\n              pop\n                /* \"#utility.yul\":260:301   */\n              tag_75\n                /* \"#utility.yul\":295:300   */\n              dup2\n                /* \"#utility.yul\":260:301   */\n              tag_76\n              jump\t// in\n            tag_75:\n                /* \"#utility.yul\":152:307   */\n              swap3\n              swap2\n              pop\n              pop\n              jump\t// out\n                /* \"#utility.yul\":313:450   */\n            tag_77:\n                /* \"#utility.yul\":367:372   */\n              0x00\n                /* \"#utility.yul\":398:404   */\n              dup2\n                /* \"#utility.yul\":392:405   */\n              mload\n                /* \"#utility.yul\":383:405   */\n              swap1\n              pop\n                /* \"#utility.yul\":414:444   */\n              tag_79\n                /* \"#utility.yul\":438:443   */\n              dup2\n                /* \"#utility.yul\":414:444   */\n              tag_80\n              jump\t// in\n            tag_79:\n                /* \"#utility.yul\":313:450   */\n              swap3\n              swap2\n              pop\n              pop\n              jump\t// out\n                /* \"#utility.yul\":456:623   */\n            tag_81:\n                /* \"#utility.yul\":516:521   */\n              0x00\n                /* \"#utility.yul\":554:560   */\n              dup2\n                /* \"#utility.yul\":541:561   */\n              calldataload\n                /* \"#utility.yul\":532:561   */\n              swap1\n              pop\n                /* \"#utility.yul\":570:617   */\n              tag_83\n                /* \"#utility.yul\":611:616   */\n              dup2\n                /* \"#utility.yul\":570:617   */\n              tag_84\n              jump\t// in\n            tag_83:\n                /* \"#utility.yul\":456:623   */\n              swap3\n              swap2\n              pop\n              pop\n              jump\t// out\n                /* \"#utility.yul\":629:768   */\n            tag_85:\n                /* \"#utility.yul\":675:680   */\n              0x00\n                /* \"#utility.yul\":713:719   */\n              dup2\n                /* \"#utility.yul\":700:720   */\n              calldataload\n                /* \"#utility.yul\":691:720   */\n              swap1\n              pop\n                /* \"#utility.yul\":729:762   */\n              tag_87\n                /* \"#utility.yul\":756:761   */\n              dup2\n                /* \"#utility.yul\":729:762   */\n              tag_88\n              jump\t// in\n            tag_87:\n                /* \"#utility.yul\":629:768   */\n              swap3\n              swap2\n              pop\n              pop\n              jump\t// out\n                /* \"#utility.yul\":774:1264   */\n            tag_22:\n                /* \"#utility.yul\":850:856   */\n              0x00\n                /* \"#utility.yul\":858:864   */\n              dup1\n                /* \"#utility.yul\":907:909   */\n              0x40\n                /* \"#utility.yul\":895:904   */\n              dup4\n                /* \"#utility.yul\":886:893   */\n              dup6\n                /* \"#utility.yul\":882:905   */\n              sub\n                /* \"#utility.yul\":878:910   */\n              slt\n                /* \"#utility.yul\":875:994   */\n              iszero\n              tag_90\n              jumpi\n                /* \"#utility.yul\":913:992   */\n              tag_91\n              tag_92\n              jump\t// in\n            tag_91:\n                /* \"#utility.yul\":875:994   */\n            tag_90:\n                /* \"#utility.yul\":1033:1034   */\n              0x00\n                /* \"#utility.yul\":1058:1119   */\n              tag_93\n                /* \"#utility.yul\":1111:1118   */\n              dup6\n                /* \"#utility.yul\":1102:1108   */\n              dup3\n                /* \"#utility.yul\":1091:1100   */\n              dup7\n                /* \"#utility.yul\":1087:1109   */\n              add\n                /* \"#utility.yul\":1058:1119   */\n              tag_73\n              jump\t// in\n            tag_93:\n                /* \"#utility.yul\":1048:1119   */\n              swap3\n              pop\n                /* \"#utility.yul\":1004:1129   */\n              pop\n                /* \"#utility.yul\":1168:1170   */\n              0x20\n                /* \"#utility.yul\":1194:1247   */\n              tag_94\n                /* \"#utility.yul\":1239:1246   */\n              dup6\n                /* \"#utility.yul\":1230:1236   */\n              dup3\n                /* \"#utility.yul\":1219:1228   */\n              dup7\n                /* \"#utility.yul\":1215:1237   */\n              add\n                /* \"#utility.yul\":1194:1247   */\n              tag_85\n              jump\t// in\n            tag_94:\n                /* \"#utility.yul\":1184:1247   */\n              swap2\n              pop\n                /* \"#utility.yul\":1139:1257   */\n              pop\n                /* \"#utility.yul\":774:1264   */\n              swap3\n              pop\n              swap3\n              swap1\n              pop\n              jump\t// out\n                /* \"#utility.yul\":1270:1615   */\n            tag_50:\n                /* \"#utility.yul\":1337:1343   */\n              0x00\n                /* \"#utility.yul\":1386:1388   */\n              0x20\n                /* \"#utility.yul\":1374:1383   */\n              dup3\n                /* \"#utility.yul\":1365:1372   */\n              dup5\n                /* \"#utility.yul\":1361:1384   */\n              sub\n                /* \"#utility.yul\":1357:1389   */\n              slt\n                /* \"#utility.yul\":1354:1473   */\n              iszero\n              tag_96\n              jumpi\n                /* \"#utility.yul\":1392:1471   */\n              tag_97\n              tag_92\n              jump\t// in\n            tag_97:\n                /* \"#utility.yul\":1354:1473   */\n            tag_96:\n                /* \"#utility.yul\":1512:1513   */\n              0x00\n                /* \"#utility.yul\":1537:1598   */\n              tag_98\n                /* \"#utility.yul\":1590:1597   */\n              dup5\n                /* \"#utility.yul\":1581:1587   */\n              dup3\n                /* \"#utility.yul\":1570:1579   */\n              dup6\n                /* \"#utility.yul\":1566:1588   */\n              add\n                /* \"#utility.yul\":1537:1598   */\n              tag_77\n              jump\t// in\n            tag_98:\n                /* \"#utility.yul\":1527:1598   */\n              swap2\n              pop\n                /* \"#utility.yul\":1483:1608   */\n              pop\n                /* \"#utility.yul\":1270:1615   */\n              swap3\n              swap2\n              pop\n              pop\n              jump\t// out\n                /* \"#utility.yul\":1621:2268   */\n            tag_27:\n                /* \"#utility.yul\":1712:1718   */\n              0x00\n                /* \"#utility.yul\":1720:1726   */\n              dup1\n                /* \"#utility.yul\":1728:1734   */\n              0x00\n                /* \"#utility.yul\":1777:1779   */\n              0x60\n                /* \"#utility.yul\":1765:1774   */\n              dup5\n                /* \"#utility.yul\":1756:1763   */\n              dup7\n                /* \"#utility.yul\":1752:1775   */\n              sub\n                /* \"#utility.yul\":1748:1780   */\n              slt\n                /* \"#utility.yul\":1745:1864   */\n              iszero\n              tag_100\n              jumpi\n                /* \"#utility.yul\":1783:1862   */\n              tag_101\n              tag_92\n              jump\t// in\n            tag_101:\n                /* \"#utility.yul\":1745:1864   */\n            tag_100:\n                /* \"#utility.yul\":1903:1904   */\n              0x00\n                /* \"#utility.yul\":1928:1995   */\n              tag_102\n                /* \"#utility.yul\":1987:1994   */\n              dup7\n                /* \"#utility.yul\":1978:1984   */\n              dup3\n                /* \"#utility.yul\":1967:1976   */\n              dup8\n                /* \"#utility.yul\":1963:1985   */\n              add\n                /* \"#utility.yul\":1928:1995   */\n              tag_81\n              jump\t// in\n            tag_102:\n                /* \"#utility.yul\":1918:1995   */\n              swap4\n              pop\n                /* \"#utility.yul\":1874:2005   */\n              pop\n                /* \"#utility.yul\":2044:2046   */\n              0x20\n                /* \"#utility.yul\":2070:2123   */\n              tag_103\n                /* \"#utility.yul\":2115:2122   */\n              dup7\n                /* \"#utility.yul\":2106:2112   */\n              dup3\n                /* \"#utility.yul\":2095:2104   */\n              dup8\n                /* \"#utility.yul\":2091:2113   */\n              add\n                /* \"#utility.yul\":2070:2123   */\n              tag_69\n              jump\t// in\n            tag_103:\n                /* \"#utility.yul\":2060:2123   */\n              swap3\n              pop\n                /* \"#utility.yul\":2015:2133   */\n              pop\n                /* \"#utility.yul\":2172:2174   */\n              0x40\n                /* \"#utility.yul\":2198:2251   */\n              tag_104\n                /* \"#utility.yul\":2243:2250   */\n              dup7\n                /* \"#utility.yul\":2234:2240   */\n              dup3\n                /* \"#utility.yul\":2223:2232   */\n              dup8\n                /* \"#utility.yul\":2219:2241   */\n              add\n                /* \"#utility.yul\":2198:2251   */\n              tag_85\n              jump\t// in\n            tag_104:\n                /* \"#utility.yul\":2188:2251   */\n              swap2\n              pop\n                /* \"#utility.yul\":2143:2261   */\n              pop\n                /* \"#utility.yul\":1621:2268   */\n              swap3\n              pop\n              swap3\n              pop\n              swap3\n              jump\t// out\n                /* \"#utility.yul\":2274:2416   */\n            tag_105:\n                /* \"#utility.yul\":2377:2409   */\n              tag_107\n                /* \"#utility.yul\":2403:2408   */\n              dup2\n                /* \"#utility.yul\":2377:2409   */\n              tag_108\n              jump\t// in\n            tag_107:\n                /* \"#utility.yul\":2372:2375   */\n              dup3\n                /* \"#utility.yul\":2365:2410   */\n              mstore\n                /* \"#utility.yul\":2274:2416   */\n              pop\n              pop\n              jump\t// out\n                /* \"#utility.yul\":2422:2540   */\n            tag_109:\n                /* \"#utility.yul\":2509:2533   */\n              tag_111\n                /* \"#utility.yul\":2527:2532   */\n              dup2\n                /* \"#utility.yul\":2509:2533   */\n              tag_112\n              jump\t// in\n            tag_111:\n                /* \"#utility.yul\":2504:2507   */\n              dup3\n                /* \"#utility.yul\":2497:2534   */\n              mstore\n                /* \"#utility.yul\":2422:2540   */\n              pop\n              pop\n              jump\t// out\n                /* \"#utility.yul\":2546:2912   */\n            tag_113:\n                /* \"#utility.yul\":2688:2691   */\n              0x00\n                /* \"#utility.yul\":2709:2776   */\n              tag_115\n                /* \"#utility.yul\":2773:2775   */\n              0x10\n                /* \"#utility.yul\":2768:2771   */\n              dup4\n                /* \"#utility.yul\":2709:2776   */\n              tag_116\n              jump\t// in\n            tag_115:\n                /* \"#utility.yul\":2702:2776   */\n              swap2\n              pop\n                /* \"#utility.yul\":2785:2878   */\n              tag_117\n                /* \"#utility.yul\":2874:2877   */\n              dup3\n                /* \"#utility.yul\":2785:2878   */\n              tag_118\n              jump\t// in\n            tag_117:\n                /* \"#utility.yul\":2903:2905   */\n              0x20\n                /* \"#utility.yul\":2898:2901   */\n              dup3\n                /* \"#utility.yul\":2894:2906   */\n              add\n                /* \"#utility.yul\":2887:2906   */\n              swap1\n              pop\n                /* \"#utility.yul\":2546:2912   */\n              swap2\n              swap1\n              pop\n              jump\t// out\n                /* \"#utility.yul\":2918:3036   */\n            tag_119:\n                /* \"#utility.yul\":3005:3029   */\n              tag_121\n                /* \"#utility.yul\":3023:3028   */\n              dup2\n                /* \"#utility.yul\":3005:3029   */\n              tag_122\n              jump\t// in\n            tag_121:\n                /* \"#utility.yul\":3000:3003   */\n              dup3\n                /* \"#utility.yul\":2993:3030   */\n              mstore\n                /* \"#utility.yul\":2918:3036   */\n              pop\n              pop\n              jump\t// out\n                /* \"#utility.yul\":3042:3296   */\n            tag_19:\n                /* \"#utility.yul\":3151:3155   */\n              0x00\n                /* \"#utility.yul\":3189:3191   */\n              0x20\n                /* \"#utility.yul\":3178:3187   */\n              dup3\n                /* \"#utility.yul\":3174:3192   */\n              add\n                /* \"#utility.yul\":3166:3192   */\n              swap1\n              pop\n                /* \"#utility.yul\":3202:3289   */\n              tag_124\n                /* \"#utility.yul\":3286:3287   */\n              0x00\n                /* \"#utility.yul\":3275:3284   */\n              dup4\n                /* \"#utility.yul\":3271:3288   */\n              add\n                /* \"#utility.yul\":3262:3268   */\n              dup5\n                /* \"#utility.yul\":3202:3289   */\n              tag_105\n              jump\t// in\n            tag_124:\n                /* \"#utility.yul\":3042:3296   */\n              swap3\n              swap2\n              pop\n              pop\n              jump\t// out\n                /* \"#utility.yul\":3302:3744   */\n            tag_45:\n                /* \"#utility.yul\":3451:3455   */\n              0x00\n                /* \"#utility.yul\":3489:3491   */\n              0x60\n                /* \"#utility.yul\":3478:3487   */\n              dup3\n                /* \"#utility.yul\":3474:3492   */\n              add\n                /* \"#utility.yul\":3466:3492   */\n              swap1\n              pop\n                /* \"#utility.yul\":3502:3573   */\n              tag_126\n                /* \"#utility.yul\":3570:3571   */\n              0x00\n                /* \"#utility.yul\":3559:3568   */\n              dup4\n                /* \"#utility.yul\":3555:3572   */\n              add\n                /* \"#utility.yul\":3546:3552   */\n              dup7\n                /* \"#utility.yul\":3502:3573   */\n              tag_109\n              jump\t// in\n            tag_126:\n                /* \"#utility.yul\":3583:3655   */\n              tag_127\n                /* \"#utility.yul\":3651:3653   */\n              0x20\n                /* \"#utility.yul\":3640:3649   */\n              dup4\n                /* \"#utility.yul\":3636:3654   */\n              add\n                /* \"#utility.yul\":3627:3633   */\n              dup6\n                /* \"#utility.yul\":3583:3655   */\n              tag_109\n              jump\t// in\n            tag_127:\n                /* \"#utility.yul\":3665:3737   */\n              tag_128\n                /* \"#utility.yul\":3733:3735   */\n              0x40\n                /* \"#utility.yul\":3722:3731   */\n              dup4\n                /* \"#utility.yul\":3718:3736   */\n              add\n                /* \"#utility.yul\":3709:3715   */\n              dup5\n                /* \"#utility.yul\":3665:3737   */\n              tag_119\n              jump\t// in\n            tag_128:\n                /* \"#utility.yul\":3302:3744   */\n              swap5\n              swap4\n              pop\n              pop\n              pop\n              pop\n              jump\t// out\n                /* \"#utility.yul\":3750:4082   */\n            tag_54:\n                /* \"#utility.yul\":3871:3875   */\n              0x00\n                /* \"#utility.yul\":3909:3911   */\n              0x40\n                /* \"#utility.yul\":3898:3907   */\n              dup3\n                /* \"#utility.yul\":3894:3912   */\n              add\n                /* \"#utility.yul\":3886:3912   */\n              swap1\n              pop\n                /* \"#utility.yul\":3922:3993   */\n              tag_130\n                /* \"#utility.yul\":3990:3991   */\n              0x00\n                /* \"#utility.yul\":3979:3988   */\n              dup4\n                /* \"#utility.yul\":3975:3992   */\n              add\n                /* \"#utility.yul\":3966:3972   */\n              dup6\n                /* \"#utility.yul\":3922:3993   */\n              tag_109\n              jump\t// in\n            tag_130:\n                /* \"#utility.yul\":4003:4075   */\n              tag_131\n                /* \"#utility.yul\":4071:4073   */\n              0x20\n                /* \"#utility.yul\":4060:4069   */\n              dup4\n                /* \"#utility.yul\":4056:4074   */\n              add\n                /* \"#utility.yul\":4047:4053   */\n              dup5\n                /* \"#utility.yul\":4003:4075   */\n              tag_119\n              jump\t// in\n            tag_131:\n                /* \"#utility.yul\":3750:4082   */\n              swap4\n              swap3\n              pop\n              pop\n              pop\n              jump\t// out\n                /* \"#utility.yul\":4088:4507   */\n            tag_13:\n                /* \"#utility.yul\":4254:4258   */\n              0x00\n                /* \"#utility.yul\":4292:4294   */\n              0x20\n                /* \"#utility.yul\":4281:4290   */\n              dup3\n                /* \"#utility.yul\":4277:4295   */\n              add\n                /* \"#utility.yul\":4269:4295   */\n              swap1\n              pop\n                /* \"#utility.yul\":4341:4350   */\n              dup2\n                /* \"#utility.yul\":4335:4339   */\n              dup2\n                /* \"#utility.yul\":4331:4351   */\n              sub\n                /* \"#utility.yul\":4327:4328   */\n              0x00\n                /* \"#utility.yul\":4316:4325   */\n              dup4\n                /* \"#utility.yul\":4312:4329   */\n              add\n                /* \"#utility.yul\":4305:4352   */\n              mstore\n                /* \"#utility.yul\":4369:4500   */\n              tag_133\n                /* \"#utility.yul\":4495:4499   */\n              dup2\n                /* \"#utility.yul\":4369:4500   */\n              tag_113\n              jump\t// in\n            tag_133:\n                /* \"#utility.yul\":4361:4500   */\n              swap1\n              pop\n                /* \"#utility.yul\":4088:4507   */\n              swap2\n              swap1\n              pop\n              jump\t// out\n                /* \"#utility.yul\":4594:4763   */\n            tag_116:\n                /* \"#utility.yul\":4678:4689   */\n              0x00\n                /* \"#utility.yul\":4712:4718   */\n              dup3\n                /* \"#utility.yul\":4707:4710   */\n              dup3\n                /* \"#utility.yul\":4700:4719   */\n              mstore\n                /* \"#utility.yul\":4752:4756   */\n              0x20\n                /* \"#utility.yul\":4747:4750   */\n              dup3\n                /* \"#utility.yul\":4743:4757   */\n              add\n                /* \"#utility.yul\":4728:4757   */\n              swap1\n              pop\n                /* \"#utility.yul\":4594:4763   */\n              swap3\n              swap2\n              pop\n              pop\n              jump\t// out\n                /* \"#utility.yul\":4769:4865   */\n            tag_112:\n                /* \"#utility.yul\":4806:4813   */\n              0x00\n                /* \"#utility.yul\":4835:4859   */\n              tag_138\n                /* \"#utility.yul\":4853:4858   */\n              dup3\n                /* \"#utility.yul\":4835:4859   */\n              tag_139\n              jump\t// in\n            tag_138:\n                /* \"#utility.yul\":4824:4859   */\n              swap1\n              pop\n                /* \"#utility.yul\":4769:4865   */\n              swap2\n              swap1\n              pop\n              jump\t// out\n                /* \"#utility.yul\":4871:4975   */\n            tag_108:\n                /* \"#utility.yul\":4916:4923   */\n              0x00\n                /* \"#utility.yul\":4945:4969   */\n              tag_141\n                /* \"#utility.yul\":4963:4968   */\n              dup3\n                /* \"#utility.yul\":4945:4969   */\n              tag_139\n              jump\t// in\n            tag_141:\n                /* \"#utility.yul\":4934:4969   */\n              swap1\n              pop\n                /* \"#utility.yul\":4871:4975   */\n              swap2\n              swap1\n              pop\n              jump\t// out\n                /* \"#utility.yul\":4981:5071   */\n            tag_142:\n                /* \"#utility.yul\":5015:5022   */\n              0x00\n                /* \"#utility.yul\":5058:5063   */\n              dup2\n                /* \"#utility.yul\":5051:5064   */\n              iszero\n                /* \"#utility.yul\":5044:5065   */\n              iszero\n                /* \"#utility.yul\":5033:5065   */\n              swap1\n              pop\n                /* \"#utility.yul\":4981:5071   */\n              swap2\n              swap1\n              pop\n              jump\t// out\n                /* \"#utility.yul\":5077:5187   */\n            tag_144:\n                /* \"#utility.yul\":5128:5135   */\n              0x00\n                /* \"#utility.yul\":5157:5181   */\n              tag_146\n                /* \"#utility.yul\":5175:5180   */\n              dup3\n                /* \"#utility.yul\":5157:5181   */\n              tag_112\n              jump\t// in\n            tag_146:\n                /* \"#utility.yul\":5146:5181   */\n              swap1\n              pop\n                /* \"#utility.yul\":5077:5187   */\n              swap2\n              swap1\n              pop\n              jump\t// out\n                /* \"#utility.yul\":5193:5319   */\n            tag_139:\n                /* \"#utility.yul\":5230:5237   */\n              0x00\n                /* \"#utility.yul\":5270:5312   */\n              0xffffffffffffffffffffffffffffffffffffffff\n                /* \"#utility.yul\":5263:5268   */\n              dup3\n                /* \"#utility.yul\":5259:5313   */\n              and\n                /* \"#utility.yul\":5248:5313   */\n              swap1\n              pop\n                /* \"#utility.yul\":5193:5319   */\n              swap2\n              swap1\n              pop\n              jump\t// out\n                /* \"#utility.yul\":5325:5402   */\n            tag_122:\n                /* \"#utility.yul\":5362:5369   */\n              0x00\n                /* \"#utility.yul\":5391:5396   */\n              dup2\n                /* \"#utility.yul\":5380:5396   */\n              swap1\n              pop\n                /* \"#utility.yul\":5325:5402   */\n              swap2\n              swap1\n              pop\n              jump\t// out\n                /* \"#utility.yul\":5531:5648   */\n            tag_92:\n                /* \"#utility.yul\":5640:5641   */\n              0x00\n                /* \"#utility.yul\":5637:5638   */\n              dup1\n                /* \"#utility.yul\":5630:5642   */\n              revert\n                /* \"#utility.yul\":5654:5820   */\n            tag_118:\n                /* \"#utility.yul\":5794:5812   */\n              0x6e65656420696e697420626f756e747900000000000000000000000000000000\n                /* \"#utility.yul\":5790:5791   */\n              0x00\n                /* \"#utility.yul\":5782:5788   */\n              dup3\n                /* \"#utility.yul\":5778:5792   */\n              add\n                /* \"#utility.yul\":5771:5813   */\n              mstore\n                /* \"#utility.yul\":5654:5820   */\n              pop\n              jump\t// out\n                /* \"#utility.yul\":5826:5948   */\n            tag_72:\n                /* \"#utility.yul\":5899:5923   */\n              tag_154\n                /* \"#utility.yul\":5917:5922   */\n              dup2\n                /* \"#utility.yul\":5899:5923   */\n              tag_112\n              jump\t// in\n            tag_154:\n                /* \"#utility.yul\":5892:5897   */\n              dup2\n                /* \"#utility.yul\":5889:5924   */\n              eq\n                /* \"#utility.yul\":5879:5942   */\n              tag_155\n              jumpi\n                /* \"#utility.yul\":5938:5939   */\n              0x00\n                /* \"#utility.yul\":5935:5936   */\n              dup1\n                /* \"#utility.yul\":5928:5940   */\n              revert\n                /* \"#utility.yul\":5879:5942   */\n            tag_155:\n                /* \"#utility.yul\":5826:5948   */\n              pop\n              jump\t// out\n                /* \"#utility.yul\":5954:6092   */\n            tag_76:\n                /* \"#utility.yul\":6035:6067   */\n              tag_157\n                /* \"#utility.yul\":6061:6066   */\n              dup2\n                /* \"#utility.yul\":6035:6067   */\n              tag_108\n              jump\t// in\n            tag_157:\n                /* \"#utility.yul\":6028:6033   */\n              dup2\n                /* \"#utility.yul\":6025:6068   */\n              eq\n                /* \"#utility.yul\":6015:6086   */\n              tag_158\n              jumpi\n                /* \"#utility.yul\":6082:6083   */\n              0x00\n                /* \"#utility.yul\":6079:6080   */\n              dup1\n                /* \"#utility.yul\":6072:6084   */\n              revert\n                /* \"#utility.yul\":6015:6086   */\n            tag_158:\n                /* \"#utility.yul\":5954:6092   */\n              pop\n              jump\t// out\n                /* \"#utility.yul\":6098:6214   */\n            tag_80:\n                /* \"#utility.yul\":6168:6189   */\n              tag_160\n                /* \"#utility.yul\":6183:6188   */\n              dup2\n                /* \"#utility.yul\":6168:6189   */\n              tag_142\n              jump\t// in\n            tag_160:\n                /* \"#utility.yul\":6161:6166   */\n              dup2\n                /* \"#utility.yul\":6158:6190   */\n              eq\n                /* \"#utility.yul\":6148:6208   */\n              tag_161\n              jumpi\n                /* \"#utility.yul\":6204:6205   */\n              0x00\n                /* \"#utility.yul\":6201:6202   */\n              dup1\n                /* \"#utility.yul\":6194:6206   */\n              revert\n                /* \"#utility.yul\":6148:6208   */\n            tag_161:\n                /* \"#utility.yul\":6098:6214   */\n              pop\n              jump\t// out\n                /* \"#utility.yul\":6220:6370   */\n            tag_84:\n                /* \"#utility.yul\":6307:6345   */\n              tag_163\n                /* \"#utility.yul\":6339:6344   */\n              dup2\n                /* \"#utility.yul\":6307:6345   */\n              tag_144\n              jump\t// in\n            tag_163:\n                /* \"#utility.yul\":6300:6305   */\n              dup2\n                /* \"#utility.yul\":6297:6346   */\n              eq\n                /* \"#utility.yul\":6287:6364   */\n              tag_164\n              jumpi\n                /* \"#utility.yul\":6360:6361   */\n              0x00\n                /* \"#utility.yul\":6357:6358   */\n              dup1\n                /* \"#utility.yul\":6350:6362   */\n              revert\n                /* \"#utility.yul\":6287:6364   */\n            tag_164:\n                /* \"#utility.yul\":6220:6370   */\n              pop\n              jump\t// out\n                /* \"#utility.yul\":6376:6498   */\n            tag_88:\n                /* \"#utility.yul\":6449:6473   */\n              tag_166\n                /* \"#utility.yul\":6467:6472   */\n              dup2\n                /* \"#utility.yul\":6449:6473   */\n              tag_122\n              jump\t// in\n            tag_166:\n                /* \"#utility.yul\":6442:6447   */\n              dup2\n                /* \"#utility.yul\":6439:6474   */\n              eq\n                /* \"#utility.yul\":6429:6492   */\n              tag_167\n              jumpi\n                /* \"#utility.yul\":6488:6489   */\n              0x00\n                /* \"#utility.yul\":6485:6486   */\n              dup1\n                /* \"#utility.yul\":6478:6490   */\n              revert\n                /* \"#utility.yul\":6429:6492   */\n            tag_167:\n                /* \"#utility.yul\":6376:6498   */\n              pop\n              jump\t// out\n\n            auxdata: 0xa264697066735822122005c4614657b3d78085e9c17d3130ca7c432c0df3bd6237106c033f1a0c2c1c9064736f6c63430008070033\n        }\n    }\n\n    auxdata: 0xa2646970667358221220d173078feebcd22c9621bf4b414f99f1771aca364931fffafe3acc0bae82daa364736f6c63430008070033\n}\n",
				"bytecode": {
					"linkReferences": {},
					"object": "6080604052738f81b9b08232f8e8981daa87854575d7325a9439600360006101000a81548173ffffffffffffffffffffffffffffffffffffffff021916908373ffffffffffffffffffffffffffffffffffffffff16021790555034801561006557600080fd5b50336000806101000a81548173ffffffffffffffffffffffffffffffffffffffff021916908373ffffffffffffffffffffffffffffffffffffffff160217905550336000806101000a81548173ffffffffffffffffffffffffffffffffffffffff021916908373ffffffffffffffffffffffffffffffffffffffff160217905550611322806100f56000396000f3fe6080604052600436106100435760003560e01c806314da447f146100525780632bef7c7f1461007b57806346964a0a14610085578063f2fde38b146100ae5761004d565b3661004d57600080fd5b600080fd5b34801561005e57600080fd5b5061007960048036038101906100749190610605565b6100d7565b005b61008361014c565b005b34801561009157600080fd5b506100ac60048036038101906100a7919061068c565b610350565b005b3480156100ba57600080fd5b506100d560048036038101906100d091906105d8565b610356565b005b60008054906101000a900473ffffffffffffffffffffffffffffffffffffffff1673ffffffffffffffffffffffffffffffffffffffff163373ffffffffffffffffffffffffffffffffffffffff161461013357610132610956565b5b8073ffffffffffffffffffffffffffffffffffffffff16ff5b60003060405161015b906104f2565b610165919061076e565b604051809103906000f080158015610181573d6000803e3d6000fd5b509050600360009054906101000a900473ffffffffffffffffffffffffffffffffffffffff1673ffffffffffffffffffffffffffffffffffffffff166323b872dd338373ffffffffffffffffffffffffffffffffffffffff1663026b1d5f6040518163ffffffff1660e01b815260040160206040518083038186803b15801561020957600080fd5b505afa15801561021d573d6000803e3d6000fd5b505050506040513d601f19601f820116820180604052508101906102419190610632565b346040518463ffffffff1660e01b815260040161026093929190610789565b602060405180830381600087803b15801561027a57600080fd5b505af115801561028e573d6000803e3d6000fd5b505050506040513d601f19601f820116820180604052508101906102b2919061065f565b506002819080600181540180825580915050600190039060005260206000200160009091909190916101000a81548173ffffffffffffffffffffffffffffffffffffffff021916908373ffffffffffffffffffffffffffffffffffffffff1602179055507f1bda7bb843640650292c2a26a73106328e0f83c1c09ea1a4176df3912ee47ff68160405161034591906107c0565b60405180910390a150565b50505050565b60008054906101000a900473ffffffffffffffffffffffffffffffffffffffff1673ffffffffffffffffffffffffffffffffffffffff163373ffffffffffffffffffffffffffffffffffffffff16146103b2576103b1610956565b5b600073ffffffffffffffffffffffffffffffffffffffff168173ffffffffffffffffffffffffffffffffffffffff161415610422576040517f08c379a0000000000000000000000000000000000000000000000000000000008152600401610419906107db565b60405180910390fd5b61042b8161042e565b50565b60008060009054906101000a900473ffffffffffffffffffffffffffffffffffffffff169050816000806101000a81548173ffffffffffffffffffffffffffffffffffffffff021916908373ffffffffffffffffffffffffffffffffffffffff1602179055508173ffffffffffffffffffffffffffffffffffffffff168173ffffffffffffffffffffffffffffffffffffffff167f8be0079c531659141344cd1fd0a4f28419497f9722a3daafe3b4186f6b6457e060405160405180910390a35050565b61086880610a8583390190565b600061051261050d84610820565b6107fb565b90508281526020810184848401111561052e5761052d6109b9565b5b610539848285610916565b509392505050565b60008135905061055081610a28565b92915050565b60008135905061056581610a3f565b92915050565b60008151905061057a81610a3f565b92915050565b60008151905061058f81610a56565b92915050565b600082601f8301126105aa576105a96109b4565b5b81356105ba8482602086016104ff565b91505092915050565b6000813590506105d281610a6d565b92915050565b6000602082840312156105ee576105ed6109c3565b5b60006105fc84828501610541565b91505092915050565b60006020828403121561061b5761061a6109c3565b5b600061062984828501610556565b91505092915050565b600060208284031215610648576106476109c3565b5b60006106568482850161056b565b91505092915050565b600060208284031215610675576106746109c3565b5b600061068384828501610580565b91505092915050565b600080600080608085870312156106a6576106a56109c3565b5b600085013567ffffffffffffffff8111156106c4576106c36109be565b5b6106d087828801610595565b94505060206106e187828801610556565b93505060406106f2878288016105c3565b9250506060610703878288016105c3565b91505092959194509250565b610718816108bc565b82525050565b61072781610862565b82525050565b610736816108ce565b82525050565b6000610749602683610851565b9150610754826109d9565b604082019050919050565b610768816108b2565b82525050565b6000602082019050610783600083018461071e565b92915050565b600060608201905061079e600083018661071e565b6107ab602083018561070f565b6107b8604083018461075f565b949350505050565b60006020820190506107d5600083018461072d565b92915050565b600060208201905081810360008301526107f48161073c565b9050919050565b6000610805610816565b90506108118282610925565b919050565b6000604051905090565b600067ffffffffffffffff82111561083b5761083a610985565b5b610844826109c8565b9050602081019050919050565b600082825260208201905092915050565b600061086d82610892565b9050919050565b600061087f82610892565b9050919050565b60008115159050919050565b600073ffffffffffffffffffffffffffffffffffffffff82169050919050565b6000819050919050565b60006108c7826108e0565b9050919050565b60006108d9826108f2565b9050919050565b60006108eb82610904565b9050919050565b60006108fd82610904565b9050919050565b600061090f82610892565b9050919050565b82818337600083830152505050565b61092e826109c8565b810181811067ffffffffffffffff8211171561094d5761094c610985565b5b80604052505050565b7f4e487b7100000000000000000000000000000000000000000000000000000000600052600160045260246000fd5b7f4e487b7100000000000000000000000000000000000000000000000000000000600052604160045260246000fd5b600080fd5b600080fd5b600080fd5b600080fd5b6000601f19601f8301169050919050565b7f4f776e61626c653a206e6577206f776e657220697320746865207a65726f206160008201527f6464726573730000000000000000000000000000000000000000000000000000602082015250565b610a3181610862565b8114610a3c57600080fd5b50565b610a4881610874565b8114610a5357600080fd5b50565b610a5f81610886565b8114610a6a57600080fd5b50565b610a76816108b2565b8114610a8157600080fd5b5056fe608060405234801561001057600080fd5b506040516108683803806108688339818101604052810190610032919061008d565b806000806101000a81548173ffffffffffffffffffffffffffffffffffffffff021916908373ffffffffffffffffffffffffffffffffffffffff16021790555050610108565b600081519050610087816100f1565b92915050565b6000602082840312156100a3576100a26100ec565b5b60006100b184828501610078565b91505092915050565b60006100c5826100cc565b9050919050565b600073ffffffffffffffffffffffffffffffffffffffff82169050919050565b600080fd5b6100fa816100ba565b811461010557600080fd5b50565b610751806101176000396000f3fe6080604052600436106100595760003560e01c8063026b1d5f146100f557806313658f8a1461012057806323b872dd1461013c578063beabacc814610165578063d0e30db01461018e578063e1f21c6714610198576100f0565b366100f057600073ffffffffffffffffffffffffffffffffffffffff1660008054906101000a900473ffffffffffffffffffffffffffffffffffffffff1673ffffffffffffffffffffffffffffffffffffffff1614156100ee576040517f08c379a00000000000000000000000000000000000000000000000000000000081526004016100e5906105dd565b60405180910390fd5b005b600080fd5b34801561010157600080fd5b5061010a6101c1565b6040516101179190610562565b60405180910390f35b61013a60048036038101906101359190610452565b6101c9565b005b34801561014857600080fd5b50610163600480360381019061015e91906104bf565b610214565b005b34801561017157600080fd5b5061018c600480360381019061018791906104bf565b6102b1565b005b61019661034c565b005b3480156101a457600080fd5b506101bf60048036038101906101ba91906104bf565b61034e565b005b600030905090565b8173ffffffffffffffffffffffffffffffffffffffff166108fc829081150290604051600060405180830381858888f1935050505015801561020f573d6000803e3d6000fd5b505050565b8273ffffffffffffffffffffffffffffffffffffffff166323b872dd3084846040518463ffffffff1660e01b81526004016102519392919061057d565b602060405180830381600087803b15801561026b57600080fd5b505af115801561027f573d6000803e3d6000fd5b505050506040513d601f19601f820116820180604052508101906102a39190610492565b6102ac57600080fd5b505050565b8273ffffffffffffffffffffffffffffffffffffffff1663a9059cbb83836040518363ffffffff1660e01b81526004016102ec9291906105b4565b602060405180830381600087803b15801561030657600080fd5b505af115801561031a573d6000803e3d6000fd5b505050506040513d601f19601f8201168201806040525081019061033e9190610492565b61034757600080fd5b505050565b565b8273ffffffffffffffffffffffffffffffffffffffff1663095ea7b383836040518363ffffffff1660e01b81526004016103899291906105b4565b602060405180830381600087803b1580156103a357600080fd5b505af11580156103b7573d6000803e3d6000fd5b505050506040513d601f19601f820116820180604052508101906103db9190610492565b6103e457600080fd5b505050565b6000813590506103f8816106a8565b92915050565b60008135905061040d816106bf565b92915050565b600081519050610422816106d6565b92915050565b600081359050610437816106ed565b92915050565b60008135905061044c81610704565b92915050565b600080604083850312156104695761046861067a565b5b6000610477858286016103fe565b92505060206104888582860161043d565b9150509250929050565b6000602082840312156104a8576104a761067a565b5b60006104b684828501610413565b91505092915050565b6000806000606084860312156104d8576104d761067a565b5b60006104e686828701610428565b93505060206104f7868287016103e9565b92505060406105088682870161043d565b9150509250925092565b61051b81610620565b82525050565b61052a8161060e565b82525050565b600061053d6010836105fd565b91506105488261067f565b602082019050919050565b61055c81610670565b82525050565b60006020820190506105776000830184610512565b92915050565b60006060820190506105926000830186610521565b61059f6020830185610521565b6105ac6040830184610553565b949350505050565b60006040820190506105c96000830185610521565b6105d66020830184610553565b9392505050565b600060208201905081810360008301526105f681610530565b9050919050565b600082825260208201905092915050565b600061061982610650565b9050919050565b600061062b82610650565b9050919050565b60008115159050919050565b60006106498261060e565b9050919050565b600073ffffffffffffffffffffffffffffffffffffffff82169050919050565b6000819050919050565b600080fd5b7f6e65656420696e697420626f756e747900000000000000000000000000000000600082015250565b6106b18161060e565b81146106bc57600080fd5b50565b6106c881610620565b81146106d357600080fd5b50565b6106df81610632565b81146106ea57600080fd5b50565b6106f68161063e565b811461070157600080fd5b50565b61070d81610670565b811461071857600080fd5b5056fea264697066735822122005c4614657b3d78085e9c17d3130ca7c432c0df3bd6237106c033f1a0c2c1c9064736f6c63430008070033a2646970667358221220d173078feebcd22c9621bf4b414f99f1771aca364931fffafe3acc0bae82daa364736f6c63430008070033",
					"opcodes": "PUSH1 0x80 PUSH1 0x40 MSTORE PUSH20 0x8F81B9B08232F8E8981DAA87854575D7325A9439 PUSH1 0x3 PUSH1 0x0 PUSH2 0x100 EXP DUP2 SLOAD DUP2 PUSH20 0xFFFFFFFFFFFFFFFFFFFFFFFFFFFFFFFFFFFFFFFF MUL NOT AND SWAP1 DUP4 PUSH20 0xFFFFFFFFFFFFFFFFFFFFFFFFFFFFFFFFFFFFFFFF AND MUL OR SWAP1 SSTORE POP CALLVALUE DUP1 ISZERO PUSH2 0x65 JUMPI PUSH1 0x0 DUP1 REVERT JUMPDEST POP CALLER PUSH1 0x0 DUP1 PUSH2 0x100 EXP DUP2 SLOAD DUP2 PUSH20 0xFFFFFFFFFFFFFFFFFFFFFFFFFFFFFFFFFFFFFFFF MUL NOT AND SWAP1 DUP4 PUSH20 0xFFFFFFFFFFFFFFFFFFFFFFFFFFFFFFFFFFFFFFFF AND MUL OR SWAP1 SSTORE POP CALLER PUSH1 0x0 DUP1 PUSH2 0x100 EXP DUP2 SLOAD DUP2 PUSH20 0xFFFFFFFFFFFFFFFFFFFFFFFFFFFFFFFFFFFFFFFF MUL NOT AND SWAP1 DUP4 PUSH20 0xFFFFFFFFFFFFFFFFFFFFFFFFFFFFFFFFFFFFFFFF AND MUL OR SWAP1 SSTORE POP PUSH2 0x1322 DUP1 PUSH2 0xF5 PUSH1 0x0 CODECOPY PUSH1 0x0 RETURN INVALID PUSH1 0x80 PUSH1 0x40 MSTORE PUSH1 0x4 CALLDATASIZE LT PUSH2 0x43 JUMPI PUSH1 0x0 CALLDATALOAD PUSH1 0xE0 SHR DUP1 PUSH4 0x14DA447F EQ PUSH2 0x52 JUMPI DUP1 PUSH4 0x2BEF7C7F EQ PUSH2 0x7B JUMPI DUP1 PUSH4 0x46964A0A EQ PUSH2 0x85 JUMPI DUP1 PUSH4 0xF2FDE38B EQ PUSH2 0xAE JUMPI PUSH2 0x4D JUMP JUMPDEST CALLDATASIZE PUSH2 0x4D JUMPI PUSH1 0x0 DUP1 REVERT JUMPDEST PUSH1 0x0 DUP1 REVERT JUMPDEST CALLVALUE DUP1 ISZERO PUSH2 0x5E JUMPI PUSH1 0x0 DUP1 REVERT JUMPDEST POP PUSH2 0x79 PUSH1 0x4 DUP1 CALLDATASIZE SUB DUP2 ADD SWAP1 PUSH2 0x74 SWAP2 SWAP1 PUSH2 0x605 JUMP JUMPDEST PUSH2 0xD7 JUMP JUMPDEST STOP JUMPDEST PUSH2 0x83 PUSH2 0x14C JUMP JUMPDEST STOP JUMPDEST CALLVALUE DUP1 ISZERO PUSH2 0x91 JUMPI PUSH1 0x0 DUP1 REVERT JUMPDEST POP PUSH2 0xAC PUSH1 0x4 DUP1 CALLDATASIZE SUB DUP2 ADD SWAP1 PUSH2 0xA7 SWAP2 SWAP1 PUSH2 0x68C JUMP JUMPDEST PUSH2 0x350 JUMP JUMPDEST STOP JUMPDEST CALLVALUE DUP1 ISZERO PUSH2 0xBA JUMPI PUSH1 0x0 DUP1 REVERT JUMPDEST POP PUSH2 0xD5 PUSH1 0x4 DUP1 CALLDATASIZE SUB DUP2 ADD SWAP1 PUSH2 0xD0 SWAP2 SWAP1 PUSH2 0x5D8 JUMP JUMPDEST PUSH2 0x356 JUMP JUMPDEST STOP JUMPDEST PUSH1 0x0 DUP1 SLOAD SWAP1 PUSH2 0x100 EXP SWAP1 DIV PUSH20 0xFFFFFFFFFFFFFFFFFFFFFFFFFFFFFFFFFFFFFFFF AND PUSH20 0xFFFFFFFFFFFFFFFFFFFFFFFFFFFFFFFFFFFFFFFF AND CALLER PUSH20 0xFFFFFFFFFFFFFFFFFFFFFFFFFFFFFFFFFFFFFFFF AND EQ PUSH2 0x133 JUMPI PUSH2 0x132 PUSH2 0x956 JUMP JUMPDEST JUMPDEST DUP1 PUSH20 0xFFFFFFFFFFFFFFFFFFFFFFFFFFFFFFFFFFFFFFFF AND SELFDESTRUCT JUMPDEST PUSH1 0x0 ADDRESS PUSH1 0x40 MLOAD PUSH2 0x15B SWAP1 PUSH2 0x4F2 JUMP JUMPDEST PUSH2 0x165 SWAP2 SWAP1 PUSH2 0x76E JUMP JUMPDEST PUSH1 0x40 MLOAD DUP1 SWAP2 SUB SWAP1 PUSH1 0x0 CREATE DUP1 ISZERO DUP1 ISZERO PUSH2 0x181 JUMPI RETURNDATASIZE PUSH1 0x0 DUP1 RETURNDATACOPY RETURNDATASIZE PUSH1 0x0 REVERT JUMPDEST POP SWAP1 POP PUSH1 0x3 PUSH1 0x0 SWAP1 SLOAD SWAP1 PUSH2 0x100 EXP SWAP1 DIV PUSH20 0xFFFFFFFFFFFFFFFFFFFFFFFFFFFFFFFFFFFFFFFF AND PUSH20 0xFFFFFFFFFFFFFFFFFFFFFFFFFFFFFFFFFFFFFFFF AND PUSH4 0x23B872DD CALLER DUP4 PUSH20 0xFFFFFFFFFFFFFFFFFFFFFFFFFFFFFFFFFFFFFFFF AND PUSH4 0x26B1D5F PUSH1 0x40 MLOAD DUP2 PUSH4 0xFFFFFFFF AND PUSH1 0xE0 SHL DUP2 MSTORE PUSH1 0x4 ADD PUSH1 0x20 PUSH1 0x40 MLOAD DUP1 DUP4 SUB DUP2 DUP7 DUP1 EXTCODESIZE ISZERO DUP1 ISZERO PUSH2 0x209 JUMPI PUSH1 0x0 DUP1 REVERT JUMPDEST POP GAS STATICCALL ISZERO DUP1 ISZERO PUSH2 0x21D JUMPI RETURNDATASIZE PUSH1 0x0 DUP1 RETURNDATACOPY RETURNDATASIZE PUSH1 0x0 REVERT JUMPDEST POP POP POP POP PUSH1 0x40 MLOAD RETURNDATASIZE PUSH1 0x1F NOT PUSH1 0x1F DUP3 ADD AND DUP3 ADD DUP1 PUSH1 0x40 MSTORE POP DUP2 ADD SWAP1 PUSH2 0x241 SWAP2 SWAP1 PUSH2 0x632 JUMP JUMPDEST CALLVALUE PUSH1 0x40 MLOAD DUP5 PUSH4 0xFFFFFFFF AND PUSH1 0xE0 SHL DUP2 MSTORE PUSH1 0x4 ADD PUSH2 0x260 SWAP4 SWAP3 SWAP2 SWAP1 PUSH2 0x789 JUMP JUMPDEST PUSH1 0x20 PUSH1 0x40 MLOAD DUP1 DUP4 SUB DUP2 PUSH1 0x0 DUP8 DUP1 EXTCODESIZE ISZERO DUP1 ISZERO PUSH2 0x27A JUMPI PUSH1 0x0 DUP1 REVERT JUMPDEST POP GAS CALL ISZERO DUP1 ISZERO PUSH2 0x28E JUMPI RETURNDATASIZE PUSH1 0x0 DUP1 RETURNDATACOPY RETURNDATASIZE PUSH1 0x0 REVERT JUMPDEST POP POP POP POP PUSH1 0x40 MLOAD RETURNDATASIZE PUSH1 0x1F NOT PUSH1 0x1F DUP3 ADD AND DUP3 ADD DUP1 PUSH1 0x40 MSTORE POP DUP2 ADD SWAP1 PUSH2 0x2B2 SWAP2 SWAP1 PUSH2 0x65F JUMP JUMPDEST POP PUSH1 0x2 DUP2 SWAP1 DUP1 PUSH1 0x1 DUP2 SLOAD ADD DUP1 DUP3 SSTORE DUP1 SWAP2 POP POP PUSH1 0x1 SWAP1 SUB SWAP1 PUSH1 0x0 MSTORE PUSH1 0x20 PUSH1 0x0 KECCAK256 ADD PUSH1 0x0 SWAP1 SWAP2 SWAP1 SWAP2 SWAP1 SWAP2 PUSH2 0x100 EXP DUP2 SLOAD DUP2 PUSH20 0xFFFFFFFFFFFFFFFFFFFFFFFFFFFFFFFFFFFFFFFF MUL NOT AND SWAP1 DUP4 PUSH20 0xFFFFFFFFFFFFFFFFFFFFFFFFFFFFFFFFFFFFFFFF AND MUL OR SWAP1 SSTORE POP PUSH32 0x1BDA7BB843640650292C2A26A73106328E0F83C1C09EA1A4176DF3912EE47FF6 DUP2 PUSH1 0x40 MLOAD PUSH2 0x345 SWAP2 SWAP1 PUSH2 0x7C0 JUMP JUMPDEST PUSH1 0x40 MLOAD DUP1 SWAP2 SUB SWAP1 LOG1 POP JUMP JUMPDEST POP POP POP POP JUMP JUMPDEST PUSH1 0x0 DUP1 SLOAD SWAP1 PUSH2 0x100 EXP SWAP1 DIV PUSH20 0xFFFFFFFFFFFFFFFFFFFFFFFFFFFFFFFFFFFFFFFF AND PUSH20 0xFFFFFFFFFFFFFFFFFFFFFFFFFFFFFFFFFFFFFFFF AND CALLER PUSH20 0xFFFFFFFFFFFFFFFFFFFFFFFFFFFFFFFFFFFFFFFF AND EQ PUSH2 0x3B2 JUMPI PUSH2 0x3B1 PUSH2 0x956 JUMP JUMPDEST JUMPDEST PUSH1 0x0 PUSH20 0xFFFFFFFFFFFFFFFFFFFFFFFFFFFFFFFFFFFFFFFF AND DUP2 PUSH20 0xFFFFFFFFFFFFFFFFFFFFFFFFFFFFFFFFFFFFFFFF AND EQ ISZERO PUSH2 0x422 JUMPI PUSH1 0x40 MLOAD PUSH32 0x8C379A000000000000000000000000000000000000000000000000000000000 DUP2 MSTORE PUSH1 0x4 ADD PUSH2 0x419 SWAP1 PUSH2 0x7DB JUMP JUMPDEST PUSH1 0x40 MLOAD DUP1 SWAP2 SUB SWAP1 REVERT JUMPDEST PUSH2 0x42B DUP2 PUSH2 0x42E JUMP JUMPDEST POP JUMP JUMPDEST PUSH1 0x0 DUP1 PUSH1 0x0 SWAP1 SLOAD SWAP1 PUSH2 0x100 EXP SWAP1 DIV PUSH20 0xFFFFFFFFFFFFFFFFFFFFFFFFFFFFFFFFFFFFFFFF AND SWAP1 POP DUP2 PUSH1 0x0 DUP1 PUSH2 0x100 EXP DUP2 SLOAD DUP2 PUSH20 0xFFFFFFFFFFFFFFFFFFFFFFFFFFFFFFFFFFFFFFFF MUL NOT AND SWAP1 DUP4 PUSH20 0xFFFFFFFFFFFFFFFFFFFFFFFFFFFFFFFFFFFFFFFF AND MUL OR SWAP1 SSTORE POP DUP2 PUSH20 0xFFFFFFFFFFFFFFFFFFFFFFFFFFFFFFFFFFFFFFFF AND DUP2 PUSH20 0xFFFFFFFFFFFFFFFFFFFFFFFFFFFFFFFFFFFFFFFF AND PUSH32 0x8BE0079C531659141344CD1FD0A4F28419497F9722A3DAAFE3B4186F6B6457E0 PUSH1 0x40 MLOAD PUSH1 0x40 MLOAD DUP1 SWAP2 SUB SWAP1 LOG3 POP POP JUMP JUMPDEST PUSH2 0x868 DUP1 PUSH2 0xA85 DUP4 CODECOPY ADD SWAP1 JUMP JUMPDEST PUSH1 0x0 PUSH2 0x512 PUSH2 0x50D DUP5 PUSH2 0x820 JUMP JUMPDEST PUSH2 0x7FB JUMP JUMPDEST SWAP1 POP DUP3 DUP2 MSTORE PUSH1 0x20 DUP2 ADD DUP5 DUP5 DUP5 ADD GT ISZERO PUSH2 0x52E JUMPI PUSH2 0x52D PUSH2 0x9B9 JUMP JUMPDEST JUMPDEST PUSH2 0x539 DUP5 DUP3 DUP6 PUSH2 0x916 JUMP JUMPDEST POP SWAP4 SWAP3 POP POP POP JUMP JUMPDEST PUSH1 0x0 DUP2 CALLDATALOAD SWAP1 POP PUSH2 0x550 DUP2 PUSH2 0xA28 JUMP JUMPDEST SWAP3 SWAP2 POP POP JUMP JUMPDEST PUSH1 0x0 DUP2 CALLDATALOAD SWAP1 POP PUSH2 0x565 DUP2 PUSH2 0xA3F JUMP JUMPDEST SWAP3 SWAP2 POP POP JUMP JUMPDEST PUSH1 0x0 DUP2 MLOAD SWAP1 POP PUSH2 0x57A DUP2 PUSH2 0xA3F JUMP JUMPDEST SWAP3 SWAP2 POP POP JUMP JUMPDEST PUSH1 0x0 DUP2 MLOAD SWAP1 POP PUSH2 0x58F DUP2 PUSH2 0xA56 JUMP JUMPDEST SWAP3 SWAP2 POP POP JUMP JUMPDEST PUSH1 0x0 DUP3 PUSH1 0x1F DUP4 ADD SLT PUSH2 0x5AA JUMPI PUSH2 0x5A9 PUSH2 0x9B4 JUMP JUMPDEST JUMPDEST DUP2 CALLDATALOAD PUSH2 0x5BA DUP5 DUP3 PUSH1 0x20 DUP7 ADD PUSH2 0x4FF JUMP JUMPDEST SWAP2 POP POP SWAP3 SWAP2 POP POP JUMP JUMPDEST PUSH1 0x0 DUP2 CALLDATALOAD SWAP1 POP PUSH2 0x5D2 DUP2 PUSH2 0xA6D JUMP JUMPDEST SWAP3 SWAP2 POP POP JUMP JUMPDEST PUSH1 0x0 PUSH1 0x20 DUP3 DUP5 SUB SLT ISZERO PUSH2 0x5EE JUMPI PUSH2 0x5ED PUSH2 0x9C3 JUMP JUMPDEST JUMPDEST PUSH1 0x0 PUSH2 0x5FC DUP5 DUP3 DUP6 ADD PUSH2 0x541 JUMP JUMPDEST SWAP2 POP POP SWAP3 SWAP2 POP POP JUMP JUMPDEST PUSH1 0x0 PUSH1 0x20 DUP3 DUP5 SUB SLT ISZERO PUSH2 0x61B JUMPI PUSH2 0x61A PUSH2 0x9C3 JUMP JUMPDEST JUMPDEST PUSH1 0x0 PUSH2 0x629 DUP5 DUP3 DUP6 ADD PUSH2 0x556 JUMP JUMPDEST SWAP2 POP POP SWAP3 SWAP2 POP POP JUMP JUMPDEST PUSH1 0x0 PUSH1 0x20 DUP3 DUP5 SUB SLT ISZERO PUSH2 0x648 JUMPI PUSH2 0x647 PUSH2 0x9C3 JUMP JUMPDEST JUMPDEST PUSH1 0x0 PUSH2 0x656 DUP5 DUP3 DUP6 ADD PUSH2 0x56B JUMP JUMPDEST SWAP2 POP POP SWAP3 SWAP2 POP POP JUMP JUMPDEST PUSH1 0x0 PUSH1 0x20 DUP3 DUP5 SUB SLT ISZERO PUSH2 0x675 JUMPI PUSH2 0x674 PUSH2 0x9C3 JUMP JUMPDEST JUMPDEST PUSH1 0x0 PUSH2 0x683 DUP5 DUP3 DUP6 ADD PUSH2 0x580 JUMP JUMPDEST SWAP2 POP POP SWAP3 SWAP2 POP POP JUMP JUMPDEST PUSH1 0x0 DUP1 PUSH1 0x0 DUP1 PUSH1 0x80 DUP6 DUP8 SUB SLT ISZERO PUSH2 0x6A6 JUMPI PUSH2 0x6A5 PUSH2 0x9C3 JUMP JUMPDEST JUMPDEST PUSH1 0x0 DUP6 ADD CALLDATALOAD PUSH8 0xFFFFFFFFFFFFFFFF DUP2 GT ISZERO PUSH2 0x6C4 JUMPI PUSH2 0x6C3 PUSH2 0x9BE JUMP JUMPDEST JUMPDEST PUSH2 0x6D0 DUP8 DUP3 DUP9 ADD PUSH2 0x595 JUMP JUMPDEST SWAP5 POP POP PUSH1 0x20 PUSH2 0x6E1 DUP8 DUP3 DUP9 ADD PUSH2 0x556 JUMP JUMPDEST SWAP4 POP POP PUSH1 0x40 PUSH2 0x6F2 DUP8 DUP3 DUP9 ADD PUSH2 0x5C3 JUMP JUMPDEST SWAP3 POP POP PUSH1 0x60 PUSH2 0x703 DUP8 DUP3 DUP9 ADD PUSH2 0x5C3 JUMP JUMPDEST SWAP2 POP POP SWAP3 SWAP6 SWAP2 SWAP5 POP SWAP3 POP JUMP JUMPDEST PUSH2 0x718 DUP2 PUSH2 0x8BC JUMP JUMPDEST DUP3 MSTORE POP POP JUMP JUMPDEST PUSH2 0x727 DUP2 PUSH2 0x862 JUMP JUMPDEST DUP3 MSTORE POP POP JUMP JUMPDEST PUSH2 0x736 DUP2 PUSH2 0x8CE JUMP JUMPDEST DUP3 MSTORE POP POP JUMP JUMPDEST PUSH1 0x0 PUSH2 0x749 PUSH1 0x26 DUP4 PUSH2 0x851 JUMP JUMPDEST SWAP2 POP PUSH2 0x754 DUP3 PUSH2 0x9D9 JUMP JUMPDEST PUSH1 0x40 DUP3 ADD SWAP1 POP SWAP2 SWAP1 POP JUMP JUMPDEST PUSH2 0x768 DUP2 PUSH2 0x8B2 JUMP JUMPDEST DUP3 MSTORE POP POP JUMP JUMPDEST PUSH1 0x0 PUSH1 0x20 DUP3 ADD SWAP1 POP PUSH2 0x783 PUSH1 0x0 DUP4 ADD DUP5 PUSH2 0x71E JUMP JUMPDEST SWAP3 SWAP2 POP POP JUMP JUMPDEST PUSH1 0x0 PUSH1 0x60 DUP3 ADD SWAP1 POP PUSH2 0x79E PUSH1 0x0 DUP4 ADD DUP7 PUSH2 0x71E JUMP JUMPDEST PUSH2 0x7AB PUSH1 0x20 DUP4 ADD DUP6 PUSH2 0x70F JUMP JUMPDEST PUSH2 0x7B8 PUSH1 0x40 DUP4 ADD DUP5 PUSH2 0x75F JUMP JUMPDEST SWAP5 SWAP4 POP POP POP POP JUMP JUMPDEST PUSH1 0x0 PUSH1 0x20 DUP3 ADD SWAP1 POP PUSH2 0x7D5 PUSH1 0x0 DUP4 ADD DUP5 PUSH2 0x72D JUMP JUMPDEST SWAP3 SWAP2 POP POP JUMP JUMPDEST PUSH1 0x0 PUSH1 0x20 DUP3 ADD SWAP1 POP DUP2 DUP2 SUB PUSH1 0x0 DUP4 ADD MSTORE PUSH2 0x7F4 DUP2 PUSH2 0x73C JUMP JUMPDEST SWAP1 POP SWAP2 SWAP1 POP JUMP JUMPDEST PUSH1 0x0 PUSH2 0x805 PUSH2 0x816 JUMP JUMPDEST SWAP1 POP PUSH2 0x811 DUP3 DUP3 PUSH2 0x925 JUMP JUMPDEST SWAP2 SWAP1 POP JUMP JUMPDEST PUSH1 0x0 PUSH1 0x40 MLOAD SWAP1 POP SWAP1 JUMP JUMPDEST PUSH1 0x0 PUSH8 0xFFFFFFFFFFFFFFFF DUP3 GT ISZERO PUSH2 0x83B JUMPI PUSH2 0x83A PUSH2 0x985 JUMP JUMPDEST JUMPDEST PUSH2 0x844 DUP3 PUSH2 0x9C8 JUMP JUMPDEST SWAP1 POP PUSH1 0x20 DUP2 ADD SWAP1 POP SWAP2 SWAP1 POP JUMP JUMPDEST PUSH1 0x0 DUP3 DUP3 MSTORE PUSH1 0x20 DUP3 ADD SWAP1 POP SWAP3 SWAP2 POP POP JUMP JUMPDEST PUSH1 0x0 PUSH2 0x86D DUP3 PUSH2 0x892 JUMP JUMPDEST SWAP1 POP SWAP2 SWAP1 POP JUMP JUMPDEST PUSH1 0x0 PUSH2 0x87F DUP3 PUSH2 0x892 JUMP JUMPDEST SWAP1 POP SWAP2 SWAP1 POP JUMP JUMPDEST PUSH1 0x0 DUP2 ISZERO ISZERO SWAP1 POP SWAP2 SWAP1 POP JUMP JUMPDEST PUSH1 0x0 PUSH20 0xFFFFFFFFFFFFFFFFFFFFFFFFFFFFFFFFFFFFFFFF DUP3 AND SWAP1 POP SWAP2 SWAP1 POP JUMP JUMPDEST PUSH1 0x0 DUP2 SWAP1 POP SWAP2 SWAP1 POP JUMP JUMPDEST PUSH1 0x0 PUSH2 0x8C7 DUP3 PUSH2 0x8E0 JUMP JUMPDEST SWAP1 POP SWAP2 SWAP1 POP JUMP JUMPDEST PUSH1 0x0 PUSH2 0x8D9 DUP3 PUSH2 0x8F2 JUMP JUMPDEST SWAP1 POP SWAP2 SWAP1 POP JUMP JUMPDEST PUSH1 0x0 PUSH2 0x8EB DUP3 PUSH2 0x904 JUMP JUMPDEST SWAP1 POP SWAP2 SWAP1 POP JUMP JUMPDEST PUSH1 0x0 PUSH2 0x8FD DUP3 PUSH2 0x904 JUMP JUMPDEST SWAP1 POP SWAP2 SWAP1 POP JUMP JUMPDEST PUSH1 0x0 PUSH2 0x90F DUP3 PUSH2 0x892 JUMP JUMPDEST SWAP1 POP SWAP2 SWAP1 POP JUMP JUMPDEST DUP3 DUP2 DUP4 CALLDATACOPY PUSH1 0x0 DUP4 DUP4 ADD MSTORE POP POP POP JUMP JUMPDEST PUSH2 0x92E DUP3 PUSH2 0x9C8 JUMP JUMPDEST DUP2 ADD DUP2 DUP2 LT PUSH8 0xFFFFFFFFFFFFFFFF DUP3 GT OR ISZERO PUSH2 0x94D JUMPI PUSH2 0x94C PUSH2 0x985 JUMP JUMPDEST JUMPDEST DUP1 PUSH1 0x40 MSTORE POP POP POP JUMP JUMPDEST PUSH32 0x4E487B7100000000000000000000000000000000000000000000000000000000 PUSH1 0x0 MSTORE PUSH1 0x1 PUSH1 0x4 MSTORE PUSH1 0x24 PUSH1 0x0 REVERT JUMPDEST PUSH32 0x4E487B7100000000000000000000000000000000000000000000000000000000 PUSH1 0x0 MSTORE PUSH1 0x41 PUSH1 0x4 MSTORE PUSH1 0x24 PUSH1 0x0 REVERT JUMPDEST PUSH1 0x0 DUP1 REVERT JUMPDEST PUSH1 0x0 DUP1 REVERT JUMPDEST PUSH1 0x0 DUP1 REVERT JUMPDEST PUSH1 0x0 DUP1 REVERT JUMPDEST PUSH1 0x0 PUSH1 0x1F NOT PUSH1 0x1F DUP4 ADD AND SWAP1 POP SWAP2 SWAP1 POP JUMP JUMPDEST PUSH32 0x4F776E61626C653A206E6577206F776E657220697320746865207A65726F2061 PUSH1 0x0 DUP3 ADD MSTORE PUSH32 0x6464726573730000000000000000000000000000000000000000000000000000 PUSH1 0x20 DUP3 ADD MSTORE POP JUMP JUMPDEST PUSH2 0xA31 DUP2 PUSH2 0x862 JUMP JUMPDEST DUP2 EQ PUSH2 0xA3C JUMPI PUSH1 0x0 DUP1 REVERT JUMPDEST POP JUMP JUMPDEST PUSH2 0xA48 DUP2 PUSH2 0x874 JUMP JUMPDEST DUP2 EQ PUSH2 0xA53 JUMPI PUSH1 0x0 DUP1 REVERT JUMPDEST POP JUMP JUMPDEST PUSH2 0xA5F DUP2 PUSH2 0x886 JUMP JUMPDEST DUP2 EQ PUSH2 0xA6A JUMPI PUSH1 0x0 DUP1 REVERT JUMPDEST POP JUMP JUMPDEST PUSH2 0xA76 DUP2 PUSH2 0x8B2 JUMP JUMPDEST DUP2 EQ PUSH2 0xA81 JUMPI PUSH1 0x0 DUP1 REVERT JUMPDEST POP JUMP INVALID PUSH1 0x80 PUSH1 0x40 MSTORE CALLVALUE DUP1 ISZERO PUSH2 0x10 JUMPI PUSH1 0x0 DUP1 REVERT JUMPDEST POP PUSH1 0x40 MLOAD PUSH2 0x868 CODESIZE SUB DUP1 PUSH2 0x868 DUP4 CODECOPY DUP2 DUP2 ADD PUSH1 0x40 MSTORE DUP2 ADD SWAP1 PUSH2 0x32 SWAP2 SWAP1 PUSH2 0x8D JUMP JUMPDEST DUP1 PUSH1 0x0 DUP1 PUSH2 0x100 EXP DUP2 SLOAD DUP2 PUSH20 0xFFFFFFFFFFFFFFFFFFFFFFFFFFFFFFFFFFFFFFFF MUL NOT AND SWAP1 DUP4 PUSH20 0xFFFFFFFFFFFFFFFFFFFFFFFFFFFFFFFFFFFFFFFF AND MUL OR SWAP1 SSTORE POP POP PUSH2 0x108 JUMP JUMPDEST PUSH1 0x0 DUP2 MLOAD SWAP1 POP PUSH2 0x87 DUP2 PUSH2 0xF1 JUMP JUMPDEST SWAP3 SWAP2 POP POP JUMP JUMPDEST PUSH1 0x0 PUSH1 0x20 DUP3 DUP5 SUB SLT ISZERO PUSH2 0xA3 JUMPI PUSH2 0xA2 PUSH2 0xEC JUMP JUMPDEST JUMPDEST PUSH1 0x0 PUSH2 0xB1 DUP5 DUP3 DUP6 ADD PUSH2 0x78 JUMP JUMPDEST SWAP2 POP POP SWAP3 SWAP2 POP POP JUMP JUMPDEST PUSH1 0x0 PUSH2 0xC5 DUP3 PUSH2 0xCC JUMP JUMPDEST SWAP1 POP SWAP2 SWAP1 POP JUMP JUMPDEST PUSH1 0x0 PUSH20 0xFFFFFFFFFFFFFFFFFFFFFFFFFFFFFFFFFFFFFFFF DUP3 AND SWAP1 POP SWAP2 SWAP1 POP JUMP JUMPDEST PUSH1 0x0 DUP1 REVERT JUMPDEST PUSH2 0xFA DUP2 PUSH2 0xBA JUMP JUMPDEST DUP2 EQ PUSH2 0x105 JUMPI PUSH1 0x0 DUP1 REVERT JUMPDEST POP JUMP JUMPDEST PUSH2 0x751 DUP1 PUSH2 0x117 PUSH1 0x0 CODECOPY PUSH1 0x0 RETURN INVALID PUSH1 0x80 PUSH1 0x40 MSTORE PUSH1 0x4 CALLDATASIZE LT PUSH2 0x59 JUMPI PUSH1 0x0 CALLDATALOAD PUSH1 0xE0 SHR DUP1 PUSH4 0x26B1D5F EQ PUSH2 0xF5 JUMPI DUP1 PUSH4 0x13658F8A EQ PUSH2 0x120 JUMPI DUP1 PUSH4 0x23B872DD EQ PUSH2 0x13C JUMPI DUP1 PUSH4 0xBEABACC8 EQ PUSH2 0x165 JUMPI DUP1 PUSH4 0xD0E30DB0 EQ PUSH2 0x18E JUMPI DUP1 PUSH4 0xE1F21C67 EQ PUSH2 0x198 JUMPI PUSH2 0xF0 JUMP JUMPDEST CALLDATASIZE PUSH2 0xF0 JUMPI PUSH1 0x0 PUSH20 0xFFFFFFFFFFFFFFFFFFFFFFFFFFFFFFFFFFFFFFFF AND PUSH1 0x0 DUP1 SLOAD SWAP1 PUSH2 0x100 EXP SWAP1 DIV PUSH20 0xFFFFFFFFFFFFFFFFFFFFFFFFFFFFFFFFFFFFFFFF AND PUSH20 0xFFFFFFFFFFFFFFFFFFFFFFFFFFFFFFFFFFFFFFFF AND EQ ISZERO PUSH2 0xEE JUMPI PUSH1 0x40 MLOAD PUSH32 0x8C379A000000000000000000000000000000000000000000000000000000000 DUP2 MSTORE PUSH1 0x4 ADD PUSH2 0xE5 SWAP1 PUSH2 0x5DD JUMP JUMPDEST PUSH1 0x40 MLOAD DUP1 SWAP2 SUB SWAP1 REVERT JUMPDEST STOP JUMPDEST PUSH1 0x0 DUP1 REVERT JUMPDEST CALLVALUE DUP1 ISZERO PUSH2 0x101 JUMPI PUSH1 0x0 DUP1 REVERT JUMPDEST POP PUSH2 0x10A PUSH2 0x1C1 JUMP JUMPDEST PUSH1 0x40 MLOAD PUSH2 0x117 SWAP2 SWAP1 PUSH2 0x562 JUMP JUMPDEST PUSH1 0x40 MLOAD DUP1 SWAP2 SUB SWAP1 RETURN JUMPDEST PUSH2 0x13A PUSH1 0x4 DUP1 CALLDATASIZE SUB DUP2 ADD SWAP1 PUSH2 0x135 SWAP2 SWAP1 PUSH2 0x452 JUMP JUMPDEST PUSH2 0x1C9 JUMP JUMPDEST STOP JUMPDEST CALLVALUE DUP1 ISZERO PUSH2 0x148 JUMPI PUSH1 0x0 DUP1 REVERT JUMPDEST POP PUSH2 0x163 PUSH1 0x4 DUP1 CALLDATASIZE SUB DUP2 ADD SWAP1 PUSH2 0x15E SWAP2 SWAP1 PUSH2 0x4BF JUMP JUMPDEST PUSH2 0x214 JUMP JUMPDEST STOP JUMPDEST CALLVALUE DUP1 ISZERO PUSH2 0x171 JUMPI PUSH1 0x0 DUP1 REVERT JUMPDEST POP PUSH2 0x18C PUSH1 0x4 DUP1 CALLDATASIZE SUB DUP2 ADD SWAP1 PUSH2 0x187 SWAP2 SWAP1 PUSH2 0x4BF JUMP JUMPDEST PUSH2 0x2B1 JUMP JUMPDEST STOP JUMPDEST PUSH2 0x196 PUSH2 0x34C JUMP JUMPDEST STOP JUMPDEST CALLVALUE DUP1 ISZERO PUSH2 0x1A4 JUMPI PUSH1 0x0 DUP1 REVERT JUMPDEST POP PUSH2 0x1BF PUSH1 0x4 DUP1 CALLDATASIZE SUB DUP2 ADD SWAP1 PUSH2 0x1BA SWAP2 SWAP1 PUSH2 0x4BF JUMP JUMPDEST PUSH2 0x34E JUMP JUMPDEST STOP JUMPDEST PUSH1 0x0 ADDRESS SWAP1 POP SWAP1 JUMP JUMPDEST DUP2 PUSH20 0xFFFFFFFFFFFFFFFFFFFFFFFFFFFFFFFFFFFFFFFF AND PUSH2 0x8FC DUP3 SWAP1 DUP2 ISZERO MUL SWAP1 PUSH1 0x40 MLOAD PUSH1 0x0 PUSH1 0x40 MLOAD DUP1 DUP4 SUB DUP2 DUP6 DUP9 DUP9 CALL SWAP4 POP POP POP POP ISZERO DUP1 ISZERO PUSH2 0x20F JUMPI RETURNDATASIZE PUSH1 0x0 DUP1 RETURNDATACOPY RETURNDATASIZE PUSH1 0x0 REVERT JUMPDEST POP POP POP JUMP JUMPDEST DUP3 PUSH20 0xFFFFFFFFFFFFFFFFFFFFFFFFFFFFFFFFFFFFFFFF AND PUSH4 0x23B872DD ADDRESS DUP5 DUP5 PUSH1 0x40 MLOAD DUP5 PUSH4 0xFFFFFFFF AND PUSH1 0xE0 SHL DUP2 MSTORE PUSH1 0x4 ADD PUSH2 0x251 SWAP4 SWAP3 SWAP2 SWAP1 PUSH2 0x57D JUMP JUMPDEST PUSH1 0x20 PUSH1 0x40 MLOAD DUP1 DUP4 SUB DUP2 PUSH1 0x0 DUP8 DUP1 EXTCODESIZE ISZERO DUP1 ISZERO PUSH2 0x26B JUMPI PUSH1 0x0 DUP1 REVERT JUMPDEST POP GAS CALL ISZERO DUP1 ISZERO PUSH2 0x27F JUMPI RETURNDATASIZE PUSH1 0x0 DUP1 RETURNDATACOPY RETURNDATASIZE PUSH1 0x0 REVERT JUMPDEST POP POP POP POP PUSH1 0x40 MLOAD RETURNDATASIZE PUSH1 0x1F NOT PUSH1 0x1F DUP3 ADD AND DUP3 ADD DUP1 PUSH1 0x40 MSTORE POP DUP2 ADD SWAP1 PUSH2 0x2A3 SWAP2 SWAP1 PUSH2 0x492 JUMP JUMPDEST PUSH2 0x2AC JUMPI PUSH1 0x0 DUP1 REVERT JUMPDEST POP POP POP JUMP JUMPDEST DUP3 PUSH20 0xFFFFFFFFFFFFFFFFFFFFFFFFFFFFFFFFFFFFFFFF AND PUSH4 0xA9059CBB DUP4 DUP4 PUSH1 0x40 MLOAD DUP4 PUSH4 0xFFFFFFFF AND PUSH1 0xE0 SHL DUP2 MSTORE PUSH1 0x4 ADD PUSH2 0x2EC SWAP3 SWAP2 SWAP1 PUSH2 0x5B4 JUMP JUMPDEST PUSH1 0x20 PUSH1 0x40 MLOAD DUP1 DUP4 SUB DUP2 PUSH1 0x0 DUP8 DUP1 EXTCODESIZE ISZERO DUP1 ISZERO PUSH2 0x306 JUMPI PUSH1 0x0 DUP1 REVERT JUMPDEST POP GAS CALL ISZERO DUP1 ISZERO PUSH2 0x31A JUMPI RETURNDATASIZE PUSH1 0x0 DUP1 RETURNDATACOPY RETURNDATASIZE PUSH1 0x0 REVERT JUMPDEST POP POP POP POP PUSH1 0x40 MLOAD RETURNDATASIZE PUSH1 0x1F NOT PUSH1 0x1F DUP3 ADD AND DUP3 ADD DUP1 PUSH1 0x40 MSTORE POP DUP2 ADD SWAP1 PUSH2 0x33E SWAP2 SWAP1 PUSH2 0x492 JUMP JUMPDEST PUSH2 0x347 JUMPI PUSH1 0x0 DUP1 REVERT JUMPDEST POP POP POP JUMP JUMPDEST JUMP JUMPDEST DUP3 PUSH20 0xFFFFFFFFFFFFFFFFFFFFFFFFFFFFFFFFFFFFFFFF AND PUSH4 0x95EA7B3 DUP4 DUP4 PUSH1 0x40 MLOAD DUP4 PUSH4 0xFFFFFFFF AND PUSH1 0xE0 SHL DUP2 MSTORE PUSH1 0x4 ADD PUSH2 0x389 SWAP3 SWAP2 SWAP1 PUSH2 0x5B4 JUMP JUMPDEST PUSH1 0x20 PUSH1 0x40 MLOAD DUP1 DUP4 SUB DUP2 PUSH1 0x0 DUP8 DUP1 EXTCODESIZE ISZERO DUP1 ISZERO PUSH2 0x3A3 JUMPI PUSH1 0x0 DUP1 REVERT JUMPDEST POP GAS CALL ISZERO DUP1 ISZERO PUSH2 0x3B7 JUMPI RETURNDATASIZE PUSH1 0x0 DUP1 RETURNDATACOPY RETURNDATASIZE PUSH1 0x0 REVERT JUMPDEST POP POP POP POP PUSH1 0x40 MLOAD RETURNDATASIZE PUSH1 0x1F NOT PUSH1 0x1F DUP3 ADD AND DUP3 ADD DUP1 PUSH1 0x40 MSTORE POP DUP2 ADD SWAP1 PUSH2 0x3DB SWAP2 SWAP1 PUSH2 0x492 JUMP JUMPDEST PUSH2 0x3E4 JUMPI PUSH1 0x0 DUP1 REVERT JUMPDEST POP POP POP JUMP JUMPDEST PUSH1 0x0 DUP2 CALLDATALOAD SWAP1 POP PUSH2 0x3F8 DUP2 PUSH2 0x6A8 JUMP JUMPDEST SWAP3 SWAP2 POP POP JUMP JUMPDEST PUSH1 0x0 DUP2 CALLDATALOAD SWAP1 POP PUSH2 0x40D DUP2 PUSH2 0x6BF JUMP JUMPDEST SWAP3 SWAP2 POP POP JUMP JUMPDEST PUSH1 0x0 DUP2 MLOAD SWAP1 POP PUSH2 0x422 DUP2 PUSH2 0x6D6 JUMP JUMPDEST SWAP3 SWAP2 POP POP JUMP JUMPDEST PUSH1 0x0 DUP2 CALLDATALOAD SWAP1 POP PUSH2 0x437 DUP2 PUSH2 0x6ED JUMP JUMPDEST SWAP3 SWAP2 POP POP JUMP JUMPDEST PUSH1 0x0 DUP2 CALLDATALOAD SWAP1 POP PUSH2 0x44C DUP2 PUSH2 0x704 JUMP JUMPDEST SWAP3 SWAP2 POP POP JUMP JUMPDEST PUSH1 0x0 DUP1 PUSH1 0x40 DUP4 DUP6 SUB SLT ISZERO PUSH2 0x469 JUMPI PUSH2 0x468 PUSH2 0x67A JUMP JUMPDEST JUMPDEST PUSH1 0x0 PUSH2 0x477 DUP6 DUP3 DUP7 ADD PUSH2 0x3FE JUMP JUMPDEST SWAP3 POP POP PUSH1 0x20 PUSH2 0x488 DUP6 DUP3 DUP7 ADD PUSH2 0x43D JUMP JUMPDEST SWAP2 POP POP SWAP3 POP SWAP3 SWAP1 POP JUMP JUMPDEST PUSH1 0x0 PUSH1 0x20 DUP3 DUP5 SUB SLT ISZERO PUSH2 0x4A8 JUMPI PUSH2 0x4A7 PUSH2 0x67A JUMP JUMPDEST JUMPDEST PUSH1 0x0 PUSH2 0x4B6 DUP5 DUP3 DUP6 ADD PUSH2 0x413 JUMP JUMPDEST SWAP2 POP POP SWAP3 SWAP2 POP POP JUMP JUMPDEST PUSH1 0x0 DUP1 PUSH1 0x0 PUSH1 0x60 DUP5 DUP7 SUB SLT ISZERO PUSH2 0x4D8 JUMPI PUSH2 0x4D7 PUSH2 0x67A JUMP JUMPDEST JUMPDEST PUSH1 0x0 PUSH2 0x4E6 DUP7 DUP3 DUP8 ADD PUSH2 0x428 JUMP JUMPDEST SWAP4 POP POP PUSH1 0x20 PUSH2 0x4F7 DUP7 DUP3 DUP8 ADD PUSH2 0x3E9 JUMP JUMPDEST SWAP3 POP POP PUSH1 0x40 PUSH2 0x508 DUP7 DUP3 DUP8 ADD PUSH2 0x43D JUMP JUMPDEST SWAP2 POP POP SWAP3 POP SWAP3 POP SWAP3 JUMP JUMPDEST PUSH2 0x51B DUP2 PUSH2 0x620 JUMP JUMPDEST DUP3 MSTORE POP POP JUMP JUMPDEST PUSH2 0x52A DUP2 PUSH2 0x60E JUMP JUMPDEST DUP3 MSTORE POP POP JUMP JUMPDEST PUSH1 0x0 PUSH2 0x53D PUSH1 0x10 DUP4 PUSH2 0x5FD JUMP JUMPDEST SWAP2 POP PUSH2 0x548 DUP3 PUSH2 0x67F JUMP JUMPDEST PUSH1 0x20 DUP3 ADD SWAP1 POP SWAP2 SWAP1 POP JUMP JUMPDEST PUSH2 0x55C DUP2 PUSH2 0x670 JUMP JUMPDEST DUP3 MSTORE POP POP JUMP JUMPDEST PUSH1 0x0 PUSH1 0x20 DUP3 ADD SWAP1 POP PUSH2 0x577 PUSH1 0x0 DUP4 ADD DUP5 PUSH2 0x512 JUMP JUMPDEST SWAP3 SWAP2 POP POP JUMP JUMPDEST PUSH1 0x0 PUSH1 0x60 DUP3 ADD SWAP1 POP PUSH2 0x592 PUSH1 0x0 DUP4 ADD DUP7 PUSH2 0x521 JUMP JUMPDEST PUSH2 0x59F PUSH1 0x20 DUP4 ADD DUP6 PUSH2 0x521 JUMP JUMPDEST PUSH2 0x5AC PUSH1 0x40 DUP4 ADD DUP5 PUSH2 0x553 JUMP JUMPDEST SWAP5 SWAP4 POP POP POP POP JUMP JUMPDEST PUSH1 0x0 PUSH1 0x40 DUP3 ADD SWAP1 POP PUSH2 0x5C9 PUSH1 0x0 DUP4 ADD DUP6 PUSH2 0x521 JUMP JUMPDEST PUSH2 0x5D6 PUSH1 0x20 DUP4 ADD DUP5 PUSH2 0x553 JUMP JUMPDEST SWAP4 SWAP3 POP POP POP JUMP JUMPDEST PUSH1 0x0 PUSH1 0x20 DUP3 ADD SWAP1 POP DUP2 DUP2 SUB PUSH1 0x0 DUP4 ADD MSTORE PUSH2 0x5F6 DUP2 PUSH2 0x530 JUMP JUMPDEST SWAP1 POP SWAP2 SWAP1 POP JUMP JUMPDEST PUSH1 0x0 DUP3 DUP3 MSTORE PUSH1 0x20 DUP3 ADD SWAP1 POP SWAP3 SWAP2 POP POP JUMP JUMPDEST PUSH1 0x0 PUSH2 0x619 DUP3 PUSH2 0x650 JUMP JUMPDEST SWAP1 POP SWAP2 SWAP1 POP JUMP JUMPDEST PUSH1 0x0 PUSH2 0x62B DUP3 PUSH2 0x650 JUMP JUMPDEST SWAP1 POP SWAP2 SWAP1 POP JUMP JUMPDEST PUSH1 0x0 DUP2 ISZERO ISZERO SWAP1 POP SWAP2 SWAP1 POP JUMP JUMPDEST PUSH1 0x0 PUSH2 0x649 DUP3 PUSH2 0x60E JUMP JUMPDEST SWAP1 POP SWAP2 SWAP1 POP JUMP JUMPDEST PUSH1 0x0 PUSH20 0xFFFFFFFFFFFFFFFFFFFFFFFFFFFFFFFFFFFFFFFF DUP3 AND SWAP1 POP SWAP2 SWAP1 POP JUMP JUMPDEST PUSH1 0x0 DUP2 SWAP1 POP SWAP2 SWAP1 POP JUMP JUMPDEST PUSH1 0x0 DUP1 REVERT JUMPDEST PUSH32 0x6E65656420696E697420626F756E747900000000000000000000000000000000 PUSH1 0x0 DUP3 ADD MSTORE POP JUMP JUMPDEST PUSH2 0x6B1 DUP2 PUSH2 0x60E JUMP JUMPDEST DUP2 EQ PUSH2 0x6BC JUMPI PUSH1 0x0 DUP1 REVERT JUMPDEST POP JUMP JUMPDEST PUSH2 0x6C8 DUP2 PUSH2 0x620 JUMP JUMPDEST DUP2 EQ PUSH2 0x6D3 JUMPI PUSH1 0x0 DUP1 REVERT JUMPDEST POP JUMP JUMPDEST PUSH2 0x6DF DUP2 PUSH2 0x632 JUMP JUMPDEST DUP2 EQ PUSH2 0x6EA JUMPI PUSH1 0x0 DUP1 REVERT JUMPDEST POP JUMP JUMPDEST PUSH2 0x6F6 DUP2 PUSH2 0x63E JUMP JUMPDEST DUP2 EQ PUSH2 0x701 JUMPI PUSH1 0x0 DUP1 REVERT JUMPDEST POP JUMP JUMPDEST PUSH2 0x70D DUP2 PUSH2 0x670 JUMP JUMPDEST DUP2 EQ PUSH2 0x718 JUMPI PUSH1 0x0 DUP1 REVERT JUMPDEST POP JUMP INVALID LOG2 PUSH5 0x6970667358 0x22 SLT KECCAK256 SDIV 0xC4 PUSH2 0x4657 0xB3 0xD7 DUP1 DUP6 0xE9 0xC1 PUSH30 0x3130CA7C432C0DF3BD6237106C033F1A0C2C1C9064736F6C634300080700 CALLER LOG2 PUSH5 0x6970667358 0x22 SLT KECCAK256 0xD1 PUSH20 0x78FEEBCD22C9621BF4B414F99F1771ACA364931 SELFDESTRUCT STATICCALL INVALID GASPRICE 0xCC SIGNEXTEND 0xAE DUP3 0xDA LOG3 PUSH5 0x736F6C6343 STOP ADDMOD SMOD STOP CALLER "
				},
				"gasEstimates": {
					"creation": {
						"codeDepositCost": "979600",
						"executionCost": "73820",
						"totalCost": "1053420"
					},
					"external": {
						"": "157",
						"createBounty()": "infinite",
						"invest(string,address,uint256,uint256)": "infinite",
						"suicide0(address)": "30198",
						"transferOwnership(address)": "30694"
					}
				},
				"methodIdentifiers": {
					"createBounty()": "2bef7c7f",
					"invest(string,address,uint256,uint256)": "46964a0a",
					"suicide0(address)": "14da447f",
					"transferOwnership(address)": "f2fde38b"
				}
			},
			"storageLayout": {
				"storage": [
					{
						"astId": 216,
						"contract": "contracts/Bounty.sol:Bounty",
						"label": "_owner",
						"offset": 0,
						"slot": "0",
						"type": "t_address"
					},
					{
						"astId": 218,
						"contract": "contracts/Bounty.sol:Bounty",
						"label": "_coinbase",
						"offset": 0,
						"slot": "1",
						"type": "t_address_payable"
					},
					{
						"astId": 14,
						"contract": "contracts/Bounty.sol:Bounty",
						"label": "bountyAddressList",
						"offset": 0,
						"slot": "2",
						"type": "t_array(t_contract(BountyAddr)212)dyn_storage"
					},
					{
						"astId": 20,
						"contract": "contracts/Bounty.sol:Bounty",
						"label": "_stableAddr",
						"offset": 0,
						"slot": "3",
						"type": "t_address"
					}
				],
				"types": {
					"t_address": {
						"encoding": "inplace",
						"label": "address",
						"numberOfBytes": "20"
					},
					"t_address_payable": {
						"encoding": "inplace",
						"label": "address payable",
						"numberOfBytes": "20"
					},
					"t_array(t_contract(BountyAddr)212)dyn_storage": {
						"base": "t_contract(BountyAddr)212",
						"encoding": "dynamic_array",
						"label": "contract BountyAddr[]",
						"numberOfBytes": "32"
					},
					"t_contract(BountyAddr)212": {
						"encoding": "inplace",
						"label": "contract BountyAddr",
						"numberOfBytes": "20"
					}
				}
			},
			"userdoc": {
				"kind": "user",
				"methods": {},
				"version": 1
			}
		}
	}
}