{
  "_format": "hh-sol-artifact-1",
  "contractName": "BountyStore",
  "sourceName": "contracts/BountyStore.sol",
  "abi": [
    {
      "anonymous": false,
      "inputs": [
        {
          "indexed": false,
          "internalType": "address",
          "name": "recipient",
          "type": "address"
        }
      ],
      "name": "PrimaryTransferred",
      "type": "event"
    },
    {
      "anonymous": false,
      "inputs": [
        {
          "indexed": false,
          "internalType": "address",
          "name": "sender",
          "type": "address"
        },
        {
          "indexed": false,
          "internalType": "string",
          "name": "func",
          "type": "string"
        }
      ],
      "name": "Receive",
      "type": "event"
    },
    {
      "inputs": [],
      "name": "applicants",
      "outputs": [
        {
          "internalType": "address[]",
          "name": "",
          "type": "address[]"
        }
      ],
      "stateMutability": "view",
      "type": "function"
    },
    {
      "inputs": [
        {
          "internalType": "address",
          "name": "_address",
          "type": "address"
        }
      ],
      "name": "getApplicant",
      "outputs": [
        {
          "internalType": "uint256",
          "name": "amount",
          "type": "uint256"
        },
        {
          "internalType": "uint8",
          "name": "status",
          "type": "uint8"
        }
      ],
      "stateMutability": "view",
      "type": "function"
    },
    {
      "inputs": [
        {
          "internalType": "address",
          "name": "_address",
          "type": "address"
        }
      ],
      "name": "getDepositLocker",
      "outputs": [
        {
          "internalType": "bool",
          "name": "",
          "type": "bool"
        }
      ],
      "stateMutability": "view",
      "type": "function"
    },
    {
      "inputs": [
        {
          "internalType": "address",
          "name": "_address",
          "type": "address"
        }
      ],
      "name": "getDepositUnlocker",
      "outputs": [
        {
          "internalType": "bool",
          "name": "",
          "type": "bool"
        }
      ],
      "stateMutability": "view",
      "type": "function"
    },
    {
      "inputs": [],
      "name": "primary",
      "outputs": [
        {
          "internalType": "address",
          "name": "",
          "type": "address"
        }
      ],
      "stateMutability": "view",
      "type": "function"
    },
    {
      "inputs": [
        {
          "internalType": "address",
          "name": "_address",
          "type": "address"
        }
      ],
      "name": "pushApplicant",
      "outputs": [],
      "stateMutability": "nonpayable",
      "type": "function"
    },
    {
      "inputs": [
        {
          "internalType": "address",
          "name": "_address",
          "type": "address"
        },
        {
          "internalType": "uint256",
          "name": "_amount",
          "type": "uint256"
        },
        {
          "internalType": "uint8",
          "name": "_status",
          "type": "uint8"
        }
      ],
      "name": "putApplicant",
      "outputs": [],
      "stateMutability": "nonpayable",
      "type": "function"
    },
    {
      "inputs": [
        {
          "internalType": "address",
          "name": "_address",
          "type": "address"
        },
        {
          "internalType": "uint256",
          "name": "_amount",
          "type": "uint256"
        }
      ],
      "name": "putApplicantAmount",
      "outputs": [],
      "stateMutability": "nonpayable",
      "type": "function"
    },
    {
      "inputs": [
        {
          "internalType": "address",
          "name": "_address",
          "type": "address"
        },
        {
          "internalType": "uint8",
          "name": "_status",
          "type": "uint8"
        }
      ],
      "name": "putApplicantStatus",
      "outputs": [],
      "stateMutability": "nonpayable",
      "type": "function"
    },
    {
      "inputs": [
        {
          "internalType": "address",
          "name": "_address",
          "type": "address"
        },
        {
          "internalType": "bool",
          "name": "_bool",
          "type": "bool"
        }
      ],
      "name": "putDepositLocker",
      "outputs": [],
      "stateMutability": "nonpayable",
      "type": "function"
    },
    {
      "inputs": [
        {
          "internalType": "address",
          "name": "_address",
          "type": "address"
        },
        {
          "internalType": "bool",
          "name": "_bool",
          "type": "bool"
        }
      ],
      "name": "putDepositUnlocker",
      "outputs": [],
      "stateMutability": "nonpayable",
      "type": "function"
    },
    {
      "inputs": [
        {
          "internalType": "address",
          "name": "_to",
          "type": "address"
        },
        {
          "internalType": "uint256",
          "name": "_amount",
          "type": "uint256"
        }
      ],
      "name": "transfer",
      "outputs": [
        {
          "internalType": "bool",
          "name": "",
          "type": "bool"
        }
      ],
      "stateMutability": "nonpayable",
      "type": "function"
    },
    {
      "inputs": [
        {
          "internalType": "address",
          "name": "recipient",
          "type": "address"
        }
      ],
      "name": "transferPrimary",
      "outputs": [],
      "stateMutability": "nonpayable",
      "type": "function"
    },
    {
      "inputs": [
        {
          "internalType": "contract IERC20",
          "name": "_token",
          "type": "address"
        },
        {
          "internalType": "address",
          "name": "_to",
          "type": "address"
        },
        {
          "internalType": "uint256",
          "name": "_amount",
          "type": "uint256"
        }
      ],
      "name": "transferToken",
      "outputs": [
        {
          "internalType": "bool",
          "name": "",
          "type": "bool"
        }
      ],
      "stateMutability": "nonpayable",
      "type": "function"
    },
    {
      "stateMutability": "payable",
      "type": "receive"
    }
  ],
  "bytecode": "0x608060405234801561000f575f80fd5b505f80546001600160a01b0319163390811790915560408051918252517f4101e71e974f68df5e9730cc223280b41654676bbb052cdcc735c3337e64d2d99181900360200190a1610ba8806100635f395ff3fe6080604052600436106100dc575f3560e01c8063ad4a7d481161007c578063e2f88c1f11610057578063e2f88c1f146102a2578063e696288a146102c1578063f5537ede146102e0578063fdf5963a146102ff575f80fd5b8063ad4a7d481461023e578063c6dbdf611461025d578063cb765d4d14610283575f80fd5b80633b8e1bf5116100b75780633b8e1bf5146101ab578063a2321aa1146101e1578063a374e62814610200578063a9059cbb1461021f575f80fd5b80630fd370591461013757806320d529a61461016b5780632348238c1461018c575f80fd5b36610133576040805133815260208101829052600781830152667265636569766560c81b606082015290517fd00ca3f088120b3d909c3a9e01be91e94a2b001aed9c25fe751c3c7a72dc49bf9181900360800190a1005b5f80fd5b348015610142575f80fd5b50610156610151366004610973565b610320565b60405190151581526020015b60405180910390f35b348015610176575f80fd5b5061018a6101853660046109a5565b61037e565b005b348015610197575f80fd5b5061018a6101a6366004610973565b6103fa565b3480156101b6575f80fd5b506101ca6101c5366004610973565b6104e8565b6040805192835260ff909116602083015201610162565b3480156101ec575f80fd5b5061018a6101fb366004610973565b610559565b34801561020b575f80fd5b5061018a61021a3660046109ed565b6105db565b34801561022a575f80fd5b50610156610239366004610a24565b610637565b348015610249575f80fd5b5061018a610258366004610a24565b6106c3565b348015610268575f80fd5b505f546040516001600160a01b039091168152602001610162565b34801561028e575f80fd5b5061018a61029d366004610a4e565b610710565b3480156102ad575f80fd5b5061018a6102bc3660046109ed565b610771565b3480156102cc575f80fd5b506101566102db366004610973565b6107cd565b3480156102eb575f80fd5b506101566102fa366004610a81565b61081e565b34801561030a575f80fd5b506103136108c9565b6040516101629190610abf565b5f80546001600160a01b0316336001600160a01b03161461035c5760405162461bcd60e51b815260040161035390610b0b565b60405180910390fd5b506001600160a01b0381165f9081526003602052604090205460ff165b919050565b5f546001600160a01b0316336001600160a01b0316146103b05760405162461bcd60e51b815260040161035390610b0b565b60408051808201825292835260ff91821660208085019182526001600160a01b03959095165f908152600290955293209151825591516001909101805460ff191691909216179055565b5f546001600160a01b0316336001600160a01b03161461042c5760405162461bcd60e51b815260040161035390610b0b565b6001600160a01b0381166104955760405162461bcd60e51b815260206004820152602a60248201527f5365636f6e646172793a206e6577207072696d61727920697320746865207a65604482015269726f206164647265737360b01b6064820152608401610353565b5f80546001600160a01b0319166001600160a01b0383169081179091556040519081527f4101e71e974f68df5e9730cc223280b41654676bbb052cdcc735c3337e64d2d99060200160405180910390a150565b5f805481906001600160a01b0316336001600160a01b03161461051d5760405162461bcd60e51b815260040161035390610b0b565b50506001600160a01b03165f908152600260209081526040918290208251808401909352805480845260019091015460ff169290910182905291565b5f546001600160a01b0316336001600160a01b03161461058b5760405162461bcd60e51b815260040161035390610b0b565b6001805480820182555f919091527fb10e2d527612073b26eecdfd717e6a320cf44b4afac2b0732d9fcbe2b7fa0cf60180546001600160a01b0319166001600160a01b0392909216919091179055565b5f546001600160a01b0316336001600160a01b03161461060d5760405162461bcd60e51b815260040161035390610b0b565b6001600160a01b03919091165f908152600460205260409020805460ff1916911515919091179055565b5f80546001600160a01b0316336001600160a01b03161461066a5760405162461bcd60e51b815260040161035390610b0b565b5f836001600160a01b0316836040515f6040518083038185875af1925050503d805f81146106b3576040519150601f19603f3d011682016040523d82523d5f602084013e6106b8565b606091505b509095945050505050565b5f546001600160a01b0316336001600160a01b0316146106f55760405162461bcd60e51b815260040161035390610b0b565b6001600160a01b039091165f90815260026020526040902055565b5f546001600160a01b0316336001600160a01b0316146107425760405162461bcd60e51b815260040161035390610b0b565b6001600160a01b03919091165f908152600260205260409020600101805460ff191660ff909216919091179055565b5f546001600160a01b0316336001600160a01b0316146107a35760405162461bcd60e51b815260040161035390610b0b565b6001600160a01b03919091165f908152600360205260409020805460ff1916911515919091179055565b5f80546001600160a01b0316336001600160a01b0316146108005760405162461bcd60e51b815260040161035390610b0b565b506001600160a01b03165f9081526004602052604090205460ff1690565b5f80546001600160a01b0316336001600160a01b0316146108515760405162461bcd60e51b815260040161035390610b0b565b60405163a9059cbb60e01b81526001600160a01b0384811660048301526024820184905285169063a9059cbb906044016020604051808303815f875af115801561089d573d5f803e3d5ffd5b505050506040513d601f19601f820116820180604052508101906108c19190610b57565b949350505050565b5f546060906001600160a01b0316336001600160a01b0316146108fe5760405162461bcd60e51b815260040161035390610b0b565b600180548060200260200160405190810160405280929190818152602001828054801561095257602002820191905f5260205f20905b81546001600160a01b03168152600190910190602001808311610934575b5050505050905090565b6001600160a01b0381168114610970575f80fd5b50565b5f60208284031215610983575f80fd5b813561098e8161095c565b9392505050565b803560ff81168114610379575f80fd5b5f805f606084860312156109b7575f80fd5b83356109c28161095c565b9250602084013591506109d760408501610995565b90509250925092565b8015158114610970575f80fd5b5f80604083850312156109fe575f80fd5b8235610a098161095c565b91506020830135610a19816109e0565b809150509250929050565b5f8060408385031215610a35575f80fd5b8235610a408161095c565b946020939093013593505050565b5f8060408385031215610a5f575f80fd5b8235610a6a8161095c565b9150610a7860208401610995565b90509250929050565b5f805f60608486031215610a93575f80fd5b8335610a9e8161095c565b92506020840135610aae8161095c565b929592945050506040919091013590565b602080825282518282018190525f9190848201906040850190845b81811015610aff5783516001600160a01b031683529284019291840191600101610ada565b50909695505050505050565b6020808252602c908201527f5365636f6e646172793a2063616c6c6572206973206e6f74207468652070726960408201526b1b585c9e481858d8dbdd5b9d60a21b606082015260800190565b5f60208284031215610b67575f80fd5b815161098e816109e056fea264697066735822122092b3010c60420953589a3583f14a1e1cf0cf224347f318a3ae14590191dec7cc64736f6c63430008140033",
  "linkReferences": {},
  "deployedLinkReferences": {}
}