{
  "_format": "hh-sol-artifact-1",
  "contractName": "CrowdfundingFactory",
  "sourceName": "contracts/CrowdfundingFactory.sol",
  "abi": [
    {
      "inputs": [
        {
          "internalType": "address",
          "name": "_feeToSetter",
          "type": "address"
        },
        {
          "internalType": "address",
          "name": "_feeTo",
          "type": "address"
        },
        {
          "internalType": "address",
          "name": "_transferSigner",
          "type": "address"
        }
      ],
      "stateMutability": "nonpayable",
      "type": "constructor"
    },
    {
      "inputs": [],
      "name": "TokenAddress",
      "type": "error"
    },
    {
      "inputs": [
        {
          "internalType": "string",
          "name": "_type",
          "type": "string"
        }
      ],
      "name": "TokenAllowanceInsufficient",
      "type": "error"
    },
    {
      "inputs": [
        {
          "internalType": "string",
          "name": "_type",
          "type": "string"
        }
      ],
      "name": "TokenBalanceInsufficient",
      "type": "error"
    },
    {
      "inputs": [
        {
          "internalType": "address",
          "name": "_sender",
          "type": "address"
        }
      ],
      "name": "Unauthorized",
      "type": "error"
    },
    {
      "anonymous": false,
      "inputs": [
        {
          "indexed": false,
          "internalType": "address",
          "name": "founder",
          "type": "address"
        },
        {
          "indexed": false,
          "internalType": "address",
          "name": "crowdfunding",
          "type": "address"
        },
        {
          "components": [
            {
              "internalType": "address",
              "name": "sellTokenAddress",
              "type": "address"
            },
            {
              "internalType": "address",
              "name": "buyTokenAddress",
              "type": "address"
            },
            {
              "internalType": "uint8",
              "name": "sellTokenDecimals",
              "type": "uint8"
            },
            {
              "internalType": "uint8",
              "name": "buyTokenDecimals",
              "type": "uint8"
            },
            {
              "internalType": "bool",
              "name": "buyTokenIsNative",
              "type": "bool"
            },
            {
              "internalType": "uint256",
              "name": "raiseTotal",
              "type": "uint256"
            },
            {
              "internalType": "uint256",
              "name": "buyPrice",
              "type": "uint256"
            },
            {
              "internalType": "uint16",
              "name": "swapPercent",
              "type": "uint16"
            },
            {
              "internalType": "uint16",
              "name": "sellTax",
              "type": "uint16"
            },
            {
              "internalType": "uint256",
              "name": "maxBuyAmount",
              "type": "uint256"
            },
            {
              "internalType": "uint256",
              "name": "minBuyAmount",
              "type": "uint256"
            },
            {
              "internalType": "uint16",
              "name": "maxSellPercent",
              "type": "uint16"
            },
            {
              "internalType": "address",
              "name": "teamWallet",
              "type": "address"
            },
            {
              "internalType": "uint256",
              "name": "startTime",
              "type": "uint256"
            },
            {
              "internalType": "uint256",
              "name": "endTime",
              "type": "uint256"
            },
            {
              "internalType": "address",
              "name": "router",
              "type": "address"
            },
            {
              "internalType": "uint256",
              "name": "dexInitPrice",
              "type": "uint256"
            }
          ],
          "indexed": false,
          "internalType": "struct Parameters",
          "name": "paras",
          "type": "tuple"
        }
      ],
      "name": "Created",
      "type": "event"
    },
    {
      "anonymous": false,
      "inputs": [
        {
          "indexed": true,
          "internalType": "address",
          "name": "previousOwner",
          "type": "address"
        },
        {
          "indexed": true,
          "internalType": "address",
          "name": "newOwner",
          "type": "address"
        }
      ],
      "name": "OwnershipTransferred",
      "type": "event"
    },
    {
      "inputs": [
        {
          "internalType": "address",
          "name": "_router",
          "type": "address"
        }
      ],
      "name": "addToDexRouters",
      "outputs": [],
      "stateMutability": "nonpayable",
      "type": "function"
    },
    {
      "inputs": [],
      "name": "children",
      "outputs": [
        {
          "internalType": "address[]",
          "name": "",
          "type": "address[]"
        }
      ],
      "stateMutability": "view",
      "type": "function"
    },
    {
      "inputs": [
        {
          "components": [
            {
              "internalType": "address",
              "name": "sellTokenAddress",
              "type": "address"
            },
            {
              "internalType": "address",
              "name": "buyTokenAddress",
              "type": "address"
            },
            {
              "internalType": "uint8",
              "name": "sellTokenDecimals",
              "type": "uint8"
            },
            {
              "internalType": "uint8",
              "name": "buyTokenDecimals",
              "type": "uint8"
            },
            {
              "internalType": "bool",
              "name": "buyTokenIsNative",
              "type": "bool"
            },
            {
              "internalType": "uint256",
              "name": "raiseTotal",
              "type": "uint256"
            },
            {
              "internalType": "uint256",
              "name": "buyPrice",
              "type": "uint256"
            },
            {
              "internalType": "uint16",
              "name": "swapPercent",
              "type": "uint16"
            },
            {
              "internalType": "uint16",
              "name": "sellTax",
              "type": "uint16"
            },
            {
              "internalType": "uint256",
              "name": "maxBuyAmount",
              "type": "uint256"
            },
            {
              "internalType": "uint256",
              "name": "minBuyAmount",
              "type": "uint256"
            },
            {
              "internalType": "uint16",
              "name": "maxSellPercent",
              "type": "uint16"
            },
            {
              "internalType": "address",
              "name": "teamWallet",
              "type": "address"
            },
            {
              "internalType": "uint256",
              "name": "startTime",
              "type": "uint256"
            },
            {
              "internalType": "uint256",
              "name": "endTime",
              "type": "uint256"
            },
            {
              "internalType": "address",
              "name": "router",
              "type": "address"
            },
            {
              "internalType": "uint256",
              "name": "dexInitPrice",
              "type": "uint256"
            }
          ],
          "internalType": "struct Parameters",
          "name": "paras",
          "type": "tuple"
        }
      ],
      "name": "createCrowdfundingContract",
      "outputs": [],
      "stateMutability": "nonpayable",
      "type": "function"
    },
    {
      "inputs": [],
      "name": "fee",
      "outputs": [
        {
          "internalType": "uint24",
          "name": "",
          "type": "uint24"
        }
      ],
      "stateMutability": "view",
      "type": "function"
    },
    {
      "inputs": [],
      "name": "feeTo",
      "outputs": [
        {
          "internalType": "address",
          "name": "",
          "type": "address"
        }
      ],
      "stateMutability": "view",
      "type": "function"
    },
    {
      "inputs": [],
      "name": "feeToSetter",
      "outputs": [
        {
          "internalType": "address",
          "name": "",
          "type": "address"
        }
      ],
      "stateMutability": "view",
      "type": "function"
    },
    {
      "inputs": [],
      "name": "getStore",
      "outputs": [
        {
          "internalType": "address",
          "name": "",
          "type": "address"
        }
      ],
      "stateMutability": "view",
      "type": "function"
    },
    {
      "inputs": [
        {
          "internalType": "address",
          "name": "_address",
          "type": "address"
        }
      ],
      "name": "isChild",
      "outputs": [
        {
          "internalType": "bool",
          "name": "",
          "type": "bool"
        }
      ],
      "stateMutability": "view",
      "type": "function"
    },
    {
      "inputs": [
        {
          "internalType": "address",
          "name": "_router",
          "type": "address"
        }
      ],
      "name": "isDexRouters",
      "outputs": [
        {
          "internalType": "bool",
          "name": "",
          "type": "bool"
        }
      ],
      "stateMutability": "view",
      "type": "function"
    },
    {
      "inputs": [],
      "name": "owner",
      "outputs": [
        {
          "internalType": "address",
          "name": "",
          "type": "address"
        }
      ],
      "stateMutability": "view",
      "type": "function"
    },
    {
      "inputs": [
        {
          "internalType": "address",
          "name": "_router",
          "type": "address"
        }
      ],
      "name": "removeFromDexRouters",
      "outputs": [],
      "stateMutability": "nonpayable",
      "type": "function"
    },
    {
      "inputs": [],
      "name": "renounceOwnership",
      "outputs": [],
      "stateMutability": "nonpayable",
      "type": "function"
    },
    {
      "inputs": [
        {
          "internalType": "address",
          "name": "_feeTo",
          "type": "address"
        }
      ],
      "name": "setFeeTo",
      "outputs": [],
      "stateMutability": "nonpayable",
      "type": "function"
    },
    {
      "inputs": [
        {
          "internalType": "address",
          "name": "_feeToSetter",
          "type": "address"
        }
      ],
      "name": "setFeeToSetter",
      "outputs": [],
      "stateMutability": "nonpayable",
      "type": "function"
    },
    {
      "inputs": [
        {
          "internalType": "address",
          "name": "_transferSigner",
          "type": "address"
        }
      ],
      "name": "setTransferSigner",
      "outputs": [],
      "stateMutability": "nonpayable",
      "type": "function"
    },
    {
      "inputs": [
        {
          "internalType": "address",
          "name": "newOwner",
          "type": "address"
        }
      ],
      "name": "transferOwnership",
      "outputs": [],
      "stateMutability": "nonpayable",
      "type": "function"
    },
    {
      "inputs": [
        {
          "internalType": "address",
          "name": "newFactory",
          "type": "address"
        }
      ],
      "name": "transferPrimary",
      "outputs": [],
      "stateMutability": "nonpayable",
      "type": "function"
    },
    {
      "inputs": [],
      "name": "transferSigner",
      "outputs": [
        {
          "internalType": "address",
          "name": "",
          "type": "address"
        }
      ],
      "stateMutability": "view",
      "type": "function"
    },
    {
      "inputs": [
        {
          "internalType": "address",
          "name": "newStore",
          "type": "address"
        }
      ],
      "name": "transferStore",
      "outputs": [],
      "stateMutability": "nonpayable",
      "type": "function"
    }
  ],
  "bytecode": "0x60a06040523480156200001157600080fd5b5060405162006b9e38038062006b9e833981016040819052620000349162000197565b6200003f336200010e565b6040516200004d906200015e565b604051809103906000f0801580156200006a573d6000803e3d6000fd5b50600180546001600160a01b0319166001600160a01b039290921691909117905560405162000099906200016c565b604051809103906000f080158015620000b6573d6000803e3d6000fd5b50600280546001600160a01b03199081166001600160a01b0393841617909155600480548216958316959095179094556005805485169282169290921790915560038054909316911617905561012c608052620001e1565b600080546001600160a01b038381166001600160a01b0319831681178455604051919092169283917f8be0079c531659141344cd1fd0a4f28419497f9722a3daafe3b4186f6b6457e09190a35050565b6104bf806200619083390190565b61054f806200664f83390190565b80516001600160a01b03811681146200019257600080fd5b919050565b600080600060608486031215620001ad57600080fd5b620001b8846200017a565b9250620001c8602085016200017a565b9150620001d8604085016200017a565b90509250925092565b608051615f93620001fd60003960006102680152615f936000f3fe60806040523480156200001157600080fd5b5060043610620001395760003560e01c8063a5f5775111620000bb578063e7836e1b116200007a578063e7836e1b146200029f578063f2fde38b14620002c7578063f46901ed14620002de578063f523e77514620002f5578063fc91a897146200030c57600080fd5b8063a5f577511462000214578063b1d00df0146200022b578063c2722ecc146200023f578063c2bc80fd1462000249578063ddca3f43146200026257600080fd5b8063269e4e171162000108578063269e4e1714620001b35780633d4281b814620001ca578063715018a614620001e15780638da5cb5b14620001eb578063a2e74af614620001fd57600080fd5b8063017e7e58146200013e5780630728bb94146200016f578063094b741514620001885780632348238c146200019c575b600080fd5b60035462000152906001600160a01b031681565b6040516001600160a01b0390911681526020015b60405180910390f35b620001866200018036600462000f55565b62000323565b005b60045462000152906001600160a01b031681565b62000186620001ad36600462000f97565b62000a16565b62000186620001c436600462000f97565b62000aa8565b62000186620001db36600462000f97565b62000b08565b6200018662000b68565b6000546001600160a01b031662000152565b620001866200020e36600462000f97565b62000b97565b620001866200022536600462000f97565b62000c01565b60055462000152906001600160a01b031681565b6200015262000c50565b6200025362000c8e565b60405162000166919062000fbe565b6200028a7f000000000000000000000000000000000000000000000000000000000000000081565b60405162ffffff909116815260200162000166565b620002b6620002b036600462000f97565b62000d08565b604051901515815260200162000166565b62000186620002d836600462000f97565b62000d81565b62000186620002ef36600462000f97565b62000e23565b620001866200030636600462000f97565b62000e74565b620002b66200031d36600462000f97565b62000ec3565b600062000334602083018362000f97565b6001600160a01b031614801562000365575060006200035a604083016020840162000f97565b6001600160a01b0316145b156200038457604051636165d18360e11b815260040160405180910390fd5b60008160c0013511620003cf5760405162461bcd60e51b815260206004820152600e60248201526d4552523a2042555920505249434560901b60448201526064015b60405180910390fd5b6000620003e561020083016101e0840162000f97565b6001600160a01b0316146200044457600081610200013511620004445760405162461bcd60e51b815260206004820152601660248201527508aa4a47440929c92a840a0a492868a409e8c40888ab60531b6044820152606401620003c6565b6200045c620002b061020083016101e0840162000f97565b8062000484575060006200047961020083016101e0840162000f97565b6001600160a01b0316145b620004c85760405162461bcd60e51b815260206004820152601360248201527208aa4a4749c9ea840a6aaa0a09ea4a840888ab606b1b6044820152606401620003c6565b6000620004d9602083018362000f97565b905060003033604051620004ed9062000f47565b6001600160a01b03928316815291166020820152608060408201819052600c908201526b43726f776466756e64696e6760a01b60a082015260c060608201819052600390820152620312e360ec1b60e082015261010001604051809103906000f08015801562000561573d6000803e3d6000fd5b5060405163689d133960e11b81529091506001600160a01b0382169063d13a2672906200059390869060040162001197565b600060405180830381600087803b158015620005ae57600080fd5b505af1158015620005c3573d6000803e3d6000fd5b505050506000816001600160a01b031663d0e30db06040518163ffffffff1660e01b8152600401602060405180830381865afa15801562000608573d6000803e3d6000fd5b505050506040513d601f19601f820116820180604052508101906200062e9190620011a8565b905060008111620006825760405162461bcd60e51b815260206004820152601a60248201527f53656c6c20746f6b656e206465706f736974206973207a65726f0000000000006044820152606401620003c6565b6040516370a0823160e01b815233600482015281906001600160a01b038516906370a0823190602401602060405180830381865afa158015620006c9573d6000803e3d6000fd5b505050506040513d601f19601f82011682018060405250810190620006ef9190620011a8565b10156200072957604051638c2f4c6b60e01b8152600401620003c69060208082526004908201526314d95b1b60e21b604082015260600190565b604051636eb1769f60e11b815233600482015230602482015281906001600160a01b0385169063dd62ed3e90604401602060405180830381865afa15801562000776573d6000803e3d6000fd5b505050506040513d601f19601f820116820180604052508101906200079c9190620011a8565b1015620007d657604051630b29193560e31b8152600401620003c69060208082526004908201526314d95b1b60e21b604082015260600190565b826001600160a01b03166323b872dd33846001600160a01b031663f4e759ef6040518163ffffffff1660e01b8152600401602060405180830381865afa15801562000825573d6000803e3d6000fd5b505050506040513d601f19601f820116820180604052508101906200084b9190620011cf565b6040516001600160e01b031960e085901b1681526001600160a01b03928316600482015291166024820152604481018490526064016020604051808303816000875af1158015620008a0573d6000803e3d6000fd5b505050506040513d601f19601f82011682018060405250810190620008c69190620011ef565b620009145760405162461bcd60e51b815260206004820152601f60248201527f53656c6c20746f6b656e207472616e7366657246726f6d206661696c757265006044820152606401620003c6565b60405163f2fde38b60e01b81523360048201526001600160a01b0383169063f2fde38b90602401600060405180830381600087803b1580156200095657600080fd5b505af11580156200096b573d6000803e3d6000fd5b50506001546040516389b09de760e01b81526001600160a01b03808716600483015286945090911691506389b09de790602401600060405180830381600087803b158015620009b957600080fd5b505af1158015620009ce573d6000803e3d6000fd5b505050507fc1191fb07fb1a904651e55bac1a512862d3f31c90f8073cb542dd291994e704833828760405162000a07939291906200120f565b60405180910390a15050505050565b6000546001600160a01b0316331462000a435760405162461bcd60e51b8152600401620003c6906200123f565b6001546040516308d208e360e21b81526001600160a01b03838116600483015290911690632348238c906024015b600060405180830381600087803b15801562000a8c57600080fd5b505af115801562000aa1573d6000803e3d6000fd5b5050505050565b6000546001600160a01b0316331462000ad55760405162461bcd60e51b8152600401620003c6906200123f565b600254604051638ab1d68160e01b81526001600160a01b03838116600483015290911690638ab1d6819060240162000a71565b6000546001600160a01b0316331462000b355760405162461bcd60e51b8152600401620003c6906200123f565b60025460405163e43252d760e01b81526001600160a01b0383811660048301529091169063e43252d79060240162000a71565b6000546001600160a01b0316331462000b955760405162461bcd60e51b8152600401620003c6906200123f565b565b6004546001600160a01b03163314158062000bbd57506000546001600160a01b03163314155b1562000bdf5760405163472511eb60e11b8152336004820152602401620003c6565b600480546001600160a01b0319166001600160a01b0392909216919091179055565b6000546001600160a01b0316331462000c2e5760405162461bcd60e51b8152600401620003c6906200123f565b600580546001600160a01b0319166001600160a01b0392909216919091179055565b600080546001600160a01b0316331462000c7e5760405162461bcd60e51b8152600401620003c6906200123f565b506001546001600160a01b031690565b6001546040805163c2bc80fd60e01b815290516060926001600160a01b03169163c2bc80fd9160048083019260009291908290030181865afa15801562000cd9573d6000803e3d6000fd5b505050506040513d6000823e601f3d908101601f1916820160405262000d0391908101906200128a565b905090565b600254604051633af32abf60e01b81526001600160a01b0383811660048301526000921690633af32abf906024015b602060405180830381865afa15801562000d55573d6000803e3d6000fd5b505050506040513d601f19601f8201168201806040525081019062000d7b9190620011ef565b92915050565b6000546001600160a01b0316331462000dae5760405162461bcd60e51b8152600401620003c6906200123f565b6001600160a01b03811662000e155760405162461bcd60e51b815260206004820152602660248201527f4f776e61626c653a206e6577206f776e657220697320746865207a65726f206160448201526564647265737360d01b6064820152608401620003c6565b62000e208162000ef7565b50565b6004546001600160a01b0316331462000e525760405163472511eb60e11b8152336004820152602401620003c6565b600380546001600160a01b0319166001600160a01b0392909216919091179055565b6000546001600160a01b0316331462000ea15760405162461bcd60e51b8152600401620003c6906200123f565b600180546001600160a01b0319166001600160a01b0392909216919091179055565b60015460405163fc91a89760e01b81526001600160a01b038381166004830152600092169063fc91a8979060240162000d37565b600080546001600160a01b038381166001600160a01b0319831681178455604051919092169283917f8be0079c531659141344cd1fd0a4f28419497f9722a3daafe3b4186f6b6457e09190a35050565b614c00806200135e83390190565b6000610220828403121562000f6957600080fd5b50919050565b6001600160a01b038116811462000e2057600080fd5b803562000f928162000f6f565b919050565b60006020828403121562000faa57600080fd5b813562000fb78162000f6f565b9392505050565b6020808252825182820181905260009190848201906040850190845b81811015620010015783516001600160a01b03168352928401929184019160010162000fda565b50909695505050505050565b803560ff8116811462000f9257600080fd5b801515811462000e2057600080fd5b803562000f92816200101f565b803561ffff8116811462000f9257600080fd5b6200106b826200105e8362000f85565b6001600160a01b03169052565b620010796020820162000f85565b6001600160a01b0316602083015262001095604082016200100d565b60ff166040830152620010ab606082016200100d565b60ff166060830152620010c1608082016200102e565b80151560808401525060a081013560a083015260c081013560c0830152620010ec60e082016200103b565b61ffff1660e0830152610100620011058282016200103b565b61ffff169083015261012081810135908301526101408082013590830152610160620011338183016200103b565b61ffff16908301526101806200114b82820162000f85565b6001600160a01b0316908301526101a081810135908301526101c080820135908301526101e06200117e81830162000f85565b6001600160a01b03169083015261020090810135910152565b610220810162000d7b82846200104e565b600060208284031215620011bb57600080fd5b5051919050565b805162000f928162000f6f565b600060208284031215620011e257600080fd5b815162000fb78162000f6f565b6000602082840312156200120257600080fd5b815162000fb7816200101f565b6001600160a01b0384811682528316602082015261026081016200123760408301846200104e565b949350505050565b6020808252818101527f4f776e61626c653a2063616c6c6572206973206e6f7420746865206f776e6572604082015260600190565b634e487b7160e01b600052604160045260246000fd5b600060208083850312156200129e57600080fd5b825167ffffffffffffffff80821115620012b757600080fd5b818501915085601f830112620012cc57600080fd5b815181811115620012e157620012e162001274565b8060051b604051601f19603f8301168101818110858211171562001309576200130962001274565b6040529182528482019250838101850191888311156200132857600080fd5b938501935b8285101562001351576200134185620011c2565b845293850193928501926200132d565b9897505050505050505056fe6101406040523480156200001257600080fd5b5060405162004c0038038062004c00833981016040819052620000359162000253565b8181620000423362000121565b815160209283012081519183019190912060e08290526101008190524660a0818152604080517f8b73c3c69bb8fe3d512ecc4cf759cc79239f7b179b0ffacaa9a75d522b39400f818801819052818301969096526060810194909452608080850193909352308483018190528151808603909301835260c094850190915281519190950120905282905261012052600580546001600160a01b03199081166001600160a01b03978816908117909255600680548216969097169590951790955560188054851690911790555050600480549091169091179055620002e3565b600080546001600160a01b038381166001600160a01b0319831681178455604051919092169283917f8be0079c531659141344cd1fd0a4f28419497f9722a3daafe3b4186f6b6457e09190a35050565b80516001600160a01b03811681146200018957600080fd5b919050565b634e487b7160e01b600052604160045260246000fd5b600082601f830112620001b657600080fd5b81516001600160401b0380821115620001d357620001d36200018e565b604051601f8301601f19908116603f01168101908282118183101715620001fe57620001fe6200018e565b816040528381526020925086838588010111156200021b57600080fd5b600091505b838210156200023f578582018301518183018401529082019062000220565b600093810190920192909252949350505050565b600080600080608085870312156200026a57600080fd5b620002758562000171565b9350620002856020860162000171565b60408601519093506001600160401b0380821115620002a357600080fd5b620002b188838901620001a4565b93506060870151915080821115620002c857600080fd5b50620002d787828801620001a4565b91505092959194509250565b60805160a05160c05160e05161010051610120516148cd620003336000396000612bde01526000612c2001526000612bff01526000612b6301526000612b8d01526000612bb701526148cd6000f3fe6080604052600436106101185760003560e01c8063c216ff88116100a0578063d79875eb11610064578063d79875eb146103b5578063ea8a1af0146103c8578063f2fde38b146103dd578063f4e759ef146103fd578063f523e7751461041257600080fd5b8063c216ff881461032b578063c2722ecc1461034c578063d0e30db014610361578063d13a26721461037f578063d6febde81461039257600080fd5b806389035730116100e757806389035730146101ef5780638da5cb5b1461029d578063a7f43779146102cf578063b305862b146102e4578063c19d93fb1461030457600080fd5b80632348238c1461017457806366d602ae14610196578063715018a6146101c557806388e765ff146101da57600080fd5b3661016f576040805133815260208101829052600781830152667265636569766560c81b606082015290517fd00ca3f088120b3d909c3a9e01be91e94a2b001aed9c25fe751c3c7a72dc49bf9181900360800190a1005b600080fd5b34801561018057600080fd5b5061019461018f366004613007565b610432565b005b3480156101a257600080fd5b506101ab6104c7565b604080519283526020830191909152015b60405180910390f35b3480156101d157600080fd5b506101946104db565b3480156101e657600080fd5b506101ab610507565b3480156101fb57600080fd5b50610240600c54600d54600f546010546011546012546013546017546001600160a01b039788169897871697600160a81b90970460ff169661ffff9586169590921691565b604080516001600160a01b039a8b1681529990981660208a015260ff90961696880196909652606087019390935261ffff918216608087015260a086015260c085019190915290911660e0830152610100820152610120016101bc565b3480156102a957600080fd5b506000546001600160a01b03165b6040516001600160a01b0390911681526020016101bc565b3480156102db57600080fd5b50610194610513565b3480156102f057600080fd5b506101946102ff366004613024565b6106a1565b34801561031057600080fd5b5061031961071d565b6040516101bc96959493929190613075565b61033e6103393660046130f2565b61075e565b6040516101bc9291906131ce565b34801561035857600080fd5b506102b7610bed565b34801561036d57600080fd5b506008546040519081526020016101bc565b61019461038d366004613276565b610c28565b6103a56103a036600461338d565b611087565b60405190151581526020016101bc565b6103a56103c336600461338d565b611785565b3480156103d457600080fd5b50610194611d0e565b3480156103e957600080fd5b506101946103f8366004613007565b611dd0565b34801561040957600080fd5b506102b7611e6b565b34801561041e57600080fd5b5061019461042d366004613007565b611ea6565b6000546001600160a01b031633146104655760405162461bcd60e51b815260040161045c906133af565b60405180910390fd5b6001546040516308d208e360e21b81526001600160a01b03838116600483015290911690632348238c90602401600060405180830381600087803b1580156104ac57600080fd5b505af11580156104c0573d6000803e3d6000fd5b5050505050565b6000806104d333611ef2565b915091509091565b6000546001600160a01b031633146105055760405162461bcd60e51b815260040161045c906133af565b565b6000806104d333612055565b6000546001600160a01b0316331461053d5760405162461bcd60e51b815260040161045c906133af565b610545612129565b61054d612167565b60006105576121ef565b11156105d7576016546001600160a01b0316156105ab576040516306b53bd360e11b81526020600482015260116024820152706f6e6c79206175746f206c697374696e6760781b604482015260640161045c565b60006105b561228a565b9050806105d557604051636244afcf60e11b815260040160405180910390fd5b505b6013546105f2906201000090046001600160a01b031661250a565b61060f5760405163a1b57be360e01b815260040160405180910390fd5b60135461062a906201000090046001600160a01b0316612693565b6106475760405163012e4d1960e61b815260040160405180910390fd5b6019805460ff60a01b1916600360a01b17908190556040517fc5b1926826a1a3d3516971a2579cab66ddfa770959e8c2f1d832386b262e2d8691610697913391600160a01b900460ff16906133e4565b60405180910390a1565b6000546001600160a01b031633146106cb5760405162461bcd60e51b815260040161045c906133af565b6106d3612129565b6106db612758565b601581905560408051338152602081018390527f808c9d67d9bb9dd70b931d1346a5e2b1f750fc3eeb2d9770805038ab16c3028d91015b60405180910390a150565b60008060008060008060006107306121ef565b600e54600954600a54601954601754939c929b50909950929750600160a01b90920460ff1695509350915050565b600080546060906001600160a01b0316331461078c5760405162461bcd60e51b815260040161045c906133af565b601954600160a81b900460ff16156107b65760405162461bcd60e51b815260040161045c90613401565b6019805460ff60a81b1916600160a81b1790556107d1612129565b6107d9612167565b6016546001600160a01b031661082b576040516306b53bd360e11b81526020600482015260166024820152756e6f7420616c6c6f77206175746f206c697374696e6760501b604482015260640161045c565b6016546001600160a01b0389811691161461087f576040516306b53bd360e11b815260206004820152601360248201527224b731b7b739b4b9ba32b73a103937baba32b960691b604482015260640161045c565b60055460408051630b1d00df60e41b815290516001600160a01b039092169161090691839163b1d00df0916004808201926020929091908290030181865afa1580156108cf573d6000803e3d6000fd5b505050506040513d601f19601f820116820180604052508101906108f39190613429565b6108ff8b8b8b8b61277a565b87876127dc565b156109245760405163247d106d60e11b815260040160405180910390fd5b600061092e61228a565b90508061094e57604051636244afcf60e11b815260040160405180910390fd5b60006109586121ef565b600d5490915060009061098e9061097a90600160a81b900460ff16600a613540565b60175461098890859061283b565b90612847565b6002546019546040516370a0823160e01b81526001600160a01b03918216600482015292935016906370a0823190602401602060405180830381865afa1580156109dc573d6000803e3d6000fd5b505050506040513d601f19601f82011682018060405250810190610a00919061354f565b811115610a3d57604051638c2f4c6b60e01b815260206004820152600a60248201526939b2b636103a37b5b2b760b11b604482015260640161045c565b3660008b8b91509150600160009054906101000a90046001600160a01b03166001600160a01b031663e5a4dbf88f600260009054906101000a90046001600160a01b0316600360009054906101000a90046001600160a01b031687898888600c60010160169054906101000a900460ff166040518963ffffffff1660e01b8152600401610ad1989796959493929190613591565b6000604051808303816000875af1158015610af0573d6000803e3d6000fd5b505050506040513d6000823e601f3d908101601f19168201604052610b1891908101906135eb565b909850965087610b3b57604051637a4c140d60e11b815260040160405180910390fd5b601354610b56906201000090046001600160a01b0316612693565b610b735760405163012e4d1960e61b815260040160405180910390fd5b6019805460ff60a01b1916600360a01b17908190556040517fab3f2147088482db1a84b21889cc70b0e5ac5a0a34b9217f12cfc1861a9c3cef91610bc5913391600160a01b900460ff16908b906136ae565b60405180910390a15050505050506019805460ff60a81b191690559097909650945050505050565b600080546001600160a01b03163314610c185760405162461bcd60e51b815260040161045c906133af565b506001546001600160a01b031690565b6000546001600160a01b03163314610c525760405162461bcd60e51b815260040161045c906133af565b6001546001600160a01b031615610c9f5760405162461bcd60e51b815260206004820152601160248201527053746f7265206973206e6f74207a65726f60781b604482015260640161045c565b604051610cab90612fd5565b604051809103906000f080158015610cc7573d6000803e3d6000fd5b50600180546001600160a01b03199081166001600160a01b039384169081179092556019805482169092179091558251600c805483169184169190911790556020830151600d80546040860151606087015160808801519487166001600160a81b031990931692909217600160a01b60ff928316021761ffff60a81b1916600160a81b919092160260ff60b01b191617600160b01b9215159290920291909117905560a0830151600e5560c0830151600f5560e08301516010805461010086015161ffff93841663ffffffff19909216919091176201000091841682021790915561012085015160115561014085015160125561016085015160138054610180880151929094166001600160b01b0319909416939093179085169091021790556101a08301516014556101c08301516015556101e0830151601680549092169216919091179055610200810151601755610e1f612853565b6019805460ff60a01b1916600160a01b836004811115610e4157610e4161303d565b0217905550600c54600280546001600160a01b0319166001600160a01b0390921691821790556040805163313ce56760e01b8152905163313ce567916004808201926020929091908290030181865afa158015610ea2573d6000803e3d6000fd5b505050506040513d601f19601f82011682018060405250810190610ec691906136dd565b600d805460ff92909216600160a01b0260ff60a01b1983168117909155600c546001600160a01b0391821692821692909217911603610f1857600d805461ffff60a81b1916608960a91b179055610fc4565b600d805460ff60b01b198116909155600380546001600160a01b0319166001600160a01b0390921691821790556040805163313ce56760e01b8152905163313ce567916004808201926020929091908290030181865afa158015610f80573d6000803e3d6000fd5b505050506040513d601f19601f82011682018060405250810190610fa491906136dd565b600d805460ff92909216600160a81b0260ff60a81b199092169190911790555b600e54610fd290600061287b565b6007819055600b819055600d54611029925061102390610ffd90600160a81b900460ff16600a613540565b601754601054600e546109889261271092849261101d9161ffff1661283b565b9061283b565b906128ff565b6008557fa81af9f26c34c6997396d1d61be10b4cd9843035f372979270c7049cf0325b8a61105f6000546001600160a01b031690565b60055460065460075460405161071294936001600160a01b0390811693169190600c906136fa565b6000611091612129565b61109961290b565b601954600160a81b900460ff16156110c35760405162461bcd60e51b815260040161045c90613401565b6019805460ff60a81b1916600160a81b1790556110e0838361292e565b60125483101561110357604051636226a2a560e01b815260040160405180910390fd5b61110d3384612982565b61112a576040516311b5c73d60e21b815260040160405180910390fd5b6002546019546040516370a0823160e01b81526001600160a01b039182166004820152849291909116906370a0823190602401602060405180830381865afa15801561117a573d6000803e3d6000fd5b505050506040513d601f19601f8201168201806040525081019061119e919061354f565b10156111bd57604051638c2f4c6b60e01b815260040161045c90613816565b60006111c88461299a565b600d54909150600160b01b900460ff1615611320578334146112255760405162461bcd60e51b81526020600482015260166024820152751b5cd9cb9d985b1d59481a5cc81b9bdd081d985b1a5960521b604482015260640161045c565b6019546040516000916001600160a01b03169083908381818185875af1925050503d8060008114611272576040519150601f19603f3d011682016040523d82523d6000602084013e611277565b606091505b505090508061129957604051633e75f72760e11b815260040161045c90613834565b6013546201000090046001600160a01b03166112b534846129bc565b604051600081818185875af1925050503d80600081146112f1576040519150601f19603f3d011682016040523d82523d6000602084013e6112f6565b606091505b5050809150508061131a57604051633e75f72760e11b815260040161045c90613834565b50611587565b600354601854604051636eb1769f60e11b81523360048201526001600160a01b0391821660248201528692919091169063dd62ed3e90604401602060405180830381865afa158015611376573d6000803e3d6000fd5b505050506040513d601f19601f8201168201806040525081019061139a919061354f565b10156113b957604051630b29193560e31b815260040161045c90613834565b6003546040516370a0823160e01b815233600482015285916001600160a01b0316906370a0823190602401602060405180830381865afa158015611401573d6000803e3d6000fd5b505050506040513d601f19601f82011682018060405250810190611425919061354f565b101561144457604051638c2f4c6b60e01b815260040161045c90613834565b6003546019546040516323b872dd60e01b81526001600160a01b03928316926323b872dd9261147d923392909116908690600401613851565b6020604051808303816000875af115801561149c573d6000803e3d6000fd5b505050506040513d601f19601f820116820180604052508101906114c09190613875565b6114dd57604051633e75f72760e11b815260040161045c90613834565b6003546013546001600160a01b03918216916323b872dd913391620100009091041661150988866129bc565b6040518463ffffffff1660e01b815260040161152793929190613851565b6020604051808303816000875af1158015611546573d6000803e3d6000fd5b505050506040513d601f19601f8201168201806040525081019061156a9190613875565b61158757604051633e75f72760e11b815260040161045c90613834565b600154600254604051637aa9bf6f60e11b81526001600160a01b039283169263f5537ede926115bf9291169033908890600401613851565b6020604051808303816000875af11580156115de573d6000803e3d6000fd5b505050506040513d601f19601f820116820180604052508101906116029190613875565b61161f57604051633e75f72760e11b815260040161045c90613816565b60095461162c90856128ff565b600955600b5461163c90846129bc565b600b55600a5461164c90826128ff565b600a55600154604051636aa05ee360e01b815233600482015260248101869052604481018590526001600160a01b0390911690636aa05ee390606401600060405180830381600087803b1580156116a257600080fd5b505af11580156116b6573d6000803e3d6000fd5b50506001546040516379da956560e01b815233600482015260248101889052604481018790526001600160a01b0390911692506379da95659150606401600060405180830381600087803b15801561170d57600080fd5b505af1158015611721573d6000803e3d6000fd5b505050507f2c5cc05b9a7b53e2478a9af1c94ec079b5be7c669be3df98ad86d28237f689e7338585600954600b54600a54426040516117669796959493929190613892565b60405180910390a150506019805460ff60a81b19169055506001919050565b600061178f612129565b61179761290b565b601954600160a81b900460ff16156117c15760405162461bcd60e51b815260040161045c90613401565b6019805460ff60a81b1916600160a81b1790556117de838361292e565b6117e833836129c8565b611805576040516311b5c73d60e21b815260040160405180910390fd5b6000611810846129e0565b90508061181b6121ef565b101561183a57604051638c2f4c6b60e01b815260040161045c90613834565b600254601854604051636eb1769f60e11b81523360048201526001600160a01b0391821660248201528592919091169063dd62ed3e90604401602060405180830381865afa158015611890573d6000803e3d6000fd5b505050506040513d601f19601f820116820180604052508101906118b4919061354f565b10156118f057604051630b29193560e31b815260206004820152600a60248201526929b2b636103a37b5b2b760b11b604482015260640161045c565b6002546040516370a0823160e01b815233600482015284916001600160a01b0316906370a0823190602401602060405180830381865afa158015611938573d6000803e3d6000fd5b505050506040513d601f19601f8201168201806040525081019061195c919061354f565b101561199857604051638c2f4c6b60e01b815260206004820152600a60248201526929b2b636103a37b5b2b760b11b604482015260640161045c565b6002546019546040516323b872dd60e01b81526001600160a01b03928316926323b872dd926119d1923392909116908890600401613851565b6020604051808303816000875af11580156119f0573d6000803e3d6000fd5b505050506040513d601f19601f82011682018060405250810190611a149190613875565b611a3157604051633e75f72760e11b815260040161045c90613816565b600d54600160b01b900460ff1615611b07576019546001600160a01b031631811115611a7057604051630b29193560e31b815260040161045c906138cd565b60015460405163a9059cbb60e01b8152336004820152602481018390526001600160a01b039091169063a9059cbb906044016020604051808303816000875af1158015611ac1573d6000803e3d6000fd5b505050506040513d601f19601f82011682018060405250810190611ae59190613875565b611b0257604051633e75f72760e11b815260040161045c906138cd565b611c32565b6003546019546040516370a0823160e01b81526001600160a01b039182166004820152839291909116906370a0823190602401602060405180830381865afa158015611b57573d6000803e3d6000fd5b505050506040513d601f19601f82011682018060405250810190611b7b919061354f565b1015611b9a57604051630b29193560e31b815260040161045c906138cd565b600154600354604051637aa9bf6f60e11b81526001600160a01b039283169263f5537ede92611bd29291169033908690600401613851565b6020604051808303816000875af1158015611bf1573d6000803e3d6000fd5b505050506040513d601f19601f82011682018060405250810190611c159190613875565b611c3257604051633e75f72760e11b815260040161045c906138cd565b600954611c3f90856129bc565b600955600b54611c4f90846128ff565b600b55600a54611c5f90826129bc565b600a5560015460405163e32fca3f60e01b815233600482015260248101869052604481018590526001600160a01b039091169063e32fca3f90606401600060405180830381600087803b158015611cb557600080fd5b505af1158015611cc9573d6000803e3d6000fd5b505050507fe771a8c700d0802cd276270eb0596a1aead6f28237a9e5f26e00ccf08dad7033338585600954600b54600a54426040516117669796959493929190613892565b6000546001600160a01b03163314611d385760405162461bcd60e51b815260040161045c906133af565b611d40612129565b611d48612a13565b601354611d63906201000090046001600160a01b0316612693565b611d805760405163012e4d1960e61b815260040160405180910390fd5b6019805460ff60a01b1916600160a21b17908190556040517fcd8e02743d921fb9bca767936271b8b93911716c78c1d46c2c6ee6189309d30c91610697913391600160a01b900460ff16906133e4565b6000546001600160a01b03163314611dfa5760405162461bcd60e51b815260040161045c906133af565b6001600160a01b038116611e5f5760405162461bcd60e51b815260206004820152602660248201527f4f776e61626c653a206e6577206f776e657220697320746865207a65726f206160448201526564647265737360d01b606482015260840161045c565b611e6881612a35565b50565b600080546001600160a01b03163314611e965760405162461bcd60e51b815260040161045c906133af565b506019546001600160a01b031690565b6000546001600160a01b03163314611ed05760405162461bcd60e51b815260040161045c906133af565b600180546001600160a01b0319166001600160a01b0392909216919091179055565b600154604051631d76db5b60e31b81526001600160a01b038381166004830152600092839283929091169063ebb6dad8906024016040805180830381865afa158015611f42573d6000803e3d6000fd5b505050506040513d601f19601f82011682018060405250810190611f6691906138f0565b60015460405163f5a7976760e01b81526001600160a01b0388811660048301529294506000935091169063f5a79767906024016040805180830381865afa158015611fb5573d6000803e3d6000fd5b505050506040513d601f19601f82011682018060405250810190611fd991906138f0565b601354909250600091506120209061201a90859061201490612710906120039061ffff1684613914565b61200d919061392b565b86906128ff565b906129bc565b83612a85565b90506000612031600a54600061287b565b91505061204860006120438484612a85565b61287b565b9550955050505050915091565b60015460405163f5a7976760e01b81526001600160a01b038381166004830152600092839283929091169063f5a79767906024016040805180830381865afa1580156120a5573d6000803e3d6000fd5b505050506040513d601f19601f820116820180604052508101906120c991906138f0565b506011549091506000906120f5906120e190846129bc565b600954600e546120f0916129bc565b612a85565b905060006121066000600b5461287b565b50905061211d6121168383612a85565b600061287b565b94509450505050915091565b6004601954600160a01b900460ff1660048111156121495761214961303d565b0361050557604051631afb0ae560e01b815260040160405180910390fd5b60155442118061217b5750600e5460095410155b6121b15760405162461bcd60e51b81526020600482015260076024820152664552523a204e4560c81b604482015260640161045c565b6003601954600160a01b900460ff1660048111156121d1576121d161303d565b0361050557604051631a48f37b60e21b815260040160405180910390fd5b600d54600090600160b01b900460ff161561221557506019546001600160a01b03163190565b6003546019546040516370a0823160e01b81526001600160a01b0391821660048201529116906370a0823190602401602060405180830381865afa158015612261573d6000803e3d6000fd5b505050506040513d601f19601f82011682018060405250810190612285919061354f565b905090565b60008061231a612710610988600460009054906101000a90046001600160a01b03166001600160a01b031663ddca3f436040518163ffffffff1660e01b8152600401602060405180830381865afa1580156122e9573d6000803e3d6000fd5b505050506040513d601f19601f8201168201806040525081019061230d919061394d565b62ffffff1661101d6121ef565b600d54909150600090600160b01b900460ff1615612422576001546004805460408051622fcfcb60e31b815290516001600160a01b039485169463a9059cbb9493169263017e7e58928082019260209290918290030181865afa158015612385573d6000803e3d6000fd5b505050506040513d601f19601f820116820180604052508101906123a99190613429565b6040516001600160e01b031960e084901b1681526001600160a01b039091166004820152602481018590526044015b6020604051808303816000875af11580156123f7573d6000803e3d6000fd5b505050506040513d601f19601f8201168201806040525081019061241b9190613875565b9050612504565b6001546003546004805460408051622fcfcb60e31b815290516001600160a01b039586169563f5537ede9581169493169263017e7e58928082019260209290918290030181865afa15801561247b573d6000803e3d6000fd5b505050506040513d601f19601f8201168201806040525081019061249f9190613429565b856040518463ffffffff1660e01b81526004016124be93929190613851565b6020604051808303816000875af11580156124dd573d6000803e3d6000fd5b505050506040513d601f19601f820116820180604052508101906125019190613875565b90505b92915050565b600d54600090600190600160b01b900460ff1615612576576019546001600160a01b031631156125715760015460195460405163a9059cbb60e01b81526001600160a01b03868116600483015291821631602482015291169063a9059cbb906044016123d8565b612504565b6003546019546040516370a0823160e01b81526001600160a01b03918216600482015260009291909116906370a0823190602401602060405180830381865afa1580156125c7573d6000803e3d6000fd5b505050506040513d601f19601f820116820180604052508101906125eb919061354f565b1115612504576001546003546019546040516370a0823160e01b81526001600160a01b0391821660048201529281169263f5537ede929190911690869082906370a08231906024015b602060405180830381865afa158015612651573d6000803e3d6000fd5b505050506040513d601f19601f82011682018060405250810190612675919061354f565b6040518463ffffffff1660e01b81526004016124be93929190613851565b6002546019546040516370a0823160e01b81526001600160a01b03918216600482015260009260019284929116906370a0823190602401602060405180830381865afa1580156126e7573d6000803e3d6000fd5b505050506040513d601f19601f8201168201806040525081019061270b919061354f565b1115612504576001546002546019546040516370a0823160e01b81526001600160a01b0391821660048201529281169263f5537ede929190911690869082906370a0823190602401612634565b601554421115610505576040516265dca760e51b815260040160405180910390fd5b60006127d37f08523daf28ee17754671f39f9958942c4717267760901eea3e6ffd35005a72ea858786866040516020016127b8959493929190613972565b60405160208183030381529060405280519060200120612a9b565b95945050505050565b6000846001600160a01b03166128288585858080601f016020809104026020016040519081016040528093929190818152602001838380828437600092019190915250612ae992505050565b6001600160a01b03161495945050505050565b60006125018284613914565b6000612501828461392b565b6014546000904210156128665750600190565b60155442116128755750600290565b50600390565b60008083156128ba57600d546128b3906128a090600160a81b900460ff16600a613540565b6109886128ac600f5490565b879061283b565b92506128f2565b82156128f2576128ef6128cc600f5490565b600d54610988906128e890600160a81b900460ff16600a613540565b869061283b565b93505b50829050815b9250929050565b600061250182846139ab565b60145442101561275857604051636f312cbd60e01b815260040160405180910390fd5b811580612939575080155b1561295757604051631f2a200560e01b815260040160405180910390fd5b6129618282612b0d565b61297e5760405163640dea9d60e11b815260040160405180910390fd5b5050565b60008061298e84612055565b50909211159392505050565b601054600090612710906129b29061ffff1684613914565b612504919061392b565b600061250182846139be565b6000806129d484611ef2565b90931115949350505050565b6010546000906125049061271090612a029062010000900461ffff1685613914565b612a0c919061392b565b83906129bc565b60145442106105055760405163fc505be960e01b815260040160405180910390fd5b600080546001600160a01b038381166001600160a01b0319831681178455604051919092169283917f8be0079c531659141344cd1fd0a4f28419497f9722a3daafe3b4186f6b6457e09190a35050565b6000818310612a945781612501565b5090919050565b6000612504612aa8612b56565b8360405161190160f01b6020820152602281018390526042810182905260009060620160405160208183030381529060405280519060200120905092915050565b6000806000612af88585612c44565b91509150612b0581612caf565b509392505050565b600080612b1b84600061287b565b9150506000612b2b60008561287b565b50905084811480612b3b57508382145b15612b4b57600192505050612504565b506000949350505050565b6000306001600160a01b037f000000000000000000000000000000000000000000000000000000000000000016148015612baf57507f000000000000000000000000000000000000000000000000000000000000000046145b15612bd957507f000000000000000000000000000000000000000000000000000000000000000090565b6122857f00000000000000000000000000000000000000000000000000000000000000007f00000000000000000000000000000000000000000000000000000000000000007f0000000000000000000000000000000000000000000000000000000000000000612e65565b6000808251604103612c7a5760208301516040840151606085015160001a612c6e87828585612eaf565b945094505050506128f8565b8251604003612ca35760208301516040840151612c98868383612f9c565b9350935050506128f8565b506000905060026128f8565b6000816004811115612cc357612cc361303d565b03612ccb5750565b6001816004811115612cdf57612cdf61303d565b03612d2c5760405162461bcd60e51b815260206004820152601860248201527f45434453413a20696e76616c6964207369676e61747572650000000000000000604482015260640161045c565b6002816004811115612d4057612d4061303d565b03612d8d5760405162461bcd60e51b815260206004820152601f60248201527f45434453413a20696e76616c6964207369676e6174757265206c656e67746800604482015260640161045c565b6003816004811115612da157612da161303d565b03612df95760405162461bcd60e51b815260206004820152602260248201527f45434453413a20696e76616c6964207369676e6174757265202773272076616c604482015261756560f01b606482015260840161045c565b6004816004811115612e0d57612e0d61303d565b03611e685760405162461bcd60e51b815260206004820152602260248201527f45434453413a20696e76616c6964207369676e6174757265202776272076616c604482015261756560f01b606482015260840161045c565b6040805160208101859052908101839052606081018290524660808201523060a082015260009060c0016040516020818303038152906040528051906020012090505b9392505050565b6000807f7fffffffffffffffffffffffffffffff5d576e7357a4501ddfe92f46681b20a0831115612ee65750600090506003612f93565b8460ff16601b14158015612efe57508460ff16601c14155b15612f0f5750600090506004612f93565b6040805160008082526020820180845289905260ff881692820192909252606081018690526080810185905260019060a0016020604051602081039080840390855afa158015612f63573d6000803e3d6000fd5b5050604051601f1901519150506001600160a01b038116612f8c57600060019250925050612f93565b9150600090505b94509492505050565b6000806001600160ff1b03831681612fb960ff86901c601b6139ab565b9050612fc787828885612eaf565b935093505050935093915050565b610ec6806139d283390190565b6001600160a01b0381168114611e6857600080fd5b803561300281612fe2565b919050565b60006020828403121561301957600080fd5b8135612ea881612fe2565b60006020828403121561303657600080fd5b5035919050565b634e487b7160e01b600052602160045260246000fd5b6005811061307157634e487b7160e01b600052602160045260246000fd5b9052565b600060c08201905087825286602083015285604083015284606083015261309f6080830185613053565b8260a0830152979650505050505050565b60008083601f8401126130c257600080fd5b50813567ffffffffffffffff8111156130da57600080fd5b6020830191508360208285010111156128f857600080fd5b6000806000806000806080878903121561310b57600080fd5b863561311681612fe2565b955060208701359450604087013567ffffffffffffffff8082111561313a57600080fd5b6131468a838b016130b0565b9096509450606089013591508082111561315f57600080fd5b5061316c89828a016130b0565b979a9699509497509295939492505050565b60005b83811015613199578181015183820152602001613181565b50506000910152565b600081518084526131ba81602086016020860161317e565b601f01601f19169290920160200192915050565b82151581526040602082015260006131e960408301846131a2565b949350505050565b634e487b7160e01b600052604160045260246000fd5b604051610220810167ffffffffffffffff8111828210171561322b5761322b6131f1565b60405290565b60ff81168114611e6857600080fd5b803561300281613231565b8015158114611e6857600080fd5b80356130028161324b565b803561ffff8116811461300257600080fd5b6000610220828403121561328957600080fd5b613291613207565b61329a83612ff7565b81526132a860208401612ff7565b60208201526132b960408401613240565b60408201526132ca60608401613240565b60608201526132db60808401613259565b608082015260a083013560a082015260c083013560c082015261330060e08401613264565b60e0820152610100613313818501613264565b908201526101208381013590820152610140808401359082015261016061333b818501613264565b9082015261018061334d848201612ff7565b908201526101a083810135908201526101c080840135908201526101e0613375818501612ff7565b90820152610200928301359281019290925250919050565b600080604083850312156133a057600080fd5b50508035926020909101359150565b6020808252818101527f4f776e61626c653a2063616c6c6572206973206e6f7420746865206f776e6572604082015260600190565b6001600160a01b038316815260408101612ea86020830184613053565b6020808252600e908201526d4e6f2072652d656e7472616e637960901b604082015260600190565b60006020828403121561343b57600080fd5b8151612ea881612fe2565b634e487b7160e01b600052601160045260246000fd5b600181815b8085111561349757816000190482111561347d5761347d613446565b8085161561348a57918102915b93841c9390800290613461565b509250929050565b6000826134ae57506001612504565b816134bb57506000612504565b81600181146134d157600281146134db576134f7565b6001915050612504565b60ff8411156134ec576134ec613446565b50506001821b612504565b5060208310610133831016604e8410600b841016171561351a575081810a612504565b613524838361345c565b806000190482111561353857613538613446565b029392505050565b600061250160ff84168361349f565b60006020828403121561356157600080fd5b5051919050565b81835281816020850137506000828201602090810191909152601f909101601f19169091010190565b6001600160a01b038981168252888116602083015287166040820152606081018690526080810185905260e060a082018190526000906135d49083018587613568565b905082151560c08301529998505050505050505050565b600080604083850312156135fe57600080fd5b82516136098161324b565b602084015190925067ffffffffffffffff8082111561362757600080fd5b818501915085601f83011261363b57600080fd5b81518181111561364d5761364d6131f1565b604051601f8201601f19908116603f01168101908382118183101715613675576136756131f1565b8160405282815288602084870101111561368e57600080fd5b61369f83602083016020880161317e565b80955050505050509250929050565b6001600160a01b03841681526136c76020820184613053565b6060604082015260006127d360608301846131a2565b6000602082840312156136ef57600080fd5b8151612ea881613231565b6001600160a01b03868116825285811660208301528481166040830152606082018490528254811660808301526102a082019060018401546001600160a01b038282161660a085015260a081901c60ff1660c085015260a881901c60ff1660e0850152613772610100850160ff8360b01c1615159052565b5060028401546101208401526003840154610140840152600484015461ffff808216610160860152601091821c811661018086015260058601546101a086015260068601546101c086015260078601549081166101e0860152901c166001600160a01b0390811661020084015260088401546102208401526009840154610240840152600a84015416610260830152600b9092015461028090910152949350505050565b60208082526004908201526314d95b1b60e21b604082015260600190565b60208082526003908201526242757960e81b604082015260600190565b6001600160a01b039384168152919092166020820152604081019190915260600190565b60006020828403121561388757600080fd5b8151612ea88161324b565b6001600160a01b03979097168752602087019590955260408601939093526060850191909152608084015260a083015260c082015260e00190565b602080825260099082015268213abc903a37b5b2b760b91b604082015260600190565b6000806040838503121561390357600080fd5b505080516020909101519092909150565b808202811582820484141761250457612504613446565b60008261394857634e487b7160e01b600052601260045260246000fd5b500490565b60006020828403121561395f57600080fd5b815162ffffff81168114612ea857600080fd5b85815284602082015260018060a01b03841660408201526080606082015260006139a0608083018486613568565b979650505050505050565b8082018082111561250457612504613446565b818103818111156125045761250461344656fe608060405234801561001057600080fd5b50600080546001600160a01b0319163390811790915560408051918252517f4101e71e974f68df5e9730cc223280b41654676bbb052cdcc735c3337e64d2d99181900360200190a1610e5f806100676000396000f3fe6080604052600436106100ab5760003560e01c8063da3e339711610064578063da3e3397146101e6578063e32fca3f14610206578063e5a4dbf814610226578063ebb6dad814610254578063f5537ede14610289578063f5a79767146102a957600080fd5b80632348238c146101075780636aa05ee31461012957806379da956514610149578063a2ba266b14610169578063a9059cbb14610189578063c6dbdf61146101be57600080fd5b36610102576040805133815260208101829052600781830152667265636569766560c81b606082015290517fd00ca3f088120b3d909c3a9e01be91e94a2b001aed9c25fe751c3c7a72dc49bf9181900360800190a1005b600080fd5b34801561011357600080fd5b50610127610122366004610b71565b6102c9565b005b34801561013557600080fd5b50610127610144366004610b8e565b6103c2565b34801561015557600080fd5b50610127610164366004610b8e565b610467565b34801561017557600080fd5b50610127610184366004610b8e565b61050a565b34801561019557600080fd5b506101a96101a4366004610bc3565b61058a565b60405190151581526020015b60405180910390f35b3480156101ca57600080fd5b506000546040516001600160a01b0390911681526020016101b5565b3480156101f257600080fd5b506101a9610201366004610bef565b61061d565b34801561021257600080fd5b50610127610221366004610b8e565b6106cd565b34801561023257600080fd5b50610246610241366004610c4e565b61074c565b6040516101b5929190610d1c565b34801561026057600080fd5b5061027461026f366004610b71565b610a1b565b604080519283526020830191909152016101b5565b34801561029557600080fd5b506101a96102a4366004610bef565b610a76565b3480156102b557600080fd5b506102746102c4366004610b71565b610adf565b6000546001600160a01b0316336001600160a01b0316146103055760405162461bcd60e51b81526004016102fc90610d74565b60405180910390fd5b6001600160a01b03811661036e5760405162461bcd60e51b815260206004820152602a60248201527f5365636f6e646172793a206e6577207072696d61727920697320746865207a65604482015269726f206164647265737360b01b60648201526084016102fc565b600080546001600160a01b0319166001600160a01b0383169081179091556040519081527f4101e71e974f68df5e9730cc223280b41654676bbb052cdcc735c3337e64d2d99060200160405180910390a150565b6000546001600160a01b0316336001600160a01b0316146103f55760405162461bcd60e51b81526004016102fc90610d74565b6001600160a01b0383166000908152600160205260409020546104189083610b3a565b6001600160a01b038416600090815260016020819052604090912091825501546104429082610b3a565b6001600160a01b03909316600090815260016020819052604090912001929092555050565b6000546001600160a01b0316336001600160a01b03161461049a5760405162461bcd60e51b81526004016102fc90610d74565b6001600160a01b0383166000908152600260205260409020546104bd9083610b3a565b6001600160a01b0384166000908152600260205260409020908155600101546104e69082610b3a565b6001600160a01b039093166000908152600260205260409020600101929092555050565b6000546001600160a01b0316336001600160a01b03161461053d5760405162461bcd60e51b81526004016102fc90610d74565b6001600160a01b0383166000908152600160205260409020546105609083610b4d565b6001600160a01b038416600090815260016020819052604090912091825501546104429082610b4d565b600080546001600160a01b0316336001600160a01b0316146105be5760405162461bcd60e51b81526004016102fc90610d74565b6000836001600160a01b03168360405160006040518083038185875af1925050503d806000811461060b576040519150601f19603f3d011682016040523d82523d6000602084013e610610565b606091505b5090925050505b92915050565b600080546001600160a01b0316336001600160a01b0316146106515760405162461bcd60e51b81526004016102fc90610d74565b60405163095ea7b360e01b81526001600160a01b0384811660048301526024820184905285169063095ea7b3906044015b6020604051808303816000875af11580156106a1573d6000803e3d6000fd5b505050506040513d601f19601f820116820180604052508101906106c59190610dc0565b949350505050565b6000546001600160a01b0316336001600160a01b0316146107005760405162461bcd60e51b81526004016102fc90610d74565b6001600160a01b0383166000908152600260205260409020546107239083610b4d565b6001600160a01b0384166000908152600260205260409020908155600101546104e69082610b4d565b600080546060906001600160a01b0316336001600160a01b0316146107835760405162461bcd60e51b81526004016102fc90610d74565b60405163095ea7b360e01b81526001600160a01b038b8116600483015260248201899052600091908b169063095ea7b3906044016020604051808303816000875af11580156107d6573d6000803e3d6000fd5b505050506040513d601f19601f820116820180604052508101906107fa9190610dc0565b9050806108545760405162461bcd60e51b815260206004820152602260248201527f417070726f76652073656c6c20746f6b656e20746f20726f757465722065727260448201526137b960f11b60648201526084016102fc565b83156108c2578a6001600160a01b0316878787604051610875929190610ddd565b60006040518083038185875af1925050503d80600081146108b2576040519150601f19603f3d011682016040523d82523d6000602084013e6108b7565b606091505b509093509150610a0d565b60405163095ea7b360e01b81526001600160a01b038c81166004830152602482018990528a169063095ea7b3906044016020604051808303816000875af1158015610911573d6000803e3d6000fd5b505050506040513d601f19601f820116820180604052508101906109359190610dc0565b9050806109aa5760405162461bcd60e51b815260206004820152603b60248201527f416e206572726f72206f63637572726564207768696c652073656e64696e672060448201527f7468652062757920746f6b656e20746f2074686520726f75746572000000000060648201526084016102fc565b8a6001600160a01b031686866040516109c4929190610ddd565b6000604051808303816000865af19150503d8060008114610a01576040519150601f19603f3d011682016040523d82523d6000602084013e610a06565b606091505b5090935091505b509850989650505050505050565b6000805481906001600160a01b0316336001600160a01b031614610a515760405162461bcd60e51b81526004016102fc90610d74565b50506001600160a01b0316600090815260016020819052604090912080549101549091565b600080546001600160a01b0316336001600160a01b031614610aaa5760405162461bcd60e51b81526004016102fc90610d74565b60405163a9059cbb60e01b81526001600160a01b0384811660048301526024820184905285169063a9059cbb90604401610682565b6000805481906001600160a01b0316336001600160a01b031614610b155760405162461bcd60e51b81526004016102fc90610d74565b50506001600160a01b0316600090815260026020526040902080546001909101549091565b6000610b468284610e03565b9392505050565b6000610b468284610e16565b6001600160a01b0381168114610b6e57600080fd5b50565b600060208284031215610b8357600080fd5b8135610b4681610b59565b600080600060608486031215610ba357600080fd5b8335610bae81610b59565b95602085013595506040909401359392505050565b60008060408385031215610bd657600080fd5b8235610be181610b59565b946020939093013593505050565b600080600060608486031215610c0457600080fd5b8335610c0f81610b59565b92506020840135610c1f81610b59565b929592945050506040919091013590565b8015158114610b6e57600080fd5b8035610c4981610c30565b919050565b60008060008060008060008060e0898b031215610c6a57600080fd5b8835610c7581610b59565b97506020890135610c8581610b59565b96506040890135610c9581610b59565b9550606089013594506080890135935060a089013567ffffffffffffffff80821115610cc057600080fd5b818b0191508b601f830112610cd457600080fd5b813581811115610ce357600080fd5b8c6020828501011115610cf557600080fd5b602083019550809450505050610d0d60c08a01610c3e565b90509295985092959890939650565b821515815260006020604081840152835180604085015260005b81811015610d5257858101830151858201606001528201610d36565b506000606082860101526060601f19601f830116850101925050509392505050565b6020808252602c908201527f5365636f6e646172793a2063616c6c6572206973206e6f74207468652070726960408201526b1b585c9e481858d8dbdd5b9d60a21b606082015260800190565b600060208284031215610dd257600080fd5b8151610b4681610c30565b8183823760009101908152919050565b634e487b7160e01b600052601160045260246000fd5b8082018082111561061757610617610ded565b8181038181111561061757610617610ded56fea26469706673582212201bbf263b62dcd4e0466d9b00e698276476e3b3b04503310c32b01134a5a4f31964736f6c63430008120033a2646970667358221220487bc9ae64882ec834dc015003e210e83fd4becc8bcdcfe4ca6631ec35541c5764736f6c63430008120033a264697066735822122035235ee9b7b3b3e40e94275589a8d8fef2a2c76850a76a0871643b5302acecd564736f6c63430008120033608060405234801561001057600080fd5b50600080546001600160a01b0319163390811790915560408051918252517f4101e71e974f68df5e9730cc223280b41654676bbb052cdcc735c3337e64d2d99181900360200190a1610458806100676000396000f3fe608060405234801561001057600080fd5b50600436106100575760003560e01c80632348238c1461005c57806389b09de714610071578063c2bc80fd14610084578063c6dbdf61146100a2578063fc91a897146100bd575b600080fd5b61006f61006a366004610359565b6100e0565b005b61006f61007f366004610359565b6101d9565b61008c610270565b6040516100999190610389565b60405180910390f35b6000546040516001600160a01b039091168152602001610099565b6100d06100cb366004610359565b610306565b6040519015158152602001610099565b6000546001600160a01b0316336001600160a01b03161461011c5760405162461bcd60e51b8152600401610113906103d6565b60405180910390fd5b6001600160a01b0381166101855760405162461bcd60e51b815260206004820152602a60248201527f5365636f6e646172793a206e6577207072696d61727920697320746865207a65604482015269726f206164647265737360b01b6064820152608401610113565b600080546001600160a01b0319166001600160a01b0383169081179091556040519081527f4101e71e974f68df5e9730cc223280b41654676bbb052cdcc735c3337e64d2d99060200160405180910390a150565b6000546001600160a01b0316336001600160a01b03161461020c5760405162461bcd60e51b8152600401610113906103d6565b6001805480820182557fb10e2d527612073b26eecdfd717e6a320cf44b4afac2b0732d9fcbe2b7fa0cf60180546001600160a01b039093166001600160a01b031990931683179055600091825260026020526040909120805460ff19169091179055565b6000546060906001600160a01b0316336001600160a01b0316146102a65760405162461bcd60e51b8152600401610113906103d6565b60018054806020026020016040519081016040528092919081815260200182805480156102fc57602002820191906000526020600020905b81546001600160a01b031681526001909101906020018083116102de575b5050505050905090565b600080546001600160a01b0316336001600160a01b03161461033a5760405162461bcd60e51b8152600401610113906103d6565b506001600160a01b031660009081526002602052604090205460ff1690565b60006020828403121561036b57600080fd5b81356001600160a01b038116811461038257600080fd5b9392505050565b6020808252825182820181905260009190848201906040850190845b818110156103ca5783516001600160a01b0316835292840192918401916001016103a5565b50909695505050505050565b6020808252602c908201527f5365636f6e646172793a2063616c6c6572206973206e6f74207468652070726960408201526b1b585c9e481858d8dbdd5b9d60a21b60608201526080019056fea2646970667358221220966553de967a178386abe824c201884392773bd9c7f9833e8c3d08448a4afa2564736f6c63430008120033608060405234801561001057600080fd5b5061001a3361001f565b61006f565b600080546001600160a01b038381166001600160a01b0319831681178455604051919092169283917f8be0079c531659141344cd1fd0a4f28419497f9722a3daafe3b4186f6b6457e09190a35050565b6104d18061007e6000396000f3fe608060405234801561001057600080fd5b50600436106100625760003560e01c80633af32abf14610067578063715018a6146100a85780638ab1d681146100b25780638da5cb5b146100c5578063e43252d7146100e0578063f2fde38b146100f3575b600080fd5b610093610075366004610436565b6001600160a01b031660009081526001602052604090205460ff1690565b60405190151581526020015b60405180910390f35b6100b0610106565b005b6100b06100c0366004610436565b610145565b6000546040516001600160a01b03909116815260200161009f565b6100b06100ee366004610436565b610220565b6100b0610101366004610436565b61034b565b6000546001600160a01b031633146101395760405162461bcd60e51b815260040161013090610466565b60405180910390fd5b61014360006103e6565b565b6000546001600160a01b0316331461016f5760405162461bcd60e51b815260040161013090610466565b6001600160a01b03811660009081526001602052604090205460ff166101d75760405162461bcd60e51b815260206004820152601b60248201527f41646472657373206973206e6f742077686974656c69737465642e00000000006044820152606401610130565b6001600160a01b038116600081815260016020526040808220805460ff19169055517f24a12366c02e13fe4a9e03d86a8952e85bb74a456c16e4a18b6d8295700b74bb9190a250565b6000546001600160a01b0316331461024a5760405162461bcd60e51b815260040161013090610466565b6001600160a01b0381166102935760405162461bcd60e51b815260206004820152601060248201526f24b73b30b634b21030b2323932b9b99760811b6044820152606401610130565b6001600160a01b03811660009081526001602052604090205460ff16156102fc5760405162461bcd60e51b815260206004820152601f60248201527f4164647265737320697320616c72656164792077686974656c69737465642e006044820152606401610130565b6001600160a01b0381166000818152600160208190526040808320805460ff1916909217909155517fa226db3f664042183ee0281230bba26cbf7b5057e50aee7f25a175ff45ce4d7f9190a250565b6000546001600160a01b031633146103755760405162461bcd60e51b815260040161013090610466565b6001600160a01b0381166103da5760405162461bcd60e51b815260206004820152602660248201527f4f776e61626c653a206e6577206f776e657220697320746865207a65726f206160448201526564647265737360d01b6064820152608401610130565b6103e3816103e6565b50565b600080546001600160a01b038381166001600160a01b0319831681178455604051919092169283917f8be0079c531659141344cd1fd0a4f28419497f9722a3daafe3b4186f6b6457e09190a35050565b60006020828403121561044857600080fd5b81356001600160a01b038116811461045f57600080fd5b9392505050565b6020808252818101527f4f776e61626c653a2063616c6c6572206973206e6f7420746865206f776e657260408201526060019056fea2646970667358221220a77cdf0f3d86db49028e6c901b914b09b8bac955701756e31487bed82467b8a264736f6c63430008120033",
  "linkReferences": {},
  "deployedLinkReferences": {}
}