{
	"contracts/base/Proxy.sol": {
		"Proxy": {
			"abi": [
				{
					"inputs": [],
					"stateMutability": "nonpayable",
					"type": "constructor"
				},
				{
					"anonymous": false,
					"inputs": [
						{
							"indexed": true,
							"internalType": "address",
							"name": "previousOwner",
							"type": "address"
						},
						{
							"indexed": true,
							"internalType": "address",
							"name": "newOwner",
							"type": "address"
						}
					],
					"name": "OwnershipTransferred",
					"type": "event"
				},
				{
					"anonymous": false,
					"inputs": [
						{
							"indexed": true,
							"internalType": "address",
							"name": "implementation",
							"type": "address"
						}
					],
					"name": "Upgraded",
					"type": "event"
				},
				{
					"stateMutability": "payable",
					"type": "fallback"
				},
				{
					"inputs": [
						{
							"internalType": "address",
							"name": "newImpl",
							"type": "address"
						}
					],
					"name": "_upgradeTo",
					"outputs": [],
					"stateMutability": "nonpayable",
					"type": "function"
				},
				{
					"inputs": [
						{
							"internalType": "address payable",
							"name": "receiver",
							"type": "address"
						}
					],
					"name": "suicide0",
					"outputs": [],
					"stateMutability": "nonpayable",
					"type": "function"
				},
				{
					"inputs": [
						{
							"internalType": "address",
							"name": "newOwner",
							"type": "address"
						}
					],
					"name": "transferOwnership",
					"outputs": [],
					"stateMutability": "nonpayable",
					"type": "function"
				},
				{
					"stateMutability": "payable",
					"type": "receive"
				}
			],
			"devdoc": {
				"kind": "dev",
				"methods": {},
				"version": 1
			},
			"evm": {
				"assembly": "    /* \"contracts/base/Proxy.sol\":99:1728  contract Proxy is Base... */\n  mstore(0x40, 0x80)\n    /* \"contracts/base/Proxy.sol\":289:350  constructor() Base()... */\n  callvalue\n  dup1\n  iszero\n  tag_1\n  jumpi\n  0x00\n  dup1\n  revert\ntag_1:\n  pop\n    /* \"contracts/base/Base.sol\":362:368  _owner */\n  0x00\n    /* \"contracts/base/Base.sol\":362:381  _owner = msg.sender */\n  dup1\n  sload\n  not(sub(shl(0xa0, 0x01), 0x01))\n    /* \"contracts/base/Base.sol\":371:381  msg.sender */\n  caller\n    /* \"contracts/base/Proxy.sol\":324:343  _owner = msg.sender */\n  dup2\n  dup2\n  and\n    /* \"contracts/base/Base.sol\":362:381  _owner = msg.sender */\n  swap2\n  swap1\n  swap3\n  and\n    /* \"contracts/base/Proxy.sol\":324:343  _owner = msg.sender */\n  or\n  or\n  swap1\n  sstore\n    /* \"contracts/base/Proxy.sol\":99:1728  contract Proxy is Base... */\n  dataSize(sub_0)\n  dup1\n  dataOffset(sub_0)\n  0x00\n  codecopy\n  0x00\n  return\nstop\n\nsub_0: assembly {\n        /* \"contracts/base/Proxy.sol\":99:1728  contract Proxy is Base... */\n      mstore(0x40, 0x80)\n      jumpi(tag_1, lt(calldatasize, 0x04))\n      shr(0xe0, calldataload(0x00))\n      dup1\n      0x14da447f\n      eq\n      tag_3\n      jumpi\n      dup1\n      0x34140748\n      eq\n      tag_4\n      jumpi\n      dup1\n      0xf2fde38b\n      eq\n      tag_5\n      jumpi\n      jump(tag_2)\n    tag_1:\n      jumpi(tag_2, calldatasize)\n        /* \"contracts/base/Base.sol\":498:506  revert() */\n      0x00\n      dup1\n      revert\n        /* \"contracts/base/Proxy.sol\":99:1728  contract Proxy is Base... */\n    tag_2:\n        /* \"contracts/base/Proxy.sol\":1587:1600  address _impl */\n      0x00\n        /* \"contracts/base/Proxy.sol\":1603:1620  _implementation() */\n      tag_10\n        /* \"contracts/base/Proxy.sol\":216:282  0xd5f7436adc48afaf7bd9d058121474d0b68958267edd0b25260c99ad5fb8f7e0 */\n      0xd5f7436adc48afaf7bd9d058121474d0b68958267edd0b25260c99ad5fb8f7e0\n        /* \"contracts/base/Proxy.sol\":493:504  sload(slot) */\n      sload\n      swap1\n        /* \"contracts/base/Proxy.sol\":356:520  function _implementation() internal view returns (address impl) {... */\n      jump\n        /* \"contracts/base/Proxy.sol\":1603:1620  _implementation() */\n    tag_10:\n        /* \"contracts/base/Proxy.sol\":1587:1620  address _impl = _implementation() */\n      swap1\n      pop\n      sub(shl(0xa0, 0x01), 0x01)\n        /* \"contracts/base/Proxy.sol\":1638:1657  _impl != address(0) */\n      dup2\n      and\n        /* \"contracts/base/Proxy.sol\":1630:1693  require(_impl != address(0), \"implementation contract not set\") */\n      tag_12\n      jumpi\n      mload(0x40)\n      shl(0xe5, 0x461bcd)\n      dup2\n      mstore\n        /* \"#utility.yul\":1537:1539   */\n      0x20\n        /* \"contracts/base/Proxy.sol\":1630:1693  require(_impl != address(0), \"implementation contract not set\") */\n      0x04\n      dup3\n      add\n        /* \"#utility.yul\":1519:1540   */\n      mstore\n        /* \"#utility.yul\":1576:1578   */\n      0x1f\n        /* \"#utility.yul\":1556:1574   */\n      0x24\n      dup3\n      add\n        /* \"#utility.yul\":1549:1579   */\n      mstore\n        /* \"#utility.yul\":1615:1648   */\n      0x696d706c656d656e746174696f6e20636f6e7472616374206e6f742073657400\n        /* \"#utility.yul\":1595:1613   */\n      0x44\n      dup3\n      add\n        /* \"#utility.yul\":1588:1649   */\n      mstore\n        /* \"#utility.yul\":1666:1684   */\n      0x64\n      add\n        /* \"contracts/base/Proxy.sol\":1630:1693  require(_impl != address(0), \"implementation contract not set\") */\n    tag_13:\n      mload(0x40)\n      dup1\n      swap2\n      sub\n      swap1\n      revert\n    tag_12:\n        /* \"contracts/base/Proxy.sol\":1703:1719  _delegate(_impl) */\n      tag_15\n        /* \"contracts/base/Proxy.sol\":1713:1718  _impl */\n      dup2\n        /* \"contracts/base/Proxy.sol\":1703:1712  _delegate */\n      tag_16\n        /* \"contracts/base/Proxy.sol\":1703:1719  _delegate(_impl) */\n      jump\t// in\n    tag_15:\n        /* \"contracts/base/Proxy.sol\":1577:1726  {... */\n      pop\n        /* \"contracts/base/Proxy.sol\":99:1728  contract Proxy is Base... */\n      stop\n        /* \"contracts/base/Base.sol\":1009:1115  function suicide0(address payable receiver)... */\n    tag_3:\n      callvalue\n      dup1\n      iszero\n      tag_17\n      jumpi\n      0x00\n      dup1\n      revert\n    tag_17:\n      pop\n      tag_18\n      tag_19\n      calldatasize\n      0x04\n      tag_25\n      jump\t// in\n    tag_19:\n      tag_21\n      jump\t// in\n    tag_18:\n      stop\n        /* \"contracts/base/Proxy.sol\":718:1129  function _upgradeTo(address newImpl) public isOwner {... */\n    tag_4:\n      callvalue\n      dup1\n      iszero\n      tag_22\n      jumpi\n      0x00\n      dup1\n      revert\n    tag_22:\n      pop\n      tag_18\n      tag_24\n      calldatasize\n      0x04\n      tag_25\n      jump\t// in\n    tag_24:\n      tag_26\n      jump\t// in\n        /* \"contracts/base/Base.sol\":614:810  function transferOwnership(address newOwner) public virtual isOwner {... */\n    tag_5:\n      callvalue\n      dup1\n      iszero\n      tag_27\n      jumpi\n      0x00\n      dup1\n      revert\n    tag_27:\n      pop\n      tag_18\n      tag_29\n      calldatasize\n      0x04\n      tag_25\n      jump\t// in\n    tag_29:\n      tag_30\n      jump\t// in\n        /* \"contracts/base/Proxy.sol\":1135:1534  function _delegate(address implementation) internal {... */\n    tag_16:\n        /* \"contracts/base/Proxy.sol\":1239:1253  calldatasize() */\n      calldatasize\n        /* \"contracts/base/Proxy.sol\":1236:1237  0 */\n      0x00\n        /* \"contracts/base/Proxy.sol\":1233:1234  0 */\n      dup1\n        /* \"contracts/base/Proxy.sol\":1220:1254  calldatacopy(0, 0, calldatasize()) */\n      calldatacopy\n        /* \"contracts/base/Proxy.sol\":1339:1340  0 */\n      0x00\n        /* \"contracts/base/Proxy.sol\":1336:1337  0 */\n      dup1\n        /* \"contracts/base/Proxy.sol\":1320:1334  calldatasize() */\n      calldatasize\n        /* \"contracts/base/Proxy.sol\":1317:1318  0 */\n      0x00\n        /* \"contracts/base/Proxy.sol\":1301:1315  implementation */\n      dup5\n        /* \"contracts/base/Proxy.sol\":1294:1299  gas() */\n      gas\n        /* \"contracts/base/Proxy.sol\":1281:1341  delegatecall(gas(), implementation, 0, calldatasize(), 0, 0) */\n      delegatecall\n        /* \"contracts/base/Proxy.sol\":1375:1391  returndatasize() */\n      returndatasize\n        /* \"contracts/base/Proxy.sol\":1372:1373  0 */\n      0x00\n        /* \"contracts/base/Proxy.sol\":1369:1370  0 */\n      dup1\n        /* \"contracts/base/Proxy.sol\":1354:1392  returndatacopy(0, 0, returndatasize()) */\n      returndatacopy\n        /* \"contracts/base/Proxy.sol\":1412:1418  result */\n      dup1\n        /* \"contracts/base/Proxy.sol\":1431:1467  case 0 {revert(0, returndatasize())} */\n      dup1\n      iszero\n      tag_34\n      jumpi\n        /* \"contracts/base/Proxy.sol\":1500:1516  returndatasize() */\n      returndatasize\n        /* \"contracts/base/Proxy.sol\":1497:1498  0 */\n      0x00\n        /* \"contracts/base/Proxy.sol\":1489:1517  return (0, returndatasize()) */\n      return\n        /* \"contracts/base/Proxy.sol\":1431:1467  case 0 {revert(0, returndatasize())} */\n    tag_34:\n        /* \"contracts/base/Proxy.sol\":1449:1465  returndatasize() */\n      returndatasize\n        /* \"contracts/base/Proxy.sol\":1446:1447  0 */\n      0x00\n        /* \"contracts/base/Proxy.sol\":1439:1466  revert(0, returndatasize()) */\n      revert\n        /* \"contracts/base/Base.sol\":1009:1115  function suicide0(address payable receiver)... */\n    tag_21:\n        /* \"contracts/base/Base.sol\":303:309  _owner */\n      and(sub(shl(0xa0, 0x01), 0x01), sload(0x00))\n        /* \"contracts/base/Base.sol\":289:299  msg.sender */\n      caller\n        /* \"contracts/base/Base.sol\":289:309  msg.sender == _owner */\n      eq\n        /* \"contracts/base/Base.sol\":282:310  assert(msg.sender == _owner) */\n      tag_37\n      jumpi\n      tag_37\n      tag_38\n      jump\t// in\n    tag_37:\n        /* \"contracts/base/Base.sol\":1099:1107  receiver */\n      dup1\n      sub(shl(0xa0, 0x01), 0x01)\n        /* \"contracts/base/Base.sol\":1086:1108  selfdestruct(receiver) */\n      and\n      selfdestruct\n        /* \"contracts/base/Proxy.sol\":718:1129  function _upgradeTo(address newImpl) public isOwner {... */\n    tag_26:\n        /* \"contracts/base/Base.sol\":303:309  _owner */\n      and(sub(shl(0xa0, 0x01), 0x01), sload(0x00))\n        /* \"contracts/base/Base.sol\":289:299  msg.sender */\n      caller\n        /* \"contracts/base/Base.sol\":289:309  msg.sender == _owner */\n      eq\n        /* \"contracts/base/Base.sol\":282:310  assert(msg.sender == _owner) */\n      tag_42\n      jumpi\n      tag_42\n      tag_38\n      jump\t// in\n    tag_42:\n      sub(shl(0xa0, 0x01), 0x01)\n        /* \"contracts/base/Proxy.sol\":788:809  newImpl != address(0) */\n      dup2\n      and\n        /* \"contracts/base/Proxy.sol\":780:847  require(newImpl != address(0), \"Cannot upgrade to invalid address\") */\n      tag_44\n      jumpi\n      mload(0x40)\n      shl(0xe5, 0x461bcd)\n      dup2\n      mstore\n        /* \"#utility.yul\":1135:1137   */\n      0x20\n        /* \"contracts/base/Proxy.sol\":780:847  require(newImpl != address(0), \"Cannot upgrade to invalid address\") */\n      0x04\n      dup3\n      add\n        /* \"#utility.yul\":1117:1138   */\n      mstore\n        /* \"#utility.yul\":1174:1176   */\n      0x21\n        /* \"#utility.yul\":1154:1172   */\n      0x24\n      dup3\n      add\n        /* \"#utility.yul\":1147:1177   */\n      mstore\n        /* \"#utility.yul\":1213:1247   */\n      0x43616e6e6f74207570677261646520746f20696e76616c696420616464726573\n        /* \"#utility.yul\":1193:1211   */\n      0x44\n      dup3\n      add\n        /* \"#utility.yul\":1186:1248   */\n      mstore\n      shl(0xf8, 0x73)\n        /* \"#utility.yul\":1264:1282   */\n      0x64\n      dup3\n      add\n        /* \"#utility.yul\":1257:1288   */\n      mstore\n        /* \"#utility.yul\":1305:1324   */\n      0x84\n      add\n        /* \"contracts/base/Proxy.sol\":780:847  require(newImpl != address(0), \"Cannot upgrade to invalid address\") */\n      tag_13\n        /* \"#utility.yul\":933:1330   */\n      jump\n        /* \"contracts/base/Proxy.sol\":780:847  require(newImpl != address(0), \"Cannot upgrade to invalid address\") */\n    tag_44:\n        /* \"contracts/base/Proxy.sol\":650:668  extcodesize(_addr) */\n      dup1\n      extcodesize\n        /* \"contracts/base/Proxy.sol\":696:704  size > 0 */\n      0xffffffff\n      and\n        /* \"contracts/base/Proxy.sol\":857:903  require(isContract(newImpl), \"Not a contract\") */\n      tag_49\n      jumpi\n      mload(0x40)\n      shl(0xe5, 0x461bcd)\n      dup2\n      mstore\n        /* \"#utility.yul\":1897:1899   */\n      0x20\n        /* \"contracts/base/Proxy.sol\":857:903  require(isContract(newImpl), \"Not a contract\") */\n      0x04\n      dup3\n      add\n        /* \"#utility.yul\":1879:1900   */\n      mstore\n        /* \"#utility.yul\":1936:1938   */\n      0x0e\n        /* \"#utility.yul\":1916:1934   */\n      0x24\n      dup3\n      add\n        /* \"#utility.yul\":1909:1939   */\n      mstore\n      shl(0x92, 0x139bdd08184818dbdb9d1c9858dd)\n        /* \"#utility.yul\":1955:1973   */\n      0x44\n      dup3\n      add\n        /* \"#utility.yul\":1948:1992   */\n      mstore\n        /* \"#utility.yul\":2009:2027   */\n      0x64\n      add\n        /* \"contracts/base/Proxy.sol\":857:903  require(isContract(newImpl), \"Not a contract\") */\n      tag_13\n        /* \"#utility.yul\":1695:2033   */\n      jump\n        /* \"contracts/base/Proxy.sol\":857:903  require(isContract(newImpl), \"Not a contract\") */\n    tag_49:\n        /* \"contracts/base/Proxy.sol\":216:282  0xd5f7436adc48afaf7bd9d058121474d0b68958267edd0b25260c99ad5fb8f7e0 */\n      0xd5f7436adc48afaf7bd9d058121474d0b68958267edd0b25260c99ad5fb8f7e0\n        /* \"contracts/base/Proxy.sol\":493:504  sload(slot) */\n      sload\n      sub(shl(0xa0, 0x01), 0x01)\n        /* \"contracts/base/Proxy.sol\":921:949  newImpl != _implementation() */\n      and\n        /* \"contracts/base/Proxy.sol\":921:928  newImpl */\n      dup2\n      sub(shl(0xa0, 0x01), 0x01)\n        /* \"contracts/base/Proxy.sol\":921:949  newImpl != _implementation() */\n      and\n      eq\n      iszero\n        /* \"contracts/base/Proxy.sol\":913:995  require(newImpl != _implementation(), \"Cannot upgrade to the same implementation\") */\n      tag_53\n      jumpi\n      mload(0x40)\n      shl(0xe5, 0x461bcd)\n      dup2\n      mstore\n        /* \"#utility.yul\":2240:2242   */\n      0x20\n        /* \"contracts/base/Proxy.sol\":913:995  require(newImpl != _implementation(), \"Cannot upgrade to the same implementation\") */\n      0x04\n      dup3\n      add\n        /* \"#utility.yul\":2222:2243   */\n      mstore\n        /* \"#utility.yul\":2279:2281   */\n      0x29\n        /* \"#utility.yul\":2259:2277   */\n      0x24\n      dup3\n      add\n        /* \"#utility.yul\":2252:2282   */\n      mstore\n        /* \"#utility.yul\":2318:2352   */\n      0x43616e6e6f74207570677261646520746f207468652073616d6520696d706c65\n        /* \"#utility.yul\":2298:2316   */\n      0x44\n      dup3\n      add\n        /* \"#utility.yul\":2291:2353   */\n      mstore\n      shl(0xb9, 0x36b2b73a30ba34b7b7)\n        /* \"#utility.yul\":2369:2387   */\n      0x64\n      dup3\n      add\n        /* \"#utility.yul\":2362:2401   */\n      mstore\n        /* \"#utility.yul\":2418:2437   */\n      0x84\n      add\n        /* \"contracts/base/Proxy.sol\":913:995  require(newImpl != _implementation(), \"Cannot upgrade to the same implementation\") */\n      tag_13\n        /* \"#utility.yul\":2038:2443   */\n      jump\n        /* \"contracts/base/Proxy.sol\":913:995  require(newImpl != _implementation(), \"Cannot upgrade to the same implementation\") */\n    tag_53:\n        /* \"contracts/base/Proxy.sol\":216:282  0xd5f7436adc48afaf7bd9d058121474d0b68958267edd0b25260c99ad5fb8f7e0 */\n      0xd5f7436adc48afaf7bd9d058121474d0b68958267edd0b25260c99ad5fb8f7e0\n        /* \"contracts/base/Proxy.sol\":1060:1081  sstore(slot, newImpl) */\n      dup2\n      dup2\n      sstore\n        /* \"contracts/base/Proxy.sol\":1105:1122  Upgraded(newImpl) */\n      mload(0x40)\n      sub(shl(0xa0, 0x01), 0x01)\n      dup4\n      and\n      swap1\n      0xbc7cd75a20ee27fd9adebab32041f755214dbc6bffa90cc0225b39da2e5c2d3b\n      swap1\n        /* \"contracts/base/Proxy.sol\":1005:1017  bytes32 slot */\n      0x00\n      swap1\n        /* \"contracts/base/Proxy.sol\":1105:1122  Upgraded(newImpl) */\n      log2\n        /* \"contracts/base/Proxy.sol\":770:1129  {... */\n      pop\n        /* \"contracts/base/Proxy.sol\":718:1129  function _upgradeTo(address newImpl) public isOwner {... */\n      pop\n      jump\t// out\n        /* \"contracts/base/Base.sol\":614:810  function transferOwnership(address newOwner) public virtual isOwner {... */\n    tag_30:\n        /* \"contracts/base/Base.sol\":303:309  _owner */\n      and(sub(shl(0xa0, 0x01), 0x01), sload(0x00))\n        /* \"contracts/base/Base.sol\":289:299  msg.sender */\n      caller\n        /* \"contracts/base/Base.sol\":289:309  msg.sender == _owner */\n      eq\n        /* \"contracts/base/Base.sol\":282:310  assert(msg.sender == _owner) */\n      tag_58\n      jumpi\n      tag_58\n      tag_38\n      jump\t// in\n    tag_58:\n      sub(shl(0xa0, 0x01), 0x01)\n        /* \"contracts/base/Base.sol\":700:722  newOwner != address(0) */\n      dup2\n      and\n        /* \"contracts/base/Base.sol\":692:765  require(newOwner != address(0), \"Ownable: new owner is the zero address\") */\n      tag_60\n      jumpi\n      mload(0x40)\n      shl(0xe5, 0x461bcd)\n      dup2\n      mstore\n        /* \"#utility.yul\":728:730   */\n      0x20\n        /* \"contracts/base/Base.sol\":692:765  require(newOwner != address(0), \"Ownable: new owner is the zero address\") */\n      0x04\n      dup3\n      add\n        /* \"#utility.yul\":710:731   */\n      mstore\n        /* \"#utility.yul\":767:769   */\n      0x26\n        /* \"#utility.yul\":747:765   */\n      0x24\n      dup3\n      add\n        /* \"#utility.yul\":740:770   */\n      mstore\n        /* \"#utility.yul\":806:840   */\n      0x4f776e61626c653a206e6577206f776e657220697320746865207a65726f2061\n        /* \"#utility.yul\":786:804   */\n      0x44\n      dup3\n      add\n        /* \"#utility.yul\":779:841   */\n      mstore\n      shl(0xd0, 0x646472657373)\n        /* \"#utility.yul\":857:875   */\n      0x64\n      dup3\n      add\n        /* \"#utility.yul\":850:886   */\n      mstore\n        /* \"#utility.yul\":903:922   */\n      0x84\n      add\n        /* \"contracts/base/Base.sol\":692:765  require(newOwner != address(0), \"Ownable: new owner is the zero address\") */\n      tag_13\n        /* \"#utility.yul\":526:928   */\n      jump\n        /* \"contracts/base/Base.sol\":692:765  require(newOwner != address(0), \"Ownable: new owner is the zero address\") */\n    tag_60:\n        /* \"contracts/base/Base.sol\":775:803  _transferOwnership(newOwner) */\n      tag_63\n        /* \"contracts/base/Base.sol\":794:802  newOwner */\n      dup2\n        /* \"contracts/base/Base.sol\":775:793  _transferOwnership */\n      tag_64\n        /* \"contracts/base/Base.sol\":775:803  _transferOwnership(newOwner) */\n      jump\t// in\n    tag_63:\n        /* \"contracts/base/Base.sol\":614:810  function transferOwnership(address newOwner) public virtual isOwner {... */\n      pop\n      jump\t// out\n        /* \"contracts/base/Base.sol\":816:1003  function _transferOwnership(address newOwner) internal virtual {... */\n    tag_64:\n        /* \"contracts/base/Base.sol\":889:905  address oldOwner */\n      0x00\n        /* \"contracts/base/Base.sol\":908:914  _owner */\n      dup1\n      sload\n      sub(shl(0xa0, 0x01), 0x01)\n        /* \"contracts/base/Base.sol\":924:941  _owner = newOwner */\n      dup4\n      dup2\n      and\n      not(sub(shl(0xa0, 0x01), 0x01))\n      dup4\n      and\n      dup2\n      or\n      dup5\n      sstore\n        /* \"contracts/base/Base.sol\":956:996  OwnershipTransferred(oldOwner, newOwner) */\n      mload(0x40)\n        /* \"contracts/base/Base.sol\":908:914  _owner */\n      swap2\n      swap1\n      swap3\n      and\n      swap3\n      dup4\n      swap2\n        /* \"contracts/base/Base.sol\":956:996  OwnershipTransferred(oldOwner, newOwner) */\n      0x8be0079c531659141344cd1fd0a4f28419497f9722a3daafe3b4186f6b6457e0\n      swap2\n        /* \"contracts/base/Base.sol\":889:905  address oldOwner */\n      swap1\n        /* \"contracts/base/Base.sol\":956:996  OwnershipTransferred(oldOwner, newOwner) */\n      log3\n        /* \"contracts/base/Base.sol\":879:1003  {... */\n      pop\n        /* \"contracts/base/Base.sol\":816:1003  function _transferOwnership(address newOwner) internal virtual {... */\n      pop\n      jump\t// out\n        /* \"#utility.yul\":14:261   */\n    tag_25:\n        /* \"#utility.yul\":73:79   */\n      0x00\n        /* \"#utility.yul\":126:128   */\n      0x20\n        /* \"#utility.yul\":114:123   */\n      dup3\n        /* \"#utility.yul\":105:112   */\n      dup5\n        /* \"#utility.yul\":101:124   */\n      sub\n        /* \"#utility.yul\":97:129   */\n      slt\n        /* \"#utility.yul\":94:146   */\n      iszero\n      tag_69\n      jumpi\n        /* \"#utility.yul\":142:143   */\n      0x00\n        /* \"#utility.yul\":139:140   */\n      dup1\n        /* \"#utility.yul\":132:144   */\n      revert\n        /* \"#utility.yul\":94:146   */\n    tag_69:\n        /* \"#utility.yul\":181:190   */\n      dup2\n        /* \"#utility.yul\":168:191   */\n      calldataload\n        /* \"#utility.yul\":200:231   */\n      tag_70\n        /* \"#utility.yul\":225:230   */\n      dup2\n        /* \"#utility.yul\":200:231   */\n      tag_71\n      jump\t// in\n    tag_70:\n        /* \"#utility.yul\":250:255   */\n      swap4\n        /* \"#utility.yul\":14:261   */\n      swap3\n      pop\n      pop\n      pop\n      jump\t// out\n        /* \"#utility.yul\":2448:2575   */\n    tag_38:\n        /* \"#utility.yul\":2509:2519   */\n      0x4e487b71\n        /* \"#utility.yul\":2504:2507   */\n      0xe0\n        /* \"#utility.yul\":2500:2520   */\n      shl\n        /* \"#utility.yul\":2497:2498   */\n      0x00\n        /* \"#utility.yul\":2490:2521   */\n      mstore\n        /* \"#utility.yul\":2540:2544   */\n      0x01\n        /* \"#utility.yul\":2537:2538   */\n      0x04\n        /* \"#utility.yul\":2530:2545   */\n      mstore\n        /* \"#utility.yul\":2564:2568   */\n      0x24\n        /* \"#utility.yul\":2561:2562   */\n      0x00\n        /* \"#utility.yul\":2554:2569   */\n      revert\n        /* \"#utility.yul\":2580:2711   */\n    tag_71:\n      sub(shl(0xa0, 0x01), 0x01)\n        /* \"#utility.yul\":2655:2686   */\n      dup2\n      and\n        /* \"#utility.yul\":2645:2687   */\n      dup2\n      eq\n        /* \"#utility.yul\":2635:2705   */\n      tag_63\n      jumpi\n        /* \"#utility.yul\":2701:2702   */\n      0x00\n        /* \"#utility.yul\":2698:2699   */\n      dup1\n        /* \"#utility.yul\":2691:2703   */\n      revert\n\n    auxdata: 0xa2646970667358221220a7bf9640bd75c38465b99c8fed49e22ea1aa5b4181b2f4cd93d1d7caac43876964736f6c63430008070033\n}\n",
				"bytecode": {
					"linkReferences": {},
					"object": "608060405234801561001057600080fd5b50600080546001600160a01b0319338181169190921617179055610491806100396000396000f3fe6080604052600436106100385760003560e01c806314da447f146100d557806334140748146100f7578063f2fde38b1461011757610042565b3661004257600080fd5b600061006c7fd5f7436adc48afaf7bd9d058121474d0b68958267edd0b25260c99ad5fb8f7e05490565b90506001600160a01b0381166100c95760405162461bcd60e51b815260206004820152601f60248201527f696d706c656d656e746174696f6e20636f6e7472616374206e6f74207365740060448201526064015b60405180910390fd5b6100d281610137565b50005b3480156100e157600080fd5b506100f56100f036600461040c565b61015b565b005b34801561010357600080fd5b506100f561011236600461040c565b610181565b34801561012357600080fd5b506100f561013236600461040c565b610331565b3660008037600080366000845af43d6000803e808015610156573d6000f35b3d6000fd5b6000546001600160a01b0316331461017557610175610430565b806001600160a01b0316ff5b6000546001600160a01b0316331461019b5761019b610430565b6001600160a01b0381166101fb5760405162461bcd60e51b815260206004820152602160248201527f43616e6e6f74207570677261646520746f20696e76616c6964206164647265736044820152607360f81b60648201526084016100c0565b803b63ffffffff166102405760405162461bcd60e51b815260206004820152600e60248201526d139bdd08184818dbdb9d1c9858dd60921b60448201526064016100c0565b7fd5f7436adc48afaf7bd9d058121474d0b68958267edd0b25260c99ad5fb8f7e0546001600160a01b0316816001600160a01b031614156102d55760405162461bcd60e51b815260206004820152602960248201527f43616e6e6f74207570677261646520746f207468652073616d6520696d706c6560448201526836b2b73a30ba34b7b760b91b60648201526084016100c0565b7fd5f7436adc48afaf7bd9d058121474d0b68958267edd0b25260c99ad5fb8f7e08181556040516001600160a01b038316907fbc7cd75a20ee27fd9adebab32041f755214dbc6bffa90cc0225b39da2e5c2d3b90600090a25050565b6000546001600160a01b0316331461034b5761034b610430565b6001600160a01b0381166103b05760405162461bcd60e51b815260206004820152602660248201527f4f776e61626c653a206e6577206f776e657220697320746865207a65726f206160448201526564647265737360d01b60648201526084016100c0565b6103b9816103bc565b50565b600080546001600160a01b038381166001600160a01b0319831681178455604051919092169283917f8be0079c531659141344cd1fd0a4f28419497f9722a3daafe3b4186f6b6457e09190a35050565b60006020828403121561041e57600080fd5b813561042981610446565b9392505050565b634e487b7160e01b600052600160045260246000fd5b6001600160a01b03811681146103b957600080fdfea2646970667358221220a7bf9640bd75c38465b99c8fed49e22ea1aa5b4181b2f4cd93d1d7caac43876964736f6c63430008070033",
					"opcodes": "PUSH1 0x80 PUSH1 0x40 MSTORE CALLVALUE DUP1 ISZERO PUSH2 0x10 JUMPI PUSH1 0x0 DUP1 REVERT JUMPDEST POP PUSH1 0x0 DUP1 SLOAD PUSH1 0x1 PUSH1 0x1 PUSH1 0xA0 SHL SUB NOT CALLER DUP2 DUP2 AND SWAP2 SWAP1 SWAP3 AND OR OR SWAP1 SSTORE PUSH2 0x491 DUP1 PUSH2 0x39 PUSH1 0x0 CODECOPY PUSH1 0x0 RETURN INVALID PUSH1 0x80 PUSH1 0x40 MSTORE PUSH1 0x4 CALLDATASIZE LT PUSH2 0x38 JUMPI PUSH1 0x0 CALLDATALOAD PUSH1 0xE0 SHR DUP1 PUSH4 0x14DA447F EQ PUSH2 0xD5 JUMPI DUP1 PUSH4 0x34140748 EQ PUSH2 0xF7 JUMPI DUP1 PUSH4 0xF2FDE38B EQ PUSH2 0x117 JUMPI PUSH2 0x42 JUMP JUMPDEST CALLDATASIZE PUSH2 0x42 JUMPI PUSH1 0x0 DUP1 REVERT JUMPDEST PUSH1 0x0 PUSH2 0x6C PUSH32 0xD5F7436ADC48AFAF7BD9D058121474D0B68958267EDD0B25260C99AD5FB8F7E0 SLOAD SWAP1 JUMP JUMPDEST SWAP1 POP PUSH1 0x1 PUSH1 0x1 PUSH1 0xA0 SHL SUB DUP2 AND PUSH2 0xC9 JUMPI PUSH1 0x40 MLOAD PUSH3 0x461BCD PUSH1 0xE5 SHL DUP2 MSTORE PUSH1 0x20 PUSH1 0x4 DUP3 ADD MSTORE PUSH1 0x1F PUSH1 0x24 DUP3 ADD MSTORE PUSH32 0x696D706C656D656E746174696F6E20636F6E7472616374206E6F742073657400 PUSH1 0x44 DUP3 ADD MSTORE PUSH1 0x64 ADD JUMPDEST PUSH1 0x40 MLOAD DUP1 SWAP2 SUB SWAP1 REVERT JUMPDEST PUSH2 0xD2 DUP2 PUSH2 0x137 JUMP JUMPDEST POP STOP JUMPDEST CALLVALUE DUP1 ISZERO PUSH2 0xE1 JUMPI PUSH1 0x0 DUP1 REVERT JUMPDEST POP PUSH2 0xF5 PUSH2 0xF0 CALLDATASIZE PUSH1 0x4 PUSH2 0x40C JUMP JUMPDEST PUSH2 0x15B JUMP JUMPDEST STOP JUMPDEST CALLVALUE DUP1 ISZERO PUSH2 0x103 JUMPI PUSH1 0x0 DUP1 REVERT JUMPDEST POP PUSH2 0xF5 PUSH2 0x112 CALLDATASIZE PUSH1 0x4 PUSH2 0x40C JUMP JUMPDEST PUSH2 0x181 JUMP JUMPDEST CALLVALUE DUP1 ISZERO PUSH2 0x123 JUMPI PUSH1 0x0 DUP1 REVERT JUMPDEST POP PUSH2 0xF5 PUSH2 0x132 CALLDATASIZE PUSH1 0x4 PUSH2 0x40C JUMP JUMPDEST PUSH2 0x331 JUMP JUMPDEST CALLDATASIZE PUSH1 0x0 DUP1 CALLDATACOPY PUSH1 0x0 DUP1 CALLDATASIZE PUSH1 0x0 DUP5 GAS DELEGATECALL RETURNDATASIZE PUSH1 0x0 DUP1 RETURNDATACOPY DUP1 DUP1 ISZERO PUSH2 0x156 JUMPI RETURNDATASIZE PUSH1 0x0 RETURN JUMPDEST RETURNDATASIZE PUSH1 0x0 REVERT JUMPDEST PUSH1 0x0 SLOAD PUSH1 0x1 PUSH1 0x1 PUSH1 0xA0 SHL SUB AND CALLER EQ PUSH2 0x175 JUMPI PUSH2 0x175 PUSH2 0x430 JUMP JUMPDEST DUP1 PUSH1 0x1 PUSH1 0x1 PUSH1 0xA0 SHL SUB AND SELFDESTRUCT JUMPDEST PUSH1 0x0 SLOAD PUSH1 0x1 PUSH1 0x1 PUSH1 0xA0 SHL SUB AND CALLER EQ PUSH2 0x19B JUMPI PUSH2 0x19B PUSH2 0x430 JUMP JUMPDEST PUSH1 0x1 PUSH1 0x1 PUSH1 0xA0 SHL SUB DUP2 AND PUSH2 0x1FB JUMPI PUSH1 0x40 MLOAD PUSH3 0x461BCD PUSH1 0xE5 SHL DUP2 MSTORE PUSH1 0x20 PUSH1 0x4 DUP3 ADD MSTORE PUSH1 0x21 PUSH1 0x24 DUP3 ADD MSTORE PUSH32 0x43616E6E6F74207570677261646520746F20696E76616C696420616464726573 PUSH1 0x44 DUP3 ADD MSTORE PUSH1 0x73 PUSH1 0xF8 SHL PUSH1 0x64 DUP3 ADD MSTORE PUSH1 0x84 ADD PUSH2 0xC0 JUMP JUMPDEST DUP1 EXTCODESIZE PUSH4 0xFFFFFFFF AND PUSH2 0x240 JUMPI PUSH1 0x40 MLOAD PUSH3 0x461BCD PUSH1 0xE5 SHL DUP2 MSTORE PUSH1 0x20 PUSH1 0x4 DUP3 ADD MSTORE PUSH1 0xE PUSH1 0x24 DUP3 ADD MSTORE PUSH14 0x139BDD08184818DBDB9D1C9858DD PUSH1 0x92 SHL PUSH1 0x44 DUP3 ADD MSTORE PUSH1 0x64 ADD PUSH2 0xC0 JUMP JUMPDEST PUSH32 0xD5F7436ADC48AFAF7BD9D058121474D0B68958267EDD0B25260C99AD5FB8F7E0 SLOAD PUSH1 0x1 PUSH1 0x1 PUSH1 0xA0 SHL SUB AND DUP2 PUSH1 0x1 PUSH1 0x1 PUSH1 0xA0 SHL SUB AND EQ ISZERO PUSH2 0x2D5 JUMPI PUSH1 0x40 MLOAD PUSH3 0x461BCD PUSH1 0xE5 SHL DUP2 MSTORE PUSH1 0x20 PUSH1 0x4 DUP3 ADD MSTORE PUSH1 0x29 PUSH1 0x24 DUP3 ADD MSTORE PUSH32 0x43616E6E6F74207570677261646520746F207468652073616D6520696D706C65 PUSH1 0x44 DUP3 ADD MSTORE PUSH9 0x36B2B73A30BA34B7B7 PUSH1 0xB9 SHL PUSH1 0x64 DUP3 ADD MSTORE PUSH1 0x84 ADD PUSH2 0xC0 JUMP JUMPDEST PUSH32 0xD5F7436ADC48AFAF7BD9D058121474D0B68958267EDD0B25260C99AD5FB8F7E0 DUP2 DUP2 SSTORE PUSH1 0x40 MLOAD PUSH1 0x1 PUSH1 0x1 PUSH1 0xA0 SHL SUB DUP4 AND SWAP1 PUSH32 0xBC7CD75A20EE27FD9ADEBAB32041F755214DBC6BFFA90CC0225B39DA2E5C2D3B SWAP1 PUSH1 0x0 SWAP1 LOG2 POP POP JUMP JUMPDEST PUSH1 0x0 SLOAD PUSH1 0x1 PUSH1 0x1 PUSH1 0xA0 SHL SUB AND CALLER EQ PUSH2 0x34B JUMPI PUSH2 0x34B PUSH2 0x430 JUMP JUMPDEST PUSH1 0x1 PUSH1 0x1 PUSH1 0xA0 SHL SUB DUP2 AND PUSH2 0x3B0 JUMPI PUSH1 0x40 MLOAD PUSH3 0x461BCD PUSH1 0xE5 SHL DUP2 MSTORE PUSH1 0x20 PUSH1 0x4 DUP3 ADD MSTORE PUSH1 0x26 PUSH1 0x24 DUP3 ADD MSTORE PUSH32 0x4F776E61626C653A206E6577206F776E657220697320746865207A65726F2061 PUSH1 0x44 DUP3 ADD MSTORE PUSH6 0x646472657373 PUSH1 0xD0 SHL PUSH1 0x64 DUP3 ADD MSTORE PUSH1 0x84 ADD PUSH2 0xC0 JUMP JUMPDEST PUSH2 0x3B9 DUP2 PUSH2 0x3BC JUMP JUMPDEST POP JUMP JUMPDEST PUSH1 0x0 DUP1 SLOAD PUSH1 0x1 PUSH1 0x1 PUSH1 0xA0 SHL SUB DUP4 DUP2 AND PUSH1 0x1 PUSH1 0x1 PUSH1 0xA0 SHL SUB NOT DUP4 AND DUP2 OR DUP5 SSTORE PUSH1 0x40 MLOAD SWAP2 SWAP1 SWAP3 AND SWAP3 DUP4 SWAP2 PUSH32 0x8BE0079C531659141344CD1FD0A4F28419497F9722A3DAAFE3B4186F6B6457E0 SWAP2 SWAP1 LOG3 POP POP JUMP JUMPDEST PUSH1 0x0 PUSH1 0x20 DUP3 DUP5 SUB SLT ISZERO PUSH2 0x41E JUMPI PUSH1 0x0 DUP1 REVERT JUMPDEST DUP2 CALLDATALOAD PUSH2 0x429 DUP2 PUSH2 0x446 JUMP JUMPDEST SWAP4 SWAP3 POP POP POP JUMP JUMPDEST PUSH4 0x4E487B71 PUSH1 0xE0 SHL PUSH1 0x0 MSTORE PUSH1 0x1 PUSH1 0x4 MSTORE PUSH1 0x24 PUSH1 0x0 REVERT JUMPDEST PUSH1 0x1 PUSH1 0x1 PUSH1 0xA0 SHL SUB DUP2 AND DUP2 EQ PUSH2 0x3B9 JUMPI PUSH1 0x0 DUP1 REVERT INVALID LOG2 PUSH5 0x6970667358 0x22 SLT KECCAK256 0xA7 0xBF SWAP7 BLOCKHASH 0xBD PUSH22 0xC38465B99C8FED49E22EA1AA5B4181B2F4CD93D1D7CA 0xAC NUMBER DUP8 PUSH10 0x64736F6C634300080700 CALLER "
				},
				"gasEstimates": {
					"creation": {
						"codeDepositCost": "233800",
						"executionCost": "24531",
						"totalCost": "258331"
					},
					"external": {
						"": "infinite",
						"_upgradeTo(address)": "30536",
						"suicide0(address)": "30026",
						"transferOwnership(address)": "infinite"
					},
					"internal": {
						"_delegate(address)": "infinite",
						"_implementation()": "infinite",
						"isContract(address)": "infinite"
					}
				},
				"methodIdentifiers": {
					"_upgradeTo(address)": "34140748",
					"suicide0(address)": "14da447f",
					"transferOwnership(address)": "f2fde38b"
				}
			},
			"storageLayout": {
				"storage": [
					{
						"astId": 3,
						"contract": "contracts/base/Proxy.sol:Proxy",
						"label": "_owner",
						"offset": 0,
						"slot": "0",
						"type": "t_address"
					},
					{
						"astId": 5,
						"contract": "contracts/base/Proxy.sol:Proxy",
						"label": "_coinbase",
						"offset": 0,
						"slot": "1",
						"type": "t_address_payable"
					}
				],
				"types": {
					"t_address": {
						"encoding": "inplace",
						"label": "address",
						"numberOfBytes": "20"
					},
					"t_address_payable": {
						"encoding": "inplace",
						"label": "address payable",
						"numberOfBytes": "20"
					}
				}
			},
			"userdoc": {
				"kind": "user",
				"methods": {},
				"version": 1
			}
		}
	}
}