{
  "_format": "hh-sol-artifact-1",
  "contractName": "Whitelist",
  "sourceName": "contracts/Whitelist.sol",
  "abi": [
    {
      "anonymous": false,
      "inputs": [
        {
          "indexed": true,
          "internalType": "address",
          "name": "account",
          "type": "address"
        }
      ],
      "name": "AddressAdded",
      "type": "event"
    },
    {
      "anonymous": false,
      "inputs": [
        {
          "indexed": true,
          "internalType": "address",
          "name": "account",
          "type": "address"
        }
      ],
      "name": "AddressRemoved",
      "type": "event"
    },
    {
      "anonymous": false,
      "inputs": [
        {
          "indexed": true,
          "internalType": "address",
          "name": "previousOwner",
          "type": "address"
        },
        {
          "indexed": true,
          "internalType": "address",
          "name": "newOwner",
          "type": "address"
        }
      ],
      "name": "OwnershipTransferred",
      "type": "event"
    },
    {
      "inputs": [
        {
          "internalType": "address",
          "name": "account",
          "type": "address"
        }
      ],
      "name": "addToWhitelist",
      "outputs": [],
      "stateMutability": "nonpayable",
      "type": "function"
    },
    {
      "inputs": [
        {
          "internalType": "address",
          "name": "account",
          "type": "address"
        }
      ],
      "name": "isWhitelisted",
      "outputs": [
        {
          "internalType": "bool",
          "name": "",
          "type": "bool"
        }
      ],
      "stateMutability": "view",
      "type": "function"
    },
    {
      "inputs": [],
      "name": "owner",
      "outputs": [
        {
          "internalType": "address",
          "name": "",
          "type": "address"
        }
      ],
      "stateMutability": "view",
      "type": "function"
    },
    {
      "inputs": [
        {
          "internalType": "address",
          "name": "account",
          "type": "address"
        }
      ],
      "name": "removeFromWhitelist",
      "outputs": [],
      "stateMutability": "nonpayable",
      "type": "function"
    },
    {
      "inputs": [],
      "name": "renounceOwnership",
      "outputs": [],
      "stateMutability": "nonpayable",
      "type": "function"
    },
    {
      "inputs": [
        {
          "internalType": "address",
          "name": "newOwner",
          "type": "address"
        }
      ],
      "name": "transferOwnership",
      "outputs": [],
      "stateMutability": "nonpayable",
      "type": "function"
    }
  ],
  "bytecode": "0x608060405234801561000f575f80fd5b506100193361001e565b61006d565b5f80546001600160a01b038381166001600160a01b0319831681178455604051919092169283917f8be0079c531659141344cd1fd0a4f28419497f9722a3daafe3b4186f6b6457e09190a35050565b61045b8061007a5f395ff3fe608060405234801561000f575f80fd5b5060043610610060575f3560e01c80633af32abf14610064578063715018a6146100a45780638ab1d681146100ae5780638da5cb5b146100c1578063e43252d7146100db578063f2fde38b146100ee575b5f80fd5b61008f6100723660046103f8565b6001600160a01b03165f9081526001602052604090205460ff1690565b60405190151581526020015b60405180910390f35b6100ac610101565b005b6100ac6100bc3660046103f8565b610114565b5f546040516001600160a01b03909116815260200161009b565b6100ac6100e93660046103f8565b6101d0565b6100ac6100fc3660046103f8565b6102d7565b610109610350565b6101125f6103a9565b565b61011c610350565b6001600160a01b0381165f9081526001602052604090205460ff166101885760405162461bcd60e51b815260206004820152601b60248201527f41646472657373206973206e6f742077686974656c69737465642e000000000060448201526064015b60405180910390fd5b6001600160a01b0381165f81815260016020526040808220805460ff19169055517f24a12366c02e13fe4a9e03d86a8952e85bb74a456c16e4a18b6d8295700b74bb9190a250565b6101d8610350565b6001600160a01b0381166102215760405162461bcd60e51b815260206004820152601060248201526f24b73b30b634b21030b2323932b9b99760811b604482015260640161017f565b6001600160a01b0381165f9081526001602052604090205460ff16156102895760405162461bcd60e51b815260206004820152601f60248201527f4164647265737320697320616c72656164792077686974656c69737465642e00604482015260640161017f565b6001600160a01b0381165f818152600160208190526040808320805460ff1916909217909155517fa226db3f664042183ee0281230bba26cbf7b5057e50aee7f25a175ff45ce4d7f9190a250565b6102df610350565b6001600160a01b0381166103445760405162461bcd60e51b815260206004820152602660248201527f4f776e61626c653a206e6577206f776e657220697320746865207a65726f206160448201526564647265737360d01b606482015260840161017f565b61034d816103a9565b50565b5f546001600160a01b031633146101125760405162461bcd60e51b815260206004820181905260248201527f4f776e61626c653a2063616c6c6572206973206e6f7420746865206f776e6572604482015260640161017f565b5f80546001600160a01b038381166001600160a01b0319831681178455604051919092169283917f8be0079c531659141344cd1fd0a4f28419497f9722a3daafe3b4186f6b6457e09190a35050565b5f60208284031215610408575f80fd5b81356001600160a01b038116811461041e575f80fd5b939250505056fea2646970667358221220adabcf28b53765b7cf334950aa329ce183afb92babd4850636855d06a9b3e4e964736f6c63430008140033",
  "linkReferences": {},
  "deployedLinkReferences": {}
}