{
  "_format": "hh-sol-artifact-1",
  "contractName": "Proxy",
  "sourceName": "contracts/base/Proxy.sol",
  "abi": [
    {
      "inputs": [],
      "stateMutability": "nonpayable",
      "type": "constructor"
    },
    {
      "anonymous": false,
      "inputs": [
        {
          "indexed": true,
          "internalType": "address",
          "name": "previousOwner",
          "type": "address"
        },
        {
          "indexed": true,
          "internalType": "address",
          "name": "newOwner",
          "type": "address"
        }
      ],
      "name": "OwnershipTransferred",
      "type": "event"
    },
    {
      "anonymous": false,
      "inputs": [
        {
          "indexed": true,
          "internalType": "address",
          "name": "implementation",
          "type": "address"
        }
      ],
      "name": "Upgraded",
      "type": "event"
    },
    {
      "stateMutability": "payable",
      "type": "fallback"
    },
    {
      "inputs": [
        {
          "internalType": "address",
          "name": "newImpl",
          "type": "address"
        }
      ],
      "name": "_upgradeTo",
      "outputs": [],
      "stateMutability": "nonpayable",
      "type": "function"
    },
    {
      "inputs": [
        {
          "internalType": "address payable",
          "name": "receiver",
          "type": "address"
        }
      ],
      "name": "suicide0",
      "outputs": [],
      "stateMutability": "nonpayable",
      "type": "function"
    },
    {
      "inputs": [
        {
          "internalType": "address",
          "name": "newOwner",
          "type": "address"
        }
      ],
      "name": "transferOwnership",
      "outputs": [],
      "stateMutability": "nonpayable",
      "type": "function"
    },
    {
      "stateMutability": "payable",
      "type": "receive"
    }
  ],
  "bytecode": "0x608060405234801561000f575f80fd5b505f80546001600160a01b0319338181169190921617179055610477806100355f395ff3fe608060405260043610610037575f3560e01c806314da447f146100d157806334140748146100f0578063f2fde38b1461010f57610040565b36610040575f80fd5b5f6100697fd5f7436adc48afaf7bd9d058121474d0b68958267edd0b25260c99ad5fb8f7e05490565b90506001600160a01b0381166100c65760405162461bcd60e51b815260206004820152601f60248201527f696d706c656d656e746174696f6e20636f6e7472616374206e6f74207365740060448201526064015b60405180910390fd5b6100cf8161012e565b005b3480156100dc575f80fd5b506100cf6100eb36600461040b565b61014c565b3480156100fb575f80fd5b506100cf61010a36600461040b565b610171565b34801561011a575f80fd5b506100cf61012936600461040b565b61031e565b365f80375f80365f845af43d5f803e808015610148573d5ff35b3d5ffd5b5f546001600160a01b031633146101655761016561042d565b806001600160a01b0316ff5b5f546001600160a01b0316331461018a5761018a61042d565b6001600160a01b0381166101ea5760405162461bcd60e51b815260206004820152602160248201527f43616e6e6f74207570677261646520746f20696e76616c6964206164647265736044820152607360f81b60648201526084016100bd565b803b63ffffffff1661022f5760405162461bcd60e51b815260206004820152600e60248201526d139bdd08184818dbdb9d1c9858dd60921b60448201526064016100bd565b7fd5f7436adc48afaf7bd9d058121474d0b68958267edd0b25260c99ad5fb8f7e0546001600160a01b0316816001600160a01b0316036102c35760405162461bcd60e51b815260206004820152602960248201527f43616e6e6f74207570677261646520746f207468652073616d6520696d706c6560448201526836b2b73a30ba34b7b760b91b60648201526084016100bd565b7fd5f7436adc48afaf7bd9d058121474d0b68958267edd0b25260c99ad5fb8f7e08181556040516001600160a01b038316907fbc7cd75a20ee27fd9adebab32041f755214dbc6bffa90cc0225b39da2e5c2d3b905f90a25050565b5f546001600160a01b031633146103375761033761042d565b6001600160a01b03811661039c5760405162461bcd60e51b815260206004820152602660248201527f4f776e61626c653a206e6577206f776e657220697320746865207a65726f206160448201526564647265737360d01b60648201526084016100bd565b6103a5816103a8565b50565b5f80546001600160a01b038381166001600160a01b0319831681178455604051919092169283917f8be0079c531659141344cd1fd0a4f28419497f9722a3daafe3b4186f6b6457e09190a35050565b6001600160a01b03811681146103a5575f80fd5b5f6020828403121561041b575f80fd5b8135610426816103f7565b9392505050565b634e487b7160e01b5f52600160045260245ffdfea264697066735822122082fc24cd8ec01aa5fc7197ef128186abb2b28750e9888ad71dd3ae51d39f696564736f6c63430008140033",
  "linkReferences": {},
  "deployedLinkReferences": {}
}